{
	"contracts/CharityDonationView.sol": {
		"CharityDonationView": {
			"abi": [
				{
					"inputs": [
						{
							"internalType": "address",
							"name": "",
							"type": "address"
						},
						{
							"internalType": "address",
							"name": "",
							"type": "address"
						}
					],
					"name": "admins",
					"outputs": [
						{
							"internalType": "bool",
							"name": "",
							"type": "bool"
						}
					],
					"stateMutability": "view",
					"type": "function"
				},
				{
					"inputs": [
						{
							"internalType": "address",
							"name": "",
							"type": "address"
						},
						{
							"internalType": "uint256",
							"name": "",
							"type": "uint256"
						}
					],
					"name": "campaignAdmins",
					"outputs": [
						{
							"internalType": "address",
							"name": "",
							"type": "address"
						}
					],
					"stateMutability": "view",
					"type": "function"
				},
				{
					"inputs": [
						{
							"internalType": "uint256",
							"name": "_campaignId",
							"type": "uint256"
						},
						{
							"internalType": "address",
							"name": "_campaignAddress",
							"type": "address"
						}
					],
					"name": "campaignDetails",
					"outputs": [
						{
							"components": [
								{
									"internalType": "uint256",
									"name": "campaign_id",
									"type": "uint256"
								},
								{
									"internalType": "string",
									"name": "title",
									"type": "string"
								},
								{
									"internalType": "string",
									"name": "description",
									"type": "string"
								},
								{
									"internalType": "address",
									"name": "campaignAddress",
									"type": "address"
								},
								{
									"internalType": "uint256",
									"name": "targetAmount",
									"type": "uint256"
								},
								{
									"internalType": "uint256",
									"name": "raisedAmount",
									"type": "uint256"
								},
								{
									"internalType": "uint256",
									"name": "deadline",
									"type": "uint256"
								},
								{
									"internalType": "bool",
									"name": "isCompleted",
									"type": "bool"
								},
								{
									"internalType": "bool",
									"name": "isCancelled",
									"type": "bool"
								}
							],
							"internalType": "struct CharityDonationStorage.Campaign",
							"name": "thisCampaign",
							"type": "tuple"
						},
						{
							"internalType": "uint256",
							"name": "donorsnumber",
							"type": "uint256"
						},
						{
							"internalType": "address[]",
							"name": "campaigndonors",
							"type": "address[]"
						}
					],
					"stateMutability": "view",
					"type": "function"
				},
				{
					"inputs": [
						{
							"internalType": "address",
							"name": "",
							"type": "address"
						},
						{
							"internalType": "uint256",
							"name": "",
							"type": "uint256"
						}
					],
					"name": "campaigns",
					"outputs": [
						{
							"internalType": "uint256",
							"name": "campaign_id",
							"type": "uint256"
						},
						{
							"internalType": "string",
							"name": "title",
							"type": "string"
						},
						{
							"internalType": "string",
							"name": "description",
							"type": "string"
						},
						{
							"internalType": "address",
							"name": "campaignAddress",
							"type": "address"
						},
						{
							"internalType": "uint256",
							"name": "targetAmount",
							"type": "uint256"
						},
						{
							"internalType": "uint256",
							"name": "raisedAmount",
							"type": "uint256"
						},
						{
							"internalType": "uint256",
							"name": "deadline",
							"type": "uint256"
						},
						{
							"internalType": "bool",
							"name": "isCompleted",
							"type": "bool"
						},
						{
							"internalType": "bool",
							"name": "isCancelled",
							"type": "bool"
						}
					],
					"stateMutability": "view",
					"type": "function"
				},
				{
					"inputs": [
						{
							"internalType": "address",
							"name": "",
							"type": "address"
						},
						{
							"internalType": "uint256",
							"name": "",
							"type": "uint256"
						}
					],
					"name": "donors",
					"outputs": [
						{
							"internalType": "address",
							"name": "campaignAddress",
							"type": "address"
						},
						{
							"internalType": "uint256",
							"name": "campaignId",
							"type": "uint256"
						},
						{
							"internalType": "string",
							"name": "title",
							"type": "string"
						},
						{
							"internalType": "uint256",
							"name": "amount",
							"type": "uint256"
						}
					],
					"stateMutability": "view",
					"type": "function"
				},
				{
					"inputs": [
						{
							"internalType": "address",
							"name": "",
							"type": "address"
						},
						{
							"internalType": "uint256",
							"name": "",
							"type": "uint256"
						},
						{
							"internalType": "uint256",
							"name": "",
							"type": "uint256"
						}
					],
					"name": "donorsForCampaign",
					"outputs": [
						{
							"internalType": "address",
							"name": "",
							"type": "address"
						}
					],
					"stateMutability": "view",
					"type": "function"
				},
				{
					"inputs": [
						{
							"internalType": "uint256",
							"name": "_campaignId",
							"type": "uint256"
						},
						{
							"internalType": "address",
							"name": "_campaignAddress",
							"type": "address"
						}
					],
					"name": "getCampaignBalance",
					"outputs": [
						{
							"internalType": "uint256",
							"name": "",
							"type": "uint256"
						}
					],
					"stateMutability": "view",
					"type": "function"
				},
				{
					"inputs": [
						{
							"internalType": "uint256",
							"name": "_campaignId",
							"type": "uint256"
						},
						{
							"internalType": "address",
							"name": "_campaignAddress",
							"type": "address"
						}
					],
					"name": "getCampaignProgress",
					"outputs": [
						{
							"internalType": "uint256",
							"name": "goalamount",
							"type": "uint256"
						},
						{
							"internalType": "uint256",
							"name": "raisedAmount",
							"type": "uint256"
						},
						{
							"internalType": "uint256",
							"name": "donorsNumber",
							"type": "uint256"
						},
						{
							"internalType": "address[]",
							"name": "campaigndonors",
							"type": "address[]"
						}
					],
					"stateMutability": "view",
					"type": "function"
				},
				{
					"inputs": [],
					"name": "getContractBalance",
					"outputs": [
						{
							"internalType": "uint256",
							"name": "",
							"type": "uint256"
						}
					],
					"stateMutability": "view",
					"type": "function"
				},
				{
					"inputs": [
						{
							"internalType": "address",
							"name": "_campaignAddress",
							"type": "address"
						}
					],
					"name": "viewCampaignAdmins",
					"outputs": [
						{
							"internalType": "address[]",
							"name": "",
							"type": "address[]"
						}
					],
					"stateMutability": "view",
					"type": "function"
				},
				{
					"inputs": [],
					"name": "viewCampaigns",
					"outputs": [
						{
							"components": [
								{
									"internalType": "uint256",
									"name": "campaign_id",
									"type": "uint256"
								},
								{
									"internalType": "string",
									"name": "title",
									"type": "string"
								},
								{
									"internalType": "string",
									"name": "description",
									"type": "string"
								},
								{
									"internalType": "address",
									"name": "campaignAddress",
									"type": "address"
								},
								{
									"internalType": "uint256",
									"name": "targetAmount",
									"type": "uint256"
								},
								{
									"internalType": "uint256",
									"name": "raisedAmount",
									"type": "uint256"
								},
								{
									"internalType": "uint256",
									"name": "deadline",
									"type": "uint256"
								},
								{
									"internalType": "bool",
									"name": "isCompleted",
									"type": "bool"
								},
								{
									"internalType": "bool",
									"name": "isCancelled",
									"type": "bool"
								}
							],
							"internalType": "struct CharityDonationStorage.Campaign[]",
							"name": "",
							"type": "tuple[]"
						}
					],
					"stateMutability": "view",
					"type": "function"
				},
				{
					"inputs": [],
					"name": "viewDonations",
					"outputs": [
						{
							"components": [
								{
									"internalType": "address",
									"name": "campaignAddress",
									"type": "address"
								},
								{
									"internalType": "uint256",
									"name": "campaignId",
									"type": "uint256"
								},
								{
									"internalType": "string",
									"name": "title",
									"type": "string"
								},
								{
									"internalType": "uint256",
									"name": "amount",
									"type": "uint256"
								}
							],
							"internalType": "struct CharityDonationStorage.Donation[]",
							"name": "",
							"type": "tuple[]"
						}
					],
					"stateMutability": "view",
					"type": "function"
				},
				{
					"inputs": [
						{
							"internalType": "address",
							"name": "_campaignAddress",
							"type": "address"
						}
					],
					"name": "viewWithdrawals",
					"outputs": [
						{
							"components": [
								{
									"internalType": "uint256",
									"name": "campaignId",
									"type": "uint256"
								},
								{
									"internalType": "string",
									"name": "title",
									"type": "string"
								},
								{
									"internalType": "uint256",
									"name": "amount",
									"type": "uint256"
								},
								{
									"internalType": "address",
									"name": "by",
									"type": "address"
								},
								{
									"internalType": "address",
									"name": "to",
									"type": "address"
								}
							],
							"internalType": "struct CharityDonationStorage.Withdrawals[]",
							"name": "",
							"type": "tuple[]"
						}
					],
					"stateMutability": "view",
					"type": "function"
				},
				{
					"inputs": [
						{
							"internalType": "address",
							"name": "",
							"type": "address"
						},
						{
							"internalType": "uint256",
							"name": "",
							"type": "uint256"
						}
					],
					"name": "withdrawals",
					"outputs": [
						{
							"internalType": "uint256",
							"name": "campaignId",
							"type": "uint256"
						},
						{
							"internalType": "string",
							"name": "title",
							"type": "string"
						},
						{
							"internalType": "uint256",
							"name": "amount",
							"type": "uint256"
						},
						{
							"internalType": "address",
							"name": "by",
							"type": "address"
						},
						{
							"internalType": "address",
							"name": "to",
							"type": "address"
						}
					],
					"stateMutability": "view",
					"type": "function"
				}
			],
			"devdoc": {
				"kind": "dev",
				"methods": {},
				"version": 1
			},
			"evm": {
				"assembly": "    /* \"contracts/CharityDonationView.sol\":106:3135  contract CharityDonationView is CharityDonationSecurity {... */\n  mstore(0x40, 0x80)\n  callvalue\n  dup1\n  iszero\n  tag_1\n  jumpi\n  0x00\n  dup1\n  revert\ntag_1:\n  pop\n    /* \"contracts/CharityDonationSecurity.sol\":316:326  msg.sender */\n  caller\n    /* \"contracts/CharityDonationSecurity.sol\":300:313  contractOwner */\n  0x06\n  0x00\n    /* \"contracts/CharityDonationSecurity.sol\":300:326  contractOwner = msg.sender */\n  0x0100\n  exp\n  dup2\n  sload\n  dup2\n  0xffffffffffffffffffffffffffffffffffffffff\n  mul\n  not\n  and\n  swap1\n  dup4\n  0xffffffffffffffffffffffffffffffffffffffff\n  and\n  mul\n  or\n  swap1\n  sstore\n  pop\n    /* \"contracts/CharityDonationView.sol\":106:3135  contract CharityDonationView is CharityDonationSecurity {... */\n  dataSize(sub_0)\n  dup1\n  dataOffset(sub_0)\n  0x00\n  codecopy\n  0x00\n  return\nstop\n\nsub_0: assembly {\n        /* \"contracts/CharityDonationView.sol\":106:3135  contract CharityDonationView is CharityDonationSecurity {... */\n      mstore(0x40, 0x80)\n      callvalue\n      dup1\n      iszero\n      tag_1\n      jumpi\n      0x00\n      dup1\n      revert\n    tag_1:\n      pop\n      jumpi(tag_2, lt(calldatasize, 0x04))\n      shr(0xe0, calldataload(0x00))\n      dup1\n      0x6f9fb98a\n      gt\n      tag_17\n      jumpi\n      dup1\n      0xbe21739e\n      gt\n      tag_18\n      jumpi\n      dup1\n      0xbe21739e\n      eq\n      tag_13\n      jumpi\n      dup1\n      0xdf171c0d\n      eq\n      tag_14\n      jumpi\n      dup1\n      0xe6c9099a\n      eq\n      tag_15\n      jumpi\n      dup1\n      0xe81c411d\n      eq\n      tag_16\n      jumpi\n      jump(tag_2)\n    tag_18:\n      dup1\n      0x6f9fb98a\n      eq\n      tag_10\n      jumpi\n      dup1\n      0x82fed30b\n      eq\n      tag_11\n      jumpi\n      dup1\n      0x9b56f5f0\n      eq\n      tag_12\n      jumpi\n      jump(tag_2)\n    tag_17:\n      dup1\n      0x366919e9\n      gt\n      tag_19\n      jumpi\n      dup1\n      0x366919e9\n      eq\n      tag_6\n      jumpi\n      dup1\n      0x422b1077\n      eq\n      tag_7\n      jumpi\n      dup1\n      0x584bea2c\n      eq\n      tag_8\n      jumpi\n      dup1\n      0x675b6211\n      eq\n      tag_9\n      jumpi\n      jump(tag_2)\n    tag_19:\n      dup1\n      0x11555dbc\n      eq\n      tag_3\n      jumpi\n      dup1\n      0x1f55e5bc\n      eq\n      tag_4\n      jumpi\n      dup1\n      0x28f5bd9b\n      eq\n      tag_5\n      jumpi\n    tag_2:\n      0x00\n      dup1\n      revert\n        /* \"contracts/CharityDonationStorage.sol\":854:903  mapping  (address => Campaign[]) public campaigns */\n    tag_3:\n      tag_20\n      0x04\n      dup1\n      calldatasize\n      sub\n      dup2\n      add\n      swap1\n      tag_21\n      swap2\n      swap1\n      tag_22\n      jump\t// in\n    tag_21:\n      tag_23\n      jump\t// in\n    tag_20:\n      mload(0x40)\n      tag_24\n      swap10\n      swap9\n      swap8\n      swap7\n      swap6\n      swap5\n      swap4\n      swap3\n      swap2\n      swap1\n      tag_25\n      jump\t// in\n    tag_24:\n      mload(0x40)\n      dup1\n      swap2\n      sub\n      swap1\n      return\n        /* \"contracts/CharityDonationStorage.sol\":1080:1134  mapping  (address => address[]) public  campaignAdmins */\n    tag_4:\n      tag_26\n      0x04\n      dup1\n      calldatasize\n      sub\n      dup2\n      add\n      swap1\n      tag_27\n      swap2\n      swap1\n      tag_22\n      jump\t// in\n    tag_27:\n      tag_28\n      jump\t// in\n    tag_26:\n      mload(0x40)\n      tag_29\n      swap2\n      swap1\n      tag_30\n      jump\t// in\n    tag_29:\n      mload(0x40)\n      dup1\n      swap2\n      sub\n      swap1\n      return\n        /* \"contracts/CharityDonationView.sol\":2654:2805  function viewCampaignAdmins(address _campaignAddress) public view returns (address[] memory ){... */\n    tag_5:\n      tag_31\n      0x04\n      dup1\n      calldatasize\n      sub\n      dup2\n      add\n      swap1\n      tag_32\n      swap2\n      swap1\n      tag_33\n      jump\t// in\n    tag_32:\n      tag_34\n      jump\t// in\n    tag_31:\n      mload(0x40)\n      tag_35\n      swap2\n      swap1\n      tag_36\n      jump\t// in\n    tag_35:\n      mload(0x40)\n      dup1\n      swap2\n      sub\n      swap1\n      return\n        /* \"contracts/CharityDonationView.sol\":2506:2618  function viewCampaigns() public view returns (Campaign[] memory) {... */\n    tag_6:\n      tag_37\n      tag_38\n      jump\t// in\n    tag_37:\n      mload(0x40)\n      tag_39\n      swap2\n      swap1\n      tag_40\n      jump\t// in\n    tag_39:\n      mload(0x40)\n      dup1\n      swap2\n      sub\n      swap1\n      return\n        /* \"contracts/CharityDonationStorage.sol\":1283:1336  mapping (address => Withdrawals[]) public withdrawals */\n    tag_7:\n      tag_41\n      0x04\n      dup1\n      calldatasize\n      sub\n      dup2\n      add\n      swap1\n      tag_42\n      swap2\n      swap1\n      tag_22\n      jump\t// in\n    tag_42:\n      tag_43\n      jump\t// in\n    tag_41:\n      mload(0x40)\n      tag_44\n      swap6\n      swap5\n      swap4\n      swap3\n      swap2\n      swap1\n      tag_45\n      jump\t// in\n    tag_44:\n      mload(0x40)\n      dup1\n      swap2\n      sub\n      swap1\n      return\n        /* \"contracts/CharityDonationView.sol\":864:1946  function getCampaignProgress(uint256 _campaignId, address _campaignAddress) public view returns (uint256 goalamount,uint256 raisedAmount, uint256 donorsNumber,address[] memory campaigndonors) {... */\n    tag_8:\n      tag_46\n      0x04\n      dup1\n      calldatasize\n      sub\n      dup2\n      add\n      swap1\n      tag_47\n      swap2\n      swap1\n      tag_48\n      jump\t// in\n    tag_47:\n      tag_49\n      jump\t// in\n    tag_46:\n      mload(0x40)\n      tag_50\n      swap5\n      swap4\n      swap3\n      swap2\n      swap1\n      tag_51\n      jump\t// in\n    tag_50:\n      mload(0x40)\n      dup1\n      swap2\n      sub\n      swap1\n      return\n        /* \"contracts/CharityDonationView.sol\":1993:2453  function campaignDetails(uint256 _campaignId, address _campaignAddress) public view returns(Campaign memory thisCampaign, uint256 donorsnumber, address[] memory campaigndonors) {... */\n    tag_9:\n      tag_52\n      0x04\n      dup1\n      calldatasize\n      sub\n      dup2\n      add\n      swap1\n      tag_53\n      swap2\n      swap1\n      tag_48\n      jump\t// in\n    tag_53:\n      tag_54\n      jump\t// in\n    tag_52:\n      mload(0x40)\n      tag_55\n      swap4\n      swap3\n      swap2\n      swap1\n      tag_56\n      jump\t// in\n    tag_55:\n      mload(0x40)\n      dup1\n      swap2\n      sub\n      swap1\n      return\n        /* \"contracts/CharityDonationView.sol\":215:340  function getContractBalance() public view onlyContractOwner returns (uint256) {... */\n    tag_10:\n      tag_57\n      tag_58\n      jump\t// in\n    tag_57:\n      mload(0x40)\n      tag_59\n      swap2\n      swap1\n      tag_60\n      jump\t// in\n    tag_59:\n      mload(0x40)\n      dup1\n      swap2\n      sub\n      swap1\n      return\n        /* \"contracts/CharityDonationView.sol\":376:827  function getCampaignBalance(uint256 _campaignId, address _campaignAddress)  public view returns (uint256){... */\n    tag_11:\n      tag_61\n      0x04\n      dup1\n      calldatasize\n      sub\n      dup2\n      add\n      swap1\n      tag_62\n      swap2\n      swap1\n      tag_48\n      jump\t// in\n    tag_62:\n      tag_63\n      jump\t// in\n    tag_61:\n      mload(0x40)\n      tag_64\n      swap2\n      swap1\n      tag_60\n      jump\t// in\n    tag_64:\n      mload(0x40)\n      dup1\n      swap2\n      sub\n      swap1\n      return\n        /* \"contracts/CharityDonationStorage.sol\":1184:1229  mapping (address => Donation[]) public donors */\n    tag_12:\n      tag_65\n      0x04\n      dup1\n      calldatasize\n      sub\n      dup2\n      add\n      swap1\n      tag_66\n      swap2\n      swap1\n      tag_22\n      jump\t// in\n    tag_66:\n      tag_67\n      jump\t// in\n    tag_65:\n      mload(0x40)\n      tag_68\n      swap5\n      swap4\n      swap3\n      swap2\n      swap1\n      tag_69\n      jump\t// in\n    tag_68:\n      mload(0x40)\n      dup1\n      swap2\n      sub\n      swap1\n      return\n        /* \"contracts/CharityDonationStorage.sol\":963:1024  mapping  (address => mapping (address => bool)) public admins */\n    tag_13:\n      tag_70\n      0x04\n      dup1\n      calldatasize\n      sub\n      dup2\n      add\n      swap1\n      tag_71\n      swap2\n      swap1\n      tag_72\n      jump\t// in\n    tag_71:\n      tag_73\n      jump\t// in\n    tag_70:\n      mload(0x40)\n      tag_74\n      swap2\n      swap1\n      tag_75\n      jump\t// in\n    tag_74:\n      mload(0x40)\n      dup1\n      swap2\n      sub\n      swap1\n      return\n        /* \"contracts/CharityDonationView.sol\":2983:3132  function viewWithdrawals(address _campaignAddress) public view returns (Withdrawals[] memory) {... */\n    tag_14:\n      tag_76\n      0x04\n      dup1\n      calldatasize\n      sub\n      dup2\n      add\n      swap1\n      tag_77\n      swap2\n      swap1\n      tag_33\n      jump\t// in\n    tag_77:\n      tag_78\n      jump\t// in\n    tag_76:\n      mload(0x40)\n      tag_79\n      swap2\n      swap1\n      tag_80\n      jump\t// in\n    tag_79:\n      mload(0x40)\n      dup1\n      swap2\n      sub\n      swap1\n      return\n        /* \"contracts/CharityDonationStorage.sol\":1423:1499  mapping (address => mapping (uint256 => address[])) public donorsForCampaign */\n    tag_15:\n      tag_81\n      0x04\n      dup1\n      calldatasize\n      sub\n      dup2\n      add\n      swap1\n      tag_82\n      swap2\n      swap1\n      tag_83\n      jump\t// in\n    tag_82:\n      tag_84\n      jump\t// in\n    tag_81:\n      mload(0x40)\n      tag_85\n      swap2\n      swap1\n      tag_30\n      jump\t// in\n    tag_85:\n      mload(0x40)\n      dup1\n      swap2\n      sub\n      swap1\n      return\n        /* \"contracts/CharityDonationView.sol\":2841:2950  function viewDonations() public view returns (Donation[] memory) {... */\n    tag_16:\n      tag_86\n      tag_87\n      jump\t// in\n    tag_86:\n      mload(0x40)\n      tag_88\n      swap2\n      swap1\n      tag_89\n      jump\t// in\n    tag_88:\n      mload(0x40)\n      dup1\n      swap2\n      sub\n      swap1\n      return\n        /* \"contracts/CharityDonationStorage.sol\":854:903  mapping  (address => Campaign[]) public campaigns */\n    tag_23:\n      mstore(0x20, 0x00)\n      dup2\n      0x00\n      mstore\n      keccak256(0x00, 0x40)\n      dup2\n      dup2\n      sload\n      dup2\n      lt\n      tag_90\n      jumpi\n      0x00\n      dup1\n      revert\n    tag_90:\n      swap1\n      0x00\n      mstore\n      keccak256(0x00, 0x20)\n      swap1\n      0x08\n      mul\n      add\n      0x00\n      swap2\n      pop\n      swap2\n      pop\n      pop\n      dup1\n      0x00\n      add\n      sload\n      swap1\n      dup1\n      0x01\n      add\n      dup1\n      sload\n      tag_92\n      swap1\n      tag_93\n      jump\t// in\n    tag_92:\n      dup1\n      0x1f\n      add\n      0x20\n      dup1\n      swap2\n      div\n      mul\n      0x20\n      add\n      mload(0x40)\n      swap1\n      dup2\n      add\n      0x40\n      mstore\n      dup1\n      swap3\n      swap2\n      swap1\n      dup2\n      dup2\n      mstore\n      0x20\n      add\n      dup3\n      dup1\n      sload\n      tag_94\n      swap1\n      tag_93\n      jump\t// in\n    tag_94:\n      dup1\n      iszero\n      tag_95\n      jumpi\n      dup1\n      0x1f\n      lt\n      tag_96\n      jumpi\n      0x0100\n      dup1\n      dup4\n      sload\n      div\n      mul\n      dup4\n      mstore\n      swap2\n      0x20\n      add\n      swap2\n      jump(tag_95)\n    tag_96:\n      dup3\n      add\n      swap2\n      swap1\n      0x00\n      mstore\n      keccak256(0x00, 0x20)\n      swap1\n    tag_97:\n      dup2\n      sload\n      dup2\n      mstore\n      swap1\n      0x01\n      add\n      swap1\n      0x20\n      add\n      dup1\n      dup4\n      gt\n      tag_97\n      jumpi\n      dup3\n      swap1\n      sub\n      0x1f\n      and\n      dup3\n      add\n      swap2\n    tag_95:\n      pop\n      pop\n      pop\n      pop\n      pop\n      swap1\n      dup1\n      0x02\n      add\n      dup1\n      sload\n      tag_98\n      swap1\n      tag_93\n      jump\t// in\n    tag_98:\n      dup1\n      0x1f\n      add\n      0x20\n      dup1\n      swap2\n      div\n      mul\n      0x20\n      add\n      mload(0x40)\n      swap1\n      dup2\n      add\n      0x40\n      mstore\n      dup1\n      swap3\n      swap2\n      swap1\n      dup2\n      dup2\n      mstore\n      0x20\n      add\n      dup3\n      dup1\n      sload\n      tag_99\n      swap1\n      tag_93\n      jump\t// in\n    tag_99:\n      dup1\n      iszero\n      tag_100\n      jumpi\n      dup1\n      0x1f\n      lt\n      tag_101\n      jumpi\n      0x0100\n      dup1\n      dup4\n      sload\n      div\n      mul\n      dup4\n      mstore\n      swap2\n      0x20\n      add\n      swap2\n      jump(tag_100)\n    tag_101:\n      dup3\n      add\n      swap2\n      swap1\n      0x00\n      mstore\n      keccak256(0x00, 0x20)\n      swap1\n    tag_102:\n      dup2\n      sload\n      dup2\n      mstore\n      swap1\n      0x01\n      add\n      swap1\n      0x20\n      add\n      dup1\n      dup4\n      gt\n      tag_102\n      jumpi\n      dup3\n      swap1\n      sub\n      0x1f\n      and\n      dup3\n      add\n      swap2\n    tag_100:\n      pop\n      pop\n      pop\n      pop\n      pop\n      swap1\n      dup1\n      0x03\n      add\n      0x00\n      swap1\n      sload\n      swap1\n      0x0100\n      exp\n      swap1\n      div\n      0xffffffffffffffffffffffffffffffffffffffff\n      and\n      swap1\n      dup1\n      0x04\n      add\n      sload\n      swap1\n      dup1\n      0x05\n      add\n      sload\n      swap1\n      dup1\n      0x06\n      add\n      sload\n      swap1\n      dup1\n      0x07\n      add\n      0x00\n      swap1\n      sload\n      swap1\n      0x0100\n      exp\n      swap1\n      div\n      0xff\n      and\n      swap1\n      dup1\n      0x07\n      add\n      0x01\n      swap1\n      sload\n      swap1\n      0x0100\n      exp\n      swap1\n      div\n      0xff\n      and\n      swap1\n      pop\n      dup10\n      jump\t// out\n        /* \"contracts/CharityDonationStorage.sol\":1080:1134  mapping  (address => address[]) public  campaignAdmins */\n    tag_28:\n      mstore(0x20, 0x02)\n      dup2\n      0x00\n      mstore\n      keccak256(0x00, 0x40)\n      dup2\n      dup2\n      sload\n      dup2\n      lt\n      tag_103\n      jumpi\n      0x00\n      dup1\n      revert\n    tag_103:\n      swap1\n      0x00\n      mstore\n      keccak256(0x00, 0x20)\n      add\n      0x00\n      swap2\n      pop\n      swap2\n      pop\n      swap1\n      sload\n      swap1\n      0x0100\n      exp\n      swap1\n      div\n      0xffffffffffffffffffffffffffffffffffffffff\n      and\n      dup2\n      jump\t// out\n        /* \"contracts/CharityDonationView.sol\":2654:2805  function viewCampaignAdmins(address _campaignAddress) public view returns (address[] memory ){... */\n    tag_34:\n        /* \"contracts/CharityDonationView.sol\":2729:2745  address[] memory */\n      0x60\n        /* \"contracts/CharityDonationView.sol\":2765:2779  campaignAdmins */\n      0x02\n        /* \"contracts/CharityDonationView.sol\":2765:2797  campaignAdmins[_campaignAddress] */\n      0x00\n        /* \"contracts/CharityDonationView.sol\":2780:2796  _campaignAddress */\n      dup4\n        /* \"contracts/CharityDonationView.sol\":2765:2797  campaignAdmins[_campaignAddress] */\n      0xffffffffffffffffffffffffffffffffffffffff\n      and\n      0xffffffffffffffffffffffffffffffffffffffff\n      and\n      dup2\n      mstore\n      0x20\n      add\n      swap1\n      dup2\n      mstore\n      0x20\n      add\n      0x00\n      keccak256\n        /* \"contracts/CharityDonationView.sol\":2758:2797  return campaignAdmins[_campaignAddress] */\n      dup1\n      sload\n      dup1\n      0x20\n      mul\n      0x20\n      add\n      mload(0x40)\n      swap1\n      dup2\n      add\n      0x40\n      mstore\n      dup1\n      swap3\n      swap2\n      swap1\n      dup2\n      dup2\n      mstore\n      0x20\n      add\n      dup3\n      dup1\n      sload\n      dup1\n      iszero\n      tag_106\n      jumpi\n      0x20\n      mul\n      dup3\n      add\n      swap2\n      swap1\n      0x00\n      mstore\n      keccak256(0x00, 0x20)\n      swap1\n    tag_107:\n      dup2\n      0x00\n      swap1\n      sload\n      swap1\n      0x0100\n      exp\n      swap1\n      div\n      0xffffffffffffffffffffffffffffffffffffffff\n      and\n      0xffffffffffffffffffffffffffffffffffffffff\n      and\n      dup2\n      mstore\n      0x20\n      add\n      swap1\n      0x01\n      add\n      swap1\n      dup1\n      dup4\n      gt\n      tag_107\n      jumpi\n    tag_106:\n      pop\n      pop\n      pop\n      pop\n      pop\n      swap1\n      pop\n        /* \"contracts/CharityDonationView.sol\":2654:2805  function viewCampaignAdmins(address _campaignAddress) public view returns (address[] memory ){... */\n      swap2\n      swap1\n      pop\n      jump\t// out\n        /* \"contracts/CharityDonationView.sol\":2506:2618  function viewCampaigns() public view returns (Campaign[] memory) {... */\n    tag_38:\n        /* \"contracts/CharityDonationView.sol\":2552:2569  Campaign[] memory */\n      0x60\n        /* \"contracts/CharityDonationView.sol\":2589:2598  campaigns */\n      0x00\n        /* \"contracts/CharityDonationView.sol\":2589:2610  campaigns[msg.sender] */\n      dup1\n        /* \"contracts/CharityDonationView.sol\":2599:2609  msg.sender */\n      caller\n        /* \"contracts/CharityDonationView.sol\":2589:2610  campaigns[msg.sender] */\n      0xffffffffffffffffffffffffffffffffffffffff\n      and\n      0xffffffffffffffffffffffffffffffffffffffff\n      and\n      dup2\n      mstore\n      0x20\n      add\n      swap1\n      dup2\n      mstore\n      0x20\n      add\n      0x00\n      keccak256\n        /* \"contracts/CharityDonationView.sol\":2582:2610  return campaigns[msg.sender] */\n      dup1\n      sload\n      dup1\n      0x20\n      mul\n      0x20\n      add\n      mload(0x40)\n      swap1\n      dup2\n      add\n      0x40\n      mstore\n      dup1\n      swap3\n      swap2\n      swap1\n      dup2\n      dup2\n      mstore\n      0x20\n      add\n      0x00\n      swap1\n    tag_109:\n      dup3\n      dup3\n      lt\n      iszero\n      tag_110\n      jumpi\n      dup4\n      dup3\n      swap1\n      0x00\n      mstore\n      keccak256(0x00, 0x20)\n      swap1\n      0x08\n      mul\n      add\n      mload(0x40)\n      dup1\n      0x0120\n      add\n      0x40\n      mstore\n      swap1\n      dup2\n      0x00\n      dup3\n      add\n      sload\n      dup2\n      mstore\n      0x20\n      add\n      0x01\n      dup3\n      add\n      dup1\n      sload\n      tag_112\n      swap1\n      tag_93\n      jump\t// in\n    tag_112:\n      dup1\n      0x1f\n      add\n      0x20\n      dup1\n      swap2\n      div\n      mul\n      0x20\n      add\n      mload(0x40)\n      swap1\n      dup2\n      add\n      0x40\n      mstore\n      dup1\n      swap3\n      swap2\n      swap1\n      dup2\n      dup2\n      mstore\n      0x20\n      add\n      dup3\n      dup1\n      sload\n      tag_113\n      swap1\n      tag_93\n      jump\t// in\n    tag_113:\n      dup1\n      iszero\n      tag_114\n      jumpi\n      dup1\n      0x1f\n      lt\n      tag_115\n      jumpi\n      0x0100\n      dup1\n      dup4\n      sload\n      div\n      mul\n      dup4\n      mstore\n      swap2\n      0x20\n      add\n      swap2\n      jump(tag_114)\n    tag_115:\n      dup3\n      add\n      swap2\n      swap1\n      0x00\n      mstore\n      keccak256(0x00, 0x20)\n      swap1\n    tag_116:\n      dup2\n      sload\n      dup2\n      mstore\n      swap1\n      0x01\n      add\n      swap1\n      0x20\n      add\n      dup1\n      dup4\n      gt\n      tag_116\n      jumpi\n      dup3\n      swap1\n      sub\n      0x1f\n      and\n      dup3\n      add\n      swap2\n    tag_114:\n      pop\n      pop\n      pop\n      pop\n      pop\n      dup2\n      mstore\n      0x20\n      add\n      0x02\n      dup3\n      add\n      dup1\n      sload\n      tag_117\n      swap1\n      tag_93\n      jump\t// in\n    tag_117:\n      dup1\n      0x1f\n      add\n      0x20\n      dup1\n      swap2\n      div\n      mul\n      0x20\n      add\n      mload(0x40)\n      swap1\n      dup2\n      add\n      0x40\n      mstore\n      dup1\n      swap3\n      swap2\n      swap1\n      dup2\n      dup2\n      mstore\n      0x20\n      add\n      dup3\n      dup1\n      sload\n      tag_118\n      swap1\n      tag_93\n      jump\t// in\n    tag_118:\n      dup1\n      iszero\n      tag_119\n      jumpi\n      dup1\n      0x1f\n      lt\n      tag_120\n      jumpi\n      0x0100\n      dup1\n      dup4\n      sload\n      div\n      mul\n      dup4\n      mstore\n      swap2\n      0x20\n      add\n      swap2\n      jump(tag_119)\n    tag_120:\n      dup3\n      add\n      swap2\n      swap1\n      0x00\n      mstore\n      keccak256(0x00, 0x20)\n      swap1\n    tag_121:\n      dup2\n      sload\n      dup2\n      mstore\n      swap1\n      0x01\n      add\n      swap1\n      0x20\n      add\n      dup1\n      dup4\n      gt\n      tag_121\n      jumpi\n      dup3\n      swap1\n      sub\n      0x1f\n      and\n      dup3\n      add\n      swap2\n    tag_119:\n      pop\n      pop\n      pop\n      pop\n      pop\n      dup2\n      mstore\n      0x20\n      add\n      0x03\n      dup3\n      add\n      0x00\n      swap1\n      sload\n      swap1\n      0x0100\n      exp\n      swap1\n      div\n      0xffffffffffffffffffffffffffffffffffffffff\n      and\n      0xffffffffffffffffffffffffffffffffffffffff\n      and\n      0xffffffffffffffffffffffffffffffffffffffff\n      and\n      dup2\n      mstore\n      0x20\n      add\n      0x04\n      dup3\n      add\n      sload\n      dup2\n      mstore\n      0x20\n      add\n      0x05\n      dup3\n      add\n      sload\n      dup2\n      mstore\n      0x20\n      add\n      0x06\n      dup3\n      add\n      sload\n      dup2\n      mstore\n      0x20\n      add\n      0x07\n      dup3\n      add\n      0x00\n      swap1\n      sload\n      swap1\n      0x0100\n      exp\n      swap1\n      div\n      0xff\n      and\n      iszero\n      iszero\n      iszero\n      iszero\n      dup2\n      mstore\n      0x20\n      add\n      0x07\n      dup3\n      add\n      0x01\n      swap1\n      sload\n      swap1\n      0x0100\n      exp\n      swap1\n      div\n      0xff\n      and\n      iszero\n      iszero\n      iszero\n      iszero\n      dup2\n      mstore\n      pop\n      pop\n      dup2\n      mstore\n      0x20\n      add\n      swap1\n      0x01\n      add\n      swap1\n      jump(tag_109)\n    tag_110:\n      pop\n      pop\n      pop\n      pop\n      swap1\n      pop\n        /* \"contracts/CharityDonationView.sol\":2506:2618  function viewCampaigns() public view returns (Campaign[] memory) {... */\n      swap1\n      jump\t// out\n        /* \"contracts/CharityDonationStorage.sol\":1283:1336  mapping (address => Withdrawals[]) public withdrawals */\n    tag_43:\n      mstore(0x20, 0x04)\n      dup2\n      0x00\n      mstore\n      keccak256(0x00, 0x40)\n      dup2\n      dup2\n      sload\n      dup2\n      lt\n      tag_122\n      jumpi\n      0x00\n      dup1\n      revert\n    tag_122:\n      swap1\n      0x00\n      mstore\n      keccak256(0x00, 0x20)\n      swap1\n      0x05\n      mul\n      add\n      0x00\n      swap2\n      pop\n      swap2\n      pop\n      pop\n      dup1\n      0x00\n      add\n      sload\n      swap1\n      dup1\n      0x01\n      add\n      dup1\n      sload\n      tag_124\n      swap1\n      tag_93\n      jump\t// in\n    tag_124:\n      dup1\n      0x1f\n      add\n      0x20\n      dup1\n      swap2\n      div\n      mul\n      0x20\n      add\n      mload(0x40)\n      swap1\n      dup2\n      add\n      0x40\n      mstore\n      dup1\n      swap3\n      swap2\n      swap1\n      dup2\n      dup2\n      mstore\n      0x20\n      add\n      dup3\n      dup1\n      sload\n      tag_125\n      swap1\n      tag_93\n      jump\t// in\n    tag_125:\n      dup1\n      iszero\n      tag_126\n      jumpi\n      dup1\n      0x1f\n      lt\n      tag_127\n      jumpi\n      0x0100\n      dup1\n      dup4\n      sload\n      div\n      mul\n      dup4\n      mstore\n      swap2\n      0x20\n      add\n      swap2\n      jump(tag_126)\n    tag_127:\n      dup3\n      add\n      swap2\n      swap1\n      0x00\n      mstore\n      keccak256(0x00, 0x20)\n      swap1\n    tag_128:\n      dup2\n      sload\n      dup2\n      mstore\n      swap1\n      0x01\n      add\n      swap1\n      0x20\n      add\n      dup1\n      dup4\n      gt\n      tag_128\n      jumpi\n      dup3\n      swap1\n      sub\n      0x1f\n      and\n      dup3\n      add\n      swap2\n    tag_126:\n      pop\n      pop\n      pop\n      pop\n      pop\n      swap1\n      dup1\n      0x02\n      add\n      sload\n      swap1\n      dup1\n      0x03\n      add\n      0x00\n      swap1\n      sload\n      swap1\n      0x0100\n      exp\n      swap1\n      div\n      0xffffffffffffffffffffffffffffffffffffffff\n      and\n      swap1\n      dup1\n      0x04\n      add\n      0x00\n      swap1\n      sload\n      swap1\n      0x0100\n      exp\n      swap1\n      div\n      0xffffffffffffffffffffffffffffffffffffffff\n      and\n      swap1\n      pop\n      dup6\n      jump\t// out\n        /* \"contracts/CharityDonationView.sol\":864:1946  function getCampaignProgress(uint256 _campaignId, address _campaignAddress) public view returns (uint256 goalamount,uint256 raisedAmount, uint256 donorsNumber,address[] memory campaigndonors) {... */\n    tag_49:\n        /* \"contracts/CharityDonationView.sol\":961:979  uint256 goalamount */\n      0x00\n        /* \"contracts/CharityDonationView.sol\":980:1000  uint256 raisedAmount */\n      dup1\n        /* \"contracts/CharityDonationView.sol\":1002:1022  uint256 donorsNumber */\n      0x00\n        /* \"contracts/CharityDonationView.sol\":1023:1054  address[] memory campaigndonors */\n      0x60\n        /* \"contracts/CharityDonationView.sol\":1179:1188  campaigns */\n      0x00\n        /* \"contracts/CharityDonationView.sol\":1179:1206  campaigns[_campaignAddress] */\n      dup1\n        /* \"contracts/CharityDonationView.sol\":1189:1205  _campaignAddress */\n      dup7\n        /* \"contracts/CharityDonationView.sol\":1179:1206  campaigns[_campaignAddress] */\n      0xffffffffffffffffffffffffffffffffffffffff\n      and\n      0xffffffffffffffffffffffffffffffffffffffff\n      and\n      dup2\n      mstore\n      0x20\n      add\n      swap1\n      dup2\n      mstore\n      0x20\n      add\n      0x00\n      keccak256\n        /* \"contracts/CharityDonationView.sol\":1219:1220  1 */\n      0x01\n        /* \"contracts/CharityDonationView.sol\":1207:1218  _campaignId */\n      dup8\n        /* \"contracts/CharityDonationView.sol\":1207:1220  _campaignId-1 */\n      tag_130\n      swap2\n      swap1\n      tag_131\n      jump\t// in\n    tag_130:\n        /* \"contracts/CharityDonationView.sol\":1179:1221  campaigns[_campaignAddress][_campaignId-1] */\n      dup2\n      sload\n      dup2\n      lt\n      tag_132\n      jumpi\n      tag_133\n      tag_134\n      jump\t// in\n    tag_133:\n    tag_132:\n      swap1\n      0x00\n      mstore\n      keccak256(0x00, 0x20)\n      swap1\n      0x08\n      mul\n      add\n        /* \"contracts/CharityDonationView.sol\":1179:1230  campaigns[_campaignAddress][_campaignId-1].deadline */\n      0x06\n      add\n      sload\n        /* \"contracts/CharityDonationView.sol\":1161:1176  block.timestamp */\n      timestamp\n        /* \"contracts/CharityDonationView.sol\":1161:1230  block.timestamp < campaigns[_campaignAddress][_campaignId-1].deadline */\n      lt\n        /* \"contracts/CharityDonationView.sol\":1139:1285  require(... */\n      tag_136\n      jumpi\n      mload(0x40)\n      0x08c379a000000000000000000000000000000000000000000000000000000000\n      dup2\n      mstore\n      0x04\n      add\n      tag_137\n      swap1\n      tag_138\n      jump\t// in\n    tag_137:\n      mload(0x40)\n      dup1\n      swap2\n      sub\n      swap1\n      revert\n    tag_136:\n        /* \"contracts/CharityDonationView.sol\":1319:1328  campaigns */\n      0x00\n        /* \"contracts/CharityDonationView.sol\":1319:1346  campaigns[_campaignAddress] */\n      dup1\n        /* \"contracts/CharityDonationView.sol\":1329:1345  _campaignAddress */\n      dup7\n        /* \"contracts/CharityDonationView.sol\":1319:1346  campaigns[_campaignAddress] */\n      0xffffffffffffffffffffffffffffffffffffffff\n      and\n      0xffffffffffffffffffffffffffffffffffffffff\n      and\n      dup2\n      mstore\n      0x20\n      add\n      swap1\n      dup2\n      mstore\n      0x20\n      add\n      0x00\n      keccak256\n        /* \"contracts/CharityDonationView.sol\":1359:1360  1 */\n      0x01\n        /* \"contracts/CharityDonationView.sol\":1347:1358  _campaignId */\n      dup8\n        /* \"contracts/CharityDonationView.sol\":1347:1360  _campaignId-1 */\n      tag_139\n      swap2\n      swap1\n      tag_131\n      jump\t// in\n    tag_139:\n        /* \"contracts/CharityDonationView.sol\":1319:1361  campaigns[_campaignAddress][_campaignId-1] */\n      dup2\n      sload\n      dup2\n      lt\n      tag_140\n      jumpi\n      tag_141\n      tag_134\n      jump\t// in\n    tag_141:\n    tag_140:\n      swap1\n      0x00\n      mstore\n      keccak256(0x00, 0x20)\n      swap1\n      0x08\n      mul\n      add\n        /* \"contracts/CharityDonationView.sol\":1319:1373  campaigns[_campaignAddress][_campaignId-1].isCancelled */\n      0x07\n      add\n      0x01\n      swap1\n      sload\n      swap1\n      0x0100\n      exp\n      swap1\n      div\n      0xff\n      and\n        /* \"contracts/CharityDonationView.sol\":1318:1373  !campaigns[_campaignAddress][_campaignId-1].isCancelled */\n      iszero\n        /* \"contracts/CharityDonationView.sol\":1296:1434  require(... */\n      tag_143\n      jumpi\n      mload(0x40)\n      0x08c379a000000000000000000000000000000000000000000000000000000000\n      dup2\n      mstore\n      0x04\n      add\n      tag_144\n      swap1\n      tag_145\n      jump\t// in\n    tag_144:\n      mload(0x40)\n      dup1\n      swap2\n      sub\n      swap1\n      revert\n    tag_143:\n        /* \"contracts/CharityDonationView.sol\":1468:1477  campaigns */\n      0x00\n        /* \"contracts/CharityDonationView.sol\":1468:1495  campaigns[_campaignAddress] */\n      dup1\n        /* \"contracts/CharityDonationView.sol\":1478:1494  _campaignAddress */\n      dup7\n        /* \"contracts/CharityDonationView.sol\":1468:1495  campaigns[_campaignAddress] */\n      0xffffffffffffffffffffffffffffffffffffffff\n      and\n      0xffffffffffffffffffffffffffffffffffffffff\n      and\n      dup2\n      mstore\n      0x20\n      add\n      swap1\n      dup2\n      mstore\n      0x20\n      add\n      0x00\n      keccak256\n        /* \"contracts/CharityDonationView.sol\":1508:1509  1 */\n      0x01\n        /* \"contracts/CharityDonationView.sol\":1496:1507  _campaignId */\n      dup8\n        /* \"contracts/CharityDonationView.sol\":1496:1509  _campaignId-1 */\n      tag_146\n      swap2\n      swap1\n      tag_131\n      jump\t// in\n    tag_146:\n        /* \"contracts/CharityDonationView.sol\":1468:1510  campaigns[_campaignAddress][_campaignId-1] */\n      dup2\n      sload\n      dup2\n      lt\n      tag_147\n      jumpi\n      tag_148\n      tag_134\n      jump\t// in\n    tag_148:\n    tag_147:\n      swap1\n      0x00\n      mstore\n      keccak256(0x00, 0x20)\n      swap1\n      0x08\n      mul\n      add\n        /* \"contracts/CharityDonationView.sol\":1468:1522  campaigns[_campaignAddress][_campaignId-1].isCompleted */\n      0x07\n      add\n      0x00\n      swap1\n      sload\n      swap1\n      0x0100\n      exp\n      swap1\n      div\n      0xff\n      and\n        /* \"contracts/CharityDonationView.sol\":1467:1522  !campaigns[_campaignAddress][_campaignId-1].isCompleted */\n      iszero\n        /* \"contracts/CharityDonationView.sol\":1445:1583  require(... */\n      tag_150\n      jumpi\n      mload(0x40)\n      0x08c379a000000000000000000000000000000000000000000000000000000000\n      dup2\n      mstore\n      0x04\n      add\n      tag_151\n      swap1\n      tag_145\n      jump\t// in\n    tag_151:\n      mload(0x40)\n      dup1\n      swap2\n      sub\n      swap1\n      revert\n    tag_150:\n        /* \"contracts/CharityDonationView.sol\":1616:1645  Campaign storage thisCampaign */\n      0x00\n        /* \"contracts/CharityDonationView.sol\":1648:1657  campaigns */\n      dup1\n        /* \"contracts/CharityDonationView.sol\":1648:1675  campaigns[_campaignAddress] */\n      0x00\n        /* \"contracts/CharityDonationView.sol\":1658:1674  _campaignAddress */\n      dup8\n        /* \"contracts/CharityDonationView.sol\":1648:1675  campaigns[_campaignAddress] */\n      0xffffffffffffffffffffffffffffffffffffffff\n      and\n      0xffffffffffffffffffffffffffffffffffffffff\n      and\n      dup2\n      mstore\n      0x20\n      add\n      swap1\n      dup2\n      mstore\n      0x20\n      add\n      0x00\n      keccak256\n        /* \"contracts/CharityDonationView.sol\":1688:1689  1 */\n      0x01\n        /* \"contracts/CharityDonationView.sol\":1676:1687  _campaignId */\n      dup9\n        /* \"contracts/CharityDonationView.sol\":1676:1689  _campaignId-1 */\n      tag_152\n      swap2\n      swap1\n      tag_131\n      jump\t// in\n    tag_152:\n        /* \"contracts/CharityDonationView.sol\":1648:1690  campaigns[_campaignAddress][_campaignId-1] */\n      dup2\n      sload\n      dup2\n      lt\n      tag_153\n      jumpi\n      tag_154\n      tag_134\n      jump\t// in\n    tag_154:\n    tag_153:\n      swap1\n      0x00\n      mstore\n      keccak256(0x00, 0x20)\n      swap1\n      0x08\n      mul\n      add\n        /* \"contracts/CharityDonationView.sol\":1616:1690  Campaign storage thisCampaign = campaigns[_campaignAddress][_campaignId-1] */\n      swap1\n      pop\n        /* \"contracts/CharityDonationView.sol\":1725:1737  thisCampaign */\n      dup1\n        /* \"contracts/CharityDonationView.sol\":1725:1750  thisCampaign.targetAmount */\n      0x04\n      add\n      sload\n        /* \"contracts/CharityDonationView.sol\":1766:1778  thisCampaign */\n      dup2\n        /* \"contracts/CharityDonationView.sol\":1766:1791  thisCampaign.raisedAmount */\n      0x05\n      add\n      sload\n        /* \"contracts/CharityDonationView.sol\":1807:1824  donorsForCampaign */\n      0x05\n        /* \"contracts/CharityDonationView.sol\":1807:1842  donorsForCampaign[_campaignAddress] */\n      0x00\n        /* \"contracts/CharityDonationView.sol\":1825:1841  _campaignAddress */\n      dup10\n        /* \"contracts/CharityDonationView.sol\":1807:1842  donorsForCampaign[_campaignAddress] */\n      0xffffffffffffffffffffffffffffffffffffffff\n      and\n      0xffffffffffffffffffffffffffffffffffffffff\n      and\n      dup2\n      mstore\n      0x20\n      add\n      swap1\n      dup2\n      mstore\n      0x20\n      add\n      0x00\n      keccak256\n        /* \"contracts/CharityDonationView.sol\":1807:1855  donorsForCampaign[_campaignAddress][_campaignId] */\n      0x00\n        /* \"contracts/CharityDonationView.sol\":1843:1854  _campaignId */\n      dup11\n        /* \"contracts/CharityDonationView.sol\":1807:1855  donorsForCampaign[_campaignAddress][_campaignId] */\n      dup2\n      mstore\n      0x20\n      add\n      swap1\n      dup2\n      mstore\n      0x20\n      add\n      0x00\n      keccak256\n        /* \"contracts/CharityDonationView.sol\":1807:1862  donorsForCampaign[_campaignAddress][_campaignId].length */\n      dup1\n      sload\n      swap1\n      pop\n        /* \"contracts/CharityDonationView.sol\":1879:1896  donorsForCampaign */\n      0x05\n        /* \"contracts/CharityDonationView.sol\":1879:1914  donorsForCampaign[_campaignAddress] */\n      0x00\n        /* \"contracts/CharityDonationView.sol\":1897:1913  _campaignAddress */\n      dup11\n        /* \"contracts/CharityDonationView.sol\":1879:1914  donorsForCampaign[_campaignAddress] */\n      0xffffffffffffffffffffffffffffffffffffffff\n      and\n      0xffffffffffffffffffffffffffffffffffffffff\n      and\n      dup2\n      mstore\n      0x20\n      add\n      swap1\n      dup2\n      mstore\n      0x20\n      add\n      0x00\n      keccak256\n        /* \"contracts/CharityDonationView.sol\":1879:1927  donorsForCampaign[_campaignAddress][_campaignId] */\n      0x00\n        /* \"contracts/CharityDonationView.sol\":1915:1926  _campaignId */\n      dup12\n        /* \"contracts/CharityDonationView.sol\":1879:1927  donorsForCampaign[_campaignAddress][_campaignId] */\n      dup2\n      mstore\n      0x20\n      add\n      swap1\n      dup2\n      mstore\n      0x20\n      add\n      0x00\n      keccak256\n        /* \"contracts/CharityDonationView.sol\":1703:1938  return (... */\n      dup1\n      dup1\n      sload\n      dup1\n      0x20\n      mul\n      0x20\n      add\n      mload(0x40)\n      swap1\n      dup2\n      add\n      0x40\n      mstore\n      dup1\n      swap3\n      swap2\n      swap1\n      dup2\n      dup2\n      mstore\n      0x20\n      add\n      dup3\n      dup1\n      sload\n      dup1\n      iszero\n      tag_156\n      jumpi\n      0x20\n      mul\n      dup3\n      add\n      swap2\n      swap1\n      0x00\n      mstore\n      keccak256(0x00, 0x20)\n      swap1\n    tag_157:\n      dup2\n      0x00\n      swap1\n      sload\n      swap1\n      0x0100\n      exp\n      swap1\n      div\n      0xffffffffffffffffffffffffffffffffffffffff\n      and\n      0xffffffffffffffffffffffffffffffffffffffff\n      and\n      dup2\n      mstore\n      0x20\n      add\n      swap1\n      0x01\n      add\n      swap1\n      dup1\n      dup4\n      gt\n      tag_157\n      jumpi\n    tag_156:\n      pop\n      pop\n      pop\n      pop\n      pop\n      swap1\n      pop\n      swap5\n      pop\n      swap5\n      pop\n      swap5\n      pop\n      swap5\n      pop\n      pop\n        /* \"contracts/CharityDonationView.sol\":864:1946  function getCampaignProgress(uint256 _campaignId, address _campaignAddress) public view returns (uint256 goalamount,uint256 raisedAmount, uint256 donorsNumber,address[] memory campaigndonors) {... */\n      swap3\n      swap6\n      swap2\n      swap5\n      pop\n      swap3\n      pop\n      jump\t// out\n        /* \"contracts/CharityDonationView.sol\":1993:2453  function campaignDetails(uint256 _campaignId, address _campaignAddress) public view returns(Campaign memory thisCampaign, uint256 donorsnumber, address[] memory campaigndonors) {... */\n    tag_54:\n        /* \"contracts/CharityDonationView.sol\":2085:2113  Campaign memory thisCampaign */\n      tag_158\n      tag_159\n      jump\t// in\n    tag_158:\n        /* \"contracts/CharityDonationView.sol\":2115:2135  uint256 donorsnumber */\n      0x00\n        /* \"contracts/CharityDonationView.sol\":2137:2168  address[] memory campaigndonors */\n      0x60\n        /* \"contracts/CharityDonationView.sol\":2181:2208  Campaign memory thisCampign */\n      0x00\n        /* \"contracts/CharityDonationView.sol\":2211:2220  campaigns */\n      dup1\n        /* \"contracts/CharityDonationView.sol\":2211:2238  campaigns[_campaignAddress] */\n      0x00\n        /* \"contracts/CharityDonationView.sol\":2221:2237  _campaignAddress */\n      dup7\n        /* \"contracts/CharityDonationView.sol\":2211:2238  campaigns[_campaignAddress] */\n      0xffffffffffffffffffffffffffffffffffffffff\n      and\n      0xffffffffffffffffffffffffffffffffffffffff\n      and\n      dup2\n      mstore\n      0x20\n      add\n      swap1\n      dup2\n      mstore\n      0x20\n      add\n      0x00\n      keccak256\n        /* \"contracts/CharityDonationView.sol\":2251:2252  1 */\n      0x01\n        /* \"contracts/CharityDonationView.sol\":2239:2250  _campaignId */\n      dup8\n        /* \"contracts/CharityDonationView.sol\":2239:2252  _campaignId-1 */\n      tag_161\n      swap2\n      swap1\n      tag_131\n      jump\t// in\n    tag_161:\n        /* \"contracts/CharityDonationView.sol\":2211:2253  campaigns[_campaignAddress][_campaignId-1] */\n      dup2\n      sload\n      dup2\n      lt\n      tag_162\n      jumpi\n      tag_163\n      tag_134\n      jump\t// in\n    tag_163:\n    tag_162:\n      swap1\n      0x00\n      mstore\n      keccak256(0x00, 0x20)\n      swap1\n      0x08\n      mul\n      add\n        /* \"contracts/CharityDonationView.sol\":2181:2253  Campaign memory thisCampign = campaigns[_campaignAddress][_campaignId-1] */\n      mload(0x40)\n      dup1\n      0x0120\n      add\n      0x40\n      mstore\n      swap1\n      dup2\n      0x00\n      dup3\n      add\n      sload\n      dup2\n      mstore\n      0x20\n      add\n      0x01\n      dup3\n      add\n      dup1\n      sload\n      tag_165\n      swap1\n      tag_93\n      jump\t// in\n    tag_165:\n      dup1\n      0x1f\n      add\n      0x20\n      dup1\n      swap2\n      div\n      mul\n      0x20\n      add\n      mload(0x40)\n      swap1\n      dup2\n      add\n      0x40\n      mstore\n      dup1\n      swap3\n      swap2\n      swap1\n      dup2\n      dup2\n      mstore\n      0x20\n      add\n      dup3\n      dup1\n      sload\n      tag_166\n      swap1\n      tag_93\n      jump\t// in\n    tag_166:\n      dup1\n      iszero\n      tag_167\n      jumpi\n      dup1\n      0x1f\n      lt\n      tag_168\n      jumpi\n      0x0100\n      dup1\n      dup4\n      sload\n      div\n      mul\n      dup4\n      mstore\n      swap2\n      0x20\n      add\n      swap2\n      jump(tag_167)\n    tag_168:\n      dup3\n      add\n      swap2\n      swap1\n      0x00\n      mstore\n      keccak256(0x00, 0x20)\n      swap1\n    tag_169:\n      dup2\n      sload\n      dup2\n      mstore\n      swap1\n      0x01\n      add\n      swap1\n      0x20\n      add\n      dup1\n      dup4\n      gt\n      tag_169\n      jumpi\n      dup3\n      swap1\n      sub\n      0x1f\n      and\n      dup3\n      add\n      swap2\n    tag_167:\n      pop\n      pop\n      pop\n      pop\n      pop\n      dup2\n      mstore\n      0x20\n      add\n      0x02\n      dup3\n      add\n      dup1\n      sload\n      tag_170\n      swap1\n      tag_93\n      jump\t// in\n    tag_170:\n      dup1\n      0x1f\n      add\n      0x20\n      dup1\n      swap2\n      div\n      mul\n      0x20\n      add\n      mload(0x40)\n      swap1\n      dup2\n      add\n      0x40\n      mstore\n      dup1\n      swap3\n      swap2\n      swap1\n      dup2\n      dup2\n      mstore\n      0x20\n      add\n      dup3\n      dup1\n      sload\n      tag_171\n      swap1\n      tag_93\n      jump\t// in\n    tag_171:\n      dup1\n      iszero\n      tag_172\n      jumpi\n      dup1\n      0x1f\n      lt\n      tag_173\n      jumpi\n      0x0100\n      dup1\n      dup4\n      sload\n      div\n      mul\n      dup4\n      mstore\n      swap2\n      0x20\n      add\n      swap2\n      jump(tag_172)\n    tag_173:\n      dup3\n      add\n      swap2\n      swap1\n      0x00\n      mstore\n      keccak256(0x00, 0x20)\n      swap1\n    tag_174:\n      dup2\n      sload\n      dup2\n      mstore\n      swap1\n      0x01\n      add\n      swap1\n      0x20\n      add\n      dup1\n      dup4\n      gt\n      tag_174\n      jumpi\n      dup3\n      swap1\n      sub\n      0x1f\n      and\n      dup3\n      add\n      swap2\n    tag_172:\n      pop\n      pop\n      pop\n      pop\n      pop\n      dup2\n      mstore\n      0x20\n      add\n      0x03\n      dup3\n      add\n      0x00\n      swap1\n      sload\n      swap1\n      0x0100\n      exp\n      swap1\n      div\n      0xffffffffffffffffffffffffffffffffffffffff\n      and\n      0xffffffffffffffffffffffffffffffffffffffff\n      and\n      0xffffffffffffffffffffffffffffffffffffffff\n      and\n      dup2\n      mstore\n      0x20\n      add\n      0x04\n      dup3\n      add\n      sload\n      dup2\n      mstore\n      0x20\n      add\n      0x05\n      dup3\n      add\n      sload\n      dup2\n      mstore\n      0x20\n      add\n      0x06\n      dup3\n      add\n      sload\n      dup2\n      mstore\n      0x20\n      add\n      0x07\n      dup3\n      add\n      0x00\n      swap1\n      sload\n      swap1\n      0x0100\n      exp\n      swap1\n      div\n      0xff\n      and\n      iszero\n      iszero\n      iszero\n      iszero\n      dup2\n      mstore\n      0x20\n      add\n      0x07\n      dup3\n      add\n      0x01\n      swap1\n      sload\n      swap1\n      0x0100\n      exp\n      swap1\n      div\n      0xff\n      and\n      iszero\n      iszero\n      iszero\n      iszero\n      dup2\n      mstore\n      pop\n      pop\n      swap1\n      pop\n        /* \"contracts/CharityDonationView.sol\":2287:2298  thisCampign */\n      dup1\n        /* \"contracts/CharityDonationView.sol\":2314:2331  donorsForCampaign */\n      0x05\n        /* \"contracts/CharityDonationView.sol\":2314:2349  donorsForCampaign[_campaignAddress] */\n      0x00\n        /* \"contracts/CharityDonationView.sol\":2332:2348  _campaignAddress */\n      dup8\n        /* \"contracts/CharityDonationView.sol\":2314:2349  donorsForCampaign[_campaignAddress] */\n      0xffffffffffffffffffffffffffffffffffffffff\n      and\n      0xffffffffffffffffffffffffffffffffffffffff\n      and\n      dup2\n      mstore\n      0x20\n      add\n      swap1\n      dup2\n      mstore\n      0x20\n      add\n      0x00\n      keccak256\n        /* \"contracts/CharityDonationView.sol\":2314:2362  donorsForCampaign[_campaignAddress][_campaignId] */\n      0x00\n        /* \"contracts/CharityDonationView.sol\":2350:2361  _campaignId */\n      dup9\n        /* \"contracts/CharityDonationView.sol\":2314:2362  donorsForCampaign[_campaignAddress][_campaignId] */\n      dup2\n      mstore\n      0x20\n      add\n      swap1\n      dup2\n      mstore\n      0x20\n      add\n      0x00\n      keccak256\n        /* \"contracts/CharityDonationView.sol\":2314:2369  donorsForCampaign[_campaignAddress][_campaignId].length */\n      dup1\n      sload\n      swap1\n      pop\n        /* \"contracts/CharityDonationView.sol\":2386:2403  donorsForCampaign */\n      0x05\n        /* \"contracts/CharityDonationView.sol\":2386:2421  donorsForCampaign[_campaignAddress] */\n      0x00\n        /* \"contracts/CharityDonationView.sol\":2404:2420  _campaignAddress */\n      dup9\n        /* \"contracts/CharityDonationView.sol\":2386:2421  donorsForCampaign[_campaignAddress] */\n      0xffffffffffffffffffffffffffffffffffffffff\n      and\n      0xffffffffffffffffffffffffffffffffffffffff\n      and\n      dup2\n      mstore\n      0x20\n      add\n      swap1\n      dup2\n      mstore\n      0x20\n      add\n      0x00\n      keccak256\n        /* \"contracts/CharityDonationView.sol\":2386:2434  donorsForCampaign[_campaignAddress][_campaignId] */\n      0x00\n        /* \"contracts/CharityDonationView.sol\":2422:2433  _campaignId */\n      dup10\n        /* \"contracts/CharityDonationView.sol\":2386:2434  donorsForCampaign[_campaignAddress][_campaignId] */\n      dup2\n      mstore\n      0x20\n      add\n      swap1\n      dup2\n      mstore\n      0x20\n      add\n      0x00\n      keccak256\n        /* \"contracts/CharityDonationView.sol\":2264:2445  return  (... */\n      dup1\n      dup1\n      sload\n      dup1\n      0x20\n      mul\n      0x20\n      add\n      mload(0x40)\n      swap1\n      dup2\n      add\n      0x40\n      mstore\n      dup1\n      swap3\n      swap2\n      swap1\n      dup2\n      dup2\n      mstore\n      0x20\n      add\n      dup3\n      dup1\n      sload\n      dup1\n      iszero\n      tag_175\n      jumpi\n      0x20\n      mul\n      dup3\n      add\n      swap2\n      swap1\n      0x00\n      mstore\n      keccak256(0x00, 0x20)\n      swap1\n    tag_176:\n      dup2\n      0x00\n      swap1\n      sload\n      swap1\n      0x0100\n      exp\n      swap1\n      div\n      0xffffffffffffffffffffffffffffffffffffffff\n      and\n      0xffffffffffffffffffffffffffffffffffffffff\n      and\n      dup2\n      mstore\n      0x20\n      add\n      swap1\n      0x01\n      add\n      swap1\n      dup1\n      dup4\n      gt\n      tag_176\n      jumpi\n    tag_175:\n      pop\n      pop\n      pop\n      pop\n      pop\n      swap1\n      pop\n      swap4\n      pop\n      swap4\n      pop\n      swap4\n      pop\n      pop\n        /* \"contracts/CharityDonationView.sol\":1993:2453  function campaignDetails(uint256 _campaignId, address _campaignAddress) public view returns(Campaign memory thisCampaign, uint256 donorsnumber, address[] memory campaigndonors) {... */\n      swap3\n      pop\n      swap3\n      pop\n      swap3\n      jump\t// out\n        /* \"contracts/CharityDonationView.sol\":215:340  function getContractBalance() public view onlyContractOwner returns (uint256) {... */\n    tag_58:\n        /* \"contracts/CharityDonationView.sol\":284:291  uint256 */\n      0x00\n        /* \"contracts/CharityDonationSecurity.sol\":964:977  contractOwner */\n      0x06\n      0x00\n      swap1\n      sload\n      swap1\n      0x0100\n      exp\n      swap1\n      div\n      0xffffffffffffffffffffffffffffffffffffffff\n      and\n        /* \"contracts/CharityDonationSecurity.sol\":950:977  msg.sender == contractOwner */\n      0xffffffffffffffffffffffffffffffffffffffff\n      and\n        /* \"contracts/CharityDonationSecurity.sol\":950:960  msg.sender */\n      caller\n        /* \"contracts/CharityDonationSecurity.sol\":950:977  msg.sender == contractOwner */\n      0xffffffffffffffffffffffffffffffffffffffff\n      and\n      eq\n        /* \"contracts/CharityDonationSecurity.sol\":942:1025  require(msg.sender == contractOwner,\"Only Contract Owner Can Perform This Action!\") */\n      tag_178\n      jumpi\n      mload(0x40)\n      0x08c379a000000000000000000000000000000000000000000000000000000000\n      dup2\n      mstore\n      0x04\n      add\n      tag_179\n      swap1\n      tag_180\n      jump\t// in\n    tag_179:\n      mload(0x40)\n      dup1\n      swap2\n      sub\n      swap1\n      revert\n    tag_178:\n        /* \"contracts/CharityDonationView.sol\":311:332  address(this).balance */\n      selfbalance\n        /* \"contracts/CharityDonationView.sol\":304:332  return address(this).balance */\n      swap1\n      pop\n        /* \"contracts/CharityDonationView.sol\":215:340  function getContractBalance() public view onlyContractOwner returns (uint256) {... */\n      swap1\n      jump\t// out\n        /* \"contracts/CharityDonationView.sol\":376:827  function getCampaignBalance(uint256 _campaignId, address _campaignAddress)  public view returns (uint256){... */\n    tag_63:\n        /* \"contracts/CharityDonationView.sol\":473:480  uint256 */\n      0x00\n        /* \"contracts/CharityDonationView.sol\":546:555  campaigns */\n      dup1\n        /* \"contracts/CharityDonationView.sol\":546:573  campaigns[_campaignAddress] */\n      0x00\n        /* \"contracts/CharityDonationView.sol\":556:572  _campaignAddress */\n      dup4\n        /* \"contracts/CharityDonationView.sol\":546:573  campaigns[_campaignAddress] */\n      0xffffffffffffffffffffffffffffffffffffffff\n      and\n      0xffffffffffffffffffffffffffffffffffffffff\n      and\n      dup2\n      mstore\n      0x20\n      add\n      swap1\n      dup2\n      mstore\n      0x20\n      add\n      0x00\n      keccak256\n        /* \"contracts/CharityDonationView.sol\":586:587  1 */\n      0x01\n        /* \"contracts/CharityDonationView.sol\":574:585  _campaignId */\n      dup5\n        /* \"contracts/CharityDonationView.sol\":574:587  _campaignId-1 */\n      tag_183\n      swap2\n      swap1\n      tag_131\n      jump\t// in\n    tag_183:\n        /* \"contracts/CharityDonationView.sol\":546:588  campaigns[_campaignAddress][_campaignId-1] */\n      dup2\n      sload\n      dup2\n      lt\n      tag_184\n      jumpi\n      tag_185\n      tag_134\n      jump\t// in\n    tag_185:\n    tag_184:\n      swap1\n      0x00\n      mstore\n      keccak256(0x00, 0x20)\n      swap1\n      0x08\n      mul\n      add\n        /* \"contracts/CharityDonationView.sol\":546:600  campaigns[_campaignAddress][_campaignId-1].isCancelled */\n      0x07\n      add\n      0x01\n      swap1\n      sload\n      swap1\n      0x0100\n      exp\n      swap1\n      div\n      0xff\n      and\n        /* \"contracts/CharityDonationView.sol\":545:600  !campaigns[_campaignAddress][_campaignId-1].isCancelled */\n      iszero\n        /* \"contracts/CharityDonationView.sol\":537:632  require(!campaigns[_campaignAddress][_campaignId-1].isCancelled,\"This Campaign Was Cancelled!\") */\n      tag_187\n      jumpi\n      mload(0x40)\n      0x08c379a000000000000000000000000000000000000000000000000000000000\n      dup2\n      mstore\n      0x04\n      add\n      tag_188\n      swap1\n      tag_189\n      jump\t// in\n    tag_188:\n      mload(0x40)\n      dup1\n      swap2\n      sub\n      swap1\n      revert\n    tag_187:\n        /* \"contracts/CharityDonationView.sol\":651:660  campaigns */\n      0x00\n        /* \"contracts/CharityDonationView.sol\":651:678  campaigns[_campaignAddress] */\n      dup1\n        /* \"contracts/CharityDonationView.sol\":661:677  _campaignAddress */\n      dup4\n        /* \"contracts/CharityDonationView.sol\":651:678  campaigns[_campaignAddress] */\n      0xffffffffffffffffffffffffffffffffffffffff\n      and\n      0xffffffffffffffffffffffffffffffffffffffff\n      and\n      dup2\n      mstore\n      0x20\n      add\n      swap1\n      dup2\n      mstore\n      0x20\n      add\n      0x00\n      keccak256\n        /* \"contracts/CharityDonationView.sol\":691:692  1 */\n      0x01\n        /* \"contracts/CharityDonationView.sol\":679:690  _campaignId */\n      dup5\n        /* \"contracts/CharityDonationView.sol\":679:692  _campaignId-1 */\n      tag_190\n      swap2\n      swap1\n      tag_131\n      jump\t// in\n    tag_190:\n        /* \"contracts/CharityDonationView.sol\":651:693  campaigns[_campaignAddress][_campaignId-1] */\n      dup2\n      sload\n      dup2\n      lt\n      tag_191\n      jumpi\n      tag_192\n      tag_134\n      jump\t// in\n    tag_192:\n    tag_191:\n      swap1\n      0x00\n      mstore\n      keccak256(0x00, 0x20)\n      swap1\n      0x08\n      mul\n      add\n        /* \"contracts/CharityDonationView.sol\":651:705  campaigns[_campaignAddress][_campaignId-1].isCompleted */\n      0x07\n      add\n      0x00\n      swap1\n      sload\n      swap1\n      0x0100\n      exp\n      swap1\n      div\n      0xff\n      and\n        /* \"contracts/CharityDonationView.sol\":643:744  require(campaigns[_campaignAddress][_campaignId-1].isCompleted,\"This Campaign Is Still In Progress!\") */\n      tag_194\n      jumpi\n      mload(0x40)\n      0x08c379a000000000000000000000000000000000000000000000000000000000\n      dup2\n      mstore\n      0x04\n      add\n      tag_195\n      swap1\n      tag_196\n      jump\t// in\n    tag_195:\n      mload(0x40)\n      dup1\n      swap2\n      sub\n      swap1\n      revert\n    tag_194:\n        /* \"contracts/CharityDonationView.sol\":764:773  campaigns */\n      0x00\n        /* \"contracts/CharityDonationView.sol\":764:791  campaigns[_campaignAddress] */\n      dup1\n        /* \"contracts/CharityDonationView.sol\":774:790  _campaignAddress */\n      dup4\n        /* \"contracts/CharityDonationView.sol\":764:791  campaigns[_campaignAddress] */\n      0xffffffffffffffffffffffffffffffffffffffff\n      and\n      0xffffffffffffffffffffffffffffffffffffffff\n      and\n      dup2\n      mstore\n      0x20\n      add\n      swap1\n      dup2\n      mstore\n      0x20\n      add\n      0x00\n      keccak256\n        /* \"contracts/CharityDonationView.sol\":804:805  1 */\n      0x01\n        /* \"contracts/CharityDonationView.sol\":792:803  _campaignId */\n      dup5\n        /* \"contracts/CharityDonationView.sol\":792:805  _campaignId-1 */\n      tag_197\n      swap2\n      swap1\n      tag_131\n      jump\t// in\n    tag_197:\n        /* \"contracts/CharityDonationView.sol\":764:806  campaigns[_campaignAddress][_campaignId-1] */\n      dup2\n      sload\n      dup2\n      lt\n      tag_198\n      jumpi\n      tag_199\n      tag_134\n      jump\t// in\n    tag_199:\n    tag_198:\n      swap1\n      0x00\n      mstore\n      keccak256(0x00, 0x20)\n      swap1\n      0x08\n      mul\n      add\n        /* \"contracts/CharityDonationView.sol\":764:819  campaigns[_campaignAddress][_campaignId-1].raisedAmount */\n      0x05\n      add\n      sload\n        /* \"contracts/CharityDonationView.sol\":757:819  return campaigns[_campaignAddress][_campaignId-1].raisedAmount */\n      swap1\n      pop\n        /* \"contracts/CharityDonationView.sol\":376:827  function getCampaignBalance(uint256 _campaignId, address _campaignAddress)  public view returns (uint256){... */\n      swap3\n      swap2\n      pop\n      pop\n      jump\t// out\n        /* \"contracts/CharityDonationStorage.sol\":1184:1229  mapping (address => Donation[]) public donors */\n    tag_67:\n      mstore(0x20, 0x03)\n      dup2\n      0x00\n      mstore\n      keccak256(0x00, 0x40)\n      dup2\n      dup2\n      sload\n      dup2\n      lt\n      tag_201\n      jumpi\n      0x00\n      dup1\n      revert\n    tag_201:\n      swap1\n      0x00\n      mstore\n      keccak256(0x00, 0x20)\n      swap1\n      0x04\n      mul\n      add\n      0x00\n      swap2\n      pop\n      swap2\n      pop\n      pop\n      dup1\n      0x00\n      add\n      0x00\n      swap1\n      sload\n      swap1\n      0x0100\n      exp\n      swap1\n      div\n      0xffffffffffffffffffffffffffffffffffffffff\n      and\n      swap1\n      dup1\n      0x01\n      add\n      sload\n      swap1\n      dup1\n      0x02\n      add\n      dup1\n      sload\n      tag_203\n      swap1\n      tag_93\n      jump\t// in\n    tag_203:\n      dup1\n      0x1f\n      add\n      0x20\n      dup1\n      swap2\n      div\n      mul\n      0x20\n      add\n      mload(0x40)\n      swap1\n      dup2\n      add\n      0x40\n      mstore\n      dup1\n      swap3\n      swap2\n      swap1\n      dup2\n      dup2\n      mstore\n      0x20\n      add\n      dup3\n      dup1\n      sload\n      tag_204\n      swap1\n      tag_93\n      jump\t// in\n    tag_204:\n      dup1\n      iszero\n      tag_205\n      jumpi\n      dup1\n      0x1f\n      lt\n      tag_206\n      jumpi\n      0x0100\n      dup1\n      dup4\n      sload\n      div\n      mul\n      dup4\n      mstore\n      swap2\n      0x20\n      add\n      swap2\n      jump(tag_205)\n    tag_206:\n      dup3\n      add\n      swap2\n      swap1\n      0x00\n      mstore\n      keccak256(0x00, 0x20)\n      swap1\n    tag_207:\n      dup2\n      sload\n      dup2\n      mstore\n      swap1\n      0x01\n      add\n      swap1\n      0x20\n      add\n      dup1\n      dup4\n      gt\n      tag_207\n      jumpi\n      dup3\n      swap1\n      sub\n      0x1f\n      and\n      dup3\n      add\n      swap2\n    tag_205:\n      pop\n      pop\n      pop\n      pop\n      pop\n      swap1\n      dup1\n      0x03\n      add\n      sload\n      swap1\n      pop\n      dup5\n      jump\t// out\n        /* \"contracts/CharityDonationStorage.sol\":963:1024  mapping  (address => mapping (address => bool)) public admins */\n    tag_73:\n      mstore(0x20, 0x01)\n      dup2\n      0x00\n      mstore\n      mstore(0x20, keccak256(0x00, 0x40))\n      dup1\n      0x00\n      mstore\n      keccak256(0x00, 0x40)\n      0x00\n      swap2\n      pop\n      swap2\n      pop\n      swap1\n      sload\n      swap1\n      0x0100\n      exp\n      swap1\n      div\n      0xff\n      and\n      dup2\n      jump\t// out\n        /* \"contracts/CharityDonationView.sol\":2983:3132  function viewWithdrawals(address _campaignAddress) public view returns (Withdrawals[] memory) {... */\n    tag_78:\n        /* \"contracts/CharityDonationView.sol\":3055:3075  Withdrawals[] memory */\n      0x60\n        /* \"contracts/CharityDonationView.sol\":3095:3106  withdrawals */\n      0x04\n        /* \"contracts/CharityDonationView.sol\":3095:3124  withdrawals[_campaignAddress] */\n      0x00\n        /* \"contracts/CharityDonationView.sol\":3107:3123  _campaignAddress */\n      dup4\n        /* \"contracts/CharityDonationView.sol\":3095:3124  withdrawals[_campaignAddress] */\n      0xffffffffffffffffffffffffffffffffffffffff\n      and\n      0xffffffffffffffffffffffffffffffffffffffff\n      and\n      dup2\n      mstore\n      0x20\n      add\n      swap1\n      dup2\n      mstore\n      0x20\n      add\n      0x00\n      keccak256\n        /* \"contracts/CharityDonationView.sol\":3088:3124  return withdrawals[_campaignAddress] */\n      dup1\n      sload\n      dup1\n      0x20\n      mul\n      0x20\n      add\n      mload(0x40)\n      swap1\n      dup2\n      add\n      0x40\n      mstore\n      dup1\n      swap3\n      swap2\n      swap1\n      dup2\n      dup2\n      mstore\n      0x20\n      add\n      0x00\n      swap1\n    tag_209:\n      dup3\n      dup3\n      lt\n      iszero\n      tag_210\n      jumpi\n      dup4\n      dup3\n      swap1\n      0x00\n      mstore\n      keccak256(0x00, 0x20)\n      swap1\n      0x05\n      mul\n      add\n      mload(0x40)\n      dup1\n      0xa0\n      add\n      0x40\n      mstore\n      swap1\n      dup2\n      0x00\n      dup3\n      add\n      sload\n      dup2\n      mstore\n      0x20\n      add\n      0x01\n      dup3\n      add\n      dup1\n      sload\n      tag_212\n      swap1\n      tag_93\n      jump\t// in\n    tag_212:\n      dup1\n      0x1f\n      add\n      0x20\n      dup1\n      swap2\n      div\n      mul\n      0x20\n      add\n      mload(0x40)\n      swap1\n      dup2\n      add\n      0x40\n      mstore\n      dup1\n      swap3\n      swap2\n      swap1\n      dup2\n      dup2\n      mstore\n      0x20\n      add\n      dup3\n      dup1\n      sload\n      tag_213\n      swap1\n      tag_93\n      jump\t// in\n    tag_213:\n      dup1\n      iszero\n      tag_214\n      jumpi\n      dup1\n      0x1f\n      lt\n      tag_215\n      jumpi\n      0x0100\n      dup1\n      dup4\n      sload\n      div\n      mul\n      dup4\n      mstore\n      swap2\n      0x20\n      add\n      swap2\n      jump(tag_214)\n    tag_215:\n      dup3\n      add\n      swap2\n      swap1\n      0x00\n      mstore\n      keccak256(0x00, 0x20)\n      swap1\n    tag_216:\n      dup2\n      sload\n      dup2\n      mstore\n      swap1\n      0x01\n      add\n      swap1\n      0x20\n      add\n      dup1\n      dup4\n      gt\n      tag_216\n      jumpi\n      dup3\n      swap1\n      sub\n      0x1f\n      and\n      dup3\n      add\n      swap2\n    tag_214:\n      pop\n      pop\n      pop\n      pop\n      pop\n      dup2\n      mstore\n      0x20\n      add\n      0x02\n      dup3\n      add\n      sload\n      dup2\n      mstore\n      0x20\n      add\n      0x03\n      dup3\n      add\n      0x00\n      swap1\n      sload\n      swap1\n      0x0100\n      exp\n      swap1\n      div\n      0xffffffffffffffffffffffffffffffffffffffff\n      and\n      0xffffffffffffffffffffffffffffffffffffffff\n      and\n      0xffffffffffffffffffffffffffffffffffffffff\n      and\n      dup2\n      mstore\n      0x20\n      add\n      0x04\n      dup3\n      add\n      0x00\n      swap1\n      sload\n      swap1\n      0x0100\n      exp\n      swap1\n      div\n      0xffffffffffffffffffffffffffffffffffffffff\n      and\n      0xffffffffffffffffffffffffffffffffffffffff\n      and\n      0xffffffffffffffffffffffffffffffffffffffff\n      and\n      dup2\n      mstore\n      pop\n      pop\n      dup2\n      mstore\n      0x20\n      add\n      swap1\n      0x01\n      add\n      swap1\n      jump(tag_209)\n    tag_210:\n      pop\n      pop\n      pop\n      pop\n      swap1\n      pop\n        /* \"contracts/CharityDonationView.sol\":2983:3132  function viewWithdrawals(address _campaignAddress) public view returns (Withdrawals[] memory) {... */\n      swap2\n      swap1\n      pop\n      jump\t// out\n        /* \"contracts/CharityDonationStorage.sol\":1423:1499  mapping (address => mapping (uint256 => address[])) public donorsForCampaign */\n    tag_84:\n      mstore(0x20, 0x05)\n      dup3\n      0x00\n      mstore\n      mstore(0x20, keccak256(0x00, 0x40))\n      dup2\n      0x00\n      mstore\n      keccak256(0x00, 0x40)\n      dup2\n      dup2\n      sload\n      dup2\n      lt\n      tag_217\n      jumpi\n      0x00\n      dup1\n      revert\n    tag_217:\n      swap1\n      0x00\n      mstore\n      keccak256(0x00, 0x20)\n      add\n      0x00\n      swap3\n      pop\n      swap3\n      pop\n      pop\n      swap1\n      sload\n      swap1\n      0x0100\n      exp\n      swap1\n      div\n      0xffffffffffffffffffffffffffffffffffffffff\n      and\n      dup2\n      jump\t// out\n        /* \"contracts/CharityDonationView.sol\":2841:2950  function viewDonations() public view returns (Donation[] memory) {... */\n    tag_87:\n        /* \"contracts/CharityDonationView.sol\":2887:2904  Donation[] memory */\n      0x60\n        /* \"contracts/CharityDonationView.sol\":2924:2930  donors */\n      0x03\n        /* \"contracts/CharityDonationView.sol\":2924:2942  donors[msg.sender] */\n      0x00\n        /* \"contracts/CharityDonationView.sol\":2931:2941  msg.sender */\n      caller\n        /* \"contracts/CharityDonationView.sol\":2924:2942  donors[msg.sender] */\n      0xffffffffffffffffffffffffffffffffffffffff\n      and\n      0xffffffffffffffffffffffffffffffffffffffff\n      and\n      dup2\n      mstore\n      0x20\n      add\n      swap1\n      dup2\n      mstore\n      0x20\n      add\n      0x00\n      keccak256\n        /* \"contracts/CharityDonationView.sol\":2917:2942  return donors[msg.sender] */\n      dup1\n      sload\n      dup1\n      0x20\n      mul\n      0x20\n      add\n      mload(0x40)\n      swap1\n      dup2\n      add\n      0x40\n      mstore\n      dup1\n      swap3\n      swap2\n      swap1\n      dup2\n      dup2\n      mstore\n      0x20\n      add\n      0x00\n      swap1\n    tag_220:\n      dup3\n      dup3\n      lt\n      iszero\n      tag_221\n      jumpi\n      dup4\n      dup3\n      swap1\n      0x00\n      mstore\n      keccak256(0x00, 0x20)\n      swap1\n      0x04\n      mul\n      add\n      mload(0x40)\n      dup1\n      0x80\n      add\n      0x40\n      mstore\n      swap1\n      dup2\n      0x00\n      dup3\n      add\n      0x00\n      swap1\n      sload\n      swap1\n      0x0100\n      exp\n      swap1\n      div\n      0xffffffffffffffffffffffffffffffffffffffff\n      and\n      0xffffffffffffffffffffffffffffffffffffffff\n      and\n      0xffffffffffffffffffffffffffffffffffffffff\n      and\n      dup2\n      mstore\n      0x20\n      add\n      0x01\n      dup3\n      add\n      sload\n      dup2\n      mstore\n      0x20\n      add\n      0x02\n      dup3\n      add\n      dup1\n      sload\n      tag_223\n      swap1\n      tag_93\n      jump\t// in\n    tag_223:\n      dup1\n      0x1f\n      add\n      0x20\n      dup1\n      swap2\n      div\n      mul\n      0x20\n      add\n      mload(0x40)\n      swap1\n      dup2\n      add\n      0x40\n      mstore\n      dup1\n      swap3\n      swap2\n      swap1\n      dup2\n      dup2\n      mstore\n      0x20\n      add\n      dup3\n      dup1\n      sload\n      tag_224\n      swap1\n      tag_93\n      jump\t// in\n    tag_224:\n      dup1\n      iszero\n      tag_225\n      jumpi\n      dup1\n      0x1f\n      lt\n      tag_226\n      jumpi\n      0x0100\n      dup1\n      dup4\n      sload\n      div\n      mul\n      dup4\n      mstore\n      swap2\n      0x20\n      add\n      swap2\n      jump(tag_225)\n    tag_226:\n      dup3\n      add\n      swap2\n      swap1\n      0x00\n      mstore\n      keccak256(0x00, 0x20)\n      swap1\n    tag_227:\n      dup2\n      sload\n      dup2\n      mstore\n      swap1\n      0x01\n      add\n      swap1\n      0x20\n      add\n      dup1\n      dup4\n      gt\n      tag_227\n      jumpi\n      dup3\n      swap1\n      sub\n      0x1f\n      and\n      dup3\n      add\n      swap2\n    tag_225:\n      pop\n      pop\n      pop\n      pop\n      pop\n      dup2\n      mstore\n      0x20\n      add\n      0x03\n      dup3\n      add\n      sload\n      dup2\n      mstore\n      pop\n      pop\n      dup2\n      mstore\n      0x20\n      add\n      swap1\n      0x01\n      add\n      swap1\n      jump(tag_220)\n    tag_221:\n      pop\n      pop\n      pop\n      pop\n      swap1\n      pop\n        /* \"contracts/CharityDonationView.sol\":2841:2950  function viewDonations() public view returns (Donation[] memory) {... */\n      swap1\n      jump\t// out\n    tag_159:\n      mload(0x40)\n      dup1\n      0x0120\n      add\n      0x40\n      mstore\n      dup1\n      0x00\n      dup2\n      mstore\n      0x20\n      add\n      0x60\n      dup2\n      mstore\n      0x20\n      add\n      0x60\n      dup2\n      mstore\n      0x20\n      add\n      and(0xffffffffffffffffffffffffffffffffffffffff, 0x00)\n      dup2\n      mstore\n      0x20\n      add\n      0x00\n      dup2\n      mstore\n      0x20\n      add\n      0x00\n      dup2\n      mstore\n      0x20\n      add\n      0x00\n      dup2\n      mstore\n      0x20\n      add\n      iszero(iszero(0x00))\n      dup2\n      mstore\n      0x20\n      add\n      iszero(iszero(0x00))\n      dup2\n      mstore\n      pop\n      swap1\n      jump\t// out\n        /* \"#utility.yul\":88:205   */\n    tag_229:\n        /* \"#utility.yul\":197:198   */\n      0x00\n        /* \"#utility.yul\":194:195   */\n      dup1\n        /* \"#utility.yul\":187:199   */\n      revert\n        /* \"#utility.yul\":334:460   */\n    tag_231:\n        /* \"#utility.yul\":371:378   */\n      0x00\n        /* \"#utility.yul\":411:453   */\n      0xffffffffffffffffffffffffffffffffffffffff\n        /* \"#utility.yul\":404:409   */\n      dup3\n        /* \"#utility.yul\":400:454   */\n      and\n        /* \"#utility.yul\":389:454   */\n      swap1\n      pop\n        /* \"#utility.yul\":334:460   */\n      swap2\n      swap1\n      pop\n      jump\t// out\n        /* \"#utility.yul\":466:562   */\n    tag_232:\n        /* \"#utility.yul\":503:510   */\n      0x00\n        /* \"#utility.yul\":532:556   */\n      tag_298\n        /* \"#utility.yul\":550:555   */\n      dup3\n        /* \"#utility.yul\":532:556   */\n      tag_231\n      jump\t// in\n    tag_298:\n        /* \"#utility.yul\":521:556   */\n      swap1\n      pop\n        /* \"#utility.yul\":466:562   */\n      swap2\n      swap1\n      pop\n      jump\t// out\n        /* \"#utility.yul\":568:690   */\n    tag_233:\n        /* \"#utility.yul\":641:665   */\n      tag_300\n        /* \"#utility.yul\":659:664   */\n      dup2\n        /* \"#utility.yul\":641:665   */\n      tag_232\n      jump\t// in\n    tag_300:\n        /* \"#utility.yul\":634:639   */\n      dup2\n        /* \"#utility.yul\":631:666   */\n      eq\n        /* \"#utility.yul\":621:684   */\n      tag_301\n      jumpi\n        /* \"#utility.yul\":680:681   */\n      0x00\n        /* \"#utility.yul\":677:678   */\n      dup1\n        /* \"#utility.yul\":670:682   */\n      revert\n        /* \"#utility.yul\":621:684   */\n    tag_301:\n        /* \"#utility.yul\":568:690   */\n      pop\n      jump\t// out\n        /* \"#utility.yul\":696:835   */\n    tag_234:\n        /* \"#utility.yul\":742:747   */\n      0x00\n        /* \"#utility.yul\":780:786   */\n      dup2\n        /* \"#utility.yul\":767:787   */\n      calldataload\n        /* \"#utility.yul\":758:787   */\n      swap1\n      pop\n        /* \"#utility.yul\":796:829   */\n      tag_303\n        /* \"#utility.yul\":823:828   */\n      dup2\n        /* \"#utility.yul\":796:829   */\n      tag_233\n      jump\t// in\n    tag_303:\n        /* \"#utility.yul\":696:835   */\n      swap3\n      swap2\n      pop\n      pop\n      jump\t// out\n        /* \"#utility.yul\":841:918   */\n    tag_235:\n        /* \"#utility.yul\":878:885   */\n      0x00\n        /* \"#utility.yul\":907:912   */\n      dup2\n        /* \"#utility.yul\":896:912   */\n      swap1\n      pop\n        /* \"#utility.yul\":841:918   */\n      swap2\n      swap1\n      pop\n      jump\t// out\n        /* \"#utility.yul\":924:1046   */\n    tag_236:\n        /* \"#utility.yul\":997:1021   */\n      tag_306\n        /* \"#utility.yul\":1015:1020   */\n      dup2\n        /* \"#utility.yul\":997:1021   */\n      tag_235\n      jump\t// in\n    tag_306:\n        /* \"#utility.yul\":990:995   */\n      dup2\n        /* \"#utility.yul\":987:1022   */\n      eq\n        /* \"#utility.yul\":977:1040   */\n      tag_307\n      jumpi\n        /* \"#utility.yul\":1036:1037   */\n      0x00\n        /* \"#utility.yul\":1033:1034   */\n      dup1\n        /* \"#utility.yul\":1026:1038   */\n      revert\n        /* \"#utility.yul\":977:1040   */\n    tag_307:\n        /* \"#utility.yul\":924:1046   */\n      pop\n      jump\t// out\n        /* \"#utility.yul\":1052:1191   */\n    tag_237:\n        /* \"#utility.yul\":1098:1103   */\n      0x00\n        /* \"#utility.yul\":1136:1142   */\n      dup2\n        /* \"#utility.yul\":1123:1143   */\n      calldataload\n        /* \"#utility.yul\":1114:1143   */\n      swap1\n      pop\n        /* \"#utility.yul\":1152:1185   */\n      tag_309\n        /* \"#utility.yul\":1179:1184   */\n      dup2\n        /* \"#utility.yul\":1152:1185   */\n      tag_236\n      jump\t// in\n    tag_309:\n        /* \"#utility.yul\":1052:1191   */\n      swap3\n      swap2\n      pop\n      pop\n      jump\t// out\n        /* \"#utility.yul\":1197:1671   */\n    tag_22:\n        /* \"#utility.yul\":1265:1271   */\n      0x00\n        /* \"#utility.yul\":1273:1279   */\n      dup1\n        /* \"#utility.yul\":1322:1324   */\n      0x40\n        /* \"#utility.yul\":1310:1319   */\n      dup4\n        /* \"#utility.yul\":1301:1308   */\n      dup6\n        /* \"#utility.yul\":1297:1320   */\n      sub\n        /* \"#utility.yul\":1293:1325   */\n      slt\n        /* \"#utility.yul\":1290:1409   */\n      iszero\n      tag_311\n      jumpi\n        /* \"#utility.yul\":1328:1407   */\n      tag_312\n      tag_229\n      jump\t// in\n    tag_312:\n        /* \"#utility.yul\":1290:1409   */\n    tag_311:\n        /* \"#utility.yul\":1448:1449   */\n      0x00\n        /* \"#utility.yul\":1473:1526   */\n      tag_313\n        /* \"#utility.yul\":1518:1525   */\n      dup6\n        /* \"#utility.yul\":1509:1515   */\n      dup3\n        /* \"#utility.yul\":1498:1507   */\n      dup7\n        /* \"#utility.yul\":1494:1516   */\n      add\n        /* \"#utility.yul\":1473:1526   */\n      tag_234\n      jump\t// in\n    tag_313:\n        /* \"#utility.yul\":1463:1526   */\n      swap3\n      pop\n        /* \"#utility.yul\":1419:1536   */\n      pop\n        /* \"#utility.yul\":1575:1577   */\n      0x20\n        /* \"#utility.yul\":1601:1654   */\n      tag_314\n        /* \"#utility.yul\":1646:1653   */\n      dup6\n        /* \"#utility.yul\":1637:1643   */\n      dup3\n        /* \"#utility.yul\":1626:1635   */\n      dup7\n        /* \"#utility.yul\":1622:1644   */\n      add\n        /* \"#utility.yul\":1601:1654   */\n      tag_237\n      jump\t// in\n    tag_314:\n        /* \"#utility.yul\":1591:1654   */\n      swap2\n      pop\n        /* \"#utility.yul\":1546:1664   */\n      pop\n        /* \"#utility.yul\":1197:1671   */\n      swap3\n      pop\n      swap3\n      swap1\n      pop\n      jump\t// out\n        /* \"#utility.yul\":1677:1795   */\n    tag_238:\n        /* \"#utility.yul\":1764:1788   */\n      tag_316\n        /* \"#utility.yul\":1782:1787   */\n      dup2\n        /* \"#utility.yul\":1764:1788   */\n      tag_235\n      jump\t// in\n    tag_316:\n        /* \"#utility.yul\":1759:1762   */\n      dup3\n        /* \"#utility.yul\":1752:1789   */\n      mstore\n        /* \"#utility.yul\":1677:1795   */\n      pop\n      pop\n      jump\t// out\n        /* \"#utility.yul\":1801:1900   */\n    tag_239:\n        /* \"#utility.yul\":1853:1859   */\n      0x00\n        /* \"#utility.yul\":1887:1892   */\n      dup2\n        /* \"#utility.yul\":1881:1893   */\n      mload\n        /* \"#utility.yul\":1871:1893   */\n      swap1\n      pop\n        /* \"#utility.yul\":1801:1900   */\n      swap2\n      swap1\n      pop\n      jump\t// out\n        /* \"#utility.yul\":1906:2075   */\n    tag_240:\n        /* \"#utility.yul\":1990:2001   */\n      0x00\n        /* \"#utility.yul\":2024:2030   */\n      dup3\n        /* \"#utility.yul\":2019:2022   */\n      dup3\n        /* \"#utility.yul\":2012:2031   */\n      mstore\n        /* \"#utility.yul\":2064:2068   */\n      0x20\n        /* \"#utility.yul\":2059:2062   */\n      dup3\n        /* \"#utility.yul\":2055:2069   */\n      add\n        /* \"#utility.yul\":2040:2069   */\n      swap1\n      pop\n        /* \"#utility.yul\":1906:2075   */\n      swap3\n      swap2\n      pop\n      pop\n      jump\t// out\n        /* \"#utility.yul\":2081:2220   */\n    tag_241:\n        /* \"#utility.yul\":2170:2176   */\n      dup3\n        /* \"#utility.yul\":2165:2168   */\n      dup2\n        /* \"#utility.yul\":2160:2163   */\n      dup4\n        /* \"#utility.yul\":2154:2177   */\n      mcopy\n        /* \"#utility.yul\":2211:2212   */\n      0x00\n        /* \"#utility.yul\":2202:2208   */\n      dup4\n        /* \"#utility.yul\":2197:2200   */\n      dup4\n        /* \"#utility.yul\":2193:2209   */\n      add\n        /* \"#utility.yul\":2186:2213   */\n      mstore\n        /* \"#utility.yul\":2081:2220   */\n      pop\n      pop\n      pop\n      jump\t// out\n        /* \"#utility.yul\":2226:2328   */\n    tag_242:\n        /* \"#utility.yul\":2267:2273   */\n      0x00\n        /* \"#utility.yul\":2318:2320   */\n      0x1f\n        /* \"#utility.yul\":2314:2321   */\n      not\n        /* \"#utility.yul\":2309:2311   */\n      0x1f\n        /* \"#utility.yul\":2302:2307   */\n      dup4\n        /* \"#utility.yul\":2298:2312   */\n      add\n        /* \"#utility.yul\":2294:2322   */\n      and\n        /* \"#utility.yul\":2284:2322   */\n      swap1\n      pop\n        /* \"#utility.yul\":2226:2328   */\n      swap2\n      swap1\n      pop\n      jump\t// out\n        /* \"#utility.yul\":2334:2711   */\n    tag_243:\n        /* \"#utility.yul\":2422:2425   */\n      0x00\n        /* \"#utility.yul\":2450:2489   */\n      tag_322\n        /* \"#utility.yul\":2483:2488   */\n      dup3\n        /* \"#utility.yul\":2450:2489   */\n      tag_239\n      jump\t// in\n    tag_322:\n        /* \"#utility.yul\":2505:2576   */\n      tag_323\n        /* \"#utility.yul\":2569:2575   */\n      dup2\n        /* \"#utility.yul\":2564:2567   */\n      dup6\n        /* \"#utility.yul\":2505:2576   */\n      tag_240\n      jump\t// in\n    tag_323:\n        /* \"#utility.yul\":2498:2576   */\n      swap4\n      pop\n        /* \"#utility.yul\":2585:2650   */\n      tag_324\n        /* \"#utility.yul\":2643:2649   */\n      dup2\n        /* \"#utility.yul\":2638:2641   */\n      dup6\n        /* \"#utility.yul\":2631:2635   */\n      0x20\n        /* \"#utility.yul\":2624:2629   */\n      dup7\n        /* \"#utility.yul\":2620:2636   */\n      add\n        /* \"#utility.yul\":2585:2650   */\n      tag_241\n      jump\t// in\n    tag_324:\n        /* \"#utility.yul\":2675:2704   */\n      tag_325\n        /* \"#utility.yul\":2697:2703   */\n      dup2\n        /* \"#utility.yul\":2675:2704   */\n      tag_242\n      jump\t// in\n    tag_325:\n        /* \"#utility.yul\":2670:2673   */\n      dup5\n        /* \"#utility.yul\":2666:2705   */\n      add\n        /* \"#utility.yul\":2659:2705   */\n      swap2\n      pop\n        /* \"#utility.yul\":2426:2711   */\n      pop\n        /* \"#utility.yul\":2334:2711   */\n      swap3\n      swap2\n      pop\n      pop\n      jump\t// out\n        /* \"#utility.yul\":2717:2835   */\n    tag_244:\n        /* \"#utility.yul\":2804:2828   */\n      tag_327\n        /* \"#utility.yul\":2822:2827   */\n      dup2\n        /* \"#utility.yul\":2804:2828   */\n      tag_232\n      jump\t// in\n    tag_327:\n        /* \"#utility.yul\":2799:2802   */\n      dup3\n        /* \"#utility.yul\":2792:2829   */\n      mstore\n        /* \"#utility.yul\":2717:2835   */\n      pop\n      pop\n      jump\t// out\n        /* \"#utility.yul\":2841:2931   */\n    tag_245:\n        /* \"#utility.yul\":2875:2882   */\n      0x00\n        /* \"#utility.yul\":2918:2923   */\n      dup2\n        /* \"#utility.yul\":2911:2924   */\n      iszero\n        /* \"#utility.yul\":2904:2925   */\n      iszero\n        /* \"#utility.yul\":2893:2925   */\n      swap1\n      pop\n        /* \"#utility.yul\":2841:2931   */\n      swap2\n      swap1\n      pop\n      jump\t// out\n        /* \"#utility.yul\":2937:3046   */\n    tag_246:\n        /* \"#utility.yul\":3018:3039   */\n      tag_330\n        /* \"#utility.yul\":3033:3038   */\n      dup2\n        /* \"#utility.yul\":3018:3039   */\n      tag_245\n      jump\t// in\n    tag_330:\n        /* \"#utility.yul\":3013:3016   */\n      dup3\n        /* \"#utility.yul\":3006:3040   */\n      mstore\n        /* \"#utility.yul\":2937:3046   */\n      pop\n      pop\n      jump\t// out\n        /* \"#utility.yul\":3052:4318   */\n    tag_25:\n        /* \"#utility.yul\":3397:3401   */\n      0x00\n        /* \"#utility.yul\":3435:3438   */\n      0x0120\n        /* \"#utility.yul\":3424:3433   */\n      dup3\n        /* \"#utility.yul\":3420:3439   */\n      add\n        /* \"#utility.yul\":3412:3439   */\n      swap1\n      pop\n        /* \"#utility.yul\":3449:3520   */\n      tag_332\n        /* \"#utility.yul\":3517:3518   */\n      0x00\n        /* \"#utility.yul\":3506:3515   */\n      dup4\n        /* \"#utility.yul\":3502:3519   */\n      add\n        /* \"#utility.yul\":3493:3499   */\n      dup13\n        /* \"#utility.yul\":3449:3520   */\n      tag_238\n      jump\t// in\n    tag_332:\n        /* \"#utility.yul\":3567:3576   */\n      dup2\n        /* \"#utility.yul\":3561:3565   */\n      dup2\n        /* \"#utility.yul\":3557:3577   */\n      sub\n        /* \"#utility.yul\":3552:3554   */\n      0x20\n        /* \"#utility.yul\":3541:3550   */\n      dup4\n        /* \"#utility.yul\":3537:3555   */\n      add\n        /* \"#utility.yul\":3530:3578   */\n      mstore\n        /* \"#utility.yul\":3595:3673   */\n      tag_333\n        /* \"#utility.yul\":3668:3672   */\n      dup2\n        /* \"#utility.yul\":3659:3665   */\n      dup12\n        /* \"#utility.yul\":3595:3673   */\n      tag_243\n      jump\t// in\n    tag_333:\n        /* \"#utility.yul\":3587:3673   */\n      swap1\n      pop\n        /* \"#utility.yul\":3720:3729   */\n      dup2\n        /* \"#utility.yul\":3714:3718   */\n      dup2\n        /* \"#utility.yul\":3710:3730   */\n      sub\n        /* \"#utility.yul\":3705:3707   */\n      0x40\n        /* \"#utility.yul\":3694:3703   */\n      dup4\n        /* \"#utility.yul\":3690:3708   */\n      add\n        /* \"#utility.yul\":3683:3731   */\n      mstore\n        /* \"#utility.yul\":3748:3826   */\n      tag_334\n        /* \"#utility.yul\":3821:3825   */\n      dup2\n        /* \"#utility.yul\":3812:3818   */\n      dup11\n        /* \"#utility.yul\":3748:3826   */\n      tag_243\n      jump\t// in\n    tag_334:\n        /* \"#utility.yul\":3740:3826   */\n      swap1\n      pop\n        /* \"#utility.yul\":3836:3908   */\n      tag_335\n        /* \"#utility.yul\":3904:3906   */\n      0x60\n        /* \"#utility.yul\":3893:3902   */\n      dup4\n        /* \"#utility.yul\":3889:3907   */\n      add\n        /* \"#utility.yul\":3880:3886   */\n      dup10\n        /* \"#utility.yul\":3836:3908   */\n      tag_244\n      jump\t// in\n    tag_335:\n        /* \"#utility.yul\":3918:3991   */\n      tag_336\n        /* \"#utility.yul\":3986:3989   */\n      0x80\n        /* \"#utility.yul\":3975:3984   */\n      dup4\n        /* \"#utility.yul\":3971:3990   */\n      add\n        /* \"#utility.yul\":3962:3968   */\n      dup9\n        /* \"#utility.yul\":3918:3991   */\n      tag_238\n      jump\t// in\n    tag_336:\n        /* \"#utility.yul\":4001:4074   */\n      tag_337\n        /* \"#utility.yul\":4069:4072   */\n      0xa0\n        /* \"#utility.yul\":4058:4067   */\n      dup4\n        /* \"#utility.yul\":4054:4073   */\n      add\n        /* \"#utility.yul\":4045:4051   */\n      dup8\n        /* \"#utility.yul\":4001:4074   */\n      tag_238\n      jump\t// in\n    tag_337:\n        /* \"#utility.yul\":4084:4157   */\n      tag_338\n        /* \"#utility.yul\":4152:4155   */\n      0xc0\n        /* \"#utility.yul\":4141:4150   */\n      dup4\n        /* \"#utility.yul\":4137:4156   */\n      add\n        /* \"#utility.yul\":4128:4134   */\n      dup7\n        /* \"#utility.yul\":4084:4157   */\n      tag_238\n      jump\t// in\n    tag_338:\n        /* \"#utility.yul\":4167:4234   */\n      tag_339\n        /* \"#utility.yul\":4229:4232   */\n      0xe0\n        /* \"#utility.yul\":4218:4227   */\n      dup4\n        /* \"#utility.yul\":4214:4233   */\n      add\n        /* \"#utility.yul\":4205:4211   */\n      dup6\n        /* \"#utility.yul\":4167:4234   */\n      tag_246\n      jump\t// in\n    tag_339:\n        /* \"#utility.yul\":4244:4311   */\n      tag_340\n        /* \"#utility.yul\":4306:4309   */\n      0x0100\n        /* \"#utility.yul\":4295:4304   */\n      dup4\n        /* \"#utility.yul\":4291:4310   */\n      add\n        /* \"#utility.yul\":4282:4288   */\n      dup5\n        /* \"#utility.yul\":4244:4311   */\n      tag_246\n      jump\t// in\n    tag_340:\n        /* \"#utility.yul\":3052:4318   */\n      swap11\n      swap10\n      pop\n      pop\n      pop\n      pop\n      pop\n      pop\n      pop\n      pop\n      pop\n      pop\n      jump\t// out\n        /* \"#utility.yul\":4324:4546   */\n    tag_30:\n        /* \"#utility.yul\":4417:4421   */\n      0x00\n        /* \"#utility.yul\":4455:4457   */\n      0x20\n        /* \"#utility.yul\":4444:4453   */\n      dup3\n        /* \"#utility.yul\":4440:4458   */\n      add\n        /* \"#utility.yul\":4432:4458   */\n      swap1\n      pop\n        /* \"#utility.yul\":4468:4539   */\n      tag_342\n        /* \"#utility.yul\":4536:4537   */\n      0x00\n        /* \"#utility.yul\":4525:4534   */\n      dup4\n        /* \"#utility.yul\":4521:4538   */\n      add\n        /* \"#utility.yul\":4512:4518   */\n      dup5\n        /* \"#utility.yul\":4468:4539   */\n      tag_244\n      jump\t// in\n    tag_342:\n        /* \"#utility.yul\":4324:4546   */\n      swap3\n      swap2\n      pop\n      pop\n      jump\t// out\n        /* \"#utility.yul\":4552:4881   */\n    tag_33:\n        /* \"#utility.yul\":4611:4617   */\n      0x00\n        /* \"#utility.yul\":4660:4662   */\n      0x20\n        /* \"#utility.yul\":4648:4657   */\n      dup3\n        /* \"#utility.yul\":4639:4646   */\n      dup5\n        /* \"#utility.yul\":4635:4658   */\n      sub\n        /* \"#utility.yul\":4631:4663   */\n      slt\n        /* \"#utility.yul\":4628:4747   */\n      iszero\n      tag_344\n      jumpi\n        /* \"#utility.yul\":4666:4745   */\n      tag_345\n      tag_229\n      jump\t// in\n    tag_345:\n        /* \"#utility.yul\":4628:4747   */\n    tag_344:\n        /* \"#utility.yul\":4786:4787   */\n      0x00\n        /* \"#utility.yul\":4811:4864   */\n      tag_346\n        /* \"#utility.yul\":4856:4863   */\n      dup5\n        /* \"#utility.yul\":4847:4853   */\n      dup3\n        /* \"#utility.yul\":4836:4845   */\n      dup6\n        /* \"#utility.yul\":4832:4854   */\n      add\n        /* \"#utility.yul\":4811:4864   */\n      tag_234\n      jump\t// in\n    tag_346:\n        /* \"#utility.yul\":4801:4864   */\n      swap2\n      pop\n        /* \"#utility.yul\":4757:4874   */\n      pop\n        /* \"#utility.yul\":4552:4881   */\n      swap3\n      swap2\n      pop\n      pop\n      jump\t// out\n        /* \"#utility.yul\":4887:5001   */\n    tag_247:\n        /* \"#utility.yul\":4954:4960   */\n      0x00\n        /* \"#utility.yul\":4988:4993   */\n      dup2\n        /* \"#utility.yul\":4982:4994   */\n      mload\n        /* \"#utility.yul\":4972:4994   */\n      swap1\n      pop\n        /* \"#utility.yul\":4887:5001   */\n      swap2\n      swap1\n      pop\n      jump\t// out\n        /* \"#utility.yul\":5007:5191   */\n    tag_248:\n        /* \"#utility.yul\":5106:5117   */\n      0x00\n        /* \"#utility.yul\":5140:5146   */\n      dup3\n        /* \"#utility.yul\":5135:5138   */\n      dup3\n        /* \"#utility.yul\":5128:5147   */\n      mstore\n        /* \"#utility.yul\":5180:5184   */\n      0x20\n        /* \"#utility.yul\":5175:5178   */\n      dup3\n        /* \"#utility.yul\":5171:5185   */\n      add\n        /* \"#utility.yul\":5156:5185   */\n      swap1\n      pop\n        /* \"#utility.yul\":5007:5191   */\n      swap3\n      swap2\n      pop\n      pop\n      jump\t// out\n        /* \"#utility.yul\":5197:5329   */\n    tag_249:\n        /* \"#utility.yul\":5264:5268   */\n      0x00\n        /* \"#utility.yul\":5287:5290   */\n      dup2\n        /* \"#utility.yul\":5279:5290   */\n      swap1\n      pop\n        /* \"#utility.yul\":5317:5321   */\n      0x20\n        /* \"#utility.yul\":5312:5315   */\n      dup3\n        /* \"#utility.yul\":5308:5322   */\n      add\n        /* \"#utility.yul\":5300:5322   */\n      swap1\n      pop\n        /* \"#utility.yul\":5197:5329   */\n      swap2\n      swap1\n      pop\n      jump\t// out\n        /* \"#utility.yul\":5335:5443   */\n    tag_250:\n        /* \"#utility.yul\":5412:5436   */\n      tag_351\n        /* \"#utility.yul\":5430:5435   */\n      dup2\n        /* \"#utility.yul\":5412:5436   */\n      tag_232\n      jump\t// in\n    tag_351:\n        /* \"#utility.yul\":5407:5410   */\n      dup3\n        /* \"#utility.yul\":5400:5437   */\n      mstore\n        /* \"#utility.yul\":5335:5443   */\n      pop\n      pop\n      jump\t// out\n        /* \"#utility.yul\":5449:5628   */\n    tag_251:\n        /* \"#utility.yul\":5518:5528   */\n      0x00\n        /* \"#utility.yul\":5539:5585   */\n      tag_353\n        /* \"#utility.yul\":5581:5584   */\n      dup4\n        /* \"#utility.yul\":5573:5579   */\n      dup4\n        /* \"#utility.yul\":5539:5585   */\n      tag_250\n      jump\t// in\n    tag_353:\n        /* \"#utility.yul\":5617:5621   */\n      0x20\n        /* \"#utility.yul\":5612:5615   */\n      dup4\n        /* \"#utility.yul\":5608:5622   */\n      add\n        /* \"#utility.yul\":5594:5622   */\n      swap1\n      pop\n        /* \"#utility.yul\":5449:5628   */\n      swap3\n      swap2\n      pop\n      pop\n      jump\t// out\n        /* \"#utility.yul\":5634:5747   */\n    tag_252:\n        /* \"#utility.yul\":5704:5708   */\n      0x00\n        /* \"#utility.yul\":5736:5740   */\n      0x20\n        /* \"#utility.yul\":5731:5734   */\n      dup3\n        /* \"#utility.yul\":5727:5741   */\n      add\n        /* \"#utility.yul\":5719:5741   */\n      swap1\n      pop\n        /* \"#utility.yul\":5634:5747   */\n      swap2\n      swap1\n      pop\n      jump\t// out\n        /* \"#utility.yul\":5783:6515   */\n    tag_253:\n        /* \"#utility.yul\":5902:5905   */\n      0x00\n        /* \"#utility.yul\":5931:5985   */\n      tag_356\n        /* \"#utility.yul\":5979:5984   */\n      dup3\n        /* \"#utility.yul\":5931:5985   */\n      tag_247\n      jump\t// in\n    tag_356:\n        /* \"#utility.yul\":6001:6087   */\n      tag_357\n        /* \"#utility.yul\":6080:6086   */\n      dup2\n        /* \"#utility.yul\":6075:6078   */\n      dup6\n        /* \"#utility.yul\":6001:6087   */\n      tag_248\n      jump\t// in\n    tag_357:\n        /* \"#utility.yul\":5994:6087   */\n      swap4\n      pop\n        /* \"#utility.yul\":6111:6167   */\n      tag_358\n        /* \"#utility.yul\":6161:6166   */\n      dup4\n        /* \"#utility.yul\":6111:6167   */\n      tag_249\n      jump\t// in\n    tag_358:\n        /* \"#utility.yul\":6190:6197   */\n      dup1\n        /* \"#utility.yul\":6221:6222   */\n      0x00\n        /* \"#utility.yul\":6206:6490   */\n    tag_359:\n        /* \"#utility.yul\":6231:6237   */\n      dup4\n        /* \"#utility.yul\":6228:6229   */\n      dup2\n        /* \"#utility.yul\":6225:6238   */\n      lt\n        /* \"#utility.yul\":6206:6490   */\n      iszero\n      tag_361\n      jumpi\n        /* \"#utility.yul\":6307:6313   */\n      dup2\n        /* \"#utility.yul\":6301:6314   */\n      mload\n        /* \"#utility.yul\":6334:6397   */\n      tag_362\n        /* \"#utility.yul\":6393:6396   */\n      dup9\n        /* \"#utility.yul\":6378:6391   */\n      dup3\n        /* \"#utility.yul\":6334:6397   */\n      tag_251\n      jump\t// in\n    tag_362:\n        /* \"#utility.yul\":6327:6397   */\n      swap8\n      pop\n        /* \"#utility.yul\":6420:6480   */\n      tag_363\n        /* \"#utility.yul\":6473:6479   */\n      dup4\n        /* \"#utility.yul\":6420:6480   */\n      tag_252\n      jump\t// in\n    tag_363:\n        /* \"#utility.yul\":6410:6480   */\n      swap3\n      pop\n        /* \"#utility.yul\":6266:6490   */\n      pop\n        /* \"#utility.yul\":6253:6254   */\n      0x01\n        /* \"#utility.yul\":6250:6251   */\n      dup2\n        /* \"#utility.yul\":6246:6255   */\n      add\n        /* \"#utility.yul\":6241:6255   */\n      swap1\n      pop\n        /* \"#utility.yul\":6206:6490   */\n      jump(tag_359)\n    tag_361:\n        /* \"#utility.yul\":6210:6224   */\n      pop\n        /* \"#utility.yul\":6506:6509   */\n      dup6\n        /* \"#utility.yul\":6499:6509   */\n      swap4\n      pop\n        /* \"#utility.yul\":5907:6515   */\n      pop\n      pop\n      pop\n        /* \"#utility.yul\":5783:6515   */\n      swap3\n      swap2\n      pop\n      pop\n      jump\t// out\n        /* \"#utility.yul\":6521:6894   */\n    tag_36:\n        /* \"#utility.yul\":6664:6668   */\n      0x00\n        /* \"#utility.yul\":6702:6704   */\n      0x20\n        /* \"#utility.yul\":6691:6700   */\n      dup3\n        /* \"#utility.yul\":6687:6705   */\n      add\n        /* \"#utility.yul\":6679:6705   */\n      swap1\n      pop\n        /* \"#utility.yul\":6751:6760   */\n      dup2\n        /* \"#utility.yul\":6745:6749   */\n      dup2\n        /* \"#utility.yul\":6741:6761   */\n      sub\n        /* \"#utility.yul\":6737:6738   */\n      0x00\n        /* \"#utility.yul\":6726:6735   */\n      dup4\n        /* \"#utility.yul\":6722:6739   */\n      add\n        /* \"#utility.yul\":6715:6762   */\n      mstore\n        /* \"#utility.yul\":6779:6887   */\n      tag_365\n        /* \"#utility.yul\":6882:6886   */\n      dup2\n        /* \"#utility.yul\":6873:6879   */\n      dup5\n        /* \"#utility.yul\":6779:6887   */\n      tag_253\n      jump\t// in\n    tag_365:\n        /* \"#utility.yul\":6771:6887   */\n      swap1\n      pop\n        /* \"#utility.yul\":6521:6894   */\n      swap3\n      swap2\n      pop\n      pop\n      jump\t// out\n        /* \"#utility.yul\":6900:7038   */\n    tag_254:\n        /* \"#utility.yul\":6991:6997   */\n      0x00\n        /* \"#utility.yul\":7025:7030   */\n      dup2\n        /* \"#utility.yul\":7019:7031   */\n      mload\n        /* \"#utility.yul\":7009:7031   */\n      swap1\n      pop\n        /* \"#utility.yul\":6900:7038   */\n      swap2\n      swap1\n      pop\n      jump\t// out\n        /* \"#utility.yul\":7044:7252   */\n    tag_255:\n        /* \"#utility.yul\":7167:7178   */\n      0x00\n        /* \"#utility.yul\":7201:7207   */\n      dup3\n        /* \"#utility.yul\":7196:7199   */\n      dup3\n        /* \"#utility.yul\":7189:7208   */\n      mstore\n        /* \"#utility.yul\":7241:7245   */\n      0x20\n        /* \"#utility.yul\":7236:7239   */\n      dup3\n        /* \"#utility.yul\":7232:7246   */\n      add\n        /* \"#utility.yul\":7217:7246   */\n      swap1\n      pop\n        /* \"#utility.yul\":7044:7252   */\n      swap3\n      swap2\n      pop\n      pop\n      jump\t// out\n        /* \"#utility.yul\":7258:7414   */\n    tag_256:\n        /* \"#utility.yul\":7349:7353   */\n      0x00\n        /* \"#utility.yul\":7372:7375   */\n      dup2\n        /* \"#utility.yul\":7364:7375   */\n      swap1\n      pop\n        /* \"#utility.yul\":7402:7406   */\n      0x20\n        /* \"#utility.yul\":7397:7400   */\n      dup3\n        /* \"#utility.yul\":7393:7407   */\n      add\n        /* \"#utility.yul\":7385:7407   */\n      swap1\n      pop\n        /* \"#utility.yul\":7258:7414   */\n      swap2\n      swap1\n      pop\n      jump\t// out\n        /* \"#utility.yul\":7420:7528   */\n    tag_257:\n        /* \"#utility.yul\":7497:7521   */\n      tag_370\n        /* \"#utility.yul\":7515:7520   */\n      dup2\n        /* \"#utility.yul\":7497:7521   */\n      tag_235\n      jump\t// in\n    tag_370:\n        /* \"#utility.yul\":7492:7495   */\n      dup3\n        /* \"#utility.yul\":7485:7522   */\n      mstore\n        /* \"#utility.yul\":7420:7528   */\n      pop\n      pop\n      jump\t// out\n        /* \"#utility.yul\":7534:7693   */\n    tag_258:\n        /* \"#utility.yul\":7608:7619   */\n      0x00\n        /* \"#utility.yul\":7642:7648   */\n      dup3\n        /* \"#utility.yul\":7637:7640   */\n      dup3\n        /* \"#utility.yul\":7630:7649   */\n      mstore\n        /* \"#utility.yul\":7682:7686   */\n      0x20\n        /* \"#utility.yul\":7677:7680   */\n      dup3\n        /* \"#utility.yul\":7673:7687   */\n      add\n        /* \"#utility.yul\":7658:7687   */\n      swap1\n      pop\n        /* \"#utility.yul\":7534:7693   */\n      swap3\n      swap2\n      pop\n      pop\n      jump\t// out\n        /* \"#utility.yul\":7699:8056   */\n    tag_259:\n        /* \"#utility.yul\":7777:7780   */\n      0x00\n        /* \"#utility.yul\":7805:7844   */\n      tag_373\n        /* \"#utility.yul\":7838:7843   */\n      dup3\n        /* \"#utility.yul\":7805:7844   */\n      tag_239\n      jump\t// in\n    tag_373:\n        /* \"#utility.yul\":7860:7921   */\n      tag_374\n        /* \"#utility.yul\":7914:7920   */\n      dup2\n        /* \"#utility.yul\":7909:7912   */\n      dup6\n        /* \"#utility.yul\":7860:7921   */\n      tag_258\n      jump\t// in\n    tag_374:\n        /* \"#utility.yul\":7853:7921   */\n      swap4\n      pop\n        /* \"#utility.yul\":7930:7995   */\n      tag_375\n        /* \"#utility.yul\":7988:7994   */\n      dup2\n        /* \"#utility.yul\":7983:7986   */\n      dup6\n        /* \"#utility.yul\":7976:7980   */\n      0x20\n        /* \"#utility.yul\":7969:7974   */\n      dup7\n        /* \"#utility.yul\":7965:7981   */\n      add\n        /* \"#utility.yul\":7930:7995   */\n      tag_241\n      jump\t// in\n    tag_375:\n        /* \"#utility.yul\":8020:8049   */\n      tag_376\n        /* \"#utility.yul\":8042:8048   */\n      dup2\n        /* \"#utility.yul\":8020:8049   */\n      tag_242\n      jump\t// in\n    tag_376:\n        /* \"#utility.yul\":8015:8018   */\n      dup5\n        /* \"#utility.yul\":8011:8050   */\n      add\n        /* \"#utility.yul\":8004:8050   */\n      swap2\n      pop\n        /* \"#utility.yul\":7781:8056   */\n      pop\n        /* \"#utility.yul\":7699:8056   */\n      swap3\n      swap2\n      pop\n      pop\n      jump\t// out\n        /* \"#utility.yul\":8062:8161   */\n    tag_260:\n        /* \"#utility.yul\":8133:8154   */\n      tag_378\n        /* \"#utility.yul\":8148:8153   */\n      dup2\n        /* \"#utility.yul\":8133:8154   */\n      tag_245\n      jump\t// in\n    tag_378:\n        /* \"#utility.yul\":8128:8131   */\n      dup3\n        /* \"#utility.yul\":8121:8155   */\n      mstore\n        /* \"#utility.yul\":8062:8161   */\n      pop\n      pop\n      jump\t// out\n        /* \"#utility.yul\":8255:10192   */\n    tag_261:\n        /* \"#utility.yul\":8362:8365   */\n      0x00\n        /* \"#utility.yul\":8398:8404   */\n      0x0120\n        /* \"#utility.yul\":8393:8396   */\n      dup4\n        /* \"#utility.yul\":8389:8405   */\n      add\n        /* \"#utility.yul\":8494:8498   */\n      0x00\n        /* \"#utility.yul\":8487:8492   */\n      dup4\n        /* \"#utility.yul\":8483:8499   */\n      add\n        /* \"#utility.yul\":8477:8500   */\n      mload\n        /* \"#utility.yul\":8513:8576   */\n      tag_380\n        /* \"#utility.yul\":8570:8574   */\n      0x00\n        /* \"#utility.yul\":8565:8568   */\n      dup7\n        /* \"#utility.yul\":8561:8575   */\n      add\n        /* \"#utility.yul\":8547:8559   */\n      dup3\n        /* \"#utility.yul\":8513:8576   */\n      tag_257\n      jump\t// in\n    tag_380:\n        /* \"#utility.yul\":8415:8586   */\n      pop\n        /* \"#utility.yul\":8669:8673   */\n      0x20\n        /* \"#utility.yul\":8662:8667   */\n      dup4\n        /* \"#utility.yul\":8658:8674   */\n      add\n        /* \"#utility.yul\":8652:8675   */\n      mload\n        /* \"#utility.yul\":8722:8725   */\n      dup5\n        /* \"#utility.yul\":8716:8720   */\n      dup3\n        /* \"#utility.yul\":8712:8726   */\n      sub\n        /* \"#utility.yul\":8705:8709   */\n      0x20\n        /* \"#utility.yul\":8700:8703   */\n      dup7\n        /* \"#utility.yul\":8696:8710   */\n      add\n        /* \"#utility.yul\":8689:8727   */\n      mstore\n        /* \"#utility.yul\":8748:8821   */\n      tag_381\n        /* \"#utility.yul\":8816:8820   */\n      dup3\n        /* \"#utility.yul\":8802:8814   */\n      dup3\n        /* \"#utility.yul\":8748:8821   */\n      tag_259\n      jump\t// in\n    tag_381:\n        /* \"#utility.yul\":8740:8821   */\n      swap2\n      pop\n        /* \"#utility.yul\":8596:8832   */\n      pop\n        /* \"#utility.yul\":8921:8925   */\n      0x40\n        /* \"#utility.yul\":8914:8919   */\n      dup4\n        /* \"#utility.yul\":8910:8926   */\n      add\n        /* \"#utility.yul\":8904:8927   */\n      mload\n        /* \"#utility.yul\":8974:8977   */\n      dup5\n        /* \"#utility.yul\":8968:8972   */\n      dup3\n        /* \"#utility.yul\":8964:8978   */\n      sub\n        /* \"#utility.yul\":8957:8961   */\n      0x40\n        /* \"#utility.yul\":8952:8955   */\n      dup7\n        /* \"#utility.yul\":8948:8962   */\n      add\n        /* \"#utility.yul\":8941:8979   */\n      mstore\n        /* \"#utility.yul\":9000:9073   */\n      tag_382\n        /* \"#utility.yul\":9068:9072   */\n      dup3\n        /* \"#utility.yul\":9054:9066   */\n      dup3\n        /* \"#utility.yul\":9000:9073   */\n      tag_259\n      jump\t// in\n    tag_382:\n        /* \"#utility.yul\":8992:9073   */\n      swap2\n      pop\n        /* \"#utility.yul\":8842:9084   */\n      pop\n        /* \"#utility.yul\":9177:9181   */\n      0x60\n        /* \"#utility.yul\":9170:9175   */\n      dup4\n        /* \"#utility.yul\":9166:9182   */\n      add\n        /* \"#utility.yul\":9160:9183   */\n      mload\n        /* \"#utility.yul\":9196:9259   */\n      tag_383\n        /* \"#utility.yul\":9253:9257   */\n      0x60\n        /* \"#utility.yul\":9248:9251   */\n      dup7\n        /* \"#utility.yul\":9244:9258   */\n      add\n        /* \"#utility.yul\":9230:9242   */\n      dup3\n        /* \"#utility.yul\":9196:9259   */\n      tag_250\n      jump\t// in\n    tag_383:\n        /* \"#utility.yul\":9094:9269   */\n      pop\n        /* \"#utility.yul\":9359:9363   */\n      0x80\n        /* \"#utility.yul\":9352:9357   */\n      dup4\n        /* \"#utility.yul\":9348:9364   */\n      add\n        /* \"#utility.yul\":9342:9365   */\n      mload\n        /* \"#utility.yul\":9378:9441   */\n      tag_384\n        /* \"#utility.yul\":9435:9439   */\n      0x80\n        /* \"#utility.yul\":9430:9433   */\n      dup7\n        /* \"#utility.yul\":9426:9440   */\n      add\n        /* \"#utility.yul\":9412:9424   */\n      dup3\n        /* \"#utility.yul\":9378:9441   */\n      tag_257\n      jump\t// in\n    tag_384:\n        /* \"#utility.yul\":9279:9451   */\n      pop\n        /* \"#utility.yul\":9541:9545   */\n      0xa0\n        /* \"#utility.yul\":9534:9539   */\n      dup4\n        /* \"#utility.yul\":9530:9546   */\n      add\n        /* \"#utility.yul\":9524:9547   */\n      mload\n        /* \"#utility.yul\":9560:9623   */\n      tag_385\n        /* \"#utility.yul\":9617:9621   */\n      0xa0\n        /* \"#utility.yul\":9612:9615   */\n      dup7\n        /* \"#utility.yul\":9608:9622   */\n      add\n        /* \"#utility.yul\":9594:9606   */\n      dup3\n        /* \"#utility.yul\":9560:9623   */\n      tag_257\n      jump\t// in\n    tag_385:\n        /* \"#utility.yul\":9461:9633   */\n      pop\n        /* \"#utility.yul\":9719:9723   */\n      0xc0\n        /* \"#utility.yul\":9712:9717   */\n      dup4\n        /* \"#utility.yul\":9708:9724   */\n      add\n        /* \"#utility.yul\":9702:9725   */\n      mload\n        /* \"#utility.yul\":9738:9801   */\n      tag_386\n        /* \"#utility.yul\":9795:9799   */\n      0xc0\n        /* \"#utility.yul\":9790:9793   */\n      dup7\n        /* \"#utility.yul\":9786:9800   */\n      add\n        /* \"#utility.yul\":9772:9784   */\n      dup3\n        /* \"#utility.yul\":9738:9801   */\n      tag_257\n      jump\t// in\n    tag_386:\n        /* \"#utility.yul\":9643:9811   */\n      pop\n        /* \"#utility.yul\":9900:9904   */\n      0xe0\n        /* \"#utility.yul\":9893:9898   */\n      dup4\n        /* \"#utility.yul\":9889:9905   */\n      add\n        /* \"#utility.yul\":9883:9906   */\n      mload\n        /* \"#utility.yul\":9919:9976   */\n      tag_387\n        /* \"#utility.yul\":9970:9974   */\n      0xe0\n        /* \"#utility.yul\":9965:9968   */\n      dup7\n        /* \"#utility.yul\":9961:9975   */\n      add\n        /* \"#utility.yul\":9947:9959   */\n      dup3\n        /* \"#utility.yul\":9919:9976   */\n      tag_260\n      jump\t// in\n    tag_387:\n        /* \"#utility.yul\":9821:9986   */\n      pop\n        /* \"#utility.yul\":10075:10081   */\n      0x0100\n        /* \"#utility.yul\":10068:10073   */\n      dup4\n        /* \"#utility.yul\":10064:10082   */\n      add\n        /* \"#utility.yul\":10058:10083   */\n      mload\n        /* \"#utility.yul\":10096:10155   */\n      tag_388\n        /* \"#utility.yul\":10147:10153   */\n      0x0100\n        /* \"#utility.yul\":10142:10145   */\n      dup7\n        /* \"#utility.yul\":10138:10154   */\n      add\n        /* \"#utility.yul\":10124:10136   */\n      dup3\n        /* \"#utility.yul\":10096:10155   */\n      tag_260\n      jump\t// in\n    tag_388:\n        /* \"#utility.yul\":9996:10165   */\n      pop\n        /* \"#utility.yul\":10182:10186   */\n      dup1\n        /* \"#utility.yul\":10175:10186   */\n      swap2\n      pop\n        /* \"#utility.yul\":8367:10192   */\n      pop\n        /* \"#utility.yul\":8255:10192   */\n      swap3\n      swap2\n      pop\n      pop\n      jump\t// out\n        /* \"#utility.yul\":10198:10450   */\n    tag_262:\n        /* \"#utility.yul\":10315:10325   */\n      0x00\n        /* \"#utility.yul\":10350:10444   */\n      tag_390\n        /* \"#utility.yul\":10440:10443   */\n      dup4\n        /* \"#utility.yul\":10432:10438   */\n      dup4\n        /* \"#utility.yul\":10350:10444   */\n      tag_261\n      jump\t// in\n    tag_390:\n        /* \"#utility.yul\":10336:10444   */\n      swap1\n      pop\n        /* \"#utility.yul\":10198:10450   */\n      swap3\n      swap2\n      pop\n      pop\n      jump\t// out\n        /* \"#utility.yul\":10456:10593   */\n    tag_263:\n        /* \"#utility.yul\":10550:10554   */\n      0x00\n        /* \"#utility.yul\":10582:10586   */\n      0x20\n        /* \"#utility.yul\":10577:10580   */\n      dup3\n        /* \"#utility.yul\":10573:10587   */\n      add\n        /* \"#utility.yul\":10565:10587   */\n      swap1\n      pop\n        /* \"#utility.yul\":10456:10593   */\n      swap2\n      swap1\n      pop\n      jump\t// out\n        /* \"#utility.yul\":10691:11794   */\n    tag_264:\n        /* \"#utility.yul\":10858:10861   */\n      0x00\n        /* \"#utility.yul\":10887:10965   */\n      tag_393\n        /* \"#utility.yul\":10959:10964   */\n      dup3\n        /* \"#utility.yul\":10887:10965   */\n      tag_254\n      jump\t// in\n    tag_393:\n        /* \"#utility.yul\":10981:11091   */\n      tag_394\n        /* \"#utility.yul\":11084:11090   */\n      dup2\n        /* \"#utility.yul\":11079:11082   */\n      dup6\n        /* \"#utility.yul\":10981:11091   */\n      tag_255\n      jump\t// in\n    tag_394:\n        /* \"#utility.yul\":10974:11091   */\n      swap4\n      pop\n        /* \"#utility.yul\":11117:11120   */\n      dup4\n        /* \"#utility.yul\":11162:11166   */\n      0x20\n        /* \"#utility.yul\":11154:11160   */\n      dup3\n        /* \"#utility.yul\":11150:11167   */\n      mul\n        /* \"#utility.yul\":11145:11148   */\n      dup6\n        /* \"#utility.yul\":11141:11168   */\n      add\n        /* \"#utility.yul\":11192:11272   */\n      tag_395\n        /* \"#utility.yul\":11266:11271   */\n      dup6\n        /* \"#utility.yul\":11192:11272   */\n      tag_256\n      jump\t// in\n    tag_395:\n        /* \"#utility.yul\":11295:11302   */\n      dup1\n        /* \"#utility.yul\":11326:11327   */\n      0x00\n        /* \"#utility.yul\":11311:11749   */\n    tag_396:\n        /* \"#utility.yul\":11336:11342   */\n      dup6\n        /* \"#utility.yul\":11333:11334   */\n      dup2\n        /* \"#utility.yul\":11330:11343   */\n      lt\n        /* \"#utility.yul\":11311:11749   */\n      iszero\n      tag_398\n      jumpi\n        /* \"#utility.yul\":11407:11416   */\n      dup5\n        /* \"#utility.yul\":11401:11405   */\n      dup5\n        /* \"#utility.yul\":11397:11417   */\n      sub\n        /* \"#utility.yul\":11392:11395   */\n      dup10\n        /* \"#utility.yul\":11385:11418   */\n      mstore\n        /* \"#utility.yul\":11458:11464   */\n      dup2\n        /* \"#utility.yul\":11452:11465   */\n      mload\n        /* \"#utility.yul\":11486:11598   */\n      tag_399\n        /* \"#utility.yul\":11593:11597   */\n      dup6\n        /* \"#utility.yul\":11578:11591   */\n      dup3\n        /* \"#utility.yul\":11486:11598   */\n      tag_262\n      jump\t// in\n    tag_399:\n        /* \"#utility.yul\":11478:11598   */\n      swap5\n      pop\n        /* \"#utility.yul\":11621:11705   */\n      tag_400\n        /* \"#utility.yul\":11698:11704   */\n      dup4\n        /* \"#utility.yul\":11621:11705   */\n      tag_263\n      jump\t// in\n    tag_400:\n        /* \"#utility.yul\":11611:11705   */\n      swap3\n      pop\n        /* \"#utility.yul\":11734:11738   */\n      0x20\n        /* \"#utility.yul\":11729:11732   */\n      dup11\n        /* \"#utility.yul\":11725:11739   */\n      add\n        /* \"#utility.yul\":11718:11739   */\n      swap10\n      pop\n        /* \"#utility.yul\":11371:11749   */\n      pop\n        /* \"#utility.yul\":11358:11359   */\n      0x01\n        /* \"#utility.yul\":11355:11356   */\n      dup2\n        /* \"#utility.yul\":11351:11360   */\n      add\n        /* \"#utility.yul\":11346:11360   */\n      swap1\n      pop\n        /* \"#utility.yul\":11311:11749   */\n      jump(tag_396)\n    tag_398:\n        /* \"#utility.yul\":11315:11329   */\n      pop\n        /* \"#utility.yul\":11765:11769   */\n      dup3\n        /* \"#utility.yul\":11758:11769   */\n      swap8\n      pop\n        /* \"#utility.yul\":11785:11788   */\n      dup8\n        /* \"#utility.yul\":11778:11788   */\n      swap6\n      pop\n        /* \"#utility.yul\":10863:11794   */\n      pop\n      pop\n      pop\n      pop\n      pop\n        /* \"#utility.yul\":10691:11794   */\n      swap3\n      swap2\n      pop\n      pop\n      jump\t// out\n        /* \"#utility.yul\":11800:12269   */\n    tag_40:\n        /* \"#utility.yul\":11991:11995   */\n      0x00\n        /* \"#utility.yul\":12029:12031   */\n      0x20\n        /* \"#utility.yul\":12018:12027   */\n      dup3\n        /* \"#utility.yul\":12014:12032   */\n      add\n        /* \"#utility.yul\":12006:12032   */\n      swap1\n      pop\n        /* \"#utility.yul\":12078:12087   */\n      dup2\n        /* \"#utility.yul\":12072:12076   */\n      dup2\n        /* \"#utility.yul\":12068:12088   */\n      sub\n        /* \"#utility.yul\":12064:12065   */\n      0x00\n        /* \"#utility.yul\":12053:12062   */\n      dup4\n        /* \"#utility.yul\":12049:12066   */\n      add\n        /* \"#utility.yul\":12042:12089   */\n      mstore\n        /* \"#utility.yul\":12106:12262   */\n      tag_402\n        /* \"#utility.yul\":12257:12261   */\n      dup2\n        /* \"#utility.yul\":12248:12254   */\n      dup5\n        /* \"#utility.yul\":12106:12262   */\n      tag_264\n      jump\t// in\n    tag_402:\n        /* \"#utility.yul\":12098:12262   */\n      swap1\n      pop\n        /* \"#utility.yul\":11800:12269   */\n      swap3\n      swap2\n      pop\n      pop\n      jump\t// out\n        /* \"#utility.yul\":12275:13030   */\n    tag_45:\n        /* \"#utility.yul\":12500:12504   */\n      0x00\n        /* \"#utility.yul\":12538:12541   */\n      0xa0\n        /* \"#utility.yul\":12527:12536   */\n      dup3\n        /* \"#utility.yul\":12523:12542   */\n      add\n        /* \"#utility.yul\":12515:12542   */\n      swap1\n      pop\n        /* \"#utility.yul\":12552:12623   */\n      tag_404\n        /* \"#utility.yul\":12620:12621   */\n      0x00\n        /* \"#utility.yul\":12609:12618   */\n      dup4\n        /* \"#utility.yul\":12605:12622   */\n      add\n        /* \"#utility.yul\":12596:12602   */\n      dup9\n        /* \"#utility.yul\":12552:12623   */\n      tag_238\n      jump\t// in\n    tag_404:\n        /* \"#utility.yul\":12670:12679   */\n      dup2\n        /* \"#utility.yul\":12664:12668   */\n      dup2\n        /* \"#utility.yul\":12660:12680   */\n      sub\n        /* \"#utility.yul\":12655:12657   */\n      0x20\n        /* \"#utility.yul\":12644:12653   */\n      dup4\n        /* \"#utility.yul\":12640:12658   */\n      add\n        /* \"#utility.yul\":12633:12681   */\n      mstore\n        /* \"#utility.yul\":12698:12776   */\n      tag_405\n        /* \"#utility.yul\":12771:12775   */\n      dup2\n        /* \"#utility.yul\":12762:12768   */\n      dup8\n        /* \"#utility.yul\":12698:12776   */\n      tag_243\n      jump\t// in\n    tag_405:\n        /* \"#utility.yul\":12690:12776   */\n      swap1\n      pop\n        /* \"#utility.yul\":12786:12858   */\n      tag_406\n        /* \"#utility.yul\":12854:12856   */\n      0x40\n        /* \"#utility.yul\":12843:12852   */\n      dup4\n        /* \"#utility.yul\":12839:12857   */\n      add\n        /* \"#utility.yul\":12830:12836   */\n      dup7\n        /* \"#utility.yul\":12786:12858   */\n      tag_238\n      jump\t// in\n    tag_406:\n        /* \"#utility.yul\":12868:12940   */\n      tag_407\n        /* \"#utility.yul\":12936:12938   */\n      0x60\n        /* \"#utility.yul\":12925:12934   */\n      dup4\n        /* \"#utility.yul\":12921:12939   */\n      add\n        /* \"#utility.yul\":12912:12918   */\n      dup6\n        /* \"#utility.yul\":12868:12940   */\n      tag_244\n      jump\t// in\n    tag_407:\n        /* \"#utility.yul\":12950:13023   */\n      tag_408\n        /* \"#utility.yul\":13018:13021   */\n      0x80\n        /* \"#utility.yul\":13007:13016   */\n      dup4\n        /* \"#utility.yul\":13003:13022   */\n      add\n        /* \"#utility.yul\":12994:13000   */\n      dup5\n        /* \"#utility.yul\":12950:13023   */\n      tag_244\n      jump\t// in\n    tag_408:\n        /* \"#utility.yul\":12275:13030   */\n      swap7\n      swap6\n      pop\n      pop\n      pop\n      pop\n      pop\n      pop\n      jump\t// out\n        /* \"#utility.yul\":13036:13510   */\n    tag_48:\n        /* \"#utility.yul\":13104:13110   */\n      0x00\n        /* \"#utility.yul\":13112:13118   */\n      dup1\n        /* \"#utility.yul\":13161:13163   */\n      0x40\n        /* \"#utility.yul\":13149:13158   */\n      dup4\n        /* \"#utility.yul\":13140:13147   */\n      dup6\n        /* \"#utility.yul\":13136:13159   */\n      sub\n        /* \"#utility.yul\":13132:13164   */\n      slt\n        /* \"#utility.yul\":13129:13248   */\n      iszero\n      tag_410\n      jumpi\n        /* \"#utility.yul\":13167:13246   */\n      tag_411\n      tag_229\n      jump\t// in\n    tag_411:\n        /* \"#utility.yul\":13129:13248   */\n    tag_410:\n        /* \"#utility.yul\":13287:13288   */\n      0x00\n        /* \"#utility.yul\":13312:13365   */\n      tag_412\n        /* \"#utility.yul\":13357:13364   */\n      dup6\n        /* \"#utility.yul\":13348:13354   */\n      dup3\n        /* \"#utility.yul\":13337:13346   */\n      dup7\n        /* \"#utility.yul\":13333:13355   */\n      add\n        /* \"#utility.yul\":13312:13365   */\n      tag_237\n      jump\t// in\n    tag_412:\n        /* \"#utility.yul\":13302:13365   */\n      swap3\n      pop\n        /* \"#utility.yul\":13258:13375   */\n      pop\n        /* \"#utility.yul\":13414:13416   */\n      0x20\n        /* \"#utility.yul\":13440:13493   */\n      tag_413\n        /* \"#utility.yul\":13485:13492   */\n      dup6\n        /* \"#utility.yul\":13476:13482   */\n      dup3\n        /* \"#utility.yul\":13465:13474   */\n      dup7\n        /* \"#utility.yul\":13461:13483   */\n      add\n        /* \"#utility.yul\":13440:13493   */\n      tag_234\n      jump\t// in\n    tag_413:\n        /* \"#utility.yul\":13430:13493   */\n      swap2\n      pop\n        /* \"#utility.yul\":13385:13503   */\n      pop\n        /* \"#utility.yul\":13036:13510   */\n      swap3\n      pop\n      swap3\n      swap1\n      pop\n      jump\t// out\n        /* \"#utility.yul\":13516:14220   */\n    tag_51:\n        /* \"#utility.yul\":13743:13747   */\n      0x00\n        /* \"#utility.yul\":13781:13784   */\n      0x80\n        /* \"#utility.yul\":13770:13779   */\n      dup3\n        /* \"#utility.yul\":13766:13785   */\n      add\n        /* \"#utility.yul\":13758:13785   */\n      swap1\n      pop\n        /* \"#utility.yul\":13795:13866   */\n      tag_415\n        /* \"#utility.yul\":13863:13864   */\n      0x00\n        /* \"#utility.yul\":13852:13861   */\n      dup4\n        /* \"#utility.yul\":13848:13865   */\n      add\n        /* \"#utility.yul\":13839:13845   */\n      dup8\n        /* \"#utility.yul\":13795:13866   */\n      tag_238\n      jump\t// in\n    tag_415:\n        /* \"#utility.yul\":13876:13948   */\n      tag_416\n        /* \"#utility.yul\":13944:13946   */\n      0x20\n        /* \"#utility.yul\":13933:13942   */\n      dup4\n        /* \"#utility.yul\":13929:13947   */\n      add\n        /* \"#utility.yul\":13920:13926   */\n      dup7\n        /* \"#utility.yul\":13876:13948   */\n      tag_238\n      jump\t// in\n    tag_416:\n        /* \"#utility.yul\":13958:14030   */\n      tag_417\n        /* \"#utility.yul\":14026:14028   */\n      0x40\n        /* \"#utility.yul\":14015:14024   */\n      dup4\n        /* \"#utility.yul\":14011:14029   */\n      add\n        /* \"#utility.yul\":14002:14008   */\n      dup6\n        /* \"#utility.yul\":13958:14030   */\n      tag_238\n      jump\t// in\n    tag_417:\n        /* \"#utility.yul\":14077:14086   */\n      dup2\n        /* \"#utility.yul\":14071:14075   */\n      dup2\n        /* \"#utility.yul\":14067:14087   */\n      sub\n        /* \"#utility.yul\":14062:14064   */\n      0x60\n        /* \"#utility.yul\":14051:14060   */\n      dup4\n        /* \"#utility.yul\":14047:14065   */\n      add\n        /* \"#utility.yul\":14040:14088   */\n      mstore\n        /* \"#utility.yul\":14105:14213   */\n      tag_418\n        /* \"#utility.yul\":14208:14212   */\n      dup2\n        /* \"#utility.yul\":14199:14205   */\n      dup5\n        /* \"#utility.yul\":14105:14213   */\n      tag_253\n      jump\t// in\n    tag_418:\n        /* \"#utility.yul\":14097:14213   */\n      swap1\n      pop\n        /* \"#utility.yul\":13516:14220   */\n      swap6\n      swap5\n      pop\n      pop\n      pop\n      pop\n      pop\n      jump\t// out\n        /* \"#utility.yul\":14314:16261   */\n    tag_265:\n        /* \"#utility.yul\":14431:14434   */\n      0x00\n        /* \"#utility.yul\":14467:14473   */\n      0x0120\n        /* \"#utility.yul\":14462:14465   */\n      dup4\n        /* \"#utility.yul\":14458:14474   */\n      add\n        /* \"#utility.yul\":14563:14567   */\n      0x00\n        /* \"#utility.yul\":14556:14561   */\n      dup4\n        /* \"#utility.yul\":14552:14568   */\n      add\n        /* \"#utility.yul\":14546:14569   */\n      mload\n        /* \"#utility.yul\":14582:14645   */\n      tag_420\n        /* \"#utility.yul\":14639:14643   */\n      0x00\n        /* \"#utility.yul\":14634:14637   */\n      dup7\n        /* \"#utility.yul\":14630:14644   */\n      add\n        /* \"#utility.yul\":14616:14628   */\n      dup3\n        /* \"#utility.yul\":14582:14645   */\n      tag_257\n      jump\t// in\n    tag_420:\n        /* \"#utility.yul\":14484:14655   */\n      pop\n        /* \"#utility.yul\":14738:14742   */\n      0x20\n        /* \"#utility.yul\":14731:14736   */\n      dup4\n        /* \"#utility.yul\":14727:14743   */\n      add\n        /* \"#utility.yul\":14721:14744   */\n      mload\n        /* \"#utility.yul\":14791:14794   */\n      dup5\n        /* \"#utility.yul\":14785:14789   */\n      dup3\n        /* \"#utility.yul\":14781:14795   */\n      sub\n        /* \"#utility.yul\":14774:14778   */\n      0x20\n        /* \"#utility.yul\":14769:14772   */\n      dup7\n        /* \"#utility.yul\":14765:14779   */\n      add\n        /* \"#utility.yul\":14758:14796   */\n      mstore\n        /* \"#utility.yul\":14817:14890   */\n      tag_421\n        /* \"#utility.yul\":14885:14889   */\n      dup3\n        /* \"#utility.yul\":14871:14883   */\n      dup3\n        /* \"#utility.yul\":14817:14890   */\n      tag_259\n      jump\t// in\n    tag_421:\n        /* \"#utility.yul\":14809:14890   */\n      swap2\n      pop\n        /* \"#utility.yul\":14665:14901   */\n      pop\n        /* \"#utility.yul\":14990:14994   */\n      0x40\n        /* \"#utility.yul\":14983:14988   */\n      dup4\n        /* \"#utility.yul\":14979:14995   */\n      add\n        /* \"#utility.yul\":14973:14996   */\n      mload\n        /* \"#utility.yul\":15043:15046   */\n      dup5\n        /* \"#utility.yul\":15037:15041   */\n      dup3\n        /* \"#utility.yul\":15033:15047   */\n      sub\n        /* \"#utility.yul\":15026:15030   */\n      0x40\n        /* \"#utility.yul\":15021:15024   */\n      dup7\n        /* \"#utility.yul\":15017:15031   */\n      add\n        /* \"#utility.yul\":15010:15048   */\n      mstore\n        /* \"#utility.yul\":15069:15142   */\n      tag_422\n        /* \"#utility.yul\":15137:15141   */\n      dup3\n        /* \"#utility.yul\":15123:15135   */\n      dup3\n        /* \"#utility.yul\":15069:15142   */\n      tag_259\n      jump\t// in\n    tag_422:\n        /* \"#utility.yul\":15061:15142   */\n      swap2\n      pop\n        /* \"#utility.yul\":14911:15153   */\n      pop\n        /* \"#utility.yul\":15246:15250   */\n      0x60\n        /* \"#utility.yul\":15239:15244   */\n      dup4\n        /* \"#utility.yul\":15235:15251   */\n      add\n        /* \"#utility.yul\":15229:15252   */\n      mload\n        /* \"#utility.yul\":15265:15328   */\n      tag_423\n        /* \"#utility.yul\":15322:15326   */\n      0x60\n        /* \"#utility.yul\":15317:15320   */\n      dup7\n        /* \"#utility.yul\":15313:15327   */\n      add\n        /* \"#utility.yul\":15299:15311   */\n      dup3\n        /* \"#utility.yul\":15265:15328   */\n      tag_250\n      jump\t// in\n    tag_423:\n        /* \"#utility.yul\":15163:15338   */\n      pop\n        /* \"#utility.yul\":15428:15432   */\n      0x80\n        /* \"#utility.yul\":15421:15426   */\n      dup4\n        /* \"#utility.yul\":15417:15433   */\n      add\n        /* \"#utility.yul\":15411:15434   */\n      mload\n        /* \"#utility.yul\":15447:15510   */\n      tag_424\n        /* \"#utility.yul\":15504:15508   */\n      0x80\n        /* \"#utility.yul\":15499:15502   */\n      dup7\n        /* \"#utility.yul\":15495:15509   */\n      add\n        /* \"#utility.yul\":15481:15493   */\n      dup3\n        /* \"#utility.yul\":15447:15510   */\n      tag_257\n      jump\t// in\n    tag_424:\n        /* \"#utility.yul\":15348:15520   */\n      pop\n        /* \"#utility.yul\":15610:15614   */\n      0xa0\n        /* \"#utility.yul\":15603:15608   */\n      dup4\n        /* \"#utility.yul\":15599:15615   */\n      add\n        /* \"#utility.yul\":15593:15616   */\n      mload\n        /* \"#utility.yul\":15629:15692   */\n      tag_425\n        /* \"#utility.yul\":15686:15690   */\n      0xa0\n        /* \"#utility.yul\":15681:15684   */\n      dup7\n        /* \"#utility.yul\":15677:15691   */\n      add\n        /* \"#utility.yul\":15663:15675   */\n      dup3\n        /* \"#utility.yul\":15629:15692   */\n      tag_257\n      jump\t// in\n    tag_425:\n        /* \"#utility.yul\":15530:15702   */\n      pop\n        /* \"#utility.yul\":15788:15792   */\n      0xc0\n        /* \"#utility.yul\":15781:15786   */\n      dup4\n        /* \"#utility.yul\":15777:15793   */\n      add\n        /* \"#utility.yul\":15771:15794   */\n      mload\n        /* \"#utility.yul\":15807:15870   */\n      tag_426\n        /* \"#utility.yul\":15864:15868   */\n      0xc0\n        /* \"#utility.yul\":15859:15862   */\n      dup7\n        /* \"#utility.yul\":15855:15869   */\n      add\n        /* \"#utility.yul\":15841:15853   */\n      dup3\n        /* \"#utility.yul\":15807:15870   */\n      tag_257\n      jump\t// in\n    tag_426:\n        /* \"#utility.yul\":15712:15880   */\n      pop\n        /* \"#utility.yul\":15969:15973   */\n      0xe0\n        /* \"#utility.yul\":15962:15967   */\n      dup4\n        /* \"#utility.yul\":15958:15974   */\n      add\n        /* \"#utility.yul\":15952:15975   */\n      mload\n        /* \"#utility.yul\":15988:16045   */\n      tag_427\n        /* \"#utility.yul\":16039:16043   */\n      0xe0\n        /* \"#utility.yul\":16034:16037   */\n      dup7\n        /* \"#utility.yul\":16030:16044   */\n      add\n        /* \"#utility.yul\":16016:16028   */\n      dup3\n        /* \"#utility.yul\":15988:16045   */\n      tag_260\n      jump\t// in\n    tag_427:\n        /* \"#utility.yul\":15890:16055   */\n      pop\n        /* \"#utility.yul\":16144:16150   */\n      0x0100\n        /* \"#utility.yul\":16137:16142   */\n      dup4\n        /* \"#utility.yul\":16133:16151   */\n      add\n        /* \"#utility.yul\":16127:16152   */\n      mload\n        /* \"#utility.yul\":16165:16224   */\n      tag_428\n        /* \"#utility.yul\":16216:16222   */\n      0x0100\n        /* \"#utility.yul\":16211:16214   */\n      dup7\n        /* \"#utility.yul\":16207:16223   */\n      add\n        /* \"#utility.yul\":16193:16205   */\n      dup3\n        /* \"#utility.yul\":16165:16224   */\n      tag_260\n      jump\t// in\n    tag_428:\n        /* \"#utility.yul\":16065:16234   */\n      pop\n        /* \"#utility.yul\":16251:16255   */\n      dup1\n        /* \"#utility.yul\":16244:16255   */\n      swap2\n      pop\n        /* \"#utility.yul\":14436:16261   */\n      pop\n        /* \"#utility.yul\":14314:16261   */\n      swap3\n      swap2\n      pop\n      pop\n      jump\t// out\n        /* \"#utility.yul\":16267:17007   */\n    tag_56:\n        /* \"#utility.yul\":16514:16518   */\n      0x00\n        /* \"#utility.yul\":16552:16554   */\n      0x60\n        /* \"#utility.yul\":16541:16550   */\n      dup3\n        /* \"#utility.yul\":16537:16555   */\n      add\n        /* \"#utility.yul\":16529:16555   */\n      swap1\n      pop\n        /* \"#utility.yul\":16601:16610   */\n      dup2\n        /* \"#utility.yul\":16595:16599   */\n      dup2\n        /* \"#utility.yul\":16591:16611   */\n      sub\n        /* \"#utility.yul\":16587:16588   */\n      0x00\n        /* \"#utility.yul\":16576:16585   */\n      dup4\n        /* \"#utility.yul\":16572:16589   */\n      add\n        /* \"#utility.yul\":16565:16612   */\n      mstore\n        /* \"#utility.yul\":16629:16735   */\n      tag_430\n        /* \"#utility.yul\":16730:16734   */\n      dup2\n        /* \"#utility.yul\":16721:16727   */\n      dup7\n        /* \"#utility.yul\":16629:16735   */\n      tag_265\n      jump\t// in\n    tag_430:\n        /* \"#utility.yul\":16621:16735   */\n      swap1\n      pop\n        /* \"#utility.yul\":16745:16817   */\n      tag_431\n        /* \"#utility.yul\":16813:16815   */\n      0x20\n        /* \"#utility.yul\":16802:16811   */\n      dup4\n        /* \"#utility.yul\":16798:16816   */\n      add\n        /* \"#utility.yul\":16789:16795   */\n      dup6\n        /* \"#utility.yul\":16745:16817   */\n      tag_238\n      jump\t// in\n    tag_431:\n        /* \"#utility.yul\":16864:16873   */\n      dup2\n        /* \"#utility.yul\":16858:16862   */\n      dup2\n        /* \"#utility.yul\":16854:16874   */\n      sub\n        /* \"#utility.yul\":16849:16851   */\n      0x40\n        /* \"#utility.yul\":16838:16847   */\n      dup4\n        /* \"#utility.yul\":16834:16852   */\n      add\n        /* \"#utility.yul\":16827:16875   */\n      mstore\n        /* \"#utility.yul\":16892:17000   */\n      tag_432\n        /* \"#utility.yul\":16995:16999   */\n      dup2\n        /* \"#utility.yul\":16986:16992   */\n      dup5\n        /* \"#utility.yul\":16892:17000   */\n      tag_253\n      jump\t// in\n    tag_432:\n        /* \"#utility.yul\":16884:17000   */\n      swap1\n      pop\n        /* \"#utility.yul\":16267:17007   */\n      swap5\n      swap4\n      pop\n      pop\n      pop\n      pop\n      jump\t// out\n        /* \"#utility.yul\":17013:17235   */\n    tag_60:\n        /* \"#utility.yul\":17106:17110   */\n      0x00\n        /* \"#utility.yul\":17144:17146   */\n      0x20\n        /* \"#utility.yul\":17133:17142   */\n      dup3\n        /* \"#utility.yul\":17129:17147   */\n      add\n        /* \"#utility.yul\":17121:17147   */\n      swap1\n      pop\n        /* \"#utility.yul\":17157:17228   */\n      tag_434\n        /* \"#utility.yul\":17225:17226   */\n      0x00\n        /* \"#utility.yul\":17214:17223   */\n      dup4\n        /* \"#utility.yul\":17210:17227   */\n      add\n        /* \"#utility.yul\":17201:17207   */\n      dup5\n        /* \"#utility.yul\":17157:17228   */\n      tag_238\n      jump\t// in\n    tag_434:\n        /* \"#utility.yul\":17013:17235   */\n      swap3\n      swap2\n      pop\n      pop\n      jump\t// out\n        /* \"#utility.yul\":17241:17885   */\n    tag_69:\n        /* \"#utility.yul\":17438:17442   */\n      0x00\n        /* \"#utility.yul\":17476:17479   */\n      0x80\n        /* \"#utility.yul\":17465:17474   */\n      dup3\n        /* \"#utility.yul\":17461:17480   */\n      add\n        /* \"#utility.yul\":17453:17480   */\n      swap1\n      pop\n        /* \"#utility.yul\":17490:17561   */\n      tag_436\n        /* \"#utility.yul\":17558:17559   */\n      0x00\n        /* \"#utility.yul\":17547:17556   */\n      dup4\n        /* \"#utility.yul\":17543:17560   */\n      add\n        /* \"#utility.yul\":17534:17540   */\n      dup8\n        /* \"#utility.yul\":17490:17561   */\n      tag_244\n      jump\t// in\n    tag_436:\n        /* \"#utility.yul\":17571:17643   */\n      tag_437\n        /* \"#utility.yul\":17639:17641   */\n      0x20\n        /* \"#utility.yul\":17628:17637   */\n      dup4\n        /* \"#utility.yul\":17624:17642   */\n      add\n        /* \"#utility.yul\":17615:17621   */\n      dup7\n        /* \"#utility.yul\":17571:17643   */\n      tag_238\n      jump\t// in\n    tag_437:\n        /* \"#utility.yul\":17690:17699   */\n      dup2\n        /* \"#utility.yul\":17684:17688   */\n      dup2\n        /* \"#utility.yul\":17680:17700   */\n      sub\n        /* \"#utility.yul\":17675:17677   */\n      0x40\n        /* \"#utility.yul\":17664:17673   */\n      dup4\n        /* \"#utility.yul\":17660:17678   */\n      add\n        /* \"#utility.yul\":17653:17701   */\n      mstore\n        /* \"#utility.yul\":17718:17796   */\n      tag_438\n        /* \"#utility.yul\":17791:17795   */\n      dup2\n        /* \"#utility.yul\":17782:17788   */\n      dup6\n        /* \"#utility.yul\":17718:17796   */\n      tag_243\n      jump\t// in\n    tag_438:\n        /* \"#utility.yul\":17710:17796   */\n      swap1\n      pop\n        /* \"#utility.yul\":17806:17878   */\n      tag_439\n        /* \"#utility.yul\":17874:17876   */\n      0x60\n        /* \"#utility.yul\":17863:17872   */\n      dup4\n        /* \"#utility.yul\":17859:17877   */\n      add\n        /* \"#utility.yul\":17850:17856   */\n      dup5\n        /* \"#utility.yul\":17806:17878   */\n      tag_238\n      jump\t// in\n    tag_439:\n        /* \"#utility.yul\":17241:17885   */\n      swap6\n      swap5\n      pop\n      pop\n      pop\n      pop\n      pop\n      jump\t// out\n        /* \"#utility.yul\":17891:18365   */\n    tag_72:\n        /* \"#utility.yul\":17959:17965   */\n      0x00\n        /* \"#utility.yul\":17967:17973   */\n      dup1\n        /* \"#utility.yul\":18016:18018   */\n      0x40\n        /* \"#utility.yul\":18004:18013   */\n      dup4\n        /* \"#utility.yul\":17995:18002   */\n      dup6\n        /* \"#utility.yul\":17991:18014   */\n      sub\n        /* \"#utility.yul\":17987:18019   */\n      slt\n        /* \"#utility.yul\":17984:18103   */\n      iszero\n      tag_441\n      jumpi\n        /* \"#utility.yul\":18022:18101   */\n      tag_442\n      tag_229\n      jump\t// in\n    tag_442:\n        /* \"#utility.yul\":17984:18103   */\n    tag_441:\n        /* \"#utility.yul\":18142:18143   */\n      0x00\n        /* \"#utility.yul\":18167:18220   */\n      tag_443\n        /* \"#utility.yul\":18212:18219   */\n      dup6\n        /* \"#utility.yul\":18203:18209   */\n      dup3\n        /* \"#utility.yul\":18192:18201   */\n      dup7\n        /* \"#utility.yul\":18188:18210   */\n      add\n        /* \"#utility.yul\":18167:18220   */\n      tag_234\n      jump\t// in\n    tag_443:\n        /* \"#utility.yul\":18157:18220   */\n      swap3\n      pop\n        /* \"#utility.yul\":18113:18230   */\n      pop\n        /* \"#utility.yul\":18269:18271   */\n      0x20\n        /* \"#utility.yul\":18295:18348   */\n      tag_444\n        /* \"#utility.yul\":18340:18347   */\n      dup6\n        /* \"#utility.yul\":18331:18337   */\n      dup3\n        /* \"#utility.yul\":18320:18329   */\n      dup7\n        /* \"#utility.yul\":18316:18338   */\n      add\n        /* \"#utility.yul\":18295:18348   */\n      tag_234\n      jump\t// in\n    tag_444:\n        /* \"#utility.yul\":18285:18348   */\n      swap2\n      pop\n        /* \"#utility.yul\":18240:18358   */\n      pop\n        /* \"#utility.yul\":17891:18365   */\n      swap3\n      pop\n      swap3\n      swap1\n      pop\n      jump\t// out\n        /* \"#utility.yul\":18371:18581   */\n    tag_75:\n        /* \"#utility.yul\":18458:18462   */\n      0x00\n        /* \"#utility.yul\":18496:18498   */\n      0x20\n        /* \"#utility.yul\":18485:18494   */\n      dup3\n        /* \"#utility.yul\":18481:18499   */\n      add\n        /* \"#utility.yul\":18473:18499   */\n      swap1\n      pop\n        /* \"#utility.yul\":18509:18574   */\n      tag_446\n        /* \"#utility.yul\":18571:18572   */\n      0x00\n        /* \"#utility.yul\":18560:18569   */\n      dup4\n        /* \"#utility.yul\":18556:18573   */\n      add\n        /* \"#utility.yul\":18547:18553   */\n      dup5\n        /* \"#utility.yul\":18509:18574   */\n      tag_246\n      jump\t// in\n    tag_446:\n        /* \"#utility.yul\":18371:18581   */\n      swap3\n      swap2\n      pop\n      pop\n      jump\t// out\n        /* \"#utility.yul\":18587:18729   */\n    tag_266:\n        /* \"#utility.yul\":18682:18688   */\n      0x00\n        /* \"#utility.yul\":18716:18721   */\n      dup2\n        /* \"#utility.yul\":18710:18722   */\n      mload\n        /* \"#utility.yul\":18700:18722   */\n      swap1\n      pop\n        /* \"#utility.yul\":18587:18729   */\n      swap2\n      swap1\n      pop\n      jump\t// out\n        /* \"#utility.yul\":18735:18947   */\n    tag_267:\n        /* \"#utility.yul\":18862:18873   */\n      0x00\n        /* \"#utility.yul\":18896:18902   */\n      dup3\n        /* \"#utility.yul\":18891:18894   */\n      dup3\n        /* \"#utility.yul\":18884:18903   */\n      mstore\n        /* \"#utility.yul\":18936:18940   */\n      0x20\n        /* \"#utility.yul\":18931:18934   */\n      dup3\n        /* \"#utility.yul\":18927:18941   */\n      add\n        /* \"#utility.yul\":18912:18941   */\n      swap1\n      pop\n        /* \"#utility.yul\":18735:18947   */\n      swap3\n      swap2\n      pop\n      pop\n      jump\t// out\n        /* \"#utility.yul\":18953:19113   */\n    tag_268:\n        /* \"#utility.yul\":19048:19052   */\n      0x00\n        /* \"#utility.yul\":19071:19074   */\n      dup2\n        /* \"#utility.yul\":19063:19074   */\n      swap1\n      pop\n        /* \"#utility.yul\":19101:19105   */\n      0x20\n        /* \"#utility.yul\":19096:19099   */\n      dup3\n        /* \"#utility.yul\":19092:19106   */\n      add\n        /* \"#utility.yul\":19084:19106   */\n      swap1\n      pop\n        /* \"#utility.yul\":18953:19113   */\n      swap2\n      swap1\n      pop\n      jump\t// out\n        /* \"#utility.yul\":19213:20342   */\n    tag_269:\n        /* \"#utility.yul\":19328:19331   */\n      0x00\n        /* \"#utility.yul\":19364:19368   */\n      0xa0\n        /* \"#utility.yul\":19359:19362   */\n      dup4\n        /* \"#utility.yul\":19355:19369   */\n      add\n        /* \"#utility.yul\":19457:19461   */\n      0x00\n        /* \"#utility.yul\":19450:19455   */\n      dup4\n        /* \"#utility.yul\":19446:19462   */\n      add\n        /* \"#utility.yul\":19440:19463   */\n      mload\n        /* \"#utility.yul\":19476:19539   */\n      tag_451\n        /* \"#utility.yul\":19533:19537   */\n      0x00\n        /* \"#utility.yul\":19528:19531   */\n      dup7\n        /* \"#utility.yul\":19524:19538   */\n      add\n        /* \"#utility.yul\":19510:19522   */\n      dup3\n        /* \"#utility.yul\":19476:19539   */\n      tag_257\n      jump\t// in\n    tag_451:\n        /* \"#utility.yul\":19379:19549   */\n      pop\n        /* \"#utility.yul\":19632:19636   */\n      0x20\n        /* \"#utility.yul\":19625:19630   */\n      dup4\n        /* \"#utility.yul\":19621:19637   */\n      add\n        /* \"#utility.yul\":19615:19638   */\n      mload\n        /* \"#utility.yul\":19685:19688   */\n      dup5\n        /* \"#utility.yul\":19679:19683   */\n      dup3\n        /* \"#utility.yul\":19675:19689   */\n      sub\n        /* \"#utility.yul\":19668:19672   */\n      0x20\n        /* \"#utility.yul\":19663:19666   */\n      dup7\n        /* \"#utility.yul\":19659:19673   */\n      add\n        /* \"#utility.yul\":19652:19690   */\n      mstore\n        /* \"#utility.yul\":19711:19784   */\n      tag_452\n        /* \"#utility.yul\":19779:19783   */\n      dup3\n        /* \"#utility.yul\":19765:19777   */\n      dup3\n        /* \"#utility.yul\":19711:19784   */\n      tag_259\n      jump\t// in\n    tag_452:\n        /* \"#utility.yul\":19703:19784   */\n      swap2\n      pop\n        /* \"#utility.yul\":19559:19795   */\n      pop\n        /* \"#utility.yul\":19879:19883   */\n      0x40\n        /* \"#utility.yul\":19872:19877   */\n      dup4\n        /* \"#utility.yul\":19868:19884   */\n      add\n        /* \"#utility.yul\":19862:19885   */\n      mload\n        /* \"#utility.yul\":19898:19961   */\n      tag_453\n        /* \"#utility.yul\":19955:19959   */\n      0x40\n        /* \"#utility.yul\":19950:19953   */\n      dup7\n        /* \"#utility.yul\":19946:19960   */\n      add\n        /* \"#utility.yul\":19932:19944   */\n      dup3\n        /* \"#utility.yul\":19898:19961   */\n      tag_257\n      jump\t// in\n    tag_453:\n        /* \"#utility.yul\":19805:19971   */\n      pop\n        /* \"#utility.yul\":20051:20055   */\n      0x60\n        /* \"#utility.yul\":20044:20049   */\n      dup4\n        /* \"#utility.yul\":20040:20056   */\n      add\n        /* \"#utility.yul\":20034:20057   */\n      mload\n        /* \"#utility.yul\":20070:20133   */\n      tag_454\n        /* \"#utility.yul\":20127:20131   */\n      0x60\n        /* \"#utility.yul\":20122:20125   */\n      dup7\n        /* \"#utility.yul\":20118:20132   */\n      add\n        /* \"#utility.yul\":20104:20116   */\n      dup3\n        /* \"#utility.yul\":20070:20133   */\n      tag_250\n      jump\t// in\n    tag_454:\n        /* \"#utility.yul\":19981:20143   */\n      pop\n        /* \"#utility.yul\":20223:20227   */\n      0x80\n        /* \"#utility.yul\":20216:20221   */\n      dup4\n        /* \"#utility.yul\":20212:20228   */\n      add\n        /* \"#utility.yul\":20206:20229   */\n      mload\n        /* \"#utility.yul\":20242:20305   */\n      tag_455\n        /* \"#utility.yul\":20299:20303   */\n      0x80\n        /* \"#utility.yul\":20294:20297   */\n      dup7\n        /* \"#utility.yul\":20290:20304   */\n      add\n        /* \"#utility.yul\":20276:20288   */\n      dup3\n        /* \"#utility.yul\":20242:20305   */\n      tag_250\n      jump\t// in\n    tag_455:\n        /* \"#utility.yul\":20153:20315   */\n      pop\n        /* \"#utility.yul\":20332:20336   */\n      dup1\n        /* \"#utility.yul\":20325:20336   */\n      swap2\n      pop\n        /* \"#utility.yul\":19333:20342   */\n      pop\n        /* \"#utility.yul\":19213:20342   */\n      swap3\n      swap2\n      pop\n      pop\n      jump\t// out\n        /* \"#utility.yul\":20348:20616   */\n    tag_270:\n        /* \"#utility.yul\":20473:20483   */\n      0x00\n        /* \"#utility.yul\":20508:20610   */\n      tag_457\n        /* \"#utility.yul\":20606:20609   */\n      dup4\n        /* \"#utility.yul\":20598:20604   */\n      dup4\n        /* \"#utility.yul\":20508:20610   */\n      tag_269\n      jump\t// in\n    tag_457:\n        /* \"#utility.yul\":20494:20610   */\n      swap1\n      pop\n        /* \"#utility.yul\":20348:20616   */\n      swap3\n      swap2\n      pop\n      pop\n      jump\t// out\n        /* \"#utility.yul\":20622:20763   */\n    tag_271:\n        /* \"#utility.yul\":20720:20724   */\n      0x00\n        /* \"#utility.yul\":20752:20756   */\n      0x20\n        /* \"#utility.yul\":20747:20750   */\n      dup3\n        /* \"#utility.yul\":20743:20757   */\n      add\n        /* \"#utility.yul\":20735:20757   */\n      swap1\n      pop\n        /* \"#utility.yul\":20622:20763   */\n      swap2\n      swap1\n      pop\n      jump\t// out\n        /* \"#utility.yul\":20867:22002   */\n    tag_272:\n        /* \"#utility.yul\":21042:21045   */\n      0x00\n        /* \"#utility.yul\":21071:21153   */\n      tag_460\n        /* \"#utility.yul\":21147:21152   */\n      dup3\n        /* \"#utility.yul\":21071:21153   */\n      tag_266\n      jump\t// in\n    tag_460:\n        /* \"#utility.yul\":21169:21283   */\n      tag_461\n        /* \"#utility.yul\":21276:21282   */\n      dup2\n        /* \"#utility.yul\":21271:21274   */\n      dup6\n        /* \"#utility.yul\":21169:21283   */\n      tag_267\n      jump\t// in\n    tag_461:\n        /* \"#utility.yul\":21162:21283   */\n      swap4\n      pop\n        /* \"#utility.yul\":21309:21312   */\n      dup4\n        /* \"#utility.yul\":21354:21358   */\n      0x20\n        /* \"#utility.yul\":21346:21352   */\n      dup3\n        /* \"#utility.yul\":21342:21359   */\n      mul\n        /* \"#utility.yul\":21337:21340   */\n      dup6\n        /* \"#utility.yul\":21333:21360   */\n      add\n        /* \"#utility.yul\":21384:21468   */\n      tag_462\n        /* \"#utility.yul\":21462:21467   */\n      dup6\n        /* \"#utility.yul\":21384:21468   */\n      tag_268\n      jump\t// in\n    tag_462:\n        /* \"#utility.yul\":21491:21498   */\n      dup1\n        /* \"#utility.yul\":21522:21523   */\n      0x00\n        /* \"#utility.yul\":21507:21957   */\n    tag_463:\n        /* \"#utility.yul\":21532:21538   */\n      dup6\n        /* \"#utility.yul\":21529:21530   */\n      dup2\n        /* \"#utility.yul\":21526:21539   */\n      lt\n        /* \"#utility.yul\":21507:21957   */\n      iszero\n      tag_465\n      jumpi\n        /* \"#utility.yul\":21603:21612   */\n      dup5\n        /* \"#utility.yul\":21597:21601   */\n      dup5\n        /* \"#utility.yul\":21593:21613   */\n      sub\n        /* \"#utility.yul\":21588:21591   */\n      dup10\n        /* \"#utility.yul\":21581:21614   */\n      mstore\n        /* \"#utility.yul\":21654:21660   */\n      dup2\n        /* \"#utility.yul\":21648:21661   */\n      mload\n        /* \"#utility.yul\":21682:21802   */\n      tag_466\n        /* \"#utility.yul\":21797:21801   */\n      dup6\n        /* \"#utility.yul\":21782:21795   */\n      dup3\n        /* \"#utility.yul\":21682:21802   */\n      tag_270\n      jump\t// in\n    tag_466:\n        /* \"#utility.yul\":21674:21802   */\n      swap5\n      pop\n        /* \"#utility.yul\":21825:21913   */\n      tag_467\n        /* \"#utility.yul\":21906:21912   */\n      dup4\n        /* \"#utility.yul\":21825:21913   */\n      tag_271\n      jump\t// in\n    tag_467:\n        /* \"#utility.yul\":21815:21913   */\n      swap3\n      pop\n        /* \"#utility.yul\":21942:21946   */\n      0x20\n        /* \"#utility.yul\":21937:21940   */\n      dup11\n        /* \"#utility.yul\":21933:21947   */\n      add\n        /* \"#utility.yul\":21926:21947   */\n      swap10\n      pop\n        /* \"#utility.yul\":21567:21957   */\n      pop\n        /* \"#utility.yul\":21554:21555   */\n      0x01\n        /* \"#utility.yul\":21551:21552   */\n      dup2\n        /* \"#utility.yul\":21547:21556   */\n      add\n        /* \"#utility.yul\":21542:21556   */\n      swap1\n      pop\n        /* \"#utility.yul\":21507:21957   */\n      jump(tag_463)\n    tag_465:\n        /* \"#utility.yul\":21511:21525   */\n      pop\n        /* \"#utility.yul\":21973:21977   */\n      dup3\n        /* \"#utility.yul\":21966:21977   */\n      swap8\n      pop\n        /* \"#utility.yul\":21993:21996   */\n      dup8\n        /* \"#utility.yul\":21986:21996   */\n      swap6\n      pop\n        /* \"#utility.yul\":21047:22002   */\n      pop\n      pop\n      pop\n      pop\n      pop\n        /* \"#utility.yul\":20867:22002   */\n      swap3\n      swap2\n      pop\n      pop\n      jump\t// out\n        /* \"#utility.yul\":22008:22493   */\n    tag_80:\n        /* \"#utility.yul\":22207:22211   */\n      0x00\n        /* \"#utility.yul\":22245:22247   */\n      0x20\n        /* \"#utility.yul\":22234:22243   */\n      dup3\n        /* \"#utility.yul\":22230:22248   */\n      add\n        /* \"#utility.yul\":22222:22248   */\n      swap1\n      pop\n        /* \"#utility.yul\":22294:22303   */\n      dup2\n        /* \"#utility.yul\":22288:22292   */\n      dup2\n        /* \"#utility.yul\":22284:22304   */\n      sub\n        /* \"#utility.yul\":22280:22281   */\n      0x00\n        /* \"#utility.yul\":22269:22278   */\n      dup4\n        /* \"#utility.yul\":22265:22282   */\n      add\n        /* \"#utility.yul\":22258:22305   */\n      mstore\n        /* \"#utility.yul\":22322:22486   */\n      tag_469\n        /* \"#utility.yul\":22481:22485   */\n      dup2\n        /* \"#utility.yul\":22472:22478   */\n      dup5\n        /* \"#utility.yul\":22322:22486   */\n      tag_272\n      jump\t// in\n    tag_469:\n        /* \"#utility.yul\":22314:22486   */\n      swap1\n      pop\n        /* \"#utility.yul\":22008:22493   */\n      swap3\n      swap2\n      pop\n      pop\n      jump\t// out\n        /* \"#utility.yul\":22499:23118   */\n    tag_83:\n        /* \"#utility.yul\":22576:22582   */\n      0x00\n        /* \"#utility.yul\":22584:22590   */\n      dup1\n        /* \"#utility.yul\":22592:22598   */\n      0x00\n        /* \"#utility.yul\":22641:22643   */\n      0x60\n        /* \"#utility.yul\":22629:22638   */\n      dup5\n        /* \"#utility.yul\":22620:22627   */\n      dup7\n        /* \"#utility.yul\":22616:22639   */\n      sub\n        /* \"#utility.yul\":22612:22644   */\n      slt\n        /* \"#utility.yul\":22609:22728   */\n      iszero\n      tag_471\n      jumpi\n        /* \"#utility.yul\":22647:22726   */\n      tag_472\n      tag_229\n      jump\t// in\n    tag_472:\n        /* \"#utility.yul\":22609:22728   */\n    tag_471:\n        /* \"#utility.yul\":22767:22768   */\n      0x00\n        /* \"#utility.yul\":22792:22845   */\n      tag_473\n        /* \"#utility.yul\":22837:22844   */\n      dup7\n        /* \"#utility.yul\":22828:22834   */\n      dup3\n        /* \"#utility.yul\":22817:22826   */\n      dup8\n        /* \"#utility.yul\":22813:22835   */\n      add\n        /* \"#utility.yul\":22792:22845   */\n      tag_234\n      jump\t// in\n    tag_473:\n        /* \"#utility.yul\":22782:22845   */\n      swap4\n      pop\n        /* \"#utility.yul\":22738:22855   */\n      pop\n        /* \"#utility.yul\":22894:22896   */\n      0x20\n        /* \"#utility.yul\":22920:22973   */\n      tag_474\n        /* \"#utility.yul\":22965:22972   */\n      dup7\n        /* \"#utility.yul\":22956:22962   */\n      dup3\n        /* \"#utility.yul\":22945:22954   */\n      dup8\n        /* \"#utility.yul\":22941:22963   */\n      add\n        /* \"#utility.yul\":22920:22973   */\n      tag_237\n      jump\t// in\n    tag_474:\n        /* \"#utility.yul\":22910:22973   */\n      swap3\n      pop\n        /* \"#utility.yul\":22865:22983   */\n      pop\n        /* \"#utility.yul\":23022:23024   */\n      0x40\n        /* \"#utility.yul\":23048:23101   */\n      tag_475\n        /* \"#utility.yul\":23093:23100   */\n      dup7\n        /* \"#utility.yul\":23084:23090   */\n      dup3\n        /* \"#utility.yul\":23073:23082   */\n      dup8\n        /* \"#utility.yul\":23069:23091   */\n      add\n        /* \"#utility.yul\":23048:23101   */\n      tag_237\n      jump\t// in\n    tag_475:\n        /* \"#utility.yul\":23038:23101   */\n      swap2\n      pop\n        /* \"#utility.yul\":22993:23111   */\n      pop\n        /* \"#utility.yul\":22499:23118   */\n      swap3\n      pop\n      swap3\n      pop\n      swap3\n      jump\t// out\n        /* \"#utility.yul\":23124:23263   */\n    tag_273:\n        /* \"#utility.yul\":23216:23222   */\n      0x00\n        /* \"#utility.yul\":23250:23255   */\n      dup2\n        /* \"#utility.yul\":23244:23256   */\n      mload\n        /* \"#utility.yul\":23234:23256   */\n      swap1\n      pop\n        /* \"#utility.yul\":23124:23263   */\n      swap2\n      swap1\n      pop\n      jump\t// out\n        /* \"#utility.yul\":23269:23478   */\n    tag_274:\n        /* \"#utility.yul\":23393:23404   */\n      0x00\n        /* \"#utility.yul\":23427:23433   */\n      dup3\n        /* \"#utility.yul\":23422:23425   */\n      dup3\n        /* \"#utility.yul\":23415:23434   */\n      mstore\n        /* \"#utility.yul\":23467:23471   */\n      0x20\n        /* \"#utility.yul\":23462:23465   */\n      dup3\n        /* \"#utility.yul\":23458:23472   */\n      add\n        /* \"#utility.yul\":23443:23472   */\n      swap1\n      pop\n        /* \"#utility.yul\":23269:23478   */\n      swap3\n      swap2\n      pop\n      pop\n      jump\t// out\n        /* \"#utility.yul\":23484:23641   */\n    tag_275:\n        /* \"#utility.yul\":23576:23580   */\n      0x00\n        /* \"#utility.yul\":23599:23602   */\n      dup2\n        /* \"#utility.yul\":23591:23602   */\n      swap1\n      pop\n        /* \"#utility.yul\":23629:23633   */\n      0x20\n        /* \"#utility.yul\":23624:23627   */\n      dup3\n        /* \"#utility.yul\":23620:23634   */\n      add\n        /* \"#utility.yul\":23612:23634   */\n      swap1\n      pop\n        /* \"#utility.yul\":23484:23641   */\n      swap2\n      swap1\n      pop\n      jump\t// out\n        /* \"#utility.yul\":23735:24699   */\n    tag_276:\n        /* \"#utility.yul\":23844:23847   */\n      0x00\n        /* \"#utility.yul\":23880:23884   */\n      0x80\n        /* \"#utility.yul\":23875:23878   */\n      dup4\n        /* \"#utility.yul\":23871:23885   */\n      add\n        /* \"#utility.yul\":23978:23982   */\n      0x00\n        /* \"#utility.yul\":23971:23976   */\n      dup4\n        /* \"#utility.yul\":23967:23983   */\n      add\n        /* \"#utility.yul\":23961:23984   */\n      mload\n        /* \"#utility.yul\":23997:24060   */\n      tag_480\n        /* \"#utility.yul\":24054:24058   */\n      0x00\n        /* \"#utility.yul\":24049:24052   */\n      dup7\n        /* \"#utility.yul\":24045:24059   */\n      add\n        /* \"#utility.yul\":24031:24043   */\n      dup3\n        /* \"#utility.yul\":23997:24060   */\n      tag_250\n      jump\t// in\n    tag_480:\n        /* \"#utility.yul\":23895:24070   */\n      pop\n        /* \"#utility.yul\":24158:24162   */\n      0x20\n        /* \"#utility.yul\":24151:24156   */\n      dup4\n        /* \"#utility.yul\":24147:24163   */\n      add\n        /* \"#utility.yul\":24141:24164   */\n      mload\n        /* \"#utility.yul\":24177:24240   */\n      tag_481\n        /* \"#utility.yul\":24234:24238   */\n      0x20\n        /* \"#utility.yul\":24229:24232   */\n      dup7\n        /* \"#utility.yul\":24225:24239   */\n      add\n        /* \"#utility.yul\":24211:24223   */\n      dup3\n        /* \"#utility.yul\":24177:24240   */\n      tag_257\n      jump\t// in\n    tag_481:\n        /* \"#utility.yul\":24080:24250   */\n      pop\n        /* \"#utility.yul\":24333:24337   */\n      0x40\n        /* \"#utility.yul\":24326:24331   */\n      dup4\n        /* \"#utility.yul\":24322:24338   */\n      add\n        /* \"#utility.yul\":24316:24339   */\n      mload\n        /* \"#utility.yul\":24386:24389   */\n      dup5\n        /* \"#utility.yul\":24380:24384   */\n      dup3\n        /* \"#utility.yul\":24376:24390   */\n      sub\n        /* \"#utility.yul\":24369:24373   */\n      0x40\n        /* \"#utility.yul\":24364:24367   */\n      dup7\n        /* \"#utility.yul\":24360:24374   */\n      add\n        /* \"#utility.yul\":24353:24391   */\n      mstore\n        /* \"#utility.yul\":24412:24485   */\n      tag_482\n        /* \"#utility.yul\":24480:24484   */\n      dup3\n        /* \"#utility.yul\":24466:24478   */\n      dup3\n        /* \"#utility.yul\":24412:24485   */\n      tag_259\n      jump\t// in\n    tag_482:\n        /* \"#utility.yul\":24404:24485   */\n      swap2\n      pop\n        /* \"#utility.yul\":24260:24496   */\n      pop\n        /* \"#utility.yul\":24580:24584   */\n      0x60\n        /* \"#utility.yul\":24573:24578   */\n      dup4\n        /* \"#utility.yul\":24569:24585   */\n      add\n        /* \"#utility.yul\":24563:24586   */\n      mload\n        /* \"#utility.yul\":24599:24662   */\n      tag_483\n        /* \"#utility.yul\":24656:24660   */\n      0x60\n        /* \"#utility.yul\":24651:24654   */\n      dup7\n        /* \"#utility.yul\":24647:24661   */\n      add\n        /* \"#utility.yul\":24633:24645   */\n      dup3\n        /* \"#utility.yul\":24599:24662   */\n      tag_257\n      jump\t// in\n    tag_483:\n        /* \"#utility.yul\":24506:24672   */\n      pop\n        /* \"#utility.yul\":24689:24693   */\n      dup1\n        /* \"#utility.yul\":24682:24693   */\n      swap2\n      pop\n        /* \"#utility.yul\":23849:24699   */\n      pop\n        /* \"#utility.yul\":23735:24699   */\n      swap3\n      swap2\n      pop\n      pop\n      jump\t// out\n        /* \"#utility.yul\":24705:24961   */\n    tag_277:\n        /* \"#utility.yul\":24824:24834   */\n      0x00\n        /* \"#utility.yul\":24859:24955   */\n      tag_485\n        /* \"#utility.yul\":24951:24954   */\n      dup4\n        /* \"#utility.yul\":24943:24949   */\n      dup4\n        /* \"#utility.yul\":24859:24955   */\n      tag_276\n      jump\t// in\n    tag_485:\n        /* \"#utility.yul\":24845:24955   */\n      swap1\n      pop\n        /* \"#utility.yul\":24705:24961   */\n      swap3\n      swap2\n      pop\n      pop\n      jump\t// out\n        /* \"#utility.yul\":24967:25105   */\n    tag_278:\n        /* \"#utility.yul\":25062:25066   */\n      0x00\n        /* \"#utility.yul\":25094:25098   */\n      0x20\n        /* \"#utility.yul\":25089:25092   */\n      dup3\n        /* \"#utility.yul\":25085:25099   */\n      add\n        /* \"#utility.yul\":25077:25099   */\n      swap1\n      pop\n        /* \"#utility.yul\":24967:25105   */\n      swap2\n      swap1\n      pop\n      jump\t// out\n        /* \"#utility.yul\":25203:26314   */\n    tag_279:\n        /* \"#utility.yul\":25372:25375   */\n      0x00\n        /* \"#utility.yul\":25401:25480   */\n      tag_488\n        /* \"#utility.yul\":25474:25479   */\n      dup3\n        /* \"#utility.yul\":25401:25480   */\n      tag_273\n      jump\t// in\n    tag_488:\n        /* \"#utility.yul\":25496:25607   */\n      tag_489\n        /* \"#utility.yul\":25600:25606   */\n      dup2\n        /* \"#utility.yul\":25595:25598   */\n      dup6\n        /* \"#utility.yul\":25496:25607   */\n      tag_274\n      jump\t// in\n    tag_489:\n        /* \"#utility.yul\":25489:25607   */\n      swap4\n      pop\n        /* \"#utility.yul\":25633:25636   */\n      dup4\n        /* \"#utility.yul\":25678:25682   */\n      0x20\n        /* \"#utility.yul\":25670:25676   */\n      dup3\n        /* \"#utility.yul\":25666:25683   */\n      mul\n        /* \"#utility.yul\":25661:25664   */\n      dup6\n        /* \"#utility.yul\":25657:25684   */\n      add\n        /* \"#utility.yul\":25708:25789   */\n      tag_490\n        /* \"#utility.yul\":25783:25788   */\n      dup6\n        /* \"#utility.yul\":25708:25789   */\n      tag_275\n      jump\t// in\n    tag_490:\n        /* \"#utility.yul\":25812:25819   */\n      dup1\n        /* \"#utility.yul\":25843:25844   */\n      0x00\n        /* \"#utility.yul\":25828:26269   */\n    tag_491:\n        /* \"#utility.yul\":25853:25859   */\n      dup6\n        /* \"#utility.yul\":25850:25851   */\n      dup2\n        /* \"#utility.yul\":25847:25860   */\n      lt\n        /* \"#utility.yul\":25828:26269   */\n      iszero\n      tag_493\n      jumpi\n        /* \"#utility.yul\":25924:25933   */\n      dup5\n        /* \"#utility.yul\":25918:25922   */\n      dup5\n        /* \"#utility.yul\":25914:25934   */\n      sub\n        /* \"#utility.yul\":25909:25912   */\n      dup10\n        /* \"#utility.yul\":25902:25935   */\n      mstore\n        /* \"#utility.yul\":25975:25981   */\n      dup2\n        /* \"#utility.yul\":25969:25982   */\n      mload\n        /* \"#utility.yul\":26003:26117   */\n      tag_494\n        /* \"#utility.yul\":26112:26116   */\n      dup6\n        /* \"#utility.yul\":26097:26110   */\n      dup3\n        /* \"#utility.yul\":26003:26117   */\n      tag_277\n      jump\t// in\n    tag_494:\n        /* \"#utility.yul\":25995:26117   */\n      swap5\n      pop\n        /* \"#utility.yul\":26140:26225   */\n      tag_495\n        /* \"#utility.yul\":26218:26224   */\n      dup4\n        /* \"#utility.yul\":26140:26225   */\n      tag_278\n      jump\t// in\n    tag_495:\n        /* \"#utility.yul\":26130:26225   */\n      swap3\n      pop\n        /* \"#utility.yul\":26254:26258   */\n      0x20\n        /* \"#utility.yul\":26249:26252   */\n      dup11\n        /* \"#utility.yul\":26245:26259   */\n      add\n        /* \"#utility.yul\":26238:26259   */\n      swap10\n      pop\n        /* \"#utility.yul\":25888:26269   */\n      pop\n        /* \"#utility.yul\":25875:25876   */\n      0x01\n        /* \"#utility.yul\":25872:25873   */\n      dup2\n        /* \"#utility.yul\":25868:25877   */\n      add\n        /* \"#utility.yul\":25863:25877   */\n      swap1\n      pop\n        /* \"#utility.yul\":25828:26269   */\n      jump(tag_491)\n    tag_493:\n        /* \"#utility.yul\":25832:25846   */\n      pop\n        /* \"#utility.yul\":26285:26289   */\n      dup3\n        /* \"#utility.yul\":26278:26289   */\n      swap8\n      pop\n        /* \"#utility.yul\":26305:26308   */\n      dup8\n        /* \"#utility.yul\":26298:26308   */\n      swap6\n      pop\n        /* \"#utility.yul\":25377:26314   */\n      pop\n      pop\n      pop\n      pop\n      pop\n        /* \"#utility.yul\":25203:26314   */\n      swap3\n      swap2\n      pop\n      pop\n      jump\t// out\n        /* \"#utility.yul\":26320:26793   */\n    tag_89:\n        /* \"#utility.yul\":26513:26517   */\n      0x00\n        /* \"#utility.yul\":26551:26553   */\n      0x20\n        /* \"#utility.yul\":26540:26549   */\n      dup3\n        /* \"#utility.yul\":26536:26554   */\n      add\n        /* \"#utility.yul\":26528:26554   */\n      swap1\n      pop\n        /* \"#utility.yul\":26600:26609   */\n      dup2\n        /* \"#utility.yul\":26594:26598   */\n      dup2\n        /* \"#utility.yul\":26590:26610   */\n      sub\n        /* \"#utility.yul\":26586:26587   */\n      0x00\n        /* \"#utility.yul\":26575:26584   */\n      dup4\n        /* \"#utility.yul\":26571:26588   */\n      add\n        /* \"#utility.yul\":26564:26611   */\n      mstore\n        /* \"#utility.yul\":26628:26786   */\n      tag_497\n        /* \"#utility.yul\":26781:26785   */\n      dup2\n        /* \"#utility.yul\":26772:26778   */\n      dup5\n        /* \"#utility.yul\":26628:26786   */\n      tag_279\n      jump\t// in\n    tag_497:\n        /* \"#utility.yul\":26620:26786   */\n      swap1\n      pop\n        /* \"#utility.yul\":26320:26793   */\n      swap3\n      swap2\n      pop\n      pop\n      jump\t// out\n        /* \"#utility.yul\":26799:26979   */\n    tag_280:\n        /* \"#utility.yul\":26847:26924   */\n      0x4e487b7100000000000000000000000000000000000000000000000000000000\n        /* \"#utility.yul\":26844:26845   */\n      0x00\n        /* \"#utility.yul\":26837:26925   */\n      mstore\n        /* \"#utility.yul\":26944:26948   */\n      0x22\n        /* \"#utility.yul\":26941:26942   */\n      0x04\n        /* \"#utility.yul\":26934:26949   */\n      mstore\n        /* \"#utility.yul\":26968:26972   */\n      0x24\n        /* \"#utility.yul\":26965:26966   */\n      0x00\n        /* \"#utility.yul\":26958:26973   */\n      revert\n        /* \"#utility.yul\":26985:27305   */\n    tag_93:\n        /* \"#utility.yul\":27029:27035   */\n      0x00\n        /* \"#utility.yul\":27066:27067   */\n      0x02\n        /* \"#utility.yul\":27060:27064   */\n      dup3\n        /* \"#utility.yul\":27056:27068   */\n      div\n        /* \"#utility.yul\":27046:27068   */\n      swap1\n      pop\n        /* \"#utility.yul\":27113:27114   */\n      0x01\n        /* \"#utility.yul\":27107:27111   */\n      dup3\n        /* \"#utility.yul\":27103:27115   */\n      and\n        /* \"#utility.yul\":27134:27152   */\n      dup1\n        /* \"#utility.yul\":27124:27205   */\n      tag_500\n      jumpi\n        /* \"#utility.yul\":27190:27194   */\n      0x7f\n        /* \"#utility.yul\":27182:27188   */\n      dup3\n        /* \"#utility.yul\":27178:27195   */\n      and\n        /* \"#utility.yul\":27168:27195   */\n      swap2\n      pop\n        /* \"#utility.yul\":27124:27205   */\n    tag_500:\n        /* \"#utility.yul\":27252:27254   */\n      0x20\n        /* \"#utility.yul\":27244:27250   */\n      dup3\n        /* \"#utility.yul\":27241:27255   */\n      lt\n        /* \"#utility.yul\":27221:27239   */\n      dup2\n        /* \"#utility.yul\":27218:27256   */\n      sub\n        /* \"#utility.yul\":27215:27299   */\n      tag_501\n      jumpi\n        /* \"#utility.yul\":27271:27289   */\n      tag_502\n      tag_280\n      jump\t// in\n    tag_502:\n        /* \"#utility.yul\":27215:27299   */\n    tag_501:\n        /* \"#utility.yul\":27036:27305   */\n      pop\n        /* \"#utility.yul\":26985:27305   */\n      swap2\n      swap1\n      pop\n      jump\t// out\n        /* \"#utility.yul\":27311:27491   */\n    tag_281:\n        /* \"#utility.yul\":27359:27436   */\n      0x4e487b7100000000000000000000000000000000000000000000000000000000\n        /* \"#utility.yul\":27356:27357   */\n      0x00\n        /* \"#utility.yul\":27349:27437   */\n      mstore\n        /* \"#utility.yul\":27456:27460   */\n      0x11\n        /* \"#utility.yul\":27453:27454   */\n      0x04\n        /* \"#utility.yul\":27446:27461   */\n      mstore\n        /* \"#utility.yul\":27480:27484   */\n      0x24\n        /* \"#utility.yul\":27477:27478   */\n      0x00\n        /* \"#utility.yul\":27470:27485   */\n      revert\n        /* \"#utility.yul\":27497:27691   */\n    tag_131:\n        /* \"#utility.yul\":27537:27541   */\n      0x00\n        /* \"#utility.yul\":27557:27577   */\n      tag_505\n        /* \"#utility.yul\":27575:27576   */\n      dup3\n        /* \"#utility.yul\":27557:27577   */\n      tag_235\n      jump\t// in\n    tag_505:\n        /* \"#utility.yul\":27552:27577   */\n      swap2\n      pop\n        /* \"#utility.yul\":27591:27611   */\n      tag_506\n        /* \"#utility.yul\":27609:27610   */\n      dup4\n        /* \"#utility.yul\":27591:27611   */\n      tag_235\n      jump\t// in\n    tag_506:\n        /* \"#utility.yul\":27586:27611   */\n      swap3\n      pop\n        /* \"#utility.yul\":27635:27636   */\n      dup3\n        /* \"#utility.yul\":27632:27633   */\n      dup3\n        /* \"#utility.yul\":27628:27637   */\n      sub\n        /* \"#utility.yul\":27620:27637   */\n      swap1\n      pop\n        /* \"#utility.yul\":27659:27660   */\n      dup2\n        /* \"#utility.yul\":27653:27657   */\n      dup2\n        /* \"#utility.yul\":27650:27661   */\n      gt\n        /* \"#utility.yul\":27647:27684   */\n      iszero\n      tag_507\n      jumpi\n        /* \"#utility.yul\":27664:27682   */\n      tag_508\n      tag_281\n      jump\t// in\n    tag_508:\n        /* \"#utility.yul\":27647:27684   */\n    tag_507:\n        /* \"#utility.yul\":27497:27691   */\n      swap3\n      swap2\n      pop\n      pop\n      jump\t// out\n        /* \"#utility.yul\":27697:27877   */\n    tag_134:\n        /* \"#utility.yul\":27745:27822   */\n      0x4e487b7100000000000000000000000000000000000000000000000000000000\n        /* \"#utility.yul\":27742:27743   */\n      0x00\n        /* \"#utility.yul\":27735:27823   */\n      mstore\n        /* \"#utility.yul\":27842:27846   */\n      0x32\n        /* \"#utility.yul\":27839:27840   */\n      0x04\n        /* \"#utility.yul\":27832:27847   */\n      mstore\n        /* \"#utility.yul\":27866:27870   */\n      0x24\n        /* \"#utility.yul\":27863:27864   */\n      0x00\n        /* \"#utility.yul\":27856:27871   */\n      revert\n        /* \"#utility.yul\":27883:28060   */\n    tag_282:\n        /* \"#utility.yul\":28023:28052   */\n      0x5468652043616d706169676e2057617320436f6d706c65746564210000000000\n        /* \"#utility.yul\":28019:28020   */\n      0x00\n        /* \"#utility.yul\":28011:28017   */\n      dup3\n        /* \"#utility.yul\":28007:28021   */\n      add\n        /* \"#utility.yul\":28000:28053   */\n      mstore\n        /* \"#utility.yul\":27883:28060   */\n      pop\n      jump\t// out\n        /* \"#utility.yul\":28066:28432   */\n    tag_283:\n        /* \"#utility.yul\":28208:28211   */\n      0x00\n        /* \"#utility.yul\":28229:28296   */\n      tag_512\n        /* \"#utility.yul\":28293:28295   */\n      0x1b\n        /* \"#utility.yul\":28288:28291   */\n      dup4\n        /* \"#utility.yul\":28229:28296   */\n      tag_240\n      jump\t// in\n    tag_512:\n        /* \"#utility.yul\":28222:28296   */\n      swap2\n      pop\n        /* \"#utility.yul\":28305:28398   */\n      tag_513\n        /* \"#utility.yul\":28394:28397   */\n      dup3\n        /* \"#utility.yul\":28305:28398   */\n      tag_282\n      jump\t// in\n    tag_513:\n        /* \"#utility.yul\":28423:28425   */\n      0x20\n        /* \"#utility.yul\":28418:28421   */\n      dup3\n        /* \"#utility.yul\":28414:28426   */\n      add\n        /* \"#utility.yul\":28407:28426   */\n      swap1\n      pop\n        /* \"#utility.yul\":28066:28432   */\n      swap2\n      swap1\n      pop\n      jump\t// out\n        /* \"#utility.yul\":28438:28857   */\n    tag_138:\n        /* \"#utility.yul\":28604:28608   */\n      0x00\n        /* \"#utility.yul\":28642:28644   */\n      0x20\n        /* \"#utility.yul\":28631:28640   */\n      dup3\n        /* \"#utility.yul\":28627:28645   */\n      add\n        /* \"#utility.yul\":28619:28645   */\n      swap1\n      pop\n        /* \"#utility.yul\":28691:28700   */\n      dup2\n        /* \"#utility.yul\":28685:28689   */\n      dup2\n        /* \"#utility.yul\":28681:28701   */\n      sub\n        /* \"#utility.yul\":28677:28678   */\n      0x00\n        /* \"#utility.yul\":28666:28675   */\n      dup4\n        /* \"#utility.yul\":28662:28679   */\n      add\n        /* \"#utility.yul\":28655:28702   */\n      mstore\n        /* \"#utility.yul\":28719:28850   */\n      tag_515\n        /* \"#utility.yul\":28845:28849   */\n      dup2\n        /* \"#utility.yul\":28719:28850   */\n      tag_283\n      jump\t// in\n    tag_515:\n        /* \"#utility.yul\":28711:28850   */\n      swap1\n      pop\n        /* \"#utility.yul\":28438:28857   */\n      swap2\n      swap1\n      pop\n      jump\t// out\n        /* \"#utility.yul\":28863:29083   */\n    tag_284:\n        /* \"#utility.yul\":29003:29037   */\n      0x546869732043616d706169676e20486173204265656e2043616e63656c6c6564\n        /* \"#utility.yul\":28999:29000   */\n      0x00\n        /* \"#utility.yul\":28991:28997   */\n      dup3\n        /* \"#utility.yul\":28987:29001   */\n      add\n        /* \"#utility.yul\":28980:29038   */\n      mstore\n        /* \"#utility.yul\":29072:29075   */\n      0x2100000000000000000000000000000000000000000000000000000000000000\n        /* \"#utility.yul\":29067:29069   */\n      0x20\n        /* \"#utility.yul\":29059:29065   */\n      dup3\n        /* \"#utility.yul\":29055:29070   */\n      add\n        /* \"#utility.yul\":29048:29076   */\n      mstore\n        /* \"#utility.yul\":28863:29083   */\n      pop\n      jump\t// out\n        /* \"#utility.yul\":29089:29455   */\n    tag_285:\n        /* \"#utility.yul\":29231:29234   */\n      0x00\n        /* \"#utility.yul\":29252:29319   */\n      tag_518\n        /* \"#utility.yul\":29316:29318   */\n      0x21\n        /* \"#utility.yul\":29311:29314   */\n      dup4\n        /* \"#utility.yul\":29252:29319   */\n      tag_240\n      jump\t// in\n    tag_518:\n        /* \"#utility.yul\":29245:29319   */\n      swap2\n      pop\n        /* \"#utility.yul\":29328:29421   */\n      tag_519\n        /* \"#utility.yul\":29417:29420   */\n      dup3\n        /* \"#utility.yul\":29328:29421   */\n      tag_284\n      jump\t// in\n    tag_519:\n        /* \"#utility.yul\":29446:29448   */\n      0x40\n        /* \"#utility.yul\":29441:29444   */\n      dup3\n        /* \"#utility.yul\":29437:29449   */\n      add\n        /* \"#utility.yul\":29430:29449   */\n      swap1\n      pop\n        /* \"#utility.yul\":29089:29455   */\n      swap2\n      swap1\n      pop\n      jump\t// out\n        /* \"#utility.yul\":29461:29880   */\n    tag_145:\n        /* \"#utility.yul\":29627:29631   */\n      0x00\n        /* \"#utility.yul\":29665:29667   */\n      0x20\n        /* \"#utility.yul\":29654:29663   */\n      dup3\n        /* \"#utility.yul\":29650:29668   */\n      add\n        /* \"#utility.yul\":29642:29668   */\n      swap1\n      pop\n        /* \"#utility.yul\":29714:29723   */\n      dup2\n        /* \"#utility.yul\":29708:29712   */\n      dup2\n        /* \"#utility.yul\":29704:29724   */\n      sub\n        /* \"#utility.yul\":29700:29701   */\n      0x00\n        /* \"#utility.yul\":29689:29698   */\n      dup4\n        /* \"#utility.yul\":29685:29702   */\n      add\n        /* \"#utility.yul\":29678:29725   */\n      mstore\n        /* \"#utility.yul\":29742:29873   */\n      tag_521\n        /* \"#utility.yul\":29868:29872   */\n      dup2\n        /* \"#utility.yul\":29742:29873   */\n      tag_285\n      jump\t// in\n    tag_521:\n        /* \"#utility.yul\":29734:29873   */\n      swap1\n      pop\n        /* \"#utility.yul\":29461:29880   */\n      swap2\n      swap1\n      pop\n      jump\t// out\n        /* \"#utility.yul\":29886:30117   */\n    tag_286:\n        /* \"#utility.yul\":30026:30060   */\n      0x4f6e6c7920436f6e7472616374204f776e65722043616e20506572666f726d20\n        /* \"#utility.yul\":30022:30023   */\n      0x00\n        /* \"#utility.yul\":30014:30020   */\n      dup3\n        /* \"#utility.yul\":30010:30024   */\n      add\n        /* \"#utility.yul\":30003:30061   */\n      mstore\n        /* \"#utility.yul\":30095:30109   */\n      0x5468697320416374696f6e210000000000000000000000000000000000000000\n        /* \"#utility.yul\":30090:30092   */\n      0x20\n        /* \"#utility.yul\":30082:30088   */\n      dup3\n        /* \"#utility.yul\":30078:30093   */\n      add\n        /* \"#utility.yul\":30071:30110   */\n      mstore\n        /* \"#utility.yul\":29886:30117   */\n      pop\n      jump\t// out\n        /* \"#utility.yul\":30123:30489   */\n    tag_287:\n        /* \"#utility.yul\":30265:30268   */\n      0x00\n        /* \"#utility.yul\":30286:30353   */\n      tag_524\n        /* \"#utility.yul\":30350:30352   */\n      0x2c\n        /* \"#utility.yul\":30345:30348   */\n      dup4\n        /* \"#utility.yul\":30286:30353   */\n      tag_240\n      jump\t// in\n    tag_524:\n        /* \"#utility.yul\":30279:30353   */\n      swap2\n      pop\n        /* \"#utility.yul\":30362:30455   */\n      tag_525\n        /* \"#utility.yul\":30451:30454   */\n      dup3\n        /* \"#utility.yul\":30362:30455   */\n      tag_286\n      jump\t// in\n    tag_525:\n        /* \"#utility.yul\":30480:30482   */\n      0x40\n        /* \"#utility.yul\":30475:30478   */\n      dup3\n        /* \"#utility.yul\":30471:30483   */\n      add\n        /* \"#utility.yul\":30464:30483   */\n      swap1\n      pop\n        /* \"#utility.yul\":30123:30489   */\n      swap2\n      swap1\n      pop\n      jump\t// out\n        /* \"#utility.yul\":30495:30914   */\n    tag_180:\n        /* \"#utility.yul\":30661:30665   */\n      0x00\n        /* \"#utility.yul\":30699:30701   */\n      0x20\n        /* \"#utility.yul\":30688:30697   */\n      dup3\n        /* \"#utility.yul\":30684:30702   */\n      add\n        /* \"#utility.yul\":30676:30702   */\n      swap1\n      pop\n        /* \"#utility.yul\":30748:30757   */\n      dup2\n        /* \"#utility.yul\":30742:30746   */\n      dup2\n        /* \"#utility.yul\":30738:30758   */\n      sub\n        /* \"#utility.yul\":30734:30735   */\n      0x00\n        /* \"#utility.yul\":30723:30732   */\n      dup4\n        /* \"#utility.yul\":30719:30736   */\n      add\n        /* \"#utility.yul\":30712:30759   */\n      mstore\n        /* \"#utility.yul\":30776:30907   */\n      tag_527\n        /* \"#utility.yul\":30902:30906   */\n      dup2\n        /* \"#utility.yul\":30776:30907   */\n      tag_287\n      jump\t// in\n    tag_527:\n        /* \"#utility.yul\":30768:30907   */\n      swap1\n      pop\n        /* \"#utility.yul\":30495:30914   */\n      swap2\n      swap1\n      pop\n      jump\t// out\n        /* \"#utility.yul\":30920:31098   */\n    tag_288:\n        /* \"#utility.yul\":31060:31090   */\n      0x546869732043616d706169676e205761732043616e63656c6c65642100000000\n        /* \"#utility.yul\":31056:31057   */\n      0x00\n        /* \"#utility.yul\":31048:31054   */\n      dup3\n        /* \"#utility.yul\":31044:31058   */\n      add\n        /* \"#utility.yul\":31037:31091   */\n      mstore\n        /* \"#utility.yul\":30920:31098   */\n      pop\n      jump\t// out\n        /* \"#utility.yul\":31104:31470   */\n    tag_289:\n        /* \"#utility.yul\":31246:31249   */\n      0x00\n        /* \"#utility.yul\":31267:31334   */\n      tag_530\n        /* \"#utility.yul\":31331:31333   */\n      0x1c\n        /* \"#utility.yul\":31326:31329   */\n      dup4\n        /* \"#utility.yul\":31267:31334   */\n      tag_240\n      jump\t// in\n    tag_530:\n        /* \"#utility.yul\":31260:31334   */\n      swap2\n      pop\n        /* \"#utility.yul\":31343:31436   */\n      tag_531\n        /* \"#utility.yul\":31432:31435   */\n      dup3\n        /* \"#utility.yul\":31343:31436   */\n      tag_288\n      jump\t// in\n    tag_531:\n        /* \"#utility.yul\":31461:31463   */\n      0x20\n        /* \"#utility.yul\":31456:31459   */\n      dup3\n        /* \"#utility.yul\":31452:31464   */\n      add\n        /* \"#utility.yul\":31445:31464   */\n      swap1\n      pop\n        /* \"#utility.yul\":31104:31470   */\n      swap2\n      swap1\n      pop\n      jump\t// out\n        /* \"#utility.yul\":31476:31895   */\n    tag_189:\n        /* \"#utility.yul\":31642:31646   */\n      0x00\n        /* \"#utility.yul\":31680:31682   */\n      0x20\n        /* \"#utility.yul\":31669:31678   */\n      dup3\n        /* \"#utility.yul\":31665:31683   */\n      add\n        /* \"#utility.yul\":31657:31683   */\n      swap1\n      pop\n        /* \"#utility.yul\":31729:31738   */\n      dup2\n        /* \"#utility.yul\":31723:31727   */\n      dup2\n        /* \"#utility.yul\":31719:31739   */\n      sub\n        /* \"#utility.yul\":31715:31716   */\n      0x00\n        /* \"#utility.yul\":31704:31713   */\n      dup4\n        /* \"#utility.yul\":31700:31717   */\n      add\n        /* \"#utility.yul\":31693:31740   */\n      mstore\n        /* \"#utility.yul\":31757:31888   */\n      tag_533\n        /* \"#utility.yul\":31883:31887   */\n      dup2\n        /* \"#utility.yul\":31757:31888   */\n      tag_289\n      jump\t// in\n    tag_533:\n        /* \"#utility.yul\":31749:31888   */\n      swap1\n      pop\n        /* \"#utility.yul\":31476:31895   */\n      swap2\n      swap1\n      pop\n      jump\t// out\n        /* \"#utility.yul\":31901:32123   */\n    tag_290:\n        /* \"#utility.yul\":32041:32075   */\n      0x546869732043616d706169676e204973205374696c6c20496e2050726f677265\n        /* \"#utility.yul\":32037:32038   */\n      0x00\n        /* \"#utility.yul\":32029:32035   */\n      dup3\n        /* \"#utility.yul\":32025:32039   */\n      add\n        /* \"#utility.yul\":32018:32076   */\n      mstore\n        /* \"#utility.yul\":32110:32115   */\n      0x7373210000000000000000000000000000000000000000000000000000000000\n        /* \"#utility.yul\":32105:32107   */\n      0x20\n        /* \"#utility.yul\":32097:32103   */\n      dup3\n        /* \"#utility.yul\":32093:32108   */\n      add\n        /* \"#utility.yul\":32086:32116   */\n      mstore\n        /* \"#utility.yul\":31901:32123   */\n      pop\n      jump\t// out\n        /* \"#utility.yul\":32129:32495   */\n    tag_291:\n        /* \"#utility.yul\":32271:32274   */\n      0x00\n        /* \"#utility.yul\":32292:32359   */\n      tag_536\n        /* \"#utility.yul\":32356:32358   */\n      0x23\n        /* \"#utility.yul\":32351:32354   */\n      dup4\n        /* \"#utility.yul\":32292:32359   */\n      tag_240\n      jump\t// in\n    tag_536:\n        /* \"#utility.yul\":32285:32359   */\n      swap2\n      pop\n        /* \"#utility.yul\":32368:32461   */\n      tag_537\n        /* \"#utility.yul\":32457:32460   */\n      dup3\n        /* \"#utility.yul\":32368:32461   */\n      tag_290\n      jump\t// in\n    tag_537:\n        /* \"#utility.yul\":32486:32488   */\n      0x40\n        /* \"#utility.yul\":32481:32484   */\n      dup3\n        /* \"#utility.yul\":32477:32489   */\n      add\n        /* \"#utility.yul\":32470:32489   */\n      swap1\n      pop\n        /* \"#utility.yul\":32129:32495   */\n      swap2\n      swap1\n      pop\n      jump\t// out\n        /* \"#utility.yul\":32501:32920   */\n    tag_196:\n        /* \"#utility.yul\":32667:32671   */\n      0x00\n        /* \"#utility.yul\":32705:32707   */\n      0x20\n        /* \"#utility.yul\":32694:32703   */\n      dup3\n        /* \"#utility.yul\":32690:32708   */\n      add\n        /* \"#utility.yul\":32682:32708   */\n      swap1\n      pop\n        /* \"#utility.yul\":32754:32763   */\n      dup2\n        /* \"#utility.yul\":32748:32752   */\n      dup2\n        /* \"#utility.yul\":32744:32764   */\n      sub\n        /* \"#utility.yul\":32740:32741   */\n      0x00\n        /* \"#utility.yul\":32729:32738   */\n      dup4\n        /* \"#utility.yul\":32725:32742   */\n      add\n        /* \"#utility.yul\":32718:32765   */\n      mstore\n        /* \"#utility.yul\":32782:32913   */\n      tag_539\n        /* \"#utility.yul\":32908:32912   */\n      dup2\n        /* \"#utility.yul\":32782:32913   */\n      tag_291\n      jump\t// in\n    tag_539:\n        /* \"#utility.yul\":32774:32913   */\n      swap1\n      pop\n        /* \"#utility.yul\":32501:32920   */\n      swap2\n      swap1\n      pop\n      jump\t// out\n\n    auxdata: 0xa264697066735822122015f239d23cb0250d070b020d31db18e287668be1ea7f9113840b388eedbcbde864736f6c634300081a0033\n}\n",
				"bytecode": {
					"linkReferences": {},
					"object": "6080604052348015600e575f80fd5b503360065f6101000a81548173ffffffffffffffffffffffffffffffffffffffff021916908373ffffffffffffffffffffffffffffffffffffffff1602179055506126dc8061005c5f395ff3fe608060405234801561000f575f80fd5b50600436106100e8575f3560e01c80636f9fb98a1161008a578063be21739e11610064578063be21739e146102bc578063df171c0d146102ec578063e6c9099a1461031c578063e81c411d1461034c576100e8565b80636f9fb98a1461023b57806382fed30b146102595780639b56f5f014610289576100e8565b8063366919e9116100c6578063366919e914610184578063422b1077146101a2578063584bea2c146101d6578063675b621114610209576100e8565b806311555dbc146100ec5780631f55e5bc1461012457806328f5bd9b14610154575b5f80fd5b6101066004803603810190610101919061191f565b61036a565b60405161011b99989796959493929190611a05565b60405180910390f35b61013e6004803603810190610139919061191f565b610511565b60405161014b9190611a9e565b60405180910390f35b61016e60048036038101906101699190611ab7565b610559565b60405161017b9190611b99565b60405180910390f35b61018c610621565b6040516101999190611da3565b60405180910390f35b6101bc60048036038101906101b7919061191f565b610889565b6040516101cd959493929190611dc3565b60405180910390f35b6101f060048036038101906101eb9190611e1b565b610999565b6040516102009493929190611e59565b60405180910390f35b610223600480360381019061021e9190611e1b565b610d5c565b60405161023293929190611f6c565b60405180910390f35b6102436110dd565b6040516102509190611faf565b60405180910390f35b610273600480360381019061026e9190611e1b565b611173565b6040516102809190611faf565b60405180910390f35b6102a3600480360381019061029e919061191f565b611352565b6040516102b39493929190611fc8565b60405180910390f35b6102d660048036038101906102d19190612012565b61143d565b6040516102e39190612050565b60405180910390f35b61030660048036038101906103019190611ab7565b611467565b6040516103139190612197565b60405180910390f35b610336600480360381019061033191906121b7565b61164d565b6040516103439190611a9e565b60405180910390f35b6103546116a0565b6040516103619190612322565b60405180910390f35b5f602052815f5260405f208181548110610382575f80fd5b905f5260205f2090600802015f9150915050805f0154908060010180546103a89061236f565b80601f01602080910402602001604051908101604052809291908181526020018280546103d49061236f565b801561041f5780601f106103f65761010080835404028352916020019161041f565b820191905f5260205f20905b81548152906001019060200180831161040257829003601f168201915b5050505050908060020180546104349061236f565b80601f01602080910402602001604051908101604052809291908181526020018280546104609061236f565b80156104ab5780601f10610482576101008083540402835291602001916104ab565b820191905f5260205f20905b81548152906001019060200180831161048e57829003601f168201915b505050505090806003015f9054906101000a900473ffffffffffffffffffffffffffffffffffffffff1690806004015490806005015490806006015490806007015f9054906101000a900460ff16908060070160019054906101000a900460ff16905089565b6002602052815f5260405f20818154811061052a575f80fd5b905f5260205f20015f915091509054906101000a900473ffffffffffffffffffffffffffffffffffffffff1681565b606060025f8373ffffffffffffffffffffffffffffffffffffffff1673ffffffffffffffffffffffffffffffffffffffff1681526020019081526020015f2080548060200260200160405190810160405280929190818152602001828054801561061557602002820191905f5260205f20905b815f9054906101000a900473ffffffffffffffffffffffffffffffffffffffff1673ffffffffffffffffffffffffffffffffffffffff16815260200190600101908083116105cc575b50505050509050919050565b60605f803373ffffffffffffffffffffffffffffffffffffffff1673ffffffffffffffffffffffffffffffffffffffff1681526020019081526020015f20805480602002602001604051908101604052809291908181526020015f905b82821015610880578382905f5260205f209060080201604051806101200160405290815f82015481526020016001820180546106b99061236f565b80601f01602080910402602001604051908101604052809291908181526020018280546106e59061236f565b80156107305780601f1061070757610100808354040283529160200191610730565b820191905f5260205f20905b81548152906001019060200180831161071357829003601f168201915b505050505081526020016002820180546107499061236f565b80601f01602080910402602001604051908101604052809291908181526020018280546107759061236f565b80156107c05780601f10610797576101008083540402835291602001916107c0565b820191905f5260205f20905b8154815290600101906020018083116107a357829003601f168201915b50505050508152602001600382015f9054906101000a900473ffffffffffffffffffffffffffffffffffffffff1673ffffffffffffffffffffffffffffffffffffffff1673ffffffffffffffffffffffffffffffffffffffff168152602001600482015481526020016005820154815260200160068201548152602001600782015f9054906101000a900460ff161515151581526020016007820160019054906101000a900460ff1615151515815250508152602001906001019061067e565b50505050905090565b6004602052815f5260405f2081815481106108a2575f80fd5b905f5260205f2090600502015f9150915050805f0154908060010180546108c89061236f565b80601f01602080910402602001604051908101604052809291908181526020018280546108f49061236f565b801561093f5780601f106109165761010080835404028352916020019161093f565b820191905f5260205f20905b81548152906001019060200180831161092257829003601f168201915b505050505090806002015490806003015f9054906101000a900473ffffffffffffffffffffffffffffffffffffffff1690806004015f9054906101000a900473ffffffffffffffffffffffffffffffffffffffff16905085565b5f805f60605f808673ffffffffffffffffffffffffffffffffffffffff1673ffffffffffffffffffffffffffffffffffffffff1681526020019081526020015f206001876109e791906123cc565b815481106109f8576109f76123ff565b5b905f5260205f209060080201600601544210610a49576040517f08c379a0000000000000000000000000000000000000000000000000000000008152600401610a4090612476565b60405180910390fd5b5f808673ffffffffffffffffffffffffffffffffffffffff1673ffffffffffffffffffffffffffffffffffffffff1681526020019081526020015f20600187610a9291906123cc565b81548110610aa357610aa26123ff565b5b905f5260205f20906008020160070160019054906101000a900460ff1615610b00576040517f08c379a0000000000000000000000000000000000000000000000000000000008152600401610af790612504565b60405180910390fd5b5f808673ffffffffffffffffffffffffffffffffffffffff1673ffffffffffffffffffffffffffffffffffffffff1681526020019081526020015f20600187610b4991906123cc565b81548110610b5a57610b596123ff565b5b905f5260205f2090600802016007015f9054906101000a900460ff1615610bb6576040517f08c379a0000000000000000000000000000000000000000000000000000000008152600401610bad90612504565b60405180910390fd5b5f805f8773ffffffffffffffffffffffffffffffffffffffff1673ffffffffffffffffffffffffffffffffffffffff1681526020019081526020015f20600188610c0091906123cc565b81548110610c1157610c106123ff565b5b905f5260205f20906008020190508060040154816005015460055f8973ffffffffffffffffffffffffffffffffffffffff1673ffffffffffffffffffffffffffffffffffffffff1681526020019081526020015f205f8a81526020019081526020015f208054905060055f8a73ffffffffffffffffffffffffffffffffffffffff1673ffffffffffffffffffffffffffffffffffffffff1681526020019081526020015f205f8b81526020019081526020015f2080805480602002602001604051908101604052809291908181526020018280548015610d4357602002820191905f5260205f20905b815f9054906101000a900473ffffffffffffffffffffffffffffffffffffffff1673ffffffffffffffffffffffffffffffffffffffff1681526020019060010190808311610cfa575b5050505050905094509450945094505092959194509250565b610d6461182f565b5f60605f805f8673ffffffffffffffffffffffffffffffffffffffff1673ffffffffffffffffffffffffffffffffffffffff1681526020019081526020015f20600187610db191906123cc565b81548110610dc257610dc16123ff565b5b905f5260205f209060080201604051806101200160405290815f8201548152602001600182018054610df39061236f565b80601f0160208091040260200160405190810160405280929190818152602001828054610e1f9061236f565b8015610e6a5780601f10610e4157610100808354040283529160200191610e6a565b820191905f5260205f20905b815481529060010190602001808311610e4d57829003601f168201915b50505050508152602001600282018054610e839061236f565b80601f0160208091040260200160405190810160405280929190818152602001828054610eaf9061236f565b8015610efa5780601f10610ed157610100808354040283529160200191610efa565b820191905f5260205f20905b815481529060010190602001808311610edd57829003601f168201915b50505050508152602001600382015f9054906101000a900473ffffffffffffffffffffffffffffffffffffffff1673ffffffffffffffffffffffffffffffffffffffff1673ffffffffffffffffffffffffffffffffffffffff168152602001600482015481526020016005820154815260200160068201548152602001600782015f9054906101000a900460ff161515151581526020016007820160019054906101000a900460ff16151515158152505090508060055f8773ffffffffffffffffffffffffffffffffffffffff1673ffffffffffffffffffffffffffffffffffffffff1681526020019081526020015f205f8881526020019081526020015f208054905060055f8873ffffffffffffffffffffffffffffffffffffffff1673ffffffffffffffffffffffffffffffffffffffff1681526020019081526020015f205f8981526020019081526020015f20808054806020026020016040519081016040528092919081815260200182805480156110c857602002820191905f5260205f20905b815f9054906101000a900473ffffffffffffffffffffffffffffffffffffffff1673ffffffffffffffffffffffffffffffffffffffff168152602001906001019080831161107f575b50505050509050935093509350509250925092565b5f60065f9054906101000a900473ffffffffffffffffffffffffffffffffffffffff1673ffffffffffffffffffffffffffffffffffffffff163373ffffffffffffffffffffffffffffffffffffffff161461116d576040517f08c379a000000000000000000000000000000000000000000000000000000000815260040161116490612592565b60405180910390fd5b47905090565b5f805f8373ffffffffffffffffffffffffffffffffffffffff1673ffffffffffffffffffffffffffffffffffffffff1681526020019081526020015f206001846111bd91906123cc565b815481106111ce576111cd6123ff565b5b905f5260205f20906008020160070160019054906101000a900460ff161561122b576040517f08c379a0000000000000000000000000000000000000000000000000000000008152600401611222906125fa565b60405180910390fd5b5f808373ffffffffffffffffffffffffffffffffffffffff1673ffffffffffffffffffffffffffffffffffffffff1681526020019081526020015f2060018461127491906123cc565b81548110611285576112846123ff565b5b905f5260205f2090600802016007015f9054906101000a900460ff166112e0576040517f08c379a00000000000000000000000000000000000000000000000000000000081526004016112d790612688565b60405180910390fd5b5f808373ffffffffffffffffffffffffffffffffffffffff1673ffffffffffffffffffffffffffffffffffffffff1681526020019081526020015f2060018461132991906123cc565b8154811061133a576113396123ff565b5b905f5260205f20906008020160050154905092915050565b6003602052815f5260405f20818154811061136b575f80fd5b905f5260205f2090600402015f9150915050805f015f9054906101000a900473ffffffffffffffffffffffffffffffffffffffff16908060010154908060020180546113b69061236f565b80601f01602080910402602001604051908101604052809291908181526020018280546113e29061236f565b801561142d5780601f106114045761010080835404028352916020019161142d565b820191905f5260205f20905b81548152906001019060200180831161141057829003601f168201915b5050505050908060030154905084565b6001602052815f5260405f20602052805f5260405f205f915091509054906101000a900460ff1681565b606060045f8373ffffffffffffffffffffffffffffffffffffffff1673ffffffffffffffffffffffffffffffffffffffff1681526020019081526020015f20805480602002602001604051908101604052809291908181526020015f905b82821015611642578382905f5260205f2090600502016040518060a00160405290815f82015481526020016001820180546114ff9061236f565b80601f016020809104026020016040519081016040528092919081815260200182805461152b9061236f565b80156115765780601f1061154d57610100808354040283529160200191611576565b820191905f5260205f20905b81548152906001019060200180831161155957829003601f168201915b5050505050815260200160028201548152602001600382015f9054906101000a900473ffffffffffffffffffffffffffffffffffffffff1673ffffffffffffffffffffffffffffffffffffffff1673ffffffffffffffffffffffffffffffffffffffff168152602001600482015f9054906101000a900473ffffffffffffffffffffffffffffffffffffffff1673ffffffffffffffffffffffffffffffffffffffff1673ffffffffffffffffffffffffffffffffffffffff1681525050815260200190600101906114c5565b505050509050919050565b6005602052825f5260405f20602052815f5260405f208181548110611670575f80fd5b905f5260205f20015f92509250509054906101000a900473ffffffffffffffffffffffffffffffffffffffff1681565b606060035f3373ffffffffffffffffffffffffffffffffffffffff1673ffffffffffffffffffffffffffffffffffffffff1681526020019081526020015f20805480602002602001604051908101604052809291908181526020015f905b82821015611826578382905f5260205f2090600402016040518060800160405290815f82015f9054906101000a900473ffffffffffffffffffffffffffffffffffffffff1673ffffffffffffffffffffffffffffffffffffffff1673ffffffffffffffffffffffffffffffffffffffff1681526020016001820154815260200160028201805461178d9061236f565b80601f01602080910402602001604051908101604052809291908181526020018280546117b99061236f565b80156118045780601f106117db57610100808354040283529160200191611804565b820191905f5260205f20905b8154815290600101906020018083116117e757829003601f168201915b50505050508152602001600382015481525050815260200190600101906116fe565b50505050905090565b6040518061012001604052805f815260200160608152602001606081526020015f73ffffffffffffffffffffffffffffffffffffffff1681526020015f81526020015f81526020015f81526020015f151581526020015f151581525090565b5f80fd5b5f73ffffffffffffffffffffffffffffffffffffffff82169050919050565b5f6118bb82611892565b9050919050565b6118cb816118b1565b81146118d5575f80fd5b50565b5f813590506118e6816118c2565b92915050565b5f819050919050565b6118fe816118ec565b8114611908575f80fd5b50565b5f81359050611919816118f5565b92915050565b5f80604083850312156119355761193461188e565b5b5f611942858286016118d8565b92505060206119538582860161190b565b9150509250929050565b611966816118ec565b82525050565b5f81519050919050565b5f82825260208201905092915050565b8281835e5f83830152505050565b5f601f19601f8301169050919050565b5f6119ae8261196c565b6119b88185611976565b93506119c8818560208601611986565b6119d181611994565b840191505092915050565b6119e5816118b1565b82525050565b5f8115159050919050565b6119ff816119eb565b82525050565b5f61012082019050611a195f83018c61195d565b8181036020830152611a2b818b6119a4565b90508181036040830152611a3f818a6119a4565b9050611a4e60608301896119dc565b611a5b608083018861195d565b611a6860a083018761195d565b611a7560c083018661195d565b611a8260e08301856119f6565b611a906101008301846119f6565b9a9950505050505050505050565b5f602082019050611ab15f8301846119dc565b92915050565b5f60208284031215611acc57611acb61188e565b5b5f611ad9848285016118d8565b91505092915050565b5f81519050919050565b5f82825260208201905092915050565b5f819050602082019050919050565b611b14816118b1565b82525050565b5f611b258383611b0b565b60208301905092915050565b5f602082019050919050565b5f611b4782611ae2565b611b518185611aec565b9350611b5c83611afc565b805f5b83811015611b8c578151611b738882611b1a565b9750611b7e83611b31565b925050600181019050611b5f565b5085935050505092915050565b5f6020820190508181035f830152611bb18184611b3d565b905092915050565b5f81519050919050565b5f82825260208201905092915050565b5f819050602082019050919050565b611beb816118ec565b82525050565b5f82825260208201905092915050565b5f611c0b8261196c565b611c158185611bf1565b9350611c25818560208601611986565b611c2e81611994565b840191505092915050565b611c42816119eb565b82525050565b5f61012083015f830151611c5e5f860182611be2565b5060208301518482036020860152611c768282611c01565b91505060408301518482036040860152611c908282611c01565b9150506060830151611ca56060860182611b0b565b506080830151611cb86080860182611be2565b5060a0830151611ccb60a0860182611be2565b5060c0830151611cde60c0860182611be2565b5060e0830151611cf160e0860182611c39565b50610100830151611d06610100860182611c39565b508091505092915050565b5f611d1c8383611c48565b905092915050565b5f602082019050919050565b5f611d3a82611bb9565b611d448185611bc3565b935083602082028501611d5685611bd3565b805f5b85811015611d915784840389528151611d728582611d11565b9450611d7d83611d24565b925060208a01995050600181019050611d59565b50829750879550505050505092915050565b5f6020820190508181035f830152611dbb8184611d30565b905092915050565b5f60a082019050611dd65f83018861195d565b8181036020830152611de881876119a4565b9050611df7604083018661195d565b611e0460608301856119dc565b611e1160808301846119dc565b9695505050505050565b5f8060408385031215611e3157611e3061188e565b5b5f611e3e8582860161190b565b9250506020611e4f858286016118d8565b9150509250929050565b5f608082019050611e6c5f83018761195d565b611e79602083018661195d565b611e86604083018561195d565b8181036060830152611e988184611b3d565b905095945050505050565b5f61012083015f830151611eb95f860182611be2565b5060208301518482036020860152611ed18282611c01565b91505060408301518482036040860152611eeb8282611c01565b9150506060830151611f006060860182611b0b565b506080830151611f136080860182611be2565b5060a0830151611f2660a0860182611be2565b5060c0830151611f3960c0860182611be2565b5060e0830151611f4c60e0860182611c39565b50610100830151611f61610100860182611c39565b508091505092915050565b5f6060820190508181035f830152611f848186611ea3565b9050611f93602083018561195d565b8181036040830152611fa58184611b3d565b9050949350505050565b5f602082019050611fc25f83018461195d565b92915050565b5f608082019050611fdb5f8301876119dc565b611fe8602083018661195d565b8181036040830152611ffa81856119a4565b9050612009606083018461195d565b95945050505050565b5f80604083850312156120285761202761188e565b5b5f612035858286016118d8565b9250506020612046858286016118d8565b9150509250929050565b5f6020820190506120635f8301846119f6565b92915050565b5f81519050919050565b5f82825260208201905092915050565b5f819050602082019050919050565b5f60a083015f8301516120a75f860182611be2565b50602083015184820360208601526120bf8282611c01565b91505060408301516120d46040860182611be2565b5060608301516120e76060860182611b0b565b5060808301516120fa6080860182611b0b565b508091505092915050565b5f6121108383612092565b905092915050565b5f602082019050919050565b5f61212e82612069565b6121388185612073565b93508360208202850161214a85612083565b805f5b8581101561218557848403895281516121668582612105565b945061217183612118565b925060208a0199505060018101905061214d565b50829750879550505050505092915050565b5f6020820190508181035f8301526121af8184612124565b905092915050565b5f805f606084860312156121ce576121cd61188e565b5b5f6121db868287016118d8565b93505060206121ec8682870161190b565b92505060406121fd8682870161190b565b9150509250925092565b5f81519050919050565b5f82825260208201905092915050565b5f819050602082019050919050565b5f608083015f8301516122455f860182611b0b565b5060208301516122586020860182611be2565b50604083015184820360408601526122708282611c01565b91505060608301516122856060860182611be2565b508091505092915050565b5f61229b8383612230565b905092915050565b5f602082019050919050565b5f6122b982612207565b6122c38185612211565b9350836020820285016122d585612221565b805f5b8581101561231057848403895281516122f18582612290565b94506122fc836122a3565b925060208a019950506001810190506122d8565b50829750879550505050505092915050565b5f6020820190508181035f83015261233a81846122af565b905092915050565b7f4e487b71000000000000000000000000000000000000000000000000000000005f52602260045260245ffd5b5f600282049050600182168061238657607f821691505b60208210810361239957612398612342565b5b50919050565b7f4e487b71000000000000000000000000000000000000000000000000000000005f52601160045260245ffd5b5f6123d6826118ec565b91506123e1836118ec565b92508282039050818111156123f9576123f861239f565b5b92915050565b7f4e487b71000000000000000000000000000000000000000000000000000000005f52603260045260245ffd5b7f5468652043616d706169676e2057617320436f6d706c657465642100000000005f82015250565b5f612460601b83611976565b915061246b8261242c565b602082019050919050565b5f6020820190508181035f83015261248d81612454565b9050919050565b7f546869732043616d706169676e20486173204265656e2043616e63656c6c65645f8201527f2100000000000000000000000000000000000000000000000000000000000000602082015250565b5f6124ee602183611976565b91506124f982612494565b604082019050919050565b5f6020820190508181035f83015261251b816124e2565b9050919050565b7f4f6e6c7920436f6e7472616374204f776e65722043616e20506572666f726d205f8201527f5468697320416374696f6e210000000000000000000000000000000000000000602082015250565b5f61257c602c83611976565b915061258782612522565b604082019050919050565b5f6020820190508181035f8301526125a981612570565b9050919050565b7f546869732043616d706169676e205761732043616e63656c6c656421000000005f82015250565b5f6125e4601c83611976565b91506125ef826125b0565b602082019050919050565b5f6020820190508181035f830152612611816125d8565b9050919050565b7f546869732043616d706169676e204973205374696c6c20496e2050726f6772655f8201527f7373210000000000000000000000000000000000000000000000000000000000602082015250565b5f612672602383611976565b915061267d82612618565b604082019050919050565b5f6020820190508181035f83015261269f81612666565b905091905056fea264697066735822122015f239d23cb0250d070b020d31db18e287668be1ea7f9113840b388eedbcbde864736f6c634300081a0033",
					"opcodes": "PUSH1 0x80 PUSH1 0x40 MSTORE CALLVALUE DUP1 ISZERO PUSH1 0xE JUMPI PUSH0 DUP1 REVERT JUMPDEST POP CALLER PUSH1 0x6 PUSH0 PUSH2 0x100 EXP DUP2 SLOAD DUP2 PUSH20 0xFFFFFFFFFFFFFFFFFFFFFFFFFFFFFFFFFFFFFFFF MUL NOT AND SWAP1 DUP4 PUSH20 0xFFFFFFFFFFFFFFFFFFFFFFFFFFFFFFFFFFFFFFFF AND MUL OR SWAP1 SSTORE POP PUSH2 0x26DC DUP1 PUSH2 0x5C PUSH0 CODECOPY PUSH0 RETURN INVALID PUSH1 0x80 PUSH1 0x40 MSTORE CALLVALUE DUP1 ISZERO PUSH2 0xF JUMPI PUSH0 DUP1 REVERT JUMPDEST POP PUSH1 0x4 CALLDATASIZE LT PUSH2 0xE8 JUMPI PUSH0 CALLDATALOAD PUSH1 0xE0 SHR DUP1 PUSH4 0x6F9FB98A GT PUSH2 0x8A JUMPI DUP1 PUSH4 0xBE21739E GT PUSH2 0x64 JUMPI DUP1 PUSH4 0xBE21739E EQ PUSH2 0x2BC JUMPI DUP1 PUSH4 0xDF171C0D EQ PUSH2 0x2EC JUMPI DUP1 PUSH4 0xE6C9099A EQ PUSH2 0x31C JUMPI DUP1 PUSH4 0xE81C411D EQ PUSH2 0x34C JUMPI PUSH2 0xE8 JUMP JUMPDEST DUP1 PUSH4 0x6F9FB98A EQ PUSH2 0x23B JUMPI DUP1 PUSH4 0x82FED30B EQ PUSH2 0x259 JUMPI DUP1 PUSH4 0x9B56F5F0 EQ PUSH2 0x289 JUMPI PUSH2 0xE8 JUMP JUMPDEST DUP1 PUSH4 0x366919E9 GT PUSH2 0xC6 JUMPI DUP1 PUSH4 0x366919E9 EQ PUSH2 0x184 JUMPI DUP1 PUSH4 0x422B1077 EQ PUSH2 0x1A2 JUMPI DUP1 PUSH4 0x584BEA2C EQ PUSH2 0x1D6 JUMPI DUP1 PUSH4 0x675B6211 EQ PUSH2 0x209 JUMPI PUSH2 0xE8 JUMP JUMPDEST DUP1 PUSH4 0x11555DBC EQ PUSH2 0xEC JUMPI DUP1 PUSH4 0x1F55E5BC EQ PUSH2 0x124 JUMPI DUP1 PUSH4 0x28F5BD9B EQ PUSH2 0x154 JUMPI JUMPDEST PUSH0 DUP1 REVERT JUMPDEST PUSH2 0x106 PUSH1 0x4 DUP1 CALLDATASIZE SUB DUP2 ADD SWAP1 PUSH2 0x101 SWAP2 SWAP1 PUSH2 0x191F JUMP JUMPDEST PUSH2 0x36A JUMP JUMPDEST PUSH1 0x40 MLOAD PUSH2 0x11B SWAP10 SWAP9 SWAP8 SWAP7 SWAP6 SWAP5 SWAP4 SWAP3 SWAP2 SWAP1 PUSH2 0x1A05 JUMP JUMPDEST PUSH1 0x40 MLOAD DUP1 SWAP2 SUB SWAP1 RETURN JUMPDEST PUSH2 0x13E PUSH1 0x4 DUP1 CALLDATASIZE SUB DUP2 ADD SWAP1 PUSH2 0x139 SWAP2 SWAP1 PUSH2 0x191F JUMP JUMPDEST PUSH2 0x511 JUMP JUMPDEST PUSH1 0x40 MLOAD PUSH2 0x14B SWAP2 SWAP1 PUSH2 0x1A9E JUMP JUMPDEST PUSH1 0x40 MLOAD DUP1 SWAP2 SUB SWAP1 RETURN JUMPDEST PUSH2 0x16E PUSH1 0x4 DUP1 CALLDATASIZE SUB DUP2 ADD SWAP1 PUSH2 0x169 SWAP2 SWAP1 PUSH2 0x1AB7 JUMP JUMPDEST PUSH2 0x559 JUMP JUMPDEST PUSH1 0x40 MLOAD PUSH2 0x17B SWAP2 SWAP1 PUSH2 0x1B99 JUMP JUMPDEST PUSH1 0x40 MLOAD DUP1 SWAP2 SUB SWAP1 RETURN JUMPDEST PUSH2 0x18C PUSH2 0x621 JUMP JUMPDEST PUSH1 0x40 MLOAD PUSH2 0x199 SWAP2 SWAP1 PUSH2 0x1DA3 JUMP JUMPDEST PUSH1 0x40 MLOAD DUP1 SWAP2 SUB SWAP1 RETURN JUMPDEST PUSH2 0x1BC PUSH1 0x4 DUP1 CALLDATASIZE SUB DUP2 ADD SWAP1 PUSH2 0x1B7 SWAP2 SWAP1 PUSH2 0x191F JUMP JUMPDEST PUSH2 0x889 JUMP JUMPDEST PUSH1 0x40 MLOAD PUSH2 0x1CD SWAP6 SWAP5 SWAP4 SWAP3 SWAP2 SWAP1 PUSH2 0x1DC3 JUMP JUMPDEST PUSH1 0x40 MLOAD DUP1 SWAP2 SUB SWAP1 RETURN JUMPDEST PUSH2 0x1F0 PUSH1 0x4 DUP1 CALLDATASIZE SUB DUP2 ADD SWAP1 PUSH2 0x1EB SWAP2 SWAP1 PUSH2 0x1E1B JUMP JUMPDEST PUSH2 0x999 JUMP JUMPDEST PUSH1 0x40 MLOAD PUSH2 0x200 SWAP5 SWAP4 SWAP3 SWAP2 SWAP1 PUSH2 0x1E59 JUMP JUMPDEST PUSH1 0x40 MLOAD DUP1 SWAP2 SUB SWAP1 RETURN JUMPDEST PUSH2 0x223 PUSH1 0x4 DUP1 CALLDATASIZE SUB DUP2 ADD SWAP1 PUSH2 0x21E SWAP2 SWAP1 PUSH2 0x1E1B JUMP JUMPDEST PUSH2 0xD5C JUMP JUMPDEST PUSH1 0x40 MLOAD PUSH2 0x232 SWAP4 SWAP3 SWAP2 SWAP1 PUSH2 0x1F6C JUMP JUMPDEST PUSH1 0x40 MLOAD DUP1 SWAP2 SUB SWAP1 RETURN JUMPDEST PUSH2 0x243 PUSH2 0x10DD JUMP JUMPDEST PUSH1 0x40 MLOAD PUSH2 0x250 SWAP2 SWAP1 PUSH2 0x1FAF JUMP JUMPDEST PUSH1 0x40 MLOAD DUP1 SWAP2 SUB SWAP1 RETURN JUMPDEST PUSH2 0x273 PUSH1 0x4 DUP1 CALLDATASIZE SUB DUP2 ADD SWAP1 PUSH2 0x26E SWAP2 SWAP1 PUSH2 0x1E1B JUMP JUMPDEST PUSH2 0x1173 JUMP JUMPDEST PUSH1 0x40 MLOAD PUSH2 0x280 SWAP2 SWAP1 PUSH2 0x1FAF JUMP JUMPDEST PUSH1 0x40 MLOAD DUP1 SWAP2 SUB SWAP1 RETURN JUMPDEST PUSH2 0x2A3 PUSH1 0x4 DUP1 CALLDATASIZE SUB DUP2 ADD SWAP1 PUSH2 0x29E SWAP2 SWAP1 PUSH2 0x191F JUMP JUMPDEST PUSH2 0x1352 JUMP JUMPDEST PUSH1 0x40 MLOAD PUSH2 0x2B3 SWAP5 SWAP4 SWAP3 SWAP2 SWAP1 PUSH2 0x1FC8 JUMP JUMPDEST PUSH1 0x40 MLOAD DUP1 SWAP2 SUB SWAP1 RETURN JUMPDEST PUSH2 0x2D6 PUSH1 0x4 DUP1 CALLDATASIZE SUB DUP2 ADD SWAP1 PUSH2 0x2D1 SWAP2 SWAP1 PUSH2 0x2012 JUMP JUMPDEST PUSH2 0x143D JUMP JUMPDEST PUSH1 0x40 MLOAD PUSH2 0x2E3 SWAP2 SWAP1 PUSH2 0x2050 JUMP JUMPDEST PUSH1 0x40 MLOAD DUP1 SWAP2 SUB SWAP1 RETURN JUMPDEST PUSH2 0x306 PUSH1 0x4 DUP1 CALLDATASIZE SUB DUP2 ADD SWAP1 PUSH2 0x301 SWAP2 SWAP1 PUSH2 0x1AB7 JUMP JUMPDEST PUSH2 0x1467 JUMP JUMPDEST PUSH1 0x40 MLOAD PUSH2 0x313 SWAP2 SWAP1 PUSH2 0x2197 JUMP JUMPDEST PUSH1 0x40 MLOAD DUP1 SWAP2 SUB SWAP1 RETURN JUMPDEST PUSH2 0x336 PUSH1 0x4 DUP1 CALLDATASIZE SUB DUP2 ADD SWAP1 PUSH2 0x331 SWAP2 SWAP1 PUSH2 0x21B7 JUMP JUMPDEST PUSH2 0x164D JUMP JUMPDEST PUSH1 0x40 MLOAD PUSH2 0x343 SWAP2 SWAP1 PUSH2 0x1A9E JUMP JUMPDEST PUSH1 0x40 MLOAD DUP1 SWAP2 SUB SWAP1 RETURN JUMPDEST PUSH2 0x354 PUSH2 0x16A0 JUMP JUMPDEST PUSH1 0x40 MLOAD PUSH2 0x361 SWAP2 SWAP1 PUSH2 0x2322 JUMP JUMPDEST PUSH1 0x40 MLOAD DUP1 SWAP2 SUB SWAP1 RETURN JUMPDEST PUSH0 PUSH1 0x20 MSTORE DUP2 PUSH0 MSTORE PUSH1 0x40 PUSH0 KECCAK256 DUP2 DUP2 SLOAD DUP2 LT PUSH2 0x382 JUMPI PUSH0 DUP1 REVERT JUMPDEST SWAP1 PUSH0 MSTORE PUSH1 0x20 PUSH0 KECCAK256 SWAP1 PUSH1 0x8 MUL ADD PUSH0 SWAP2 POP SWAP2 POP POP DUP1 PUSH0 ADD SLOAD SWAP1 DUP1 PUSH1 0x1 ADD DUP1 SLOAD PUSH2 0x3A8 SWAP1 PUSH2 0x236F JUMP JUMPDEST DUP1 PUSH1 0x1F ADD PUSH1 0x20 DUP1 SWAP2 DIV MUL PUSH1 0x20 ADD PUSH1 0x40 MLOAD SWAP1 DUP2 ADD PUSH1 0x40 MSTORE DUP1 SWAP3 SWAP2 SWAP1 DUP2 DUP2 MSTORE PUSH1 0x20 ADD DUP3 DUP1 SLOAD PUSH2 0x3D4 SWAP1 PUSH2 0x236F JUMP JUMPDEST DUP1 ISZERO PUSH2 0x41F JUMPI DUP1 PUSH1 0x1F LT PUSH2 0x3F6 JUMPI PUSH2 0x100 DUP1 DUP4 SLOAD DIV MUL DUP4 MSTORE SWAP2 PUSH1 0x20 ADD SWAP2 PUSH2 0x41F JUMP JUMPDEST DUP3 ADD SWAP2 SWAP1 PUSH0 MSTORE PUSH1 0x20 PUSH0 KECCAK256 SWAP1 JUMPDEST DUP2 SLOAD DUP2 MSTORE SWAP1 PUSH1 0x1 ADD SWAP1 PUSH1 0x20 ADD DUP1 DUP4 GT PUSH2 0x402 JUMPI DUP3 SWAP1 SUB PUSH1 0x1F AND DUP3 ADD SWAP2 JUMPDEST POP POP POP POP POP SWAP1 DUP1 PUSH1 0x2 ADD DUP1 SLOAD PUSH2 0x434 SWAP1 PUSH2 0x236F JUMP JUMPDEST DUP1 PUSH1 0x1F ADD PUSH1 0x20 DUP1 SWAP2 DIV MUL PUSH1 0x20 ADD PUSH1 0x40 MLOAD SWAP1 DUP2 ADD PUSH1 0x40 MSTORE DUP1 SWAP3 SWAP2 SWAP1 DUP2 DUP2 MSTORE PUSH1 0x20 ADD DUP3 DUP1 SLOAD PUSH2 0x460 SWAP1 PUSH2 0x236F JUMP JUMPDEST DUP1 ISZERO PUSH2 0x4AB JUMPI DUP1 PUSH1 0x1F LT PUSH2 0x482 JUMPI PUSH2 0x100 DUP1 DUP4 SLOAD DIV MUL DUP4 MSTORE SWAP2 PUSH1 0x20 ADD SWAP2 PUSH2 0x4AB JUMP JUMPDEST DUP3 ADD SWAP2 SWAP1 PUSH0 MSTORE PUSH1 0x20 PUSH0 KECCAK256 SWAP1 JUMPDEST DUP2 SLOAD DUP2 MSTORE SWAP1 PUSH1 0x1 ADD SWAP1 PUSH1 0x20 ADD DUP1 DUP4 GT PUSH2 0x48E JUMPI DUP3 SWAP1 SUB PUSH1 0x1F AND DUP3 ADD SWAP2 JUMPDEST POP POP POP POP POP SWAP1 DUP1 PUSH1 0x3 ADD PUSH0 SWAP1 SLOAD SWAP1 PUSH2 0x100 EXP SWAP1 DIV PUSH20 0xFFFFFFFFFFFFFFFFFFFFFFFFFFFFFFFFFFFFFFFF AND SWAP1 DUP1 PUSH1 0x4 ADD SLOAD SWAP1 DUP1 PUSH1 0x5 ADD SLOAD SWAP1 DUP1 PUSH1 0x6 ADD SLOAD SWAP1 DUP1 PUSH1 0x7 ADD PUSH0 SWAP1 SLOAD SWAP1 PUSH2 0x100 EXP SWAP1 DIV PUSH1 0xFF AND SWAP1 DUP1 PUSH1 0x7 ADD PUSH1 0x1 SWAP1 SLOAD SWAP1 PUSH2 0x100 EXP SWAP1 DIV PUSH1 0xFF AND SWAP1 POP DUP10 JUMP JUMPDEST PUSH1 0x2 PUSH1 0x20 MSTORE DUP2 PUSH0 MSTORE PUSH1 0x40 PUSH0 KECCAK256 DUP2 DUP2 SLOAD DUP2 LT PUSH2 0x52A JUMPI PUSH0 DUP1 REVERT JUMPDEST SWAP1 PUSH0 MSTORE PUSH1 0x20 PUSH0 KECCAK256 ADD PUSH0 SWAP2 POP SWAP2 POP SWAP1 SLOAD SWAP1 PUSH2 0x100 EXP SWAP1 DIV PUSH20 0xFFFFFFFFFFFFFFFFFFFFFFFFFFFFFFFFFFFFFFFF AND DUP2 JUMP JUMPDEST PUSH1 0x60 PUSH1 0x2 PUSH0 DUP4 PUSH20 0xFFFFFFFFFFFFFFFFFFFFFFFFFFFFFFFFFFFFFFFF AND PUSH20 0xFFFFFFFFFFFFFFFFFFFFFFFFFFFFFFFFFFFFFFFF AND DUP2 MSTORE PUSH1 0x20 ADD SWAP1 DUP2 MSTORE PUSH1 0x20 ADD PUSH0 KECCAK256 DUP1 SLOAD DUP1 PUSH1 0x20 MUL PUSH1 0x20 ADD PUSH1 0x40 MLOAD SWAP1 DUP2 ADD PUSH1 0x40 MSTORE DUP1 SWAP3 SWAP2 SWAP1 DUP2 DUP2 MSTORE PUSH1 0x20 ADD DUP3 DUP1 SLOAD DUP1 ISZERO PUSH2 0x615 JUMPI PUSH1 0x20 MUL DUP3 ADD SWAP2 SWAP1 PUSH0 MSTORE PUSH1 0x20 PUSH0 KECCAK256 SWAP1 JUMPDEST DUP2 PUSH0 SWAP1 SLOAD SWAP1 PUSH2 0x100 EXP SWAP1 DIV PUSH20 0xFFFFFFFFFFFFFFFFFFFFFFFFFFFFFFFFFFFFFFFF AND PUSH20 0xFFFFFFFFFFFFFFFFFFFFFFFFFFFFFFFFFFFFFFFF AND DUP2 MSTORE PUSH1 0x20 ADD SWAP1 PUSH1 0x1 ADD SWAP1 DUP1 DUP4 GT PUSH2 0x5CC JUMPI JUMPDEST POP POP POP POP POP SWAP1 POP SWAP2 SWAP1 POP JUMP JUMPDEST PUSH1 0x60 PUSH0 DUP1 CALLER PUSH20 0xFFFFFFFFFFFFFFFFFFFFFFFFFFFFFFFFFFFFFFFF AND PUSH20 0xFFFFFFFFFFFFFFFFFFFFFFFFFFFFFFFFFFFFFFFF AND DUP2 MSTORE PUSH1 0x20 ADD SWAP1 DUP2 MSTORE PUSH1 0x20 ADD PUSH0 KECCAK256 DUP1 SLOAD DUP1 PUSH1 0x20 MUL PUSH1 0x20 ADD PUSH1 0x40 MLOAD SWAP1 DUP2 ADD PUSH1 0x40 MSTORE DUP1 SWAP3 SWAP2 SWAP1 DUP2 DUP2 MSTORE PUSH1 0x20 ADD PUSH0 SWAP1 JUMPDEST DUP3 DUP3 LT ISZERO PUSH2 0x880 JUMPI DUP4 DUP3 SWAP1 PUSH0 MSTORE PUSH1 0x20 PUSH0 KECCAK256 SWAP1 PUSH1 0x8 MUL ADD PUSH1 0x40 MLOAD DUP1 PUSH2 0x120 ADD PUSH1 0x40 MSTORE SWAP1 DUP2 PUSH0 DUP3 ADD SLOAD DUP2 MSTORE PUSH1 0x20 ADD PUSH1 0x1 DUP3 ADD DUP1 SLOAD PUSH2 0x6B9 SWAP1 PUSH2 0x236F JUMP JUMPDEST DUP1 PUSH1 0x1F ADD PUSH1 0x20 DUP1 SWAP2 DIV MUL PUSH1 0x20 ADD PUSH1 0x40 MLOAD SWAP1 DUP2 ADD PUSH1 0x40 MSTORE DUP1 SWAP3 SWAP2 SWAP1 DUP2 DUP2 MSTORE PUSH1 0x20 ADD DUP3 DUP1 SLOAD PUSH2 0x6E5 SWAP1 PUSH2 0x236F JUMP JUMPDEST DUP1 ISZERO PUSH2 0x730 JUMPI DUP1 PUSH1 0x1F LT PUSH2 0x707 JUMPI PUSH2 0x100 DUP1 DUP4 SLOAD DIV MUL DUP4 MSTORE SWAP2 PUSH1 0x20 ADD SWAP2 PUSH2 0x730 JUMP JUMPDEST DUP3 ADD SWAP2 SWAP1 PUSH0 MSTORE PUSH1 0x20 PUSH0 KECCAK256 SWAP1 JUMPDEST DUP2 SLOAD DUP2 MSTORE SWAP1 PUSH1 0x1 ADD SWAP1 PUSH1 0x20 ADD DUP1 DUP4 GT PUSH2 0x713 JUMPI DUP3 SWAP1 SUB PUSH1 0x1F AND DUP3 ADD SWAP2 JUMPDEST POP POP POP POP POP DUP2 MSTORE PUSH1 0x20 ADD PUSH1 0x2 DUP3 ADD DUP1 SLOAD PUSH2 0x749 SWAP1 PUSH2 0x236F JUMP JUMPDEST DUP1 PUSH1 0x1F ADD PUSH1 0x20 DUP1 SWAP2 DIV MUL PUSH1 0x20 ADD PUSH1 0x40 MLOAD SWAP1 DUP2 ADD PUSH1 0x40 MSTORE DUP1 SWAP3 SWAP2 SWAP1 DUP2 DUP2 MSTORE PUSH1 0x20 ADD DUP3 DUP1 SLOAD PUSH2 0x775 SWAP1 PUSH2 0x236F JUMP JUMPDEST DUP1 ISZERO PUSH2 0x7C0 JUMPI DUP1 PUSH1 0x1F LT PUSH2 0x797 JUMPI PUSH2 0x100 DUP1 DUP4 SLOAD DIV MUL DUP4 MSTORE SWAP2 PUSH1 0x20 ADD SWAP2 PUSH2 0x7C0 JUMP JUMPDEST DUP3 ADD SWAP2 SWAP1 PUSH0 MSTORE PUSH1 0x20 PUSH0 KECCAK256 SWAP1 JUMPDEST DUP2 SLOAD DUP2 MSTORE SWAP1 PUSH1 0x1 ADD SWAP1 PUSH1 0x20 ADD DUP1 DUP4 GT PUSH2 0x7A3 JUMPI DUP3 SWAP1 SUB PUSH1 0x1F AND DUP3 ADD SWAP2 JUMPDEST POP POP POP POP POP DUP2 MSTORE PUSH1 0x20 ADD PUSH1 0x3 DUP3 ADD PUSH0 SWAP1 SLOAD SWAP1 PUSH2 0x100 EXP SWAP1 DIV PUSH20 0xFFFFFFFFFFFFFFFFFFFFFFFFFFFFFFFFFFFFFFFF AND PUSH20 0xFFFFFFFFFFFFFFFFFFFFFFFFFFFFFFFFFFFFFFFF AND PUSH20 0xFFFFFFFFFFFFFFFFFFFFFFFFFFFFFFFFFFFFFFFF AND DUP2 MSTORE PUSH1 0x20 ADD PUSH1 0x4 DUP3 ADD SLOAD DUP2 MSTORE PUSH1 0x20 ADD PUSH1 0x5 DUP3 ADD SLOAD DUP2 MSTORE PUSH1 0x20 ADD PUSH1 0x6 DUP3 ADD SLOAD DUP2 MSTORE PUSH1 0x20 ADD PUSH1 0x7 DUP3 ADD PUSH0 SWAP1 SLOAD SWAP1 PUSH2 0x100 EXP SWAP1 DIV PUSH1 0xFF AND ISZERO ISZERO ISZERO ISZERO DUP2 MSTORE PUSH1 0x20 ADD PUSH1 0x7 DUP3 ADD PUSH1 0x1 SWAP1 SLOAD SWAP1 PUSH2 0x100 EXP SWAP1 DIV PUSH1 0xFF AND ISZERO ISZERO ISZERO ISZERO DUP2 MSTORE POP POP DUP2 MSTORE PUSH1 0x20 ADD SWAP1 PUSH1 0x1 ADD SWAP1 PUSH2 0x67E JUMP JUMPDEST POP POP POP POP SWAP1 POP SWAP1 JUMP JUMPDEST PUSH1 0x4 PUSH1 0x20 MSTORE DUP2 PUSH0 MSTORE PUSH1 0x40 PUSH0 KECCAK256 DUP2 DUP2 SLOAD DUP2 LT PUSH2 0x8A2 JUMPI PUSH0 DUP1 REVERT JUMPDEST SWAP1 PUSH0 MSTORE PUSH1 0x20 PUSH0 KECCAK256 SWAP1 PUSH1 0x5 MUL ADD PUSH0 SWAP2 POP SWAP2 POP POP DUP1 PUSH0 ADD SLOAD SWAP1 DUP1 PUSH1 0x1 ADD DUP1 SLOAD PUSH2 0x8C8 SWAP1 PUSH2 0x236F JUMP JUMPDEST DUP1 PUSH1 0x1F ADD PUSH1 0x20 DUP1 SWAP2 DIV MUL PUSH1 0x20 ADD PUSH1 0x40 MLOAD SWAP1 DUP2 ADD PUSH1 0x40 MSTORE DUP1 SWAP3 SWAP2 SWAP1 DUP2 DUP2 MSTORE PUSH1 0x20 ADD DUP3 DUP1 SLOAD PUSH2 0x8F4 SWAP1 PUSH2 0x236F JUMP JUMPDEST DUP1 ISZERO PUSH2 0x93F JUMPI DUP1 PUSH1 0x1F LT PUSH2 0x916 JUMPI PUSH2 0x100 DUP1 DUP4 SLOAD DIV MUL DUP4 MSTORE SWAP2 PUSH1 0x20 ADD SWAP2 PUSH2 0x93F JUMP JUMPDEST DUP3 ADD SWAP2 SWAP1 PUSH0 MSTORE PUSH1 0x20 PUSH0 KECCAK256 SWAP1 JUMPDEST DUP2 SLOAD DUP2 MSTORE SWAP1 PUSH1 0x1 ADD SWAP1 PUSH1 0x20 ADD DUP1 DUP4 GT PUSH2 0x922 JUMPI DUP3 SWAP1 SUB PUSH1 0x1F AND DUP3 ADD SWAP2 JUMPDEST POP POP POP POP POP SWAP1 DUP1 PUSH1 0x2 ADD SLOAD SWAP1 DUP1 PUSH1 0x3 ADD PUSH0 SWAP1 SLOAD SWAP1 PUSH2 0x100 EXP SWAP1 DIV PUSH20 0xFFFFFFFFFFFFFFFFFFFFFFFFFFFFFFFFFFFFFFFF AND SWAP1 DUP1 PUSH1 0x4 ADD PUSH0 SWAP1 SLOAD SWAP1 PUSH2 0x100 EXP SWAP1 DIV PUSH20 0xFFFFFFFFFFFFFFFFFFFFFFFFFFFFFFFFFFFFFFFF AND SWAP1 POP DUP6 JUMP JUMPDEST PUSH0 DUP1 PUSH0 PUSH1 0x60 PUSH0 DUP1 DUP7 PUSH20 0xFFFFFFFFFFFFFFFFFFFFFFFFFFFFFFFFFFFFFFFF AND PUSH20 0xFFFFFFFFFFFFFFFFFFFFFFFFFFFFFFFFFFFFFFFF AND DUP2 MSTORE PUSH1 0x20 ADD SWAP1 DUP2 MSTORE PUSH1 0x20 ADD PUSH0 KECCAK256 PUSH1 0x1 DUP8 PUSH2 0x9E7 SWAP2 SWAP1 PUSH2 0x23CC JUMP JUMPDEST DUP2 SLOAD DUP2 LT PUSH2 0x9F8 JUMPI PUSH2 0x9F7 PUSH2 0x23FF JUMP JUMPDEST JUMPDEST SWAP1 PUSH0 MSTORE PUSH1 0x20 PUSH0 KECCAK256 SWAP1 PUSH1 0x8 MUL ADD PUSH1 0x6 ADD SLOAD TIMESTAMP LT PUSH2 0xA49 JUMPI PUSH1 0x40 MLOAD PUSH32 0x8C379A000000000000000000000000000000000000000000000000000000000 DUP2 MSTORE PUSH1 0x4 ADD PUSH2 0xA40 SWAP1 PUSH2 0x2476 JUMP JUMPDEST PUSH1 0x40 MLOAD DUP1 SWAP2 SUB SWAP1 REVERT JUMPDEST PUSH0 DUP1 DUP7 PUSH20 0xFFFFFFFFFFFFFFFFFFFFFFFFFFFFFFFFFFFFFFFF AND PUSH20 0xFFFFFFFFFFFFFFFFFFFFFFFFFFFFFFFFFFFFFFFF AND DUP2 MSTORE PUSH1 0x20 ADD SWAP1 DUP2 MSTORE PUSH1 0x20 ADD PUSH0 KECCAK256 PUSH1 0x1 DUP8 PUSH2 0xA92 SWAP2 SWAP1 PUSH2 0x23CC JUMP JUMPDEST DUP2 SLOAD DUP2 LT PUSH2 0xAA3 JUMPI PUSH2 0xAA2 PUSH2 0x23FF JUMP JUMPDEST JUMPDEST SWAP1 PUSH0 MSTORE PUSH1 0x20 PUSH0 KECCAK256 SWAP1 PUSH1 0x8 MUL ADD PUSH1 0x7 ADD PUSH1 0x1 SWAP1 SLOAD SWAP1 PUSH2 0x100 EXP SWAP1 DIV PUSH1 0xFF AND ISZERO PUSH2 0xB00 JUMPI PUSH1 0x40 MLOAD PUSH32 0x8C379A000000000000000000000000000000000000000000000000000000000 DUP2 MSTORE PUSH1 0x4 ADD PUSH2 0xAF7 SWAP1 PUSH2 0x2504 JUMP JUMPDEST PUSH1 0x40 MLOAD DUP1 SWAP2 SUB SWAP1 REVERT JUMPDEST PUSH0 DUP1 DUP7 PUSH20 0xFFFFFFFFFFFFFFFFFFFFFFFFFFFFFFFFFFFFFFFF AND PUSH20 0xFFFFFFFFFFFFFFFFFFFFFFFFFFFFFFFFFFFFFFFF AND DUP2 MSTORE PUSH1 0x20 ADD SWAP1 DUP2 MSTORE PUSH1 0x20 ADD PUSH0 KECCAK256 PUSH1 0x1 DUP8 PUSH2 0xB49 SWAP2 SWAP1 PUSH2 0x23CC JUMP JUMPDEST DUP2 SLOAD DUP2 LT PUSH2 0xB5A JUMPI PUSH2 0xB59 PUSH2 0x23FF JUMP JUMPDEST JUMPDEST SWAP1 PUSH0 MSTORE PUSH1 0x20 PUSH0 KECCAK256 SWAP1 PUSH1 0x8 MUL ADD PUSH1 0x7 ADD PUSH0 SWAP1 SLOAD SWAP1 PUSH2 0x100 EXP SWAP1 DIV PUSH1 0xFF AND ISZERO PUSH2 0xBB6 JUMPI PUSH1 0x40 MLOAD PUSH32 0x8C379A000000000000000000000000000000000000000000000000000000000 DUP2 MSTORE PUSH1 0x4 ADD PUSH2 0xBAD SWAP1 PUSH2 0x2504 JUMP JUMPDEST PUSH1 0x40 MLOAD DUP1 SWAP2 SUB SWAP1 REVERT JUMPDEST PUSH0 DUP1 PUSH0 DUP8 PUSH20 0xFFFFFFFFFFFFFFFFFFFFFFFFFFFFFFFFFFFFFFFF AND PUSH20 0xFFFFFFFFFFFFFFFFFFFFFFFFFFFFFFFFFFFFFFFF AND DUP2 MSTORE PUSH1 0x20 ADD SWAP1 DUP2 MSTORE PUSH1 0x20 ADD PUSH0 KECCAK256 PUSH1 0x1 DUP9 PUSH2 0xC00 SWAP2 SWAP1 PUSH2 0x23CC JUMP JUMPDEST DUP2 SLOAD DUP2 LT PUSH2 0xC11 JUMPI PUSH2 0xC10 PUSH2 0x23FF JUMP JUMPDEST JUMPDEST SWAP1 PUSH0 MSTORE PUSH1 0x20 PUSH0 KECCAK256 SWAP1 PUSH1 0x8 MUL ADD SWAP1 POP DUP1 PUSH1 0x4 ADD SLOAD DUP2 PUSH1 0x5 ADD SLOAD PUSH1 0x5 PUSH0 DUP10 PUSH20 0xFFFFFFFFFFFFFFFFFFFFFFFFFFFFFFFFFFFFFFFF AND PUSH20 0xFFFFFFFFFFFFFFFFFFFFFFFFFFFFFFFFFFFFFFFF AND DUP2 MSTORE PUSH1 0x20 ADD SWAP1 DUP2 MSTORE PUSH1 0x20 ADD PUSH0 KECCAK256 PUSH0 DUP11 DUP2 MSTORE PUSH1 0x20 ADD SWAP1 DUP2 MSTORE PUSH1 0x20 ADD PUSH0 KECCAK256 DUP1 SLOAD SWAP1 POP PUSH1 0x5 PUSH0 DUP11 PUSH20 0xFFFFFFFFFFFFFFFFFFFFFFFFFFFFFFFFFFFFFFFF AND PUSH20 0xFFFFFFFFFFFFFFFFFFFFFFFFFFFFFFFFFFFFFFFF AND DUP2 MSTORE PUSH1 0x20 ADD SWAP1 DUP2 MSTORE PUSH1 0x20 ADD PUSH0 KECCAK256 PUSH0 DUP12 DUP2 MSTORE PUSH1 0x20 ADD SWAP1 DUP2 MSTORE PUSH1 0x20 ADD PUSH0 KECCAK256 DUP1 DUP1 SLOAD DUP1 PUSH1 0x20 MUL PUSH1 0x20 ADD PUSH1 0x40 MLOAD SWAP1 DUP2 ADD PUSH1 0x40 MSTORE DUP1 SWAP3 SWAP2 SWAP1 DUP2 DUP2 MSTORE PUSH1 0x20 ADD DUP3 DUP1 SLOAD DUP1 ISZERO PUSH2 0xD43 JUMPI PUSH1 0x20 MUL DUP3 ADD SWAP2 SWAP1 PUSH0 MSTORE PUSH1 0x20 PUSH0 KECCAK256 SWAP1 JUMPDEST DUP2 PUSH0 SWAP1 SLOAD SWAP1 PUSH2 0x100 EXP SWAP1 DIV PUSH20 0xFFFFFFFFFFFFFFFFFFFFFFFFFFFFFFFFFFFFFFFF AND PUSH20 0xFFFFFFFFFFFFFFFFFFFFFFFFFFFFFFFFFFFFFFFF AND DUP2 MSTORE PUSH1 0x20 ADD SWAP1 PUSH1 0x1 ADD SWAP1 DUP1 DUP4 GT PUSH2 0xCFA JUMPI JUMPDEST POP POP POP POP POP SWAP1 POP SWAP5 POP SWAP5 POP SWAP5 POP SWAP5 POP POP SWAP3 SWAP6 SWAP2 SWAP5 POP SWAP3 POP JUMP JUMPDEST PUSH2 0xD64 PUSH2 0x182F JUMP JUMPDEST PUSH0 PUSH1 0x60 PUSH0 DUP1 PUSH0 DUP7 PUSH20 0xFFFFFFFFFFFFFFFFFFFFFFFFFFFFFFFFFFFFFFFF AND PUSH20 0xFFFFFFFFFFFFFFFFFFFFFFFFFFFFFFFFFFFFFFFF AND DUP2 MSTORE PUSH1 0x20 ADD SWAP1 DUP2 MSTORE PUSH1 0x20 ADD PUSH0 KECCAK256 PUSH1 0x1 DUP8 PUSH2 0xDB1 SWAP2 SWAP1 PUSH2 0x23CC JUMP JUMPDEST DUP2 SLOAD DUP2 LT PUSH2 0xDC2 JUMPI PUSH2 0xDC1 PUSH2 0x23FF JUMP JUMPDEST JUMPDEST SWAP1 PUSH0 MSTORE PUSH1 0x20 PUSH0 KECCAK256 SWAP1 PUSH1 0x8 MUL ADD PUSH1 0x40 MLOAD DUP1 PUSH2 0x120 ADD PUSH1 0x40 MSTORE SWAP1 DUP2 PUSH0 DUP3 ADD SLOAD DUP2 MSTORE PUSH1 0x20 ADD PUSH1 0x1 DUP3 ADD DUP1 SLOAD PUSH2 0xDF3 SWAP1 PUSH2 0x236F JUMP JUMPDEST DUP1 PUSH1 0x1F ADD PUSH1 0x20 DUP1 SWAP2 DIV MUL PUSH1 0x20 ADD PUSH1 0x40 MLOAD SWAP1 DUP2 ADD PUSH1 0x40 MSTORE DUP1 SWAP3 SWAP2 SWAP1 DUP2 DUP2 MSTORE PUSH1 0x20 ADD DUP3 DUP1 SLOAD PUSH2 0xE1F SWAP1 PUSH2 0x236F JUMP JUMPDEST DUP1 ISZERO PUSH2 0xE6A JUMPI DUP1 PUSH1 0x1F LT PUSH2 0xE41 JUMPI PUSH2 0x100 DUP1 DUP4 SLOAD DIV MUL DUP4 MSTORE SWAP2 PUSH1 0x20 ADD SWAP2 PUSH2 0xE6A JUMP JUMPDEST DUP3 ADD SWAP2 SWAP1 PUSH0 MSTORE PUSH1 0x20 PUSH0 KECCAK256 SWAP1 JUMPDEST DUP2 SLOAD DUP2 MSTORE SWAP1 PUSH1 0x1 ADD SWAP1 PUSH1 0x20 ADD DUP1 DUP4 GT PUSH2 0xE4D JUMPI DUP3 SWAP1 SUB PUSH1 0x1F AND DUP3 ADD SWAP2 JUMPDEST POP POP POP POP POP DUP2 MSTORE PUSH1 0x20 ADD PUSH1 0x2 DUP3 ADD DUP1 SLOAD PUSH2 0xE83 SWAP1 PUSH2 0x236F JUMP JUMPDEST DUP1 PUSH1 0x1F ADD PUSH1 0x20 DUP1 SWAP2 DIV MUL PUSH1 0x20 ADD PUSH1 0x40 MLOAD SWAP1 DUP2 ADD PUSH1 0x40 MSTORE DUP1 SWAP3 SWAP2 SWAP1 DUP2 DUP2 MSTORE PUSH1 0x20 ADD DUP3 DUP1 SLOAD PUSH2 0xEAF SWAP1 PUSH2 0x236F JUMP JUMPDEST DUP1 ISZERO PUSH2 0xEFA JUMPI DUP1 PUSH1 0x1F LT PUSH2 0xED1 JUMPI PUSH2 0x100 DUP1 DUP4 SLOAD DIV MUL DUP4 MSTORE SWAP2 PUSH1 0x20 ADD SWAP2 PUSH2 0xEFA JUMP JUMPDEST DUP3 ADD SWAP2 SWAP1 PUSH0 MSTORE PUSH1 0x20 PUSH0 KECCAK256 SWAP1 JUMPDEST DUP2 SLOAD DUP2 MSTORE SWAP1 PUSH1 0x1 ADD SWAP1 PUSH1 0x20 ADD DUP1 DUP4 GT PUSH2 0xEDD JUMPI DUP3 SWAP1 SUB PUSH1 0x1F AND DUP3 ADD SWAP2 JUMPDEST POP POP POP POP POP DUP2 MSTORE PUSH1 0x20 ADD PUSH1 0x3 DUP3 ADD PUSH0 SWAP1 SLOAD SWAP1 PUSH2 0x100 EXP SWAP1 DIV PUSH20 0xFFFFFFFFFFFFFFFFFFFFFFFFFFFFFFFFFFFFFFFF AND PUSH20 0xFFFFFFFFFFFFFFFFFFFFFFFFFFFFFFFFFFFFFFFF AND PUSH20 0xFFFFFFFFFFFFFFFFFFFFFFFFFFFFFFFFFFFFFFFF AND DUP2 MSTORE PUSH1 0x20 ADD PUSH1 0x4 DUP3 ADD SLOAD DUP2 MSTORE PUSH1 0x20 ADD PUSH1 0x5 DUP3 ADD SLOAD DUP2 MSTORE PUSH1 0x20 ADD PUSH1 0x6 DUP3 ADD SLOAD DUP2 MSTORE PUSH1 0x20 ADD PUSH1 0x7 DUP3 ADD PUSH0 SWAP1 SLOAD SWAP1 PUSH2 0x100 EXP SWAP1 DIV PUSH1 0xFF AND ISZERO ISZERO ISZERO ISZERO DUP2 MSTORE PUSH1 0x20 ADD PUSH1 0x7 DUP3 ADD PUSH1 0x1 SWAP1 SLOAD SWAP1 PUSH2 0x100 EXP SWAP1 DIV PUSH1 0xFF AND ISZERO ISZERO ISZERO ISZERO DUP2 MSTORE POP POP SWAP1 POP DUP1 PUSH1 0x5 PUSH0 DUP8 PUSH20 0xFFFFFFFFFFFFFFFFFFFFFFFFFFFFFFFFFFFFFFFF AND PUSH20 0xFFFFFFFFFFFFFFFFFFFFFFFFFFFFFFFFFFFFFFFF AND DUP2 MSTORE PUSH1 0x20 ADD SWAP1 DUP2 MSTORE PUSH1 0x20 ADD PUSH0 KECCAK256 PUSH0 DUP9 DUP2 MSTORE PUSH1 0x20 ADD SWAP1 DUP2 MSTORE PUSH1 0x20 ADD PUSH0 KECCAK256 DUP1 SLOAD SWAP1 POP PUSH1 0x5 PUSH0 DUP9 PUSH20 0xFFFFFFFFFFFFFFFFFFFFFFFFFFFFFFFFFFFFFFFF AND PUSH20 0xFFFFFFFFFFFFFFFFFFFFFFFFFFFFFFFFFFFFFFFF AND DUP2 MSTORE PUSH1 0x20 ADD SWAP1 DUP2 MSTORE PUSH1 0x20 ADD PUSH0 KECCAK256 PUSH0 DUP10 DUP2 MSTORE PUSH1 0x20 ADD SWAP1 DUP2 MSTORE PUSH1 0x20 ADD PUSH0 KECCAK256 DUP1 DUP1 SLOAD DUP1 PUSH1 0x20 MUL PUSH1 0x20 ADD PUSH1 0x40 MLOAD SWAP1 DUP2 ADD PUSH1 0x40 MSTORE DUP1 SWAP3 SWAP2 SWAP1 DUP2 DUP2 MSTORE PUSH1 0x20 ADD DUP3 DUP1 SLOAD DUP1 ISZERO PUSH2 0x10C8 JUMPI PUSH1 0x20 MUL DUP3 ADD SWAP2 SWAP1 PUSH0 MSTORE PUSH1 0x20 PUSH0 KECCAK256 SWAP1 JUMPDEST DUP2 PUSH0 SWAP1 SLOAD SWAP1 PUSH2 0x100 EXP SWAP1 DIV PUSH20 0xFFFFFFFFFFFFFFFFFFFFFFFFFFFFFFFFFFFFFFFF AND PUSH20 0xFFFFFFFFFFFFFFFFFFFFFFFFFFFFFFFFFFFFFFFF AND DUP2 MSTORE PUSH1 0x20 ADD SWAP1 PUSH1 0x1 ADD SWAP1 DUP1 DUP4 GT PUSH2 0x107F JUMPI JUMPDEST POP POP POP POP POP SWAP1 POP SWAP4 POP SWAP4 POP SWAP4 POP POP SWAP3 POP SWAP3 POP SWAP3 JUMP JUMPDEST PUSH0 PUSH1 0x6 PUSH0 SWAP1 SLOAD SWAP1 PUSH2 0x100 EXP SWAP1 DIV PUSH20 0xFFFFFFFFFFFFFFFFFFFFFFFFFFFFFFFFFFFFFFFF AND PUSH20 0xFFFFFFFFFFFFFFFFFFFFFFFFFFFFFFFFFFFFFFFF AND CALLER PUSH20 0xFFFFFFFFFFFFFFFFFFFFFFFFFFFFFFFFFFFFFFFF AND EQ PUSH2 0x116D JUMPI PUSH1 0x40 MLOAD PUSH32 0x8C379A000000000000000000000000000000000000000000000000000000000 DUP2 MSTORE PUSH1 0x4 ADD PUSH2 0x1164 SWAP1 PUSH2 0x2592 JUMP JUMPDEST PUSH1 0x40 MLOAD DUP1 SWAP2 SUB SWAP1 REVERT JUMPDEST SELFBALANCE SWAP1 POP SWAP1 JUMP JUMPDEST PUSH0 DUP1 PUSH0 DUP4 PUSH20 0xFFFFFFFFFFFFFFFFFFFFFFFFFFFFFFFFFFFFFFFF AND PUSH20 0xFFFFFFFFFFFFFFFFFFFFFFFFFFFFFFFFFFFFFFFF AND DUP2 MSTORE PUSH1 0x20 ADD SWAP1 DUP2 MSTORE PUSH1 0x20 ADD PUSH0 KECCAK256 PUSH1 0x1 DUP5 PUSH2 0x11BD SWAP2 SWAP1 PUSH2 0x23CC JUMP JUMPDEST DUP2 SLOAD DUP2 LT PUSH2 0x11CE JUMPI PUSH2 0x11CD PUSH2 0x23FF JUMP JUMPDEST JUMPDEST SWAP1 PUSH0 MSTORE PUSH1 0x20 PUSH0 KECCAK256 SWAP1 PUSH1 0x8 MUL ADD PUSH1 0x7 ADD PUSH1 0x1 SWAP1 SLOAD SWAP1 PUSH2 0x100 EXP SWAP1 DIV PUSH1 0xFF AND ISZERO PUSH2 0x122B JUMPI PUSH1 0x40 MLOAD PUSH32 0x8C379A000000000000000000000000000000000000000000000000000000000 DUP2 MSTORE PUSH1 0x4 ADD PUSH2 0x1222 SWAP1 PUSH2 0x25FA JUMP JUMPDEST PUSH1 0x40 MLOAD DUP1 SWAP2 SUB SWAP1 REVERT JUMPDEST PUSH0 DUP1 DUP4 PUSH20 0xFFFFFFFFFFFFFFFFFFFFFFFFFFFFFFFFFFFFFFFF AND PUSH20 0xFFFFFFFFFFFFFFFFFFFFFFFFFFFFFFFFFFFFFFFF AND DUP2 MSTORE PUSH1 0x20 ADD SWAP1 DUP2 MSTORE PUSH1 0x20 ADD PUSH0 KECCAK256 PUSH1 0x1 DUP5 PUSH2 0x1274 SWAP2 SWAP1 PUSH2 0x23CC JUMP JUMPDEST DUP2 SLOAD DUP2 LT PUSH2 0x1285 JUMPI PUSH2 0x1284 PUSH2 0x23FF JUMP JUMPDEST JUMPDEST SWAP1 PUSH0 MSTORE PUSH1 0x20 PUSH0 KECCAK256 SWAP1 PUSH1 0x8 MUL ADD PUSH1 0x7 ADD PUSH0 SWAP1 SLOAD SWAP1 PUSH2 0x100 EXP SWAP1 DIV PUSH1 0xFF AND PUSH2 0x12E0 JUMPI PUSH1 0x40 MLOAD PUSH32 0x8C379A000000000000000000000000000000000000000000000000000000000 DUP2 MSTORE PUSH1 0x4 ADD PUSH2 0x12D7 SWAP1 PUSH2 0x2688 JUMP JUMPDEST PUSH1 0x40 MLOAD DUP1 SWAP2 SUB SWAP1 REVERT JUMPDEST PUSH0 DUP1 DUP4 PUSH20 0xFFFFFFFFFFFFFFFFFFFFFFFFFFFFFFFFFFFFFFFF AND PUSH20 0xFFFFFFFFFFFFFFFFFFFFFFFFFFFFFFFFFFFFFFFF AND DUP2 MSTORE PUSH1 0x20 ADD SWAP1 DUP2 MSTORE PUSH1 0x20 ADD PUSH0 KECCAK256 PUSH1 0x1 DUP5 PUSH2 0x1329 SWAP2 SWAP1 PUSH2 0x23CC JUMP JUMPDEST DUP2 SLOAD DUP2 LT PUSH2 0x133A JUMPI PUSH2 0x1339 PUSH2 0x23FF JUMP JUMPDEST JUMPDEST SWAP1 PUSH0 MSTORE PUSH1 0x20 PUSH0 KECCAK256 SWAP1 PUSH1 0x8 MUL ADD PUSH1 0x5 ADD SLOAD SWAP1 POP SWAP3 SWAP2 POP POP JUMP JUMPDEST PUSH1 0x3 PUSH1 0x20 MSTORE DUP2 PUSH0 MSTORE PUSH1 0x40 PUSH0 KECCAK256 DUP2 DUP2 SLOAD DUP2 LT PUSH2 0x136B JUMPI PUSH0 DUP1 REVERT JUMPDEST SWAP1 PUSH0 MSTORE PUSH1 0x20 PUSH0 KECCAK256 SWAP1 PUSH1 0x4 MUL ADD PUSH0 SWAP2 POP SWAP2 POP POP DUP1 PUSH0 ADD PUSH0 SWAP1 SLOAD SWAP1 PUSH2 0x100 EXP SWAP1 DIV PUSH20 0xFFFFFFFFFFFFFFFFFFFFFFFFFFFFFFFFFFFFFFFF AND SWAP1 DUP1 PUSH1 0x1 ADD SLOAD SWAP1 DUP1 PUSH1 0x2 ADD DUP1 SLOAD PUSH2 0x13B6 SWAP1 PUSH2 0x236F JUMP JUMPDEST DUP1 PUSH1 0x1F ADD PUSH1 0x20 DUP1 SWAP2 DIV MUL PUSH1 0x20 ADD PUSH1 0x40 MLOAD SWAP1 DUP2 ADD PUSH1 0x40 MSTORE DUP1 SWAP3 SWAP2 SWAP1 DUP2 DUP2 MSTORE PUSH1 0x20 ADD DUP3 DUP1 SLOAD PUSH2 0x13E2 SWAP1 PUSH2 0x236F JUMP JUMPDEST DUP1 ISZERO PUSH2 0x142D JUMPI DUP1 PUSH1 0x1F LT PUSH2 0x1404 JUMPI PUSH2 0x100 DUP1 DUP4 SLOAD DIV MUL DUP4 MSTORE SWAP2 PUSH1 0x20 ADD SWAP2 PUSH2 0x142D JUMP JUMPDEST DUP3 ADD SWAP2 SWAP1 PUSH0 MSTORE PUSH1 0x20 PUSH0 KECCAK256 SWAP1 JUMPDEST DUP2 SLOAD DUP2 MSTORE SWAP1 PUSH1 0x1 ADD SWAP1 PUSH1 0x20 ADD DUP1 DUP4 GT PUSH2 0x1410 JUMPI DUP3 SWAP1 SUB PUSH1 0x1F AND DUP3 ADD SWAP2 JUMPDEST POP POP POP POP POP SWAP1 DUP1 PUSH1 0x3 ADD SLOAD SWAP1 POP DUP5 JUMP JUMPDEST PUSH1 0x1 PUSH1 0x20 MSTORE DUP2 PUSH0 MSTORE PUSH1 0x40 PUSH0 KECCAK256 PUSH1 0x20 MSTORE DUP1 PUSH0 MSTORE PUSH1 0x40 PUSH0 KECCAK256 PUSH0 SWAP2 POP SWAP2 POP SWAP1 SLOAD SWAP1 PUSH2 0x100 EXP SWAP1 DIV PUSH1 0xFF AND DUP2 JUMP JUMPDEST PUSH1 0x60 PUSH1 0x4 PUSH0 DUP4 PUSH20 0xFFFFFFFFFFFFFFFFFFFFFFFFFFFFFFFFFFFFFFFF AND PUSH20 0xFFFFFFFFFFFFFFFFFFFFFFFFFFFFFFFFFFFFFFFF AND DUP2 MSTORE PUSH1 0x20 ADD SWAP1 DUP2 MSTORE PUSH1 0x20 ADD PUSH0 KECCAK256 DUP1 SLOAD DUP1 PUSH1 0x20 MUL PUSH1 0x20 ADD PUSH1 0x40 MLOAD SWAP1 DUP2 ADD PUSH1 0x40 MSTORE DUP1 SWAP3 SWAP2 SWAP1 DUP2 DUP2 MSTORE PUSH1 0x20 ADD PUSH0 SWAP1 JUMPDEST DUP3 DUP3 LT ISZERO PUSH2 0x1642 JUMPI DUP4 DUP3 SWAP1 PUSH0 MSTORE PUSH1 0x20 PUSH0 KECCAK256 SWAP1 PUSH1 0x5 MUL ADD PUSH1 0x40 MLOAD DUP1 PUSH1 0xA0 ADD PUSH1 0x40 MSTORE SWAP1 DUP2 PUSH0 DUP3 ADD SLOAD DUP2 MSTORE PUSH1 0x20 ADD PUSH1 0x1 DUP3 ADD DUP1 SLOAD PUSH2 0x14FF SWAP1 PUSH2 0x236F JUMP JUMPDEST DUP1 PUSH1 0x1F ADD PUSH1 0x20 DUP1 SWAP2 DIV MUL PUSH1 0x20 ADD PUSH1 0x40 MLOAD SWAP1 DUP2 ADD PUSH1 0x40 MSTORE DUP1 SWAP3 SWAP2 SWAP1 DUP2 DUP2 MSTORE PUSH1 0x20 ADD DUP3 DUP1 SLOAD PUSH2 0x152B SWAP1 PUSH2 0x236F JUMP JUMPDEST DUP1 ISZERO PUSH2 0x1576 JUMPI DUP1 PUSH1 0x1F LT PUSH2 0x154D JUMPI PUSH2 0x100 DUP1 DUP4 SLOAD DIV MUL DUP4 MSTORE SWAP2 PUSH1 0x20 ADD SWAP2 PUSH2 0x1576 JUMP JUMPDEST DUP3 ADD SWAP2 SWAP1 PUSH0 MSTORE PUSH1 0x20 PUSH0 KECCAK256 SWAP1 JUMPDEST DUP2 SLOAD DUP2 MSTORE SWAP1 PUSH1 0x1 ADD SWAP1 PUSH1 0x20 ADD DUP1 DUP4 GT PUSH2 0x1559 JUMPI DUP3 SWAP1 SUB PUSH1 0x1F AND DUP3 ADD SWAP2 JUMPDEST POP POP POP POP POP DUP2 MSTORE PUSH1 0x20 ADD PUSH1 0x2 DUP3 ADD SLOAD DUP2 MSTORE PUSH1 0x20 ADD PUSH1 0x3 DUP3 ADD PUSH0 SWAP1 SLOAD SWAP1 PUSH2 0x100 EXP SWAP1 DIV PUSH20 0xFFFFFFFFFFFFFFFFFFFFFFFFFFFFFFFFFFFFFFFF AND PUSH20 0xFFFFFFFFFFFFFFFFFFFFFFFFFFFFFFFFFFFFFFFF AND PUSH20 0xFFFFFFFFFFFFFFFFFFFFFFFFFFFFFFFFFFFFFFFF AND DUP2 MSTORE PUSH1 0x20 ADD PUSH1 0x4 DUP3 ADD PUSH0 SWAP1 SLOAD SWAP1 PUSH2 0x100 EXP SWAP1 DIV PUSH20 0xFFFFFFFFFFFFFFFFFFFFFFFFFFFFFFFFFFFFFFFF AND PUSH20 0xFFFFFFFFFFFFFFFFFFFFFFFFFFFFFFFFFFFFFFFF AND PUSH20 0xFFFFFFFFFFFFFFFFFFFFFFFFFFFFFFFFFFFFFFFF AND DUP2 MSTORE POP POP DUP2 MSTORE PUSH1 0x20 ADD SWAP1 PUSH1 0x1 ADD SWAP1 PUSH2 0x14C5 JUMP JUMPDEST POP POP POP POP SWAP1 POP SWAP2 SWAP1 POP JUMP JUMPDEST PUSH1 0x5 PUSH1 0x20 MSTORE DUP3 PUSH0 MSTORE PUSH1 0x40 PUSH0 KECCAK256 PUSH1 0x20 MSTORE DUP2 PUSH0 MSTORE PUSH1 0x40 PUSH0 KECCAK256 DUP2 DUP2 SLOAD DUP2 LT PUSH2 0x1670 JUMPI PUSH0 DUP1 REVERT JUMPDEST SWAP1 PUSH0 MSTORE PUSH1 0x20 PUSH0 KECCAK256 ADD PUSH0 SWAP3 POP SWAP3 POP POP SWAP1 SLOAD SWAP1 PUSH2 0x100 EXP SWAP1 DIV PUSH20 0xFFFFFFFFFFFFFFFFFFFFFFFFFFFFFFFFFFFFFFFF AND DUP2 JUMP JUMPDEST PUSH1 0x60 PUSH1 0x3 PUSH0 CALLER PUSH20 0xFFFFFFFFFFFFFFFFFFFFFFFFFFFFFFFFFFFFFFFF AND PUSH20 0xFFFFFFFFFFFFFFFFFFFFFFFFFFFFFFFFFFFFFFFF AND DUP2 MSTORE PUSH1 0x20 ADD SWAP1 DUP2 MSTORE PUSH1 0x20 ADD PUSH0 KECCAK256 DUP1 SLOAD DUP1 PUSH1 0x20 MUL PUSH1 0x20 ADD PUSH1 0x40 MLOAD SWAP1 DUP2 ADD PUSH1 0x40 MSTORE DUP1 SWAP3 SWAP2 SWAP1 DUP2 DUP2 MSTORE PUSH1 0x20 ADD PUSH0 SWAP1 JUMPDEST DUP3 DUP3 LT ISZERO PUSH2 0x1826 JUMPI DUP4 DUP3 SWAP1 PUSH0 MSTORE PUSH1 0x20 PUSH0 KECCAK256 SWAP1 PUSH1 0x4 MUL ADD PUSH1 0x40 MLOAD DUP1 PUSH1 0x80 ADD PUSH1 0x40 MSTORE SWAP1 DUP2 PUSH0 DUP3 ADD PUSH0 SWAP1 SLOAD SWAP1 PUSH2 0x100 EXP SWAP1 DIV PUSH20 0xFFFFFFFFFFFFFFFFFFFFFFFFFFFFFFFFFFFFFFFF AND PUSH20 0xFFFFFFFFFFFFFFFFFFFFFFFFFFFFFFFFFFFFFFFF AND PUSH20 0xFFFFFFFFFFFFFFFFFFFFFFFFFFFFFFFFFFFFFFFF AND DUP2 MSTORE PUSH1 0x20 ADD PUSH1 0x1 DUP3 ADD SLOAD DUP2 MSTORE PUSH1 0x20 ADD PUSH1 0x2 DUP3 ADD DUP1 SLOAD PUSH2 0x178D SWAP1 PUSH2 0x236F JUMP JUMPDEST DUP1 PUSH1 0x1F ADD PUSH1 0x20 DUP1 SWAP2 DIV MUL PUSH1 0x20 ADD PUSH1 0x40 MLOAD SWAP1 DUP2 ADD PUSH1 0x40 MSTORE DUP1 SWAP3 SWAP2 SWAP1 DUP2 DUP2 MSTORE PUSH1 0x20 ADD DUP3 DUP1 SLOAD PUSH2 0x17B9 SWAP1 PUSH2 0x236F JUMP JUMPDEST DUP1 ISZERO PUSH2 0x1804 JUMPI DUP1 PUSH1 0x1F LT PUSH2 0x17DB JUMPI PUSH2 0x100 DUP1 DUP4 SLOAD DIV MUL DUP4 MSTORE SWAP2 PUSH1 0x20 ADD SWAP2 PUSH2 0x1804 JUMP JUMPDEST DUP3 ADD SWAP2 SWAP1 PUSH0 MSTORE PUSH1 0x20 PUSH0 KECCAK256 SWAP1 JUMPDEST DUP2 SLOAD DUP2 MSTORE SWAP1 PUSH1 0x1 ADD SWAP1 PUSH1 0x20 ADD DUP1 DUP4 GT PUSH2 0x17E7 JUMPI DUP3 SWAP1 SUB PUSH1 0x1F AND DUP3 ADD SWAP2 JUMPDEST POP POP POP POP POP DUP2 MSTORE PUSH1 0x20 ADD PUSH1 0x3 DUP3 ADD SLOAD DUP2 MSTORE POP POP DUP2 MSTORE PUSH1 0x20 ADD SWAP1 PUSH1 0x1 ADD SWAP1 PUSH2 0x16FE JUMP JUMPDEST POP POP POP POP SWAP1 POP SWAP1 JUMP JUMPDEST PUSH1 0x40 MLOAD DUP1 PUSH2 0x120 ADD PUSH1 0x40 MSTORE DUP1 PUSH0 DUP2 MSTORE PUSH1 0x20 ADD PUSH1 0x60 DUP2 MSTORE PUSH1 0x20 ADD PUSH1 0x60 DUP2 MSTORE PUSH1 0x20 ADD PUSH0 PUSH20 0xFFFFFFFFFFFFFFFFFFFFFFFFFFFFFFFFFFFFFFFF AND DUP2 MSTORE PUSH1 0x20 ADD PUSH0 DUP2 MSTORE PUSH1 0x20 ADD PUSH0 DUP2 MSTORE PUSH1 0x20 ADD PUSH0 DUP2 MSTORE PUSH1 0x20 ADD PUSH0 ISZERO ISZERO DUP2 MSTORE PUSH1 0x20 ADD PUSH0 ISZERO ISZERO DUP2 MSTORE POP SWAP1 JUMP JUMPDEST PUSH0 DUP1 REVERT JUMPDEST PUSH0 PUSH20 0xFFFFFFFFFFFFFFFFFFFFFFFFFFFFFFFFFFFFFFFF DUP3 AND SWAP1 POP SWAP2 SWAP1 POP JUMP JUMPDEST PUSH0 PUSH2 0x18BB DUP3 PUSH2 0x1892 JUMP JUMPDEST SWAP1 POP SWAP2 SWAP1 POP JUMP JUMPDEST PUSH2 0x18CB DUP2 PUSH2 0x18B1 JUMP JUMPDEST DUP2 EQ PUSH2 0x18D5 JUMPI PUSH0 DUP1 REVERT JUMPDEST POP JUMP JUMPDEST PUSH0 DUP2 CALLDATALOAD SWAP1 POP PUSH2 0x18E6 DUP2 PUSH2 0x18C2 JUMP JUMPDEST SWAP3 SWAP2 POP POP JUMP JUMPDEST PUSH0 DUP2 SWAP1 POP SWAP2 SWAP1 POP JUMP JUMPDEST PUSH2 0x18FE DUP2 PUSH2 0x18EC JUMP JUMPDEST DUP2 EQ PUSH2 0x1908 JUMPI PUSH0 DUP1 REVERT JUMPDEST POP JUMP JUMPDEST PUSH0 DUP2 CALLDATALOAD SWAP1 POP PUSH2 0x1919 DUP2 PUSH2 0x18F5 JUMP JUMPDEST SWAP3 SWAP2 POP POP JUMP JUMPDEST PUSH0 DUP1 PUSH1 0x40 DUP4 DUP6 SUB SLT ISZERO PUSH2 0x1935 JUMPI PUSH2 0x1934 PUSH2 0x188E JUMP JUMPDEST JUMPDEST PUSH0 PUSH2 0x1942 DUP6 DUP3 DUP7 ADD PUSH2 0x18D8 JUMP JUMPDEST SWAP3 POP POP PUSH1 0x20 PUSH2 0x1953 DUP6 DUP3 DUP7 ADD PUSH2 0x190B JUMP JUMPDEST SWAP2 POP POP SWAP3 POP SWAP3 SWAP1 POP JUMP JUMPDEST PUSH2 0x1966 DUP2 PUSH2 0x18EC JUMP JUMPDEST DUP3 MSTORE POP POP JUMP JUMPDEST PUSH0 DUP2 MLOAD SWAP1 POP SWAP2 SWAP1 POP JUMP JUMPDEST PUSH0 DUP3 DUP3 MSTORE PUSH1 0x20 DUP3 ADD SWAP1 POP SWAP3 SWAP2 POP POP JUMP JUMPDEST DUP3 DUP2 DUP4 MCOPY PUSH0 DUP4 DUP4 ADD MSTORE POP POP POP JUMP JUMPDEST PUSH0 PUSH1 0x1F NOT PUSH1 0x1F DUP4 ADD AND SWAP1 POP SWAP2 SWAP1 POP JUMP JUMPDEST PUSH0 PUSH2 0x19AE DUP3 PUSH2 0x196C JUMP JUMPDEST PUSH2 0x19B8 DUP2 DUP6 PUSH2 0x1976 JUMP JUMPDEST SWAP4 POP PUSH2 0x19C8 DUP2 DUP6 PUSH1 0x20 DUP7 ADD PUSH2 0x1986 JUMP JUMPDEST PUSH2 0x19D1 DUP2 PUSH2 0x1994 JUMP JUMPDEST DUP5 ADD SWAP2 POP POP SWAP3 SWAP2 POP POP JUMP JUMPDEST PUSH2 0x19E5 DUP2 PUSH2 0x18B1 JUMP JUMPDEST DUP3 MSTORE POP POP JUMP JUMPDEST PUSH0 DUP2 ISZERO ISZERO SWAP1 POP SWAP2 SWAP1 POP JUMP JUMPDEST PUSH2 0x19FF DUP2 PUSH2 0x19EB JUMP JUMPDEST DUP3 MSTORE POP POP JUMP JUMPDEST PUSH0 PUSH2 0x120 DUP3 ADD SWAP1 POP PUSH2 0x1A19 PUSH0 DUP4 ADD DUP13 PUSH2 0x195D JUMP JUMPDEST DUP2 DUP2 SUB PUSH1 0x20 DUP4 ADD MSTORE PUSH2 0x1A2B DUP2 DUP12 PUSH2 0x19A4 JUMP JUMPDEST SWAP1 POP DUP2 DUP2 SUB PUSH1 0x40 DUP4 ADD MSTORE PUSH2 0x1A3F DUP2 DUP11 PUSH2 0x19A4 JUMP JUMPDEST SWAP1 POP PUSH2 0x1A4E PUSH1 0x60 DUP4 ADD DUP10 PUSH2 0x19DC JUMP JUMPDEST PUSH2 0x1A5B PUSH1 0x80 DUP4 ADD DUP9 PUSH2 0x195D JUMP JUMPDEST PUSH2 0x1A68 PUSH1 0xA0 DUP4 ADD DUP8 PUSH2 0x195D JUMP JUMPDEST PUSH2 0x1A75 PUSH1 0xC0 DUP4 ADD DUP7 PUSH2 0x195D JUMP JUMPDEST PUSH2 0x1A82 PUSH1 0xE0 DUP4 ADD DUP6 PUSH2 0x19F6 JUMP JUMPDEST PUSH2 0x1A90 PUSH2 0x100 DUP4 ADD DUP5 PUSH2 0x19F6 JUMP JUMPDEST SWAP11 SWAP10 POP POP POP POP POP POP POP POP POP POP JUMP JUMPDEST PUSH0 PUSH1 0x20 DUP3 ADD SWAP1 POP PUSH2 0x1AB1 PUSH0 DUP4 ADD DUP5 PUSH2 0x19DC JUMP JUMPDEST SWAP3 SWAP2 POP POP JUMP JUMPDEST PUSH0 PUSH1 0x20 DUP3 DUP5 SUB SLT ISZERO PUSH2 0x1ACC JUMPI PUSH2 0x1ACB PUSH2 0x188E JUMP JUMPDEST JUMPDEST PUSH0 PUSH2 0x1AD9 DUP5 DUP3 DUP6 ADD PUSH2 0x18D8 JUMP JUMPDEST SWAP2 POP POP SWAP3 SWAP2 POP POP JUMP JUMPDEST PUSH0 DUP2 MLOAD SWAP1 POP SWAP2 SWAP1 POP JUMP JUMPDEST PUSH0 DUP3 DUP3 MSTORE PUSH1 0x20 DUP3 ADD SWAP1 POP SWAP3 SWAP2 POP POP JUMP JUMPDEST PUSH0 DUP2 SWAP1 POP PUSH1 0x20 DUP3 ADD SWAP1 POP SWAP2 SWAP1 POP JUMP JUMPDEST PUSH2 0x1B14 DUP2 PUSH2 0x18B1 JUMP JUMPDEST DUP3 MSTORE POP POP JUMP JUMPDEST PUSH0 PUSH2 0x1B25 DUP4 DUP4 PUSH2 0x1B0B JUMP JUMPDEST PUSH1 0x20 DUP4 ADD SWAP1 POP SWAP3 SWAP2 POP POP JUMP JUMPDEST PUSH0 PUSH1 0x20 DUP3 ADD SWAP1 POP SWAP2 SWAP1 POP JUMP JUMPDEST PUSH0 PUSH2 0x1B47 DUP3 PUSH2 0x1AE2 JUMP JUMPDEST PUSH2 0x1B51 DUP2 DUP6 PUSH2 0x1AEC JUMP JUMPDEST SWAP4 POP PUSH2 0x1B5C DUP4 PUSH2 0x1AFC JUMP JUMPDEST DUP1 PUSH0 JUMPDEST DUP4 DUP2 LT ISZERO PUSH2 0x1B8C JUMPI DUP2 MLOAD PUSH2 0x1B73 DUP9 DUP3 PUSH2 0x1B1A JUMP JUMPDEST SWAP8 POP PUSH2 0x1B7E DUP4 PUSH2 0x1B31 JUMP JUMPDEST SWAP3 POP POP PUSH1 0x1 DUP2 ADD SWAP1 POP PUSH2 0x1B5F JUMP JUMPDEST POP DUP6 SWAP4 POP POP POP POP SWAP3 SWAP2 POP POP JUMP JUMPDEST PUSH0 PUSH1 0x20 DUP3 ADD SWAP1 POP DUP2 DUP2 SUB PUSH0 DUP4 ADD MSTORE PUSH2 0x1BB1 DUP2 DUP5 PUSH2 0x1B3D JUMP JUMPDEST SWAP1 POP SWAP3 SWAP2 POP POP JUMP JUMPDEST PUSH0 DUP2 MLOAD SWAP1 POP SWAP2 SWAP1 POP JUMP JUMPDEST PUSH0 DUP3 DUP3 MSTORE PUSH1 0x20 DUP3 ADD SWAP1 POP SWAP3 SWAP2 POP POP JUMP JUMPDEST PUSH0 DUP2 SWAP1 POP PUSH1 0x20 DUP3 ADD SWAP1 POP SWAP2 SWAP1 POP JUMP JUMPDEST PUSH2 0x1BEB DUP2 PUSH2 0x18EC JUMP JUMPDEST DUP3 MSTORE POP POP JUMP JUMPDEST PUSH0 DUP3 DUP3 MSTORE PUSH1 0x20 DUP3 ADD SWAP1 POP SWAP3 SWAP2 POP POP JUMP JUMPDEST PUSH0 PUSH2 0x1C0B DUP3 PUSH2 0x196C JUMP JUMPDEST PUSH2 0x1C15 DUP2 DUP6 PUSH2 0x1BF1 JUMP JUMPDEST SWAP4 POP PUSH2 0x1C25 DUP2 DUP6 PUSH1 0x20 DUP7 ADD PUSH2 0x1986 JUMP JUMPDEST PUSH2 0x1C2E DUP2 PUSH2 0x1994 JUMP JUMPDEST DUP5 ADD SWAP2 POP POP SWAP3 SWAP2 POP POP JUMP JUMPDEST PUSH2 0x1C42 DUP2 PUSH2 0x19EB JUMP JUMPDEST DUP3 MSTORE POP POP JUMP JUMPDEST PUSH0 PUSH2 0x120 DUP4 ADD PUSH0 DUP4 ADD MLOAD PUSH2 0x1C5E PUSH0 DUP7 ADD DUP3 PUSH2 0x1BE2 JUMP JUMPDEST POP PUSH1 0x20 DUP4 ADD MLOAD DUP5 DUP3 SUB PUSH1 0x20 DUP7 ADD MSTORE PUSH2 0x1C76 DUP3 DUP3 PUSH2 0x1C01 JUMP JUMPDEST SWAP2 POP POP PUSH1 0x40 DUP4 ADD MLOAD DUP5 DUP3 SUB PUSH1 0x40 DUP7 ADD MSTORE PUSH2 0x1C90 DUP3 DUP3 PUSH2 0x1C01 JUMP JUMPDEST SWAP2 POP POP PUSH1 0x60 DUP4 ADD MLOAD PUSH2 0x1CA5 PUSH1 0x60 DUP7 ADD DUP3 PUSH2 0x1B0B JUMP JUMPDEST POP PUSH1 0x80 DUP4 ADD MLOAD PUSH2 0x1CB8 PUSH1 0x80 DUP7 ADD DUP3 PUSH2 0x1BE2 JUMP JUMPDEST POP PUSH1 0xA0 DUP4 ADD MLOAD PUSH2 0x1CCB PUSH1 0xA0 DUP7 ADD DUP3 PUSH2 0x1BE2 JUMP JUMPDEST POP PUSH1 0xC0 DUP4 ADD MLOAD PUSH2 0x1CDE PUSH1 0xC0 DUP7 ADD DUP3 PUSH2 0x1BE2 JUMP JUMPDEST POP PUSH1 0xE0 DUP4 ADD MLOAD PUSH2 0x1CF1 PUSH1 0xE0 DUP7 ADD DUP3 PUSH2 0x1C39 JUMP JUMPDEST POP PUSH2 0x100 DUP4 ADD MLOAD PUSH2 0x1D06 PUSH2 0x100 DUP7 ADD DUP3 PUSH2 0x1C39 JUMP JUMPDEST POP DUP1 SWAP2 POP POP SWAP3 SWAP2 POP POP JUMP JUMPDEST PUSH0 PUSH2 0x1D1C DUP4 DUP4 PUSH2 0x1C48 JUMP JUMPDEST SWAP1 POP SWAP3 SWAP2 POP POP JUMP JUMPDEST PUSH0 PUSH1 0x20 DUP3 ADD SWAP1 POP SWAP2 SWAP1 POP JUMP JUMPDEST PUSH0 PUSH2 0x1D3A DUP3 PUSH2 0x1BB9 JUMP JUMPDEST PUSH2 0x1D44 DUP2 DUP6 PUSH2 0x1BC3 JUMP JUMPDEST SWAP4 POP DUP4 PUSH1 0x20 DUP3 MUL DUP6 ADD PUSH2 0x1D56 DUP6 PUSH2 0x1BD3 JUMP JUMPDEST DUP1 PUSH0 JUMPDEST DUP6 DUP2 LT ISZERO PUSH2 0x1D91 JUMPI DUP5 DUP5 SUB DUP10 MSTORE DUP2 MLOAD PUSH2 0x1D72 DUP6 DUP3 PUSH2 0x1D11 JUMP JUMPDEST SWAP5 POP PUSH2 0x1D7D DUP4 PUSH2 0x1D24 JUMP JUMPDEST SWAP3 POP PUSH1 0x20 DUP11 ADD SWAP10 POP POP PUSH1 0x1 DUP2 ADD SWAP1 POP PUSH2 0x1D59 JUMP JUMPDEST POP DUP3 SWAP8 POP DUP8 SWAP6 POP POP POP POP POP POP SWAP3 SWAP2 POP POP JUMP JUMPDEST PUSH0 PUSH1 0x20 DUP3 ADD SWAP1 POP DUP2 DUP2 SUB PUSH0 DUP4 ADD MSTORE PUSH2 0x1DBB DUP2 DUP5 PUSH2 0x1D30 JUMP JUMPDEST SWAP1 POP SWAP3 SWAP2 POP POP JUMP JUMPDEST PUSH0 PUSH1 0xA0 DUP3 ADD SWAP1 POP PUSH2 0x1DD6 PUSH0 DUP4 ADD DUP9 PUSH2 0x195D JUMP JUMPDEST DUP2 DUP2 SUB PUSH1 0x20 DUP4 ADD MSTORE PUSH2 0x1DE8 DUP2 DUP8 PUSH2 0x19A4 JUMP JUMPDEST SWAP1 POP PUSH2 0x1DF7 PUSH1 0x40 DUP4 ADD DUP7 PUSH2 0x195D JUMP JUMPDEST PUSH2 0x1E04 PUSH1 0x60 DUP4 ADD DUP6 PUSH2 0x19DC JUMP JUMPDEST PUSH2 0x1E11 PUSH1 0x80 DUP4 ADD DUP5 PUSH2 0x19DC JUMP JUMPDEST SWAP7 SWAP6 POP POP POP POP POP POP JUMP JUMPDEST PUSH0 DUP1 PUSH1 0x40 DUP4 DUP6 SUB SLT ISZERO PUSH2 0x1E31 JUMPI PUSH2 0x1E30 PUSH2 0x188E JUMP JUMPDEST JUMPDEST PUSH0 PUSH2 0x1E3E DUP6 DUP3 DUP7 ADD PUSH2 0x190B JUMP JUMPDEST SWAP3 POP POP PUSH1 0x20 PUSH2 0x1E4F DUP6 DUP3 DUP7 ADD PUSH2 0x18D8 JUMP JUMPDEST SWAP2 POP POP SWAP3 POP SWAP3 SWAP1 POP JUMP JUMPDEST PUSH0 PUSH1 0x80 DUP3 ADD SWAP1 POP PUSH2 0x1E6C PUSH0 DUP4 ADD DUP8 PUSH2 0x195D JUMP JUMPDEST PUSH2 0x1E79 PUSH1 0x20 DUP4 ADD DUP7 PUSH2 0x195D JUMP JUMPDEST PUSH2 0x1E86 PUSH1 0x40 DUP4 ADD DUP6 PUSH2 0x195D JUMP JUMPDEST DUP2 DUP2 SUB PUSH1 0x60 DUP4 ADD MSTORE PUSH2 0x1E98 DUP2 DUP5 PUSH2 0x1B3D JUMP JUMPDEST SWAP1 POP SWAP6 SWAP5 POP POP POP POP POP JUMP JUMPDEST PUSH0 PUSH2 0x120 DUP4 ADD PUSH0 DUP4 ADD MLOAD PUSH2 0x1EB9 PUSH0 DUP7 ADD DUP3 PUSH2 0x1BE2 JUMP JUMPDEST POP PUSH1 0x20 DUP4 ADD MLOAD DUP5 DUP3 SUB PUSH1 0x20 DUP7 ADD MSTORE PUSH2 0x1ED1 DUP3 DUP3 PUSH2 0x1C01 JUMP JUMPDEST SWAP2 POP POP PUSH1 0x40 DUP4 ADD MLOAD DUP5 DUP3 SUB PUSH1 0x40 DUP7 ADD MSTORE PUSH2 0x1EEB DUP3 DUP3 PUSH2 0x1C01 JUMP JUMPDEST SWAP2 POP POP PUSH1 0x60 DUP4 ADD MLOAD PUSH2 0x1F00 PUSH1 0x60 DUP7 ADD DUP3 PUSH2 0x1B0B JUMP JUMPDEST POP PUSH1 0x80 DUP4 ADD MLOAD PUSH2 0x1F13 PUSH1 0x80 DUP7 ADD DUP3 PUSH2 0x1BE2 JUMP JUMPDEST POP PUSH1 0xA0 DUP4 ADD MLOAD PUSH2 0x1F26 PUSH1 0xA0 DUP7 ADD DUP3 PUSH2 0x1BE2 JUMP JUMPDEST POP PUSH1 0xC0 DUP4 ADD MLOAD PUSH2 0x1F39 PUSH1 0xC0 DUP7 ADD DUP3 PUSH2 0x1BE2 JUMP JUMPDEST POP PUSH1 0xE0 DUP4 ADD MLOAD PUSH2 0x1F4C PUSH1 0xE0 DUP7 ADD DUP3 PUSH2 0x1C39 JUMP JUMPDEST POP PUSH2 0x100 DUP4 ADD MLOAD PUSH2 0x1F61 PUSH2 0x100 DUP7 ADD DUP3 PUSH2 0x1C39 JUMP JUMPDEST POP DUP1 SWAP2 POP POP SWAP3 SWAP2 POP POP JUMP JUMPDEST PUSH0 PUSH1 0x60 DUP3 ADD SWAP1 POP DUP2 DUP2 SUB PUSH0 DUP4 ADD MSTORE PUSH2 0x1F84 DUP2 DUP7 PUSH2 0x1EA3 JUMP JUMPDEST SWAP1 POP PUSH2 0x1F93 PUSH1 0x20 DUP4 ADD DUP6 PUSH2 0x195D JUMP JUMPDEST DUP2 DUP2 SUB PUSH1 0x40 DUP4 ADD MSTORE PUSH2 0x1FA5 DUP2 DUP5 PUSH2 0x1B3D JUMP JUMPDEST SWAP1 POP SWAP5 SWAP4 POP POP POP POP JUMP JUMPDEST PUSH0 PUSH1 0x20 DUP3 ADD SWAP1 POP PUSH2 0x1FC2 PUSH0 DUP4 ADD DUP5 PUSH2 0x195D JUMP JUMPDEST SWAP3 SWAP2 POP POP JUMP JUMPDEST PUSH0 PUSH1 0x80 DUP3 ADD SWAP1 POP PUSH2 0x1FDB PUSH0 DUP4 ADD DUP8 PUSH2 0x19DC JUMP JUMPDEST PUSH2 0x1FE8 PUSH1 0x20 DUP4 ADD DUP7 PUSH2 0x195D JUMP JUMPDEST DUP2 DUP2 SUB PUSH1 0x40 DUP4 ADD MSTORE PUSH2 0x1FFA DUP2 DUP6 PUSH2 0x19A4 JUMP JUMPDEST SWAP1 POP PUSH2 0x2009 PUSH1 0x60 DUP4 ADD DUP5 PUSH2 0x195D JUMP JUMPDEST SWAP6 SWAP5 POP POP POP POP POP JUMP JUMPDEST PUSH0 DUP1 PUSH1 0x40 DUP4 DUP6 SUB SLT ISZERO PUSH2 0x2028 JUMPI PUSH2 0x2027 PUSH2 0x188E JUMP JUMPDEST JUMPDEST PUSH0 PUSH2 0x2035 DUP6 DUP3 DUP7 ADD PUSH2 0x18D8 JUMP JUMPDEST SWAP3 POP POP PUSH1 0x20 PUSH2 0x2046 DUP6 DUP3 DUP7 ADD PUSH2 0x18D8 JUMP JUMPDEST SWAP2 POP POP SWAP3 POP SWAP3 SWAP1 POP JUMP JUMPDEST PUSH0 PUSH1 0x20 DUP3 ADD SWAP1 POP PUSH2 0x2063 PUSH0 DUP4 ADD DUP5 PUSH2 0x19F6 JUMP JUMPDEST SWAP3 SWAP2 POP POP JUMP JUMPDEST PUSH0 DUP2 MLOAD SWAP1 POP SWAP2 SWAP1 POP JUMP JUMPDEST PUSH0 DUP3 DUP3 MSTORE PUSH1 0x20 DUP3 ADD SWAP1 POP SWAP3 SWAP2 POP POP JUMP JUMPDEST PUSH0 DUP2 SWAP1 POP PUSH1 0x20 DUP3 ADD SWAP1 POP SWAP2 SWAP1 POP JUMP JUMPDEST PUSH0 PUSH1 0xA0 DUP4 ADD PUSH0 DUP4 ADD MLOAD PUSH2 0x20A7 PUSH0 DUP7 ADD DUP3 PUSH2 0x1BE2 JUMP JUMPDEST POP PUSH1 0x20 DUP4 ADD MLOAD DUP5 DUP3 SUB PUSH1 0x20 DUP7 ADD MSTORE PUSH2 0x20BF DUP3 DUP3 PUSH2 0x1C01 JUMP JUMPDEST SWAP2 POP POP PUSH1 0x40 DUP4 ADD MLOAD PUSH2 0x20D4 PUSH1 0x40 DUP7 ADD DUP3 PUSH2 0x1BE2 JUMP JUMPDEST POP PUSH1 0x60 DUP4 ADD MLOAD PUSH2 0x20E7 PUSH1 0x60 DUP7 ADD DUP3 PUSH2 0x1B0B JUMP JUMPDEST POP PUSH1 0x80 DUP4 ADD MLOAD PUSH2 0x20FA PUSH1 0x80 DUP7 ADD DUP3 PUSH2 0x1B0B JUMP JUMPDEST POP DUP1 SWAP2 POP POP SWAP3 SWAP2 POP POP JUMP JUMPDEST PUSH0 PUSH2 0x2110 DUP4 DUP4 PUSH2 0x2092 JUMP JUMPDEST SWAP1 POP SWAP3 SWAP2 POP POP JUMP JUMPDEST PUSH0 PUSH1 0x20 DUP3 ADD SWAP1 POP SWAP2 SWAP1 POP JUMP JUMPDEST PUSH0 PUSH2 0x212E DUP3 PUSH2 0x2069 JUMP JUMPDEST PUSH2 0x2138 DUP2 DUP6 PUSH2 0x2073 JUMP JUMPDEST SWAP4 POP DUP4 PUSH1 0x20 DUP3 MUL DUP6 ADD PUSH2 0x214A DUP6 PUSH2 0x2083 JUMP JUMPDEST DUP1 PUSH0 JUMPDEST DUP6 DUP2 LT ISZERO PUSH2 0x2185 JUMPI DUP5 DUP5 SUB DUP10 MSTORE DUP2 MLOAD PUSH2 0x2166 DUP6 DUP3 PUSH2 0x2105 JUMP JUMPDEST SWAP5 POP PUSH2 0x2171 DUP4 PUSH2 0x2118 JUMP JUMPDEST SWAP3 POP PUSH1 0x20 DUP11 ADD SWAP10 POP POP PUSH1 0x1 DUP2 ADD SWAP1 POP PUSH2 0x214D JUMP JUMPDEST POP DUP3 SWAP8 POP DUP8 SWAP6 POP POP POP POP POP POP SWAP3 SWAP2 POP POP JUMP JUMPDEST PUSH0 PUSH1 0x20 DUP3 ADD SWAP1 POP DUP2 DUP2 SUB PUSH0 DUP4 ADD MSTORE PUSH2 0x21AF DUP2 DUP5 PUSH2 0x2124 JUMP JUMPDEST SWAP1 POP SWAP3 SWAP2 POP POP JUMP JUMPDEST PUSH0 DUP1 PUSH0 PUSH1 0x60 DUP5 DUP7 SUB SLT ISZERO PUSH2 0x21CE JUMPI PUSH2 0x21CD PUSH2 0x188E JUMP JUMPDEST JUMPDEST PUSH0 PUSH2 0x21DB DUP7 DUP3 DUP8 ADD PUSH2 0x18D8 JUMP JUMPDEST SWAP4 POP POP PUSH1 0x20 PUSH2 0x21EC DUP7 DUP3 DUP8 ADD PUSH2 0x190B JUMP JUMPDEST SWAP3 POP POP PUSH1 0x40 PUSH2 0x21FD DUP7 DUP3 DUP8 ADD PUSH2 0x190B JUMP JUMPDEST SWAP2 POP POP SWAP3 POP SWAP3 POP SWAP3 JUMP JUMPDEST PUSH0 DUP2 MLOAD SWAP1 POP SWAP2 SWAP1 POP JUMP JUMPDEST PUSH0 DUP3 DUP3 MSTORE PUSH1 0x20 DUP3 ADD SWAP1 POP SWAP3 SWAP2 POP POP JUMP JUMPDEST PUSH0 DUP2 SWAP1 POP PUSH1 0x20 DUP3 ADD SWAP1 POP SWAP2 SWAP1 POP JUMP JUMPDEST PUSH0 PUSH1 0x80 DUP4 ADD PUSH0 DUP4 ADD MLOAD PUSH2 0x2245 PUSH0 DUP7 ADD DUP3 PUSH2 0x1B0B JUMP JUMPDEST POP PUSH1 0x20 DUP4 ADD MLOAD PUSH2 0x2258 PUSH1 0x20 DUP7 ADD DUP3 PUSH2 0x1BE2 JUMP JUMPDEST POP PUSH1 0x40 DUP4 ADD MLOAD DUP5 DUP3 SUB PUSH1 0x40 DUP7 ADD MSTORE PUSH2 0x2270 DUP3 DUP3 PUSH2 0x1C01 JUMP JUMPDEST SWAP2 POP POP PUSH1 0x60 DUP4 ADD MLOAD PUSH2 0x2285 PUSH1 0x60 DUP7 ADD DUP3 PUSH2 0x1BE2 JUMP JUMPDEST POP DUP1 SWAP2 POP POP SWAP3 SWAP2 POP POP JUMP JUMPDEST PUSH0 PUSH2 0x229B DUP4 DUP4 PUSH2 0x2230 JUMP JUMPDEST SWAP1 POP SWAP3 SWAP2 POP POP JUMP JUMPDEST PUSH0 PUSH1 0x20 DUP3 ADD SWAP1 POP SWAP2 SWAP1 POP JUMP JUMPDEST PUSH0 PUSH2 0x22B9 DUP3 PUSH2 0x2207 JUMP JUMPDEST PUSH2 0x22C3 DUP2 DUP6 PUSH2 0x2211 JUMP JUMPDEST SWAP4 POP DUP4 PUSH1 0x20 DUP3 MUL DUP6 ADD PUSH2 0x22D5 DUP6 PUSH2 0x2221 JUMP JUMPDEST DUP1 PUSH0 JUMPDEST DUP6 DUP2 LT ISZERO PUSH2 0x2310 JUMPI DUP5 DUP5 SUB DUP10 MSTORE DUP2 MLOAD PUSH2 0x22F1 DUP6 DUP3 PUSH2 0x2290 JUMP JUMPDEST SWAP5 POP PUSH2 0x22FC DUP4 PUSH2 0x22A3 JUMP JUMPDEST SWAP3 POP PUSH1 0x20 DUP11 ADD SWAP10 POP POP PUSH1 0x1 DUP2 ADD SWAP1 POP PUSH2 0x22D8 JUMP JUMPDEST POP DUP3 SWAP8 POP DUP8 SWAP6 POP POP POP POP POP POP SWAP3 SWAP2 POP POP JUMP JUMPDEST PUSH0 PUSH1 0x20 DUP3 ADD SWAP1 POP DUP2 DUP2 SUB PUSH0 DUP4 ADD MSTORE PUSH2 0x233A DUP2 DUP5 PUSH2 0x22AF JUMP JUMPDEST SWAP1 POP SWAP3 SWAP2 POP POP JUMP JUMPDEST PUSH32 0x4E487B7100000000000000000000000000000000000000000000000000000000 PUSH0 MSTORE PUSH1 0x22 PUSH1 0x4 MSTORE PUSH1 0x24 PUSH0 REVERT JUMPDEST PUSH0 PUSH1 0x2 DUP3 DIV SWAP1 POP PUSH1 0x1 DUP3 AND DUP1 PUSH2 0x2386 JUMPI PUSH1 0x7F DUP3 AND SWAP2 POP JUMPDEST PUSH1 0x20 DUP3 LT DUP2 SUB PUSH2 0x2399 JUMPI PUSH2 0x2398 PUSH2 0x2342 JUMP JUMPDEST JUMPDEST POP SWAP2 SWAP1 POP JUMP JUMPDEST PUSH32 0x4E487B7100000000000000000000000000000000000000000000000000000000 PUSH0 MSTORE PUSH1 0x11 PUSH1 0x4 MSTORE PUSH1 0x24 PUSH0 REVERT JUMPDEST PUSH0 PUSH2 0x23D6 DUP3 PUSH2 0x18EC JUMP JUMPDEST SWAP2 POP PUSH2 0x23E1 DUP4 PUSH2 0x18EC JUMP JUMPDEST SWAP3 POP DUP3 DUP3 SUB SWAP1 POP DUP2 DUP2 GT ISZERO PUSH2 0x23F9 JUMPI PUSH2 0x23F8 PUSH2 0x239F JUMP JUMPDEST JUMPDEST SWAP3 SWAP2 POP POP JUMP JUMPDEST PUSH32 0x4E487B7100000000000000000000000000000000000000000000000000000000 PUSH0 MSTORE PUSH1 0x32 PUSH1 0x4 MSTORE PUSH1 0x24 PUSH0 REVERT JUMPDEST PUSH32 0x5468652043616D706169676E2057617320436F6D706C65746564210000000000 PUSH0 DUP3 ADD MSTORE POP JUMP JUMPDEST PUSH0 PUSH2 0x2460 PUSH1 0x1B DUP4 PUSH2 0x1976 JUMP JUMPDEST SWAP2 POP PUSH2 0x246B DUP3 PUSH2 0x242C JUMP JUMPDEST PUSH1 0x20 DUP3 ADD SWAP1 POP SWAP2 SWAP1 POP JUMP JUMPDEST PUSH0 PUSH1 0x20 DUP3 ADD SWAP1 POP DUP2 DUP2 SUB PUSH0 DUP4 ADD MSTORE PUSH2 0x248D DUP2 PUSH2 0x2454 JUMP JUMPDEST SWAP1 POP SWAP2 SWAP1 POP JUMP JUMPDEST PUSH32 0x546869732043616D706169676E20486173204265656E2043616E63656C6C6564 PUSH0 DUP3 ADD MSTORE PUSH32 0x2100000000000000000000000000000000000000000000000000000000000000 PUSH1 0x20 DUP3 ADD MSTORE POP JUMP JUMPDEST PUSH0 PUSH2 0x24EE PUSH1 0x21 DUP4 PUSH2 0x1976 JUMP JUMPDEST SWAP2 POP PUSH2 0x24F9 DUP3 PUSH2 0x2494 JUMP JUMPDEST PUSH1 0x40 DUP3 ADD SWAP1 POP SWAP2 SWAP1 POP JUMP JUMPDEST PUSH0 PUSH1 0x20 DUP3 ADD SWAP1 POP DUP2 DUP2 SUB PUSH0 DUP4 ADD MSTORE PUSH2 0x251B DUP2 PUSH2 0x24E2 JUMP JUMPDEST SWAP1 POP SWAP2 SWAP1 POP JUMP JUMPDEST PUSH32 0x4F6E6C7920436F6E7472616374204F776E65722043616E20506572666F726D20 PUSH0 DUP3 ADD MSTORE PUSH32 0x5468697320416374696F6E210000000000000000000000000000000000000000 PUSH1 0x20 DUP3 ADD MSTORE POP JUMP JUMPDEST PUSH0 PUSH2 0x257C PUSH1 0x2C DUP4 PUSH2 0x1976 JUMP JUMPDEST SWAP2 POP PUSH2 0x2587 DUP3 PUSH2 0x2522 JUMP JUMPDEST PUSH1 0x40 DUP3 ADD SWAP1 POP SWAP2 SWAP1 POP JUMP JUMPDEST PUSH0 PUSH1 0x20 DUP3 ADD SWAP1 POP DUP2 DUP2 SUB PUSH0 DUP4 ADD MSTORE PUSH2 0x25A9 DUP2 PUSH2 0x2570 JUMP JUMPDEST SWAP1 POP SWAP2 SWAP1 POP JUMP JUMPDEST PUSH32 0x546869732043616D706169676E205761732043616E63656C6C65642100000000 PUSH0 DUP3 ADD MSTORE POP JUMP JUMPDEST PUSH0 PUSH2 0x25E4 PUSH1 0x1C DUP4 PUSH2 0x1976 JUMP JUMPDEST SWAP2 POP PUSH2 0x25EF DUP3 PUSH2 0x25B0 JUMP JUMPDEST PUSH1 0x20 DUP3 ADD SWAP1 POP SWAP2 SWAP1 POP JUMP JUMPDEST PUSH0 PUSH1 0x20 DUP3 ADD SWAP1 POP DUP2 DUP2 SUB PUSH0 DUP4 ADD MSTORE PUSH2 0x2611 DUP2 PUSH2 0x25D8 JUMP JUMPDEST SWAP1 POP SWAP2 SWAP1 POP JUMP JUMPDEST PUSH32 0x546869732043616D706169676E204973205374696C6C20496E2050726F677265 PUSH0 DUP3 ADD MSTORE PUSH32 0x7373210000000000000000000000000000000000000000000000000000000000 PUSH1 0x20 DUP3 ADD MSTORE POP JUMP JUMPDEST PUSH0 PUSH2 0x2672 PUSH1 0x23 DUP4 PUSH2 0x1976 JUMP JUMPDEST SWAP2 POP PUSH2 0x267D DUP3 PUSH2 0x2618 JUMP JUMPDEST PUSH1 0x40 DUP3 ADD SWAP1 POP SWAP2 SWAP1 POP JUMP JUMPDEST PUSH0 PUSH1 0x20 DUP3 ADD SWAP1 POP DUP2 DUP2 SUB PUSH0 DUP4 ADD MSTORE PUSH2 0x269F DUP2 PUSH2 0x2666 JUMP JUMPDEST SWAP1 POP SWAP2 SWAP1 POP JUMP INVALID LOG2 PUSH5 0x6970667358 0x22 SLT KECCAK256 ISZERO CALLCODE CODECOPY 0xD2 EXTCODECOPY 0xB0 0x25 0xD SMOD SIGNEXTEND MUL 0xD BALANCE 0xDB XOR 0xE2 DUP8 PUSH7 0x8BE1EA7F911384 SIGNEXTEND CODESIZE DUP15 0xED 0xBC 0xBD 0xE8 PUSH5 0x736F6C6343 STOP ADDMOD BYTE STOP CALLER "
				},
				"gasEstimates": {
					"creation": {
						"codeDepositCost": "1989600",
						"executionCost": "26368",
						"totalCost": "2015968"
					},
					"external": {
						"admins(address,address)": "infinite",
						"campaignAdmins(address,uint256)": "infinite",
						"campaignDetails(uint256,address)": "infinite",
						"campaigns(address,uint256)": "infinite",
						"donors(address,uint256)": "infinite",
						"donorsForCampaign(address,uint256,uint256)": "infinite",
						"getCampaignBalance(uint256,address)": "infinite",
						"getCampaignProgress(uint256,address)": "infinite",
						"getContractBalance()": "2639",
						"viewCampaignAdmins(address)": "infinite",
						"viewCampaigns()": "infinite",
						"viewDonations()": "infinite",
						"viewWithdrawals(address)": "infinite",
						"withdrawals(address,uint256)": "infinite"
					}
				},
				"methodIdentifiers": {
					"admins(address,address)": "be21739e",
					"campaignAdmins(address,uint256)": "1f55e5bc",
					"campaignDetails(uint256,address)": "675b6211",
					"campaigns(address,uint256)": "11555dbc",
					"donors(address,uint256)": "9b56f5f0",
					"donorsForCampaign(address,uint256,uint256)": "e6c9099a",
					"getCampaignBalance(uint256,address)": "82fed30b",
					"getCampaignProgress(uint256,address)": "584bea2c",
					"getContractBalance()": "6f9fb98a",
					"viewCampaignAdmins(address)": "28f5bd9b",
					"viewCampaigns()": "366919e9",
					"viewDonations()": "e81c411d",
					"viewWithdrawals(address)": "df171c0d",
					"withdrawals(address,uint256)": "422b1077"
				}
			},
			"storageLayout": {
				"storage": [
					{
						"astId": 117,
						"contract": "contracts/CharityDonationView.sol:CharityDonationView",
						"label": "campaigns",
						"offset": 0,
						"slot": "0",
						"type": "t_mapping(t_address,t_array(t_struct(Campaign)91_storage)dyn_storage)"
					},
					{
						"astId": 123,
						"contract": "contracts/CharityDonationView.sol:CharityDonationView",
						"label": "admins",
						"offset": 0,
						"slot": "1",
						"type": "t_mapping(t_address,t_mapping(t_address,t_bool))"
					},
					{
						"astId": 128,
						"contract": "contracts/CharityDonationView.sol:CharityDonationView",
						"label": "campaignAdmins",
						"offset": 0,
						"slot": "2",
						"type": "t_mapping(t_address,t_array(t_address)dyn_storage)"
					},
					{
						"astId": 134,
						"contract": "contracts/CharityDonationView.sol:CharityDonationView",
						"label": "donors",
						"offset": 0,
						"slot": "3",
						"type": "t_mapping(t_address,t_array(t_struct(Donation)100_storage)dyn_storage)"
					},
					{
						"astId": 140,
						"contract": "contracts/CharityDonationView.sol:CharityDonationView",
						"label": "withdrawals",
						"offset": 0,
						"slot": "4",
						"type": "t_mapping(t_address,t_array(t_struct(Withdrawals)111_storage)dyn_storage)"
					},
					{
						"astId": 147,
						"contract": "contracts/CharityDonationView.sol:CharityDonationView",
						"label": "donorsForCampaign",
						"offset": 0,
						"slot": "5",
						"type": "t_mapping(t_address,t_mapping(t_uint256,t_array(t_address)dyn_storage))"
					},
					{
						"astId": 6,
						"contract": "contracts/CharityDonationView.sol:CharityDonationView",
						"label": "contractOwner",
						"offset": 0,
						"slot": "6",
						"type": "t_address"
					}
				],
				"types": {
					"t_address": {
						"encoding": "inplace",
						"label": "address",
						"numberOfBytes": "20"
					},
					"t_array(t_address)dyn_storage": {
						"base": "t_address",
						"encoding": "dynamic_array",
						"label": "address[]",
						"numberOfBytes": "32"
					},
					"t_array(t_struct(Campaign)91_storage)dyn_storage": {
						"base": "t_struct(Campaign)91_storage",
						"encoding": "dynamic_array",
						"label": "struct CharityDonationStorage.Campaign[]",
						"numberOfBytes": "32"
					},
					"t_array(t_struct(Donation)100_storage)dyn_storage": {
						"base": "t_struct(Donation)100_storage",
						"encoding": "dynamic_array",
						"label": "struct CharityDonationStorage.Donation[]",
						"numberOfBytes": "32"
					},
					"t_array(t_struct(Withdrawals)111_storage)dyn_storage": {
						"base": "t_struct(Withdrawals)111_storage",
						"encoding": "dynamic_array",
						"label": "struct CharityDonationStorage.Withdrawals[]",
						"numberOfBytes": "32"
					},
					"t_bool": {
						"encoding": "inplace",
						"label": "bool",
						"numberOfBytes": "1"
					},
					"t_mapping(t_address,t_array(t_address)dyn_storage)": {
						"encoding": "mapping",
						"key": "t_address",
						"label": "mapping(address => address[])",
						"numberOfBytes": "32",
						"value": "t_array(t_address)dyn_storage"
					},
					"t_mapping(t_address,t_array(t_struct(Campaign)91_storage)dyn_storage)": {
						"encoding": "mapping",
						"key": "t_address",
						"label": "mapping(address => struct CharityDonationStorage.Campaign[])",
						"numberOfBytes": "32",
						"value": "t_array(t_struct(Campaign)91_storage)dyn_storage"
					},
					"t_mapping(t_address,t_array(t_struct(Donation)100_storage)dyn_storage)": {
						"encoding": "mapping",
						"key": "t_address",
						"label": "mapping(address => struct CharityDonationStorage.Donation[])",
						"numberOfBytes": "32",
						"value": "t_array(t_struct(Donation)100_storage)dyn_storage"
					},
					"t_mapping(t_address,t_array(t_struct(Withdrawals)111_storage)dyn_storage)": {
						"encoding": "mapping",
						"key": "t_address",
						"label": "mapping(address => struct CharityDonationStorage.Withdrawals[])",
						"numberOfBytes": "32",
						"value": "t_array(t_struct(Withdrawals)111_storage)dyn_storage"
					},
					"t_mapping(t_address,t_bool)": {
						"encoding": "mapping",
						"key": "t_address",
						"label": "mapping(address => bool)",
						"numberOfBytes": "32",
						"value": "t_bool"
					},
					"t_mapping(t_address,t_mapping(t_address,t_bool))": {
						"encoding": "mapping",
						"key": "t_address",
						"label": "mapping(address => mapping(address => bool))",
						"numberOfBytes": "32",
						"value": "t_mapping(t_address,t_bool)"
					},
					"t_mapping(t_address,t_mapping(t_uint256,t_array(t_address)dyn_storage))": {
						"encoding": "mapping",
						"key": "t_address",
						"label": "mapping(address => mapping(uint256 => address[]))",
						"numberOfBytes": "32",
						"value": "t_mapping(t_uint256,t_array(t_address)dyn_storage)"
					},
					"t_mapping(t_uint256,t_array(t_address)dyn_storage)": {
						"encoding": "mapping",
						"key": "t_uint256",
						"label": "mapping(uint256 => address[])",
						"numberOfBytes": "32",
						"value": "t_array(t_address)dyn_storage"
					},
					"t_string_storage": {
						"encoding": "bytes",
						"label": "string",
						"numberOfBytes": "32"
					},
					"t_struct(Campaign)91_storage": {
						"encoding": "inplace",
						"label": "struct CharityDonationStorage.Campaign",
						"members": [
							{
								"astId": 74,
								"contract": "contracts/CharityDonationView.sol:CharityDonationView",
								"label": "campaign_id",
								"offset": 0,
								"slot": "0",
								"type": "t_uint256"
							},
							{
								"astId": 76,
								"contract": "contracts/CharityDonationView.sol:CharityDonationView",
								"label": "title",
								"offset": 0,
								"slot": "1",
								"type": "t_string_storage"
							},
							{
								"astId": 78,
								"contract": "contracts/CharityDonationView.sol:CharityDonationView",
								"label": "description",
								"offset": 0,
								"slot": "2",
								"type": "t_string_storage"
							},
							{
								"astId": 80,
								"contract": "contracts/CharityDonationView.sol:CharityDonationView",
								"label": "campaignAddress",
								"offset": 0,
								"slot": "3",
								"type": "t_address"
							},
							{
								"astId": 82,
								"contract": "contracts/CharityDonationView.sol:CharityDonationView",
								"label": "targetAmount",
								"offset": 0,
								"slot": "4",
								"type": "t_uint256"
							},
							{
								"astId": 84,
								"contract": "contracts/CharityDonationView.sol:CharityDonationView",
								"label": "raisedAmount",
								"offset": 0,
								"slot": "5",
								"type": "t_uint256"
							},
							{
								"astId": 86,
								"contract": "contracts/CharityDonationView.sol:CharityDonationView",
								"label": "deadline",
								"offset": 0,
								"slot": "6",
								"type": "t_uint256"
							},
							{
								"astId": 88,
								"contract": "contracts/CharityDonationView.sol:CharityDonationView",
								"label": "isCompleted",
								"offset": 0,
								"slot": "7",
								"type": "t_bool"
							},
							{
								"astId": 90,
								"contract": "contracts/CharityDonationView.sol:CharityDonationView",
								"label": "isCancelled",
								"offset": 1,
								"slot": "7",
								"type": "t_bool"
							}
						],
						"numberOfBytes": "256"
					},
					"t_struct(Donation)100_storage": {
						"encoding": "inplace",
						"label": "struct CharityDonationStorage.Donation",
						"members": [
							{
								"astId": 93,
								"contract": "contracts/CharityDonationView.sol:CharityDonationView",
								"label": "campaignAddress",
								"offset": 0,
								"slot": "0",
								"type": "t_address"
							},
							{
								"astId": 95,
								"contract": "contracts/CharityDonationView.sol:CharityDonationView",
								"label": "campaignId",
								"offset": 0,
								"slot": "1",
								"type": "t_uint256"
							},
							{
								"astId": 97,
								"contract": "contracts/CharityDonationView.sol:CharityDonationView",
								"label": "title",
								"offset": 0,
								"slot": "2",
								"type": "t_string_storage"
							},
							{
								"astId": 99,
								"contract": "contracts/CharityDonationView.sol:CharityDonationView",
								"label": "amount",
								"offset": 0,
								"slot": "3",
								"type": "t_uint256"
							}
						],
						"numberOfBytes": "128"
					},
					"t_struct(Withdrawals)111_storage": {
						"encoding": "inplace",
						"label": "struct CharityDonationStorage.Withdrawals",
						"members": [
							{
								"astId": 102,
								"contract": "contracts/CharityDonationView.sol:CharityDonationView",
								"label": "campaignId",
								"offset": 0,
								"slot": "0",
								"type": "t_uint256"
							},
							{
								"astId": 104,
								"contract": "contracts/CharityDonationView.sol:CharityDonationView",
								"label": "title",
								"offset": 0,
								"slot": "1",
								"type": "t_string_storage"
							},
							{
								"astId": 106,
								"contract": "contracts/CharityDonationView.sol:CharityDonationView",
								"label": "amount",
								"offset": 0,
								"slot": "2",
								"type": "t_uint256"
							},
							{
								"astId": 108,
								"contract": "contracts/CharityDonationView.sol:CharityDonationView",
								"label": "by",
								"offset": 0,
								"slot": "3",
								"type": "t_address"
							},
							{
								"astId": 110,
								"contract": "contracts/CharityDonationView.sol:CharityDonationView",
								"label": "to",
								"offset": 0,
								"slot": "4",
								"type": "t_address"
							}
						],
						"numberOfBytes": "160"
					},
					"t_uint256": {
						"encoding": "inplace",
						"label": "uint256",
						"numberOfBytes": "32"
					}
				}
			},
			"userdoc": {
				"kind": "user",
				"methods": {},
				"version": 1
			}
		}
	}
}