{
	"contracts/CharityDonation.sol": {
		"CharityDonation": {
			"abi": [
				{
					"inputs": [],
					"stateMutability": "nonpayable",
					"type": "constructor"
				},
				{
					"anonymous": false,
					"inputs": [
						{
							"indexed": false,
							"internalType": "uint256",
							"name": "campaign_id",
							"type": "uint256"
						}
					],
					"name": "CampaignCompleted",
					"type": "event"
				},
				{
					"anonymous": false,
					"inputs": [
						{
							"indexed": false,
							"internalType": "uint256",
							"name": "campaign_id",
							"type": "uint256"
						},
						{
							"indexed": false,
							"internalType": "address",
							"name": "owner",
							"type": "address"
						},
						{
							"indexed": false,
							"internalType": "string",
							"name": "title",
							"type": "string"
						},
						{
							"indexed": false,
							"internalType": "uint256",
							"name": "targetAmount",
							"type": "uint256"
						}
					],
					"name": "CampaignCreated",
					"type": "event"
				},
				{
					"anonymous": false,
					"inputs": [
						{
							"indexed": false,
							"internalType": "address",
							"name": "donor",
							"type": "address"
						},
						{
							"indexed": false,
							"internalType": "uint256",
							"name": "amount",
							"type": "uint256"
						}
					],
					"name": "DonationReceived",
					"type": "event"
				},
				{
					"anonymous": false,
					"inputs": [
						{
							"indexed": false,
							"internalType": "uint256",
							"name": "amount",
							"type": "uint256"
						}
					],
					"name": "FundsWithdrawn",
					"type": "event"
				},
				{
					"inputs": [
						{
							"internalType": "address",
							"name": "",
							"type": "address"
						},
						{
							"internalType": "string",
							"name": "",
							"type": "string"
						}
					],
					"name": "adminRoles",
					"outputs": [
						{
							"internalType": "bool",
							"name": "",
							"type": "bool"
						}
					],
					"stateMutability": "view",
					"type": "function"
				},
				{
					"inputs": [
						{
							"internalType": "address",
							"name": "",
							"type": "address"
						},
						{
							"internalType": "uint256",
							"name": "",
							"type": "uint256"
						}
					],
					"name": "campaigns",
					"outputs": [
						{
							"internalType": "uint256",
							"name": "campaign_id",
							"type": "uint256"
						},
						{
							"internalType": "string",
							"name": "title",
							"type": "string"
						},
						{
							"internalType": "string",
							"name": "description",
							"type": "string"
						},
						{
							"internalType": "address",
							"name": "owner",
							"type": "address"
						},
						{
							"internalType": "uint256",
							"name": "targetAmount",
							"type": "uint256"
						},
						{
							"internalType": "uint256",
							"name": "raisedAmount",
							"type": "uint256"
						},
						{
							"internalType": "bool",
							"name": "isCompleted",
							"type": "bool"
						}
					],
					"stateMutability": "view",
					"type": "function"
				},
				{
					"inputs": [
						{
							"internalType": "string",
							"name": "_title",
							"type": "string"
						},
						{
							"internalType": "string",
							"name": "_description",
							"type": "string"
						},
						{
							"internalType": "uint256",
							"name": "_target",
							"type": "uint256"
						}
					],
					"name": "createCampaign",
					"outputs": [],
					"stateMutability": "nonpayable",
					"type": "function"
				},
				{
					"inputs": [
						{
							"internalType": "address payable",
							"name": "_campaignAddress",
							"type": "address"
						},
						{
							"internalType": "uint256",
							"name": "_campaignId",
							"type": "uint256"
						},
						{
							"internalType": "uint256",
							"name": "_amount",
							"type": "uint256"
						}
					],
					"name": "donateToCampaign",
					"outputs": [],
					"stateMutability": "payable",
					"type": "function"
				}
			],
			"devdoc": {
				"kind": "dev",
				"methods": {},
				"version": 1
			},
			"evm": {
				"assembly": "    /* \"contracts/CharityDonation.sol\":63:3975  contract CharityDonation {... */\n  mstore(0x40, 0x80)\n    /* \"contracts/CharityDonation.sol\":1119:1178  constructor() {... */\n  callvalue\n  dup1\n  iszero\n  tag_1\n  jumpi\n  0x00\n  dup1\n  revert\ntag_1:\n  pop\n    /* \"contracts/CharityDonation.sol\":1160:1170  msg.sender */\n  caller\n    /* \"contracts/CharityDonation.sol\":1144:1157  contractOwner */\n  0x00\n  dup1\n    /* \"contracts/CharityDonation.sol\":1144:1170  contractOwner = msg.sender */\n  0x0100\n  exp\n  dup2\n  sload\n  dup2\n  0xffffffffffffffffffffffffffffffffffffffff\n  mul\n  not\n  and\n  swap1\n  dup4\n  0xffffffffffffffffffffffffffffffffffffffff\n  and\n  mul\n  or\n  swap1\n  sstore\n  pop\n    /* \"contracts/CharityDonation.sol\":63:3975  contract CharityDonation {... */\n  dataSize(sub_0)\n  dup1\n  dataOffset(sub_0)\n  0x00\n  codecopy\n  0x00\n  return\nstop\n\nsub_0: assembly {\n        /* \"contracts/CharityDonation.sol\":63:3975  contract CharityDonation {... */\n      mstore(0x40, 0x80)\n      jumpi(tag_1, lt(calldatasize, 0x04))\n      shr(0xe0, calldataload(0x00))\n      dup1\n      0x11555dbc\n      eq\n      tag_2\n      jumpi\n      dup1\n      0x5a3915cd\n      eq\n      tag_3\n      jumpi\n      dup1\n      0xcedcf334\n      eq\n      tag_4\n      jumpi\n      dup1\n      0xffa56a57\n      eq\n      tag_5\n      jumpi\n    tag_1:\n      0x00\n      dup1\n      revert\n        /* \"contracts/CharityDonation.sol\":634:683  mapping  (address => Campaign[]) public campaigns */\n    tag_2:\n      callvalue\n      dup1\n      iszero\n      tag_6\n      jumpi\n      0x00\n      dup1\n      revert\n    tag_6:\n      pop\n      tag_7\n      0x04\n      dup1\n      calldatasize\n      sub\n      dup2\n      add\n      swap1\n      tag_8\n      swap2\n      swap1\n      tag_9\n      jump\t// in\n    tag_8:\n      tag_10\n      jump\t// in\n    tag_7:\n      mload(0x40)\n      tag_11\n      swap8\n      swap7\n      swap6\n      swap5\n      swap4\n      swap3\n      swap2\n      swap1\n      tag_12\n      jump\t// in\n    tag_11:\n      mload(0x40)\n      dup1\n      swap2\n      sub\n      swap1\n      return\n        /* \"contracts/CharityDonation.sol\":2544:3972  function donateToCampaign(address payable  _campaignAddress, uint256 _campaignId, uint256 _amount) public payable  {... */\n    tag_3:\n      tag_13\n      0x04\n      dup1\n      calldatasize\n      sub\n      dup2\n      add\n      swap1\n      tag_14\n      swap2\n      swap1\n      tag_15\n      jump\t// in\n    tag_14:\n      tag_16\n      jump\t// in\n    tag_13:\n      stop\n        /* \"contracts/CharityDonation.sol\":735:799  mapping  (address => mapping (string => bool)) public adminRoles */\n    tag_4:\n      callvalue\n      dup1\n      iszero\n      tag_17\n      jumpi\n      0x00\n      dup1\n      revert\n    tag_17:\n      pop\n      tag_18\n      0x04\n      dup1\n      calldatasize\n      sub\n      dup2\n      add\n      swap1\n      tag_19\n      swap2\n      swap1\n      tag_20\n      jump\t// in\n    tag_19:\n      tag_21\n      jump\t// in\n    tag_18:\n      mload(0x40)\n      tag_22\n      swap2\n      swap1\n      tag_23\n      jump\t// in\n    tag_22:\n      mload(0x40)\n      dup1\n      swap2\n      sub\n      swap1\n      return\n        /* \"contracts/CharityDonation.sol\":1216:2503  function createCampaign(string memory _title, string memory _description, uint256 _target) public  {... */\n    tag_5:\n      callvalue\n      dup1\n      iszero\n      tag_24\n      jumpi\n      0x00\n      dup1\n      revert\n    tag_24:\n      pop\n      tag_25\n      0x04\n      dup1\n      calldatasize\n      sub\n      dup2\n      add\n      swap1\n      tag_26\n      swap2\n      swap1\n      tag_27\n      jump\t// in\n    tag_26:\n      tag_28\n      jump\t// in\n    tag_25:\n      stop\n        /* \"contracts/CharityDonation.sol\":634:683  mapping  (address => Campaign[]) public campaigns */\n    tag_10:\n      mstore(0x20, 0x01)\n      dup2\n      0x00\n      mstore\n      keccak256(0x00, 0x40)\n      dup2\n      dup2\n      sload\n      dup2\n      lt\n      tag_29\n      jumpi\n      0x00\n      dup1\n      revert\n    tag_29:\n      swap1\n      0x00\n      mstore\n      keccak256(0x00, 0x20)\n      swap1\n      0x07\n      mul\n      add\n      0x00\n      swap2\n      pop\n      swap2\n      pop\n      pop\n      dup1\n      0x00\n      add\n      sload\n      swap1\n      dup1\n      0x01\n      add\n      dup1\n      sload\n      tag_31\n      swap1\n      tag_32\n      jump\t// in\n    tag_31:\n      dup1\n      0x1f\n      add\n      0x20\n      dup1\n      swap2\n      div\n      mul\n      0x20\n      add\n      mload(0x40)\n      swap1\n      dup2\n      add\n      0x40\n      mstore\n      dup1\n      swap3\n      swap2\n      swap1\n      dup2\n      dup2\n      mstore\n      0x20\n      add\n      dup3\n      dup1\n      sload\n      tag_33\n      swap1\n      tag_32\n      jump\t// in\n    tag_33:\n      dup1\n      iszero\n      tag_34\n      jumpi\n      dup1\n      0x1f\n      lt\n      tag_35\n      jumpi\n      0x0100\n      dup1\n      dup4\n      sload\n      div\n      mul\n      dup4\n      mstore\n      swap2\n      0x20\n      add\n      swap2\n      jump(tag_34)\n    tag_35:\n      dup3\n      add\n      swap2\n      swap1\n      0x00\n      mstore\n      keccak256(0x00, 0x20)\n      swap1\n    tag_36:\n      dup2\n      sload\n      dup2\n      mstore\n      swap1\n      0x01\n      add\n      swap1\n      0x20\n      add\n      dup1\n      dup4\n      gt\n      tag_36\n      jumpi\n      dup3\n      swap1\n      sub\n      0x1f\n      and\n      dup3\n      add\n      swap2\n    tag_34:\n      pop\n      pop\n      pop\n      pop\n      pop\n      swap1\n      dup1\n      0x02\n      add\n      dup1\n      sload\n      tag_37\n      swap1\n      tag_32\n      jump\t// in\n    tag_37:\n      dup1\n      0x1f\n      add\n      0x20\n      dup1\n      swap2\n      div\n      mul\n      0x20\n      add\n      mload(0x40)\n      swap1\n      dup2\n      add\n      0x40\n      mstore\n      dup1\n      swap3\n      swap2\n      swap1\n      dup2\n      dup2\n      mstore\n      0x20\n      add\n      dup3\n      dup1\n      sload\n      tag_38\n      swap1\n      tag_32\n      jump\t// in\n    tag_38:\n      dup1\n      iszero\n      tag_39\n      jumpi\n      dup1\n      0x1f\n      lt\n      tag_40\n      jumpi\n      0x0100\n      dup1\n      dup4\n      sload\n      div\n      mul\n      dup4\n      mstore\n      swap2\n      0x20\n      add\n      swap2\n      jump(tag_39)\n    tag_40:\n      dup3\n      add\n      swap2\n      swap1\n      0x00\n      mstore\n      keccak256(0x00, 0x20)\n      swap1\n    tag_41:\n      dup2\n      sload\n      dup2\n      mstore\n      swap1\n      0x01\n      add\n      swap1\n      0x20\n      add\n      dup1\n      dup4\n      gt\n      tag_41\n      jumpi\n      dup3\n      swap1\n      sub\n      0x1f\n      and\n      dup3\n      add\n      swap2\n    tag_39:\n      pop\n      pop\n      pop\n      pop\n      pop\n      swap1\n      dup1\n      0x03\n      add\n      0x00\n      swap1\n      sload\n      swap1\n      0x0100\n      exp\n      swap1\n      div\n      0xffffffffffffffffffffffffffffffffffffffff\n      and\n      swap1\n      dup1\n      0x04\n      add\n      sload\n      swap1\n      dup1\n      0x05\n      add\n      sload\n      swap1\n      dup1\n      0x06\n      add\n      0x00\n      swap1\n      sload\n      swap1\n      0x0100\n      exp\n      swap1\n      div\n      0xff\n      and\n      swap1\n      pop\n      dup8\n      jump\t// out\n        /* \"contracts/CharityDonation.sol\":2544:3972  function donateToCampaign(address payable  _campaignAddress, uint256 _campaignId, uint256 _amount) public payable  {... */\n    tag_16:\n        /* \"contracts/CharityDonation.sol\":2820:2831  _campaignId */\n      dup2\n        /* \"contracts/CharityDonation.sol\":2762:2771  campaigns */\n      0x01\n        /* \"contracts/CharityDonation.sol\":2762:2789  campaigns[_campaignAddress] */\n      0x00\n        /* \"contracts/CharityDonation.sol\":2772:2788  _campaignAddress */\n      dup6\n        /* \"contracts/CharityDonation.sol\":2762:2789  campaigns[_campaignAddress] */\n      0xffffffffffffffffffffffffffffffffffffffff\n      and\n      0xffffffffffffffffffffffffffffffffffffffff\n      and\n      dup2\n      mstore\n      0x20\n      add\n      swap1\n      dup2\n      mstore\n      0x20\n      add\n      0x00\n      keccak256\n        /* \"contracts/CharityDonation.sol\":2802:2803  1 */\n      0x01\n        /* \"contracts/CharityDonation.sol\":2790:2801  _campaignId */\n      dup5\n        /* \"contracts/CharityDonation.sol\":2790:2803  _campaignId-1 */\n      tag_43\n      swap2\n      swap1\n      tag_44\n      jump\t// in\n    tag_43:\n        /* \"contracts/CharityDonation.sol\":2762:2804  campaigns[_campaignAddress][_campaignId-1] */\n      dup2\n      sload\n      dup2\n      lt\n      tag_45\n      jumpi\n      tag_46\n      tag_47\n      jump\t// in\n    tag_46:\n    tag_45:\n      swap1\n      0x00\n      mstore\n      keccak256(0x00, 0x20)\n      swap1\n      0x07\n      mul\n      add\n        /* \"contracts/CharityDonation.sol\":2762:2816  campaigns[_campaignAddress][_campaignId-1].campaign_id */\n      0x00\n      add\n      sload\n        /* \"contracts/CharityDonation.sol\":2762:2831  campaigns[_campaignAddress][_campaignId-1].campaign_id == _campaignId */\n      eq\n        /* \"contracts/CharityDonation.sol\":2888:2899  _campaignId */\n      dup3\n        /* \"contracts/CharityDonation.sol\":2854:2921  abi.encodePacked(\"The Campaign \", _campaignId , \" Does NOT Exist!\") */\n      add(0x20, mload(0x40))\n      tag_49\n      swap2\n      swap1\n      tag_50\n      jump\t// in\n    tag_49:\n      mload(0x40)\n      0x20\n      dup2\n      dup4\n      sub\n      sub\n      dup2\n      mstore\n      swap1\n      0x40\n      mstore\n        /* \"contracts/CharityDonation.sol\":2740:2933  require(... */\n      swap1\n      tag_51\n      jumpi\n      mload(0x40)\n      0x08c379a000000000000000000000000000000000000000000000000000000000\n      dup2\n      mstore\n      0x04\n      add\n      tag_52\n      swap2\n      swap1\n      tag_53\n      jump\t// in\n    tag_52:\n      mload(0x40)\n      dup1\n      swap2\n      sub\n      swap1\n      revert\n    tag_51:\n      pop\n        /* \"contracts/CharityDonation.sol\":3024:3029  false */\n      0x00\n        /* \"contracts/CharityDonation.sol\":2966:3029  campaigns[_campaignAddress][_campaignId-1].isCompleted == false */\n      iszero\n      iszero\n        /* \"contracts/CharityDonation.sol\":2966:2975  campaigns */\n      0x01\n        /* \"contracts/CharityDonation.sol\":2966:2993  campaigns[_campaignAddress] */\n      0x00\n        /* \"contracts/CharityDonation.sol\":2976:2992  _campaignAddress */\n      dup6\n        /* \"contracts/CharityDonation.sol\":2966:2993  campaigns[_campaignAddress] */\n      0xffffffffffffffffffffffffffffffffffffffff\n      and\n      0xffffffffffffffffffffffffffffffffffffffff\n      and\n      dup2\n      mstore\n      0x20\n      add\n      swap1\n      dup2\n      mstore\n      0x20\n      add\n      0x00\n      keccak256\n        /* \"contracts/CharityDonation.sol\":3006:3007  1 */\n      0x01\n        /* \"contracts/CharityDonation.sol\":2994:3005  _campaignId */\n      dup5\n        /* \"contracts/CharityDonation.sol\":2994:3007  _campaignId-1 */\n      tag_54\n      swap2\n      swap1\n      tag_44\n      jump\t// in\n    tag_54:\n        /* \"contracts/CharityDonation.sol\":2966:3008  campaigns[_campaignAddress][_campaignId-1] */\n      dup2\n      sload\n      dup2\n      lt\n      tag_55\n      jumpi\n      tag_56\n      tag_47\n      jump\t// in\n    tag_56:\n    tag_55:\n      swap1\n      0x00\n      mstore\n      keccak256(0x00, 0x20)\n      swap1\n      0x07\n      mul\n      add\n        /* \"contracts/CharityDonation.sol\":2966:3020  campaigns[_campaignAddress][_campaignId-1].isCompleted */\n      0x06\n      add\n      0x00\n      swap1\n      sload\n      swap1\n      0x0100\n      exp\n      swap1\n      div\n      0xff\n      and\n        /* \"contracts/CharityDonation.sol\":2966:3029  campaigns[_campaignAddress][_campaignId-1].isCompleted == false */\n      iszero\n      iszero\n      eq\n        /* \"contracts/CharityDonation.sol\":3073:3082  campaigns */\n      0x01\n        /* \"contracts/CharityDonation.sol\":3073:3100  campaigns[_campaignAddress] */\n      0x00\n        /* \"contracts/CharityDonation.sol\":3083:3099  _campaignAddress */\n      dup6\n        /* \"contracts/CharityDonation.sol\":3073:3100  campaigns[_campaignAddress] */\n      0xffffffffffffffffffffffffffffffffffffffff\n      and\n      0xffffffffffffffffffffffffffffffffffffffff\n      and\n      dup2\n      mstore\n      0x20\n      add\n      swap1\n      dup2\n      mstore\n      0x20\n      add\n      0x00\n      keccak256\n        /* \"contracts/CharityDonation.sol\":3113:3114  1 */\n      0x01\n        /* \"contracts/CharityDonation.sol\":3101:3112  _campaignId */\n      dup5\n        /* \"contracts/CharityDonation.sol\":3101:3114  _campaignId-1 */\n      tag_58\n      swap2\n      swap1\n      tag_44\n      jump\t// in\n    tag_58:\n        /* \"contracts/CharityDonation.sol\":3073:3115  campaigns[_campaignAddress][_campaignId-1] */\n      dup2\n      sload\n      dup2\n      lt\n      tag_59\n      jumpi\n      tag_60\n      tag_47\n      jump\t// in\n    tag_60:\n    tag_59:\n      swap1\n      0x00\n      mstore\n      keccak256(0x00, 0x20)\n      swap1\n      0x07\n      mul\n      add\n        /* \"contracts/CharityDonation.sol\":3073:3121  campaigns[_campaignAddress][_campaignId-1].title */\n      0x01\n      add\n        /* \"contracts/CharityDonation.sol\":3052:3151  abi.encodePacked(\"'\",campaigns[_campaignAddress][_campaignId-1].title, \"' Campaign Was Completed!\") */\n      add(0x20, mload(0x40))\n      tag_62\n      swap2\n      swap1\n      tag_63\n      jump\t// in\n    tag_62:\n      mload(0x40)\n      0x20\n      dup2\n      dup4\n      sub\n      sub\n      dup2\n      mstore\n      swap1\n      0x40\n      mstore\n        /* \"contracts/CharityDonation.sol\":2944:3163  require(... */\n      swap1\n      tag_64\n      jumpi\n      mload(0x40)\n      0x08c379a000000000000000000000000000000000000000000000000000000000\n      dup2\n      mstore\n      0x04\n      add\n      tag_65\n      swap2\n      swap1\n      tag_53\n      jump\t// in\n    tag_65:\n      mload(0x40)\n      dup1\n      swap2\n      sub\n      swap1\n      revert\n    tag_64:\n      pop\n        /* \"contracts/CharityDonation.sol\":3279:3280  0 */\n      0x00\n        /* \"contracts/CharityDonation.sol\":3269:3276  _amount */\n      dup2\n        /* \"contracts/CharityDonation.sol\":3269:3280  _amount > 0 */\n      gt\n        /* \"contracts/CharityDonation.sol\":3261:3307  require(_amount > 0 , \"Amount Cannot be Zero\") */\n      tag_66\n      jumpi\n      mload(0x40)\n      0x08c379a000000000000000000000000000000000000000000000000000000000\n      dup2\n      mstore\n      0x04\n      add\n      tag_67\n      swap1\n      tag_68\n      jump\t// in\n    tag_67:\n      mload(0x40)\n      dup1\n      swap2\n      sub\n      swap1\n      revert\n    tag_66:\n        /* \"contracts/CharityDonation.sol\":3339:3346  _amount */\n      dup1\n        /* \"contracts/CharityDonation.sol\":3326:3335  msg.value */\n      callvalue\n        /* \"contracts/CharityDonation.sol\":3326:3346  msg.value == _amount */\n      eq\n        /* \"contracts/CharityDonation.sol\":3318:3376  require(msg.value == _amount, \"The Amount doesn't Match!\") */\n      tag_69\n      jumpi\n      mload(0x40)\n      0x08c379a000000000000000000000000000000000000000000000000000000000\n      dup2\n      mstore\n      0x04\n      add\n      tag_70\n      swap1\n      tag_71\n      jump\t// in\n    tag_70:\n      mload(0x40)\n      dup1\n      swap2\n      sub\n      swap1\n      revert\n    tag_69:\n        /* \"contracts/CharityDonation.sol\":3439:3455  _campaignAddress */\n      dup3\n        /* \"contracts/CharityDonation.sol\":3439:3464  _campaignAddress.transfer */\n      0xffffffffffffffffffffffffffffffffffffffff\n      and\n        /* \"contracts/CharityDonation.sol\":3439:3473  _campaignAddress.transfer(_amount) */\n      0x08fc\n        /* \"contracts/CharityDonation.sol\":3465:3472  _amount */\n      dup3\n        /* \"contracts/CharityDonation.sol\":3439:3473  _campaignAddress.transfer(_amount) */\n      swap1\n      dup2\n      iszero\n      mul\n      swap1\n      mload(0x40)\n      0x00\n      mload(0x40)\n      dup1\n      dup4\n      sub\n      dup2\n      dup6\n      dup9\n      dup9\n      call\n      swap4\n      pop\n      pop\n      pop\n      pop\n      iszero\n      dup1\n      iszero\n      tag_73\n      jumpi\n      returndatasize\n      0x00\n      dup1\n      returndatacopy\n      revert(0x00, returndatasize)\n    tag_73:\n      pop\n        /* \"contracts/CharityDonation.sol\":3656:3663  _amount */\n      dup1\n        /* \"contracts/CharityDonation.sol\":3597:3606  campaigns */\n      0x01\n        /* \"contracts/CharityDonation.sol\":3597:3624  campaigns[_campaignAddress] */\n      0x00\n        /* \"contracts/CharityDonation.sol\":3607:3623  _campaignAddress */\n      dup6\n        /* \"contracts/CharityDonation.sol\":3597:3624  campaigns[_campaignAddress] */\n      0xffffffffffffffffffffffffffffffffffffffff\n      and\n      0xffffffffffffffffffffffffffffffffffffffff\n      and\n      dup2\n      mstore\n      0x20\n      add\n      swap1\n      dup2\n      mstore\n      0x20\n      add\n      0x00\n      keccak256\n        /* \"contracts/CharityDonation.sol\":3637:3638  1 */\n      0x01\n        /* \"contracts/CharityDonation.sol\":3625:3636  _campaignId */\n      dup5\n        /* \"contracts/CharityDonation.sol\":3625:3638  _campaignId-1 */\n      tag_74\n      swap2\n      swap1\n      tag_44\n      jump\t// in\n    tag_74:\n        /* \"contracts/CharityDonation.sol\":3597:3639  campaigns[_campaignAddress][_campaignId-1] */\n      dup2\n      sload\n      dup2\n      lt\n      tag_75\n      jumpi\n      tag_76\n      tag_47\n      jump\t// in\n    tag_76:\n    tag_75:\n      swap1\n      0x00\n      mstore\n      keccak256(0x00, 0x20)\n      swap1\n      0x07\n      mul\n      add\n        /* \"contracts/CharityDonation.sol\":3597:3652  campaigns[_campaignAddress][_campaignId-1].raisedAmount */\n      0x05\n      add\n      0x00\n        /* \"contracts/CharityDonation.sol\":3597:3663  campaigns[_campaignAddress][_campaignId-1].raisedAmount += _amount */\n      dup3\n      dup3\n      sload\n      tag_78\n      swap2\n      swap1\n      tag_79\n      jump\t// in\n    tag_78:\n      swap3\n      pop\n      pop\n      dup2\n      swap1\n      sstore\n      pop\n        /* \"contracts/CharityDonation.sol\":3737:3746  campaigns */\n      0x01\n        /* \"contracts/CharityDonation.sol\":3737:3764  campaigns[_campaignAddress] */\n      0x00\n        /* \"contracts/CharityDonation.sol\":3747:3763  _campaignAddress */\n      dup5\n        /* \"contracts/CharityDonation.sol\":3737:3764  campaigns[_campaignAddress] */\n      0xffffffffffffffffffffffffffffffffffffffff\n      and\n      0xffffffffffffffffffffffffffffffffffffffff\n      and\n      dup2\n      mstore\n      0x20\n      add\n      swap1\n      dup2\n      mstore\n      0x20\n      add\n      0x00\n      keccak256\n        /* \"contracts/CharityDonation.sol\":3777:3778  1 */\n      0x01\n        /* \"contracts/CharityDonation.sol\":3765:3776  _campaignId */\n      dup4\n        /* \"contracts/CharityDonation.sol\":3765:3778  _campaignId-1 */\n      tag_80\n      swap2\n      swap1\n      tag_44\n      jump\t// in\n    tag_80:\n        /* \"contracts/CharityDonation.sol\":3737:3779  campaigns[_campaignAddress][_campaignId-1] */\n      dup2\n      sload\n      dup2\n      lt\n      tag_81\n      jumpi\n      tag_82\n      tag_47\n      jump\t// in\n    tag_82:\n    tag_81:\n      swap1\n      0x00\n      mstore\n      keccak256(0x00, 0x20)\n      swap1\n      0x07\n      mul\n      add\n        /* \"contracts/CharityDonation.sol\":3737:3792  campaigns[_campaignAddress][_campaignId-1].targetAmount */\n      0x04\n      add\n      sload\n        /* \"contracts/CharityDonation.sol\":3678:3687  campaigns */\n      0x01\n        /* \"contracts/CharityDonation.sol\":3678:3705  campaigns[_campaignAddress] */\n      0x00\n        /* \"contracts/CharityDonation.sol\":3688:3704  _campaignAddress */\n      dup6\n        /* \"contracts/CharityDonation.sol\":3678:3705  campaigns[_campaignAddress] */\n      0xffffffffffffffffffffffffffffffffffffffff\n      and\n      0xffffffffffffffffffffffffffffffffffffffff\n      and\n      dup2\n      mstore\n      0x20\n      add\n      swap1\n      dup2\n      mstore\n      0x20\n      add\n      0x00\n      keccak256\n        /* \"contracts/CharityDonation.sol\":3718:3719  1 */\n      0x01\n        /* \"contracts/CharityDonation.sol\":3706:3717  _campaignId */\n      dup5\n        /* \"contracts/CharityDonation.sol\":3706:3719  _campaignId-1 */\n      tag_84\n      swap2\n      swap1\n      tag_44\n      jump\t// in\n    tag_84:\n        /* \"contracts/CharityDonation.sol\":3678:3720  campaigns[_campaignAddress][_campaignId-1] */\n      dup2\n      sload\n      dup2\n      lt\n      tag_85\n      jumpi\n      tag_86\n      tag_47\n      jump\t// in\n    tag_86:\n    tag_85:\n      swap1\n      0x00\n      mstore\n      keccak256(0x00, 0x20)\n      swap1\n      0x07\n      mul\n      add\n        /* \"contracts/CharityDonation.sol\":3678:3733  campaigns[_campaignAddress][_campaignId-1].raisedAmount */\n      0x05\n      add\n      sload\n        /* \"contracts/CharityDonation.sol\":3678:3792  campaigns[_campaignAddress][_campaignId-1].raisedAmount >= campaigns[_campaignAddress][_campaignId-1].targetAmount */\n      lt\n        /* \"contracts/CharityDonation.sol\":3674:3886  if (campaigns[_campaignAddress][_campaignId-1].raisedAmount >= campaigns[_campaignAddress][_campaignId-1].targetAmount) {... */\n      tag_88\n      jumpi\n        /* \"contracts/CharityDonation.sol\":3866:3870  true */\n      0x01\n        /* \"contracts/CharityDonation.sol\":3809:3818  campaigns */\n      dup1\n        /* \"contracts/CharityDonation.sol\":3809:3836  campaigns[_campaignAddress] */\n      0x00\n        /* \"contracts/CharityDonation.sol\":3819:3835  _campaignAddress */\n      dup6\n        /* \"contracts/CharityDonation.sol\":3809:3836  campaigns[_campaignAddress] */\n      0xffffffffffffffffffffffffffffffffffffffff\n      and\n      0xffffffffffffffffffffffffffffffffffffffff\n      and\n      dup2\n      mstore\n      0x20\n      add\n      swap1\n      dup2\n      mstore\n      0x20\n      add\n      0x00\n      keccak256\n        /* \"contracts/CharityDonation.sol\":3849:3850  1 */\n      0x01\n        /* \"contracts/CharityDonation.sol\":3837:3848  _campaignId */\n      dup5\n        /* \"contracts/CharityDonation.sol\":3837:3850  _campaignId-1 */\n      tag_89\n      swap2\n      swap1\n      tag_44\n      jump\t// in\n    tag_89:\n        /* \"contracts/CharityDonation.sol\":3809:3851  campaigns[_campaignAddress][_campaignId-1] */\n      dup2\n      sload\n      dup2\n      lt\n      tag_90\n      jumpi\n      tag_91\n      tag_47\n      jump\t// in\n    tag_91:\n    tag_90:\n      swap1\n      0x00\n      mstore\n      keccak256(0x00, 0x20)\n      swap1\n      0x07\n      mul\n      add\n        /* \"contracts/CharityDonation.sol\":3809:3863  campaigns[_campaignAddress][_campaignId-1].isCompleted */\n      0x06\n      add\n      0x00\n        /* \"contracts/CharityDonation.sol\":3809:3870  campaigns[_campaignAddress][_campaignId-1].isCompleted = true */\n      0x0100\n      exp\n      dup2\n      sload\n      dup2\n      0xff\n      mul\n      not\n      and\n      swap1\n      dup4\n      iszero\n      iszero\n      mul\n      or\n      swap1\n      sstore\n      pop\n        /* \"contracts/CharityDonation.sol\":3674:3886  if (campaigns[_campaignAddress][_campaignId-1].raisedAmount >= campaigns[_campaignAddress][_campaignId-1].targetAmount) {... */\n    tag_88:\n        /* \"contracts/CharityDonation.sol\":3925:3962  DonationReceived(msg.sender, _amount) */\n      0x264f630d9efa0d07053a31163641d9fcc0adafc9d9e76f1c37c2ce3a558d2c52\n        /* \"contracts/CharityDonation.sol\":3942:3952  msg.sender */\n      caller\n        /* \"contracts/CharityDonation.sol\":3954:3961  _amount */\n      dup3\n        /* \"contracts/CharityDonation.sol\":3925:3962  DonationReceived(msg.sender, _amount) */\n      mload(0x40)\n      tag_93\n      swap3\n      swap2\n      swap1\n      tag_94\n      jump\t// in\n    tag_93:\n      mload(0x40)\n      dup1\n      swap2\n      sub\n      swap1\n      log1\n        /* \"contracts/CharityDonation.sol\":2544:3972  function donateToCampaign(address payable  _campaignAddress, uint256 _campaignId, uint256 _amount) public payable  {... */\n      pop\n      pop\n      pop\n      jump\t// out\n        /* \"contracts/CharityDonation.sol\":735:799  mapping  (address => mapping (string => bool)) public adminRoles */\n    tag_21:\n      mstore(0x20, 0x02)\n      dup2\n      0x00\n      mstore\n      keccak256(0x00, 0x40)\n      dup2\n      dup1\n      mload\n      0x20\n      dup2\n      add\n      dup3\n      add\n      dup1\n      mload\n      dup5\n      dup3\n      mstore\n      0x20\n      dup4\n      add\n      0x20\n      dup6\n      add\n      keccak256\n      dup2\n      dup4\n      mstore\n      dup1\n      swap6\n      pop\n      pop\n      pop\n      pop\n      pop\n      pop\n      0x00\n      swap2\n      pop\n      swap2\n      pop\n      swap1\n      sload\n      swap1\n      0x0100\n      exp\n      swap1\n      div\n      0xff\n      and\n      dup2\n      jump\t// out\n        /* \"contracts/CharityDonation.sol\":1216:2503  function createCampaign(string memory _title, string memory _description, uint256 _target) public  {... */\n    tag_28:\n        /* \"contracts/CharityDonation.sol\":1399:1408  uint256 i */\n      0x00\n        /* \"contracts/CharityDonation.sol\":1395:1805  for(uint256 i; i < campaigns[msg.sender].length; i++) {... */\n    tag_96:\n        /* \"contracts/CharityDonation.sol\":1414:1423  campaigns */\n      0x01\n        /* \"contracts/CharityDonation.sol\":1414:1435  campaigns[msg.sender] */\n      0x00\n        /* \"contracts/CharityDonation.sol\":1424:1434  msg.sender */\n      caller\n        /* \"contracts/CharityDonation.sol\":1414:1435  campaigns[msg.sender] */\n      0xffffffffffffffffffffffffffffffffffffffff\n      and\n      0xffffffffffffffffffffffffffffffffffffffff\n      and\n      dup2\n      mstore\n      0x20\n      add\n      swap1\n      dup2\n      mstore\n      0x20\n      add\n      0x00\n      keccak256\n        /* \"contracts/CharityDonation.sol\":1414:1442  campaigns[msg.sender].length */\n      dup1\n      sload\n      swap1\n      pop\n        /* \"contracts/CharityDonation.sol\":1410:1411  i */\n      dup2\n        /* \"contracts/CharityDonation.sol\":1410:1442  i < campaigns[msg.sender].length */\n      lt\n        /* \"contracts/CharityDonation.sol\":1395:1805  for(uint256 i; i < campaigns[msg.sender].length; i++) {... */\n      iszero\n      tag_97\n      jumpi\n        /* \"contracts/CharityDonation.sol\":1468:1496  string storage campaignTitle */\n      0x00\n        /* \"contracts/CharityDonation.sol\":1499:1508  campaigns */\n      0x01\n        /* \"contracts/CharityDonation.sol\":1499:1520  campaigns[msg.sender] */\n      0x00\n        /* \"contracts/CharityDonation.sol\":1509:1519  msg.sender */\n      caller\n        /* \"contracts/CharityDonation.sol\":1499:1520  campaigns[msg.sender] */\n      0xffffffffffffffffffffffffffffffffffffffff\n      and\n      0xffffffffffffffffffffffffffffffffffffffff\n      and\n      dup2\n      mstore\n      0x20\n      add\n      swap1\n      dup2\n      mstore\n      0x20\n      add\n      0x00\n      keccak256\n        /* \"contracts/CharityDonation.sol\":1521:1522  i */\n      dup3\n        /* \"contracts/CharityDonation.sol\":1499:1523  campaigns[msg.sender][i] */\n      dup2\n      sload\n      dup2\n      lt\n      tag_99\n      jumpi\n      tag_100\n      tag_47\n      jump\t// in\n    tag_100:\n    tag_99:\n      swap1\n      0x00\n      mstore\n      keccak256(0x00, 0x20)\n      swap1\n      0x07\n      mul\n      add\n        /* \"contracts/CharityDonation.sol\":1499:1529  campaigns[msg.sender][i].title */\n      0x01\n      add\n        /* \"contracts/CharityDonation.sol\":1468:1529  string storage campaignTitle = campaigns[msg.sender][i].title */\n      swap1\n      pop\n        /* \"contracts/CharityDonation.sol\":1548:1559  bool exists */\n      0x00\n        /* \"contracts/CharityDonation.sol\":1635:1641  _title */\n      dup6\n        /* \"contracts/CharityDonation.sol\":1618:1642  abi.encodePacked(_title) */\n      add(0x20, mload(0x40))\n      tag_102\n      swap2\n      swap1\n      tag_103\n      jump\t// in\n    tag_102:\n      mload(0x40)\n      0x20\n      dup2\n      dup4\n      sub\n      sub\n      dup2\n      mstore\n      swap1\n      0x40\n      mstore\n        /* \"contracts/CharityDonation.sol\":1608:1643  keccak256(abi.encodePacked(_title)) */\n      dup1\n      mload\n      swap1\n      0x20\n      add\n      keccak256\n        /* \"contracts/CharityDonation.sol\":1589:1602  campaignTitle */\n      dup3\n        /* \"contracts/CharityDonation.sol\":1572:1603  abi.encodePacked(campaignTitle) */\n      add(0x20, mload(0x40))\n      tag_104\n      swap2\n      swap1\n      tag_105\n      jump\t// in\n    tag_104:\n      mload(0x40)\n      0x20\n      dup2\n      dup4\n      sub\n      sub\n      dup2\n      mstore\n      swap1\n      0x40\n      mstore\n        /* \"contracts/CharityDonation.sol\":1562:1604  keccak256(abi.encodePacked(campaignTitle)) */\n      dup1\n      mload\n      swap1\n      0x20\n      add\n      keccak256\n        /* \"contracts/CharityDonation.sol\":1562:1643  keccak256(abi.encodePacked(campaignTitle)) == keccak256(abi.encodePacked(_title)) */\n      eq\n        /* \"contracts/CharityDonation.sol\":1548:1643  bool exists = keccak256(abi.encodePacked(campaignTitle)) == keccak256(abi.encodePacked(_title)) */\n      swap1\n      pop\n        /* \"contracts/CharityDonation.sol\":1666:1672  exists */\n      dup1\n        /* \"contracts/CharityDonation.sol\":1662:1790  if (exists) {... */\n      iszero\n      tag_106\n      jumpi\n        /* \"contracts/CharityDonation.sol\":1741:1747  _title */\n      dup6\n        /* \"contracts/CharityDonation.sol\":1711:1768  abi.encodePacked(\"Campaign \", _title, \" already exists!\") */\n      add(0x20, mload(0x40))\n      tag_107\n      swap2\n      swap1\n      tag_108\n      jump\t// in\n    tag_107:\n      mload(0x40)\n      0x20\n      dup2\n      dup4\n      sub\n      sub\n      dup2\n      mstore\n      swap1\n      0x40\n      mstore\n        /* \"contracts/CharityDonation.sol\":1697:1770  revert(string(abi.encodePacked(\"Campaign \", _title, \" already exists!\"))) */\n      mload(0x40)\n      0x08c379a000000000000000000000000000000000000000000000000000000000\n      dup2\n      mstore\n      0x04\n      add\n      tag_109\n      swap2\n      swap1\n      tag_53\n      jump\t// in\n    tag_109:\n      mload(0x40)\n      dup1\n      swap2\n      sub\n      swap1\n      revert\n        /* \"contracts/CharityDonation.sol\":1662:1790  if (exists) {... */\n    tag_106:\n        /* \"contracts/CharityDonation.sol\":1449:1805  {... */\n      pop\n      pop\n        /* \"contracts/CharityDonation.sol\":1444:1447  i++ */\n      dup1\n      dup1\n      0x01\n      add\n      swap2\n      pop\n      pop\n        /* \"contracts/CharityDonation.sol\":1395:1805  for(uint256 i; i < campaigns[msg.sender].length; i++) {... */\n      jump(tag_96)\n    tag_97:\n      pop\n        /* \"contracts/CharityDonation.sol\":1855:1882  Campaign memory newCampaign */\n      0x00\n        /* \"contracts/CharityDonation.sol\":1886:2230  Campaign(... */\n      mload(0x40)\n      dup1\n      0xe0\n      add\n      0x40\n      mstore\n      dup1\n        /* \"contracts/CharityDonation.sol\":1973:1974  1 */\n      0x01\n        /* \"contracts/CharityDonation.sol\":1942:1951  campaigns */\n      dup1\n        /* \"contracts/CharityDonation.sol\":1942:1963  campaigns[msg.sender] */\n      0x00\n        /* \"contracts/CharityDonation.sol\":1952:1962  msg.sender */\n      caller\n        /* \"contracts/CharityDonation.sol\":1942:1963  campaigns[msg.sender] */\n      0xffffffffffffffffffffffffffffffffffffffff\n      and\n      0xffffffffffffffffffffffffffffffffffffffff\n      and\n      dup2\n      mstore\n      0x20\n      add\n      swap1\n      dup2\n      mstore\n      0x20\n      add\n      0x00\n      keccak256\n        /* \"contracts/CharityDonation.sol\":1942:1970  campaigns[msg.sender].length */\n      dup1\n      sload\n      swap1\n      pop\n        /* \"contracts/CharityDonation.sol\":1942:1974  campaigns[msg.sender].length + 1 */\n      tag_110\n      swap2\n      swap1\n      tag_79\n      jump\t// in\n    tag_110:\n        /* \"contracts/CharityDonation.sol\":1886:2230  Campaign(... */\n      dup2\n      mstore\n      0x20\n      add\n        /* \"contracts/CharityDonation.sol\":2000:2006  _title */\n      dup6\n        /* \"contracts/CharityDonation.sol\":1886:2230  Campaign(... */\n      dup2\n      mstore\n      0x20\n      add\n        /* \"contracts/CharityDonation.sol\":2038:2050  _description */\n      dup5\n        /* \"contracts/CharityDonation.sol\":1886:2230  Campaign(... */\n      dup2\n      mstore\n      0x20\n      add\n        /* \"contracts/CharityDonation.sol\":2077:2087  msg.sender */\n      caller\n        /* \"contracts/CharityDonation.sol\":1886:2230  Campaign(... */\n      0xffffffffffffffffffffffffffffffffffffffff\n      and\n      dup2\n      mstore\n      0x20\n      add\n        /* \"contracts/CharityDonation.sol\":2121:2128  _target */\n      dup4\n        /* \"contracts/CharityDonation.sol\":1886:2230  Campaign(... */\n      dup2\n      mstore\n      0x20\n      add\n        /* \"contracts/CharityDonation.sol\":2165:2166  0 */\n      0x00\n        /* \"contracts/CharityDonation.sol\":1886:2230  Campaign(... */\n      dup2\n      mstore\n      0x20\n      add\n        /* \"contracts/CharityDonation.sol\":2199:2204  false */\n      0x00\n        /* \"contracts/CharityDonation.sol\":1886:2230  Campaign(... */\n      iszero\n      iszero\n      dup2\n      mstore\n      pop\n        /* \"contracts/CharityDonation.sol\":1855:2230  Campaign memory newCampaign =  Campaign(... */\n      swap1\n      pop\n        /* \"contracts/CharityDonation.sol\":2241:2250  campaigns */\n      0x01\n        /* \"contracts/CharityDonation.sol\":2241:2262  campaigns[msg.sender] */\n      0x00\n        /* \"contracts/CharityDonation.sol\":2251:2261  msg.sender */\n      caller\n        /* \"contracts/CharityDonation.sol\":2241:2262  campaigns[msg.sender] */\n      0xffffffffffffffffffffffffffffffffffffffff\n      and\n      0xffffffffffffffffffffffffffffffffffffffff\n      and\n      dup2\n      mstore\n      0x20\n      add\n      swap1\n      dup2\n      mstore\n      0x20\n      add\n      0x00\n      keccak256\n        /* \"contracts/CharityDonation.sol\":2268:2279  newCampaign */\n      dup2\n        /* \"contracts/CharityDonation.sol\":2241:2280  campaigns[msg.sender].push(newCampaign) */\n      swap1\n      dup1\n      0x01\n      dup2\n      sload\n      add\n      dup1\n      dup3\n      sstore\n      dup1\n      swap2\n      pop\n      pop\n      0x01\n      swap1\n      sub\n      swap1\n      0x00\n      mstore\n      keccak256(0x00, 0x20)\n      swap1\n      0x07\n      mul\n      add\n      0x00\n      swap1\n      swap2\n      swap1\n      swap2\n      swap1\n      swap2\n      pop\n      0x00\n      dup3\n      add\n      mload\n      dup2\n      0x00\n      add\n      sstore\n      0x20\n      dup3\n      add\n      mload\n      dup2\n      0x01\n      add\n      swap1\n      dup2\n      tag_112\n      swap2\n      swap1\n      tag_113\n      jump\t// in\n    tag_112:\n      pop\n      0x40\n      dup3\n      add\n      mload\n      dup2\n      0x02\n      add\n      swap1\n      dup2\n      tag_114\n      swap2\n      swap1\n      tag_113\n      jump\t// in\n    tag_114:\n      pop\n      0x60\n      dup3\n      add\n      mload\n      dup2\n      0x03\n      add\n      exp(0x0100, 0x00)\n      dup2\n      sload\n      dup2\n      0xffffffffffffffffffffffffffffffffffffffff\n      mul\n      not\n      and\n      swap1\n      dup4\n      0xffffffffffffffffffffffffffffffffffffffff\n      and\n      mul\n      or\n      swap1\n      sstore\n      pop\n      0x80\n      dup3\n      add\n      mload\n      dup2\n      0x04\n      add\n      sstore\n      0xa0\n      dup3\n      add\n      mload\n      dup2\n      0x05\n      add\n      sstore\n      0xc0\n      dup3\n      add\n      mload\n      dup2\n      0x06\n      add\n      exp(0x0100, 0x00)\n      dup2\n      sload\n      dup2\n      0xff\n      mul\n      not\n      and\n      swap1\n      dup4\n      iszero\n      iszero\n      mul\n      or\n      swap1\n      sstore\n      pop\n      pop\n      pop\n        /* \"contracts/CharityDonation.sol\":2377:2381  true */\n      0x01\n        /* \"contracts/CharityDonation.sol\":2340:2350  adminRoles */\n      0x02\n        /* \"contracts/CharityDonation.sol\":2340:2362  adminRoles[msg.sender] */\n      0x00\n        /* \"contracts/CharityDonation.sol\":2351:2361  msg.sender */\n      caller\n        /* \"contracts/CharityDonation.sol\":2340:2362  adminRoles[msg.sender] */\n      0xffffffffffffffffffffffffffffffffffffffff\n      and\n      0xffffffffffffffffffffffffffffffffffffffff\n      and\n      dup2\n      mstore\n      0x20\n      add\n      swap1\n      dup2\n      mstore\n      0x20\n      add\n      0x00\n      keccak256\n        /* \"contracts/CharityDonation.sol\":2363:2373  ADMIN_ROLE */\n      mload(0x40)\n      dup1\n      0x40\n      add\n      0x40\n      mstore\n      dup1\n      0x05\n      dup2\n      mstore\n      0x20\n      add\n      0x41444d494e000000000000000000000000000000000000000000000000000000\n      dup2\n      mstore\n      pop\n        /* \"contracts/CharityDonation.sol\":2340:2374  adminRoles[msg.sender][ADMIN_ROLE] */\n      mload(0x40)\n      tag_115\n      swap2\n      swap1\n      tag_103\n      jump\t// in\n    tag_115:\n      swap1\n      dup2\n      mstore\n      0x20\n      add\n      mload(0x40)\n      dup1\n      swap2\n      sub\n      swap1\n      keccak256\n      0x00\n        /* \"contracts/CharityDonation.sol\":2340:2381  adminRoles[msg.sender][ADMIN_ROLE] = true */\n      0x0100\n      exp\n      dup2\n      sload\n      dup2\n      0xff\n      mul\n      not\n      and\n      swap1\n      dup4\n      iszero\n      iszero\n      mul\n      or\n      swap1\n      sstore\n      pop\n        /* \"contracts/CharityDonation.sol\":2421:2495  CampaignCreated(campaigns[msg.sender].length, msg.sender, _title, _target) */\n      0x825fb10f7650ed27414d6f86acdf7d5946927d9b25001f045f1a2435deec02fe\n        /* \"contracts/CharityDonation.sol\":2437:2446  campaigns */\n      0x01\n        /* \"contracts/CharityDonation.sol\":2437:2458  campaigns[msg.sender] */\n      0x00\n        /* \"contracts/CharityDonation.sol\":2447:2457  msg.sender */\n      caller\n        /* \"contracts/CharityDonation.sol\":2437:2458  campaigns[msg.sender] */\n      0xffffffffffffffffffffffffffffffffffffffff\n      and\n      0xffffffffffffffffffffffffffffffffffffffff\n      and\n      dup2\n      mstore\n      0x20\n      add\n      swap1\n      dup2\n      mstore\n      0x20\n      add\n      0x00\n      keccak256\n        /* \"contracts/CharityDonation.sol\":2437:2465  campaigns[msg.sender].length */\n      dup1\n      sload\n      swap1\n      pop\n        /* \"contracts/CharityDonation.sol\":2467:2477  msg.sender */\n      caller\n        /* \"contracts/CharityDonation.sol\":2479:2485  _title */\n      dup7\n        /* \"contracts/CharityDonation.sol\":2487:2494  _target */\n      dup6\n        /* \"contracts/CharityDonation.sol\":2421:2495  CampaignCreated(campaigns[msg.sender].length, msg.sender, _title, _target) */\n      mload(0x40)\n      tag_116\n      swap5\n      swap4\n      swap3\n      swap2\n      swap1\n      tag_117\n      jump\t// in\n    tag_116:\n      mload(0x40)\n      dup1\n      swap2\n      sub\n      swap1\n      log1\n        /* \"contracts/CharityDonation.sol\":1315:2503  {... */\n      pop\n        /* \"contracts/CharityDonation.sol\":1216:2503  function createCampaign(string memory _title, string memory _description, uint256 _target) public  {... */\n      pop\n      pop\n      pop\n      jump\t// out\n        /* \"#utility.yul\":7:82   */\n    tag_118:\n        /* \"#utility.yul\":40:46   */\n      0x00\n        /* \"#utility.yul\":73:75   */\n      0x40\n        /* \"#utility.yul\":67:76   */\n      mload\n        /* \"#utility.yul\":57:76   */\n      swap1\n      pop\n        /* \"#utility.yul\":7:82   */\n      swap1\n      jump\t// out\n        /* \"#utility.yul\":88:205   */\n    tag_119:\n        /* \"#utility.yul\":197:198   */\n      0x00\n        /* \"#utility.yul\":194:195   */\n      dup1\n        /* \"#utility.yul\":187:199   */\n      revert\n        /* \"#utility.yul\":211:328   */\n    tag_120:\n        /* \"#utility.yul\":320:321   */\n      0x00\n        /* \"#utility.yul\":317:318   */\n      dup1\n        /* \"#utility.yul\":310:322   */\n      revert\n        /* \"#utility.yul\":334:460   */\n    tag_121:\n        /* \"#utility.yul\":371:378   */\n      0x00\n        /* \"#utility.yul\":411:453   */\n      0xffffffffffffffffffffffffffffffffffffffff\n        /* \"#utility.yul\":404:409   */\n      dup3\n        /* \"#utility.yul\":400:454   */\n      and\n        /* \"#utility.yul\":389:454   */\n      swap1\n      pop\n        /* \"#utility.yul\":334:460   */\n      swap2\n      swap1\n      pop\n      jump\t// out\n        /* \"#utility.yul\":466:562   */\n    tag_122:\n        /* \"#utility.yul\":503:510   */\n      0x00\n        /* \"#utility.yul\":532:556   */\n      tag_195\n        /* \"#utility.yul\":550:555   */\n      dup3\n        /* \"#utility.yul\":532:556   */\n      tag_121\n      jump\t// in\n    tag_195:\n        /* \"#utility.yul\":521:556   */\n      swap1\n      pop\n        /* \"#utility.yul\":466:562   */\n      swap2\n      swap1\n      pop\n      jump\t// out\n        /* \"#utility.yul\":568:690   */\n    tag_123:\n        /* \"#utility.yul\":641:665   */\n      tag_197\n        /* \"#utility.yul\":659:664   */\n      dup2\n        /* \"#utility.yul\":641:665   */\n      tag_122\n      jump\t// in\n    tag_197:\n        /* \"#utility.yul\":634:639   */\n      dup2\n        /* \"#utility.yul\":631:666   */\n      eq\n        /* \"#utility.yul\":621:684   */\n      tag_198\n      jumpi\n        /* \"#utility.yul\":680:681   */\n      0x00\n        /* \"#utility.yul\":677:678   */\n      dup1\n        /* \"#utility.yul\":670:682   */\n      revert\n        /* \"#utility.yul\":621:684   */\n    tag_198:\n        /* \"#utility.yul\":568:690   */\n      pop\n      jump\t// out\n        /* \"#utility.yul\":696:835   */\n    tag_124:\n        /* \"#utility.yul\":742:747   */\n      0x00\n        /* \"#utility.yul\":780:786   */\n      dup2\n        /* \"#utility.yul\":767:787   */\n      calldataload\n        /* \"#utility.yul\":758:787   */\n      swap1\n      pop\n        /* \"#utility.yul\":796:829   */\n      tag_200\n        /* \"#utility.yul\":823:828   */\n      dup2\n        /* \"#utility.yul\":796:829   */\n      tag_123\n      jump\t// in\n    tag_200:\n        /* \"#utility.yul\":696:835   */\n      swap3\n      swap2\n      pop\n      pop\n      jump\t// out\n        /* \"#utility.yul\":841:918   */\n    tag_125:\n        /* \"#utility.yul\":878:885   */\n      0x00\n        /* \"#utility.yul\":907:912   */\n      dup2\n        /* \"#utility.yul\":896:912   */\n      swap1\n      pop\n        /* \"#utility.yul\":841:918   */\n      swap2\n      swap1\n      pop\n      jump\t// out\n        /* \"#utility.yul\":924:1046   */\n    tag_126:\n        /* \"#utility.yul\":997:1021   */\n      tag_203\n        /* \"#utility.yul\":1015:1020   */\n      dup2\n        /* \"#utility.yul\":997:1021   */\n      tag_125\n      jump\t// in\n    tag_203:\n        /* \"#utility.yul\":990:995   */\n      dup2\n        /* \"#utility.yul\":987:1022   */\n      eq\n        /* \"#utility.yul\":977:1040   */\n      tag_204\n      jumpi\n        /* \"#utility.yul\":1036:1037   */\n      0x00\n        /* \"#utility.yul\":1033:1034   */\n      dup1\n        /* \"#utility.yul\":1026:1038   */\n      revert\n        /* \"#utility.yul\":977:1040   */\n    tag_204:\n        /* \"#utility.yul\":924:1046   */\n      pop\n      jump\t// out\n        /* \"#utility.yul\":1052:1191   */\n    tag_127:\n        /* \"#utility.yul\":1098:1103   */\n      0x00\n        /* \"#utility.yul\":1136:1142   */\n      dup2\n        /* \"#utility.yul\":1123:1143   */\n      calldataload\n        /* \"#utility.yul\":1114:1143   */\n      swap1\n      pop\n        /* \"#utility.yul\":1152:1185   */\n      tag_206\n        /* \"#utility.yul\":1179:1184   */\n      dup2\n        /* \"#utility.yul\":1152:1185   */\n      tag_126\n      jump\t// in\n    tag_206:\n        /* \"#utility.yul\":1052:1191   */\n      swap3\n      swap2\n      pop\n      pop\n      jump\t// out\n        /* \"#utility.yul\":1197:1671   */\n    tag_9:\n        /* \"#utility.yul\":1265:1271   */\n      0x00\n        /* \"#utility.yul\":1273:1279   */\n      dup1\n        /* \"#utility.yul\":1322:1324   */\n      0x40\n        /* \"#utility.yul\":1310:1319   */\n      dup4\n        /* \"#utility.yul\":1301:1308   */\n      dup6\n        /* \"#utility.yul\":1297:1320   */\n      sub\n        /* \"#utility.yul\":1293:1325   */\n      slt\n        /* \"#utility.yul\":1290:1409   */\n      iszero\n      tag_208\n      jumpi\n        /* \"#utility.yul\":1328:1407   */\n      tag_209\n      tag_119\n      jump\t// in\n    tag_209:\n        /* \"#utility.yul\":1290:1409   */\n    tag_208:\n        /* \"#utility.yul\":1448:1449   */\n      0x00\n        /* \"#utility.yul\":1473:1526   */\n      tag_210\n        /* \"#utility.yul\":1518:1525   */\n      dup6\n        /* \"#utility.yul\":1509:1515   */\n      dup3\n        /* \"#utility.yul\":1498:1507   */\n      dup7\n        /* \"#utility.yul\":1494:1516   */\n      add\n        /* \"#utility.yul\":1473:1526   */\n      tag_124\n      jump\t// in\n    tag_210:\n        /* \"#utility.yul\":1463:1526   */\n      swap3\n      pop\n        /* \"#utility.yul\":1419:1536   */\n      pop\n        /* \"#utility.yul\":1575:1577   */\n      0x20\n        /* \"#utility.yul\":1601:1654   */\n      tag_211\n        /* \"#utility.yul\":1646:1653   */\n      dup6\n        /* \"#utility.yul\":1637:1643   */\n      dup3\n        /* \"#utility.yul\":1626:1635   */\n      dup7\n        /* \"#utility.yul\":1622:1644   */\n      add\n        /* \"#utility.yul\":1601:1654   */\n      tag_127\n      jump\t// in\n    tag_211:\n        /* \"#utility.yul\":1591:1654   */\n      swap2\n      pop\n        /* \"#utility.yul\":1546:1664   */\n      pop\n        /* \"#utility.yul\":1197:1671   */\n      swap3\n      pop\n      swap3\n      swap1\n      pop\n      jump\t// out\n        /* \"#utility.yul\":1677:1795   */\n    tag_128:\n        /* \"#utility.yul\":1764:1788   */\n      tag_213\n        /* \"#utility.yul\":1782:1787   */\n      dup2\n        /* \"#utility.yul\":1764:1788   */\n      tag_125\n      jump\t// in\n    tag_213:\n        /* \"#utility.yul\":1759:1762   */\n      dup3\n        /* \"#utility.yul\":1752:1789   */\n      mstore\n        /* \"#utility.yul\":1677:1795   */\n      pop\n      pop\n      jump\t// out\n        /* \"#utility.yul\":1801:1900   */\n    tag_129:\n        /* \"#utility.yul\":1853:1859   */\n      0x00\n        /* \"#utility.yul\":1887:1892   */\n      dup2\n        /* \"#utility.yul\":1881:1893   */\n      mload\n        /* \"#utility.yul\":1871:1893   */\n      swap1\n      pop\n        /* \"#utility.yul\":1801:1900   */\n      swap2\n      swap1\n      pop\n      jump\t// out\n        /* \"#utility.yul\":1906:2075   */\n    tag_130:\n        /* \"#utility.yul\":1990:2001   */\n      0x00\n        /* \"#utility.yul\":2024:2030   */\n      dup3\n        /* \"#utility.yul\":2019:2022   */\n      dup3\n        /* \"#utility.yul\":2012:2031   */\n      mstore\n        /* \"#utility.yul\":2064:2068   */\n      0x20\n        /* \"#utility.yul\":2059:2062   */\n      dup3\n        /* \"#utility.yul\":2055:2069   */\n      add\n        /* \"#utility.yul\":2040:2069   */\n      swap1\n      pop\n        /* \"#utility.yul\":1906:2075   */\n      swap3\n      swap2\n      pop\n      pop\n      jump\t// out\n        /* \"#utility.yul\":2081:2220   */\n    tag_131:\n        /* \"#utility.yul\":2170:2176   */\n      dup3\n        /* \"#utility.yul\":2165:2168   */\n      dup2\n        /* \"#utility.yul\":2160:2163   */\n      dup4\n        /* \"#utility.yul\":2154:2177   */\n      mcopy\n        /* \"#utility.yul\":2211:2212   */\n      0x00\n        /* \"#utility.yul\":2202:2208   */\n      dup4\n        /* \"#utility.yul\":2197:2200   */\n      dup4\n        /* \"#utility.yul\":2193:2209   */\n      add\n        /* \"#utility.yul\":2186:2213   */\n      mstore\n        /* \"#utility.yul\":2081:2220   */\n      pop\n      pop\n      pop\n      jump\t// out\n        /* \"#utility.yul\":2226:2328   */\n    tag_132:\n        /* \"#utility.yul\":2267:2273   */\n      0x00\n        /* \"#utility.yul\":2318:2320   */\n      0x1f\n        /* \"#utility.yul\":2314:2321   */\n      not\n        /* \"#utility.yul\":2309:2311   */\n      0x1f\n        /* \"#utility.yul\":2302:2307   */\n      dup4\n        /* \"#utility.yul\":2298:2312   */\n      add\n        /* \"#utility.yul\":2294:2322   */\n      and\n        /* \"#utility.yul\":2284:2322   */\n      swap1\n      pop\n        /* \"#utility.yul\":2226:2328   */\n      swap2\n      swap1\n      pop\n      jump\t// out\n        /* \"#utility.yul\":2334:2711   */\n    tag_133:\n        /* \"#utility.yul\":2422:2425   */\n      0x00\n        /* \"#utility.yul\":2450:2489   */\n      tag_219\n        /* \"#utility.yul\":2483:2488   */\n      dup3\n        /* \"#utility.yul\":2450:2489   */\n      tag_129\n      jump\t// in\n    tag_219:\n        /* \"#utility.yul\":2505:2576   */\n      tag_220\n        /* \"#utility.yul\":2569:2575   */\n      dup2\n        /* \"#utility.yul\":2564:2567   */\n      dup6\n        /* \"#utility.yul\":2505:2576   */\n      tag_130\n      jump\t// in\n    tag_220:\n        /* \"#utility.yul\":2498:2576   */\n      swap4\n      pop\n        /* \"#utility.yul\":2585:2650   */\n      tag_221\n        /* \"#utility.yul\":2643:2649   */\n      dup2\n        /* \"#utility.yul\":2638:2641   */\n      dup6\n        /* \"#utility.yul\":2631:2635   */\n      0x20\n        /* \"#utility.yul\":2624:2629   */\n      dup7\n        /* \"#utility.yul\":2620:2636   */\n      add\n        /* \"#utility.yul\":2585:2650   */\n      tag_131\n      jump\t// in\n    tag_221:\n        /* \"#utility.yul\":2675:2704   */\n      tag_222\n        /* \"#utility.yul\":2697:2703   */\n      dup2\n        /* \"#utility.yul\":2675:2704   */\n      tag_132\n      jump\t// in\n    tag_222:\n        /* \"#utility.yul\":2670:2673   */\n      dup5\n        /* \"#utility.yul\":2666:2705   */\n      add\n        /* \"#utility.yul\":2659:2705   */\n      swap2\n      pop\n        /* \"#utility.yul\":2426:2711   */\n      pop\n        /* \"#utility.yul\":2334:2711   */\n      swap3\n      swap2\n      pop\n      pop\n      jump\t// out\n        /* \"#utility.yul\":2717:2835   */\n    tag_134:\n        /* \"#utility.yul\":2804:2828   */\n      tag_224\n        /* \"#utility.yul\":2822:2827   */\n      dup2\n        /* \"#utility.yul\":2804:2828   */\n      tag_122\n      jump\t// in\n    tag_224:\n        /* \"#utility.yul\":2799:2802   */\n      dup3\n        /* \"#utility.yul\":2792:2829   */\n      mstore\n        /* \"#utility.yul\":2717:2835   */\n      pop\n      pop\n      jump\t// out\n        /* \"#utility.yul\":2841:2931   */\n    tag_135:\n        /* \"#utility.yul\":2875:2882   */\n      0x00\n        /* \"#utility.yul\":2918:2923   */\n      dup2\n        /* \"#utility.yul\":2911:2924   */\n      iszero\n        /* \"#utility.yul\":2904:2925   */\n      iszero\n        /* \"#utility.yul\":2893:2925   */\n      swap1\n      pop\n        /* \"#utility.yul\":2841:2931   */\n      swap2\n      swap1\n      pop\n      jump\t// out\n        /* \"#utility.yul\":2937:3046   */\n    tag_136:\n        /* \"#utility.yul\":3018:3039   */\n      tag_227\n        /* \"#utility.yul\":3033:3038   */\n      dup2\n        /* \"#utility.yul\":3018:3039   */\n      tag_135\n      jump\t// in\n    tag_227:\n        /* \"#utility.yul\":3013:3016   */\n      dup3\n        /* \"#utility.yul\":3006:3040   */\n      mstore\n        /* \"#utility.yul\":2937:3046   */\n      pop\n      pop\n      jump\t// out\n        /* \"#utility.yul\":3052:4108   */\n    tag_12:\n        /* \"#utility.yul\":3347:3351   */\n      0x00\n        /* \"#utility.yul\":3385:3388   */\n      0xe0\n        /* \"#utility.yul\":3374:3383   */\n      dup3\n        /* \"#utility.yul\":3370:3389   */\n      add\n        /* \"#utility.yul\":3362:3389   */\n      swap1\n      pop\n        /* \"#utility.yul\":3399:3470   */\n      tag_229\n        /* \"#utility.yul\":3467:3468   */\n      0x00\n        /* \"#utility.yul\":3456:3465   */\n      dup4\n        /* \"#utility.yul\":3452:3469   */\n      add\n        /* \"#utility.yul\":3443:3449   */\n      dup11\n        /* \"#utility.yul\":3399:3470   */\n      tag_128\n      jump\t// in\n    tag_229:\n        /* \"#utility.yul\":3517:3526   */\n      dup2\n        /* \"#utility.yul\":3511:3515   */\n      dup2\n        /* \"#utility.yul\":3507:3527   */\n      sub\n        /* \"#utility.yul\":3502:3504   */\n      0x20\n        /* \"#utility.yul\":3491:3500   */\n      dup4\n        /* \"#utility.yul\":3487:3505   */\n      add\n        /* \"#utility.yul\":3480:3528   */\n      mstore\n        /* \"#utility.yul\":3545:3623   */\n      tag_230\n        /* \"#utility.yul\":3618:3622   */\n      dup2\n        /* \"#utility.yul\":3609:3615   */\n      dup10\n        /* \"#utility.yul\":3545:3623   */\n      tag_133\n      jump\t// in\n    tag_230:\n        /* \"#utility.yul\":3537:3623   */\n      swap1\n      pop\n        /* \"#utility.yul\":3670:3679   */\n      dup2\n        /* \"#utility.yul\":3664:3668   */\n      dup2\n        /* \"#utility.yul\":3660:3680   */\n      sub\n        /* \"#utility.yul\":3655:3657   */\n      0x40\n        /* \"#utility.yul\":3644:3653   */\n      dup4\n        /* \"#utility.yul\":3640:3658   */\n      add\n        /* \"#utility.yul\":3633:3681   */\n      mstore\n        /* \"#utility.yul\":3698:3776   */\n      tag_231\n        /* \"#utility.yul\":3771:3775   */\n      dup2\n        /* \"#utility.yul\":3762:3768   */\n      dup9\n        /* \"#utility.yul\":3698:3776   */\n      tag_133\n      jump\t// in\n    tag_231:\n        /* \"#utility.yul\":3690:3776   */\n      swap1\n      pop\n        /* \"#utility.yul\":3786:3858   */\n      tag_232\n        /* \"#utility.yul\":3854:3856   */\n      0x60\n        /* \"#utility.yul\":3843:3852   */\n      dup4\n        /* \"#utility.yul\":3839:3857   */\n      add\n        /* \"#utility.yul\":3830:3836   */\n      dup8\n        /* \"#utility.yul\":3786:3858   */\n      tag_134\n      jump\t// in\n    tag_232:\n        /* \"#utility.yul\":3868:3941   */\n      tag_233\n        /* \"#utility.yul\":3936:3939   */\n      0x80\n        /* \"#utility.yul\":3925:3934   */\n      dup4\n        /* \"#utility.yul\":3921:3940   */\n      add\n        /* \"#utility.yul\":3912:3918   */\n      dup7\n        /* \"#utility.yul\":3868:3941   */\n      tag_128\n      jump\t// in\n    tag_233:\n        /* \"#utility.yul\":3951:4024   */\n      tag_234\n        /* \"#utility.yul\":4019:4022   */\n      0xa0\n        /* \"#utility.yul\":4008:4017   */\n      dup4\n        /* \"#utility.yul\":4004:4023   */\n      add\n        /* \"#utility.yul\":3995:4001   */\n      dup6\n        /* \"#utility.yul\":3951:4024   */\n      tag_128\n      jump\t// in\n    tag_234:\n        /* \"#utility.yul\":4034:4101   */\n      tag_235\n        /* \"#utility.yul\":4096:4099   */\n      0xc0\n        /* \"#utility.yul\":4085:4094   */\n      dup4\n        /* \"#utility.yul\":4081:4100   */\n      add\n        /* \"#utility.yul\":4072:4078   */\n      dup5\n        /* \"#utility.yul\":4034:4101   */\n      tag_136\n      jump\t// in\n    tag_235:\n        /* \"#utility.yul\":3052:4108   */\n      swap9\n      swap8\n      pop\n      pop\n      pop\n      pop\n      pop\n      pop\n      pop\n      pop\n      jump\t// out\n        /* \"#utility.yul\":4114:4218   */\n    tag_137:\n        /* \"#utility.yul\":4159:4166   */\n      0x00\n        /* \"#utility.yul\":4188:4212   */\n      tag_237\n        /* \"#utility.yul\":4206:4211   */\n      dup3\n        /* \"#utility.yul\":4188:4212   */\n      tag_121\n      jump\t// in\n    tag_237:\n        /* \"#utility.yul\":4177:4212   */\n      swap1\n      pop\n        /* \"#utility.yul\":4114:4218   */\n      swap2\n      swap1\n      pop\n      jump\t// out\n        /* \"#utility.yul\":4224:4362   */\n    tag_138:\n        /* \"#utility.yul\":4305:4337   */\n      tag_239\n        /* \"#utility.yul\":4331:4336   */\n      dup2\n        /* \"#utility.yul\":4305:4337   */\n      tag_137\n      jump\t// in\n    tag_239:\n        /* \"#utility.yul\":4298:4303   */\n      dup2\n        /* \"#utility.yul\":4295:4338   */\n      eq\n        /* \"#utility.yul\":4285:4356   */\n      tag_240\n      jumpi\n        /* \"#utility.yul\":4352:4353   */\n      0x00\n        /* \"#utility.yul\":4349:4350   */\n      dup1\n        /* \"#utility.yul\":4342:4354   */\n      revert\n        /* \"#utility.yul\":4285:4356   */\n    tag_240:\n        /* \"#utility.yul\":4224:4362   */\n      pop\n      jump\t// out\n        /* \"#utility.yul\":4368:4523   */\n    tag_139:\n        /* \"#utility.yul\":4422:4427   */\n      0x00\n        /* \"#utility.yul\":4460:4466   */\n      dup2\n        /* \"#utility.yul\":4447:4467   */\n      calldataload\n        /* \"#utility.yul\":4438:4467   */\n      swap1\n      pop\n        /* \"#utility.yul\":4476:4517   */\n      tag_242\n        /* \"#utility.yul\":4511:4516   */\n      dup2\n        /* \"#utility.yul\":4476:4517   */\n      tag_138\n      jump\t// in\n    tag_242:\n        /* \"#utility.yul\":4368:4523   */\n      swap3\n      swap2\n      pop\n      pop\n      jump\t// out\n        /* \"#utility.yul\":4529:5164   */\n    tag_15:\n        /* \"#utility.yul\":4614:4620   */\n      0x00\n        /* \"#utility.yul\":4622:4628   */\n      dup1\n        /* \"#utility.yul\":4630:4636   */\n      0x00\n        /* \"#utility.yul\":4679:4681   */\n      0x60\n        /* \"#utility.yul\":4667:4676   */\n      dup5\n        /* \"#utility.yul\":4658:4665   */\n      dup7\n        /* \"#utility.yul\":4654:4677   */\n      sub\n        /* \"#utility.yul\":4650:4682   */\n      slt\n        /* \"#utility.yul\":4647:4766   */\n      iszero\n      tag_244\n      jumpi\n        /* \"#utility.yul\":4685:4764   */\n      tag_245\n      tag_119\n      jump\t// in\n    tag_245:\n        /* \"#utility.yul\":4647:4766   */\n    tag_244:\n        /* \"#utility.yul\":4805:4806   */\n      0x00\n        /* \"#utility.yul\":4830:4891   */\n      tag_246\n        /* \"#utility.yul\":4883:4890   */\n      dup7\n        /* \"#utility.yul\":4874:4880   */\n      dup3\n        /* \"#utility.yul\":4863:4872   */\n      dup8\n        /* \"#utility.yul\":4859:4881   */\n      add\n        /* \"#utility.yul\":4830:4891   */\n      tag_139\n      jump\t// in\n    tag_246:\n        /* \"#utility.yul\":4820:4891   */\n      swap4\n      pop\n        /* \"#utility.yul\":4776:4901   */\n      pop\n        /* \"#utility.yul\":4940:4942   */\n      0x20\n        /* \"#utility.yul\":4966:5019   */\n      tag_247\n        /* \"#utility.yul\":5011:5018   */\n      dup7\n        /* \"#utility.yul\":5002:5008   */\n      dup3\n        /* \"#utility.yul\":4991:5000   */\n      dup8\n        /* \"#utility.yul\":4987:5009   */\n      add\n        /* \"#utility.yul\":4966:5019   */\n      tag_127\n      jump\t// in\n    tag_247:\n        /* \"#utility.yul\":4956:5019   */\n      swap3\n      pop\n        /* \"#utility.yul\":4911:5029   */\n      pop\n        /* \"#utility.yul\":5068:5070   */\n      0x40\n        /* \"#utility.yul\":5094:5147   */\n      tag_248\n        /* \"#utility.yul\":5139:5146   */\n      dup7\n        /* \"#utility.yul\":5130:5136   */\n      dup3\n        /* \"#utility.yul\":5119:5128   */\n      dup8\n        /* \"#utility.yul\":5115:5137   */\n      add\n        /* \"#utility.yul\":5094:5147   */\n      tag_127\n      jump\t// in\n    tag_248:\n        /* \"#utility.yul\":5084:5147   */\n      swap2\n      pop\n        /* \"#utility.yul\":5039:5157   */\n      pop\n        /* \"#utility.yul\":4529:5164   */\n      swap3\n      pop\n      swap3\n      pop\n      swap3\n      jump\t// out\n        /* \"#utility.yul\":5170:5287   */\n    tag_140:\n        /* \"#utility.yul\":5279:5280   */\n      0x00\n        /* \"#utility.yul\":5276:5277   */\n      dup1\n        /* \"#utility.yul\":5269:5281   */\n      revert\n        /* \"#utility.yul\":5293:5410   */\n    tag_141:\n        /* \"#utility.yul\":5402:5403   */\n      0x00\n        /* \"#utility.yul\":5399:5400   */\n      dup1\n        /* \"#utility.yul\":5392:5404   */\n      revert\n        /* \"#utility.yul\":5416:5596   */\n    tag_142:\n        /* \"#utility.yul\":5464:5541   */\n      0x4e487b7100000000000000000000000000000000000000000000000000000000\n        /* \"#utility.yul\":5461:5462   */\n      0x00\n        /* \"#utility.yul\":5454:5542   */\n      mstore\n        /* \"#utility.yul\":5561:5565   */\n      0x41\n        /* \"#utility.yul\":5558:5559   */\n      0x04\n        /* \"#utility.yul\":5551:5566   */\n      mstore\n        /* \"#utility.yul\":5585:5589   */\n      0x24\n        /* \"#utility.yul\":5582:5583   */\n      0x00\n        /* \"#utility.yul\":5575:5590   */\n      revert\n        /* \"#utility.yul\":5602:5883   */\n    tag_143:\n        /* \"#utility.yul\":5685:5712   */\n      tag_253\n        /* \"#utility.yul\":5707:5711   */\n      dup3\n        /* \"#utility.yul\":5685:5712   */\n      tag_132\n      jump\t// in\n    tag_253:\n        /* \"#utility.yul\":5677:5683   */\n      dup2\n        /* \"#utility.yul\":5673:5713   */\n      add\n        /* \"#utility.yul\":5815:5821   */\n      dup2\n        /* \"#utility.yul\":5803:5813   */\n      dup2\n        /* \"#utility.yul\":5800:5822   */\n      lt\n        /* \"#utility.yul\":5779:5797   */\n      0xffffffffffffffff\n        /* \"#utility.yul\":5767:5777   */\n      dup3\n        /* \"#utility.yul\":5764:5798   */\n      gt\n        /* \"#utility.yul\":5761:5823   */\n      or\n        /* \"#utility.yul\":5758:5846   */\n      iszero\n      tag_254\n      jumpi\n        /* \"#utility.yul\":5826:5844   */\n      tag_255\n      tag_142\n      jump\t// in\n    tag_255:\n        /* \"#utility.yul\":5758:5846   */\n    tag_254:\n        /* \"#utility.yul\":5866:5876   */\n      dup1\n        /* \"#utility.yul\":5862:5864   */\n      0x40\n        /* \"#utility.yul\":5855:5877   */\n      mstore\n        /* \"#utility.yul\":5645:5883   */\n      pop\n        /* \"#utility.yul\":5602:5883   */\n      pop\n      pop\n      jump\t// out\n        /* \"#utility.yul\":5889:6018   */\n    tag_144:\n        /* \"#utility.yul\":5923:5929   */\n      0x00\n        /* \"#utility.yul\":5950:5970   */\n      tag_257\n      tag_118\n      jump\t// in\n    tag_257:\n        /* \"#utility.yul\":5940:5970   */\n      swap1\n      pop\n        /* \"#utility.yul\":5979:6012   */\n      tag_258\n        /* \"#utility.yul\":6007:6011   */\n      dup3\n        /* \"#utility.yul\":5999:6005   */\n      dup3\n        /* \"#utility.yul\":5979:6012   */\n      tag_143\n      jump\t// in\n    tag_258:\n        /* \"#utility.yul\":5889:6018   */\n      swap2\n      swap1\n      pop\n      jump\t// out\n        /* \"#utility.yul\":6024:6332   */\n    tag_145:\n        /* \"#utility.yul\":6086:6090   */\n      0x00\n        /* \"#utility.yul\":6176:6194   */\n      0xffffffffffffffff\n        /* \"#utility.yul\":6168:6174   */\n      dup3\n        /* \"#utility.yul\":6165:6195   */\n      gt\n        /* \"#utility.yul\":6162:6218   */\n      iszero\n      tag_260\n      jumpi\n        /* \"#utility.yul\":6198:6216   */\n      tag_261\n      tag_142\n      jump\t// in\n    tag_261:\n        /* \"#utility.yul\":6162:6218   */\n    tag_260:\n        /* \"#utility.yul\":6236:6265   */\n      tag_262\n        /* \"#utility.yul\":6258:6264   */\n      dup3\n        /* \"#utility.yul\":6236:6265   */\n      tag_132\n      jump\t// in\n    tag_262:\n        /* \"#utility.yul\":6228:6265   */\n      swap1\n      pop\n        /* \"#utility.yul\":6320:6324   */\n      0x20\n        /* \"#utility.yul\":6314:6318   */\n      dup2\n        /* \"#utility.yul\":6310:6325   */\n      add\n        /* \"#utility.yul\":6302:6325   */\n      swap1\n      pop\n        /* \"#utility.yul\":6024:6332   */\n      swap2\n      swap1\n      pop\n      jump\t// out\n        /* \"#utility.yul\":6338:6486   */\n    tag_146:\n        /* \"#utility.yul\":6436:6442   */\n      dup3\n        /* \"#utility.yul\":6431:6434   */\n      dup2\n        /* \"#utility.yul\":6426:6429   */\n      dup4\n        /* \"#utility.yul\":6413:6443   */\n      calldatacopy\n        /* \"#utility.yul\":6477:6478   */\n      0x00\n        /* \"#utility.yul\":6468:6474   */\n      dup4\n        /* \"#utility.yul\":6463:6466   */\n      dup4\n        /* \"#utility.yul\":6459:6475   */\n      add\n        /* \"#utility.yul\":6452:6479   */\n      mstore\n        /* \"#utility.yul\":6338:6486   */\n      pop\n      pop\n      pop\n      jump\t// out\n        /* \"#utility.yul\":6492:6917   */\n    tag_147:\n        /* \"#utility.yul\":6570:6575   */\n      0x00\n        /* \"#utility.yul\":6595:6661   */\n      tag_265\n        /* \"#utility.yul\":6611:6660   */\n      tag_266\n        /* \"#utility.yul\":6653:6659   */\n      dup5\n        /* \"#utility.yul\":6611:6660   */\n      tag_145\n      jump\t// in\n    tag_266:\n        /* \"#utility.yul\":6595:6661   */\n      tag_144\n      jump\t// in\n    tag_265:\n        /* \"#utility.yul\":6586:6661   */\n      swap1\n      pop\n        /* \"#utility.yul\":6684:6690   */\n      dup3\n        /* \"#utility.yul\":6677:6682   */\n      dup2\n        /* \"#utility.yul\":6670:6691   */\n      mstore\n        /* \"#utility.yul\":6722:6726   */\n      0x20\n        /* \"#utility.yul\":6715:6720   */\n      dup2\n        /* \"#utility.yul\":6711:6727   */\n      add\n        /* \"#utility.yul\":6760:6763   */\n      dup5\n        /* \"#utility.yul\":6751:6757   */\n      dup5\n        /* \"#utility.yul\":6746:6749   */\n      dup5\n        /* \"#utility.yul\":6742:6758   */\n      add\n        /* \"#utility.yul\":6739:6764   */\n      gt\n        /* \"#utility.yul\":6736:6848   */\n      iszero\n      tag_267\n      jumpi\n        /* \"#utility.yul\":6767:6846   */\n      tag_268\n      tag_141\n      jump\t// in\n    tag_268:\n        /* \"#utility.yul\":6736:6848   */\n    tag_267:\n        /* \"#utility.yul\":6857:6911   */\n      tag_269\n        /* \"#utility.yul\":6904:6910   */\n      dup5\n        /* \"#utility.yul\":6899:6902   */\n      dup3\n        /* \"#utility.yul\":6894:6897   */\n      dup6\n        /* \"#utility.yul\":6857:6911   */\n      tag_146\n      jump\t// in\n    tag_269:\n        /* \"#utility.yul\":6576:6917   */\n      pop\n        /* \"#utility.yul\":6492:6917   */\n      swap4\n      swap3\n      pop\n      pop\n      pop\n      jump\t// out\n        /* \"#utility.yul\":6937:7277   */\n    tag_148:\n        /* \"#utility.yul\":6993:6998   */\n      0x00\n        /* \"#utility.yul\":7042:7045   */\n      dup3\n        /* \"#utility.yul\":7035:7039   */\n      0x1f\n        /* \"#utility.yul\":7027:7033   */\n      dup4\n        /* \"#utility.yul\":7023:7040   */\n      add\n        /* \"#utility.yul\":7019:7046   */\n      slt\n        /* \"#utility.yul\":7009:7131   */\n      tag_271\n      jumpi\n        /* \"#utility.yul\":7050:7129   */\n      tag_272\n      tag_140\n      jump\t// in\n    tag_272:\n        /* \"#utility.yul\":7009:7131   */\n    tag_271:\n        /* \"#utility.yul\":7167:7173   */\n      dup2\n        /* \"#utility.yul\":7154:7174   */\n      calldataload\n        /* \"#utility.yul\":7192:7271   */\n      tag_273\n        /* \"#utility.yul\":7267:7270   */\n      dup5\n        /* \"#utility.yul\":7259:7265   */\n      dup3\n        /* \"#utility.yul\":7252:7256   */\n      0x20\n        /* \"#utility.yul\":7244:7250   */\n      dup7\n        /* \"#utility.yul\":7240:7257   */\n      add\n        /* \"#utility.yul\":7192:7271   */\n      tag_147\n      jump\t// in\n    tag_273:\n        /* \"#utility.yul\":7183:7271   */\n      swap2\n      pop\n        /* \"#utility.yul\":6999:7277   */\n      pop\n        /* \"#utility.yul\":6937:7277   */\n      swap3\n      swap2\n      pop\n      pop\n      jump\t// out\n        /* \"#utility.yul\":7283:7937   */\n    tag_20:\n        /* \"#utility.yul\":7361:7367   */\n      0x00\n        /* \"#utility.yul\":7369:7375   */\n      dup1\n        /* \"#utility.yul\":7418:7420   */\n      0x40\n        /* \"#utility.yul\":7406:7415   */\n      dup4\n        /* \"#utility.yul\":7397:7404   */\n      dup6\n        /* \"#utility.yul\":7393:7416   */\n      sub\n        /* \"#utility.yul\":7389:7421   */\n      slt\n        /* \"#utility.yul\":7386:7505   */\n      iszero\n      tag_275\n      jumpi\n        /* \"#utility.yul\":7424:7503   */\n      tag_276\n      tag_119\n      jump\t// in\n    tag_276:\n        /* \"#utility.yul\":7386:7505   */\n    tag_275:\n        /* \"#utility.yul\":7544:7545   */\n      0x00\n        /* \"#utility.yul\":7569:7622   */\n      tag_277\n        /* \"#utility.yul\":7614:7621   */\n      dup6\n        /* \"#utility.yul\":7605:7611   */\n      dup3\n        /* \"#utility.yul\":7594:7603   */\n      dup7\n        /* \"#utility.yul\":7590:7612   */\n      add\n        /* \"#utility.yul\":7569:7622   */\n      tag_124\n      jump\t// in\n    tag_277:\n        /* \"#utility.yul\":7559:7622   */\n      swap3\n      pop\n        /* \"#utility.yul\":7515:7632   */\n      pop\n        /* \"#utility.yul\":7699:7701   */\n      0x20\n        /* \"#utility.yul\":7688:7697   */\n      dup4\n        /* \"#utility.yul\":7684:7702   */\n      add\n        /* \"#utility.yul\":7671:7703   */\n      calldataload\n        /* \"#utility.yul\":7730:7748   */\n      0xffffffffffffffff\n        /* \"#utility.yul\":7722:7728   */\n      dup2\n        /* \"#utility.yul\":7719:7749   */\n      gt\n        /* \"#utility.yul\":7716:7833   */\n      iszero\n      tag_278\n      jumpi\n        /* \"#utility.yul\":7752:7831   */\n      tag_279\n      tag_120\n      jump\t// in\n    tag_279:\n        /* \"#utility.yul\":7716:7833   */\n    tag_278:\n        /* \"#utility.yul\":7857:7920   */\n      tag_280\n        /* \"#utility.yul\":7912:7919   */\n      dup6\n        /* \"#utility.yul\":7903:7909   */\n      dup3\n        /* \"#utility.yul\":7892:7901   */\n      dup7\n        /* \"#utility.yul\":7888:7910   */\n      add\n        /* \"#utility.yul\":7857:7920   */\n      tag_148\n      jump\t// in\n    tag_280:\n        /* \"#utility.yul\":7847:7920   */\n      swap2\n      pop\n        /* \"#utility.yul\":7642:7930   */\n      pop\n        /* \"#utility.yul\":7283:7937   */\n      swap3\n      pop\n      swap3\n      swap1\n      pop\n      jump\t// out\n        /* \"#utility.yul\":7943:8153   */\n    tag_23:\n        /* \"#utility.yul\":8030:8034   */\n      0x00\n        /* \"#utility.yul\":8068:8070   */\n      0x20\n        /* \"#utility.yul\":8057:8066   */\n      dup3\n        /* \"#utility.yul\":8053:8071   */\n      add\n        /* \"#utility.yul\":8045:8071   */\n      swap1\n      pop\n        /* \"#utility.yul\":8081:8146   */\n      tag_282\n        /* \"#utility.yul\":8143:8144   */\n      0x00\n        /* \"#utility.yul\":8132:8141   */\n      dup4\n        /* \"#utility.yul\":8128:8145   */\n      add\n        /* \"#utility.yul\":8119:8125   */\n      dup5\n        /* \"#utility.yul\":8081:8146   */\n      tag_136\n      jump\t// in\n    tag_282:\n        /* \"#utility.yul\":7943:8153   */\n      swap3\n      swap2\n      pop\n      pop\n      jump\t// out\n        /* \"#utility.yul\":8159:9138   */\n    tag_27:\n        /* \"#utility.yul\":8256:8262   */\n      0x00\n        /* \"#utility.yul\":8264:8270   */\n      dup1\n        /* \"#utility.yul\":8272:8278   */\n      0x00\n        /* \"#utility.yul\":8321:8323   */\n      0x60\n        /* \"#utility.yul\":8309:8318   */\n      dup5\n        /* \"#utility.yul\":8300:8307   */\n      dup7\n        /* \"#utility.yul\":8296:8319   */\n      sub\n        /* \"#utility.yul\":8292:8324   */\n      slt\n        /* \"#utility.yul\":8289:8408   */\n      iszero\n      tag_284\n      jumpi\n        /* \"#utility.yul\":8327:8406   */\n      tag_285\n      tag_119\n      jump\t// in\n    tag_285:\n        /* \"#utility.yul\":8289:8408   */\n    tag_284:\n        /* \"#utility.yul\":8475:8476   */\n      0x00\n        /* \"#utility.yul\":8464:8473   */\n      dup5\n        /* \"#utility.yul\":8460:8477   */\n      add\n        /* \"#utility.yul\":8447:8478   */\n      calldataload\n        /* \"#utility.yul\":8505:8523   */\n      0xffffffffffffffff\n        /* \"#utility.yul\":8497:8503   */\n      dup2\n        /* \"#utility.yul\":8494:8524   */\n      gt\n        /* \"#utility.yul\":8491:8608   */\n      iszero\n      tag_286\n      jumpi\n        /* \"#utility.yul\":8527:8606   */\n      tag_287\n      tag_120\n      jump\t// in\n    tag_287:\n        /* \"#utility.yul\":8491:8608   */\n    tag_286:\n        /* \"#utility.yul\":8632:8695   */\n      tag_288\n        /* \"#utility.yul\":8687:8694   */\n      dup7\n        /* \"#utility.yul\":8678:8684   */\n      dup3\n        /* \"#utility.yul\":8667:8676   */\n      dup8\n        /* \"#utility.yul\":8663:8685   */\n      add\n        /* \"#utility.yul\":8632:8695   */\n      tag_148\n      jump\t// in\n    tag_288:\n        /* \"#utility.yul\":8622:8695   */\n      swap4\n      pop\n        /* \"#utility.yul\":8418:8705   */\n      pop\n        /* \"#utility.yul\":8772:8774   */\n      0x20\n        /* \"#utility.yul\":8761:8770   */\n      dup5\n        /* \"#utility.yul\":8757:8775   */\n      add\n        /* \"#utility.yul\":8744:8776   */\n      calldataload\n        /* \"#utility.yul\":8803:8821   */\n      0xffffffffffffffff\n        /* \"#utility.yul\":8795:8801   */\n      dup2\n        /* \"#utility.yul\":8792:8822   */\n      gt\n        /* \"#utility.yul\":8789:8906   */\n      iszero\n      tag_289\n      jumpi\n        /* \"#utility.yul\":8825:8904   */\n      tag_290\n      tag_120\n      jump\t// in\n    tag_290:\n        /* \"#utility.yul\":8789:8906   */\n    tag_289:\n        /* \"#utility.yul\":8930:8993   */\n      tag_291\n        /* \"#utility.yul\":8985:8992   */\n      dup7\n        /* \"#utility.yul\":8976:8982   */\n      dup3\n        /* \"#utility.yul\":8965:8974   */\n      dup8\n        /* \"#utility.yul\":8961:8983   */\n      add\n        /* \"#utility.yul\":8930:8993   */\n      tag_148\n      jump\t// in\n    tag_291:\n        /* \"#utility.yul\":8920:8993   */\n      swap3\n      pop\n        /* \"#utility.yul\":8715:9003   */\n      pop\n        /* \"#utility.yul\":9042:9044   */\n      0x40\n        /* \"#utility.yul\":9068:9121   */\n      tag_292\n        /* \"#utility.yul\":9113:9120   */\n      dup7\n        /* \"#utility.yul\":9104:9110   */\n      dup3\n        /* \"#utility.yul\":9093:9102   */\n      dup8\n        /* \"#utility.yul\":9089:9111   */\n      add\n        /* \"#utility.yul\":9068:9121   */\n      tag_127\n      jump\t// in\n    tag_292:\n        /* \"#utility.yul\":9058:9121   */\n      swap2\n      pop\n        /* \"#utility.yul\":9013:9131   */\n      pop\n        /* \"#utility.yul\":8159:9138   */\n      swap3\n      pop\n      swap3\n      pop\n      swap3\n      jump\t// out\n        /* \"#utility.yul\":9144:9324   */\n    tag_149:\n        /* \"#utility.yul\":9192:9269   */\n      0x4e487b7100000000000000000000000000000000000000000000000000000000\n        /* \"#utility.yul\":9189:9190   */\n      0x00\n        /* \"#utility.yul\":9182:9270   */\n      mstore\n        /* \"#utility.yul\":9289:9293   */\n      0x22\n        /* \"#utility.yul\":9286:9287   */\n      0x04\n        /* \"#utility.yul\":9279:9294   */\n      mstore\n        /* \"#utility.yul\":9313:9317   */\n      0x24\n        /* \"#utility.yul\":9310:9311   */\n      0x00\n        /* \"#utility.yul\":9303:9318   */\n      revert\n        /* \"#utility.yul\":9330:9650   */\n    tag_32:\n        /* \"#utility.yul\":9374:9380   */\n      0x00\n        /* \"#utility.yul\":9411:9412   */\n      0x02\n        /* \"#utility.yul\":9405:9409   */\n      dup3\n        /* \"#utility.yul\":9401:9413   */\n      div\n        /* \"#utility.yul\":9391:9413   */\n      swap1\n      pop\n        /* \"#utility.yul\":9458:9459   */\n      0x01\n        /* \"#utility.yul\":9452:9456   */\n      dup3\n        /* \"#utility.yul\":9448:9460   */\n      and\n        /* \"#utility.yul\":9479:9497   */\n      dup1\n        /* \"#utility.yul\":9469:9550   */\n      tag_295\n      jumpi\n        /* \"#utility.yul\":9535:9539   */\n      0x7f\n        /* \"#utility.yul\":9527:9533   */\n      dup3\n        /* \"#utility.yul\":9523:9540   */\n      and\n        /* \"#utility.yul\":9513:9540   */\n      swap2\n      pop\n        /* \"#utility.yul\":9469:9550   */\n    tag_295:\n        /* \"#utility.yul\":9597:9599   */\n      0x20\n        /* \"#utility.yul\":9589:9595   */\n      dup3\n        /* \"#utility.yul\":9586:9600   */\n      lt\n        /* \"#utility.yul\":9566:9584   */\n      dup2\n        /* \"#utility.yul\":9563:9601   */\n      sub\n        /* \"#utility.yul\":9560:9644   */\n      tag_296\n      jumpi\n        /* \"#utility.yul\":9616:9634   */\n      tag_297\n      tag_149\n      jump\t// in\n    tag_297:\n        /* \"#utility.yul\":9560:9644   */\n    tag_296:\n        /* \"#utility.yul\":9381:9650   */\n      pop\n        /* \"#utility.yul\":9330:9650   */\n      swap2\n      swap1\n      pop\n      jump\t// out\n        /* \"#utility.yul\":9656:9836   */\n    tag_150:\n        /* \"#utility.yul\":9704:9781   */\n      0x4e487b7100000000000000000000000000000000000000000000000000000000\n        /* \"#utility.yul\":9701:9702   */\n      0x00\n        /* \"#utility.yul\":9694:9782   */\n      mstore\n        /* \"#utility.yul\":9801:9805   */\n      0x11\n        /* \"#utility.yul\":9798:9799   */\n      0x04\n        /* \"#utility.yul\":9791:9806   */\n      mstore\n        /* \"#utility.yul\":9825:9829   */\n      0x24\n        /* \"#utility.yul\":9822:9823   */\n      0x00\n        /* \"#utility.yul\":9815:9830   */\n      revert\n        /* \"#utility.yul\":9842:10036   */\n    tag_44:\n        /* \"#utility.yul\":9882:9886   */\n      0x00\n        /* \"#utility.yul\":9902:9922   */\n      tag_300\n        /* \"#utility.yul\":9920:9921   */\n      dup3\n        /* \"#utility.yul\":9902:9922   */\n      tag_125\n      jump\t// in\n    tag_300:\n        /* \"#utility.yul\":9897:9922   */\n      swap2\n      pop\n        /* \"#utility.yul\":9936:9956   */\n      tag_301\n        /* \"#utility.yul\":9954:9955   */\n      dup4\n        /* \"#utility.yul\":9936:9956   */\n      tag_125\n      jump\t// in\n    tag_301:\n        /* \"#utility.yul\":9931:9956   */\n      swap3\n      pop\n        /* \"#utility.yul\":9980:9981   */\n      dup3\n        /* \"#utility.yul\":9977:9978   */\n      dup3\n        /* \"#utility.yul\":9973:9982   */\n      sub\n        /* \"#utility.yul\":9965:9982   */\n      swap1\n      pop\n        /* \"#utility.yul\":10004:10005   */\n      dup2\n        /* \"#utility.yul\":9998:10002   */\n      dup2\n        /* \"#utility.yul\":9995:10006   */\n      gt\n        /* \"#utility.yul\":9992:10029   */\n      iszero\n      tag_302\n      jumpi\n        /* \"#utility.yul\":10009:10027   */\n      tag_303\n      tag_150\n      jump\t// in\n    tag_303:\n        /* \"#utility.yul\":9992:10029   */\n    tag_302:\n        /* \"#utility.yul\":9842:10036   */\n      swap3\n      swap2\n      pop\n      pop\n      jump\t// out\n        /* \"#utility.yul\":10042:10222   */\n    tag_47:\n        /* \"#utility.yul\":10090:10167   */\n      0x4e487b7100000000000000000000000000000000000000000000000000000000\n        /* \"#utility.yul\":10087:10088   */\n      0x00\n        /* \"#utility.yul\":10080:10168   */\n      mstore\n        /* \"#utility.yul\":10187:10191   */\n      0x32\n        /* \"#utility.yul\":10184:10185   */\n      0x04\n        /* \"#utility.yul\":10177:10192   */\n      mstore\n        /* \"#utility.yul\":10211:10215   */\n      0x24\n        /* \"#utility.yul\":10208:10209   */\n      0x00\n        /* \"#utility.yul\":10201:10216   */\n      revert\n        /* \"#utility.yul\":10228:10376   */\n    tag_151:\n        /* \"#utility.yul\":10330:10341   */\n      0x00\n        /* \"#utility.yul\":10367:10370   */\n      dup2\n        /* \"#utility.yul\":10352:10370   */\n      swap1\n      pop\n        /* \"#utility.yul\":10228:10376   */\n      swap3\n      swap2\n      pop\n      pop\n      jump\t// out\n        /* \"#utility.yul\":10382:10545   */\n    tag_152:\n        /* \"#utility.yul\":10522:10537   */\n      0x5468652043616d706169676e2000000000000000000000000000000000000000\n        /* \"#utility.yul\":10518:10519   */\n      0x00\n        /* \"#utility.yul\":10510:10516   */\n      dup3\n        /* \"#utility.yul\":10506:10520   */\n      add\n        /* \"#utility.yul\":10499:10538   */\n      mstore\n        /* \"#utility.yul\":10382:10545   */\n      pop\n      jump\t// out\n        /* \"#utility.yul\":10551:10953   */\n    tag_153:\n        /* \"#utility.yul\":10711:10714   */\n      0x00\n        /* \"#utility.yul\":10732:10817   */\n      tag_308\n        /* \"#utility.yul\":10814:10816   */\n      0x0d\n        /* \"#utility.yul\":10809:10812   */\n      dup4\n        /* \"#utility.yul\":10732:10817   */\n      tag_151\n      jump\t// in\n    tag_308:\n        /* \"#utility.yul\":10725:10817   */\n      swap2\n      pop\n        /* \"#utility.yul\":10826:10919   */\n      tag_309\n        /* \"#utility.yul\":10915:10918   */\n      dup3\n        /* \"#utility.yul\":10826:10919   */\n      tag_152\n      jump\t// in\n    tag_309:\n        /* \"#utility.yul\":10944:10946   */\n      0x0d\n        /* \"#utility.yul\":10939:10942   */\n      dup3\n        /* \"#utility.yul\":10935:10947   */\n      add\n        /* \"#utility.yul\":10928:10947   */\n      swap1\n      pop\n        /* \"#utility.yul\":10551:10953   */\n      swap2\n      swap1\n      pop\n      jump\t// out\n        /* \"#utility.yul\":10959:11038   */\n    tag_154:\n        /* \"#utility.yul\":10998:11005   */\n      0x00\n        /* \"#utility.yul\":11027:11032   */\n      dup2\n        /* \"#utility.yul\":11016:11032   */\n      swap1\n      pop\n        /* \"#utility.yul\":10959:11038   */\n      swap2\n      swap1\n      pop\n      jump\t// out\n        /* \"#utility.yul\":11044:11201   */\n    tag_155:\n        /* \"#utility.yul\":11149:11194   */\n      tag_312\n        /* \"#utility.yul\":11169:11193   */\n      tag_313\n        /* \"#utility.yul\":11187:11192   */\n      dup3\n        /* \"#utility.yul\":11169:11193   */\n      tag_125\n      jump\t// in\n    tag_313:\n        /* \"#utility.yul\":11149:11194   */\n      tag_154\n      jump\t// in\n    tag_312:\n        /* \"#utility.yul\":11144:11147   */\n      dup3\n        /* \"#utility.yul\":11137:11195   */\n      mstore\n        /* \"#utility.yul\":11044:11201   */\n      pop\n      pop\n      jump\t// out\n        /* \"#utility.yul\":11207:11373   */\n    tag_156:\n        /* \"#utility.yul\":11347:11365   */\n      0x20446f6573204e4f542045786973742100000000000000000000000000000000\n        /* \"#utility.yul\":11343:11344   */\n      0x00\n        /* \"#utility.yul\":11335:11341   */\n      dup3\n        /* \"#utility.yul\":11331:11345   */\n      add\n        /* \"#utility.yul\":11324:11366   */\n      mstore\n        /* \"#utility.yul\":11207:11373   */\n      pop\n      jump\t// out\n        /* \"#utility.yul\":11379:11781   */\n    tag_157:\n        /* \"#utility.yul\":11539:11542   */\n      0x00\n        /* \"#utility.yul\":11560:11645   */\n      tag_316\n        /* \"#utility.yul\":11642:11644   */\n      0x10\n        /* \"#utility.yul\":11637:11640   */\n      dup4\n        /* \"#utility.yul\":11560:11645   */\n      tag_151\n      jump\t// in\n    tag_316:\n        /* \"#utility.yul\":11553:11645   */\n      swap2\n      pop\n        /* \"#utility.yul\":11654:11747   */\n      tag_317\n        /* \"#utility.yul\":11743:11746   */\n      dup3\n        /* \"#utility.yul\":11654:11747   */\n      tag_156\n      jump\t// in\n    tag_317:\n        /* \"#utility.yul\":11772:11774   */\n      0x10\n        /* \"#utility.yul\":11767:11770   */\n      dup3\n        /* \"#utility.yul\":11763:11775   */\n      add\n        /* \"#utility.yul\":11756:11775   */\n      swap1\n      pop\n        /* \"#utility.yul\":11379:11781   */\n      swap2\n      swap1\n      pop\n      jump\t// out\n        /* \"#utility.yul\":11787:12575   */\n    tag_50:\n        /* \"#utility.yul\":12101:12104   */\n      0x00\n        /* \"#utility.yul\":12123:12271   */\n      tag_319\n        /* \"#utility.yul\":12267:12270   */\n      dup3\n        /* \"#utility.yul\":12123:12271   */\n      tag_153\n      jump\t// in\n    tag_319:\n        /* \"#utility.yul\":12116:12271   */\n      swap2\n      pop\n        /* \"#utility.yul\":12281:12356   */\n      tag_320\n        /* \"#utility.yul\":12352:12355   */\n      dup3\n        /* \"#utility.yul\":12343:12349   */\n      dup5\n        /* \"#utility.yul\":12281:12356   */\n      tag_155\n      jump\t// in\n    tag_320:\n        /* \"#utility.yul\":12381:12383   */\n      0x20\n        /* \"#utility.yul\":12376:12379   */\n      dup3\n        /* \"#utility.yul\":12372:12384   */\n      add\n        /* \"#utility.yul\":12365:12384   */\n      swap2\n      pop\n        /* \"#utility.yul\":12401:12549   */\n      tag_321\n        /* \"#utility.yul\":12545:12548   */\n      dup3\n        /* \"#utility.yul\":12401:12549   */\n      tag_157\n      jump\t// in\n    tag_321:\n        /* \"#utility.yul\":12394:12549   */\n      swap2\n      pop\n        /* \"#utility.yul\":12566:12569   */\n      dup2\n        /* \"#utility.yul\":12559:12569   */\n      swap1\n      pop\n        /* \"#utility.yul\":11787:12575   */\n      swap3\n      swap2\n      pop\n      pop\n      jump\t// out\n        /* \"#utility.yul\":12581:12894   */\n    tag_53:\n        /* \"#utility.yul\":12694:12698   */\n      0x00\n        /* \"#utility.yul\":12732:12734   */\n      0x20\n        /* \"#utility.yul\":12721:12730   */\n      dup3\n        /* \"#utility.yul\":12717:12735   */\n      add\n        /* \"#utility.yul\":12709:12735   */\n      swap1\n      pop\n        /* \"#utility.yul\":12781:12790   */\n      dup2\n        /* \"#utility.yul\":12775:12779   */\n      dup2\n        /* \"#utility.yul\":12771:12791   */\n      sub\n        /* \"#utility.yul\":12767:12768   */\n      0x00\n        /* \"#utility.yul\":12756:12765   */\n      dup4\n        /* \"#utility.yul\":12752:12769   */\n      add\n        /* \"#utility.yul\":12745:12792   */\n      mstore\n        /* \"#utility.yul\":12809:12887   */\n      tag_323\n        /* \"#utility.yul\":12882:12886   */\n      dup2\n        /* \"#utility.yul\":12873:12879   */\n      dup5\n        /* \"#utility.yul\":12809:12887   */\n      tag_133\n      jump\t// in\n    tag_323:\n        /* \"#utility.yul\":12801:12887   */\n      swap1\n      pop\n        /* \"#utility.yul\":12581:12894   */\n      swap3\n      swap2\n      pop\n      pop\n      jump\t// out\n        /* \"#utility.yul\":12900:13051   */\n    tag_158:\n        /* \"#utility.yul\":13040:13043   */\n      0x2700000000000000000000000000000000000000000000000000000000000000\n        /* \"#utility.yul\":13036:13037   */\n      0x00\n        /* \"#utility.yul\":13028:13034   */\n      dup3\n        /* \"#utility.yul\":13024:13038   */\n      add\n        /* \"#utility.yul\":13017:13044   */\n      mstore\n        /* \"#utility.yul\":12900:13051   */\n      pop\n      jump\t// out\n        /* \"#utility.yul\":13057:13457   */\n    tag_159:\n        /* \"#utility.yul\":13217:13220   */\n      0x00\n        /* \"#utility.yul\":13238:13322   */\n      tag_326\n        /* \"#utility.yul\":13320:13321   */\n      0x01\n        /* \"#utility.yul\":13315:13318   */\n      dup4\n        /* \"#utility.yul\":13238:13322   */\n      tag_151\n      jump\t// in\n    tag_326:\n        /* \"#utility.yul\":13231:13322   */\n      swap2\n      pop\n        /* \"#utility.yul\":13331:13424   */\n      tag_327\n        /* \"#utility.yul\":13420:13423   */\n      dup3\n        /* \"#utility.yul\":13331:13424   */\n      tag_158\n      jump\t// in\n    tag_327:\n        /* \"#utility.yul\":13449:13450   */\n      0x01\n        /* \"#utility.yul\":13444:13447   */\n      dup3\n        /* \"#utility.yul\":13440:13451   */\n      add\n        /* \"#utility.yul\":13433:13451   */\n      swap1\n      pop\n        /* \"#utility.yul\":13057:13457   */\n      swap2\n      swap1\n      pop\n      jump\t// out\n        /* \"#utility.yul\":13463:13604   */\n    tag_160:\n        /* \"#utility.yul\":13512:13516   */\n      0x00\n        /* \"#utility.yul\":13535:13538   */\n      dup2\n        /* \"#utility.yul\":13527:13538   */\n      swap1\n      pop\n        /* \"#utility.yul\":13558:13561   */\n      dup2\n        /* \"#utility.yul\":13555:13556   */\n      0x00\n        /* \"#utility.yul\":13548:13562   */\n      mstore\n        /* \"#utility.yul\":13592:13596   */\n      0x20\n        /* \"#utility.yul\":13589:13590   */\n      0x00\n        /* \"#utility.yul\":13579:13597   */\n      keccak256\n        /* \"#utility.yul\":13571:13597   */\n      swap1\n      pop\n        /* \"#utility.yul\":13463:13604   */\n      swap2\n      swap1\n      pop\n      jump\t// out\n        /* \"#utility.yul\":13634:14508   */\n    tag_161:\n        /* \"#utility.yul\":13737:13740   */\n      0x00\n        /* \"#utility.yul\":13774:13779   */\n      dup2\n        /* \"#utility.yul\":13768:13780   */\n      sload\n        /* \"#utility.yul\":13803:13839   */\n      tag_330\n        /* \"#utility.yul\":13829:13838   */\n      dup2\n        /* \"#utility.yul\":13803:13839   */\n      tag_32\n      jump\t// in\n    tag_330:\n        /* \"#utility.yul\":13855:13944   */\n      tag_331\n        /* \"#utility.yul\":13937:13943   */\n      dup2\n        /* \"#utility.yul\":13932:13935   */\n      dup7\n        /* \"#utility.yul\":13855:13944   */\n      tag_151\n      jump\t// in\n    tag_331:\n        /* \"#utility.yul\":13848:13944   */\n      swap5\n      pop\n        /* \"#utility.yul\":13975:13976   */\n      0x01\n        /* \"#utility.yul\":13964:13973   */\n      dup3\n        /* \"#utility.yul\":13960:13977   */\n      and\n        /* \"#utility.yul\":13991:13992   */\n      0x00\n        /* \"#utility.yul\":13986:14152   */\n      dup2\n      eq\n      tag_333\n      jumpi\n        /* \"#utility.yul\":14166:14167   */\n      0x01\n        /* \"#utility.yul\":14161:14502   */\n      dup2\n      eq\n      tag_334\n      jumpi\n        /* \"#utility.yul\":13953:14502   */\n      jump(tag_332)\n        /* \"#utility.yul\":13986:14152   */\n    tag_333:\n        /* \"#utility.yul\":14070:14074   */\n      0xff\n        /* \"#utility.yul\":14066:14075   */\n      not\n        /* \"#utility.yul\":14055:14064   */\n      dup4\n        /* \"#utility.yul\":14051:14076   */\n      and\n        /* \"#utility.yul\":14046:14049   */\n      dup7\n        /* \"#utility.yul\":14039:14077   */\n      mstore\n        /* \"#utility.yul\":14132:14138   */\n      dup2\n        /* \"#utility.yul\":14125:14139   */\n      iszero\n        /* \"#utility.yul\":14118:14140   */\n      iszero\n        /* \"#utility.yul\":14110:14116   */\n      dup3\n        /* \"#utility.yul\":14106:14141   */\n      mul\n        /* \"#utility.yul\":14101:14104   */\n      dup7\n        /* \"#utility.yul\":14097:14142   */\n      add\n        /* \"#utility.yul\":14090:14142   */\n      swap4\n      pop\n        /* \"#utility.yul\":13986:14152   */\n      jump(tag_332)\n        /* \"#utility.yul\":14161:14502   */\n    tag_334:\n        /* \"#utility.yul\":14228:14266   */\n      tag_335\n        /* \"#utility.yul\":14260:14265   */\n      dup6\n        /* \"#utility.yul\":14228:14266   */\n      tag_160\n      jump\t// in\n    tag_335:\n        /* \"#utility.yul\":14288:14289   */\n      0x00\n        /* \"#utility.yul\":14302:14456   */\n    tag_336:\n        /* \"#utility.yul\":14316:14322   */\n      dup4\n        /* \"#utility.yul\":14313:14314   */\n      dup2\n        /* \"#utility.yul\":14310:14323   */\n      lt\n        /* \"#utility.yul\":14302:14456   */\n      iszero\n      tag_338\n      jumpi\n        /* \"#utility.yul\":14390:14397   */\n      dup2\n        /* \"#utility.yul\":14384:14398   */\n      sload\n        /* \"#utility.yul\":14380:14381   */\n      dup2\n        /* \"#utility.yul\":14375:14378   */\n      dup10\n        /* \"#utility.yul\":14371:14382   */\n      add\n        /* \"#utility.yul\":14364:14399   */\n      mstore\n        /* \"#utility.yul\":14440:14441   */\n      0x01\n        /* \"#utility.yul\":14431:14438   */\n      dup3\n        /* \"#utility.yul\":14427:14442   */\n      add\n        /* \"#utility.yul\":14416:14442   */\n      swap2\n      pop\n        /* \"#utility.yul\":14338:14342   */\n      0x20\n        /* \"#utility.yul\":14335:14336   */\n      dup2\n        /* \"#utility.yul\":14331:14343   */\n      add\n        /* \"#utility.yul\":14326:14343   */\n      swap1\n      pop\n        /* \"#utility.yul\":14302:14456   */\n      jump(tag_336)\n    tag_338:\n        /* \"#utility.yul\":14485:14491   */\n      dup4\n        /* \"#utility.yul\":14480:14483   */\n      dup9\n        /* \"#utility.yul\":14476:14492   */\n      add\n        /* \"#utility.yul\":14469:14492   */\n      swap6\n      pop\n        /* \"#utility.yul\":14168:14502   */\n      pop\n      pop\n        /* \"#utility.yul\":13953:14502   */\n    tag_332:\n      pop\n        /* \"#utility.yul\":13741:14508   */\n      pop\n      pop\n        /* \"#utility.yul\":13634:14508   */\n      swap3\n      swap2\n      pop\n      pop\n      jump\t// out\n        /* \"#utility.yul\":14514:14689   */\n    tag_162:\n        /* \"#utility.yul\":14654:14681   */\n      0x272043616d706169676e2057617320436f6d706c657465642100000000000000\n        /* \"#utility.yul\":14650:14651   */\n      0x00\n        /* \"#utility.yul\":14642:14648   */\n      dup3\n        /* \"#utility.yul\":14638:14652   */\n      add\n        /* \"#utility.yul\":14631:14682   */\n      mstore\n        /* \"#utility.yul\":14514:14689   */\n      pop\n      jump\t// out\n        /* \"#utility.yul\":14695:15097   */\n    tag_163:\n        /* \"#utility.yul\":14855:14858   */\n      0x00\n        /* \"#utility.yul\":14876:14961   */\n      tag_341\n        /* \"#utility.yul\":14958:14960   */\n      0x19\n        /* \"#utility.yul\":14953:14956   */\n      dup4\n        /* \"#utility.yul\":14876:14961   */\n      tag_151\n      jump\t// in\n    tag_341:\n        /* \"#utility.yul\":14869:14961   */\n      swap2\n      pop\n        /* \"#utility.yul\":14970:15063   */\n      tag_342\n        /* \"#utility.yul\":15059:15062   */\n      dup3\n        /* \"#utility.yul\":14970:15063   */\n      tag_162\n      jump\t// in\n    tag_342:\n        /* \"#utility.yul\":15088:15090   */\n      0x19\n        /* \"#utility.yul\":15083:15086   */\n      dup3\n        /* \"#utility.yul\":15079:15091   */\n      add\n        /* \"#utility.yul\":15072:15091   */\n      swap1\n      pop\n        /* \"#utility.yul\":14695:15097   */\n      swap2\n      swap1\n      pop\n      jump\t// out\n        /* \"#utility.yul\":15103:15904   */\n    tag_63:\n        /* \"#utility.yul\":15434:15437   */\n      0x00\n        /* \"#utility.yul\":15456:15604   */\n      tag_344\n        /* \"#utility.yul\":15600:15603   */\n      dup3\n        /* \"#utility.yul\":15456:15604   */\n      tag_159\n      jump\t// in\n    tag_344:\n        /* \"#utility.yul\":15449:15604   */\n      swap2\n      pop\n        /* \"#utility.yul\":15621:15713   */\n      tag_345\n        /* \"#utility.yul\":15709:15712   */\n      dup3\n        /* \"#utility.yul\":15700:15706   */\n      dup5\n        /* \"#utility.yul\":15621:15713   */\n      tag_161\n      jump\t// in\n    tag_345:\n        /* \"#utility.yul\":15614:15713   */\n      swap2\n      pop\n        /* \"#utility.yul\":15730:15878   */\n      tag_346\n        /* \"#utility.yul\":15874:15877   */\n      dup3\n        /* \"#utility.yul\":15730:15878   */\n      tag_163\n      jump\t// in\n    tag_346:\n        /* \"#utility.yul\":15723:15878   */\n      swap2\n      pop\n        /* \"#utility.yul\":15895:15898   */\n      dup2\n        /* \"#utility.yul\":15888:15898   */\n      swap1\n      pop\n        /* \"#utility.yul\":15103:15904   */\n      swap3\n      swap2\n      pop\n      pop\n      jump\t// out\n        /* \"#utility.yul\":15910:16081   */\n    tag_164:\n        /* \"#utility.yul\":16050:16073   */\n      0x416d6f756e742043616e6e6f74206265205a65726f0000000000000000000000\n        /* \"#utility.yul\":16046:16047   */\n      0x00\n        /* \"#utility.yul\":16038:16044   */\n      dup3\n        /* \"#utility.yul\":16034:16048   */\n      add\n        /* \"#utility.yul\":16027:16074   */\n      mstore\n        /* \"#utility.yul\":15910:16081   */\n      pop\n      jump\t// out\n        /* \"#utility.yul\":16087:16453   */\n    tag_165:\n        /* \"#utility.yul\":16229:16232   */\n      0x00\n        /* \"#utility.yul\":16250:16317   */\n      tag_349\n        /* \"#utility.yul\":16314:16316   */\n      0x15\n        /* \"#utility.yul\":16309:16312   */\n      dup4\n        /* \"#utility.yul\":16250:16317   */\n      tag_130\n      jump\t// in\n    tag_349:\n        /* \"#utility.yul\":16243:16317   */\n      swap2\n      pop\n        /* \"#utility.yul\":16326:16419   */\n      tag_350\n        /* \"#utility.yul\":16415:16418   */\n      dup3\n        /* \"#utility.yul\":16326:16419   */\n      tag_164\n      jump\t// in\n    tag_350:\n        /* \"#utility.yul\":16444:16446   */\n      0x20\n        /* \"#utility.yul\":16439:16442   */\n      dup3\n        /* \"#utility.yul\":16435:16447   */\n      add\n        /* \"#utility.yul\":16428:16447   */\n      swap1\n      pop\n        /* \"#utility.yul\":16087:16453   */\n      swap2\n      swap1\n      pop\n      jump\t// out\n        /* \"#utility.yul\":16459:16878   */\n    tag_68:\n        /* \"#utility.yul\":16625:16629   */\n      0x00\n        /* \"#utility.yul\":16663:16665   */\n      0x20\n        /* \"#utility.yul\":16652:16661   */\n      dup3\n        /* \"#utility.yul\":16648:16666   */\n      add\n        /* \"#utility.yul\":16640:16666   */\n      swap1\n      pop\n        /* \"#utility.yul\":16712:16721   */\n      dup2\n        /* \"#utility.yul\":16706:16710   */\n      dup2\n        /* \"#utility.yul\":16702:16722   */\n      sub\n        /* \"#utility.yul\":16698:16699   */\n      0x00\n        /* \"#utility.yul\":16687:16696   */\n      dup4\n        /* \"#utility.yul\":16683:16700   */\n      add\n        /* \"#utility.yul\":16676:16723   */\n      mstore\n        /* \"#utility.yul\":16740:16871   */\n      tag_352\n        /* \"#utility.yul\":16866:16870   */\n      dup2\n        /* \"#utility.yul\":16740:16871   */\n      tag_165\n      jump\t// in\n    tag_352:\n        /* \"#utility.yul\":16732:16871   */\n      swap1\n      pop\n        /* \"#utility.yul\":16459:16878   */\n      swap2\n      swap1\n      pop\n      jump\t// out\n        /* \"#utility.yul\":16884:17059   */\n    tag_166:\n        /* \"#utility.yul\":17024:17051   */\n      0x54686520416d6f756e7420646f65736e2774204d617463682100000000000000\n        /* \"#utility.yul\":17020:17021   */\n      0x00\n        /* \"#utility.yul\":17012:17018   */\n      dup3\n        /* \"#utility.yul\":17008:17022   */\n      add\n        /* \"#utility.yul\":17001:17052   */\n      mstore\n        /* \"#utility.yul\":16884:17059   */\n      pop\n      jump\t// out\n        /* \"#utility.yul\":17065:17431   */\n    tag_167:\n        /* \"#utility.yul\":17207:17210   */\n      0x00\n        /* \"#utility.yul\":17228:17295   */\n      tag_355\n        /* \"#utility.yul\":17292:17294   */\n      0x19\n        /* \"#utility.yul\":17287:17290   */\n      dup4\n        /* \"#utility.yul\":17228:17295   */\n      tag_130\n      jump\t// in\n    tag_355:\n        /* \"#utility.yul\":17221:17295   */\n      swap2\n      pop\n        /* \"#utility.yul\":17304:17397   */\n      tag_356\n        /* \"#utility.yul\":17393:17396   */\n      dup3\n        /* \"#utility.yul\":17304:17397   */\n      tag_166\n      jump\t// in\n    tag_356:\n        /* \"#utility.yul\":17422:17424   */\n      0x20\n        /* \"#utility.yul\":17417:17420   */\n      dup3\n        /* \"#utility.yul\":17413:17425   */\n      add\n        /* \"#utility.yul\":17406:17425   */\n      swap1\n      pop\n        /* \"#utility.yul\":17065:17431   */\n      swap2\n      swap1\n      pop\n      jump\t// out\n        /* \"#utility.yul\":17437:17856   */\n    tag_71:\n        /* \"#utility.yul\":17603:17607   */\n      0x00\n        /* \"#utility.yul\":17641:17643   */\n      0x20\n        /* \"#utility.yul\":17630:17639   */\n      dup3\n        /* \"#utility.yul\":17626:17644   */\n      add\n        /* \"#utility.yul\":17618:17644   */\n      swap1\n      pop\n        /* \"#utility.yul\":17690:17699   */\n      dup2\n        /* \"#utility.yul\":17684:17688   */\n      dup2\n        /* \"#utility.yul\":17680:17700   */\n      sub\n        /* \"#utility.yul\":17676:17677   */\n      0x00\n        /* \"#utility.yul\":17665:17674   */\n      dup4\n        /* \"#utility.yul\":17661:17678   */\n      add\n        /* \"#utility.yul\":17654:17701   */\n      mstore\n        /* \"#utility.yul\":17718:17849   */\n      tag_358\n        /* \"#utility.yul\":17844:17848   */\n      dup2\n        /* \"#utility.yul\":17718:17849   */\n      tag_167\n      jump\t// in\n    tag_358:\n        /* \"#utility.yul\":17710:17849   */\n      swap1\n      pop\n        /* \"#utility.yul\":17437:17856   */\n      swap2\n      swap1\n      pop\n      jump\t// out\n        /* \"#utility.yul\":17862:18053   */\n    tag_79:\n        /* \"#utility.yul\":17902:17905   */\n      0x00\n        /* \"#utility.yul\":17921:17941   */\n      tag_360\n        /* \"#utility.yul\":17939:17940   */\n      dup3\n        /* \"#utility.yul\":17921:17941   */\n      tag_125\n      jump\t// in\n    tag_360:\n        /* \"#utility.yul\":17916:17941   */\n      swap2\n      pop\n        /* \"#utility.yul\":17955:17975   */\n      tag_361\n        /* \"#utility.yul\":17973:17974   */\n      dup4\n        /* \"#utility.yul\":17955:17975   */\n      tag_125\n      jump\t// in\n    tag_361:\n        /* \"#utility.yul\":17950:17975   */\n      swap3\n      pop\n        /* \"#utility.yul\":17998:17999   */\n      dup3\n        /* \"#utility.yul\":17995:17996   */\n      dup3\n        /* \"#utility.yul\":17991:18000   */\n      add\n        /* \"#utility.yul\":17984:18000   */\n      swap1\n      pop\n        /* \"#utility.yul\":18019:18022   */\n      dup1\n        /* \"#utility.yul\":18016:18017   */\n      dup3\n        /* \"#utility.yul\":18013:18023   */\n      gt\n        /* \"#utility.yul\":18010:18046   */\n      iszero\n      tag_362\n      jumpi\n        /* \"#utility.yul\":18026:18044   */\n      tag_363\n      tag_150\n      jump\t// in\n    tag_363:\n        /* \"#utility.yul\":18010:18046   */\n    tag_362:\n        /* \"#utility.yul\":17862:18053   */\n      swap3\n      swap2\n      pop\n      pop\n      jump\t// out\n        /* \"#utility.yul\":18059:18391   */\n    tag_94:\n        /* \"#utility.yul\":18180:18184   */\n      0x00\n        /* \"#utility.yul\":18218:18220   */\n      0x40\n        /* \"#utility.yul\":18207:18216   */\n      dup3\n        /* \"#utility.yul\":18203:18221   */\n      add\n        /* \"#utility.yul\":18195:18221   */\n      swap1\n      pop\n        /* \"#utility.yul\":18231:18302   */\n      tag_365\n        /* \"#utility.yul\":18299:18300   */\n      0x00\n        /* \"#utility.yul\":18288:18297   */\n      dup4\n        /* \"#utility.yul\":18284:18301   */\n      add\n        /* \"#utility.yul\":18275:18281   */\n      dup6\n        /* \"#utility.yul\":18231:18302   */\n      tag_134\n      jump\t// in\n    tag_365:\n        /* \"#utility.yul\":18312:18384   */\n      tag_366\n        /* \"#utility.yul\":18380:18382   */\n      0x20\n        /* \"#utility.yul\":18369:18378   */\n      dup4\n        /* \"#utility.yul\":18365:18383   */\n      add\n        /* \"#utility.yul\":18356:18362   */\n      dup5\n        /* \"#utility.yul\":18312:18384   */\n      tag_128\n      jump\t// in\n    tag_366:\n        /* \"#utility.yul\":18059:18391   */\n      swap4\n      swap3\n      pop\n      pop\n      pop\n      jump\t// out\n        /* \"#utility.yul\":18397:18787   */\n    tag_168:\n        /* \"#utility.yul\":18503:18506   */\n      0x00\n        /* \"#utility.yul\":18531:18570   */\n      tag_368\n        /* \"#utility.yul\":18564:18569   */\n      dup3\n        /* \"#utility.yul\":18531:18570   */\n      tag_129\n      jump\t// in\n    tag_368:\n        /* \"#utility.yul\":18586:18675   */\n      tag_369\n        /* \"#utility.yul\":18668:18674   */\n      dup2\n        /* \"#utility.yul\":18663:18666   */\n      dup6\n        /* \"#utility.yul\":18586:18675   */\n      tag_151\n      jump\t// in\n    tag_369:\n        /* \"#utility.yul\":18579:18675   */\n      swap4\n      pop\n        /* \"#utility.yul\":18684:18749   */\n      tag_370\n        /* \"#utility.yul\":18742:18748   */\n      dup2\n        /* \"#utility.yul\":18737:18740   */\n      dup6\n        /* \"#utility.yul\":18730:18734   */\n      0x20\n        /* \"#utility.yul\":18723:18728   */\n      dup7\n        /* \"#utility.yul\":18719:18735   */\n      add\n        /* \"#utility.yul\":18684:18749   */\n      tag_131\n      jump\t// in\n    tag_370:\n        /* \"#utility.yul\":18774:18780   */\n      dup1\n        /* \"#utility.yul\":18769:18772   */\n      dup5\n        /* \"#utility.yul\":18765:18781   */\n      add\n        /* \"#utility.yul\":18758:18781   */\n      swap2\n      pop\n        /* \"#utility.yul\":18507:18787   */\n      pop\n        /* \"#utility.yul\":18397:18787   */\n      swap3\n      swap2\n      pop\n      pop\n      jump\t// out\n        /* \"#utility.yul\":18793:19068   */\n    tag_103:\n        /* \"#utility.yul\":18925:18928   */\n      0x00\n        /* \"#utility.yul\":18947:19042   */\n      tag_372\n        /* \"#utility.yul\":19038:19041   */\n      dup3\n        /* \"#utility.yul\":19029:19035   */\n      dup5\n        /* \"#utility.yul\":18947:19042   */\n      tag_168\n      jump\t// in\n    tag_372:\n        /* \"#utility.yul\":18940:19042   */\n      swap2\n      pop\n        /* \"#utility.yul\":19059:19062   */\n      dup2\n        /* \"#utility.yul\":19052:19062   */\n      swap1\n      pop\n        /* \"#utility.yul\":18793:19068   */\n      swap3\n      swap2\n      pop\n      pop\n      jump\t// out\n        /* \"#utility.yul\":19074:19219   */\n    tag_169:\n        /* \"#utility.yul\":19127:19131   */\n      0x00\n        /* \"#utility.yul\":19150:19153   */\n      dup2\n        /* \"#utility.yul\":19142:19153   */\n      swap1\n      pop\n        /* \"#utility.yul\":19173:19176   */\n      dup2\n        /* \"#utility.yul\":19170:19171   */\n      0x00\n        /* \"#utility.yul\":19163:19177   */\n      mstore\n        /* \"#utility.yul\":19207:19211   */\n      0x20\n        /* \"#utility.yul\":19204:19205   */\n      0x00\n        /* \"#utility.yul\":19194:19212   */\n      keccak256\n        /* \"#utility.yul\":19186:19212   */\n      swap1\n      pop\n        /* \"#utility.yul\":19074:19219   */\n      swap2\n      swap1\n      pop\n      jump\t// out\n        /* \"#utility.yul\":19249:20131   */\n    tag_170:\n        /* \"#utility.yul\":19356:19359   */\n      0x00\n        /* \"#utility.yul\":19393:19398   */\n      dup2\n        /* \"#utility.yul\":19387:19399   */\n      sload\n        /* \"#utility.yul\":19422:19458   */\n      tag_375\n        /* \"#utility.yul\":19448:19457   */\n      dup2\n        /* \"#utility.yul\":19422:19458   */\n      tag_32\n      jump\t// in\n    tag_375:\n        /* \"#utility.yul\":19474:19563   */\n      tag_376\n        /* \"#utility.yul\":19556:19562   */\n      dup2\n        /* \"#utility.yul\":19551:19554   */\n      dup7\n        /* \"#utility.yul\":19474:19563   */\n      tag_151\n      jump\t// in\n    tag_376:\n        /* \"#utility.yul\":19467:19563   */\n      swap5\n      pop\n        /* \"#utility.yul\":19594:19595   */\n      0x01\n        /* \"#utility.yul\":19583:19592   */\n      dup3\n        /* \"#utility.yul\":19579:19596   */\n      and\n        /* \"#utility.yul\":19610:19611   */\n      0x00\n        /* \"#utility.yul\":19605:19771   */\n      dup2\n      eq\n      tag_378\n      jumpi\n        /* \"#utility.yul\":19785:19786   */\n      0x01\n        /* \"#utility.yul\":19780:20125   */\n      dup2\n      eq\n      tag_379\n      jumpi\n        /* \"#utility.yul\":19572:20125   */\n      jump(tag_377)\n        /* \"#utility.yul\":19605:19771   */\n    tag_378:\n        /* \"#utility.yul\":19689:19693   */\n      0xff\n        /* \"#utility.yul\":19685:19694   */\n      not\n        /* \"#utility.yul\":19674:19683   */\n      dup4\n        /* \"#utility.yul\":19670:19695   */\n      and\n        /* \"#utility.yul\":19665:19668   */\n      dup7\n        /* \"#utility.yul\":19658:19696   */\n      mstore\n        /* \"#utility.yul\":19751:19757   */\n      dup2\n        /* \"#utility.yul\":19744:19758   */\n      iszero\n        /* \"#utility.yul\":19737:19759   */\n      iszero\n        /* \"#utility.yul\":19729:19735   */\n      dup3\n        /* \"#utility.yul\":19725:19760   */\n      mul\n        /* \"#utility.yul\":19720:19723   */\n      dup7\n        /* \"#utility.yul\":19716:19761   */\n      add\n        /* \"#utility.yul\":19709:19761   */\n      swap4\n      pop\n        /* \"#utility.yul\":19605:19771   */\n      jump(tag_377)\n        /* \"#utility.yul\":19780:20125   */\n    tag_379:\n        /* \"#utility.yul\":19847:19889   */\n      tag_380\n        /* \"#utility.yul\":19883:19888   */\n      dup6\n        /* \"#utility.yul\":19847:19889   */\n      tag_169\n      jump\t// in\n    tag_380:\n        /* \"#utility.yul\":19911:19912   */\n      0x00\n        /* \"#utility.yul\":19925:20079   */\n    tag_381:\n        /* \"#utility.yul\":19939:19945   */\n      dup4\n        /* \"#utility.yul\":19936:19937   */\n      dup2\n        /* \"#utility.yul\":19933:19946   */\n      lt\n        /* \"#utility.yul\":19925:20079   */\n      iszero\n      tag_383\n      jumpi\n        /* \"#utility.yul\":20013:20020   */\n      dup2\n        /* \"#utility.yul\":20007:20021   */\n      sload\n        /* \"#utility.yul\":20003:20004   */\n      dup2\n        /* \"#utility.yul\":19998:20001   */\n      dup10\n        /* \"#utility.yul\":19994:20005   */\n      add\n        /* \"#utility.yul\":19987:20022   */\n      mstore\n        /* \"#utility.yul\":20063:20064   */\n      0x01\n        /* \"#utility.yul\":20054:20061   */\n      dup3\n        /* \"#utility.yul\":20050:20065   */\n      add\n        /* \"#utility.yul\":20039:20065   */\n      swap2\n      pop\n        /* \"#utility.yul\":19961:19965   */\n      0x20\n        /* \"#utility.yul\":19958:19959   */\n      dup2\n        /* \"#utility.yul\":19954:19966   */\n      add\n        /* \"#utility.yul\":19949:19966   */\n      swap1\n      pop\n        /* \"#utility.yul\":19925:20079   */\n      jump(tag_381)\n    tag_383:\n        /* \"#utility.yul\":20108:20114   */\n      dup4\n        /* \"#utility.yul\":20103:20106   */\n      dup9\n        /* \"#utility.yul\":20099:20115   */\n      add\n        /* \"#utility.yul\":20092:20115   */\n      swap6\n      pop\n        /* \"#utility.yul\":19787:20125   */\n      pop\n      pop\n        /* \"#utility.yul\":19572:20125   */\n    tag_377:\n      pop\n        /* \"#utility.yul\":19360:20131   */\n      pop\n      pop\n        /* \"#utility.yul\":19249:20131   */\n      swap3\n      swap2\n      pop\n      pop\n      jump\t// out\n        /* \"#utility.yul\":20137:20414   */\n    tag_105:\n        /* \"#utility.yul\":20270:20273   */\n      0x00\n        /* \"#utility.yul\":20292:20388   */\n      tag_385\n        /* \"#utility.yul\":20384:20387   */\n      dup3\n        /* \"#utility.yul\":20375:20381   */\n      dup5\n        /* \"#utility.yul\":20292:20388   */\n      tag_170\n      jump\t// in\n    tag_385:\n        /* \"#utility.yul\":20285:20388   */\n      swap2\n      pop\n        /* \"#utility.yul\":20405:20408   */\n      dup2\n        /* \"#utility.yul\":20398:20408   */\n      swap1\n      pop\n        /* \"#utility.yul\":20137:20414   */\n      swap3\n      swap2\n      pop\n      pop\n      jump\t// out\n        /* \"#utility.yul\":20420:20579   */\n    tag_171:\n        /* \"#utility.yul\":20560:20571   */\n      0x43616d706169676e200000000000000000000000000000000000000000000000\n        /* \"#utility.yul\":20556:20557   */\n      0x00\n        /* \"#utility.yul\":20548:20554   */\n      dup3\n        /* \"#utility.yul\":20544:20558   */\n      add\n        /* \"#utility.yul\":20537:20572   */\n      mstore\n        /* \"#utility.yul\":20420:20579   */\n      pop\n      jump\t// out\n        /* \"#utility.yul\":20585:20985   */\n    tag_172:\n        /* \"#utility.yul\":20745:20748   */\n      0x00\n        /* \"#utility.yul\":20766:20850   */\n      tag_388\n        /* \"#utility.yul\":20848:20849   */\n      0x09\n        /* \"#utility.yul\":20843:20846   */\n      dup4\n        /* \"#utility.yul\":20766:20850   */\n      tag_151\n      jump\t// in\n    tag_388:\n        /* \"#utility.yul\":20759:20850   */\n      swap2\n      pop\n        /* \"#utility.yul\":20859:20952   */\n      tag_389\n        /* \"#utility.yul\":20948:20951   */\n      dup3\n        /* \"#utility.yul\":20859:20952   */\n      tag_171\n      jump\t// in\n    tag_389:\n        /* \"#utility.yul\":20977:20978   */\n      0x09\n        /* \"#utility.yul\":20972:20975   */\n      dup3\n        /* \"#utility.yul\":20968:20979   */\n      add\n        /* \"#utility.yul\":20961:20979   */\n      swap1\n      pop\n        /* \"#utility.yul\":20585:20985   */\n      swap2\n      swap1\n      pop\n      jump\t// out\n        /* \"#utility.yul\":20991:21157   */\n    tag_173:\n        /* \"#utility.yul\":21131:21149   */\n      0x20616c7265616479206578697374732100000000000000000000000000000000\n        /* \"#utility.yul\":21127:21128   */\n      0x00\n        /* \"#utility.yul\":21119:21125   */\n      dup3\n        /* \"#utility.yul\":21115:21129   */\n      add\n        /* \"#utility.yul\":21108:21150   */\n      mstore\n        /* \"#utility.yul\":20991:21157   */\n      pop\n      jump\t// out\n        /* \"#utility.yul\":21163:21565   */\n    tag_174:\n        /* \"#utility.yul\":21323:21326   */\n      0x00\n        /* \"#utility.yul\":21344:21429   */\n      tag_392\n        /* \"#utility.yul\":21426:21428   */\n      0x10\n        /* \"#utility.yul\":21421:21424   */\n      dup4\n        /* \"#utility.yul\":21344:21429   */\n      tag_151\n      jump\t// in\n    tag_392:\n        /* \"#utility.yul\":21337:21429   */\n      swap2\n      pop\n        /* \"#utility.yul\":21438:21531   */\n      tag_393\n        /* \"#utility.yul\":21527:21530   */\n      dup3\n        /* \"#utility.yul\":21438:21531   */\n      tag_173\n      jump\t// in\n    tag_393:\n        /* \"#utility.yul\":21556:21558   */\n      0x10\n        /* \"#utility.yul\":21551:21554   */\n      dup3\n        /* \"#utility.yul\":21547:21559   */\n      add\n        /* \"#utility.yul\":21540:21559   */\n      swap1\n      pop\n        /* \"#utility.yul\":21163:21565   */\n      swap2\n      swap1\n      pop\n      jump\t// out\n        /* \"#utility.yul\":21571:22378   */\n    tag_108:\n        /* \"#utility.yul\":21905:21908   */\n      0x00\n        /* \"#utility.yul\":21927:22075   */\n      tag_395\n        /* \"#utility.yul\":22071:22074   */\n      dup3\n        /* \"#utility.yul\":21927:22075   */\n      tag_172\n      jump\t// in\n    tag_395:\n        /* \"#utility.yul\":21920:22075   */\n      swap2\n      pop\n        /* \"#utility.yul\":22092:22187   */\n      tag_396\n        /* \"#utility.yul\":22183:22186   */\n      dup3\n        /* \"#utility.yul\":22174:22180   */\n      dup5\n        /* \"#utility.yul\":22092:22187   */\n      tag_168\n      jump\t// in\n    tag_396:\n        /* \"#utility.yul\":22085:22187   */\n      swap2\n      pop\n        /* \"#utility.yul\":22204:22352   */\n      tag_397\n        /* \"#utility.yul\":22348:22351   */\n      dup3\n        /* \"#utility.yul\":22204:22352   */\n      tag_174\n      jump\t// in\n    tag_397:\n        /* \"#utility.yul\":22197:22352   */\n      swap2\n      pop\n        /* \"#utility.yul\":22369:22372   */\n      dup2\n        /* \"#utility.yul\":22362:22372   */\n      swap1\n      pop\n        /* \"#utility.yul\":21571:22378   */\n      swap3\n      swap2\n      pop\n      pop\n      jump\t// out\n        /* \"#utility.yul\":22384:22477   */\n    tag_175:\n        /* \"#utility.yul\":22421:22427   */\n      0x00\n        /* \"#utility.yul\":22468:22470   */\n      0x20\n        /* \"#utility.yul\":22463:22465   */\n      0x1f\n        /* \"#utility.yul\":22456:22461   */\n      dup4\n        /* \"#utility.yul\":22452:22466   */\n      add\n        /* \"#utility.yul\":22448:22471   */\n      div\n        /* \"#utility.yul\":22438:22471   */\n      swap1\n      pop\n        /* \"#utility.yul\":22384:22477   */\n      swap2\n      swap1\n      pop\n      jump\t// out\n        /* \"#utility.yul\":22483:22590   */\n    tag_176:\n        /* \"#utility.yul\":22527:22535   */\n      0x00\n        /* \"#utility.yul\":22577:22582   */\n      dup3\n        /* \"#utility.yul\":22571:22575   */\n      dup3\n        /* \"#utility.yul\":22567:22583   */\n      shl\n        /* \"#utility.yul\":22546:22583   */\n      swap1\n      pop\n        /* \"#utility.yul\":22483:22590   */\n      swap3\n      swap2\n      pop\n      pop\n      jump\t// out\n        /* \"#utility.yul\":22596:22989   */\n    tag_177:\n        /* \"#utility.yul\":22665:22671   */\n      0x00\n        /* \"#utility.yul\":22715:22716   */\n      0x08\n        /* \"#utility.yul\":22703:22713   */\n      dup4\n        /* \"#utility.yul\":22699:22717   */\n      mul\n        /* \"#utility.yul\":22738:22835   */\n      tag_401\n        /* \"#utility.yul\":22768:22834   */\n      0xffffffffffffffffffffffffffffffffffffffffffffffffffffffffffffffff\n        /* \"#utility.yul\":22757:22766   */\n      dup3\n        /* \"#utility.yul\":22738:22835   */\n      tag_176\n      jump\t// in\n    tag_401:\n        /* \"#utility.yul\":22856:22895   */\n      tag_402\n        /* \"#utility.yul\":22886:22894   */\n      dup7\n        /* \"#utility.yul\":22875:22884   */\n      dup4\n        /* \"#utility.yul\":22856:22895   */\n      tag_176\n      jump\t// in\n    tag_402:\n        /* \"#utility.yul\":22844:22895   */\n      swap6\n      pop\n        /* \"#utility.yul\":22928:22932   */\n      dup1\n        /* \"#utility.yul\":22924:22933   */\n      not\n        /* \"#utility.yul\":22917:22922   */\n      dup5\n        /* \"#utility.yul\":22913:22934   */\n      and\n        /* \"#utility.yul\":22904:22934   */\n      swap4\n      pop\n        /* \"#utility.yul\":22977:22981   */\n      dup1\n        /* \"#utility.yul\":22967:22975   */\n      dup7\n        /* \"#utility.yul\":22963:22982   */\n      and\n        /* \"#utility.yul\":22956:22961   */\n      dup5\n        /* \"#utility.yul\":22953:22983   */\n      or\n        /* \"#utility.yul\":22943:22983   */\n      swap3\n      pop\n        /* \"#utility.yul\":22672:22989   */\n      pop\n      pop\n        /* \"#utility.yul\":22596:22989   */\n      swap4\n      swap3\n      pop\n      pop\n      pop\n      jump\t// out\n        /* \"#utility.yul\":22995:23055   */\n    tag_178:\n        /* \"#utility.yul\":23023:23026   */\n      0x00\n        /* \"#utility.yul\":23044:23049   */\n      dup2\n        /* \"#utility.yul\":23037:23049   */\n      swap1\n      pop\n        /* \"#utility.yul\":22995:23055   */\n      swap2\n      swap1\n      pop\n      jump\t// out\n        /* \"#utility.yul\":23061:23203   */\n    tag_179:\n        /* \"#utility.yul\":23111:23120   */\n      0x00\n        /* \"#utility.yul\":23144:23197   */\n      tag_405\n        /* \"#utility.yul\":23162:23196   */\n      tag_406\n        /* \"#utility.yul\":23171:23195   */\n      tag_407\n        /* \"#utility.yul\":23189:23194   */\n      dup5\n        /* \"#utility.yul\":23171:23195   */\n      tag_125\n      jump\t// in\n    tag_407:\n        /* \"#utility.yul\":23162:23196   */\n      tag_178\n      jump\t// in\n    tag_406:\n        /* \"#utility.yul\":23144:23197   */\n      tag_125\n      jump\t// in\n    tag_405:\n        /* \"#utility.yul\":23131:23197   */\n      swap1\n      pop\n        /* \"#utility.yul\":23061:23203   */\n      swap2\n      swap1\n      pop\n      jump\t// out\n        /* \"#utility.yul\":23209:23284   */\n    tag_180:\n        /* \"#utility.yul\":23252:23255   */\n      0x00\n        /* \"#utility.yul\":23273:23278   */\n      dup2\n        /* \"#utility.yul\":23266:23278   */\n      swap1\n      pop\n        /* \"#utility.yul\":23209:23284   */\n      swap2\n      swap1\n      pop\n      jump\t// out\n        /* \"#utility.yul\":23290:23559   */\n    tag_181:\n        /* \"#utility.yul\":23400:23439   */\n      tag_410\n        /* \"#utility.yul\":23431:23438   */\n      dup4\n        /* \"#utility.yul\":23400:23439   */\n      tag_179\n      jump\t// in\n    tag_410:\n        /* \"#utility.yul\":23461:23552   */\n      tag_411\n        /* \"#utility.yul\":23510:23551   */\n      tag_412\n        /* \"#utility.yul\":23534:23550   */\n      dup3\n        /* \"#utility.yul\":23510:23551   */\n      tag_180\n      jump\t// in\n    tag_412:\n        /* \"#utility.yul\":23502:23508   */\n      dup5\n        /* \"#utility.yul\":23495:23499   */\n      dup5\n        /* \"#utility.yul\":23489:23500   */\n      sload\n        /* \"#utility.yul\":23461:23552   */\n      tag_177\n      jump\t// in\n    tag_411:\n        /* \"#utility.yul\":23455:23459   */\n      dup3\n        /* \"#utility.yul\":23448:23553   */\n      sstore\n        /* \"#utility.yul\":23366:23559   */\n      pop\n        /* \"#utility.yul\":23290:23559   */\n      pop\n      pop\n      pop\n      jump\t// out\n        /* \"#utility.yul\":23565:23638   */\n    tag_182:\n        /* \"#utility.yul\":23610:23613   */\n      0x00\n        /* \"#utility.yul\":23565:23638   */\n      swap1\n      jump\t// out\n        /* \"#utility.yul\":23644:23833   */\n    tag_183:\n        /* \"#utility.yul\":23721:23753   */\n      tag_415\n      tag_182\n      jump\t// in\n    tag_415:\n        /* \"#utility.yul\":23762:23827   */\n      tag_416\n        /* \"#utility.yul\":23820:23826   */\n      dup2\n        /* \"#utility.yul\":23812:23818   */\n      dup5\n        /* \"#utility.yul\":23806:23810   */\n      dup5\n        /* \"#utility.yul\":23762:23827   */\n      tag_181\n      jump\t// in\n    tag_416:\n        /* \"#utility.yul\":23697:23833   */\n      pop\n        /* \"#utility.yul\":23644:23833   */\n      pop\n      pop\n      jump\t// out\n        /* \"#utility.yul\":23839:24025   */\n    tag_184:\n        /* \"#utility.yul\":23899:24019   */\n    tag_418:\n        /* \"#utility.yul\":23916:23919   */\n      dup2\n        /* \"#utility.yul\":23909:23914   */\n      dup2\n        /* \"#utility.yul\":23906:23920   */\n      lt\n        /* \"#utility.yul\":23899:24019   */\n      iszero\n      tag_420\n      jumpi\n        /* \"#utility.yul\":23970:24009   */\n      tag_421\n        /* \"#utility.yul\":24007:24008   */\n      0x00\n        /* \"#utility.yul\":24000:24005   */\n      dup3\n        /* \"#utility.yul\":23970:24009   */\n      tag_183\n      jump\t// in\n    tag_421:\n        /* \"#utility.yul\":23943:23944   */\n      0x01\n        /* \"#utility.yul\":23936:23941   */\n      dup2\n        /* \"#utility.yul\":23932:23945   */\n      add\n        /* \"#utility.yul\":23923:23945   */\n      swap1\n      pop\n        /* \"#utility.yul\":23899:24019   */\n      jump(tag_418)\n    tag_420:\n        /* \"#utility.yul\":23839:24025   */\n      pop\n      pop\n      jump\t// out\n        /* \"#utility.yul\":24031:24574   */\n    tag_185:\n        /* \"#utility.yul\":24132:24134   */\n      0x1f\n        /* \"#utility.yul\":24127:24130   */\n      dup3\n        /* \"#utility.yul\":24124:24135   */\n      gt\n        /* \"#utility.yul\":24121:24567   */\n      iszero\n      tag_423\n      jumpi\n        /* \"#utility.yul\":24166:24204   */\n      tag_424\n        /* \"#utility.yul\":24198:24203   */\n      dup2\n        /* \"#utility.yul\":24166:24204   */\n      tag_160\n      jump\t// in\n    tag_424:\n        /* \"#utility.yul\":24250:24279   */\n      tag_425\n        /* \"#utility.yul\":24268:24278   */\n      dup5\n        /* \"#utility.yul\":24250:24279   */\n      tag_175\n      jump\t// in\n    tag_425:\n        /* \"#utility.yul\":24240:24248   */\n      dup2\n        /* \"#utility.yul\":24236:24280   */\n      add\n        /* \"#utility.yul\":24433:24435   */\n      0x20\n        /* \"#utility.yul\":24421:24431   */\n      dup6\n        /* \"#utility.yul\":24418:24436   */\n      lt\n        /* \"#utility.yul\":24415:24464   */\n      iszero\n      tag_426\n      jumpi\n        /* \"#utility.yul\":24454:24462   */\n      dup2\n        /* \"#utility.yul\":24439:24462   */\n      swap1\n      pop\n        /* \"#utility.yul\":24415:24464   */\n    tag_426:\n        /* \"#utility.yul\":24477:24557   */\n      tag_427\n        /* \"#utility.yul\":24533:24555   */\n      tag_428\n        /* \"#utility.yul\":24551:24554   */\n      dup6\n        /* \"#utility.yul\":24533:24555   */\n      tag_175\n      jump\t// in\n    tag_428:\n        /* \"#utility.yul\":24523:24531   */\n      dup4\n        /* \"#utility.yul\":24519:24556   */\n      add\n        /* \"#utility.yul\":24506:24517   */\n      dup3\n        /* \"#utility.yul\":24477:24557   */\n      tag_184\n      jump\t// in\n    tag_427:\n        /* \"#utility.yul\":24136:24567   */\n      pop\n      pop\n        /* \"#utility.yul\":24121:24567   */\n    tag_423:\n        /* \"#utility.yul\":24031:24574   */\n      pop\n      pop\n      pop\n      jump\t// out\n        /* \"#utility.yul\":24580:24697   */\n    tag_186:\n        /* \"#utility.yul\":24634:24642   */\n      0x00\n        /* \"#utility.yul\":24684:24689   */\n      dup3\n        /* \"#utility.yul\":24678:24682   */\n      dup3\n        /* \"#utility.yul\":24674:24690   */\n      shr\n        /* \"#utility.yul\":24653:24690   */\n      swap1\n      pop\n        /* \"#utility.yul\":24580:24697   */\n      swap3\n      swap2\n      pop\n      pop\n      jump\t// out\n        /* \"#utility.yul\":24703:24872   */\n    tag_187:\n        /* \"#utility.yul\":24747:24753   */\n      0x00\n        /* \"#utility.yul\":24780:24831   */\n      tag_431\n        /* \"#utility.yul\":24828:24829   */\n      0x00\n        /* \"#utility.yul\":24824:24830   */\n      not\n        /* \"#utility.yul\":24816:24821   */\n      dup5\n        /* \"#utility.yul\":24813:24814   */\n      0x08\n        /* \"#utility.yul\":24809:24822   */\n      mul\n        /* \"#utility.yul\":24780:24831   */\n      tag_186\n      jump\t// in\n    tag_431:\n        /* \"#utility.yul\":24776:24832   */\n      not\n        /* \"#utility.yul\":24861:24865   */\n      dup1\n        /* \"#utility.yul\":24855:24859   */\n      dup4\n        /* \"#utility.yul\":24851:24866   */\n      and\n        /* \"#utility.yul\":24841:24866   */\n      swap2\n      pop\n        /* \"#utility.yul\":24754:24872   */\n      pop\n        /* \"#utility.yul\":24703:24872   */\n      swap3\n      swap2\n      pop\n      pop\n      jump\t// out\n        /* \"#utility.yul\":24877:25172   */\n    tag_188:\n        /* \"#utility.yul\":24953:24957   */\n      0x00\n        /* \"#utility.yul\":25099:25128   */\n      tag_433\n        /* \"#utility.yul\":25124:25127   */\n      dup4\n        /* \"#utility.yul\":25118:25122   */\n      dup4\n        /* \"#utility.yul\":25099:25128   */\n      tag_187\n      jump\t// in\n    tag_433:\n        /* \"#utility.yul\":25091:25128   */\n      swap2\n      pop\n        /* \"#utility.yul\":25161:25164   */\n      dup3\n        /* \"#utility.yul\":25158:25159   */\n      0x02\n        /* \"#utility.yul\":25154:25165   */\n      mul\n        /* \"#utility.yul\":25148:25152   */\n      dup3\n        /* \"#utility.yul\":25145:25166   */\n      or\n        /* \"#utility.yul\":25137:25166   */\n      swap1\n      pop\n        /* \"#utility.yul\":24877:25172   */\n      swap3\n      swap2\n      pop\n      pop\n      jump\t// out\n        /* \"#utility.yul\":25177:26572   */\n    tag_113:\n        /* \"#utility.yul\":25294:25331   */\n      tag_435\n        /* \"#utility.yul\":25327:25330   */\n      dup3\n        /* \"#utility.yul\":25294:25331   */\n      tag_129\n      jump\t// in\n    tag_435:\n        /* \"#utility.yul\":25396:25414   */\n      0xffffffffffffffff\n        /* \"#utility.yul\":25388:25394   */\n      dup2\n        /* \"#utility.yul\":25385:25415   */\n      gt\n        /* \"#utility.yul\":25382:25438   */\n      iszero\n      tag_436\n      jumpi\n        /* \"#utility.yul\":25418:25436   */\n      tag_437\n      tag_142\n      jump\t// in\n    tag_437:\n        /* \"#utility.yul\":25382:25438   */\n    tag_436:\n        /* \"#utility.yul\":25462:25500   */\n      tag_438\n        /* \"#utility.yul\":25494:25498   */\n      dup3\n        /* \"#utility.yul\":25488:25499   */\n      sload\n        /* \"#utility.yul\":25462:25500   */\n      tag_32\n      jump\t// in\n    tag_438:\n        /* \"#utility.yul\":25547:25614   */\n      tag_439\n        /* \"#utility.yul\":25607:25613   */\n      dup3\n        /* \"#utility.yul\":25599:25605   */\n      dup3\n        /* \"#utility.yul\":25593:25597   */\n      dup6\n        /* \"#utility.yul\":25547:25614   */\n      tag_185\n      jump\t// in\n    tag_439:\n        /* \"#utility.yul\":25641:25642   */\n      0x00\n        /* \"#utility.yul\":25665:25669   */\n      0x20\n        /* \"#utility.yul\":25652:25669   */\n      swap1\n      pop\n        /* \"#utility.yul\":25697:25699   */\n      0x1f\n        /* \"#utility.yul\":25689:25695   */\n      dup4\n        /* \"#utility.yul\":25686:25700   */\n      gt\n        /* \"#utility.yul\":25714:25715   */\n      0x01\n        /* \"#utility.yul\":25709:26327   */\n      dup2\n      eq\n      tag_441\n      jumpi\n        /* \"#utility.yul\":26371:26372   */\n      0x00\n        /* \"#utility.yul\":26388:26394   */\n      dup5\n        /* \"#utility.yul\":26385:26462   */\n      iszero\n      tag_442\n      jumpi\n        /* \"#utility.yul\":26437:26446   */\n      dup3\n        /* \"#utility.yul\":26432:26435   */\n      dup8\n        /* \"#utility.yul\":26428:26447   */\n      add\n        /* \"#utility.yul\":26422:26448   */\n      mload\n        /* \"#utility.yul\":26413:26448   */\n      swap1\n      pop\n        /* \"#utility.yul\":26385:26462   */\n    tag_442:\n        /* \"#utility.yul\":26488:26555   */\n      tag_443\n        /* \"#utility.yul\":26548:26554   */\n      dup6\n        /* \"#utility.yul\":26541:26546   */\n      dup3\n        /* \"#utility.yul\":26488:26555   */\n      tag_188\n      jump\t// in\n    tag_443:\n        /* \"#utility.yul\":26482:26486   */\n      dup7\n        /* \"#utility.yul\":26475:26556   */\n      sstore\n        /* \"#utility.yul\":26344:26566   */\n      pop\n        /* \"#utility.yul\":25679:26566   */\n      jump(tag_440)\n        /* \"#utility.yul\":25709:26327   */\n    tag_441:\n        /* \"#utility.yul\":25761:25765   */\n      0x1f\n        /* \"#utility.yul\":25757:25766   */\n      not\n        /* \"#utility.yul\":25749:25755   */\n      dup5\n        /* \"#utility.yul\":25745:25767   */\n      and\n        /* \"#utility.yul\":25795:25832   */\n      tag_444\n        /* \"#utility.yul\":25827:25831   */\n      dup7\n        /* \"#utility.yul\":25795:25832   */\n      tag_160\n      jump\t// in\n    tag_444:\n        /* \"#utility.yul\":25854:25855   */\n      0x00\n        /* \"#utility.yul\":25868:26076   */\n    tag_445:\n        /* \"#utility.yul\":25882:25889   */\n      dup3\n        /* \"#utility.yul\":25879:25880   */\n      dup2\n        /* \"#utility.yul\":25876:25890   */\n      lt\n        /* \"#utility.yul\":25868:26076   */\n      iszero\n      tag_447\n      jumpi\n        /* \"#utility.yul\":25961:25970   */\n      dup5\n        /* \"#utility.yul\":25956:25959   */\n      dup10\n        /* \"#utility.yul\":25952:25971   */\n      add\n        /* \"#utility.yul\":25946:25972   */\n      mload\n        /* \"#utility.yul\":25938:25944   */\n      dup3\n        /* \"#utility.yul\":25931:25973   */\n      sstore\n        /* \"#utility.yul\":26012:26013   */\n      0x01\n        /* \"#utility.yul\":26004:26010   */\n      dup3\n        /* \"#utility.yul\":26000:26014   */\n      add\n        /* \"#utility.yul\":25990:26014   */\n      swap2\n      pop\n        /* \"#utility.yul\":26059:26061   */\n      0x20\n        /* \"#utility.yul\":26048:26057   */\n      dup6\n        /* \"#utility.yul\":26044:26062   */\n      add\n        /* \"#utility.yul\":26031:26062   */\n      swap5\n      pop\n        /* \"#utility.yul\":25905:25909   */\n      0x20\n        /* \"#utility.yul\":25902:25903   */\n      dup2\n        /* \"#utility.yul\":25898:25910   */\n      add\n        /* \"#utility.yul\":25893:25910   */\n      swap1\n      pop\n        /* \"#utility.yul\":25868:26076   */\n      jump(tag_445)\n    tag_447:\n        /* \"#utility.yul\":26104:26110   */\n      dup7\n        /* \"#utility.yul\":26095:26102   */\n      dup4\n        /* \"#utility.yul\":26092:26111   */\n      lt\n        /* \"#utility.yul\":26089:26268   */\n      iszero\n      tag_448\n      jumpi\n        /* \"#utility.yul\":26162:26171   */\n      dup5\n        /* \"#utility.yul\":26157:26160   */\n      dup10\n        /* \"#utility.yul\":26153:26172   */\n      add\n        /* \"#utility.yul\":26147:26173   */\n      mload\n        /* \"#utility.yul\":26205:26253   */\n      tag_449\n        /* \"#utility.yul\":26247:26251   */\n      0x1f\n        /* \"#utility.yul\":26239:26245   */\n      dup10\n        /* \"#utility.yul\":26235:26252   */\n      and\n        /* \"#utility.yul\":26224:26233   */\n      dup3\n        /* \"#utility.yul\":26205:26253   */\n      tag_187\n      jump\t// in\n    tag_449:\n        /* \"#utility.yul\":26197:26203   */\n      dup4\n        /* \"#utility.yul\":26190:26254   */\n      sstore\n        /* \"#utility.yul\":26112:26268   */\n      pop\n        /* \"#utility.yul\":26089:26268   */\n    tag_448:\n        /* \"#utility.yul\":26314:26315   */\n      0x01\n        /* \"#utility.yul\":26310:26311   */\n      0x02\n        /* \"#utility.yul\":26302:26308   */\n      dup9\n        /* \"#utility.yul\":26298:26312   */\n      mul\n        /* \"#utility.yul\":26294:26316   */\n      add\n        /* \"#utility.yul\":26288:26292   */\n      dup9\n        /* \"#utility.yul\":26281:26317   */\n      sstore\n        /* \"#utility.yul\":25716:26327   */\n      pop\n      pop\n      pop\n        /* \"#utility.yul\":25679:26566   */\n    tag_440:\n      pop\n        /* \"#utility.yul\":25269:26572   */\n      pop\n      pop\n      pop\n        /* \"#utility.yul\":25177:26572   */\n      pop\n      pop\n      jump\t// out\n        /* \"#utility.yul\":26578:27222   */\n    tag_117:\n        /* \"#utility.yul\":26775:26779   */\n      0x00\n        /* \"#utility.yul\":26813:26816   */\n      0x80\n        /* \"#utility.yul\":26802:26811   */\n      dup3\n        /* \"#utility.yul\":26798:26817   */\n      add\n        /* \"#utility.yul\":26790:26817   */\n      swap1\n      pop\n        /* \"#utility.yul\":26827:26898   */\n      tag_451\n        /* \"#utility.yul\":26895:26896   */\n      0x00\n        /* \"#utility.yul\":26884:26893   */\n      dup4\n        /* \"#utility.yul\":26880:26897   */\n      add\n        /* \"#utility.yul\":26871:26877   */\n      dup8\n        /* \"#utility.yul\":26827:26898   */\n      tag_128\n      jump\t// in\n    tag_451:\n        /* \"#utility.yul\":26908:26980   */\n      tag_452\n        /* \"#utility.yul\":26976:26978   */\n      0x20\n        /* \"#utility.yul\":26965:26974   */\n      dup4\n        /* \"#utility.yul\":26961:26979   */\n      add\n        /* \"#utility.yul\":26952:26958   */\n      dup7\n        /* \"#utility.yul\":26908:26980   */\n      tag_134\n      jump\t// in\n    tag_452:\n        /* \"#utility.yul\":27027:27036   */\n      dup2\n        /* \"#utility.yul\":27021:27025   */\n      dup2\n        /* \"#utility.yul\":27017:27037   */\n      sub\n        /* \"#utility.yul\":27012:27014   */\n      0x40\n        /* \"#utility.yul\":27001:27010   */\n      dup4\n        /* \"#utility.yul\":26997:27015   */\n      add\n        /* \"#utility.yul\":26990:27038   */\n      mstore\n        /* \"#utility.yul\":27055:27133   */\n      tag_453\n        /* \"#utility.yul\":27128:27132   */\n      dup2\n        /* \"#utility.yul\":27119:27125   */\n      dup6\n        /* \"#utility.yul\":27055:27133   */\n      tag_133\n      jump\t// in\n    tag_453:\n        /* \"#utility.yul\":27047:27133   */\n      swap1\n      pop\n        /* \"#utility.yul\":27143:27215   */\n      tag_454\n        /* \"#utility.yul\":27211:27213   */\n      0x60\n        /* \"#utility.yul\":27200:27209   */\n      dup4\n        /* \"#utility.yul\":27196:27214   */\n      add\n        /* \"#utility.yul\":27187:27193   */\n      dup5\n        /* \"#utility.yul\":27143:27215   */\n      tag_128\n      jump\t// in\n    tag_454:\n        /* \"#utility.yul\":26578:27222   */\n      swap6\n      swap5\n      pop\n      pop\n      pop\n      pop\n      pop\n      jump\t// out\n\n    auxdata: 0xa2646970667358221220acfee6ff6ae651a7ee73dbf2842a31e3d56678f3129e3272a2949f44297762a864736f6c634300081a0033\n}\n",
				"bytecode": {
					"linkReferences": {},
					"object": "6080604052348015600e575f80fd5b50335f806101000a81548173ffffffffffffffffffffffffffffffffffffffff021916908373ffffffffffffffffffffffffffffffffffffffff1602179055506119bf8061005b5f395ff3fe60806040526004361061003e575f3560e01c806311555dbc146100425780635a3915cd14610084578063cedcf334146100a0578063ffa56a57146100dc575b5f80fd5b34801561004d575f80fd5b5061006860048036038101906100639190610cb0565b610104565b60405161007b9796959493929190610d96565b60405180910390f35b61009e60048036038101906100999190610e4c565b610293565b005b3480156100ab575f80fd5b506100c660048036038101906100c19190610fc8565b61078c565b6040516100d39190611022565b60405180910390f35b3480156100e7575f80fd5b5061010260048036038101906100fd919061103b565b6107ce565b005b6001602052815f5260405f20818154811061011d575f80fd5b905f5260205f2090600702015f9150915050805f015490806001018054610143906110f0565b80601f016020809104026020016040519081016040528092919081815260200182805461016f906110f0565b80156101ba5780601f10610191576101008083540402835291602001916101ba565b820191905f5260205f20905b81548152906001019060200180831161019d57829003601f168201915b5050505050908060020180546101cf906110f0565b80601f01602080910402602001604051908101604052809291908181526020018280546101fb906110f0565b80156102465780601f1061021d57610100808354040283529160200191610246565b820191905f5260205f20905b81548152906001019060200180831161022957829003601f168201915b505050505090806003015f9054906101000a900473ffffffffffffffffffffffffffffffffffffffff1690806004015490806005015490806006015f9054906101000a900460ff16905087565b8160015f8573ffffffffffffffffffffffffffffffffffffffff1673ffffffffffffffffffffffffffffffffffffffff1681526020019081526020015f206001846102de919061114d565b815481106102ef576102ee611180565b5b905f5260205f2090600702015f01541482604051602001610310919061126b565b60405160208183030381529060405290610360576040517f08c379a0000000000000000000000000000000000000000000000000000000008152600401610357919061129b565b60405180910390fd5b505f151560015f8573ffffffffffffffffffffffffffffffffffffffff1673ffffffffffffffffffffffffffffffffffffffff1681526020019081526020015f206001846103ae919061114d565b815481106103bf576103be611180565b5b905f5260205f2090600702016006015f9054906101000a900460ff1615151460015f8573ffffffffffffffffffffffffffffffffffffffff1673ffffffffffffffffffffffffffffffffffffffff1681526020019081526020015f20600184610428919061114d565b8154811061043957610438611180565b5b905f5260205f20906007020160010160405160200161045891906113e1565b604051602081830303815290604052906104a8576040517f08c379a000000000000000000000000000000000000000000000000000000000815260040161049f919061129b565b60405180910390fd5b505f81116104eb576040517f08c379a00000000000000000000000000000000000000000000000000000000081526004016104e290611457565b60405180910390fd5b80341461052d576040517f08c379a0000000000000000000000000000000000000000000000000000000008152600401610524906114bf565b60405180910390fd5b8273ffffffffffffffffffffffffffffffffffffffff166108fc8290811502906040515f60405180830381858888f19350505050158015610570573d5f803e3d5ffd5b508060015f8573ffffffffffffffffffffffffffffffffffffffff1673ffffffffffffffffffffffffffffffffffffffff1681526020019081526020015f206001846105bc919061114d565b815481106105cd576105cc611180565b5b905f5260205f2090600702016005015f8282546105ea91906114dd565b9250508190555060015f8473ffffffffffffffffffffffffffffffffffffffff1673ffffffffffffffffffffffffffffffffffffffff1681526020019081526020015f2060018361063b919061114d565b8154811061064c5761064b611180565b5b905f5260205f2090600702016004015460015f8573ffffffffffffffffffffffffffffffffffffffff1673ffffffffffffffffffffffffffffffffffffffff1681526020019081526020015f206001846106a6919061114d565b815481106106b7576106b6611180565b5b905f5260205f209060070201600501541061074e576001805f8573ffffffffffffffffffffffffffffffffffffffff1673ffffffffffffffffffffffffffffffffffffffff1681526020019081526020015f20600184610717919061114d565b8154811061072857610727611180565b5b905f5260205f2090600702016006015f6101000a81548160ff0219169083151502179055505b7f264f630d9efa0d07053a31163641d9fcc0adafc9d9e76f1c37c2ce3a558d2c52338260405161077f929190611510565b60405180910390a1505050565b6002602052815f5260405f20818051602081018201805184825260208301602085012081835280955050505050505f915091509054906101000a900460ff1681565b5f5b60015f3373ffffffffffffffffffffffffffffffffffffffff1673ffffffffffffffffffffffffffffffffffffffff1681526020019081526020015f208054905081101561093c575f60015f3373ffffffffffffffffffffffffffffffffffffffff1673ffffffffffffffffffffffffffffffffffffffff1681526020019081526020015f20828154811061086857610867611180565b5b905f5260205f20906007020160010190505f8560405160200161088b9190611567565b60405160208183030381529060405280519060200120826040516020016108b2919061160f565b60405160208183030381529060405280519060200120149050801561092d57856040516020016108e291906116b9565b6040516020818303038152906040526040517f08c379a0000000000000000000000000000000000000000000000000000000008152600401610924919061129b565b60405180910390fd5b505080806001019150506107d0565b505f6040518060e001604052806001805f3373ffffffffffffffffffffffffffffffffffffffff1673ffffffffffffffffffffffffffffffffffffffff1681526020019081526020015f208054905061099591906114dd565b81526020018581526020018481526020013373ffffffffffffffffffffffffffffffffffffffff1681526020018381526020015f81526020015f1515815250905060015f3373ffffffffffffffffffffffffffffffffffffffff1673ffffffffffffffffffffffffffffffffffffffff1681526020019081526020015f2081908060018154018082558091505060019003905f5260205f2090600702015f909190919091505f820151815f01556020820151816001019081610a579190611870565b506040820151816002019081610a6d9190611870565b506060820151816003015f6101000a81548173ffffffffffffffffffffffffffffffffffffffff021916908373ffffffffffffffffffffffffffffffffffffffff1602179055506080820151816004015560a0820151816005015560c0820151816006015f6101000a81548160ff0219169083151502179055505050600160025f3373ffffffffffffffffffffffffffffffffffffffff1673ffffffffffffffffffffffffffffffffffffffff1681526020019081526020015f206040518060400160405280600581526020017f41444d494e000000000000000000000000000000000000000000000000000000815250604051610b6b9190611567565b90815260200160405180910390205f6101000a81548160ff0219169083151502179055507f825fb10f7650ed27414d6f86acdf7d5946927d9b25001f045f1a2435deec02fe60015f3373ffffffffffffffffffffffffffffffffffffffff1673ffffffffffffffffffffffffffffffffffffffff1681526020019081526020015f2080549050338685604051610c04949392919061193f565b60405180910390a150505050565b5f604051905090565b5f80fd5b5f80fd5b5f73ffffffffffffffffffffffffffffffffffffffff82169050919050565b5f610c4c82610c23565b9050919050565b610c5c81610c42565b8114610c66575f80fd5b50565b5f81359050610c7781610c53565b92915050565b5f819050919050565b610c8f81610c7d565b8114610c99575f80fd5b50565b5f81359050610caa81610c86565b92915050565b5f8060408385031215610cc657610cc5610c1b565b5b5f610cd385828601610c69565b9250506020610ce485828601610c9c565b9150509250929050565b610cf781610c7d565b82525050565b5f81519050919050565b5f82825260208201905092915050565b8281835e5f83830152505050565b5f601f19601f8301169050919050565b5f610d3f82610cfd565b610d498185610d07565b9350610d59818560208601610d17565b610d6281610d25565b840191505092915050565b610d7681610c42565b82525050565b5f8115159050919050565b610d9081610d7c565b82525050565b5f60e082019050610da95f83018a610cee565b8181036020830152610dbb8189610d35565b90508181036040830152610dcf8188610d35565b9050610dde6060830187610d6d565b610deb6080830186610cee565b610df860a0830185610cee565b610e0560c0830184610d87565b98975050505050505050565b5f610e1b82610c23565b9050919050565b610e2b81610e11565b8114610e35575f80fd5b50565b5f81359050610e4681610e22565b92915050565b5f805f60608486031215610e6357610e62610c1b565b5b5f610e7086828701610e38565b9350506020610e8186828701610c9c565b9250506040610e9286828701610c9c565b9150509250925092565b5f80fd5b5f80fd5b7f4e487b71000000000000000000000000000000000000000000000000000000005f52604160045260245ffd5b610eda82610d25565b810181811067ffffffffffffffff82111715610ef957610ef8610ea4565b5b80604052505050565b5f610f0b610c12565b9050610f178282610ed1565b919050565b5f67ffffffffffffffff821115610f3657610f35610ea4565b5b610f3f82610d25565b9050602081019050919050565b828183375f83830152505050565b5f610f6c610f6784610f1c565b610f02565b905082815260208101848484011115610f8857610f87610ea0565b5b610f93848285610f4c565b509392505050565b5f82601f830112610faf57610fae610e9c565b5b8135610fbf848260208601610f5a565b91505092915050565b5f8060408385031215610fde57610fdd610c1b565b5b5f610feb85828601610c69565b925050602083013567ffffffffffffffff81111561100c5761100b610c1f565b5b61101885828601610f9b565b9150509250929050565b5f6020820190506110355f830184610d87565b92915050565b5f805f6060848603121561105257611051610c1b565b5b5f84013567ffffffffffffffff81111561106f5761106e610c1f565b5b61107b86828701610f9b565b935050602084013567ffffffffffffffff81111561109c5761109b610c1f565b5b6110a886828701610f9b565b92505060406110b986828701610c9c565b9150509250925092565b7f4e487b71000000000000000000000000000000000000000000000000000000005f52602260045260245ffd5b5f600282049050600182168061110757607f821691505b60208210810361111a576111196110c3565b5b50919050565b7f4e487b71000000000000000000000000000000000000000000000000000000005f52601160045260245ffd5b5f61115782610c7d565b915061116283610c7d565b925082820390508181111561117a57611179611120565b5b92915050565b7f4e487b71000000000000000000000000000000000000000000000000000000005f52603260045260245ffd5b5f81905092915050565b7f5468652043616d706169676e20000000000000000000000000000000000000005f82015250565b5f6111eb600d836111ad565b91506111f6826111b7565b600d82019050919050565b5f819050919050565b61121b61121682610c7d565b611201565b82525050565b7f20446f6573204e4f5420457869737421000000000000000000000000000000005f82015250565b5f6112556010836111ad565b915061126082611221565b601082019050919050565b5f611275826111df565b9150611281828461120a565b60208201915061129082611249565b915081905092915050565b5f6020820190508181035f8301526112b38184610d35565b905092915050565b7f27000000000000000000000000000000000000000000000000000000000000005f82015250565b5f6112ef6001836111ad565b91506112fa826112bb565b600182019050919050565b5f819050815f5260205f209050919050565b5f8154611323816110f0565b61132d81866111ad565b9450600182165f8114611347576001811461135c5761138e565b60ff198316865281151582028601935061138e565b61136585611305565b5f5b8381101561138657815481890152600182019150602081019050611367565b838801955050505b50505092915050565b7f272043616d706169676e2057617320436f6d706c6574656421000000000000005f82015250565b5f6113cb6019836111ad565b91506113d682611397565b601982019050919050565b5f6113eb826112e3565b91506113f78284611317565b9150611402826113bf565b915081905092915050565b7f416d6f756e742043616e6e6f74206265205a65726f00000000000000000000005f82015250565b5f611441601583610d07565b915061144c8261140d565b602082019050919050565b5f6020820190508181035f83015261146e81611435565b9050919050565b7f54686520416d6f756e7420646f65736e2774204d6174636821000000000000005f82015250565b5f6114a9601983610d07565b91506114b482611475565b602082019050919050565b5f6020820190508181035f8301526114d68161149d565b9050919050565b5f6114e782610c7d565b91506114f283610c7d565b925082820190508082111561150a57611509611120565b5b92915050565b5f6040820190506115235f830185610d6d565b6115306020830184610cee565b9392505050565b5f61154182610cfd565b61154b81856111ad565b935061155b818560208601610d17565b80840191505092915050565b5f6115728284611537565b915081905092915050565b5f819050815f5260205f209050919050565b5f815461159b816110f0565b6115a581866111ad565b9450600182165f81146115bf57600181146115d457611606565b60ff1983168652811515820286019350611606565b6115dd8561157d565b5f5b838110156115fe578154818901526001820191506020810190506115df565b838801955050505b50505092915050565b5f61161a828461158f565b915081905092915050565b7f43616d706169676e2000000000000000000000000000000000000000000000005f82015250565b5f6116596009836111ad565b915061166482611625565b600982019050919050565b7f20616c72656164792065786973747321000000000000000000000000000000005f82015250565b5f6116a36010836111ad565b91506116ae8261166f565b601082019050919050565b5f6116c38261164d565b91506116cf8284611537565b91506116da82611697565b915081905092915050565b5f6020601f8301049050919050565b5f82821b905092915050565b5f6008830261172f7fffffffffffffffffffffffffffffffffffffffffffffffffffffffffffffffff826116f4565b61173986836116f4565b95508019841693508086168417925050509392505050565b5f819050919050565b5f61177461176f61176a84610c7d565b611751565b610c7d565b9050919050565b5f819050919050565b61178d8361175a565b6117a16117998261177b565b848454611700565b825550505050565b5f90565b6117b56117a9565b6117c0818484611784565b505050565b5b818110156117e3576117d85f826117ad565b6001810190506117c6565b5050565b601f821115611828576117f981611305565b611802846116e5565b81016020851015611811578190505b61182561181d856116e5565b8301826117c5565b50505b505050565b5f82821c905092915050565b5f6118485f198460080261182d565b1980831691505092915050565b5f6118608383611839565b9150826002028217905092915050565b61187982610cfd565b67ffffffffffffffff81111561189257611891610ea4565b5b61189c82546110f0565b6118a78282856117e7565b5f60209050601f8311600181146118d8575f84156118c6578287015190505b6118d08582611855565b865550611937565b601f1984166118e686611305565b5f5b8281101561190d578489015182556001820191506020850194506020810190506118e8565b8683101561192a5784890151611926601f891682611839565b8355505b6001600288020188555050505b505050505050565b5f6080820190506119525f830187610cee565b61195f6020830186610d6d565b81810360408301526119718185610d35565b90506119806060830184610cee565b9594505050505056fea2646970667358221220acfee6ff6ae651a7ee73dbf2842a31e3d56678f3129e3272a2949f44297762a864736f6c634300081a0033",
					"opcodes": "PUSH1 0x80 PUSH1 0x40 MSTORE CALLVALUE DUP1 ISZERO PUSH1 0xE JUMPI PUSH0 DUP1 REVERT JUMPDEST POP CALLER PUSH0 DUP1 PUSH2 0x100 EXP DUP2 SLOAD DUP2 PUSH20 0xFFFFFFFFFFFFFFFFFFFFFFFFFFFFFFFFFFFFFFFF MUL NOT AND SWAP1 DUP4 PUSH20 0xFFFFFFFFFFFFFFFFFFFFFFFFFFFFFFFFFFFFFFFF AND MUL OR SWAP1 SSTORE POP PUSH2 0x19BF DUP1 PUSH2 0x5B PUSH0 CODECOPY PUSH0 RETURN INVALID PUSH1 0x80 PUSH1 0x40 MSTORE PUSH1 0x4 CALLDATASIZE LT PUSH2 0x3E JUMPI PUSH0 CALLDATALOAD PUSH1 0xE0 SHR DUP1 PUSH4 0x11555DBC EQ PUSH2 0x42 JUMPI DUP1 PUSH4 0x5A3915CD EQ PUSH2 0x84 JUMPI DUP1 PUSH4 0xCEDCF334 EQ PUSH2 0xA0 JUMPI DUP1 PUSH4 0xFFA56A57 EQ PUSH2 0xDC JUMPI JUMPDEST PUSH0 DUP1 REVERT JUMPDEST CALLVALUE DUP1 ISZERO PUSH2 0x4D JUMPI PUSH0 DUP1 REVERT JUMPDEST POP PUSH2 0x68 PUSH1 0x4 DUP1 CALLDATASIZE SUB DUP2 ADD SWAP1 PUSH2 0x63 SWAP2 SWAP1 PUSH2 0xCB0 JUMP JUMPDEST PUSH2 0x104 JUMP JUMPDEST PUSH1 0x40 MLOAD PUSH2 0x7B SWAP8 SWAP7 SWAP6 SWAP5 SWAP4 SWAP3 SWAP2 SWAP1 PUSH2 0xD96 JUMP JUMPDEST PUSH1 0x40 MLOAD DUP1 SWAP2 SUB SWAP1 RETURN JUMPDEST PUSH2 0x9E PUSH1 0x4 DUP1 CALLDATASIZE SUB DUP2 ADD SWAP1 PUSH2 0x99 SWAP2 SWAP1 PUSH2 0xE4C JUMP JUMPDEST PUSH2 0x293 JUMP JUMPDEST STOP JUMPDEST CALLVALUE DUP1 ISZERO PUSH2 0xAB JUMPI PUSH0 DUP1 REVERT JUMPDEST POP PUSH2 0xC6 PUSH1 0x4 DUP1 CALLDATASIZE SUB DUP2 ADD SWAP1 PUSH2 0xC1 SWAP2 SWAP1 PUSH2 0xFC8 JUMP JUMPDEST PUSH2 0x78C JUMP JUMPDEST PUSH1 0x40 MLOAD PUSH2 0xD3 SWAP2 SWAP1 PUSH2 0x1022 JUMP JUMPDEST PUSH1 0x40 MLOAD DUP1 SWAP2 SUB SWAP1 RETURN JUMPDEST CALLVALUE DUP1 ISZERO PUSH2 0xE7 JUMPI PUSH0 DUP1 REVERT JUMPDEST POP PUSH2 0x102 PUSH1 0x4 DUP1 CALLDATASIZE SUB DUP2 ADD SWAP1 PUSH2 0xFD SWAP2 SWAP1 PUSH2 0x103B JUMP JUMPDEST PUSH2 0x7CE JUMP JUMPDEST STOP JUMPDEST PUSH1 0x1 PUSH1 0x20 MSTORE DUP2 PUSH0 MSTORE PUSH1 0x40 PUSH0 KECCAK256 DUP2 DUP2 SLOAD DUP2 LT PUSH2 0x11D JUMPI PUSH0 DUP1 REVERT JUMPDEST SWAP1 PUSH0 MSTORE PUSH1 0x20 PUSH0 KECCAK256 SWAP1 PUSH1 0x7 MUL ADD PUSH0 SWAP2 POP SWAP2 POP POP DUP1 PUSH0 ADD SLOAD SWAP1 DUP1 PUSH1 0x1 ADD DUP1 SLOAD PUSH2 0x143 SWAP1 PUSH2 0x10F0 JUMP JUMPDEST DUP1 PUSH1 0x1F ADD PUSH1 0x20 DUP1 SWAP2 DIV MUL PUSH1 0x20 ADD PUSH1 0x40 MLOAD SWAP1 DUP2 ADD PUSH1 0x40 MSTORE DUP1 SWAP3 SWAP2 SWAP1 DUP2 DUP2 MSTORE PUSH1 0x20 ADD DUP3 DUP1 SLOAD PUSH2 0x16F SWAP1 PUSH2 0x10F0 JUMP JUMPDEST DUP1 ISZERO PUSH2 0x1BA JUMPI DUP1 PUSH1 0x1F LT PUSH2 0x191 JUMPI PUSH2 0x100 DUP1 DUP4 SLOAD DIV MUL DUP4 MSTORE SWAP2 PUSH1 0x20 ADD SWAP2 PUSH2 0x1BA JUMP JUMPDEST DUP3 ADD SWAP2 SWAP1 PUSH0 MSTORE PUSH1 0x20 PUSH0 KECCAK256 SWAP1 JUMPDEST DUP2 SLOAD DUP2 MSTORE SWAP1 PUSH1 0x1 ADD SWAP1 PUSH1 0x20 ADD DUP1 DUP4 GT PUSH2 0x19D JUMPI DUP3 SWAP1 SUB PUSH1 0x1F AND DUP3 ADD SWAP2 JUMPDEST POP POP POP POP POP SWAP1 DUP1 PUSH1 0x2 ADD DUP1 SLOAD PUSH2 0x1CF SWAP1 PUSH2 0x10F0 JUMP JUMPDEST DUP1 PUSH1 0x1F ADD PUSH1 0x20 DUP1 SWAP2 DIV MUL PUSH1 0x20 ADD PUSH1 0x40 MLOAD SWAP1 DUP2 ADD PUSH1 0x40 MSTORE DUP1 SWAP3 SWAP2 SWAP1 DUP2 DUP2 MSTORE PUSH1 0x20 ADD DUP3 DUP1 SLOAD PUSH2 0x1FB SWAP1 PUSH2 0x10F0 JUMP JUMPDEST DUP1 ISZERO PUSH2 0x246 JUMPI DUP1 PUSH1 0x1F LT PUSH2 0x21D JUMPI PUSH2 0x100 DUP1 DUP4 SLOAD DIV MUL DUP4 MSTORE SWAP2 PUSH1 0x20 ADD SWAP2 PUSH2 0x246 JUMP JUMPDEST DUP3 ADD SWAP2 SWAP1 PUSH0 MSTORE PUSH1 0x20 PUSH0 KECCAK256 SWAP1 JUMPDEST DUP2 SLOAD DUP2 MSTORE SWAP1 PUSH1 0x1 ADD SWAP1 PUSH1 0x20 ADD DUP1 DUP4 GT PUSH2 0x229 JUMPI DUP3 SWAP1 SUB PUSH1 0x1F AND DUP3 ADD SWAP2 JUMPDEST POP POP POP POP POP SWAP1 DUP1 PUSH1 0x3 ADD PUSH0 SWAP1 SLOAD SWAP1 PUSH2 0x100 EXP SWAP1 DIV PUSH20 0xFFFFFFFFFFFFFFFFFFFFFFFFFFFFFFFFFFFFFFFF AND SWAP1 DUP1 PUSH1 0x4 ADD SLOAD SWAP1 DUP1 PUSH1 0x5 ADD SLOAD SWAP1 DUP1 PUSH1 0x6 ADD PUSH0 SWAP1 SLOAD SWAP1 PUSH2 0x100 EXP SWAP1 DIV PUSH1 0xFF AND SWAP1 POP DUP8 JUMP JUMPDEST DUP2 PUSH1 0x1 PUSH0 DUP6 PUSH20 0xFFFFFFFFFFFFFFFFFFFFFFFFFFFFFFFFFFFFFFFF AND PUSH20 0xFFFFFFFFFFFFFFFFFFFFFFFFFFFFFFFFFFFFFFFF AND DUP2 MSTORE PUSH1 0x20 ADD SWAP1 DUP2 MSTORE PUSH1 0x20 ADD PUSH0 KECCAK256 PUSH1 0x1 DUP5 PUSH2 0x2DE SWAP2 SWAP1 PUSH2 0x114D JUMP JUMPDEST DUP2 SLOAD DUP2 LT PUSH2 0x2EF JUMPI PUSH2 0x2EE PUSH2 0x1180 JUMP JUMPDEST JUMPDEST SWAP1 PUSH0 MSTORE PUSH1 0x20 PUSH0 KECCAK256 SWAP1 PUSH1 0x7 MUL ADD PUSH0 ADD SLOAD EQ DUP3 PUSH1 0x40 MLOAD PUSH1 0x20 ADD PUSH2 0x310 SWAP2 SWAP1 PUSH2 0x126B JUMP JUMPDEST PUSH1 0x40 MLOAD PUSH1 0x20 DUP2 DUP4 SUB SUB DUP2 MSTORE SWAP1 PUSH1 0x40 MSTORE SWAP1 PUSH2 0x360 JUMPI PUSH1 0x40 MLOAD PUSH32 0x8C379A000000000000000000000000000000000000000000000000000000000 DUP2 MSTORE PUSH1 0x4 ADD PUSH2 0x357 SWAP2 SWAP1 PUSH2 0x129B JUMP JUMPDEST PUSH1 0x40 MLOAD DUP1 SWAP2 SUB SWAP1 REVERT JUMPDEST POP PUSH0 ISZERO ISZERO PUSH1 0x1 PUSH0 DUP6 PUSH20 0xFFFFFFFFFFFFFFFFFFFFFFFFFFFFFFFFFFFFFFFF AND PUSH20 0xFFFFFFFFFFFFFFFFFFFFFFFFFFFFFFFFFFFFFFFF AND DUP2 MSTORE PUSH1 0x20 ADD SWAP1 DUP2 MSTORE PUSH1 0x20 ADD PUSH0 KECCAK256 PUSH1 0x1 DUP5 PUSH2 0x3AE SWAP2 SWAP1 PUSH2 0x114D JUMP JUMPDEST DUP2 SLOAD DUP2 LT PUSH2 0x3BF JUMPI PUSH2 0x3BE PUSH2 0x1180 JUMP JUMPDEST JUMPDEST SWAP1 PUSH0 MSTORE PUSH1 0x20 PUSH0 KECCAK256 SWAP1 PUSH1 0x7 MUL ADD PUSH1 0x6 ADD PUSH0 SWAP1 SLOAD SWAP1 PUSH2 0x100 EXP SWAP1 DIV PUSH1 0xFF AND ISZERO ISZERO EQ PUSH1 0x1 PUSH0 DUP6 PUSH20 0xFFFFFFFFFFFFFFFFFFFFFFFFFFFFFFFFFFFFFFFF AND PUSH20 0xFFFFFFFFFFFFFFFFFFFFFFFFFFFFFFFFFFFFFFFF AND DUP2 MSTORE PUSH1 0x20 ADD SWAP1 DUP2 MSTORE PUSH1 0x20 ADD PUSH0 KECCAK256 PUSH1 0x1 DUP5 PUSH2 0x428 SWAP2 SWAP1 PUSH2 0x114D JUMP JUMPDEST DUP2 SLOAD DUP2 LT PUSH2 0x439 JUMPI PUSH2 0x438 PUSH2 0x1180 JUMP JUMPDEST JUMPDEST SWAP1 PUSH0 MSTORE PUSH1 0x20 PUSH0 KECCAK256 SWAP1 PUSH1 0x7 MUL ADD PUSH1 0x1 ADD PUSH1 0x40 MLOAD PUSH1 0x20 ADD PUSH2 0x458 SWAP2 SWAP1 PUSH2 0x13E1 JUMP JUMPDEST PUSH1 0x40 MLOAD PUSH1 0x20 DUP2 DUP4 SUB SUB DUP2 MSTORE SWAP1 PUSH1 0x40 MSTORE SWAP1 PUSH2 0x4A8 JUMPI PUSH1 0x40 MLOAD PUSH32 0x8C379A000000000000000000000000000000000000000000000000000000000 DUP2 MSTORE PUSH1 0x4 ADD PUSH2 0x49F SWAP2 SWAP1 PUSH2 0x129B JUMP JUMPDEST PUSH1 0x40 MLOAD DUP1 SWAP2 SUB SWAP1 REVERT JUMPDEST POP PUSH0 DUP2 GT PUSH2 0x4EB JUMPI PUSH1 0x40 MLOAD PUSH32 0x8C379A000000000000000000000000000000000000000000000000000000000 DUP2 MSTORE PUSH1 0x4 ADD PUSH2 0x4E2 SWAP1 PUSH2 0x1457 JUMP JUMPDEST PUSH1 0x40 MLOAD DUP1 SWAP2 SUB SWAP1 REVERT JUMPDEST DUP1 CALLVALUE EQ PUSH2 0x52D JUMPI PUSH1 0x40 MLOAD PUSH32 0x8C379A000000000000000000000000000000000000000000000000000000000 DUP2 MSTORE PUSH1 0x4 ADD PUSH2 0x524 SWAP1 PUSH2 0x14BF JUMP JUMPDEST PUSH1 0x40 MLOAD DUP1 SWAP2 SUB SWAP1 REVERT JUMPDEST DUP3 PUSH20 0xFFFFFFFFFFFFFFFFFFFFFFFFFFFFFFFFFFFFFFFF AND PUSH2 0x8FC DUP3 SWAP1 DUP2 ISZERO MUL SWAP1 PUSH1 0x40 MLOAD PUSH0 PUSH1 0x40 MLOAD DUP1 DUP4 SUB DUP2 DUP6 DUP9 DUP9 CALL SWAP4 POP POP POP POP ISZERO DUP1 ISZERO PUSH2 0x570 JUMPI RETURNDATASIZE PUSH0 DUP1 RETURNDATACOPY RETURNDATASIZE PUSH0 REVERT JUMPDEST POP DUP1 PUSH1 0x1 PUSH0 DUP6 PUSH20 0xFFFFFFFFFFFFFFFFFFFFFFFFFFFFFFFFFFFFFFFF AND PUSH20 0xFFFFFFFFFFFFFFFFFFFFFFFFFFFFFFFFFFFFFFFF AND DUP2 MSTORE PUSH1 0x20 ADD SWAP1 DUP2 MSTORE PUSH1 0x20 ADD PUSH0 KECCAK256 PUSH1 0x1 DUP5 PUSH2 0x5BC SWAP2 SWAP1 PUSH2 0x114D JUMP JUMPDEST DUP2 SLOAD DUP2 LT PUSH2 0x5CD JUMPI PUSH2 0x5CC PUSH2 0x1180 JUMP JUMPDEST JUMPDEST SWAP1 PUSH0 MSTORE PUSH1 0x20 PUSH0 KECCAK256 SWAP1 PUSH1 0x7 MUL ADD PUSH1 0x5 ADD PUSH0 DUP3 DUP3 SLOAD PUSH2 0x5EA SWAP2 SWAP1 PUSH2 0x14DD JUMP JUMPDEST SWAP3 POP POP DUP2 SWAP1 SSTORE POP PUSH1 0x1 PUSH0 DUP5 PUSH20 0xFFFFFFFFFFFFFFFFFFFFFFFFFFFFFFFFFFFFFFFF AND PUSH20 0xFFFFFFFFFFFFFFFFFFFFFFFFFFFFFFFFFFFFFFFF AND DUP2 MSTORE PUSH1 0x20 ADD SWAP1 DUP2 MSTORE PUSH1 0x20 ADD PUSH0 KECCAK256 PUSH1 0x1 DUP4 PUSH2 0x63B SWAP2 SWAP1 PUSH2 0x114D JUMP JUMPDEST DUP2 SLOAD DUP2 LT PUSH2 0x64C JUMPI PUSH2 0x64B PUSH2 0x1180 JUMP JUMPDEST JUMPDEST SWAP1 PUSH0 MSTORE PUSH1 0x20 PUSH0 KECCAK256 SWAP1 PUSH1 0x7 MUL ADD PUSH1 0x4 ADD SLOAD PUSH1 0x1 PUSH0 DUP6 PUSH20 0xFFFFFFFFFFFFFFFFFFFFFFFFFFFFFFFFFFFFFFFF AND PUSH20 0xFFFFFFFFFFFFFFFFFFFFFFFFFFFFFFFFFFFFFFFF AND DUP2 MSTORE PUSH1 0x20 ADD SWAP1 DUP2 MSTORE PUSH1 0x20 ADD PUSH0 KECCAK256 PUSH1 0x1 DUP5 PUSH2 0x6A6 SWAP2 SWAP1 PUSH2 0x114D JUMP JUMPDEST DUP2 SLOAD DUP2 LT PUSH2 0x6B7 JUMPI PUSH2 0x6B6 PUSH2 0x1180 JUMP JUMPDEST JUMPDEST SWAP1 PUSH0 MSTORE PUSH1 0x20 PUSH0 KECCAK256 SWAP1 PUSH1 0x7 MUL ADD PUSH1 0x5 ADD SLOAD LT PUSH2 0x74E JUMPI PUSH1 0x1 DUP1 PUSH0 DUP6 PUSH20 0xFFFFFFFFFFFFFFFFFFFFFFFFFFFFFFFFFFFFFFFF AND PUSH20 0xFFFFFFFFFFFFFFFFFFFFFFFFFFFFFFFFFFFFFFFF AND DUP2 MSTORE PUSH1 0x20 ADD SWAP1 DUP2 MSTORE PUSH1 0x20 ADD PUSH0 KECCAK256 PUSH1 0x1 DUP5 PUSH2 0x717 SWAP2 SWAP1 PUSH2 0x114D JUMP JUMPDEST DUP2 SLOAD DUP2 LT PUSH2 0x728 JUMPI PUSH2 0x727 PUSH2 0x1180 JUMP JUMPDEST JUMPDEST SWAP1 PUSH0 MSTORE PUSH1 0x20 PUSH0 KECCAK256 SWAP1 PUSH1 0x7 MUL ADD PUSH1 0x6 ADD PUSH0 PUSH2 0x100 EXP DUP2 SLOAD DUP2 PUSH1 0xFF MUL NOT AND SWAP1 DUP4 ISZERO ISZERO MUL OR SWAP1 SSTORE POP JUMPDEST PUSH32 0x264F630D9EFA0D07053A31163641D9FCC0ADAFC9D9E76F1C37C2CE3A558D2C52 CALLER DUP3 PUSH1 0x40 MLOAD PUSH2 0x77F SWAP3 SWAP2 SWAP1 PUSH2 0x1510 JUMP JUMPDEST PUSH1 0x40 MLOAD DUP1 SWAP2 SUB SWAP1 LOG1 POP POP POP JUMP JUMPDEST PUSH1 0x2 PUSH1 0x20 MSTORE DUP2 PUSH0 MSTORE PUSH1 0x40 PUSH0 KECCAK256 DUP2 DUP1 MLOAD PUSH1 0x20 DUP2 ADD DUP3 ADD DUP1 MLOAD DUP5 DUP3 MSTORE PUSH1 0x20 DUP4 ADD PUSH1 0x20 DUP6 ADD KECCAK256 DUP2 DUP4 MSTORE DUP1 SWAP6 POP POP POP POP POP POP PUSH0 SWAP2 POP SWAP2 POP SWAP1 SLOAD SWAP1 PUSH2 0x100 EXP SWAP1 DIV PUSH1 0xFF AND DUP2 JUMP JUMPDEST PUSH0 JUMPDEST PUSH1 0x1 PUSH0 CALLER PUSH20 0xFFFFFFFFFFFFFFFFFFFFFFFFFFFFFFFFFFFFFFFF AND PUSH20 0xFFFFFFFFFFFFFFFFFFFFFFFFFFFFFFFFFFFFFFFF AND DUP2 MSTORE PUSH1 0x20 ADD SWAP1 DUP2 MSTORE PUSH1 0x20 ADD PUSH0 KECCAK256 DUP1 SLOAD SWAP1 POP DUP2 LT ISZERO PUSH2 0x93C JUMPI PUSH0 PUSH1 0x1 PUSH0 CALLER PUSH20 0xFFFFFFFFFFFFFFFFFFFFFFFFFFFFFFFFFFFFFFFF AND PUSH20 0xFFFFFFFFFFFFFFFFFFFFFFFFFFFFFFFFFFFFFFFF AND DUP2 MSTORE PUSH1 0x20 ADD SWAP1 DUP2 MSTORE PUSH1 0x20 ADD PUSH0 KECCAK256 DUP3 DUP2 SLOAD DUP2 LT PUSH2 0x868 JUMPI PUSH2 0x867 PUSH2 0x1180 JUMP JUMPDEST JUMPDEST SWAP1 PUSH0 MSTORE PUSH1 0x20 PUSH0 KECCAK256 SWAP1 PUSH1 0x7 MUL ADD PUSH1 0x1 ADD SWAP1 POP PUSH0 DUP6 PUSH1 0x40 MLOAD PUSH1 0x20 ADD PUSH2 0x88B SWAP2 SWAP1 PUSH2 0x1567 JUMP JUMPDEST PUSH1 0x40 MLOAD PUSH1 0x20 DUP2 DUP4 SUB SUB DUP2 MSTORE SWAP1 PUSH1 0x40 MSTORE DUP1 MLOAD SWAP1 PUSH1 0x20 ADD KECCAK256 DUP3 PUSH1 0x40 MLOAD PUSH1 0x20 ADD PUSH2 0x8B2 SWAP2 SWAP1 PUSH2 0x160F JUMP JUMPDEST PUSH1 0x40 MLOAD PUSH1 0x20 DUP2 DUP4 SUB SUB DUP2 MSTORE SWAP1 PUSH1 0x40 MSTORE DUP1 MLOAD SWAP1 PUSH1 0x20 ADD KECCAK256 EQ SWAP1 POP DUP1 ISZERO PUSH2 0x92D JUMPI DUP6 PUSH1 0x40 MLOAD PUSH1 0x20 ADD PUSH2 0x8E2 SWAP2 SWAP1 PUSH2 0x16B9 JUMP JUMPDEST PUSH1 0x40 MLOAD PUSH1 0x20 DUP2 DUP4 SUB SUB DUP2 MSTORE SWAP1 PUSH1 0x40 MSTORE PUSH1 0x40 MLOAD PUSH32 0x8C379A000000000000000000000000000000000000000000000000000000000 DUP2 MSTORE PUSH1 0x4 ADD PUSH2 0x924 SWAP2 SWAP1 PUSH2 0x129B JUMP JUMPDEST PUSH1 0x40 MLOAD DUP1 SWAP2 SUB SWAP1 REVERT JUMPDEST POP POP DUP1 DUP1 PUSH1 0x1 ADD SWAP2 POP POP PUSH2 0x7D0 JUMP JUMPDEST POP PUSH0 PUSH1 0x40 MLOAD DUP1 PUSH1 0xE0 ADD PUSH1 0x40 MSTORE DUP1 PUSH1 0x1 DUP1 PUSH0 CALLER PUSH20 0xFFFFFFFFFFFFFFFFFFFFFFFFFFFFFFFFFFFFFFFF AND PUSH20 0xFFFFFFFFFFFFFFFFFFFFFFFFFFFFFFFFFFFFFFFF AND DUP2 MSTORE PUSH1 0x20 ADD SWAP1 DUP2 MSTORE PUSH1 0x20 ADD PUSH0 KECCAK256 DUP1 SLOAD SWAP1 POP PUSH2 0x995 SWAP2 SWAP1 PUSH2 0x14DD JUMP JUMPDEST DUP2 MSTORE PUSH1 0x20 ADD DUP6 DUP2 MSTORE PUSH1 0x20 ADD DUP5 DUP2 MSTORE PUSH1 0x20 ADD CALLER PUSH20 0xFFFFFFFFFFFFFFFFFFFFFFFFFFFFFFFFFFFFFFFF AND DUP2 MSTORE PUSH1 0x20 ADD DUP4 DUP2 MSTORE PUSH1 0x20 ADD PUSH0 DUP2 MSTORE PUSH1 0x20 ADD PUSH0 ISZERO ISZERO DUP2 MSTORE POP SWAP1 POP PUSH1 0x1 PUSH0 CALLER PUSH20 0xFFFFFFFFFFFFFFFFFFFFFFFFFFFFFFFFFFFFFFFF AND PUSH20 0xFFFFFFFFFFFFFFFFFFFFFFFFFFFFFFFFFFFFFFFF AND DUP2 MSTORE PUSH1 0x20 ADD SWAP1 DUP2 MSTORE PUSH1 0x20 ADD PUSH0 KECCAK256 DUP2 SWAP1 DUP1 PUSH1 0x1 DUP2 SLOAD ADD DUP1 DUP3 SSTORE DUP1 SWAP2 POP POP PUSH1 0x1 SWAP1 SUB SWAP1 PUSH0 MSTORE PUSH1 0x20 PUSH0 KECCAK256 SWAP1 PUSH1 0x7 MUL ADD PUSH0 SWAP1 SWAP2 SWAP1 SWAP2 SWAP1 SWAP2 POP PUSH0 DUP3 ADD MLOAD DUP2 PUSH0 ADD SSTORE PUSH1 0x20 DUP3 ADD MLOAD DUP2 PUSH1 0x1 ADD SWAP1 DUP2 PUSH2 0xA57 SWAP2 SWAP1 PUSH2 0x1870 JUMP JUMPDEST POP PUSH1 0x40 DUP3 ADD MLOAD DUP2 PUSH1 0x2 ADD SWAP1 DUP2 PUSH2 0xA6D SWAP2 SWAP1 PUSH2 0x1870 JUMP JUMPDEST POP PUSH1 0x60 DUP3 ADD MLOAD DUP2 PUSH1 0x3 ADD PUSH0 PUSH2 0x100 EXP DUP2 SLOAD DUP2 PUSH20 0xFFFFFFFFFFFFFFFFFFFFFFFFFFFFFFFFFFFFFFFF MUL NOT AND SWAP1 DUP4 PUSH20 0xFFFFFFFFFFFFFFFFFFFFFFFFFFFFFFFFFFFFFFFF AND MUL OR SWAP1 SSTORE POP PUSH1 0x80 DUP3 ADD MLOAD DUP2 PUSH1 0x4 ADD SSTORE PUSH1 0xA0 DUP3 ADD MLOAD DUP2 PUSH1 0x5 ADD SSTORE PUSH1 0xC0 DUP3 ADD MLOAD DUP2 PUSH1 0x6 ADD PUSH0 PUSH2 0x100 EXP DUP2 SLOAD DUP2 PUSH1 0xFF MUL NOT AND SWAP1 DUP4 ISZERO ISZERO MUL OR SWAP1 SSTORE POP POP POP PUSH1 0x1 PUSH1 0x2 PUSH0 CALLER PUSH20 0xFFFFFFFFFFFFFFFFFFFFFFFFFFFFFFFFFFFFFFFF AND PUSH20 0xFFFFFFFFFFFFFFFFFFFFFFFFFFFFFFFFFFFFFFFF AND DUP2 MSTORE PUSH1 0x20 ADD SWAP1 DUP2 MSTORE PUSH1 0x20 ADD PUSH0 KECCAK256 PUSH1 0x40 MLOAD DUP1 PUSH1 0x40 ADD PUSH1 0x40 MSTORE DUP1 PUSH1 0x5 DUP2 MSTORE PUSH1 0x20 ADD PUSH32 0x41444D494E000000000000000000000000000000000000000000000000000000 DUP2 MSTORE POP PUSH1 0x40 MLOAD PUSH2 0xB6B SWAP2 SWAP1 PUSH2 0x1567 JUMP JUMPDEST SWAP1 DUP2 MSTORE PUSH1 0x20 ADD PUSH1 0x40 MLOAD DUP1 SWAP2 SUB SWAP1 KECCAK256 PUSH0 PUSH2 0x100 EXP DUP2 SLOAD DUP2 PUSH1 0xFF MUL NOT AND SWAP1 DUP4 ISZERO ISZERO MUL OR SWAP1 SSTORE POP PUSH32 0x825FB10F7650ED27414D6F86ACDF7D5946927D9B25001F045F1A2435DEEC02FE PUSH1 0x1 PUSH0 CALLER PUSH20 0xFFFFFFFFFFFFFFFFFFFFFFFFFFFFFFFFFFFFFFFF AND PUSH20 0xFFFFFFFFFFFFFFFFFFFFFFFFFFFFFFFFFFFFFFFF AND DUP2 MSTORE PUSH1 0x20 ADD SWAP1 DUP2 MSTORE PUSH1 0x20 ADD PUSH0 KECCAK256 DUP1 SLOAD SWAP1 POP CALLER DUP7 DUP6 PUSH1 0x40 MLOAD PUSH2 0xC04 SWAP5 SWAP4 SWAP3 SWAP2 SWAP1 PUSH2 0x193F JUMP JUMPDEST PUSH1 0x40 MLOAD DUP1 SWAP2 SUB SWAP1 LOG1 POP POP POP POP JUMP JUMPDEST PUSH0 PUSH1 0x40 MLOAD SWAP1 POP SWAP1 JUMP JUMPDEST PUSH0 DUP1 REVERT JUMPDEST PUSH0 DUP1 REVERT JUMPDEST PUSH0 PUSH20 0xFFFFFFFFFFFFFFFFFFFFFFFFFFFFFFFFFFFFFFFF DUP3 AND SWAP1 POP SWAP2 SWAP1 POP JUMP JUMPDEST PUSH0 PUSH2 0xC4C DUP3 PUSH2 0xC23 JUMP JUMPDEST SWAP1 POP SWAP2 SWAP1 POP JUMP JUMPDEST PUSH2 0xC5C DUP2 PUSH2 0xC42 JUMP JUMPDEST DUP2 EQ PUSH2 0xC66 JUMPI PUSH0 DUP1 REVERT JUMPDEST POP JUMP JUMPDEST PUSH0 DUP2 CALLDATALOAD SWAP1 POP PUSH2 0xC77 DUP2 PUSH2 0xC53 JUMP JUMPDEST SWAP3 SWAP2 POP POP JUMP JUMPDEST PUSH0 DUP2 SWAP1 POP SWAP2 SWAP1 POP JUMP JUMPDEST PUSH2 0xC8F DUP2 PUSH2 0xC7D JUMP JUMPDEST DUP2 EQ PUSH2 0xC99 JUMPI PUSH0 DUP1 REVERT JUMPDEST POP JUMP JUMPDEST PUSH0 DUP2 CALLDATALOAD SWAP1 POP PUSH2 0xCAA DUP2 PUSH2 0xC86 JUMP JUMPDEST SWAP3 SWAP2 POP POP JUMP JUMPDEST PUSH0 DUP1 PUSH1 0x40 DUP4 DUP6 SUB SLT ISZERO PUSH2 0xCC6 JUMPI PUSH2 0xCC5 PUSH2 0xC1B JUMP JUMPDEST JUMPDEST PUSH0 PUSH2 0xCD3 DUP6 DUP3 DUP7 ADD PUSH2 0xC69 JUMP JUMPDEST SWAP3 POP POP PUSH1 0x20 PUSH2 0xCE4 DUP6 DUP3 DUP7 ADD PUSH2 0xC9C JUMP JUMPDEST SWAP2 POP POP SWAP3 POP SWAP3 SWAP1 POP JUMP JUMPDEST PUSH2 0xCF7 DUP2 PUSH2 0xC7D JUMP JUMPDEST DUP3 MSTORE POP POP JUMP JUMPDEST PUSH0 DUP2 MLOAD SWAP1 POP SWAP2 SWAP1 POP JUMP JUMPDEST PUSH0 DUP3 DUP3 MSTORE PUSH1 0x20 DUP3 ADD SWAP1 POP SWAP3 SWAP2 POP POP JUMP JUMPDEST DUP3 DUP2 DUP4 MCOPY PUSH0 DUP4 DUP4 ADD MSTORE POP POP POP JUMP JUMPDEST PUSH0 PUSH1 0x1F NOT PUSH1 0x1F DUP4 ADD AND SWAP1 POP SWAP2 SWAP1 POP JUMP JUMPDEST PUSH0 PUSH2 0xD3F DUP3 PUSH2 0xCFD JUMP JUMPDEST PUSH2 0xD49 DUP2 DUP6 PUSH2 0xD07 JUMP JUMPDEST SWAP4 POP PUSH2 0xD59 DUP2 DUP6 PUSH1 0x20 DUP7 ADD PUSH2 0xD17 JUMP JUMPDEST PUSH2 0xD62 DUP2 PUSH2 0xD25 JUMP JUMPDEST DUP5 ADD SWAP2 POP POP SWAP3 SWAP2 POP POP JUMP JUMPDEST PUSH2 0xD76 DUP2 PUSH2 0xC42 JUMP JUMPDEST DUP3 MSTORE POP POP JUMP JUMPDEST PUSH0 DUP2 ISZERO ISZERO SWAP1 POP SWAP2 SWAP1 POP JUMP JUMPDEST PUSH2 0xD90 DUP2 PUSH2 0xD7C JUMP JUMPDEST DUP3 MSTORE POP POP JUMP JUMPDEST PUSH0 PUSH1 0xE0 DUP3 ADD SWAP1 POP PUSH2 0xDA9 PUSH0 DUP4 ADD DUP11 PUSH2 0xCEE JUMP JUMPDEST DUP2 DUP2 SUB PUSH1 0x20 DUP4 ADD MSTORE PUSH2 0xDBB DUP2 DUP10 PUSH2 0xD35 JUMP JUMPDEST SWAP1 POP DUP2 DUP2 SUB PUSH1 0x40 DUP4 ADD MSTORE PUSH2 0xDCF DUP2 DUP9 PUSH2 0xD35 JUMP JUMPDEST SWAP1 POP PUSH2 0xDDE PUSH1 0x60 DUP4 ADD DUP8 PUSH2 0xD6D JUMP JUMPDEST PUSH2 0xDEB PUSH1 0x80 DUP4 ADD DUP7 PUSH2 0xCEE JUMP JUMPDEST PUSH2 0xDF8 PUSH1 0xA0 DUP4 ADD DUP6 PUSH2 0xCEE JUMP JUMPDEST PUSH2 0xE05 PUSH1 0xC0 DUP4 ADD DUP5 PUSH2 0xD87 JUMP JUMPDEST SWAP9 SWAP8 POP POP POP POP POP POP POP POP JUMP JUMPDEST PUSH0 PUSH2 0xE1B DUP3 PUSH2 0xC23 JUMP JUMPDEST SWAP1 POP SWAP2 SWAP1 POP JUMP JUMPDEST PUSH2 0xE2B DUP2 PUSH2 0xE11 JUMP JUMPDEST DUP2 EQ PUSH2 0xE35 JUMPI PUSH0 DUP1 REVERT JUMPDEST POP JUMP JUMPDEST PUSH0 DUP2 CALLDATALOAD SWAP1 POP PUSH2 0xE46 DUP2 PUSH2 0xE22 JUMP JUMPDEST SWAP3 SWAP2 POP POP JUMP JUMPDEST PUSH0 DUP1 PUSH0 PUSH1 0x60 DUP5 DUP7 SUB SLT ISZERO PUSH2 0xE63 JUMPI PUSH2 0xE62 PUSH2 0xC1B JUMP JUMPDEST JUMPDEST PUSH0 PUSH2 0xE70 DUP7 DUP3 DUP8 ADD PUSH2 0xE38 JUMP JUMPDEST SWAP4 POP POP PUSH1 0x20 PUSH2 0xE81 DUP7 DUP3 DUP8 ADD PUSH2 0xC9C JUMP JUMPDEST SWAP3 POP POP PUSH1 0x40 PUSH2 0xE92 DUP7 DUP3 DUP8 ADD PUSH2 0xC9C JUMP JUMPDEST SWAP2 POP POP SWAP3 POP SWAP3 POP SWAP3 JUMP JUMPDEST PUSH0 DUP1 REVERT JUMPDEST PUSH0 DUP1 REVERT JUMPDEST PUSH32 0x4E487B7100000000000000000000000000000000000000000000000000000000 PUSH0 MSTORE PUSH1 0x41 PUSH1 0x4 MSTORE PUSH1 0x24 PUSH0 REVERT JUMPDEST PUSH2 0xEDA DUP3 PUSH2 0xD25 JUMP JUMPDEST DUP2 ADD DUP2 DUP2 LT PUSH8 0xFFFFFFFFFFFFFFFF DUP3 GT OR ISZERO PUSH2 0xEF9 JUMPI PUSH2 0xEF8 PUSH2 0xEA4 JUMP JUMPDEST JUMPDEST DUP1 PUSH1 0x40 MSTORE POP POP POP JUMP JUMPDEST PUSH0 PUSH2 0xF0B PUSH2 0xC12 JUMP JUMPDEST SWAP1 POP PUSH2 0xF17 DUP3 DUP3 PUSH2 0xED1 JUMP JUMPDEST SWAP2 SWAP1 POP JUMP JUMPDEST PUSH0 PUSH8 0xFFFFFFFFFFFFFFFF DUP3 GT ISZERO PUSH2 0xF36 JUMPI PUSH2 0xF35 PUSH2 0xEA4 JUMP JUMPDEST JUMPDEST PUSH2 0xF3F DUP3 PUSH2 0xD25 JUMP JUMPDEST SWAP1 POP PUSH1 0x20 DUP2 ADD SWAP1 POP SWAP2 SWAP1 POP JUMP JUMPDEST DUP3 DUP2 DUP4 CALLDATACOPY PUSH0 DUP4 DUP4 ADD MSTORE POP POP POP JUMP JUMPDEST PUSH0 PUSH2 0xF6C PUSH2 0xF67 DUP5 PUSH2 0xF1C JUMP JUMPDEST PUSH2 0xF02 JUMP JUMPDEST SWAP1 POP DUP3 DUP2 MSTORE PUSH1 0x20 DUP2 ADD DUP5 DUP5 DUP5 ADD GT ISZERO PUSH2 0xF88 JUMPI PUSH2 0xF87 PUSH2 0xEA0 JUMP JUMPDEST JUMPDEST PUSH2 0xF93 DUP5 DUP3 DUP6 PUSH2 0xF4C JUMP JUMPDEST POP SWAP4 SWAP3 POP POP POP JUMP JUMPDEST PUSH0 DUP3 PUSH1 0x1F DUP4 ADD SLT PUSH2 0xFAF JUMPI PUSH2 0xFAE PUSH2 0xE9C JUMP JUMPDEST JUMPDEST DUP2 CALLDATALOAD PUSH2 0xFBF DUP5 DUP3 PUSH1 0x20 DUP7 ADD PUSH2 0xF5A JUMP JUMPDEST SWAP2 POP POP SWAP3 SWAP2 POP POP JUMP JUMPDEST PUSH0 DUP1 PUSH1 0x40 DUP4 DUP6 SUB SLT ISZERO PUSH2 0xFDE JUMPI PUSH2 0xFDD PUSH2 0xC1B JUMP JUMPDEST JUMPDEST PUSH0 PUSH2 0xFEB DUP6 DUP3 DUP7 ADD PUSH2 0xC69 JUMP JUMPDEST SWAP3 POP POP PUSH1 0x20 DUP4 ADD CALLDATALOAD PUSH8 0xFFFFFFFFFFFFFFFF DUP2 GT ISZERO PUSH2 0x100C JUMPI PUSH2 0x100B PUSH2 0xC1F JUMP JUMPDEST JUMPDEST PUSH2 0x1018 DUP6 DUP3 DUP7 ADD PUSH2 0xF9B JUMP JUMPDEST SWAP2 POP POP SWAP3 POP SWAP3 SWAP1 POP JUMP JUMPDEST PUSH0 PUSH1 0x20 DUP3 ADD SWAP1 POP PUSH2 0x1035 PUSH0 DUP4 ADD DUP5 PUSH2 0xD87 JUMP JUMPDEST SWAP3 SWAP2 POP POP JUMP JUMPDEST PUSH0 DUP1 PUSH0 PUSH1 0x60 DUP5 DUP7 SUB SLT ISZERO PUSH2 0x1052 JUMPI PUSH2 0x1051 PUSH2 0xC1B JUMP JUMPDEST JUMPDEST PUSH0 DUP5 ADD CALLDATALOAD PUSH8 0xFFFFFFFFFFFFFFFF DUP2 GT ISZERO PUSH2 0x106F JUMPI PUSH2 0x106E PUSH2 0xC1F JUMP JUMPDEST JUMPDEST PUSH2 0x107B DUP7 DUP3 DUP8 ADD PUSH2 0xF9B JUMP JUMPDEST SWAP4 POP POP PUSH1 0x20 DUP5 ADD CALLDATALOAD PUSH8 0xFFFFFFFFFFFFFFFF DUP2 GT ISZERO PUSH2 0x109C JUMPI PUSH2 0x109B PUSH2 0xC1F JUMP JUMPDEST JUMPDEST PUSH2 0x10A8 DUP7 DUP3 DUP8 ADD PUSH2 0xF9B JUMP JUMPDEST SWAP3 POP POP PUSH1 0x40 PUSH2 0x10B9 DUP7 DUP3 DUP8 ADD PUSH2 0xC9C JUMP JUMPDEST SWAP2 POP POP SWAP3 POP SWAP3 POP SWAP3 JUMP JUMPDEST PUSH32 0x4E487B7100000000000000000000000000000000000000000000000000000000 PUSH0 MSTORE PUSH1 0x22 PUSH1 0x4 MSTORE PUSH1 0x24 PUSH0 REVERT JUMPDEST PUSH0 PUSH1 0x2 DUP3 DIV SWAP1 POP PUSH1 0x1 DUP3 AND DUP1 PUSH2 0x1107 JUMPI PUSH1 0x7F DUP3 AND SWAP2 POP JUMPDEST PUSH1 0x20 DUP3 LT DUP2 SUB PUSH2 0x111A JUMPI PUSH2 0x1119 PUSH2 0x10C3 JUMP JUMPDEST JUMPDEST POP SWAP2 SWAP1 POP JUMP JUMPDEST PUSH32 0x4E487B7100000000000000000000000000000000000000000000000000000000 PUSH0 MSTORE PUSH1 0x11 PUSH1 0x4 MSTORE PUSH1 0x24 PUSH0 REVERT JUMPDEST PUSH0 PUSH2 0x1157 DUP3 PUSH2 0xC7D JUMP JUMPDEST SWAP2 POP PUSH2 0x1162 DUP4 PUSH2 0xC7D JUMP JUMPDEST SWAP3 POP DUP3 DUP3 SUB SWAP1 POP DUP2 DUP2 GT ISZERO PUSH2 0x117A JUMPI PUSH2 0x1179 PUSH2 0x1120 JUMP JUMPDEST JUMPDEST SWAP3 SWAP2 POP POP JUMP JUMPDEST PUSH32 0x4E487B7100000000000000000000000000000000000000000000000000000000 PUSH0 MSTORE PUSH1 0x32 PUSH1 0x4 MSTORE PUSH1 0x24 PUSH0 REVERT JUMPDEST PUSH0 DUP2 SWAP1 POP SWAP3 SWAP2 POP POP JUMP JUMPDEST PUSH32 0x5468652043616D706169676E2000000000000000000000000000000000000000 PUSH0 DUP3 ADD MSTORE POP JUMP JUMPDEST PUSH0 PUSH2 0x11EB PUSH1 0xD DUP4 PUSH2 0x11AD JUMP JUMPDEST SWAP2 POP PUSH2 0x11F6 DUP3 PUSH2 0x11B7 JUMP JUMPDEST PUSH1 0xD DUP3 ADD SWAP1 POP SWAP2 SWAP1 POP JUMP JUMPDEST PUSH0 DUP2 SWAP1 POP SWAP2 SWAP1 POP JUMP JUMPDEST PUSH2 0x121B PUSH2 0x1216 DUP3 PUSH2 0xC7D JUMP JUMPDEST PUSH2 0x1201 JUMP JUMPDEST DUP3 MSTORE POP POP JUMP JUMPDEST PUSH32 0x20446F6573204E4F542045786973742100000000000000000000000000000000 PUSH0 DUP3 ADD MSTORE POP JUMP JUMPDEST PUSH0 PUSH2 0x1255 PUSH1 0x10 DUP4 PUSH2 0x11AD JUMP JUMPDEST SWAP2 POP PUSH2 0x1260 DUP3 PUSH2 0x1221 JUMP JUMPDEST PUSH1 0x10 DUP3 ADD SWAP1 POP SWAP2 SWAP1 POP JUMP JUMPDEST PUSH0 PUSH2 0x1275 DUP3 PUSH2 0x11DF JUMP JUMPDEST SWAP2 POP PUSH2 0x1281 DUP3 DUP5 PUSH2 0x120A JUMP JUMPDEST PUSH1 0x20 DUP3 ADD SWAP2 POP PUSH2 0x1290 DUP3 PUSH2 0x1249 JUMP JUMPDEST SWAP2 POP DUP2 SWAP1 POP SWAP3 SWAP2 POP POP JUMP JUMPDEST PUSH0 PUSH1 0x20 DUP3 ADD SWAP1 POP DUP2 DUP2 SUB PUSH0 DUP4 ADD MSTORE PUSH2 0x12B3 DUP2 DUP5 PUSH2 0xD35 JUMP JUMPDEST SWAP1 POP SWAP3 SWAP2 POP POP JUMP JUMPDEST PUSH32 0x2700000000000000000000000000000000000000000000000000000000000000 PUSH0 DUP3 ADD MSTORE POP JUMP JUMPDEST PUSH0 PUSH2 0x12EF PUSH1 0x1 DUP4 PUSH2 0x11AD JUMP JUMPDEST SWAP2 POP PUSH2 0x12FA DUP3 PUSH2 0x12BB JUMP JUMPDEST PUSH1 0x1 DUP3 ADD SWAP1 POP SWAP2 SWAP1 POP JUMP JUMPDEST PUSH0 DUP2 SWAP1 POP DUP2 PUSH0 MSTORE PUSH1 0x20 PUSH0 KECCAK256 SWAP1 POP SWAP2 SWAP1 POP JUMP JUMPDEST PUSH0 DUP2 SLOAD PUSH2 0x1323 DUP2 PUSH2 0x10F0 JUMP JUMPDEST PUSH2 0x132D DUP2 DUP7 PUSH2 0x11AD JUMP JUMPDEST SWAP5 POP PUSH1 0x1 DUP3 AND PUSH0 DUP2 EQ PUSH2 0x1347 JUMPI PUSH1 0x1 DUP2 EQ PUSH2 0x135C JUMPI PUSH2 0x138E JUMP JUMPDEST PUSH1 0xFF NOT DUP4 AND DUP7 MSTORE DUP2 ISZERO ISZERO DUP3 MUL DUP7 ADD SWAP4 POP PUSH2 0x138E JUMP JUMPDEST PUSH2 0x1365 DUP6 PUSH2 0x1305 JUMP JUMPDEST PUSH0 JUMPDEST DUP4 DUP2 LT ISZERO PUSH2 0x1386 JUMPI DUP2 SLOAD DUP2 DUP10 ADD MSTORE PUSH1 0x1 DUP3 ADD SWAP2 POP PUSH1 0x20 DUP2 ADD SWAP1 POP PUSH2 0x1367 JUMP JUMPDEST DUP4 DUP9 ADD SWAP6 POP POP POP JUMPDEST POP POP POP SWAP3 SWAP2 POP POP JUMP JUMPDEST PUSH32 0x272043616D706169676E2057617320436F6D706C657465642100000000000000 PUSH0 DUP3 ADD MSTORE POP JUMP JUMPDEST PUSH0 PUSH2 0x13CB PUSH1 0x19 DUP4 PUSH2 0x11AD JUMP JUMPDEST SWAP2 POP PUSH2 0x13D6 DUP3 PUSH2 0x1397 JUMP JUMPDEST PUSH1 0x19 DUP3 ADD SWAP1 POP SWAP2 SWAP1 POP JUMP JUMPDEST PUSH0 PUSH2 0x13EB DUP3 PUSH2 0x12E3 JUMP JUMPDEST SWAP2 POP PUSH2 0x13F7 DUP3 DUP5 PUSH2 0x1317 JUMP JUMPDEST SWAP2 POP PUSH2 0x1402 DUP3 PUSH2 0x13BF JUMP JUMPDEST SWAP2 POP DUP2 SWAP1 POP SWAP3 SWAP2 POP POP JUMP JUMPDEST PUSH32 0x416D6F756E742043616E6E6F74206265205A65726F0000000000000000000000 PUSH0 DUP3 ADD MSTORE POP JUMP JUMPDEST PUSH0 PUSH2 0x1441 PUSH1 0x15 DUP4 PUSH2 0xD07 JUMP JUMPDEST SWAP2 POP PUSH2 0x144C DUP3 PUSH2 0x140D JUMP JUMPDEST PUSH1 0x20 DUP3 ADD SWAP1 POP SWAP2 SWAP1 POP JUMP JUMPDEST PUSH0 PUSH1 0x20 DUP3 ADD SWAP1 POP DUP2 DUP2 SUB PUSH0 DUP4 ADD MSTORE PUSH2 0x146E DUP2 PUSH2 0x1435 JUMP JUMPDEST SWAP1 POP SWAP2 SWAP1 POP JUMP JUMPDEST PUSH32 0x54686520416D6F756E7420646F65736E2774204D617463682100000000000000 PUSH0 DUP3 ADD MSTORE POP JUMP JUMPDEST PUSH0 PUSH2 0x14A9 PUSH1 0x19 DUP4 PUSH2 0xD07 JUMP JUMPDEST SWAP2 POP PUSH2 0x14B4 DUP3 PUSH2 0x1475 JUMP JUMPDEST PUSH1 0x20 DUP3 ADD SWAP1 POP SWAP2 SWAP1 POP JUMP JUMPDEST PUSH0 PUSH1 0x20 DUP3 ADD SWAP1 POP DUP2 DUP2 SUB PUSH0 DUP4 ADD MSTORE PUSH2 0x14D6 DUP2 PUSH2 0x149D JUMP JUMPDEST SWAP1 POP SWAP2 SWAP1 POP JUMP JUMPDEST PUSH0 PUSH2 0x14E7 DUP3 PUSH2 0xC7D JUMP JUMPDEST SWAP2 POP PUSH2 0x14F2 DUP4 PUSH2 0xC7D JUMP JUMPDEST SWAP3 POP DUP3 DUP3 ADD SWAP1 POP DUP1 DUP3 GT ISZERO PUSH2 0x150A JUMPI PUSH2 0x1509 PUSH2 0x1120 JUMP JUMPDEST JUMPDEST SWAP3 SWAP2 POP POP JUMP JUMPDEST PUSH0 PUSH1 0x40 DUP3 ADD SWAP1 POP PUSH2 0x1523 PUSH0 DUP4 ADD DUP6 PUSH2 0xD6D JUMP JUMPDEST PUSH2 0x1530 PUSH1 0x20 DUP4 ADD DUP5 PUSH2 0xCEE JUMP JUMPDEST SWAP4 SWAP3 POP POP POP JUMP JUMPDEST PUSH0 PUSH2 0x1541 DUP3 PUSH2 0xCFD JUMP JUMPDEST PUSH2 0x154B DUP2 DUP6 PUSH2 0x11AD JUMP JUMPDEST SWAP4 POP PUSH2 0x155B DUP2 DUP6 PUSH1 0x20 DUP7 ADD PUSH2 0xD17 JUMP JUMPDEST DUP1 DUP5 ADD SWAP2 POP POP SWAP3 SWAP2 POP POP JUMP JUMPDEST PUSH0 PUSH2 0x1572 DUP3 DUP5 PUSH2 0x1537 JUMP JUMPDEST SWAP2 POP DUP2 SWAP1 POP SWAP3 SWAP2 POP POP JUMP JUMPDEST PUSH0 DUP2 SWAP1 POP DUP2 PUSH0 MSTORE PUSH1 0x20 PUSH0 KECCAK256 SWAP1 POP SWAP2 SWAP1 POP JUMP JUMPDEST PUSH0 DUP2 SLOAD PUSH2 0x159B DUP2 PUSH2 0x10F0 JUMP JUMPDEST PUSH2 0x15A5 DUP2 DUP7 PUSH2 0x11AD JUMP JUMPDEST SWAP5 POP PUSH1 0x1 DUP3 AND PUSH0 DUP2 EQ PUSH2 0x15BF JUMPI PUSH1 0x1 DUP2 EQ PUSH2 0x15D4 JUMPI PUSH2 0x1606 JUMP JUMPDEST PUSH1 0xFF NOT DUP4 AND DUP7 MSTORE DUP2 ISZERO ISZERO DUP3 MUL DUP7 ADD SWAP4 POP PUSH2 0x1606 JUMP JUMPDEST PUSH2 0x15DD DUP6 PUSH2 0x157D JUMP JUMPDEST PUSH0 JUMPDEST DUP4 DUP2 LT ISZERO PUSH2 0x15FE JUMPI DUP2 SLOAD DUP2 DUP10 ADD MSTORE PUSH1 0x1 DUP3 ADD SWAP2 POP PUSH1 0x20 DUP2 ADD SWAP1 POP PUSH2 0x15DF JUMP JUMPDEST DUP4 DUP9 ADD SWAP6 POP POP POP JUMPDEST POP POP POP SWAP3 SWAP2 POP POP JUMP JUMPDEST PUSH0 PUSH2 0x161A DUP3 DUP5 PUSH2 0x158F JUMP JUMPDEST SWAP2 POP DUP2 SWAP1 POP SWAP3 SWAP2 POP POP JUMP JUMPDEST PUSH32 0x43616D706169676E200000000000000000000000000000000000000000000000 PUSH0 DUP3 ADD MSTORE POP JUMP JUMPDEST PUSH0 PUSH2 0x1659 PUSH1 0x9 DUP4 PUSH2 0x11AD JUMP JUMPDEST SWAP2 POP PUSH2 0x1664 DUP3 PUSH2 0x1625 JUMP JUMPDEST PUSH1 0x9 DUP3 ADD SWAP1 POP SWAP2 SWAP1 POP JUMP JUMPDEST PUSH32 0x20616C7265616479206578697374732100000000000000000000000000000000 PUSH0 DUP3 ADD MSTORE POP JUMP JUMPDEST PUSH0 PUSH2 0x16A3 PUSH1 0x10 DUP4 PUSH2 0x11AD JUMP JUMPDEST SWAP2 POP PUSH2 0x16AE DUP3 PUSH2 0x166F JUMP JUMPDEST PUSH1 0x10 DUP3 ADD SWAP1 POP SWAP2 SWAP1 POP JUMP JUMPDEST PUSH0 PUSH2 0x16C3 DUP3 PUSH2 0x164D JUMP JUMPDEST SWAP2 POP PUSH2 0x16CF DUP3 DUP5 PUSH2 0x1537 JUMP JUMPDEST SWAP2 POP PUSH2 0x16DA DUP3 PUSH2 0x1697 JUMP JUMPDEST SWAP2 POP DUP2 SWAP1 POP SWAP3 SWAP2 POP POP JUMP JUMPDEST PUSH0 PUSH1 0x20 PUSH1 0x1F DUP4 ADD DIV SWAP1 POP SWAP2 SWAP1 POP JUMP JUMPDEST PUSH0 DUP3 DUP3 SHL SWAP1 POP SWAP3 SWAP2 POP POP JUMP JUMPDEST PUSH0 PUSH1 0x8 DUP4 MUL PUSH2 0x172F PUSH32 0xFFFFFFFFFFFFFFFFFFFFFFFFFFFFFFFFFFFFFFFFFFFFFFFFFFFFFFFFFFFFFFFF DUP3 PUSH2 0x16F4 JUMP JUMPDEST PUSH2 0x1739 DUP7 DUP4 PUSH2 0x16F4 JUMP JUMPDEST SWAP6 POP DUP1 NOT DUP5 AND SWAP4 POP DUP1 DUP7 AND DUP5 OR SWAP3 POP POP POP SWAP4 SWAP3 POP POP POP JUMP JUMPDEST PUSH0 DUP2 SWAP1 POP SWAP2 SWAP1 POP JUMP JUMPDEST PUSH0 PUSH2 0x1774 PUSH2 0x176F PUSH2 0x176A DUP5 PUSH2 0xC7D JUMP JUMPDEST PUSH2 0x1751 JUMP JUMPDEST PUSH2 0xC7D JUMP JUMPDEST SWAP1 POP SWAP2 SWAP1 POP JUMP JUMPDEST PUSH0 DUP2 SWAP1 POP SWAP2 SWAP1 POP JUMP JUMPDEST PUSH2 0x178D DUP4 PUSH2 0x175A JUMP JUMPDEST PUSH2 0x17A1 PUSH2 0x1799 DUP3 PUSH2 0x177B JUMP JUMPDEST DUP5 DUP5 SLOAD PUSH2 0x1700 JUMP JUMPDEST DUP3 SSTORE POP POP POP POP JUMP JUMPDEST PUSH0 SWAP1 JUMP JUMPDEST PUSH2 0x17B5 PUSH2 0x17A9 JUMP JUMPDEST PUSH2 0x17C0 DUP2 DUP5 DUP5 PUSH2 0x1784 JUMP JUMPDEST POP POP POP JUMP JUMPDEST JUMPDEST DUP2 DUP2 LT ISZERO PUSH2 0x17E3 JUMPI PUSH2 0x17D8 PUSH0 DUP3 PUSH2 0x17AD JUMP JUMPDEST PUSH1 0x1 DUP2 ADD SWAP1 POP PUSH2 0x17C6 JUMP JUMPDEST POP POP JUMP JUMPDEST PUSH1 0x1F DUP3 GT ISZERO PUSH2 0x1828 JUMPI PUSH2 0x17F9 DUP2 PUSH2 0x1305 JUMP JUMPDEST PUSH2 0x1802 DUP5 PUSH2 0x16E5 JUMP JUMPDEST DUP2 ADD PUSH1 0x20 DUP6 LT ISZERO PUSH2 0x1811 JUMPI DUP2 SWAP1 POP JUMPDEST PUSH2 0x1825 PUSH2 0x181D DUP6 PUSH2 0x16E5 JUMP JUMPDEST DUP4 ADD DUP3 PUSH2 0x17C5 JUMP JUMPDEST POP POP JUMPDEST POP POP POP JUMP JUMPDEST PUSH0 DUP3 DUP3 SHR SWAP1 POP SWAP3 SWAP2 POP POP JUMP JUMPDEST PUSH0 PUSH2 0x1848 PUSH0 NOT DUP5 PUSH1 0x8 MUL PUSH2 0x182D JUMP JUMPDEST NOT DUP1 DUP4 AND SWAP2 POP POP SWAP3 SWAP2 POP POP JUMP JUMPDEST PUSH0 PUSH2 0x1860 DUP4 DUP4 PUSH2 0x1839 JUMP JUMPDEST SWAP2 POP DUP3 PUSH1 0x2 MUL DUP3 OR SWAP1 POP SWAP3 SWAP2 POP POP JUMP JUMPDEST PUSH2 0x1879 DUP3 PUSH2 0xCFD JUMP JUMPDEST PUSH8 0xFFFFFFFFFFFFFFFF DUP2 GT ISZERO PUSH2 0x1892 JUMPI PUSH2 0x1891 PUSH2 0xEA4 JUMP JUMPDEST JUMPDEST PUSH2 0x189C DUP3 SLOAD PUSH2 0x10F0 JUMP JUMPDEST PUSH2 0x18A7 DUP3 DUP3 DUP6 PUSH2 0x17E7 JUMP JUMPDEST PUSH0 PUSH1 0x20 SWAP1 POP PUSH1 0x1F DUP4 GT PUSH1 0x1 DUP2 EQ PUSH2 0x18D8 JUMPI PUSH0 DUP5 ISZERO PUSH2 0x18C6 JUMPI DUP3 DUP8 ADD MLOAD SWAP1 POP JUMPDEST PUSH2 0x18D0 DUP6 DUP3 PUSH2 0x1855 JUMP JUMPDEST DUP7 SSTORE POP PUSH2 0x1937 JUMP JUMPDEST PUSH1 0x1F NOT DUP5 AND PUSH2 0x18E6 DUP7 PUSH2 0x1305 JUMP JUMPDEST PUSH0 JUMPDEST DUP3 DUP2 LT ISZERO PUSH2 0x190D JUMPI DUP5 DUP10 ADD MLOAD DUP3 SSTORE PUSH1 0x1 DUP3 ADD SWAP2 POP PUSH1 0x20 DUP6 ADD SWAP5 POP PUSH1 0x20 DUP2 ADD SWAP1 POP PUSH2 0x18E8 JUMP JUMPDEST DUP7 DUP4 LT ISZERO PUSH2 0x192A JUMPI DUP5 DUP10 ADD MLOAD PUSH2 0x1926 PUSH1 0x1F DUP10 AND DUP3 PUSH2 0x1839 JUMP JUMPDEST DUP4 SSTORE POP JUMPDEST PUSH1 0x1 PUSH1 0x2 DUP9 MUL ADD DUP9 SSTORE POP POP POP JUMPDEST POP POP POP POP POP POP JUMP JUMPDEST PUSH0 PUSH1 0x80 DUP3 ADD SWAP1 POP PUSH2 0x1952 PUSH0 DUP4 ADD DUP8 PUSH2 0xCEE JUMP JUMPDEST PUSH2 0x195F PUSH1 0x20 DUP4 ADD DUP7 PUSH2 0xD6D JUMP JUMPDEST DUP2 DUP2 SUB PUSH1 0x40 DUP4 ADD MSTORE PUSH2 0x1971 DUP2 DUP6 PUSH2 0xD35 JUMP JUMPDEST SWAP1 POP PUSH2 0x1980 PUSH1 0x60 DUP4 ADD DUP5 PUSH2 0xCEE JUMP JUMPDEST SWAP6 SWAP5 POP POP POP POP POP JUMP INVALID LOG2 PUSH5 0x6970667358 0x22 SLT KECCAK256 0xAC INVALID 0xE6 SELFDESTRUCT PUSH11 0xE651A7EE73DBF2842A31E3 0xD5 PUSH7 0x78F3129E3272A2 SWAP5 SWAP16 PREVRANDAO 0x29 PUSH24 0x62A864736F6C634300081A00330000000000000000000000 "
				},
				"gasEstimates": {
					"creation": {
						"codeDepositCost": "1318200",
						"executionCost": "25632",
						"totalCost": "1343832"
					},
					"external": {
						"adminRoles(address,string)": "infinite",
						"campaigns(address,uint256)": "infinite",
						"createCampaign(string,string,uint256)": "infinite",
						"donateToCampaign(address,uint256,uint256)": "infinite"
					}
				},
				"methodIdentifiers": {
					"adminRoles(address,string)": "cedcf334",
					"campaigns(address,uint256)": "11555dbc",
					"createCampaign(string,string,uint256)": "ffa56a57",
					"donateToCampaign(address,uint256,uint256)": "5a3915cd"
				}
			},
			"storageLayout": {
				"storage": [
					{
						"astId": 3,
						"contract": "contracts/CharityDonation.sol:CharityDonation",
						"label": "contractOwner",
						"offset": 0,
						"slot": "0",
						"type": "t_address"
					},
					{
						"astId": 30,
						"contract": "contracts/CharityDonation.sol:CharityDonation",
						"label": "campaigns",
						"offset": 0,
						"slot": "1",
						"type": "t_mapping(t_address,t_array(t_struct(Campaign)24_storage)dyn_storage)"
					},
					{
						"astId": 36,
						"contract": "contracts/CharityDonation.sol:CharityDonation",
						"label": "adminRoles",
						"offset": 0,
						"slot": "2",
						"type": "t_mapping(t_address,t_mapping(t_string_memory_ptr,t_bool))"
					}
				],
				"types": {
					"t_address": {
						"encoding": "inplace",
						"label": "address",
						"numberOfBytes": "20"
					},
					"t_array(t_struct(Campaign)24_storage)dyn_storage": {
						"base": "t_struct(Campaign)24_storage",
						"encoding": "dynamic_array",
						"label": "struct CharityDonation.Campaign[]",
						"numberOfBytes": "32"
					},
					"t_bool": {
						"encoding": "inplace",
						"label": "bool",
						"numberOfBytes": "1"
					},
					"t_mapping(t_address,t_array(t_struct(Campaign)24_storage)dyn_storage)": {
						"encoding": "mapping",
						"key": "t_address",
						"label": "mapping(address => struct CharityDonation.Campaign[])",
						"numberOfBytes": "32",
						"value": "t_array(t_struct(Campaign)24_storage)dyn_storage"
					},
					"t_mapping(t_address,t_mapping(t_string_memory_ptr,t_bool))": {
						"encoding": "mapping",
						"key": "t_address",
						"label": "mapping(address => mapping(string => bool))",
						"numberOfBytes": "32",
						"value": "t_mapping(t_string_memory_ptr,t_bool)"
					},
					"t_mapping(t_string_memory_ptr,t_bool)": {
						"encoding": "mapping",
						"key": "t_string_memory_ptr",
						"label": "mapping(string => bool)",
						"numberOfBytes": "32",
						"value": "t_bool"
					},
					"t_string_memory_ptr": {
						"encoding": "bytes",
						"label": "string",
						"numberOfBytes": "32"
					},
					"t_string_storage": {
						"encoding": "bytes",
						"label": "string",
						"numberOfBytes": "32"
					},
					"t_struct(Campaign)24_storage": {
						"encoding": "inplace",
						"label": "struct CharityDonation.Campaign",
						"members": [
							{
								"astId": 11,
								"contract": "contracts/CharityDonation.sol:CharityDonation",
								"label": "campaign_id",
								"offset": 0,
								"slot": "0",
								"type": "t_uint256"
							},
							{
								"astId": 13,
								"contract": "contracts/CharityDonation.sol:CharityDonation",
								"label": "title",
								"offset": 0,
								"slot": "1",
								"type": "t_string_storage"
							},
							{
								"astId": 15,
								"contract": "contracts/CharityDonation.sol:CharityDonation",
								"label": "description",
								"offset": 0,
								"slot": "2",
								"type": "t_string_storage"
							},
							{
								"astId": 17,
								"contract": "contracts/CharityDonation.sol:CharityDonation",
								"label": "owner",
								"offset": 0,
								"slot": "3",
								"type": "t_address"
							},
							{
								"astId": 19,
								"contract": "contracts/CharityDonation.sol:CharityDonation",
								"label": "targetAmount",
								"offset": 0,
								"slot": "4",
								"type": "t_uint256"
							},
							{
								"astId": 21,
								"contract": "contracts/CharityDonation.sol:CharityDonation",
								"label": "raisedAmount",
								"offset": 0,
								"slot": "5",
								"type": "t_uint256"
							},
							{
								"astId": 23,
								"contract": "contracts/CharityDonation.sol:CharityDonation",
								"label": "isCompleted",
								"offset": 0,
								"slot": "6",
								"type": "t_bool"
							}
						],
						"numberOfBytes": "224"
					},
					"t_uint256": {
						"encoding": "inplace",
						"label": "uint256",
						"numberOfBytes": "32"
					}
				}
			},
			"userdoc": {
				"kind": "user",
				"methods": {},
				"version": 1
			}
		}
	}
}