{
	"contracts/CharityDonation.sol": {
		"CharityDonation": {
			"abi": [
				{
					"inputs": [],
					"stateMutability": "nonpayable",
					"type": "constructor"
				},
				{
					"anonymous": false,
					"inputs": [
						{
							"indexed": false,
							"internalType": "address",
							"name": "admin",
							"type": "address"
						}
					],
					"name": "AddAdmin",
					"type": "event"
				},
				{
					"anonymous": false,
					"inputs": [
						{
							"indexed": false,
							"internalType": "address",
							"name": "campaignAddress",
							"type": "address"
						},
						{
							"indexed": false,
							"internalType": "uint256",
							"name": "campaign_id",
							"type": "uint256"
						}
					],
					"name": "CampaignCompleted",
					"type": "event"
				},
				{
					"anonymous": false,
					"inputs": [
						{
							"indexed": false,
							"internalType": "uint256",
							"name": "campaign_id",
							"type": "uint256"
						},
						{
							"indexed": false,
							"internalType": "address",
							"name": "campaignAddress",
							"type": "address"
						},
						{
							"indexed": false,
							"internalType": "string",
							"name": "title",
							"type": "string"
						},
						{
							"indexed": false,
							"internalType": "uint256",
							"name": "targetAmount",
							"type": "uint256"
						}
					],
					"name": "CampaignCreated",
					"type": "event"
				},
				{
					"anonymous": false,
					"inputs": [
						{
							"indexed": false,
							"internalType": "address",
							"name": "donor",
							"type": "address"
						},
						{
							"indexed": false,
							"internalType": "uint256",
							"name": "amount",
							"type": "uint256"
						},
						{
							"indexed": false,
							"internalType": "address",
							"name": "campaignAddress",
							"type": "address"
						},
						{
							"indexed": false,
							"internalType": "uint256",
							"name": "campaign_id",
							"type": "uint256"
						}
					],
					"name": "DonationReceived",
					"type": "event"
				},
				{
					"anonymous": false,
					"inputs": [
						{
							"indexed": false,
							"internalType": "uint256",
							"name": "amount",
							"type": "uint256"
						},
						{
							"indexed": false,
							"internalType": "address",
							"name": "by",
							"type": "address"
						},
						{
							"indexed": false,
							"internalType": "address",
							"name": "to",
							"type": "address"
						},
						{
							"indexed": false,
							"internalType": "address",
							"name": "from",
							"type": "address"
						},
						{
							"indexed": false,
							"internalType": "uint256",
							"name": "campaignId",
							"type": "uint256"
						}
					],
					"name": "FundsWithdrawn",
					"type": "event"
				},
				{
					"inputs": [
						{
							"internalType": "address",
							"name": "_admin",
							"type": "address"
						}
					],
					"name": "addCampaignAdmins",
					"outputs": [],
					"stateMutability": "nonpayable",
					"type": "function"
				},
				{
					"inputs": [
						{
							"internalType": "address",
							"name": "",
							"type": "address"
						},
						{
							"internalType": "address",
							"name": "",
							"type": "address"
						}
					],
					"name": "admins",
					"outputs": [
						{
							"internalType": "bool",
							"name": "",
							"type": "bool"
						}
					],
					"stateMutability": "view",
					"type": "function"
				},
				{
					"inputs": [
						{
							"internalType": "address",
							"name": "",
							"type": "address"
						},
						{
							"internalType": "uint256",
							"name": "",
							"type": "uint256"
						}
					],
					"name": "campaignAdmins",
					"outputs": [
						{
							"internalType": "address",
							"name": "",
							"type": "address"
						}
					],
					"stateMutability": "view",
					"type": "function"
				},
				{
					"inputs": [
						{
							"internalType": "address",
							"name": "",
							"type": "address"
						},
						{
							"internalType": "uint256",
							"name": "",
							"type": "uint256"
						}
					],
					"name": "campaigns",
					"outputs": [
						{
							"internalType": "uint256",
							"name": "campaign_id",
							"type": "uint256"
						},
						{
							"internalType": "string",
							"name": "title",
							"type": "string"
						},
						{
							"internalType": "string",
							"name": "description",
							"type": "string"
						},
						{
							"internalType": "address",
							"name": "campaignAddress",
							"type": "address"
						},
						{
							"internalType": "uint256",
							"name": "targetAmount",
							"type": "uint256"
						},
						{
							"internalType": "uint256",
							"name": "raisedAmount",
							"type": "uint256"
						},
						{
							"internalType": "bool",
							"name": "isCompleted",
							"type": "bool"
						}
					],
					"stateMutability": "view",
					"type": "function"
				},
				{
					"inputs": [
						{
							"internalType": "string",
							"name": "_title",
							"type": "string"
						},
						{
							"internalType": "string",
							"name": "_description",
							"type": "string"
						},
						{
							"internalType": "uint256",
							"name": "_target",
							"type": "uint256"
						}
					],
					"name": "createCampaign",
					"outputs": [],
					"stateMutability": "nonpayable",
					"type": "function"
				},
				{
					"inputs": [
						{
							"internalType": "address payable",
							"name": "_campaignAddress",
							"type": "address"
						},
						{
							"internalType": "uint256",
							"name": "_campaignId",
							"type": "uint256"
						},
						{
							"internalType": "uint256",
							"name": "_amount",
							"type": "uint256"
						}
					],
					"name": "donateToCampaign",
					"outputs": [],
					"stateMutability": "payable",
					"type": "function"
				},
				{
					"inputs": [
						{
							"internalType": "address",
							"name": "",
							"type": "address"
						},
						{
							"internalType": "uint256",
							"name": "",
							"type": "uint256"
						}
					],
					"name": "donors",
					"outputs": [
						{
							"internalType": "address",
							"name": "campaignAddress",
							"type": "address"
						},
						{
							"internalType": "uint256",
							"name": "campaignId",
							"type": "uint256"
						},
						{
							"internalType": "string",
							"name": "title",
							"type": "string"
						},
						{
							"internalType": "uint256",
							"name": "amount",
							"type": "uint256"
						}
					],
					"stateMutability": "view",
					"type": "function"
				},
				{
					"inputs": [],
					"name": "getContractBalance",
					"outputs": [
						{
							"internalType": "uint256",
							"name": "",
							"type": "uint256"
						}
					],
					"stateMutability": "view",
					"type": "function"
				},
				{
					"inputs": [
						{
							"internalType": "address",
							"name": "_campaignAddress",
							"type": "address"
						}
					],
					"name": "viewCampaignAdmins",
					"outputs": [
						{
							"internalType": "address[]",
							"name": "",
							"type": "address[]"
						}
					],
					"stateMutability": "view",
					"type": "function"
				},
				{
					"inputs": [],
					"name": "viewCampaigns",
					"outputs": [
						{
							"components": [
								{
									"internalType": "uint256",
									"name": "campaign_id",
									"type": "uint256"
								},
								{
									"internalType": "string",
									"name": "title",
									"type": "string"
								},
								{
									"internalType": "string",
									"name": "description",
									"type": "string"
								},
								{
									"internalType": "address",
									"name": "campaignAddress",
									"type": "address"
								},
								{
									"internalType": "uint256",
									"name": "targetAmount",
									"type": "uint256"
								},
								{
									"internalType": "uint256",
									"name": "raisedAmount",
									"type": "uint256"
								},
								{
									"internalType": "bool",
									"name": "isCompleted",
									"type": "bool"
								}
							],
							"internalType": "struct CharityDonation.Campaign[]",
							"name": "",
							"type": "tuple[]"
						}
					],
					"stateMutability": "view",
					"type": "function"
				},
				{
					"inputs": [],
					"name": "viewDonations",
					"outputs": [
						{
							"components": [
								{
									"internalType": "address",
									"name": "campaignAddress",
									"type": "address"
								},
								{
									"internalType": "uint256",
									"name": "campaignId",
									"type": "uint256"
								},
								{
									"internalType": "string",
									"name": "title",
									"type": "string"
								},
								{
									"internalType": "uint256",
									"name": "amount",
									"type": "uint256"
								}
							],
							"internalType": "struct CharityDonation.Donation[]",
							"name": "",
							"type": "tuple[]"
						}
					],
					"stateMutability": "view",
					"type": "function"
				},
				{
					"inputs": [
						{
							"internalType": "address",
							"name": "_campaignAddress",
							"type": "address"
						}
					],
					"name": "viewWithdrawals",
					"outputs": [
						{
							"components": [
								{
									"internalType": "uint256",
									"name": "campaignId",
									"type": "uint256"
								},
								{
									"internalType": "string",
									"name": "title",
									"type": "string"
								},
								{
									"internalType": "uint256",
									"name": "amount",
									"type": "uint256"
								},
								{
									"internalType": "address",
									"name": "by",
									"type": "address"
								},
								{
									"internalType": "address",
									"name": "to",
									"type": "address"
								}
							],
							"internalType": "struct CharityDonation.Withdrawals[]",
							"name": "",
							"type": "tuple[]"
						}
					],
					"stateMutability": "view",
					"type": "function"
				},
				{
					"inputs": [
						{
							"internalType": "uint256",
							"name": "_campaignId",
							"type": "uint256"
						},
						{
							"internalType": "address",
							"name": "_campaignAddress",
							"type": "address"
						},
						{
							"internalType": "uint256",
							"name": "_amount",
							"type": "uint256"
						},
						{
							"internalType": "address payable",
							"name": "_to",
							"type": "address"
						}
					],
					"name": "withdrawFunds",
					"outputs": [],
					"stateMutability": "nonpayable",
					"type": "function"
				},
				{
					"inputs": [
						{
							"internalType": "address",
							"name": "",
							"type": "address"
						},
						{
							"internalType": "uint256",
							"name": "",
							"type": "uint256"
						}
					],
					"name": "withdrawals",
					"outputs": [
						{
							"internalType": "uint256",
							"name": "campaignId",
							"type": "uint256"
						},
						{
							"internalType": "string",
							"name": "title",
							"type": "string"
						},
						{
							"internalType": "uint256",
							"name": "amount",
							"type": "uint256"
						},
						{
							"internalType": "address",
							"name": "by",
							"type": "address"
						},
						{
							"internalType": "address",
							"name": "to",
							"type": "address"
						}
					],
					"stateMutability": "view",
					"type": "function"
				}
			],
			"devdoc": {
				"kind": "dev",
				"methods": {},
				"version": 1
			},
			"evm": {
				"assembly": "    /* \"contracts/CharityDonation.sol\":63:8307  contract CharityDonation {... */\n  mstore(0x40, 0x80)\n    /* \"contracts/CharityDonation.sol\":1839:1898  constructor() {... */\n  callvalue\n  dup1\n  iszero\n  tag_1\n  jumpi\n  0x00\n  dup1\n  revert\ntag_1:\n  pop\n    /* \"contracts/CharityDonation.sol\":1880:1890  msg.sender */\n  caller\n    /* \"contracts/CharityDonation.sol\":1864:1877  contractOwner */\n  0x00\n  dup1\n    /* \"contracts/CharityDonation.sol\":1864:1890  contractOwner = msg.sender */\n  0x0100\n  exp\n  dup2\n  sload\n  dup2\n  0xffffffffffffffffffffffffffffffffffffffff\n  mul\n  not\n  and\n  swap1\n  dup4\n  0xffffffffffffffffffffffffffffffffffffffff\n  and\n  mul\n  or\n  swap1\n  sstore\n  pop\n    /* \"contracts/CharityDonation.sol\":63:8307  contract CharityDonation {... */\n  dataSize(sub_0)\n  dup1\n  dataOffset(sub_0)\n  0x00\n  codecopy\n  0x00\n  return\nstop\n\nsub_0: assembly {\n        /* \"contracts/CharityDonation.sol\":63:8307  contract CharityDonation {... */\n      mstore(0x40, 0x80)\n      jumpi(tag_1, lt(calldatasize, 0x04))\n      shr(0xe0, calldataload(0x00))\n      dup1\n      0x6f9fb98a\n      gt\n      tag_16\n      jumpi\n      dup1\n      0xc14b8aac\n      gt\n      tag_17\n      jumpi\n      dup1\n      0xc14b8aac\n      eq\n      tag_12\n      jumpi\n      dup1\n      0xdf171c0d\n      eq\n      tag_13\n      jumpi\n      dup1\n      0xe81c411d\n      eq\n      tag_14\n      jumpi\n      dup1\n      0xffa56a57\n      eq\n      tag_15\n      jumpi\n      jump(tag_1)\n    tag_17:\n      dup1\n      0x6f9fb98a\n      eq\n      tag_9\n      jumpi\n      dup1\n      0x9b56f5f0\n      eq\n      tag_10\n      jumpi\n      dup1\n      0xbe21739e\n      eq\n      tag_11\n      jumpi\n      jump(tag_1)\n    tag_16:\n      dup1\n      0x28f5bd9b\n      gt\n      tag_18\n      jumpi\n      dup1\n      0x28f5bd9b\n      eq\n      tag_5\n      jumpi\n      dup1\n      0x366919e9\n      eq\n      tag_6\n      jumpi\n      dup1\n      0x422b1077\n      eq\n      tag_7\n      jumpi\n      dup1\n      0x5a3915cd\n      eq\n      tag_8\n      jumpi\n      jump(tag_1)\n    tag_18:\n      dup1\n      0x060a4524\n      eq\n      tag_2\n      jumpi\n      dup1\n      0x11555dbc\n      eq\n      tag_3\n      jumpi\n      dup1\n      0x1f55e5bc\n      eq\n      tag_4\n      jumpi\n    tag_1:\n      0x00\n      dup1\n      revert\n        /* \"contracts/CharityDonation.sol\":1933:2307  function addCampaignAdmins(address _admin) public {... */\n    tag_2:\n      callvalue\n      dup1\n      iszero\n      tag_19\n      jumpi\n      0x00\n      dup1\n      revert\n    tag_19:\n      pop\n      tag_20\n      0x04\n      dup1\n      calldatasize\n      sub\n      dup2\n      add\n      swap1\n      tag_21\n      swap2\n      swap1\n      tag_22\n      jump\t// in\n    tag_21:\n      tag_23\n      jump\t// in\n    tag_20:\n      stop\n        /* \"contracts/CharityDonation.sol\":864:913  mapping  (address => Campaign[]) public campaigns */\n    tag_3:\n      callvalue\n      dup1\n      iszero\n      tag_24\n      jumpi\n      0x00\n      dup1\n      revert\n    tag_24:\n      pop\n      tag_25\n      0x04\n      dup1\n      calldatasize\n      sub\n      dup2\n      add\n      swap1\n      tag_26\n      swap2\n      swap1\n      tag_27\n      jump\t// in\n    tag_26:\n      tag_28\n      jump\t// in\n    tag_25:\n      mload(0x40)\n      tag_29\n      swap8\n      swap7\n      swap6\n      swap5\n      swap4\n      swap3\n      swap2\n      swap1\n      tag_30\n      jump\t// in\n    tag_29:\n      mload(0x40)\n      dup1\n      swap2\n      sub\n      swap1\n      return\n        /* \"contracts/CharityDonation.sol\":1090:1144  mapping  (address => address[]) public  campaignAdmins */\n    tag_4:\n      callvalue\n      dup1\n      iszero\n      tag_31\n      jumpi\n      0x00\n      dup1\n      revert\n    tag_31:\n      pop\n      tag_32\n      0x04\n      dup1\n      calldatasize\n      sub\n      dup2\n      add\n      swap1\n      tag_33\n      swap2\n      swap1\n      tag_27\n      jump\t// in\n    tag_33:\n      tag_34\n      jump\t// in\n    tag_32:\n      mload(0x40)\n      tag_35\n      swap2\n      swap1\n      tag_36\n      jump\t// in\n    tag_35:\n      mload(0x40)\n      dup1\n      swap2\n      sub\n      swap1\n      return\n        /* \"contracts/CharityDonation.sol\":7824:7975  function viewCampaignAdmins(address _campaignAddress) public view returns (address[] memory ){... */\n    tag_5:\n      callvalue\n      dup1\n      iszero\n      tag_37\n      jumpi\n      0x00\n      dup1\n      revert\n    tag_37:\n      pop\n      tag_38\n      0x04\n      dup1\n      calldatasize\n      sub\n      dup2\n      add\n      swap1\n      tag_39\n      swap2\n      swap1\n      tag_22\n      jump\t// in\n    tag_39:\n      tag_40\n      jump\t// in\n    tag_38:\n      mload(0x40)\n      tag_41\n      swap2\n      swap1\n      tag_42\n      jump\t// in\n    tag_41:\n      mload(0x40)\n      dup1\n      swap2\n      sub\n      swap1\n      return\n        /* \"contracts/CharityDonation.sol\":7676:7788  function viewCampaigns() public view returns (Campaign[] memory) {... */\n    tag_6:\n      callvalue\n      dup1\n      iszero\n      tag_43\n      jumpi\n      0x00\n      dup1\n      revert\n    tag_43:\n      pop\n      tag_44\n      tag_45\n      jump\t// in\n    tag_44:\n      mload(0x40)\n      tag_46\n      swap2\n      swap1\n      tag_47\n      jump\t// in\n    tag_46:\n      mload(0x40)\n      dup1\n      swap2\n      sub\n      swap1\n      return\n        /* \"contracts/CharityDonation.sol\":1293:1346  mapping (address => Withdrawals[]) public withdrawals */\n    tag_7:\n      callvalue\n      dup1\n      iszero\n      tag_48\n      jumpi\n      0x00\n      dup1\n      revert\n    tag_48:\n      pop\n      tag_49\n      0x04\n      dup1\n      calldatasize\n      sub\n      dup2\n      add\n      swap1\n      tag_50\n      swap2\n      swap1\n      tag_27\n      jump\t// in\n    tag_50:\n      tag_51\n      jump\t// in\n    tag_49:\n      mload(0x40)\n      tag_52\n      swap6\n      swap5\n      swap4\n      swap3\n      swap2\n      swap1\n      tag_53\n      jump\t// in\n    tag_52:\n      mload(0x40)\n      dup1\n      swap2\n      sub\n      swap1\n      return\n        /* \"contracts/CharityDonation.sol\":4141:5923  function donateToCampaign(address payable  _campaignAddress, uint256 _campaignId, uint256 _amount) public payable  {... */\n    tag_8:\n      tag_54\n      0x04\n      dup1\n      calldatasize\n      sub\n      dup2\n      add\n      swap1\n      tag_55\n      swap2\n      swap1\n      tag_56\n      jump\t// in\n    tag_55:\n      tag_57\n      jump\t// in\n    tag_54:\n      stop\n        /* \"contracts/CharityDonation.sol\":5960:6067  function getContractBalance() public view returns (uint256) {... */\n    tag_9:\n      callvalue\n      dup1\n      iszero\n      tag_58\n      jumpi\n      0x00\n      dup1\n      revert\n    tag_58:\n      pop\n      tag_59\n      tag_60\n      jump\t// in\n    tag_59:\n      mload(0x40)\n      tag_61\n      swap2\n      swap1\n      tag_62\n      jump\t// in\n    tag_61:\n      mload(0x40)\n      dup1\n      swap2\n      sub\n      swap1\n      return\n        /* \"contracts/CharityDonation.sol\":1194:1239  mapping (address => Donation[]) public donors */\n    tag_10:\n      callvalue\n      dup1\n      iszero\n      tag_63\n      jumpi\n      0x00\n      dup1\n      revert\n    tag_63:\n      pop\n      tag_64\n      0x04\n      dup1\n      calldatasize\n      sub\n      dup2\n      add\n      swap1\n      tag_65\n      swap2\n      swap1\n      tag_27\n      jump\t// in\n    tag_65:\n      tag_66\n      jump\t// in\n    tag_64:\n      mload(0x40)\n      tag_67\n      swap5\n      swap4\n      swap3\n      swap2\n      swap1\n      tag_68\n      jump\t// in\n    tag_67:\n      mload(0x40)\n      dup1\n      swap2\n      sub\n      swap1\n      return\n        /* \"contracts/CharityDonation.sol\":973:1034  mapping  (address => mapping (address => bool)) public admins */\n    tag_11:\n      callvalue\n      dup1\n      iszero\n      tag_69\n      jumpi\n      0x00\n      dup1\n      revert\n    tag_69:\n      pop\n      tag_70\n      0x04\n      dup1\n      calldatasize\n      sub\n      dup2\n      add\n      swap1\n      tag_71\n      swap2\n      swap1\n      tag_72\n      jump\t// in\n    tag_71:\n      tag_73\n      jump\t// in\n    tag_70:\n      mload(0x40)\n      tag_74\n      swap2\n      swap1\n      tag_75\n      jump\t// in\n    tag_74:\n      mload(0x40)\n      dup1\n      swap2\n      sub\n      swap1\n      return\n        /* \"contracts/CharityDonation.sol\":6097:7627  function withdrawFunds(uint256 _campaignId, address _campaignAddress,uint256 _amount, address payable _to) external onlyWithdraw(_campaignAddress, _campaignId) {... */\n    tag_12:\n      callvalue\n      dup1\n      iszero\n      tag_76\n      jumpi\n      0x00\n      dup1\n      revert\n    tag_76:\n      pop\n      tag_77\n      0x04\n      dup1\n      calldatasize\n      sub\n      dup2\n      add\n      swap1\n      tag_78\n      swap2\n      swap1\n      tag_79\n      jump\t// in\n    tag_78:\n      tag_80\n      jump\t// in\n    tag_77:\n      stop\n        /* \"contracts/CharityDonation.sol\":8153:8302  function viewWithdrawals(address _campaignAddress) public view returns (Withdrawals[] memory) {... */\n    tag_13:\n      callvalue\n      dup1\n      iszero\n      tag_81\n      jumpi\n      0x00\n      dup1\n      revert\n    tag_81:\n      pop\n      tag_82\n      0x04\n      dup1\n      calldatasize\n      sub\n      dup2\n      add\n      swap1\n      tag_83\n      swap2\n      swap1\n      tag_22\n      jump\t// in\n    tag_83:\n      tag_84\n      jump\t// in\n    tag_82:\n      mload(0x40)\n      tag_85\n      swap2\n      swap1\n      tag_86\n      jump\t// in\n    tag_85:\n      mload(0x40)\n      dup1\n      swap2\n      sub\n      swap1\n      return\n        /* \"contracts/CharityDonation.sol\":8011:8120  function viewDonations() public view returns (Donation[] memory) {... */\n    tag_14:\n      callvalue\n      dup1\n      iszero\n      tag_87\n      jumpi\n      0x00\n      dup1\n      revert\n    tag_87:\n      pop\n      tag_88\n      tag_89\n      jump\t// in\n    tag_88:\n      mload(0x40)\n      tag_90\n      swap2\n      swap1\n      tag_91\n      jump\t// in\n    tag_90:\n      mload(0x40)\n      dup1\n      swap2\n      sub\n      swap1\n      return\n        /* \"contracts/CharityDonation.sol\":2906:4100  function createCampaign(string memory _title, string memory _description,uint256 _target) public  {... */\n    tag_15:\n      callvalue\n      dup1\n      iszero\n      tag_92\n      jumpi\n      0x00\n      dup1\n      revert\n    tag_92:\n      pop\n      tag_93\n      0x04\n      dup1\n      calldatasize\n      sub\n      dup2\n      add\n      swap1\n      tag_94\n      swap2\n      swap1\n      tag_95\n      jump\t// in\n    tag_94:\n      tag_96\n      jump\t// in\n    tag_93:\n      stop\n        /* \"contracts/CharityDonation.sol\":1933:2307  function addCampaignAdmins(address _admin) public {... */\n    tag_23:\n        /* \"contracts/CharityDonation.sol\":2069:2070  0 */\n      0x00\n        /* \"contracts/CharityDonation.sol\":2038:2047  campaigns */\n      0x01\n        /* \"contracts/CharityDonation.sol\":2038:2059  campaigns[msg.sender] */\n      0x00\n        /* \"contracts/CharityDonation.sol\":2048:2058  msg.sender */\n      caller\n        /* \"contracts/CharityDonation.sol\":2038:2059  campaigns[msg.sender] */\n      0xffffffffffffffffffffffffffffffffffffffff\n      and\n      0xffffffffffffffffffffffffffffffffffffffff\n      and\n      dup2\n      mstore\n      0x20\n      add\n      swap1\n      dup2\n      mstore\n      0x20\n      add\n      0x00\n      keccak256\n        /* \"contracts/CharityDonation.sol\":2038:2066  campaigns[msg.sender].length */\n      dup1\n      sload\n      swap1\n      pop\n        /* \"contracts/CharityDonation.sol\":2038:2070  campaigns[msg.sender].length > 0 */\n      gt\n        /* \"contracts/CharityDonation.sol\":2030:2114  require(campaigns[msg.sender].length > 0,\"The Campaigned Specified Does Not Exist!\") */\n      tag_98\n      jumpi\n      mload(0x40)\n      0x08c379a000000000000000000000000000000000000000000000000000000000\n      dup2\n      mstore\n      0x04\n      add\n      tag_99\n      swap1\n      tag_100\n      jump\t// in\n    tag_99:\n      mload(0x40)\n      dup1\n      swap2\n      sub\n      swap1\n      revert\n    tag_98:\n        /* \"contracts/CharityDonation.sol\":2187:2191  true */\n      0x01\n        /* \"contracts/CharityDonation.sol\":2158:2164  admins */\n      0x02\n        /* \"contracts/CharityDonation.sol\":2158:2176  admins[msg.sender] */\n      0x00\n        /* \"contracts/CharityDonation.sol\":2165:2175  msg.sender */\n      caller\n        /* \"contracts/CharityDonation.sol\":2158:2176  admins[msg.sender] */\n      0xffffffffffffffffffffffffffffffffffffffff\n      and\n      0xffffffffffffffffffffffffffffffffffffffff\n      and\n      dup2\n      mstore\n      0x20\n      add\n      swap1\n      dup2\n      mstore\n      0x20\n      add\n      0x00\n      keccak256\n        /* \"contracts/CharityDonation.sol\":2158:2184  admins[msg.sender][_admin] */\n      0x00\n        /* \"contracts/CharityDonation.sol\":2177:2183  _admin */\n      dup4\n        /* \"contracts/CharityDonation.sol\":2158:2184  admins[msg.sender][_admin] */\n      0xffffffffffffffffffffffffffffffffffffffff\n      and\n      0xffffffffffffffffffffffffffffffffffffffff\n      and\n      dup2\n      mstore\n      0x20\n      add\n      swap1\n      dup2\n      mstore\n      0x20\n      add\n      0x00\n      keccak256\n      0x00\n        /* \"contracts/CharityDonation.sol\":2158:2191  admins[msg.sender][_admin] = true */\n      0x0100\n      exp\n      dup2\n      sload\n      dup2\n      0xff\n      mul\n      not\n      and\n      swap1\n      dup4\n      iszero\n      iszero\n      mul\n      or\n      swap1\n      sstore\n      pop\n        /* \"contracts/CharityDonation.sol\":2206:2220  campaignAdmins */\n      0x03\n        /* \"contracts/CharityDonation.sol\":2206:2232  campaignAdmins[msg.sender] */\n      0x00\n        /* \"contracts/CharityDonation.sol\":2221:2231  msg.sender */\n      caller\n        /* \"contracts/CharityDonation.sol\":2206:2232  campaignAdmins[msg.sender] */\n      0xffffffffffffffffffffffffffffffffffffffff\n      and\n      0xffffffffffffffffffffffffffffffffffffffff\n      and\n      dup2\n      mstore\n      0x20\n      add\n      swap1\n      dup2\n      mstore\n      0x20\n      add\n      0x00\n      keccak256\n        /* \"contracts/CharityDonation.sol\":2238:2244  _admin */\n      dup2\n        /* \"contracts/CharityDonation.sol\":2206:2245  campaignAdmins[msg.sender].push(_admin) */\n      swap1\n      dup1\n      0x01\n      dup2\n      sload\n      add\n      dup1\n      dup3\n      sstore\n      dup1\n      swap2\n      pop\n      pop\n      0x01\n      swap1\n      sub\n      swap1\n      0x00\n      mstore\n      keccak256(0x00, 0x20)\n      add\n      0x00\n      swap1\n      swap2\n      swap1\n      swap2\n      swap1\n      swap2\n      0x0100\n      exp\n      dup2\n      sload\n      dup2\n      0xffffffffffffffffffffffffffffffffffffffff\n      mul\n      not\n      and\n      swap1\n      dup4\n      0xffffffffffffffffffffffffffffffffffffffff\n      and\n      mul\n      or\n      swap1\n      sstore\n      pop\n        /* \"contracts/CharityDonation.sol\":2283:2299  AddAdmin(_admin) */\n      0xad6de4452a631e641cb59902236607946ce9272b9b981f2f80e8d129cb9084ba\n        /* \"contracts/CharityDonation.sol\":2292:2298  _admin */\n      dup2\n        /* \"contracts/CharityDonation.sol\":2283:2299  AddAdmin(_admin) */\n      mload(0x40)\n      tag_102\n      swap2\n      swap1\n      tag_36\n      jump\t// in\n    tag_102:\n      mload(0x40)\n      dup1\n      swap2\n      sub\n      swap1\n      log1\n        /* \"contracts/CharityDonation.sol\":1933:2307  function addCampaignAdmins(address _admin) public {... */\n      pop\n      jump\t// out\n        /* \"contracts/CharityDonation.sol\":864:913  mapping  (address => Campaign[]) public campaigns */\n    tag_28:\n      mstore(0x20, 0x01)\n      dup2\n      0x00\n      mstore\n      keccak256(0x00, 0x40)\n      dup2\n      dup2\n      sload\n      dup2\n      lt\n      tag_103\n      jumpi\n      0x00\n      dup1\n      revert\n    tag_103:\n      swap1\n      0x00\n      mstore\n      keccak256(0x00, 0x20)\n      swap1\n      0x07\n      mul\n      add\n      0x00\n      swap2\n      pop\n      swap2\n      pop\n      pop\n      dup1\n      0x00\n      add\n      sload\n      swap1\n      dup1\n      0x01\n      add\n      dup1\n      sload\n      tag_105\n      swap1\n      tag_106\n      jump\t// in\n    tag_105:\n      dup1\n      0x1f\n      add\n      0x20\n      dup1\n      swap2\n      div\n      mul\n      0x20\n      add\n      mload(0x40)\n      swap1\n      dup2\n      add\n      0x40\n      mstore\n      dup1\n      swap3\n      swap2\n      swap1\n      dup2\n      dup2\n      mstore\n      0x20\n      add\n      dup3\n      dup1\n      sload\n      tag_107\n      swap1\n      tag_106\n      jump\t// in\n    tag_107:\n      dup1\n      iszero\n      tag_108\n      jumpi\n      dup1\n      0x1f\n      lt\n      tag_109\n      jumpi\n      0x0100\n      dup1\n      dup4\n      sload\n      div\n      mul\n      dup4\n      mstore\n      swap2\n      0x20\n      add\n      swap2\n      jump(tag_108)\n    tag_109:\n      dup3\n      add\n      swap2\n      swap1\n      0x00\n      mstore\n      keccak256(0x00, 0x20)\n      swap1\n    tag_110:\n      dup2\n      sload\n      dup2\n      mstore\n      swap1\n      0x01\n      add\n      swap1\n      0x20\n      add\n      dup1\n      dup4\n      gt\n      tag_110\n      jumpi\n      dup3\n      swap1\n      sub\n      0x1f\n      and\n      dup3\n      add\n      swap2\n    tag_108:\n      pop\n      pop\n      pop\n      pop\n      pop\n      swap1\n      dup1\n      0x02\n      add\n      dup1\n      sload\n      tag_111\n      swap1\n      tag_106\n      jump\t// in\n    tag_111:\n      dup1\n      0x1f\n      add\n      0x20\n      dup1\n      swap2\n      div\n      mul\n      0x20\n      add\n      mload(0x40)\n      swap1\n      dup2\n      add\n      0x40\n      mstore\n      dup1\n      swap3\n      swap2\n      swap1\n      dup2\n      dup2\n      mstore\n      0x20\n      add\n      dup3\n      dup1\n      sload\n      tag_112\n      swap1\n      tag_106\n      jump\t// in\n    tag_112:\n      dup1\n      iszero\n      tag_113\n      jumpi\n      dup1\n      0x1f\n      lt\n      tag_114\n      jumpi\n      0x0100\n      dup1\n      dup4\n      sload\n      div\n      mul\n      dup4\n      mstore\n      swap2\n      0x20\n      add\n      swap2\n      jump(tag_113)\n    tag_114:\n      dup3\n      add\n      swap2\n      swap1\n      0x00\n      mstore\n      keccak256(0x00, 0x20)\n      swap1\n    tag_115:\n      dup2\n      sload\n      dup2\n      mstore\n      swap1\n      0x01\n      add\n      swap1\n      0x20\n      add\n      dup1\n      dup4\n      gt\n      tag_115\n      jumpi\n      dup3\n      swap1\n      sub\n      0x1f\n      and\n      dup3\n      add\n      swap2\n    tag_113:\n      pop\n      pop\n      pop\n      pop\n      pop\n      swap1\n      dup1\n      0x03\n      add\n      0x00\n      swap1\n      sload\n      swap1\n      0x0100\n      exp\n      swap1\n      div\n      0xffffffffffffffffffffffffffffffffffffffff\n      and\n      swap1\n      dup1\n      0x04\n      add\n      sload\n      swap1\n      dup1\n      0x05\n      add\n      sload\n      swap1\n      dup1\n      0x06\n      add\n      0x00\n      swap1\n      sload\n      swap1\n      0x0100\n      exp\n      swap1\n      div\n      0xff\n      and\n      swap1\n      pop\n      dup8\n      jump\t// out\n        /* \"contracts/CharityDonation.sol\":1090:1144  mapping  (address => address[]) public  campaignAdmins */\n    tag_34:\n      mstore(0x20, 0x03)\n      dup2\n      0x00\n      mstore\n      keccak256(0x00, 0x40)\n      dup2\n      dup2\n      sload\n      dup2\n      lt\n      tag_116\n      jumpi\n      0x00\n      dup1\n      revert\n    tag_116:\n      swap1\n      0x00\n      mstore\n      keccak256(0x00, 0x20)\n      add\n      0x00\n      swap2\n      pop\n      swap2\n      pop\n      swap1\n      sload\n      swap1\n      0x0100\n      exp\n      swap1\n      div\n      0xffffffffffffffffffffffffffffffffffffffff\n      and\n      dup2\n      jump\t// out\n        /* \"contracts/CharityDonation.sol\":7824:7975  function viewCampaignAdmins(address _campaignAddress) public view returns (address[] memory ){... */\n    tag_40:\n        /* \"contracts/CharityDonation.sol\":7899:7915  address[] memory */\n      0x60\n        /* \"contracts/CharityDonation.sol\":7935:7949  campaignAdmins */\n      0x03\n        /* \"contracts/CharityDonation.sol\":7935:7967  campaignAdmins[_campaignAddress] */\n      0x00\n        /* \"contracts/CharityDonation.sol\":7950:7966  _campaignAddress */\n      dup4\n        /* \"contracts/CharityDonation.sol\":7935:7967  campaignAdmins[_campaignAddress] */\n      0xffffffffffffffffffffffffffffffffffffffff\n      and\n      0xffffffffffffffffffffffffffffffffffffffff\n      and\n      dup2\n      mstore\n      0x20\n      add\n      swap1\n      dup2\n      mstore\n      0x20\n      add\n      0x00\n      keccak256\n        /* \"contracts/CharityDonation.sol\":7928:7967  return campaignAdmins[_campaignAddress] */\n      dup1\n      sload\n      dup1\n      0x20\n      mul\n      0x20\n      add\n      mload(0x40)\n      swap1\n      dup2\n      add\n      0x40\n      mstore\n      dup1\n      swap3\n      swap2\n      swap1\n      dup2\n      dup2\n      mstore\n      0x20\n      add\n      dup3\n      dup1\n      sload\n      dup1\n      iszero\n      tag_119\n      jumpi\n      0x20\n      mul\n      dup3\n      add\n      swap2\n      swap1\n      0x00\n      mstore\n      keccak256(0x00, 0x20)\n      swap1\n    tag_120:\n      dup2\n      0x00\n      swap1\n      sload\n      swap1\n      0x0100\n      exp\n      swap1\n      div\n      0xffffffffffffffffffffffffffffffffffffffff\n      and\n      0xffffffffffffffffffffffffffffffffffffffff\n      and\n      dup2\n      mstore\n      0x20\n      add\n      swap1\n      0x01\n      add\n      swap1\n      dup1\n      dup4\n      gt\n      tag_120\n      jumpi\n    tag_119:\n      pop\n      pop\n      pop\n      pop\n      pop\n      swap1\n      pop\n        /* \"contracts/CharityDonation.sol\":7824:7975  function viewCampaignAdmins(address _campaignAddress) public view returns (address[] memory ){... */\n      swap2\n      swap1\n      pop\n      jump\t// out\n        /* \"contracts/CharityDonation.sol\":7676:7788  function viewCampaigns() public view returns (Campaign[] memory) {... */\n    tag_45:\n        /* \"contracts/CharityDonation.sol\":7722:7739  Campaign[] memory */\n      0x60\n        /* \"contracts/CharityDonation.sol\":7759:7768  campaigns */\n      0x01\n        /* \"contracts/CharityDonation.sol\":7759:7780  campaigns[msg.sender] */\n      0x00\n        /* \"contracts/CharityDonation.sol\":7769:7779  msg.sender */\n      caller\n        /* \"contracts/CharityDonation.sol\":7759:7780  campaigns[msg.sender] */\n      0xffffffffffffffffffffffffffffffffffffffff\n      and\n      0xffffffffffffffffffffffffffffffffffffffff\n      and\n      dup2\n      mstore\n      0x20\n      add\n      swap1\n      dup2\n      mstore\n      0x20\n      add\n      0x00\n      keccak256\n        /* \"contracts/CharityDonation.sol\":7752:7780  return campaigns[msg.sender] */\n      dup1\n      sload\n      dup1\n      0x20\n      mul\n      0x20\n      add\n      mload(0x40)\n      swap1\n      dup2\n      add\n      0x40\n      mstore\n      dup1\n      swap3\n      swap2\n      swap1\n      dup2\n      dup2\n      mstore\n      0x20\n      add\n      0x00\n      swap1\n    tag_122:\n      dup3\n      dup3\n      lt\n      iszero\n      tag_123\n      jumpi\n      dup4\n      dup3\n      swap1\n      0x00\n      mstore\n      keccak256(0x00, 0x20)\n      swap1\n      0x07\n      mul\n      add\n      mload(0x40)\n      dup1\n      0xe0\n      add\n      0x40\n      mstore\n      swap1\n      dup2\n      0x00\n      dup3\n      add\n      sload\n      dup2\n      mstore\n      0x20\n      add\n      0x01\n      dup3\n      add\n      dup1\n      sload\n      tag_125\n      swap1\n      tag_106\n      jump\t// in\n    tag_125:\n      dup1\n      0x1f\n      add\n      0x20\n      dup1\n      swap2\n      div\n      mul\n      0x20\n      add\n      mload(0x40)\n      swap1\n      dup2\n      add\n      0x40\n      mstore\n      dup1\n      swap3\n      swap2\n      swap1\n      dup2\n      dup2\n      mstore\n      0x20\n      add\n      dup3\n      dup1\n      sload\n      tag_126\n      swap1\n      tag_106\n      jump\t// in\n    tag_126:\n      dup1\n      iszero\n      tag_127\n      jumpi\n      dup1\n      0x1f\n      lt\n      tag_128\n      jumpi\n      0x0100\n      dup1\n      dup4\n      sload\n      div\n      mul\n      dup4\n      mstore\n      swap2\n      0x20\n      add\n      swap2\n      jump(tag_127)\n    tag_128:\n      dup3\n      add\n      swap2\n      swap1\n      0x00\n      mstore\n      keccak256(0x00, 0x20)\n      swap1\n    tag_129:\n      dup2\n      sload\n      dup2\n      mstore\n      swap1\n      0x01\n      add\n      swap1\n      0x20\n      add\n      dup1\n      dup4\n      gt\n      tag_129\n      jumpi\n      dup3\n      swap1\n      sub\n      0x1f\n      and\n      dup3\n      add\n      swap2\n    tag_127:\n      pop\n      pop\n      pop\n      pop\n      pop\n      dup2\n      mstore\n      0x20\n      add\n      0x02\n      dup3\n      add\n      dup1\n      sload\n      tag_130\n      swap1\n      tag_106\n      jump\t// in\n    tag_130:\n      dup1\n      0x1f\n      add\n      0x20\n      dup1\n      swap2\n      div\n      mul\n      0x20\n      add\n      mload(0x40)\n      swap1\n      dup2\n      add\n      0x40\n      mstore\n      dup1\n      swap3\n      swap2\n      swap1\n      dup2\n      dup2\n      mstore\n      0x20\n      add\n      dup3\n      dup1\n      sload\n      tag_131\n      swap1\n      tag_106\n      jump\t// in\n    tag_131:\n      dup1\n      iszero\n      tag_132\n      jumpi\n      dup1\n      0x1f\n      lt\n      tag_133\n      jumpi\n      0x0100\n      dup1\n      dup4\n      sload\n      div\n      mul\n      dup4\n      mstore\n      swap2\n      0x20\n      add\n      swap2\n      jump(tag_132)\n    tag_133:\n      dup3\n      add\n      swap2\n      swap1\n      0x00\n      mstore\n      keccak256(0x00, 0x20)\n      swap1\n    tag_134:\n      dup2\n      sload\n      dup2\n      mstore\n      swap1\n      0x01\n      add\n      swap1\n      0x20\n      add\n      dup1\n      dup4\n      gt\n      tag_134\n      jumpi\n      dup3\n      swap1\n      sub\n      0x1f\n      and\n      dup3\n      add\n      swap2\n    tag_132:\n      pop\n      pop\n      pop\n      pop\n      pop\n      dup2\n      mstore\n      0x20\n      add\n      0x03\n      dup3\n      add\n      0x00\n      swap1\n      sload\n      swap1\n      0x0100\n      exp\n      swap1\n      div\n      0xffffffffffffffffffffffffffffffffffffffff\n      and\n      0xffffffffffffffffffffffffffffffffffffffff\n      and\n      0xffffffffffffffffffffffffffffffffffffffff\n      and\n      dup2\n      mstore\n      0x20\n      add\n      0x04\n      dup3\n      add\n      sload\n      dup2\n      mstore\n      0x20\n      add\n      0x05\n      dup3\n      add\n      sload\n      dup2\n      mstore\n      0x20\n      add\n      0x06\n      dup3\n      add\n      0x00\n      swap1\n      sload\n      swap1\n      0x0100\n      exp\n      swap1\n      div\n      0xff\n      and\n      iszero\n      iszero\n      iszero\n      iszero\n      dup2\n      mstore\n      pop\n      pop\n      dup2\n      mstore\n      0x20\n      add\n      swap1\n      0x01\n      add\n      swap1\n      jump(tag_122)\n    tag_123:\n      pop\n      pop\n      pop\n      pop\n      swap1\n      pop\n        /* \"contracts/CharityDonation.sol\":7676:7788  function viewCampaigns() public view returns (Campaign[] memory) {... */\n      swap1\n      jump\t// out\n        /* \"contracts/CharityDonation.sol\":1293:1346  mapping (address => Withdrawals[]) public withdrawals */\n    tag_51:\n      mstore(0x20, 0x05)\n      dup2\n      0x00\n      mstore\n      keccak256(0x00, 0x40)\n      dup2\n      dup2\n      sload\n      dup2\n      lt\n      tag_135\n      jumpi\n      0x00\n      dup1\n      revert\n    tag_135:\n      swap1\n      0x00\n      mstore\n      keccak256(0x00, 0x20)\n      swap1\n      0x05\n      mul\n      add\n      0x00\n      swap2\n      pop\n      swap2\n      pop\n      pop\n      dup1\n      0x00\n      add\n      sload\n      swap1\n      dup1\n      0x01\n      add\n      dup1\n      sload\n      tag_137\n      swap1\n      tag_106\n      jump\t// in\n    tag_137:\n      dup1\n      0x1f\n      add\n      0x20\n      dup1\n      swap2\n      div\n      mul\n      0x20\n      add\n      mload(0x40)\n      swap1\n      dup2\n      add\n      0x40\n      mstore\n      dup1\n      swap3\n      swap2\n      swap1\n      dup2\n      dup2\n      mstore\n      0x20\n      add\n      dup3\n      dup1\n      sload\n      tag_138\n      swap1\n      tag_106\n      jump\t// in\n    tag_138:\n      dup1\n      iszero\n      tag_139\n      jumpi\n      dup1\n      0x1f\n      lt\n      tag_140\n      jumpi\n      0x0100\n      dup1\n      dup4\n      sload\n      div\n      mul\n      dup4\n      mstore\n      swap2\n      0x20\n      add\n      swap2\n      jump(tag_139)\n    tag_140:\n      dup3\n      add\n      swap2\n      swap1\n      0x00\n      mstore\n      keccak256(0x00, 0x20)\n      swap1\n    tag_141:\n      dup2\n      sload\n      dup2\n      mstore\n      swap1\n      0x01\n      add\n      swap1\n      0x20\n      add\n      dup1\n      dup4\n      gt\n      tag_141\n      jumpi\n      dup3\n      swap1\n      sub\n      0x1f\n      and\n      dup3\n      add\n      swap2\n    tag_139:\n      pop\n      pop\n      pop\n      pop\n      pop\n      swap1\n      dup1\n      0x02\n      add\n      sload\n      swap1\n      dup1\n      0x03\n      add\n      0x00\n      swap1\n      sload\n      swap1\n      0x0100\n      exp\n      swap1\n      div\n      0xffffffffffffffffffffffffffffffffffffffff\n      and\n      swap1\n      dup1\n      0x04\n      add\n      0x00\n      swap1\n      sload\n      swap1\n      0x0100\n      exp\n      swap1\n      div\n      0xffffffffffffffffffffffffffffffffffffffff\n      and\n      swap1\n      pop\n      dup6\n      jump\t// out\n        /* \"contracts/CharityDonation.sol\":4141:5923  function donateToCampaign(address payable  _campaignAddress, uint256 _campaignId, uint256 _amount) public payable  {... */\n    tag_57:\n        /* \"contracts/CharityDonation.sol\":4417:4428  _campaignId */\n      dup2\n        /* \"contracts/CharityDonation.sol\":4359:4368  campaigns */\n      0x01\n        /* \"contracts/CharityDonation.sol\":4359:4386  campaigns[_campaignAddress] */\n      0x00\n        /* \"contracts/CharityDonation.sol\":4369:4385  _campaignAddress */\n      dup6\n        /* \"contracts/CharityDonation.sol\":4359:4386  campaigns[_campaignAddress] */\n      0xffffffffffffffffffffffffffffffffffffffff\n      and\n      0xffffffffffffffffffffffffffffffffffffffff\n      and\n      dup2\n      mstore\n      0x20\n      add\n      swap1\n      dup2\n      mstore\n      0x20\n      add\n      0x00\n      keccak256\n        /* \"contracts/CharityDonation.sol\":4399:4400  1 */\n      0x01\n        /* \"contracts/CharityDonation.sol\":4387:4398  _campaignId */\n      dup5\n        /* \"contracts/CharityDonation.sol\":4387:4400  _campaignId-1 */\n      tag_143\n      swap2\n      swap1\n      tag_144\n      jump\t// in\n    tag_143:\n        /* \"contracts/CharityDonation.sol\":4359:4401  campaigns[_campaignAddress][_campaignId-1] */\n      dup2\n      sload\n      dup2\n      lt\n      tag_145\n      jumpi\n      tag_146\n      tag_147\n      jump\t// in\n    tag_146:\n    tag_145:\n      swap1\n      0x00\n      mstore\n      keccak256(0x00, 0x20)\n      swap1\n      0x07\n      mul\n      add\n        /* \"contracts/CharityDonation.sol\":4359:4413  campaigns[_campaignAddress][_campaignId-1].campaign_id */\n      0x00\n      add\n      sload\n        /* \"contracts/CharityDonation.sol\":4359:4428  campaigns[_campaignAddress][_campaignId-1].campaign_id == _campaignId */\n      eq\n        /* \"contracts/CharityDonation.sol\":4485:4496  _campaignId */\n      dup3\n        /* \"contracts/CharityDonation.sol\":4451:4518  abi.encodePacked(\"The Campaign \", _campaignId , \" Does NOT Exist!\") */\n      add(0x20, mload(0x40))\n      tag_149\n      swap2\n      swap1\n      tag_150\n      jump\t// in\n    tag_149:\n      mload(0x40)\n      0x20\n      dup2\n      dup4\n      sub\n      sub\n      dup2\n      mstore\n      swap1\n      0x40\n      mstore\n        /* \"contracts/CharityDonation.sol\":4337:4530  require(... */\n      swap1\n      tag_151\n      jumpi\n      mload(0x40)\n      0x08c379a000000000000000000000000000000000000000000000000000000000\n      dup2\n      mstore\n      0x04\n      add\n      tag_152\n      swap2\n      swap1\n      tag_153\n      jump\t// in\n    tag_152:\n      mload(0x40)\n      dup1\n      swap2\n      sub\n      swap1\n      revert\n    tag_151:\n      pop\n        /* \"contracts/CharityDonation.sol\":4621:4626  false */\n      0x00\n        /* \"contracts/CharityDonation.sol\":4563:4626  campaigns[_campaignAddress][_campaignId-1].isCompleted == false */\n      iszero\n      iszero\n        /* \"contracts/CharityDonation.sol\":4563:4572  campaigns */\n      0x01\n        /* \"contracts/CharityDonation.sol\":4563:4590  campaigns[_campaignAddress] */\n      0x00\n        /* \"contracts/CharityDonation.sol\":4573:4589  _campaignAddress */\n      dup6\n        /* \"contracts/CharityDonation.sol\":4563:4590  campaigns[_campaignAddress] */\n      0xffffffffffffffffffffffffffffffffffffffff\n      and\n      0xffffffffffffffffffffffffffffffffffffffff\n      and\n      dup2\n      mstore\n      0x20\n      add\n      swap1\n      dup2\n      mstore\n      0x20\n      add\n      0x00\n      keccak256\n        /* \"contracts/CharityDonation.sol\":4603:4604  1 */\n      0x01\n        /* \"contracts/CharityDonation.sol\":4591:4602  _campaignId */\n      dup5\n        /* \"contracts/CharityDonation.sol\":4591:4604  _campaignId-1 */\n      tag_154\n      swap2\n      swap1\n      tag_144\n      jump\t// in\n    tag_154:\n        /* \"contracts/CharityDonation.sol\":4563:4605  campaigns[_campaignAddress][_campaignId-1] */\n      dup2\n      sload\n      dup2\n      lt\n      tag_155\n      jumpi\n      tag_156\n      tag_147\n      jump\t// in\n    tag_156:\n    tag_155:\n      swap1\n      0x00\n      mstore\n      keccak256(0x00, 0x20)\n      swap1\n      0x07\n      mul\n      add\n        /* \"contracts/CharityDonation.sol\":4563:4617  campaigns[_campaignAddress][_campaignId-1].isCompleted */\n      0x06\n      add\n      0x00\n      swap1\n      sload\n      swap1\n      0x0100\n      exp\n      swap1\n      div\n      0xff\n      and\n        /* \"contracts/CharityDonation.sol\":4563:4626  campaigns[_campaignAddress][_campaignId-1].isCompleted == false */\n      iszero\n      iszero\n      eq\n        /* \"contracts/CharityDonation.sol\":4670:4679  campaigns */\n      0x01\n        /* \"contracts/CharityDonation.sol\":4670:4697  campaigns[_campaignAddress] */\n      0x00\n        /* \"contracts/CharityDonation.sol\":4680:4696  _campaignAddress */\n      dup6\n        /* \"contracts/CharityDonation.sol\":4670:4697  campaigns[_campaignAddress] */\n      0xffffffffffffffffffffffffffffffffffffffff\n      and\n      0xffffffffffffffffffffffffffffffffffffffff\n      and\n      dup2\n      mstore\n      0x20\n      add\n      swap1\n      dup2\n      mstore\n      0x20\n      add\n      0x00\n      keccak256\n        /* \"contracts/CharityDonation.sol\":4710:4711  1 */\n      0x01\n        /* \"contracts/CharityDonation.sol\":4698:4709  _campaignId */\n      dup5\n        /* \"contracts/CharityDonation.sol\":4698:4711  _campaignId-1 */\n      tag_158\n      swap2\n      swap1\n      tag_144\n      jump\t// in\n    tag_158:\n        /* \"contracts/CharityDonation.sol\":4670:4712  campaigns[_campaignAddress][_campaignId-1] */\n      dup2\n      sload\n      dup2\n      lt\n      tag_159\n      jumpi\n      tag_160\n      tag_147\n      jump\t// in\n    tag_160:\n    tag_159:\n      swap1\n      0x00\n      mstore\n      keccak256(0x00, 0x20)\n      swap1\n      0x07\n      mul\n      add\n        /* \"contracts/CharityDonation.sol\":4670:4718  campaigns[_campaignAddress][_campaignId-1].title */\n      0x01\n      add\n        /* \"contracts/CharityDonation.sol\":4649:4748  abi.encodePacked(\"'\",campaigns[_campaignAddress][_campaignId-1].title, \"' Campaign Was Completed!\") */\n      add(0x20, mload(0x40))\n      tag_162\n      swap2\n      swap1\n      tag_163\n      jump\t// in\n    tag_162:\n      mload(0x40)\n      0x20\n      dup2\n      dup4\n      sub\n      sub\n      dup2\n      mstore\n      swap1\n      0x40\n      mstore\n        /* \"contracts/CharityDonation.sol\":4541:4760  require(... */\n      swap1\n      tag_164\n      jumpi\n      mload(0x40)\n      0x08c379a000000000000000000000000000000000000000000000000000000000\n      dup2\n      mstore\n      0x04\n      add\n      tag_165\n      swap2\n      swap1\n      tag_153\n      jump\t// in\n    tag_165:\n      mload(0x40)\n      dup1\n      swap2\n      sub\n      swap1\n      revert\n    tag_164:\n      pop\n        /* \"contracts/CharityDonation.sol\":4876:4877  0 */\n      0x00\n        /* \"contracts/CharityDonation.sol\":4866:4873  _amount */\n      dup2\n        /* \"contracts/CharityDonation.sol\":4866:4877  _amount > 0 */\n      gt\n        /* \"contracts/CharityDonation.sol\":4858:4904  require(_amount > 0 , \"Amount Cannot be Zero\") */\n      tag_166\n      jumpi\n      mload(0x40)\n      0x08c379a000000000000000000000000000000000000000000000000000000000\n      dup2\n      mstore\n      0x04\n      add\n      tag_167\n      swap1\n      tag_168\n      jump\t// in\n    tag_167:\n      mload(0x40)\n      dup1\n      swap2\n      sub\n      swap1\n      revert\n    tag_166:\n        /* \"contracts/CharityDonation.sol\":4936:4943  _amount */\n      dup1\n        /* \"contracts/CharityDonation.sol\":4923:4932  msg.value */\n      callvalue\n        /* \"contracts/CharityDonation.sol\":4923:4943  msg.value == _amount */\n      eq\n        /* \"contracts/CharityDonation.sol\":4915:4973  require(msg.value == _amount, \"The Amount doesn't Match!\") */\n      tag_169\n      jumpi\n      mload(0x40)\n      0x08c379a000000000000000000000000000000000000000000000000000000000\n      dup2\n      mstore\n      0x04\n      add\n      tag_170\n      swap1\n      tag_171\n      jump\t// in\n    tag_170:\n      mload(0x40)\n      dup1\n      swap2\n      sub\n      swap1\n      revert\n    tag_169:\n        /* \"contracts/CharityDonation.sol\":5091:5098  _amount */\n      dup1\n        /* \"contracts/CharityDonation.sol\":5032:5041  campaigns */\n      0x01\n        /* \"contracts/CharityDonation.sol\":5032:5059  campaigns[_campaignAddress] */\n      0x00\n        /* \"contracts/CharityDonation.sol\":5042:5058  _campaignAddress */\n      dup6\n        /* \"contracts/CharityDonation.sol\":5032:5059  campaigns[_campaignAddress] */\n      0xffffffffffffffffffffffffffffffffffffffff\n      and\n      0xffffffffffffffffffffffffffffffffffffffff\n      and\n      dup2\n      mstore\n      0x20\n      add\n      swap1\n      dup2\n      mstore\n      0x20\n      add\n      0x00\n      keccak256\n        /* \"contracts/CharityDonation.sol\":5072:5073  1 */\n      0x01\n        /* \"contracts/CharityDonation.sol\":5060:5071  _campaignId */\n      dup5\n        /* \"contracts/CharityDonation.sol\":5060:5073  _campaignId-1 */\n      tag_172\n      swap2\n      swap1\n      tag_144\n      jump\t// in\n    tag_172:\n        /* \"contracts/CharityDonation.sol\":5032:5074  campaigns[_campaignAddress][_campaignId-1] */\n      dup2\n      sload\n      dup2\n      lt\n      tag_173\n      jumpi\n      tag_174\n      tag_147\n      jump\t// in\n    tag_174:\n    tag_173:\n      swap1\n      0x00\n      mstore\n      keccak256(0x00, 0x20)\n      swap1\n      0x07\n      mul\n      add\n        /* \"contracts/CharityDonation.sol\":5032:5087  campaigns[_campaignAddress][_campaignId-1].raisedAmount */\n      0x05\n      add\n      0x00\n        /* \"contracts/CharityDonation.sol\":5032:5098  campaigns[_campaignAddress][_campaignId-1].raisedAmount += _amount */\n      dup3\n      dup3\n      sload\n      tag_176\n      swap2\n      swap1\n      tag_177\n      jump\t// in\n    tag_176:\n      swap3\n      pop\n      pop\n      dup2\n      swap1\n      sstore\n      pop\n        /* \"contracts/CharityDonation.sol\":5250:5259  campaigns */\n      0x01\n        /* \"contracts/CharityDonation.sol\":5250:5277  campaigns[_campaignAddress] */\n      0x00\n        /* \"contracts/CharityDonation.sol\":5260:5276  _campaignAddress */\n      dup5\n        /* \"contracts/CharityDonation.sol\":5250:5277  campaigns[_campaignAddress] */\n      0xffffffffffffffffffffffffffffffffffffffff\n      and\n      0xffffffffffffffffffffffffffffffffffffffff\n      and\n      dup2\n      mstore\n      0x20\n      add\n      swap1\n      dup2\n      mstore\n      0x20\n      add\n      0x00\n      keccak256\n        /* \"contracts/CharityDonation.sol\":5290:5291  1 */\n      0x01\n        /* \"contracts/CharityDonation.sol\":5278:5289  _campaignId */\n      dup4\n        /* \"contracts/CharityDonation.sol\":5278:5291  _campaignId-1 */\n      tag_178\n      swap2\n      swap1\n      tag_144\n      jump\t// in\n    tag_178:\n        /* \"contracts/CharityDonation.sol\":5250:5292  campaigns[_campaignAddress][_campaignId-1] */\n      dup2\n      sload\n      dup2\n      lt\n      tag_179\n      jumpi\n      tag_180\n      tag_147\n      jump\t// in\n    tag_180:\n    tag_179:\n      swap1\n      0x00\n      mstore\n      keccak256(0x00, 0x20)\n      swap1\n      0x07\n      mul\n      add\n        /* \"contracts/CharityDonation.sol\":5250:5305  campaigns[_campaignAddress][_campaignId-1].targetAmount */\n      0x04\n      add\n      sload\n        /* \"contracts/CharityDonation.sol\":5191:5200  campaigns */\n      0x01\n        /* \"contracts/CharityDonation.sol\":5191:5218  campaigns[_campaignAddress] */\n      0x00\n        /* \"contracts/CharityDonation.sol\":5201:5217  _campaignAddress */\n      dup6\n        /* \"contracts/CharityDonation.sol\":5191:5218  campaigns[_campaignAddress] */\n      0xffffffffffffffffffffffffffffffffffffffff\n      and\n      0xffffffffffffffffffffffffffffffffffffffff\n      and\n      dup2\n      mstore\n      0x20\n      add\n      swap1\n      dup2\n      mstore\n      0x20\n      add\n      0x00\n      keccak256\n        /* \"contracts/CharityDonation.sol\":5231:5232  1 */\n      0x01\n        /* \"contracts/CharityDonation.sol\":5219:5230  _campaignId */\n      dup5\n        /* \"contracts/CharityDonation.sol\":5219:5232  _campaignId-1 */\n      tag_182\n      swap2\n      swap1\n      tag_144\n      jump\t// in\n    tag_182:\n        /* \"contracts/CharityDonation.sol\":5191:5233  campaigns[_campaignAddress][_campaignId-1] */\n      dup2\n      sload\n      dup2\n      lt\n      tag_183\n      jumpi\n      tag_184\n      tag_147\n      jump\t// in\n    tag_184:\n    tag_183:\n      swap1\n      0x00\n      mstore\n      keccak256(0x00, 0x20)\n      swap1\n      0x07\n      mul\n      add\n        /* \"contracts/CharityDonation.sol\":5191:5246  campaigns[_campaignAddress][_campaignId-1].raisedAmount */\n      0x05\n      add\n      sload\n        /* \"contracts/CharityDonation.sol\":5191:5305  campaigns[_campaignAddress][_campaignId-1].raisedAmount >= campaigns[_campaignAddress][_campaignId-1].targetAmount */\n      lt\n        /* \"contracts/CharityDonation.sol\":5187:5467  if (campaigns[_campaignAddress][_campaignId-1].raisedAmount >= campaigns[_campaignAddress][_campaignId-1].targetAmount) {... */\n      tag_186\n      jumpi\n        /* \"contracts/CharityDonation.sol\":5379:5383  true */\n      0x01\n        /* \"contracts/CharityDonation.sol\":5322:5331  campaigns */\n      dup1\n        /* \"contracts/CharityDonation.sol\":5322:5349  campaigns[_campaignAddress] */\n      0x00\n        /* \"contracts/CharityDonation.sol\":5332:5348  _campaignAddress */\n      dup6\n        /* \"contracts/CharityDonation.sol\":5322:5349  campaigns[_campaignAddress] */\n      0xffffffffffffffffffffffffffffffffffffffff\n      and\n      0xffffffffffffffffffffffffffffffffffffffff\n      and\n      dup2\n      mstore\n      0x20\n      add\n      swap1\n      dup2\n      mstore\n      0x20\n      add\n      0x00\n      keccak256\n        /* \"contracts/CharityDonation.sol\":5362:5363  1 */\n      0x01\n        /* \"contracts/CharityDonation.sol\":5350:5361  _campaignId */\n      dup5\n        /* \"contracts/CharityDonation.sol\":5350:5363  _campaignId-1 */\n      tag_187\n      swap2\n      swap1\n      tag_144\n      jump\t// in\n    tag_187:\n        /* \"contracts/CharityDonation.sol\":5322:5364  campaigns[_campaignAddress][_campaignId-1] */\n      dup2\n      sload\n      dup2\n      lt\n      tag_188\n      jumpi\n      tag_189\n      tag_147\n      jump\t// in\n    tag_189:\n    tag_188:\n      swap1\n      0x00\n      mstore\n      keccak256(0x00, 0x20)\n      swap1\n      0x07\n      mul\n      add\n        /* \"contracts/CharityDonation.sol\":5322:5376  campaigns[_campaignAddress][_campaignId-1].isCompleted */\n      0x06\n      add\n      0x00\n        /* \"contracts/CharityDonation.sol\":5322:5383  campaigns[_campaignAddress][_campaignId-1].isCompleted = true */\n      0x0100\n      exp\n      dup2\n      sload\n      dup2\n      0xff\n      mul\n      not\n      and\n      swap1\n      dup4\n      iszero\n      iszero\n      mul\n      or\n      swap1\n      sstore\n      pop\n        /* \"contracts/CharityDonation.sol\":5407:5455  CampaignCompleted(_campaignAddress, _campaignId) */\n      0x8559b4dc0428ef20b1a5974fff4845e3163bfbec589128d75c7da62148fbd8ae\n        /* \"contracts/CharityDonation.sol\":5425:5441  _campaignAddress */\n      dup4\n        /* \"contracts/CharityDonation.sol\":5443:5454  _campaignId */\n      dup4\n        /* \"contracts/CharityDonation.sol\":5407:5455  CampaignCompleted(_campaignAddress, _campaignId) */\n      mload(0x40)\n      tag_191\n      swap3\n      swap2\n      swap1\n      tag_192\n      jump\t// in\n    tag_191:\n      mload(0x40)\n      dup1\n      swap2\n      sub\n      swap1\n      log1\n        /* \"contracts/CharityDonation.sol\":5187:5467  if (campaigns[_campaignAddress][_campaignId-1].raisedAmount >= campaigns[_campaignAddress][_campaignId-1].targetAmount) {... */\n    tag_186:\n        /* \"contracts/CharityDonation.sol\":5520:5547  Donation memory newDonation */\n      0x00\n        /* \"contracts/CharityDonation.sol\":5550:5758  Donation({... */\n      mload(0x40)\n      dup1\n      0x80\n      add\n      0x40\n      mstore\n      dup1\n        /* \"contracts/CharityDonation.sol\":5591:5607  _campaignAddress */\n      dup6\n        /* \"contracts/CharityDonation.sol\":5550:5758  Donation({... */\n      0xffffffffffffffffffffffffffffffffffffffff\n      and\n      dup2\n      mstore\n      0x20\n      add\n        /* \"contracts/CharityDonation.sol\":5634:5645  _campaignId */\n      dup5\n        /* \"contracts/CharityDonation.sol\":5550:5758  Donation({... */\n      dup2\n      mstore\n      0x20\n      add\n        /* \"contracts/CharityDonation.sol\":5668:5677  campaigns */\n      0x01\n        /* \"contracts/CharityDonation.sol\":5668:5695  campaigns[_campaignAddress] */\n      0x00\n        /* \"contracts/CharityDonation.sol\":5678:5694  _campaignAddress */\n      dup8\n        /* \"contracts/CharityDonation.sol\":5668:5695  campaigns[_campaignAddress] */\n      0xffffffffffffffffffffffffffffffffffffffff\n      and\n      0xffffffffffffffffffffffffffffffffffffffff\n      and\n      dup2\n      mstore\n      0x20\n      add\n      swap1\n      dup2\n      mstore\n      0x20\n      add\n      0x00\n      keccak256\n        /* \"contracts/CharityDonation.sol\":5708:5709  1 */\n      0x01\n        /* \"contracts/CharityDonation.sol\":5696:5707  _campaignId */\n      dup7\n        /* \"contracts/CharityDonation.sol\":5696:5709  _campaignId-1 */\n      tag_193\n      swap2\n      swap1\n      tag_144\n      jump\t// in\n    tag_193:\n        /* \"contracts/CharityDonation.sol\":5668:5710  campaigns[_campaignAddress][_campaignId-1] */\n      dup2\n      sload\n      dup2\n      lt\n      tag_194\n      jumpi\n      tag_195\n      tag_147\n      jump\t// in\n    tag_195:\n    tag_194:\n      swap1\n      0x00\n      mstore\n      keccak256(0x00, 0x20)\n      swap1\n      0x07\n      mul\n      add\n        /* \"contracts/CharityDonation.sol\":5668:5716  campaigns[_campaignAddress][_campaignId-1].title */\n      0x01\n      add\n        /* \"contracts/CharityDonation.sol\":5550:5758  Donation({... */\n      dup1\n      sload\n      tag_197\n      swap1\n      tag_106\n      jump\t// in\n    tag_197:\n      dup1\n      0x1f\n      add\n      0x20\n      dup1\n      swap2\n      div\n      mul\n      0x20\n      add\n      mload(0x40)\n      swap1\n      dup2\n      add\n      0x40\n      mstore\n      dup1\n      swap3\n      swap2\n      swap1\n      dup2\n      dup2\n      mstore\n      0x20\n      add\n      dup3\n      dup1\n      sload\n      tag_198\n      swap1\n      tag_106\n      jump\t// in\n    tag_198:\n      dup1\n      iszero\n      tag_199\n      jumpi\n      dup1\n      0x1f\n      lt\n      tag_200\n      jumpi\n      0x0100\n      dup1\n      dup4\n      sload\n      div\n      mul\n      dup4\n      mstore\n      swap2\n      0x20\n      add\n      swap2\n      jump(tag_199)\n    tag_200:\n      dup3\n      add\n      swap2\n      swap1\n      0x00\n      mstore\n      keccak256(0x00, 0x20)\n      swap1\n    tag_201:\n      dup2\n      sload\n      dup2\n      mstore\n      swap1\n      0x01\n      add\n      swap1\n      0x20\n      add\n      dup1\n      dup4\n      gt\n      tag_201\n      jumpi\n      dup3\n      swap1\n      sub\n      0x1f\n      and\n      dup3\n      add\n      swap2\n    tag_199:\n      pop\n      pop\n      pop\n      pop\n      pop\n      dup2\n      mstore\n      0x20\n      add\n        /* \"contracts/CharityDonation.sol\":5739:5746  _amount */\n      dup4\n        /* \"contracts/CharityDonation.sol\":5550:5758  Donation({... */\n      dup2\n      mstore\n      pop\n        /* \"contracts/CharityDonation.sol\":5520:5758  Donation memory newDonation = Donation({... */\n      swap1\n      pop\n        /* \"contracts/CharityDonation.sol\":5769:5775  donors */\n      0x04\n        /* \"contracts/CharityDonation.sol\":5769:5787  donors[msg.sender] */\n      0x00\n        /* \"contracts/CharityDonation.sol\":5776:5786  msg.sender */\n      caller\n        /* \"contracts/CharityDonation.sol\":5769:5787  donors[msg.sender] */\n      0xffffffffffffffffffffffffffffffffffffffff\n      and\n      0xffffffffffffffffffffffffffffffffffffffff\n      and\n      dup2\n      mstore\n      0x20\n      add\n      swap1\n      dup2\n      mstore\n      0x20\n      add\n      0x00\n      keccak256\n        /* \"contracts/CharityDonation.sol\":5793:5804  newDonation */\n      dup2\n        /* \"contracts/CharityDonation.sol\":5769:5805  donors[msg.sender].push(newDonation) */\n      swap1\n      dup1\n      0x01\n      dup2\n      sload\n      add\n      dup1\n      dup3\n      sstore\n      dup1\n      swap2\n      pop\n      pop\n      0x01\n      swap1\n      sub\n      swap1\n      0x00\n      mstore\n      keccak256(0x00, 0x20)\n      swap1\n      0x04\n      mul\n      add\n      0x00\n      swap1\n      swap2\n      swap1\n      swap2\n      swap1\n      swap2\n      pop\n      0x00\n      dup3\n      add\n      mload\n      dup2\n      0x00\n      add\n      exp(0x0100, 0x00)\n      dup2\n      sload\n      dup2\n      0xffffffffffffffffffffffffffffffffffffffff\n      mul\n      not\n      and\n      swap1\n      dup4\n      0xffffffffffffffffffffffffffffffffffffffff\n      and\n      mul\n      or\n      swap1\n      sstore\n      pop\n      0x20\n      dup3\n      add\n      mload\n      dup2\n      0x01\n      add\n      sstore\n      0x40\n      dup3\n      add\n      mload\n      dup2\n      0x02\n      add\n      swap1\n      dup2\n      tag_203\n      swap2\n      swap1\n      tag_204\n      jump\t// in\n    tag_203:\n      pop\n      0x60\n      dup3\n      add\n      mload\n      dup2\n      0x03\n      add\n      sstore\n      pop\n      pop\n        /* \"contracts/CharityDonation.sol\":5845:5913  DonationReceived(msg.sender, _amount, _campaignAddress, _campaignId) */\n      0xbe0281dcb233d52d4d243d0d6ff4ed47e8641aecf85b98611ade1c9307186b7d\n        /* \"contracts/CharityDonation.sol\":5862:5872  msg.sender */\n      caller\n        /* \"contracts/CharityDonation.sol\":5874:5881  _amount */\n      dup4\n        /* \"contracts/CharityDonation.sol\":5883:5899  _campaignAddress */\n      dup7\n        /* \"contracts/CharityDonation.sol\":5901:5912  _campaignId */\n      dup7\n        /* \"contracts/CharityDonation.sol\":5845:5913  DonationReceived(msg.sender, _amount, _campaignAddress, _campaignId) */\n      mload(0x40)\n      tag_205\n      swap5\n      swap4\n      swap3\n      swap2\n      swap1\n      tag_206\n      jump\t// in\n    tag_205:\n      mload(0x40)\n      dup1\n      swap2\n      sub\n      swap1\n      log1\n        /* \"contracts/CharityDonation.sol\":4256:5923  {... */\n      pop\n        /* \"contracts/CharityDonation.sol\":4141:5923  function donateToCampaign(address payable  _campaignAddress, uint256 _campaignId, uint256 _amount) public payable  {... */\n      pop\n      pop\n      pop\n      jump\t// out\n        /* \"contracts/CharityDonation.sol\":5960:6067  function getContractBalance() public view returns (uint256) {... */\n    tag_60:\n        /* \"contracts/CharityDonation.sol\":6011:6018  uint256 */\n      0x00\n        /* \"contracts/CharityDonation.sol\":6038:6059  address(this).balance */\n      selfbalance\n        /* \"contracts/CharityDonation.sol\":6031:6059  return address(this).balance */\n      swap1\n      pop\n        /* \"contracts/CharityDonation.sol\":5960:6067  function getContractBalance() public view returns (uint256) {... */\n      swap1\n      jump\t// out\n        /* \"contracts/CharityDonation.sol\":1194:1239  mapping (address => Donation[]) public donors */\n    tag_66:\n      mstore(0x20, 0x04)\n      dup2\n      0x00\n      mstore\n      keccak256(0x00, 0x40)\n      dup2\n      dup2\n      sload\n      dup2\n      lt\n      tag_208\n      jumpi\n      0x00\n      dup1\n      revert\n    tag_208:\n      swap1\n      0x00\n      mstore\n      keccak256(0x00, 0x20)\n      swap1\n      0x04\n      mul\n      add\n      0x00\n      swap2\n      pop\n      swap2\n      pop\n      pop\n      dup1\n      0x00\n      add\n      0x00\n      swap1\n      sload\n      swap1\n      0x0100\n      exp\n      swap1\n      div\n      0xffffffffffffffffffffffffffffffffffffffff\n      and\n      swap1\n      dup1\n      0x01\n      add\n      sload\n      swap1\n      dup1\n      0x02\n      add\n      dup1\n      sload\n      tag_210\n      swap1\n      tag_106\n      jump\t// in\n    tag_210:\n      dup1\n      0x1f\n      add\n      0x20\n      dup1\n      swap2\n      div\n      mul\n      0x20\n      add\n      mload(0x40)\n      swap1\n      dup2\n      add\n      0x40\n      mstore\n      dup1\n      swap3\n      swap2\n      swap1\n      dup2\n      dup2\n      mstore\n      0x20\n      add\n      dup3\n      dup1\n      sload\n      tag_211\n      swap1\n      tag_106\n      jump\t// in\n    tag_211:\n      dup1\n      iszero\n      tag_212\n      jumpi\n      dup1\n      0x1f\n      lt\n      tag_213\n      jumpi\n      0x0100\n      dup1\n      dup4\n      sload\n      div\n      mul\n      dup4\n      mstore\n      swap2\n      0x20\n      add\n      swap2\n      jump(tag_212)\n    tag_213:\n      dup3\n      add\n      swap2\n      swap1\n      0x00\n      mstore\n      keccak256(0x00, 0x20)\n      swap1\n    tag_214:\n      dup2\n      sload\n      dup2\n      mstore\n      swap1\n      0x01\n      add\n      swap1\n      0x20\n      add\n      dup1\n      dup4\n      gt\n      tag_214\n      jumpi\n      dup3\n      swap1\n      sub\n      0x1f\n      and\n      dup3\n      add\n      swap2\n    tag_212:\n      pop\n      pop\n      pop\n      pop\n      pop\n      swap1\n      dup1\n      0x03\n      add\n      sload\n      swap1\n      pop\n      dup5\n      jump\t// out\n        /* \"contracts/CharityDonation.sol\":973:1034  mapping  (address => mapping (address => bool)) public admins */\n    tag_73:\n      mstore(0x20, 0x02)\n      dup2\n      0x00\n      mstore\n      mstore(0x20, keccak256(0x00, 0x40))\n      dup1\n      0x00\n      mstore\n      keccak256(0x00, 0x40)\n      0x00\n      swap2\n      pop\n      swap2\n      pop\n      swap1\n      sload\n      swap1\n      0x0100\n      exp\n      swap1\n      div\n      0xff\n      and\n      dup2\n      jump\t// out\n        /* \"contracts/CharityDonation.sol\":6097:7627  function withdrawFunds(uint256 _campaignId, address _campaignAddress,uint256 _amount, address payable _to) external onlyWithdraw(_campaignAddress, _campaignId) {... */\n    tag_80:\n        /* \"contracts/CharityDonation.sol\":6226:6242  _campaignAddress */\n      dup3\n        /* \"contracts/CharityDonation.sol\":6244:6255  _campaignId */\n      dup5\n        /* \"contracts/CharityDonation.sol\":2496:2497  0 */\n      0x00\n        /* \"contracts/CharityDonation.sol\":2459:2468  campaigns */\n      0x01\n        /* \"contracts/CharityDonation.sol\":2459:2486  campaigns[_campaignAddress] */\n      0x00\n        /* \"contracts/CharityDonation.sol\":2469:2485  _campaignAddress */\n      dup5\n        /* \"contracts/CharityDonation.sol\":2459:2486  campaigns[_campaignAddress] */\n      0xffffffffffffffffffffffffffffffffffffffff\n      and\n      0xffffffffffffffffffffffffffffffffffffffff\n      and\n      dup2\n      mstore\n      0x20\n      add\n      swap1\n      dup2\n      mstore\n      0x20\n      add\n      0x00\n      keccak256\n        /* \"contracts/CharityDonation.sol\":2459:2493  campaigns[_campaignAddress].length */\n      dup1\n      sload\n      swap1\n      pop\n        /* \"contracts/CharityDonation.sol\":2459:2497  campaigns[_campaignAddress].length > 0 */\n      gt\n        /* \"contracts/CharityDonation.sol\":2451:2539  require(campaigns[_campaignAddress].length > 0, \"There Is No Campaign By That address!\") */\n      tag_216\n      jumpi\n      mload(0x40)\n      0x08c379a000000000000000000000000000000000000000000000000000000000\n      dup2\n      mstore\n      0x04\n      add\n      tag_217\n      swap1\n      tag_218\n      jump\t// in\n    tag_217:\n      mload(0x40)\n      dup1\n      swap2\n      sub\n      swap1\n      revert\n    tag_216:\n        /* \"contracts/CharityDonation.sol\":2662:2673  _campaignId */\n      dup1\n        /* \"contracts/CharityDonation.sol\":2604:2613  campaigns */\n      0x01\n        /* \"contracts/CharityDonation.sol\":2604:2631  campaigns[_campaignAddress] */\n      0x00\n        /* \"contracts/CharityDonation.sol\":2614:2630  _campaignAddress */\n      dup5\n        /* \"contracts/CharityDonation.sol\":2604:2631  campaigns[_campaignAddress] */\n      0xffffffffffffffffffffffffffffffffffffffff\n      and\n      0xffffffffffffffffffffffffffffffffffffffff\n      and\n      dup2\n      mstore\n      0x20\n      add\n      swap1\n      dup2\n      mstore\n      0x20\n      add\n      0x00\n      keccak256\n        /* \"contracts/CharityDonation.sol\":2644:2645  1 */\n      0x01\n        /* \"contracts/CharityDonation.sol\":2632:2643  _campaignId */\n      dup4\n        /* \"contracts/CharityDonation.sol\":2632:2645  _campaignId-1 */\n      tag_219\n      swap2\n      swap1\n      tag_144\n      jump\t// in\n    tag_219:\n        /* \"contracts/CharityDonation.sol\":2604:2646  campaigns[_campaignAddress][_campaignId-1] */\n      dup2\n      sload\n      dup2\n      lt\n      tag_220\n      jumpi\n      tag_221\n      tag_147\n      jump\t// in\n    tag_221:\n    tag_220:\n      swap1\n      0x00\n      mstore\n      keccak256(0x00, 0x20)\n      swap1\n      0x07\n      mul\n      add\n        /* \"contracts/CharityDonation.sol\":2604:2658  campaigns[_campaignAddress][_campaignId-1].campaign_id */\n      0x00\n      add\n      sload\n        /* \"contracts/CharityDonation.sol\":2604:2673  campaigns[_campaignAddress][_campaignId-1].campaign_id == _campaignId */\n      eq\n        /* \"contracts/CharityDonation.sol\":2596:2715  require(campaigns[_campaignAddress][_campaignId-1].campaign_id == _campaignId,\"The Campaign Specified Does Not Exist!\") */\n      tag_223\n      jumpi\n      mload(0x40)\n      0x08c379a000000000000000000000000000000000000000000000000000000000\n      dup2\n      mstore\n      0x04\n      add\n      tag_224\n      swap1\n      tag_225\n      jump\t// in\n    tag_224:\n      mload(0x40)\n      dup1\n      swap2\n      sub\n      swap1\n      revert\n    tag_223:\n        /* \"contracts/CharityDonation.sol\":2771:2777  admins */\n      0x02\n        /* \"contracts/CharityDonation.sol\":2771:2795  admins[_campaignAddress] */\n      0x00\n        /* \"contracts/CharityDonation.sol\":2778:2794  _campaignAddress */\n      dup4\n        /* \"contracts/CharityDonation.sol\":2771:2795  admins[_campaignAddress] */\n      0xffffffffffffffffffffffffffffffffffffffff\n      and\n      0xffffffffffffffffffffffffffffffffffffffff\n      and\n      dup2\n      mstore\n      0x20\n      add\n      swap1\n      dup2\n      mstore\n      0x20\n      add\n      0x00\n      keccak256\n        /* \"contracts/CharityDonation.sol\":2771:2807  admins[_campaignAddress][msg.sender] */\n      0x00\n        /* \"contracts/CharityDonation.sol\":2796:2806  msg.sender */\n      caller\n        /* \"contracts/CharityDonation.sol\":2771:2807  admins[_campaignAddress][msg.sender] */\n      0xffffffffffffffffffffffffffffffffffffffff\n      and\n      0xffffffffffffffffffffffffffffffffffffffff\n      and\n      dup2\n      mstore\n      0x20\n      add\n      swap1\n      dup2\n      mstore\n      0x20\n      add\n      0x00\n      keccak256\n      0x00\n      swap1\n      sload\n      swap1\n      0x0100\n      exp\n      swap1\n      div\n      0xff\n      and\n        /* \"contracts/CharityDonation.sol\":2763:2848  require(admins[_campaignAddress][msg.sender], \"Only Admins Can Perform This Action!\") */\n      tag_226\n      jumpi\n      mload(0x40)\n      0x08c379a000000000000000000000000000000000000000000000000000000000\n      dup2\n      mstore\n      0x04\n      add\n      tag_227\n      swap1\n      tag_228\n      jump\t// in\n    tag_227:\n      mload(0x40)\n      dup1\n      swap2\n      sub\n      swap1\n      revert\n    tag_226:\n        /* \"contracts/CharityDonation.sol\":6441:6442  0 */\n      0x00\n        /* \"contracts/CharityDonation.sol\":6431:6438  _amount */\n      dup5\n        /* \"contracts/CharityDonation.sol\":6431:6442  _amount > 0 */\n      gt\n        /* \"contracts/CharityDonation.sol\":6431:6512  _amount > 0 && _amount <= campaigns[_campaignAddress][_campaignId-1].raisedAmount */\n      dup1\n      iszero\n      tag_230\n      jumpi\n      pop\n        /* \"contracts/CharityDonation.sol\":6457:6466  campaigns */\n      0x01\n        /* \"contracts/CharityDonation.sol\":6457:6484  campaigns[_campaignAddress] */\n      0x00\n        /* \"contracts/CharityDonation.sol\":6467:6483  _campaignAddress */\n      dup7\n        /* \"contracts/CharityDonation.sol\":6457:6484  campaigns[_campaignAddress] */\n      0xffffffffffffffffffffffffffffffffffffffff\n      and\n      0xffffffffffffffffffffffffffffffffffffffff\n      and\n      dup2\n      mstore\n      0x20\n      add\n      swap1\n      dup2\n      mstore\n      0x20\n      add\n      0x00\n      keccak256\n        /* \"contracts/CharityDonation.sol\":6497:6498  1 */\n      0x01\n        /* \"contracts/CharityDonation.sol\":6485:6496  _campaignId */\n      dup8\n        /* \"contracts/CharityDonation.sol\":6485:6498  _campaignId-1 */\n      tag_231\n      swap2\n      swap1\n      tag_144\n      jump\t// in\n    tag_231:\n        /* \"contracts/CharityDonation.sol\":6457:6499  campaigns[_campaignAddress][_campaignId-1] */\n      dup2\n      sload\n      dup2\n      lt\n      tag_232\n      jumpi\n      tag_233\n      tag_147\n      jump\t// in\n    tag_233:\n    tag_232:\n      swap1\n      0x00\n      mstore\n      keccak256(0x00, 0x20)\n      swap1\n      0x07\n      mul\n      add\n        /* \"contracts/CharityDonation.sol\":6457:6512  campaigns[_campaignAddress][_campaignId-1].raisedAmount */\n      0x05\n      add\n      sload\n        /* \"contracts/CharityDonation.sol\":6446:6453  _amount */\n      dup5\n        /* \"contracts/CharityDonation.sol\":6446:6512  _amount <= campaigns[_campaignAddress][_campaignId-1].raisedAmount */\n      gt\n      iszero\n        /* \"contracts/CharityDonation.sol\":6431:6512  _amount > 0 && _amount <= campaigns[_campaignAddress][_campaignId-1].raisedAmount */\n    tag_230:\n        /* \"contracts/CharityDonation.sol\":6409:6591  require(... */\n      tag_235\n      jumpi\n      mload(0x40)\n      0x08c379a000000000000000000000000000000000000000000000000000000000\n      dup2\n      mstore\n      0x04\n      add\n      tag_236\n      swap1\n      tag_237\n      jump\t// in\n    tag_236:\n      mload(0x40)\n      dup1\n      swap2\n      sub\n      swap1\n      revert\n    tag_235:\n        /* \"contracts/CharityDonation.sol\":6624:6633  campaigns */\n      0x01\n        /* \"contracts/CharityDonation.sol\":6624:6651  campaigns[_campaignAddress] */\n      0x00\n        /* \"contracts/CharityDonation.sol\":6634:6650  _campaignAddress */\n      dup7\n        /* \"contracts/CharityDonation.sol\":6624:6651  campaigns[_campaignAddress] */\n      0xffffffffffffffffffffffffffffffffffffffff\n      and\n      0xffffffffffffffffffffffffffffffffffffffff\n      and\n      dup2\n      mstore\n      0x20\n      add\n      swap1\n      dup2\n      mstore\n      0x20\n      add\n      0x00\n      keccak256\n        /* \"contracts/CharityDonation.sol\":6664:6665  1 */\n      0x01\n        /* \"contracts/CharityDonation.sol\":6652:6663  _campaignId */\n      dup8\n        /* \"contracts/CharityDonation.sol\":6652:6665  _campaignId-1 */\n      tag_238\n      swap2\n      swap1\n      tag_144\n      jump\t// in\n    tag_238:\n        /* \"contracts/CharityDonation.sol\":6624:6666  campaigns[_campaignAddress][_campaignId-1] */\n      dup2\n      sload\n      dup2\n      lt\n      tag_239\n      jumpi\n      tag_240\n      tag_147\n      jump\t// in\n    tag_240:\n    tag_239:\n      swap1\n      0x00\n      mstore\n      keccak256(0x00, 0x20)\n      swap1\n      0x07\n      mul\n      add\n        /* \"contracts/CharityDonation.sol\":6624:6678  campaigns[_campaignAddress][_campaignId-1].isCompleted */\n      0x06\n      add\n      0x00\n      swap1\n      sload\n      swap1\n      0x0100\n      exp\n      swap1\n      div\n      0xff\n      and\n        /* \"contracts/CharityDonation.sol\":6602:6754  require(... */\n      tag_242\n      jumpi\n      mload(0x40)\n      0x08c379a000000000000000000000000000000000000000000000000000000000\n      dup2\n      mstore\n      0x04\n      add\n      tag_243\n      swap1\n      tag_244\n      jump\t// in\n    tag_243:\n      mload(0x40)\n      dup1\n      swap2\n      sub\n      swap1\n      revert\n    tag_242:\n        /* \"contracts/CharityDonation.sol\":6812:6819  _amount */\n      dup4\n        /* \"contracts/CharityDonation.sol\":6787:6808  address(this).balance */\n      selfbalance\n        /* \"contracts/CharityDonation.sol\":6787:6819  address(this).balance >= _amount */\n      lt\n      iszero\n        /* \"contracts/CharityDonation.sol\":6765:6876  require(... */\n      tag_245\n      jumpi\n      mload(0x40)\n      0x08c379a000000000000000000000000000000000000000000000000000000000\n      dup2\n      mstore\n      0x04\n      add\n      tag_246\n      swap1\n      tag_247\n      jump\t// in\n    tag_246:\n      mload(0x40)\n      dup1\n      swap2\n      sub\n      swap1\n      revert\n    tag_245:\n        /* \"contracts/CharityDonation.sol\":6982:6989  _amount */\n      dup4\n        /* \"contracts/CharityDonation.sol\":6923:6932  campaigns */\n      0x01\n        /* \"contracts/CharityDonation.sol\":6923:6950  campaigns[_campaignAddress] */\n      0x00\n        /* \"contracts/CharityDonation.sol\":6933:6949  _campaignAddress */\n      dup8\n        /* \"contracts/CharityDonation.sol\":6923:6950  campaigns[_campaignAddress] */\n      0xffffffffffffffffffffffffffffffffffffffff\n      and\n      0xffffffffffffffffffffffffffffffffffffffff\n      and\n      dup2\n      mstore\n      0x20\n      add\n      swap1\n      dup2\n      mstore\n      0x20\n      add\n      0x00\n      keccak256\n        /* \"contracts/CharityDonation.sol\":6963:6964  1 */\n      0x01\n        /* \"contracts/CharityDonation.sol\":6951:6962  _campaignId */\n      dup9\n        /* \"contracts/CharityDonation.sol\":6951:6964  _campaignId-1 */\n      tag_248\n      swap2\n      swap1\n      tag_144\n      jump\t// in\n    tag_248:\n        /* \"contracts/CharityDonation.sol\":6923:6965  campaigns[_campaignAddress][_campaignId-1] */\n      dup2\n      sload\n      dup2\n      lt\n      tag_249\n      jumpi\n      tag_250\n      tag_147\n      jump\t// in\n    tag_250:\n    tag_249:\n      swap1\n      0x00\n      mstore\n      keccak256(0x00, 0x20)\n      swap1\n      0x07\n      mul\n      add\n        /* \"contracts/CharityDonation.sol\":6923:6978  campaigns[_campaignAddress][_campaignId-1].raisedAmount */\n      0x05\n      add\n      0x00\n        /* \"contracts/CharityDonation.sol\":6923:6989  campaigns[_campaignAddress][_campaignId-1].raisedAmount -= _amount */\n      dup3\n      dup3\n      sload\n      tag_252\n      swap2\n      swap1\n      tag_144\n      jump\t// in\n    tag_252:\n      swap3\n      pop\n      pop\n      dup2\n      swap1\n      sstore\n      pop\n        /* \"contracts/CharityDonation.sol\":7050:7062  bool success */\n      0x00\n        /* \"contracts/CharityDonation.sol\":7068:7071  _to */\n      dup4\n        /* \"contracts/CharityDonation.sol\":7068:7076  _to.call */\n      0xffffffffffffffffffffffffffffffffffffffff\n      and\n        /* \"contracts/CharityDonation.sol\":7084:7091  _amount */\n      dup6\n        /* \"contracts/CharityDonation.sol\":7068:7096  _to.call{value: _amount}(\"\") */\n      mload(0x40)\n      tag_253\n      swap1\n      tag_254\n      jump\t// in\n    tag_253:\n      0x00\n      mload(0x40)\n      dup1\n      dup4\n      sub\n      dup2\n      dup6\n      dup8\n      gas\n      call\n      swap3\n      pop\n      pop\n      pop\n      returndatasize\n      dup1\n      0x00\n      dup2\n      eq\n      tag_257\n      jumpi\n      mload(0x40)\n      swap2\n      pop\n      and(add(returndatasize, 0x3f), not(0x1f))\n      dup3\n      add\n      0x40\n      mstore\n      returndatasize\n      dup3\n      mstore\n      returndatasize\n      0x00\n      0x20\n      dup5\n      add\n      returndatacopy\n      jump(tag_256)\n    tag_257:\n      0x60\n      swap2\n      pop\n    tag_256:\n      pop\n        /* \"contracts/CharityDonation.sol\":7049:7096  (bool success, ) = _to.call{value: _amount}(\"\") */\n      pop\n      swap1\n      pop\n        /* \"contracts/CharityDonation.sol\":7115:7122  success */\n      dup1\n        /* \"contracts/CharityDonation.sol\":7107:7142  require(success, \"Transfer failed\") */\n      tag_258\n      jumpi\n      mload(0x40)\n      0x08c379a000000000000000000000000000000000000000000000000000000000\n      dup2\n      mstore\n      0x04\n      add\n      tag_259\n      swap1\n      tag_260\n      jump\t// in\n    tag_259:\n      mload(0x40)\n      dup1\n      swap2\n      sub\n      swap1\n      revert\n    tag_258:\n        /* \"contracts/CharityDonation.sol\":7203:7235  Withdrawals memory newWithdrawal */\n      0x00\n        /* \"contracts/CharityDonation.sol\":7238:7452  Withdrawals ({... */\n      mload(0x40)\n      dup1\n      0xa0\n      add\n      0x40\n      mstore\n      dup1\n        /* \"contracts/CharityDonation.sol\":7278:7289  _campaignId */\n      dup10\n        /* \"contracts/CharityDonation.sol\":7238:7452  Withdrawals ({... */\n      dup2\n      mstore\n      0x20\n      add\n        /* \"contracts/CharityDonation.sol\":7311:7320  campaigns */\n      0x01\n        /* \"contracts/CharityDonation.sol\":7311:7338  campaigns[_campaignAddress] */\n      0x00\n        /* \"contracts/CharityDonation.sol\":7321:7337  _campaignAddress */\n      dup11\n        /* \"contracts/CharityDonation.sol\":7311:7338  campaigns[_campaignAddress] */\n      0xffffffffffffffffffffffffffffffffffffffff\n      and\n      0xffffffffffffffffffffffffffffffffffffffff\n      and\n      dup2\n      mstore\n      0x20\n      add\n      swap1\n      dup2\n      mstore\n      0x20\n      add\n      0x00\n      keccak256\n        /* \"contracts/CharityDonation.sol\":7351:7352  1 */\n      0x01\n        /* \"contracts/CharityDonation.sol\":7339:7350  _campaignId */\n      dup12\n        /* \"contracts/CharityDonation.sol\":7339:7352  _campaignId-1 */\n      tag_261\n      swap2\n      swap1\n      tag_144\n      jump\t// in\n    tag_261:\n        /* \"contracts/CharityDonation.sol\":7311:7353  campaigns[_campaignAddress][_campaignId-1] */\n      dup2\n      sload\n      dup2\n      lt\n      tag_262\n      jumpi\n      tag_263\n      tag_147\n      jump\t// in\n    tag_263:\n    tag_262:\n      swap1\n      0x00\n      mstore\n      keccak256(0x00, 0x20)\n      swap1\n      0x07\n      mul\n      add\n        /* \"contracts/CharityDonation.sol\":7311:7359  campaigns[_campaignAddress][_campaignId-1].title */\n      0x01\n      add\n        /* \"contracts/CharityDonation.sol\":7238:7452  Withdrawals ({... */\n      dup1\n      sload\n      tag_265\n      swap1\n      tag_106\n      jump\t// in\n    tag_265:\n      dup1\n      0x1f\n      add\n      0x20\n      dup1\n      swap2\n      div\n      mul\n      0x20\n      add\n      mload(0x40)\n      swap1\n      dup2\n      add\n      0x40\n      mstore\n      dup1\n      swap3\n      swap2\n      swap1\n      dup2\n      dup2\n      mstore\n      0x20\n      add\n      dup3\n      dup1\n      sload\n      tag_266\n      swap1\n      tag_106\n      jump\t// in\n    tag_266:\n      dup1\n      iszero\n      tag_267\n      jumpi\n      dup1\n      0x1f\n      lt\n      tag_268\n      jumpi\n      0x0100\n      dup1\n      dup4\n      sload\n      div\n      mul\n      dup4\n      mstore\n      swap2\n      0x20\n      add\n      swap2\n      jump(tag_267)\n    tag_268:\n      dup3\n      add\n      swap2\n      swap1\n      0x00\n      mstore\n      keccak256(0x00, 0x20)\n      swap1\n    tag_269:\n      dup2\n      sload\n      dup2\n      mstore\n      swap1\n      0x01\n      add\n      swap1\n      0x20\n      add\n      dup1\n      dup4\n      gt\n      tag_269\n      jumpi\n      dup3\n      swap1\n      sub\n      0x1f\n      and\n      dup3\n      add\n      swap2\n    tag_267:\n      pop\n      pop\n      pop\n      pop\n      pop\n      dup2\n      mstore\n      0x20\n      add\n        /* \"contracts/CharityDonation.sol\":7382:7389  _amount */\n      dup8\n        /* \"contracts/CharityDonation.sol\":7238:7452  Withdrawals ({... */\n      dup2\n      mstore\n      0x20\n      add\n        /* \"contracts/CharityDonation.sol\":7408:7418  msg.sender */\n      caller\n        /* \"contracts/CharityDonation.sol\":7238:7452  Withdrawals ({... */\n      0xffffffffffffffffffffffffffffffffffffffff\n      and\n      dup2\n      mstore\n      0x20\n      add\n        /* \"contracts/CharityDonation.sol\":7437:7440  _to */\n      dup7\n        /* \"contracts/CharityDonation.sol\":7238:7452  Withdrawals ({... */\n      0xffffffffffffffffffffffffffffffffffffffff\n      and\n      dup2\n      mstore\n      pop\n        /* \"contracts/CharityDonation.sol\":7203:7452  Withdrawals memory newWithdrawal = Withdrawals ({... */\n      swap1\n      pop\n        /* \"contracts/CharityDonation.sol\":7463:7474  withdrawals */\n      0x05\n        /* \"contracts/CharityDonation.sol\":7463:7492  withdrawals[_campaignAddress] */\n      0x00\n        /* \"contracts/CharityDonation.sol\":7475:7491  _campaignAddress */\n      dup9\n        /* \"contracts/CharityDonation.sol\":7463:7492  withdrawals[_campaignAddress] */\n      0xffffffffffffffffffffffffffffffffffffffff\n      and\n      0xffffffffffffffffffffffffffffffffffffffff\n      and\n      dup2\n      mstore\n      0x20\n      add\n      swap1\n      dup2\n      mstore\n      0x20\n      add\n      0x00\n      keccak256\n        /* \"contracts/CharityDonation.sol\":7498:7511  newWithdrawal */\n      dup2\n        /* \"contracts/CharityDonation.sol\":7463:7512  withdrawals[_campaignAddress].push(newWithdrawal) */\n      swap1\n      dup1\n      0x01\n      dup2\n      sload\n      add\n      dup1\n      dup3\n      sstore\n      dup1\n      swap2\n      pop\n      pop\n      0x01\n      swap1\n      sub\n      swap1\n      0x00\n      mstore\n      keccak256(0x00, 0x20)\n      swap1\n      0x05\n      mul\n      add\n      0x00\n      swap1\n      swap2\n      swap1\n      swap2\n      swap1\n      swap2\n      pop\n      0x00\n      dup3\n      add\n      mload\n      dup2\n      0x00\n      add\n      sstore\n      0x20\n      dup3\n      add\n      mload\n      dup2\n      0x01\n      add\n      swap1\n      dup2\n      tag_271\n      swap2\n      swap1\n      tag_204\n      jump\t// in\n    tag_271:\n      pop\n      0x40\n      dup3\n      add\n      mload\n      dup2\n      0x02\n      add\n      sstore\n      0x60\n      dup3\n      add\n      mload\n      dup2\n      0x03\n      add\n      exp(0x0100, 0x00)\n      dup2\n      sload\n      dup2\n      0xffffffffffffffffffffffffffffffffffffffff\n      mul\n      not\n      and\n      swap1\n      dup4\n      0xffffffffffffffffffffffffffffffffffffffff\n      and\n      mul\n      or\n      swap1\n      sstore\n      pop\n      0x80\n      dup3\n      add\n      mload\n      dup2\n      0x04\n      add\n      exp(0x0100, 0x00)\n      dup2\n      sload\n      dup2\n      0xffffffffffffffffffffffffffffffffffffffff\n      mul\n      not\n      and\n      swap1\n      dup4\n      0xffffffffffffffffffffffffffffffffffffffff\n      and\n      mul\n      or\n      swap1\n      sstore\n      pop\n      pop\n      pop\n        /* \"contracts/CharityDonation.sol\":7552:7619  FundsWithdrawn(_amount,msg.sender,_to,_campaignAddress,_campaignId) */\n      0xfb301322f68b8ea04d2b6a3ab0a1a0100d7be758e7ffa771d5539a256b92d10d\n        /* \"contracts/CharityDonation.sol\":7567:7574  _amount */\n      dup7\n        /* \"contracts/CharityDonation.sol\":7575:7585  msg.sender */\n      caller\n        /* \"contracts/CharityDonation.sol\":7586:7589  _to */\n      dup8\n        /* \"contracts/CharityDonation.sol\":7590:7606  _campaignAddress */\n      dup11\n        /* \"contracts/CharityDonation.sol\":7607:7618  _campaignId */\n      dup13\n        /* \"contracts/CharityDonation.sol\":7552:7619  FundsWithdrawn(_amount,msg.sender,_to,_campaignAddress,_campaignId) */\n      mload(0x40)\n      tag_272\n      swap6\n      swap5\n      swap4\n      swap3\n      swap2\n      swap1\n      tag_273\n      jump\t// in\n    tag_272:\n      mload(0x40)\n      dup1\n      swap2\n      sub\n      swap1\n      log1\n        /* \"contracts/CharityDonation.sol\":6257:7627  {... */\n      pop\n      pop\n        /* \"contracts/CharityDonation.sol\":6097:7627  function withdrawFunds(uint256 _campaignId, address _campaignAddress,uint256 _amount, address payable _to) external onlyWithdraw(_campaignAddress, _campaignId) {... */\n      pop\n      pop\n      pop\n      pop\n      pop\n      pop\n      jump\t// out\n        /* \"contracts/CharityDonation.sol\":8153:8302  function viewWithdrawals(address _campaignAddress) public view returns (Withdrawals[] memory) {... */\n    tag_84:\n        /* \"contracts/CharityDonation.sol\":8225:8245  Withdrawals[] memory */\n      0x60\n        /* \"contracts/CharityDonation.sol\":8265:8276  withdrawals */\n      0x05\n        /* \"contracts/CharityDonation.sol\":8265:8294  withdrawals[_campaignAddress] */\n      0x00\n        /* \"contracts/CharityDonation.sol\":8277:8293  _campaignAddress */\n      dup4\n        /* \"contracts/CharityDonation.sol\":8265:8294  withdrawals[_campaignAddress] */\n      0xffffffffffffffffffffffffffffffffffffffff\n      and\n      0xffffffffffffffffffffffffffffffffffffffff\n      and\n      dup2\n      mstore\n      0x20\n      add\n      swap1\n      dup2\n      mstore\n      0x20\n      add\n      0x00\n      keccak256\n        /* \"contracts/CharityDonation.sol\":8258:8294  return withdrawals[_campaignAddress] */\n      dup1\n      sload\n      dup1\n      0x20\n      mul\n      0x20\n      add\n      mload(0x40)\n      swap1\n      dup2\n      add\n      0x40\n      mstore\n      dup1\n      swap3\n      swap2\n      swap1\n      dup2\n      dup2\n      mstore\n      0x20\n      add\n      0x00\n      swap1\n    tag_275:\n      dup3\n      dup3\n      lt\n      iszero\n      tag_276\n      jumpi\n      dup4\n      dup3\n      swap1\n      0x00\n      mstore\n      keccak256(0x00, 0x20)\n      swap1\n      0x05\n      mul\n      add\n      mload(0x40)\n      dup1\n      0xa0\n      add\n      0x40\n      mstore\n      swap1\n      dup2\n      0x00\n      dup3\n      add\n      sload\n      dup2\n      mstore\n      0x20\n      add\n      0x01\n      dup3\n      add\n      dup1\n      sload\n      tag_278\n      swap1\n      tag_106\n      jump\t// in\n    tag_278:\n      dup1\n      0x1f\n      add\n      0x20\n      dup1\n      swap2\n      div\n      mul\n      0x20\n      add\n      mload(0x40)\n      swap1\n      dup2\n      add\n      0x40\n      mstore\n      dup1\n      swap3\n      swap2\n      swap1\n      dup2\n      dup2\n      mstore\n      0x20\n      add\n      dup3\n      dup1\n      sload\n      tag_279\n      swap1\n      tag_106\n      jump\t// in\n    tag_279:\n      dup1\n      iszero\n      tag_280\n      jumpi\n      dup1\n      0x1f\n      lt\n      tag_281\n      jumpi\n      0x0100\n      dup1\n      dup4\n      sload\n      div\n      mul\n      dup4\n      mstore\n      swap2\n      0x20\n      add\n      swap2\n      jump(tag_280)\n    tag_281:\n      dup3\n      add\n      swap2\n      swap1\n      0x00\n      mstore\n      keccak256(0x00, 0x20)\n      swap1\n    tag_282:\n      dup2\n      sload\n      dup2\n      mstore\n      swap1\n      0x01\n      add\n      swap1\n      0x20\n      add\n      dup1\n      dup4\n      gt\n      tag_282\n      jumpi\n      dup3\n      swap1\n      sub\n      0x1f\n      and\n      dup3\n      add\n      swap2\n    tag_280:\n      pop\n      pop\n      pop\n      pop\n      pop\n      dup2\n      mstore\n      0x20\n      add\n      0x02\n      dup3\n      add\n      sload\n      dup2\n      mstore\n      0x20\n      add\n      0x03\n      dup3\n      add\n      0x00\n      swap1\n      sload\n      swap1\n      0x0100\n      exp\n      swap1\n      div\n      0xffffffffffffffffffffffffffffffffffffffff\n      and\n      0xffffffffffffffffffffffffffffffffffffffff\n      and\n      0xffffffffffffffffffffffffffffffffffffffff\n      and\n      dup2\n      mstore\n      0x20\n      add\n      0x04\n      dup3\n      add\n      0x00\n      swap1\n      sload\n      swap1\n      0x0100\n      exp\n      swap1\n      div\n      0xffffffffffffffffffffffffffffffffffffffff\n      and\n      0xffffffffffffffffffffffffffffffffffffffff\n      and\n      0xffffffffffffffffffffffffffffffffffffffff\n      and\n      dup2\n      mstore\n      pop\n      pop\n      dup2\n      mstore\n      0x20\n      add\n      swap1\n      0x01\n      add\n      swap1\n      jump(tag_275)\n    tag_276:\n      pop\n      pop\n      pop\n      pop\n      swap1\n      pop\n        /* \"contracts/CharityDonation.sol\":8153:8302  function viewWithdrawals(address _campaignAddress) public view returns (Withdrawals[] memory) {... */\n      swap2\n      swap1\n      pop\n      jump\t// out\n        /* \"contracts/CharityDonation.sol\":8011:8120  function viewDonations() public view returns (Donation[] memory) {... */\n    tag_89:\n        /* \"contracts/CharityDonation.sol\":8057:8074  Donation[] memory */\n      0x60\n        /* \"contracts/CharityDonation.sol\":8094:8100  donors */\n      0x04\n        /* \"contracts/CharityDonation.sol\":8094:8112  donors[msg.sender] */\n      0x00\n        /* \"contracts/CharityDonation.sol\":8101:8111  msg.sender */\n      caller\n        /* \"contracts/CharityDonation.sol\":8094:8112  donors[msg.sender] */\n      0xffffffffffffffffffffffffffffffffffffffff\n      and\n      0xffffffffffffffffffffffffffffffffffffffff\n      and\n      dup2\n      mstore\n      0x20\n      add\n      swap1\n      dup2\n      mstore\n      0x20\n      add\n      0x00\n      keccak256\n        /* \"contracts/CharityDonation.sol\":8087:8112  return donors[msg.sender] */\n      dup1\n      sload\n      dup1\n      0x20\n      mul\n      0x20\n      add\n      mload(0x40)\n      swap1\n      dup2\n      add\n      0x40\n      mstore\n      dup1\n      swap3\n      swap2\n      swap1\n      dup2\n      dup2\n      mstore\n      0x20\n      add\n      0x00\n      swap1\n    tag_284:\n      dup3\n      dup3\n      lt\n      iszero\n      tag_285\n      jumpi\n      dup4\n      dup3\n      swap1\n      0x00\n      mstore\n      keccak256(0x00, 0x20)\n      swap1\n      0x04\n      mul\n      add\n      mload(0x40)\n      dup1\n      0x80\n      add\n      0x40\n      mstore\n      swap1\n      dup2\n      0x00\n      dup3\n      add\n      0x00\n      swap1\n      sload\n      swap1\n      0x0100\n      exp\n      swap1\n      div\n      0xffffffffffffffffffffffffffffffffffffffff\n      and\n      0xffffffffffffffffffffffffffffffffffffffff\n      and\n      0xffffffffffffffffffffffffffffffffffffffff\n      and\n      dup2\n      mstore\n      0x20\n      add\n      0x01\n      dup3\n      add\n      sload\n      dup2\n      mstore\n      0x20\n      add\n      0x02\n      dup3\n      add\n      dup1\n      sload\n      tag_287\n      swap1\n      tag_106\n      jump\t// in\n    tag_287:\n      dup1\n      0x1f\n      add\n      0x20\n      dup1\n      swap2\n      div\n      mul\n      0x20\n      add\n      mload(0x40)\n      swap1\n      dup2\n      add\n      0x40\n      mstore\n      dup1\n      swap3\n      swap2\n      swap1\n      dup2\n      dup2\n      mstore\n      0x20\n      add\n      dup3\n      dup1\n      sload\n      tag_288\n      swap1\n      tag_106\n      jump\t// in\n    tag_288:\n      dup1\n      iszero\n      tag_289\n      jumpi\n      dup1\n      0x1f\n      lt\n      tag_290\n      jumpi\n      0x0100\n      dup1\n      dup4\n      sload\n      div\n      mul\n      dup4\n      mstore\n      swap2\n      0x20\n      add\n      swap2\n      jump(tag_289)\n    tag_290:\n      dup3\n      add\n      swap2\n      swap1\n      0x00\n      mstore\n      keccak256(0x00, 0x20)\n      swap1\n    tag_291:\n      dup2\n      sload\n      dup2\n      mstore\n      swap1\n      0x01\n      add\n      swap1\n      0x20\n      add\n      dup1\n      dup4\n      gt\n      tag_291\n      jumpi\n      dup3\n      swap1\n      sub\n      0x1f\n      and\n      dup3\n      add\n      swap2\n    tag_289:\n      pop\n      pop\n      pop\n      pop\n      pop\n      dup2\n      mstore\n      0x20\n      add\n      0x03\n      dup3\n      add\n      sload\n      dup2\n      mstore\n      pop\n      pop\n      dup2\n      mstore\n      0x20\n      add\n      swap1\n      0x01\n      add\n      swap1\n      jump(tag_284)\n    tag_285:\n      pop\n      pop\n      pop\n      pop\n      swap1\n      pop\n        /* \"contracts/CharityDonation.sol\":8011:8120  function viewDonations() public view returns (Donation[] memory) {... */\n      swap1\n      jump\t// out\n        /* \"contracts/CharityDonation.sol\":2906:4100  function createCampaign(string memory _title, string memory _description,uint256 _target) public  {... */\n    tag_96:\n        /* \"contracts/CharityDonation.sol\":3088:3097  uint256 i */\n      0x00\n        /* \"contracts/CharityDonation.sol\":3084:3494  for(uint256 i; i < campaigns[msg.sender].length; i++) {... */\n    tag_293:\n        /* \"contracts/CharityDonation.sol\":3103:3112  campaigns */\n      0x01\n        /* \"contracts/CharityDonation.sol\":3103:3124  campaigns[msg.sender] */\n      0x00\n        /* \"contracts/CharityDonation.sol\":3113:3123  msg.sender */\n      caller\n        /* \"contracts/CharityDonation.sol\":3103:3124  campaigns[msg.sender] */\n      0xffffffffffffffffffffffffffffffffffffffff\n      and\n      0xffffffffffffffffffffffffffffffffffffffff\n      and\n      dup2\n      mstore\n      0x20\n      add\n      swap1\n      dup2\n      mstore\n      0x20\n      add\n      0x00\n      keccak256\n        /* \"contracts/CharityDonation.sol\":3103:3131  campaigns[msg.sender].length */\n      dup1\n      sload\n      swap1\n      pop\n        /* \"contracts/CharityDonation.sol\":3099:3100  i */\n      dup2\n        /* \"contracts/CharityDonation.sol\":3099:3131  i < campaigns[msg.sender].length */\n      lt\n        /* \"contracts/CharityDonation.sol\":3084:3494  for(uint256 i; i < campaigns[msg.sender].length; i++) {... */\n      iszero\n      tag_294\n      jumpi\n        /* \"contracts/CharityDonation.sol\":3157:3185  string storage campaignTitle */\n      0x00\n        /* \"contracts/CharityDonation.sol\":3188:3197  campaigns */\n      0x01\n        /* \"contracts/CharityDonation.sol\":3188:3209  campaigns[msg.sender] */\n      0x00\n        /* \"contracts/CharityDonation.sol\":3198:3208  msg.sender */\n      caller\n        /* \"contracts/CharityDonation.sol\":3188:3209  campaigns[msg.sender] */\n      0xffffffffffffffffffffffffffffffffffffffff\n      and\n      0xffffffffffffffffffffffffffffffffffffffff\n      and\n      dup2\n      mstore\n      0x20\n      add\n      swap1\n      dup2\n      mstore\n      0x20\n      add\n      0x00\n      keccak256\n        /* \"contracts/CharityDonation.sol\":3210:3211  i */\n      dup3\n        /* \"contracts/CharityDonation.sol\":3188:3212  campaigns[msg.sender][i] */\n      dup2\n      sload\n      dup2\n      lt\n      tag_296\n      jumpi\n      tag_297\n      tag_147\n      jump\t// in\n    tag_297:\n    tag_296:\n      swap1\n      0x00\n      mstore\n      keccak256(0x00, 0x20)\n      swap1\n      0x07\n      mul\n      add\n        /* \"contracts/CharityDonation.sol\":3188:3218  campaigns[msg.sender][i].title */\n      0x01\n      add\n        /* \"contracts/CharityDonation.sol\":3157:3218  string storage campaignTitle = campaigns[msg.sender][i].title */\n      swap1\n      pop\n        /* \"contracts/CharityDonation.sol\":3237:3248  bool exists */\n      0x00\n        /* \"contracts/CharityDonation.sol\":3324:3330  _title */\n      dup6\n        /* \"contracts/CharityDonation.sol\":3307:3331  abi.encodePacked(_title) */\n      add(0x20, mload(0x40))\n      tag_299\n      swap2\n      swap1\n      tag_300\n      jump\t// in\n    tag_299:\n      mload(0x40)\n      0x20\n      dup2\n      dup4\n      sub\n      sub\n      dup2\n      mstore\n      swap1\n      0x40\n      mstore\n        /* \"contracts/CharityDonation.sol\":3297:3332  keccak256(abi.encodePacked(_title)) */\n      dup1\n      mload\n      swap1\n      0x20\n      add\n      keccak256\n        /* \"contracts/CharityDonation.sol\":3278:3291  campaignTitle */\n      dup3\n        /* \"contracts/CharityDonation.sol\":3261:3292  abi.encodePacked(campaignTitle) */\n      add(0x20, mload(0x40))\n      tag_301\n      swap2\n      swap1\n      tag_302\n      jump\t// in\n    tag_301:\n      mload(0x40)\n      0x20\n      dup2\n      dup4\n      sub\n      sub\n      dup2\n      mstore\n      swap1\n      0x40\n      mstore\n        /* \"contracts/CharityDonation.sol\":3251:3293  keccak256(abi.encodePacked(campaignTitle)) */\n      dup1\n      mload\n      swap1\n      0x20\n      add\n      keccak256\n        /* \"contracts/CharityDonation.sol\":3251:3332  keccak256(abi.encodePacked(campaignTitle)) == keccak256(abi.encodePacked(_title)) */\n      eq\n        /* \"contracts/CharityDonation.sol\":3237:3332  bool exists = keccak256(abi.encodePacked(campaignTitle)) == keccak256(abi.encodePacked(_title)) */\n      swap1\n      pop\n        /* \"contracts/CharityDonation.sol\":3355:3361  exists */\n      dup1\n        /* \"contracts/CharityDonation.sol\":3351:3479  if (exists) {... */\n      iszero\n      tag_303\n      jumpi\n        /* \"contracts/CharityDonation.sol\":3430:3436  _title */\n      dup6\n        /* \"contracts/CharityDonation.sol\":3400:3457  abi.encodePacked(\"Campaign \", _title, \" already exists!\") */\n      add(0x20, mload(0x40))\n      tag_304\n      swap2\n      swap1\n      tag_305\n      jump\t// in\n    tag_304:\n      mload(0x40)\n      0x20\n      dup2\n      dup4\n      sub\n      sub\n      dup2\n      mstore\n      swap1\n      0x40\n      mstore\n        /* \"contracts/CharityDonation.sol\":3386:3459  revert(string(abi.encodePacked(\"Campaign \", _title, \" already exists!\"))) */\n      mload(0x40)\n      0x08c379a000000000000000000000000000000000000000000000000000000000\n      dup2\n      mstore\n      0x04\n      add\n      tag_306\n      swap2\n      swap1\n      tag_153\n      jump\t// in\n    tag_306:\n      mload(0x40)\n      dup1\n      swap2\n      sub\n      swap1\n      revert\n        /* \"contracts/CharityDonation.sol\":3351:3479  if (exists) {... */\n    tag_303:\n        /* \"contracts/CharityDonation.sol\":3138:3494  {... */\n      pop\n      pop\n        /* \"contracts/CharityDonation.sol\":3133:3136  i++ */\n      dup1\n      dup1\n      0x01\n      add\n      swap2\n      pop\n      pop\n        /* \"contracts/CharityDonation.sol\":3084:3494  for(uint256 i; i < campaigns[msg.sender].length; i++) {... */\n      jump(tag_293)\n    tag_294:\n      pop\n        /* \"contracts/CharityDonation.sol\":3544:3571  Campaign memory newCampaign */\n      0x00\n        /* \"contracts/CharityDonation.sol\":3575:3928  Campaign(... */\n      mload(0x40)\n      dup1\n      0xe0\n      add\n      0x40\n      mstore\n      dup1\n        /* \"contracts/CharityDonation.sol\":3662:3663  1 */\n      0x01\n        /* \"contracts/CharityDonation.sol\":3631:3640  campaigns */\n      dup1\n        /* \"contracts/CharityDonation.sol\":3631:3652  campaigns[msg.sender] */\n      0x00\n        /* \"contracts/CharityDonation.sol\":3641:3651  msg.sender */\n      caller\n        /* \"contracts/CharityDonation.sol\":3631:3652  campaigns[msg.sender] */\n      0xffffffffffffffffffffffffffffffffffffffff\n      and\n      0xffffffffffffffffffffffffffffffffffffffff\n      and\n      dup2\n      mstore\n      0x20\n      add\n      swap1\n      dup2\n      mstore\n      0x20\n      add\n      0x00\n      keccak256\n        /* \"contracts/CharityDonation.sol\":3631:3659  campaigns[msg.sender].length */\n      dup1\n      sload\n      swap1\n      pop\n        /* \"contracts/CharityDonation.sol\":3631:3663  campaigns[msg.sender].length + 1 */\n      tag_307\n      swap2\n      swap1\n      tag_177\n      jump\t// in\n    tag_307:\n        /* \"contracts/CharityDonation.sol\":3575:3928  Campaign(... */\n      dup2\n      mstore\n      0x20\n      add\n        /* \"contracts/CharityDonation.sol\":3689:3695  _title */\n      dup6\n        /* \"contracts/CharityDonation.sol\":3575:3928  Campaign(... */\n      dup2\n      mstore\n      0x20\n      add\n        /* \"contracts/CharityDonation.sol\":3727:3739  _description */\n      dup5\n        /* \"contracts/CharityDonation.sol\":3575:3928  Campaign(... */\n      dup2\n      mstore\n      0x20\n      add\n        /* \"contracts/CharityDonation.sol\":3776:3786  msg.sender */\n      caller\n        /* \"contracts/CharityDonation.sol\":3575:3928  Campaign(... */\n      0xffffffffffffffffffffffffffffffffffffffff\n      and\n      dup2\n      mstore\n      0x20\n      add\n        /* \"contracts/CharityDonation.sol\":3819:3826  _target */\n      dup4\n        /* \"contracts/CharityDonation.sol\":3575:3928  Campaign(... */\n      dup2\n      mstore\n      0x20\n      add\n        /* \"contracts/CharityDonation.sol\":3863:3864  0 */\n      0x00\n        /* \"contracts/CharityDonation.sol\":3575:3928  Campaign(... */\n      dup2\n      mstore\n      0x20\n      add\n        /* \"contracts/CharityDonation.sol\":3897:3902  false */\n      0x00\n        /* \"contracts/CharityDonation.sol\":3575:3928  Campaign(... */\n      iszero\n      iszero\n      dup2\n      mstore\n      pop\n        /* \"contracts/CharityDonation.sol\":3544:3928  Campaign memory newCampaign =  Campaign(... */\n      swap1\n      pop\n        /* \"contracts/CharityDonation.sol\":3939:3948  campaigns */\n      0x01\n        /* \"contracts/CharityDonation.sol\":3939:3960  campaigns[msg.sender] */\n      0x00\n        /* \"contracts/CharityDonation.sol\":3949:3959  msg.sender */\n      caller\n        /* \"contracts/CharityDonation.sol\":3939:3960  campaigns[msg.sender] */\n      0xffffffffffffffffffffffffffffffffffffffff\n      and\n      0xffffffffffffffffffffffffffffffffffffffff\n      and\n      dup2\n      mstore\n      0x20\n      add\n      swap1\n      dup2\n      mstore\n      0x20\n      add\n      0x00\n      keccak256\n        /* \"contracts/CharityDonation.sol\":3966:3977  newCampaign */\n      dup2\n        /* \"contracts/CharityDonation.sol\":3939:3978  campaigns[msg.sender].push(newCampaign) */\n      swap1\n      dup1\n      0x01\n      dup2\n      sload\n      add\n      dup1\n      dup3\n      sstore\n      dup1\n      swap2\n      pop\n      pop\n      0x01\n      swap1\n      sub\n      swap1\n      0x00\n      mstore\n      keccak256(0x00, 0x20)\n      swap1\n      0x07\n      mul\n      add\n      0x00\n      swap1\n      swap2\n      swap1\n      swap2\n      swap1\n      swap2\n      pop\n      0x00\n      dup3\n      add\n      mload\n      dup2\n      0x00\n      add\n      sstore\n      0x20\n      dup3\n      add\n      mload\n      dup2\n      0x01\n      add\n      swap1\n      dup2\n      tag_309\n      swap2\n      swap1\n      tag_204\n      jump\t// in\n    tag_309:\n      pop\n      0x40\n      dup3\n      add\n      mload\n      dup2\n      0x02\n      add\n      swap1\n      dup2\n      tag_310\n      swap2\n      swap1\n      tag_204\n      jump\t// in\n    tag_310:\n      pop\n      0x60\n      dup3\n      add\n      mload\n      dup2\n      0x03\n      add\n      exp(0x0100, 0x00)\n      dup2\n      sload\n      dup2\n      0xffffffffffffffffffffffffffffffffffffffff\n      mul\n      not\n      and\n      swap1\n      dup4\n      0xffffffffffffffffffffffffffffffffffffffff\n      and\n      mul\n      or\n      swap1\n      sstore\n      pop\n      0x80\n      dup3\n      add\n      mload\n      dup2\n      0x04\n      add\n      sstore\n      0xa0\n      dup3\n      add\n      mload\n      dup2\n      0x05\n      add\n      sstore\n      0xc0\n      dup3\n      add\n      mload\n      dup2\n      0x06\n      add\n      exp(0x0100, 0x00)\n      dup2\n      sload\n      dup2\n      0xff\n      mul\n      not\n      and\n      swap1\n      dup4\n      iszero\n      iszero\n      mul\n      or\n      swap1\n      sstore\n      pop\n      pop\n      pop\n        /* \"contracts/CharityDonation.sol\":4018:4092  CampaignCreated(campaigns[msg.sender].length, msg.sender, _title, _target) */\n      0x825fb10f7650ed27414d6f86acdf7d5946927d9b25001f045f1a2435deec02fe\n        /* \"contracts/CharityDonation.sol\":4034:4043  campaigns */\n      0x01\n        /* \"contracts/CharityDonation.sol\":4034:4055  campaigns[msg.sender] */\n      0x00\n        /* \"contracts/CharityDonation.sol\":4044:4054  msg.sender */\n      caller\n        /* \"contracts/CharityDonation.sol\":4034:4055  campaigns[msg.sender] */\n      0xffffffffffffffffffffffffffffffffffffffff\n      and\n      0xffffffffffffffffffffffffffffffffffffffff\n      and\n      dup2\n      mstore\n      0x20\n      add\n      swap1\n      dup2\n      mstore\n      0x20\n      add\n      0x00\n      keccak256\n        /* \"contracts/CharityDonation.sol\":4034:4062  campaigns[msg.sender].length */\n      dup1\n      sload\n      swap1\n      pop\n        /* \"contracts/CharityDonation.sol\":4064:4074  msg.sender */\n      caller\n        /* \"contracts/CharityDonation.sol\":4076:4082  _title */\n      dup7\n        /* \"contracts/CharityDonation.sol\":4084:4091  _target */\n      dup6\n        /* \"contracts/CharityDonation.sol\":4018:4092  CampaignCreated(campaigns[msg.sender].length, msg.sender, _title, _target) */\n      mload(0x40)\n      tag_311\n      swap5\n      swap4\n      swap3\n      swap2\n      swap1\n      tag_312\n      jump\t// in\n    tag_311:\n      mload(0x40)\n      dup1\n      swap2\n      sub\n      swap1\n      log1\n        /* \"contracts/CharityDonation.sol\":3004:4100  {... */\n      pop\n        /* \"contracts/CharityDonation.sol\":2906:4100  function createCampaign(string memory _title, string memory _description,uint256 _target) public  {... */\n      pop\n      pop\n      pop\n      jump\t// out\n        /* \"#utility.yul\":7:82   */\n    tag_313:\n        /* \"#utility.yul\":40:46   */\n      0x00\n        /* \"#utility.yul\":73:75   */\n      0x40\n        /* \"#utility.yul\":67:76   */\n      mload\n        /* \"#utility.yul\":57:76   */\n      swap1\n      pop\n        /* \"#utility.yul\":7:82   */\n      swap1\n      jump\t// out\n        /* \"#utility.yul\":88:205   */\n    tag_314:\n        /* \"#utility.yul\":197:198   */\n      0x00\n        /* \"#utility.yul\":194:195   */\n      dup1\n        /* \"#utility.yul\":187:199   */\n      revert\n        /* \"#utility.yul\":211:328   */\n    tag_315:\n        /* \"#utility.yul\":320:321   */\n      0x00\n        /* \"#utility.yul\":317:318   */\n      dup1\n        /* \"#utility.yul\":310:322   */\n      revert\n        /* \"#utility.yul\":334:460   */\n    tag_316:\n        /* \"#utility.yul\":371:378   */\n      0x00\n        /* \"#utility.yul\":411:453   */\n      0xffffffffffffffffffffffffffffffffffffffff\n        /* \"#utility.yul\":404:409   */\n      dup3\n        /* \"#utility.yul\":400:454   */\n      and\n        /* \"#utility.yul\":389:454   */\n      swap1\n      pop\n        /* \"#utility.yul\":334:460   */\n      swap2\n      swap1\n      pop\n      jump\t// out\n        /* \"#utility.yul\":466:562   */\n    tag_317:\n        /* \"#utility.yul\":503:510   */\n      0x00\n        /* \"#utility.yul\":532:556   */\n      tag_445\n        /* \"#utility.yul\":550:555   */\n      dup3\n        /* \"#utility.yul\":532:556   */\n      tag_316\n      jump\t// in\n    tag_445:\n        /* \"#utility.yul\":521:556   */\n      swap1\n      pop\n        /* \"#utility.yul\":466:562   */\n      swap2\n      swap1\n      pop\n      jump\t// out\n        /* \"#utility.yul\":568:690   */\n    tag_318:\n        /* \"#utility.yul\":641:665   */\n      tag_447\n        /* \"#utility.yul\":659:664   */\n      dup2\n        /* \"#utility.yul\":641:665   */\n      tag_317\n      jump\t// in\n    tag_447:\n        /* \"#utility.yul\":634:639   */\n      dup2\n        /* \"#utility.yul\":631:666   */\n      eq\n        /* \"#utility.yul\":621:684   */\n      tag_448\n      jumpi\n        /* \"#utility.yul\":680:681   */\n      0x00\n        /* \"#utility.yul\":677:678   */\n      dup1\n        /* \"#utility.yul\":670:682   */\n      revert\n        /* \"#utility.yul\":621:684   */\n    tag_448:\n        /* \"#utility.yul\":568:690   */\n      pop\n      jump\t// out\n        /* \"#utility.yul\":696:835   */\n    tag_319:\n        /* \"#utility.yul\":742:747   */\n      0x00\n        /* \"#utility.yul\":780:786   */\n      dup2\n        /* \"#utility.yul\":767:787   */\n      calldataload\n        /* \"#utility.yul\":758:787   */\n      swap1\n      pop\n        /* \"#utility.yul\":796:829   */\n      tag_450\n        /* \"#utility.yul\":823:828   */\n      dup2\n        /* \"#utility.yul\":796:829   */\n      tag_318\n      jump\t// in\n    tag_450:\n        /* \"#utility.yul\":696:835   */\n      swap3\n      swap2\n      pop\n      pop\n      jump\t// out\n        /* \"#utility.yul\":841:1170   */\n    tag_22:\n        /* \"#utility.yul\":900:906   */\n      0x00\n        /* \"#utility.yul\":949:951   */\n      0x20\n        /* \"#utility.yul\":937:946   */\n      dup3\n        /* \"#utility.yul\":928:935   */\n      dup5\n        /* \"#utility.yul\":924:947   */\n      sub\n        /* \"#utility.yul\":920:952   */\n      slt\n        /* \"#utility.yul\":917:1036   */\n      iszero\n      tag_452\n      jumpi\n        /* \"#utility.yul\":955:1034   */\n      tag_453\n      tag_314\n      jump\t// in\n    tag_453:\n        /* \"#utility.yul\":917:1036   */\n    tag_452:\n        /* \"#utility.yul\":1075:1076   */\n      0x00\n        /* \"#utility.yul\":1100:1153   */\n      tag_454\n        /* \"#utility.yul\":1145:1152   */\n      dup5\n        /* \"#utility.yul\":1136:1142   */\n      dup3\n        /* \"#utility.yul\":1125:1134   */\n      dup6\n        /* \"#utility.yul\":1121:1143   */\n      add\n        /* \"#utility.yul\":1100:1153   */\n      tag_319\n      jump\t// in\n    tag_454:\n        /* \"#utility.yul\":1090:1153   */\n      swap2\n      pop\n        /* \"#utility.yul\":1046:1163   */\n      pop\n        /* \"#utility.yul\":841:1170   */\n      swap3\n      swap2\n      pop\n      pop\n      jump\t// out\n        /* \"#utility.yul\":1176:1253   */\n    tag_320:\n        /* \"#utility.yul\":1213:1220   */\n      0x00\n        /* \"#utility.yul\":1242:1247   */\n      dup2\n        /* \"#utility.yul\":1231:1247   */\n      swap1\n      pop\n        /* \"#utility.yul\":1176:1253   */\n      swap2\n      swap1\n      pop\n      jump\t// out\n        /* \"#utility.yul\":1259:1381   */\n    tag_321:\n        /* \"#utility.yul\":1332:1356   */\n      tag_457\n        /* \"#utility.yul\":1350:1355   */\n      dup2\n        /* \"#utility.yul\":1332:1356   */\n      tag_320\n      jump\t// in\n    tag_457:\n        /* \"#utility.yul\":1325:1330   */\n      dup2\n        /* \"#utility.yul\":1322:1357   */\n      eq\n        /* \"#utility.yul\":1312:1375   */\n      tag_458\n      jumpi\n        /* \"#utility.yul\":1371:1372   */\n      0x00\n        /* \"#utility.yul\":1368:1369   */\n      dup1\n        /* \"#utility.yul\":1361:1373   */\n      revert\n        /* \"#utility.yul\":1312:1375   */\n    tag_458:\n        /* \"#utility.yul\":1259:1381   */\n      pop\n      jump\t// out\n        /* \"#utility.yul\":1387:1526   */\n    tag_322:\n        /* \"#utility.yul\":1433:1438   */\n      0x00\n        /* \"#utility.yul\":1471:1477   */\n      dup2\n        /* \"#utility.yul\":1458:1478   */\n      calldataload\n        /* \"#utility.yul\":1449:1478   */\n      swap1\n      pop\n        /* \"#utility.yul\":1487:1520   */\n      tag_460\n        /* \"#utility.yul\":1514:1519   */\n      dup2\n        /* \"#utility.yul\":1487:1520   */\n      tag_321\n      jump\t// in\n    tag_460:\n        /* \"#utility.yul\":1387:1526   */\n      swap3\n      swap2\n      pop\n      pop\n      jump\t// out\n        /* \"#utility.yul\":1532:2006   */\n    tag_27:\n        /* \"#utility.yul\":1600:1606   */\n      0x00\n        /* \"#utility.yul\":1608:1614   */\n      dup1\n        /* \"#utility.yul\":1657:1659   */\n      0x40\n        /* \"#utility.yul\":1645:1654   */\n      dup4\n        /* \"#utility.yul\":1636:1643   */\n      dup6\n        /* \"#utility.yul\":1632:1655   */\n      sub\n        /* \"#utility.yul\":1628:1660   */\n      slt\n        /* \"#utility.yul\":1625:1744   */\n      iszero\n      tag_462\n      jumpi\n        /* \"#utility.yul\":1663:1742   */\n      tag_463\n      tag_314\n      jump\t// in\n    tag_463:\n        /* \"#utility.yul\":1625:1744   */\n    tag_462:\n        /* \"#utility.yul\":1783:1784   */\n      0x00\n        /* \"#utility.yul\":1808:1861   */\n      tag_464\n        /* \"#utility.yul\":1853:1860   */\n      dup6\n        /* \"#utility.yul\":1844:1850   */\n      dup3\n        /* \"#utility.yul\":1833:1842   */\n      dup7\n        /* \"#utility.yul\":1829:1851   */\n      add\n        /* \"#utility.yul\":1808:1861   */\n      tag_319\n      jump\t// in\n    tag_464:\n        /* \"#utility.yul\":1798:1861   */\n      swap3\n      pop\n        /* \"#utility.yul\":1754:1871   */\n      pop\n        /* \"#utility.yul\":1910:1912   */\n      0x20\n        /* \"#utility.yul\":1936:1989   */\n      tag_465\n        /* \"#utility.yul\":1981:1988   */\n      dup6\n        /* \"#utility.yul\":1972:1978   */\n      dup3\n        /* \"#utility.yul\":1961:1970   */\n      dup7\n        /* \"#utility.yul\":1957:1979   */\n      add\n        /* \"#utility.yul\":1936:1989   */\n      tag_322\n      jump\t// in\n    tag_465:\n        /* \"#utility.yul\":1926:1989   */\n      swap2\n      pop\n        /* \"#utility.yul\":1881:1999   */\n      pop\n        /* \"#utility.yul\":1532:2006   */\n      swap3\n      pop\n      swap3\n      swap1\n      pop\n      jump\t// out\n        /* \"#utility.yul\":2012:2130   */\n    tag_323:\n        /* \"#utility.yul\":2099:2123   */\n      tag_467\n        /* \"#utility.yul\":2117:2122   */\n      dup2\n        /* \"#utility.yul\":2099:2123   */\n      tag_320\n      jump\t// in\n    tag_467:\n        /* \"#utility.yul\":2094:2097   */\n      dup3\n        /* \"#utility.yul\":2087:2124   */\n      mstore\n        /* \"#utility.yul\":2012:2130   */\n      pop\n      pop\n      jump\t// out\n        /* \"#utility.yul\":2136:2235   */\n    tag_324:\n        /* \"#utility.yul\":2188:2194   */\n      0x00\n        /* \"#utility.yul\":2222:2227   */\n      dup2\n        /* \"#utility.yul\":2216:2228   */\n      mload\n        /* \"#utility.yul\":2206:2228   */\n      swap1\n      pop\n        /* \"#utility.yul\":2136:2235   */\n      swap2\n      swap1\n      pop\n      jump\t// out\n        /* \"#utility.yul\":2241:2410   */\n    tag_325:\n        /* \"#utility.yul\":2325:2336   */\n      0x00\n        /* \"#utility.yul\":2359:2365   */\n      dup3\n        /* \"#utility.yul\":2354:2357   */\n      dup3\n        /* \"#utility.yul\":2347:2366   */\n      mstore\n        /* \"#utility.yul\":2399:2403   */\n      0x20\n        /* \"#utility.yul\":2394:2397   */\n      dup3\n        /* \"#utility.yul\":2390:2404   */\n      add\n        /* \"#utility.yul\":2375:2404   */\n      swap1\n      pop\n        /* \"#utility.yul\":2241:2410   */\n      swap3\n      swap2\n      pop\n      pop\n      jump\t// out\n        /* \"#utility.yul\":2416:2555   */\n    tag_326:\n        /* \"#utility.yul\":2505:2511   */\n      dup3\n        /* \"#utility.yul\":2500:2503   */\n      dup2\n        /* \"#utility.yul\":2495:2498   */\n      dup4\n        /* \"#utility.yul\":2489:2512   */\n      mcopy\n        /* \"#utility.yul\":2546:2547   */\n      0x00\n        /* \"#utility.yul\":2537:2543   */\n      dup4\n        /* \"#utility.yul\":2532:2535   */\n      dup4\n        /* \"#utility.yul\":2528:2544   */\n      add\n        /* \"#utility.yul\":2521:2548   */\n      mstore\n        /* \"#utility.yul\":2416:2555   */\n      pop\n      pop\n      pop\n      jump\t// out\n        /* \"#utility.yul\":2561:2663   */\n    tag_327:\n        /* \"#utility.yul\":2602:2608   */\n      0x00\n        /* \"#utility.yul\":2653:2655   */\n      0x1f\n        /* \"#utility.yul\":2649:2656   */\n      not\n        /* \"#utility.yul\":2644:2646   */\n      0x1f\n        /* \"#utility.yul\":2637:2642   */\n      dup4\n        /* \"#utility.yul\":2633:2647   */\n      add\n        /* \"#utility.yul\":2629:2657   */\n      and\n        /* \"#utility.yul\":2619:2657   */\n      swap1\n      pop\n        /* \"#utility.yul\":2561:2663   */\n      swap2\n      swap1\n      pop\n      jump\t// out\n        /* \"#utility.yul\":2669:3046   */\n    tag_328:\n        /* \"#utility.yul\":2757:2760   */\n      0x00\n        /* \"#utility.yul\":2785:2824   */\n      tag_473\n        /* \"#utility.yul\":2818:2823   */\n      dup3\n        /* \"#utility.yul\":2785:2824   */\n      tag_324\n      jump\t// in\n    tag_473:\n        /* \"#utility.yul\":2840:2911   */\n      tag_474\n        /* \"#utility.yul\":2904:2910   */\n      dup2\n        /* \"#utility.yul\":2899:2902   */\n      dup6\n        /* \"#utility.yul\":2840:2911   */\n      tag_325\n      jump\t// in\n    tag_474:\n        /* \"#utility.yul\":2833:2911   */\n      swap4\n      pop\n        /* \"#utility.yul\":2920:2985   */\n      tag_475\n        /* \"#utility.yul\":2978:2984   */\n      dup2\n        /* \"#utility.yul\":2973:2976   */\n      dup6\n        /* \"#utility.yul\":2966:2970   */\n      0x20\n        /* \"#utility.yul\":2959:2964   */\n      dup7\n        /* \"#utility.yul\":2955:2971   */\n      add\n        /* \"#utility.yul\":2920:2985   */\n      tag_326\n      jump\t// in\n    tag_475:\n        /* \"#utility.yul\":3010:3039   */\n      tag_476\n        /* \"#utility.yul\":3032:3038   */\n      dup2\n        /* \"#utility.yul\":3010:3039   */\n      tag_327\n      jump\t// in\n    tag_476:\n        /* \"#utility.yul\":3005:3008   */\n      dup5\n        /* \"#utility.yul\":3001:3040   */\n      add\n        /* \"#utility.yul\":2994:3040   */\n      swap2\n      pop\n        /* \"#utility.yul\":2761:3046   */\n      pop\n        /* \"#utility.yul\":2669:3046   */\n      swap3\n      swap2\n      pop\n      pop\n      jump\t// out\n        /* \"#utility.yul\":3052:3170   */\n    tag_329:\n        /* \"#utility.yul\":3139:3163   */\n      tag_478\n        /* \"#utility.yul\":3157:3162   */\n      dup2\n        /* \"#utility.yul\":3139:3163   */\n      tag_317\n      jump\t// in\n    tag_478:\n        /* \"#utility.yul\":3134:3137   */\n      dup3\n        /* \"#utility.yul\":3127:3164   */\n      mstore\n        /* \"#utility.yul\":3052:3170   */\n      pop\n      pop\n      jump\t// out\n        /* \"#utility.yul\":3176:3266   */\n    tag_330:\n        /* \"#utility.yul\":3210:3217   */\n      0x00\n        /* \"#utility.yul\":3253:3258   */\n      dup2\n        /* \"#utility.yul\":3246:3259   */\n      iszero\n        /* \"#utility.yul\":3239:3260   */\n      iszero\n        /* \"#utility.yul\":3228:3260   */\n      swap1\n      pop\n        /* \"#utility.yul\":3176:3266   */\n      swap2\n      swap1\n      pop\n      jump\t// out\n        /* \"#utility.yul\":3272:3381   */\n    tag_331:\n        /* \"#utility.yul\":3353:3374   */\n      tag_481\n        /* \"#utility.yul\":3368:3373   */\n      dup2\n        /* \"#utility.yul\":3353:3374   */\n      tag_330\n      jump\t// in\n    tag_481:\n        /* \"#utility.yul\":3348:3351   */\n      dup3\n        /* \"#utility.yul\":3341:3375   */\n      mstore\n        /* \"#utility.yul\":3272:3381   */\n      pop\n      pop\n      jump\t// out\n        /* \"#utility.yul\":3387:4443   */\n    tag_30:\n        /* \"#utility.yul\":3682:3686   */\n      0x00\n        /* \"#utility.yul\":3720:3723   */\n      0xe0\n        /* \"#utility.yul\":3709:3718   */\n      dup3\n        /* \"#utility.yul\":3705:3724   */\n      add\n        /* \"#utility.yul\":3697:3724   */\n      swap1\n      pop\n        /* \"#utility.yul\":3734:3805   */\n      tag_483\n        /* \"#utility.yul\":3802:3803   */\n      0x00\n        /* \"#utility.yul\":3791:3800   */\n      dup4\n        /* \"#utility.yul\":3787:3804   */\n      add\n        /* \"#utility.yul\":3778:3784   */\n      dup11\n        /* \"#utility.yul\":3734:3805   */\n      tag_323\n      jump\t// in\n    tag_483:\n        /* \"#utility.yul\":3852:3861   */\n      dup2\n        /* \"#utility.yul\":3846:3850   */\n      dup2\n        /* \"#utility.yul\":3842:3862   */\n      sub\n        /* \"#utility.yul\":3837:3839   */\n      0x20\n        /* \"#utility.yul\":3826:3835   */\n      dup4\n        /* \"#utility.yul\":3822:3840   */\n      add\n        /* \"#utility.yul\":3815:3863   */\n      mstore\n        /* \"#utility.yul\":3880:3958   */\n      tag_484\n        /* \"#utility.yul\":3953:3957   */\n      dup2\n        /* \"#utility.yul\":3944:3950   */\n      dup10\n        /* \"#utility.yul\":3880:3958   */\n      tag_328\n      jump\t// in\n    tag_484:\n        /* \"#utility.yul\":3872:3958   */\n      swap1\n      pop\n        /* \"#utility.yul\":4005:4014   */\n      dup2\n        /* \"#utility.yul\":3999:4003   */\n      dup2\n        /* \"#utility.yul\":3995:4015   */\n      sub\n        /* \"#utility.yul\":3990:3992   */\n      0x40\n        /* \"#utility.yul\":3979:3988   */\n      dup4\n        /* \"#utility.yul\":3975:3993   */\n      add\n        /* \"#utility.yul\":3968:4016   */\n      mstore\n        /* \"#utility.yul\":4033:4111   */\n      tag_485\n        /* \"#utility.yul\":4106:4110   */\n      dup2\n        /* \"#utility.yul\":4097:4103   */\n      dup9\n        /* \"#utility.yul\":4033:4111   */\n      tag_328\n      jump\t// in\n    tag_485:\n        /* \"#utility.yul\":4025:4111   */\n      swap1\n      pop\n        /* \"#utility.yul\":4121:4193   */\n      tag_486\n        /* \"#utility.yul\":4189:4191   */\n      0x60\n        /* \"#utility.yul\":4178:4187   */\n      dup4\n        /* \"#utility.yul\":4174:4192   */\n      add\n        /* \"#utility.yul\":4165:4171   */\n      dup8\n        /* \"#utility.yul\":4121:4193   */\n      tag_329\n      jump\t// in\n    tag_486:\n        /* \"#utility.yul\":4203:4276   */\n      tag_487\n        /* \"#utility.yul\":4271:4274   */\n      0x80\n        /* \"#utility.yul\":4260:4269   */\n      dup4\n        /* \"#utility.yul\":4256:4275   */\n      add\n        /* \"#utility.yul\":4247:4253   */\n      dup7\n        /* \"#utility.yul\":4203:4276   */\n      tag_323\n      jump\t// in\n    tag_487:\n        /* \"#utility.yul\":4286:4359   */\n      tag_488\n        /* \"#utility.yul\":4354:4357   */\n      0xa0\n        /* \"#utility.yul\":4343:4352   */\n      dup4\n        /* \"#utility.yul\":4339:4358   */\n      add\n        /* \"#utility.yul\":4330:4336   */\n      dup6\n        /* \"#utility.yul\":4286:4359   */\n      tag_323\n      jump\t// in\n    tag_488:\n        /* \"#utility.yul\":4369:4436   */\n      tag_489\n        /* \"#utility.yul\":4431:4434   */\n      0xc0\n        /* \"#utility.yul\":4420:4429   */\n      dup4\n        /* \"#utility.yul\":4416:4435   */\n      add\n        /* \"#utility.yul\":4407:4413   */\n      dup5\n        /* \"#utility.yul\":4369:4436   */\n      tag_331\n      jump\t// in\n    tag_489:\n        /* \"#utility.yul\":3387:4443   */\n      swap9\n      swap8\n      pop\n      pop\n      pop\n      pop\n      pop\n      pop\n      pop\n      pop\n      jump\t// out\n        /* \"#utility.yul\":4449:4671   */\n    tag_36:\n        /* \"#utility.yul\":4542:4546   */\n      0x00\n        /* \"#utility.yul\":4580:4582   */\n      0x20\n        /* \"#utility.yul\":4569:4578   */\n      dup3\n        /* \"#utility.yul\":4565:4583   */\n      add\n        /* \"#utility.yul\":4557:4583   */\n      swap1\n      pop\n        /* \"#utility.yul\":4593:4664   */\n      tag_491\n        /* \"#utility.yul\":4661:4662   */\n      0x00\n        /* \"#utility.yul\":4650:4659   */\n      dup4\n        /* \"#utility.yul\":4646:4663   */\n      add\n        /* \"#utility.yul\":4637:4643   */\n      dup5\n        /* \"#utility.yul\":4593:4664   */\n      tag_329\n      jump\t// in\n    tag_491:\n        /* \"#utility.yul\":4449:4671   */\n      swap3\n      swap2\n      pop\n      pop\n      jump\t// out\n        /* \"#utility.yul\":4677:4791   */\n    tag_332:\n        /* \"#utility.yul\":4744:4750   */\n      0x00\n        /* \"#utility.yul\":4778:4783   */\n      dup2\n        /* \"#utility.yul\":4772:4784   */\n      mload\n        /* \"#utility.yul\":4762:4784   */\n      swap1\n      pop\n        /* \"#utility.yul\":4677:4791   */\n      swap2\n      swap1\n      pop\n      jump\t// out\n        /* \"#utility.yul\":4797:4981   */\n    tag_333:\n        /* \"#utility.yul\":4896:4907   */\n      0x00\n        /* \"#utility.yul\":4930:4936   */\n      dup3\n        /* \"#utility.yul\":4925:4928   */\n      dup3\n        /* \"#utility.yul\":4918:4937   */\n      mstore\n        /* \"#utility.yul\":4970:4974   */\n      0x20\n        /* \"#utility.yul\":4965:4968   */\n      dup3\n        /* \"#utility.yul\":4961:4975   */\n      add\n        /* \"#utility.yul\":4946:4975   */\n      swap1\n      pop\n        /* \"#utility.yul\":4797:4981   */\n      swap3\n      swap2\n      pop\n      pop\n      jump\t// out\n        /* \"#utility.yul\":4987:5119   */\n    tag_334:\n        /* \"#utility.yul\":5054:5058   */\n      0x00\n        /* \"#utility.yul\":5077:5080   */\n      dup2\n        /* \"#utility.yul\":5069:5080   */\n      swap1\n      pop\n        /* \"#utility.yul\":5107:5111   */\n      0x20\n        /* \"#utility.yul\":5102:5105   */\n      dup3\n        /* \"#utility.yul\":5098:5112   */\n      add\n        /* \"#utility.yul\":5090:5112   */\n      swap1\n      pop\n        /* \"#utility.yul\":4987:5119   */\n      swap2\n      swap1\n      pop\n      jump\t// out\n        /* \"#utility.yul\":5125:5233   */\n    tag_335:\n        /* \"#utility.yul\":5202:5226   */\n      tag_496\n        /* \"#utility.yul\":5220:5225   */\n      dup2\n        /* \"#utility.yul\":5202:5226   */\n      tag_317\n      jump\t// in\n    tag_496:\n        /* \"#utility.yul\":5197:5200   */\n      dup3\n        /* \"#utility.yul\":5190:5227   */\n      mstore\n        /* \"#utility.yul\":5125:5233   */\n      pop\n      pop\n      jump\t// out\n        /* \"#utility.yul\":5239:5418   */\n    tag_336:\n        /* \"#utility.yul\":5308:5318   */\n      0x00\n        /* \"#utility.yul\":5329:5375   */\n      tag_498\n        /* \"#utility.yul\":5371:5374   */\n      dup4\n        /* \"#utility.yul\":5363:5369   */\n      dup4\n        /* \"#utility.yul\":5329:5375   */\n      tag_335\n      jump\t// in\n    tag_498:\n        /* \"#utility.yul\":5407:5411   */\n      0x20\n        /* \"#utility.yul\":5402:5405   */\n      dup4\n        /* \"#utility.yul\":5398:5412   */\n      add\n        /* \"#utility.yul\":5384:5412   */\n      swap1\n      pop\n        /* \"#utility.yul\":5239:5418   */\n      swap3\n      swap2\n      pop\n      pop\n      jump\t// out\n        /* \"#utility.yul\":5424:5537   */\n    tag_337:\n        /* \"#utility.yul\":5494:5498   */\n      0x00\n        /* \"#utility.yul\":5526:5530   */\n      0x20\n        /* \"#utility.yul\":5521:5524   */\n      dup3\n        /* \"#utility.yul\":5517:5531   */\n      add\n        /* \"#utility.yul\":5509:5531   */\n      swap1\n      pop\n        /* \"#utility.yul\":5424:5537   */\n      swap2\n      swap1\n      pop\n      jump\t// out\n        /* \"#utility.yul\":5573:6305   */\n    tag_338:\n        /* \"#utility.yul\":5692:5695   */\n      0x00\n        /* \"#utility.yul\":5721:5775   */\n      tag_501\n        /* \"#utility.yul\":5769:5774   */\n      dup3\n        /* \"#utility.yul\":5721:5775   */\n      tag_332\n      jump\t// in\n    tag_501:\n        /* \"#utility.yul\":5791:5877   */\n      tag_502\n        /* \"#utility.yul\":5870:5876   */\n      dup2\n        /* \"#utility.yul\":5865:5868   */\n      dup6\n        /* \"#utility.yul\":5791:5877   */\n      tag_333\n      jump\t// in\n    tag_502:\n        /* \"#utility.yul\":5784:5877   */\n      swap4\n      pop\n        /* \"#utility.yul\":5901:5957   */\n      tag_503\n        /* \"#utility.yul\":5951:5956   */\n      dup4\n        /* \"#utility.yul\":5901:5957   */\n      tag_334\n      jump\t// in\n    tag_503:\n        /* \"#utility.yul\":5980:5987   */\n      dup1\n        /* \"#utility.yul\":6011:6012   */\n      0x00\n        /* \"#utility.yul\":5996:6280   */\n    tag_504:\n        /* \"#utility.yul\":6021:6027   */\n      dup4\n        /* \"#utility.yul\":6018:6019   */\n      dup2\n        /* \"#utility.yul\":6015:6028   */\n      lt\n        /* \"#utility.yul\":5996:6280   */\n      iszero\n      tag_506\n      jumpi\n        /* \"#utility.yul\":6097:6103   */\n      dup2\n        /* \"#utility.yul\":6091:6104   */\n      mload\n        /* \"#utility.yul\":6124:6187   */\n      tag_507\n        /* \"#utility.yul\":6183:6186   */\n      dup9\n        /* \"#utility.yul\":6168:6181   */\n      dup3\n        /* \"#utility.yul\":6124:6187   */\n      tag_336\n      jump\t// in\n    tag_507:\n        /* \"#utility.yul\":6117:6187   */\n      swap8\n      pop\n        /* \"#utility.yul\":6210:6270   */\n      tag_508\n        /* \"#utility.yul\":6263:6269   */\n      dup4\n        /* \"#utility.yul\":6210:6270   */\n      tag_337\n      jump\t// in\n    tag_508:\n        /* \"#utility.yul\":6200:6270   */\n      swap3\n      pop\n        /* \"#utility.yul\":6056:6280   */\n      pop\n        /* \"#utility.yul\":6043:6044   */\n      0x01\n        /* \"#utility.yul\":6040:6041   */\n      dup2\n        /* \"#utility.yul\":6036:6045   */\n      add\n        /* \"#utility.yul\":6031:6045   */\n      swap1\n      pop\n        /* \"#utility.yul\":5996:6280   */\n      jump(tag_504)\n    tag_506:\n        /* \"#utility.yul\":6000:6014   */\n      pop\n        /* \"#utility.yul\":6296:6299   */\n      dup6\n        /* \"#utility.yul\":6289:6299   */\n      swap4\n      pop\n        /* \"#utility.yul\":5697:6305   */\n      pop\n      pop\n      pop\n        /* \"#utility.yul\":5573:6305   */\n      swap3\n      swap2\n      pop\n      pop\n      jump\t// out\n        /* \"#utility.yul\":6311:6684   */\n    tag_42:\n        /* \"#utility.yul\":6454:6458   */\n      0x00\n        /* \"#utility.yul\":6492:6494   */\n      0x20\n        /* \"#utility.yul\":6481:6490   */\n      dup3\n        /* \"#utility.yul\":6477:6495   */\n      add\n        /* \"#utility.yul\":6469:6495   */\n      swap1\n      pop\n        /* \"#utility.yul\":6541:6550   */\n      dup2\n        /* \"#utility.yul\":6535:6539   */\n      dup2\n        /* \"#utility.yul\":6531:6551   */\n      sub\n        /* \"#utility.yul\":6527:6528   */\n      0x00\n        /* \"#utility.yul\":6516:6525   */\n      dup4\n        /* \"#utility.yul\":6512:6529   */\n      add\n        /* \"#utility.yul\":6505:6552   */\n      mstore\n        /* \"#utility.yul\":6569:6677   */\n      tag_510\n        /* \"#utility.yul\":6672:6676   */\n      dup2\n        /* \"#utility.yul\":6663:6669   */\n      dup5\n        /* \"#utility.yul\":6569:6677   */\n      tag_338\n      jump\t// in\n    tag_510:\n        /* \"#utility.yul\":6561:6677   */\n      swap1\n      pop\n        /* \"#utility.yul\":6311:6684   */\n      swap3\n      swap2\n      pop\n      pop\n      jump\t// out\n        /* \"#utility.yul\":6690:6828   */\n    tag_339:\n        /* \"#utility.yul\":6781:6787   */\n      0x00\n        /* \"#utility.yul\":6815:6820   */\n      dup2\n        /* \"#utility.yul\":6809:6821   */\n      mload\n        /* \"#utility.yul\":6799:6821   */\n      swap1\n      pop\n        /* \"#utility.yul\":6690:6828   */\n      swap2\n      swap1\n      pop\n      jump\t// out\n        /* \"#utility.yul\":6834:7042   */\n    tag_340:\n        /* \"#utility.yul\":6957:6968   */\n      0x00\n        /* \"#utility.yul\":6991:6997   */\n      dup3\n        /* \"#utility.yul\":6986:6989   */\n      dup3\n        /* \"#utility.yul\":6979:6998   */\n      mstore\n        /* \"#utility.yul\":7031:7035   */\n      0x20\n        /* \"#utility.yul\":7026:7029   */\n      dup3\n        /* \"#utility.yul\":7022:7036   */\n      add\n        /* \"#utility.yul\":7007:7036   */\n      swap1\n      pop\n        /* \"#utility.yul\":6834:7042   */\n      swap3\n      swap2\n      pop\n      pop\n      jump\t// out\n        /* \"#utility.yul\":7048:7204   */\n    tag_341:\n        /* \"#utility.yul\":7139:7143   */\n      0x00\n        /* \"#utility.yul\":7162:7165   */\n      dup2\n        /* \"#utility.yul\":7154:7165   */\n      swap1\n      pop\n        /* \"#utility.yul\":7192:7196   */\n      0x20\n        /* \"#utility.yul\":7187:7190   */\n      dup3\n        /* \"#utility.yul\":7183:7197   */\n      add\n        /* \"#utility.yul\":7175:7197   */\n      swap1\n      pop\n        /* \"#utility.yul\":7048:7204   */\n      swap2\n      swap1\n      pop\n      jump\t// out\n        /* \"#utility.yul\":7210:7318   */\n    tag_342:\n        /* \"#utility.yul\":7287:7311   */\n      tag_515\n        /* \"#utility.yul\":7305:7310   */\n      dup2\n        /* \"#utility.yul\":7287:7311   */\n      tag_320\n      jump\t// in\n    tag_515:\n        /* \"#utility.yul\":7282:7285   */\n      dup3\n        /* \"#utility.yul\":7275:7312   */\n      mstore\n        /* \"#utility.yul\":7210:7318   */\n      pop\n      pop\n      jump\t// out\n        /* \"#utility.yul\":7324:7483   */\n    tag_343:\n        /* \"#utility.yul\":7398:7409   */\n      0x00\n        /* \"#utility.yul\":7432:7438   */\n      dup3\n        /* \"#utility.yul\":7427:7430   */\n      dup3\n        /* \"#utility.yul\":7420:7439   */\n      mstore\n        /* \"#utility.yul\":7472:7476   */\n      0x20\n        /* \"#utility.yul\":7467:7470   */\n      dup3\n        /* \"#utility.yul\":7463:7477   */\n      add\n        /* \"#utility.yul\":7448:7477   */\n      swap1\n      pop\n        /* \"#utility.yul\":7324:7483   */\n      swap3\n      swap2\n      pop\n      pop\n      jump\t// out\n        /* \"#utility.yul\":7489:7846   */\n    tag_344:\n        /* \"#utility.yul\":7567:7570   */\n      0x00\n        /* \"#utility.yul\":7595:7634   */\n      tag_518\n        /* \"#utility.yul\":7628:7633   */\n      dup3\n        /* \"#utility.yul\":7595:7634   */\n      tag_324\n      jump\t// in\n    tag_518:\n        /* \"#utility.yul\":7650:7711   */\n      tag_519\n        /* \"#utility.yul\":7704:7710   */\n      dup2\n        /* \"#utility.yul\":7699:7702   */\n      dup6\n        /* \"#utility.yul\":7650:7711   */\n      tag_343\n      jump\t// in\n    tag_519:\n        /* \"#utility.yul\":7643:7711   */\n      swap4\n      pop\n        /* \"#utility.yul\":7720:7785   */\n      tag_520\n        /* \"#utility.yul\":7778:7784   */\n      dup2\n        /* \"#utility.yul\":7773:7776   */\n      dup6\n        /* \"#utility.yul\":7766:7770   */\n      0x20\n        /* \"#utility.yul\":7759:7764   */\n      dup7\n        /* \"#utility.yul\":7755:7771   */\n      add\n        /* \"#utility.yul\":7720:7785   */\n      tag_326\n      jump\t// in\n    tag_520:\n        /* \"#utility.yul\":7810:7839   */\n      tag_521\n        /* \"#utility.yul\":7832:7838   */\n      dup2\n        /* \"#utility.yul\":7810:7839   */\n      tag_327\n      jump\t// in\n    tag_521:\n        /* \"#utility.yul\":7805:7808   */\n      dup5\n        /* \"#utility.yul\":7801:7840   */\n      add\n        /* \"#utility.yul\":7794:7840   */\n      swap2\n      pop\n        /* \"#utility.yul\":7571:7846   */\n      pop\n        /* \"#utility.yul\":7489:7846   */\n      swap3\n      swap2\n      pop\n      pop\n      jump\t// out\n        /* \"#utility.yul\":7852:7951   */\n    tag_345:\n        /* \"#utility.yul\":7923:7944   */\n      tag_523\n        /* \"#utility.yul\":7938:7943   */\n      dup2\n        /* \"#utility.yul\":7923:7944   */\n      tag_330\n      jump\t// in\n    tag_523:\n        /* \"#utility.yul\":7918:7921   */\n      dup3\n        /* \"#utility.yul\":7911:7945   */\n      mstore\n        /* \"#utility.yul\":7852:7951   */\n      pop\n      pop\n      jump\t// out\n        /* \"#utility.yul\":8031:9609   */\n    tag_346:\n        /* \"#utility.yul\":8138:8141   */\n      0x00\n        /* \"#utility.yul\":8174:8178   */\n      0xe0\n        /* \"#utility.yul\":8169:8172   */\n      dup4\n        /* \"#utility.yul\":8165:8179   */\n      add\n        /* \"#utility.yul\":8268:8272   */\n      0x00\n        /* \"#utility.yul\":8261:8266   */\n      dup4\n        /* \"#utility.yul\":8257:8273   */\n      add\n        /* \"#utility.yul\":8251:8274   */\n      mload\n        /* \"#utility.yul\":8287:8350   */\n      tag_525\n        /* \"#utility.yul\":8344:8348   */\n      0x00\n        /* \"#utility.yul\":8339:8342   */\n      dup7\n        /* \"#utility.yul\":8335:8349   */\n      add\n        /* \"#utility.yul\":8321:8333   */\n      dup3\n        /* \"#utility.yul\":8287:8350   */\n      tag_342\n      jump\t// in\n    tag_525:\n        /* \"#utility.yul\":8189:8360   */\n      pop\n        /* \"#utility.yul\":8443:8447   */\n      0x20\n        /* \"#utility.yul\":8436:8441   */\n      dup4\n        /* \"#utility.yul\":8432:8448   */\n      add\n        /* \"#utility.yul\":8426:8449   */\n      mload\n        /* \"#utility.yul\":8496:8499   */\n      dup5\n        /* \"#utility.yul\":8490:8494   */\n      dup3\n        /* \"#utility.yul\":8486:8500   */\n      sub\n        /* \"#utility.yul\":8479:8483   */\n      0x20\n        /* \"#utility.yul\":8474:8477   */\n      dup7\n        /* \"#utility.yul\":8470:8484   */\n      add\n        /* \"#utility.yul\":8463:8501   */\n      mstore\n        /* \"#utility.yul\":8522:8595   */\n      tag_526\n        /* \"#utility.yul\":8590:8594   */\n      dup3\n        /* \"#utility.yul\":8576:8588   */\n      dup3\n        /* \"#utility.yul\":8522:8595   */\n      tag_344\n      jump\t// in\n    tag_526:\n        /* \"#utility.yul\":8514:8595   */\n      swap2\n      pop\n        /* \"#utility.yul\":8370:8606   */\n      pop\n        /* \"#utility.yul\":8695:8699   */\n      0x40\n        /* \"#utility.yul\":8688:8693   */\n      dup4\n        /* \"#utility.yul\":8684:8700   */\n      add\n        /* \"#utility.yul\":8678:8701   */\n      mload\n        /* \"#utility.yul\":8748:8751   */\n      dup5\n        /* \"#utility.yul\":8742:8746   */\n      dup3\n        /* \"#utility.yul\":8738:8752   */\n      sub\n        /* \"#utility.yul\":8731:8735   */\n      0x40\n        /* \"#utility.yul\":8726:8729   */\n      dup7\n        /* \"#utility.yul\":8722:8736   */\n      add\n        /* \"#utility.yul\":8715:8753   */\n      mstore\n        /* \"#utility.yul\":8774:8847   */\n      tag_527\n        /* \"#utility.yul\":8842:8846   */\n      dup3\n        /* \"#utility.yul\":8828:8840   */\n      dup3\n        /* \"#utility.yul\":8774:8847   */\n      tag_344\n      jump\t// in\n    tag_527:\n        /* \"#utility.yul\":8766:8847   */\n      swap2\n      pop\n        /* \"#utility.yul\":8616:8858   */\n      pop\n        /* \"#utility.yul\":8951:8955   */\n      0x60\n        /* \"#utility.yul\":8944:8949   */\n      dup4\n        /* \"#utility.yul\":8940:8956   */\n      add\n        /* \"#utility.yul\":8934:8957   */\n      mload\n        /* \"#utility.yul\":8970:9033   */\n      tag_528\n        /* \"#utility.yul\":9027:9031   */\n      0x60\n        /* \"#utility.yul\":9022:9025   */\n      dup7\n        /* \"#utility.yul\":9018:9032   */\n      add\n        /* \"#utility.yul\":9004:9016   */\n      dup3\n        /* \"#utility.yul\":8970:9033   */\n      tag_335\n      jump\t// in\n    tag_528:\n        /* \"#utility.yul\":8868:9043   */\n      pop\n        /* \"#utility.yul\":9133:9137   */\n      0x80\n        /* \"#utility.yul\":9126:9131   */\n      dup4\n        /* \"#utility.yul\":9122:9138   */\n      add\n        /* \"#utility.yul\":9116:9139   */\n      mload\n        /* \"#utility.yul\":9152:9215   */\n      tag_529\n        /* \"#utility.yul\":9209:9213   */\n      0x80\n        /* \"#utility.yul\":9204:9207   */\n      dup7\n        /* \"#utility.yul\":9200:9214   */\n      add\n        /* \"#utility.yul\":9186:9198   */\n      dup3\n        /* \"#utility.yul\":9152:9215   */\n      tag_342\n      jump\t// in\n    tag_529:\n        /* \"#utility.yul\":9053:9225   */\n      pop\n        /* \"#utility.yul\":9315:9319   */\n      0xa0\n        /* \"#utility.yul\":9308:9313   */\n      dup4\n        /* \"#utility.yul\":9304:9320   */\n      add\n        /* \"#utility.yul\":9298:9321   */\n      mload\n        /* \"#utility.yul\":9334:9397   */\n      tag_530\n        /* \"#utility.yul\":9391:9395   */\n      0xa0\n        /* \"#utility.yul\":9386:9389   */\n      dup7\n        /* \"#utility.yul\":9382:9396   */\n      add\n        /* \"#utility.yul\":9368:9380   */\n      dup3\n        /* \"#utility.yul\":9334:9397   */\n      tag_342\n      jump\t// in\n    tag_530:\n        /* \"#utility.yul\":9235:9407   */\n      pop\n        /* \"#utility.yul\":9496:9500   */\n      0xc0\n        /* \"#utility.yul\":9489:9494   */\n      dup4\n        /* \"#utility.yul\":9485:9501   */\n      add\n        /* \"#utility.yul\":9479:9502   */\n      mload\n        /* \"#utility.yul\":9515:9572   */\n      tag_531\n        /* \"#utility.yul\":9566:9570   */\n      0xc0\n        /* \"#utility.yul\":9561:9564   */\n      dup7\n        /* \"#utility.yul\":9557:9571   */\n      add\n        /* \"#utility.yul\":9543:9555   */\n      dup3\n        /* \"#utility.yul\":9515:9572   */\n      tag_345\n      jump\t// in\n    tag_531:\n        /* \"#utility.yul\":9417:9582   */\n      pop\n        /* \"#utility.yul\":9599:9603   */\n      dup1\n        /* \"#utility.yul\":9592:9603   */\n      swap2\n      pop\n        /* \"#utility.yul\":8143:9609   */\n      pop\n        /* \"#utility.yul\":8031:9609   */\n      swap3\n      swap2\n      pop\n      pop\n      jump\t// out\n        /* \"#utility.yul\":9615:9867   */\n    tag_347:\n        /* \"#utility.yul\":9732:9742   */\n      0x00\n        /* \"#utility.yul\":9767:9861   */\n      tag_533\n        /* \"#utility.yul\":9857:9860   */\n      dup4\n        /* \"#utility.yul\":9849:9855   */\n      dup4\n        /* \"#utility.yul\":9767:9861   */\n      tag_346\n      jump\t// in\n    tag_533:\n        /* \"#utility.yul\":9753:9861   */\n      swap1\n      pop\n        /* \"#utility.yul\":9615:9867   */\n      swap3\n      swap2\n      pop\n      pop\n      jump\t// out\n        /* \"#utility.yul\":9873:10010   */\n    tag_348:\n        /* \"#utility.yul\":9967:9971   */\n      0x00\n        /* \"#utility.yul\":9999:10003   */\n      0x20\n        /* \"#utility.yul\":9994:9997   */\n      dup3\n        /* \"#utility.yul\":9990:10004   */\n      add\n        /* \"#utility.yul\":9982:10004   */\n      swap1\n      pop\n        /* \"#utility.yul\":9873:10010   */\n      swap2\n      swap1\n      pop\n      jump\t// out\n        /* \"#utility.yul\":10094:11197   */\n    tag_349:\n        /* \"#utility.yul\":10261:10264   */\n      0x00\n        /* \"#utility.yul\":10290:10368   */\n      tag_536\n        /* \"#utility.yul\":10362:10367   */\n      dup3\n        /* \"#utility.yul\":10290:10368   */\n      tag_339\n      jump\t// in\n    tag_536:\n        /* \"#utility.yul\":10384:10494   */\n      tag_537\n        /* \"#utility.yul\":10487:10493   */\n      dup2\n        /* \"#utility.yul\":10482:10485   */\n      dup6\n        /* \"#utility.yul\":10384:10494   */\n      tag_340\n      jump\t// in\n    tag_537:\n        /* \"#utility.yul\":10377:10494   */\n      swap4\n      pop\n        /* \"#utility.yul\":10520:10523   */\n      dup4\n        /* \"#utility.yul\":10565:10569   */\n      0x20\n        /* \"#utility.yul\":10557:10563   */\n      dup3\n        /* \"#utility.yul\":10553:10570   */\n      mul\n        /* \"#utility.yul\":10548:10551   */\n      dup6\n        /* \"#utility.yul\":10544:10571   */\n      add\n        /* \"#utility.yul\":10595:10675   */\n      tag_538\n        /* \"#utility.yul\":10669:10674   */\n      dup6\n        /* \"#utility.yul\":10595:10675   */\n      tag_341\n      jump\t// in\n    tag_538:\n        /* \"#utility.yul\":10698:10705   */\n      dup1\n        /* \"#utility.yul\":10729:10730   */\n      0x00\n        /* \"#utility.yul\":10714:11152   */\n    tag_539:\n        /* \"#utility.yul\":10739:10745   */\n      dup6\n        /* \"#utility.yul\":10736:10737   */\n      dup2\n        /* \"#utility.yul\":10733:10746   */\n      lt\n        /* \"#utility.yul\":10714:11152   */\n      iszero\n      tag_541\n      jumpi\n        /* \"#utility.yul\":10810:10819   */\n      dup5\n        /* \"#utility.yul\":10804:10808   */\n      dup5\n        /* \"#utility.yul\":10800:10820   */\n      sub\n        /* \"#utility.yul\":10795:10798   */\n      dup10\n        /* \"#utility.yul\":10788:10821   */\n      mstore\n        /* \"#utility.yul\":10861:10867   */\n      dup2\n        /* \"#utility.yul\":10855:10868   */\n      mload\n        /* \"#utility.yul\":10889:11001   */\n      tag_542\n        /* \"#utility.yul\":10996:11000   */\n      dup6\n        /* \"#utility.yul\":10981:10994   */\n      dup3\n        /* \"#utility.yul\":10889:11001   */\n      tag_347\n      jump\t// in\n    tag_542:\n        /* \"#utility.yul\":10881:11001   */\n      swap5\n      pop\n        /* \"#utility.yul\":11024:11108   */\n      tag_543\n        /* \"#utility.yul\":11101:11107   */\n      dup4\n        /* \"#utility.yul\":11024:11108   */\n      tag_348\n      jump\t// in\n    tag_543:\n        /* \"#utility.yul\":11014:11108   */\n      swap3\n      pop\n        /* \"#utility.yul\":11137:11141   */\n      0x20\n        /* \"#utility.yul\":11132:11135   */\n      dup11\n        /* \"#utility.yul\":11128:11142   */\n      add\n        /* \"#utility.yul\":11121:11142   */\n      swap10\n      pop\n        /* \"#utility.yul\":10774:11152   */\n      pop\n        /* \"#utility.yul\":10761:10762   */\n      0x01\n        /* \"#utility.yul\":10758:10759   */\n      dup2\n        /* \"#utility.yul\":10754:10763   */\n      add\n        /* \"#utility.yul\":10749:10763   */\n      swap1\n      pop\n        /* \"#utility.yul\":10714:11152   */\n      jump(tag_539)\n    tag_541:\n        /* \"#utility.yul\":10718:10732   */\n      pop\n        /* \"#utility.yul\":11168:11172   */\n      dup3\n        /* \"#utility.yul\":11161:11172   */\n      swap8\n      pop\n        /* \"#utility.yul\":11188:11191   */\n      dup8\n        /* \"#utility.yul\":11181:11191   */\n      swap6\n      pop\n        /* \"#utility.yul\":10266:11197   */\n      pop\n      pop\n      pop\n      pop\n      pop\n        /* \"#utility.yul\":10094:11197   */\n      swap3\n      swap2\n      pop\n      pop\n      jump\t// out\n        /* \"#utility.yul\":11203:11672   */\n    tag_47:\n        /* \"#utility.yul\":11394:11398   */\n      0x00\n        /* \"#utility.yul\":11432:11434   */\n      0x20\n        /* \"#utility.yul\":11421:11430   */\n      dup3\n        /* \"#utility.yul\":11417:11435   */\n      add\n        /* \"#utility.yul\":11409:11435   */\n      swap1\n      pop\n        /* \"#utility.yul\":11481:11490   */\n      dup2\n        /* \"#utility.yul\":11475:11479   */\n      dup2\n        /* \"#utility.yul\":11471:11491   */\n      sub\n        /* \"#utility.yul\":11467:11468   */\n      0x00\n        /* \"#utility.yul\":11456:11465   */\n      dup4\n        /* \"#utility.yul\":11452:11469   */\n      add\n        /* \"#utility.yul\":11445:11492   */\n      mstore\n        /* \"#utility.yul\":11509:11665   */\n      tag_545\n        /* \"#utility.yul\":11660:11664   */\n      dup2\n        /* \"#utility.yul\":11651:11657   */\n      dup5\n        /* \"#utility.yul\":11509:11665   */\n      tag_349\n      jump\t// in\n    tag_545:\n        /* \"#utility.yul\":11501:11665   */\n      swap1\n      pop\n        /* \"#utility.yul\":11203:11672   */\n      swap3\n      swap2\n      pop\n      pop\n      jump\t// out\n        /* \"#utility.yul\":11678:12433   */\n    tag_53:\n        /* \"#utility.yul\":11903:11907   */\n      0x00\n        /* \"#utility.yul\":11941:11944   */\n      0xa0\n        /* \"#utility.yul\":11930:11939   */\n      dup3\n        /* \"#utility.yul\":11926:11945   */\n      add\n        /* \"#utility.yul\":11918:11945   */\n      swap1\n      pop\n        /* \"#utility.yul\":11955:12026   */\n      tag_547\n        /* \"#utility.yul\":12023:12024   */\n      0x00\n        /* \"#utility.yul\":12012:12021   */\n      dup4\n        /* \"#utility.yul\":12008:12025   */\n      add\n        /* \"#utility.yul\":11999:12005   */\n      dup9\n        /* \"#utility.yul\":11955:12026   */\n      tag_323\n      jump\t// in\n    tag_547:\n        /* \"#utility.yul\":12073:12082   */\n      dup2\n        /* \"#utility.yul\":12067:12071   */\n      dup2\n        /* \"#utility.yul\":12063:12083   */\n      sub\n        /* \"#utility.yul\":12058:12060   */\n      0x20\n        /* \"#utility.yul\":12047:12056   */\n      dup4\n        /* \"#utility.yul\":12043:12061   */\n      add\n        /* \"#utility.yul\":12036:12084   */\n      mstore\n        /* \"#utility.yul\":12101:12179   */\n      tag_548\n        /* \"#utility.yul\":12174:12178   */\n      dup2\n        /* \"#utility.yul\":12165:12171   */\n      dup8\n        /* \"#utility.yul\":12101:12179   */\n      tag_328\n      jump\t// in\n    tag_548:\n        /* \"#utility.yul\":12093:12179   */\n      swap1\n      pop\n        /* \"#utility.yul\":12189:12261   */\n      tag_549\n        /* \"#utility.yul\":12257:12259   */\n      0x40\n        /* \"#utility.yul\":12246:12255   */\n      dup4\n        /* \"#utility.yul\":12242:12260   */\n      add\n        /* \"#utility.yul\":12233:12239   */\n      dup7\n        /* \"#utility.yul\":12189:12261   */\n      tag_323\n      jump\t// in\n    tag_549:\n        /* \"#utility.yul\":12271:12343   */\n      tag_550\n        /* \"#utility.yul\":12339:12341   */\n      0x60\n        /* \"#utility.yul\":12328:12337   */\n      dup4\n        /* \"#utility.yul\":12324:12342   */\n      add\n        /* \"#utility.yul\":12315:12321   */\n      dup6\n        /* \"#utility.yul\":12271:12343   */\n      tag_329\n      jump\t// in\n    tag_550:\n        /* \"#utility.yul\":12353:12426   */\n      tag_551\n        /* \"#utility.yul\":12421:12424   */\n      0x80\n        /* \"#utility.yul\":12410:12419   */\n      dup4\n        /* \"#utility.yul\":12406:12425   */\n      add\n        /* \"#utility.yul\":12397:12403   */\n      dup5\n        /* \"#utility.yul\":12353:12426   */\n      tag_329\n      jump\t// in\n    tag_551:\n        /* \"#utility.yul\":11678:12433   */\n      swap7\n      swap6\n      pop\n      pop\n      pop\n      pop\n      pop\n      pop\n      jump\t// out\n        /* \"#utility.yul\":12439:12543   */\n    tag_350:\n        /* \"#utility.yul\":12484:12491   */\n      0x00\n        /* \"#utility.yul\":12513:12537   */\n      tag_553\n        /* \"#utility.yul\":12531:12536   */\n      dup3\n        /* \"#utility.yul\":12513:12537   */\n      tag_316\n      jump\t// in\n    tag_553:\n        /* \"#utility.yul\":12502:12537   */\n      swap1\n      pop\n        /* \"#utility.yul\":12439:12543   */\n      swap2\n      swap1\n      pop\n      jump\t// out\n        /* \"#utility.yul\":12549:12687   */\n    tag_351:\n        /* \"#utility.yul\":12630:12662   */\n      tag_555\n        /* \"#utility.yul\":12656:12661   */\n      dup2\n        /* \"#utility.yul\":12630:12662   */\n      tag_350\n      jump\t// in\n    tag_555:\n        /* \"#utility.yul\":12623:12628   */\n      dup2\n        /* \"#utility.yul\":12620:12663   */\n      eq\n        /* \"#utility.yul\":12610:12681   */\n      tag_556\n      jumpi\n        /* \"#utility.yul\":12677:12678   */\n      0x00\n        /* \"#utility.yul\":12674:12675   */\n      dup1\n        /* \"#utility.yul\":12667:12679   */\n      revert\n        /* \"#utility.yul\":12610:12681   */\n    tag_556:\n        /* \"#utility.yul\":12549:12687   */\n      pop\n      jump\t// out\n        /* \"#utility.yul\":12693:12848   */\n    tag_352:\n        /* \"#utility.yul\":12747:12752   */\n      0x00\n        /* \"#utility.yul\":12785:12791   */\n      dup2\n        /* \"#utility.yul\":12772:12792   */\n      calldataload\n        /* \"#utility.yul\":12763:12792   */\n      swap1\n      pop\n        /* \"#utility.yul\":12801:12842   */\n      tag_558\n        /* \"#utility.yul\":12836:12841   */\n      dup2\n        /* \"#utility.yul\":12801:12842   */\n      tag_351\n      jump\t// in\n    tag_558:\n        /* \"#utility.yul\":12693:12848   */\n      swap3\n      swap2\n      pop\n      pop\n      jump\t// out\n        /* \"#utility.yul\":12854:13489   */\n    tag_56:\n        /* \"#utility.yul\":12939:12945   */\n      0x00\n        /* \"#utility.yul\":12947:12953   */\n      dup1\n        /* \"#utility.yul\":12955:12961   */\n      0x00\n        /* \"#utility.yul\":13004:13006   */\n      0x60\n        /* \"#utility.yul\":12992:13001   */\n      dup5\n        /* \"#utility.yul\":12983:12990   */\n      dup7\n        /* \"#utility.yul\":12979:13002   */\n      sub\n        /* \"#utility.yul\":12975:13007   */\n      slt\n        /* \"#utility.yul\":12972:13091   */\n      iszero\n      tag_560\n      jumpi\n        /* \"#utility.yul\":13010:13089   */\n      tag_561\n      tag_314\n      jump\t// in\n    tag_561:\n        /* \"#utility.yul\":12972:13091   */\n    tag_560:\n        /* \"#utility.yul\":13130:13131   */\n      0x00\n        /* \"#utility.yul\":13155:13216   */\n      tag_562\n        /* \"#utility.yul\":13208:13215   */\n      dup7\n        /* \"#utility.yul\":13199:13205   */\n      dup3\n        /* \"#utility.yul\":13188:13197   */\n      dup8\n        /* \"#utility.yul\":13184:13206   */\n      add\n        /* \"#utility.yul\":13155:13216   */\n      tag_352\n      jump\t// in\n    tag_562:\n        /* \"#utility.yul\":13145:13216   */\n      swap4\n      pop\n        /* \"#utility.yul\":13101:13226   */\n      pop\n        /* \"#utility.yul\":13265:13267   */\n      0x20\n        /* \"#utility.yul\":13291:13344   */\n      tag_563\n        /* \"#utility.yul\":13336:13343   */\n      dup7\n        /* \"#utility.yul\":13327:13333   */\n      dup3\n        /* \"#utility.yul\":13316:13325   */\n      dup8\n        /* \"#utility.yul\":13312:13334   */\n      add\n        /* \"#utility.yul\":13291:13344   */\n      tag_322\n      jump\t// in\n    tag_563:\n        /* \"#utility.yul\":13281:13344   */\n      swap3\n      pop\n        /* \"#utility.yul\":13236:13354   */\n      pop\n        /* \"#utility.yul\":13393:13395   */\n      0x40\n        /* \"#utility.yul\":13419:13472   */\n      tag_564\n        /* \"#utility.yul\":13464:13471   */\n      dup7\n        /* \"#utility.yul\":13455:13461   */\n      dup3\n        /* \"#utility.yul\":13444:13453   */\n      dup8\n        /* \"#utility.yul\":13440:13462   */\n      add\n        /* \"#utility.yul\":13419:13472   */\n      tag_322\n      jump\t// in\n    tag_564:\n        /* \"#utility.yul\":13409:13472   */\n      swap2\n      pop\n        /* \"#utility.yul\":13364:13482   */\n      pop\n        /* \"#utility.yul\":12854:13489   */\n      swap3\n      pop\n      swap3\n      pop\n      swap3\n      jump\t// out\n        /* \"#utility.yul\":13495:13717   */\n    tag_62:\n        /* \"#utility.yul\":13588:13592   */\n      0x00\n        /* \"#utility.yul\":13626:13628   */\n      0x20\n        /* \"#utility.yul\":13615:13624   */\n      dup3\n        /* \"#utility.yul\":13611:13629   */\n      add\n        /* \"#utility.yul\":13603:13629   */\n      swap1\n      pop\n        /* \"#utility.yul\":13639:13710   */\n      tag_566\n        /* \"#utility.yul\":13707:13708   */\n      0x00\n        /* \"#utility.yul\":13696:13705   */\n      dup4\n        /* \"#utility.yul\":13692:13709   */\n      add\n        /* \"#utility.yul\":13683:13689   */\n      dup5\n        /* \"#utility.yul\":13639:13710   */\n      tag_323\n      jump\t// in\n    tag_566:\n        /* \"#utility.yul\":13495:13717   */\n      swap3\n      swap2\n      pop\n      pop\n      jump\t// out\n        /* \"#utility.yul\":13723:14367   */\n    tag_68:\n        /* \"#utility.yul\":13920:13924   */\n      0x00\n        /* \"#utility.yul\":13958:13961   */\n      0x80\n        /* \"#utility.yul\":13947:13956   */\n      dup3\n        /* \"#utility.yul\":13943:13962   */\n      add\n        /* \"#utility.yul\":13935:13962   */\n      swap1\n      pop\n        /* \"#utility.yul\":13972:14043   */\n      tag_568\n        /* \"#utility.yul\":14040:14041   */\n      0x00\n        /* \"#utility.yul\":14029:14038   */\n      dup4\n        /* \"#utility.yul\":14025:14042   */\n      add\n        /* \"#utility.yul\":14016:14022   */\n      dup8\n        /* \"#utility.yul\":13972:14043   */\n      tag_329\n      jump\t// in\n    tag_568:\n        /* \"#utility.yul\":14053:14125   */\n      tag_569\n        /* \"#utility.yul\":14121:14123   */\n      0x20\n        /* \"#utility.yul\":14110:14119   */\n      dup4\n        /* \"#utility.yul\":14106:14124   */\n      add\n        /* \"#utility.yul\":14097:14103   */\n      dup7\n        /* \"#utility.yul\":14053:14125   */\n      tag_323\n      jump\t// in\n    tag_569:\n        /* \"#utility.yul\":14172:14181   */\n      dup2\n        /* \"#utility.yul\":14166:14170   */\n      dup2\n        /* \"#utility.yul\":14162:14182   */\n      sub\n        /* \"#utility.yul\":14157:14159   */\n      0x40\n        /* \"#utility.yul\":14146:14155   */\n      dup4\n        /* \"#utility.yul\":14142:14160   */\n      add\n        /* \"#utility.yul\":14135:14183   */\n      mstore\n        /* \"#utility.yul\":14200:14278   */\n      tag_570\n        /* \"#utility.yul\":14273:14277   */\n      dup2\n        /* \"#utility.yul\":14264:14270   */\n      dup6\n        /* \"#utility.yul\":14200:14278   */\n      tag_328\n      jump\t// in\n    tag_570:\n        /* \"#utility.yul\":14192:14278   */\n      swap1\n      pop\n        /* \"#utility.yul\":14288:14360   */\n      tag_571\n        /* \"#utility.yul\":14356:14358   */\n      0x60\n        /* \"#utility.yul\":14345:14354   */\n      dup4\n        /* \"#utility.yul\":14341:14359   */\n      add\n        /* \"#utility.yul\":14332:14338   */\n      dup5\n        /* \"#utility.yul\":14288:14360   */\n      tag_323\n      jump\t// in\n    tag_571:\n        /* \"#utility.yul\":13723:14367   */\n      swap6\n      swap5\n      pop\n      pop\n      pop\n      pop\n      pop\n      jump\t// out\n        /* \"#utility.yul\":14373:14847   */\n    tag_72:\n        /* \"#utility.yul\":14441:14447   */\n      0x00\n        /* \"#utility.yul\":14449:14455   */\n      dup1\n        /* \"#utility.yul\":14498:14500   */\n      0x40\n        /* \"#utility.yul\":14486:14495   */\n      dup4\n        /* \"#utility.yul\":14477:14484   */\n      dup6\n        /* \"#utility.yul\":14473:14496   */\n      sub\n        /* \"#utility.yul\":14469:14501   */\n      slt\n        /* \"#utility.yul\":14466:14585   */\n      iszero\n      tag_573\n      jumpi\n        /* \"#utility.yul\":14504:14583   */\n      tag_574\n      tag_314\n      jump\t// in\n    tag_574:\n        /* \"#utility.yul\":14466:14585   */\n    tag_573:\n        /* \"#utility.yul\":14624:14625   */\n      0x00\n        /* \"#utility.yul\":14649:14702   */\n      tag_575\n        /* \"#utility.yul\":14694:14701   */\n      dup6\n        /* \"#utility.yul\":14685:14691   */\n      dup3\n        /* \"#utility.yul\":14674:14683   */\n      dup7\n        /* \"#utility.yul\":14670:14692   */\n      add\n        /* \"#utility.yul\":14649:14702   */\n      tag_319\n      jump\t// in\n    tag_575:\n        /* \"#utility.yul\":14639:14702   */\n      swap3\n      pop\n        /* \"#utility.yul\":14595:14712   */\n      pop\n        /* \"#utility.yul\":14751:14753   */\n      0x20\n        /* \"#utility.yul\":14777:14830   */\n      tag_576\n        /* \"#utility.yul\":14822:14829   */\n      dup6\n        /* \"#utility.yul\":14813:14819   */\n      dup3\n        /* \"#utility.yul\":14802:14811   */\n      dup7\n        /* \"#utility.yul\":14798:14820   */\n      add\n        /* \"#utility.yul\":14777:14830   */\n      tag_319\n      jump\t// in\n    tag_576:\n        /* \"#utility.yul\":14767:14830   */\n      swap2\n      pop\n        /* \"#utility.yul\":14722:14840   */\n      pop\n        /* \"#utility.yul\":14373:14847   */\n      swap3\n      pop\n      swap3\n      swap1\n      pop\n      jump\t// out\n        /* \"#utility.yul\":14853:15063   */\n    tag_75:\n        /* \"#utility.yul\":14940:14944   */\n      0x00\n        /* \"#utility.yul\":14978:14980   */\n      0x20\n        /* \"#utility.yul\":14967:14976   */\n      dup3\n        /* \"#utility.yul\":14963:14981   */\n      add\n        /* \"#utility.yul\":14955:14981   */\n      swap1\n      pop\n        /* \"#utility.yul\":14991:15056   */\n      tag_578\n        /* \"#utility.yul\":15053:15054   */\n      0x00\n        /* \"#utility.yul\":15042:15051   */\n      dup4\n        /* \"#utility.yul\":15038:15055   */\n      add\n        /* \"#utility.yul\":15029:15035   */\n      dup5\n        /* \"#utility.yul\":14991:15056   */\n      tag_331\n      jump\t// in\n    tag_578:\n        /* \"#utility.yul\":14853:15063   */\n      swap3\n      swap2\n      pop\n      pop\n      jump\t// out\n        /* \"#utility.yul\":15069:15850   */\n    tag_79:\n        /* \"#utility.yul\":15163:15169   */\n      0x00\n        /* \"#utility.yul\":15171:15177   */\n      dup1\n        /* \"#utility.yul\":15179:15185   */\n      0x00\n        /* \"#utility.yul\":15187:15193   */\n      dup1\n        /* \"#utility.yul\":15236:15239   */\n      0x80\n        /* \"#utility.yul\":15224:15233   */\n      dup6\n        /* \"#utility.yul\":15215:15222   */\n      dup8\n        /* \"#utility.yul\":15211:15234   */\n      sub\n        /* \"#utility.yul\":15207:15240   */\n      slt\n        /* \"#utility.yul\":15204:15324   */\n      iszero\n      tag_580\n      jumpi\n        /* \"#utility.yul\":15243:15322   */\n      tag_581\n      tag_314\n      jump\t// in\n    tag_581:\n        /* \"#utility.yul\":15204:15324   */\n    tag_580:\n        /* \"#utility.yul\":15363:15364   */\n      0x00\n        /* \"#utility.yul\":15388:15441   */\n      tag_582\n        /* \"#utility.yul\":15433:15440   */\n      dup8\n        /* \"#utility.yul\":15424:15430   */\n      dup3\n        /* \"#utility.yul\":15413:15422   */\n      dup9\n        /* \"#utility.yul\":15409:15431   */\n      add\n        /* \"#utility.yul\":15388:15441   */\n      tag_322\n      jump\t// in\n    tag_582:\n        /* \"#utility.yul\":15378:15441   */\n      swap5\n      pop\n        /* \"#utility.yul\":15334:15451   */\n      pop\n        /* \"#utility.yul\":15490:15492   */\n      0x20\n        /* \"#utility.yul\":15516:15569   */\n      tag_583\n        /* \"#utility.yul\":15561:15568   */\n      dup8\n        /* \"#utility.yul\":15552:15558   */\n      dup3\n        /* \"#utility.yul\":15541:15550   */\n      dup9\n        /* \"#utility.yul\":15537:15559   */\n      add\n        /* \"#utility.yul\":15516:15569   */\n      tag_319\n      jump\t// in\n    tag_583:\n        /* \"#utility.yul\":15506:15569   */\n      swap4\n      pop\n        /* \"#utility.yul\":15461:15579   */\n      pop\n        /* \"#utility.yul\":15618:15620   */\n      0x40\n        /* \"#utility.yul\":15644:15697   */\n      tag_584\n        /* \"#utility.yul\":15689:15696   */\n      dup8\n        /* \"#utility.yul\":15680:15686   */\n      dup3\n        /* \"#utility.yul\":15669:15678   */\n      dup9\n        /* \"#utility.yul\":15665:15687   */\n      add\n        /* \"#utility.yul\":15644:15697   */\n      tag_322\n      jump\t// in\n    tag_584:\n        /* \"#utility.yul\":15634:15697   */\n      swap3\n      pop\n        /* \"#utility.yul\":15589:15707   */\n      pop\n        /* \"#utility.yul\":15746:15748   */\n      0x60\n        /* \"#utility.yul\":15772:15833   */\n      tag_585\n        /* \"#utility.yul\":15825:15832   */\n      dup8\n        /* \"#utility.yul\":15816:15822   */\n      dup3\n        /* \"#utility.yul\":15805:15814   */\n      dup9\n        /* \"#utility.yul\":15801:15823   */\n      add\n        /* \"#utility.yul\":15772:15833   */\n      tag_352\n      jump\t// in\n    tag_585:\n        /* \"#utility.yul\":15762:15833   */\n      swap2\n      pop\n        /* \"#utility.yul\":15717:15843   */\n      pop\n        /* \"#utility.yul\":15069:15850   */\n      swap3\n      swap6\n      swap2\n      swap5\n      pop\n      swap3\n      pop\n      jump\t// out\n        /* \"#utility.yul\":15856:15997   */\n    tag_353:\n        /* \"#utility.yul\":15950:15956   */\n      0x00\n        /* \"#utility.yul\":15984:15989   */\n      dup2\n        /* \"#utility.yul\":15978:15990   */\n      mload\n        /* \"#utility.yul\":15968:15990   */\n      swap1\n      pop\n        /* \"#utility.yul\":15856:15997   */\n      swap2\n      swap1\n      pop\n      jump\t// out\n        /* \"#utility.yul\":16003:16214   */\n    tag_354:\n        /* \"#utility.yul\":16129:16140   */\n      0x00\n        /* \"#utility.yul\":16163:16169   */\n      dup3\n        /* \"#utility.yul\":16158:16161   */\n      dup3\n        /* \"#utility.yul\":16151:16170   */\n      mstore\n        /* \"#utility.yul\":16203:16207   */\n      0x20\n        /* \"#utility.yul\":16198:16201   */\n      dup3\n        /* \"#utility.yul\":16194:16208   */\n      add\n        /* \"#utility.yul\":16179:16208   */\n      swap1\n      pop\n        /* \"#utility.yul\":16003:16214   */\n      swap3\n      swap2\n      pop\n      pop\n      jump\t// out\n        /* \"#utility.yul\":16220:16379   */\n    tag_355:\n        /* \"#utility.yul\":16314:16318   */\n      0x00\n        /* \"#utility.yul\":16337:16340   */\n      dup2\n        /* \"#utility.yul\":16329:16340   */\n      swap1\n      pop\n        /* \"#utility.yul\":16367:16371   */\n      0x20\n        /* \"#utility.yul\":16362:16365   */\n      dup3\n        /* \"#utility.yul\":16358:16372   */\n      add\n        /* \"#utility.yul\":16350:16372   */\n      swap1\n      pop\n        /* \"#utility.yul\":16220:16379   */\n      swap2\n      swap1\n      pop\n      jump\t// out\n        /* \"#utility.yul\":16465:17592   */\n    tag_356:\n        /* \"#utility.yul\":16578:16581   */\n      0x00\n        /* \"#utility.yul\":16614:16618   */\n      0xa0\n        /* \"#utility.yul\":16609:16612   */\n      dup4\n        /* \"#utility.yul\":16605:16619   */\n      add\n        /* \"#utility.yul\":16707:16711   */\n      0x00\n        /* \"#utility.yul\":16700:16705   */\n      dup4\n        /* \"#utility.yul\":16696:16712   */\n      add\n        /* \"#utility.yul\":16690:16713   */\n      mload\n        /* \"#utility.yul\":16726:16789   */\n      tag_590\n        /* \"#utility.yul\":16783:16787   */\n      0x00\n        /* \"#utility.yul\":16778:16781   */\n      dup7\n        /* \"#utility.yul\":16774:16788   */\n      add\n        /* \"#utility.yul\":16760:16772   */\n      dup3\n        /* \"#utility.yul\":16726:16789   */\n      tag_342\n      jump\t// in\n    tag_590:\n        /* \"#utility.yul\":16629:16799   */\n      pop\n        /* \"#utility.yul\":16882:16886   */\n      0x20\n        /* \"#utility.yul\":16875:16880   */\n      dup4\n        /* \"#utility.yul\":16871:16887   */\n      add\n        /* \"#utility.yul\":16865:16888   */\n      mload\n        /* \"#utility.yul\":16935:16938   */\n      dup5\n        /* \"#utility.yul\":16929:16933   */\n      dup3\n        /* \"#utility.yul\":16925:16939   */\n      sub\n        /* \"#utility.yul\":16918:16922   */\n      0x20\n        /* \"#utility.yul\":16913:16916   */\n      dup7\n        /* \"#utility.yul\":16909:16923   */\n      add\n        /* \"#utility.yul\":16902:16940   */\n      mstore\n        /* \"#utility.yul\":16961:17034   */\n      tag_591\n        /* \"#utility.yul\":17029:17033   */\n      dup3\n        /* \"#utility.yul\":17015:17027   */\n      dup3\n        /* \"#utility.yul\":16961:17034   */\n      tag_344\n      jump\t// in\n    tag_591:\n        /* \"#utility.yul\":16953:17034   */\n      swap2\n      pop\n        /* \"#utility.yul\":16809:17045   */\n      pop\n        /* \"#utility.yul\":17129:17133   */\n      0x40\n        /* \"#utility.yul\":17122:17127   */\n      dup4\n        /* \"#utility.yul\":17118:17134   */\n      add\n        /* \"#utility.yul\":17112:17135   */\n      mload\n        /* \"#utility.yul\":17148:17211   */\n      tag_592\n        /* \"#utility.yul\":17205:17209   */\n      0x40\n        /* \"#utility.yul\":17200:17203   */\n      dup7\n        /* \"#utility.yul\":17196:17210   */\n      add\n        /* \"#utility.yul\":17182:17194   */\n      dup3\n        /* \"#utility.yul\":17148:17211   */\n      tag_342\n      jump\t// in\n    tag_592:\n        /* \"#utility.yul\":17055:17221   */\n      pop\n        /* \"#utility.yul\":17301:17305   */\n      0x60\n        /* \"#utility.yul\":17294:17299   */\n      dup4\n        /* \"#utility.yul\":17290:17306   */\n      add\n        /* \"#utility.yul\":17284:17307   */\n      mload\n        /* \"#utility.yul\":17320:17383   */\n      tag_593\n        /* \"#utility.yul\":17377:17381   */\n      0x60\n        /* \"#utility.yul\":17372:17375   */\n      dup7\n        /* \"#utility.yul\":17368:17382   */\n      add\n        /* \"#utility.yul\":17354:17366   */\n      dup3\n        /* \"#utility.yul\":17320:17383   */\n      tag_335\n      jump\t// in\n    tag_593:\n        /* \"#utility.yul\":17231:17393   */\n      pop\n        /* \"#utility.yul\":17473:17477   */\n      0x80\n        /* \"#utility.yul\":17466:17471   */\n      dup4\n        /* \"#utility.yul\":17462:17478   */\n      add\n        /* \"#utility.yul\":17456:17479   */\n      mload\n        /* \"#utility.yul\":17492:17555   */\n      tag_594\n        /* \"#utility.yul\":17549:17553   */\n      0x80\n        /* \"#utility.yul\":17544:17547   */\n      dup7\n        /* \"#utility.yul\":17540:17554   */\n      add\n        /* \"#utility.yul\":17526:17538   */\n      dup3\n        /* \"#utility.yul\":17492:17555   */\n      tag_335\n      jump\t// in\n    tag_594:\n        /* \"#utility.yul\":17403:17565   */\n      pop\n        /* \"#utility.yul\":17582:17586   */\n      dup1\n        /* \"#utility.yul\":17575:17586   */\n      swap2\n      pop\n        /* \"#utility.yul\":16583:17592   */\n      pop\n        /* \"#utility.yul\":16465:17592   */\n      swap3\n      swap2\n      pop\n      pop\n      jump\t// out\n        /* \"#utility.yul\":17598:17862   */\n    tag_357:\n        /* \"#utility.yul\":17721:17731   */\n      0x00\n        /* \"#utility.yul\":17756:17856   */\n      tag_596\n        /* \"#utility.yul\":17852:17855   */\n      dup4\n        /* \"#utility.yul\":17844:17850   */\n      dup4\n        /* \"#utility.yul\":17756:17856   */\n      tag_356\n      jump\t// in\n    tag_596:\n        /* \"#utility.yul\":17742:17856   */\n      swap1\n      pop\n        /* \"#utility.yul\":17598:17862   */\n      swap3\n      swap2\n      pop\n      pop\n      jump\t// out\n        /* \"#utility.yul\":17868:18008   */\n    tag_358:\n        /* \"#utility.yul\":17965:17969   */\n      0x00\n        /* \"#utility.yul\":17997:18001   */\n      0x20\n        /* \"#utility.yul\":17992:17995   */\n      dup3\n        /* \"#utility.yul\":17988:18002   */\n      add\n        /* \"#utility.yul\":17980:18002   */\n      swap1\n      pop\n        /* \"#utility.yul\":17868:18008   */\n      swap2\n      swap1\n      pop\n      jump\t// out\n        /* \"#utility.yul\":18098:19225   */\n    tag_359:\n        /* \"#utility.yul\":18271:18274   */\n      0x00\n        /* \"#utility.yul\":18300:18381   */\n      tag_599\n        /* \"#utility.yul\":18375:18380   */\n      dup3\n        /* \"#utility.yul\":18300:18381   */\n      tag_353\n      jump\t// in\n    tag_599:\n        /* \"#utility.yul\":18397:18510   */\n      tag_600\n        /* \"#utility.yul\":18503:18509   */\n      dup2\n        /* \"#utility.yul\":18498:18501   */\n      dup6\n        /* \"#utility.yul\":18397:18510   */\n      tag_354\n      jump\t// in\n    tag_600:\n        /* \"#utility.yul\":18390:18510   */\n      swap4\n      pop\n        /* \"#utility.yul\":18536:18539   */\n      dup4\n        /* \"#utility.yul\":18581:18585   */\n      0x20\n        /* \"#utility.yul\":18573:18579   */\n      dup3\n        /* \"#utility.yul\":18569:18586   */\n      mul\n        /* \"#utility.yul\":18564:18567   */\n      dup6\n        /* \"#utility.yul\":18560:18587   */\n      add\n        /* \"#utility.yul\":18611:18694   */\n      tag_601\n        /* \"#utility.yul\":18688:18693   */\n      dup6\n        /* \"#utility.yul\":18611:18694   */\n      tag_355\n      jump\t// in\n    tag_601:\n        /* \"#utility.yul\":18717:18724   */\n      dup1\n        /* \"#utility.yul\":18748:18749   */\n      0x00\n        /* \"#utility.yul\":18733:19180   */\n    tag_602:\n        /* \"#utility.yul\":18758:18764   */\n      dup6\n        /* \"#utility.yul\":18755:18756   */\n      dup2\n        /* \"#utility.yul\":18752:18765   */\n      lt\n        /* \"#utility.yul\":18733:19180   */\n      iszero\n      tag_604\n      jumpi\n        /* \"#utility.yul\":18829:18838   */\n      dup5\n        /* \"#utility.yul\":18823:18827   */\n      dup5\n        /* \"#utility.yul\":18819:18839   */\n      sub\n        /* \"#utility.yul\":18814:18817   */\n      dup10\n        /* \"#utility.yul\":18807:18840   */\n      mstore\n        /* \"#utility.yul\":18880:18886   */\n      dup2\n        /* \"#utility.yul\":18874:18887   */\n      mload\n        /* \"#utility.yul\":18908:19026   */\n      tag_605\n        /* \"#utility.yul\":19021:19025   */\n      dup6\n        /* \"#utility.yul\":19006:19019   */\n      dup3\n        /* \"#utility.yul\":18908:19026   */\n      tag_357\n      jump\t// in\n    tag_605:\n        /* \"#utility.yul\":18900:19026   */\n      swap5\n      pop\n        /* \"#utility.yul\":19049:19136   */\n      tag_606\n        /* \"#utility.yul\":19129:19135   */\n      dup4\n        /* \"#utility.yul\":19049:19136   */\n      tag_358\n      jump\t// in\n    tag_606:\n        /* \"#utility.yul\":19039:19136   */\n      swap3\n      pop\n        /* \"#utility.yul\":19165:19169   */\n      0x20\n        /* \"#utility.yul\":19160:19163   */\n      dup11\n        /* \"#utility.yul\":19156:19170   */\n      add\n        /* \"#utility.yul\":19149:19170   */\n      swap10\n      pop\n        /* \"#utility.yul\":18793:19180   */\n      pop\n        /* \"#utility.yul\":18780:18781   */\n      0x01\n        /* \"#utility.yul\":18777:18778   */\n      dup2\n        /* \"#utility.yul\":18773:18782   */\n      add\n        /* \"#utility.yul\":18768:18782   */\n      swap1\n      pop\n        /* \"#utility.yul\":18733:19180   */\n      jump(tag_602)\n    tag_604:\n        /* \"#utility.yul\":18737:18751   */\n      pop\n        /* \"#utility.yul\":19196:19200   */\n      dup3\n        /* \"#utility.yul\":19189:19200   */\n      swap8\n      pop\n        /* \"#utility.yul\":19216:19219   */\n      dup8\n        /* \"#utility.yul\":19209:19219   */\n      swap6\n      pop\n        /* \"#utility.yul\":18276:19225   */\n      pop\n      pop\n      pop\n      pop\n      pop\n        /* \"#utility.yul\":18098:19225   */\n      swap3\n      swap2\n      pop\n      pop\n      jump\t// out\n        /* \"#utility.yul\":19231:19712   */\n    tag_86:\n        /* \"#utility.yul\":19428:19432   */\n      0x00\n        /* \"#utility.yul\":19466:19468   */\n      0x20\n        /* \"#utility.yul\":19455:19464   */\n      dup3\n        /* \"#utility.yul\":19451:19469   */\n      add\n        /* \"#utility.yul\":19443:19469   */\n      swap1\n      pop\n        /* \"#utility.yul\":19515:19524   */\n      dup2\n        /* \"#utility.yul\":19509:19513   */\n      dup2\n        /* \"#utility.yul\":19505:19525   */\n      sub\n        /* \"#utility.yul\":19501:19502   */\n      0x00\n        /* \"#utility.yul\":19490:19499   */\n      dup4\n        /* \"#utility.yul\":19486:19503   */\n      add\n        /* \"#utility.yul\":19479:19526   */\n      mstore\n        /* \"#utility.yul\":19543:19705   */\n      tag_608\n        /* \"#utility.yul\":19700:19704   */\n      dup2\n        /* \"#utility.yul\":19691:19697   */\n      dup5\n        /* \"#utility.yul\":19543:19705   */\n      tag_359\n      jump\t// in\n    tag_608:\n        /* \"#utility.yul\":19535:19705   */\n      swap1\n      pop\n        /* \"#utility.yul\":19231:19712   */\n      swap3\n      swap2\n      pop\n      pop\n      jump\t// out\n        /* \"#utility.yul\":19718:19856   */\n    tag_360:\n        /* \"#utility.yul\":19809:19815   */\n      0x00\n        /* \"#utility.yul\":19843:19848   */\n      dup2\n        /* \"#utility.yul\":19837:19849   */\n      mload\n        /* \"#utility.yul\":19827:19849   */\n      swap1\n      pop\n        /* \"#utility.yul\":19718:19856   */\n      swap2\n      swap1\n      pop\n      jump\t// out\n        /* \"#utility.yul\":19862:20070   */\n    tag_361:\n        /* \"#utility.yul\":19985:19996   */\n      0x00\n        /* \"#utility.yul\":20019:20025   */\n      dup3\n        /* \"#utility.yul\":20014:20017   */\n      dup3\n        /* \"#utility.yul\":20007:20026   */\n      mstore\n        /* \"#utility.yul\":20059:20063   */\n      0x20\n        /* \"#utility.yul\":20054:20057   */\n      dup3\n        /* \"#utility.yul\":20050:20064   */\n      add\n        /* \"#utility.yul\":20035:20064   */\n      swap1\n      pop\n        /* \"#utility.yul\":19862:20070   */\n      swap3\n      swap2\n      pop\n      pop\n      jump\t// out\n        /* \"#utility.yul\":20076:20232   */\n    tag_362:\n        /* \"#utility.yul\":20167:20171   */\n      0x00\n        /* \"#utility.yul\":20190:20193   */\n      dup2\n        /* \"#utility.yul\":20182:20193   */\n      swap1\n      pop\n        /* \"#utility.yul\":20220:20224   */\n      0x20\n        /* \"#utility.yul\":20215:20218   */\n      dup3\n        /* \"#utility.yul\":20211:20225   */\n      add\n        /* \"#utility.yul\":20203:20225   */\n      swap1\n      pop\n        /* \"#utility.yul\":20076:20232   */\n      swap2\n      swap1\n      pop\n      jump\t// out\n        /* \"#utility.yul\":20312:21274   */\n    tag_363:\n        /* \"#utility.yul\":20419:20422   */\n      0x00\n        /* \"#utility.yul\":20455:20459   */\n      0x80\n        /* \"#utility.yul\":20450:20453   */\n      dup4\n        /* \"#utility.yul\":20446:20460   */\n      add\n        /* \"#utility.yul\":20553:20557   */\n      0x00\n        /* \"#utility.yul\":20546:20551   */\n      dup4\n        /* \"#utility.yul\":20542:20558   */\n      add\n        /* \"#utility.yul\":20536:20559   */\n      mload\n        /* \"#utility.yul\":20572:20635   */\n      tag_613\n        /* \"#utility.yul\":20629:20633   */\n      0x00\n        /* \"#utility.yul\":20624:20627   */\n      dup7\n        /* \"#utility.yul\":20620:20634   */\n      add\n        /* \"#utility.yul\":20606:20618   */\n      dup3\n        /* \"#utility.yul\":20572:20635   */\n      tag_335\n      jump\t// in\n    tag_613:\n        /* \"#utility.yul\":20470:20645   */\n      pop\n        /* \"#utility.yul\":20733:20737   */\n      0x20\n        /* \"#utility.yul\":20726:20731   */\n      dup4\n        /* \"#utility.yul\":20722:20738   */\n      add\n        /* \"#utility.yul\":20716:20739   */\n      mload\n        /* \"#utility.yul\":20752:20815   */\n      tag_614\n        /* \"#utility.yul\":20809:20813   */\n      0x20\n        /* \"#utility.yul\":20804:20807   */\n      dup7\n        /* \"#utility.yul\":20800:20814   */\n      add\n        /* \"#utility.yul\":20786:20798   */\n      dup3\n        /* \"#utility.yul\":20752:20815   */\n      tag_342\n      jump\t// in\n    tag_614:\n        /* \"#utility.yul\":20655:20825   */\n      pop\n        /* \"#utility.yul\":20908:20912   */\n      0x40\n        /* \"#utility.yul\":20901:20906   */\n      dup4\n        /* \"#utility.yul\":20897:20913   */\n      add\n        /* \"#utility.yul\":20891:20914   */\n      mload\n        /* \"#utility.yul\":20961:20964   */\n      dup5\n        /* \"#utility.yul\":20955:20959   */\n      dup3\n        /* \"#utility.yul\":20951:20965   */\n      sub\n        /* \"#utility.yul\":20944:20948   */\n      0x40\n        /* \"#utility.yul\":20939:20942   */\n      dup7\n        /* \"#utility.yul\":20935:20949   */\n      add\n        /* \"#utility.yul\":20928:20966   */\n      mstore\n        /* \"#utility.yul\":20987:21060   */\n      tag_615\n        /* \"#utility.yul\":21055:21059   */\n      dup3\n        /* \"#utility.yul\":21041:21053   */\n      dup3\n        /* \"#utility.yul\":20987:21060   */\n      tag_344\n      jump\t// in\n    tag_615:\n        /* \"#utility.yul\":20979:21060   */\n      swap2\n      pop\n        /* \"#utility.yul\":20835:21071   */\n      pop\n        /* \"#utility.yul\":21155:21159   */\n      0x60\n        /* \"#utility.yul\":21148:21153   */\n      dup4\n        /* \"#utility.yul\":21144:21160   */\n      add\n        /* \"#utility.yul\":21138:21161   */\n      mload\n        /* \"#utility.yul\":21174:21237   */\n      tag_616\n        /* \"#utility.yul\":21231:21235   */\n      0x60\n        /* \"#utility.yul\":21226:21229   */\n      dup7\n        /* \"#utility.yul\":21222:21236   */\n      add\n        /* \"#utility.yul\":21208:21220   */\n      dup3\n        /* \"#utility.yul\":21174:21237   */\n      tag_342\n      jump\t// in\n    tag_616:\n        /* \"#utility.yul\":21081:21247   */\n      pop\n        /* \"#utility.yul\":21264:21268   */\n      dup1\n        /* \"#utility.yul\":21257:21268   */\n      swap2\n      pop\n        /* \"#utility.yul\":20424:21274   */\n      pop\n        /* \"#utility.yul\":20312:21274   */\n      swap3\n      swap2\n      pop\n      pop\n      jump\t// out\n        /* \"#utility.yul\":21280:21532   */\n    tag_364:\n        /* \"#utility.yul\":21397:21407   */\n      0x00\n        /* \"#utility.yul\":21432:21526   */\n      tag_618\n        /* \"#utility.yul\":21522:21525   */\n      dup4\n        /* \"#utility.yul\":21514:21520   */\n      dup4\n        /* \"#utility.yul\":21432:21526   */\n      tag_363\n      jump\t// in\n    tag_618:\n        /* \"#utility.yul\":21418:21526   */\n      swap1\n      pop\n        /* \"#utility.yul\":21280:21532   */\n      swap3\n      swap2\n      pop\n      pop\n      jump\t// out\n        /* \"#utility.yul\":21538:21675   */\n    tag_365:\n        /* \"#utility.yul\":21632:21636   */\n      0x00\n        /* \"#utility.yul\":21664:21668   */\n      0x20\n        /* \"#utility.yul\":21659:21662   */\n      dup3\n        /* \"#utility.yul\":21655:21669   */\n      add\n        /* \"#utility.yul\":21647:21669   */\n      swap1\n      pop\n        /* \"#utility.yul\":21538:21675   */\n      swap2\n      swap1\n      pop\n      jump\t// out\n        /* \"#utility.yul\":21759:22862   */\n    tag_366:\n        /* \"#utility.yul\":21926:21929   */\n      0x00\n        /* \"#utility.yul\":21955:22033   */\n      tag_621\n        /* \"#utility.yul\":22027:22032   */\n      dup3\n        /* \"#utility.yul\":21955:22033   */\n      tag_360\n      jump\t// in\n    tag_621:\n        /* \"#utility.yul\":22049:22159   */\n      tag_622\n        /* \"#utility.yul\":22152:22158   */\n      dup2\n        /* \"#utility.yul\":22147:22150   */\n      dup6\n        /* \"#utility.yul\":22049:22159   */\n      tag_361\n      jump\t// in\n    tag_622:\n        /* \"#utility.yul\":22042:22159   */\n      swap4\n      pop\n        /* \"#utility.yul\":22185:22188   */\n      dup4\n        /* \"#utility.yul\":22230:22234   */\n      0x20\n        /* \"#utility.yul\":22222:22228   */\n      dup3\n        /* \"#utility.yul\":22218:22235   */\n      mul\n        /* \"#utility.yul\":22213:22216   */\n      dup6\n        /* \"#utility.yul\":22209:22236   */\n      add\n        /* \"#utility.yul\":22260:22340   */\n      tag_623\n        /* \"#utility.yul\":22334:22339   */\n      dup6\n        /* \"#utility.yul\":22260:22340   */\n      tag_362\n      jump\t// in\n    tag_623:\n        /* \"#utility.yul\":22363:22370   */\n      dup1\n        /* \"#utility.yul\":22394:22395   */\n      0x00\n        /* \"#utility.yul\":22379:22817   */\n    tag_624:\n        /* \"#utility.yul\":22404:22410   */\n      dup6\n        /* \"#utility.yul\":22401:22402   */\n      dup2\n        /* \"#utility.yul\":22398:22411   */\n      lt\n        /* \"#utility.yul\":22379:22817   */\n      iszero\n      tag_626\n      jumpi\n        /* \"#utility.yul\":22475:22484   */\n      dup5\n        /* \"#utility.yul\":22469:22473   */\n      dup5\n        /* \"#utility.yul\":22465:22485   */\n      sub\n        /* \"#utility.yul\":22460:22463   */\n      dup10\n        /* \"#utility.yul\":22453:22486   */\n      mstore\n        /* \"#utility.yul\":22526:22532   */\n      dup2\n        /* \"#utility.yul\":22520:22533   */\n      mload\n        /* \"#utility.yul\":22554:22666   */\n      tag_627\n        /* \"#utility.yul\":22661:22665   */\n      dup6\n        /* \"#utility.yul\":22646:22659   */\n      dup3\n        /* \"#utility.yul\":22554:22666   */\n      tag_364\n      jump\t// in\n    tag_627:\n        /* \"#utility.yul\":22546:22666   */\n      swap5\n      pop\n        /* \"#utility.yul\":22689:22773   */\n      tag_628\n        /* \"#utility.yul\":22766:22772   */\n      dup4\n        /* \"#utility.yul\":22689:22773   */\n      tag_365\n      jump\t// in\n    tag_628:\n        /* \"#utility.yul\":22679:22773   */\n      swap3\n      pop\n        /* \"#utility.yul\":22802:22806   */\n      0x20\n        /* \"#utility.yul\":22797:22800   */\n      dup11\n        /* \"#utility.yul\":22793:22807   */\n      add\n        /* \"#utility.yul\":22786:22807   */\n      swap10\n      pop\n        /* \"#utility.yul\":22439:22817   */\n      pop\n        /* \"#utility.yul\":22426:22427   */\n      0x01\n        /* \"#utility.yul\":22423:22424   */\n      dup2\n        /* \"#utility.yul\":22419:22428   */\n      add\n        /* \"#utility.yul\":22414:22428   */\n      swap1\n      pop\n        /* \"#utility.yul\":22379:22817   */\n      jump(tag_624)\n    tag_626:\n        /* \"#utility.yul\":22383:22397   */\n      pop\n        /* \"#utility.yul\":22833:22837   */\n      dup3\n        /* \"#utility.yul\":22826:22837   */\n      swap8\n      pop\n        /* \"#utility.yul\":22853:22856   */\n      dup8\n        /* \"#utility.yul\":22846:22856   */\n      swap6\n      pop\n        /* \"#utility.yul\":21931:22862   */\n      pop\n      pop\n      pop\n      pop\n      pop\n        /* \"#utility.yul\":21759:22862   */\n      swap3\n      swap2\n      pop\n      pop\n      jump\t// out\n        /* \"#utility.yul\":22868:23337   */\n    tag_91:\n        /* \"#utility.yul\":23059:23063   */\n      0x00\n        /* \"#utility.yul\":23097:23099   */\n      0x20\n        /* \"#utility.yul\":23086:23095   */\n      dup3\n        /* \"#utility.yul\":23082:23100   */\n      add\n        /* \"#utility.yul\":23074:23100   */\n      swap1\n      pop\n        /* \"#utility.yul\":23146:23155   */\n      dup2\n        /* \"#utility.yul\":23140:23144   */\n      dup2\n        /* \"#utility.yul\":23136:23156   */\n      sub\n        /* \"#utility.yul\":23132:23133   */\n      0x00\n        /* \"#utility.yul\":23121:23130   */\n      dup4\n        /* \"#utility.yul\":23117:23134   */\n      add\n        /* \"#utility.yul\":23110:23157   */\n      mstore\n        /* \"#utility.yul\":23174:23330   */\n      tag_630\n        /* \"#utility.yul\":23325:23329   */\n      dup2\n        /* \"#utility.yul\":23316:23322   */\n      dup5\n        /* \"#utility.yul\":23174:23330   */\n      tag_366\n      jump\t// in\n    tag_630:\n        /* \"#utility.yul\":23166:23330   */\n      swap1\n      pop\n        /* \"#utility.yul\":22868:23337   */\n      swap3\n      swap2\n      pop\n      pop\n      jump\t// out\n        /* \"#utility.yul\":23343:23460   */\n    tag_367:\n        /* \"#utility.yul\":23452:23453   */\n      0x00\n        /* \"#utility.yul\":23449:23450   */\n      dup1\n        /* \"#utility.yul\":23442:23454   */\n      revert\n        /* \"#utility.yul\":23466:23583   */\n    tag_368:\n        /* \"#utility.yul\":23575:23576   */\n      0x00\n        /* \"#utility.yul\":23572:23573   */\n      dup1\n        /* \"#utility.yul\":23565:23577   */\n      revert\n        /* \"#utility.yul\":23589:23769   */\n    tag_369:\n        /* \"#utility.yul\":23637:23714   */\n      0x4e487b7100000000000000000000000000000000000000000000000000000000\n        /* \"#utility.yul\":23634:23635   */\n      0x00\n        /* \"#utility.yul\":23627:23715   */\n      mstore\n        /* \"#utility.yul\":23734:23738   */\n      0x41\n        /* \"#utility.yul\":23731:23732   */\n      0x04\n        /* \"#utility.yul\":23724:23739   */\n      mstore\n        /* \"#utility.yul\":23758:23762   */\n      0x24\n        /* \"#utility.yul\":23755:23756   */\n      0x00\n        /* \"#utility.yul\":23748:23763   */\n      revert\n        /* \"#utility.yul\":23775:24056   */\n    tag_370:\n        /* \"#utility.yul\":23858:23885   */\n      tag_635\n        /* \"#utility.yul\":23880:23884   */\n      dup3\n        /* \"#utility.yul\":23858:23885   */\n      tag_327\n      jump\t// in\n    tag_635:\n        /* \"#utility.yul\":23850:23856   */\n      dup2\n        /* \"#utility.yul\":23846:23886   */\n      add\n        /* \"#utility.yul\":23988:23994   */\n      dup2\n        /* \"#utility.yul\":23976:23986   */\n      dup2\n        /* \"#utility.yul\":23973:23995   */\n      lt\n        /* \"#utility.yul\":23952:23970   */\n      0xffffffffffffffff\n        /* \"#utility.yul\":23940:23950   */\n      dup3\n        /* \"#utility.yul\":23937:23971   */\n      gt\n        /* \"#utility.yul\":23934:23996   */\n      or\n        /* \"#utility.yul\":23931:24019   */\n      iszero\n      tag_636\n      jumpi\n        /* \"#utility.yul\":23999:24017   */\n      tag_637\n      tag_369\n      jump\t// in\n    tag_637:\n        /* \"#utility.yul\":23931:24019   */\n    tag_636:\n        /* \"#utility.yul\":24039:24049   */\n      dup1\n        /* \"#utility.yul\":24035:24037   */\n      0x40\n        /* \"#utility.yul\":24028:24050   */\n      mstore\n        /* \"#utility.yul\":23818:24056   */\n      pop\n        /* \"#utility.yul\":23775:24056   */\n      pop\n      pop\n      jump\t// out\n        /* \"#utility.yul\":24062:24191   */\n    tag_371:\n        /* \"#utility.yul\":24096:24102   */\n      0x00\n        /* \"#utility.yul\":24123:24143   */\n      tag_639\n      tag_313\n      jump\t// in\n    tag_639:\n        /* \"#utility.yul\":24113:24143   */\n      swap1\n      pop\n        /* \"#utility.yul\":24152:24185   */\n      tag_640\n        /* \"#utility.yul\":24180:24184   */\n      dup3\n        /* \"#utility.yul\":24172:24178   */\n      dup3\n        /* \"#utility.yul\":24152:24185   */\n      tag_370\n      jump\t// in\n    tag_640:\n        /* \"#utility.yul\":24062:24191   */\n      swap2\n      swap1\n      pop\n      jump\t// out\n        /* \"#utility.yul\":24197:24505   */\n    tag_372:\n        /* \"#utility.yul\":24259:24263   */\n      0x00\n        /* \"#utility.yul\":24349:24367   */\n      0xffffffffffffffff\n        /* \"#utility.yul\":24341:24347   */\n      dup3\n        /* \"#utility.yul\":24338:24368   */\n      gt\n        /* \"#utility.yul\":24335:24391   */\n      iszero\n      tag_642\n      jumpi\n        /* \"#utility.yul\":24371:24389   */\n      tag_643\n      tag_369\n      jump\t// in\n    tag_643:\n        /* \"#utility.yul\":24335:24391   */\n    tag_642:\n        /* \"#utility.yul\":24409:24438   */\n      tag_644\n        /* \"#utility.yul\":24431:24437   */\n      dup3\n        /* \"#utility.yul\":24409:24438   */\n      tag_327\n      jump\t// in\n    tag_644:\n        /* \"#utility.yul\":24401:24438   */\n      swap1\n      pop\n        /* \"#utility.yul\":24493:24497   */\n      0x20\n        /* \"#utility.yul\":24487:24491   */\n      dup2\n        /* \"#utility.yul\":24483:24498   */\n      add\n        /* \"#utility.yul\":24475:24498   */\n      swap1\n      pop\n        /* \"#utility.yul\":24197:24505   */\n      swap2\n      swap1\n      pop\n      jump\t// out\n        /* \"#utility.yul\":24511:24659   */\n    tag_373:\n        /* \"#utility.yul\":24609:24615   */\n      dup3\n        /* \"#utility.yul\":24604:24607   */\n      dup2\n        /* \"#utility.yul\":24599:24602   */\n      dup4\n        /* \"#utility.yul\":24586:24616   */\n      calldatacopy\n        /* \"#utility.yul\":24650:24651   */\n      0x00\n        /* \"#utility.yul\":24641:24647   */\n      dup4\n        /* \"#utility.yul\":24636:24639   */\n      dup4\n        /* \"#utility.yul\":24632:24648   */\n      add\n        /* \"#utility.yul\":24625:24652   */\n      mstore\n        /* \"#utility.yul\":24511:24659   */\n      pop\n      pop\n      pop\n      jump\t// out\n        /* \"#utility.yul\":24665:25090   */\n    tag_374:\n        /* \"#utility.yul\":24743:24748   */\n      0x00\n        /* \"#utility.yul\":24768:24834   */\n      tag_647\n        /* \"#utility.yul\":24784:24833   */\n      tag_648\n        /* \"#utility.yul\":24826:24832   */\n      dup5\n        /* \"#utility.yul\":24784:24833   */\n      tag_372\n      jump\t// in\n    tag_648:\n        /* \"#utility.yul\":24768:24834   */\n      tag_371\n      jump\t// in\n    tag_647:\n        /* \"#utility.yul\":24759:24834   */\n      swap1\n      pop\n        /* \"#utility.yul\":24857:24863   */\n      dup3\n        /* \"#utility.yul\":24850:24855   */\n      dup2\n        /* \"#utility.yul\":24843:24864   */\n      mstore\n        /* \"#utility.yul\":24895:24899   */\n      0x20\n        /* \"#utility.yul\":24888:24893   */\n      dup2\n        /* \"#utility.yul\":24884:24900   */\n      add\n        /* \"#utility.yul\":24933:24936   */\n      dup5\n        /* \"#utility.yul\":24924:24930   */\n      dup5\n        /* \"#utility.yul\":24919:24922   */\n      dup5\n        /* \"#utility.yul\":24915:24931   */\n      add\n        /* \"#utility.yul\":24912:24937   */\n      gt\n        /* \"#utility.yul\":24909:25021   */\n      iszero\n      tag_649\n      jumpi\n        /* \"#utility.yul\":24940:25019   */\n      tag_650\n      tag_368\n      jump\t// in\n    tag_650:\n        /* \"#utility.yul\":24909:25021   */\n    tag_649:\n        /* \"#utility.yul\":25030:25084   */\n      tag_651\n        /* \"#utility.yul\":25077:25083   */\n      dup5\n        /* \"#utility.yul\":25072:25075   */\n      dup3\n        /* \"#utility.yul\":25067:25070   */\n      dup6\n        /* \"#utility.yul\":25030:25084   */\n      tag_373\n      jump\t// in\n    tag_651:\n        /* \"#utility.yul\":24749:25090   */\n      pop\n        /* \"#utility.yul\":24665:25090   */\n      swap4\n      swap3\n      pop\n      pop\n      pop\n      jump\t// out\n        /* \"#utility.yul\":25110:25450   */\n    tag_375:\n        /* \"#utility.yul\":25166:25171   */\n      0x00\n        /* \"#utility.yul\":25215:25218   */\n      dup3\n        /* \"#utility.yul\":25208:25212   */\n      0x1f\n        /* \"#utility.yul\":25200:25206   */\n      dup4\n        /* \"#utility.yul\":25196:25213   */\n      add\n        /* \"#utility.yul\":25192:25219   */\n      slt\n        /* \"#utility.yul\":25182:25304   */\n      tag_653\n      jumpi\n        /* \"#utility.yul\":25223:25302   */\n      tag_654\n      tag_367\n      jump\t// in\n    tag_654:\n        /* \"#utility.yul\":25182:25304   */\n    tag_653:\n        /* \"#utility.yul\":25340:25346   */\n      dup2\n        /* \"#utility.yul\":25327:25347   */\n      calldataload\n        /* \"#utility.yul\":25365:25444   */\n      tag_655\n        /* \"#utility.yul\":25440:25443   */\n      dup5\n        /* \"#utility.yul\":25432:25438   */\n      dup3\n        /* \"#utility.yul\":25425:25429   */\n      0x20\n        /* \"#utility.yul\":25417:25423   */\n      dup7\n        /* \"#utility.yul\":25413:25430   */\n      add\n        /* \"#utility.yul\":25365:25444   */\n      tag_374\n      jump\t// in\n    tag_655:\n        /* \"#utility.yul\":25356:25444   */\n      swap2\n      pop\n        /* \"#utility.yul\":25172:25450   */\n      pop\n        /* \"#utility.yul\":25110:25450   */\n      swap3\n      swap2\n      pop\n      pop\n      jump\t// out\n        /* \"#utility.yul\":25456:26435   */\n    tag_95:\n        /* \"#utility.yul\":25553:25559   */\n      0x00\n        /* \"#utility.yul\":25561:25567   */\n      dup1\n        /* \"#utility.yul\":25569:25575   */\n      0x00\n        /* \"#utility.yul\":25618:25620   */\n      0x60\n        /* \"#utility.yul\":25606:25615   */\n      dup5\n        /* \"#utility.yul\":25597:25604   */\n      dup7\n        /* \"#utility.yul\":25593:25616   */\n      sub\n        /* \"#utility.yul\":25589:25621   */\n      slt\n        /* \"#utility.yul\":25586:25705   */\n      iszero\n      tag_657\n      jumpi\n        /* \"#utility.yul\":25624:25703   */\n      tag_658\n      tag_314\n      jump\t// in\n    tag_658:\n        /* \"#utility.yul\":25586:25705   */\n    tag_657:\n        /* \"#utility.yul\":25772:25773   */\n      0x00\n        /* \"#utility.yul\":25761:25770   */\n      dup5\n        /* \"#utility.yul\":25757:25774   */\n      add\n        /* \"#utility.yul\":25744:25775   */\n      calldataload\n        /* \"#utility.yul\":25802:25820   */\n      0xffffffffffffffff\n        /* \"#utility.yul\":25794:25800   */\n      dup2\n        /* \"#utility.yul\":25791:25821   */\n      gt\n        /* \"#utility.yul\":25788:25905   */\n      iszero\n      tag_659\n      jumpi\n        /* \"#utility.yul\":25824:25903   */\n      tag_660\n      tag_315\n      jump\t// in\n    tag_660:\n        /* \"#utility.yul\":25788:25905   */\n    tag_659:\n        /* \"#utility.yul\":25929:25992   */\n      tag_661\n        /* \"#utility.yul\":25984:25991   */\n      dup7\n        /* \"#utility.yul\":25975:25981   */\n      dup3\n        /* \"#utility.yul\":25964:25973   */\n      dup8\n        /* \"#utility.yul\":25960:25982   */\n      add\n        /* \"#utility.yul\":25929:25992   */\n      tag_375\n      jump\t// in\n    tag_661:\n        /* \"#utility.yul\":25919:25992   */\n      swap4\n      pop\n        /* \"#utility.yul\":25715:26002   */\n      pop\n        /* \"#utility.yul\":26069:26071   */\n      0x20\n        /* \"#utility.yul\":26058:26067   */\n      dup5\n        /* \"#utility.yul\":26054:26072   */\n      add\n        /* \"#utility.yul\":26041:26073   */\n      calldataload\n        /* \"#utility.yul\":26100:26118   */\n      0xffffffffffffffff\n        /* \"#utility.yul\":26092:26098   */\n      dup2\n        /* \"#utility.yul\":26089:26119   */\n      gt\n        /* \"#utility.yul\":26086:26203   */\n      iszero\n      tag_662\n      jumpi\n        /* \"#utility.yul\":26122:26201   */\n      tag_663\n      tag_315\n      jump\t// in\n    tag_663:\n        /* \"#utility.yul\":26086:26203   */\n    tag_662:\n        /* \"#utility.yul\":26227:26290   */\n      tag_664\n        /* \"#utility.yul\":26282:26289   */\n      dup7\n        /* \"#utility.yul\":26273:26279   */\n      dup3\n        /* \"#utility.yul\":26262:26271   */\n      dup8\n        /* \"#utility.yul\":26258:26280   */\n      add\n        /* \"#utility.yul\":26227:26290   */\n      tag_375\n      jump\t// in\n    tag_664:\n        /* \"#utility.yul\":26217:26290   */\n      swap3\n      pop\n        /* \"#utility.yul\":26012:26300   */\n      pop\n        /* \"#utility.yul\":26339:26341   */\n      0x40\n        /* \"#utility.yul\":26365:26418   */\n      tag_665\n        /* \"#utility.yul\":26410:26417   */\n      dup7\n        /* \"#utility.yul\":26401:26407   */\n      dup3\n        /* \"#utility.yul\":26390:26399   */\n      dup8\n        /* \"#utility.yul\":26386:26408   */\n      add\n        /* \"#utility.yul\":26365:26418   */\n      tag_322\n      jump\t// in\n    tag_665:\n        /* \"#utility.yul\":26355:26418   */\n      swap2\n      pop\n        /* \"#utility.yul\":26310:26428   */\n      pop\n        /* \"#utility.yul\":25456:26435   */\n      swap3\n      pop\n      swap3\n      pop\n      swap3\n      jump\t// out\n        /* \"#utility.yul\":26441:26668   */\n    tag_376:\n        /* \"#utility.yul\":26581:26615   */\n      0x5468652043616d706169676e65642053706563696669656420446f6573204e6f\n        /* \"#utility.yul\":26577:26578   */\n      0x00\n        /* \"#utility.yul\":26569:26575   */\n      dup3\n        /* \"#utility.yul\":26565:26579   */\n      add\n        /* \"#utility.yul\":26558:26616   */\n      mstore\n        /* \"#utility.yul\":26650:26660   */\n      0x7420457869737421000000000000000000000000000000000000000000000000\n        /* \"#utility.yul\":26645:26647   */\n      0x20\n        /* \"#utility.yul\":26637:26643   */\n      dup3\n        /* \"#utility.yul\":26633:26648   */\n      add\n        /* \"#utility.yul\":26626:26661   */\n      mstore\n        /* \"#utility.yul\":26441:26668   */\n      pop\n      jump\t// out\n        /* \"#utility.yul\":26674:27040   */\n    tag_377:\n        /* \"#utility.yul\":26816:26819   */\n      0x00\n        /* \"#utility.yul\":26837:26904   */\n      tag_668\n        /* \"#utility.yul\":26901:26903   */\n      0x28\n        /* \"#utility.yul\":26896:26899   */\n      dup4\n        /* \"#utility.yul\":26837:26904   */\n      tag_325\n      jump\t// in\n    tag_668:\n        /* \"#utility.yul\":26830:26904   */\n      swap2\n      pop\n        /* \"#utility.yul\":26913:27006   */\n      tag_669\n        /* \"#utility.yul\":27002:27005   */\n      dup3\n        /* \"#utility.yul\":26913:27006   */\n      tag_376\n      jump\t// in\n    tag_669:\n        /* \"#utility.yul\":27031:27033   */\n      0x40\n        /* \"#utility.yul\":27026:27029   */\n      dup3\n        /* \"#utility.yul\":27022:27034   */\n      add\n        /* \"#utility.yul\":27015:27034   */\n      swap1\n      pop\n        /* \"#utility.yul\":26674:27040   */\n      swap2\n      swap1\n      pop\n      jump\t// out\n        /* \"#utility.yul\":27046:27465   */\n    tag_100:\n        /* \"#utility.yul\":27212:27216   */\n      0x00\n        /* \"#utility.yul\":27250:27252   */\n      0x20\n        /* \"#utility.yul\":27239:27248   */\n      dup3\n        /* \"#utility.yul\":27235:27253   */\n      add\n        /* \"#utility.yul\":27227:27253   */\n      swap1\n      pop\n        /* \"#utility.yul\":27299:27308   */\n      dup2\n        /* \"#utility.yul\":27293:27297   */\n      dup2\n        /* \"#utility.yul\":27289:27309   */\n      sub\n        /* \"#utility.yul\":27285:27286   */\n      0x00\n        /* \"#utility.yul\":27274:27283   */\n      dup4\n        /* \"#utility.yul\":27270:27287   */\n      add\n        /* \"#utility.yul\":27263:27310   */\n      mstore\n        /* \"#utility.yul\":27327:27458   */\n      tag_671\n        /* \"#utility.yul\":27453:27457   */\n      dup2\n        /* \"#utility.yul\":27327:27458   */\n      tag_377\n      jump\t// in\n    tag_671:\n        /* \"#utility.yul\":27319:27458   */\n      swap1\n      pop\n        /* \"#utility.yul\":27046:27465   */\n      swap2\n      swap1\n      pop\n      jump\t// out\n        /* \"#utility.yul\":27471:27651   */\n    tag_378:\n        /* \"#utility.yul\":27519:27596   */\n      0x4e487b7100000000000000000000000000000000000000000000000000000000\n        /* \"#utility.yul\":27516:27517   */\n      0x00\n        /* \"#utility.yul\":27509:27597   */\n      mstore\n        /* \"#utility.yul\":27616:27620   */\n      0x22\n        /* \"#utility.yul\":27613:27614   */\n      0x04\n        /* \"#utility.yul\":27606:27621   */\n      mstore\n        /* \"#utility.yul\":27640:27644   */\n      0x24\n        /* \"#utility.yul\":27637:27638   */\n      0x00\n        /* \"#utility.yul\":27630:27645   */\n      revert\n        /* \"#utility.yul\":27657:27977   */\n    tag_106:\n        /* \"#utility.yul\":27701:27707   */\n      0x00\n        /* \"#utility.yul\":27738:27739   */\n      0x02\n        /* \"#utility.yul\":27732:27736   */\n      dup3\n        /* \"#utility.yul\":27728:27740   */\n      div\n        /* \"#utility.yul\":27718:27740   */\n      swap1\n      pop\n        /* \"#utility.yul\":27785:27786   */\n      0x01\n        /* \"#utility.yul\":27779:27783   */\n      dup3\n        /* \"#utility.yul\":27775:27787   */\n      and\n        /* \"#utility.yul\":27806:27824   */\n      dup1\n        /* \"#utility.yul\":27796:27877   */\n      tag_674\n      jumpi\n        /* \"#utility.yul\":27862:27866   */\n      0x7f\n        /* \"#utility.yul\":27854:27860   */\n      dup3\n        /* \"#utility.yul\":27850:27867   */\n      and\n        /* \"#utility.yul\":27840:27867   */\n      swap2\n      pop\n        /* \"#utility.yul\":27796:27877   */\n    tag_674:\n        /* \"#utility.yul\":27924:27926   */\n      0x20\n        /* \"#utility.yul\":27916:27922   */\n      dup3\n        /* \"#utility.yul\":27913:27927   */\n      lt\n        /* \"#utility.yul\":27893:27911   */\n      dup2\n        /* \"#utility.yul\":27890:27928   */\n      sub\n        /* \"#utility.yul\":27887:27971   */\n      tag_675\n      jumpi\n        /* \"#utility.yul\":27943:27961   */\n      tag_676\n      tag_378\n      jump\t// in\n    tag_676:\n        /* \"#utility.yul\":27887:27971   */\n    tag_675:\n        /* \"#utility.yul\":27708:27977   */\n      pop\n        /* \"#utility.yul\":27657:27977   */\n      swap2\n      swap1\n      pop\n      jump\t// out\n        /* \"#utility.yul\":27983:28163   */\n    tag_379:\n        /* \"#utility.yul\":28031:28108   */\n      0x4e487b7100000000000000000000000000000000000000000000000000000000\n        /* \"#utility.yul\":28028:28029   */\n      0x00\n        /* \"#utility.yul\":28021:28109   */\n      mstore\n        /* \"#utility.yul\":28128:28132   */\n      0x11\n        /* \"#utility.yul\":28125:28126   */\n      0x04\n        /* \"#utility.yul\":28118:28133   */\n      mstore\n        /* \"#utility.yul\":28152:28156   */\n      0x24\n        /* \"#utility.yul\":28149:28150   */\n      0x00\n        /* \"#utility.yul\":28142:28157   */\n      revert\n        /* \"#utility.yul\":28169:28363   */\n    tag_144:\n        /* \"#utility.yul\":28209:28213   */\n      0x00\n        /* \"#utility.yul\":28229:28249   */\n      tag_679\n        /* \"#utility.yul\":28247:28248   */\n      dup3\n        /* \"#utility.yul\":28229:28249   */\n      tag_320\n      jump\t// in\n    tag_679:\n        /* \"#utility.yul\":28224:28249   */\n      swap2\n      pop\n        /* \"#utility.yul\":28263:28283   */\n      tag_680\n        /* \"#utility.yul\":28281:28282   */\n      dup4\n        /* \"#utility.yul\":28263:28283   */\n      tag_320\n      jump\t// in\n    tag_680:\n        /* \"#utility.yul\":28258:28283   */\n      swap3\n      pop\n        /* \"#utility.yul\":28307:28308   */\n      dup3\n        /* \"#utility.yul\":28304:28305   */\n      dup3\n        /* \"#utility.yul\":28300:28309   */\n      sub\n        /* \"#utility.yul\":28292:28309   */\n      swap1\n      pop\n        /* \"#utility.yul\":28331:28332   */\n      dup2\n        /* \"#utility.yul\":28325:28329   */\n      dup2\n        /* \"#utility.yul\":28322:28333   */\n      gt\n        /* \"#utility.yul\":28319:28356   */\n      iszero\n      tag_681\n      jumpi\n        /* \"#utility.yul\":28336:28354   */\n      tag_682\n      tag_379\n      jump\t// in\n    tag_682:\n        /* \"#utility.yul\":28319:28356   */\n    tag_681:\n        /* \"#utility.yul\":28169:28363   */\n      swap3\n      swap2\n      pop\n      pop\n      jump\t// out\n        /* \"#utility.yul\":28369:28549   */\n    tag_147:\n        /* \"#utility.yul\":28417:28494   */\n      0x4e487b7100000000000000000000000000000000000000000000000000000000\n        /* \"#utility.yul\":28414:28415   */\n      0x00\n        /* \"#utility.yul\":28407:28495   */\n      mstore\n        /* \"#utility.yul\":28514:28518   */\n      0x32\n        /* \"#utility.yul\":28511:28512   */\n      0x04\n        /* \"#utility.yul\":28504:28519   */\n      mstore\n        /* \"#utility.yul\":28538:28542   */\n      0x24\n        /* \"#utility.yul\":28535:28536   */\n      0x00\n        /* \"#utility.yul\":28528:28543   */\n      revert\n        /* \"#utility.yul\":28555:28703   */\n    tag_380:\n        /* \"#utility.yul\":28657:28668   */\n      0x00\n        /* \"#utility.yul\":28694:28697   */\n      dup2\n        /* \"#utility.yul\":28679:28697   */\n      swap1\n      pop\n        /* \"#utility.yul\":28555:28703   */\n      swap3\n      swap2\n      pop\n      pop\n      jump\t// out\n        /* \"#utility.yul\":28709:28872   */\n    tag_381:\n        /* \"#utility.yul\":28849:28864   */\n      0x5468652043616d706169676e2000000000000000000000000000000000000000\n        /* \"#utility.yul\":28845:28846   */\n      0x00\n        /* \"#utility.yul\":28837:28843   */\n      dup3\n        /* \"#utility.yul\":28833:28847   */\n      add\n        /* \"#utility.yul\":28826:28865   */\n      mstore\n        /* \"#utility.yul\":28709:28872   */\n      pop\n      jump\t// out\n        /* \"#utility.yul\":28878:29280   */\n    tag_382:\n        /* \"#utility.yul\":29038:29041   */\n      0x00\n        /* \"#utility.yul\":29059:29144   */\n      tag_687\n        /* \"#utility.yul\":29141:29143   */\n      0x0d\n        /* \"#utility.yul\":29136:29139   */\n      dup4\n        /* \"#utility.yul\":29059:29144   */\n      tag_380\n      jump\t// in\n    tag_687:\n        /* \"#utility.yul\":29052:29144   */\n      swap2\n      pop\n        /* \"#utility.yul\":29153:29246   */\n      tag_688\n        /* \"#utility.yul\":29242:29245   */\n      dup3\n        /* \"#utility.yul\":29153:29246   */\n      tag_381\n      jump\t// in\n    tag_688:\n        /* \"#utility.yul\":29271:29273   */\n      0x0d\n        /* \"#utility.yul\":29266:29269   */\n      dup3\n        /* \"#utility.yul\":29262:29274   */\n      add\n        /* \"#utility.yul\":29255:29274   */\n      swap1\n      pop\n        /* \"#utility.yul\":28878:29280   */\n      swap2\n      swap1\n      pop\n      jump\t// out\n        /* \"#utility.yul\":29286:29365   */\n    tag_383:\n        /* \"#utility.yul\":29325:29332   */\n      0x00\n        /* \"#utility.yul\":29354:29359   */\n      dup2\n        /* \"#utility.yul\":29343:29359   */\n      swap1\n      pop\n        /* \"#utility.yul\":29286:29365   */\n      swap2\n      swap1\n      pop\n      jump\t// out\n        /* \"#utility.yul\":29371:29528   */\n    tag_384:\n        /* \"#utility.yul\":29476:29521   */\n      tag_691\n        /* \"#utility.yul\":29496:29520   */\n      tag_692\n        /* \"#utility.yul\":29514:29519   */\n      dup3\n        /* \"#utility.yul\":29496:29520   */\n      tag_320\n      jump\t// in\n    tag_692:\n        /* \"#utility.yul\":29476:29521   */\n      tag_383\n      jump\t// in\n    tag_691:\n        /* \"#utility.yul\":29471:29474   */\n      dup3\n        /* \"#utility.yul\":29464:29522   */\n      mstore\n        /* \"#utility.yul\":29371:29528   */\n      pop\n      pop\n      jump\t// out\n        /* \"#utility.yul\":29534:29700   */\n    tag_385:\n        /* \"#utility.yul\":29674:29692   */\n      0x20446f6573204e4f542045786973742100000000000000000000000000000000\n        /* \"#utility.yul\":29670:29671   */\n      0x00\n        /* \"#utility.yul\":29662:29668   */\n      dup3\n        /* \"#utility.yul\":29658:29672   */\n      add\n        /* \"#utility.yul\":29651:29693   */\n      mstore\n        /* \"#utility.yul\":29534:29700   */\n      pop\n      jump\t// out\n        /* \"#utility.yul\":29706:30108   */\n    tag_386:\n        /* \"#utility.yul\":29866:29869   */\n      0x00\n        /* \"#utility.yul\":29887:29972   */\n      tag_695\n        /* \"#utility.yul\":29969:29971   */\n      0x10\n        /* \"#utility.yul\":29964:29967   */\n      dup4\n        /* \"#utility.yul\":29887:29972   */\n      tag_380\n      jump\t// in\n    tag_695:\n        /* \"#utility.yul\":29880:29972   */\n      swap2\n      pop\n        /* \"#utility.yul\":29981:30074   */\n      tag_696\n        /* \"#utility.yul\":30070:30073   */\n      dup3\n        /* \"#utility.yul\":29981:30074   */\n      tag_385\n      jump\t// in\n    tag_696:\n        /* \"#utility.yul\":30099:30101   */\n      0x10\n        /* \"#utility.yul\":30094:30097   */\n      dup3\n        /* \"#utility.yul\":30090:30102   */\n      add\n        /* \"#utility.yul\":30083:30102   */\n      swap1\n      pop\n        /* \"#utility.yul\":29706:30108   */\n      swap2\n      swap1\n      pop\n      jump\t// out\n        /* \"#utility.yul\":30114:30902   */\n    tag_150:\n        /* \"#utility.yul\":30428:30431   */\n      0x00\n        /* \"#utility.yul\":30450:30598   */\n      tag_698\n        /* \"#utility.yul\":30594:30597   */\n      dup3\n        /* \"#utility.yul\":30450:30598   */\n      tag_382\n      jump\t// in\n    tag_698:\n        /* \"#utility.yul\":30443:30598   */\n      swap2\n      pop\n        /* \"#utility.yul\":30608:30683   */\n      tag_699\n        /* \"#utility.yul\":30679:30682   */\n      dup3\n        /* \"#utility.yul\":30670:30676   */\n      dup5\n        /* \"#utility.yul\":30608:30683   */\n      tag_384\n      jump\t// in\n    tag_699:\n        /* \"#utility.yul\":30708:30710   */\n      0x20\n        /* \"#utility.yul\":30703:30706   */\n      dup3\n        /* \"#utility.yul\":30699:30711   */\n      add\n        /* \"#utility.yul\":30692:30711   */\n      swap2\n      pop\n        /* \"#utility.yul\":30728:30876   */\n      tag_700\n        /* \"#utility.yul\":30872:30875   */\n      dup3\n        /* \"#utility.yul\":30728:30876   */\n      tag_386\n      jump\t// in\n    tag_700:\n        /* \"#utility.yul\":30721:30876   */\n      swap2\n      pop\n        /* \"#utility.yul\":30893:30896   */\n      dup2\n        /* \"#utility.yul\":30886:30896   */\n      swap1\n      pop\n        /* \"#utility.yul\":30114:30902   */\n      swap3\n      swap2\n      pop\n      pop\n      jump\t// out\n        /* \"#utility.yul\":30908:31221   */\n    tag_153:\n        /* \"#utility.yul\":31021:31025   */\n      0x00\n        /* \"#utility.yul\":31059:31061   */\n      0x20\n        /* \"#utility.yul\":31048:31057   */\n      dup3\n        /* \"#utility.yul\":31044:31062   */\n      add\n        /* \"#utility.yul\":31036:31062   */\n      swap1\n      pop\n        /* \"#utility.yul\":31108:31117   */\n      dup2\n        /* \"#utility.yul\":31102:31106   */\n      dup2\n        /* \"#utility.yul\":31098:31118   */\n      sub\n        /* \"#utility.yul\":31094:31095   */\n      0x00\n        /* \"#utility.yul\":31083:31092   */\n      dup4\n        /* \"#utility.yul\":31079:31096   */\n      add\n        /* \"#utility.yul\":31072:31119   */\n      mstore\n        /* \"#utility.yul\":31136:31214   */\n      tag_702\n        /* \"#utility.yul\":31209:31213   */\n      dup2\n        /* \"#utility.yul\":31200:31206   */\n      dup5\n        /* \"#utility.yul\":31136:31214   */\n      tag_328\n      jump\t// in\n    tag_702:\n        /* \"#utility.yul\":31128:31214   */\n      swap1\n      pop\n        /* \"#utility.yul\":30908:31221   */\n      swap3\n      swap2\n      pop\n      pop\n      jump\t// out\n        /* \"#utility.yul\":31227:31378   */\n    tag_387:\n        /* \"#utility.yul\":31367:31370   */\n      0x2700000000000000000000000000000000000000000000000000000000000000\n        /* \"#utility.yul\":31363:31364   */\n      0x00\n        /* \"#utility.yul\":31355:31361   */\n      dup3\n        /* \"#utility.yul\":31351:31365   */\n      add\n        /* \"#utility.yul\":31344:31371   */\n      mstore\n        /* \"#utility.yul\":31227:31378   */\n      pop\n      jump\t// out\n        /* \"#utility.yul\":31384:31784   */\n    tag_388:\n        /* \"#utility.yul\":31544:31547   */\n      0x00\n        /* \"#utility.yul\":31565:31649   */\n      tag_705\n        /* \"#utility.yul\":31647:31648   */\n      0x01\n        /* \"#utility.yul\":31642:31645   */\n      dup4\n        /* \"#utility.yul\":31565:31649   */\n      tag_380\n      jump\t// in\n    tag_705:\n        /* \"#utility.yul\":31558:31649   */\n      swap2\n      pop\n        /* \"#utility.yul\":31658:31751   */\n      tag_706\n        /* \"#utility.yul\":31747:31750   */\n      dup3\n        /* \"#utility.yul\":31658:31751   */\n      tag_387\n      jump\t// in\n    tag_706:\n        /* \"#utility.yul\":31776:31777   */\n      0x01\n        /* \"#utility.yul\":31771:31774   */\n      dup3\n        /* \"#utility.yul\":31767:31778   */\n      add\n        /* \"#utility.yul\":31760:31778   */\n      swap1\n      pop\n        /* \"#utility.yul\":31384:31784   */\n      swap2\n      swap1\n      pop\n      jump\t// out\n        /* \"#utility.yul\":31790:31931   */\n    tag_389:\n        /* \"#utility.yul\":31839:31843   */\n      0x00\n        /* \"#utility.yul\":31862:31865   */\n      dup2\n        /* \"#utility.yul\":31854:31865   */\n      swap1\n      pop\n        /* \"#utility.yul\":31885:31888   */\n      dup2\n        /* \"#utility.yul\":31882:31883   */\n      0x00\n        /* \"#utility.yul\":31875:31889   */\n      mstore\n        /* \"#utility.yul\":31919:31923   */\n      0x20\n        /* \"#utility.yul\":31916:31917   */\n      0x00\n        /* \"#utility.yul\":31906:31924   */\n      keccak256\n        /* \"#utility.yul\":31898:31924   */\n      swap1\n      pop\n        /* \"#utility.yul\":31790:31931   */\n      swap2\n      swap1\n      pop\n      jump\t// out\n        /* \"#utility.yul\":31961:32835   */\n    tag_390:\n        /* \"#utility.yul\":32064:32067   */\n      0x00\n        /* \"#utility.yul\":32101:32106   */\n      dup2\n        /* \"#utility.yul\":32095:32107   */\n      sload\n        /* \"#utility.yul\":32130:32166   */\n      tag_709\n        /* \"#utility.yul\":32156:32165   */\n      dup2\n        /* \"#utility.yul\":32130:32166   */\n      tag_106\n      jump\t// in\n    tag_709:\n        /* \"#utility.yul\":32182:32271   */\n      tag_710\n        /* \"#utility.yul\":32264:32270   */\n      dup2\n        /* \"#utility.yul\":32259:32262   */\n      dup7\n        /* \"#utility.yul\":32182:32271   */\n      tag_380\n      jump\t// in\n    tag_710:\n        /* \"#utility.yul\":32175:32271   */\n      swap5\n      pop\n        /* \"#utility.yul\":32302:32303   */\n      0x01\n        /* \"#utility.yul\":32291:32300   */\n      dup3\n        /* \"#utility.yul\":32287:32304   */\n      and\n        /* \"#utility.yul\":32318:32319   */\n      0x00\n        /* \"#utility.yul\":32313:32479   */\n      dup2\n      eq\n      tag_712\n      jumpi\n        /* \"#utility.yul\":32493:32494   */\n      0x01\n        /* \"#utility.yul\":32488:32829   */\n      dup2\n      eq\n      tag_713\n      jumpi\n        /* \"#utility.yul\":32280:32829   */\n      jump(tag_711)\n        /* \"#utility.yul\":32313:32479   */\n    tag_712:\n        /* \"#utility.yul\":32397:32401   */\n      0xff\n        /* \"#utility.yul\":32393:32402   */\n      not\n        /* \"#utility.yul\":32382:32391   */\n      dup4\n        /* \"#utility.yul\":32378:32403   */\n      and\n        /* \"#utility.yul\":32373:32376   */\n      dup7\n        /* \"#utility.yul\":32366:32404   */\n      mstore\n        /* \"#utility.yul\":32459:32465   */\n      dup2\n        /* \"#utility.yul\":32452:32466   */\n      iszero\n        /* \"#utility.yul\":32445:32467   */\n      iszero\n        /* \"#utility.yul\":32437:32443   */\n      dup3\n        /* \"#utility.yul\":32433:32468   */\n      mul\n        /* \"#utility.yul\":32428:32431   */\n      dup7\n        /* \"#utility.yul\":32424:32469   */\n      add\n        /* \"#utility.yul\":32417:32469   */\n      swap4\n      pop\n        /* \"#utility.yul\":32313:32479   */\n      jump(tag_711)\n        /* \"#utility.yul\":32488:32829   */\n    tag_713:\n        /* \"#utility.yul\":32555:32593   */\n      tag_714\n        /* \"#utility.yul\":32587:32592   */\n      dup6\n        /* \"#utility.yul\":32555:32593   */\n      tag_389\n      jump\t// in\n    tag_714:\n        /* \"#utility.yul\":32615:32616   */\n      0x00\n        /* \"#utility.yul\":32629:32783   */\n    tag_715:\n        /* \"#utility.yul\":32643:32649   */\n      dup4\n        /* \"#utility.yul\":32640:32641   */\n      dup2\n        /* \"#utility.yul\":32637:32650   */\n      lt\n        /* \"#utility.yul\":32629:32783   */\n      iszero\n      tag_717\n      jumpi\n        /* \"#utility.yul\":32717:32724   */\n      dup2\n        /* \"#utility.yul\":32711:32725   */\n      sload\n        /* \"#utility.yul\":32707:32708   */\n      dup2\n        /* \"#utility.yul\":32702:32705   */\n      dup10\n        /* \"#utility.yul\":32698:32709   */\n      add\n        /* \"#utility.yul\":32691:32726   */\n      mstore\n        /* \"#utility.yul\":32767:32768   */\n      0x01\n        /* \"#utility.yul\":32758:32765   */\n      dup3\n        /* \"#utility.yul\":32754:32769   */\n      add\n        /* \"#utility.yul\":32743:32769   */\n      swap2\n      pop\n        /* \"#utility.yul\":32665:32669   */\n      0x20\n        /* \"#utility.yul\":32662:32663   */\n      dup2\n        /* \"#utility.yul\":32658:32670   */\n      add\n        /* \"#utility.yul\":32653:32670   */\n      swap1\n      pop\n        /* \"#utility.yul\":32629:32783   */\n      jump(tag_715)\n    tag_717:\n        /* \"#utility.yul\":32812:32818   */\n      dup4\n        /* \"#utility.yul\":32807:32810   */\n      dup9\n        /* \"#utility.yul\":32803:32819   */\n      add\n        /* \"#utility.yul\":32796:32819   */\n      swap6\n      pop\n        /* \"#utility.yul\":32495:32829   */\n      pop\n      pop\n        /* \"#utility.yul\":32280:32829   */\n    tag_711:\n      pop\n        /* \"#utility.yul\":32068:32835   */\n      pop\n      pop\n        /* \"#utility.yul\":31961:32835   */\n      swap3\n      swap2\n      pop\n      pop\n      jump\t// out\n        /* \"#utility.yul\":32841:33016   */\n    tag_391:\n        /* \"#utility.yul\":32981:33008   */\n      0x272043616d706169676e2057617320436f6d706c657465642100000000000000\n        /* \"#utility.yul\":32977:32978   */\n      0x00\n        /* \"#utility.yul\":32969:32975   */\n      dup3\n        /* \"#utility.yul\":32965:32979   */\n      add\n        /* \"#utility.yul\":32958:33009   */\n      mstore\n        /* \"#utility.yul\":32841:33016   */\n      pop\n      jump\t// out\n        /* \"#utility.yul\":33022:33424   */\n    tag_392:\n        /* \"#utility.yul\":33182:33185   */\n      0x00\n        /* \"#utility.yul\":33203:33288   */\n      tag_720\n        /* \"#utility.yul\":33285:33287   */\n      0x19\n        /* \"#utility.yul\":33280:33283   */\n      dup4\n        /* \"#utility.yul\":33203:33288   */\n      tag_380\n      jump\t// in\n    tag_720:\n        /* \"#utility.yul\":33196:33288   */\n      swap2\n      pop\n        /* \"#utility.yul\":33297:33390   */\n      tag_721\n        /* \"#utility.yul\":33386:33389   */\n      dup3\n        /* \"#utility.yul\":33297:33390   */\n      tag_391\n      jump\t// in\n    tag_721:\n        /* \"#utility.yul\":33415:33417   */\n      0x19\n        /* \"#utility.yul\":33410:33413   */\n      dup3\n        /* \"#utility.yul\":33406:33418   */\n      add\n        /* \"#utility.yul\":33399:33418   */\n      swap1\n      pop\n        /* \"#utility.yul\":33022:33424   */\n      swap2\n      swap1\n      pop\n      jump\t// out\n        /* \"#utility.yul\":33430:34231   */\n    tag_163:\n        /* \"#utility.yul\":33761:33764   */\n      0x00\n        /* \"#utility.yul\":33783:33931   */\n      tag_723\n        /* \"#utility.yul\":33927:33930   */\n      dup3\n        /* \"#utility.yul\":33783:33931   */\n      tag_388\n      jump\t// in\n    tag_723:\n        /* \"#utility.yul\":33776:33931   */\n      swap2\n      pop\n        /* \"#utility.yul\":33948:34040   */\n      tag_724\n        /* \"#utility.yul\":34036:34039   */\n      dup3\n        /* \"#utility.yul\":34027:34033   */\n      dup5\n        /* \"#utility.yul\":33948:34040   */\n      tag_390\n      jump\t// in\n    tag_724:\n        /* \"#utility.yul\":33941:34040   */\n      swap2\n      pop\n        /* \"#utility.yul\":34057:34205   */\n      tag_725\n        /* \"#utility.yul\":34201:34204   */\n      dup3\n        /* \"#utility.yul\":34057:34205   */\n      tag_392\n      jump\t// in\n    tag_725:\n        /* \"#utility.yul\":34050:34205   */\n      swap2\n      pop\n        /* \"#utility.yul\":34222:34225   */\n      dup2\n        /* \"#utility.yul\":34215:34225   */\n      swap1\n      pop\n        /* \"#utility.yul\":33430:34231   */\n      swap3\n      swap2\n      pop\n      pop\n      jump\t// out\n        /* \"#utility.yul\":34237:34408   */\n    tag_393:\n        /* \"#utility.yul\":34377:34400   */\n      0x416d6f756e742043616e6e6f74206265205a65726f0000000000000000000000\n        /* \"#utility.yul\":34373:34374   */\n      0x00\n        /* \"#utility.yul\":34365:34371   */\n      dup3\n        /* \"#utility.yul\":34361:34375   */\n      add\n        /* \"#utility.yul\":34354:34401   */\n      mstore\n        /* \"#utility.yul\":34237:34408   */\n      pop\n      jump\t// out\n        /* \"#utility.yul\":34414:34780   */\n    tag_394:\n        /* \"#utility.yul\":34556:34559   */\n      0x00\n        /* \"#utility.yul\":34577:34644   */\n      tag_728\n        /* \"#utility.yul\":34641:34643   */\n      0x15\n        /* \"#utility.yul\":34636:34639   */\n      dup4\n        /* \"#utility.yul\":34577:34644   */\n      tag_325\n      jump\t// in\n    tag_728:\n        /* \"#utility.yul\":34570:34644   */\n      swap2\n      pop\n        /* \"#utility.yul\":34653:34746   */\n      tag_729\n        /* \"#utility.yul\":34742:34745   */\n      dup3\n        /* \"#utility.yul\":34653:34746   */\n      tag_393\n      jump\t// in\n    tag_729:\n        /* \"#utility.yul\":34771:34773   */\n      0x20\n        /* \"#utility.yul\":34766:34769   */\n      dup3\n        /* \"#utility.yul\":34762:34774   */\n      add\n        /* \"#utility.yul\":34755:34774   */\n      swap1\n      pop\n        /* \"#utility.yul\":34414:34780   */\n      swap2\n      swap1\n      pop\n      jump\t// out\n        /* \"#utility.yul\":34786:35205   */\n    tag_168:\n        /* \"#utility.yul\":34952:34956   */\n      0x00\n        /* \"#utility.yul\":34990:34992   */\n      0x20\n        /* \"#utility.yul\":34979:34988   */\n      dup3\n        /* \"#utility.yul\":34975:34993   */\n      add\n        /* \"#utility.yul\":34967:34993   */\n      swap1\n      pop\n        /* \"#utility.yul\":35039:35048   */\n      dup2\n        /* \"#utility.yul\":35033:35037   */\n      dup2\n        /* \"#utility.yul\":35029:35049   */\n      sub\n        /* \"#utility.yul\":35025:35026   */\n      0x00\n        /* \"#utility.yul\":35014:35023   */\n      dup4\n        /* \"#utility.yul\":35010:35027   */\n      add\n        /* \"#utility.yul\":35003:35050   */\n      mstore\n        /* \"#utility.yul\":35067:35198   */\n      tag_731\n        /* \"#utility.yul\":35193:35197   */\n      dup2\n        /* \"#utility.yul\":35067:35198   */\n      tag_394\n      jump\t// in\n    tag_731:\n        /* \"#utility.yul\":35059:35198   */\n      swap1\n      pop\n        /* \"#utility.yul\":34786:35205   */\n      swap2\n      swap1\n      pop\n      jump\t// out\n        /* \"#utility.yul\":35211:35386   */\n    tag_395:\n        /* \"#utility.yul\":35351:35378   */\n      0x54686520416d6f756e7420646f65736e2774204d617463682100000000000000\n        /* \"#utility.yul\":35347:35348   */\n      0x00\n        /* \"#utility.yul\":35339:35345   */\n      dup3\n        /* \"#utility.yul\":35335:35349   */\n      add\n        /* \"#utility.yul\":35328:35379   */\n      mstore\n        /* \"#utility.yul\":35211:35386   */\n      pop\n      jump\t// out\n        /* \"#utility.yul\":35392:35758   */\n    tag_396:\n        /* \"#utility.yul\":35534:35537   */\n      0x00\n        /* \"#utility.yul\":35555:35622   */\n      tag_734\n        /* \"#utility.yul\":35619:35621   */\n      0x19\n        /* \"#utility.yul\":35614:35617   */\n      dup4\n        /* \"#utility.yul\":35555:35622   */\n      tag_325\n      jump\t// in\n    tag_734:\n        /* \"#utility.yul\":35548:35622   */\n      swap2\n      pop\n        /* \"#utility.yul\":35631:35724   */\n      tag_735\n        /* \"#utility.yul\":35720:35723   */\n      dup3\n        /* \"#utility.yul\":35631:35724   */\n      tag_395\n      jump\t// in\n    tag_735:\n        /* \"#utility.yul\":35749:35751   */\n      0x20\n        /* \"#utility.yul\":35744:35747   */\n      dup3\n        /* \"#utility.yul\":35740:35752   */\n      add\n        /* \"#utility.yul\":35733:35752   */\n      swap1\n      pop\n        /* \"#utility.yul\":35392:35758   */\n      swap2\n      swap1\n      pop\n      jump\t// out\n        /* \"#utility.yul\":35764:36183   */\n    tag_171:\n        /* \"#utility.yul\":35930:35934   */\n      0x00\n        /* \"#utility.yul\":35968:35970   */\n      0x20\n        /* \"#utility.yul\":35957:35966   */\n      dup3\n        /* \"#utility.yul\":35953:35971   */\n      add\n        /* \"#utility.yul\":35945:35971   */\n      swap1\n      pop\n        /* \"#utility.yul\":36017:36026   */\n      dup2\n        /* \"#utility.yul\":36011:36015   */\n      dup2\n        /* \"#utility.yul\":36007:36027   */\n      sub\n        /* \"#utility.yul\":36003:36004   */\n      0x00\n        /* \"#utility.yul\":35992:36001   */\n      dup4\n        /* \"#utility.yul\":35988:36005   */\n      add\n        /* \"#utility.yul\":35981:36028   */\n      mstore\n        /* \"#utility.yul\":36045:36176   */\n      tag_737\n        /* \"#utility.yul\":36171:36175   */\n      dup2\n        /* \"#utility.yul\":36045:36176   */\n      tag_396\n      jump\t// in\n    tag_737:\n        /* \"#utility.yul\":36037:36176   */\n      swap1\n      pop\n        /* \"#utility.yul\":35764:36183   */\n      swap2\n      swap1\n      pop\n      jump\t// out\n        /* \"#utility.yul\":36189:36380   */\n    tag_177:\n        /* \"#utility.yul\":36229:36232   */\n      0x00\n        /* \"#utility.yul\":36248:36268   */\n      tag_739\n        /* \"#utility.yul\":36266:36267   */\n      dup3\n        /* \"#utility.yul\":36248:36268   */\n      tag_320\n      jump\t// in\n    tag_739:\n        /* \"#utility.yul\":36243:36268   */\n      swap2\n      pop\n        /* \"#utility.yul\":36282:36302   */\n      tag_740\n        /* \"#utility.yul\":36300:36301   */\n      dup4\n        /* \"#utility.yul\":36282:36302   */\n      tag_320\n      jump\t// in\n    tag_740:\n        /* \"#utility.yul\":36277:36302   */\n      swap3\n      pop\n        /* \"#utility.yul\":36325:36326   */\n      dup3\n        /* \"#utility.yul\":36322:36323   */\n      dup3\n        /* \"#utility.yul\":36318:36327   */\n      add\n        /* \"#utility.yul\":36311:36327   */\n      swap1\n      pop\n        /* \"#utility.yul\":36346:36349   */\n      dup1\n        /* \"#utility.yul\":36343:36344   */\n      dup3\n        /* \"#utility.yul\":36340:36350   */\n      gt\n        /* \"#utility.yul\":36337:36373   */\n      iszero\n      tag_741\n      jumpi\n        /* \"#utility.yul\":36353:36371   */\n      tag_742\n      tag_379\n      jump\t// in\n    tag_742:\n        /* \"#utility.yul\":36337:36373   */\n    tag_741:\n        /* \"#utility.yul\":36189:36380   */\n      swap3\n      swap2\n      pop\n      pop\n      jump\t// out\n        /* \"#utility.yul\":36386:36446   */\n    tag_397:\n        /* \"#utility.yul\":36414:36417   */\n      0x00\n        /* \"#utility.yul\":36435:36440   */\n      dup2\n        /* \"#utility.yul\":36428:36440   */\n      swap1\n      pop\n        /* \"#utility.yul\":36386:36446   */\n      swap2\n      swap1\n      pop\n      jump\t// out\n        /* \"#utility.yul\":36452:36594   */\n    tag_398:\n        /* \"#utility.yul\":36502:36511   */\n      0x00\n        /* \"#utility.yul\":36535:36588   */\n      tag_745\n        /* \"#utility.yul\":36553:36587   */\n      tag_746\n        /* \"#utility.yul\":36562:36586   */\n      tag_747\n        /* \"#utility.yul\":36580:36585   */\n      dup5\n        /* \"#utility.yul\":36562:36586   */\n      tag_316\n      jump\t// in\n    tag_747:\n        /* \"#utility.yul\":36553:36587   */\n      tag_397\n      jump\t// in\n    tag_746:\n        /* \"#utility.yul\":36535:36588   */\n      tag_316\n      jump\t// in\n    tag_745:\n        /* \"#utility.yul\":36522:36588   */\n      swap1\n      pop\n        /* \"#utility.yul\":36452:36594   */\n      swap2\n      swap1\n      pop\n      jump\t// out\n        /* \"#utility.yul\":36600:36726   */\n    tag_399:\n        /* \"#utility.yul\":36650:36659   */\n      0x00\n        /* \"#utility.yul\":36683:36720   */\n      tag_749\n        /* \"#utility.yul\":36714:36719   */\n      dup3\n        /* \"#utility.yul\":36683:36720   */\n      tag_398\n      jump\t// in\n    tag_749:\n        /* \"#utility.yul\":36670:36720   */\n      swap1\n      pop\n        /* \"#utility.yul\":36600:36726   */\n      swap2\n      swap1\n      pop\n      jump\t// out\n        /* \"#utility.yul\":36732:36866   */\n    tag_400:\n        /* \"#utility.yul\":36790:36799   */\n      0x00\n        /* \"#utility.yul\":36823:36860   */\n      tag_751\n        /* \"#utility.yul\":36854:36859   */\n      dup3\n        /* \"#utility.yul\":36823:36860   */\n      tag_399\n      jump\t// in\n    tag_751:\n        /* \"#utility.yul\":36810:36860   */\n      swap1\n      pop\n        /* \"#utility.yul\":36732:36866   */\n      swap2\n      swap1\n      pop\n      jump\t// out\n        /* \"#utility.yul\":36872:37019   */\n    tag_401:\n        /* \"#utility.yul\":36967:37012   */\n      tag_753\n        /* \"#utility.yul\":37006:37011   */\n      dup2\n        /* \"#utility.yul\":36967:37012   */\n      tag_400\n      jump\t// in\n    tag_753:\n        /* \"#utility.yul\":36962:36965   */\n      dup3\n        /* \"#utility.yul\":36955:37013   */\n      mstore\n        /* \"#utility.yul\":36872:37019   */\n      pop\n      pop\n      jump\t// out\n        /* \"#utility.yul\":37025:37373   */\n    tag_192:\n        /* \"#utility.yul\":37154:37158   */\n      0x00\n        /* \"#utility.yul\":37192:37194   */\n      0x40\n        /* \"#utility.yul\":37181:37190   */\n      dup3\n        /* \"#utility.yul\":37177:37195   */\n      add\n        /* \"#utility.yul\":37169:37195   */\n      swap1\n      pop\n        /* \"#utility.yul\":37205:37284   */\n      tag_755\n        /* \"#utility.yul\":37281:37282   */\n      0x00\n        /* \"#utility.yul\":37270:37279   */\n      dup4\n        /* \"#utility.yul\":37266:37283   */\n      add\n        /* \"#utility.yul\":37257:37263   */\n      dup6\n        /* \"#utility.yul\":37205:37284   */\n      tag_401\n      jump\t// in\n    tag_755:\n        /* \"#utility.yul\":37294:37366   */\n      tag_756\n        /* \"#utility.yul\":37362:37364   */\n      0x20\n        /* \"#utility.yul\":37351:37360   */\n      dup4\n        /* \"#utility.yul\":37347:37365   */\n      add\n        /* \"#utility.yul\":37338:37344   */\n      dup5\n        /* \"#utility.yul\":37294:37366   */\n      tag_323\n      jump\t// in\n    tag_756:\n        /* \"#utility.yul\":37025:37373   */\n      swap4\n      swap3\n      pop\n      pop\n      pop\n      jump\t// out\n        /* \"#utility.yul\":37379:37472   */\n    tag_402:\n        /* \"#utility.yul\":37416:37422   */\n      0x00\n        /* \"#utility.yul\":37463:37465   */\n      0x20\n        /* \"#utility.yul\":37458:37460   */\n      0x1f\n        /* \"#utility.yul\":37451:37456   */\n      dup4\n        /* \"#utility.yul\":37447:37461   */\n      add\n        /* \"#utility.yul\":37443:37466   */\n      div\n        /* \"#utility.yul\":37433:37466   */\n      swap1\n      pop\n        /* \"#utility.yul\":37379:37472   */\n      swap2\n      swap1\n      pop\n      jump\t// out\n        /* \"#utility.yul\":37478:37585   */\n    tag_403:\n        /* \"#utility.yul\":37522:37530   */\n      0x00\n        /* \"#utility.yul\":37572:37577   */\n      dup3\n        /* \"#utility.yul\":37566:37570   */\n      dup3\n        /* \"#utility.yul\":37562:37578   */\n      shl\n        /* \"#utility.yul\":37541:37578   */\n      swap1\n      pop\n        /* \"#utility.yul\":37478:37585   */\n      swap3\n      swap2\n      pop\n      pop\n      jump\t// out\n        /* \"#utility.yul\":37591:37984   */\n    tag_404:\n        /* \"#utility.yul\":37660:37666   */\n      0x00\n        /* \"#utility.yul\":37710:37711   */\n      0x08\n        /* \"#utility.yul\":37698:37708   */\n      dup4\n        /* \"#utility.yul\":37694:37712   */\n      mul\n        /* \"#utility.yul\":37733:37830   */\n      tag_760\n        /* \"#utility.yul\":37763:37829   */\n      0xffffffffffffffffffffffffffffffffffffffffffffffffffffffffffffffff\n        /* \"#utility.yul\":37752:37761   */\n      dup3\n        /* \"#utility.yul\":37733:37830   */\n      tag_403\n      jump\t// in\n    tag_760:\n        /* \"#utility.yul\":37851:37890   */\n      tag_761\n        /* \"#utility.yul\":37881:37889   */\n      dup7\n        /* \"#utility.yul\":37870:37879   */\n      dup4\n        /* \"#utility.yul\":37851:37890   */\n      tag_403\n      jump\t// in\n    tag_761:\n        /* \"#utility.yul\":37839:37890   */\n      swap6\n      pop\n        /* \"#utility.yul\":37923:37927   */\n      dup1\n        /* \"#utility.yul\":37919:37928   */\n      not\n        /* \"#utility.yul\":37912:37917   */\n      dup5\n        /* \"#utility.yul\":37908:37929   */\n      and\n        /* \"#utility.yul\":37899:37929   */\n      swap4\n      pop\n        /* \"#utility.yul\":37972:37976   */\n      dup1\n        /* \"#utility.yul\":37962:37970   */\n      dup7\n        /* \"#utility.yul\":37958:37977   */\n      and\n        /* \"#utility.yul\":37951:37956   */\n      dup5\n        /* \"#utility.yul\":37948:37978   */\n      or\n        /* \"#utility.yul\":37938:37978   */\n      swap3\n      pop\n        /* \"#utility.yul\":37667:37984   */\n      pop\n      pop\n        /* \"#utility.yul\":37591:37984   */\n      swap4\n      swap3\n      pop\n      pop\n      pop\n      jump\t// out\n        /* \"#utility.yul\":37990:38132   */\n    tag_405:\n        /* \"#utility.yul\":38040:38049   */\n      0x00\n        /* \"#utility.yul\":38073:38126   */\n      tag_763\n        /* \"#utility.yul\":38091:38125   */\n      tag_764\n        /* \"#utility.yul\":38100:38124   */\n      tag_765\n        /* \"#utility.yul\":38118:38123   */\n      dup5\n        /* \"#utility.yul\":38100:38124   */\n      tag_320\n      jump\t// in\n    tag_765:\n        /* \"#utility.yul\":38091:38125   */\n      tag_397\n      jump\t// in\n    tag_764:\n        /* \"#utility.yul\":38073:38126   */\n      tag_320\n      jump\t// in\n    tag_763:\n        /* \"#utility.yul\":38060:38126   */\n      swap1\n      pop\n        /* \"#utility.yul\":37990:38132   */\n      swap2\n      swap1\n      pop\n      jump\t// out\n        /* \"#utility.yul\":38138:38213   */\n    tag_406:\n        /* \"#utility.yul\":38181:38184   */\n      0x00\n        /* \"#utility.yul\":38202:38207   */\n      dup2\n        /* \"#utility.yul\":38195:38207   */\n      swap1\n      pop\n        /* \"#utility.yul\":38138:38213   */\n      swap2\n      swap1\n      pop\n      jump\t// out\n        /* \"#utility.yul\":38219:38488   */\n    tag_407:\n        /* \"#utility.yul\":38329:38368   */\n      tag_768\n        /* \"#utility.yul\":38360:38367   */\n      dup4\n        /* \"#utility.yul\":38329:38368   */\n      tag_405\n      jump\t// in\n    tag_768:\n        /* \"#utility.yul\":38390:38481   */\n      tag_769\n        /* \"#utility.yul\":38439:38480   */\n      tag_770\n        /* \"#utility.yul\":38463:38479   */\n      dup3\n        /* \"#utility.yul\":38439:38480   */\n      tag_406\n      jump\t// in\n    tag_770:\n        /* \"#utility.yul\":38431:38437   */\n      dup5\n        /* \"#utility.yul\":38424:38428   */\n      dup5\n        /* \"#utility.yul\":38418:38429   */\n      sload\n        /* \"#utility.yul\":38390:38481   */\n      tag_404\n      jump\t// in\n    tag_769:\n        /* \"#utility.yul\":38384:38388   */\n      dup3\n        /* \"#utility.yul\":38377:38482   */\n      sstore\n        /* \"#utility.yul\":38295:38488   */\n      pop\n        /* \"#utility.yul\":38219:38488   */\n      pop\n      pop\n      pop\n      jump\t// out\n        /* \"#utility.yul\":38494:38567   */\n    tag_408:\n        /* \"#utility.yul\":38539:38542   */\n      0x00\n        /* \"#utility.yul\":38494:38567   */\n      swap1\n      jump\t// out\n        /* \"#utility.yul\":38573:38762   */\n    tag_409:\n        /* \"#utility.yul\":38650:38682   */\n      tag_773\n      tag_408\n      jump\t// in\n    tag_773:\n        /* \"#utility.yul\":38691:38756   */\n      tag_774\n        /* \"#utility.yul\":38749:38755   */\n      dup2\n        /* \"#utility.yul\":38741:38747   */\n      dup5\n        /* \"#utility.yul\":38735:38739   */\n      dup5\n        /* \"#utility.yul\":38691:38756   */\n      tag_407\n      jump\t// in\n    tag_774:\n        /* \"#utility.yul\":38626:38762   */\n      pop\n        /* \"#utility.yul\":38573:38762   */\n      pop\n      pop\n      jump\t// out\n        /* \"#utility.yul\":38768:38954   */\n    tag_410:\n        /* \"#utility.yul\":38828:38948   */\n    tag_776:\n        /* \"#utility.yul\":38845:38848   */\n      dup2\n        /* \"#utility.yul\":38838:38843   */\n      dup2\n        /* \"#utility.yul\":38835:38849   */\n      lt\n        /* \"#utility.yul\":38828:38948   */\n      iszero\n      tag_778\n      jumpi\n        /* \"#utility.yul\":38899:38938   */\n      tag_779\n        /* \"#utility.yul\":38936:38937   */\n      0x00\n        /* \"#utility.yul\":38929:38934   */\n      dup3\n        /* \"#utility.yul\":38899:38938   */\n      tag_409\n      jump\t// in\n    tag_779:\n        /* \"#utility.yul\":38872:38873   */\n      0x01\n        /* \"#utility.yul\":38865:38870   */\n      dup2\n        /* \"#utility.yul\":38861:38874   */\n      add\n        /* \"#utility.yul\":38852:38874   */\n      swap1\n      pop\n        /* \"#utility.yul\":38828:38948   */\n      jump(tag_776)\n    tag_778:\n        /* \"#utility.yul\":38768:38954   */\n      pop\n      pop\n      jump\t// out\n        /* \"#utility.yul\":38960:39503   */\n    tag_411:\n        /* \"#utility.yul\":39061:39063   */\n      0x1f\n        /* \"#utility.yul\":39056:39059   */\n      dup3\n        /* \"#utility.yul\":39053:39064   */\n      gt\n        /* \"#utility.yul\":39050:39496   */\n      iszero\n      tag_781\n      jumpi\n        /* \"#utility.yul\":39095:39133   */\n      tag_782\n        /* \"#utility.yul\":39127:39132   */\n      dup2\n        /* \"#utility.yul\":39095:39133   */\n      tag_389\n      jump\t// in\n    tag_782:\n        /* \"#utility.yul\":39179:39208   */\n      tag_783\n        /* \"#utility.yul\":39197:39207   */\n      dup5\n        /* \"#utility.yul\":39179:39208   */\n      tag_402\n      jump\t// in\n    tag_783:\n        /* \"#utility.yul\":39169:39177   */\n      dup2\n        /* \"#utility.yul\":39165:39209   */\n      add\n        /* \"#utility.yul\":39362:39364   */\n      0x20\n        /* \"#utility.yul\":39350:39360   */\n      dup6\n        /* \"#utility.yul\":39347:39365   */\n      lt\n        /* \"#utility.yul\":39344:39393   */\n      iszero\n      tag_784\n      jumpi\n        /* \"#utility.yul\":39383:39391   */\n      dup2\n        /* \"#utility.yul\":39368:39391   */\n      swap1\n      pop\n        /* \"#utility.yul\":39344:39393   */\n    tag_784:\n        /* \"#utility.yul\":39406:39486   */\n      tag_785\n        /* \"#utility.yul\":39462:39484   */\n      tag_786\n        /* \"#utility.yul\":39480:39483   */\n      dup6\n        /* \"#utility.yul\":39462:39484   */\n      tag_402\n      jump\t// in\n    tag_786:\n        /* \"#utility.yul\":39452:39460   */\n      dup4\n        /* \"#utility.yul\":39448:39485   */\n      add\n        /* \"#utility.yul\":39435:39446   */\n      dup3\n        /* \"#utility.yul\":39406:39486   */\n      tag_410\n      jump\t// in\n    tag_785:\n        /* \"#utility.yul\":39065:39496   */\n      pop\n      pop\n        /* \"#utility.yul\":39050:39496   */\n    tag_781:\n        /* \"#utility.yul\":38960:39503   */\n      pop\n      pop\n      pop\n      jump\t// out\n        /* \"#utility.yul\":39509:39626   */\n    tag_412:\n        /* \"#utility.yul\":39563:39571   */\n      0x00\n        /* \"#utility.yul\":39613:39618   */\n      dup3\n        /* \"#utility.yul\":39607:39611   */\n      dup3\n        /* \"#utility.yul\":39603:39619   */\n      shr\n        /* \"#utility.yul\":39582:39619   */\n      swap1\n      pop\n        /* \"#utility.yul\":39509:39626   */\n      swap3\n      swap2\n      pop\n      pop\n      jump\t// out\n        /* \"#utility.yul\":39632:39801   */\n    tag_413:\n        /* \"#utility.yul\":39676:39682   */\n      0x00\n        /* \"#utility.yul\":39709:39760   */\n      tag_789\n        /* \"#utility.yul\":39757:39758   */\n      0x00\n        /* \"#utility.yul\":39753:39759   */\n      not\n        /* \"#utility.yul\":39745:39750   */\n      dup5\n        /* \"#utility.yul\":39742:39743   */\n      0x08\n        /* \"#utility.yul\":39738:39751   */\n      mul\n        /* \"#utility.yul\":39709:39760   */\n      tag_412\n      jump\t// in\n    tag_789:\n        /* \"#utility.yul\":39705:39761   */\n      not\n        /* \"#utility.yul\":39790:39794   */\n      dup1\n        /* \"#utility.yul\":39784:39788   */\n      dup4\n        /* \"#utility.yul\":39780:39795   */\n      and\n        /* \"#utility.yul\":39770:39795   */\n      swap2\n      pop\n        /* \"#utility.yul\":39683:39801   */\n      pop\n        /* \"#utility.yul\":39632:39801   */\n      swap3\n      swap2\n      pop\n      pop\n      jump\t// out\n        /* \"#utility.yul\":39806:40101   */\n    tag_414:\n        /* \"#utility.yul\":39882:39886   */\n      0x00\n        /* \"#utility.yul\":40028:40057   */\n      tag_791\n        /* \"#utility.yul\":40053:40056   */\n      dup4\n        /* \"#utility.yul\":40047:40051   */\n      dup4\n        /* \"#utility.yul\":40028:40057   */\n      tag_413\n      jump\t// in\n    tag_791:\n        /* \"#utility.yul\":40020:40057   */\n      swap2\n      pop\n        /* \"#utility.yul\":40090:40093   */\n      dup3\n        /* \"#utility.yul\":40087:40088   */\n      0x02\n        /* \"#utility.yul\":40083:40094   */\n      mul\n        /* \"#utility.yul\":40077:40081   */\n      dup3\n        /* \"#utility.yul\":40074:40095   */\n      or\n        /* \"#utility.yul\":40066:40095   */\n      swap1\n      pop\n        /* \"#utility.yul\":39806:40101   */\n      swap3\n      swap2\n      pop\n      pop\n      jump\t// out\n        /* \"#utility.yul\":40106:41501   */\n    tag_204:\n        /* \"#utility.yul\":40223:40260   */\n      tag_793\n        /* \"#utility.yul\":40256:40259   */\n      dup3\n        /* \"#utility.yul\":40223:40260   */\n      tag_324\n      jump\t// in\n    tag_793:\n        /* \"#utility.yul\":40325:40343   */\n      0xffffffffffffffff\n        /* \"#utility.yul\":40317:40323   */\n      dup2\n        /* \"#utility.yul\":40314:40344   */\n      gt\n        /* \"#utility.yul\":40311:40367   */\n      iszero\n      tag_794\n      jumpi\n        /* \"#utility.yul\":40347:40365   */\n      tag_795\n      tag_369\n      jump\t// in\n    tag_795:\n        /* \"#utility.yul\":40311:40367   */\n    tag_794:\n        /* \"#utility.yul\":40391:40429   */\n      tag_796\n        /* \"#utility.yul\":40423:40427   */\n      dup3\n        /* \"#utility.yul\":40417:40428   */\n      sload\n        /* \"#utility.yul\":40391:40429   */\n      tag_106\n      jump\t// in\n    tag_796:\n        /* \"#utility.yul\":40476:40543   */\n      tag_797\n        /* \"#utility.yul\":40536:40542   */\n      dup3\n        /* \"#utility.yul\":40528:40534   */\n      dup3\n        /* \"#utility.yul\":40522:40526   */\n      dup6\n        /* \"#utility.yul\":40476:40543   */\n      tag_411\n      jump\t// in\n    tag_797:\n        /* \"#utility.yul\":40570:40571   */\n      0x00\n        /* \"#utility.yul\":40594:40598   */\n      0x20\n        /* \"#utility.yul\":40581:40598   */\n      swap1\n      pop\n        /* \"#utility.yul\":40626:40628   */\n      0x1f\n        /* \"#utility.yul\":40618:40624   */\n      dup4\n        /* \"#utility.yul\":40615:40629   */\n      gt\n        /* \"#utility.yul\":40643:40644   */\n      0x01\n        /* \"#utility.yul\":40638:41256   */\n      dup2\n      eq\n      tag_799\n      jumpi\n        /* \"#utility.yul\":41300:41301   */\n      0x00\n        /* \"#utility.yul\":41317:41323   */\n      dup5\n        /* \"#utility.yul\":41314:41391   */\n      iszero\n      tag_800\n      jumpi\n        /* \"#utility.yul\":41366:41375   */\n      dup3\n        /* \"#utility.yul\":41361:41364   */\n      dup8\n        /* \"#utility.yul\":41357:41376   */\n      add\n        /* \"#utility.yul\":41351:41377   */\n      mload\n        /* \"#utility.yul\":41342:41377   */\n      swap1\n      pop\n        /* \"#utility.yul\":41314:41391   */\n    tag_800:\n        /* \"#utility.yul\":41417:41484   */\n      tag_801\n        /* \"#utility.yul\":41477:41483   */\n      dup6\n        /* \"#utility.yul\":41470:41475   */\n      dup3\n        /* \"#utility.yul\":41417:41484   */\n      tag_414\n      jump\t// in\n    tag_801:\n        /* \"#utility.yul\":41411:41415   */\n      dup7\n        /* \"#utility.yul\":41404:41485   */\n      sstore\n        /* \"#utility.yul\":41273:41495   */\n      pop\n        /* \"#utility.yul\":40608:41495   */\n      jump(tag_798)\n        /* \"#utility.yul\":40638:41256   */\n    tag_799:\n        /* \"#utility.yul\":40690:40694   */\n      0x1f\n        /* \"#utility.yul\":40686:40695   */\n      not\n        /* \"#utility.yul\":40678:40684   */\n      dup5\n        /* \"#utility.yul\":40674:40696   */\n      and\n        /* \"#utility.yul\":40724:40761   */\n      tag_802\n        /* \"#utility.yul\":40756:40760   */\n      dup7\n        /* \"#utility.yul\":40724:40761   */\n      tag_389\n      jump\t// in\n    tag_802:\n        /* \"#utility.yul\":40783:40784   */\n      0x00\n        /* \"#utility.yul\":40797:41005   */\n    tag_803:\n        /* \"#utility.yul\":40811:40818   */\n      dup3\n        /* \"#utility.yul\":40808:40809   */\n      dup2\n        /* \"#utility.yul\":40805:40819   */\n      lt\n        /* \"#utility.yul\":40797:41005   */\n      iszero\n      tag_805\n      jumpi\n        /* \"#utility.yul\":40890:40899   */\n      dup5\n        /* \"#utility.yul\":40885:40888   */\n      dup10\n        /* \"#utility.yul\":40881:40900   */\n      add\n        /* \"#utility.yul\":40875:40901   */\n      mload\n        /* \"#utility.yul\":40867:40873   */\n      dup3\n        /* \"#utility.yul\":40860:40902   */\n      sstore\n        /* \"#utility.yul\":40941:40942   */\n      0x01\n        /* \"#utility.yul\":40933:40939   */\n      dup3\n        /* \"#utility.yul\":40929:40943   */\n      add\n        /* \"#utility.yul\":40919:40943   */\n      swap2\n      pop\n        /* \"#utility.yul\":40988:40990   */\n      0x20\n        /* \"#utility.yul\":40977:40986   */\n      dup6\n        /* \"#utility.yul\":40973:40991   */\n      add\n        /* \"#utility.yul\":40960:40991   */\n      swap5\n      pop\n        /* \"#utility.yul\":40834:40838   */\n      0x20\n        /* \"#utility.yul\":40831:40832   */\n      dup2\n        /* \"#utility.yul\":40827:40839   */\n      add\n        /* \"#utility.yul\":40822:40839   */\n      swap1\n      pop\n        /* \"#utility.yul\":40797:41005   */\n      jump(tag_803)\n    tag_805:\n        /* \"#utility.yul\":41033:41039   */\n      dup7\n        /* \"#utility.yul\":41024:41031   */\n      dup4\n        /* \"#utility.yul\":41021:41040   */\n      lt\n        /* \"#utility.yul\":41018:41197   */\n      iszero\n      tag_806\n      jumpi\n        /* \"#utility.yul\":41091:41100   */\n      dup5\n        /* \"#utility.yul\":41086:41089   */\n      dup10\n        /* \"#utility.yul\":41082:41101   */\n      add\n        /* \"#utility.yul\":41076:41102   */\n      mload\n        /* \"#utility.yul\":41134:41182   */\n      tag_807\n        /* \"#utility.yul\":41176:41180   */\n      0x1f\n        /* \"#utility.yul\":41168:41174   */\n      dup10\n        /* \"#utility.yul\":41164:41181   */\n      and\n        /* \"#utility.yul\":41153:41162   */\n      dup3\n        /* \"#utility.yul\":41134:41182   */\n      tag_413\n      jump\t// in\n    tag_807:\n        /* \"#utility.yul\":41126:41132   */\n      dup4\n        /* \"#utility.yul\":41119:41183   */\n      sstore\n        /* \"#utility.yul\":41041:41197   */\n      pop\n        /* \"#utility.yul\":41018:41197   */\n    tag_806:\n        /* \"#utility.yul\":41243:41244   */\n      0x01\n        /* \"#utility.yul\":41239:41240   */\n      0x02\n        /* \"#utility.yul\":41231:41237   */\n      dup9\n        /* \"#utility.yul\":41227:41241   */\n      mul\n        /* \"#utility.yul\":41223:41245   */\n      add\n        /* \"#utility.yul\":41217:41221   */\n      dup9\n        /* \"#utility.yul\":41210:41246   */\n      sstore\n        /* \"#utility.yul\":40645:41256   */\n      pop\n      pop\n      pop\n        /* \"#utility.yul\":40608:41495   */\n    tag_798:\n      pop\n        /* \"#utility.yul\":40198:41501   */\n      pop\n      pop\n      pop\n        /* \"#utility.yul\":40106:41501   */\n      pop\n      pop\n      jump\t// out\n        /* \"#utility.yul\":41507:42076   */\n    tag_206:\n        /* \"#utility.yul\":41692:41696   */\n      0x00\n        /* \"#utility.yul\":41730:41733   */\n      0x80\n        /* \"#utility.yul\":41719:41728   */\n      dup3\n        /* \"#utility.yul\":41715:41734   */\n      add\n        /* \"#utility.yul\":41707:41734   */\n      swap1\n      pop\n        /* \"#utility.yul\":41744:41815   */\n      tag_809\n        /* \"#utility.yul\":41812:41813   */\n      0x00\n        /* \"#utility.yul\":41801:41810   */\n      dup4\n        /* \"#utility.yul\":41797:41814   */\n      add\n        /* \"#utility.yul\":41788:41794   */\n      dup8\n        /* \"#utility.yul\":41744:41815   */\n      tag_329\n      jump\t// in\n    tag_809:\n        /* \"#utility.yul\":41825:41897   */\n      tag_810\n        /* \"#utility.yul\":41893:41895   */\n      0x20\n        /* \"#utility.yul\":41882:41891   */\n      dup4\n        /* \"#utility.yul\":41878:41896   */\n      add\n        /* \"#utility.yul\":41869:41875   */\n      dup7\n        /* \"#utility.yul\":41825:41897   */\n      tag_323\n      jump\t// in\n    tag_810:\n        /* \"#utility.yul\":41907:41987   */\n      tag_811\n        /* \"#utility.yul\":41983:41985   */\n      0x40\n        /* \"#utility.yul\":41972:41981   */\n      dup4\n        /* \"#utility.yul\":41968:41986   */\n      add\n        /* \"#utility.yul\":41959:41965   */\n      dup6\n        /* \"#utility.yul\":41907:41987   */\n      tag_401\n      jump\t// in\n    tag_811:\n        /* \"#utility.yul\":41997:42069   */\n      tag_812\n        /* \"#utility.yul\":42065:42067   */\n      0x60\n        /* \"#utility.yul\":42054:42063   */\n      dup4\n        /* \"#utility.yul\":42050:42068   */\n      add\n        /* \"#utility.yul\":42041:42047   */\n      dup5\n        /* \"#utility.yul\":41997:42069   */\n      tag_323\n      jump\t// in\n    tag_812:\n        /* \"#utility.yul\":41507:42076   */\n      swap6\n      swap5\n      pop\n      pop\n      pop\n      pop\n      pop\n      jump\t// out\n        /* \"#utility.yul\":42082:42306   */\n    tag_415:\n        /* \"#utility.yul\":42222:42256   */\n      0x5468657265204973204e6f2043616d706169676e204279205468617420616464\n        /* \"#utility.yul\":42218:42219   */\n      0x00\n        /* \"#utility.yul\":42210:42216   */\n      dup3\n        /* \"#utility.yul\":42206:42220   */\n      add\n        /* \"#utility.yul\":42199:42257   */\n      mstore\n        /* \"#utility.yul\":42291:42298   */\n      0x7265737321000000000000000000000000000000000000000000000000000000\n        /* \"#utility.yul\":42286:42288   */\n      0x20\n        /* \"#utility.yul\":42278:42284   */\n      dup3\n        /* \"#utility.yul\":42274:42289   */\n      add\n        /* \"#utility.yul\":42267:42299   */\n      mstore\n        /* \"#utility.yul\":42082:42306   */\n      pop\n      jump\t// out\n        /* \"#utility.yul\":42312:42678   */\n    tag_416:\n        /* \"#utility.yul\":42454:42457   */\n      0x00\n        /* \"#utility.yul\":42475:42542   */\n      tag_815\n        /* \"#utility.yul\":42539:42541   */\n      0x25\n        /* \"#utility.yul\":42534:42537   */\n      dup4\n        /* \"#utility.yul\":42475:42542   */\n      tag_325\n      jump\t// in\n    tag_815:\n        /* \"#utility.yul\":42468:42542   */\n      swap2\n      pop\n        /* \"#utility.yul\":42551:42644   */\n      tag_816\n        /* \"#utility.yul\":42640:42643   */\n      dup3\n        /* \"#utility.yul\":42551:42644   */\n      tag_415\n      jump\t// in\n    tag_816:\n        /* \"#utility.yul\":42669:42671   */\n      0x40\n        /* \"#utility.yul\":42664:42667   */\n      dup3\n        /* \"#utility.yul\":42660:42672   */\n      add\n        /* \"#utility.yul\":42653:42672   */\n      swap1\n      pop\n        /* \"#utility.yul\":42312:42678   */\n      swap2\n      swap1\n      pop\n      jump\t// out\n        /* \"#utility.yul\":42684:43103   */\n    tag_218:\n        /* \"#utility.yul\":42850:42854   */\n      0x00\n        /* \"#utility.yul\":42888:42890   */\n      0x20\n        /* \"#utility.yul\":42877:42886   */\n      dup3\n        /* \"#utility.yul\":42873:42891   */\n      add\n        /* \"#utility.yul\":42865:42891   */\n      swap1\n      pop\n        /* \"#utility.yul\":42937:42946   */\n      dup2\n        /* \"#utility.yul\":42931:42935   */\n      dup2\n        /* \"#utility.yul\":42927:42947   */\n      sub\n        /* \"#utility.yul\":42923:42924   */\n      0x00\n        /* \"#utility.yul\":42912:42921   */\n      dup4\n        /* \"#utility.yul\":42908:42925   */\n      add\n        /* \"#utility.yul\":42901:42948   */\n      mstore\n        /* \"#utility.yul\":42965:43096   */\n      tag_818\n        /* \"#utility.yul\":43091:43095   */\n      dup2\n        /* \"#utility.yul\":42965:43096   */\n      tag_416\n      jump\t// in\n    tag_818:\n        /* \"#utility.yul\":42957:43096   */\n      swap1\n      pop\n        /* \"#utility.yul\":42684:43103   */\n      swap2\n      swap1\n      pop\n      jump\t// out\n        /* \"#utility.yul\":43109:43334   */\n    tag_417:\n        /* \"#utility.yul\":43249:43283   */\n      0x5468652043616d706169676e2053706563696669656420446f6573204e6f7420\n        /* \"#utility.yul\":43245:43246   */\n      0x00\n        /* \"#utility.yul\":43237:43243   */\n      dup3\n        /* \"#utility.yul\":43233:43247   */\n      add\n        /* \"#utility.yul\":43226:43284   */\n      mstore\n        /* \"#utility.yul\":43318:43326   */\n      0x4578697374210000000000000000000000000000000000000000000000000000\n        /* \"#utility.yul\":43313:43315   */\n      0x20\n        /* \"#utility.yul\":43305:43311   */\n      dup3\n        /* \"#utility.yul\":43301:43316   */\n      add\n        /* \"#utility.yul\":43294:43327   */\n      mstore\n        /* \"#utility.yul\":43109:43334   */\n      pop\n      jump\t// out\n        /* \"#utility.yul\":43340:43706   */\n    tag_418:\n        /* \"#utility.yul\":43482:43485   */\n      0x00\n        /* \"#utility.yul\":43503:43570   */\n      tag_821\n        /* \"#utility.yul\":43567:43569   */\n      0x26\n        /* \"#utility.yul\":43562:43565   */\n      dup4\n        /* \"#utility.yul\":43503:43570   */\n      tag_325\n      jump\t// in\n    tag_821:\n        /* \"#utility.yul\":43496:43570   */\n      swap2\n      pop\n        /* \"#utility.yul\":43579:43672   */\n      tag_822\n        /* \"#utility.yul\":43668:43671   */\n      dup3\n        /* \"#utility.yul\":43579:43672   */\n      tag_417\n      jump\t// in\n    tag_822:\n        /* \"#utility.yul\":43697:43699   */\n      0x40\n        /* \"#utility.yul\":43692:43695   */\n      dup3\n        /* \"#utility.yul\":43688:43700   */\n      add\n        /* \"#utility.yul\":43681:43700   */\n      swap1\n      pop\n        /* \"#utility.yul\":43340:43706   */\n      swap2\n      swap1\n      pop\n      jump\t// out\n        /* \"#utility.yul\":43712:44131   */\n    tag_225:\n        /* \"#utility.yul\":43878:43882   */\n      0x00\n        /* \"#utility.yul\":43916:43918   */\n      0x20\n        /* \"#utility.yul\":43905:43914   */\n      dup3\n        /* \"#utility.yul\":43901:43919   */\n      add\n        /* \"#utility.yul\":43893:43919   */\n      swap1\n      pop\n        /* \"#utility.yul\":43965:43974   */\n      dup2\n        /* \"#utility.yul\":43959:43963   */\n      dup2\n        /* \"#utility.yul\":43955:43975   */\n      sub\n        /* \"#utility.yul\":43951:43952   */\n      0x00\n        /* \"#utility.yul\":43940:43949   */\n      dup4\n        /* \"#utility.yul\":43936:43953   */\n      add\n        /* \"#utility.yul\":43929:43976   */\n      mstore\n        /* \"#utility.yul\":43993:44124   */\n      tag_824\n        /* \"#utility.yul\":44119:44123   */\n      dup2\n        /* \"#utility.yul\":43993:44124   */\n      tag_418\n      jump\t// in\n    tag_824:\n        /* \"#utility.yul\":43985:44124   */\n      swap1\n      pop\n        /* \"#utility.yul\":43712:44131   */\n      swap2\n      swap1\n      pop\n      jump\t// out\n        /* \"#utility.yul\":44137:44360   */\n    tag_419:\n        /* \"#utility.yul\":44277:44311   */\n      0x4f6e6c792041646d696e732043616e20506572666f726d205468697320416374\n        /* \"#utility.yul\":44273:44274   */\n      0x00\n        /* \"#utility.yul\":44265:44271   */\n      dup3\n        /* \"#utility.yul\":44261:44275   */\n      add\n        /* \"#utility.yul\":44254:44312   */\n      mstore\n        /* \"#utility.yul\":44346:44352   */\n      0x696f6e2100000000000000000000000000000000000000000000000000000000\n        /* \"#utility.yul\":44341:44343   */\n      0x20\n        /* \"#utility.yul\":44333:44339   */\n      dup3\n        /* \"#utility.yul\":44329:44344   */\n      add\n        /* \"#utility.yul\":44322:44353   */\n      mstore\n        /* \"#utility.yul\":44137:44360   */\n      pop\n      jump\t// out\n        /* \"#utility.yul\":44366:44732   */\n    tag_420:\n        /* \"#utility.yul\":44508:44511   */\n      0x00\n        /* \"#utility.yul\":44529:44596   */\n      tag_827\n        /* \"#utility.yul\":44593:44595   */\n      0x24\n        /* \"#utility.yul\":44588:44591   */\n      dup4\n        /* \"#utility.yul\":44529:44596   */\n      tag_325\n      jump\t// in\n    tag_827:\n        /* \"#utility.yul\":44522:44596   */\n      swap2\n      pop\n        /* \"#utility.yul\":44605:44698   */\n      tag_828\n        /* \"#utility.yul\":44694:44697   */\n      dup3\n        /* \"#utility.yul\":44605:44698   */\n      tag_419\n      jump\t// in\n    tag_828:\n        /* \"#utility.yul\":44723:44725   */\n      0x40\n        /* \"#utility.yul\":44718:44721   */\n      dup3\n        /* \"#utility.yul\":44714:44726   */\n      add\n        /* \"#utility.yul\":44707:44726   */\n      swap1\n      pop\n        /* \"#utility.yul\":44366:44732   */\n      swap2\n      swap1\n      pop\n      jump\t// out\n        /* \"#utility.yul\":44738:45157   */\n    tag_228:\n        /* \"#utility.yul\":44904:44908   */\n      0x00\n        /* \"#utility.yul\":44942:44944   */\n      0x20\n        /* \"#utility.yul\":44931:44940   */\n      dup3\n        /* \"#utility.yul\":44927:44945   */\n      add\n        /* \"#utility.yul\":44919:44945   */\n      swap1\n      pop\n        /* \"#utility.yul\":44991:45000   */\n      dup2\n        /* \"#utility.yul\":44985:44989   */\n      dup2\n        /* \"#utility.yul\":44981:45001   */\n      sub\n        /* \"#utility.yul\":44977:44978   */\n      0x00\n        /* \"#utility.yul\":44966:44975   */\n      dup4\n        /* \"#utility.yul\":44962:44979   */\n      add\n        /* \"#utility.yul\":44955:45002   */\n      mstore\n        /* \"#utility.yul\":45019:45150   */\n      tag_830\n        /* \"#utility.yul\":45145:45149   */\n      dup2\n        /* \"#utility.yul\":45019:45150   */\n      tag_420\n      jump\t// in\n    tag_830:\n        /* \"#utility.yul\":45011:45150   */\n      swap1\n      pop\n        /* \"#utility.yul\":44738:45157   */\n      swap2\n      swap1\n      pop\n      jump\t// out\n        /* \"#utility.yul\":45163:45400   */\n    tag_421:\n        /* \"#utility.yul\":45303:45337   */\n      0x416d6f756e742043616e6e6f74206265205a65726f204f722045786365656420\n        /* \"#utility.yul\":45299:45300   */\n      0x00\n        /* \"#utility.yul\":45291:45297   */\n      dup3\n        /* \"#utility.yul\":45287:45301   */\n      add\n        /* \"#utility.yul\":45280:45338   */\n      mstore\n        /* \"#utility.yul\":45372:45392   */\n      0x5468652052616973656420416d6f756e74210000000000000000000000000000\n        /* \"#utility.yul\":45367:45369   */\n      0x20\n        /* \"#utility.yul\":45359:45365   */\n      dup3\n        /* \"#utility.yul\":45355:45370   */\n      add\n        /* \"#utility.yul\":45348:45393   */\n      mstore\n        /* \"#utility.yul\":45163:45400   */\n      pop\n      jump\t// out\n        /* \"#utility.yul\":45406:45772   */\n    tag_422:\n        /* \"#utility.yul\":45548:45551   */\n      0x00\n        /* \"#utility.yul\":45569:45636   */\n      tag_833\n        /* \"#utility.yul\":45633:45635   */\n      0x32\n        /* \"#utility.yul\":45628:45631   */\n      dup4\n        /* \"#utility.yul\":45569:45636   */\n      tag_325\n      jump\t// in\n    tag_833:\n        /* \"#utility.yul\":45562:45636   */\n      swap2\n      pop\n        /* \"#utility.yul\":45645:45738   */\n      tag_834\n        /* \"#utility.yul\":45734:45737   */\n      dup3\n        /* \"#utility.yul\":45645:45738   */\n      tag_421\n      jump\t// in\n    tag_834:\n        /* \"#utility.yul\":45763:45765   */\n      0x40\n        /* \"#utility.yul\":45758:45761   */\n      dup3\n        /* \"#utility.yul\":45754:45766   */\n      add\n        /* \"#utility.yul\":45747:45766   */\n      swap1\n      pop\n        /* \"#utility.yul\":45406:45772   */\n      swap2\n      swap1\n      pop\n      jump\t// out\n        /* \"#utility.yul\":45778:46197   */\n    tag_237:\n        /* \"#utility.yul\":45944:45948   */\n      0x00\n        /* \"#utility.yul\":45982:45984   */\n      0x20\n        /* \"#utility.yul\":45971:45980   */\n      dup3\n        /* \"#utility.yul\":45967:45985   */\n      add\n        /* \"#utility.yul\":45959:45985   */\n      swap1\n      pop\n        /* \"#utility.yul\":46031:46040   */\n      dup2\n        /* \"#utility.yul\":46025:46029   */\n      dup2\n        /* \"#utility.yul\":46021:46041   */\n      sub\n        /* \"#utility.yul\":46017:46018   */\n      0x00\n        /* \"#utility.yul\":46006:46015   */\n      dup4\n        /* \"#utility.yul\":46002:46019   */\n      add\n        /* \"#utility.yul\":45995:46042   */\n      mstore\n        /* \"#utility.yul\":46059:46190   */\n      tag_836\n        /* \"#utility.yul\":46185:46189   */\n      dup2\n        /* \"#utility.yul\":46059:46190   */\n      tag_422\n      jump\t// in\n    tag_836:\n        /* \"#utility.yul\":46051:46190   */\n      swap1\n      pop\n        /* \"#utility.yul\":45778:46197   */\n      swap2\n      swap1\n      pop\n      jump\t// out\n        /* \"#utility.yul\":46203:46438   */\n    tag_423:\n        /* \"#utility.yul\":46343:46377   */\n      0x596f752043616e27742057697468647261772046756e64732066726f6d20616e\n        /* \"#utility.yul\":46339:46340   */\n      0x00\n        /* \"#utility.yul\":46331:46337   */\n      dup3\n        /* \"#utility.yul\":46327:46341   */\n      add\n        /* \"#utility.yul\":46320:46378   */\n      mstore\n        /* \"#utility.yul\":46412:46430   */\n      0x204163746976652043616d706169676e00000000000000000000000000000000\n        /* \"#utility.yul\":46407:46409   */\n      0x20\n        /* \"#utility.yul\":46399:46405   */\n      dup3\n        /* \"#utility.yul\":46395:46410   */\n      add\n        /* \"#utility.yul\":46388:46431   */\n      mstore\n        /* \"#utility.yul\":46203:46438   */\n      pop\n      jump\t// out\n        /* \"#utility.yul\":46444:46810   */\n    tag_424:\n        /* \"#utility.yul\":46586:46589   */\n      0x00\n        /* \"#utility.yul\":46607:46674   */\n      tag_839\n        /* \"#utility.yul\":46671:46673   */\n      0x30\n        /* \"#utility.yul\":46666:46669   */\n      dup4\n        /* \"#utility.yul\":46607:46674   */\n      tag_325\n      jump\t// in\n    tag_839:\n        /* \"#utility.yul\":46600:46674   */\n      swap2\n      pop\n        /* \"#utility.yul\":46683:46776   */\n      tag_840\n        /* \"#utility.yul\":46772:46775   */\n      dup3\n        /* \"#utility.yul\":46683:46776   */\n      tag_423\n      jump\t// in\n    tag_840:\n        /* \"#utility.yul\":46801:46803   */\n      0x40\n        /* \"#utility.yul\":46796:46799   */\n      dup3\n        /* \"#utility.yul\":46792:46804   */\n      add\n        /* \"#utility.yul\":46785:46804   */\n      swap1\n      pop\n        /* \"#utility.yul\":46444:46810   */\n      swap2\n      swap1\n      pop\n      jump\t// out\n        /* \"#utility.yul\":46816:47235   */\n    tag_244:\n        /* \"#utility.yul\":46982:46986   */\n      0x00\n        /* \"#utility.yul\":47020:47022   */\n      0x20\n        /* \"#utility.yul\":47009:47018   */\n      dup3\n        /* \"#utility.yul\":47005:47023   */\n      add\n        /* \"#utility.yul\":46997:47023   */\n      swap1\n      pop\n        /* \"#utility.yul\":47069:47078   */\n      dup2\n        /* \"#utility.yul\":47063:47067   */\n      dup2\n        /* \"#utility.yul\":47059:47079   */\n      sub\n        /* \"#utility.yul\":47055:47056   */\n      0x00\n        /* \"#utility.yul\":47044:47053   */\n      dup4\n        /* \"#utility.yul\":47040:47057   */\n      add\n        /* \"#utility.yul\":47033:47080   */\n      mstore\n        /* \"#utility.yul\":47097:47228   */\n      tag_842\n        /* \"#utility.yul\":47223:47227   */\n      dup2\n        /* \"#utility.yul\":47097:47228   */\n      tag_424\n      jump\t// in\n    tag_842:\n        /* \"#utility.yul\":47089:47228   */\n      swap1\n      pop\n        /* \"#utility.yul\":46816:47235   */\n      swap2\n      swap1\n      pop\n      jump\t// out\n        /* \"#utility.yul\":47241:47420   */\n    tag_425:\n        /* \"#utility.yul\":47381:47412   */\n      0x496e73756666696369656e7420636f6e74726163742062616c616e6365000000\n        /* \"#utility.yul\":47377:47378   */\n      0x00\n        /* \"#utility.yul\":47369:47375   */\n      dup3\n        /* \"#utility.yul\":47365:47379   */\n      add\n        /* \"#utility.yul\":47358:47413   */\n      mstore\n        /* \"#utility.yul\":47241:47420   */\n      pop\n      jump\t// out\n        /* \"#utility.yul\":47426:47792   */\n    tag_426:\n        /* \"#utility.yul\":47568:47571   */\n      0x00\n        /* \"#utility.yul\":47589:47656   */\n      tag_845\n        /* \"#utility.yul\":47653:47655   */\n      0x1d\n        /* \"#utility.yul\":47648:47651   */\n      dup4\n        /* \"#utility.yul\":47589:47656   */\n      tag_325\n      jump\t// in\n    tag_845:\n        /* \"#utility.yul\":47582:47656   */\n      swap2\n      pop\n        /* \"#utility.yul\":47665:47758   */\n      tag_846\n        /* \"#utility.yul\":47754:47757   */\n      dup3\n        /* \"#utility.yul\":47665:47758   */\n      tag_425\n      jump\t// in\n    tag_846:\n        /* \"#utility.yul\":47783:47785   */\n      0x20\n        /* \"#utility.yul\":47778:47781   */\n      dup3\n        /* \"#utility.yul\":47774:47786   */\n      add\n        /* \"#utility.yul\":47767:47786   */\n      swap1\n      pop\n        /* \"#utility.yul\":47426:47792   */\n      swap2\n      swap1\n      pop\n      jump\t// out\n        /* \"#utility.yul\":47798:48217   */\n    tag_247:\n        /* \"#utility.yul\":47964:47968   */\n      0x00\n        /* \"#utility.yul\":48002:48004   */\n      0x20\n        /* \"#utility.yul\":47991:48000   */\n      dup3\n        /* \"#utility.yul\":47987:48005   */\n      add\n        /* \"#utility.yul\":47979:48005   */\n      swap1\n      pop\n        /* \"#utility.yul\":48051:48060   */\n      dup2\n        /* \"#utility.yul\":48045:48049   */\n      dup2\n        /* \"#utility.yul\":48041:48061   */\n      sub\n        /* \"#utility.yul\":48037:48038   */\n      0x00\n        /* \"#utility.yul\":48026:48035   */\n      dup4\n        /* \"#utility.yul\":48022:48039   */\n      add\n        /* \"#utility.yul\":48015:48062   */\n      mstore\n        /* \"#utility.yul\":48079:48210   */\n      tag_848\n        /* \"#utility.yul\":48205:48209   */\n      dup2\n        /* \"#utility.yul\":48079:48210   */\n      tag_426\n      jump\t// in\n    tag_848:\n        /* \"#utility.yul\":48071:48210   */\n      swap1\n      pop\n        /* \"#utility.yul\":47798:48217   */\n      swap2\n      swap1\n      pop\n      jump\t// out\n        /* \"#utility.yul\":48223:48370   */\n    tag_427:\n        /* \"#utility.yul\":48324:48335   */\n      0x00\n        /* \"#utility.yul\":48361:48364   */\n      dup2\n        /* \"#utility.yul\":48346:48364   */\n      swap1\n      pop\n        /* \"#utility.yul\":48223:48370   */\n      swap3\n      swap2\n      pop\n      pop\n      jump\t// out\n        /* \"#utility.yul\":48376:48490   */\n    tag_428:\n      pop\n      jump\t// out\n        /* \"#utility.yul\":48496:48894   */\n    tag_429:\n        /* \"#utility.yul\":48655:48658   */\n      0x00\n        /* \"#utility.yul\":48676:48759   */\n      tag_852\n        /* \"#utility.yul\":48757:48758   */\n      0x00\n        /* \"#utility.yul\":48752:48755   */\n      dup4\n        /* \"#utility.yul\":48676:48759   */\n      tag_427\n      jump\t// in\n    tag_852:\n        /* \"#utility.yul\":48669:48759   */\n      swap2\n      pop\n        /* \"#utility.yul\":48768:48861   */\n      tag_853\n        /* \"#utility.yul\":48857:48860   */\n      dup3\n        /* \"#utility.yul\":48768:48861   */\n      tag_428\n      jump\t// in\n    tag_853:\n        /* \"#utility.yul\":48886:48887   */\n      0x00\n        /* \"#utility.yul\":48881:48884   */\n      dup3\n        /* \"#utility.yul\":48877:48888   */\n      add\n        /* \"#utility.yul\":48870:48888   */\n      swap1\n      pop\n        /* \"#utility.yul\":48496:48894   */\n      swap2\n      swap1\n      pop\n      jump\t// out\n        /* \"#utility.yul\":48900:49279   */\n    tag_254:\n        /* \"#utility.yul\":49084:49087   */\n      0x00\n        /* \"#utility.yul\":49106:49253   */\n      tag_855\n        /* \"#utility.yul\":49249:49252   */\n      dup3\n        /* \"#utility.yul\":49106:49253   */\n      tag_429\n      jump\t// in\n    tag_855:\n        /* \"#utility.yul\":49099:49253   */\n      swap2\n      pop\n        /* \"#utility.yul\":49270:49273   */\n      dup2\n        /* \"#utility.yul\":49263:49273   */\n      swap1\n      pop\n        /* \"#utility.yul\":48900:49279   */\n      swap2\n      swap1\n      pop\n      jump\t// out\n        /* \"#utility.yul\":49285:49450   */\n    tag_430:\n        /* \"#utility.yul\":49425:49442   */\n      0x5472616e73666572206661696c65640000000000000000000000000000000000\n        /* \"#utility.yul\":49421:49422   */\n      0x00\n        /* \"#utility.yul\":49413:49419   */\n      dup3\n        /* \"#utility.yul\":49409:49423   */\n      add\n        /* \"#utility.yul\":49402:49443   */\n      mstore\n        /* \"#utility.yul\":49285:49450   */\n      pop\n      jump\t// out\n        /* \"#utility.yul\":49456:49822   */\n    tag_431:\n        /* \"#utility.yul\":49598:49601   */\n      0x00\n        /* \"#utility.yul\":49619:49686   */\n      tag_858\n        /* \"#utility.yul\":49683:49685   */\n      0x0f\n        /* \"#utility.yul\":49678:49681   */\n      dup4\n        /* \"#utility.yul\":49619:49686   */\n      tag_325\n      jump\t// in\n    tag_858:\n        /* \"#utility.yul\":49612:49686   */\n      swap2\n      pop\n        /* \"#utility.yul\":49695:49788   */\n      tag_859\n        /* \"#utility.yul\":49784:49787   */\n      dup3\n        /* \"#utility.yul\":49695:49788   */\n      tag_430\n      jump\t// in\n    tag_859:\n        /* \"#utility.yul\":49813:49815   */\n      0x20\n        /* \"#utility.yul\":49808:49811   */\n      dup3\n        /* \"#utility.yul\":49804:49816   */\n      add\n        /* \"#utility.yul\":49797:49816   */\n      swap1\n      pop\n        /* \"#utility.yul\":49456:49822   */\n      swap2\n      swap1\n      pop\n      jump\t// out\n        /* \"#utility.yul\":49828:50247   */\n    tag_260:\n        /* \"#utility.yul\":49994:49998   */\n      0x00\n        /* \"#utility.yul\":50032:50034   */\n      0x20\n        /* \"#utility.yul\":50021:50030   */\n      dup3\n        /* \"#utility.yul\":50017:50035   */\n      add\n        /* \"#utility.yul\":50009:50035   */\n      swap1\n      pop\n        /* \"#utility.yul\":50081:50090   */\n      dup2\n        /* \"#utility.yul\":50075:50079   */\n      dup2\n        /* \"#utility.yul\":50071:50091   */\n      sub\n        /* \"#utility.yul\":50067:50068   */\n      0x00\n        /* \"#utility.yul\":50056:50065   */\n      dup4\n        /* \"#utility.yul\":50052:50069   */\n      add\n        /* \"#utility.yul\":50045:50092   */\n      mstore\n        /* \"#utility.yul\":50109:50240   */\n      tag_861\n        /* \"#utility.yul\":50235:50239   */\n      dup2\n        /* \"#utility.yul\":50109:50240   */\n      tag_431\n      jump\t// in\n    tag_861:\n        /* \"#utility.yul\":50101:50240   */\n      swap1\n      pop\n        /* \"#utility.yul\":49828:50247   */\n      swap2\n      swap1\n      pop\n      jump\t// out\n        /* \"#utility.yul\":50253:50933   */\n    tag_273:\n        /* \"#utility.yul\":50466:50470   */\n      0x00\n        /* \"#utility.yul\":50504:50507   */\n      0xa0\n        /* \"#utility.yul\":50493:50502   */\n      dup3\n        /* \"#utility.yul\":50489:50508   */\n      add\n        /* \"#utility.yul\":50481:50508   */\n      swap1\n      pop\n        /* \"#utility.yul\":50518:50589   */\n      tag_863\n        /* \"#utility.yul\":50586:50587   */\n      0x00\n        /* \"#utility.yul\":50575:50584   */\n      dup4\n        /* \"#utility.yul\":50571:50588   */\n      add\n        /* \"#utility.yul\":50562:50568   */\n      dup9\n        /* \"#utility.yul\":50518:50589   */\n      tag_323\n      jump\t// in\n    tag_863:\n        /* \"#utility.yul\":50599:50671   */\n      tag_864\n        /* \"#utility.yul\":50667:50669   */\n      0x20\n        /* \"#utility.yul\":50656:50665   */\n      dup4\n        /* \"#utility.yul\":50652:50670   */\n      add\n        /* \"#utility.yul\":50643:50649   */\n      dup8\n        /* \"#utility.yul\":50599:50671   */\n      tag_329\n      jump\t// in\n    tag_864:\n        /* \"#utility.yul\":50681:50761   */\n      tag_865\n        /* \"#utility.yul\":50757:50759   */\n      0x40\n        /* \"#utility.yul\":50746:50755   */\n      dup4\n        /* \"#utility.yul\":50742:50760   */\n      add\n        /* \"#utility.yul\":50733:50739   */\n      dup7\n        /* \"#utility.yul\":50681:50761   */\n      tag_401\n      jump\t// in\n    tag_865:\n        /* \"#utility.yul\":50771:50843   */\n      tag_866\n        /* \"#utility.yul\":50839:50841   */\n      0x60\n        /* \"#utility.yul\":50828:50837   */\n      dup4\n        /* \"#utility.yul\":50824:50842   */\n      add\n        /* \"#utility.yul\":50815:50821   */\n      dup6\n        /* \"#utility.yul\":50771:50843   */\n      tag_329\n      jump\t// in\n    tag_866:\n        /* \"#utility.yul\":50853:50926   */\n      tag_867\n        /* \"#utility.yul\":50921:50924   */\n      0x80\n        /* \"#utility.yul\":50910:50919   */\n      dup4\n        /* \"#utility.yul\":50906:50925   */\n      add\n        /* \"#utility.yul\":50897:50903   */\n      dup5\n        /* \"#utility.yul\":50853:50926   */\n      tag_323\n      jump\t// in\n    tag_867:\n        /* \"#utility.yul\":50253:50933   */\n      swap7\n      swap6\n      pop\n      pop\n      pop\n      pop\n      pop\n      pop\n      jump\t// out\n        /* \"#utility.yul\":50939:51329   */\n    tag_432:\n        /* \"#utility.yul\":51045:51048   */\n      0x00\n        /* \"#utility.yul\":51073:51112   */\n      tag_869\n        /* \"#utility.yul\":51106:51111   */\n      dup3\n        /* \"#utility.yul\":51073:51112   */\n      tag_324\n      jump\t// in\n    tag_869:\n        /* \"#utility.yul\":51128:51217   */\n      tag_870\n        /* \"#utility.yul\":51210:51216   */\n      dup2\n        /* \"#utility.yul\":51205:51208   */\n      dup6\n        /* \"#utility.yul\":51128:51217   */\n      tag_380\n      jump\t// in\n    tag_870:\n        /* \"#utility.yul\":51121:51217   */\n      swap4\n      pop\n        /* \"#utility.yul\":51226:51291   */\n      tag_871\n        /* \"#utility.yul\":51284:51290   */\n      dup2\n        /* \"#utility.yul\":51279:51282   */\n      dup6\n        /* \"#utility.yul\":51272:51276   */\n      0x20\n        /* \"#utility.yul\":51265:51270   */\n      dup7\n        /* \"#utility.yul\":51261:51277   */\n      add\n        /* \"#utility.yul\":51226:51291   */\n      tag_326\n      jump\t// in\n    tag_871:\n        /* \"#utility.yul\":51316:51322   */\n      dup1\n        /* \"#utility.yul\":51311:51314   */\n      dup5\n        /* \"#utility.yul\":51307:51323   */\n      add\n        /* \"#utility.yul\":51300:51323   */\n      swap2\n      pop\n        /* \"#utility.yul\":51049:51329   */\n      pop\n        /* \"#utility.yul\":50939:51329   */\n      swap3\n      swap2\n      pop\n      pop\n      jump\t// out\n        /* \"#utility.yul\":51335:51610   */\n    tag_300:\n        /* \"#utility.yul\":51467:51470   */\n      0x00\n        /* \"#utility.yul\":51489:51584   */\n      tag_873\n        /* \"#utility.yul\":51580:51583   */\n      dup3\n        /* \"#utility.yul\":51571:51577   */\n      dup5\n        /* \"#utility.yul\":51489:51584   */\n      tag_432\n      jump\t// in\n    tag_873:\n        /* \"#utility.yul\":51482:51584   */\n      swap2\n      pop\n        /* \"#utility.yul\":51601:51604   */\n      dup2\n        /* \"#utility.yul\":51594:51604   */\n      swap1\n      pop\n        /* \"#utility.yul\":51335:51610   */\n      swap3\n      swap2\n      pop\n      pop\n      jump\t// out\n        /* \"#utility.yul\":51616:51761   */\n    tag_433:\n        /* \"#utility.yul\":51669:51673   */\n      0x00\n        /* \"#utility.yul\":51692:51695   */\n      dup2\n        /* \"#utility.yul\":51684:51695   */\n      swap1\n      pop\n        /* \"#utility.yul\":51715:51718   */\n      dup2\n        /* \"#utility.yul\":51712:51713   */\n      0x00\n        /* \"#utility.yul\":51705:51719   */\n      mstore\n        /* \"#utility.yul\":51749:51753   */\n      0x20\n        /* \"#utility.yul\":51746:51747   */\n      0x00\n        /* \"#utility.yul\":51736:51754   */\n      keccak256\n        /* \"#utility.yul\":51728:51754   */\n      swap1\n      pop\n        /* \"#utility.yul\":51616:51761   */\n      swap2\n      swap1\n      pop\n      jump\t// out\n        /* \"#utility.yul\":51791:52673   */\n    tag_434:\n        /* \"#utility.yul\":51898:51901   */\n      0x00\n        /* \"#utility.yul\":51935:51940   */\n      dup2\n        /* \"#utility.yul\":51929:51941   */\n      sload\n        /* \"#utility.yul\":51964:52000   */\n      tag_876\n        /* \"#utility.yul\":51990:51999   */\n      dup2\n        /* \"#utility.yul\":51964:52000   */\n      tag_106\n      jump\t// in\n    tag_876:\n        /* \"#utility.yul\":52016:52105   */\n      tag_877\n        /* \"#utility.yul\":52098:52104   */\n      dup2\n        /* \"#utility.yul\":52093:52096   */\n      dup7\n        /* \"#utility.yul\":52016:52105   */\n      tag_380\n      jump\t// in\n    tag_877:\n        /* \"#utility.yul\":52009:52105   */\n      swap5\n      pop\n        /* \"#utility.yul\":52136:52137   */\n      0x01\n        /* \"#utility.yul\":52125:52134   */\n      dup3\n        /* \"#utility.yul\":52121:52138   */\n      and\n        /* \"#utility.yul\":52152:52153   */\n      0x00\n        /* \"#utility.yul\":52147:52313   */\n      dup2\n      eq\n      tag_879\n      jumpi\n        /* \"#utility.yul\":52327:52328   */\n      0x01\n        /* \"#utility.yul\":52322:52667   */\n      dup2\n      eq\n      tag_880\n      jumpi\n        /* \"#utility.yul\":52114:52667   */\n      jump(tag_878)\n        /* \"#utility.yul\":52147:52313   */\n    tag_879:\n        /* \"#utility.yul\":52231:52235   */\n      0xff\n        /* \"#utility.yul\":52227:52236   */\n      not\n        /* \"#utility.yul\":52216:52225   */\n      dup4\n        /* \"#utility.yul\":52212:52237   */\n      and\n        /* \"#utility.yul\":52207:52210   */\n      dup7\n        /* \"#utility.yul\":52200:52238   */\n      mstore\n        /* \"#utility.yul\":52293:52299   */\n      dup2\n        /* \"#utility.yul\":52286:52300   */\n      iszero\n        /* \"#utility.yul\":52279:52301   */\n      iszero\n        /* \"#utility.yul\":52271:52277   */\n      dup3\n        /* \"#utility.yul\":52267:52302   */\n      mul\n        /* \"#utility.yul\":52262:52265   */\n      dup7\n        /* \"#utility.yul\":52258:52303   */\n      add\n        /* \"#utility.yul\":52251:52303   */\n      swap4\n      pop\n        /* \"#utility.yul\":52147:52313   */\n      jump(tag_878)\n        /* \"#utility.yul\":52322:52667   */\n    tag_880:\n        /* \"#utility.yul\":52389:52431   */\n      tag_881\n        /* \"#utility.yul\":52425:52430   */\n      dup6\n        /* \"#utility.yul\":52389:52431   */\n      tag_433\n      jump\t// in\n    tag_881:\n        /* \"#utility.yul\":52453:52454   */\n      0x00\n        /* \"#utility.yul\":52467:52621   */\n    tag_882:\n        /* \"#utility.yul\":52481:52487   */\n      dup4\n        /* \"#utility.yul\":52478:52479   */\n      dup2\n        /* \"#utility.yul\":52475:52488   */\n      lt\n        /* \"#utility.yul\":52467:52621   */\n      iszero\n      tag_884\n      jumpi\n        /* \"#utility.yul\":52555:52562   */\n      dup2\n        /* \"#utility.yul\":52549:52563   */\n      sload\n        /* \"#utility.yul\":52545:52546   */\n      dup2\n        /* \"#utility.yul\":52540:52543   */\n      dup10\n        /* \"#utility.yul\":52536:52547   */\n      add\n        /* \"#utility.yul\":52529:52564   */\n      mstore\n        /* \"#utility.yul\":52605:52606   */\n      0x01\n        /* \"#utility.yul\":52596:52603   */\n      dup3\n        /* \"#utility.yul\":52592:52607   */\n      add\n        /* \"#utility.yul\":52581:52607   */\n      swap2\n      pop\n        /* \"#utility.yul\":52503:52507   */\n      0x20\n        /* \"#utility.yul\":52500:52501   */\n      dup2\n        /* \"#utility.yul\":52496:52508   */\n      add\n        /* \"#utility.yul\":52491:52508   */\n      swap1\n      pop\n        /* \"#utility.yul\":52467:52621   */\n      jump(tag_882)\n    tag_884:\n        /* \"#utility.yul\":52650:52656   */\n      dup4\n        /* \"#utility.yul\":52645:52648   */\n      dup9\n        /* \"#utility.yul\":52641:52657   */\n      add\n        /* \"#utility.yul\":52634:52657   */\n      swap6\n      pop\n        /* \"#utility.yul\":52329:52667   */\n      pop\n      pop\n        /* \"#utility.yul\":52114:52667   */\n    tag_878:\n      pop\n        /* \"#utility.yul\":51902:52673   */\n      pop\n      pop\n        /* \"#utility.yul\":51791:52673   */\n      swap3\n      swap2\n      pop\n      pop\n      jump\t// out\n        /* \"#utility.yul\":52679:52956   */\n    tag_302:\n        /* \"#utility.yul\":52812:52815   */\n      0x00\n        /* \"#utility.yul\":52834:52930   */\n      tag_886\n        /* \"#utility.yul\":52926:52929   */\n      dup3\n        /* \"#utility.yul\":52917:52923   */\n      dup5\n        /* \"#utility.yul\":52834:52930   */\n      tag_434\n      jump\t// in\n    tag_886:\n        /* \"#utility.yul\":52827:52930   */\n      swap2\n      pop\n        /* \"#utility.yul\":52947:52950   */\n      dup2\n        /* \"#utility.yul\":52940:52950   */\n      swap1\n      pop\n        /* \"#utility.yul\":52679:52956   */\n      swap3\n      swap2\n      pop\n      pop\n      jump\t// out\n        /* \"#utility.yul\":52962:53121   */\n    tag_435:\n        /* \"#utility.yul\":53102:53113   */\n      0x43616d706169676e200000000000000000000000000000000000000000000000\n        /* \"#utility.yul\":53098:53099   */\n      0x00\n        /* \"#utility.yul\":53090:53096   */\n      dup3\n        /* \"#utility.yul\":53086:53100   */\n      add\n        /* \"#utility.yul\":53079:53114   */\n      mstore\n        /* \"#utility.yul\":52962:53121   */\n      pop\n      jump\t// out\n        /* \"#utility.yul\":53127:53527   */\n    tag_436:\n        /* \"#utility.yul\":53287:53290   */\n      0x00\n        /* \"#utility.yul\":53308:53392   */\n      tag_889\n        /* \"#utility.yul\":53390:53391   */\n      0x09\n        /* \"#utility.yul\":53385:53388   */\n      dup4\n        /* \"#utility.yul\":53308:53392   */\n      tag_380\n      jump\t// in\n    tag_889:\n        /* \"#utility.yul\":53301:53392   */\n      swap2\n      pop\n        /* \"#utility.yul\":53401:53494   */\n      tag_890\n        /* \"#utility.yul\":53490:53493   */\n      dup3\n        /* \"#utility.yul\":53401:53494   */\n      tag_435\n      jump\t// in\n    tag_890:\n        /* \"#utility.yul\":53519:53520   */\n      0x09\n        /* \"#utility.yul\":53514:53517   */\n      dup3\n        /* \"#utility.yul\":53510:53521   */\n      add\n        /* \"#utility.yul\":53503:53521   */\n      swap1\n      pop\n        /* \"#utility.yul\":53127:53527   */\n      swap2\n      swap1\n      pop\n      jump\t// out\n        /* \"#utility.yul\":53533:53699   */\n    tag_437:\n        /* \"#utility.yul\":53673:53691   */\n      0x20616c7265616479206578697374732100000000000000000000000000000000\n        /* \"#utility.yul\":53669:53670   */\n      0x00\n        /* \"#utility.yul\":53661:53667   */\n      dup3\n        /* \"#utility.yul\":53657:53671   */\n      add\n        /* \"#utility.yul\":53650:53692   */\n      mstore\n        /* \"#utility.yul\":53533:53699   */\n      pop\n      jump\t// out\n        /* \"#utility.yul\":53705:54107   */\n    tag_438:\n        /* \"#utility.yul\":53865:53868   */\n      0x00\n        /* \"#utility.yul\":53886:53971   */\n      tag_893\n        /* \"#utility.yul\":53968:53970   */\n      0x10\n        /* \"#utility.yul\":53963:53966   */\n      dup4\n        /* \"#utility.yul\":53886:53971   */\n      tag_380\n      jump\t// in\n    tag_893:\n        /* \"#utility.yul\":53879:53971   */\n      swap2\n      pop\n        /* \"#utility.yul\":53980:54073   */\n      tag_894\n        /* \"#utility.yul\":54069:54072   */\n      dup3\n        /* \"#utility.yul\":53980:54073   */\n      tag_437\n      jump\t// in\n    tag_894:\n        /* \"#utility.yul\":54098:54100   */\n      0x10\n        /* \"#utility.yul\":54093:54096   */\n      dup3\n        /* \"#utility.yul\":54089:54101   */\n      add\n        /* \"#utility.yul\":54082:54101   */\n      swap1\n      pop\n        /* \"#utility.yul\":53705:54107   */\n      swap2\n      swap1\n      pop\n      jump\t// out\n        /* \"#utility.yul\":54113:54920   */\n    tag_305:\n        /* \"#utility.yul\":54447:54450   */\n      0x00\n        /* \"#utility.yul\":54469:54617   */\n      tag_896\n        /* \"#utility.yul\":54613:54616   */\n      dup3\n        /* \"#utility.yul\":54469:54617   */\n      tag_436\n      jump\t// in\n    tag_896:\n        /* \"#utility.yul\":54462:54617   */\n      swap2\n      pop\n        /* \"#utility.yul\":54634:54729   */\n      tag_897\n        /* \"#utility.yul\":54725:54728   */\n      dup3\n        /* \"#utility.yul\":54716:54722   */\n      dup5\n        /* \"#utility.yul\":54634:54729   */\n      tag_432\n      jump\t// in\n    tag_897:\n        /* \"#utility.yul\":54627:54729   */\n      swap2\n      pop\n        /* \"#utility.yul\":54746:54894   */\n      tag_898\n        /* \"#utility.yul\":54890:54893   */\n      dup3\n        /* \"#utility.yul\":54746:54894   */\n      tag_438\n      jump\t// in\n    tag_898:\n        /* \"#utility.yul\":54739:54894   */\n      swap2\n      pop\n        /* \"#utility.yul\":54911:54914   */\n      dup2\n        /* \"#utility.yul\":54904:54914   */\n      swap1\n      pop\n        /* \"#utility.yul\":54113:54920   */\n      swap3\n      swap2\n      pop\n      pop\n      jump\t// out\n        /* \"#utility.yul\":54926:55570   */\n    tag_312:\n        /* \"#utility.yul\":55123:55127   */\n      0x00\n        /* \"#utility.yul\":55161:55164   */\n      0x80\n        /* \"#utility.yul\":55150:55159   */\n      dup3\n        /* \"#utility.yul\":55146:55165   */\n      add\n        /* \"#utility.yul\":55138:55165   */\n      swap1\n      pop\n        /* \"#utility.yul\":55175:55246   */\n      tag_900\n        /* \"#utility.yul\":55243:55244   */\n      0x00\n        /* \"#utility.yul\":55232:55241   */\n      dup4\n        /* \"#utility.yul\":55228:55245   */\n      add\n        /* \"#utility.yul\":55219:55225   */\n      dup8\n        /* \"#utility.yul\":55175:55246   */\n      tag_323\n      jump\t// in\n    tag_900:\n        /* \"#utility.yul\":55256:55328   */\n      tag_901\n        /* \"#utility.yul\":55324:55326   */\n      0x20\n        /* \"#utility.yul\":55313:55322   */\n      dup4\n        /* \"#utility.yul\":55309:55327   */\n      add\n        /* \"#utility.yul\":55300:55306   */\n      dup7\n        /* \"#utility.yul\":55256:55328   */\n      tag_329\n      jump\t// in\n    tag_901:\n        /* \"#utility.yul\":55375:55384   */\n      dup2\n        /* \"#utility.yul\":55369:55373   */\n      dup2\n        /* \"#utility.yul\":55365:55385   */\n      sub\n        /* \"#utility.yul\":55360:55362   */\n      0x40\n        /* \"#utility.yul\":55349:55358   */\n      dup4\n        /* \"#utility.yul\":55345:55363   */\n      add\n        /* \"#utility.yul\":55338:55386   */\n      mstore\n        /* \"#utility.yul\":55403:55481   */\n      tag_902\n        /* \"#utility.yul\":55476:55480   */\n      dup2\n        /* \"#utility.yul\":55467:55473   */\n      dup6\n        /* \"#utility.yul\":55403:55481   */\n      tag_328\n      jump\t// in\n    tag_902:\n        /* \"#utility.yul\":55395:55481   */\n      swap1\n      pop\n        /* \"#utility.yul\":55491:55563   */\n      tag_903\n        /* \"#utility.yul\":55559:55561   */\n      0x60\n        /* \"#utility.yul\":55548:55557   */\n      dup4\n        /* \"#utility.yul\":55544:55562   */\n      add\n        /* \"#utility.yul\":55535:55541   */\n      dup5\n        /* \"#utility.yul\":55491:55563   */\n      tag_323\n      jump\t// in\n    tag_903:\n        /* \"#utility.yul\":54926:55570   */\n      swap6\n      swap5\n      pop\n      pop\n      pop\n      pop\n      pop\n      jump\t// out\n\n    auxdata: 0xa2646970667358221220b1c9bce903ced7d8a18848ade04ecce7f4402896d2a35bf12f3c61da0e01ae6164736f6c634300081a0033\n}\n",
				"bytecode": {
					"linkReferences": {},
					"object": "6080604052348015600e575f80fd5b50335f806101000a81548173ffffffffffffffffffffffffffffffffffffffff021916908373ffffffffffffffffffffffffffffffffffffffff160217905550613b918061005b5f395ff3fe6080604052600436106100dc575f3560e01c80636f9fb98a1161007e578063c14b8aac11610058578063c14b8aac146102ed578063df171c0d14610315578063e81c411d14610351578063ffa56a571461037b576100dc565b80636f9fb98a146102485780639b56f5f014610272578063be21739e146102b1576100dc565b806328f5bd9b116100ba57806328f5bd9b14610186578063366919e9146101c2578063422b1077146101ec5780635a3915cd1461022c576100dc565b8063060a4524146100e057806311555dbc146101085780631f55e5bc1461014a575b5f80fd5b3480156100eb575f80fd5b506101066004803603810190610101919061227c565b6103a3565b005b348015610113575f80fd5b5061012e600480360381019061012991906122da565b61058a565b60405161014197969594939291906123c0565b60405180910390f35b348015610155575f80fd5b50610170600480360381019061016b91906122da565b610719565b60405161017d919061243b565b60405180910390f35b348015610191575f80fd5b506101ac60048036038101906101a7919061227c565b610761565b6040516101b9919061250b565b60405180910390f35b3480156101cd575f80fd5b506101d6610829565b6040516101e391906126ec565b60405180910390f35b3480156101f7575f80fd5b50610212600480360381019061020d91906122da565b610a6c565b60405161022395949392919061270c565b60405180910390f35b6102466004803603810190610241919061279f565b610b7c565b005b348015610253575f80fd5b5061025c61126d565b60405161026991906127ef565b60405180910390f35b34801561027d575f80fd5b50610298600480360381019061029391906122da565b611274565b6040516102a89493929190612808565b60405180910390f35b3480156102bc575f80fd5b506102d760048036038101906102d29190612852565b61135f565b6040516102e49190612890565b60405180910390f35b3480156102f8575f80fd5b50610313600480360381019061030e91906128a9565b611389565b005b348015610320575f80fd5b5061033b6004803603810190610336919061227c565b611afe565b6040516103489190612a3b565b60405180910390f35b34801561035c575f80fd5b50610365611ce4565b6040516103729190612b76565b60405180910390f35b348015610386575f80fd5b506103a1600480360381019061039c9190612cc2565b611e73565b005b5f60015f3373ffffffffffffffffffffffffffffffffffffffff1673ffffffffffffffffffffffffffffffffffffffff1681526020019081526020015f208054905011610425576040517f08c379a000000000000000000000000000000000000000000000000000000000815260040161041c90612dba565b60405180910390fd5b600160025f3373ffffffffffffffffffffffffffffffffffffffff1673ffffffffffffffffffffffffffffffffffffffff1681526020019081526020015f205f8373ffffffffffffffffffffffffffffffffffffffff1673ffffffffffffffffffffffffffffffffffffffff1681526020019081526020015f205f6101000a81548160ff02191690831515021790555060035f3373ffffffffffffffffffffffffffffffffffffffff1673ffffffffffffffffffffffffffffffffffffffff1681526020019081526020015f2081908060018154018082558091505060019003905f5260205f20015f9091909190916101000a81548173ffffffffffffffffffffffffffffffffffffffff021916908373ffffffffffffffffffffffffffffffffffffffff1602179055507fad6de4452a631e641cb59902236607946ce9272b9b981f2f80e8d129cb9084ba8160405161057f919061243b565b60405180910390a150565b6001602052815f5260405f2081815481106105a3575f80fd5b905f5260205f2090600702015f9150915050805f0154908060010180546105c990612e05565b80601f01602080910402602001604051908101604052809291908181526020018280546105f590612e05565b80156106405780601f1061061757610100808354040283529160200191610640565b820191905f5260205f20905b81548152906001019060200180831161062357829003601f168201915b50505050509080600201805461065590612e05565b80601f016020809104026020016040519081016040528092919081815260200182805461068190612e05565b80156106cc5780601f106106a3576101008083540402835291602001916106cc565b820191905f5260205f20905b8154815290600101906020018083116106af57829003601f168201915b505050505090806003015f9054906101000a900473ffffffffffffffffffffffffffffffffffffffff1690806004015490806005015490806006015f9054906101000a900460ff16905087565b6003602052815f5260405f208181548110610732575f80fd5b905f5260205f20015f915091509054906101000a900473ffffffffffffffffffffffffffffffffffffffff1681565b606060035f8373ffffffffffffffffffffffffffffffffffffffff1673ffffffffffffffffffffffffffffffffffffffff1681526020019081526020015f2080548060200260200160405190810160405280929190818152602001828054801561081d57602002820191905f5260205f20905b815f9054906101000a900473ffffffffffffffffffffffffffffffffffffffff1673ffffffffffffffffffffffffffffffffffffffff16815260200190600101908083116107d4575b50505050509050919050565b606060015f3373ffffffffffffffffffffffffffffffffffffffff1673ffffffffffffffffffffffffffffffffffffffff1681526020019081526020015f20805480602002602001604051908101604052809291908181526020015f905b82821015610a63578382905f5260205f2090600702016040518060e00160405290815f82015481526020016001820180546108c190612e05565b80601f01602080910402602001604051908101604052809291908181526020018280546108ed90612e05565b80156109385780601f1061090f57610100808354040283529160200191610938565b820191905f5260205f20905b81548152906001019060200180831161091b57829003601f168201915b5050505050815260200160028201805461095190612e05565b80601f016020809104026020016040519081016040528092919081815260200182805461097d90612e05565b80156109c85780601f1061099f576101008083540402835291602001916109c8565b820191905f5260205f20905b8154815290600101906020018083116109ab57829003601f168201915b50505050508152602001600382015f9054906101000a900473ffffffffffffffffffffffffffffffffffffffff1673ffffffffffffffffffffffffffffffffffffffff1673ffffffffffffffffffffffffffffffffffffffff1681526020016004820154815260200160058201548152602001600682015f9054906101000a900460ff16151515158152505081526020019060010190610887565b50505050905090565b6005602052815f5260405f208181548110610a85575f80fd5b905f5260205f2090600502015f9150915050805f015490806001018054610aab90612e05565b80601f0160208091040260200160405190810160405280929190818152602001828054610ad790612e05565b8015610b225780601f10610af957610100808354040283529160200191610b22565b820191905f5260205f20905b815481529060010190602001808311610b0557829003601f168201915b505050505090806002015490806003015f9054906101000a900473ffffffffffffffffffffffffffffffffffffffff1690806004015f9054906101000a900473ffffffffffffffffffffffffffffffffffffffff16905085565b8160015f8573ffffffffffffffffffffffffffffffffffffffff1673ffffffffffffffffffffffffffffffffffffffff1681526020019081526020015f20600184610bc79190612e62565b81548110610bd857610bd7612e95565b5b905f5260205f2090600702015f01541482604051602001610bf99190612f80565b60405160208183030381529060405290610c49576040517f08c379a0000000000000000000000000000000000000000000000000000000008152600401610c409190612fb0565b60405180910390fd5b505f151560015f8573ffffffffffffffffffffffffffffffffffffffff1673ffffffffffffffffffffffffffffffffffffffff1681526020019081526020015f20600184610c979190612e62565b81548110610ca857610ca7612e95565b5b905f5260205f2090600702016006015f9054906101000a900460ff1615151460015f8573ffffffffffffffffffffffffffffffffffffffff1673ffffffffffffffffffffffffffffffffffffffff1681526020019081526020015f20600184610d119190612e62565b81548110610d2257610d21612e95565b5b905f5260205f209060070201600101604051602001610d4191906130f6565b60405160208183030381529060405290610d91576040517f08c379a0000000000000000000000000000000000000000000000000000000008152600401610d889190612fb0565b60405180910390fd5b505f8111610dd4576040517f08c379a0000000000000000000000000000000000000000000000000000000008152600401610dcb9061316c565b60405180910390fd5b803414610e16576040517f08c379a0000000000000000000000000000000000000000000000000000000008152600401610e0d906131d4565b60405180910390fd5b8060015f8573ffffffffffffffffffffffffffffffffffffffff1673ffffffffffffffffffffffffffffffffffffffff1681526020019081526020015f20600184610e619190612e62565b81548110610e7257610e71612e95565b5b905f5260205f2090600702016005015f828254610e8f91906131f2565b9250508190555060015f8473ffffffffffffffffffffffffffffffffffffffff1673ffffffffffffffffffffffffffffffffffffffff1681526020019081526020015f20600183610ee09190612e62565b81548110610ef157610ef0612e95565b5b905f5260205f2090600702016004015460015f8573ffffffffffffffffffffffffffffffffffffffff1673ffffffffffffffffffffffffffffffffffffffff1681526020019081526020015f20600184610f4b9190612e62565b81548110610f5c57610f5b612e95565b5b905f5260205f209060070201600501541061102c576001805f8573ffffffffffffffffffffffffffffffffffffffff1673ffffffffffffffffffffffffffffffffffffffff1681526020019081526020015f20600184610fbc9190612e62565b81548110610fcd57610fcc612e95565b5b905f5260205f2090600702016006015f6101000a81548160ff0219169083151502179055507f8559b4dc0428ef20b1a5974fff4845e3163bfbec589128d75c7da62148fbd8ae8383604051611023929190613280565b60405180910390a15b5f60405180608001604052808573ffffffffffffffffffffffffffffffffffffffff16815260200184815260200160015f8773ffffffffffffffffffffffffffffffffffffffff1673ffffffffffffffffffffffffffffffffffffffff1681526020019081526020015f206001866110a49190612e62565b815481106110b5576110b4612e95565b5b905f5260205f20906007020160010180546110cf90612e05565b80601f01602080910402602001604051908101604052809291908181526020018280546110fb90612e05565b80156111465780601f1061111d57610100808354040283529160200191611146565b820191905f5260205f20905b81548152906001019060200180831161112957829003601f168201915b5050505050815260200183815250905060045f3373ffffffffffffffffffffffffffffffffffffffff1673ffffffffffffffffffffffffffffffffffffffff1681526020019081526020015f2081908060018154018082558091505060019003905f5260205f2090600402015f909190919091505f820151815f015f6101000a81548173ffffffffffffffffffffffffffffffffffffffff021916908373ffffffffffffffffffffffffffffffffffffffff16021790555060208201518160010155604082015181600201908161121d9190613429565b506060820151816003015550507fbe0281dcb233d52d4d243d0d6ff4ed47e8641aecf85b98611ade1c9307186b7d3383868660405161125f94939291906134f8565b60405180910390a150505050565b5f47905090565b6004602052815f5260405f20818154811061128d575f80fd5b905f5260205f2090600402015f9150915050805f015f9054906101000a900473ffffffffffffffffffffffffffffffffffffffff16908060010154908060020180546112d890612e05565b80601f016020809104026020016040519081016040528092919081815260200182805461130490612e05565b801561134f5780601f106113265761010080835404028352916020019161134f565b820191905f5260205f20905b81548152906001019060200180831161133257829003601f168201915b5050505050908060030154905084565b6002602052815f5260405f20602052805f5260405f205f915091509054906101000a900460ff1681565b82845f60015f8473ffffffffffffffffffffffffffffffffffffffff1673ffffffffffffffffffffffffffffffffffffffff1681526020019081526020015f20805490501161140d576040517f08c379a0000000000000000000000000000000000000000000000000000000008152600401611404906135ab565b60405180910390fd5b8060015f8473ffffffffffffffffffffffffffffffffffffffff1673ffffffffffffffffffffffffffffffffffffffff1681526020019081526020015f206001836114589190612e62565b8154811061146957611468612e95565b5b905f5260205f2090600702015f0154146114b8576040517f08c379a00000000000000000000000000000000000000000000000000000000081526004016114af90613639565b60405180910390fd5b60025f8373ffffffffffffffffffffffffffffffffffffffff1673ffffffffffffffffffffffffffffffffffffffff1681526020019081526020015f205f3373ffffffffffffffffffffffffffffffffffffffff1673ffffffffffffffffffffffffffffffffffffffff1681526020019081526020015f205f9054906101000a900460ff1661157c576040517f08c379a0000000000000000000000000000000000000000000000000000000008152600401611573906136c7565b60405180910390fd5b5f841180156115f5575060015f8673ffffffffffffffffffffffffffffffffffffffff1673ffffffffffffffffffffffffffffffffffffffff1681526020019081526020015f206001876115d09190612e62565b815481106115e1576115e0612e95565b5b905f5260205f209060070201600501548411155b611634576040517f08c379a000000000000000000000000000000000000000000000000000000000815260040161162b90613755565b60405180910390fd5b60015f8673ffffffffffffffffffffffffffffffffffffffff1673ffffffffffffffffffffffffffffffffffffffff1681526020019081526020015f2060018761167e9190612e62565b8154811061168f5761168e612e95565b5b905f5260205f2090600702016006015f9054906101000a900460ff166116ea576040517f08c379a00000000000000000000000000000000000000000000000000000000081526004016116e1906137e3565b60405180910390fd5b8347101561172d576040517f08c379a00000000000000000000000000000000000000000000000000000000081526004016117249061384b565b60405180910390fd5b8360015f8773ffffffffffffffffffffffffffffffffffffffff1673ffffffffffffffffffffffffffffffffffffffff1681526020019081526020015f206001886117789190612e62565b8154811061178957611788612e95565b5b905f5260205f2090600702016005015f8282546117a69190612e62565b925050819055505f8373ffffffffffffffffffffffffffffffffffffffff16856040516117d290613896565b5f6040518083038185875af1925050503d805f811461180c576040519150601f19603f3d011682016040523d82523d5f602084013e611811565b606091505b5050905080611855576040517f08c379a000000000000000000000000000000000000000000000000000000000815260040161184c906138f4565b60405180910390fd5b5f6040518060a0016040528089815260200160015f8a73ffffffffffffffffffffffffffffffffffffffff1673ffffffffffffffffffffffffffffffffffffffff1681526020019081526020015f2060018b6118b19190612e62565b815481106118c2576118c1612e95565b5b905f5260205f20906007020160010180546118dc90612e05565b80601f016020809104026020016040519081016040528092919081815260200182805461190890612e05565b80156119535780601f1061192a57610100808354040283529160200191611953565b820191905f5260205f20905b81548152906001019060200180831161193657829003601f168201915b505050505081526020018781526020013373ffffffffffffffffffffffffffffffffffffffff1681526020018673ffffffffffffffffffffffffffffffffffffffff16815250905060055f8873ffffffffffffffffffffffffffffffffffffffff1673ffffffffffffffffffffffffffffffffffffffff1681526020019081526020015f2081908060018154018082558091505060019003905f5260205f2090600502015f909190919091505f820151815f01556020820151816001019081611a1c9190613429565b50604082015181600201556060820151816003015f6101000a81548173ffffffffffffffffffffffffffffffffffffffff021916908373ffffffffffffffffffffffffffffffffffffffff1602179055506080820151816004015f6101000a81548173ffffffffffffffffffffffffffffffffffffffff021916908373ffffffffffffffffffffffffffffffffffffffff16021790555050507ffb301322f68b8ea04d2b6a3ab0a1a0100d7be758e7ffa771d5539a256b92d10d8633878a8c604051611aec959493929190613912565b60405180910390a15050505050505050565b606060055f8373ffffffffffffffffffffffffffffffffffffffff1673ffffffffffffffffffffffffffffffffffffffff1681526020019081526020015f20805480602002602001604051908101604052809291908181526020015f905b82821015611cd9578382905f5260205f2090600502016040518060a00160405290815f8201548152602001600182018054611b9690612e05565b80601f0160208091040260200160405190810160405280929190818152602001828054611bc290612e05565b8015611c0d5780601f10611be457610100808354040283529160200191611c0d565b820191905f5260205f20905b815481529060010190602001808311611bf057829003601f168201915b5050505050815260200160028201548152602001600382015f9054906101000a900473ffffffffffffffffffffffffffffffffffffffff1673ffffffffffffffffffffffffffffffffffffffff1673ffffffffffffffffffffffffffffffffffffffff168152602001600482015f9054906101000a900473ffffffffffffffffffffffffffffffffffffffff1673ffffffffffffffffffffffffffffffffffffffff1673ffffffffffffffffffffffffffffffffffffffff168152505081526020019060010190611b5c565b505050509050919050565b606060045f3373ffffffffffffffffffffffffffffffffffffffff1673ffffffffffffffffffffffffffffffffffffffff1681526020019081526020015f20805480602002602001604051908101604052809291908181526020015f905b82821015611e6a578382905f5260205f2090600402016040518060800160405290815f82015f9054906101000a900473ffffffffffffffffffffffffffffffffffffffff1673ffffffffffffffffffffffffffffffffffffffff1673ffffffffffffffffffffffffffffffffffffffff16815260200160018201548152602001600282018054611dd190612e05565b80601f0160208091040260200160405190810160405280929190818152602001828054611dfd90612e05565b8015611e485780601f10611e1f57610100808354040283529160200191611e48565b820191905f5260205f20905b815481529060010190602001808311611e2b57829003601f168201915b5050505050815260200160038201548152505081526020019060010190611d42565b50505050905090565b5f5b60015f3373ffffffffffffffffffffffffffffffffffffffff1673ffffffffffffffffffffffffffffffffffffffff1681526020019081526020015f2080549050811015611fe1575f60015f3373ffffffffffffffffffffffffffffffffffffffff1673ffffffffffffffffffffffffffffffffffffffff1681526020019081526020015f208281548110611f0d57611f0c612e95565b5b905f5260205f20906007020160010190505f85604051602001611f309190613993565b6040516020818303038152906040528051906020012082604051602001611f579190613a3b565b604051602081830303815290604052805190602001201490508015611fd25785604051602001611f879190613ae5565b6040516020818303038152906040526040517f08c379a0000000000000000000000000000000000000000000000000000000008152600401611fc99190612fb0565b60405180910390fd5b50508080600101915050611e75565b505f6040518060e001604052806001805f3373ffffffffffffffffffffffffffffffffffffffff1673ffffffffffffffffffffffffffffffffffffffff1681526020019081526020015f208054905061203a91906131f2565b81526020018581526020018481526020013373ffffffffffffffffffffffffffffffffffffffff1681526020018381526020015f81526020015f1515815250905060015f3373ffffffffffffffffffffffffffffffffffffffff1673ffffffffffffffffffffffffffffffffffffffff1681526020019081526020015f2081908060018154018082558091505060019003905f5260205f2090600702015f909190919091505f820151815f015560208201518160010190816120fc9190613429565b5060408201518160020190816121129190613429565b506060820151816003015f6101000a81548173ffffffffffffffffffffffffffffffffffffffff021916908373ffffffffffffffffffffffffffffffffffffffff1602179055506080820151816004015560a0820151816005015560c0820151816006015f6101000a81548160ff02191690831515021790555050507f825fb10f7650ed27414d6f86acdf7d5946927d9b25001f045f1a2435deec02fe60015f3373ffffffffffffffffffffffffffffffffffffffff1673ffffffffffffffffffffffffffffffffffffffff1681526020019081526020015f20805490503386856040516122039493929190613b11565b60405180910390a150505050565b5f604051905090565b5f80fd5b5f80fd5b5f73ffffffffffffffffffffffffffffffffffffffff82169050919050565b5f61224b82612222565b9050919050565b61225b81612241565b8114612265575f80fd5b50565b5f8135905061227681612252565b92915050565b5f602082840312156122915761229061221a565b5b5f61229e84828501612268565b91505092915050565b5f819050919050565b6122b9816122a7565b81146122c3575f80fd5b50565b5f813590506122d4816122b0565b92915050565b5f80604083850312156122f0576122ef61221a565b5b5f6122fd85828601612268565b925050602061230e858286016122c6565b9150509250929050565b612321816122a7565b82525050565b5f81519050919050565b5f82825260208201905092915050565b8281835e5f83830152505050565b5f601f19601f8301169050919050565b5f61236982612327565b6123738185612331565b9350612383818560208601612341565b61238c8161234f565b840191505092915050565b6123a081612241565b82525050565b5f8115159050919050565b6123ba816123a6565b82525050565b5f60e0820190506123d35f83018a612318565b81810360208301526123e5818961235f565b905081810360408301526123f9818861235f565b90506124086060830187612397565b6124156080830186612318565b61242260a0830185612318565b61242f60c08301846123b1565b98975050505050505050565b5f60208201905061244e5f830184612397565b92915050565b5f81519050919050565b5f82825260208201905092915050565b5f819050602082019050919050565b61248681612241565b82525050565b5f612497838361247d565b60208301905092915050565b5f602082019050919050565b5f6124b982612454565b6124c3818561245e565b93506124ce8361246e565b805f5b838110156124fe5781516124e5888261248c565b97506124f0836124a3565b9250506001810190506124d1565b5085935050505092915050565b5f6020820190508181035f83015261252381846124af565b905092915050565b5f81519050919050565b5f82825260208201905092915050565b5f819050602082019050919050565b61255d816122a7565b82525050565b5f82825260208201905092915050565b5f61257d82612327565b6125878185612563565b9350612597818560208601612341565b6125a08161234f565b840191505092915050565b6125b4816123a6565b82525050565b5f60e083015f8301516125cf5f860182612554565b50602083015184820360208601526125e78282612573565b915050604083015184820360408601526126018282612573565b9150506060830151612616606086018261247d565b5060808301516126296080860182612554565b5060a083015161263c60a0860182612554565b5060c083015161264f60c08601826125ab565b508091505092915050565b5f61266583836125ba565b905092915050565b5f602082019050919050565b5f6126838261252b565b61268d8185612535565b93508360208202850161269f85612545565b805f5b858110156126da57848403895281516126bb858261265a565b94506126c68361266d565b925060208a019950506001810190506126a2565b50829750879550505050505092915050565b5f6020820190508181035f8301526127048184612679565b905092915050565b5f60a08201905061271f5f830188612318565b8181036020830152612731818761235f565b90506127406040830186612318565b61274d6060830185612397565b61275a6080830184612397565b9695505050505050565b5f61276e82612222565b9050919050565b61277e81612764565b8114612788575f80fd5b50565b5f8135905061279981612775565b92915050565b5f805f606084860312156127b6576127b561221a565b5b5f6127c38682870161278b565b93505060206127d4868287016122c6565b92505060406127e5868287016122c6565b9150509250925092565b5f6020820190506128025f830184612318565b92915050565b5f60808201905061281b5f830187612397565b6128286020830186612318565b818103604083015261283a818561235f565b90506128496060830184612318565b95945050505050565b5f80604083850312156128685761286761221a565b5b5f61287585828601612268565b925050602061288685828601612268565b9150509250929050565b5f6020820190506128a35f8301846123b1565b92915050565b5f805f80608085870312156128c1576128c061221a565b5b5f6128ce878288016122c6565b94505060206128df87828801612268565b93505060406128f0878288016122c6565b92505060606129018782880161278b565b91505092959194509250565b5f81519050919050565b5f82825260208201905092915050565b5f819050602082019050919050565b5f60a083015f83015161294b5f860182612554565b50602083015184820360208601526129638282612573565b91505060408301516129786040860182612554565b50606083015161298b606086018261247d565b50608083015161299e608086018261247d565b508091505092915050565b5f6129b48383612936565b905092915050565b5f602082019050919050565b5f6129d28261290d565b6129dc8185612917565b9350836020820285016129ee85612927565b805f5b85811015612a295784840389528151612a0a85826129a9565b9450612a15836129bc565b925060208a019950506001810190506129f1565b50829750879550505050505092915050565b5f6020820190508181035f830152612a5381846129c8565b905092915050565b5f81519050919050565b5f82825260208201905092915050565b5f819050602082019050919050565b5f608083015f830151612a995f86018261247d565b506020830151612aac6020860182612554565b5060408301518482036040860152612ac48282612573565b9150506060830151612ad96060860182612554565b508091505092915050565b5f612aef8383612a84565b905092915050565b5f602082019050919050565b5f612b0d82612a5b565b612b178185612a65565b935083602082028501612b2985612a75565b805f5b85811015612b645784840389528151612b458582612ae4565b9450612b5083612af7565b925060208a01995050600181019050612b2c565b50829750879550505050505092915050565b5f6020820190508181035f830152612b8e8184612b03565b905092915050565b5f80fd5b5f80fd5b7f4e487b71000000000000000000000000000000000000000000000000000000005f52604160045260245ffd5b612bd48261234f565b810181811067ffffffffffffffff82111715612bf357612bf2612b9e565b5b80604052505050565b5f612c05612211565b9050612c118282612bcb565b919050565b5f67ffffffffffffffff821115612c3057612c2f612b9e565b5b612c398261234f565b9050602081019050919050565b828183375f83830152505050565b5f612c66612c6184612c16565b612bfc565b905082815260208101848484011115612c8257612c81612b9a565b5b612c8d848285612c46565b509392505050565b5f82601f830112612ca957612ca8612b96565b5b8135612cb9848260208601612c54565b91505092915050565b5f805f60608486031215612cd957612cd861221a565b5b5f84013567ffffffffffffffff811115612cf657612cf561221e565b5b612d0286828701612c95565b935050602084013567ffffffffffffffff811115612d2357612d2261221e565b5b612d2f86828701612c95565b9250506040612d40868287016122c6565b9150509250925092565b7f5468652043616d706169676e65642053706563696669656420446f6573204e6f5f8201527f7420457869737421000000000000000000000000000000000000000000000000602082015250565b5f612da4602883612331565b9150612daf82612d4a565b604082019050919050565b5f6020820190508181035f830152612dd181612d98565b9050919050565b7f4e487b71000000000000000000000000000000000000000000000000000000005f52602260045260245ffd5b5f6002820490506001821680612e1c57607f821691505b602082108103612e2f57612e2e612dd8565b5b50919050565b7f4e487b71000000000000000000000000000000000000000000000000000000005f52601160045260245ffd5b5f612e6c826122a7565b9150612e77836122a7565b9250828203905081811115612e8f57612e8e612e35565b5b92915050565b7f4e487b71000000000000000000000000000000000000000000000000000000005f52603260045260245ffd5b5f81905092915050565b7f5468652043616d706169676e20000000000000000000000000000000000000005f82015250565b5f612f00600d83612ec2565b9150612f0b82612ecc565b600d82019050919050565b5f819050919050565b612f30612f2b826122a7565b612f16565b82525050565b7f20446f6573204e4f5420457869737421000000000000000000000000000000005f82015250565b5f612f6a601083612ec2565b9150612f7582612f36565b601082019050919050565b5f612f8a82612ef4565b9150612f968284612f1f565b602082019150612fa582612f5e565b915081905092915050565b5f6020820190508181035f830152612fc8818461235f565b905092915050565b7f27000000000000000000000000000000000000000000000000000000000000005f82015250565b5f613004600183612ec2565b915061300f82612fd0565b600182019050919050565b5f819050815f5260205f209050919050565b5f815461303881612e05565b6130428186612ec2565b9450600182165f811461305c5760018114613071576130a3565b60ff19831686528115158202860193506130a3565b61307a8561301a565b5f5b8381101561309b5781548189015260018201915060208101905061307c565b838801955050505b50505092915050565b7f272043616d706169676e2057617320436f6d706c6574656421000000000000005f82015250565b5f6130e0601983612ec2565b91506130eb826130ac565b601982019050919050565b5f61310082612ff8565b915061310c828461302c565b9150613117826130d4565b915081905092915050565b7f416d6f756e742043616e6e6f74206265205a65726f00000000000000000000005f82015250565b5f613156601583612331565b915061316182613122565b602082019050919050565b5f6020820190508181035f8301526131838161314a565b9050919050565b7f54686520416d6f756e7420646f65736e2774204d6174636821000000000000005f82015250565b5f6131be601983612331565b91506131c98261318a565b602082019050919050565b5f6020820190508181035f8301526131eb816131b2565b9050919050565b5f6131fc826122a7565b9150613207836122a7565b925082820190508082111561321f5761321e612e35565b5b92915050565b5f819050919050565b5f61324861324361323e84612222565b613225565b612222565b9050919050565b5f6132598261322e565b9050919050565b5f61326a8261324f565b9050919050565b61327a81613260565b82525050565b5f6040820190506132935f830185613271565b6132a06020830184612318565b9392505050565b5f6020601f8301049050919050565b5f82821b905092915050565b5f600883026132f17fffffffffffffffffffffffffffffffffffffffffffffffffffffffffffffffff826132b6565b6132fb86836132b6565b95508019841693508086168417925050509392505050565b5f61332d613328613323846122a7565b613225565b6122a7565b9050919050565b5f819050919050565b61334683613313565b61335a61335282613334565b8484546132c2565b825550505050565b5f90565b61336e613362565b61337981848461333d565b505050565b5b8181101561339c576133915f82613366565b60018101905061337f565b5050565b601f8211156133e1576133b28161301a565b6133bb846132a7565b810160208510156133ca578190505b6133de6133d6856132a7565b83018261337e565b50505b505050565b5f82821c905092915050565b5f6134015f19846008026133e6565b1980831691505092915050565b5f61341983836133f2565b9150826002028217905092915050565b61343282612327565b67ffffffffffffffff81111561344b5761344a612b9e565b5b6134558254612e05565b6134608282856133a0565b5f60209050601f831160018114613491575f841561347f578287015190505b613489858261340e565b8655506134f0565b601f19841661349f8661301a565b5f5b828110156134c6578489015182556001820191506020850194506020810190506134a1565b868310156134e357848901516134df601f8916826133f2565b8355505b6001600288020188555050505b505050505050565b5f60808201905061350b5f830187612397565b6135186020830186612318565b6135256040830185613271565b6135326060830184612318565b95945050505050565b7f5468657265204973204e6f2043616d706169676e2042792054686174206164645f8201527f7265737321000000000000000000000000000000000000000000000000000000602082015250565b5f613595602583612331565b91506135a08261353b565b604082019050919050565b5f6020820190508181035f8301526135c281613589565b9050919050565b7f5468652043616d706169676e2053706563696669656420446f6573204e6f74205f8201527f4578697374210000000000000000000000000000000000000000000000000000602082015250565b5f613623602683612331565b915061362e826135c9565b604082019050919050565b5f6020820190508181035f83015261365081613617565b9050919050565b7f4f6e6c792041646d696e732043616e20506572666f726d2054686973204163745f8201527f696f6e2100000000000000000000000000000000000000000000000000000000602082015250565b5f6136b1602483612331565b91506136bc82613657565b604082019050919050565b5f6020820190508181035f8301526136de816136a5565b9050919050565b7f416d6f756e742043616e6e6f74206265205a65726f204f7220457863656564205f8201527f5468652052616973656420416d6f756e74210000000000000000000000000000602082015250565b5f61373f603283612331565b915061374a826136e5565b604082019050919050565b5f6020820190508181035f83015261376c81613733565b9050919050565b7f596f752043616e27742057697468647261772046756e64732066726f6d20616e5f8201527f204163746976652043616d706169676e00000000000000000000000000000000602082015250565b5f6137cd603083612331565b91506137d882613773565b604082019050919050565b5f6020820190508181035f8301526137fa816137c1565b9050919050565b7f496e73756666696369656e7420636f6e74726163742062616c616e63650000005f82015250565b5f613835601d83612331565b915061384082613801565b602082019050919050565b5f6020820190508181035f83015261386281613829565b9050919050565b5f81905092915050565b50565b5f6138815f83613869565b915061388c82613873565b5f82019050919050565b5f6138a082613876565b9150819050919050565b7f5472616e73666572206661696c656400000000000000000000000000000000005f82015250565b5f6138de600f83612331565b91506138e9826138aa565b602082019050919050565b5f6020820190508181035f83015261390b816138d2565b9050919050565b5f60a0820190506139255f830188612318565b6139326020830187612397565b61393f6040830186613271565b61394c6060830185612397565b6139596080830184612318565b9695505050505050565b5f61396d82612327565b6139778185612ec2565b9350613987818560208601612341565b80840191505092915050565b5f61399e8284613963565b915081905092915050565b5f819050815f5260205f209050919050565b5f81546139c781612e05565b6139d18186612ec2565b9450600182165f81146139eb5760018114613a0057613a32565b60ff1983168652811515820286019350613a32565b613a09856139a9565b5f5b83811015613a2a57815481890152600182019150602081019050613a0b565b838801955050505b50505092915050565b5f613a4682846139bb565b915081905092915050565b7f43616d706169676e2000000000000000000000000000000000000000000000005f82015250565b5f613a85600983612ec2565b9150613a9082613a51565b600982019050919050565b7f20616c72656164792065786973747321000000000000000000000000000000005f82015250565b5f613acf601083612ec2565b9150613ada82613a9b565b601082019050919050565b5f613aef82613a79565b9150613afb8284613963565b9150613b0682613ac3565b915081905092915050565b5f608082019050613b245f830187612318565b613b316020830186612397565b8181036040830152613b43818561235f565b9050613b526060830184612318565b9594505050505056fea2646970667358221220b1c9bce903ced7d8a18848ade04ecce7f4402896d2a35bf12f3c61da0e01ae6164736f6c634300081a0033",
					"opcodes": "PUSH1 0x80 PUSH1 0x40 MSTORE CALLVALUE DUP1 ISZERO PUSH1 0xE JUMPI PUSH0 DUP1 REVERT JUMPDEST POP CALLER PUSH0 DUP1 PUSH2 0x100 EXP DUP2 SLOAD DUP2 PUSH20 0xFFFFFFFFFFFFFFFFFFFFFFFFFFFFFFFFFFFFFFFF MUL NOT AND SWAP1 DUP4 PUSH20 0xFFFFFFFFFFFFFFFFFFFFFFFFFFFFFFFFFFFFFFFF AND MUL OR SWAP1 SSTORE POP PUSH2 0x3B91 DUP1 PUSH2 0x5B PUSH0 CODECOPY PUSH0 RETURN INVALID PUSH1 0x80 PUSH1 0x40 MSTORE PUSH1 0x4 CALLDATASIZE LT PUSH2 0xDC JUMPI PUSH0 CALLDATALOAD PUSH1 0xE0 SHR DUP1 PUSH4 0x6F9FB98A GT PUSH2 0x7E JUMPI DUP1 PUSH4 0xC14B8AAC GT PUSH2 0x58 JUMPI DUP1 PUSH4 0xC14B8AAC EQ PUSH2 0x2ED JUMPI DUP1 PUSH4 0xDF171C0D EQ PUSH2 0x315 JUMPI DUP1 PUSH4 0xE81C411D EQ PUSH2 0x351 JUMPI DUP1 PUSH4 0xFFA56A57 EQ PUSH2 0x37B JUMPI PUSH2 0xDC JUMP JUMPDEST DUP1 PUSH4 0x6F9FB98A EQ PUSH2 0x248 JUMPI DUP1 PUSH4 0x9B56F5F0 EQ PUSH2 0x272 JUMPI DUP1 PUSH4 0xBE21739E EQ PUSH2 0x2B1 JUMPI PUSH2 0xDC JUMP JUMPDEST DUP1 PUSH4 0x28F5BD9B GT PUSH2 0xBA JUMPI DUP1 PUSH4 0x28F5BD9B EQ PUSH2 0x186 JUMPI DUP1 PUSH4 0x366919E9 EQ PUSH2 0x1C2 JUMPI DUP1 PUSH4 0x422B1077 EQ PUSH2 0x1EC JUMPI DUP1 PUSH4 0x5A3915CD EQ PUSH2 0x22C JUMPI PUSH2 0xDC JUMP JUMPDEST DUP1 PUSH4 0x60A4524 EQ PUSH2 0xE0 JUMPI DUP1 PUSH4 0x11555DBC EQ PUSH2 0x108 JUMPI DUP1 PUSH4 0x1F55E5BC EQ PUSH2 0x14A JUMPI JUMPDEST PUSH0 DUP1 REVERT JUMPDEST CALLVALUE DUP1 ISZERO PUSH2 0xEB JUMPI PUSH0 DUP1 REVERT JUMPDEST POP PUSH2 0x106 PUSH1 0x4 DUP1 CALLDATASIZE SUB DUP2 ADD SWAP1 PUSH2 0x101 SWAP2 SWAP1 PUSH2 0x227C JUMP JUMPDEST PUSH2 0x3A3 JUMP JUMPDEST STOP JUMPDEST CALLVALUE DUP1 ISZERO PUSH2 0x113 JUMPI PUSH0 DUP1 REVERT JUMPDEST POP PUSH2 0x12E PUSH1 0x4 DUP1 CALLDATASIZE SUB DUP2 ADD SWAP1 PUSH2 0x129 SWAP2 SWAP1 PUSH2 0x22DA JUMP JUMPDEST PUSH2 0x58A JUMP JUMPDEST PUSH1 0x40 MLOAD PUSH2 0x141 SWAP8 SWAP7 SWAP6 SWAP5 SWAP4 SWAP3 SWAP2 SWAP1 PUSH2 0x23C0 JUMP JUMPDEST PUSH1 0x40 MLOAD DUP1 SWAP2 SUB SWAP1 RETURN JUMPDEST CALLVALUE DUP1 ISZERO PUSH2 0x155 JUMPI PUSH0 DUP1 REVERT JUMPDEST POP PUSH2 0x170 PUSH1 0x4 DUP1 CALLDATASIZE SUB DUP2 ADD SWAP1 PUSH2 0x16B SWAP2 SWAP1 PUSH2 0x22DA JUMP JUMPDEST PUSH2 0x719 JUMP JUMPDEST PUSH1 0x40 MLOAD PUSH2 0x17D SWAP2 SWAP1 PUSH2 0x243B JUMP JUMPDEST PUSH1 0x40 MLOAD DUP1 SWAP2 SUB SWAP1 RETURN JUMPDEST CALLVALUE DUP1 ISZERO PUSH2 0x191 JUMPI PUSH0 DUP1 REVERT JUMPDEST POP PUSH2 0x1AC PUSH1 0x4 DUP1 CALLDATASIZE SUB DUP2 ADD SWAP1 PUSH2 0x1A7 SWAP2 SWAP1 PUSH2 0x227C JUMP JUMPDEST PUSH2 0x761 JUMP JUMPDEST PUSH1 0x40 MLOAD PUSH2 0x1B9 SWAP2 SWAP1 PUSH2 0x250B JUMP JUMPDEST PUSH1 0x40 MLOAD DUP1 SWAP2 SUB SWAP1 RETURN JUMPDEST CALLVALUE DUP1 ISZERO PUSH2 0x1CD JUMPI PUSH0 DUP1 REVERT JUMPDEST POP PUSH2 0x1D6 PUSH2 0x829 JUMP JUMPDEST PUSH1 0x40 MLOAD PUSH2 0x1E3 SWAP2 SWAP1 PUSH2 0x26EC JUMP JUMPDEST PUSH1 0x40 MLOAD DUP1 SWAP2 SUB SWAP1 RETURN JUMPDEST CALLVALUE DUP1 ISZERO PUSH2 0x1F7 JUMPI PUSH0 DUP1 REVERT JUMPDEST POP PUSH2 0x212 PUSH1 0x4 DUP1 CALLDATASIZE SUB DUP2 ADD SWAP1 PUSH2 0x20D SWAP2 SWAP1 PUSH2 0x22DA JUMP JUMPDEST PUSH2 0xA6C JUMP JUMPDEST PUSH1 0x40 MLOAD PUSH2 0x223 SWAP6 SWAP5 SWAP4 SWAP3 SWAP2 SWAP1 PUSH2 0x270C JUMP JUMPDEST PUSH1 0x40 MLOAD DUP1 SWAP2 SUB SWAP1 RETURN JUMPDEST PUSH2 0x246 PUSH1 0x4 DUP1 CALLDATASIZE SUB DUP2 ADD SWAP1 PUSH2 0x241 SWAP2 SWAP1 PUSH2 0x279F JUMP JUMPDEST PUSH2 0xB7C JUMP JUMPDEST STOP JUMPDEST CALLVALUE DUP1 ISZERO PUSH2 0x253 JUMPI PUSH0 DUP1 REVERT JUMPDEST POP PUSH2 0x25C PUSH2 0x126D JUMP JUMPDEST PUSH1 0x40 MLOAD PUSH2 0x269 SWAP2 SWAP1 PUSH2 0x27EF JUMP JUMPDEST PUSH1 0x40 MLOAD DUP1 SWAP2 SUB SWAP1 RETURN JUMPDEST CALLVALUE DUP1 ISZERO PUSH2 0x27D JUMPI PUSH0 DUP1 REVERT JUMPDEST POP PUSH2 0x298 PUSH1 0x4 DUP1 CALLDATASIZE SUB DUP2 ADD SWAP1 PUSH2 0x293 SWAP2 SWAP1 PUSH2 0x22DA JUMP JUMPDEST PUSH2 0x1274 JUMP JUMPDEST PUSH1 0x40 MLOAD PUSH2 0x2A8 SWAP5 SWAP4 SWAP3 SWAP2 SWAP1 PUSH2 0x2808 JUMP JUMPDEST PUSH1 0x40 MLOAD DUP1 SWAP2 SUB SWAP1 RETURN JUMPDEST CALLVALUE DUP1 ISZERO PUSH2 0x2BC JUMPI PUSH0 DUP1 REVERT JUMPDEST POP PUSH2 0x2D7 PUSH1 0x4 DUP1 CALLDATASIZE SUB DUP2 ADD SWAP1 PUSH2 0x2D2 SWAP2 SWAP1 PUSH2 0x2852 JUMP JUMPDEST PUSH2 0x135F JUMP JUMPDEST PUSH1 0x40 MLOAD PUSH2 0x2E4 SWAP2 SWAP1 PUSH2 0x2890 JUMP JUMPDEST PUSH1 0x40 MLOAD DUP1 SWAP2 SUB SWAP1 RETURN JUMPDEST CALLVALUE DUP1 ISZERO PUSH2 0x2F8 JUMPI PUSH0 DUP1 REVERT JUMPDEST POP PUSH2 0x313 PUSH1 0x4 DUP1 CALLDATASIZE SUB DUP2 ADD SWAP1 PUSH2 0x30E SWAP2 SWAP1 PUSH2 0x28A9 JUMP JUMPDEST PUSH2 0x1389 JUMP JUMPDEST STOP JUMPDEST CALLVALUE DUP1 ISZERO PUSH2 0x320 JUMPI PUSH0 DUP1 REVERT JUMPDEST POP PUSH2 0x33B PUSH1 0x4 DUP1 CALLDATASIZE SUB DUP2 ADD SWAP1 PUSH2 0x336 SWAP2 SWAP1 PUSH2 0x227C JUMP JUMPDEST PUSH2 0x1AFE JUMP JUMPDEST PUSH1 0x40 MLOAD PUSH2 0x348 SWAP2 SWAP1 PUSH2 0x2A3B JUMP JUMPDEST PUSH1 0x40 MLOAD DUP1 SWAP2 SUB SWAP1 RETURN JUMPDEST CALLVALUE DUP1 ISZERO PUSH2 0x35C JUMPI PUSH0 DUP1 REVERT JUMPDEST POP PUSH2 0x365 PUSH2 0x1CE4 JUMP JUMPDEST PUSH1 0x40 MLOAD PUSH2 0x372 SWAP2 SWAP1 PUSH2 0x2B76 JUMP JUMPDEST PUSH1 0x40 MLOAD DUP1 SWAP2 SUB SWAP1 RETURN JUMPDEST CALLVALUE DUP1 ISZERO PUSH2 0x386 JUMPI PUSH0 DUP1 REVERT JUMPDEST POP PUSH2 0x3A1 PUSH1 0x4 DUP1 CALLDATASIZE SUB DUP2 ADD SWAP1 PUSH2 0x39C SWAP2 SWAP1 PUSH2 0x2CC2 JUMP JUMPDEST PUSH2 0x1E73 JUMP JUMPDEST STOP JUMPDEST PUSH0 PUSH1 0x1 PUSH0 CALLER PUSH20 0xFFFFFFFFFFFFFFFFFFFFFFFFFFFFFFFFFFFFFFFF AND PUSH20 0xFFFFFFFFFFFFFFFFFFFFFFFFFFFFFFFFFFFFFFFF AND DUP2 MSTORE PUSH1 0x20 ADD SWAP1 DUP2 MSTORE PUSH1 0x20 ADD PUSH0 KECCAK256 DUP1 SLOAD SWAP1 POP GT PUSH2 0x425 JUMPI PUSH1 0x40 MLOAD PUSH32 0x8C379A000000000000000000000000000000000000000000000000000000000 DUP2 MSTORE PUSH1 0x4 ADD PUSH2 0x41C SWAP1 PUSH2 0x2DBA JUMP JUMPDEST PUSH1 0x40 MLOAD DUP1 SWAP2 SUB SWAP1 REVERT JUMPDEST PUSH1 0x1 PUSH1 0x2 PUSH0 CALLER PUSH20 0xFFFFFFFFFFFFFFFFFFFFFFFFFFFFFFFFFFFFFFFF AND PUSH20 0xFFFFFFFFFFFFFFFFFFFFFFFFFFFFFFFFFFFFFFFF AND DUP2 MSTORE PUSH1 0x20 ADD SWAP1 DUP2 MSTORE PUSH1 0x20 ADD PUSH0 KECCAK256 PUSH0 DUP4 PUSH20 0xFFFFFFFFFFFFFFFFFFFFFFFFFFFFFFFFFFFFFFFF AND PUSH20 0xFFFFFFFFFFFFFFFFFFFFFFFFFFFFFFFFFFFFFFFF AND DUP2 MSTORE PUSH1 0x20 ADD SWAP1 DUP2 MSTORE PUSH1 0x20 ADD PUSH0 KECCAK256 PUSH0 PUSH2 0x100 EXP DUP2 SLOAD DUP2 PUSH1 0xFF MUL NOT AND SWAP1 DUP4 ISZERO ISZERO MUL OR SWAP1 SSTORE POP PUSH1 0x3 PUSH0 CALLER PUSH20 0xFFFFFFFFFFFFFFFFFFFFFFFFFFFFFFFFFFFFFFFF AND PUSH20 0xFFFFFFFFFFFFFFFFFFFFFFFFFFFFFFFFFFFFFFFF AND DUP2 MSTORE PUSH1 0x20 ADD SWAP1 DUP2 MSTORE PUSH1 0x20 ADD PUSH0 KECCAK256 DUP2 SWAP1 DUP1 PUSH1 0x1 DUP2 SLOAD ADD DUP1 DUP3 SSTORE DUP1 SWAP2 POP POP PUSH1 0x1 SWAP1 SUB SWAP1 PUSH0 MSTORE PUSH1 0x20 PUSH0 KECCAK256 ADD PUSH0 SWAP1 SWAP2 SWAP1 SWAP2 SWAP1 SWAP2 PUSH2 0x100 EXP DUP2 SLOAD DUP2 PUSH20 0xFFFFFFFFFFFFFFFFFFFFFFFFFFFFFFFFFFFFFFFF MUL NOT AND SWAP1 DUP4 PUSH20 0xFFFFFFFFFFFFFFFFFFFFFFFFFFFFFFFFFFFFFFFF AND MUL OR SWAP1 SSTORE POP PUSH32 0xAD6DE4452A631E641CB59902236607946CE9272B9B981F2F80E8D129CB9084BA DUP2 PUSH1 0x40 MLOAD PUSH2 0x57F SWAP2 SWAP1 PUSH2 0x243B JUMP JUMPDEST PUSH1 0x40 MLOAD DUP1 SWAP2 SUB SWAP1 LOG1 POP JUMP JUMPDEST PUSH1 0x1 PUSH1 0x20 MSTORE DUP2 PUSH0 MSTORE PUSH1 0x40 PUSH0 KECCAK256 DUP2 DUP2 SLOAD DUP2 LT PUSH2 0x5A3 JUMPI PUSH0 DUP1 REVERT JUMPDEST SWAP1 PUSH0 MSTORE PUSH1 0x20 PUSH0 KECCAK256 SWAP1 PUSH1 0x7 MUL ADD PUSH0 SWAP2 POP SWAP2 POP POP DUP1 PUSH0 ADD SLOAD SWAP1 DUP1 PUSH1 0x1 ADD DUP1 SLOAD PUSH2 0x5C9 SWAP1 PUSH2 0x2E05 JUMP JUMPDEST DUP1 PUSH1 0x1F ADD PUSH1 0x20 DUP1 SWAP2 DIV MUL PUSH1 0x20 ADD PUSH1 0x40 MLOAD SWAP1 DUP2 ADD PUSH1 0x40 MSTORE DUP1 SWAP3 SWAP2 SWAP1 DUP2 DUP2 MSTORE PUSH1 0x20 ADD DUP3 DUP1 SLOAD PUSH2 0x5F5 SWAP1 PUSH2 0x2E05 JUMP JUMPDEST DUP1 ISZERO PUSH2 0x640 JUMPI DUP1 PUSH1 0x1F LT PUSH2 0x617 JUMPI PUSH2 0x100 DUP1 DUP4 SLOAD DIV MUL DUP4 MSTORE SWAP2 PUSH1 0x20 ADD SWAP2 PUSH2 0x640 JUMP JUMPDEST DUP3 ADD SWAP2 SWAP1 PUSH0 MSTORE PUSH1 0x20 PUSH0 KECCAK256 SWAP1 JUMPDEST DUP2 SLOAD DUP2 MSTORE SWAP1 PUSH1 0x1 ADD SWAP1 PUSH1 0x20 ADD DUP1 DUP4 GT PUSH2 0x623 JUMPI DUP3 SWAP1 SUB PUSH1 0x1F AND DUP3 ADD SWAP2 JUMPDEST POP POP POP POP POP SWAP1 DUP1 PUSH1 0x2 ADD DUP1 SLOAD PUSH2 0x655 SWAP1 PUSH2 0x2E05 JUMP JUMPDEST DUP1 PUSH1 0x1F ADD PUSH1 0x20 DUP1 SWAP2 DIV MUL PUSH1 0x20 ADD PUSH1 0x40 MLOAD SWAP1 DUP2 ADD PUSH1 0x40 MSTORE DUP1 SWAP3 SWAP2 SWAP1 DUP2 DUP2 MSTORE PUSH1 0x20 ADD DUP3 DUP1 SLOAD PUSH2 0x681 SWAP1 PUSH2 0x2E05 JUMP JUMPDEST DUP1 ISZERO PUSH2 0x6CC JUMPI DUP1 PUSH1 0x1F LT PUSH2 0x6A3 JUMPI PUSH2 0x100 DUP1 DUP4 SLOAD DIV MUL DUP4 MSTORE SWAP2 PUSH1 0x20 ADD SWAP2 PUSH2 0x6CC JUMP JUMPDEST DUP3 ADD SWAP2 SWAP1 PUSH0 MSTORE PUSH1 0x20 PUSH0 KECCAK256 SWAP1 JUMPDEST DUP2 SLOAD DUP2 MSTORE SWAP1 PUSH1 0x1 ADD SWAP1 PUSH1 0x20 ADD DUP1 DUP4 GT PUSH2 0x6AF JUMPI DUP3 SWAP1 SUB PUSH1 0x1F AND DUP3 ADD SWAP2 JUMPDEST POP POP POP POP POP SWAP1 DUP1 PUSH1 0x3 ADD PUSH0 SWAP1 SLOAD SWAP1 PUSH2 0x100 EXP SWAP1 DIV PUSH20 0xFFFFFFFFFFFFFFFFFFFFFFFFFFFFFFFFFFFFFFFF AND SWAP1 DUP1 PUSH1 0x4 ADD SLOAD SWAP1 DUP1 PUSH1 0x5 ADD SLOAD SWAP1 DUP1 PUSH1 0x6 ADD PUSH0 SWAP1 SLOAD SWAP1 PUSH2 0x100 EXP SWAP1 DIV PUSH1 0xFF AND SWAP1 POP DUP8 JUMP JUMPDEST PUSH1 0x3 PUSH1 0x20 MSTORE DUP2 PUSH0 MSTORE PUSH1 0x40 PUSH0 KECCAK256 DUP2 DUP2 SLOAD DUP2 LT PUSH2 0x732 JUMPI PUSH0 DUP1 REVERT JUMPDEST SWAP1 PUSH0 MSTORE PUSH1 0x20 PUSH0 KECCAK256 ADD PUSH0 SWAP2 POP SWAP2 POP SWAP1 SLOAD SWAP1 PUSH2 0x100 EXP SWAP1 DIV PUSH20 0xFFFFFFFFFFFFFFFFFFFFFFFFFFFFFFFFFFFFFFFF AND DUP2 JUMP JUMPDEST PUSH1 0x60 PUSH1 0x3 PUSH0 DUP4 PUSH20 0xFFFFFFFFFFFFFFFFFFFFFFFFFFFFFFFFFFFFFFFF AND PUSH20 0xFFFFFFFFFFFFFFFFFFFFFFFFFFFFFFFFFFFFFFFF AND DUP2 MSTORE PUSH1 0x20 ADD SWAP1 DUP2 MSTORE PUSH1 0x20 ADD PUSH0 KECCAK256 DUP1 SLOAD DUP1 PUSH1 0x20 MUL PUSH1 0x20 ADD PUSH1 0x40 MLOAD SWAP1 DUP2 ADD PUSH1 0x40 MSTORE DUP1 SWAP3 SWAP2 SWAP1 DUP2 DUP2 MSTORE PUSH1 0x20 ADD DUP3 DUP1 SLOAD DUP1 ISZERO PUSH2 0x81D JUMPI PUSH1 0x20 MUL DUP3 ADD SWAP2 SWAP1 PUSH0 MSTORE PUSH1 0x20 PUSH0 KECCAK256 SWAP1 JUMPDEST DUP2 PUSH0 SWAP1 SLOAD SWAP1 PUSH2 0x100 EXP SWAP1 DIV PUSH20 0xFFFFFFFFFFFFFFFFFFFFFFFFFFFFFFFFFFFFFFFF AND PUSH20 0xFFFFFFFFFFFFFFFFFFFFFFFFFFFFFFFFFFFFFFFF AND DUP2 MSTORE PUSH1 0x20 ADD SWAP1 PUSH1 0x1 ADD SWAP1 DUP1 DUP4 GT PUSH2 0x7D4 JUMPI JUMPDEST POP POP POP POP POP SWAP1 POP SWAP2 SWAP1 POP JUMP JUMPDEST PUSH1 0x60 PUSH1 0x1 PUSH0 CALLER PUSH20 0xFFFFFFFFFFFFFFFFFFFFFFFFFFFFFFFFFFFFFFFF AND PUSH20 0xFFFFFFFFFFFFFFFFFFFFFFFFFFFFFFFFFFFFFFFF AND DUP2 MSTORE PUSH1 0x20 ADD SWAP1 DUP2 MSTORE PUSH1 0x20 ADD PUSH0 KECCAK256 DUP1 SLOAD DUP1 PUSH1 0x20 MUL PUSH1 0x20 ADD PUSH1 0x40 MLOAD SWAP1 DUP2 ADD PUSH1 0x40 MSTORE DUP1 SWAP3 SWAP2 SWAP1 DUP2 DUP2 MSTORE PUSH1 0x20 ADD PUSH0 SWAP1 JUMPDEST DUP3 DUP3 LT ISZERO PUSH2 0xA63 JUMPI DUP4 DUP3 SWAP1 PUSH0 MSTORE PUSH1 0x20 PUSH0 KECCAK256 SWAP1 PUSH1 0x7 MUL ADD PUSH1 0x40 MLOAD DUP1 PUSH1 0xE0 ADD PUSH1 0x40 MSTORE SWAP1 DUP2 PUSH0 DUP3 ADD SLOAD DUP2 MSTORE PUSH1 0x20 ADD PUSH1 0x1 DUP3 ADD DUP1 SLOAD PUSH2 0x8C1 SWAP1 PUSH2 0x2E05 JUMP JUMPDEST DUP1 PUSH1 0x1F ADD PUSH1 0x20 DUP1 SWAP2 DIV MUL PUSH1 0x20 ADD PUSH1 0x40 MLOAD SWAP1 DUP2 ADD PUSH1 0x40 MSTORE DUP1 SWAP3 SWAP2 SWAP1 DUP2 DUP2 MSTORE PUSH1 0x20 ADD DUP3 DUP1 SLOAD PUSH2 0x8ED SWAP1 PUSH2 0x2E05 JUMP JUMPDEST DUP1 ISZERO PUSH2 0x938 JUMPI DUP1 PUSH1 0x1F LT PUSH2 0x90F JUMPI PUSH2 0x100 DUP1 DUP4 SLOAD DIV MUL DUP4 MSTORE SWAP2 PUSH1 0x20 ADD SWAP2 PUSH2 0x938 JUMP JUMPDEST DUP3 ADD SWAP2 SWAP1 PUSH0 MSTORE PUSH1 0x20 PUSH0 KECCAK256 SWAP1 JUMPDEST DUP2 SLOAD DUP2 MSTORE SWAP1 PUSH1 0x1 ADD SWAP1 PUSH1 0x20 ADD DUP1 DUP4 GT PUSH2 0x91B JUMPI DUP3 SWAP1 SUB PUSH1 0x1F AND DUP3 ADD SWAP2 JUMPDEST POP POP POP POP POP DUP2 MSTORE PUSH1 0x20 ADD PUSH1 0x2 DUP3 ADD DUP1 SLOAD PUSH2 0x951 SWAP1 PUSH2 0x2E05 JUMP JUMPDEST DUP1 PUSH1 0x1F ADD PUSH1 0x20 DUP1 SWAP2 DIV MUL PUSH1 0x20 ADD PUSH1 0x40 MLOAD SWAP1 DUP2 ADD PUSH1 0x40 MSTORE DUP1 SWAP3 SWAP2 SWAP1 DUP2 DUP2 MSTORE PUSH1 0x20 ADD DUP3 DUP1 SLOAD PUSH2 0x97D SWAP1 PUSH2 0x2E05 JUMP JUMPDEST DUP1 ISZERO PUSH2 0x9C8 JUMPI DUP1 PUSH1 0x1F LT PUSH2 0x99F JUMPI PUSH2 0x100 DUP1 DUP4 SLOAD DIV MUL DUP4 MSTORE SWAP2 PUSH1 0x20 ADD SWAP2 PUSH2 0x9C8 JUMP JUMPDEST DUP3 ADD SWAP2 SWAP1 PUSH0 MSTORE PUSH1 0x20 PUSH0 KECCAK256 SWAP1 JUMPDEST DUP2 SLOAD DUP2 MSTORE SWAP1 PUSH1 0x1 ADD SWAP1 PUSH1 0x20 ADD DUP1 DUP4 GT PUSH2 0x9AB JUMPI DUP3 SWAP1 SUB PUSH1 0x1F AND DUP3 ADD SWAP2 JUMPDEST POP POP POP POP POP DUP2 MSTORE PUSH1 0x20 ADD PUSH1 0x3 DUP3 ADD PUSH0 SWAP1 SLOAD SWAP1 PUSH2 0x100 EXP SWAP1 DIV PUSH20 0xFFFFFFFFFFFFFFFFFFFFFFFFFFFFFFFFFFFFFFFF AND PUSH20 0xFFFFFFFFFFFFFFFFFFFFFFFFFFFFFFFFFFFFFFFF AND PUSH20 0xFFFFFFFFFFFFFFFFFFFFFFFFFFFFFFFFFFFFFFFF AND DUP2 MSTORE PUSH1 0x20 ADD PUSH1 0x4 DUP3 ADD SLOAD DUP2 MSTORE PUSH1 0x20 ADD PUSH1 0x5 DUP3 ADD SLOAD DUP2 MSTORE PUSH1 0x20 ADD PUSH1 0x6 DUP3 ADD PUSH0 SWAP1 SLOAD SWAP1 PUSH2 0x100 EXP SWAP1 DIV PUSH1 0xFF AND ISZERO ISZERO ISZERO ISZERO DUP2 MSTORE POP POP DUP2 MSTORE PUSH1 0x20 ADD SWAP1 PUSH1 0x1 ADD SWAP1 PUSH2 0x887 JUMP JUMPDEST POP POP POP POP SWAP1 POP SWAP1 JUMP JUMPDEST PUSH1 0x5 PUSH1 0x20 MSTORE DUP2 PUSH0 MSTORE PUSH1 0x40 PUSH0 KECCAK256 DUP2 DUP2 SLOAD DUP2 LT PUSH2 0xA85 JUMPI PUSH0 DUP1 REVERT JUMPDEST SWAP1 PUSH0 MSTORE PUSH1 0x20 PUSH0 KECCAK256 SWAP1 PUSH1 0x5 MUL ADD PUSH0 SWAP2 POP SWAP2 POP POP DUP1 PUSH0 ADD SLOAD SWAP1 DUP1 PUSH1 0x1 ADD DUP1 SLOAD PUSH2 0xAAB SWAP1 PUSH2 0x2E05 JUMP JUMPDEST DUP1 PUSH1 0x1F ADD PUSH1 0x20 DUP1 SWAP2 DIV MUL PUSH1 0x20 ADD PUSH1 0x40 MLOAD SWAP1 DUP2 ADD PUSH1 0x40 MSTORE DUP1 SWAP3 SWAP2 SWAP1 DUP2 DUP2 MSTORE PUSH1 0x20 ADD DUP3 DUP1 SLOAD PUSH2 0xAD7 SWAP1 PUSH2 0x2E05 JUMP JUMPDEST DUP1 ISZERO PUSH2 0xB22 JUMPI DUP1 PUSH1 0x1F LT PUSH2 0xAF9 JUMPI PUSH2 0x100 DUP1 DUP4 SLOAD DIV MUL DUP4 MSTORE SWAP2 PUSH1 0x20 ADD SWAP2 PUSH2 0xB22 JUMP JUMPDEST DUP3 ADD SWAP2 SWAP1 PUSH0 MSTORE PUSH1 0x20 PUSH0 KECCAK256 SWAP1 JUMPDEST DUP2 SLOAD DUP2 MSTORE SWAP1 PUSH1 0x1 ADD SWAP1 PUSH1 0x20 ADD DUP1 DUP4 GT PUSH2 0xB05 JUMPI DUP3 SWAP1 SUB PUSH1 0x1F AND DUP3 ADD SWAP2 JUMPDEST POP POP POP POP POP SWAP1 DUP1 PUSH1 0x2 ADD SLOAD SWAP1 DUP1 PUSH1 0x3 ADD PUSH0 SWAP1 SLOAD SWAP1 PUSH2 0x100 EXP SWAP1 DIV PUSH20 0xFFFFFFFFFFFFFFFFFFFFFFFFFFFFFFFFFFFFFFFF AND SWAP1 DUP1 PUSH1 0x4 ADD PUSH0 SWAP1 SLOAD SWAP1 PUSH2 0x100 EXP SWAP1 DIV PUSH20 0xFFFFFFFFFFFFFFFFFFFFFFFFFFFFFFFFFFFFFFFF AND SWAP1 POP DUP6 JUMP JUMPDEST DUP2 PUSH1 0x1 PUSH0 DUP6 PUSH20 0xFFFFFFFFFFFFFFFFFFFFFFFFFFFFFFFFFFFFFFFF AND PUSH20 0xFFFFFFFFFFFFFFFFFFFFFFFFFFFFFFFFFFFFFFFF AND DUP2 MSTORE PUSH1 0x20 ADD SWAP1 DUP2 MSTORE PUSH1 0x20 ADD PUSH0 KECCAK256 PUSH1 0x1 DUP5 PUSH2 0xBC7 SWAP2 SWAP1 PUSH2 0x2E62 JUMP JUMPDEST DUP2 SLOAD DUP2 LT PUSH2 0xBD8 JUMPI PUSH2 0xBD7 PUSH2 0x2E95 JUMP JUMPDEST JUMPDEST SWAP1 PUSH0 MSTORE PUSH1 0x20 PUSH0 KECCAK256 SWAP1 PUSH1 0x7 MUL ADD PUSH0 ADD SLOAD EQ DUP3 PUSH1 0x40 MLOAD PUSH1 0x20 ADD PUSH2 0xBF9 SWAP2 SWAP1 PUSH2 0x2F80 JUMP JUMPDEST PUSH1 0x40 MLOAD PUSH1 0x20 DUP2 DUP4 SUB SUB DUP2 MSTORE SWAP1 PUSH1 0x40 MSTORE SWAP1 PUSH2 0xC49 JUMPI PUSH1 0x40 MLOAD PUSH32 0x8C379A000000000000000000000000000000000000000000000000000000000 DUP2 MSTORE PUSH1 0x4 ADD PUSH2 0xC40 SWAP2 SWAP1 PUSH2 0x2FB0 JUMP JUMPDEST PUSH1 0x40 MLOAD DUP1 SWAP2 SUB SWAP1 REVERT JUMPDEST POP PUSH0 ISZERO ISZERO PUSH1 0x1 PUSH0 DUP6 PUSH20 0xFFFFFFFFFFFFFFFFFFFFFFFFFFFFFFFFFFFFFFFF AND PUSH20 0xFFFFFFFFFFFFFFFFFFFFFFFFFFFFFFFFFFFFFFFF AND DUP2 MSTORE PUSH1 0x20 ADD SWAP1 DUP2 MSTORE PUSH1 0x20 ADD PUSH0 KECCAK256 PUSH1 0x1 DUP5 PUSH2 0xC97 SWAP2 SWAP1 PUSH2 0x2E62 JUMP JUMPDEST DUP2 SLOAD DUP2 LT PUSH2 0xCA8 JUMPI PUSH2 0xCA7 PUSH2 0x2E95 JUMP JUMPDEST JUMPDEST SWAP1 PUSH0 MSTORE PUSH1 0x20 PUSH0 KECCAK256 SWAP1 PUSH1 0x7 MUL ADD PUSH1 0x6 ADD PUSH0 SWAP1 SLOAD SWAP1 PUSH2 0x100 EXP SWAP1 DIV PUSH1 0xFF AND ISZERO ISZERO EQ PUSH1 0x1 PUSH0 DUP6 PUSH20 0xFFFFFFFFFFFFFFFFFFFFFFFFFFFFFFFFFFFFFFFF AND PUSH20 0xFFFFFFFFFFFFFFFFFFFFFFFFFFFFFFFFFFFFFFFF AND DUP2 MSTORE PUSH1 0x20 ADD SWAP1 DUP2 MSTORE PUSH1 0x20 ADD PUSH0 KECCAK256 PUSH1 0x1 DUP5 PUSH2 0xD11 SWAP2 SWAP1 PUSH2 0x2E62 JUMP JUMPDEST DUP2 SLOAD DUP2 LT PUSH2 0xD22 JUMPI PUSH2 0xD21 PUSH2 0x2E95 JUMP JUMPDEST JUMPDEST SWAP1 PUSH0 MSTORE PUSH1 0x20 PUSH0 KECCAK256 SWAP1 PUSH1 0x7 MUL ADD PUSH1 0x1 ADD PUSH1 0x40 MLOAD PUSH1 0x20 ADD PUSH2 0xD41 SWAP2 SWAP1 PUSH2 0x30F6 JUMP JUMPDEST PUSH1 0x40 MLOAD PUSH1 0x20 DUP2 DUP4 SUB SUB DUP2 MSTORE SWAP1 PUSH1 0x40 MSTORE SWAP1 PUSH2 0xD91 JUMPI PUSH1 0x40 MLOAD PUSH32 0x8C379A000000000000000000000000000000000000000000000000000000000 DUP2 MSTORE PUSH1 0x4 ADD PUSH2 0xD88 SWAP2 SWAP1 PUSH2 0x2FB0 JUMP JUMPDEST PUSH1 0x40 MLOAD DUP1 SWAP2 SUB SWAP1 REVERT JUMPDEST POP PUSH0 DUP2 GT PUSH2 0xDD4 JUMPI PUSH1 0x40 MLOAD PUSH32 0x8C379A000000000000000000000000000000000000000000000000000000000 DUP2 MSTORE PUSH1 0x4 ADD PUSH2 0xDCB SWAP1 PUSH2 0x316C JUMP JUMPDEST PUSH1 0x40 MLOAD DUP1 SWAP2 SUB SWAP1 REVERT JUMPDEST DUP1 CALLVALUE EQ PUSH2 0xE16 JUMPI PUSH1 0x40 MLOAD PUSH32 0x8C379A000000000000000000000000000000000000000000000000000000000 DUP2 MSTORE PUSH1 0x4 ADD PUSH2 0xE0D SWAP1 PUSH2 0x31D4 JUMP JUMPDEST PUSH1 0x40 MLOAD DUP1 SWAP2 SUB SWAP1 REVERT JUMPDEST DUP1 PUSH1 0x1 PUSH0 DUP6 PUSH20 0xFFFFFFFFFFFFFFFFFFFFFFFFFFFFFFFFFFFFFFFF AND PUSH20 0xFFFFFFFFFFFFFFFFFFFFFFFFFFFFFFFFFFFFFFFF AND DUP2 MSTORE PUSH1 0x20 ADD SWAP1 DUP2 MSTORE PUSH1 0x20 ADD PUSH0 KECCAK256 PUSH1 0x1 DUP5 PUSH2 0xE61 SWAP2 SWAP1 PUSH2 0x2E62 JUMP JUMPDEST DUP2 SLOAD DUP2 LT PUSH2 0xE72 JUMPI PUSH2 0xE71 PUSH2 0x2E95 JUMP JUMPDEST JUMPDEST SWAP1 PUSH0 MSTORE PUSH1 0x20 PUSH0 KECCAK256 SWAP1 PUSH1 0x7 MUL ADD PUSH1 0x5 ADD PUSH0 DUP3 DUP3 SLOAD PUSH2 0xE8F SWAP2 SWAP1 PUSH2 0x31F2 JUMP JUMPDEST SWAP3 POP POP DUP2 SWAP1 SSTORE POP PUSH1 0x1 PUSH0 DUP5 PUSH20 0xFFFFFFFFFFFFFFFFFFFFFFFFFFFFFFFFFFFFFFFF AND PUSH20 0xFFFFFFFFFFFFFFFFFFFFFFFFFFFFFFFFFFFFFFFF AND DUP2 MSTORE PUSH1 0x20 ADD SWAP1 DUP2 MSTORE PUSH1 0x20 ADD PUSH0 KECCAK256 PUSH1 0x1 DUP4 PUSH2 0xEE0 SWAP2 SWAP1 PUSH2 0x2E62 JUMP JUMPDEST DUP2 SLOAD DUP2 LT PUSH2 0xEF1 JUMPI PUSH2 0xEF0 PUSH2 0x2E95 JUMP JUMPDEST JUMPDEST SWAP1 PUSH0 MSTORE PUSH1 0x20 PUSH0 KECCAK256 SWAP1 PUSH1 0x7 MUL ADD PUSH1 0x4 ADD SLOAD PUSH1 0x1 PUSH0 DUP6 PUSH20 0xFFFFFFFFFFFFFFFFFFFFFFFFFFFFFFFFFFFFFFFF AND PUSH20 0xFFFFFFFFFFFFFFFFFFFFFFFFFFFFFFFFFFFFFFFF AND DUP2 MSTORE PUSH1 0x20 ADD SWAP1 DUP2 MSTORE PUSH1 0x20 ADD PUSH0 KECCAK256 PUSH1 0x1 DUP5 PUSH2 0xF4B SWAP2 SWAP1 PUSH2 0x2E62 JUMP JUMPDEST DUP2 SLOAD DUP2 LT PUSH2 0xF5C JUMPI PUSH2 0xF5B PUSH2 0x2E95 JUMP JUMPDEST JUMPDEST SWAP1 PUSH0 MSTORE PUSH1 0x20 PUSH0 KECCAK256 SWAP1 PUSH1 0x7 MUL ADD PUSH1 0x5 ADD SLOAD LT PUSH2 0x102C JUMPI PUSH1 0x1 DUP1 PUSH0 DUP6 PUSH20 0xFFFFFFFFFFFFFFFFFFFFFFFFFFFFFFFFFFFFFFFF AND PUSH20 0xFFFFFFFFFFFFFFFFFFFFFFFFFFFFFFFFFFFFFFFF AND DUP2 MSTORE PUSH1 0x20 ADD SWAP1 DUP2 MSTORE PUSH1 0x20 ADD PUSH0 KECCAK256 PUSH1 0x1 DUP5 PUSH2 0xFBC SWAP2 SWAP1 PUSH2 0x2E62 JUMP JUMPDEST DUP2 SLOAD DUP2 LT PUSH2 0xFCD JUMPI PUSH2 0xFCC PUSH2 0x2E95 JUMP JUMPDEST JUMPDEST SWAP1 PUSH0 MSTORE PUSH1 0x20 PUSH0 KECCAK256 SWAP1 PUSH1 0x7 MUL ADD PUSH1 0x6 ADD PUSH0 PUSH2 0x100 EXP DUP2 SLOAD DUP2 PUSH1 0xFF MUL NOT AND SWAP1 DUP4 ISZERO ISZERO MUL OR SWAP1 SSTORE POP PUSH32 0x8559B4DC0428EF20B1A5974FFF4845E3163BFBEC589128D75C7DA62148FBD8AE DUP4 DUP4 PUSH1 0x40 MLOAD PUSH2 0x1023 SWAP3 SWAP2 SWAP1 PUSH2 0x3280 JUMP JUMPDEST PUSH1 0x40 MLOAD DUP1 SWAP2 SUB SWAP1 LOG1 JUMPDEST PUSH0 PUSH1 0x40 MLOAD DUP1 PUSH1 0x80 ADD PUSH1 0x40 MSTORE DUP1 DUP6 PUSH20 0xFFFFFFFFFFFFFFFFFFFFFFFFFFFFFFFFFFFFFFFF AND DUP2 MSTORE PUSH1 0x20 ADD DUP5 DUP2 MSTORE PUSH1 0x20 ADD PUSH1 0x1 PUSH0 DUP8 PUSH20 0xFFFFFFFFFFFFFFFFFFFFFFFFFFFFFFFFFFFFFFFF AND PUSH20 0xFFFFFFFFFFFFFFFFFFFFFFFFFFFFFFFFFFFFFFFF AND DUP2 MSTORE PUSH1 0x20 ADD SWAP1 DUP2 MSTORE PUSH1 0x20 ADD PUSH0 KECCAK256 PUSH1 0x1 DUP7 PUSH2 0x10A4 SWAP2 SWAP1 PUSH2 0x2E62 JUMP JUMPDEST DUP2 SLOAD DUP2 LT PUSH2 0x10B5 JUMPI PUSH2 0x10B4 PUSH2 0x2E95 JUMP JUMPDEST JUMPDEST SWAP1 PUSH0 MSTORE PUSH1 0x20 PUSH0 KECCAK256 SWAP1 PUSH1 0x7 MUL ADD PUSH1 0x1 ADD DUP1 SLOAD PUSH2 0x10CF SWAP1 PUSH2 0x2E05 JUMP JUMPDEST DUP1 PUSH1 0x1F ADD PUSH1 0x20 DUP1 SWAP2 DIV MUL PUSH1 0x20 ADD PUSH1 0x40 MLOAD SWAP1 DUP2 ADD PUSH1 0x40 MSTORE DUP1 SWAP3 SWAP2 SWAP1 DUP2 DUP2 MSTORE PUSH1 0x20 ADD DUP3 DUP1 SLOAD PUSH2 0x10FB SWAP1 PUSH2 0x2E05 JUMP JUMPDEST DUP1 ISZERO PUSH2 0x1146 JUMPI DUP1 PUSH1 0x1F LT PUSH2 0x111D JUMPI PUSH2 0x100 DUP1 DUP4 SLOAD DIV MUL DUP4 MSTORE SWAP2 PUSH1 0x20 ADD SWAP2 PUSH2 0x1146 JUMP JUMPDEST DUP3 ADD SWAP2 SWAP1 PUSH0 MSTORE PUSH1 0x20 PUSH0 KECCAK256 SWAP1 JUMPDEST DUP2 SLOAD DUP2 MSTORE SWAP1 PUSH1 0x1 ADD SWAP1 PUSH1 0x20 ADD DUP1 DUP4 GT PUSH2 0x1129 JUMPI DUP3 SWAP1 SUB PUSH1 0x1F AND DUP3 ADD SWAP2 JUMPDEST POP POP POP POP POP DUP2 MSTORE PUSH1 0x20 ADD DUP4 DUP2 MSTORE POP SWAP1 POP PUSH1 0x4 PUSH0 CALLER PUSH20 0xFFFFFFFFFFFFFFFFFFFFFFFFFFFFFFFFFFFFFFFF AND PUSH20 0xFFFFFFFFFFFFFFFFFFFFFFFFFFFFFFFFFFFFFFFF AND DUP2 MSTORE PUSH1 0x20 ADD SWAP1 DUP2 MSTORE PUSH1 0x20 ADD PUSH0 KECCAK256 DUP2 SWAP1 DUP1 PUSH1 0x1 DUP2 SLOAD ADD DUP1 DUP3 SSTORE DUP1 SWAP2 POP POP PUSH1 0x1 SWAP1 SUB SWAP1 PUSH0 MSTORE PUSH1 0x20 PUSH0 KECCAK256 SWAP1 PUSH1 0x4 MUL ADD PUSH0 SWAP1 SWAP2 SWAP1 SWAP2 SWAP1 SWAP2 POP PUSH0 DUP3 ADD MLOAD DUP2 PUSH0 ADD PUSH0 PUSH2 0x100 EXP DUP2 SLOAD DUP2 PUSH20 0xFFFFFFFFFFFFFFFFFFFFFFFFFFFFFFFFFFFFFFFF MUL NOT AND SWAP1 DUP4 PUSH20 0xFFFFFFFFFFFFFFFFFFFFFFFFFFFFFFFFFFFFFFFF AND MUL OR SWAP1 SSTORE POP PUSH1 0x20 DUP3 ADD MLOAD DUP2 PUSH1 0x1 ADD SSTORE PUSH1 0x40 DUP3 ADD MLOAD DUP2 PUSH1 0x2 ADD SWAP1 DUP2 PUSH2 0x121D SWAP2 SWAP1 PUSH2 0x3429 JUMP JUMPDEST POP PUSH1 0x60 DUP3 ADD MLOAD DUP2 PUSH1 0x3 ADD SSTORE POP POP PUSH32 0xBE0281DCB233D52D4D243D0D6FF4ED47E8641AECF85B98611ADE1C9307186B7D CALLER DUP4 DUP7 DUP7 PUSH1 0x40 MLOAD PUSH2 0x125F SWAP5 SWAP4 SWAP3 SWAP2 SWAP1 PUSH2 0x34F8 JUMP JUMPDEST PUSH1 0x40 MLOAD DUP1 SWAP2 SUB SWAP1 LOG1 POP POP POP POP JUMP JUMPDEST PUSH0 SELFBALANCE SWAP1 POP SWAP1 JUMP JUMPDEST PUSH1 0x4 PUSH1 0x20 MSTORE DUP2 PUSH0 MSTORE PUSH1 0x40 PUSH0 KECCAK256 DUP2 DUP2 SLOAD DUP2 LT PUSH2 0x128D JUMPI PUSH0 DUP1 REVERT JUMPDEST SWAP1 PUSH0 MSTORE PUSH1 0x20 PUSH0 KECCAK256 SWAP1 PUSH1 0x4 MUL ADD PUSH0 SWAP2 POP SWAP2 POP POP DUP1 PUSH0 ADD PUSH0 SWAP1 SLOAD SWAP1 PUSH2 0x100 EXP SWAP1 DIV PUSH20 0xFFFFFFFFFFFFFFFFFFFFFFFFFFFFFFFFFFFFFFFF AND SWAP1 DUP1 PUSH1 0x1 ADD SLOAD SWAP1 DUP1 PUSH1 0x2 ADD DUP1 SLOAD PUSH2 0x12D8 SWAP1 PUSH2 0x2E05 JUMP JUMPDEST DUP1 PUSH1 0x1F ADD PUSH1 0x20 DUP1 SWAP2 DIV MUL PUSH1 0x20 ADD PUSH1 0x40 MLOAD SWAP1 DUP2 ADD PUSH1 0x40 MSTORE DUP1 SWAP3 SWAP2 SWAP1 DUP2 DUP2 MSTORE PUSH1 0x20 ADD DUP3 DUP1 SLOAD PUSH2 0x1304 SWAP1 PUSH2 0x2E05 JUMP JUMPDEST DUP1 ISZERO PUSH2 0x134F JUMPI DUP1 PUSH1 0x1F LT PUSH2 0x1326 JUMPI PUSH2 0x100 DUP1 DUP4 SLOAD DIV MUL DUP4 MSTORE SWAP2 PUSH1 0x20 ADD SWAP2 PUSH2 0x134F JUMP JUMPDEST DUP3 ADD SWAP2 SWAP1 PUSH0 MSTORE PUSH1 0x20 PUSH0 KECCAK256 SWAP1 JUMPDEST DUP2 SLOAD DUP2 MSTORE SWAP1 PUSH1 0x1 ADD SWAP1 PUSH1 0x20 ADD DUP1 DUP4 GT PUSH2 0x1332 JUMPI DUP3 SWAP1 SUB PUSH1 0x1F AND DUP3 ADD SWAP2 JUMPDEST POP POP POP POP POP SWAP1 DUP1 PUSH1 0x3 ADD SLOAD SWAP1 POP DUP5 JUMP JUMPDEST PUSH1 0x2 PUSH1 0x20 MSTORE DUP2 PUSH0 MSTORE PUSH1 0x40 PUSH0 KECCAK256 PUSH1 0x20 MSTORE DUP1 PUSH0 MSTORE PUSH1 0x40 PUSH0 KECCAK256 PUSH0 SWAP2 POP SWAP2 POP SWAP1 SLOAD SWAP1 PUSH2 0x100 EXP SWAP1 DIV PUSH1 0xFF AND DUP2 JUMP JUMPDEST DUP3 DUP5 PUSH0 PUSH1 0x1 PUSH0 DUP5 PUSH20 0xFFFFFFFFFFFFFFFFFFFFFFFFFFFFFFFFFFFFFFFF AND PUSH20 0xFFFFFFFFFFFFFFFFFFFFFFFFFFFFFFFFFFFFFFFF AND DUP2 MSTORE PUSH1 0x20 ADD SWAP1 DUP2 MSTORE PUSH1 0x20 ADD PUSH0 KECCAK256 DUP1 SLOAD SWAP1 POP GT PUSH2 0x140D JUMPI PUSH1 0x40 MLOAD PUSH32 0x8C379A000000000000000000000000000000000000000000000000000000000 DUP2 MSTORE PUSH1 0x4 ADD PUSH2 0x1404 SWAP1 PUSH2 0x35AB JUMP JUMPDEST PUSH1 0x40 MLOAD DUP1 SWAP2 SUB SWAP1 REVERT JUMPDEST DUP1 PUSH1 0x1 PUSH0 DUP5 PUSH20 0xFFFFFFFFFFFFFFFFFFFFFFFFFFFFFFFFFFFFFFFF AND PUSH20 0xFFFFFFFFFFFFFFFFFFFFFFFFFFFFFFFFFFFFFFFF AND DUP2 MSTORE PUSH1 0x20 ADD SWAP1 DUP2 MSTORE PUSH1 0x20 ADD PUSH0 KECCAK256 PUSH1 0x1 DUP4 PUSH2 0x1458 SWAP2 SWAP1 PUSH2 0x2E62 JUMP JUMPDEST DUP2 SLOAD DUP2 LT PUSH2 0x1469 JUMPI PUSH2 0x1468 PUSH2 0x2E95 JUMP JUMPDEST JUMPDEST SWAP1 PUSH0 MSTORE PUSH1 0x20 PUSH0 KECCAK256 SWAP1 PUSH1 0x7 MUL ADD PUSH0 ADD SLOAD EQ PUSH2 0x14B8 JUMPI PUSH1 0x40 MLOAD PUSH32 0x8C379A000000000000000000000000000000000000000000000000000000000 DUP2 MSTORE PUSH1 0x4 ADD PUSH2 0x14AF SWAP1 PUSH2 0x3639 JUMP JUMPDEST PUSH1 0x40 MLOAD DUP1 SWAP2 SUB SWAP1 REVERT JUMPDEST PUSH1 0x2 PUSH0 DUP4 PUSH20 0xFFFFFFFFFFFFFFFFFFFFFFFFFFFFFFFFFFFFFFFF AND PUSH20 0xFFFFFFFFFFFFFFFFFFFFFFFFFFFFFFFFFFFFFFFF AND DUP2 MSTORE PUSH1 0x20 ADD SWAP1 DUP2 MSTORE PUSH1 0x20 ADD PUSH0 KECCAK256 PUSH0 CALLER PUSH20 0xFFFFFFFFFFFFFFFFFFFFFFFFFFFFFFFFFFFFFFFF AND PUSH20 0xFFFFFFFFFFFFFFFFFFFFFFFFFFFFFFFFFFFFFFFF AND DUP2 MSTORE PUSH1 0x20 ADD SWAP1 DUP2 MSTORE PUSH1 0x20 ADD PUSH0 KECCAK256 PUSH0 SWAP1 SLOAD SWAP1 PUSH2 0x100 EXP SWAP1 DIV PUSH1 0xFF AND PUSH2 0x157C JUMPI PUSH1 0x40 MLOAD PUSH32 0x8C379A000000000000000000000000000000000000000000000000000000000 DUP2 MSTORE PUSH1 0x4 ADD PUSH2 0x1573 SWAP1 PUSH2 0x36C7 JUMP JUMPDEST PUSH1 0x40 MLOAD DUP1 SWAP2 SUB SWAP1 REVERT JUMPDEST PUSH0 DUP5 GT DUP1 ISZERO PUSH2 0x15F5 JUMPI POP PUSH1 0x1 PUSH0 DUP7 PUSH20 0xFFFFFFFFFFFFFFFFFFFFFFFFFFFFFFFFFFFFFFFF AND PUSH20 0xFFFFFFFFFFFFFFFFFFFFFFFFFFFFFFFFFFFFFFFF AND DUP2 MSTORE PUSH1 0x20 ADD SWAP1 DUP2 MSTORE PUSH1 0x20 ADD PUSH0 KECCAK256 PUSH1 0x1 DUP8 PUSH2 0x15D0 SWAP2 SWAP1 PUSH2 0x2E62 JUMP JUMPDEST DUP2 SLOAD DUP2 LT PUSH2 0x15E1 JUMPI PUSH2 0x15E0 PUSH2 0x2E95 JUMP JUMPDEST JUMPDEST SWAP1 PUSH0 MSTORE PUSH1 0x20 PUSH0 KECCAK256 SWAP1 PUSH1 0x7 MUL ADD PUSH1 0x5 ADD SLOAD DUP5 GT ISZERO JUMPDEST PUSH2 0x1634 JUMPI PUSH1 0x40 MLOAD PUSH32 0x8C379A000000000000000000000000000000000000000000000000000000000 DUP2 MSTORE PUSH1 0x4 ADD PUSH2 0x162B SWAP1 PUSH2 0x3755 JUMP JUMPDEST PUSH1 0x40 MLOAD DUP1 SWAP2 SUB SWAP1 REVERT JUMPDEST PUSH1 0x1 PUSH0 DUP7 PUSH20 0xFFFFFFFFFFFFFFFFFFFFFFFFFFFFFFFFFFFFFFFF AND PUSH20 0xFFFFFFFFFFFFFFFFFFFFFFFFFFFFFFFFFFFFFFFF AND DUP2 MSTORE PUSH1 0x20 ADD SWAP1 DUP2 MSTORE PUSH1 0x20 ADD PUSH0 KECCAK256 PUSH1 0x1 DUP8 PUSH2 0x167E SWAP2 SWAP1 PUSH2 0x2E62 JUMP JUMPDEST DUP2 SLOAD DUP2 LT PUSH2 0x168F JUMPI PUSH2 0x168E PUSH2 0x2E95 JUMP JUMPDEST JUMPDEST SWAP1 PUSH0 MSTORE PUSH1 0x20 PUSH0 KECCAK256 SWAP1 PUSH1 0x7 MUL ADD PUSH1 0x6 ADD PUSH0 SWAP1 SLOAD SWAP1 PUSH2 0x100 EXP SWAP1 DIV PUSH1 0xFF AND PUSH2 0x16EA JUMPI PUSH1 0x40 MLOAD PUSH32 0x8C379A000000000000000000000000000000000000000000000000000000000 DUP2 MSTORE PUSH1 0x4 ADD PUSH2 0x16E1 SWAP1 PUSH2 0x37E3 JUMP JUMPDEST PUSH1 0x40 MLOAD DUP1 SWAP2 SUB SWAP1 REVERT JUMPDEST DUP4 SELFBALANCE LT ISZERO PUSH2 0x172D JUMPI PUSH1 0x40 MLOAD PUSH32 0x8C379A000000000000000000000000000000000000000000000000000000000 DUP2 MSTORE PUSH1 0x4 ADD PUSH2 0x1724 SWAP1 PUSH2 0x384B JUMP JUMPDEST PUSH1 0x40 MLOAD DUP1 SWAP2 SUB SWAP1 REVERT JUMPDEST DUP4 PUSH1 0x1 PUSH0 DUP8 PUSH20 0xFFFFFFFFFFFFFFFFFFFFFFFFFFFFFFFFFFFFFFFF AND PUSH20 0xFFFFFFFFFFFFFFFFFFFFFFFFFFFFFFFFFFFFFFFF AND DUP2 MSTORE PUSH1 0x20 ADD SWAP1 DUP2 MSTORE PUSH1 0x20 ADD PUSH0 KECCAK256 PUSH1 0x1 DUP9 PUSH2 0x1778 SWAP2 SWAP1 PUSH2 0x2E62 JUMP JUMPDEST DUP2 SLOAD DUP2 LT PUSH2 0x1789 JUMPI PUSH2 0x1788 PUSH2 0x2E95 JUMP JUMPDEST JUMPDEST SWAP1 PUSH0 MSTORE PUSH1 0x20 PUSH0 KECCAK256 SWAP1 PUSH1 0x7 MUL ADD PUSH1 0x5 ADD PUSH0 DUP3 DUP3 SLOAD PUSH2 0x17A6 SWAP2 SWAP1 PUSH2 0x2E62 JUMP JUMPDEST SWAP3 POP POP DUP2 SWAP1 SSTORE POP PUSH0 DUP4 PUSH20 0xFFFFFFFFFFFFFFFFFFFFFFFFFFFFFFFFFFFFFFFF AND DUP6 PUSH1 0x40 MLOAD PUSH2 0x17D2 SWAP1 PUSH2 0x3896 JUMP JUMPDEST PUSH0 PUSH1 0x40 MLOAD DUP1 DUP4 SUB DUP2 DUP6 DUP8 GAS CALL SWAP3 POP POP POP RETURNDATASIZE DUP1 PUSH0 DUP2 EQ PUSH2 0x180C JUMPI PUSH1 0x40 MLOAD SWAP2 POP PUSH1 0x1F NOT PUSH1 0x3F RETURNDATASIZE ADD AND DUP3 ADD PUSH1 0x40 MSTORE RETURNDATASIZE DUP3 MSTORE RETURNDATASIZE PUSH0 PUSH1 0x20 DUP5 ADD RETURNDATACOPY PUSH2 0x1811 JUMP JUMPDEST PUSH1 0x60 SWAP2 POP JUMPDEST POP POP SWAP1 POP DUP1 PUSH2 0x1855 JUMPI PUSH1 0x40 MLOAD PUSH32 0x8C379A000000000000000000000000000000000000000000000000000000000 DUP2 MSTORE PUSH1 0x4 ADD PUSH2 0x184C SWAP1 PUSH2 0x38F4 JUMP JUMPDEST PUSH1 0x40 MLOAD DUP1 SWAP2 SUB SWAP1 REVERT JUMPDEST PUSH0 PUSH1 0x40 MLOAD DUP1 PUSH1 0xA0 ADD PUSH1 0x40 MSTORE DUP1 DUP10 DUP2 MSTORE PUSH1 0x20 ADD PUSH1 0x1 PUSH0 DUP11 PUSH20 0xFFFFFFFFFFFFFFFFFFFFFFFFFFFFFFFFFFFFFFFF AND PUSH20 0xFFFFFFFFFFFFFFFFFFFFFFFFFFFFFFFFFFFFFFFF AND DUP2 MSTORE PUSH1 0x20 ADD SWAP1 DUP2 MSTORE PUSH1 0x20 ADD PUSH0 KECCAK256 PUSH1 0x1 DUP12 PUSH2 0x18B1 SWAP2 SWAP1 PUSH2 0x2E62 JUMP JUMPDEST DUP2 SLOAD DUP2 LT PUSH2 0x18C2 JUMPI PUSH2 0x18C1 PUSH2 0x2E95 JUMP JUMPDEST JUMPDEST SWAP1 PUSH0 MSTORE PUSH1 0x20 PUSH0 KECCAK256 SWAP1 PUSH1 0x7 MUL ADD PUSH1 0x1 ADD DUP1 SLOAD PUSH2 0x18DC SWAP1 PUSH2 0x2E05 JUMP JUMPDEST DUP1 PUSH1 0x1F ADD PUSH1 0x20 DUP1 SWAP2 DIV MUL PUSH1 0x20 ADD PUSH1 0x40 MLOAD SWAP1 DUP2 ADD PUSH1 0x40 MSTORE DUP1 SWAP3 SWAP2 SWAP1 DUP2 DUP2 MSTORE PUSH1 0x20 ADD DUP3 DUP1 SLOAD PUSH2 0x1908 SWAP1 PUSH2 0x2E05 JUMP JUMPDEST DUP1 ISZERO PUSH2 0x1953 JUMPI DUP1 PUSH1 0x1F LT PUSH2 0x192A JUMPI PUSH2 0x100 DUP1 DUP4 SLOAD DIV MUL DUP4 MSTORE SWAP2 PUSH1 0x20 ADD SWAP2 PUSH2 0x1953 JUMP JUMPDEST DUP3 ADD SWAP2 SWAP1 PUSH0 MSTORE PUSH1 0x20 PUSH0 KECCAK256 SWAP1 JUMPDEST DUP2 SLOAD DUP2 MSTORE SWAP1 PUSH1 0x1 ADD SWAP1 PUSH1 0x20 ADD DUP1 DUP4 GT PUSH2 0x1936 JUMPI DUP3 SWAP1 SUB PUSH1 0x1F AND DUP3 ADD SWAP2 JUMPDEST POP POP POP POP POP DUP2 MSTORE PUSH1 0x20 ADD DUP8 DUP2 MSTORE PUSH1 0x20 ADD CALLER PUSH20 0xFFFFFFFFFFFFFFFFFFFFFFFFFFFFFFFFFFFFFFFF AND DUP2 MSTORE PUSH1 0x20 ADD DUP7 PUSH20 0xFFFFFFFFFFFFFFFFFFFFFFFFFFFFFFFFFFFFFFFF AND DUP2 MSTORE POP SWAP1 POP PUSH1 0x5 PUSH0 DUP9 PUSH20 0xFFFFFFFFFFFFFFFFFFFFFFFFFFFFFFFFFFFFFFFF AND PUSH20 0xFFFFFFFFFFFFFFFFFFFFFFFFFFFFFFFFFFFFFFFF AND DUP2 MSTORE PUSH1 0x20 ADD SWAP1 DUP2 MSTORE PUSH1 0x20 ADD PUSH0 KECCAK256 DUP2 SWAP1 DUP1 PUSH1 0x1 DUP2 SLOAD ADD DUP1 DUP3 SSTORE DUP1 SWAP2 POP POP PUSH1 0x1 SWAP1 SUB SWAP1 PUSH0 MSTORE PUSH1 0x20 PUSH0 KECCAK256 SWAP1 PUSH1 0x5 MUL ADD PUSH0 SWAP1 SWAP2 SWAP1 SWAP2 SWAP1 SWAP2 POP PUSH0 DUP3 ADD MLOAD DUP2 PUSH0 ADD SSTORE PUSH1 0x20 DUP3 ADD MLOAD DUP2 PUSH1 0x1 ADD SWAP1 DUP2 PUSH2 0x1A1C SWAP2 SWAP1 PUSH2 0x3429 JUMP JUMPDEST POP PUSH1 0x40 DUP3 ADD MLOAD DUP2 PUSH1 0x2 ADD SSTORE PUSH1 0x60 DUP3 ADD MLOAD DUP2 PUSH1 0x3 ADD PUSH0 PUSH2 0x100 EXP DUP2 SLOAD DUP2 PUSH20 0xFFFFFFFFFFFFFFFFFFFFFFFFFFFFFFFFFFFFFFFF MUL NOT AND SWAP1 DUP4 PUSH20 0xFFFFFFFFFFFFFFFFFFFFFFFFFFFFFFFFFFFFFFFF AND MUL OR SWAP1 SSTORE POP PUSH1 0x80 DUP3 ADD MLOAD DUP2 PUSH1 0x4 ADD PUSH0 PUSH2 0x100 EXP DUP2 SLOAD DUP2 PUSH20 0xFFFFFFFFFFFFFFFFFFFFFFFFFFFFFFFFFFFFFFFF MUL NOT AND SWAP1 DUP4 PUSH20 0xFFFFFFFFFFFFFFFFFFFFFFFFFFFFFFFFFFFFFFFF AND MUL OR SWAP1 SSTORE POP POP POP PUSH32 0xFB301322F68B8EA04D2B6A3AB0A1A0100D7BE758E7FFA771D5539A256B92D10D DUP7 CALLER DUP8 DUP11 DUP13 PUSH1 0x40 MLOAD PUSH2 0x1AEC SWAP6 SWAP5 SWAP4 SWAP3 SWAP2 SWAP1 PUSH2 0x3912 JUMP JUMPDEST PUSH1 0x40 MLOAD DUP1 SWAP2 SUB SWAP1 LOG1 POP POP POP POP POP POP POP POP JUMP JUMPDEST PUSH1 0x60 PUSH1 0x5 PUSH0 DUP4 PUSH20 0xFFFFFFFFFFFFFFFFFFFFFFFFFFFFFFFFFFFFFFFF AND PUSH20 0xFFFFFFFFFFFFFFFFFFFFFFFFFFFFFFFFFFFFFFFF AND DUP2 MSTORE PUSH1 0x20 ADD SWAP1 DUP2 MSTORE PUSH1 0x20 ADD PUSH0 KECCAK256 DUP1 SLOAD DUP1 PUSH1 0x20 MUL PUSH1 0x20 ADD PUSH1 0x40 MLOAD SWAP1 DUP2 ADD PUSH1 0x40 MSTORE DUP1 SWAP3 SWAP2 SWAP1 DUP2 DUP2 MSTORE PUSH1 0x20 ADD PUSH0 SWAP1 JUMPDEST DUP3 DUP3 LT ISZERO PUSH2 0x1CD9 JUMPI DUP4 DUP3 SWAP1 PUSH0 MSTORE PUSH1 0x20 PUSH0 KECCAK256 SWAP1 PUSH1 0x5 MUL ADD PUSH1 0x40 MLOAD DUP1 PUSH1 0xA0 ADD PUSH1 0x40 MSTORE SWAP1 DUP2 PUSH0 DUP3 ADD SLOAD DUP2 MSTORE PUSH1 0x20 ADD PUSH1 0x1 DUP3 ADD DUP1 SLOAD PUSH2 0x1B96 SWAP1 PUSH2 0x2E05 JUMP JUMPDEST DUP1 PUSH1 0x1F ADD PUSH1 0x20 DUP1 SWAP2 DIV MUL PUSH1 0x20 ADD PUSH1 0x40 MLOAD SWAP1 DUP2 ADD PUSH1 0x40 MSTORE DUP1 SWAP3 SWAP2 SWAP1 DUP2 DUP2 MSTORE PUSH1 0x20 ADD DUP3 DUP1 SLOAD PUSH2 0x1BC2 SWAP1 PUSH2 0x2E05 JUMP JUMPDEST DUP1 ISZERO PUSH2 0x1C0D JUMPI DUP1 PUSH1 0x1F LT PUSH2 0x1BE4 JUMPI PUSH2 0x100 DUP1 DUP4 SLOAD DIV MUL DUP4 MSTORE SWAP2 PUSH1 0x20 ADD SWAP2 PUSH2 0x1C0D JUMP JUMPDEST DUP3 ADD SWAP2 SWAP1 PUSH0 MSTORE PUSH1 0x20 PUSH0 KECCAK256 SWAP1 JUMPDEST DUP2 SLOAD DUP2 MSTORE SWAP1 PUSH1 0x1 ADD SWAP1 PUSH1 0x20 ADD DUP1 DUP4 GT PUSH2 0x1BF0 JUMPI DUP3 SWAP1 SUB PUSH1 0x1F AND DUP3 ADD SWAP2 JUMPDEST POP POP POP POP POP DUP2 MSTORE PUSH1 0x20 ADD PUSH1 0x2 DUP3 ADD SLOAD DUP2 MSTORE PUSH1 0x20 ADD PUSH1 0x3 DUP3 ADD PUSH0 SWAP1 SLOAD SWAP1 PUSH2 0x100 EXP SWAP1 DIV PUSH20 0xFFFFFFFFFFFFFFFFFFFFFFFFFFFFFFFFFFFFFFFF AND PUSH20 0xFFFFFFFFFFFFFFFFFFFFFFFFFFFFFFFFFFFFFFFF AND PUSH20 0xFFFFFFFFFFFFFFFFFFFFFFFFFFFFFFFFFFFFFFFF AND DUP2 MSTORE PUSH1 0x20 ADD PUSH1 0x4 DUP3 ADD PUSH0 SWAP1 SLOAD SWAP1 PUSH2 0x100 EXP SWAP1 DIV PUSH20 0xFFFFFFFFFFFFFFFFFFFFFFFFFFFFFFFFFFFFFFFF AND PUSH20 0xFFFFFFFFFFFFFFFFFFFFFFFFFFFFFFFFFFFFFFFF AND PUSH20 0xFFFFFFFFFFFFFFFFFFFFFFFFFFFFFFFFFFFFFFFF AND DUP2 MSTORE POP POP DUP2 MSTORE PUSH1 0x20 ADD SWAP1 PUSH1 0x1 ADD SWAP1 PUSH2 0x1B5C JUMP JUMPDEST POP POP POP POP SWAP1 POP SWAP2 SWAP1 POP JUMP JUMPDEST PUSH1 0x60 PUSH1 0x4 PUSH0 CALLER PUSH20 0xFFFFFFFFFFFFFFFFFFFFFFFFFFFFFFFFFFFFFFFF AND PUSH20 0xFFFFFFFFFFFFFFFFFFFFFFFFFFFFFFFFFFFFFFFF AND DUP2 MSTORE PUSH1 0x20 ADD SWAP1 DUP2 MSTORE PUSH1 0x20 ADD PUSH0 KECCAK256 DUP1 SLOAD DUP1 PUSH1 0x20 MUL PUSH1 0x20 ADD PUSH1 0x40 MLOAD SWAP1 DUP2 ADD PUSH1 0x40 MSTORE DUP1 SWAP3 SWAP2 SWAP1 DUP2 DUP2 MSTORE PUSH1 0x20 ADD PUSH0 SWAP1 JUMPDEST DUP3 DUP3 LT ISZERO PUSH2 0x1E6A JUMPI DUP4 DUP3 SWAP1 PUSH0 MSTORE PUSH1 0x20 PUSH0 KECCAK256 SWAP1 PUSH1 0x4 MUL ADD PUSH1 0x40 MLOAD DUP1 PUSH1 0x80 ADD PUSH1 0x40 MSTORE SWAP1 DUP2 PUSH0 DUP3 ADD PUSH0 SWAP1 SLOAD SWAP1 PUSH2 0x100 EXP SWAP1 DIV PUSH20 0xFFFFFFFFFFFFFFFFFFFFFFFFFFFFFFFFFFFFFFFF AND PUSH20 0xFFFFFFFFFFFFFFFFFFFFFFFFFFFFFFFFFFFFFFFF AND PUSH20 0xFFFFFFFFFFFFFFFFFFFFFFFFFFFFFFFFFFFFFFFF AND DUP2 MSTORE PUSH1 0x20 ADD PUSH1 0x1 DUP3 ADD SLOAD DUP2 MSTORE PUSH1 0x20 ADD PUSH1 0x2 DUP3 ADD DUP1 SLOAD PUSH2 0x1DD1 SWAP1 PUSH2 0x2E05 JUMP JUMPDEST DUP1 PUSH1 0x1F ADD PUSH1 0x20 DUP1 SWAP2 DIV MUL PUSH1 0x20 ADD PUSH1 0x40 MLOAD SWAP1 DUP2 ADD PUSH1 0x40 MSTORE DUP1 SWAP3 SWAP2 SWAP1 DUP2 DUP2 MSTORE PUSH1 0x20 ADD DUP3 DUP1 SLOAD PUSH2 0x1DFD SWAP1 PUSH2 0x2E05 JUMP JUMPDEST DUP1 ISZERO PUSH2 0x1E48 JUMPI DUP1 PUSH1 0x1F LT PUSH2 0x1E1F JUMPI PUSH2 0x100 DUP1 DUP4 SLOAD DIV MUL DUP4 MSTORE SWAP2 PUSH1 0x20 ADD SWAP2 PUSH2 0x1E48 JUMP JUMPDEST DUP3 ADD SWAP2 SWAP1 PUSH0 MSTORE PUSH1 0x20 PUSH0 KECCAK256 SWAP1 JUMPDEST DUP2 SLOAD DUP2 MSTORE SWAP1 PUSH1 0x1 ADD SWAP1 PUSH1 0x20 ADD DUP1 DUP4 GT PUSH2 0x1E2B JUMPI DUP3 SWAP1 SUB PUSH1 0x1F AND DUP3 ADD SWAP2 JUMPDEST POP POP POP POP POP DUP2 MSTORE PUSH1 0x20 ADD PUSH1 0x3 DUP3 ADD SLOAD DUP2 MSTORE POP POP DUP2 MSTORE PUSH1 0x20 ADD SWAP1 PUSH1 0x1 ADD SWAP1 PUSH2 0x1D42 JUMP JUMPDEST POP POP POP POP SWAP1 POP SWAP1 JUMP JUMPDEST PUSH0 JUMPDEST PUSH1 0x1 PUSH0 CALLER PUSH20 0xFFFFFFFFFFFFFFFFFFFFFFFFFFFFFFFFFFFFFFFF AND PUSH20 0xFFFFFFFFFFFFFFFFFFFFFFFFFFFFFFFFFFFFFFFF AND DUP2 MSTORE PUSH1 0x20 ADD SWAP1 DUP2 MSTORE PUSH1 0x20 ADD PUSH0 KECCAK256 DUP1 SLOAD SWAP1 POP DUP2 LT ISZERO PUSH2 0x1FE1 JUMPI PUSH0 PUSH1 0x1 PUSH0 CALLER PUSH20 0xFFFFFFFFFFFFFFFFFFFFFFFFFFFFFFFFFFFFFFFF AND PUSH20 0xFFFFFFFFFFFFFFFFFFFFFFFFFFFFFFFFFFFFFFFF AND DUP2 MSTORE PUSH1 0x20 ADD SWAP1 DUP2 MSTORE PUSH1 0x20 ADD PUSH0 KECCAK256 DUP3 DUP2 SLOAD DUP2 LT PUSH2 0x1F0D JUMPI PUSH2 0x1F0C PUSH2 0x2E95 JUMP JUMPDEST JUMPDEST SWAP1 PUSH0 MSTORE PUSH1 0x20 PUSH0 KECCAK256 SWAP1 PUSH1 0x7 MUL ADD PUSH1 0x1 ADD SWAP1 POP PUSH0 DUP6 PUSH1 0x40 MLOAD PUSH1 0x20 ADD PUSH2 0x1F30 SWAP2 SWAP1 PUSH2 0x3993 JUMP JUMPDEST PUSH1 0x40 MLOAD PUSH1 0x20 DUP2 DUP4 SUB SUB DUP2 MSTORE SWAP1 PUSH1 0x40 MSTORE DUP1 MLOAD SWAP1 PUSH1 0x20 ADD KECCAK256 DUP3 PUSH1 0x40 MLOAD PUSH1 0x20 ADD PUSH2 0x1F57 SWAP2 SWAP1 PUSH2 0x3A3B JUMP JUMPDEST PUSH1 0x40 MLOAD PUSH1 0x20 DUP2 DUP4 SUB SUB DUP2 MSTORE SWAP1 PUSH1 0x40 MSTORE DUP1 MLOAD SWAP1 PUSH1 0x20 ADD KECCAK256 EQ SWAP1 POP DUP1 ISZERO PUSH2 0x1FD2 JUMPI DUP6 PUSH1 0x40 MLOAD PUSH1 0x20 ADD PUSH2 0x1F87 SWAP2 SWAP1 PUSH2 0x3AE5 JUMP JUMPDEST PUSH1 0x40 MLOAD PUSH1 0x20 DUP2 DUP4 SUB SUB DUP2 MSTORE SWAP1 PUSH1 0x40 MSTORE PUSH1 0x40 MLOAD PUSH32 0x8C379A000000000000000000000000000000000000000000000000000000000 DUP2 MSTORE PUSH1 0x4 ADD PUSH2 0x1FC9 SWAP2 SWAP1 PUSH2 0x2FB0 JUMP JUMPDEST PUSH1 0x40 MLOAD DUP1 SWAP2 SUB SWAP1 REVERT JUMPDEST POP POP DUP1 DUP1 PUSH1 0x1 ADD SWAP2 POP POP PUSH2 0x1E75 JUMP JUMPDEST POP PUSH0 PUSH1 0x40 MLOAD DUP1 PUSH1 0xE0 ADD PUSH1 0x40 MSTORE DUP1 PUSH1 0x1 DUP1 PUSH0 CALLER PUSH20 0xFFFFFFFFFFFFFFFFFFFFFFFFFFFFFFFFFFFFFFFF AND PUSH20 0xFFFFFFFFFFFFFFFFFFFFFFFFFFFFFFFFFFFFFFFF AND DUP2 MSTORE PUSH1 0x20 ADD SWAP1 DUP2 MSTORE PUSH1 0x20 ADD PUSH0 KECCAK256 DUP1 SLOAD SWAP1 POP PUSH2 0x203A SWAP2 SWAP1 PUSH2 0x31F2 JUMP JUMPDEST DUP2 MSTORE PUSH1 0x20 ADD DUP6 DUP2 MSTORE PUSH1 0x20 ADD DUP5 DUP2 MSTORE PUSH1 0x20 ADD CALLER PUSH20 0xFFFFFFFFFFFFFFFFFFFFFFFFFFFFFFFFFFFFFFFF AND DUP2 MSTORE PUSH1 0x20 ADD DUP4 DUP2 MSTORE PUSH1 0x20 ADD PUSH0 DUP2 MSTORE PUSH1 0x20 ADD PUSH0 ISZERO ISZERO DUP2 MSTORE POP SWAP1 POP PUSH1 0x1 PUSH0 CALLER PUSH20 0xFFFFFFFFFFFFFFFFFFFFFFFFFFFFFFFFFFFFFFFF AND PUSH20 0xFFFFFFFFFFFFFFFFFFFFFFFFFFFFFFFFFFFFFFFF AND DUP2 MSTORE PUSH1 0x20 ADD SWAP1 DUP2 MSTORE PUSH1 0x20 ADD PUSH0 KECCAK256 DUP2 SWAP1 DUP1 PUSH1 0x1 DUP2 SLOAD ADD DUP1 DUP3 SSTORE DUP1 SWAP2 POP POP PUSH1 0x1 SWAP1 SUB SWAP1 PUSH0 MSTORE PUSH1 0x20 PUSH0 KECCAK256 SWAP1 PUSH1 0x7 MUL ADD PUSH0 SWAP1 SWAP2 SWAP1 SWAP2 SWAP1 SWAP2 POP PUSH0 DUP3 ADD MLOAD DUP2 PUSH0 ADD SSTORE PUSH1 0x20 DUP3 ADD MLOAD DUP2 PUSH1 0x1 ADD SWAP1 DUP2 PUSH2 0x20FC SWAP2 SWAP1 PUSH2 0x3429 JUMP JUMPDEST POP PUSH1 0x40 DUP3 ADD MLOAD DUP2 PUSH1 0x2 ADD SWAP1 DUP2 PUSH2 0x2112 SWAP2 SWAP1 PUSH2 0x3429 JUMP JUMPDEST POP PUSH1 0x60 DUP3 ADD MLOAD DUP2 PUSH1 0x3 ADD PUSH0 PUSH2 0x100 EXP DUP2 SLOAD DUP2 PUSH20 0xFFFFFFFFFFFFFFFFFFFFFFFFFFFFFFFFFFFFFFFF MUL NOT AND SWAP1 DUP4 PUSH20 0xFFFFFFFFFFFFFFFFFFFFFFFFFFFFFFFFFFFFFFFF AND MUL OR SWAP1 SSTORE POP PUSH1 0x80 DUP3 ADD MLOAD DUP2 PUSH1 0x4 ADD SSTORE PUSH1 0xA0 DUP3 ADD MLOAD DUP2 PUSH1 0x5 ADD SSTORE PUSH1 0xC0 DUP3 ADD MLOAD DUP2 PUSH1 0x6 ADD PUSH0 PUSH2 0x100 EXP DUP2 SLOAD DUP2 PUSH1 0xFF MUL NOT AND SWAP1 DUP4 ISZERO ISZERO MUL OR SWAP1 SSTORE POP POP POP PUSH32 0x825FB10F7650ED27414D6F86ACDF7D5946927D9B25001F045F1A2435DEEC02FE PUSH1 0x1 PUSH0 CALLER PUSH20 0xFFFFFFFFFFFFFFFFFFFFFFFFFFFFFFFFFFFFFFFF AND PUSH20 0xFFFFFFFFFFFFFFFFFFFFFFFFFFFFFFFFFFFFFFFF AND DUP2 MSTORE PUSH1 0x20 ADD SWAP1 DUP2 MSTORE PUSH1 0x20 ADD PUSH0 KECCAK256 DUP1 SLOAD SWAP1 POP CALLER DUP7 DUP6 PUSH1 0x40 MLOAD PUSH2 0x2203 SWAP5 SWAP4 SWAP3 SWAP2 SWAP1 PUSH2 0x3B11 JUMP JUMPDEST PUSH1 0x40 MLOAD DUP1 SWAP2 SUB SWAP1 LOG1 POP POP POP POP JUMP JUMPDEST PUSH0 PUSH1 0x40 MLOAD SWAP1 POP SWAP1 JUMP JUMPDEST PUSH0 DUP1 REVERT JUMPDEST PUSH0 DUP1 REVERT JUMPDEST PUSH0 PUSH20 0xFFFFFFFFFFFFFFFFFFFFFFFFFFFFFFFFFFFFFFFF DUP3 AND SWAP1 POP SWAP2 SWAP1 POP JUMP JUMPDEST PUSH0 PUSH2 0x224B DUP3 PUSH2 0x2222 JUMP JUMPDEST SWAP1 POP SWAP2 SWAP1 POP JUMP JUMPDEST PUSH2 0x225B DUP2 PUSH2 0x2241 JUMP JUMPDEST DUP2 EQ PUSH2 0x2265 JUMPI PUSH0 DUP1 REVERT JUMPDEST POP JUMP JUMPDEST PUSH0 DUP2 CALLDATALOAD SWAP1 POP PUSH2 0x2276 DUP2 PUSH2 0x2252 JUMP JUMPDEST SWAP3 SWAP2 POP POP JUMP JUMPDEST PUSH0 PUSH1 0x20 DUP3 DUP5 SUB SLT ISZERO PUSH2 0x2291 JUMPI PUSH2 0x2290 PUSH2 0x221A JUMP JUMPDEST JUMPDEST PUSH0 PUSH2 0x229E DUP5 DUP3 DUP6 ADD PUSH2 0x2268 JUMP JUMPDEST SWAP2 POP POP SWAP3 SWAP2 POP POP JUMP JUMPDEST PUSH0 DUP2 SWAP1 POP SWAP2 SWAP1 POP JUMP JUMPDEST PUSH2 0x22B9 DUP2 PUSH2 0x22A7 JUMP JUMPDEST DUP2 EQ PUSH2 0x22C3 JUMPI PUSH0 DUP1 REVERT JUMPDEST POP JUMP JUMPDEST PUSH0 DUP2 CALLDATALOAD SWAP1 POP PUSH2 0x22D4 DUP2 PUSH2 0x22B0 JUMP JUMPDEST SWAP3 SWAP2 POP POP JUMP JUMPDEST PUSH0 DUP1 PUSH1 0x40 DUP4 DUP6 SUB SLT ISZERO PUSH2 0x22F0 JUMPI PUSH2 0x22EF PUSH2 0x221A JUMP JUMPDEST JUMPDEST PUSH0 PUSH2 0x22FD DUP6 DUP3 DUP7 ADD PUSH2 0x2268 JUMP JUMPDEST SWAP3 POP POP PUSH1 0x20 PUSH2 0x230E DUP6 DUP3 DUP7 ADD PUSH2 0x22C6 JUMP JUMPDEST SWAP2 POP POP SWAP3 POP SWAP3 SWAP1 POP JUMP JUMPDEST PUSH2 0x2321 DUP2 PUSH2 0x22A7 JUMP JUMPDEST DUP3 MSTORE POP POP JUMP JUMPDEST PUSH0 DUP2 MLOAD SWAP1 POP SWAP2 SWAP1 POP JUMP JUMPDEST PUSH0 DUP3 DUP3 MSTORE PUSH1 0x20 DUP3 ADD SWAP1 POP SWAP3 SWAP2 POP POP JUMP JUMPDEST DUP3 DUP2 DUP4 MCOPY PUSH0 DUP4 DUP4 ADD MSTORE POP POP POP JUMP JUMPDEST PUSH0 PUSH1 0x1F NOT PUSH1 0x1F DUP4 ADD AND SWAP1 POP SWAP2 SWAP1 POP JUMP JUMPDEST PUSH0 PUSH2 0x2369 DUP3 PUSH2 0x2327 JUMP JUMPDEST PUSH2 0x2373 DUP2 DUP6 PUSH2 0x2331 JUMP JUMPDEST SWAP4 POP PUSH2 0x2383 DUP2 DUP6 PUSH1 0x20 DUP7 ADD PUSH2 0x2341 JUMP JUMPDEST PUSH2 0x238C DUP2 PUSH2 0x234F JUMP JUMPDEST DUP5 ADD SWAP2 POP POP SWAP3 SWAP2 POP POP JUMP JUMPDEST PUSH2 0x23A0 DUP2 PUSH2 0x2241 JUMP JUMPDEST DUP3 MSTORE POP POP JUMP JUMPDEST PUSH0 DUP2 ISZERO ISZERO SWAP1 POP SWAP2 SWAP1 POP JUMP JUMPDEST PUSH2 0x23BA DUP2 PUSH2 0x23A6 JUMP JUMPDEST DUP3 MSTORE POP POP JUMP JUMPDEST PUSH0 PUSH1 0xE0 DUP3 ADD SWAP1 POP PUSH2 0x23D3 PUSH0 DUP4 ADD DUP11 PUSH2 0x2318 JUMP JUMPDEST DUP2 DUP2 SUB PUSH1 0x20 DUP4 ADD MSTORE PUSH2 0x23E5 DUP2 DUP10 PUSH2 0x235F JUMP JUMPDEST SWAP1 POP DUP2 DUP2 SUB PUSH1 0x40 DUP4 ADD MSTORE PUSH2 0x23F9 DUP2 DUP9 PUSH2 0x235F JUMP JUMPDEST SWAP1 POP PUSH2 0x2408 PUSH1 0x60 DUP4 ADD DUP8 PUSH2 0x2397 JUMP JUMPDEST PUSH2 0x2415 PUSH1 0x80 DUP4 ADD DUP7 PUSH2 0x2318 JUMP JUMPDEST PUSH2 0x2422 PUSH1 0xA0 DUP4 ADD DUP6 PUSH2 0x2318 JUMP JUMPDEST PUSH2 0x242F PUSH1 0xC0 DUP4 ADD DUP5 PUSH2 0x23B1 JUMP JUMPDEST SWAP9 SWAP8 POP POP POP POP POP POP POP POP JUMP JUMPDEST PUSH0 PUSH1 0x20 DUP3 ADD SWAP1 POP PUSH2 0x244E PUSH0 DUP4 ADD DUP5 PUSH2 0x2397 JUMP JUMPDEST SWAP3 SWAP2 POP POP JUMP JUMPDEST PUSH0 DUP2 MLOAD SWAP1 POP SWAP2 SWAP1 POP JUMP JUMPDEST PUSH0 DUP3 DUP3 MSTORE PUSH1 0x20 DUP3 ADD SWAP1 POP SWAP3 SWAP2 POP POP JUMP JUMPDEST PUSH0 DUP2 SWAP1 POP PUSH1 0x20 DUP3 ADD SWAP1 POP SWAP2 SWAP1 POP JUMP JUMPDEST PUSH2 0x2486 DUP2 PUSH2 0x2241 JUMP JUMPDEST DUP3 MSTORE POP POP JUMP JUMPDEST PUSH0 PUSH2 0x2497 DUP4 DUP4 PUSH2 0x247D JUMP JUMPDEST PUSH1 0x20 DUP4 ADD SWAP1 POP SWAP3 SWAP2 POP POP JUMP JUMPDEST PUSH0 PUSH1 0x20 DUP3 ADD SWAP1 POP SWAP2 SWAP1 POP JUMP JUMPDEST PUSH0 PUSH2 0x24B9 DUP3 PUSH2 0x2454 JUMP JUMPDEST PUSH2 0x24C3 DUP2 DUP6 PUSH2 0x245E JUMP JUMPDEST SWAP4 POP PUSH2 0x24CE DUP4 PUSH2 0x246E JUMP JUMPDEST DUP1 PUSH0 JUMPDEST DUP4 DUP2 LT ISZERO PUSH2 0x24FE JUMPI DUP2 MLOAD PUSH2 0x24E5 DUP9 DUP3 PUSH2 0x248C JUMP JUMPDEST SWAP8 POP PUSH2 0x24F0 DUP4 PUSH2 0x24A3 JUMP JUMPDEST SWAP3 POP POP PUSH1 0x1 DUP2 ADD SWAP1 POP PUSH2 0x24D1 JUMP JUMPDEST POP DUP6 SWAP4 POP POP POP POP SWAP3 SWAP2 POP POP JUMP JUMPDEST PUSH0 PUSH1 0x20 DUP3 ADD SWAP1 POP DUP2 DUP2 SUB PUSH0 DUP4 ADD MSTORE PUSH2 0x2523 DUP2 DUP5 PUSH2 0x24AF JUMP JUMPDEST SWAP1 POP SWAP3 SWAP2 POP POP JUMP JUMPDEST PUSH0 DUP2 MLOAD SWAP1 POP SWAP2 SWAP1 POP JUMP JUMPDEST PUSH0 DUP3 DUP3 MSTORE PUSH1 0x20 DUP3 ADD SWAP1 POP SWAP3 SWAP2 POP POP JUMP JUMPDEST PUSH0 DUP2 SWAP1 POP PUSH1 0x20 DUP3 ADD SWAP1 POP SWAP2 SWAP1 POP JUMP JUMPDEST PUSH2 0x255D DUP2 PUSH2 0x22A7 JUMP JUMPDEST DUP3 MSTORE POP POP JUMP JUMPDEST PUSH0 DUP3 DUP3 MSTORE PUSH1 0x20 DUP3 ADD SWAP1 POP SWAP3 SWAP2 POP POP JUMP JUMPDEST PUSH0 PUSH2 0x257D DUP3 PUSH2 0x2327 JUMP JUMPDEST PUSH2 0x2587 DUP2 DUP6 PUSH2 0x2563 JUMP JUMPDEST SWAP4 POP PUSH2 0x2597 DUP2 DUP6 PUSH1 0x20 DUP7 ADD PUSH2 0x2341 JUMP JUMPDEST PUSH2 0x25A0 DUP2 PUSH2 0x234F JUMP JUMPDEST DUP5 ADD SWAP2 POP POP SWAP3 SWAP2 POP POP JUMP JUMPDEST PUSH2 0x25B4 DUP2 PUSH2 0x23A6 JUMP JUMPDEST DUP3 MSTORE POP POP JUMP JUMPDEST PUSH0 PUSH1 0xE0 DUP4 ADD PUSH0 DUP4 ADD MLOAD PUSH2 0x25CF PUSH0 DUP7 ADD DUP3 PUSH2 0x2554 JUMP JUMPDEST POP PUSH1 0x20 DUP4 ADD MLOAD DUP5 DUP3 SUB PUSH1 0x20 DUP7 ADD MSTORE PUSH2 0x25E7 DUP3 DUP3 PUSH2 0x2573 JUMP JUMPDEST SWAP2 POP POP PUSH1 0x40 DUP4 ADD MLOAD DUP5 DUP3 SUB PUSH1 0x40 DUP7 ADD MSTORE PUSH2 0x2601 DUP3 DUP3 PUSH2 0x2573 JUMP JUMPDEST SWAP2 POP POP PUSH1 0x60 DUP4 ADD MLOAD PUSH2 0x2616 PUSH1 0x60 DUP7 ADD DUP3 PUSH2 0x247D JUMP JUMPDEST POP PUSH1 0x80 DUP4 ADD MLOAD PUSH2 0x2629 PUSH1 0x80 DUP7 ADD DUP3 PUSH2 0x2554 JUMP JUMPDEST POP PUSH1 0xA0 DUP4 ADD MLOAD PUSH2 0x263C PUSH1 0xA0 DUP7 ADD DUP3 PUSH2 0x2554 JUMP JUMPDEST POP PUSH1 0xC0 DUP4 ADD MLOAD PUSH2 0x264F PUSH1 0xC0 DUP7 ADD DUP3 PUSH2 0x25AB JUMP JUMPDEST POP DUP1 SWAP2 POP POP SWAP3 SWAP2 POP POP JUMP JUMPDEST PUSH0 PUSH2 0x2665 DUP4 DUP4 PUSH2 0x25BA JUMP JUMPDEST SWAP1 POP SWAP3 SWAP2 POP POP JUMP JUMPDEST PUSH0 PUSH1 0x20 DUP3 ADD SWAP1 POP SWAP2 SWAP1 POP JUMP JUMPDEST PUSH0 PUSH2 0x2683 DUP3 PUSH2 0x252B JUMP JUMPDEST PUSH2 0x268D DUP2 DUP6 PUSH2 0x2535 JUMP JUMPDEST SWAP4 POP DUP4 PUSH1 0x20 DUP3 MUL DUP6 ADD PUSH2 0x269F DUP6 PUSH2 0x2545 JUMP JUMPDEST DUP1 PUSH0 JUMPDEST DUP6 DUP2 LT ISZERO PUSH2 0x26DA JUMPI DUP5 DUP5 SUB DUP10 MSTORE DUP2 MLOAD PUSH2 0x26BB DUP6 DUP3 PUSH2 0x265A JUMP JUMPDEST SWAP5 POP PUSH2 0x26C6 DUP4 PUSH2 0x266D JUMP JUMPDEST SWAP3 POP PUSH1 0x20 DUP11 ADD SWAP10 POP POP PUSH1 0x1 DUP2 ADD SWAP1 POP PUSH2 0x26A2 JUMP JUMPDEST POP DUP3 SWAP8 POP DUP8 SWAP6 POP POP POP POP POP POP SWAP3 SWAP2 POP POP JUMP JUMPDEST PUSH0 PUSH1 0x20 DUP3 ADD SWAP1 POP DUP2 DUP2 SUB PUSH0 DUP4 ADD MSTORE PUSH2 0x2704 DUP2 DUP5 PUSH2 0x2679 JUMP JUMPDEST SWAP1 POP SWAP3 SWAP2 POP POP JUMP JUMPDEST PUSH0 PUSH1 0xA0 DUP3 ADD SWAP1 POP PUSH2 0x271F PUSH0 DUP4 ADD DUP9 PUSH2 0x2318 JUMP JUMPDEST DUP2 DUP2 SUB PUSH1 0x20 DUP4 ADD MSTORE PUSH2 0x2731 DUP2 DUP8 PUSH2 0x235F JUMP JUMPDEST SWAP1 POP PUSH2 0x2740 PUSH1 0x40 DUP4 ADD DUP7 PUSH2 0x2318 JUMP JUMPDEST PUSH2 0x274D PUSH1 0x60 DUP4 ADD DUP6 PUSH2 0x2397 JUMP JUMPDEST PUSH2 0x275A PUSH1 0x80 DUP4 ADD DUP5 PUSH2 0x2397 JUMP JUMPDEST SWAP7 SWAP6 POP POP POP POP POP POP JUMP JUMPDEST PUSH0 PUSH2 0x276E DUP3 PUSH2 0x2222 JUMP JUMPDEST SWAP1 POP SWAP2 SWAP1 POP JUMP JUMPDEST PUSH2 0x277E DUP2 PUSH2 0x2764 JUMP JUMPDEST DUP2 EQ PUSH2 0x2788 JUMPI PUSH0 DUP1 REVERT JUMPDEST POP JUMP JUMPDEST PUSH0 DUP2 CALLDATALOAD SWAP1 POP PUSH2 0x2799 DUP2 PUSH2 0x2775 JUMP JUMPDEST SWAP3 SWAP2 POP POP JUMP JUMPDEST PUSH0 DUP1 PUSH0 PUSH1 0x60 DUP5 DUP7 SUB SLT ISZERO PUSH2 0x27B6 JUMPI PUSH2 0x27B5 PUSH2 0x221A JUMP JUMPDEST JUMPDEST PUSH0 PUSH2 0x27C3 DUP7 DUP3 DUP8 ADD PUSH2 0x278B JUMP JUMPDEST SWAP4 POP POP PUSH1 0x20 PUSH2 0x27D4 DUP7 DUP3 DUP8 ADD PUSH2 0x22C6 JUMP JUMPDEST SWAP3 POP POP PUSH1 0x40 PUSH2 0x27E5 DUP7 DUP3 DUP8 ADD PUSH2 0x22C6 JUMP JUMPDEST SWAP2 POP POP SWAP3 POP SWAP3 POP SWAP3 JUMP JUMPDEST PUSH0 PUSH1 0x20 DUP3 ADD SWAP1 POP PUSH2 0x2802 PUSH0 DUP4 ADD DUP5 PUSH2 0x2318 JUMP JUMPDEST SWAP3 SWAP2 POP POP JUMP JUMPDEST PUSH0 PUSH1 0x80 DUP3 ADD SWAP1 POP PUSH2 0x281B PUSH0 DUP4 ADD DUP8 PUSH2 0x2397 JUMP JUMPDEST PUSH2 0x2828 PUSH1 0x20 DUP4 ADD DUP7 PUSH2 0x2318 JUMP JUMPDEST DUP2 DUP2 SUB PUSH1 0x40 DUP4 ADD MSTORE PUSH2 0x283A DUP2 DUP6 PUSH2 0x235F JUMP JUMPDEST SWAP1 POP PUSH2 0x2849 PUSH1 0x60 DUP4 ADD DUP5 PUSH2 0x2318 JUMP JUMPDEST SWAP6 SWAP5 POP POP POP POP POP JUMP JUMPDEST PUSH0 DUP1 PUSH1 0x40 DUP4 DUP6 SUB SLT ISZERO PUSH2 0x2868 JUMPI PUSH2 0x2867 PUSH2 0x221A JUMP JUMPDEST JUMPDEST PUSH0 PUSH2 0x2875 DUP6 DUP3 DUP7 ADD PUSH2 0x2268 JUMP JUMPDEST SWAP3 POP POP PUSH1 0x20 PUSH2 0x2886 DUP6 DUP3 DUP7 ADD PUSH2 0x2268 JUMP JUMPDEST SWAP2 POP POP SWAP3 POP SWAP3 SWAP1 POP JUMP JUMPDEST PUSH0 PUSH1 0x20 DUP3 ADD SWAP1 POP PUSH2 0x28A3 PUSH0 DUP4 ADD DUP5 PUSH2 0x23B1 JUMP JUMPDEST SWAP3 SWAP2 POP POP JUMP JUMPDEST PUSH0 DUP1 PUSH0 DUP1 PUSH1 0x80 DUP6 DUP8 SUB SLT ISZERO PUSH2 0x28C1 JUMPI PUSH2 0x28C0 PUSH2 0x221A JUMP JUMPDEST JUMPDEST PUSH0 PUSH2 0x28CE DUP8 DUP3 DUP9 ADD PUSH2 0x22C6 JUMP JUMPDEST SWAP5 POP POP PUSH1 0x20 PUSH2 0x28DF DUP8 DUP3 DUP9 ADD PUSH2 0x2268 JUMP JUMPDEST SWAP4 POP POP PUSH1 0x40 PUSH2 0x28F0 DUP8 DUP3 DUP9 ADD PUSH2 0x22C6 JUMP JUMPDEST SWAP3 POP POP PUSH1 0x60 PUSH2 0x2901 DUP8 DUP3 DUP9 ADD PUSH2 0x278B JUMP JUMPDEST SWAP2 POP POP SWAP3 SWAP6 SWAP2 SWAP5 POP SWAP3 POP JUMP JUMPDEST PUSH0 DUP2 MLOAD SWAP1 POP SWAP2 SWAP1 POP JUMP JUMPDEST PUSH0 DUP3 DUP3 MSTORE PUSH1 0x20 DUP3 ADD SWAP1 POP SWAP3 SWAP2 POP POP JUMP JUMPDEST PUSH0 DUP2 SWAP1 POP PUSH1 0x20 DUP3 ADD SWAP1 POP SWAP2 SWAP1 POP JUMP JUMPDEST PUSH0 PUSH1 0xA0 DUP4 ADD PUSH0 DUP4 ADD MLOAD PUSH2 0x294B PUSH0 DUP7 ADD DUP3 PUSH2 0x2554 JUMP JUMPDEST POP PUSH1 0x20 DUP4 ADD MLOAD DUP5 DUP3 SUB PUSH1 0x20 DUP7 ADD MSTORE PUSH2 0x2963 DUP3 DUP3 PUSH2 0x2573 JUMP JUMPDEST SWAP2 POP POP PUSH1 0x40 DUP4 ADD MLOAD PUSH2 0x2978 PUSH1 0x40 DUP7 ADD DUP3 PUSH2 0x2554 JUMP JUMPDEST POP PUSH1 0x60 DUP4 ADD MLOAD PUSH2 0x298B PUSH1 0x60 DUP7 ADD DUP3 PUSH2 0x247D JUMP JUMPDEST POP PUSH1 0x80 DUP4 ADD MLOAD PUSH2 0x299E PUSH1 0x80 DUP7 ADD DUP3 PUSH2 0x247D JUMP JUMPDEST POP DUP1 SWAP2 POP POP SWAP3 SWAP2 POP POP JUMP JUMPDEST PUSH0 PUSH2 0x29B4 DUP4 DUP4 PUSH2 0x2936 JUMP JUMPDEST SWAP1 POP SWAP3 SWAP2 POP POP JUMP JUMPDEST PUSH0 PUSH1 0x20 DUP3 ADD SWAP1 POP SWAP2 SWAP1 POP JUMP JUMPDEST PUSH0 PUSH2 0x29D2 DUP3 PUSH2 0x290D JUMP JUMPDEST PUSH2 0x29DC DUP2 DUP6 PUSH2 0x2917 JUMP JUMPDEST SWAP4 POP DUP4 PUSH1 0x20 DUP3 MUL DUP6 ADD PUSH2 0x29EE DUP6 PUSH2 0x2927 JUMP JUMPDEST DUP1 PUSH0 JUMPDEST DUP6 DUP2 LT ISZERO PUSH2 0x2A29 JUMPI DUP5 DUP5 SUB DUP10 MSTORE DUP2 MLOAD PUSH2 0x2A0A DUP6 DUP3 PUSH2 0x29A9 JUMP JUMPDEST SWAP5 POP PUSH2 0x2A15 DUP4 PUSH2 0x29BC JUMP JUMPDEST SWAP3 POP PUSH1 0x20 DUP11 ADD SWAP10 POP POP PUSH1 0x1 DUP2 ADD SWAP1 POP PUSH2 0x29F1 JUMP JUMPDEST POP DUP3 SWAP8 POP DUP8 SWAP6 POP POP POP POP POP POP SWAP3 SWAP2 POP POP JUMP JUMPDEST PUSH0 PUSH1 0x20 DUP3 ADD SWAP1 POP DUP2 DUP2 SUB PUSH0 DUP4 ADD MSTORE PUSH2 0x2A53 DUP2 DUP5 PUSH2 0x29C8 JUMP JUMPDEST SWAP1 POP SWAP3 SWAP2 POP POP JUMP JUMPDEST PUSH0 DUP2 MLOAD SWAP1 POP SWAP2 SWAP1 POP JUMP JUMPDEST PUSH0 DUP3 DUP3 MSTORE PUSH1 0x20 DUP3 ADD SWAP1 POP SWAP3 SWAP2 POP POP JUMP JUMPDEST PUSH0 DUP2 SWAP1 POP PUSH1 0x20 DUP3 ADD SWAP1 POP SWAP2 SWAP1 POP JUMP JUMPDEST PUSH0 PUSH1 0x80 DUP4 ADD PUSH0 DUP4 ADD MLOAD PUSH2 0x2A99 PUSH0 DUP7 ADD DUP3 PUSH2 0x247D JUMP JUMPDEST POP PUSH1 0x20 DUP4 ADD MLOAD PUSH2 0x2AAC PUSH1 0x20 DUP7 ADD DUP3 PUSH2 0x2554 JUMP JUMPDEST POP PUSH1 0x40 DUP4 ADD MLOAD DUP5 DUP3 SUB PUSH1 0x40 DUP7 ADD MSTORE PUSH2 0x2AC4 DUP3 DUP3 PUSH2 0x2573 JUMP JUMPDEST SWAP2 POP POP PUSH1 0x60 DUP4 ADD MLOAD PUSH2 0x2AD9 PUSH1 0x60 DUP7 ADD DUP3 PUSH2 0x2554 JUMP JUMPDEST POP DUP1 SWAP2 POP POP SWAP3 SWAP2 POP POP JUMP JUMPDEST PUSH0 PUSH2 0x2AEF DUP4 DUP4 PUSH2 0x2A84 JUMP JUMPDEST SWAP1 POP SWAP3 SWAP2 POP POP JUMP JUMPDEST PUSH0 PUSH1 0x20 DUP3 ADD SWAP1 POP SWAP2 SWAP1 POP JUMP JUMPDEST PUSH0 PUSH2 0x2B0D DUP3 PUSH2 0x2A5B JUMP JUMPDEST PUSH2 0x2B17 DUP2 DUP6 PUSH2 0x2A65 JUMP JUMPDEST SWAP4 POP DUP4 PUSH1 0x20 DUP3 MUL DUP6 ADD PUSH2 0x2B29 DUP6 PUSH2 0x2A75 JUMP JUMPDEST DUP1 PUSH0 JUMPDEST DUP6 DUP2 LT ISZERO PUSH2 0x2B64 JUMPI DUP5 DUP5 SUB DUP10 MSTORE DUP2 MLOAD PUSH2 0x2B45 DUP6 DUP3 PUSH2 0x2AE4 JUMP JUMPDEST SWAP5 POP PUSH2 0x2B50 DUP4 PUSH2 0x2AF7 JUMP JUMPDEST SWAP3 POP PUSH1 0x20 DUP11 ADD SWAP10 POP POP PUSH1 0x1 DUP2 ADD SWAP1 POP PUSH2 0x2B2C JUMP JUMPDEST POP DUP3 SWAP8 POP DUP8 SWAP6 POP POP POP POP POP POP SWAP3 SWAP2 POP POP JUMP JUMPDEST PUSH0 PUSH1 0x20 DUP3 ADD SWAP1 POP DUP2 DUP2 SUB PUSH0 DUP4 ADD MSTORE PUSH2 0x2B8E DUP2 DUP5 PUSH2 0x2B03 JUMP JUMPDEST SWAP1 POP SWAP3 SWAP2 POP POP JUMP JUMPDEST PUSH0 DUP1 REVERT JUMPDEST PUSH0 DUP1 REVERT JUMPDEST PUSH32 0x4E487B7100000000000000000000000000000000000000000000000000000000 PUSH0 MSTORE PUSH1 0x41 PUSH1 0x4 MSTORE PUSH1 0x24 PUSH0 REVERT JUMPDEST PUSH2 0x2BD4 DUP3 PUSH2 0x234F JUMP JUMPDEST DUP2 ADD DUP2 DUP2 LT PUSH8 0xFFFFFFFFFFFFFFFF DUP3 GT OR ISZERO PUSH2 0x2BF3 JUMPI PUSH2 0x2BF2 PUSH2 0x2B9E JUMP JUMPDEST JUMPDEST DUP1 PUSH1 0x40 MSTORE POP POP POP JUMP JUMPDEST PUSH0 PUSH2 0x2C05 PUSH2 0x2211 JUMP JUMPDEST SWAP1 POP PUSH2 0x2C11 DUP3 DUP3 PUSH2 0x2BCB JUMP JUMPDEST SWAP2 SWAP1 POP JUMP JUMPDEST PUSH0 PUSH8 0xFFFFFFFFFFFFFFFF DUP3 GT ISZERO PUSH2 0x2C30 JUMPI PUSH2 0x2C2F PUSH2 0x2B9E JUMP JUMPDEST JUMPDEST PUSH2 0x2C39 DUP3 PUSH2 0x234F JUMP JUMPDEST SWAP1 POP PUSH1 0x20 DUP2 ADD SWAP1 POP SWAP2 SWAP1 POP JUMP JUMPDEST DUP3 DUP2 DUP4 CALLDATACOPY PUSH0 DUP4 DUP4 ADD MSTORE POP POP POP JUMP JUMPDEST PUSH0 PUSH2 0x2C66 PUSH2 0x2C61 DUP5 PUSH2 0x2C16 JUMP JUMPDEST PUSH2 0x2BFC JUMP JUMPDEST SWAP1 POP DUP3 DUP2 MSTORE PUSH1 0x20 DUP2 ADD DUP5 DUP5 DUP5 ADD GT ISZERO PUSH2 0x2C82 JUMPI PUSH2 0x2C81 PUSH2 0x2B9A JUMP JUMPDEST JUMPDEST PUSH2 0x2C8D DUP5 DUP3 DUP6 PUSH2 0x2C46 JUMP JUMPDEST POP SWAP4 SWAP3 POP POP POP JUMP JUMPDEST PUSH0 DUP3 PUSH1 0x1F DUP4 ADD SLT PUSH2 0x2CA9 JUMPI PUSH2 0x2CA8 PUSH2 0x2B96 JUMP JUMPDEST JUMPDEST DUP2 CALLDATALOAD PUSH2 0x2CB9 DUP5 DUP3 PUSH1 0x20 DUP7 ADD PUSH2 0x2C54 JUMP JUMPDEST SWAP2 POP POP SWAP3 SWAP2 POP POP JUMP JUMPDEST PUSH0 DUP1 PUSH0 PUSH1 0x60 DUP5 DUP7 SUB SLT ISZERO PUSH2 0x2CD9 JUMPI PUSH2 0x2CD8 PUSH2 0x221A JUMP JUMPDEST JUMPDEST PUSH0 DUP5 ADD CALLDATALOAD PUSH8 0xFFFFFFFFFFFFFFFF DUP2 GT ISZERO PUSH2 0x2CF6 JUMPI PUSH2 0x2CF5 PUSH2 0x221E JUMP JUMPDEST JUMPDEST PUSH2 0x2D02 DUP7 DUP3 DUP8 ADD PUSH2 0x2C95 JUMP JUMPDEST SWAP4 POP POP PUSH1 0x20 DUP5 ADD CALLDATALOAD PUSH8 0xFFFFFFFFFFFFFFFF DUP2 GT ISZERO PUSH2 0x2D23 JUMPI PUSH2 0x2D22 PUSH2 0x221E JUMP JUMPDEST JUMPDEST PUSH2 0x2D2F DUP7 DUP3 DUP8 ADD PUSH2 0x2C95 JUMP JUMPDEST SWAP3 POP POP PUSH1 0x40 PUSH2 0x2D40 DUP7 DUP3 DUP8 ADD PUSH2 0x22C6 JUMP JUMPDEST SWAP2 POP POP SWAP3 POP SWAP3 POP SWAP3 JUMP JUMPDEST PUSH32 0x5468652043616D706169676E65642053706563696669656420446F6573204E6F PUSH0 DUP3 ADD MSTORE PUSH32 0x7420457869737421000000000000000000000000000000000000000000000000 PUSH1 0x20 DUP3 ADD MSTORE POP JUMP JUMPDEST PUSH0 PUSH2 0x2DA4 PUSH1 0x28 DUP4 PUSH2 0x2331 JUMP JUMPDEST SWAP2 POP PUSH2 0x2DAF DUP3 PUSH2 0x2D4A JUMP JUMPDEST PUSH1 0x40 DUP3 ADD SWAP1 POP SWAP2 SWAP1 POP JUMP JUMPDEST PUSH0 PUSH1 0x20 DUP3 ADD SWAP1 POP DUP2 DUP2 SUB PUSH0 DUP4 ADD MSTORE PUSH2 0x2DD1 DUP2 PUSH2 0x2D98 JUMP JUMPDEST SWAP1 POP SWAP2 SWAP1 POP JUMP JUMPDEST PUSH32 0x4E487B7100000000000000000000000000000000000000000000000000000000 PUSH0 MSTORE PUSH1 0x22 PUSH1 0x4 MSTORE PUSH1 0x24 PUSH0 REVERT JUMPDEST PUSH0 PUSH1 0x2 DUP3 DIV SWAP1 POP PUSH1 0x1 DUP3 AND DUP1 PUSH2 0x2E1C JUMPI PUSH1 0x7F DUP3 AND SWAP2 POP JUMPDEST PUSH1 0x20 DUP3 LT DUP2 SUB PUSH2 0x2E2F JUMPI PUSH2 0x2E2E PUSH2 0x2DD8 JUMP JUMPDEST JUMPDEST POP SWAP2 SWAP1 POP JUMP JUMPDEST PUSH32 0x4E487B7100000000000000000000000000000000000000000000000000000000 PUSH0 MSTORE PUSH1 0x11 PUSH1 0x4 MSTORE PUSH1 0x24 PUSH0 REVERT JUMPDEST PUSH0 PUSH2 0x2E6C DUP3 PUSH2 0x22A7 JUMP JUMPDEST SWAP2 POP PUSH2 0x2E77 DUP4 PUSH2 0x22A7 JUMP JUMPDEST SWAP3 POP DUP3 DUP3 SUB SWAP1 POP DUP2 DUP2 GT ISZERO PUSH2 0x2E8F JUMPI PUSH2 0x2E8E PUSH2 0x2E35 JUMP JUMPDEST JUMPDEST SWAP3 SWAP2 POP POP JUMP JUMPDEST PUSH32 0x4E487B7100000000000000000000000000000000000000000000000000000000 PUSH0 MSTORE PUSH1 0x32 PUSH1 0x4 MSTORE PUSH1 0x24 PUSH0 REVERT JUMPDEST PUSH0 DUP2 SWAP1 POP SWAP3 SWAP2 POP POP JUMP JUMPDEST PUSH32 0x5468652043616D706169676E2000000000000000000000000000000000000000 PUSH0 DUP3 ADD MSTORE POP JUMP JUMPDEST PUSH0 PUSH2 0x2F00 PUSH1 0xD DUP4 PUSH2 0x2EC2 JUMP JUMPDEST SWAP2 POP PUSH2 0x2F0B DUP3 PUSH2 0x2ECC JUMP JUMPDEST PUSH1 0xD DUP3 ADD SWAP1 POP SWAP2 SWAP1 POP JUMP JUMPDEST PUSH0 DUP2 SWAP1 POP SWAP2 SWAP1 POP JUMP JUMPDEST PUSH2 0x2F30 PUSH2 0x2F2B DUP3 PUSH2 0x22A7 JUMP JUMPDEST PUSH2 0x2F16 JUMP JUMPDEST DUP3 MSTORE POP POP JUMP JUMPDEST PUSH32 0x20446F6573204E4F542045786973742100000000000000000000000000000000 PUSH0 DUP3 ADD MSTORE POP JUMP JUMPDEST PUSH0 PUSH2 0x2F6A PUSH1 0x10 DUP4 PUSH2 0x2EC2 JUMP JUMPDEST SWAP2 POP PUSH2 0x2F75 DUP3 PUSH2 0x2F36 JUMP JUMPDEST PUSH1 0x10 DUP3 ADD SWAP1 POP SWAP2 SWAP1 POP JUMP JUMPDEST PUSH0 PUSH2 0x2F8A DUP3 PUSH2 0x2EF4 JUMP JUMPDEST SWAP2 POP PUSH2 0x2F96 DUP3 DUP5 PUSH2 0x2F1F JUMP JUMPDEST PUSH1 0x20 DUP3 ADD SWAP2 POP PUSH2 0x2FA5 DUP3 PUSH2 0x2F5E JUMP JUMPDEST SWAP2 POP DUP2 SWAP1 POP SWAP3 SWAP2 POP POP JUMP JUMPDEST PUSH0 PUSH1 0x20 DUP3 ADD SWAP1 POP DUP2 DUP2 SUB PUSH0 DUP4 ADD MSTORE PUSH2 0x2FC8 DUP2 DUP5 PUSH2 0x235F JUMP JUMPDEST SWAP1 POP SWAP3 SWAP2 POP POP JUMP JUMPDEST PUSH32 0x2700000000000000000000000000000000000000000000000000000000000000 PUSH0 DUP3 ADD MSTORE POP JUMP JUMPDEST PUSH0 PUSH2 0x3004 PUSH1 0x1 DUP4 PUSH2 0x2EC2 JUMP JUMPDEST SWAP2 POP PUSH2 0x300F DUP3 PUSH2 0x2FD0 JUMP JUMPDEST PUSH1 0x1 DUP3 ADD SWAP1 POP SWAP2 SWAP1 POP JUMP JUMPDEST PUSH0 DUP2 SWAP1 POP DUP2 PUSH0 MSTORE PUSH1 0x20 PUSH0 KECCAK256 SWAP1 POP SWAP2 SWAP1 POP JUMP JUMPDEST PUSH0 DUP2 SLOAD PUSH2 0x3038 DUP2 PUSH2 0x2E05 JUMP JUMPDEST PUSH2 0x3042 DUP2 DUP7 PUSH2 0x2EC2 JUMP JUMPDEST SWAP5 POP PUSH1 0x1 DUP3 AND PUSH0 DUP2 EQ PUSH2 0x305C JUMPI PUSH1 0x1 DUP2 EQ PUSH2 0x3071 JUMPI PUSH2 0x30A3 JUMP JUMPDEST PUSH1 0xFF NOT DUP4 AND DUP7 MSTORE DUP2 ISZERO ISZERO DUP3 MUL DUP7 ADD SWAP4 POP PUSH2 0x30A3 JUMP JUMPDEST PUSH2 0x307A DUP6 PUSH2 0x301A JUMP JUMPDEST PUSH0 JUMPDEST DUP4 DUP2 LT ISZERO PUSH2 0x309B JUMPI DUP2 SLOAD DUP2 DUP10 ADD MSTORE PUSH1 0x1 DUP3 ADD SWAP2 POP PUSH1 0x20 DUP2 ADD SWAP1 POP PUSH2 0x307C JUMP JUMPDEST DUP4 DUP9 ADD SWAP6 POP POP POP JUMPDEST POP POP POP SWAP3 SWAP2 POP POP JUMP JUMPDEST PUSH32 0x272043616D706169676E2057617320436F6D706C657465642100000000000000 PUSH0 DUP3 ADD MSTORE POP JUMP JUMPDEST PUSH0 PUSH2 0x30E0 PUSH1 0x19 DUP4 PUSH2 0x2EC2 JUMP JUMPDEST SWAP2 POP PUSH2 0x30EB DUP3 PUSH2 0x30AC JUMP JUMPDEST PUSH1 0x19 DUP3 ADD SWAP1 POP SWAP2 SWAP1 POP JUMP JUMPDEST PUSH0 PUSH2 0x3100 DUP3 PUSH2 0x2FF8 JUMP JUMPDEST SWAP2 POP PUSH2 0x310C DUP3 DUP5 PUSH2 0x302C JUMP JUMPDEST SWAP2 POP PUSH2 0x3117 DUP3 PUSH2 0x30D4 JUMP JUMPDEST SWAP2 POP DUP2 SWAP1 POP SWAP3 SWAP2 POP POP JUMP JUMPDEST PUSH32 0x416D6F756E742043616E6E6F74206265205A65726F0000000000000000000000 PUSH0 DUP3 ADD MSTORE POP JUMP JUMPDEST PUSH0 PUSH2 0x3156 PUSH1 0x15 DUP4 PUSH2 0x2331 JUMP JUMPDEST SWAP2 POP PUSH2 0x3161 DUP3 PUSH2 0x3122 JUMP JUMPDEST PUSH1 0x20 DUP3 ADD SWAP1 POP SWAP2 SWAP1 POP JUMP JUMPDEST PUSH0 PUSH1 0x20 DUP3 ADD SWAP1 POP DUP2 DUP2 SUB PUSH0 DUP4 ADD MSTORE PUSH2 0x3183 DUP2 PUSH2 0x314A JUMP JUMPDEST SWAP1 POP SWAP2 SWAP1 POP JUMP JUMPDEST PUSH32 0x54686520416D6F756E7420646F65736E2774204D617463682100000000000000 PUSH0 DUP3 ADD MSTORE POP JUMP JUMPDEST PUSH0 PUSH2 0x31BE PUSH1 0x19 DUP4 PUSH2 0x2331 JUMP JUMPDEST SWAP2 POP PUSH2 0x31C9 DUP3 PUSH2 0x318A JUMP JUMPDEST PUSH1 0x20 DUP3 ADD SWAP1 POP SWAP2 SWAP1 POP JUMP JUMPDEST PUSH0 PUSH1 0x20 DUP3 ADD SWAP1 POP DUP2 DUP2 SUB PUSH0 DUP4 ADD MSTORE PUSH2 0x31EB DUP2 PUSH2 0x31B2 JUMP JUMPDEST SWAP1 POP SWAP2 SWAP1 POP JUMP JUMPDEST PUSH0 PUSH2 0x31FC DUP3 PUSH2 0x22A7 JUMP JUMPDEST SWAP2 POP PUSH2 0x3207 DUP4 PUSH2 0x22A7 JUMP JUMPDEST SWAP3 POP DUP3 DUP3 ADD SWAP1 POP DUP1 DUP3 GT ISZERO PUSH2 0x321F JUMPI PUSH2 0x321E PUSH2 0x2E35 JUMP JUMPDEST JUMPDEST SWAP3 SWAP2 POP POP JUMP JUMPDEST PUSH0 DUP2 SWAP1 POP SWAP2 SWAP1 POP JUMP JUMPDEST PUSH0 PUSH2 0x3248 PUSH2 0x3243 PUSH2 0x323E DUP5 PUSH2 0x2222 JUMP JUMPDEST PUSH2 0x3225 JUMP JUMPDEST PUSH2 0x2222 JUMP JUMPDEST SWAP1 POP SWAP2 SWAP1 POP JUMP JUMPDEST PUSH0 PUSH2 0x3259 DUP3 PUSH2 0x322E JUMP JUMPDEST SWAP1 POP SWAP2 SWAP1 POP JUMP JUMPDEST PUSH0 PUSH2 0x326A DUP3 PUSH2 0x324F JUMP JUMPDEST SWAP1 POP SWAP2 SWAP1 POP JUMP JUMPDEST PUSH2 0x327A DUP2 PUSH2 0x3260 JUMP JUMPDEST DUP3 MSTORE POP POP JUMP JUMPDEST PUSH0 PUSH1 0x40 DUP3 ADD SWAP1 POP PUSH2 0x3293 PUSH0 DUP4 ADD DUP6 PUSH2 0x3271 JUMP JUMPDEST PUSH2 0x32A0 PUSH1 0x20 DUP4 ADD DUP5 PUSH2 0x2318 JUMP JUMPDEST SWAP4 SWAP3 POP POP POP JUMP JUMPDEST PUSH0 PUSH1 0x20 PUSH1 0x1F DUP4 ADD DIV SWAP1 POP SWAP2 SWAP1 POP JUMP JUMPDEST PUSH0 DUP3 DUP3 SHL SWAP1 POP SWAP3 SWAP2 POP POP JUMP JUMPDEST PUSH0 PUSH1 0x8 DUP4 MUL PUSH2 0x32F1 PUSH32 0xFFFFFFFFFFFFFFFFFFFFFFFFFFFFFFFFFFFFFFFFFFFFFFFFFFFFFFFFFFFFFFFF DUP3 PUSH2 0x32B6 JUMP JUMPDEST PUSH2 0x32FB DUP7 DUP4 PUSH2 0x32B6 JUMP JUMPDEST SWAP6 POP DUP1 NOT DUP5 AND SWAP4 POP DUP1 DUP7 AND DUP5 OR SWAP3 POP POP POP SWAP4 SWAP3 POP POP POP JUMP JUMPDEST PUSH0 PUSH2 0x332D PUSH2 0x3328 PUSH2 0x3323 DUP5 PUSH2 0x22A7 JUMP JUMPDEST PUSH2 0x3225 JUMP JUMPDEST PUSH2 0x22A7 JUMP JUMPDEST SWAP1 POP SWAP2 SWAP1 POP JUMP JUMPDEST PUSH0 DUP2 SWAP1 POP SWAP2 SWAP1 POP JUMP JUMPDEST PUSH2 0x3346 DUP4 PUSH2 0x3313 JUMP JUMPDEST PUSH2 0x335A PUSH2 0x3352 DUP3 PUSH2 0x3334 JUMP JUMPDEST DUP5 DUP5 SLOAD PUSH2 0x32C2 JUMP JUMPDEST DUP3 SSTORE POP POP POP POP JUMP JUMPDEST PUSH0 SWAP1 JUMP JUMPDEST PUSH2 0x336E PUSH2 0x3362 JUMP JUMPDEST PUSH2 0x3379 DUP2 DUP5 DUP5 PUSH2 0x333D JUMP JUMPDEST POP POP POP JUMP JUMPDEST JUMPDEST DUP2 DUP2 LT ISZERO PUSH2 0x339C JUMPI PUSH2 0x3391 PUSH0 DUP3 PUSH2 0x3366 JUMP JUMPDEST PUSH1 0x1 DUP2 ADD SWAP1 POP PUSH2 0x337F JUMP JUMPDEST POP POP JUMP JUMPDEST PUSH1 0x1F DUP3 GT ISZERO PUSH2 0x33E1 JUMPI PUSH2 0x33B2 DUP2 PUSH2 0x301A JUMP JUMPDEST PUSH2 0x33BB DUP5 PUSH2 0x32A7 JUMP JUMPDEST DUP2 ADD PUSH1 0x20 DUP6 LT ISZERO PUSH2 0x33CA JUMPI DUP2 SWAP1 POP JUMPDEST PUSH2 0x33DE PUSH2 0x33D6 DUP6 PUSH2 0x32A7 JUMP JUMPDEST DUP4 ADD DUP3 PUSH2 0x337E JUMP JUMPDEST POP POP JUMPDEST POP POP POP JUMP JUMPDEST PUSH0 DUP3 DUP3 SHR SWAP1 POP SWAP3 SWAP2 POP POP JUMP JUMPDEST PUSH0 PUSH2 0x3401 PUSH0 NOT DUP5 PUSH1 0x8 MUL PUSH2 0x33E6 JUMP JUMPDEST NOT DUP1 DUP4 AND SWAP2 POP POP SWAP3 SWAP2 POP POP JUMP JUMPDEST PUSH0 PUSH2 0x3419 DUP4 DUP4 PUSH2 0x33F2 JUMP JUMPDEST SWAP2 POP DUP3 PUSH1 0x2 MUL DUP3 OR SWAP1 POP SWAP3 SWAP2 POP POP JUMP JUMPDEST PUSH2 0x3432 DUP3 PUSH2 0x2327 JUMP JUMPDEST PUSH8 0xFFFFFFFFFFFFFFFF DUP2 GT ISZERO PUSH2 0x344B JUMPI PUSH2 0x344A PUSH2 0x2B9E JUMP JUMPDEST JUMPDEST PUSH2 0x3455 DUP3 SLOAD PUSH2 0x2E05 JUMP JUMPDEST PUSH2 0x3460 DUP3 DUP3 DUP6 PUSH2 0x33A0 JUMP JUMPDEST PUSH0 PUSH1 0x20 SWAP1 POP PUSH1 0x1F DUP4 GT PUSH1 0x1 DUP2 EQ PUSH2 0x3491 JUMPI PUSH0 DUP5 ISZERO PUSH2 0x347F JUMPI DUP3 DUP8 ADD MLOAD SWAP1 POP JUMPDEST PUSH2 0x3489 DUP6 DUP3 PUSH2 0x340E JUMP JUMPDEST DUP7 SSTORE POP PUSH2 0x34F0 JUMP JUMPDEST PUSH1 0x1F NOT DUP5 AND PUSH2 0x349F DUP7 PUSH2 0x301A JUMP JUMPDEST PUSH0 JUMPDEST DUP3 DUP2 LT ISZERO PUSH2 0x34C6 JUMPI DUP5 DUP10 ADD MLOAD DUP3 SSTORE PUSH1 0x1 DUP3 ADD SWAP2 POP PUSH1 0x20 DUP6 ADD SWAP5 POP PUSH1 0x20 DUP2 ADD SWAP1 POP PUSH2 0x34A1 JUMP JUMPDEST DUP7 DUP4 LT ISZERO PUSH2 0x34E3 JUMPI DUP5 DUP10 ADD MLOAD PUSH2 0x34DF PUSH1 0x1F DUP10 AND DUP3 PUSH2 0x33F2 JUMP JUMPDEST DUP4 SSTORE POP JUMPDEST PUSH1 0x1 PUSH1 0x2 DUP9 MUL ADD DUP9 SSTORE POP POP POP JUMPDEST POP POP POP POP POP POP JUMP JUMPDEST PUSH0 PUSH1 0x80 DUP3 ADD SWAP1 POP PUSH2 0x350B PUSH0 DUP4 ADD DUP8 PUSH2 0x2397 JUMP JUMPDEST PUSH2 0x3518 PUSH1 0x20 DUP4 ADD DUP7 PUSH2 0x2318 JUMP JUMPDEST PUSH2 0x3525 PUSH1 0x40 DUP4 ADD DUP6 PUSH2 0x3271 JUMP JUMPDEST PUSH2 0x3532 PUSH1 0x60 DUP4 ADD DUP5 PUSH2 0x2318 JUMP JUMPDEST SWAP6 SWAP5 POP POP POP POP POP JUMP JUMPDEST PUSH32 0x5468657265204973204E6F2043616D706169676E204279205468617420616464 PUSH0 DUP3 ADD MSTORE PUSH32 0x7265737321000000000000000000000000000000000000000000000000000000 PUSH1 0x20 DUP3 ADD MSTORE POP JUMP JUMPDEST PUSH0 PUSH2 0x3595 PUSH1 0x25 DUP4 PUSH2 0x2331 JUMP JUMPDEST SWAP2 POP PUSH2 0x35A0 DUP3 PUSH2 0x353B JUMP JUMPDEST PUSH1 0x40 DUP3 ADD SWAP1 POP SWAP2 SWAP1 POP JUMP JUMPDEST PUSH0 PUSH1 0x20 DUP3 ADD SWAP1 POP DUP2 DUP2 SUB PUSH0 DUP4 ADD MSTORE PUSH2 0x35C2 DUP2 PUSH2 0x3589 JUMP JUMPDEST SWAP1 POP SWAP2 SWAP1 POP JUMP JUMPDEST PUSH32 0x5468652043616D706169676E2053706563696669656420446F6573204E6F7420 PUSH0 DUP3 ADD MSTORE PUSH32 0x4578697374210000000000000000000000000000000000000000000000000000 PUSH1 0x20 DUP3 ADD MSTORE POP JUMP JUMPDEST PUSH0 PUSH2 0x3623 PUSH1 0x26 DUP4 PUSH2 0x2331 JUMP JUMPDEST SWAP2 POP PUSH2 0x362E DUP3 PUSH2 0x35C9 JUMP JUMPDEST PUSH1 0x40 DUP3 ADD SWAP1 POP SWAP2 SWAP1 POP JUMP JUMPDEST PUSH0 PUSH1 0x20 DUP3 ADD SWAP1 POP DUP2 DUP2 SUB PUSH0 DUP4 ADD MSTORE PUSH2 0x3650 DUP2 PUSH2 0x3617 JUMP JUMPDEST SWAP1 POP SWAP2 SWAP1 POP JUMP JUMPDEST PUSH32 0x4F6E6C792041646D696E732043616E20506572666F726D205468697320416374 PUSH0 DUP3 ADD MSTORE PUSH32 0x696F6E2100000000000000000000000000000000000000000000000000000000 PUSH1 0x20 DUP3 ADD MSTORE POP JUMP JUMPDEST PUSH0 PUSH2 0x36B1 PUSH1 0x24 DUP4 PUSH2 0x2331 JUMP JUMPDEST SWAP2 POP PUSH2 0x36BC DUP3 PUSH2 0x3657 JUMP JUMPDEST PUSH1 0x40 DUP3 ADD SWAP1 POP SWAP2 SWAP1 POP JUMP JUMPDEST PUSH0 PUSH1 0x20 DUP3 ADD SWAP1 POP DUP2 DUP2 SUB PUSH0 DUP4 ADD MSTORE PUSH2 0x36DE DUP2 PUSH2 0x36A5 JUMP JUMPDEST SWAP1 POP SWAP2 SWAP1 POP JUMP JUMPDEST PUSH32 0x416D6F756E742043616E6E6F74206265205A65726F204F722045786365656420 PUSH0 DUP3 ADD MSTORE PUSH32 0x5468652052616973656420416D6F756E74210000000000000000000000000000 PUSH1 0x20 DUP3 ADD MSTORE POP JUMP JUMPDEST PUSH0 PUSH2 0x373F PUSH1 0x32 DUP4 PUSH2 0x2331 JUMP JUMPDEST SWAP2 POP PUSH2 0x374A DUP3 PUSH2 0x36E5 JUMP JUMPDEST PUSH1 0x40 DUP3 ADD SWAP1 POP SWAP2 SWAP1 POP JUMP JUMPDEST PUSH0 PUSH1 0x20 DUP3 ADD SWAP1 POP DUP2 DUP2 SUB PUSH0 DUP4 ADD MSTORE PUSH2 0x376C DUP2 PUSH2 0x3733 JUMP JUMPDEST SWAP1 POP SWAP2 SWAP1 POP JUMP JUMPDEST PUSH32 0x596F752043616E27742057697468647261772046756E64732066726F6D20616E PUSH0 DUP3 ADD MSTORE PUSH32 0x204163746976652043616D706169676E00000000000000000000000000000000 PUSH1 0x20 DUP3 ADD MSTORE POP JUMP JUMPDEST PUSH0 PUSH2 0x37CD PUSH1 0x30 DUP4 PUSH2 0x2331 JUMP JUMPDEST SWAP2 POP PUSH2 0x37D8 DUP3 PUSH2 0x3773 JUMP JUMPDEST PUSH1 0x40 DUP3 ADD SWAP1 POP SWAP2 SWAP1 POP JUMP JUMPDEST PUSH0 PUSH1 0x20 DUP3 ADD SWAP1 POP DUP2 DUP2 SUB PUSH0 DUP4 ADD MSTORE PUSH2 0x37FA DUP2 PUSH2 0x37C1 JUMP JUMPDEST SWAP1 POP SWAP2 SWAP1 POP JUMP JUMPDEST PUSH32 0x496E73756666696369656E7420636F6E74726163742062616C616E6365000000 PUSH0 DUP3 ADD MSTORE POP JUMP JUMPDEST PUSH0 PUSH2 0x3835 PUSH1 0x1D DUP4 PUSH2 0x2331 JUMP JUMPDEST SWAP2 POP PUSH2 0x3840 DUP3 PUSH2 0x3801 JUMP JUMPDEST PUSH1 0x20 DUP3 ADD SWAP1 POP SWAP2 SWAP1 POP JUMP JUMPDEST PUSH0 PUSH1 0x20 DUP3 ADD SWAP1 POP DUP2 DUP2 SUB PUSH0 DUP4 ADD MSTORE PUSH2 0x3862 DUP2 PUSH2 0x3829 JUMP JUMPDEST SWAP1 POP SWAP2 SWAP1 POP JUMP JUMPDEST PUSH0 DUP2 SWAP1 POP SWAP3 SWAP2 POP POP JUMP JUMPDEST POP JUMP JUMPDEST PUSH0 PUSH2 0x3881 PUSH0 DUP4 PUSH2 0x3869 JUMP JUMPDEST SWAP2 POP PUSH2 0x388C DUP3 PUSH2 0x3873 JUMP JUMPDEST PUSH0 DUP3 ADD SWAP1 POP SWAP2 SWAP1 POP JUMP JUMPDEST PUSH0 PUSH2 0x38A0 DUP3 PUSH2 0x3876 JUMP JUMPDEST SWAP2 POP DUP2 SWAP1 POP SWAP2 SWAP1 POP JUMP JUMPDEST PUSH32 0x5472616E73666572206661696C65640000000000000000000000000000000000 PUSH0 DUP3 ADD MSTORE POP JUMP JUMPDEST PUSH0 PUSH2 0x38DE PUSH1 0xF DUP4 PUSH2 0x2331 JUMP JUMPDEST SWAP2 POP PUSH2 0x38E9 DUP3 PUSH2 0x38AA JUMP JUMPDEST PUSH1 0x20 DUP3 ADD SWAP1 POP SWAP2 SWAP1 POP JUMP JUMPDEST PUSH0 PUSH1 0x20 DUP3 ADD SWAP1 POP DUP2 DUP2 SUB PUSH0 DUP4 ADD MSTORE PUSH2 0x390B DUP2 PUSH2 0x38D2 JUMP JUMPDEST SWAP1 POP SWAP2 SWAP1 POP JUMP JUMPDEST PUSH0 PUSH1 0xA0 DUP3 ADD SWAP1 POP PUSH2 0x3925 PUSH0 DUP4 ADD DUP9 PUSH2 0x2318 JUMP JUMPDEST PUSH2 0x3932 PUSH1 0x20 DUP4 ADD DUP8 PUSH2 0x2397 JUMP JUMPDEST PUSH2 0x393F PUSH1 0x40 DUP4 ADD DUP7 PUSH2 0x3271 JUMP JUMPDEST PUSH2 0x394C PUSH1 0x60 DUP4 ADD DUP6 PUSH2 0x2397 JUMP JUMPDEST PUSH2 0x3959 PUSH1 0x80 DUP4 ADD DUP5 PUSH2 0x2318 JUMP JUMPDEST SWAP7 SWAP6 POP POP POP POP POP POP JUMP JUMPDEST PUSH0 PUSH2 0x396D DUP3 PUSH2 0x2327 JUMP JUMPDEST PUSH2 0x3977 DUP2 DUP6 PUSH2 0x2EC2 JUMP JUMPDEST SWAP4 POP PUSH2 0x3987 DUP2 DUP6 PUSH1 0x20 DUP7 ADD PUSH2 0x2341 JUMP JUMPDEST DUP1 DUP5 ADD SWAP2 POP POP SWAP3 SWAP2 POP POP JUMP JUMPDEST PUSH0 PUSH2 0x399E DUP3 DUP5 PUSH2 0x3963 JUMP JUMPDEST SWAP2 POP DUP2 SWAP1 POP SWAP3 SWAP2 POP POP JUMP JUMPDEST PUSH0 DUP2 SWAP1 POP DUP2 PUSH0 MSTORE PUSH1 0x20 PUSH0 KECCAK256 SWAP1 POP SWAP2 SWAP1 POP JUMP JUMPDEST PUSH0 DUP2 SLOAD PUSH2 0x39C7 DUP2 PUSH2 0x2E05 JUMP JUMPDEST PUSH2 0x39D1 DUP2 DUP7 PUSH2 0x2EC2 JUMP JUMPDEST SWAP5 POP PUSH1 0x1 DUP3 AND PUSH0 DUP2 EQ PUSH2 0x39EB JUMPI PUSH1 0x1 DUP2 EQ PUSH2 0x3A00 JUMPI PUSH2 0x3A32 JUMP JUMPDEST PUSH1 0xFF NOT DUP4 AND DUP7 MSTORE DUP2 ISZERO ISZERO DUP3 MUL DUP7 ADD SWAP4 POP PUSH2 0x3A32 JUMP JUMPDEST PUSH2 0x3A09 DUP6 PUSH2 0x39A9 JUMP JUMPDEST PUSH0 JUMPDEST DUP4 DUP2 LT ISZERO PUSH2 0x3A2A JUMPI DUP2 SLOAD DUP2 DUP10 ADD MSTORE PUSH1 0x1 DUP3 ADD SWAP2 POP PUSH1 0x20 DUP2 ADD SWAP1 POP PUSH2 0x3A0B JUMP JUMPDEST DUP4 DUP9 ADD SWAP6 POP POP POP JUMPDEST POP POP POP SWAP3 SWAP2 POP POP JUMP JUMPDEST PUSH0 PUSH2 0x3A46 DUP3 DUP5 PUSH2 0x39BB JUMP JUMPDEST SWAP2 POP DUP2 SWAP1 POP SWAP3 SWAP2 POP POP JUMP JUMPDEST PUSH32 0x43616D706169676E200000000000000000000000000000000000000000000000 PUSH0 DUP3 ADD MSTORE POP JUMP JUMPDEST PUSH0 PUSH2 0x3A85 PUSH1 0x9 DUP4 PUSH2 0x2EC2 JUMP JUMPDEST SWAP2 POP PUSH2 0x3A90 DUP3 PUSH2 0x3A51 JUMP JUMPDEST PUSH1 0x9 DUP3 ADD SWAP1 POP SWAP2 SWAP1 POP JUMP JUMPDEST PUSH32 0x20616C7265616479206578697374732100000000000000000000000000000000 PUSH0 DUP3 ADD MSTORE POP JUMP JUMPDEST PUSH0 PUSH2 0x3ACF PUSH1 0x10 DUP4 PUSH2 0x2EC2 JUMP JUMPDEST SWAP2 POP PUSH2 0x3ADA DUP3 PUSH2 0x3A9B JUMP JUMPDEST PUSH1 0x10 DUP3 ADD SWAP1 POP SWAP2 SWAP1 POP JUMP JUMPDEST PUSH0 PUSH2 0x3AEF DUP3 PUSH2 0x3A79 JUMP JUMPDEST SWAP2 POP PUSH2 0x3AFB DUP3 DUP5 PUSH2 0x3963 JUMP JUMPDEST SWAP2 POP PUSH2 0x3B06 DUP3 PUSH2 0x3AC3 JUMP JUMPDEST SWAP2 POP DUP2 SWAP1 POP SWAP3 SWAP2 POP POP JUMP JUMPDEST PUSH0 PUSH1 0x80 DUP3 ADD SWAP1 POP PUSH2 0x3B24 PUSH0 DUP4 ADD DUP8 PUSH2 0x2318 JUMP JUMPDEST PUSH2 0x3B31 PUSH1 0x20 DUP4 ADD DUP7 PUSH2 0x2397 JUMP JUMPDEST DUP2 DUP2 SUB PUSH1 0x40 DUP4 ADD MSTORE PUSH2 0x3B43 DUP2 DUP6 PUSH2 0x235F JUMP JUMPDEST SWAP1 POP PUSH2 0x3B52 PUSH1 0x60 DUP4 ADD DUP5 PUSH2 0x2318 JUMP JUMPDEST SWAP6 SWAP5 POP POP POP POP POP JUMP INVALID LOG2 PUSH5 0x6970667358 0x22 SLT KECCAK256 0xB1 0xC9 0xBC 0xE9 SUB 0xCE 0xD7 0xD8 LOG1 DUP9 BASEFEE 0xAD 0xE0 0x4E 0xCC 0xE7 DELEGATECALL BLOCKHASH 0x28 SWAP7 0xD2 LOG3 JUMPDEST CALL 0x2F EXTCODECOPY PUSH2 0xDA0E ADD 0xAE PUSH2 0x6473 PUSH16 0x6C634300081A00330000000000000000 "
				},
				"gasEstimates": {
					"creation": {
						"codeDepositCost": "3049800",
						"executionCost": "27620",
						"totalCost": "3077420"
					},
					"external": {
						"addCampaignAdmins(address)": "infinite",
						"admins(address,address)": "infinite",
						"campaignAdmins(address,uint256)": "infinite",
						"campaigns(address,uint256)": "infinite",
						"createCampaign(string,string,uint256)": "infinite",
						"donateToCampaign(address,uint256,uint256)": "infinite",
						"donors(address,uint256)": "infinite",
						"getContractBalance()": "357",
						"viewCampaignAdmins(address)": "infinite",
						"viewCampaigns()": "infinite",
						"viewDonations()": "infinite",
						"viewWithdrawals(address)": "infinite",
						"withdrawFunds(uint256,address,uint256,address)": "infinite",
						"withdrawals(address,uint256)": "infinite"
					}
				},
				"methodIdentifiers": {
					"addCampaignAdmins(address)": "060a4524",
					"admins(address,address)": "be21739e",
					"campaignAdmins(address,uint256)": "1f55e5bc",
					"campaigns(address,uint256)": "11555dbc",
					"createCampaign(string,string,uint256)": "ffa56a57",
					"donateToCampaign(address,uint256,uint256)": "5a3915cd",
					"donors(address,uint256)": "9b56f5f0",
					"getContractBalance()": "6f9fb98a",
					"viewCampaignAdmins(address)": "28f5bd9b",
					"viewCampaigns()": "366919e9",
					"viewDonations()": "e81c411d",
					"viewWithdrawals(address)": "df171c0d",
					"withdrawFunds(uint256,address,uint256,address)": "c14b8aac",
					"withdrawals(address,uint256)": "422b1077"
				}
			},
			"storageLayout": {
				"storage": [
					{
						"astId": 3,
						"contract": "contracts/CharityDonation.sol:CharityDonation",
						"label": "contractOwner",
						"offset": 0,
						"slot": "0",
						"type": "t_address"
					},
					{
						"astId": 44,
						"contract": "contracts/CharityDonation.sol:CharityDonation",
						"label": "campaigns",
						"offset": 0,
						"slot": "1",
						"type": "t_mapping(t_address,t_array(t_struct(Campaign)18_storage)dyn_storage)"
					},
					{
						"astId": 50,
						"contract": "contracts/CharityDonation.sol:CharityDonation",
						"label": "admins",
						"offset": 0,
						"slot": "2",
						"type": "t_mapping(t_address,t_mapping(t_address,t_bool))"
					},
					{
						"astId": 55,
						"contract": "contracts/CharityDonation.sol:CharityDonation",
						"label": "campaignAdmins",
						"offset": 0,
						"slot": "3",
						"type": "t_mapping(t_address,t_array(t_address)dyn_storage)"
					},
					{
						"astId": 61,
						"contract": "contracts/CharityDonation.sol:CharityDonation",
						"label": "donors",
						"offset": 0,
						"slot": "4",
						"type": "t_mapping(t_address,t_array(t_struct(Donation)27_storage)dyn_storage)"
					},
					{
						"astId": 67,
						"contract": "contracts/CharityDonation.sol:CharityDonation",
						"label": "withdrawals",
						"offset": 0,
						"slot": "5",
						"type": "t_mapping(t_address,t_array(t_struct(Withdrawals)38_storage)dyn_storage)"
					}
				],
				"types": {
					"t_address": {
						"encoding": "inplace",
						"label": "address",
						"numberOfBytes": "20"
					},
					"t_array(t_address)dyn_storage": {
						"base": "t_address",
						"encoding": "dynamic_array",
						"label": "address[]",
						"numberOfBytes": "32"
					},
					"t_array(t_struct(Campaign)18_storage)dyn_storage": {
						"base": "t_struct(Campaign)18_storage",
						"encoding": "dynamic_array",
						"label": "struct CharityDonation.Campaign[]",
						"numberOfBytes": "32"
					},
					"t_array(t_struct(Donation)27_storage)dyn_storage": {
						"base": "t_struct(Donation)27_storage",
						"encoding": "dynamic_array",
						"label": "struct CharityDonation.Donation[]",
						"numberOfBytes": "32"
					},
					"t_array(t_struct(Withdrawals)38_storage)dyn_storage": {
						"base": "t_struct(Withdrawals)38_storage",
						"encoding": "dynamic_array",
						"label": "struct CharityDonation.Withdrawals[]",
						"numberOfBytes": "32"
					},
					"t_bool": {
						"encoding": "inplace",
						"label": "bool",
						"numberOfBytes": "1"
					},
					"t_mapping(t_address,t_array(t_address)dyn_storage)": {
						"encoding": "mapping",
						"key": "t_address",
						"label": "mapping(address => address[])",
						"numberOfBytes": "32",
						"value": "t_array(t_address)dyn_storage"
					},
					"t_mapping(t_address,t_array(t_struct(Campaign)18_storage)dyn_storage)": {
						"encoding": "mapping",
						"key": "t_address",
						"label": "mapping(address => struct CharityDonation.Campaign[])",
						"numberOfBytes": "32",
						"value": "t_array(t_struct(Campaign)18_storage)dyn_storage"
					},
					"t_mapping(t_address,t_array(t_struct(Donation)27_storage)dyn_storage)": {
						"encoding": "mapping",
						"key": "t_address",
						"label": "mapping(address => struct CharityDonation.Donation[])",
						"numberOfBytes": "32",
						"value": "t_array(t_struct(Donation)27_storage)dyn_storage"
					},
					"t_mapping(t_address,t_array(t_struct(Withdrawals)38_storage)dyn_storage)": {
						"encoding": "mapping",
						"key": "t_address",
						"label": "mapping(address => struct CharityDonation.Withdrawals[])",
						"numberOfBytes": "32",
						"value": "t_array(t_struct(Withdrawals)38_storage)dyn_storage"
					},
					"t_mapping(t_address,t_bool)": {
						"encoding": "mapping",
						"key": "t_address",
						"label": "mapping(address => bool)",
						"numberOfBytes": "32",
						"value": "t_bool"
					},
					"t_mapping(t_address,t_mapping(t_address,t_bool))": {
						"encoding": "mapping",
						"key": "t_address",
						"label": "mapping(address => mapping(address => bool))",
						"numberOfBytes": "32",
						"value": "t_mapping(t_address,t_bool)"
					},
					"t_string_storage": {
						"encoding": "bytes",
						"label": "string",
						"numberOfBytes": "32"
					},
					"t_struct(Campaign)18_storage": {
						"encoding": "inplace",
						"label": "struct CharityDonation.Campaign",
						"members": [
							{
								"astId": 5,
								"contract": "contracts/CharityDonation.sol:CharityDonation",
								"label": "campaign_id",
								"offset": 0,
								"slot": "0",
								"type": "t_uint256"
							},
							{
								"astId": 7,
								"contract": "contracts/CharityDonation.sol:CharityDonation",
								"label": "title",
								"offset": 0,
								"slot": "1",
								"type": "t_string_storage"
							},
							{
								"astId": 9,
								"contract": "contracts/CharityDonation.sol:CharityDonation",
								"label": "description",
								"offset": 0,
								"slot": "2",
								"type": "t_string_storage"
							},
							{
								"astId": 11,
								"contract": "contracts/CharityDonation.sol:CharityDonation",
								"label": "campaignAddress",
								"offset": 0,
								"slot": "3",
								"type": "t_address"
							},
							{
								"astId": 13,
								"contract": "contracts/CharityDonation.sol:CharityDonation",
								"label": "targetAmount",
								"offset": 0,
								"slot": "4",
								"type": "t_uint256"
							},
							{
								"astId": 15,
								"contract": "contracts/CharityDonation.sol:CharityDonation",
								"label": "raisedAmount",
								"offset": 0,
								"slot": "5",
								"type": "t_uint256"
							},
							{
								"astId": 17,
								"contract": "contracts/CharityDonation.sol:CharityDonation",
								"label": "isCompleted",
								"offset": 0,
								"slot": "6",
								"type": "t_bool"
							}
						],
						"numberOfBytes": "224"
					},
					"t_struct(Donation)27_storage": {
						"encoding": "inplace",
						"label": "struct CharityDonation.Donation",
						"members": [
							{
								"astId": 20,
								"contract": "contracts/CharityDonation.sol:CharityDonation",
								"label": "campaignAddress",
								"offset": 0,
								"slot": "0",
								"type": "t_address"
							},
							{
								"astId": 22,
								"contract": "contracts/CharityDonation.sol:CharityDonation",
								"label": "campaignId",
								"offset": 0,
								"slot": "1",
								"type": "t_uint256"
							},
							{
								"astId": 24,
								"contract": "contracts/CharityDonation.sol:CharityDonation",
								"label": "title",
								"offset": 0,
								"slot": "2",
								"type": "t_string_storage"
							},
							{
								"astId": 26,
								"contract": "contracts/CharityDonation.sol:CharityDonation",
								"label": "amount",
								"offset": 0,
								"slot": "3",
								"type": "t_uint256"
							}
						],
						"numberOfBytes": "128"
					},
					"t_struct(Withdrawals)38_storage": {
						"encoding": "inplace",
						"label": "struct CharityDonation.Withdrawals",
						"members": [
							{
								"astId": 29,
								"contract": "contracts/CharityDonation.sol:CharityDonation",
								"label": "campaignId",
								"offset": 0,
								"slot": "0",
								"type": "t_uint256"
							},
							{
								"astId": 31,
								"contract": "contracts/CharityDonation.sol:CharityDonation",
								"label": "title",
								"offset": 0,
								"slot": "1",
								"type": "t_string_storage"
							},
							{
								"astId": 33,
								"contract": "contracts/CharityDonation.sol:CharityDonation",
								"label": "amount",
								"offset": 0,
								"slot": "2",
								"type": "t_uint256"
							},
							{
								"astId": 35,
								"contract": "contracts/CharityDonation.sol:CharityDonation",
								"label": "by",
								"offset": 0,
								"slot": "3",
								"type": "t_address"
							},
							{
								"astId": 37,
								"contract": "contracts/CharityDonation.sol:CharityDonation",
								"label": "to",
								"offset": 0,
								"slot": "4",
								"type": "t_address"
							}
						],
						"numberOfBytes": "160"
					},
					"t_uint256": {
						"encoding": "inplace",
						"label": "uint256",
						"numberOfBytes": "32"
					}
				}
			},
			"userdoc": {
				"kind": "user",
				"methods": {},
				"version": 1
			}
		}
	}
}