{
	"contracts/CharityDonation.sol": {
		"CharityDonation": {
			"abi": [
				{
					"inputs": [],
					"stateMutability": "nonpayable",
					"type": "constructor"
				},
				{
					"anonymous": false,
					"inputs": [
						{
							"indexed": false,
							"internalType": "uint256",
							"name": "campaign_id",
							"type": "uint256"
						}
					],
					"name": "CampaignCompleted",
					"type": "event"
				},
				{
					"anonymous": false,
					"inputs": [
						{
							"indexed": false,
							"internalType": "uint256",
							"name": "campaign_id",
							"type": "uint256"
						},
						{
							"indexed": false,
							"internalType": "address",
							"name": "campaignAddress",
							"type": "address"
						},
						{
							"indexed": false,
							"internalType": "string",
							"name": "title",
							"type": "string"
						},
						{
							"indexed": false,
							"internalType": "uint256",
							"name": "targetAmount",
							"type": "uint256"
						}
					],
					"name": "CampaignCreated",
					"type": "event"
				},
				{
					"anonymous": false,
					"inputs": [
						{
							"indexed": false,
							"internalType": "address",
							"name": "donor",
							"type": "address"
						},
						{
							"indexed": false,
							"internalType": "uint256",
							"name": "amount",
							"type": "uint256"
						}
					],
					"name": "DonationReceived",
					"type": "event"
				},
				{
					"anonymous": false,
					"inputs": [
						{
							"indexed": false,
							"internalType": "uint256",
							"name": "amount",
							"type": "uint256"
						},
						{
							"indexed": false,
							"internalType": "address",
							"name": "by",
							"type": "address"
						},
						{
							"indexed": false,
							"internalType": "address",
							"name": "to",
							"type": "address"
						}
					],
					"name": "FundsWithdrawn",
					"type": "event"
				},
				{
					"inputs": [
						{
							"internalType": "address",
							"name": "_admin",
							"type": "address"
						},
						{
							"internalType": "uint256",
							"name": "_campaignId",
							"type": "uint256"
						}
					],
					"name": "addCampaignAdmins",
					"outputs": [],
					"stateMutability": "nonpayable",
					"type": "function"
				},
				{
					"inputs": [
						{
							"internalType": "address",
							"name": "",
							"type": "address"
						},
						{
							"internalType": "address",
							"name": "",
							"type": "address"
						}
					],
					"name": "admins",
					"outputs": [
						{
							"internalType": "bool",
							"name": "",
							"type": "bool"
						}
					],
					"stateMutability": "view",
					"type": "function"
				},
				{
					"inputs": [
						{
							"internalType": "address",
							"name": "",
							"type": "address"
						},
						{
							"internalType": "uint256",
							"name": "",
							"type": "uint256"
						}
					],
					"name": "campaigns",
					"outputs": [
						{
							"internalType": "uint256",
							"name": "campaign_id",
							"type": "uint256"
						},
						{
							"internalType": "string",
							"name": "title",
							"type": "string"
						},
						{
							"internalType": "string",
							"name": "description",
							"type": "string"
						},
						{
							"internalType": "address",
							"name": "campaignAddress",
							"type": "address"
						},
						{
							"internalType": "uint256",
							"name": "targetAmount",
							"type": "uint256"
						},
						{
							"internalType": "uint256",
							"name": "raisedAmount",
							"type": "uint256"
						},
						{
							"internalType": "bool",
							"name": "isCompleted",
							"type": "bool"
						}
					],
					"stateMutability": "view",
					"type": "function"
				},
				{
					"inputs": [
						{
							"internalType": "string",
							"name": "_title",
							"type": "string"
						},
						{
							"internalType": "string",
							"name": "_description",
							"type": "string"
						},
						{
							"internalType": "uint256",
							"name": "_target",
							"type": "uint256"
						}
					],
					"name": "createCampaign",
					"outputs": [],
					"stateMutability": "nonpayable",
					"type": "function"
				},
				{
					"inputs": [
						{
							"internalType": "address payable",
							"name": "_campaignAddress",
							"type": "address"
						},
						{
							"internalType": "uint256",
							"name": "_campaignId",
							"type": "uint256"
						},
						{
							"internalType": "uint256",
							"name": "_amount",
							"type": "uint256"
						}
					],
					"name": "donateToCampaign",
					"outputs": [],
					"stateMutability": "payable",
					"type": "function"
				},
				{
					"inputs": [
						{
							"internalType": "address",
							"name": "_campAddr",
							"type": "address"
						},
						{
							"internalType": "uint256",
							"name": "_campId",
							"type": "uint256"
						}
					],
					"name": "setAdminValues",
					"outputs": [],
					"stateMutability": "nonpayable",
					"type": "function"
				},
				{
					"inputs": [
						{
							"internalType": "uint256",
							"name": "_amount",
							"type": "uint256"
						},
						{
							"internalType": "address payable",
							"name": "_to",
							"type": "address"
						}
					],
					"name": "withdrawFunds",
					"outputs": [],
					"stateMutability": "payable",
					"type": "function"
				}
			],
			"devdoc": {
				"kind": "dev",
				"methods": {},
				"version": 1
			},
			"evm": {
				"assembly": "    /* \"contracts/CharityDonation.sol\":63:5787  contract CharityDonation {... */\n  mstore(0x40, 0x80)\n    /* \"contracts/CharityDonation.sol\":1086:1145  constructor() {... */\n  callvalue\n  dup1\n  iszero\n  tag_1\n  jumpi\n  0x00\n  dup1\n  revert\ntag_1:\n  pop\n    /* \"contracts/CharityDonation.sol\":1127:1137  msg.sender */\n  caller\n    /* \"contracts/CharityDonation.sol\":1111:1124  contractOwner */\n  0x00\n  dup1\n    /* \"contracts/CharityDonation.sol\":1111:1137  contractOwner = msg.sender */\n  0x0100\n  exp\n  dup2\n  sload\n  dup2\n  0xffffffffffffffffffffffffffffffffffffffff\n  mul\n  not\n  and\n  swap1\n  dup4\n  0xffffffffffffffffffffffffffffffffffffffff\n  and\n  mul\n  or\n  swap1\n  sstore\n  pop\n    /* \"contracts/CharityDonation.sol\":63:5787  contract CharityDonation {... */\n  dataSize(sub_0)\n  dup1\n  dataOffset(sub_0)\n  0x00\n  codecopy\n  0x00\n  return\nstop\n\nsub_0: assembly {\n        /* \"contracts/CharityDonation.sol\":63:5787  contract CharityDonation {... */\n      mstore(0x40, 0x80)\n      jumpi(tag_1, lt(calldatasize, 0x04))\n      shr(0xe0, calldataload(0x00))\n      dup1\n      0x744bfe61\n      gt\n      tag_9\n      jumpi\n      dup1\n      0x744bfe61\n      eq\n      tag_5\n      jumpi\n      dup1\n      0xbe21739e\n      eq\n      tag_6\n      jumpi\n      dup1\n      0xcc1943f0\n      eq\n      tag_7\n      jumpi\n      dup1\n      0xffa56a57\n      eq\n      tag_8\n      jumpi\n      jump(tag_1)\n    tag_9:\n      dup1\n      0x02091f1c\n      eq\n      tag_2\n      jumpi\n      dup1\n      0x11555dbc\n      eq\n      tag_3\n      jumpi\n      dup1\n      0x5a3915cd\n      eq\n      tag_4\n      jumpi\n    tag_1:\n      0x00\n      dup1\n      revert\n        /* \"contracts/CharityDonation.sol\":1180:1502  function addCampaignAdmins(address _admin, uint256 _campaignId) public {... */\n    tag_2:\n      callvalue\n      dup1\n      iszero\n      tag_10\n      jumpi\n      0x00\n      dup1\n      revert\n    tag_10:\n      pop\n      tag_11\n      0x04\n      dup1\n      calldatasize\n      sub\n      dup2\n      add\n      swap1\n      tag_12\n      swap2\n      swap1\n      tag_13\n      jump\t// in\n    tag_12:\n      tag_14\n      jump\t// in\n    tag_11:\n      stop\n        /* \"contracts/CharityDonation.sol\":563:612  mapping  (address => Campaign[]) public campaigns */\n    tag_3:\n      callvalue\n      dup1\n      iszero\n      tag_15\n      jumpi\n      0x00\n      dup1\n      revert\n    tag_15:\n      pop\n      tag_16\n      0x04\n      dup1\n      calldatasize\n      sub\n      dup2\n      add\n      swap1\n      tag_17\n      swap2\n      swap1\n      tag_13\n      jump\t// in\n    tag_17:\n      tag_18\n      jump\t// in\n    tag_16:\n      mload(0x40)\n      tag_19\n      swap8\n      swap7\n      swap6\n      swap5\n      swap4\n      swap3\n      swap2\n      swap1\n      tag_20\n      jump\t// in\n    tag_19:\n      mload(0x40)\n      dup1\n      swap2\n      sub\n      swap1\n      return\n        /* \"contracts/CharityDonation.sol\":3336:4766  function donateToCampaign(address payable  _campaignAddress, uint256 _campaignId, uint256 _amount) public payable  {... */\n    tag_4:\n      tag_21\n      0x04\n      dup1\n      calldatasize\n      sub\n      dup2\n      add\n      swap1\n      tag_22\n      swap2\n      swap1\n      tag_23\n      jump\t// in\n    tag_22:\n      tag_24\n      jump\t// in\n    tag_21:\n      stop\n        /* \"contracts/CharityDonation.sol\":4994:5782  function withdrawFunds(uint256 _amount, address payable _to) external payable onlyWithdraw(campaign_Address, campaign_ID) {... */\n    tag_5:\n      tag_25\n      0x04\n      dup1\n      calldatasize\n      sub\n      dup2\n      add\n      swap1\n      tag_26\n      swap2\n      swap1\n      tag_27\n      jump\t// in\n    tag_26:\n      tag_28\n      jump\t// in\n    tag_25:\n      stop\n        /* \"contracts/CharityDonation.sol\":672:733  mapping  (address => mapping (address => bool)) public admins */\n    tag_6:\n      callvalue\n      dup1\n      iszero\n      tag_29\n      jumpi\n      0x00\n      dup1\n      revert\n    tag_29:\n      pop\n      tag_30\n      0x04\n      dup1\n      calldatasize\n      sub\n      dup2\n      add\n      swap1\n      tag_31\n      swap2\n      swap1\n      tag_32\n      jump\t// in\n    tag_31:\n      tag_33\n      jump\t// in\n    tag_30:\n      mload(0x40)\n      tag_34\n      swap2\n      swap1\n      tag_35\n      jump\t// in\n    tag_34:\n      mload(0x40)\n      dup1\n      swap2\n      sub\n      swap1\n      return\n        /* \"contracts/CharityDonation.sol\":4818:4964  function setAdminValues(address _campAddr, uint256 _campId) public {... */\n    tag_7:\n      callvalue\n      dup1\n      iszero\n      tag_36\n      jumpi\n      0x00\n      dup1\n      revert\n    tag_36:\n      pop\n      tag_37\n      0x04\n      dup1\n      calldatasize\n      sub\n      dup2\n      add\n      swap1\n      tag_38\n      swap2\n      swap1\n      tag_13\n      jump\t// in\n    tag_38:\n      tag_39\n      jump\t// in\n    tag_37:\n      stop\n        /* \"contracts/CharityDonation.sol\":2101:3295  function createCampaign(string memory _title, string memory _description,uint256 _target) public  {... */\n    tag_8:\n      callvalue\n      dup1\n      iszero\n      tag_40\n      jumpi\n      0x00\n      dup1\n      revert\n    tag_40:\n      pop\n      tag_41\n      0x04\n      dup1\n      calldatasize\n      sub\n      dup2\n      add\n      swap1\n      tag_42\n      swap2\n      swap1\n      tag_43\n      jump\t// in\n    tag_42:\n      tag_44\n      jump\t// in\n    tag_41:\n      stop\n        /* \"contracts/CharityDonation.sol\":1180:1502  function addCampaignAdmins(address _admin, uint256 _campaignId) public {... */\n    tag_14:\n        /* \"contracts/CharityDonation.sol\":1358:1369  _campaignId */\n      dup1\n        /* \"contracts/CharityDonation.sol\":1306:1315  campaigns */\n      0x03\n        /* \"contracts/CharityDonation.sol\":1306:1327  campaigns[msg.sender] */\n      0x00\n        /* \"contracts/CharityDonation.sol\":1316:1326  msg.sender */\n      caller\n        /* \"contracts/CharityDonation.sol\":1306:1327  campaigns[msg.sender] */\n      0xffffffffffffffffffffffffffffffffffffffff\n      and\n      0xffffffffffffffffffffffffffffffffffffffff\n      and\n      dup2\n      mstore\n      0x20\n      add\n      swap1\n      dup2\n      mstore\n      0x20\n      add\n      0x00\n      keccak256\n        /* \"contracts/CharityDonation.sol\":1340:1341  1 */\n      0x01\n        /* \"contracts/CharityDonation.sol\":1328:1339  _campaignId */\n      dup4\n        /* \"contracts/CharityDonation.sol\":1328:1341  _campaignId-1 */\n      tag_46\n      swap2\n      swap1\n      tag_47\n      jump\t// in\n    tag_46:\n        /* \"contracts/CharityDonation.sol\":1306:1342  campaigns[msg.sender][_campaignId-1] */\n      dup2\n      sload\n      dup2\n      lt\n      tag_48\n      jumpi\n      tag_49\n      tag_50\n      jump\t// in\n    tag_49:\n    tag_48:\n      swap1\n      0x00\n      mstore\n      keccak256(0x00, 0x20)\n      swap1\n      0x07\n      mul\n      add\n        /* \"contracts/CharityDonation.sol\":1306:1354  campaigns[msg.sender][_campaignId-1].campaign_id */\n      0x00\n      add\n      sload\n        /* \"contracts/CharityDonation.sol\":1306:1369  campaigns[msg.sender][_campaignId-1].campaign_id == _campaignId */\n      eq\n        /* \"contracts/CharityDonation.sol\":1298:1413  require(campaigns[msg.sender][_campaignId-1].campaign_id == _campaignId,\"The Campaigned Specified Does Not Exist!\") */\n      tag_52\n      jumpi\n      mload(0x40)\n      0x08c379a000000000000000000000000000000000000000000000000000000000\n      dup2\n      mstore\n      0x04\n      add\n      tag_53\n      swap1\n      tag_54\n      jump\t// in\n    tag_53:\n      mload(0x40)\n      dup1\n      swap2\n      sub\n      swap1\n      revert\n    tag_52:\n        /* \"contracts/CharityDonation.sol\":1486:1490  true */\n      0x01\n        /* \"contracts/CharityDonation.sol\":1457:1463  admins */\n      0x04\n        /* \"contracts/CharityDonation.sol\":1457:1475  admins[msg.sender] */\n      0x00\n        /* \"contracts/CharityDonation.sol\":1464:1474  msg.sender */\n      caller\n        /* \"contracts/CharityDonation.sol\":1457:1475  admins[msg.sender] */\n      0xffffffffffffffffffffffffffffffffffffffff\n      and\n      0xffffffffffffffffffffffffffffffffffffffff\n      and\n      dup2\n      mstore\n      0x20\n      add\n      swap1\n      dup2\n      mstore\n      0x20\n      add\n      0x00\n      keccak256\n        /* \"contracts/CharityDonation.sol\":1457:1483  admins[msg.sender][_admin] */\n      0x00\n        /* \"contracts/CharityDonation.sol\":1476:1482  _admin */\n      dup5\n        /* \"contracts/CharityDonation.sol\":1457:1483  admins[msg.sender][_admin] */\n      0xffffffffffffffffffffffffffffffffffffffff\n      and\n      0xffffffffffffffffffffffffffffffffffffffff\n      and\n      dup2\n      mstore\n      0x20\n      add\n      swap1\n      dup2\n      mstore\n      0x20\n      add\n      0x00\n      keccak256\n      0x00\n        /* \"contracts/CharityDonation.sol\":1457:1490  admins[msg.sender][_admin] = true */\n      0x0100\n      exp\n      dup2\n      sload\n      dup2\n      0xff\n      mul\n      not\n      and\n      swap1\n      dup4\n      iszero\n      iszero\n      mul\n      or\n      swap1\n      sstore\n      pop\n        /* \"contracts/CharityDonation.sol\":1180:1502  function addCampaignAdmins(address _admin, uint256 _campaignId) public {... */\n      pop\n      pop\n      jump\t// out\n        /* \"contracts/CharityDonation.sol\":563:612  mapping  (address => Campaign[]) public campaigns */\n    tag_18:\n      mstore(0x20, 0x03)\n      dup2\n      0x00\n      mstore\n      keccak256(0x00, 0x40)\n      dup2\n      dup2\n      sload\n      dup2\n      lt\n      tag_55\n      jumpi\n      0x00\n      dup1\n      revert\n    tag_55:\n      swap1\n      0x00\n      mstore\n      keccak256(0x00, 0x20)\n      swap1\n      0x07\n      mul\n      add\n      0x00\n      swap2\n      pop\n      swap2\n      pop\n      pop\n      dup1\n      0x00\n      add\n      sload\n      swap1\n      dup1\n      0x01\n      add\n      dup1\n      sload\n      tag_57\n      swap1\n      tag_58\n      jump\t// in\n    tag_57:\n      dup1\n      0x1f\n      add\n      0x20\n      dup1\n      swap2\n      div\n      mul\n      0x20\n      add\n      mload(0x40)\n      swap1\n      dup2\n      add\n      0x40\n      mstore\n      dup1\n      swap3\n      swap2\n      swap1\n      dup2\n      dup2\n      mstore\n      0x20\n      add\n      dup3\n      dup1\n      sload\n      tag_59\n      swap1\n      tag_58\n      jump\t// in\n    tag_59:\n      dup1\n      iszero\n      tag_60\n      jumpi\n      dup1\n      0x1f\n      lt\n      tag_61\n      jumpi\n      0x0100\n      dup1\n      dup4\n      sload\n      div\n      mul\n      dup4\n      mstore\n      swap2\n      0x20\n      add\n      swap2\n      jump(tag_60)\n    tag_61:\n      dup3\n      add\n      swap2\n      swap1\n      0x00\n      mstore\n      keccak256(0x00, 0x20)\n      swap1\n    tag_62:\n      dup2\n      sload\n      dup2\n      mstore\n      swap1\n      0x01\n      add\n      swap1\n      0x20\n      add\n      dup1\n      dup4\n      gt\n      tag_62\n      jumpi\n      dup3\n      swap1\n      sub\n      0x1f\n      and\n      dup3\n      add\n      swap2\n    tag_60:\n      pop\n      pop\n      pop\n      pop\n      pop\n      swap1\n      dup1\n      0x02\n      add\n      dup1\n      sload\n      tag_63\n      swap1\n      tag_58\n      jump\t// in\n    tag_63:\n      dup1\n      0x1f\n      add\n      0x20\n      dup1\n      swap2\n      div\n      mul\n      0x20\n      add\n      mload(0x40)\n      swap1\n      dup2\n      add\n      0x40\n      mstore\n      dup1\n      swap3\n      swap2\n      swap1\n      dup2\n      dup2\n      mstore\n      0x20\n      add\n      dup3\n      dup1\n      sload\n      tag_64\n      swap1\n      tag_58\n      jump\t// in\n    tag_64:\n      dup1\n      iszero\n      tag_65\n      jumpi\n      dup1\n      0x1f\n      lt\n      tag_66\n      jumpi\n      0x0100\n      dup1\n      dup4\n      sload\n      div\n      mul\n      dup4\n      mstore\n      swap2\n      0x20\n      add\n      swap2\n      jump(tag_65)\n    tag_66:\n      dup3\n      add\n      swap2\n      swap1\n      0x00\n      mstore\n      keccak256(0x00, 0x20)\n      swap1\n    tag_67:\n      dup2\n      sload\n      dup2\n      mstore\n      swap1\n      0x01\n      add\n      swap1\n      0x20\n      add\n      dup1\n      dup4\n      gt\n      tag_67\n      jumpi\n      dup3\n      swap1\n      sub\n      0x1f\n      and\n      dup3\n      add\n      swap2\n    tag_65:\n      pop\n      pop\n      pop\n      pop\n      pop\n      swap1\n      dup1\n      0x03\n      add\n      0x00\n      swap1\n      sload\n      swap1\n      0x0100\n      exp\n      swap1\n      div\n      0xffffffffffffffffffffffffffffffffffffffff\n      and\n      swap1\n      dup1\n      0x04\n      add\n      sload\n      swap1\n      dup1\n      0x05\n      add\n      sload\n      swap1\n      dup1\n      0x06\n      add\n      0x00\n      swap1\n      sload\n      swap1\n      0x0100\n      exp\n      swap1\n      div\n      0xff\n      and\n      swap1\n      pop\n      dup8\n      jump\t// out\n        /* \"contracts/CharityDonation.sol\":3336:4766  function donateToCampaign(address payable  _campaignAddress, uint256 _campaignId, uint256 _amount) public payable  {... */\n    tag_24:\n        /* \"contracts/CharityDonation.sol\":3612:3623  _campaignId */\n      dup2\n        /* \"contracts/CharityDonation.sol\":3554:3563  campaigns */\n      0x03\n        /* \"contracts/CharityDonation.sol\":3554:3581  campaigns[_campaignAddress] */\n      0x00\n        /* \"contracts/CharityDonation.sol\":3564:3580  _campaignAddress */\n      dup6\n        /* \"contracts/CharityDonation.sol\":3554:3581  campaigns[_campaignAddress] */\n      0xffffffffffffffffffffffffffffffffffffffff\n      and\n      0xffffffffffffffffffffffffffffffffffffffff\n      and\n      dup2\n      mstore\n      0x20\n      add\n      swap1\n      dup2\n      mstore\n      0x20\n      add\n      0x00\n      keccak256\n        /* \"contracts/CharityDonation.sol\":3594:3595  1 */\n      0x01\n        /* \"contracts/CharityDonation.sol\":3582:3593  _campaignId */\n      dup5\n        /* \"contracts/CharityDonation.sol\":3582:3595  _campaignId-1 */\n      tag_69\n      swap2\n      swap1\n      tag_47\n      jump\t// in\n    tag_69:\n        /* \"contracts/CharityDonation.sol\":3554:3596  campaigns[_campaignAddress][_campaignId-1] */\n      dup2\n      sload\n      dup2\n      lt\n      tag_70\n      jumpi\n      tag_71\n      tag_50\n      jump\t// in\n    tag_71:\n    tag_70:\n      swap1\n      0x00\n      mstore\n      keccak256(0x00, 0x20)\n      swap1\n      0x07\n      mul\n      add\n        /* \"contracts/CharityDonation.sol\":3554:3608  campaigns[_campaignAddress][_campaignId-1].campaign_id */\n      0x00\n      add\n      sload\n        /* \"contracts/CharityDonation.sol\":3554:3623  campaigns[_campaignAddress][_campaignId-1].campaign_id == _campaignId */\n      eq\n        /* \"contracts/CharityDonation.sol\":3680:3691  _campaignId */\n      dup3\n        /* \"contracts/CharityDonation.sol\":3646:3713  abi.encodePacked(\"The Campaign \", _campaignId , \" Does NOT Exist!\") */\n      add(0x20, mload(0x40))\n      tag_73\n      swap2\n      swap1\n      tag_74\n      jump\t// in\n    tag_73:\n      mload(0x40)\n      0x20\n      dup2\n      dup4\n      sub\n      sub\n      dup2\n      mstore\n      swap1\n      0x40\n      mstore\n        /* \"contracts/CharityDonation.sol\":3532:3725  require(... */\n      swap1\n      tag_75\n      jumpi\n      mload(0x40)\n      0x08c379a000000000000000000000000000000000000000000000000000000000\n      dup2\n      mstore\n      0x04\n      add\n      tag_76\n      swap2\n      swap1\n      tag_77\n      jump\t// in\n    tag_76:\n      mload(0x40)\n      dup1\n      swap2\n      sub\n      swap1\n      revert\n    tag_75:\n      pop\n        /* \"contracts/CharityDonation.sol\":3816:3821  false */\n      0x00\n        /* \"contracts/CharityDonation.sol\":3758:3821  campaigns[_campaignAddress][_campaignId-1].isCompleted == false */\n      iszero\n      iszero\n        /* \"contracts/CharityDonation.sol\":3758:3767  campaigns */\n      0x03\n        /* \"contracts/CharityDonation.sol\":3758:3785  campaigns[_campaignAddress] */\n      0x00\n        /* \"contracts/CharityDonation.sol\":3768:3784  _campaignAddress */\n      dup6\n        /* \"contracts/CharityDonation.sol\":3758:3785  campaigns[_campaignAddress] */\n      0xffffffffffffffffffffffffffffffffffffffff\n      and\n      0xffffffffffffffffffffffffffffffffffffffff\n      and\n      dup2\n      mstore\n      0x20\n      add\n      swap1\n      dup2\n      mstore\n      0x20\n      add\n      0x00\n      keccak256\n        /* \"contracts/CharityDonation.sol\":3798:3799  1 */\n      0x01\n        /* \"contracts/CharityDonation.sol\":3786:3797  _campaignId */\n      dup5\n        /* \"contracts/CharityDonation.sol\":3786:3799  _campaignId-1 */\n      tag_78\n      swap2\n      swap1\n      tag_47\n      jump\t// in\n    tag_78:\n        /* \"contracts/CharityDonation.sol\":3758:3800  campaigns[_campaignAddress][_campaignId-1] */\n      dup2\n      sload\n      dup2\n      lt\n      tag_79\n      jumpi\n      tag_80\n      tag_50\n      jump\t// in\n    tag_80:\n    tag_79:\n      swap1\n      0x00\n      mstore\n      keccak256(0x00, 0x20)\n      swap1\n      0x07\n      mul\n      add\n        /* \"contracts/CharityDonation.sol\":3758:3812  campaigns[_campaignAddress][_campaignId-1].isCompleted */\n      0x06\n      add\n      0x00\n      swap1\n      sload\n      swap1\n      0x0100\n      exp\n      swap1\n      div\n      0xff\n      and\n        /* \"contracts/CharityDonation.sol\":3758:3821  campaigns[_campaignAddress][_campaignId-1].isCompleted == false */\n      iszero\n      iszero\n      eq\n        /* \"contracts/CharityDonation.sol\":3865:3874  campaigns */\n      0x03\n        /* \"contracts/CharityDonation.sol\":3865:3892  campaigns[_campaignAddress] */\n      0x00\n        /* \"contracts/CharityDonation.sol\":3875:3891  _campaignAddress */\n      dup6\n        /* \"contracts/CharityDonation.sol\":3865:3892  campaigns[_campaignAddress] */\n      0xffffffffffffffffffffffffffffffffffffffff\n      and\n      0xffffffffffffffffffffffffffffffffffffffff\n      and\n      dup2\n      mstore\n      0x20\n      add\n      swap1\n      dup2\n      mstore\n      0x20\n      add\n      0x00\n      keccak256\n        /* \"contracts/CharityDonation.sol\":3905:3906  1 */\n      0x01\n        /* \"contracts/CharityDonation.sol\":3893:3904  _campaignId */\n      dup5\n        /* \"contracts/CharityDonation.sol\":3893:3906  _campaignId-1 */\n      tag_82\n      swap2\n      swap1\n      tag_47\n      jump\t// in\n    tag_82:\n        /* \"contracts/CharityDonation.sol\":3865:3907  campaigns[_campaignAddress][_campaignId-1] */\n      dup2\n      sload\n      dup2\n      lt\n      tag_83\n      jumpi\n      tag_84\n      tag_50\n      jump\t// in\n    tag_84:\n    tag_83:\n      swap1\n      0x00\n      mstore\n      keccak256(0x00, 0x20)\n      swap1\n      0x07\n      mul\n      add\n        /* \"contracts/CharityDonation.sol\":3865:3913  campaigns[_campaignAddress][_campaignId-1].title */\n      0x01\n      add\n        /* \"contracts/CharityDonation.sol\":3844:3943  abi.encodePacked(\"'\",campaigns[_campaignAddress][_campaignId-1].title, \"' Campaign Was Completed!\") */\n      add(0x20, mload(0x40))\n      tag_86\n      swap2\n      swap1\n      tag_87\n      jump\t// in\n    tag_86:\n      mload(0x40)\n      0x20\n      dup2\n      dup4\n      sub\n      sub\n      dup2\n      mstore\n      swap1\n      0x40\n      mstore\n        /* \"contracts/CharityDonation.sol\":3736:3955  require(... */\n      swap1\n      tag_88\n      jumpi\n      mload(0x40)\n      0x08c379a000000000000000000000000000000000000000000000000000000000\n      dup2\n      mstore\n      0x04\n      add\n      tag_89\n      swap2\n      swap1\n      tag_77\n      jump\t// in\n    tag_89:\n      mload(0x40)\n      dup1\n      swap2\n      sub\n      swap1\n      revert\n    tag_88:\n      pop\n        /* \"contracts/CharityDonation.sol\":4071:4072  0 */\n      0x00\n        /* \"contracts/CharityDonation.sol\":4061:4068  _amount */\n      dup2\n        /* \"contracts/CharityDonation.sol\":4061:4072  _amount > 0 */\n      gt\n        /* \"contracts/CharityDonation.sol\":4053:4099  require(_amount > 0 , \"Amount Cannot be Zero\") */\n      tag_90\n      jumpi\n      mload(0x40)\n      0x08c379a000000000000000000000000000000000000000000000000000000000\n      dup2\n      mstore\n      0x04\n      add\n      tag_91\n      swap1\n      tag_92\n      jump\t// in\n    tag_91:\n      mload(0x40)\n      dup1\n      swap2\n      sub\n      swap1\n      revert\n    tag_90:\n        /* \"contracts/CharityDonation.sol\":4131:4138  _amount */\n      dup1\n        /* \"contracts/CharityDonation.sol\":4118:4127  msg.value */\n      callvalue\n        /* \"contracts/CharityDonation.sol\":4118:4138  msg.value == _amount */\n      eq\n        /* \"contracts/CharityDonation.sol\":4110:4168  require(msg.value == _amount, \"The Amount doesn't Match!\") */\n      tag_93\n      jumpi\n      mload(0x40)\n      0x08c379a000000000000000000000000000000000000000000000000000000000\n      dup2\n      mstore\n      0x04\n      add\n      tag_94\n      swap1\n      tag_95\n      jump\t// in\n    tag_94:\n      mload(0x40)\n      dup1\n      swap2\n      sub\n      swap1\n      revert\n    tag_93:\n        /* \"contracts/CharityDonation.sol\":4351:4358  _amount */\n      dup1\n        /* \"contracts/CharityDonation.sol\":4292:4301  campaigns */\n      0x03\n        /* \"contracts/CharityDonation.sol\":4292:4319  campaigns[_campaignAddress] */\n      0x00\n        /* \"contracts/CharityDonation.sol\":4302:4318  _campaignAddress */\n      dup6\n        /* \"contracts/CharityDonation.sol\":4292:4319  campaigns[_campaignAddress] */\n      0xffffffffffffffffffffffffffffffffffffffff\n      and\n      0xffffffffffffffffffffffffffffffffffffffff\n      and\n      dup2\n      mstore\n      0x20\n      add\n      swap1\n      dup2\n      mstore\n      0x20\n      add\n      0x00\n      keccak256\n        /* \"contracts/CharityDonation.sol\":4332:4333  1 */\n      0x01\n        /* \"contracts/CharityDonation.sol\":4320:4331  _campaignId */\n      dup5\n        /* \"contracts/CharityDonation.sol\":4320:4333  _campaignId-1 */\n      tag_96\n      swap2\n      swap1\n      tag_47\n      jump\t// in\n    tag_96:\n        /* \"contracts/CharityDonation.sol\":4292:4334  campaigns[_campaignAddress][_campaignId-1] */\n      dup2\n      sload\n      dup2\n      lt\n      tag_97\n      jumpi\n      tag_98\n      tag_50\n      jump\t// in\n    tag_98:\n    tag_97:\n      swap1\n      0x00\n      mstore\n      keccak256(0x00, 0x20)\n      swap1\n      0x07\n      mul\n      add\n        /* \"contracts/CharityDonation.sol\":4292:4347  campaigns[_campaignAddress][_campaignId-1].raisedAmount */\n      0x05\n      add\n      0x00\n        /* \"contracts/CharityDonation.sol\":4292:4358  campaigns[_campaignAddress][_campaignId-1].raisedAmount += _amount */\n      dup3\n      dup3\n      sload\n      tag_100\n      swap2\n      swap1\n      tag_101\n      jump\t// in\n    tag_100:\n      swap3\n      pop\n      pop\n      dup2\n      swap1\n      sstore\n      pop\n        /* \"contracts/CharityDonation.sol\":4421:4437  _campaignAddress */\n      dup3\n        /* \"contracts/CharityDonation.sol\":4421:4446  _campaignAddress.transfer */\n      0xffffffffffffffffffffffffffffffffffffffff\n      and\n        /* \"contracts/CharityDonation.sol\":4421:4455  _campaignAddress.transfer(_amount) */\n      0x08fc\n        /* \"contracts/CharityDonation.sol\":4447:4454  _amount */\n      dup3\n        /* \"contracts/CharityDonation.sol\":4421:4455  _campaignAddress.transfer(_amount) */\n      swap1\n      dup2\n      iszero\n      mul\n      swap1\n      mload(0x40)\n      0x00\n      mload(0x40)\n      dup1\n      dup4\n      sub\n      dup2\n      dup6\n      dup9\n      dup9\n      call\n      swap4\n      pop\n      pop\n      pop\n      pop\n      iszero\n      dup1\n      iszero\n      tag_103\n      jumpi\n      returndatasize\n      0x00\n      dup1\n      returndatacopy\n      revert(0x00, returndatasize)\n    tag_103:\n      pop\n        /* \"contracts/CharityDonation.sol\":4531:4540  campaigns */\n      0x03\n        /* \"contracts/CharityDonation.sol\":4531:4558  campaigns[_campaignAddress] */\n      0x00\n        /* \"contracts/CharityDonation.sol\":4541:4557  _campaignAddress */\n      dup5\n        /* \"contracts/CharityDonation.sol\":4531:4558  campaigns[_campaignAddress] */\n      0xffffffffffffffffffffffffffffffffffffffff\n      and\n      0xffffffffffffffffffffffffffffffffffffffff\n      and\n      dup2\n      mstore\n      0x20\n      add\n      swap1\n      dup2\n      mstore\n      0x20\n      add\n      0x00\n      keccak256\n        /* \"contracts/CharityDonation.sol\":4571:4572  1 */\n      0x01\n        /* \"contracts/CharityDonation.sol\":4559:4570  _campaignId */\n      dup4\n        /* \"contracts/CharityDonation.sol\":4559:4572  _campaignId-1 */\n      tag_104\n      swap2\n      swap1\n      tag_47\n      jump\t// in\n    tag_104:\n        /* \"contracts/CharityDonation.sol\":4531:4573  campaigns[_campaignAddress][_campaignId-1] */\n      dup2\n      sload\n      dup2\n      lt\n      tag_105\n      jumpi\n      tag_106\n      tag_50\n      jump\t// in\n    tag_106:\n    tag_105:\n      swap1\n      0x00\n      mstore\n      keccak256(0x00, 0x20)\n      swap1\n      0x07\n      mul\n      add\n        /* \"contracts/CharityDonation.sol\":4531:4586  campaigns[_campaignAddress][_campaignId-1].targetAmount */\n      0x04\n      add\n      sload\n        /* \"contracts/CharityDonation.sol\":4472:4481  campaigns */\n      0x03\n        /* \"contracts/CharityDonation.sol\":4472:4499  campaigns[_campaignAddress] */\n      0x00\n        /* \"contracts/CharityDonation.sol\":4482:4498  _campaignAddress */\n      dup6\n        /* \"contracts/CharityDonation.sol\":4472:4499  campaigns[_campaignAddress] */\n      0xffffffffffffffffffffffffffffffffffffffff\n      and\n      0xffffffffffffffffffffffffffffffffffffffff\n      and\n      dup2\n      mstore\n      0x20\n      add\n      swap1\n      dup2\n      mstore\n      0x20\n      add\n      0x00\n      keccak256\n        /* \"contracts/CharityDonation.sol\":4512:4513  1 */\n      0x01\n        /* \"contracts/CharityDonation.sol\":4500:4511  _campaignId */\n      dup5\n        /* \"contracts/CharityDonation.sol\":4500:4513  _campaignId-1 */\n      tag_108\n      swap2\n      swap1\n      tag_47\n      jump\t// in\n    tag_108:\n        /* \"contracts/CharityDonation.sol\":4472:4514  campaigns[_campaignAddress][_campaignId-1] */\n      dup2\n      sload\n      dup2\n      lt\n      tag_109\n      jumpi\n      tag_110\n      tag_50\n      jump\t// in\n    tag_110:\n    tag_109:\n      swap1\n      0x00\n      mstore\n      keccak256(0x00, 0x20)\n      swap1\n      0x07\n      mul\n      add\n        /* \"contracts/CharityDonation.sol\":4472:4527  campaigns[_campaignAddress][_campaignId-1].raisedAmount */\n      0x05\n      add\n      sload\n        /* \"contracts/CharityDonation.sol\":4472:4586  campaigns[_campaignAddress][_campaignId-1].raisedAmount >= campaigns[_campaignAddress][_campaignId-1].targetAmount */\n      lt\n        /* \"contracts/CharityDonation.sol\":4468:4680  if (campaigns[_campaignAddress][_campaignId-1].raisedAmount >= campaigns[_campaignAddress][_campaignId-1].targetAmount) {... */\n      tag_112\n      jumpi\n        /* \"contracts/CharityDonation.sol\":4660:4664  true */\n      0x01\n        /* \"contracts/CharityDonation.sol\":4603:4612  campaigns */\n      0x03\n        /* \"contracts/CharityDonation.sol\":4603:4630  campaigns[_campaignAddress] */\n      0x00\n        /* \"contracts/CharityDonation.sol\":4613:4629  _campaignAddress */\n      dup6\n        /* \"contracts/CharityDonation.sol\":4603:4630  campaigns[_campaignAddress] */\n      0xffffffffffffffffffffffffffffffffffffffff\n      and\n      0xffffffffffffffffffffffffffffffffffffffff\n      and\n      dup2\n      mstore\n      0x20\n      add\n      swap1\n      dup2\n      mstore\n      0x20\n      add\n      0x00\n      keccak256\n        /* \"contracts/CharityDonation.sol\":4643:4644  1 */\n      0x01\n        /* \"contracts/CharityDonation.sol\":4631:4642  _campaignId */\n      dup5\n        /* \"contracts/CharityDonation.sol\":4631:4644  _campaignId-1 */\n      tag_113\n      swap2\n      swap1\n      tag_47\n      jump\t// in\n    tag_113:\n        /* \"contracts/CharityDonation.sol\":4603:4645  campaigns[_campaignAddress][_campaignId-1] */\n      dup2\n      sload\n      dup2\n      lt\n      tag_114\n      jumpi\n      tag_115\n      tag_50\n      jump\t// in\n    tag_115:\n    tag_114:\n      swap1\n      0x00\n      mstore\n      keccak256(0x00, 0x20)\n      swap1\n      0x07\n      mul\n      add\n        /* \"contracts/CharityDonation.sol\":4603:4657  campaigns[_campaignAddress][_campaignId-1].isCompleted */\n      0x06\n      add\n      0x00\n        /* \"contracts/CharityDonation.sol\":4603:4664  campaigns[_campaignAddress][_campaignId-1].isCompleted = true */\n      0x0100\n      exp\n      dup2\n      sload\n      dup2\n      0xff\n      mul\n      not\n      and\n      swap1\n      dup4\n      iszero\n      iszero\n      mul\n      or\n      swap1\n      sstore\n      pop\n        /* \"contracts/CharityDonation.sol\":4468:4680  if (campaigns[_campaignAddress][_campaignId-1].raisedAmount >= campaigns[_campaignAddress][_campaignId-1].targetAmount) {... */\n    tag_112:\n        /* \"contracts/CharityDonation.sol\":4719:4756  DonationReceived(msg.sender, _amount) */\n      0x264f630d9efa0d07053a31163641d9fcc0adafc9d9e76f1c37c2ce3a558d2c52\n        /* \"contracts/CharityDonation.sol\":4736:4746  msg.sender */\n      caller\n        /* \"contracts/CharityDonation.sol\":4748:4755  _amount */\n      dup3\n        /* \"contracts/CharityDonation.sol\":4719:4756  DonationReceived(msg.sender, _amount) */\n      mload(0x40)\n      tag_117\n      swap3\n      swap2\n      swap1\n      tag_118\n      jump\t// in\n    tag_117:\n      mload(0x40)\n      dup1\n      swap2\n      sub\n      swap1\n      log1\n        /* \"contracts/CharityDonation.sol\":3336:4766  function donateToCampaign(address payable  _campaignAddress, uint256 _campaignId, uint256 _amount) public payable  {... */\n      pop\n      pop\n      pop\n      jump\t// out\n        /* \"contracts/CharityDonation.sol\":4994:5782  function withdrawFunds(uint256 _amount, address payable _to) external payable onlyWithdraw(campaign_Address, campaign_ID) {... */\n    tag_28:\n        /* \"contracts/CharityDonation.sol\":5085:5101  campaign_Address */\n      0x02\n      0x00\n      swap1\n      sload\n      swap1\n      0x0100\n      exp\n      swap1\n      div\n      0xffffffffffffffffffffffffffffffffffffffff\n      and\n        /* \"contracts/CharityDonation.sol\":5103:5114  campaign_ID */\n      sload(0x01)\n        /* \"contracts/CharityDonation.sol\":1691:1692  0 */\n      0x00\n        /* \"contracts/CharityDonation.sol\":1654:1663  campaigns */\n      0x03\n        /* \"contracts/CharityDonation.sol\":1654:1681  campaigns[_campaignAddress] */\n      0x00\n        /* \"contracts/CharityDonation.sol\":1664:1680  _campaignAddress */\n      dup5\n        /* \"contracts/CharityDonation.sol\":1654:1681  campaigns[_campaignAddress] */\n      0xffffffffffffffffffffffffffffffffffffffff\n      and\n      0xffffffffffffffffffffffffffffffffffffffff\n      and\n      dup2\n      mstore\n      0x20\n      add\n      swap1\n      dup2\n      mstore\n      0x20\n      add\n      0x00\n      keccak256\n        /* \"contracts/CharityDonation.sol\":1654:1688  campaigns[_campaignAddress].length */\n      dup1\n      sload\n      swap1\n      pop\n        /* \"contracts/CharityDonation.sol\":1654:1692  campaigns[_campaignAddress].length > 0 */\n      gt\n        /* \"contracts/CharityDonation.sol\":1646:1734  require(campaigns[_campaignAddress].length > 0, \"There Is No Campaign By That address!\") */\n      tag_120\n      jumpi\n      mload(0x40)\n      0x08c379a000000000000000000000000000000000000000000000000000000000\n      dup2\n      mstore\n      0x04\n      add\n      tag_121\n      swap1\n      tag_122\n      jump\t// in\n    tag_121:\n      mload(0x40)\n      dup1\n      swap2\n      sub\n      swap1\n      revert\n    tag_120:\n        /* \"contracts/CharityDonation.sol\":1857:1868  _campaignId */\n      dup1\n        /* \"contracts/CharityDonation.sol\":1799:1808  campaigns */\n      0x03\n        /* \"contracts/CharityDonation.sol\":1799:1826  campaigns[_campaignAddress] */\n      0x00\n        /* \"contracts/CharityDonation.sol\":1809:1825  _campaignAddress */\n      dup5\n        /* \"contracts/CharityDonation.sol\":1799:1826  campaigns[_campaignAddress] */\n      0xffffffffffffffffffffffffffffffffffffffff\n      and\n      0xffffffffffffffffffffffffffffffffffffffff\n      and\n      dup2\n      mstore\n      0x20\n      add\n      swap1\n      dup2\n      mstore\n      0x20\n      add\n      0x00\n      keccak256\n        /* \"contracts/CharityDonation.sol\":1839:1840  1 */\n      0x01\n        /* \"contracts/CharityDonation.sol\":1827:1838  _campaignId */\n      dup4\n        /* \"contracts/CharityDonation.sol\":1827:1840  _campaignId-1 */\n      tag_123\n      swap2\n      swap1\n      tag_47\n      jump\t// in\n    tag_123:\n        /* \"contracts/CharityDonation.sol\":1799:1841  campaigns[_campaignAddress][_campaignId-1] */\n      dup2\n      sload\n      dup2\n      lt\n      tag_124\n      jumpi\n      tag_125\n      tag_50\n      jump\t// in\n    tag_125:\n    tag_124:\n      swap1\n      0x00\n      mstore\n      keccak256(0x00, 0x20)\n      swap1\n      0x07\n      mul\n      add\n        /* \"contracts/CharityDonation.sol\":1799:1853  campaigns[_campaignAddress][_campaignId-1].campaign_id */\n      0x00\n      add\n      sload\n        /* \"contracts/CharityDonation.sol\":1799:1868  campaigns[_campaignAddress][_campaignId-1].campaign_id == _campaignId */\n      eq\n        /* \"contracts/CharityDonation.sol\":1791:1910  require(campaigns[_campaignAddress][_campaignId-1].campaign_id == _campaignId,\"The Campaign Specified Does Not Exist!\") */\n      tag_127\n      jumpi\n      mload(0x40)\n      0x08c379a000000000000000000000000000000000000000000000000000000000\n      dup2\n      mstore\n      0x04\n      add\n      tag_128\n      swap1\n      tag_129\n      jump\t// in\n    tag_128:\n      mload(0x40)\n      dup1\n      swap2\n      sub\n      swap1\n      revert\n    tag_127:\n        /* \"contracts/CharityDonation.sol\":1966:1972  admins */\n      0x04\n        /* \"contracts/CharityDonation.sol\":1966:1990  admins[_campaignAddress] */\n      0x00\n        /* \"contracts/CharityDonation.sol\":1973:1989  _campaignAddress */\n      dup4\n        /* \"contracts/CharityDonation.sol\":1966:1990  admins[_campaignAddress] */\n      0xffffffffffffffffffffffffffffffffffffffff\n      and\n      0xffffffffffffffffffffffffffffffffffffffff\n      and\n      dup2\n      mstore\n      0x20\n      add\n      swap1\n      dup2\n      mstore\n      0x20\n      add\n      0x00\n      keccak256\n        /* \"contracts/CharityDonation.sol\":1966:2002  admins[_campaignAddress][msg.sender] */\n      0x00\n        /* \"contracts/CharityDonation.sol\":1991:2001  msg.sender */\n      caller\n        /* \"contracts/CharityDonation.sol\":1966:2002  admins[_campaignAddress][msg.sender] */\n      0xffffffffffffffffffffffffffffffffffffffff\n      and\n      0xffffffffffffffffffffffffffffffffffffffff\n      and\n      dup2\n      mstore\n      0x20\n      add\n      swap1\n      dup2\n      mstore\n      0x20\n      add\n      0x00\n      keccak256\n      0x00\n      swap1\n      sload\n      swap1\n      0x0100\n      exp\n      swap1\n      div\n      0xff\n      and\n        /* \"contracts/CharityDonation.sol\":1958:2043  require(admins[_campaignAddress][msg.sender], \"Only Admins Can Perform This Action!\") */\n      tag_130\n      jumpi\n      mload(0x40)\n      0x08c379a000000000000000000000000000000000000000000000000000000000\n      dup2\n      mstore\n      0x04\n      add\n      tag_131\n      swap1\n      tag_132\n      jump\t// in\n    tag_131:\n      mload(0x40)\n      dup1\n      swap2\n      sub\n      swap1\n      revert\n    tag_130:\n        /* \"contracts/CharityDonation.sol\":5188:5189  0 */\n      0x00\n        /* \"contracts/CharityDonation.sol\":5178:5185  _amount */\n      dup5\n        /* \"contracts/CharityDonation.sol\":5178:5189  _amount > 0 */\n      gt\n        /* \"contracts/CharityDonation.sol\":5178:5258  _amount > 0 && _amount < campaigns[campaign_Address][campaign_ID-1].raisedAmount */\n      dup1\n      iszero\n      tag_134\n      jumpi\n      pop\n        /* \"contracts/CharityDonation.sol\":5203:5212  campaigns */\n      0x03\n        /* \"contracts/CharityDonation.sol\":5203:5230  campaigns[campaign_Address] */\n      0x00\n        /* \"contracts/CharityDonation.sol\":5213:5229  campaign_Address */\n      0x02\n      0x00\n      swap1\n      sload\n      swap1\n      0x0100\n      exp\n      swap1\n      div\n      0xffffffffffffffffffffffffffffffffffffffff\n      and\n        /* \"contracts/CharityDonation.sol\":5203:5230  campaigns[campaign_Address] */\n      0xffffffffffffffffffffffffffffffffffffffff\n      and\n      0xffffffffffffffffffffffffffffffffffffffff\n      and\n      dup2\n      mstore\n      0x20\n      add\n      swap1\n      dup2\n      mstore\n      0x20\n      add\n      0x00\n      keccak256\n        /* \"contracts/CharityDonation.sol\":5243:5244  1 */\n      0x01\n        /* \"contracts/CharityDonation.sol\":5231:5242  campaign_ID */\n      dup1\n      sload\n        /* \"contracts/CharityDonation.sol\":5231:5244  campaign_ID-1 */\n      tag_135\n      swap2\n      swap1\n      tag_47\n      jump\t// in\n    tag_135:\n        /* \"contracts/CharityDonation.sol\":5203:5245  campaigns[campaign_Address][campaign_ID-1] */\n      dup2\n      sload\n      dup2\n      lt\n      tag_136\n      jumpi\n      tag_137\n      tag_50\n      jump\t// in\n    tag_137:\n    tag_136:\n      swap1\n      0x00\n      mstore\n      keccak256(0x00, 0x20)\n      swap1\n      0x07\n      mul\n      add\n        /* \"contracts/CharityDonation.sol\":5203:5258  campaigns[campaign_Address][campaign_ID-1].raisedAmount */\n      0x05\n      add\n      sload\n        /* \"contracts/CharityDonation.sol\":5193:5200  _amount */\n      dup5\n        /* \"contracts/CharityDonation.sol\":5193:5258  _amount < campaigns[campaign_Address][campaign_ID-1].raisedAmount */\n      lt\n        /* \"contracts/CharityDonation.sol\":5178:5258  _amount > 0 && _amount < campaigns[campaign_Address][campaign_ID-1].raisedAmount */\n    tag_134:\n        /* \"contracts/CharityDonation.sol\":5156:5337  require(... */\n      tag_139\n      jumpi\n      mload(0x40)\n      0x08c379a000000000000000000000000000000000000000000000000000000000\n      dup2\n      mstore\n      0x04\n      add\n      tag_140\n      swap1\n      tag_141\n      jump\t// in\n    tag_140:\n      mload(0x40)\n      dup1\n      swap2\n      sub\n      swap1\n      revert\n    tag_139:\n        /* \"contracts/CharityDonation.sol\":5398:5407  campaigns */\n      0x03\n        /* \"contracts/CharityDonation.sol\":5398:5425  campaigns[campaign_Address] */\n      0x00\n        /* \"contracts/CharityDonation.sol\":5408:5424  campaign_Address */\n      0x02\n      0x00\n      swap1\n      sload\n      swap1\n      0x0100\n      exp\n      swap1\n      div\n      0xffffffffffffffffffffffffffffffffffffffff\n      and\n        /* \"contracts/CharityDonation.sol\":5398:5425  campaigns[campaign_Address] */\n      0xffffffffffffffffffffffffffffffffffffffff\n      and\n      0xffffffffffffffffffffffffffffffffffffffff\n      and\n      dup2\n      mstore\n      0x20\n      add\n      swap1\n      dup2\n      mstore\n      0x20\n      add\n      0x00\n      keccak256\n        /* \"contracts/CharityDonation.sol\":5438:5439  1 */\n      0x01\n        /* \"contracts/CharityDonation.sol\":5426:5437  campaign_ID */\n      dup1\n      sload\n        /* \"contracts/CharityDonation.sol\":5426:5439  campaign_ID-1 */\n      tag_142\n      swap2\n      swap1\n      tag_47\n      jump\t// in\n    tag_142:\n        /* \"contracts/CharityDonation.sol\":5398:5440  campaigns[campaign_Address][campaign_ID-1] */\n      dup2\n      sload\n      dup2\n      lt\n      tag_143\n      jumpi\n      tag_144\n      tag_50\n      jump\t// in\n    tag_144:\n    tag_143:\n      swap1\n      0x00\n      mstore\n      keccak256(0x00, 0x20)\n      swap1\n      0x07\n      mul\n      add\n        /* \"contracts/CharityDonation.sol\":5398:5452  campaigns[campaign_Address][campaign_ID-1].isCompleted */\n      0x06\n      add\n      0x00\n      swap1\n      sload\n      swap1\n      0x0100\n      exp\n      swap1\n      div\n      0xff\n      and\n        /* \"contracts/CharityDonation.sol\":5390:5504  require(campaigns[campaign_Address][campaign_ID-1].isCompleted,\"You Can't Withdraw Funds from an Active Campaign\") */\n      tag_146\n      jumpi\n      mload(0x40)\n      0x08c379a000000000000000000000000000000000000000000000000000000000\n      dup2\n      mstore\n      0x04\n      add\n      tag_147\n      swap1\n      tag_148\n      jump\t// in\n    tag_147:\n      mload(0x40)\n      dup1\n      swap2\n      sub\n      swap1\n      revert\n    tag_146:\n        /* \"contracts/CharityDonation.sol\":5610:5617  _amount */\n      dup4\n        /* \"contracts/CharityDonation.sol\":5551:5560  campaigns */\n      0x03\n        /* \"contracts/CharityDonation.sol\":5551:5578  campaigns[campaign_Address] */\n      0x00\n        /* \"contracts/CharityDonation.sol\":5561:5577  campaign_Address */\n      0x02\n      0x00\n      swap1\n      sload\n      swap1\n      0x0100\n      exp\n      swap1\n      div\n      0xffffffffffffffffffffffffffffffffffffffff\n      and\n        /* \"contracts/CharityDonation.sol\":5551:5578  campaigns[campaign_Address] */\n      0xffffffffffffffffffffffffffffffffffffffff\n      and\n      0xffffffffffffffffffffffffffffffffffffffff\n      and\n      dup2\n      mstore\n      0x20\n      add\n      swap1\n      dup2\n      mstore\n      0x20\n      add\n      0x00\n      keccak256\n        /* \"contracts/CharityDonation.sol\":5591:5592  1 */\n      0x01\n        /* \"contracts/CharityDonation.sol\":5579:5590  campaign_ID */\n      dup1\n      sload\n        /* \"contracts/CharityDonation.sol\":5579:5592  campaign_ID-1 */\n      tag_149\n      swap2\n      swap1\n      tag_47\n      jump\t// in\n    tag_149:\n        /* \"contracts/CharityDonation.sol\":5551:5593  campaigns[campaign_Address][campaign_ID-1] */\n      dup2\n      sload\n      dup2\n      lt\n      tag_150\n      jumpi\n      tag_151\n      tag_50\n      jump\t// in\n    tag_151:\n    tag_150:\n      swap1\n      0x00\n      mstore\n      keccak256(0x00, 0x20)\n      swap1\n      0x07\n      mul\n      add\n        /* \"contracts/CharityDonation.sol\":5551:5606  campaigns[campaign_Address][campaign_ID-1].raisedAmount */\n      0x05\n      add\n      0x00\n        /* \"contracts/CharityDonation.sol\":5551:5617  campaigns[campaign_Address][campaign_ID-1].raisedAmount -= _amount */\n      dup3\n      dup3\n      sload\n      tag_153\n      swap2\n      swap1\n      tag_47\n      jump\t// in\n    tag_153:\n      swap3\n      pop\n      pop\n      dup2\n      swap1\n      sstore\n      pop\n        /* \"contracts/CharityDonation.sol\":5675:5678  _to */\n      dup3\n        /* \"contracts/CharityDonation.sol\":5675:5687  _to.transfer */\n      0xffffffffffffffffffffffffffffffffffffffff\n      and\n        /* \"contracts/CharityDonation.sol\":5675:5696  _to.transfer(_amount) */\n      0x08fc\n        /* \"contracts/CharityDonation.sol\":5688:5695  _amount */\n      dup6\n        /* \"contracts/CharityDonation.sol\":5675:5696  _to.transfer(_amount) */\n      swap1\n      dup2\n      iszero\n      mul\n      swap1\n      mload(0x40)\n      0x00\n      mload(0x40)\n      dup1\n      dup4\n      sub\n      dup2\n      dup6\n      dup9\n      dup9\n      call\n      swap4\n      pop\n      pop\n      pop\n      pop\n      iszero\n      dup1\n      iszero\n      tag_155\n      jumpi\n      returndatasize\n      0x00\n      dup1\n      returndatacopy\n      revert(0x00, returndatasize)\n    tag_155:\n      pop\n        /* \"contracts/CharityDonation.sol\":5736:5774  FundsWithdrawn(_amount,msg.sender,_to) */\n      0xf425cd5639e3fa6b1a9cd7a21fd84e191ea0768c7090eb1a1af5ae2d13ca0950\n        /* \"contracts/CharityDonation.sol\":5751:5758  _amount */\n      dup5\n        /* \"contracts/CharityDonation.sol\":5759:5769  msg.sender */\n      caller\n        /* \"contracts/CharityDonation.sol\":5770:5773  _to */\n      dup6\n        /* \"contracts/CharityDonation.sol\":5736:5774  FundsWithdrawn(_amount,msg.sender,_to) */\n      mload(0x40)\n      tag_156\n      swap4\n      swap3\n      swap2\n      swap1\n      tag_157\n      jump\t// in\n    tag_156:\n      mload(0x40)\n      dup1\n      swap2\n      sub\n      swap1\n      log1\n        /* \"contracts/CharityDonation.sol\":4994:5782  function withdrawFunds(uint256 _amount, address payable _to) external payable onlyWithdraw(campaign_Address, campaign_ID) {... */\n      pop\n      pop\n      pop\n      pop\n      jump\t// out\n        /* \"contracts/CharityDonation.sol\":672:733  mapping  (address => mapping (address => bool)) public admins */\n    tag_33:\n      mstore(0x20, 0x04)\n      dup2\n      0x00\n      mstore\n      mstore(0x20, keccak256(0x00, 0x40))\n      dup1\n      0x00\n      mstore\n      keccak256(0x00, 0x40)\n      0x00\n      swap2\n      pop\n      swap2\n      pop\n      swap1\n      sload\n      swap1\n      0x0100\n      exp\n      swap1\n      div\n      0xff\n      and\n      dup2\n      jump\t// out\n        /* \"contracts/CharityDonation.sol\":4818:4964  function setAdminValues(address _campAddr, uint256 _campId) public {... */\n    tag_39:\n        /* \"contracts/CharityDonation.sol\":4915:4924  _campAddr */\n      dup2\n        /* \"contracts/CharityDonation.sol\":4896:4912  campaign_Address */\n      0x02\n      0x00\n        /* \"contracts/CharityDonation.sol\":4896:4924  campaign_Address = _campAddr */\n      0x0100\n      exp\n      dup2\n      sload\n      dup2\n      0xffffffffffffffffffffffffffffffffffffffff\n      mul\n      not\n      and\n      swap1\n      dup4\n      0xffffffffffffffffffffffffffffffffffffffff\n      and\n      mul\n      or\n      swap1\n      sstore\n      pop\n        /* \"contracts/CharityDonation.sol\":4949:4956  _campId */\n      dup1\n        /* \"contracts/CharityDonation.sol\":4935:4946  campaign_ID */\n      0x01\n        /* \"contracts/CharityDonation.sol\":4935:4956  campaign_ID = _campId */\n      dup2\n      swap1\n      sstore\n      pop\n        /* \"contracts/CharityDonation.sol\":4818:4964  function setAdminValues(address _campAddr, uint256 _campId) public {... */\n      pop\n      pop\n      jump\t// out\n        /* \"contracts/CharityDonation.sol\":2101:3295  function createCampaign(string memory _title, string memory _description,uint256 _target) public  {... */\n    tag_44:\n        /* \"contracts/CharityDonation.sol\":2283:2292  uint256 i */\n      0x00\n        /* \"contracts/CharityDonation.sol\":2279:2689  for(uint256 i; i < campaigns[msg.sender].length; i++) {... */\n    tag_160:\n        /* \"contracts/CharityDonation.sol\":2298:2307  campaigns */\n      0x03\n        /* \"contracts/CharityDonation.sol\":2298:2319  campaigns[msg.sender] */\n      0x00\n        /* \"contracts/CharityDonation.sol\":2308:2318  msg.sender */\n      caller\n        /* \"contracts/CharityDonation.sol\":2298:2319  campaigns[msg.sender] */\n      0xffffffffffffffffffffffffffffffffffffffff\n      and\n      0xffffffffffffffffffffffffffffffffffffffff\n      and\n      dup2\n      mstore\n      0x20\n      add\n      swap1\n      dup2\n      mstore\n      0x20\n      add\n      0x00\n      keccak256\n        /* \"contracts/CharityDonation.sol\":2298:2326  campaigns[msg.sender].length */\n      dup1\n      sload\n      swap1\n      pop\n        /* \"contracts/CharityDonation.sol\":2294:2295  i */\n      dup2\n        /* \"contracts/CharityDonation.sol\":2294:2326  i < campaigns[msg.sender].length */\n      lt\n        /* \"contracts/CharityDonation.sol\":2279:2689  for(uint256 i; i < campaigns[msg.sender].length; i++) {... */\n      iszero\n      tag_161\n      jumpi\n        /* \"contracts/CharityDonation.sol\":2352:2380  string storage campaignTitle */\n      0x00\n        /* \"contracts/CharityDonation.sol\":2383:2392  campaigns */\n      0x03\n        /* \"contracts/CharityDonation.sol\":2383:2404  campaigns[msg.sender] */\n      0x00\n        /* \"contracts/CharityDonation.sol\":2393:2403  msg.sender */\n      caller\n        /* \"contracts/CharityDonation.sol\":2383:2404  campaigns[msg.sender] */\n      0xffffffffffffffffffffffffffffffffffffffff\n      and\n      0xffffffffffffffffffffffffffffffffffffffff\n      and\n      dup2\n      mstore\n      0x20\n      add\n      swap1\n      dup2\n      mstore\n      0x20\n      add\n      0x00\n      keccak256\n        /* \"contracts/CharityDonation.sol\":2405:2406  i */\n      dup3\n        /* \"contracts/CharityDonation.sol\":2383:2407  campaigns[msg.sender][i] */\n      dup2\n      sload\n      dup2\n      lt\n      tag_163\n      jumpi\n      tag_164\n      tag_50\n      jump\t// in\n    tag_164:\n    tag_163:\n      swap1\n      0x00\n      mstore\n      keccak256(0x00, 0x20)\n      swap1\n      0x07\n      mul\n      add\n        /* \"contracts/CharityDonation.sol\":2383:2413  campaigns[msg.sender][i].title */\n      0x01\n      add\n        /* \"contracts/CharityDonation.sol\":2352:2413  string storage campaignTitle = campaigns[msg.sender][i].title */\n      swap1\n      pop\n        /* \"contracts/CharityDonation.sol\":2432:2443  bool exists */\n      0x00\n        /* \"contracts/CharityDonation.sol\":2519:2525  _title */\n      dup6\n        /* \"contracts/CharityDonation.sol\":2502:2526  abi.encodePacked(_title) */\n      add(0x20, mload(0x40))\n      tag_166\n      swap2\n      swap1\n      tag_167\n      jump\t// in\n    tag_166:\n      mload(0x40)\n      0x20\n      dup2\n      dup4\n      sub\n      sub\n      dup2\n      mstore\n      swap1\n      0x40\n      mstore\n        /* \"contracts/CharityDonation.sol\":2492:2527  keccak256(abi.encodePacked(_title)) */\n      dup1\n      mload\n      swap1\n      0x20\n      add\n      keccak256\n        /* \"contracts/CharityDonation.sol\":2473:2486  campaignTitle */\n      dup3\n        /* \"contracts/CharityDonation.sol\":2456:2487  abi.encodePacked(campaignTitle) */\n      add(0x20, mload(0x40))\n      tag_168\n      swap2\n      swap1\n      tag_169\n      jump\t// in\n    tag_168:\n      mload(0x40)\n      0x20\n      dup2\n      dup4\n      sub\n      sub\n      dup2\n      mstore\n      swap1\n      0x40\n      mstore\n        /* \"contracts/CharityDonation.sol\":2446:2488  keccak256(abi.encodePacked(campaignTitle)) */\n      dup1\n      mload\n      swap1\n      0x20\n      add\n      keccak256\n        /* \"contracts/CharityDonation.sol\":2446:2527  keccak256(abi.encodePacked(campaignTitle)) == keccak256(abi.encodePacked(_title)) */\n      eq\n        /* \"contracts/CharityDonation.sol\":2432:2527  bool exists = keccak256(abi.encodePacked(campaignTitle)) == keccak256(abi.encodePacked(_title)) */\n      swap1\n      pop\n        /* \"contracts/CharityDonation.sol\":2550:2556  exists */\n      dup1\n        /* \"contracts/CharityDonation.sol\":2546:2674  if (exists) {... */\n      iszero\n      tag_170\n      jumpi\n        /* \"contracts/CharityDonation.sol\":2625:2631  _title */\n      dup6\n        /* \"contracts/CharityDonation.sol\":2595:2652  abi.encodePacked(\"Campaign \", _title, \" already exists!\") */\n      add(0x20, mload(0x40))\n      tag_171\n      swap2\n      swap1\n      tag_172\n      jump\t// in\n    tag_171:\n      mload(0x40)\n      0x20\n      dup2\n      dup4\n      sub\n      sub\n      dup2\n      mstore\n      swap1\n      0x40\n      mstore\n        /* \"contracts/CharityDonation.sol\":2581:2654  revert(string(abi.encodePacked(\"Campaign \", _title, \" already exists!\"))) */\n      mload(0x40)\n      0x08c379a000000000000000000000000000000000000000000000000000000000\n      dup2\n      mstore\n      0x04\n      add\n      tag_173\n      swap2\n      swap1\n      tag_77\n      jump\t// in\n    tag_173:\n      mload(0x40)\n      dup1\n      swap2\n      sub\n      swap1\n      revert\n        /* \"contracts/CharityDonation.sol\":2546:2674  if (exists) {... */\n    tag_170:\n        /* \"contracts/CharityDonation.sol\":2333:2689  {... */\n      pop\n      pop\n        /* \"contracts/CharityDonation.sol\":2328:2331  i++ */\n      dup1\n      dup1\n      0x01\n      add\n      swap2\n      pop\n      pop\n        /* \"contracts/CharityDonation.sol\":2279:2689  for(uint256 i; i < campaigns[msg.sender].length; i++) {... */\n      jump(tag_160)\n    tag_161:\n      pop\n        /* \"contracts/CharityDonation.sol\":2739:2766  Campaign memory newCampaign */\n      0x00\n        /* \"contracts/CharityDonation.sol\":2770:3123  Campaign(... */\n      mload(0x40)\n      dup1\n      0xe0\n      add\n      0x40\n      mstore\n      dup1\n        /* \"contracts/CharityDonation.sol\":2857:2858  1 */\n      0x01\n        /* \"contracts/CharityDonation.sol\":2826:2835  campaigns */\n      0x03\n        /* \"contracts/CharityDonation.sol\":2826:2847  campaigns[msg.sender] */\n      0x00\n        /* \"contracts/CharityDonation.sol\":2836:2846  msg.sender */\n      caller\n        /* \"contracts/CharityDonation.sol\":2826:2847  campaigns[msg.sender] */\n      0xffffffffffffffffffffffffffffffffffffffff\n      and\n      0xffffffffffffffffffffffffffffffffffffffff\n      and\n      dup2\n      mstore\n      0x20\n      add\n      swap1\n      dup2\n      mstore\n      0x20\n      add\n      0x00\n      keccak256\n        /* \"contracts/CharityDonation.sol\":2826:2854  campaigns[msg.sender].length */\n      dup1\n      sload\n      swap1\n      pop\n        /* \"contracts/CharityDonation.sol\":2826:2858  campaigns[msg.sender].length + 1 */\n      tag_174\n      swap2\n      swap1\n      tag_101\n      jump\t// in\n    tag_174:\n        /* \"contracts/CharityDonation.sol\":2770:3123  Campaign(... */\n      dup2\n      mstore\n      0x20\n      add\n        /* \"contracts/CharityDonation.sol\":2884:2890  _title */\n      dup6\n        /* \"contracts/CharityDonation.sol\":2770:3123  Campaign(... */\n      dup2\n      mstore\n      0x20\n      add\n        /* \"contracts/CharityDonation.sol\":2922:2934  _description */\n      dup5\n        /* \"contracts/CharityDonation.sol\":2770:3123  Campaign(... */\n      dup2\n      mstore\n      0x20\n      add\n        /* \"contracts/CharityDonation.sol\":2971:2981  msg.sender */\n      caller\n        /* \"contracts/CharityDonation.sol\":2770:3123  Campaign(... */\n      0xffffffffffffffffffffffffffffffffffffffff\n      and\n      dup2\n      mstore\n      0x20\n      add\n        /* \"contracts/CharityDonation.sol\":3014:3021  _target */\n      dup4\n        /* \"contracts/CharityDonation.sol\":2770:3123  Campaign(... */\n      dup2\n      mstore\n      0x20\n      add\n        /* \"contracts/CharityDonation.sol\":3058:3059  0 */\n      0x00\n        /* \"contracts/CharityDonation.sol\":2770:3123  Campaign(... */\n      dup2\n      mstore\n      0x20\n      add\n        /* \"contracts/CharityDonation.sol\":3092:3097  false */\n      0x00\n        /* \"contracts/CharityDonation.sol\":2770:3123  Campaign(... */\n      iszero\n      iszero\n      dup2\n      mstore\n      pop\n        /* \"contracts/CharityDonation.sol\":2739:3123  Campaign memory newCampaign =  Campaign(... */\n      swap1\n      pop\n        /* \"contracts/CharityDonation.sol\":3134:3143  campaigns */\n      0x03\n        /* \"contracts/CharityDonation.sol\":3134:3155  campaigns[msg.sender] */\n      0x00\n        /* \"contracts/CharityDonation.sol\":3144:3154  msg.sender */\n      caller\n        /* \"contracts/CharityDonation.sol\":3134:3155  campaigns[msg.sender] */\n      0xffffffffffffffffffffffffffffffffffffffff\n      and\n      0xffffffffffffffffffffffffffffffffffffffff\n      and\n      dup2\n      mstore\n      0x20\n      add\n      swap1\n      dup2\n      mstore\n      0x20\n      add\n      0x00\n      keccak256\n        /* \"contracts/CharityDonation.sol\":3161:3172  newCampaign */\n      dup2\n        /* \"contracts/CharityDonation.sol\":3134:3173  campaigns[msg.sender].push(newCampaign) */\n      swap1\n      dup1\n      0x01\n      dup2\n      sload\n      add\n      dup1\n      dup3\n      sstore\n      dup1\n      swap2\n      pop\n      pop\n      0x01\n      swap1\n      sub\n      swap1\n      0x00\n      mstore\n      keccak256(0x00, 0x20)\n      swap1\n      0x07\n      mul\n      add\n      0x00\n      swap1\n      swap2\n      swap1\n      swap2\n      swap1\n      swap2\n      pop\n      0x00\n      dup3\n      add\n      mload\n      dup2\n      0x00\n      add\n      sstore\n      0x20\n      dup3\n      add\n      mload\n      dup2\n      0x01\n      add\n      swap1\n      dup2\n      tag_176\n      swap2\n      swap1\n      tag_177\n      jump\t// in\n    tag_176:\n      pop\n      0x40\n      dup3\n      add\n      mload\n      dup2\n      0x02\n      add\n      swap1\n      dup2\n      tag_178\n      swap2\n      swap1\n      tag_177\n      jump\t// in\n    tag_178:\n      pop\n      0x60\n      dup3\n      add\n      mload\n      dup2\n      0x03\n      add\n      exp(0x0100, 0x00)\n      dup2\n      sload\n      dup2\n      0xffffffffffffffffffffffffffffffffffffffff\n      mul\n      not\n      and\n      swap1\n      dup4\n      0xffffffffffffffffffffffffffffffffffffffff\n      and\n      mul\n      or\n      swap1\n      sstore\n      pop\n      0x80\n      dup3\n      add\n      mload\n      dup2\n      0x04\n      add\n      sstore\n      0xa0\n      dup3\n      add\n      mload\n      dup2\n      0x05\n      add\n      sstore\n      0xc0\n      dup3\n      add\n      mload\n      dup2\n      0x06\n      add\n      exp(0x0100, 0x00)\n      dup2\n      sload\n      dup2\n      0xff\n      mul\n      not\n      and\n      swap1\n      dup4\n      iszero\n      iszero\n      mul\n      or\n      swap1\n      sstore\n      pop\n      pop\n      pop\n        /* \"contracts/CharityDonation.sol\":3213:3287  CampaignCreated(campaigns[msg.sender].length, msg.sender, _title, _target) */\n      0x825fb10f7650ed27414d6f86acdf7d5946927d9b25001f045f1a2435deec02fe\n        /* \"contracts/CharityDonation.sol\":3229:3238  campaigns */\n      0x03\n        /* \"contracts/CharityDonation.sol\":3229:3250  campaigns[msg.sender] */\n      0x00\n        /* \"contracts/CharityDonation.sol\":3239:3249  msg.sender */\n      caller\n        /* \"contracts/CharityDonation.sol\":3229:3250  campaigns[msg.sender] */\n      0xffffffffffffffffffffffffffffffffffffffff\n      and\n      0xffffffffffffffffffffffffffffffffffffffff\n      and\n      dup2\n      mstore\n      0x20\n      add\n      swap1\n      dup2\n      mstore\n      0x20\n      add\n      0x00\n      keccak256\n        /* \"contracts/CharityDonation.sol\":3229:3257  campaigns[msg.sender].length */\n      dup1\n      sload\n      swap1\n      pop\n        /* \"contracts/CharityDonation.sol\":3259:3269  msg.sender */\n      caller\n        /* \"contracts/CharityDonation.sol\":3271:3277  _title */\n      dup7\n        /* \"contracts/CharityDonation.sol\":3279:3286  _target */\n      dup6\n        /* \"contracts/CharityDonation.sol\":3213:3287  CampaignCreated(campaigns[msg.sender].length, msg.sender, _title, _target) */\n      mload(0x40)\n      tag_179\n      swap5\n      swap4\n      swap3\n      swap2\n      swap1\n      tag_180\n      jump\t// in\n    tag_179:\n      mload(0x40)\n      dup1\n      swap2\n      sub\n      swap1\n      log1\n        /* \"contracts/CharityDonation.sol\":2199:3295  {... */\n      pop\n        /* \"contracts/CharityDonation.sol\":2101:3295  function createCampaign(string memory _title, string memory _description,uint256 _target) public  {... */\n      pop\n      pop\n      pop\n      jump\t// out\n        /* \"#utility.yul\":7:82   */\n    tag_181:\n        /* \"#utility.yul\":40:46   */\n      0x00\n        /* \"#utility.yul\":73:75   */\n      0x40\n        /* \"#utility.yul\":67:76   */\n      mload\n        /* \"#utility.yul\":57:76   */\n      swap1\n      pop\n        /* \"#utility.yul\":7:82   */\n      swap1\n      jump\t// out\n        /* \"#utility.yul\":88:205   */\n    tag_182:\n        /* \"#utility.yul\":197:198   */\n      0x00\n        /* \"#utility.yul\":194:195   */\n      dup1\n        /* \"#utility.yul\":187:199   */\n      revert\n        /* \"#utility.yul\":211:328   */\n    tag_183:\n        /* \"#utility.yul\":320:321   */\n      0x00\n        /* \"#utility.yul\":317:318   */\n      dup1\n        /* \"#utility.yul\":310:322   */\n      revert\n        /* \"#utility.yul\":334:460   */\n    tag_184:\n        /* \"#utility.yul\":371:378   */\n      0x00\n        /* \"#utility.yul\":411:453   */\n      0xffffffffffffffffffffffffffffffffffffffff\n        /* \"#utility.yul\":404:409   */\n      dup3\n        /* \"#utility.yul\":400:454   */\n      and\n        /* \"#utility.yul\":389:454   */\n      swap1\n      pop\n        /* \"#utility.yul\":334:460   */\n      swap2\n      swap1\n      pop\n      jump\t// out\n        /* \"#utility.yul\":466:562   */\n    tag_185:\n        /* \"#utility.yul\":503:510   */\n      0x00\n        /* \"#utility.yul\":532:556   */\n      tag_274\n        /* \"#utility.yul\":550:555   */\n      dup3\n        /* \"#utility.yul\":532:556   */\n      tag_184\n      jump\t// in\n    tag_274:\n        /* \"#utility.yul\":521:556   */\n      swap1\n      pop\n        /* \"#utility.yul\":466:562   */\n      swap2\n      swap1\n      pop\n      jump\t// out\n        /* \"#utility.yul\":568:690   */\n    tag_186:\n        /* \"#utility.yul\":641:665   */\n      tag_276\n        /* \"#utility.yul\":659:664   */\n      dup2\n        /* \"#utility.yul\":641:665   */\n      tag_185\n      jump\t// in\n    tag_276:\n        /* \"#utility.yul\":634:639   */\n      dup2\n        /* \"#utility.yul\":631:666   */\n      eq\n        /* \"#utility.yul\":621:684   */\n      tag_277\n      jumpi\n        /* \"#utility.yul\":680:681   */\n      0x00\n        /* \"#utility.yul\":677:678   */\n      dup1\n        /* \"#utility.yul\":670:682   */\n      revert\n        /* \"#utility.yul\":621:684   */\n    tag_277:\n        /* \"#utility.yul\":568:690   */\n      pop\n      jump\t// out\n        /* \"#utility.yul\":696:835   */\n    tag_187:\n        /* \"#utility.yul\":742:747   */\n      0x00\n        /* \"#utility.yul\":780:786   */\n      dup2\n        /* \"#utility.yul\":767:787   */\n      calldataload\n        /* \"#utility.yul\":758:787   */\n      swap1\n      pop\n        /* \"#utility.yul\":796:829   */\n      tag_279\n        /* \"#utility.yul\":823:828   */\n      dup2\n        /* \"#utility.yul\":796:829   */\n      tag_186\n      jump\t// in\n    tag_279:\n        /* \"#utility.yul\":696:835   */\n      swap3\n      swap2\n      pop\n      pop\n      jump\t// out\n        /* \"#utility.yul\":841:918   */\n    tag_188:\n        /* \"#utility.yul\":878:885   */\n      0x00\n        /* \"#utility.yul\":907:912   */\n      dup2\n        /* \"#utility.yul\":896:912   */\n      swap1\n      pop\n        /* \"#utility.yul\":841:918   */\n      swap2\n      swap1\n      pop\n      jump\t// out\n        /* \"#utility.yul\":924:1046   */\n    tag_189:\n        /* \"#utility.yul\":997:1021   */\n      tag_282\n        /* \"#utility.yul\":1015:1020   */\n      dup2\n        /* \"#utility.yul\":997:1021   */\n      tag_188\n      jump\t// in\n    tag_282:\n        /* \"#utility.yul\":990:995   */\n      dup2\n        /* \"#utility.yul\":987:1022   */\n      eq\n        /* \"#utility.yul\":977:1040   */\n      tag_283\n      jumpi\n        /* \"#utility.yul\":1036:1037   */\n      0x00\n        /* \"#utility.yul\":1033:1034   */\n      dup1\n        /* \"#utility.yul\":1026:1038   */\n      revert\n        /* \"#utility.yul\":977:1040   */\n    tag_283:\n        /* \"#utility.yul\":924:1046   */\n      pop\n      jump\t// out\n        /* \"#utility.yul\":1052:1191   */\n    tag_190:\n        /* \"#utility.yul\":1098:1103   */\n      0x00\n        /* \"#utility.yul\":1136:1142   */\n      dup2\n        /* \"#utility.yul\":1123:1143   */\n      calldataload\n        /* \"#utility.yul\":1114:1143   */\n      swap1\n      pop\n        /* \"#utility.yul\":1152:1185   */\n      tag_285\n        /* \"#utility.yul\":1179:1184   */\n      dup2\n        /* \"#utility.yul\":1152:1185   */\n      tag_189\n      jump\t// in\n    tag_285:\n        /* \"#utility.yul\":1052:1191   */\n      swap3\n      swap2\n      pop\n      pop\n      jump\t// out\n        /* \"#utility.yul\":1197:1671   */\n    tag_13:\n        /* \"#utility.yul\":1265:1271   */\n      0x00\n        /* \"#utility.yul\":1273:1279   */\n      dup1\n        /* \"#utility.yul\":1322:1324   */\n      0x40\n        /* \"#utility.yul\":1310:1319   */\n      dup4\n        /* \"#utility.yul\":1301:1308   */\n      dup6\n        /* \"#utility.yul\":1297:1320   */\n      sub\n        /* \"#utility.yul\":1293:1325   */\n      slt\n        /* \"#utility.yul\":1290:1409   */\n      iszero\n      tag_287\n      jumpi\n        /* \"#utility.yul\":1328:1407   */\n      tag_288\n      tag_182\n      jump\t// in\n    tag_288:\n        /* \"#utility.yul\":1290:1409   */\n    tag_287:\n        /* \"#utility.yul\":1448:1449   */\n      0x00\n        /* \"#utility.yul\":1473:1526   */\n      tag_289\n        /* \"#utility.yul\":1518:1525   */\n      dup6\n        /* \"#utility.yul\":1509:1515   */\n      dup3\n        /* \"#utility.yul\":1498:1507   */\n      dup7\n        /* \"#utility.yul\":1494:1516   */\n      add\n        /* \"#utility.yul\":1473:1526   */\n      tag_187\n      jump\t// in\n    tag_289:\n        /* \"#utility.yul\":1463:1526   */\n      swap3\n      pop\n        /* \"#utility.yul\":1419:1536   */\n      pop\n        /* \"#utility.yul\":1575:1577   */\n      0x20\n        /* \"#utility.yul\":1601:1654   */\n      tag_290\n        /* \"#utility.yul\":1646:1653   */\n      dup6\n        /* \"#utility.yul\":1637:1643   */\n      dup3\n        /* \"#utility.yul\":1626:1635   */\n      dup7\n        /* \"#utility.yul\":1622:1644   */\n      add\n        /* \"#utility.yul\":1601:1654   */\n      tag_190\n      jump\t// in\n    tag_290:\n        /* \"#utility.yul\":1591:1654   */\n      swap2\n      pop\n        /* \"#utility.yul\":1546:1664   */\n      pop\n        /* \"#utility.yul\":1197:1671   */\n      swap3\n      pop\n      swap3\n      swap1\n      pop\n      jump\t// out\n        /* \"#utility.yul\":1677:1795   */\n    tag_191:\n        /* \"#utility.yul\":1764:1788   */\n      tag_292\n        /* \"#utility.yul\":1782:1787   */\n      dup2\n        /* \"#utility.yul\":1764:1788   */\n      tag_188\n      jump\t// in\n    tag_292:\n        /* \"#utility.yul\":1759:1762   */\n      dup3\n        /* \"#utility.yul\":1752:1789   */\n      mstore\n        /* \"#utility.yul\":1677:1795   */\n      pop\n      pop\n      jump\t// out\n        /* \"#utility.yul\":1801:1900   */\n    tag_192:\n        /* \"#utility.yul\":1853:1859   */\n      0x00\n        /* \"#utility.yul\":1887:1892   */\n      dup2\n        /* \"#utility.yul\":1881:1893   */\n      mload\n        /* \"#utility.yul\":1871:1893   */\n      swap1\n      pop\n        /* \"#utility.yul\":1801:1900   */\n      swap2\n      swap1\n      pop\n      jump\t// out\n        /* \"#utility.yul\":1906:2075   */\n    tag_193:\n        /* \"#utility.yul\":1990:2001   */\n      0x00\n        /* \"#utility.yul\":2024:2030   */\n      dup3\n        /* \"#utility.yul\":2019:2022   */\n      dup3\n        /* \"#utility.yul\":2012:2031   */\n      mstore\n        /* \"#utility.yul\":2064:2068   */\n      0x20\n        /* \"#utility.yul\":2059:2062   */\n      dup3\n        /* \"#utility.yul\":2055:2069   */\n      add\n        /* \"#utility.yul\":2040:2069   */\n      swap1\n      pop\n        /* \"#utility.yul\":1906:2075   */\n      swap3\n      swap2\n      pop\n      pop\n      jump\t// out\n        /* \"#utility.yul\":2081:2220   */\n    tag_194:\n        /* \"#utility.yul\":2170:2176   */\n      dup3\n        /* \"#utility.yul\":2165:2168   */\n      dup2\n        /* \"#utility.yul\":2160:2163   */\n      dup4\n        /* \"#utility.yul\":2154:2177   */\n      mcopy\n        /* \"#utility.yul\":2211:2212   */\n      0x00\n        /* \"#utility.yul\":2202:2208   */\n      dup4\n        /* \"#utility.yul\":2197:2200   */\n      dup4\n        /* \"#utility.yul\":2193:2209   */\n      add\n        /* \"#utility.yul\":2186:2213   */\n      mstore\n        /* \"#utility.yul\":2081:2220   */\n      pop\n      pop\n      pop\n      jump\t// out\n        /* \"#utility.yul\":2226:2328   */\n    tag_195:\n        /* \"#utility.yul\":2267:2273   */\n      0x00\n        /* \"#utility.yul\":2318:2320   */\n      0x1f\n        /* \"#utility.yul\":2314:2321   */\n      not\n        /* \"#utility.yul\":2309:2311   */\n      0x1f\n        /* \"#utility.yul\":2302:2307   */\n      dup4\n        /* \"#utility.yul\":2298:2312   */\n      add\n        /* \"#utility.yul\":2294:2322   */\n      and\n        /* \"#utility.yul\":2284:2322   */\n      swap1\n      pop\n        /* \"#utility.yul\":2226:2328   */\n      swap2\n      swap1\n      pop\n      jump\t// out\n        /* \"#utility.yul\":2334:2711   */\n    tag_196:\n        /* \"#utility.yul\":2422:2425   */\n      0x00\n        /* \"#utility.yul\":2450:2489   */\n      tag_298\n        /* \"#utility.yul\":2483:2488   */\n      dup3\n        /* \"#utility.yul\":2450:2489   */\n      tag_192\n      jump\t// in\n    tag_298:\n        /* \"#utility.yul\":2505:2576   */\n      tag_299\n        /* \"#utility.yul\":2569:2575   */\n      dup2\n        /* \"#utility.yul\":2564:2567   */\n      dup6\n        /* \"#utility.yul\":2505:2576   */\n      tag_193\n      jump\t// in\n    tag_299:\n        /* \"#utility.yul\":2498:2576   */\n      swap4\n      pop\n        /* \"#utility.yul\":2585:2650   */\n      tag_300\n        /* \"#utility.yul\":2643:2649   */\n      dup2\n        /* \"#utility.yul\":2638:2641   */\n      dup6\n        /* \"#utility.yul\":2631:2635   */\n      0x20\n        /* \"#utility.yul\":2624:2629   */\n      dup7\n        /* \"#utility.yul\":2620:2636   */\n      add\n        /* \"#utility.yul\":2585:2650   */\n      tag_194\n      jump\t// in\n    tag_300:\n        /* \"#utility.yul\":2675:2704   */\n      tag_301\n        /* \"#utility.yul\":2697:2703   */\n      dup2\n        /* \"#utility.yul\":2675:2704   */\n      tag_195\n      jump\t// in\n    tag_301:\n        /* \"#utility.yul\":2670:2673   */\n      dup5\n        /* \"#utility.yul\":2666:2705   */\n      add\n        /* \"#utility.yul\":2659:2705   */\n      swap2\n      pop\n        /* \"#utility.yul\":2426:2711   */\n      pop\n        /* \"#utility.yul\":2334:2711   */\n      swap3\n      swap2\n      pop\n      pop\n      jump\t// out\n        /* \"#utility.yul\":2717:2835   */\n    tag_197:\n        /* \"#utility.yul\":2804:2828   */\n      tag_303\n        /* \"#utility.yul\":2822:2827   */\n      dup2\n        /* \"#utility.yul\":2804:2828   */\n      tag_185\n      jump\t// in\n    tag_303:\n        /* \"#utility.yul\":2799:2802   */\n      dup3\n        /* \"#utility.yul\":2792:2829   */\n      mstore\n        /* \"#utility.yul\":2717:2835   */\n      pop\n      pop\n      jump\t// out\n        /* \"#utility.yul\":2841:2931   */\n    tag_198:\n        /* \"#utility.yul\":2875:2882   */\n      0x00\n        /* \"#utility.yul\":2918:2923   */\n      dup2\n        /* \"#utility.yul\":2911:2924   */\n      iszero\n        /* \"#utility.yul\":2904:2925   */\n      iszero\n        /* \"#utility.yul\":2893:2925   */\n      swap1\n      pop\n        /* \"#utility.yul\":2841:2931   */\n      swap2\n      swap1\n      pop\n      jump\t// out\n        /* \"#utility.yul\":2937:3046   */\n    tag_199:\n        /* \"#utility.yul\":3018:3039   */\n      tag_306\n        /* \"#utility.yul\":3033:3038   */\n      dup2\n        /* \"#utility.yul\":3018:3039   */\n      tag_198\n      jump\t// in\n    tag_306:\n        /* \"#utility.yul\":3013:3016   */\n      dup3\n        /* \"#utility.yul\":3006:3040   */\n      mstore\n        /* \"#utility.yul\":2937:3046   */\n      pop\n      pop\n      jump\t// out\n        /* \"#utility.yul\":3052:4108   */\n    tag_20:\n        /* \"#utility.yul\":3347:3351   */\n      0x00\n        /* \"#utility.yul\":3385:3388   */\n      0xe0\n        /* \"#utility.yul\":3374:3383   */\n      dup3\n        /* \"#utility.yul\":3370:3389   */\n      add\n        /* \"#utility.yul\":3362:3389   */\n      swap1\n      pop\n        /* \"#utility.yul\":3399:3470   */\n      tag_308\n        /* \"#utility.yul\":3467:3468   */\n      0x00\n        /* \"#utility.yul\":3456:3465   */\n      dup4\n        /* \"#utility.yul\":3452:3469   */\n      add\n        /* \"#utility.yul\":3443:3449   */\n      dup11\n        /* \"#utility.yul\":3399:3470   */\n      tag_191\n      jump\t// in\n    tag_308:\n        /* \"#utility.yul\":3517:3526   */\n      dup2\n        /* \"#utility.yul\":3511:3515   */\n      dup2\n        /* \"#utility.yul\":3507:3527   */\n      sub\n        /* \"#utility.yul\":3502:3504   */\n      0x20\n        /* \"#utility.yul\":3491:3500   */\n      dup4\n        /* \"#utility.yul\":3487:3505   */\n      add\n        /* \"#utility.yul\":3480:3528   */\n      mstore\n        /* \"#utility.yul\":3545:3623   */\n      tag_309\n        /* \"#utility.yul\":3618:3622   */\n      dup2\n        /* \"#utility.yul\":3609:3615   */\n      dup10\n        /* \"#utility.yul\":3545:3623   */\n      tag_196\n      jump\t// in\n    tag_309:\n        /* \"#utility.yul\":3537:3623   */\n      swap1\n      pop\n        /* \"#utility.yul\":3670:3679   */\n      dup2\n        /* \"#utility.yul\":3664:3668   */\n      dup2\n        /* \"#utility.yul\":3660:3680   */\n      sub\n        /* \"#utility.yul\":3655:3657   */\n      0x40\n        /* \"#utility.yul\":3644:3653   */\n      dup4\n        /* \"#utility.yul\":3640:3658   */\n      add\n        /* \"#utility.yul\":3633:3681   */\n      mstore\n        /* \"#utility.yul\":3698:3776   */\n      tag_310\n        /* \"#utility.yul\":3771:3775   */\n      dup2\n        /* \"#utility.yul\":3762:3768   */\n      dup9\n        /* \"#utility.yul\":3698:3776   */\n      tag_196\n      jump\t// in\n    tag_310:\n        /* \"#utility.yul\":3690:3776   */\n      swap1\n      pop\n        /* \"#utility.yul\":3786:3858   */\n      tag_311\n        /* \"#utility.yul\":3854:3856   */\n      0x60\n        /* \"#utility.yul\":3843:3852   */\n      dup4\n        /* \"#utility.yul\":3839:3857   */\n      add\n        /* \"#utility.yul\":3830:3836   */\n      dup8\n        /* \"#utility.yul\":3786:3858   */\n      tag_197\n      jump\t// in\n    tag_311:\n        /* \"#utility.yul\":3868:3941   */\n      tag_312\n        /* \"#utility.yul\":3936:3939   */\n      0x80\n        /* \"#utility.yul\":3925:3934   */\n      dup4\n        /* \"#utility.yul\":3921:3940   */\n      add\n        /* \"#utility.yul\":3912:3918   */\n      dup7\n        /* \"#utility.yul\":3868:3941   */\n      tag_191\n      jump\t// in\n    tag_312:\n        /* \"#utility.yul\":3951:4024   */\n      tag_313\n        /* \"#utility.yul\":4019:4022   */\n      0xa0\n        /* \"#utility.yul\":4008:4017   */\n      dup4\n        /* \"#utility.yul\":4004:4023   */\n      add\n        /* \"#utility.yul\":3995:4001   */\n      dup6\n        /* \"#utility.yul\":3951:4024   */\n      tag_191\n      jump\t// in\n    tag_313:\n        /* \"#utility.yul\":4034:4101   */\n      tag_314\n        /* \"#utility.yul\":4096:4099   */\n      0xc0\n        /* \"#utility.yul\":4085:4094   */\n      dup4\n        /* \"#utility.yul\":4081:4100   */\n      add\n        /* \"#utility.yul\":4072:4078   */\n      dup5\n        /* \"#utility.yul\":4034:4101   */\n      tag_199\n      jump\t// in\n    tag_314:\n        /* \"#utility.yul\":3052:4108   */\n      swap9\n      swap8\n      pop\n      pop\n      pop\n      pop\n      pop\n      pop\n      pop\n      pop\n      jump\t// out\n        /* \"#utility.yul\":4114:4218   */\n    tag_200:\n        /* \"#utility.yul\":4159:4166   */\n      0x00\n        /* \"#utility.yul\":4188:4212   */\n      tag_316\n        /* \"#utility.yul\":4206:4211   */\n      dup3\n        /* \"#utility.yul\":4188:4212   */\n      tag_184\n      jump\t// in\n    tag_316:\n        /* \"#utility.yul\":4177:4212   */\n      swap1\n      pop\n        /* \"#utility.yul\":4114:4218   */\n      swap2\n      swap1\n      pop\n      jump\t// out\n        /* \"#utility.yul\":4224:4362   */\n    tag_201:\n        /* \"#utility.yul\":4305:4337   */\n      tag_318\n        /* \"#utility.yul\":4331:4336   */\n      dup2\n        /* \"#utility.yul\":4305:4337   */\n      tag_200\n      jump\t// in\n    tag_318:\n        /* \"#utility.yul\":4298:4303   */\n      dup2\n        /* \"#utility.yul\":4295:4338   */\n      eq\n        /* \"#utility.yul\":4285:4356   */\n      tag_319\n      jumpi\n        /* \"#utility.yul\":4352:4353   */\n      0x00\n        /* \"#utility.yul\":4349:4350   */\n      dup1\n        /* \"#utility.yul\":4342:4354   */\n      revert\n        /* \"#utility.yul\":4285:4356   */\n    tag_319:\n        /* \"#utility.yul\":4224:4362   */\n      pop\n      jump\t// out\n        /* \"#utility.yul\":4368:4523   */\n    tag_202:\n        /* \"#utility.yul\":4422:4427   */\n      0x00\n        /* \"#utility.yul\":4460:4466   */\n      dup2\n        /* \"#utility.yul\":4447:4467   */\n      calldataload\n        /* \"#utility.yul\":4438:4467   */\n      swap1\n      pop\n        /* \"#utility.yul\":4476:4517   */\n      tag_321\n        /* \"#utility.yul\":4511:4516   */\n      dup2\n        /* \"#utility.yul\":4476:4517   */\n      tag_201\n      jump\t// in\n    tag_321:\n        /* \"#utility.yul\":4368:4523   */\n      swap3\n      swap2\n      pop\n      pop\n      jump\t// out\n        /* \"#utility.yul\":4529:5164   */\n    tag_23:\n        /* \"#utility.yul\":4614:4620   */\n      0x00\n        /* \"#utility.yul\":4622:4628   */\n      dup1\n        /* \"#utility.yul\":4630:4636   */\n      0x00\n        /* \"#utility.yul\":4679:4681   */\n      0x60\n        /* \"#utility.yul\":4667:4676   */\n      dup5\n        /* \"#utility.yul\":4658:4665   */\n      dup7\n        /* \"#utility.yul\":4654:4677   */\n      sub\n        /* \"#utility.yul\":4650:4682   */\n      slt\n        /* \"#utility.yul\":4647:4766   */\n      iszero\n      tag_323\n      jumpi\n        /* \"#utility.yul\":4685:4764   */\n      tag_324\n      tag_182\n      jump\t// in\n    tag_324:\n        /* \"#utility.yul\":4647:4766   */\n    tag_323:\n        /* \"#utility.yul\":4805:4806   */\n      0x00\n        /* \"#utility.yul\":4830:4891   */\n      tag_325\n        /* \"#utility.yul\":4883:4890   */\n      dup7\n        /* \"#utility.yul\":4874:4880   */\n      dup3\n        /* \"#utility.yul\":4863:4872   */\n      dup8\n        /* \"#utility.yul\":4859:4881   */\n      add\n        /* \"#utility.yul\":4830:4891   */\n      tag_202\n      jump\t// in\n    tag_325:\n        /* \"#utility.yul\":4820:4891   */\n      swap4\n      pop\n        /* \"#utility.yul\":4776:4901   */\n      pop\n        /* \"#utility.yul\":4940:4942   */\n      0x20\n        /* \"#utility.yul\":4966:5019   */\n      tag_326\n        /* \"#utility.yul\":5011:5018   */\n      dup7\n        /* \"#utility.yul\":5002:5008   */\n      dup3\n        /* \"#utility.yul\":4991:5000   */\n      dup8\n        /* \"#utility.yul\":4987:5009   */\n      add\n        /* \"#utility.yul\":4966:5019   */\n      tag_190\n      jump\t// in\n    tag_326:\n        /* \"#utility.yul\":4956:5019   */\n      swap3\n      pop\n        /* \"#utility.yul\":4911:5029   */\n      pop\n        /* \"#utility.yul\":5068:5070   */\n      0x40\n        /* \"#utility.yul\":5094:5147   */\n      tag_327\n        /* \"#utility.yul\":5139:5146   */\n      dup7\n        /* \"#utility.yul\":5130:5136   */\n      dup3\n        /* \"#utility.yul\":5119:5128   */\n      dup8\n        /* \"#utility.yul\":5115:5137   */\n      add\n        /* \"#utility.yul\":5094:5147   */\n      tag_190\n      jump\t// in\n    tag_327:\n        /* \"#utility.yul\":5084:5147   */\n      swap2\n      pop\n        /* \"#utility.yul\":5039:5157   */\n      pop\n        /* \"#utility.yul\":4529:5164   */\n      swap3\n      pop\n      swap3\n      pop\n      swap3\n      jump\t// out\n        /* \"#utility.yul\":5170:5660   */\n    tag_27:\n        /* \"#utility.yul\":5246:5252   */\n      0x00\n        /* \"#utility.yul\":5254:5260   */\n      dup1\n        /* \"#utility.yul\":5303:5305   */\n      0x40\n        /* \"#utility.yul\":5291:5300   */\n      dup4\n        /* \"#utility.yul\":5282:5289   */\n      dup6\n        /* \"#utility.yul\":5278:5301   */\n      sub\n        /* \"#utility.yul\":5274:5306   */\n      slt\n        /* \"#utility.yul\":5271:5390   */\n      iszero\n      tag_329\n      jumpi\n        /* \"#utility.yul\":5309:5388   */\n      tag_330\n      tag_182\n      jump\t// in\n    tag_330:\n        /* \"#utility.yul\":5271:5390   */\n    tag_329:\n        /* \"#utility.yul\":5429:5430   */\n      0x00\n        /* \"#utility.yul\":5454:5507   */\n      tag_331\n        /* \"#utility.yul\":5499:5506   */\n      dup6\n        /* \"#utility.yul\":5490:5496   */\n      dup3\n        /* \"#utility.yul\":5479:5488   */\n      dup7\n        /* \"#utility.yul\":5475:5497   */\n      add\n        /* \"#utility.yul\":5454:5507   */\n      tag_190\n      jump\t// in\n    tag_331:\n        /* \"#utility.yul\":5444:5507   */\n      swap3\n      pop\n        /* \"#utility.yul\":5400:5517   */\n      pop\n        /* \"#utility.yul\":5556:5558   */\n      0x20\n        /* \"#utility.yul\":5582:5643   */\n      tag_332\n        /* \"#utility.yul\":5635:5642   */\n      dup6\n        /* \"#utility.yul\":5626:5632   */\n      dup3\n        /* \"#utility.yul\":5615:5624   */\n      dup7\n        /* \"#utility.yul\":5611:5633   */\n      add\n        /* \"#utility.yul\":5582:5643   */\n      tag_202\n      jump\t// in\n    tag_332:\n        /* \"#utility.yul\":5572:5643   */\n      swap2\n      pop\n        /* \"#utility.yul\":5527:5653   */\n      pop\n        /* \"#utility.yul\":5170:5660   */\n      swap3\n      pop\n      swap3\n      swap1\n      pop\n      jump\t// out\n        /* \"#utility.yul\":5666:6140   */\n    tag_32:\n        /* \"#utility.yul\":5734:5740   */\n      0x00\n        /* \"#utility.yul\":5742:5748   */\n      dup1\n        /* \"#utility.yul\":5791:5793   */\n      0x40\n        /* \"#utility.yul\":5779:5788   */\n      dup4\n        /* \"#utility.yul\":5770:5777   */\n      dup6\n        /* \"#utility.yul\":5766:5789   */\n      sub\n        /* \"#utility.yul\":5762:5794   */\n      slt\n        /* \"#utility.yul\":5759:5878   */\n      iszero\n      tag_334\n      jumpi\n        /* \"#utility.yul\":5797:5876   */\n      tag_335\n      tag_182\n      jump\t// in\n    tag_335:\n        /* \"#utility.yul\":5759:5878   */\n    tag_334:\n        /* \"#utility.yul\":5917:5918   */\n      0x00\n        /* \"#utility.yul\":5942:5995   */\n      tag_336\n        /* \"#utility.yul\":5987:5994   */\n      dup6\n        /* \"#utility.yul\":5978:5984   */\n      dup3\n        /* \"#utility.yul\":5967:5976   */\n      dup7\n        /* \"#utility.yul\":5963:5985   */\n      add\n        /* \"#utility.yul\":5942:5995   */\n      tag_187\n      jump\t// in\n    tag_336:\n        /* \"#utility.yul\":5932:5995   */\n      swap3\n      pop\n        /* \"#utility.yul\":5888:6005   */\n      pop\n        /* \"#utility.yul\":6044:6046   */\n      0x20\n        /* \"#utility.yul\":6070:6123   */\n      tag_337\n        /* \"#utility.yul\":6115:6122   */\n      dup6\n        /* \"#utility.yul\":6106:6112   */\n      dup3\n        /* \"#utility.yul\":6095:6104   */\n      dup7\n        /* \"#utility.yul\":6091:6113   */\n      add\n        /* \"#utility.yul\":6070:6123   */\n      tag_187\n      jump\t// in\n    tag_337:\n        /* \"#utility.yul\":6060:6123   */\n      swap2\n      pop\n        /* \"#utility.yul\":6015:6133   */\n      pop\n        /* \"#utility.yul\":5666:6140   */\n      swap3\n      pop\n      swap3\n      swap1\n      pop\n      jump\t// out\n        /* \"#utility.yul\":6146:6356   */\n    tag_35:\n        /* \"#utility.yul\":6233:6237   */\n      0x00\n        /* \"#utility.yul\":6271:6273   */\n      0x20\n        /* \"#utility.yul\":6260:6269   */\n      dup3\n        /* \"#utility.yul\":6256:6274   */\n      add\n        /* \"#utility.yul\":6248:6274   */\n      swap1\n      pop\n        /* \"#utility.yul\":6284:6349   */\n      tag_339\n        /* \"#utility.yul\":6346:6347   */\n      0x00\n        /* \"#utility.yul\":6335:6344   */\n      dup4\n        /* \"#utility.yul\":6331:6348   */\n      add\n        /* \"#utility.yul\":6322:6328   */\n      dup5\n        /* \"#utility.yul\":6284:6349   */\n      tag_199\n      jump\t// in\n    tag_339:\n        /* \"#utility.yul\":6146:6356   */\n      swap3\n      swap2\n      pop\n      pop\n      jump\t// out\n        /* \"#utility.yul\":6362:6479   */\n    tag_203:\n        /* \"#utility.yul\":6471:6472   */\n      0x00\n        /* \"#utility.yul\":6468:6469   */\n      dup1\n        /* \"#utility.yul\":6461:6473   */\n      revert\n        /* \"#utility.yul\":6485:6602   */\n    tag_204:\n        /* \"#utility.yul\":6594:6595   */\n      0x00\n        /* \"#utility.yul\":6591:6592   */\n      dup1\n        /* \"#utility.yul\":6584:6596   */\n      revert\n        /* \"#utility.yul\":6608:6788   */\n    tag_205:\n        /* \"#utility.yul\":6656:6733   */\n      0x4e487b7100000000000000000000000000000000000000000000000000000000\n        /* \"#utility.yul\":6653:6654   */\n      0x00\n        /* \"#utility.yul\":6646:6734   */\n      mstore\n        /* \"#utility.yul\":6753:6757   */\n      0x41\n        /* \"#utility.yul\":6750:6751   */\n      0x04\n        /* \"#utility.yul\":6743:6758   */\n      mstore\n        /* \"#utility.yul\":6777:6781   */\n      0x24\n        /* \"#utility.yul\":6774:6775   */\n      0x00\n        /* \"#utility.yul\":6767:6782   */\n      revert\n        /* \"#utility.yul\":6794:7075   */\n    tag_206:\n        /* \"#utility.yul\":6877:6904   */\n      tag_344\n        /* \"#utility.yul\":6899:6903   */\n      dup3\n        /* \"#utility.yul\":6877:6904   */\n      tag_195\n      jump\t// in\n    tag_344:\n        /* \"#utility.yul\":6869:6875   */\n      dup2\n        /* \"#utility.yul\":6865:6905   */\n      add\n        /* \"#utility.yul\":7007:7013   */\n      dup2\n        /* \"#utility.yul\":6995:7005   */\n      dup2\n        /* \"#utility.yul\":6992:7014   */\n      lt\n        /* \"#utility.yul\":6971:6989   */\n      0xffffffffffffffff\n        /* \"#utility.yul\":6959:6969   */\n      dup3\n        /* \"#utility.yul\":6956:6990   */\n      gt\n        /* \"#utility.yul\":6953:7015   */\n      or\n        /* \"#utility.yul\":6950:7038   */\n      iszero\n      tag_345\n      jumpi\n        /* \"#utility.yul\":7018:7036   */\n      tag_346\n      tag_205\n      jump\t// in\n    tag_346:\n        /* \"#utility.yul\":6950:7038   */\n    tag_345:\n        /* \"#utility.yul\":7058:7068   */\n      dup1\n        /* \"#utility.yul\":7054:7056   */\n      0x40\n        /* \"#utility.yul\":7047:7069   */\n      mstore\n        /* \"#utility.yul\":6837:7075   */\n      pop\n        /* \"#utility.yul\":6794:7075   */\n      pop\n      pop\n      jump\t// out\n        /* \"#utility.yul\":7081:7210   */\n    tag_207:\n        /* \"#utility.yul\":7115:7121   */\n      0x00\n        /* \"#utility.yul\":7142:7162   */\n      tag_348\n      tag_181\n      jump\t// in\n    tag_348:\n        /* \"#utility.yul\":7132:7162   */\n      swap1\n      pop\n        /* \"#utility.yul\":7171:7204   */\n      tag_349\n        /* \"#utility.yul\":7199:7203   */\n      dup3\n        /* \"#utility.yul\":7191:7197   */\n      dup3\n        /* \"#utility.yul\":7171:7204   */\n      tag_206\n      jump\t// in\n    tag_349:\n        /* \"#utility.yul\":7081:7210   */\n      swap2\n      swap1\n      pop\n      jump\t// out\n        /* \"#utility.yul\":7216:7524   */\n    tag_208:\n        /* \"#utility.yul\":7278:7282   */\n      0x00\n        /* \"#utility.yul\":7368:7386   */\n      0xffffffffffffffff\n        /* \"#utility.yul\":7360:7366   */\n      dup3\n        /* \"#utility.yul\":7357:7387   */\n      gt\n        /* \"#utility.yul\":7354:7410   */\n      iszero\n      tag_351\n      jumpi\n        /* \"#utility.yul\":7390:7408   */\n      tag_352\n      tag_205\n      jump\t// in\n    tag_352:\n        /* \"#utility.yul\":7354:7410   */\n    tag_351:\n        /* \"#utility.yul\":7428:7457   */\n      tag_353\n        /* \"#utility.yul\":7450:7456   */\n      dup3\n        /* \"#utility.yul\":7428:7457   */\n      tag_195\n      jump\t// in\n    tag_353:\n        /* \"#utility.yul\":7420:7457   */\n      swap1\n      pop\n        /* \"#utility.yul\":7512:7516   */\n      0x20\n        /* \"#utility.yul\":7506:7510   */\n      dup2\n        /* \"#utility.yul\":7502:7517   */\n      add\n        /* \"#utility.yul\":7494:7517   */\n      swap1\n      pop\n        /* \"#utility.yul\":7216:7524   */\n      swap2\n      swap1\n      pop\n      jump\t// out\n        /* \"#utility.yul\":7530:7678   */\n    tag_209:\n        /* \"#utility.yul\":7628:7634   */\n      dup3\n        /* \"#utility.yul\":7623:7626   */\n      dup2\n        /* \"#utility.yul\":7618:7621   */\n      dup4\n        /* \"#utility.yul\":7605:7635   */\n      calldatacopy\n        /* \"#utility.yul\":7669:7670   */\n      0x00\n        /* \"#utility.yul\":7660:7666   */\n      dup4\n        /* \"#utility.yul\":7655:7658   */\n      dup4\n        /* \"#utility.yul\":7651:7667   */\n      add\n        /* \"#utility.yul\":7644:7671   */\n      mstore\n        /* \"#utility.yul\":7530:7678   */\n      pop\n      pop\n      pop\n      jump\t// out\n        /* \"#utility.yul\":7684:8109   */\n    tag_210:\n        /* \"#utility.yul\":7762:7767   */\n      0x00\n        /* \"#utility.yul\":7787:7853   */\n      tag_356\n        /* \"#utility.yul\":7803:7852   */\n      tag_357\n        /* \"#utility.yul\":7845:7851   */\n      dup5\n        /* \"#utility.yul\":7803:7852   */\n      tag_208\n      jump\t// in\n    tag_357:\n        /* \"#utility.yul\":7787:7853   */\n      tag_207\n      jump\t// in\n    tag_356:\n        /* \"#utility.yul\":7778:7853   */\n      swap1\n      pop\n        /* \"#utility.yul\":7876:7882   */\n      dup3\n        /* \"#utility.yul\":7869:7874   */\n      dup2\n        /* \"#utility.yul\":7862:7883   */\n      mstore\n        /* \"#utility.yul\":7914:7918   */\n      0x20\n        /* \"#utility.yul\":7907:7912   */\n      dup2\n        /* \"#utility.yul\":7903:7919   */\n      add\n        /* \"#utility.yul\":7952:7955   */\n      dup5\n        /* \"#utility.yul\":7943:7949   */\n      dup5\n        /* \"#utility.yul\":7938:7941   */\n      dup5\n        /* \"#utility.yul\":7934:7950   */\n      add\n        /* \"#utility.yul\":7931:7956   */\n      gt\n        /* \"#utility.yul\":7928:8040   */\n      iszero\n      tag_358\n      jumpi\n        /* \"#utility.yul\":7959:8038   */\n      tag_359\n      tag_204\n      jump\t// in\n    tag_359:\n        /* \"#utility.yul\":7928:8040   */\n    tag_358:\n        /* \"#utility.yul\":8049:8103   */\n      tag_360\n        /* \"#utility.yul\":8096:8102   */\n      dup5\n        /* \"#utility.yul\":8091:8094   */\n      dup3\n        /* \"#utility.yul\":8086:8089   */\n      dup6\n        /* \"#utility.yul\":8049:8103   */\n      tag_209\n      jump\t// in\n    tag_360:\n        /* \"#utility.yul\":7768:8109   */\n      pop\n        /* \"#utility.yul\":7684:8109   */\n      swap4\n      swap3\n      pop\n      pop\n      pop\n      jump\t// out\n        /* \"#utility.yul\":8129:8469   */\n    tag_211:\n        /* \"#utility.yul\":8185:8190   */\n      0x00\n        /* \"#utility.yul\":8234:8237   */\n      dup3\n        /* \"#utility.yul\":8227:8231   */\n      0x1f\n        /* \"#utility.yul\":8219:8225   */\n      dup4\n        /* \"#utility.yul\":8215:8232   */\n      add\n        /* \"#utility.yul\":8211:8238   */\n      slt\n        /* \"#utility.yul\":8201:8323   */\n      tag_362\n      jumpi\n        /* \"#utility.yul\":8242:8321   */\n      tag_363\n      tag_203\n      jump\t// in\n    tag_363:\n        /* \"#utility.yul\":8201:8323   */\n    tag_362:\n        /* \"#utility.yul\":8359:8365   */\n      dup2\n        /* \"#utility.yul\":8346:8366   */\n      calldataload\n        /* \"#utility.yul\":8384:8463   */\n      tag_364\n        /* \"#utility.yul\":8459:8462   */\n      dup5\n        /* \"#utility.yul\":8451:8457   */\n      dup3\n        /* \"#utility.yul\":8444:8448   */\n      0x20\n        /* \"#utility.yul\":8436:8442   */\n      dup7\n        /* \"#utility.yul\":8432:8449   */\n      add\n        /* \"#utility.yul\":8384:8463   */\n      tag_210\n      jump\t// in\n    tag_364:\n        /* \"#utility.yul\":8375:8463   */\n      swap2\n      pop\n        /* \"#utility.yul\":8191:8469   */\n      pop\n        /* \"#utility.yul\":8129:8469   */\n      swap3\n      swap2\n      pop\n      pop\n      jump\t// out\n        /* \"#utility.yul\":8475:9454   */\n    tag_43:\n        /* \"#utility.yul\":8572:8578   */\n      0x00\n        /* \"#utility.yul\":8580:8586   */\n      dup1\n        /* \"#utility.yul\":8588:8594   */\n      0x00\n        /* \"#utility.yul\":8637:8639   */\n      0x60\n        /* \"#utility.yul\":8625:8634   */\n      dup5\n        /* \"#utility.yul\":8616:8623   */\n      dup7\n        /* \"#utility.yul\":8612:8635   */\n      sub\n        /* \"#utility.yul\":8608:8640   */\n      slt\n        /* \"#utility.yul\":8605:8724   */\n      iszero\n      tag_366\n      jumpi\n        /* \"#utility.yul\":8643:8722   */\n      tag_367\n      tag_182\n      jump\t// in\n    tag_367:\n        /* \"#utility.yul\":8605:8724   */\n    tag_366:\n        /* \"#utility.yul\":8791:8792   */\n      0x00\n        /* \"#utility.yul\":8780:8789   */\n      dup5\n        /* \"#utility.yul\":8776:8793   */\n      add\n        /* \"#utility.yul\":8763:8794   */\n      calldataload\n        /* \"#utility.yul\":8821:8839   */\n      0xffffffffffffffff\n        /* \"#utility.yul\":8813:8819   */\n      dup2\n        /* \"#utility.yul\":8810:8840   */\n      gt\n        /* \"#utility.yul\":8807:8924   */\n      iszero\n      tag_368\n      jumpi\n        /* \"#utility.yul\":8843:8922   */\n      tag_369\n      tag_183\n      jump\t// in\n    tag_369:\n        /* \"#utility.yul\":8807:8924   */\n    tag_368:\n        /* \"#utility.yul\":8948:9011   */\n      tag_370\n        /* \"#utility.yul\":9003:9010   */\n      dup7\n        /* \"#utility.yul\":8994:9000   */\n      dup3\n        /* \"#utility.yul\":8983:8992   */\n      dup8\n        /* \"#utility.yul\":8979:9001   */\n      add\n        /* \"#utility.yul\":8948:9011   */\n      tag_211\n      jump\t// in\n    tag_370:\n        /* \"#utility.yul\":8938:9011   */\n      swap4\n      pop\n        /* \"#utility.yul\":8734:9021   */\n      pop\n        /* \"#utility.yul\":9088:9090   */\n      0x20\n        /* \"#utility.yul\":9077:9086   */\n      dup5\n        /* \"#utility.yul\":9073:9091   */\n      add\n        /* \"#utility.yul\":9060:9092   */\n      calldataload\n        /* \"#utility.yul\":9119:9137   */\n      0xffffffffffffffff\n        /* \"#utility.yul\":9111:9117   */\n      dup2\n        /* \"#utility.yul\":9108:9138   */\n      gt\n        /* \"#utility.yul\":9105:9222   */\n      iszero\n      tag_371\n      jumpi\n        /* \"#utility.yul\":9141:9220   */\n      tag_372\n      tag_183\n      jump\t// in\n    tag_372:\n        /* \"#utility.yul\":9105:9222   */\n    tag_371:\n        /* \"#utility.yul\":9246:9309   */\n      tag_373\n        /* \"#utility.yul\":9301:9308   */\n      dup7\n        /* \"#utility.yul\":9292:9298   */\n      dup3\n        /* \"#utility.yul\":9281:9290   */\n      dup8\n        /* \"#utility.yul\":9277:9299   */\n      add\n        /* \"#utility.yul\":9246:9309   */\n      tag_211\n      jump\t// in\n    tag_373:\n        /* \"#utility.yul\":9236:9309   */\n      swap3\n      pop\n        /* \"#utility.yul\":9031:9319   */\n      pop\n        /* \"#utility.yul\":9358:9360   */\n      0x40\n        /* \"#utility.yul\":9384:9437   */\n      tag_374\n        /* \"#utility.yul\":9429:9436   */\n      dup7\n        /* \"#utility.yul\":9420:9426   */\n      dup3\n        /* \"#utility.yul\":9409:9418   */\n      dup8\n        /* \"#utility.yul\":9405:9427   */\n      add\n        /* \"#utility.yul\":9384:9437   */\n      tag_190\n      jump\t// in\n    tag_374:\n        /* \"#utility.yul\":9374:9437   */\n      swap2\n      pop\n        /* \"#utility.yul\":9329:9447   */\n      pop\n        /* \"#utility.yul\":8475:9454   */\n      swap3\n      pop\n      swap3\n      pop\n      swap3\n      jump\t// out\n        /* \"#utility.yul\":9460:9640   */\n    tag_212:\n        /* \"#utility.yul\":9508:9585   */\n      0x4e487b7100000000000000000000000000000000000000000000000000000000\n        /* \"#utility.yul\":9505:9506   */\n      0x00\n        /* \"#utility.yul\":9498:9586   */\n      mstore\n        /* \"#utility.yul\":9605:9609   */\n      0x11\n        /* \"#utility.yul\":9602:9603   */\n      0x04\n        /* \"#utility.yul\":9595:9610   */\n      mstore\n        /* \"#utility.yul\":9629:9633   */\n      0x24\n        /* \"#utility.yul\":9626:9627   */\n      0x00\n        /* \"#utility.yul\":9619:9634   */\n      revert\n        /* \"#utility.yul\":9646:9840   */\n    tag_47:\n        /* \"#utility.yul\":9686:9690   */\n      0x00\n        /* \"#utility.yul\":9706:9726   */\n      tag_377\n        /* \"#utility.yul\":9724:9725   */\n      dup3\n        /* \"#utility.yul\":9706:9726   */\n      tag_188\n      jump\t// in\n    tag_377:\n        /* \"#utility.yul\":9701:9726   */\n      swap2\n      pop\n        /* \"#utility.yul\":9740:9760   */\n      tag_378\n        /* \"#utility.yul\":9758:9759   */\n      dup4\n        /* \"#utility.yul\":9740:9760   */\n      tag_188\n      jump\t// in\n    tag_378:\n        /* \"#utility.yul\":9735:9760   */\n      swap3\n      pop\n        /* \"#utility.yul\":9784:9785   */\n      dup3\n        /* \"#utility.yul\":9781:9782   */\n      dup3\n        /* \"#utility.yul\":9777:9786   */\n      sub\n        /* \"#utility.yul\":9769:9786   */\n      swap1\n      pop\n        /* \"#utility.yul\":9808:9809   */\n      dup2\n        /* \"#utility.yul\":9802:9806   */\n      dup2\n        /* \"#utility.yul\":9799:9810   */\n      gt\n        /* \"#utility.yul\":9796:9833   */\n      iszero\n      tag_379\n      jumpi\n        /* \"#utility.yul\":9813:9831   */\n      tag_380\n      tag_212\n      jump\t// in\n    tag_380:\n        /* \"#utility.yul\":9796:9833   */\n    tag_379:\n        /* \"#utility.yul\":9646:9840   */\n      swap3\n      swap2\n      pop\n      pop\n      jump\t// out\n        /* \"#utility.yul\":9846:10026   */\n    tag_50:\n        /* \"#utility.yul\":9894:9971   */\n      0x4e487b7100000000000000000000000000000000000000000000000000000000\n        /* \"#utility.yul\":9891:9892   */\n      0x00\n        /* \"#utility.yul\":9884:9972   */\n      mstore\n        /* \"#utility.yul\":9991:9995   */\n      0x32\n        /* \"#utility.yul\":9988:9989   */\n      0x04\n        /* \"#utility.yul\":9981:9996   */\n      mstore\n        /* \"#utility.yul\":10015:10019   */\n      0x24\n        /* \"#utility.yul\":10012:10013   */\n      0x00\n        /* \"#utility.yul\":10005:10020   */\n      revert\n        /* \"#utility.yul\":10032:10259   */\n    tag_213:\n        /* \"#utility.yul\":10172:10206   */\n      0x5468652043616d706169676e65642053706563696669656420446f6573204e6f\n        /* \"#utility.yul\":10168:10169   */\n      0x00\n        /* \"#utility.yul\":10160:10166   */\n      dup3\n        /* \"#utility.yul\":10156:10170   */\n      add\n        /* \"#utility.yul\":10149:10207   */\n      mstore\n        /* \"#utility.yul\":10241:10251   */\n      0x7420457869737421000000000000000000000000000000000000000000000000\n        /* \"#utility.yul\":10236:10238   */\n      0x20\n        /* \"#utility.yul\":10228:10234   */\n      dup3\n        /* \"#utility.yul\":10224:10239   */\n      add\n        /* \"#utility.yul\":10217:10252   */\n      mstore\n        /* \"#utility.yul\":10032:10259   */\n      pop\n      jump\t// out\n        /* \"#utility.yul\":10265:10631   */\n    tag_214:\n        /* \"#utility.yul\":10407:10410   */\n      0x00\n        /* \"#utility.yul\":10428:10495   */\n      tag_384\n        /* \"#utility.yul\":10492:10494   */\n      0x28\n        /* \"#utility.yul\":10487:10490   */\n      dup4\n        /* \"#utility.yul\":10428:10495   */\n      tag_193\n      jump\t// in\n    tag_384:\n        /* \"#utility.yul\":10421:10495   */\n      swap2\n      pop\n        /* \"#utility.yul\":10504:10597   */\n      tag_385\n        /* \"#utility.yul\":10593:10596   */\n      dup3\n        /* \"#utility.yul\":10504:10597   */\n      tag_213\n      jump\t// in\n    tag_385:\n        /* \"#utility.yul\":10622:10624   */\n      0x40\n        /* \"#utility.yul\":10617:10620   */\n      dup3\n        /* \"#utility.yul\":10613:10625   */\n      add\n        /* \"#utility.yul\":10606:10625   */\n      swap1\n      pop\n        /* \"#utility.yul\":10265:10631   */\n      swap2\n      swap1\n      pop\n      jump\t// out\n        /* \"#utility.yul\":10637:11056   */\n    tag_54:\n        /* \"#utility.yul\":10803:10807   */\n      0x00\n        /* \"#utility.yul\":10841:10843   */\n      0x20\n        /* \"#utility.yul\":10830:10839   */\n      dup3\n        /* \"#utility.yul\":10826:10844   */\n      add\n        /* \"#utility.yul\":10818:10844   */\n      swap1\n      pop\n        /* \"#utility.yul\":10890:10899   */\n      dup2\n        /* \"#utility.yul\":10884:10888   */\n      dup2\n        /* \"#utility.yul\":10880:10900   */\n      sub\n        /* \"#utility.yul\":10876:10877   */\n      0x00\n        /* \"#utility.yul\":10865:10874   */\n      dup4\n        /* \"#utility.yul\":10861:10878   */\n      add\n        /* \"#utility.yul\":10854:10901   */\n      mstore\n        /* \"#utility.yul\":10918:11049   */\n      tag_387\n        /* \"#utility.yul\":11044:11048   */\n      dup2\n        /* \"#utility.yul\":10918:11049   */\n      tag_214\n      jump\t// in\n    tag_387:\n        /* \"#utility.yul\":10910:11049   */\n      swap1\n      pop\n        /* \"#utility.yul\":10637:11056   */\n      swap2\n      swap1\n      pop\n      jump\t// out\n        /* \"#utility.yul\":11062:11242   */\n    tag_215:\n        /* \"#utility.yul\":11110:11187   */\n      0x4e487b7100000000000000000000000000000000000000000000000000000000\n        /* \"#utility.yul\":11107:11108   */\n      0x00\n        /* \"#utility.yul\":11100:11188   */\n      mstore\n        /* \"#utility.yul\":11207:11211   */\n      0x22\n        /* \"#utility.yul\":11204:11205   */\n      0x04\n        /* \"#utility.yul\":11197:11212   */\n      mstore\n        /* \"#utility.yul\":11231:11235   */\n      0x24\n        /* \"#utility.yul\":11228:11229   */\n      0x00\n        /* \"#utility.yul\":11221:11236   */\n      revert\n        /* \"#utility.yul\":11248:11568   */\n    tag_58:\n        /* \"#utility.yul\":11292:11298   */\n      0x00\n        /* \"#utility.yul\":11329:11330   */\n      0x02\n        /* \"#utility.yul\":11323:11327   */\n      dup3\n        /* \"#utility.yul\":11319:11331   */\n      div\n        /* \"#utility.yul\":11309:11331   */\n      swap1\n      pop\n        /* \"#utility.yul\":11376:11377   */\n      0x01\n        /* \"#utility.yul\":11370:11374   */\n      dup3\n        /* \"#utility.yul\":11366:11378   */\n      and\n        /* \"#utility.yul\":11397:11415   */\n      dup1\n        /* \"#utility.yul\":11387:11468   */\n      tag_390\n      jumpi\n        /* \"#utility.yul\":11453:11457   */\n      0x7f\n        /* \"#utility.yul\":11445:11451   */\n      dup3\n        /* \"#utility.yul\":11441:11458   */\n      and\n        /* \"#utility.yul\":11431:11458   */\n      swap2\n      pop\n        /* \"#utility.yul\":11387:11468   */\n    tag_390:\n        /* \"#utility.yul\":11515:11517   */\n      0x20\n        /* \"#utility.yul\":11507:11513   */\n      dup3\n        /* \"#utility.yul\":11504:11518   */\n      lt\n        /* \"#utility.yul\":11484:11502   */\n      dup2\n        /* \"#utility.yul\":11481:11519   */\n      sub\n        /* \"#utility.yul\":11478:11562   */\n      tag_391\n      jumpi\n        /* \"#utility.yul\":11534:11552   */\n      tag_392\n      tag_215\n      jump\t// in\n    tag_392:\n        /* \"#utility.yul\":11478:11562   */\n    tag_391:\n        /* \"#utility.yul\":11299:11568   */\n      pop\n        /* \"#utility.yul\":11248:11568   */\n      swap2\n      swap1\n      pop\n      jump\t// out\n        /* \"#utility.yul\":11574:11722   */\n    tag_216:\n        /* \"#utility.yul\":11676:11687   */\n      0x00\n        /* \"#utility.yul\":11713:11716   */\n      dup2\n        /* \"#utility.yul\":11698:11716   */\n      swap1\n      pop\n        /* \"#utility.yul\":11574:11722   */\n      swap3\n      swap2\n      pop\n      pop\n      jump\t// out\n        /* \"#utility.yul\":11728:11891   */\n    tag_217:\n        /* \"#utility.yul\":11868:11883   */\n      0x5468652043616d706169676e2000000000000000000000000000000000000000\n        /* \"#utility.yul\":11864:11865   */\n      0x00\n        /* \"#utility.yul\":11856:11862   */\n      dup3\n        /* \"#utility.yul\":11852:11866   */\n      add\n        /* \"#utility.yul\":11845:11884   */\n      mstore\n        /* \"#utility.yul\":11728:11891   */\n      pop\n      jump\t// out\n        /* \"#utility.yul\":11897:12299   */\n    tag_218:\n        /* \"#utility.yul\":12057:12060   */\n      0x00\n        /* \"#utility.yul\":12078:12163   */\n      tag_396\n        /* \"#utility.yul\":12160:12162   */\n      0x0d\n        /* \"#utility.yul\":12155:12158   */\n      dup4\n        /* \"#utility.yul\":12078:12163   */\n      tag_216\n      jump\t// in\n    tag_396:\n        /* \"#utility.yul\":12071:12163   */\n      swap2\n      pop\n        /* \"#utility.yul\":12172:12265   */\n      tag_397\n        /* \"#utility.yul\":12261:12264   */\n      dup3\n        /* \"#utility.yul\":12172:12265   */\n      tag_217\n      jump\t// in\n    tag_397:\n        /* \"#utility.yul\":12290:12292   */\n      0x0d\n        /* \"#utility.yul\":12285:12288   */\n      dup3\n        /* \"#utility.yul\":12281:12293   */\n      add\n        /* \"#utility.yul\":12274:12293   */\n      swap1\n      pop\n        /* \"#utility.yul\":11897:12299   */\n      swap2\n      swap1\n      pop\n      jump\t// out\n        /* \"#utility.yul\":12305:12384   */\n    tag_219:\n        /* \"#utility.yul\":12344:12351   */\n      0x00\n        /* \"#utility.yul\":12373:12378   */\n      dup2\n        /* \"#utility.yul\":12362:12378   */\n      swap1\n      pop\n        /* \"#utility.yul\":12305:12384   */\n      swap2\n      swap1\n      pop\n      jump\t// out\n        /* \"#utility.yul\":12390:12547   */\n    tag_220:\n        /* \"#utility.yul\":12495:12540   */\n      tag_400\n        /* \"#utility.yul\":12515:12539   */\n      tag_401\n        /* \"#utility.yul\":12533:12538   */\n      dup3\n        /* \"#utility.yul\":12515:12539   */\n      tag_188\n      jump\t// in\n    tag_401:\n        /* \"#utility.yul\":12495:12540   */\n      tag_219\n      jump\t// in\n    tag_400:\n        /* \"#utility.yul\":12490:12493   */\n      dup3\n        /* \"#utility.yul\":12483:12541   */\n      mstore\n        /* \"#utility.yul\":12390:12547   */\n      pop\n      pop\n      jump\t// out\n        /* \"#utility.yul\":12553:12719   */\n    tag_221:\n        /* \"#utility.yul\":12693:12711   */\n      0x20446f6573204e4f542045786973742100000000000000000000000000000000\n        /* \"#utility.yul\":12689:12690   */\n      0x00\n        /* \"#utility.yul\":12681:12687   */\n      dup3\n        /* \"#utility.yul\":12677:12691   */\n      add\n        /* \"#utility.yul\":12670:12712   */\n      mstore\n        /* \"#utility.yul\":12553:12719   */\n      pop\n      jump\t// out\n        /* \"#utility.yul\":12725:13127   */\n    tag_222:\n        /* \"#utility.yul\":12885:12888   */\n      0x00\n        /* \"#utility.yul\":12906:12991   */\n      tag_404\n        /* \"#utility.yul\":12988:12990   */\n      0x10\n        /* \"#utility.yul\":12983:12986   */\n      dup4\n        /* \"#utility.yul\":12906:12991   */\n      tag_216\n      jump\t// in\n    tag_404:\n        /* \"#utility.yul\":12899:12991   */\n      swap2\n      pop\n        /* \"#utility.yul\":13000:13093   */\n      tag_405\n        /* \"#utility.yul\":13089:13092   */\n      dup3\n        /* \"#utility.yul\":13000:13093   */\n      tag_221\n      jump\t// in\n    tag_405:\n        /* \"#utility.yul\":13118:13120   */\n      0x10\n        /* \"#utility.yul\":13113:13116   */\n      dup3\n        /* \"#utility.yul\":13109:13121   */\n      add\n        /* \"#utility.yul\":13102:13121   */\n      swap1\n      pop\n        /* \"#utility.yul\":12725:13127   */\n      swap2\n      swap1\n      pop\n      jump\t// out\n        /* \"#utility.yul\":13133:13921   */\n    tag_74:\n        /* \"#utility.yul\":13447:13450   */\n      0x00\n        /* \"#utility.yul\":13469:13617   */\n      tag_407\n        /* \"#utility.yul\":13613:13616   */\n      dup3\n        /* \"#utility.yul\":13469:13617   */\n      tag_218\n      jump\t// in\n    tag_407:\n        /* \"#utility.yul\":13462:13617   */\n      swap2\n      pop\n        /* \"#utility.yul\":13627:13702   */\n      tag_408\n        /* \"#utility.yul\":13698:13701   */\n      dup3\n        /* \"#utility.yul\":13689:13695   */\n      dup5\n        /* \"#utility.yul\":13627:13702   */\n      tag_220\n      jump\t// in\n    tag_408:\n        /* \"#utility.yul\":13727:13729   */\n      0x20\n        /* \"#utility.yul\":13722:13725   */\n      dup3\n        /* \"#utility.yul\":13718:13730   */\n      add\n        /* \"#utility.yul\":13711:13730   */\n      swap2\n      pop\n        /* \"#utility.yul\":13747:13895   */\n      tag_409\n        /* \"#utility.yul\":13891:13894   */\n      dup3\n        /* \"#utility.yul\":13747:13895   */\n      tag_222\n      jump\t// in\n    tag_409:\n        /* \"#utility.yul\":13740:13895   */\n      swap2\n      pop\n        /* \"#utility.yul\":13912:13915   */\n      dup2\n        /* \"#utility.yul\":13905:13915   */\n      swap1\n      pop\n        /* \"#utility.yul\":13133:13921   */\n      swap3\n      swap2\n      pop\n      pop\n      jump\t// out\n        /* \"#utility.yul\":13927:14240   */\n    tag_77:\n        /* \"#utility.yul\":14040:14044   */\n      0x00\n        /* \"#utility.yul\":14078:14080   */\n      0x20\n        /* \"#utility.yul\":14067:14076   */\n      dup3\n        /* \"#utility.yul\":14063:14081   */\n      add\n        /* \"#utility.yul\":14055:14081   */\n      swap1\n      pop\n        /* \"#utility.yul\":14127:14136   */\n      dup2\n        /* \"#utility.yul\":14121:14125   */\n      dup2\n        /* \"#utility.yul\":14117:14137   */\n      sub\n        /* \"#utility.yul\":14113:14114   */\n      0x00\n        /* \"#utility.yul\":14102:14111   */\n      dup4\n        /* \"#utility.yul\":14098:14115   */\n      add\n        /* \"#utility.yul\":14091:14138   */\n      mstore\n        /* \"#utility.yul\":14155:14233   */\n      tag_411\n        /* \"#utility.yul\":14228:14232   */\n      dup2\n        /* \"#utility.yul\":14219:14225   */\n      dup5\n        /* \"#utility.yul\":14155:14233   */\n      tag_196\n      jump\t// in\n    tag_411:\n        /* \"#utility.yul\":14147:14233   */\n      swap1\n      pop\n        /* \"#utility.yul\":13927:14240   */\n      swap3\n      swap2\n      pop\n      pop\n      jump\t// out\n        /* \"#utility.yul\":14246:14397   */\n    tag_223:\n        /* \"#utility.yul\":14386:14389   */\n      0x2700000000000000000000000000000000000000000000000000000000000000\n        /* \"#utility.yul\":14382:14383   */\n      0x00\n        /* \"#utility.yul\":14374:14380   */\n      dup3\n        /* \"#utility.yul\":14370:14384   */\n      add\n        /* \"#utility.yul\":14363:14390   */\n      mstore\n        /* \"#utility.yul\":14246:14397   */\n      pop\n      jump\t// out\n        /* \"#utility.yul\":14403:14803   */\n    tag_224:\n        /* \"#utility.yul\":14563:14566   */\n      0x00\n        /* \"#utility.yul\":14584:14668   */\n      tag_414\n        /* \"#utility.yul\":14666:14667   */\n      0x01\n        /* \"#utility.yul\":14661:14664   */\n      dup4\n        /* \"#utility.yul\":14584:14668   */\n      tag_216\n      jump\t// in\n    tag_414:\n        /* \"#utility.yul\":14577:14668   */\n      swap2\n      pop\n        /* \"#utility.yul\":14677:14770   */\n      tag_415\n        /* \"#utility.yul\":14766:14769   */\n      dup3\n        /* \"#utility.yul\":14677:14770   */\n      tag_223\n      jump\t// in\n    tag_415:\n        /* \"#utility.yul\":14795:14796   */\n      0x01\n        /* \"#utility.yul\":14790:14793   */\n      dup3\n        /* \"#utility.yul\":14786:14797   */\n      add\n        /* \"#utility.yul\":14779:14797   */\n      swap1\n      pop\n        /* \"#utility.yul\":14403:14803   */\n      swap2\n      swap1\n      pop\n      jump\t// out\n        /* \"#utility.yul\":14809:14950   */\n    tag_225:\n        /* \"#utility.yul\":14858:14862   */\n      0x00\n        /* \"#utility.yul\":14881:14884   */\n      dup2\n        /* \"#utility.yul\":14873:14884   */\n      swap1\n      pop\n        /* \"#utility.yul\":14904:14907   */\n      dup2\n        /* \"#utility.yul\":14901:14902   */\n      0x00\n        /* \"#utility.yul\":14894:14908   */\n      mstore\n        /* \"#utility.yul\":14938:14942   */\n      0x20\n        /* \"#utility.yul\":14935:14936   */\n      0x00\n        /* \"#utility.yul\":14925:14943   */\n      keccak256\n        /* \"#utility.yul\":14917:14943   */\n      swap1\n      pop\n        /* \"#utility.yul\":14809:14950   */\n      swap2\n      swap1\n      pop\n      jump\t// out\n        /* \"#utility.yul\":14980:15854   */\n    tag_226:\n        /* \"#utility.yul\":15083:15086   */\n      0x00\n        /* \"#utility.yul\":15120:15125   */\n      dup2\n        /* \"#utility.yul\":15114:15126   */\n      sload\n        /* \"#utility.yul\":15149:15185   */\n      tag_418\n        /* \"#utility.yul\":15175:15184   */\n      dup2\n        /* \"#utility.yul\":15149:15185   */\n      tag_58\n      jump\t// in\n    tag_418:\n        /* \"#utility.yul\":15201:15290   */\n      tag_419\n        /* \"#utility.yul\":15283:15289   */\n      dup2\n        /* \"#utility.yul\":15278:15281   */\n      dup7\n        /* \"#utility.yul\":15201:15290   */\n      tag_216\n      jump\t// in\n    tag_419:\n        /* \"#utility.yul\":15194:15290   */\n      swap5\n      pop\n        /* \"#utility.yul\":15321:15322   */\n      0x01\n        /* \"#utility.yul\":15310:15319   */\n      dup3\n        /* \"#utility.yul\":15306:15323   */\n      and\n        /* \"#utility.yul\":15337:15338   */\n      0x00\n        /* \"#utility.yul\":15332:15498   */\n      dup2\n      eq\n      tag_421\n      jumpi\n        /* \"#utility.yul\":15512:15513   */\n      0x01\n        /* \"#utility.yul\":15507:15848   */\n      dup2\n      eq\n      tag_422\n      jumpi\n        /* \"#utility.yul\":15299:15848   */\n      jump(tag_420)\n        /* \"#utility.yul\":15332:15498   */\n    tag_421:\n        /* \"#utility.yul\":15416:15420   */\n      0xff\n        /* \"#utility.yul\":15412:15421   */\n      not\n        /* \"#utility.yul\":15401:15410   */\n      dup4\n        /* \"#utility.yul\":15397:15422   */\n      and\n        /* \"#utility.yul\":15392:15395   */\n      dup7\n        /* \"#utility.yul\":15385:15423   */\n      mstore\n        /* \"#utility.yul\":15478:15484   */\n      dup2\n        /* \"#utility.yul\":15471:15485   */\n      iszero\n        /* \"#utility.yul\":15464:15486   */\n      iszero\n        /* \"#utility.yul\":15456:15462   */\n      dup3\n        /* \"#utility.yul\":15452:15487   */\n      mul\n        /* \"#utility.yul\":15447:15450   */\n      dup7\n        /* \"#utility.yul\":15443:15488   */\n      add\n        /* \"#utility.yul\":15436:15488   */\n      swap4\n      pop\n        /* \"#utility.yul\":15332:15498   */\n      jump(tag_420)\n        /* \"#utility.yul\":15507:15848   */\n    tag_422:\n        /* \"#utility.yul\":15574:15612   */\n      tag_423\n        /* \"#utility.yul\":15606:15611   */\n      dup6\n        /* \"#utility.yul\":15574:15612   */\n      tag_225\n      jump\t// in\n    tag_423:\n        /* \"#utility.yul\":15634:15635   */\n      0x00\n        /* \"#utility.yul\":15648:15802   */\n    tag_424:\n        /* \"#utility.yul\":15662:15668   */\n      dup4\n        /* \"#utility.yul\":15659:15660   */\n      dup2\n        /* \"#utility.yul\":15656:15669   */\n      lt\n        /* \"#utility.yul\":15648:15802   */\n      iszero\n      tag_426\n      jumpi\n        /* \"#utility.yul\":15736:15743   */\n      dup2\n        /* \"#utility.yul\":15730:15744   */\n      sload\n        /* \"#utility.yul\":15726:15727   */\n      dup2\n        /* \"#utility.yul\":15721:15724   */\n      dup10\n        /* \"#utility.yul\":15717:15728   */\n      add\n        /* \"#utility.yul\":15710:15745   */\n      mstore\n        /* \"#utility.yul\":15786:15787   */\n      0x01\n        /* \"#utility.yul\":15777:15784   */\n      dup3\n        /* \"#utility.yul\":15773:15788   */\n      add\n        /* \"#utility.yul\":15762:15788   */\n      swap2\n      pop\n        /* \"#utility.yul\":15684:15688   */\n      0x20\n        /* \"#utility.yul\":15681:15682   */\n      dup2\n        /* \"#utility.yul\":15677:15689   */\n      add\n        /* \"#utility.yul\":15672:15689   */\n      swap1\n      pop\n        /* \"#utility.yul\":15648:15802   */\n      jump(tag_424)\n    tag_426:\n        /* \"#utility.yul\":15831:15837   */\n      dup4\n        /* \"#utility.yul\":15826:15829   */\n      dup9\n        /* \"#utility.yul\":15822:15838   */\n      add\n        /* \"#utility.yul\":15815:15838   */\n      swap6\n      pop\n        /* \"#utility.yul\":15514:15848   */\n      pop\n      pop\n        /* \"#utility.yul\":15299:15848   */\n    tag_420:\n      pop\n        /* \"#utility.yul\":15087:15854   */\n      pop\n      pop\n        /* \"#utility.yul\":14980:15854   */\n      swap3\n      swap2\n      pop\n      pop\n      jump\t// out\n        /* \"#utility.yul\":15860:16035   */\n    tag_227:\n        /* \"#utility.yul\":16000:16027   */\n      0x272043616d706169676e2057617320436f6d706c657465642100000000000000\n        /* \"#utility.yul\":15996:15997   */\n      0x00\n        /* \"#utility.yul\":15988:15994   */\n      dup3\n        /* \"#utility.yul\":15984:15998   */\n      add\n        /* \"#utility.yul\":15977:16028   */\n      mstore\n        /* \"#utility.yul\":15860:16035   */\n      pop\n      jump\t// out\n        /* \"#utility.yul\":16041:16443   */\n    tag_228:\n        /* \"#utility.yul\":16201:16204   */\n      0x00\n        /* \"#utility.yul\":16222:16307   */\n      tag_429\n        /* \"#utility.yul\":16304:16306   */\n      0x19\n        /* \"#utility.yul\":16299:16302   */\n      dup4\n        /* \"#utility.yul\":16222:16307   */\n      tag_216\n      jump\t// in\n    tag_429:\n        /* \"#utility.yul\":16215:16307   */\n      swap2\n      pop\n        /* \"#utility.yul\":16316:16409   */\n      tag_430\n        /* \"#utility.yul\":16405:16408   */\n      dup3\n        /* \"#utility.yul\":16316:16409   */\n      tag_227\n      jump\t// in\n    tag_430:\n        /* \"#utility.yul\":16434:16436   */\n      0x19\n        /* \"#utility.yul\":16429:16432   */\n      dup3\n        /* \"#utility.yul\":16425:16437   */\n      add\n        /* \"#utility.yul\":16418:16437   */\n      swap1\n      pop\n        /* \"#utility.yul\":16041:16443   */\n      swap2\n      swap1\n      pop\n      jump\t// out\n        /* \"#utility.yul\":16449:17250   */\n    tag_87:\n        /* \"#utility.yul\":16780:16783   */\n      0x00\n        /* \"#utility.yul\":16802:16950   */\n      tag_432\n        /* \"#utility.yul\":16946:16949   */\n      dup3\n        /* \"#utility.yul\":16802:16950   */\n      tag_224\n      jump\t// in\n    tag_432:\n        /* \"#utility.yul\":16795:16950   */\n      swap2\n      pop\n        /* \"#utility.yul\":16967:17059   */\n      tag_433\n        /* \"#utility.yul\":17055:17058   */\n      dup3\n        /* \"#utility.yul\":17046:17052   */\n      dup5\n        /* \"#utility.yul\":16967:17059   */\n      tag_226\n      jump\t// in\n    tag_433:\n        /* \"#utility.yul\":16960:17059   */\n      swap2\n      pop\n        /* \"#utility.yul\":17076:17224   */\n      tag_434\n        /* \"#utility.yul\":17220:17223   */\n      dup3\n        /* \"#utility.yul\":17076:17224   */\n      tag_228\n      jump\t// in\n    tag_434:\n        /* \"#utility.yul\":17069:17224   */\n      swap2\n      pop\n        /* \"#utility.yul\":17241:17244   */\n      dup2\n        /* \"#utility.yul\":17234:17244   */\n      swap1\n      pop\n        /* \"#utility.yul\":16449:17250   */\n      swap3\n      swap2\n      pop\n      pop\n      jump\t// out\n        /* \"#utility.yul\":17256:17427   */\n    tag_229:\n        /* \"#utility.yul\":17396:17419   */\n      0x416d6f756e742043616e6e6f74206265205a65726f0000000000000000000000\n        /* \"#utility.yul\":17392:17393   */\n      0x00\n        /* \"#utility.yul\":17384:17390   */\n      dup3\n        /* \"#utility.yul\":17380:17394   */\n      add\n        /* \"#utility.yul\":17373:17420   */\n      mstore\n        /* \"#utility.yul\":17256:17427   */\n      pop\n      jump\t// out\n        /* \"#utility.yul\":17433:17799   */\n    tag_230:\n        /* \"#utility.yul\":17575:17578   */\n      0x00\n        /* \"#utility.yul\":17596:17663   */\n      tag_437\n        /* \"#utility.yul\":17660:17662   */\n      0x15\n        /* \"#utility.yul\":17655:17658   */\n      dup4\n        /* \"#utility.yul\":17596:17663   */\n      tag_193\n      jump\t// in\n    tag_437:\n        /* \"#utility.yul\":17589:17663   */\n      swap2\n      pop\n        /* \"#utility.yul\":17672:17765   */\n      tag_438\n        /* \"#utility.yul\":17761:17764   */\n      dup3\n        /* \"#utility.yul\":17672:17765   */\n      tag_229\n      jump\t// in\n    tag_438:\n        /* \"#utility.yul\":17790:17792   */\n      0x20\n        /* \"#utility.yul\":17785:17788   */\n      dup3\n        /* \"#utility.yul\":17781:17793   */\n      add\n        /* \"#utility.yul\":17774:17793   */\n      swap1\n      pop\n        /* \"#utility.yul\":17433:17799   */\n      swap2\n      swap1\n      pop\n      jump\t// out\n        /* \"#utility.yul\":17805:18224   */\n    tag_92:\n        /* \"#utility.yul\":17971:17975   */\n      0x00\n        /* \"#utility.yul\":18009:18011   */\n      0x20\n        /* \"#utility.yul\":17998:18007   */\n      dup3\n        /* \"#utility.yul\":17994:18012   */\n      add\n        /* \"#utility.yul\":17986:18012   */\n      swap1\n      pop\n        /* \"#utility.yul\":18058:18067   */\n      dup2\n        /* \"#utility.yul\":18052:18056   */\n      dup2\n        /* \"#utility.yul\":18048:18068   */\n      sub\n        /* \"#utility.yul\":18044:18045   */\n      0x00\n        /* \"#utility.yul\":18033:18042   */\n      dup4\n        /* \"#utility.yul\":18029:18046   */\n      add\n        /* \"#utility.yul\":18022:18069   */\n      mstore\n        /* \"#utility.yul\":18086:18217   */\n      tag_440\n        /* \"#utility.yul\":18212:18216   */\n      dup2\n        /* \"#utility.yul\":18086:18217   */\n      tag_230\n      jump\t// in\n    tag_440:\n        /* \"#utility.yul\":18078:18217   */\n      swap1\n      pop\n        /* \"#utility.yul\":17805:18224   */\n      swap2\n      swap1\n      pop\n      jump\t// out\n        /* \"#utility.yul\":18230:18405   */\n    tag_231:\n        /* \"#utility.yul\":18370:18397   */\n      0x54686520416d6f756e7420646f65736e2774204d617463682100000000000000\n        /* \"#utility.yul\":18366:18367   */\n      0x00\n        /* \"#utility.yul\":18358:18364   */\n      dup3\n        /* \"#utility.yul\":18354:18368   */\n      add\n        /* \"#utility.yul\":18347:18398   */\n      mstore\n        /* \"#utility.yul\":18230:18405   */\n      pop\n      jump\t// out\n        /* \"#utility.yul\":18411:18777   */\n    tag_232:\n        /* \"#utility.yul\":18553:18556   */\n      0x00\n        /* \"#utility.yul\":18574:18641   */\n      tag_443\n        /* \"#utility.yul\":18638:18640   */\n      0x19\n        /* \"#utility.yul\":18633:18636   */\n      dup4\n        /* \"#utility.yul\":18574:18641   */\n      tag_193\n      jump\t// in\n    tag_443:\n        /* \"#utility.yul\":18567:18641   */\n      swap2\n      pop\n        /* \"#utility.yul\":18650:18743   */\n      tag_444\n        /* \"#utility.yul\":18739:18742   */\n      dup3\n        /* \"#utility.yul\":18650:18743   */\n      tag_231\n      jump\t// in\n    tag_444:\n        /* \"#utility.yul\":18768:18770   */\n      0x20\n        /* \"#utility.yul\":18763:18766   */\n      dup3\n        /* \"#utility.yul\":18759:18771   */\n      add\n        /* \"#utility.yul\":18752:18771   */\n      swap1\n      pop\n        /* \"#utility.yul\":18411:18777   */\n      swap2\n      swap1\n      pop\n      jump\t// out\n        /* \"#utility.yul\":18783:19202   */\n    tag_95:\n        /* \"#utility.yul\":18949:18953   */\n      0x00\n        /* \"#utility.yul\":18987:18989   */\n      0x20\n        /* \"#utility.yul\":18976:18985   */\n      dup3\n        /* \"#utility.yul\":18972:18990   */\n      add\n        /* \"#utility.yul\":18964:18990   */\n      swap1\n      pop\n        /* \"#utility.yul\":19036:19045   */\n      dup2\n        /* \"#utility.yul\":19030:19034   */\n      dup2\n        /* \"#utility.yul\":19026:19046   */\n      sub\n        /* \"#utility.yul\":19022:19023   */\n      0x00\n        /* \"#utility.yul\":19011:19020   */\n      dup4\n        /* \"#utility.yul\":19007:19024   */\n      add\n        /* \"#utility.yul\":19000:19047   */\n      mstore\n        /* \"#utility.yul\":19064:19195   */\n      tag_446\n        /* \"#utility.yul\":19190:19194   */\n      dup2\n        /* \"#utility.yul\":19064:19195   */\n      tag_232\n      jump\t// in\n    tag_446:\n        /* \"#utility.yul\":19056:19195   */\n      swap1\n      pop\n        /* \"#utility.yul\":18783:19202   */\n      swap2\n      swap1\n      pop\n      jump\t// out\n        /* \"#utility.yul\":19208:19399   */\n    tag_101:\n        /* \"#utility.yul\":19248:19251   */\n      0x00\n        /* \"#utility.yul\":19267:19287   */\n      tag_448\n        /* \"#utility.yul\":19285:19286   */\n      dup3\n        /* \"#utility.yul\":19267:19287   */\n      tag_188\n      jump\t// in\n    tag_448:\n        /* \"#utility.yul\":19262:19287   */\n      swap2\n      pop\n        /* \"#utility.yul\":19301:19321   */\n      tag_449\n        /* \"#utility.yul\":19319:19320   */\n      dup4\n        /* \"#utility.yul\":19301:19321   */\n      tag_188\n      jump\t// in\n    tag_449:\n        /* \"#utility.yul\":19296:19321   */\n      swap3\n      pop\n        /* \"#utility.yul\":19344:19345   */\n      dup3\n        /* \"#utility.yul\":19341:19342   */\n      dup3\n        /* \"#utility.yul\":19337:19346   */\n      add\n        /* \"#utility.yul\":19330:19346   */\n      swap1\n      pop\n        /* \"#utility.yul\":19365:19368   */\n      dup1\n        /* \"#utility.yul\":19362:19363   */\n      dup3\n        /* \"#utility.yul\":19359:19369   */\n      gt\n        /* \"#utility.yul\":19356:19392   */\n      iszero\n      tag_450\n      jumpi\n        /* \"#utility.yul\":19372:19390   */\n      tag_451\n      tag_212\n      jump\t// in\n    tag_451:\n        /* \"#utility.yul\":19356:19392   */\n    tag_450:\n        /* \"#utility.yul\":19208:19399   */\n      swap3\n      swap2\n      pop\n      pop\n      jump\t// out\n        /* \"#utility.yul\":19405:19737   */\n    tag_118:\n        /* \"#utility.yul\":19526:19530   */\n      0x00\n        /* \"#utility.yul\":19564:19566   */\n      0x40\n        /* \"#utility.yul\":19553:19562   */\n      dup3\n        /* \"#utility.yul\":19549:19567   */\n      add\n        /* \"#utility.yul\":19541:19567   */\n      swap1\n      pop\n        /* \"#utility.yul\":19577:19648   */\n      tag_453\n        /* \"#utility.yul\":19645:19646   */\n      0x00\n        /* \"#utility.yul\":19634:19643   */\n      dup4\n        /* \"#utility.yul\":19630:19647   */\n      add\n        /* \"#utility.yul\":19621:19627   */\n      dup6\n        /* \"#utility.yul\":19577:19648   */\n      tag_197\n      jump\t// in\n    tag_453:\n        /* \"#utility.yul\":19658:19730   */\n      tag_454\n        /* \"#utility.yul\":19726:19728   */\n      0x20\n        /* \"#utility.yul\":19715:19724   */\n      dup4\n        /* \"#utility.yul\":19711:19729   */\n      add\n        /* \"#utility.yul\":19702:19708   */\n      dup5\n        /* \"#utility.yul\":19658:19730   */\n      tag_191\n      jump\t// in\n    tag_454:\n        /* \"#utility.yul\":19405:19737   */\n      swap4\n      swap3\n      pop\n      pop\n      pop\n      jump\t// out\n        /* \"#utility.yul\":19743:19967   */\n    tag_233:\n        /* \"#utility.yul\":19883:19917   */\n      0x5468657265204973204e6f2043616d706169676e204279205468617420616464\n        /* \"#utility.yul\":19879:19880   */\n      0x00\n        /* \"#utility.yul\":19871:19877   */\n      dup3\n        /* \"#utility.yul\":19867:19881   */\n      add\n        /* \"#utility.yul\":19860:19918   */\n      mstore\n        /* \"#utility.yul\":19952:19959   */\n      0x7265737321000000000000000000000000000000000000000000000000000000\n        /* \"#utility.yul\":19947:19949   */\n      0x20\n        /* \"#utility.yul\":19939:19945   */\n      dup3\n        /* \"#utility.yul\":19935:19950   */\n      add\n        /* \"#utility.yul\":19928:19960   */\n      mstore\n        /* \"#utility.yul\":19743:19967   */\n      pop\n      jump\t// out\n        /* \"#utility.yul\":19973:20339   */\n    tag_234:\n        /* \"#utility.yul\":20115:20118   */\n      0x00\n        /* \"#utility.yul\":20136:20203   */\n      tag_457\n        /* \"#utility.yul\":20200:20202   */\n      0x25\n        /* \"#utility.yul\":20195:20198   */\n      dup4\n        /* \"#utility.yul\":20136:20203   */\n      tag_193\n      jump\t// in\n    tag_457:\n        /* \"#utility.yul\":20129:20203   */\n      swap2\n      pop\n        /* \"#utility.yul\":20212:20305   */\n      tag_458\n        /* \"#utility.yul\":20301:20304   */\n      dup3\n        /* \"#utility.yul\":20212:20305   */\n      tag_233\n      jump\t// in\n    tag_458:\n        /* \"#utility.yul\":20330:20332   */\n      0x40\n        /* \"#utility.yul\":20325:20328   */\n      dup3\n        /* \"#utility.yul\":20321:20333   */\n      add\n        /* \"#utility.yul\":20314:20333   */\n      swap1\n      pop\n        /* \"#utility.yul\":19973:20339   */\n      swap2\n      swap1\n      pop\n      jump\t// out\n        /* \"#utility.yul\":20345:20764   */\n    tag_122:\n        /* \"#utility.yul\":20511:20515   */\n      0x00\n        /* \"#utility.yul\":20549:20551   */\n      0x20\n        /* \"#utility.yul\":20538:20547   */\n      dup3\n        /* \"#utility.yul\":20534:20552   */\n      add\n        /* \"#utility.yul\":20526:20552   */\n      swap1\n      pop\n        /* \"#utility.yul\":20598:20607   */\n      dup2\n        /* \"#utility.yul\":20592:20596   */\n      dup2\n        /* \"#utility.yul\":20588:20608   */\n      sub\n        /* \"#utility.yul\":20584:20585   */\n      0x00\n        /* \"#utility.yul\":20573:20582   */\n      dup4\n        /* \"#utility.yul\":20569:20586   */\n      add\n        /* \"#utility.yul\":20562:20609   */\n      mstore\n        /* \"#utility.yul\":20626:20757   */\n      tag_460\n        /* \"#utility.yul\":20752:20756   */\n      dup2\n        /* \"#utility.yul\":20626:20757   */\n      tag_234\n      jump\t// in\n    tag_460:\n        /* \"#utility.yul\":20618:20757   */\n      swap1\n      pop\n        /* \"#utility.yul\":20345:20764   */\n      swap2\n      swap1\n      pop\n      jump\t// out\n        /* \"#utility.yul\":20770:20995   */\n    tag_235:\n        /* \"#utility.yul\":20910:20944   */\n      0x5468652043616d706169676e2053706563696669656420446f6573204e6f7420\n        /* \"#utility.yul\":20906:20907   */\n      0x00\n        /* \"#utility.yul\":20898:20904   */\n      dup3\n        /* \"#utility.yul\":20894:20908   */\n      add\n        /* \"#utility.yul\":20887:20945   */\n      mstore\n        /* \"#utility.yul\":20979:20987   */\n      0x4578697374210000000000000000000000000000000000000000000000000000\n        /* \"#utility.yul\":20974:20976   */\n      0x20\n        /* \"#utility.yul\":20966:20972   */\n      dup3\n        /* \"#utility.yul\":20962:20977   */\n      add\n        /* \"#utility.yul\":20955:20988   */\n      mstore\n        /* \"#utility.yul\":20770:20995   */\n      pop\n      jump\t// out\n        /* \"#utility.yul\":21001:21367   */\n    tag_236:\n        /* \"#utility.yul\":21143:21146   */\n      0x00\n        /* \"#utility.yul\":21164:21231   */\n      tag_463\n        /* \"#utility.yul\":21228:21230   */\n      0x26\n        /* \"#utility.yul\":21223:21226   */\n      dup4\n        /* \"#utility.yul\":21164:21231   */\n      tag_193\n      jump\t// in\n    tag_463:\n        /* \"#utility.yul\":21157:21231   */\n      swap2\n      pop\n        /* \"#utility.yul\":21240:21333   */\n      tag_464\n        /* \"#utility.yul\":21329:21332   */\n      dup3\n        /* \"#utility.yul\":21240:21333   */\n      tag_235\n      jump\t// in\n    tag_464:\n        /* \"#utility.yul\":21358:21360   */\n      0x40\n        /* \"#utility.yul\":21353:21356   */\n      dup3\n        /* \"#utility.yul\":21349:21361   */\n      add\n        /* \"#utility.yul\":21342:21361   */\n      swap1\n      pop\n        /* \"#utility.yul\":21001:21367   */\n      swap2\n      swap1\n      pop\n      jump\t// out\n        /* \"#utility.yul\":21373:21792   */\n    tag_129:\n        /* \"#utility.yul\":21539:21543   */\n      0x00\n        /* \"#utility.yul\":21577:21579   */\n      0x20\n        /* \"#utility.yul\":21566:21575   */\n      dup3\n        /* \"#utility.yul\":21562:21580   */\n      add\n        /* \"#utility.yul\":21554:21580   */\n      swap1\n      pop\n        /* \"#utility.yul\":21626:21635   */\n      dup2\n        /* \"#utility.yul\":21620:21624   */\n      dup2\n        /* \"#utility.yul\":21616:21636   */\n      sub\n        /* \"#utility.yul\":21612:21613   */\n      0x00\n        /* \"#utility.yul\":21601:21610   */\n      dup4\n        /* \"#utility.yul\":21597:21614   */\n      add\n        /* \"#utility.yul\":21590:21637   */\n      mstore\n        /* \"#utility.yul\":21654:21785   */\n      tag_466\n        /* \"#utility.yul\":21780:21784   */\n      dup2\n        /* \"#utility.yul\":21654:21785   */\n      tag_236\n      jump\t// in\n    tag_466:\n        /* \"#utility.yul\":21646:21785   */\n      swap1\n      pop\n        /* \"#utility.yul\":21373:21792   */\n      swap2\n      swap1\n      pop\n      jump\t// out\n        /* \"#utility.yul\":21798:22021   */\n    tag_237:\n        /* \"#utility.yul\":21938:21972   */\n      0x4f6e6c792041646d696e732043616e20506572666f726d205468697320416374\n        /* \"#utility.yul\":21934:21935   */\n      0x00\n        /* \"#utility.yul\":21926:21932   */\n      dup3\n        /* \"#utility.yul\":21922:21936   */\n      add\n        /* \"#utility.yul\":21915:21973   */\n      mstore\n        /* \"#utility.yul\":22007:22013   */\n      0x696f6e2100000000000000000000000000000000000000000000000000000000\n        /* \"#utility.yul\":22002:22004   */\n      0x20\n        /* \"#utility.yul\":21994:22000   */\n      dup3\n        /* \"#utility.yul\":21990:22005   */\n      add\n        /* \"#utility.yul\":21983:22014   */\n      mstore\n        /* \"#utility.yul\":21798:22021   */\n      pop\n      jump\t// out\n        /* \"#utility.yul\":22027:22393   */\n    tag_238:\n        /* \"#utility.yul\":22169:22172   */\n      0x00\n        /* \"#utility.yul\":22190:22257   */\n      tag_469\n        /* \"#utility.yul\":22254:22256   */\n      0x24\n        /* \"#utility.yul\":22249:22252   */\n      dup4\n        /* \"#utility.yul\":22190:22257   */\n      tag_193\n      jump\t// in\n    tag_469:\n        /* \"#utility.yul\":22183:22257   */\n      swap2\n      pop\n        /* \"#utility.yul\":22266:22359   */\n      tag_470\n        /* \"#utility.yul\":22355:22358   */\n      dup3\n        /* \"#utility.yul\":22266:22359   */\n      tag_237\n      jump\t// in\n    tag_470:\n        /* \"#utility.yul\":22384:22386   */\n      0x40\n        /* \"#utility.yul\":22379:22382   */\n      dup3\n        /* \"#utility.yul\":22375:22387   */\n      add\n        /* \"#utility.yul\":22368:22387   */\n      swap1\n      pop\n        /* \"#utility.yul\":22027:22393   */\n      swap2\n      swap1\n      pop\n      jump\t// out\n        /* \"#utility.yul\":22399:22818   */\n    tag_132:\n        /* \"#utility.yul\":22565:22569   */\n      0x00\n        /* \"#utility.yul\":22603:22605   */\n      0x20\n        /* \"#utility.yul\":22592:22601   */\n      dup3\n        /* \"#utility.yul\":22588:22606   */\n      add\n        /* \"#utility.yul\":22580:22606   */\n      swap1\n      pop\n        /* \"#utility.yul\":22652:22661   */\n      dup2\n        /* \"#utility.yul\":22646:22650   */\n      dup2\n        /* \"#utility.yul\":22642:22662   */\n      sub\n        /* \"#utility.yul\":22638:22639   */\n      0x00\n        /* \"#utility.yul\":22627:22636   */\n      dup4\n        /* \"#utility.yul\":22623:22640   */\n      add\n        /* \"#utility.yul\":22616:22663   */\n      mstore\n        /* \"#utility.yul\":22680:22811   */\n      tag_472\n        /* \"#utility.yul\":22806:22810   */\n      dup2\n        /* \"#utility.yul\":22680:22811   */\n      tag_238\n      jump\t// in\n    tag_472:\n        /* \"#utility.yul\":22672:22811   */\n      swap1\n      pop\n        /* \"#utility.yul\":22399:22818   */\n      swap2\n      swap1\n      pop\n      jump\t// out\n        /* \"#utility.yul\":22824:23061   */\n    tag_239:\n        /* \"#utility.yul\":22964:22998   */\n      0x416d6f756e742043616e6e6f74206265205a65726f204f722045786365646420\n        /* \"#utility.yul\":22960:22961   */\n      0x00\n        /* \"#utility.yul\":22952:22958   */\n      dup3\n        /* \"#utility.yul\":22948:22962   */\n      add\n        /* \"#utility.yul\":22941:22999   */\n      mstore\n        /* \"#utility.yul\":23033:23053   */\n      0x5468652052616973656420416d6f756e74210000000000000000000000000000\n        /* \"#utility.yul\":23028:23030   */\n      0x20\n        /* \"#utility.yul\":23020:23026   */\n      dup3\n        /* \"#utility.yul\":23016:23031   */\n      add\n        /* \"#utility.yul\":23009:23054   */\n      mstore\n        /* \"#utility.yul\":22824:23061   */\n      pop\n      jump\t// out\n        /* \"#utility.yul\":23067:23433   */\n    tag_240:\n        /* \"#utility.yul\":23209:23212   */\n      0x00\n        /* \"#utility.yul\":23230:23297   */\n      tag_475\n        /* \"#utility.yul\":23294:23296   */\n      0x32\n        /* \"#utility.yul\":23289:23292   */\n      dup4\n        /* \"#utility.yul\":23230:23297   */\n      tag_193\n      jump\t// in\n    tag_475:\n        /* \"#utility.yul\":23223:23297   */\n      swap2\n      pop\n        /* \"#utility.yul\":23306:23399   */\n      tag_476\n        /* \"#utility.yul\":23395:23398   */\n      dup3\n        /* \"#utility.yul\":23306:23399   */\n      tag_239\n      jump\t// in\n    tag_476:\n        /* \"#utility.yul\":23424:23426   */\n      0x40\n        /* \"#utility.yul\":23419:23422   */\n      dup3\n        /* \"#utility.yul\":23415:23427   */\n      add\n        /* \"#utility.yul\":23408:23427   */\n      swap1\n      pop\n        /* \"#utility.yul\":23067:23433   */\n      swap2\n      swap1\n      pop\n      jump\t// out\n        /* \"#utility.yul\":23439:23858   */\n    tag_141:\n        /* \"#utility.yul\":23605:23609   */\n      0x00\n        /* \"#utility.yul\":23643:23645   */\n      0x20\n        /* \"#utility.yul\":23632:23641   */\n      dup3\n        /* \"#utility.yul\":23628:23646   */\n      add\n        /* \"#utility.yul\":23620:23646   */\n      swap1\n      pop\n        /* \"#utility.yul\":23692:23701   */\n      dup2\n        /* \"#utility.yul\":23686:23690   */\n      dup2\n        /* \"#utility.yul\":23682:23702   */\n      sub\n        /* \"#utility.yul\":23678:23679   */\n      0x00\n        /* \"#utility.yul\":23667:23676   */\n      dup4\n        /* \"#utility.yul\":23663:23680   */\n      add\n        /* \"#utility.yul\":23656:23703   */\n      mstore\n        /* \"#utility.yul\":23720:23851   */\n      tag_478\n        /* \"#utility.yul\":23846:23850   */\n      dup2\n        /* \"#utility.yul\":23720:23851   */\n      tag_240\n      jump\t// in\n    tag_478:\n        /* \"#utility.yul\":23712:23851   */\n      swap1\n      pop\n        /* \"#utility.yul\":23439:23858   */\n      swap2\n      swap1\n      pop\n      jump\t// out\n        /* \"#utility.yul\":23864:24099   */\n    tag_241:\n        /* \"#utility.yul\":24004:24038   */\n      0x596f752043616e27742057697468647261772046756e64732066726f6d20616e\n        /* \"#utility.yul\":24000:24001   */\n      0x00\n        /* \"#utility.yul\":23992:23998   */\n      dup3\n        /* \"#utility.yul\":23988:24002   */\n      add\n        /* \"#utility.yul\":23981:24039   */\n      mstore\n        /* \"#utility.yul\":24073:24091   */\n      0x204163746976652043616d706169676e00000000000000000000000000000000\n        /* \"#utility.yul\":24068:24070   */\n      0x20\n        /* \"#utility.yul\":24060:24066   */\n      dup3\n        /* \"#utility.yul\":24056:24071   */\n      add\n        /* \"#utility.yul\":24049:24092   */\n      mstore\n        /* \"#utility.yul\":23864:24099   */\n      pop\n      jump\t// out\n        /* \"#utility.yul\":24105:24471   */\n    tag_242:\n        /* \"#utility.yul\":24247:24250   */\n      0x00\n        /* \"#utility.yul\":24268:24335   */\n      tag_481\n        /* \"#utility.yul\":24332:24334   */\n      0x30\n        /* \"#utility.yul\":24327:24330   */\n      dup4\n        /* \"#utility.yul\":24268:24335   */\n      tag_193\n      jump\t// in\n    tag_481:\n        /* \"#utility.yul\":24261:24335   */\n      swap2\n      pop\n        /* \"#utility.yul\":24344:24437   */\n      tag_482\n        /* \"#utility.yul\":24433:24436   */\n      dup3\n        /* \"#utility.yul\":24344:24437   */\n      tag_241\n      jump\t// in\n    tag_482:\n        /* \"#utility.yul\":24462:24464   */\n      0x40\n        /* \"#utility.yul\":24457:24460   */\n      dup3\n        /* \"#utility.yul\":24453:24465   */\n      add\n        /* \"#utility.yul\":24446:24465   */\n      swap1\n      pop\n        /* \"#utility.yul\":24105:24471   */\n      swap2\n      swap1\n      pop\n      jump\t// out\n        /* \"#utility.yul\":24477:24896   */\n    tag_148:\n        /* \"#utility.yul\":24643:24647   */\n      0x00\n        /* \"#utility.yul\":24681:24683   */\n      0x20\n        /* \"#utility.yul\":24670:24679   */\n      dup3\n        /* \"#utility.yul\":24666:24684   */\n      add\n        /* \"#utility.yul\":24658:24684   */\n      swap1\n      pop\n        /* \"#utility.yul\":24730:24739   */\n      dup2\n        /* \"#utility.yul\":24724:24728   */\n      dup2\n        /* \"#utility.yul\":24720:24740   */\n      sub\n        /* \"#utility.yul\":24716:24717   */\n      0x00\n        /* \"#utility.yul\":24705:24714   */\n      dup4\n        /* \"#utility.yul\":24701:24718   */\n      add\n        /* \"#utility.yul\":24694:24741   */\n      mstore\n        /* \"#utility.yul\":24758:24889   */\n      tag_484\n        /* \"#utility.yul\":24884:24888   */\n      dup2\n        /* \"#utility.yul\":24758:24889   */\n      tag_242\n      jump\t// in\n    tag_484:\n        /* \"#utility.yul\":24750:24889   */\n      swap1\n      pop\n        /* \"#utility.yul\":24477:24896   */\n      swap2\n      swap1\n      pop\n      jump\t// out\n        /* \"#utility.yul\":24902:24962   */\n    tag_243:\n        /* \"#utility.yul\":24930:24933   */\n      0x00\n        /* \"#utility.yul\":24951:24956   */\n      dup2\n        /* \"#utility.yul\":24944:24956   */\n      swap1\n      pop\n        /* \"#utility.yul\":24902:24962   */\n      swap2\n      swap1\n      pop\n      jump\t// out\n        /* \"#utility.yul\":24968:25110   */\n    tag_244:\n        /* \"#utility.yul\":25018:25027   */\n      0x00\n        /* \"#utility.yul\":25051:25104   */\n      tag_487\n        /* \"#utility.yul\":25069:25103   */\n      tag_488\n        /* \"#utility.yul\":25078:25102   */\n      tag_489\n        /* \"#utility.yul\":25096:25101   */\n      dup5\n        /* \"#utility.yul\":25078:25102   */\n      tag_184\n      jump\t// in\n    tag_489:\n        /* \"#utility.yul\":25069:25103   */\n      tag_243\n      jump\t// in\n    tag_488:\n        /* \"#utility.yul\":25051:25104   */\n      tag_184\n      jump\t// in\n    tag_487:\n        /* \"#utility.yul\":25038:25104   */\n      swap1\n      pop\n        /* \"#utility.yul\":24968:25110   */\n      swap2\n      swap1\n      pop\n      jump\t// out\n        /* \"#utility.yul\":25116:25242   */\n    tag_245:\n        /* \"#utility.yul\":25166:25175   */\n      0x00\n        /* \"#utility.yul\":25199:25236   */\n      tag_491\n        /* \"#utility.yul\":25230:25235   */\n      dup3\n        /* \"#utility.yul\":25199:25236   */\n      tag_244\n      jump\t// in\n    tag_491:\n        /* \"#utility.yul\":25186:25236   */\n      swap1\n      pop\n        /* \"#utility.yul\":25116:25242   */\n      swap2\n      swap1\n      pop\n      jump\t// out\n        /* \"#utility.yul\":25248:25382   */\n    tag_246:\n        /* \"#utility.yul\":25306:25315   */\n      0x00\n        /* \"#utility.yul\":25339:25376   */\n      tag_493\n        /* \"#utility.yul\":25370:25375   */\n      dup3\n        /* \"#utility.yul\":25339:25376   */\n      tag_245\n      jump\t// in\n    tag_493:\n        /* \"#utility.yul\":25326:25376   */\n      swap1\n      pop\n        /* \"#utility.yul\":25248:25382   */\n      swap2\n      swap1\n      pop\n      jump\t// out\n        /* \"#utility.yul\":25388:25535   */\n    tag_247:\n        /* \"#utility.yul\":25483:25528   */\n      tag_495\n        /* \"#utility.yul\":25522:25527   */\n      dup2\n        /* \"#utility.yul\":25483:25528   */\n      tag_246\n      jump\t// in\n    tag_495:\n        /* \"#utility.yul\":25478:25481   */\n      dup3\n        /* \"#utility.yul\":25471:25529   */\n      mstore\n        /* \"#utility.yul\":25388:25535   */\n      pop\n      pop\n      jump\t// out\n        /* \"#utility.yul\":25541:25999   */\n    tag_157:\n        /* \"#utility.yul\":25698:25702   */\n      0x00\n        /* \"#utility.yul\":25736:25738   */\n      0x60\n        /* \"#utility.yul\":25725:25734   */\n      dup3\n        /* \"#utility.yul\":25721:25739   */\n      add\n        /* \"#utility.yul\":25713:25739   */\n      swap1\n      pop\n        /* \"#utility.yul\":25749:25820   */\n      tag_497\n        /* \"#utility.yul\":25817:25818   */\n      0x00\n        /* \"#utility.yul\":25806:25815   */\n      dup4\n        /* \"#utility.yul\":25802:25819   */\n      add\n        /* \"#utility.yul\":25793:25799   */\n      dup7\n        /* \"#utility.yul\":25749:25820   */\n      tag_191\n      jump\t// in\n    tag_497:\n        /* \"#utility.yul\":25830:25902   */\n      tag_498\n        /* \"#utility.yul\":25898:25900   */\n      0x20\n        /* \"#utility.yul\":25887:25896   */\n      dup4\n        /* \"#utility.yul\":25883:25901   */\n      add\n        /* \"#utility.yul\":25874:25880   */\n      dup6\n        /* \"#utility.yul\":25830:25902   */\n      tag_197\n      jump\t// in\n    tag_498:\n        /* \"#utility.yul\":25912:25992   */\n      tag_499\n        /* \"#utility.yul\":25988:25990   */\n      0x40\n        /* \"#utility.yul\":25977:25986   */\n      dup4\n        /* \"#utility.yul\":25973:25991   */\n      add\n        /* \"#utility.yul\":25964:25970   */\n      dup5\n        /* \"#utility.yul\":25912:25992   */\n      tag_247\n      jump\t// in\n    tag_499:\n        /* \"#utility.yul\":25541:25999   */\n      swap5\n      swap4\n      pop\n      pop\n      pop\n      pop\n      jump\t// out\n        /* \"#utility.yul\":26005:26395   */\n    tag_248:\n        /* \"#utility.yul\":26111:26114   */\n      0x00\n        /* \"#utility.yul\":26139:26178   */\n      tag_501\n        /* \"#utility.yul\":26172:26177   */\n      dup3\n        /* \"#utility.yul\":26139:26178   */\n      tag_192\n      jump\t// in\n    tag_501:\n        /* \"#utility.yul\":26194:26283   */\n      tag_502\n        /* \"#utility.yul\":26276:26282   */\n      dup2\n        /* \"#utility.yul\":26271:26274   */\n      dup6\n        /* \"#utility.yul\":26194:26283   */\n      tag_216\n      jump\t// in\n    tag_502:\n        /* \"#utility.yul\":26187:26283   */\n      swap4\n      pop\n        /* \"#utility.yul\":26292:26357   */\n      tag_503\n        /* \"#utility.yul\":26350:26356   */\n      dup2\n        /* \"#utility.yul\":26345:26348   */\n      dup6\n        /* \"#utility.yul\":26338:26342   */\n      0x20\n        /* \"#utility.yul\":26331:26336   */\n      dup7\n        /* \"#utility.yul\":26327:26343   */\n      add\n        /* \"#utility.yul\":26292:26357   */\n      tag_194\n      jump\t// in\n    tag_503:\n        /* \"#utility.yul\":26382:26388   */\n      dup1\n        /* \"#utility.yul\":26377:26380   */\n      dup5\n        /* \"#utility.yul\":26373:26389   */\n      add\n        /* \"#utility.yul\":26366:26389   */\n      swap2\n      pop\n        /* \"#utility.yul\":26115:26395   */\n      pop\n        /* \"#utility.yul\":26005:26395   */\n      swap3\n      swap2\n      pop\n      pop\n      jump\t// out\n        /* \"#utility.yul\":26401:26676   */\n    tag_167:\n        /* \"#utility.yul\":26533:26536   */\n      0x00\n        /* \"#utility.yul\":26555:26650   */\n      tag_505\n        /* \"#utility.yul\":26646:26649   */\n      dup3\n        /* \"#utility.yul\":26637:26643   */\n      dup5\n        /* \"#utility.yul\":26555:26650   */\n      tag_248\n      jump\t// in\n    tag_505:\n        /* \"#utility.yul\":26548:26650   */\n      swap2\n      pop\n        /* \"#utility.yul\":26667:26670   */\n      dup2\n        /* \"#utility.yul\":26660:26670   */\n      swap1\n      pop\n        /* \"#utility.yul\":26401:26676   */\n      swap3\n      swap2\n      pop\n      pop\n      jump\t// out\n        /* \"#utility.yul\":26682:26827   */\n    tag_249:\n        /* \"#utility.yul\":26735:26739   */\n      0x00\n        /* \"#utility.yul\":26758:26761   */\n      dup2\n        /* \"#utility.yul\":26750:26761   */\n      swap1\n      pop\n        /* \"#utility.yul\":26781:26784   */\n      dup2\n        /* \"#utility.yul\":26778:26779   */\n      0x00\n        /* \"#utility.yul\":26771:26785   */\n      mstore\n        /* \"#utility.yul\":26815:26819   */\n      0x20\n        /* \"#utility.yul\":26812:26813   */\n      0x00\n        /* \"#utility.yul\":26802:26820   */\n      keccak256\n        /* \"#utility.yul\":26794:26820   */\n      swap1\n      pop\n        /* \"#utility.yul\":26682:26827   */\n      swap2\n      swap1\n      pop\n      jump\t// out\n        /* \"#utility.yul\":26857:27739   */\n    tag_250:\n        /* \"#utility.yul\":26964:26967   */\n      0x00\n        /* \"#utility.yul\":27001:27006   */\n      dup2\n        /* \"#utility.yul\":26995:27007   */\n      sload\n        /* \"#utility.yul\":27030:27066   */\n      tag_508\n        /* \"#utility.yul\":27056:27065   */\n      dup2\n        /* \"#utility.yul\":27030:27066   */\n      tag_58\n      jump\t// in\n    tag_508:\n        /* \"#utility.yul\":27082:27171   */\n      tag_509\n        /* \"#utility.yul\":27164:27170   */\n      dup2\n        /* \"#utility.yul\":27159:27162   */\n      dup7\n        /* \"#utility.yul\":27082:27171   */\n      tag_216\n      jump\t// in\n    tag_509:\n        /* \"#utility.yul\":27075:27171   */\n      swap5\n      pop\n        /* \"#utility.yul\":27202:27203   */\n      0x01\n        /* \"#utility.yul\":27191:27200   */\n      dup3\n        /* \"#utility.yul\":27187:27204   */\n      and\n        /* \"#utility.yul\":27218:27219   */\n      0x00\n        /* \"#utility.yul\":27213:27379   */\n      dup2\n      eq\n      tag_511\n      jumpi\n        /* \"#utility.yul\":27393:27394   */\n      0x01\n        /* \"#utility.yul\":27388:27733   */\n      dup2\n      eq\n      tag_512\n      jumpi\n        /* \"#utility.yul\":27180:27733   */\n      jump(tag_510)\n        /* \"#utility.yul\":27213:27379   */\n    tag_511:\n        /* \"#utility.yul\":27297:27301   */\n      0xff\n        /* \"#utility.yul\":27293:27302   */\n      not\n        /* \"#utility.yul\":27282:27291   */\n      dup4\n        /* \"#utility.yul\":27278:27303   */\n      and\n        /* \"#utility.yul\":27273:27276   */\n      dup7\n        /* \"#utility.yul\":27266:27304   */\n      mstore\n        /* \"#utility.yul\":27359:27365   */\n      dup2\n        /* \"#utility.yul\":27352:27366   */\n      iszero\n        /* \"#utility.yul\":27345:27367   */\n      iszero\n        /* \"#utility.yul\":27337:27343   */\n      dup3\n        /* \"#utility.yul\":27333:27368   */\n      mul\n        /* \"#utility.yul\":27328:27331   */\n      dup7\n        /* \"#utility.yul\":27324:27369   */\n      add\n        /* \"#utility.yul\":27317:27369   */\n      swap4\n      pop\n        /* \"#utility.yul\":27213:27379   */\n      jump(tag_510)\n        /* \"#utility.yul\":27388:27733   */\n    tag_512:\n        /* \"#utility.yul\":27455:27497   */\n      tag_513\n        /* \"#utility.yul\":27491:27496   */\n      dup6\n        /* \"#utility.yul\":27455:27497   */\n      tag_249\n      jump\t// in\n    tag_513:\n        /* \"#utility.yul\":27519:27520   */\n      0x00\n        /* \"#utility.yul\":27533:27687   */\n    tag_514:\n        /* \"#utility.yul\":27547:27553   */\n      dup4\n        /* \"#utility.yul\":27544:27545   */\n      dup2\n        /* \"#utility.yul\":27541:27554   */\n      lt\n        /* \"#utility.yul\":27533:27687   */\n      iszero\n      tag_516\n      jumpi\n        /* \"#utility.yul\":27621:27628   */\n      dup2\n        /* \"#utility.yul\":27615:27629   */\n      sload\n        /* \"#utility.yul\":27611:27612   */\n      dup2\n        /* \"#utility.yul\":27606:27609   */\n      dup10\n        /* \"#utility.yul\":27602:27613   */\n      add\n        /* \"#utility.yul\":27595:27630   */\n      mstore\n        /* \"#utility.yul\":27671:27672   */\n      0x01\n        /* \"#utility.yul\":27662:27669   */\n      dup3\n        /* \"#utility.yul\":27658:27673   */\n      add\n        /* \"#utility.yul\":27647:27673   */\n      swap2\n      pop\n        /* \"#utility.yul\":27569:27573   */\n      0x20\n        /* \"#utility.yul\":27566:27567   */\n      dup2\n        /* \"#utility.yul\":27562:27574   */\n      add\n        /* \"#utility.yul\":27557:27574   */\n      swap1\n      pop\n        /* \"#utility.yul\":27533:27687   */\n      jump(tag_514)\n    tag_516:\n        /* \"#utility.yul\":27716:27722   */\n      dup4\n        /* \"#utility.yul\":27711:27714   */\n      dup9\n        /* \"#utility.yul\":27707:27723   */\n      add\n        /* \"#utility.yul\":27700:27723   */\n      swap6\n      pop\n        /* \"#utility.yul\":27395:27733   */\n      pop\n      pop\n        /* \"#utility.yul\":27180:27733   */\n    tag_510:\n      pop\n        /* \"#utility.yul\":26968:27739   */\n      pop\n      pop\n        /* \"#utility.yul\":26857:27739   */\n      swap3\n      swap2\n      pop\n      pop\n      jump\t// out\n        /* \"#utility.yul\":27745:28022   */\n    tag_169:\n        /* \"#utility.yul\":27878:27881   */\n      0x00\n        /* \"#utility.yul\":27900:27996   */\n      tag_518\n        /* \"#utility.yul\":27992:27995   */\n      dup3\n        /* \"#utility.yul\":27983:27989   */\n      dup5\n        /* \"#utility.yul\":27900:27996   */\n      tag_250\n      jump\t// in\n    tag_518:\n        /* \"#utility.yul\":27893:27996   */\n      swap2\n      pop\n        /* \"#utility.yul\":28013:28016   */\n      dup2\n        /* \"#utility.yul\":28006:28016   */\n      swap1\n      pop\n        /* \"#utility.yul\":27745:28022   */\n      swap3\n      swap2\n      pop\n      pop\n      jump\t// out\n        /* \"#utility.yul\":28028:28187   */\n    tag_251:\n        /* \"#utility.yul\":28168:28179   */\n      0x43616d706169676e200000000000000000000000000000000000000000000000\n        /* \"#utility.yul\":28164:28165   */\n      0x00\n        /* \"#utility.yul\":28156:28162   */\n      dup3\n        /* \"#utility.yul\":28152:28166   */\n      add\n        /* \"#utility.yul\":28145:28180   */\n      mstore\n        /* \"#utility.yul\":28028:28187   */\n      pop\n      jump\t// out\n        /* \"#utility.yul\":28193:28593   */\n    tag_252:\n        /* \"#utility.yul\":28353:28356   */\n      0x00\n        /* \"#utility.yul\":28374:28458   */\n      tag_521\n        /* \"#utility.yul\":28456:28457   */\n      0x09\n        /* \"#utility.yul\":28451:28454   */\n      dup4\n        /* \"#utility.yul\":28374:28458   */\n      tag_216\n      jump\t// in\n    tag_521:\n        /* \"#utility.yul\":28367:28458   */\n      swap2\n      pop\n        /* \"#utility.yul\":28467:28560   */\n      tag_522\n        /* \"#utility.yul\":28556:28559   */\n      dup3\n        /* \"#utility.yul\":28467:28560   */\n      tag_251\n      jump\t// in\n    tag_522:\n        /* \"#utility.yul\":28585:28586   */\n      0x09\n        /* \"#utility.yul\":28580:28583   */\n      dup3\n        /* \"#utility.yul\":28576:28587   */\n      add\n        /* \"#utility.yul\":28569:28587   */\n      swap1\n      pop\n        /* \"#utility.yul\":28193:28593   */\n      swap2\n      swap1\n      pop\n      jump\t// out\n        /* \"#utility.yul\":28599:28765   */\n    tag_253:\n        /* \"#utility.yul\":28739:28757   */\n      0x20616c7265616479206578697374732100000000000000000000000000000000\n        /* \"#utility.yul\":28735:28736   */\n      0x00\n        /* \"#utility.yul\":28727:28733   */\n      dup3\n        /* \"#utility.yul\":28723:28737   */\n      add\n        /* \"#utility.yul\":28716:28758   */\n      mstore\n        /* \"#utility.yul\":28599:28765   */\n      pop\n      jump\t// out\n        /* \"#utility.yul\":28771:29173   */\n    tag_254:\n        /* \"#utility.yul\":28931:28934   */\n      0x00\n        /* \"#utility.yul\":28952:29037   */\n      tag_525\n        /* \"#utility.yul\":29034:29036   */\n      0x10\n        /* \"#utility.yul\":29029:29032   */\n      dup4\n        /* \"#utility.yul\":28952:29037   */\n      tag_216\n      jump\t// in\n    tag_525:\n        /* \"#utility.yul\":28945:29037   */\n      swap2\n      pop\n        /* \"#utility.yul\":29046:29139   */\n      tag_526\n        /* \"#utility.yul\":29135:29138   */\n      dup3\n        /* \"#utility.yul\":29046:29139   */\n      tag_253\n      jump\t// in\n    tag_526:\n        /* \"#utility.yul\":29164:29166   */\n      0x10\n        /* \"#utility.yul\":29159:29162   */\n      dup3\n        /* \"#utility.yul\":29155:29167   */\n      add\n        /* \"#utility.yul\":29148:29167   */\n      swap1\n      pop\n        /* \"#utility.yul\":28771:29173   */\n      swap2\n      swap1\n      pop\n      jump\t// out\n        /* \"#utility.yul\":29179:29986   */\n    tag_172:\n        /* \"#utility.yul\":29513:29516   */\n      0x00\n        /* \"#utility.yul\":29535:29683   */\n      tag_528\n        /* \"#utility.yul\":29679:29682   */\n      dup3\n        /* \"#utility.yul\":29535:29683   */\n      tag_252\n      jump\t// in\n    tag_528:\n        /* \"#utility.yul\":29528:29683   */\n      swap2\n      pop\n        /* \"#utility.yul\":29700:29795   */\n      tag_529\n        /* \"#utility.yul\":29791:29794   */\n      dup3\n        /* \"#utility.yul\":29782:29788   */\n      dup5\n        /* \"#utility.yul\":29700:29795   */\n      tag_248\n      jump\t// in\n    tag_529:\n        /* \"#utility.yul\":29693:29795   */\n      swap2\n      pop\n        /* \"#utility.yul\":29812:29960   */\n      tag_530\n        /* \"#utility.yul\":29956:29959   */\n      dup3\n        /* \"#utility.yul\":29812:29960   */\n      tag_254\n      jump\t// in\n    tag_530:\n        /* \"#utility.yul\":29805:29960   */\n      swap2\n      pop\n        /* \"#utility.yul\":29977:29980   */\n      dup2\n        /* \"#utility.yul\":29970:29980   */\n      swap1\n      pop\n        /* \"#utility.yul\":29179:29986   */\n      swap3\n      swap2\n      pop\n      pop\n      jump\t// out\n        /* \"#utility.yul\":29992:30085   */\n    tag_255:\n        /* \"#utility.yul\":30029:30035   */\n      0x00\n        /* \"#utility.yul\":30076:30078   */\n      0x20\n        /* \"#utility.yul\":30071:30073   */\n      0x1f\n        /* \"#utility.yul\":30064:30069   */\n      dup4\n        /* \"#utility.yul\":30060:30074   */\n      add\n        /* \"#utility.yul\":30056:30079   */\n      div\n        /* \"#utility.yul\":30046:30079   */\n      swap1\n      pop\n        /* \"#utility.yul\":29992:30085   */\n      swap2\n      swap1\n      pop\n      jump\t// out\n        /* \"#utility.yul\":30091:30198   */\n    tag_256:\n        /* \"#utility.yul\":30135:30143   */\n      0x00\n        /* \"#utility.yul\":30185:30190   */\n      dup3\n        /* \"#utility.yul\":30179:30183   */\n      dup3\n        /* \"#utility.yul\":30175:30191   */\n      shl\n        /* \"#utility.yul\":30154:30191   */\n      swap1\n      pop\n        /* \"#utility.yul\":30091:30198   */\n      swap3\n      swap2\n      pop\n      pop\n      jump\t// out\n        /* \"#utility.yul\":30204:30597   */\n    tag_257:\n        /* \"#utility.yul\":30273:30279   */\n      0x00\n        /* \"#utility.yul\":30323:30324   */\n      0x08\n        /* \"#utility.yul\":30311:30321   */\n      dup4\n        /* \"#utility.yul\":30307:30325   */\n      mul\n        /* \"#utility.yul\":30346:30443   */\n      tag_534\n        /* \"#utility.yul\":30376:30442   */\n      0xffffffffffffffffffffffffffffffffffffffffffffffffffffffffffffffff\n        /* \"#utility.yul\":30365:30374   */\n      dup3\n        /* \"#utility.yul\":30346:30443   */\n      tag_256\n      jump\t// in\n    tag_534:\n        /* \"#utility.yul\":30464:30503   */\n      tag_535\n        /* \"#utility.yul\":30494:30502   */\n      dup7\n        /* \"#utility.yul\":30483:30492   */\n      dup4\n        /* \"#utility.yul\":30464:30503   */\n      tag_256\n      jump\t// in\n    tag_535:\n        /* \"#utility.yul\":30452:30503   */\n      swap6\n      pop\n        /* \"#utility.yul\":30536:30540   */\n      dup1\n        /* \"#utility.yul\":30532:30541   */\n      not\n        /* \"#utility.yul\":30525:30530   */\n      dup5\n        /* \"#utility.yul\":30521:30542   */\n      and\n        /* \"#utility.yul\":30512:30542   */\n      swap4\n      pop\n        /* \"#utility.yul\":30585:30589   */\n      dup1\n        /* \"#utility.yul\":30575:30583   */\n      dup7\n        /* \"#utility.yul\":30571:30590   */\n      and\n        /* \"#utility.yul\":30564:30569   */\n      dup5\n        /* \"#utility.yul\":30561:30591   */\n      or\n        /* \"#utility.yul\":30551:30591   */\n      swap3\n      pop\n        /* \"#utility.yul\":30280:30597   */\n      pop\n      pop\n        /* \"#utility.yul\":30204:30597   */\n      swap4\n      swap3\n      pop\n      pop\n      pop\n      jump\t// out\n        /* \"#utility.yul\":30603:30745   */\n    tag_258:\n        /* \"#utility.yul\":30653:30662   */\n      0x00\n        /* \"#utility.yul\":30686:30739   */\n      tag_537\n        /* \"#utility.yul\":30704:30738   */\n      tag_538\n        /* \"#utility.yul\":30713:30737   */\n      tag_539\n        /* \"#utility.yul\":30731:30736   */\n      dup5\n        /* \"#utility.yul\":30713:30737   */\n      tag_188\n      jump\t// in\n    tag_539:\n        /* \"#utility.yul\":30704:30738   */\n      tag_243\n      jump\t// in\n    tag_538:\n        /* \"#utility.yul\":30686:30739   */\n      tag_188\n      jump\t// in\n    tag_537:\n        /* \"#utility.yul\":30673:30739   */\n      swap1\n      pop\n        /* \"#utility.yul\":30603:30745   */\n      swap2\n      swap1\n      pop\n      jump\t// out\n        /* \"#utility.yul\":30751:30826   */\n    tag_259:\n        /* \"#utility.yul\":30794:30797   */\n      0x00\n        /* \"#utility.yul\":30815:30820   */\n      dup2\n        /* \"#utility.yul\":30808:30820   */\n      swap1\n      pop\n        /* \"#utility.yul\":30751:30826   */\n      swap2\n      swap1\n      pop\n      jump\t// out\n        /* \"#utility.yul\":30832:31101   */\n    tag_260:\n        /* \"#utility.yul\":30942:30981   */\n      tag_542\n        /* \"#utility.yul\":30973:30980   */\n      dup4\n        /* \"#utility.yul\":30942:30981   */\n      tag_258\n      jump\t// in\n    tag_542:\n        /* \"#utility.yul\":31003:31094   */\n      tag_543\n        /* \"#utility.yul\":31052:31093   */\n      tag_544\n        /* \"#utility.yul\":31076:31092   */\n      dup3\n        /* \"#utility.yul\":31052:31093   */\n      tag_259\n      jump\t// in\n    tag_544:\n        /* \"#utility.yul\":31044:31050   */\n      dup5\n        /* \"#utility.yul\":31037:31041   */\n      dup5\n        /* \"#utility.yul\":31031:31042   */\n      sload\n        /* \"#utility.yul\":31003:31094   */\n      tag_257\n      jump\t// in\n    tag_543:\n        /* \"#utility.yul\":30997:31001   */\n      dup3\n        /* \"#utility.yul\":30990:31095   */\n      sstore\n        /* \"#utility.yul\":30908:31101   */\n      pop\n        /* \"#utility.yul\":30832:31101   */\n      pop\n      pop\n      pop\n      jump\t// out\n        /* \"#utility.yul\":31107:31180   */\n    tag_261:\n        /* \"#utility.yul\":31152:31155   */\n      0x00\n        /* \"#utility.yul\":31107:31180   */\n      swap1\n      jump\t// out\n        /* \"#utility.yul\":31186:31375   */\n    tag_262:\n        /* \"#utility.yul\":31263:31295   */\n      tag_547\n      tag_261\n      jump\t// in\n    tag_547:\n        /* \"#utility.yul\":31304:31369   */\n      tag_548\n        /* \"#utility.yul\":31362:31368   */\n      dup2\n        /* \"#utility.yul\":31354:31360   */\n      dup5\n        /* \"#utility.yul\":31348:31352   */\n      dup5\n        /* \"#utility.yul\":31304:31369   */\n      tag_260\n      jump\t// in\n    tag_548:\n        /* \"#utility.yul\":31239:31375   */\n      pop\n        /* \"#utility.yul\":31186:31375   */\n      pop\n      pop\n      jump\t// out\n        /* \"#utility.yul\":31381:31567   */\n    tag_263:\n        /* \"#utility.yul\":31441:31561   */\n    tag_550:\n        /* \"#utility.yul\":31458:31461   */\n      dup2\n        /* \"#utility.yul\":31451:31456   */\n      dup2\n        /* \"#utility.yul\":31448:31462   */\n      lt\n        /* \"#utility.yul\":31441:31561   */\n      iszero\n      tag_552\n      jumpi\n        /* \"#utility.yul\":31512:31551   */\n      tag_553\n        /* \"#utility.yul\":31549:31550   */\n      0x00\n        /* \"#utility.yul\":31542:31547   */\n      dup3\n        /* \"#utility.yul\":31512:31551   */\n      tag_262\n      jump\t// in\n    tag_553:\n        /* \"#utility.yul\":31485:31486   */\n      0x01\n        /* \"#utility.yul\":31478:31483   */\n      dup2\n        /* \"#utility.yul\":31474:31487   */\n      add\n        /* \"#utility.yul\":31465:31487   */\n      swap1\n      pop\n        /* \"#utility.yul\":31441:31561   */\n      jump(tag_550)\n    tag_552:\n        /* \"#utility.yul\":31381:31567   */\n      pop\n      pop\n      jump\t// out\n        /* \"#utility.yul\":31573:32116   */\n    tag_264:\n        /* \"#utility.yul\":31674:31676   */\n      0x1f\n        /* \"#utility.yul\":31669:31672   */\n      dup3\n        /* \"#utility.yul\":31666:31677   */\n      gt\n        /* \"#utility.yul\":31663:32109   */\n      iszero\n      tag_555\n      jumpi\n        /* \"#utility.yul\":31708:31746   */\n      tag_556\n        /* \"#utility.yul\":31740:31745   */\n      dup2\n        /* \"#utility.yul\":31708:31746   */\n      tag_225\n      jump\t// in\n    tag_556:\n        /* \"#utility.yul\":31792:31821   */\n      tag_557\n        /* \"#utility.yul\":31810:31820   */\n      dup5\n        /* \"#utility.yul\":31792:31821   */\n      tag_255\n      jump\t// in\n    tag_557:\n        /* \"#utility.yul\":31782:31790   */\n      dup2\n        /* \"#utility.yul\":31778:31822   */\n      add\n        /* \"#utility.yul\":31975:31977   */\n      0x20\n        /* \"#utility.yul\":31963:31973   */\n      dup6\n        /* \"#utility.yul\":31960:31978   */\n      lt\n        /* \"#utility.yul\":31957:32006   */\n      iszero\n      tag_558\n      jumpi\n        /* \"#utility.yul\":31996:32004   */\n      dup2\n        /* \"#utility.yul\":31981:32004   */\n      swap1\n      pop\n        /* \"#utility.yul\":31957:32006   */\n    tag_558:\n        /* \"#utility.yul\":32019:32099   */\n      tag_559\n        /* \"#utility.yul\":32075:32097   */\n      tag_560\n        /* \"#utility.yul\":32093:32096   */\n      dup6\n        /* \"#utility.yul\":32075:32097   */\n      tag_255\n      jump\t// in\n    tag_560:\n        /* \"#utility.yul\":32065:32073   */\n      dup4\n        /* \"#utility.yul\":32061:32098   */\n      add\n        /* \"#utility.yul\":32048:32059   */\n      dup3\n        /* \"#utility.yul\":32019:32099   */\n      tag_263\n      jump\t// in\n    tag_559:\n        /* \"#utility.yul\":31678:32109   */\n      pop\n      pop\n        /* \"#utility.yul\":31663:32109   */\n    tag_555:\n        /* \"#utility.yul\":31573:32116   */\n      pop\n      pop\n      pop\n      jump\t// out\n        /* \"#utility.yul\":32122:32239   */\n    tag_265:\n        /* \"#utility.yul\":32176:32184   */\n      0x00\n        /* \"#utility.yul\":32226:32231   */\n      dup3\n        /* \"#utility.yul\":32220:32224   */\n      dup3\n        /* \"#utility.yul\":32216:32232   */\n      shr\n        /* \"#utility.yul\":32195:32232   */\n      swap1\n      pop\n        /* \"#utility.yul\":32122:32239   */\n      swap3\n      swap2\n      pop\n      pop\n      jump\t// out\n        /* \"#utility.yul\":32245:32414   */\n    tag_266:\n        /* \"#utility.yul\":32289:32295   */\n      0x00\n        /* \"#utility.yul\":32322:32373   */\n      tag_563\n        /* \"#utility.yul\":32370:32371   */\n      0x00\n        /* \"#utility.yul\":32366:32372   */\n      not\n        /* \"#utility.yul\":32358:32363   */\n      dup5\n        /* \"#utility.yul\":32355:32356   */\n      0x08\n        /* \"#utility.yul\":32351:32364   */\n      mul\n        /* \"#utility.yul\":32322:32373   */\n      tag_265\n      jump\t// in\n    tag_563:\n        /* \"#utility.yul\":32318:32374   */\n      not\n        /* \"#utility.yul\":32403:32407   */\n      dup1\n        /* \"#utility.yul\":32397:32401   */\n      dup4\n        /* \"#utility.yul\":32393:32408   */\n      and\n        /* \"#utility.yul\":32383:32408   */\n      swap2\n      pop\n        /* \"#utility.yul\":32296:32414   */\n      pop\n        /* \"#utility.yul\":32245:32414   */\n      swap3\n      swap2\n      pop\n      pop\n      jump\t// out\n        /* \"#utility.yul\":32419:32714   */\n    tag_267:\n        /* \"#utility.yul\":32495:32499   */\n      0x00\n        /* \"#utility.yul\":32641:32670   */\n      tag_565\n        /* \"#utility.yul\":32666:32669   */\n      dup4\n        /* \"#utility.yul\":32660:32664   */\n      dup4\n        /* \"#utility.yul\":32641:32670   */\n      tag_266\n      jump\t// in\n    tag_565:\n        /* \"#utility.yul\":32633:32670   */\n      swap2\n      pop\n        /* \"#utility.yul\":32703:32706   */\n      dup3\n        /* \"#utility.yul\":32700:32701   */\n      0x02\n        /* \"#utility.yul\":32696:32707   */\n      mul\n        /* \"#utility.yul\":32690:32694   */\n      dup3\n        /* \"#utility.yul\":32687:32708   */\n      or\n        /* \"#utility.yul\":32679:32708   */\n      swap1\n      pop\n        /* \"#utility.yul\":32419:32714   */\n      swap3\n      swap2\n      pop\n      pop\n      jump\t// out\n        /* \"#utility.yul\":32719:34114   */\n    tag_177:\n        /* \"#utility.yul\":32836:32873   */\n      tag_567\n        /* \"#utility.yul\":32869:32872   */\n      dup3\n        /* \"#utility.yul\":32836:32873   */\n      tag_192\n      jump\t// in\n    tag_567:\n        /* \"#utility.yul\":32938:32956   */\n      0xffffffffffffffff\n        /* \"#utility.yul\":32930:32936   */\n      dup2\n        /* \"#utility.yul\":32927:32957   */\n      gt\n        /* \"#utility.yul\":32924:32980   */\n      iszero\n      tag_568\n      jumpi\n        /* \"#utility.yul\":32960:32978   */\n      tag_569\n      tag_205\n      jump\t// in\n    tag_569:\n        /* \"#utility.yul\":32924:32980   */\n    tag_568:\n        /* \"#utility.yul\":33004:33042   */\n      tag_570\n        /* \"#utility.yul\":33036:33040   */\n      dup3\n        /* \"#utility.yul\":33030:33041   */\n      sload\n        /* \"#utility.yul\":33004:33042   */\n      tag_58\n      jump\t// in\n    tag_570:\n        /* \"#utility.yul\":33089:33156   */\n      tag_571\n        /* \"#utility.yul\":33149:33155   */\n      dup3\n        /* \"#utility.yul\":33141:33147   */\n      dup3\n        /* \"#utility.yul\":33135:33139   */\n      dup6\n        /* \"#utility.yul\":33089:33156   */\n      tag_264\n      jump\t// in\n    tag_571:\n        /* \"#utility.yul\":33183:33184   */\n      0x00\n        /* \"#utility.yul\":33207:33211   */\n      0x20\n        /* \"#utility.yul\":33194:33211   */\n      swap1\n      pop\n        /* \"#utility.yul\":33239:33241   */\n      0x1f\n        /* \"#utility.yul\":33231:33237   */\n      dup4\n        /* \"#utility.yul\":33228:33242   */\n      gt\n        /* \"#utility.yul\":33256:33257   */\n      0x01\n        /* \"#utility.yul\":33251:33869   */\n      dup2\n      eq\n      tag_573\n      jumpi\n        /* \"#utility.yul\":33913:33914   */\n      0x00\n        /* \"#utility.yul\":33930:33936   */\n      dup5\n        /* \"#utility.yul\":33927:34004   */\n      iszero\n      tag_574\n      jumpi\n        /* \"#utility.yul\":33979:33988   */\n      dup3\n        /* \"#utility.yul\":33974:33977   */\n      dup8\n        /* \"#utility.yul\":33970:33989   */\n      add\n        /* \"#utility.yul\":33964:33990   */\n      mload\n        /* \"#utility.yul\":33955:33990   */\n      swap1\n      pop\n        /* \"#utility.yul\":33927:34004   */\n    tag_574:\n        /* \"#utility.yul\":34030:34097   */\n      tag_575\n        /* \"#utility.yul\":34090:34096   */\n      dup6\n        /* \"#utility.yul\":34083:34088   */\n      dup3\n        /* \"#utility.yul\":34030:34097   */\n      tag_267\n      jump\t// in\n    tag_575:\n        /* \"#utility.yul\":34024:34028   */\n      dup7\n        /* \"#utility.yul\":34017:34098   */\n      sstore\n        /* \"#utility.yul\":33886:34108   */\n      pop\n        /* \"#utility.yul\":33221:34108   */\n      jump(tag_572)\n        /* \"#utility.yul\":33251:33869   */\n    tag_573:\n        /* \"#utility.yul\":33303:33307   */\n      0x1f\n        /* \"#utility.yul\":33299:33308   */\n      not\n        /* \"#utility.yul\":33291:33297   */\n      dup5\n        /* \"#utility.yul\":33287:33309   */\n      and\n        /* \"#utility.yul\":33337:33374   */\n      tag_576\n        /* \"#utility.yul\":33369:33373   */\n      dup7\n        /* \"#utility.yul\":33337:33374   */\n      tag_225\n      jump\t// in\n    tag_576:\n        /* \"#utility.yul\":33396:33397   */\n      0x00\n        /* \"#utility.yul\":33410:33618   */\n    tag_577:\n        /* \"#utility.yul\":33424:33431   */\n      dup3\n        /* \"#utility.yul\":33421:33422   */\n      dup2\n        /* \"#utility.yul\":33418:33432   */\n      lt\n        /* \"#utility.yul\":33410:33618   */\n      iszero\n      tag_579\n      jumpi\n        /* \"#utility.yul\":33503:33512   */\n      dup5\n        /* \"#utility.yul\":33498:33501   */\n      dup10\n        /* \"#utility.yul\":33494:33513   */\n      add\n        /* \"#utility.yul\":33488:33514   */\n      mload\n        /* \"#utility.yul\":33480:33486   */\n      dup3\n        /* \"#utility.yul\":33473:33515   */\n      sstore\n        /* \"#utility.yul\":33554:33555   */\n      0x01\n        /* \"#utility.yul\":33546:33552   */\n      dup3\n        /* \"#utility.yul\":33542:33556   */\n      add\n        /* \"#utility.yul\":33532:33556   */\n      swap2\n      pop\n        /* \"#utility.yul\":33601:33603   */\n      0x20\n        /* \"#utility.yul\":33590:33599   */\n      dup6\n        /* \"#utility.yul\":33586:33604   */\n      add\n        /* \"#utility.yul\":33573:33604   */\n      swap5\n      pop\n        /* \"#utility.yul\":33447:33451   */\n      0x20\n        /* \"#utility.yul\":33444:33445   */\n      dup2\n        /* \"#utility.yul\":33440:33452   */\n      add\n        /* \"#utility.yul\":33435:33452   */\n      swap1\n      pop\n        /* \"#utility.yul\":33410:33618   */\n      jump(tag_577)\n    tag_579:\n        /* \"#utility.yul\":33646:33652   */\n      dup7\n        /* \"#utility.yul\":33637:33644   */\n      dup4\n        /* \"#utility.yul\":33634:33653   */\n      lt\n        /* \"#utility.yul\":33631:33810   */\n      iszero\n      tag_580\n      jumpi\n        /* \"#utility.yul\":33704:33713   */\n      dup5\n        /* \"#utility.yul\":33699:33702   */\n      dup10\n        /* \"#utility.yul\":33695:33714   */\n      add\n        /* \"#utility.yul\":33689:33715   */\n      mload\n        /* \"#utility.yul\":33747:33795   */\n      tag_581\n        /* \"#utility.yul\":33789:33793   */\n      0x1f\n        /* \"#utility.yul\":33781:33787   */\n      dup10\n        /* \"#utility.yul\":33777:33794   */\n      and\n        /* \"#utility.yul\":33766:33775   */\n      dup3\n        /* \"#utility.yul\":33747:33795   */\n      tag_266\n      jump\t// in\n    tag_581:\n        /* \"#utility.yul\":33739:33745   */\n      dup4\n        /* \"#utility.yul\":33732:33796   */\n      sstore\n        /* \"#utility.yul\":33654:33810   */\n      pop\n        /* \"#utility.yul\":33631:33810   */\n    tag_580:\n        /* \"#utility.yul\":33856:33857   */\n      0x01\n        /* \"#utility.yul\":33852:33853   */\n      0x02\n        /* \"#utility.yul\":33844:33850   */\n      dup9\n        /* \"#utility.yul\":33840:33854   */\n      mul\n        /* \"#utility.yul\":33836:33858   */\n      add\n        /* \"#utility.yul\":33830:33834   */\n      dup9\n        /* \"#utility.yul\":33823:33859   */\n      sstore\n        /* \"#utility.yul\":33258:33869   */\n      pop\n      pop\n      pop\n        /* \"#utility.yul\":33221:34108   */\n    tag_572:\n      pop\n        /* \"#utility.yul\":32811:34114   */\n      pop\n      pop\n      pop\n        /* \"#utility.yul\":32719:34114   */\n      pop\n      pop\n      jump\t// out\n        /* \"#utility.yul\":34120:34764   */\n    tag_180:\n        /* \"#utility.yul\":34317:34321   */\n      0x00\n        /* \"#utility.yul\":34355:34358   */\n      0x80\n        /* \"#utility.yul\":34344:34353   */\n      dup3\n        /* \"#utility.yul\":34340:34359   */\n      add\n        /* \"#utility.yul\":34332:34359   */\n      swap1\n      pop\n        /* \"#utility.yul\":34369:34440   */\n      tag_583\n        /* \"#utility.yul\":34437:34438   */\n      0x00\n        /* \"#utility.yul\":34426:34435   */\n      dup4\n        /* \"#utility.yul\":34422:34439   */\n      add\n        /* \"#utility.yul\":34413:34419   */\n      dup8\n        /* \"#utility.yul\":34369:34440   */\n      tag_191\n      jump\t// in\n    tag_583:\n        /* \"#utility.yul\":34450:34522   */\n      tag_584\n        /* \"#utility.yul\":34518:34520   */\n      0x20\n        /* \"#utility.yul\":34507:34516   */\n      dup4\n        /* \"#utility.yul\":34503:34521   */\n      add\n        /* \"#utility.yul\":34494:34500   */\n      dup7\n        /* \"#utility.yul\":34450:34522   */\n      tag_197\n      jump\t// in\n    tag_584:\n        /* \"#utility.yul\":34569:34578   */\n      dup2\n        /* \"#utility.yul\":34563:34567   */\n      dup2\n        /* \"#utility.yul\":34559:34579   */\n      sub\n        /* \"#utility.yul\":34554:34556   */\n      0x40\n        /* \"#utility.yul\":34543:34552   */\n      dup4\n        /* \"#utility.yul\":34539:34557   */\n      add\n        /* \"#utility.yul\":34532:34580   */\n      mstore\n        /* \"#utility.yul\":34597:34675   */\n      tag_585\n        /* \"#utility.yul\":34670:34674   */\n      dup2\n        /* \"#utility.yul\":34661:34667   */\n      dup6\n        /* \"#utility.yul\":34597:34675   */\n      tag_196\n      jump\t// in\n    tag_585:\n        /* \"#utility.yul\":34589:34675   */\n      swap1\n      pop\n        /* \"#utility.yul\":34685:34757   */\n      tag_586\n        /* \"#utility.yul\":34753:34755   */\n      0x60\n        /* \"#utility.yul\":34742:34751   */\n      dup4\n        /* \"#utility.yul\":34738:34756   */\n      add\n        /* \"#utility.yul\":34729:34735   */\n      dup5\n        /* \"#utility.yul\":34685:34757   */\n      tag_191\n      jump\t// in\n    tag_586:\n        /* \"#utility.yul\":34120:34764   */\n      swap6\n      swap5\n      pop\n      pop\n      pop\n      pop\n      pop\n      jump\t// out\n\n    auxdata: 0xa2646970667358221220019067a5fe598639cc2cefc5552f5c06269aed1d16b44cbd93573f72fd8e0d2764736f6c634300081a0033\n}\n",
				"bytecode": {
					"linkReferences": {},
					"object": "6080604052348015600e575f80fd5b50335f806101000a81548173ffffffffffffffffffffffffffffffffffffffff021916908373ffffffffffffffffffffffffffffffffffffffff1602179055506124158061005b5f395ff3fe60806040526004361061006f575f3560e01c8063744bfe611161004d578063744bfe61146100f9578063be21739e14610115578063cc1943f014610151578063ffa56a57146101795761006f565b806302091f1c1461007357806311555dbc1461009b5780635a3915cd146100dd575b5f80fd5b34801561007e575f80fd5b5061009960048036038101906100949190611309565b6101a1565b005b3480156100a6575f80fd5b506100c160048036038101906100bc9190611309565b6102e0565b6040516100d497969594939291906113ef565b60405180910390f35b6100f760048036038101906100f291906114a5565b61046f565b005b610113600480360381019061010e91906114f5565b610969565b005b348015610120575f80fd5b5061013b60048036038101906101369190611533565b610e57565b6040516101489190611571565b60405180910390f35b34801561015c575f80fd5b5061017760048036038101906101729190611309565b610e81565b005b348015610184575f80fd5b5061019f600480360381019061019a91906116b6565b610ecc565b005b8060035f3373ffffffffffffffffffffffffffffffffffffffff1673ffffffffffffffffffffffffffffffffffffffff1681526020019081526020015f206001836101ec919061176b565b815481106101fd576101fc61179e565b5b905f5260205f2090600702015f01541461024c576040517f08c379a00000000000000000000000000000000000000000000000000000000081526004016102439061183b565b60405180910390fd5b600160045f3373ffffffffffffffffffffffffffffffffffffffff1673ffffffffffffffffffffffffffffffffffffffff1681526020019081526020015f205f8473ffffffffffffffffffffffffffffffffffffffff1673ffffffffffffffffffffffffffffffffffffffff1681526020019081526020015f205f6101000a81548160ff0219169083151502179055505050565b6003602052815f5260405f2081815481106102f9575f80fd5b905f5260205f2090600702015f9150915050805f01549080600101805461031f90611886565b80601f016020809104026020016040519081016040528092919081815260200182805461034b90611886565b80156103965780601f1061036d57610100808354040283529160200191610396565b820191905f5260205f20905b81548152906001019060200180831161037957829003601f168201915b5050505050908060020180546103ab90611886565b80601f01602080910402602001604051908101604052809291908181526020018280546103d790611886565b80156104225780601f106103f957610100808354040283529160200191610422565b820191905f5260205f20905b81548152906001019060200180831161040557829003601f168201915b505050505090806003015f9054906101000a900473ffffffffffffffffffffffffffffffffffffffff1690806004015490806005015490806006015f9054906101000a900460ff16905087565b8160035f8573ffffffffffffffffffffffffffffffffffffffff1673ffffffffffffffffffffffffffffffffffffffff1681526020019081526020015f206001846104ba919061176b565b815481106104cb576104ca61179e565b5b905f5260205f2090600702015f015414826040516020016104ec9190611974565b6040516020818303038152906040529061053c576040517f08c379a000000000000000000000000000000000000000000000000000000000815260040161053391906119a4565b60405180910390fd5b505f151560035f8573ffffffffffffffffffffffffffffffffffffffff1673ffffffffffffffffffffffffffffffffffffffff1681526020019081526020015f2060018461058a919061176b565b8154811061059b5761059a61179e565b5b905f5260205f2090600702016006015f9054906101000a900460ff1615151460035f8573ffffffffffffffffffffffffffffffffffffffff1673ffffffffffffffffffffffffffffffffffffffff1681526020019081526020015f20600184610604919061176b565b815481106106155761061461179e565b5b905f5260205f2090600702016001016040516020016106349190611aea565b60405160208183030381529060405290610684576040517f08c379a000000000000000000000000000000000000000000000000000000000815260040161067b91906119a4565b60405180910390fd5b505f81116106c7576040517f08c379a00000000000000000000000000000000000000000000000000000000081526004016106be90611b60565b60405180910390fd5b803414610709576040517f08c379a000000000000000000000000000000000000000000000000000000000815260040161070090611bc8565b60405180910390fd5b8060035f8573ffffffffffffffffffffffffffffffffffffffff1673ffffffffffffffffffffffffffffffffffffffff1681526020019081526020015f20600184610754919061176b565b815481106107655761076461179e565b5b905f5260205f2090600702016005015f8282546107829190611be6565b925050819055508273ffffffffffffffffffffffffffffffffffffffff166108fc8290811502906040515f60405180830381858888f193505050501580156107cc573d5f803e3d5ffd5b5060035f8473ffffffffffffffffffffffffffffffffffffffff1673ffffffffffffffffffffffffffffffffffffffff1681526020019081526020015f20600183610817919061176b565b815481106108285761082761179e565b5b905f5260205f2090600702016004015460035f8573ffffffffffffffffffffffffffffffffffffffff1673ffffffffffffffffffffffffffffffffffffffff1681526020019081526020015f20600184610882919061176b565b815481106108935761089261179e565b5b905f5260205f209060070201600501541061092b57600160035f8573ffffffffffffffffffffffffffffffffffffffff1673ffffffffffffffffffffffffffffffffffffffff1681526020019081526020015f206001846108f4919061176b565b815481106109055761090461179e565b5b905f5260205f2090600702016006015f6101000a81548160ff0219169083151502179055505b7f264f630d9efa0d07053a31163641d9fcc0adafc9d9e76f1c37c2ce3a558d2c52338260405161095c929190611c19565b60405180910390a1505050565b60025f9054906101000a900473ffffffffffffffffffffffffffffffffffffffff166001545f60035f8473ffffffffffffffffffffffffffffffffffffffff1673ffffffffffffffffffffffffffffffffffffffff1681526020019081526020015f208054905011610a10576040517f08c379a0000000000000000000000000000000000000000000000000000000008152600401610a0790611cb0565b60405180910390fd5b8060035f8473ffffffffffffffffffffffffffffffffffffffff1673ffffffffffffffffffffffffffffffffffffffff1681526020019081526020015f20600183610a5b919061176b565b81548110610a6c57610a6b61179e565b5b905f5260205f2090600702015f015414610abb576040517f08c379a0000000000000000000000000000000000000000000000000000000008152600401610ab290611d3e565b60405180910390fd5b60045f8373ffffffffffffffffffffffffffffffffffffffff1673ffffffffffffffffffffffffffffffffffffffff1681526020019081526020015f205f3373ffffffffffffffffffffffffffffffffffffffff1673ffffffffffffffffffffffffffffffffffffffff1681526020019081526020015f205f9054906101000a900460ff16610b7f576040517f08c379a0000000000000000000000000000000000000000000000000000000008152600401610b7690611dcc565b60405180910390fd5b5f84118015610c19575060035f60025f9054906101000a900473ffffffffffffffffffffffffffffffffffffffff1673ffffffffffffffffffffffffffffffffffffffff1673ffffffffffffffffffffffffffffffffffffffff1681526020019081526020015f2060018054610bf5919061176b565b81548110610c0657610c0561179e565b5b905f5260205f2090600702016005015484105b610c58576040517f08c379a0000000000000000000000000000000000000000000000000000000008152600401610c4f90611e5a565b60405180910390fd5b60035f60025f9054906101000a900473ffffffffffffffffffffffffffffffffffffffff1673ffffffffffffffffffffffffffffffffffffffff1673ffffffffffffffffffffffffffffffffffffffff1681526020019081526020015f2060018054610cc4919061176b565b81548110610cd557610cd461179e565b5b905f5260205f2090600702016006015f9054906101000a900460ff16610d30576040517f08c379a0000000000000000000000000000000000000000000000000000000008152600401610d2790611ee8565b60405180910390fd5b8360035f60025f9054906101000a900473ffffffffffffffffffffffffffffffffffffffff1673ffffffffffffffffffffffffffffffffffffffff1673ffffffffffffffffffffffffffffffffffffffff1681526020019081526020015f2060018054610d9d919061176b565b81548110610dae57610dad61179e565b5b905f5260205f2090600702016005015f828254610dcb919061176b565b925050819055508273ffffffffffffffffffffffffffffffffffffffff166108fc8590811502906040515f60405180830381858888f19350505050158015610e15573d5f803e3d5ffd5b507ff425cd5639e3fa6b1a9cd7a21fd84e191ea0768c7090eb1a1af5ae2d13ca0950843385604051610e4993929190611f61565b60405180910390a150505050565b6004602052815f5260405f20602052805f5260405f205f915091509054906101000a900460ff1681565b8160025f6101000a81548173ffffffffffffffffffffffffffffffffffffffff021916908373ffffffffffffffffffffffffffffffffffffffff160217905550806001819055505050565b5f5b60035f3373ffffffffffffffffffffffffffffffffffffffff1673ffffffffffffffffffffffffffffffffffffffff1681526020019081526020015f208054905081101561103a575f60035f3373ffffffffffffffffffffffffffffffffffffffff1673ffffffffffffffffffffffffffffffffffffffff1681526020019081526020015f208281548110610f6657610f6561179e565b5b905f5260205f20906007020160010190505f85604051602001610f899190611fc6565b6040516020818303038152906040528051906020012082604051602001610fb0919061206e565b60405160208183030381529060405280519060200120149050801561102b5785604051602001610fe09190612118565b6040516020818303038152906040526040517f08c379a000000000000000000000000000000000000000000000000000000000815260040161102291906119a4565b60405180910390fd5b50508080600101915050610ece565b505f6040518060e00160405280600160035f3373ffffffffffffffffffffffffffffffffffffffff1673ffffffffffffffffffffffffffffffffffffffff1681526020019081526020015f20805490506110949190611be6565b81526020018581526020018481526020013373ffffffffffffffffffffffffffffffffffffffff1681526020018381526020015f81526020015f1515815250905060035f3373ffffffffffffffffffffffffffffffffffffffff1673ffffffffffffffffffffffffffffffffffffffff1681526020019081526020015f2081908060018154018082558091505060019003905f5260205f2090600702015f909190919091505f820151815f0155602082015181600101908161115691906122c6565b50604082015181600201908161116c91906122c6565b506060820151816003015f6101000a81548173ffffffffffffffffffffffffffffffffffffffff021916908373ffffffffffffffffffffffffffffffffffffffff1602179055506080820151816004015560a0820151816005015560c0820151816006015f6101000a81548160ff02191690831515021790555050507f825fb10f7650ed27414d6f86acdf7d5946927d9b25001f045f1a2435deec02fe60035f3373ffffffffffffffffffffffffffffffffffffffff1673ffffffffffffffffffffffffffffffffffffffff1681526020019081526020015f208054905033868560405161125d9493929190612395565b60405180910390a150505050565b5f604051905090565b5f80fd5b5f80fd5b5f73ffffffffffffffffffffffffffffffffffffffff82169050919050565b5f6112a58261127c565b9050919050565b6112b58161129b565b81146112bf575f80fd5b50565b5f813590506112d0816112ac565b92915050565b5f819050919050565b6112e8816112d6565b81146112f2575f80fd5b50565b5f81359050611303816112df565b92915050565b5f806040838503121561131f5761131e611274565b5b5f61132c858286016112c2565b925050602061133d858286016112f5565b9150509250929050565b611350816112d6565b82525050565b5f81519050919050565b5f82825260208201905092915050565b8281835e5f83830152505050565b5f601f19601f8301169050919050565b5f61139882611356565b6113a28185611360565b93506113b2818560208601611370565b6113bb8161137e565b840191505092915050565b6113cf8161129b565b82525050565b5f8115159050919050565b6113e9816113d5565b82525050565b5f60e0820190506114025f83018a611347565b8181036020830152611414818961138e565b90508181036040830152611428818861138e565b905061143760608301876113c6565b6114446080830186611347565b61145160a0830185611347565b61145e60c08301846113e0565b98975050505050505050565b5f6114748261127c565b9050919050565b6114848161146a565b811461148e575f80fd5b50565b5f8135905061149f8161147b565b92915050565b5f805f606084860312156114bc576114bb611274565b5b5f6114c986828701611491565b93505060206114da868287016112f5565b92505060406114eb868287016112f5565b9150509250925092565b5f806040838503121561150b5761150a611274565b5b5f611518858286016112f5565b925050602061152985828601611491565b9150509250929050565b5f806040838503121561154957611548611274565b5b5f611556858286016112c2565b9250506020611567858286016112c2565b9150509250929050565b5f6020820190506115845f8301846113e0565b92915050565b5f80fd5b5f80fd5b7f4e487b71000000000000000000000000000000000000000000000000000000005f52604160045260245ffd5b6115c88261137e565b810181811067ffffffffffffffff821117156115e7576115e6611592565b5b80604052505050565b5f6115f961126b565b905061160582826115bf565b919050565b5f67ffffffffffffffff82111561162457611623611592565b5b61162d8261137e565b9050602081019050919050565b828183375f83830152505050565b5f61165a6116558461160a565b6115f0565b9050828152602081018484840111156116765761167561158e565b5b61168184828561163a565b509392505050565b5f82601f83011261169d5761169c61158a565b5b81356116ad848260208601611648565b91505092915050565b5f805f606084860312156116cd576116cc611274565b5b5f84013567ffffffffffffffff8111156116ea576116e9611278565b5b6116f686828701611689565b935050602084013567ffffffffffffffff81111561171757611716611278565b5b61172386828701611689565b9250506040611734868287016112f5565b9150509250925092565b7f4e487b71000000000000000000000000000000000000000000000000000000005f52601160045260245ffd5b5f611775826112d6565b9150611780836112d6565b92508282039050818111156117985761179761173e565b5b92915050565b7f4e487b71000000000000000000000000000000000000000000000000000000005f52603260045260245ffd5b7f5468652043616d706169676e65642053706563696669656420446f6573204e6f5f8201527f7420457869737421000000000000000000000000000000000000000000000000602082015250565b5f611825602883611360565b9150611830826117cb565b604082019050919050565b5f6020820190508181035f83015261185281611819565b9050919050565b7f4e487b71000000000000000000000000000000000000000000000000000000005f52602260045260245ffd5b5f600282049050600182168061189d57607f821691505b6020821081036118b0576118af611859565b5b50919050565b5f81905092915050565b7f5468652043616d706169676e20000000000000000000000000000000000000005f82015250565b5f6118f4600d836118b6565b91506118ff826118c0565b600d82019050919050565b5f819050919050565b61192461191f826112d6565b61190a565b82525050565b7f20446f6573204e4f5420457869737421000000000000000000000000000000005f82015250565b5f61195e6010836118b6565b91506119698261192a565b601082019050919050565b5f61197e826118e8565b915061198a8284611913565b60208201915061199982611952565b915081905092915050565b5f6020820190508181035f8301526119bc818461138e565b905092915050565b7f27000000000000000000000000000000000000000000000000000000000000005f82015250565b5f6119f86001836118b6565b9150611a03826119c4565b600182019050919050565b5f819050815f5260205f209050919050565b5f8154611a2c81611886565b611a3681866118b6565b9450600182165f8114611a505760018114611a6557611a97565b60ff1983168652811515820286019350611a97565b611a6e85611a0e565b5f5b83811015611a8f57815481890152600182019150602081019050611a70565b838801955050505b50505092915050565b7f272043616d706169676e2057617320436f6d706c6574656421000000000000005f82015250565b5f611ad46019836118b6565b9150611adf82611aa0565b601982019050919050565b5f611af4826119ec565b9150611b008284611a20565b9150611b0b82611ac8565b915081905092915050565b7f416d6f756e742043616e6e6f74206265205a65726f00000000000000000000005f82015250565b5f611b4a601583611360565b9150611b5582611b16565b602082019050919050565b5f6020820190508181035f830152611b7781611b3e565b9050919050565b7f54686520416d6f756e7420646f65736e2774204d6174636821000000000000005f82015250565b5f611bb2601983611360565b9150611bbd82611b7e565b602082019050919050565b5f6020820190508181035f830152611bdf81611ba6565b9050919050565b5f611bf0826112d6565b9150611bfb836112d6565b9250828201905080821115611c1357611c1261173e565b5b92915050565b5f604082019050611c2c5f8301856113c6565b611c396020830184611347565b9392505050565b7f5468657265204973204e6f2043616d706169676e2042792054686174206164645f8201527f7265737321000000000000000000000000000000000000000000000000000000602082015250565b5f611c9a602583611360565b9150611ca582611c40565b604082019050919050565b5f6020820190508181035f830152611cc781611c8e565b9050919050565b7f5468652043616d706169676e2053706563696669656420446f6573204e6f74205f8201527f4578697374210000000000000000000000000000000000000000000000000000602082015250565b5f611d28602683611360565b9150611d3382611cce565b604082019050919050565b5f6020820190508181035f830152611d5581611d1c565b9050919050565b7f4f6e6c792041646d696e732043616e20506572666f726d2054686973204163745f8201527f696f6e2100000000000000000000000000000000000000000000000000000000602082015250565b5f611db6602483611360565b9150611dc182611d5c565b604082019050919050565b5f6020820190508181035f830152611de381611daa565b9050919050565b7f416d6f756e742043616e6e6f74206265205a65726f204f7220457863656464205f8201527f5468652052616973656420416d6f756e74210000000000000000000000000000602082015250565b5f611e44603283611360565b9150611e4f82611dea565b604082019050919050565b5f6020820190508181035f830152611e7181611e38565b9050919050565b7f596f752043616e27742057697468647261772046756e64732066726f6d20616e5f8201527f204163746976652043616d706169676e00000000000000000000000000000000602082015250565b5f611ed2603083611360565b9150611edd82611e78565b604082019050919050565b5f6020820190508181035f830152611eff81611ec6565b9050919050565b5f819050919050565b5f611f29611f24611f1f8461127c565b611f06565b61127c565b9050919050565b5f611f3a82611f0f565b9050919050565b5f611f4b82611f30565b9050919050565b611f5b81611f41565b82525050565b5f606082019050611f745f830186611347565b611f8160208301856113c6565b611f8e6040830184611f52565b949350505050565b5f611fa082611356565b611faa81856118b6565b9350611fba818560208601611370565b80840191505092915050565b5f611fd18284611f96565b915081905092915050565b5f819050815f5260205f209050919050565b5f8154611ffa81611886565b61200481866118b6565b9450600182165f811461201e576001811461203357612065565b60ff1983168652811515820286019350612065565b61203c85611fdc565b5f5b8381101561205d5781548189015260018201915060208101905061203e565b838801955050505b50505092915050565b5f6120798284611fee565b915081905092915050565b7f43616d706169676e2000000000000000000000000000000000000000000000005f82015250565b5f6120b86009836118b6565b91506120c382612084565b600982019050919050565b7f20616c72656164792065786973747321000000000000000000000000000000005f82015250565b5f6121026010836118b6565b915061210d826120ce565b601082019050919050565b5f612122826120ac565b915061212e8284611f96565b9150612139826120f6565b915081905092915050565b5f6020601f8301049050919050565b5f82821b905092915050565b5f6008830261218e7fffffffffffffffffffffffffffffffffffffffffffffffffffffffffffffffff82612153565b6121988683612153565b95508019841693508086168417925050509392505050565b5f6121ca6121c56121c0846112d6565b611f06565b6112d6565b9050919050565b5f819050919050565b6121e3836121b0565b6121f76121ef826121d1565b84845461215f565b825550505050565b5f90565b61220b6121ff565b6122168184846121da565b505050565b5b818110156122395761222e5f82612203565b60018101905061221c565b5050565b601f82111561227e5761224f81611a0e565b61225884612144565b81016020851015612267578190505b61227b61227385612144565b83018261221b565b50505b505050565b5f82821c905092915050565b5f61229e5f1984600802612283565b1980831691505092915050565b5f6122b6838361228f565b9150826002028217905092915050565b6122cf82611356565b67ffffffffffffffff8111156122e8576122e7611592565b5b6122f28254611886565b6122fd82828561223d565b5f60209050601f83116001811461232e575f841561231c578287015190505b61232685826122ab565b86555061238d565b601f19841661233c86611a0e565b5f5b828110156123635784890151825560018201915060208501945060208101905061233e565b86831015612380578489015161237c601f89168261228f565b8355505b6001600288020188555050505b505050505050565b5f6080820190506123a85f830187611347565b6123b560208301866113c6565b81810360408301526123c7818561138e565b90506123d66060830184611347565b9594505050505056fea2646970667358221220019067a5fe598639cc2cefc5552f5c06269aed1d16b44cbd93573f72fd8e0d2764736f6c634300081a0033",
					"opcodes": "PUSH1 0x80 PUSH1 0x40 MSTORE CALLVALUE DUP1 ISZERO PUSH1 0xE JUMPI PUSH0 DUP1 REVERT JUMPDEST POP CALLER PUSH0 DUP1 PUSH2 0x100 EXP DUP2 SLOAD DUP2 PUSH20 0xFFFFFFFFFFFFFFFFFFFFFFFFFFFFFFFFFFFFFFFF MUL NOT AND SWAP1 DUP4 PUSH20 0xFFFFFFFFFFFFFFFFFFFFFFFFFFFFFFFFFFFFFFFF AND MUL OR SWAP1 SSTORE POP PUSH2 0x2415 DUP1 PUSH2 0x5B PUSH0 CODECOPY PUSH0 RETURN INVALID PUSH1 0x80 PUSH1 0x40 MSTORE PUSH1 0x4 CALLDATASIZE LT PUSH2 0x6F JUMPI PUSH0 CALLDATALOAD PUSH1 0xE0 SHR DUP1 PUSH4 0x744BFE61 GT PUSH2 0x4D JUMPI DUP1 PUSH4 0x744BFE61 EQ PUSH2 0xF9 JUMPI DUP1 PUSH4 0xBE21739E EQ PUSH2 0x115 JUMPI DUP1 PUSH4 0xCC1943F0 EQ PUSH2 0x151 JUMPI DUP1 PUSH4 0xFFA56A57 EQ PUSH2 0x179 JUMPI PUSH2 0x6F JUMP JUMPDEST DUP1 PUSH4 0x2091F1C EQ PUSH2 0x73 JUMPI DUP1 PUSH4 0x11555DBC EQ PUSH2 0x9B JUMPI DUP1 PUSH4 0x5A3915CD EQ PUSH2 0xDD JUMPI JUMPDEST PUSH0 DUP1 REVERT JUMPDEST CALLVALUE DUP1 ISZERO PUSH2 0x7E JUMPI PUSH0 DUP1 REVERT JUMPDEST POP PUSH2 0x99 PUSH1 0x4 DUP1 CALLDATASIZE SUB DUP2 ADD SWAP1 PUSH2 0x94 SWAP2 SWAP1 PUSH2 0x1309 JUMP JUMPDEST PUSH2 0x1A1 JUMP JUMPDEST STOP JUMPDEST CALLVALUE DUP1 ISZERO PUSH2 0xA6 JUMPI PUSH0 DUP1 REVERT JUMPDEST POP PUSH2 0xC1 PUSH1 0x4 DUP1 CALLDATASIZE SUB DUP2 ADD SWAP1 PUSH2 0xBC SWAP2 SWAP1 PUSH2 0x1309 JUMP JUMPDEST PUSH2 0x2E0 JUMP JUMPDEST PUSH1 0x40 MLOAD PUSH2 0xD4 SWAP8 SWAP7 SWAP6 SWAP5 SWAP4 SWAP3 SWAP2 SWAP1 PUSH2 0x13EF JUMP JUMPDEST PUSH1 0x40 MLOAD DUP1 SWAP2 SUB SWAP1 RETURN JUMPDEST PUSH2 0xF7 PUSH1 0x4 DUP1 CALLDATASIZE SUB DUP2 ADD SWAP1 PUSH2 0xF2 SWAP2 SWAP1 PUSH2 0x14A5 JUMP JUMPDEST PUSH2 0x46F JUMP JUMPDEST STOP JUMPDEST PUSH2 0x113 PUSH1 0x4 DUP1 CALLDATASIZE SUB DUP2 ADD SWAP1 PUSH2 0x10E SWAP2 SWAP1 PUSH2 0x14F5 JUMP JUMPDEST PUSH2 0x969 JUMP JUMPDEST STOP JUMPDEST CALLVALUE DUP1 ISZERO PUSH2 0x120 JUMPI PUSH0 DUP1 REVERT JUMPDEST POP PUSH2 0x13B PUSH1 0x4 DUP1 CALLDATASIZE SUB DUP2 ADD SWAP1 PUSH2 0x136 SWAP2 SWAP1 PUSH2 0x1533 JUMP JUMPDEST PUSH2 0xE57 JUMP JUMPDEST PUSH1 0x40 MLOAD PUSH2 0x148 SWAP2 SWAP1 PUSH2 0x1571 JUMP JUMPDEST PUSH1 0x40 MLOAD DUP1 SWAP2 SUB SWAP1 RETURN JUMPDEST CALLVALUE DUP1 ISZERO PUSH2 0x15C JUMPI PUSH0 DUP1 REVERT JUMPDEST POP PUSH2 0x177 PUSH1 0x4 DUP1 CALLDATASIZE SUB DUP2 ADD SWAP1 PUSH2 0x172 SWAP2 SWAP1 PUSH2 0x1309 JUMP JUMPDEST PUSH2 0xE81 JUMP JUMPDEST STOP JUMPDEST CALLVALUE DUP1 ISZERO PUSH2 0x184 JUMPI PUSH0 DUP1 REVERT JUMPDEST POP PUSH2 0x19F PUSH1 0x4 DUP1 CALLDATASIZE SUB DUP2 ADD SWAP1 PUSH2 0x19A SWAP2 SWAP1 PUSH2 0x16B6 JUMP JUMPDEST PUSH2 0xECC JUMP JUMPDEST STOP JUMPDEST DUP1 PUSH1 0x3 PUSH0 CALLER PUSH20 0xFFFFFFFFFFFFFFFFFFFFFFFFFFFFFFFFFFFFFFFF AND PUSH20 0xFFFFFFFFFFFFFFFFFFFFFFFFFFFFFFFFFFFFFFFF AND DUP2 MSTORE PUSH1 0x20 ADD SWAP1 DUP2 MSTORE PUSH1 0x20 ADD PUSH0 KECCAK256 PUSH1 0x1 DUP4 PUSH2 0x1EC SWAP2 SWAP1 PUSH2 0x176B JUMP JUMPDEST DUP2 SLOAD DUP2 LT PUSH2 0x1FD JUMPI PUSH2 0x1FC PUSH2 0x179E JUMP JUMPDEST JUMPDEST SWAP1 PUSH0 MSTORE PUSH1 0x20 PUSH0 KECCAK256 SWAP1 PUSH1 0x7 MUL ADD PUSH0 ADD SLOAD EQ PUSH2 0x24C JUMPI PUSH1 0x40 MLOAD PUSH32 0x8C379A000000000000000000000000000000000000000000000000000000000 DUP2 MSTORE PUSH1 0x4 ADD PUSH2 0x243 SWAP1 PUSH2 0x183B JUMP JUMPDEST PUSH1 0x40 MLOAD DUP1 SWAP2 SUB SWAP1 REVERT JUMPDEST PUSH1 0x1 PUSH1 0x4 PUSH0 CALLER PUSH20 0xFFFFFFFFFFFFFFFFFFFFFFFFFFFFFFFFFFFFFFFF AND PUSH20 0xFFFFFFFFFFFFFFFFFFFFFFFFFFFFFFFFFFFFFFFF AND DUP2 MSTORE PUSH1 0x20 ADD SWAP1 DUP2 MSTORE PUSH1 0x20 ADD PUSH0 KECCAK256 PUSH0 DUP5 PUSH20 0xFFFFFFFFFFFFFFFFFFFFFFFFFFFFFFFFFFFFFFFF AND PUSH20 0xFFFFFFFFFFFFFFFFFFFFFFFFFFFFFFFFFFFFFFFF AND DUP2 MSTORE PUSH1 0x20 ADD SWAP1 DUP2 MSTORE PUSH1 0x20 ADD PUSH0 KECCAK256 PUSH0 PUSH2 0x100 EXP DUP2 SLOAD DUP2 PUSH1 0xFF MUL NOT AND SWAP1 DUP4 ISZERO ISZERO MUL OR SWAP1 SSTORE POP POP POP JUMP JUMPDEST PUSH1 0x3 PUSH1 0x20 MSTORE DUP2 PUSH0 MSTORE PUSH1 0x40 PUSH0 KECCAK256 DUP2 DUP2 SLOAD DUP2 LT PUSH2 0x2F9 JUMPI PUSH0 DUP1 REVERT JUMPDEST SWAP1 PUSH0 MSTORE PUSH1 0x20 PUSH0 KECCAK256 SWAP1 PUSH1 0x7 MUL ADD PUSH0 SWAP2 POP SWAP2 POP POP DUP1 PUSH0 ADD SLOAD SWAP1 DUP1 PUSH1 0x1 ADD DUP1 SLOAD PUSH2 0x31F SWAP1 PUSH2 0x1886 JUMP JUMPDEST DUP1 PUSH1 0x1F ADD PUSH1 0x20 DUP1 SWAP2 DIV MUL PUSH1 0x20 ADD PUSH1 0x40 MLOAD SWAP1 DUP2 ADD PUSH1 0x40 MSTORE DUP1 SWAP3 SWAP2 SWAP1 DUP2 DUP2 MSTORE PUSH1 0x20 ADD DUP3 DUP1 SLOAD PUSH2 0x34B SWAP1 PUSH2 0x1886 JUMP JUMPDEST DUP1 ISZERO PUSH2 0x396 JUMPI DUP1 PUSH1 0x1F LT PUSH2 0x36D JUMPI PUSH2 0x100 DUP1 DUP4 SLOAD DIV MUL DUP4 MSTORE SWAP2 PUSH1 0x20 ADD SWAP2 PUSH2 0x396 JUMP JUMPDEST DUP3 ADD SWAP2 SWAP1 PUSH0 MSTORE PUSH1 0x20 PUSH0 KECCAK256 SWAP1 JUMPDEST DUP2 SLOAD DUP2 MSTORE SWAP1 PUSH1 0x1 ADD SWAP1 PUSH1 0x20 ADD DUP1 DUP4 GT PUSH2 0x379 JUMPI DUP3 SWAP1 SUB PUSH1 0x1F AND DUP3 ADD SWAP2 JUMPDEST POP POP POP POP POP SWAP1 DUP1 PUSH1 0x2 ADD DUP1 SLOAD PUSH2 0x3AB SWAP1 PUSH2 0x1886 JUMP JUMPDEST DUP1 PUSH1 0x1F ADD PUSH1 0x20 DUP1 SWAP2 DIV MUL PUSH1 0x20 ADD PUSH1 0x40 MLOAD SWAP1 DUP2 ADD PUSH1 0x40 MSTORE DUP1 SWAP3 SWAP2 SWAP1 DUP2 DUP2 MSTORE PUSH1 0x20 ADD DUP3 DUP1 SLOAD PUSH2 0x3D7 SWAP1 PUSH2 0x1886 JUMP JUMPDEST DUP1 ISZERO PUSH2 0x422 JUMPI DUP1 PUSH1 0x1F LT PUSH2 0x3F9 JUMPI PUSH2 0x100 DUP1 DUP4 SLOAD DIV MUL DUP4 MSTORE SWAP2 PUSH1 0x20 ADD SWAP2 PUSH2 0x422 JUMP JUMPDEST DUP3 ADD SWAP2 SWAP1 PUSH0 MSTORE PUSH1 0x20 PUSH0 KECCAK256 SWAP1 JUMPDEST DUP2 SLOAD DUP2 MSTORE SWAP1 PUSH1 0x1 ADD SWAP1 PUSH1 0x20 ADD DUP1 DUP4 GT PUSH2 0x405 JUMPI DUP3 SWAP1 SUB PUSH1 0x1F AND DUP3 ADD SWAP2 JUMPDEST POP POP POP POP POP SWAP1 DUP1 PUSH1 0x3 ADD PUSH0 SWAP1 SLOAD SWAP1 PUSH2 0x100 EXP SWAP1 DIV PUSH20 0xFFFFFFFFFFFFFFFFFFFFFFFFFFFFFFFFFFFFFFFF AND SWAP1 DUP1 PUSH1 0x4 ADD SLOAD SWAP1 DUP1 PUSH1 0x5 ADD SLOAD SWAP1 DUP1 PUSH1 0x6 ADD PUSH0 SWAP1 SLOAD SWAP1 PUSH2 0x100 EXP SWAP1 DIV PUSH1 0xFF AND SWAP1 POP DUP8 JUMP JUMPDEST DUP2 PUSH1 0x3 PUSH0 DUP6 PUSH20 0xFFFFFFFFFFFFFFFFFFFFFFFFFFFFFFFFFFFFFFFF AND PUSH20 0xFFFFFFFFFFFFFFFFFFFFFFFFFFFFFFFFFFFFFFFF AND DUP2 MSTORE PUSH1 0x20 ADD SWAP1 DUP2 MSTORE PUSH1 0x20 ADD PUSH0 KECCAK256 PUSH1 0x1 DUP5 PUSH2 0x4BA SWAP2 SWAP1 PUSH2 0x176B JUMP JUMPDEST DUP2 SLOAD DUP2 LT PUSH2 0x4CB JUMPI PUSH2 0x4CA PUSH2 0x179E JUMP JUMPDEST JUMPDEST SWAP1 PUSH0 MSTORE PUSH1 0x20 PUSH0 KECCAK256 SWAP1 PUSH1 0x7 MUL ADD PUSH0 ADD SLOAD EQ DUP3 PUSH1 0x40 MLOAD PUSH1 0x20 ADD PUSH2 0x4EC SWAP2 SWAP1 PUSH2 0x1974 JUMP JUMPDEST PUSH1 0x40 MLOAD PUSH1 0x20 DUP2 DUP4 SUB SUB DUP2 MSTORE SWAP1 PUSH1 0x40 MSTORE SWAP1 PUSH2 0x53C JUMPI PUSH1 0x40 MLOAD PUSH32 0x8C379A000000000000000000000000000000000000000000000000000000000 DUP2 MSTORE PUSH1 0x4 ADD PUSH2 0x533 SWAP2 SWAP1 PUSH2 0x19A4 JUMP JUMPDEST PUSH1 0x40 MLOAD DUP1 SWAP2 SUB SWAP1 REVERT JUMPDEST POP PUSH0 ISZERO ISZERO PUSH1 0x3 PUSH0 DUP6 PUSH20 0xFFFFFFFFFFFFFFFFFFFFFFFFFFFFFFFFFFFFFFFF AND PUSH20 0xFFFFFFFFFFFFFFFFFFFFFFFFFFFFFFFFFFFFFFFF AND DUP2 MSTORE PUSH1 0x20 ADD SWAP1 DUP2 MSTORE PUSH1 0x20 ADD PUSH0 KECCAK256 PUSH1 0x1 DUP5 PUSH2 0x58A SWAP2 SWAP1 PUSH2 0x176B JUMP JUMPDEST DUP2 SLOAD DUP2 LT PUSH2 0x59B JUMPI PUSH2 0x59A PUSH2 0x179E JUMP JUMPDEST JUMPDEST SWAP1 PUSH0 MSTORE PUSH1 0x20 PUSH0 KECCAK256 SWAP1 PUSH1 0x7 MUL ADD PUSH1 0x6 ADD PUSH0 SWAP1 SLOAD SWAP1 PUSH2 0x100 EXP SWAP1 DIV PUSH1 0xFF AND ISZERO ISZERO EQ PUSH1 0x3 PUSH0 DUP6 PUSH20 0xFFFFFFFFFFFFFFFFFFFFFFFFFFFFFFFFFFFFFFFF AND PUSH20 0xFFFFFFFFFFFFFFFFFFFFFFFFFFFFFFFFFFFFFFFF AND DUP2 MSTORE PUSH1 0x20 ADD SWAP1 DUP2 MSTORE PUSH1 0x20 ADD PUSH0 KECCAK256 PUSH1 0x1 DUP5 PUSH2 0x604 SWAP2 SWAP1 PUSH2 0x176B JUMP JUMPDEST DUP2 SLOAD DUP2 LT PUSH2 0x615 JUMPI PUSH2 0x614 PUSH2 0x179E JUMP JUMPDEST JUMPDEST SWAP1 PUSH0 MSTORE PUSH1 0x20 PUSH0 KECCAK256 SWAP1 PUSH1 0x7 MUL ADD PUSH1 0x1 ADD PUSH1 0x40 MLOAD PUSH1 0x20 ADD PUSH2 0x634 SWAP2 SWAP1 PUSH2 0x1AEA JUMP JUMPDEST PUSH1 0x40 MLOAD PUSH1 0x20 DUP2 DUP4 SUB SUB DUP2 MSTORE SWAP1 PUSH1 0x40 MSTORE SWAP1 PUSH2 0x684 JUMPI PUSH1 0x40 MLOAD PUSH32 0x8C379A000000000000000000000000000000000000000000000000000000000 DUP2 MSTORE PUSH1 0x4 ADD PUSH2 0x67B SWAP2 SWAP1 PUSH2 0x19A4 JUMP JUMPDEST PUSH1 0x40 MLOAD DUP1 SWAP2 SUB SWAP1 REVERT JUMPDEST POP PUSH0 DUP2 GT PUSH2 0x6C7 JUMPI PUSH1 0x40 MLOAD PUSH32 0x8C379A000000000000000000000000000000000000000000000000000000000 DUP2 MSTORE PUSH1 0x4 ADD PUSH2 0x6BE SWAP1 PUSH2 0x1B60 JUMP JUMPDEST PUSH1 0x40 MLOAD DUP1 SWAP2 SUB SWAP1 REVERT JUMPDEST DUP1 CALLVALUE EQ PUSH2 0x709 JUMPI PUSH1 0x40 MLOAD PUSH32 0x8C379A000000000000000000000000000000000000000000000000000000000 DUP2 MSTORE PUSH1 0x4 ADD PUSH2 0x700 SWAP1 PUSH2 0x1BC8 JUMP JUMPDEST PUSH1 0x40 MLOAD DUP1 SWAP2 SUB SWAP1 REVERT JUMPDEST DUP1 PUSH1 0x3 PUSH0 DUP6 PUSH20 0xFFFFFFFFFFFFFFFFFFFFFFFFFFFFFFFFFFFFFFFF AND PUSH20 0xFFFFFFFFFFFFFFFFFFFFFFFFFFFFFFFFFFFFFFFF AND DUP2 MSTORE PUSH1 0x20 ADD SWAP1 DUP2 MSTORE PUSH1 0x20 ADD PUSH0 KECCAK256 PUSH1 0x1 DUP5 PUSH2 0x754 SWAP2 SWAP1 PUSH2 0x176B JUMP JUMPDEST DUP2 SLOAD DUP2 LT PUSH2 0x765 JUMPI PUSH2 0x764 PUSH2 0x179E JUMP JUMPDEST JUMPDEST SWAP1 PUSH0 MSTORE PUSH1 0x20 PUSH0 KECCAK256 SWAP1 PUSH1 0x7 MUL ADD PUSH1 0x5 ADD PUSH0 DUP3 DUP3 SLOAD PUSH2 0x782 SWAP2 SWAP1 PUSH2 0x1BE6 JUMP JUMPDEST SWAP3 POP POP DUP2 SWAP1 SSTORE POP DUP3 PUSH20 0xFFFFFFFFFFFFFFFFFFFFFFFFFFFFFFFFFFFFFFFF AND PUSH2 0x8FC DUP3 SWAP1 DUP2 ISZERO MUL SWAP1 PUSH1 0x40 MLOAD PUSH0 PUSH1 0x40 MLOAD DUP1 DUP4 SUB DUP2 DUP6 DUP9 DUP9 CALL SWAP4 POP POP POP POP ISZERO DUP1 ISZERO PUSH2 0x7CC JUMPI RETURNDATASIZE PUSH0 DUP1 RETURNDATACOPY RETURNDATASIZE PUSH0 REVERT JUMPDEST POP PUSH1 0x3 PUSH0 DUP5 PUSH20 0xFFFFFFFFFFFFFFFFFFFFFFFFFFFFFFFFFFFFFFFF AND PUSH20 0xFFFFFFFFFFFFFFFFFFFFFFFFFFFFFFFFFFFFFFFF AND DUP2 MSTORE PUSH1 0x20 ADD SWAP1 DUP2 MSTORE PUSH1 0x20 ADD PUSH0 KECCAK256 PUSH1 0x1 DUP4 PUSH2 0x817 SWAP2 SWAP1 PUSH2 0x176B JUMP JUMPDEST DUP2 SLOAD DUP2 LT PUSH2 0x828 JUMPI PUSH2 0x827 PUSH2 0x179E JUMP JUMPDEST JUMPDEST SWAP1 PUSH0 MSTORE PUSH1 0x20 PUSH0 KECCAK256 SWAP1 PUSH1 0x7 MUL ADD PUSH1 0x4 ADD SLOAD PUSH1 0x3 PUSH0 DUP6 PUSH20 0xFFFFFFFFFFFFFFFFFFFFFFFFFFFFFFFFFFFFFFFF AND PUSH20 0xFFFFFFFFFFFFFFFFFFFFFFFFFFFFFFFFFFFFFFFF AND DUP2 MSTORE PUSH1 0x20 ADD SWAP1 DUP2 MSTORE PUSH1 0x20 ADD PUSH0 KECCAK256 PUSH1 0x1 DUP5 PUSH2 0x882 SWAP2 SWAP1 PUSH2 0x176B JUMP JUMPDEST DUP2 SLOAD DUP2 LT PUSH2 0x893 JUMPI PUSH2 0x892 PUSH2 0x179E JUMP JUMPDEST JUMPDEST SWAP1 PUSH0 MSTORE PUSH1 0x20 PUSH0 KECCAK256 SWAP1 PUSH1 0x7 MUL ADD PUSH1 0x5 ADD SLOAD LT PUSH2 0x92B JUMPI PUSH1 0x1 PUSH1 0x3 PUSH0 DUP6 PUSH20 0xFFFFFFFFFFFFFFFFFFFFFFFFFFFFFFFFFFFFFFFF AND PUSH20 0xFFFFFFFFFFFFFFFFFFFFFFFFFFFFFFFFFFFFFFFF AND DUP2 MSTORE PUSH1 0x20 ADD SWAP1 DUP2 MSTORE PUSH1 0x20 ADD PUSH0 KECCAK256 PUSH1 0x1 DUP5 PUSH2 0x8F4 SWAP2 SWAP1 PUSH2 0x176B JUMP JUMPDEST DUP2 SLOAD DUP2 LT PUSH2 0x905 JUMPI PUSH2 0x904 PUSH2 0x179E JUMP JUMPDEST JUMPDEST SWAP1 PUSH0 MSTORE PUSH1 0x20 PUSH0 KECCAK256 SWAP1 PUSH1 0x7 MUL ADD PUSH1 0x6 ADD PUSH0 PUSH2 0x100 EXP DUP2 SLOAD DUP2 PUSH1 0xFF MUL NOT AND SWAP1 DUP4 ISZERO ISZERO MUL OR SWAP1 SSTORE POP JUMPDEST PUSH32 0x264F630D9EFA0D07053A31163641D9FCC0ADAFC9D9E76F1C37C2CE3A558D2C52 CALLER DUP3 PUSH1 0x40 MLOAD PUSH2 0x95C SWAP3 SWAP2 SWAP1 PUSH2 0x1C19 JUMP JUMPDEST PUSH1 0x40 MLOAD DUP1 SWAP2 SUB SWAP1 LOG1 POP POP POP JUMP JUMPDEST PUSH1 0x2 PUSH0 SWAP1 SLOAD SWAP1 PUSH2 0x100 EXP SWAP1 DIV PUSH20 0xFFFFFFFFFFFFFFFFFFFFFFFFFFFFFFFFFFFFFFFF AND PUSH1 0x1 SLOAD PUSH0 PUSH1 0x3 PUSH0 DUP5 PUSH20 0xFFFFFFFFFFFFFFFFFFFFFFFFFFFFFFFFFFFFFFFF AND PUSH20 0xFFFFFFFFFFFFFFFFFFFFFFFFFFFFFFFFFFFFFFFF AND DUP2 MSTORE PUSH1 0x20 ADD SWAP1 DUP2 MSTORE PUSH1 0x20 ADD PUSH0 KECCAK256 DUP1 SLOAD SWAP1 POP GT PUSH2 0xA10 JUMPI PUSH1 0x40 MLOAD PUSH32 0x8C379A000000000000000000000000000000000000000000000000000000000 DUP2 MSTORE PUSH1 0x4 ADD PUSH2 0xA07 SWAP1 PUSH2 0x1CB0 JUMP JUMPDEST PUSH1 0x40 MLOAD DUP1 SWAP2 SUB SWAP1 REVERT JUMPDEST DUP1 PUSH1 0x3 PUSH0 DUP5 PUSH20 0xFFFFFFFFFFFFFFFFFFFFFFFFFFFFFFFFFFFFFFFF AND PUSH20 0xFFFFFFFFFFFFFFFFFFFFFFFFFFFFFFFFFFFFFFFF AND DUP2 MSTORE PUSH1 0x20 ADD SWAP1 DUP2 MSTORE PUSH1 0x20 ADD PUSH0 KECCAK256 PUSH1 0x1 DUP4 PUSH2 0xA5B SWAP2 SWAP1 PUSH2 0x176B JUMP JUMPDEST DUP2 SLOAD DUP2 LT PUSH2 0xA6C JUMPI PUSH2 0xA6B PUSH2 0x179E JUMP JUMPDEST JUMPDEST SWAP1 PUSH0 MSTORE PUSH1 0x20 PUSH0 KECCAK256 SWAP1 PUSH1 0x7 MUL ADD PUSH0 ADD SLOAD EQ PUSH2 0xABB JUMPI PUSH1 0x40 MLOAD PUSH32 0x8C379A000000000000000000000000000000000000000000000000000000000 DUP2 MSTORE PUSH1 0x4 ADD PUSH2 0xAB2 SWAP1 PUSH2 0x1D3E JUMP JUMPDEST PUSH1 0x40 MLOAD DUP1 SWAP2 SUB SWAP1 REVERT JUMPDEST PUSH1 0x4 PUSH0 DUP4 PUSH20 0xFFFFFFFFFFFFFFFFFFFFFFFFFFFFFFFFFFFFFFFF AND PUSH20 0xFFFFFFFFFFFFFFFFFFFFFFFFFFFFFFFFFFFFFFFF AND DUP2 MSTORE PUSH1 0x20 ADD SWAP1 DUP2 MSTORE PUSH1 0x20 ADD PUSH0 KECCAK256 PUSH0 CALLER PUSH20 0xFFFFFFFFFFFFFFFFFFFFFFFFFFFFFFFFFFFFFFFF AND PUSH20 0xFFFFFFFFFFFFFFFFFFFFFFFFFFFFFFFFFFFFFFFF AND DUP2 MSTORE PUSH1 0x20 ADD SWAP1 DUP2 MSTORE PUSH1 0x20 ADD PUSH0 KECCAK256 PUSH0 SWAP1 SLOAD SWAP1 PUSH2 0x100 EXP SWAP1 DIV PUSH1 0xFF AND PUSH2 0xB7F JUMPI PUSH1 0x40 MLOAD PUSH32 0x8C379A000000000000000000000000000000000000000000000000000000000 DUP2 MSTORE PUSH1 0x4 ADD PUSH2 0xB76 SWAP1 PUSH2 0x1DCC JUMP JUMPDEST PUSH1 0x40 MLOAD DUP1 SWAP2 SUB SWAP1 REVERT JUMPDEST PUSH0 DUP5 GT DUP1 ISZERO PUSH2 0xC19 JUMPI POP PUSH1 0x3 PUSH0 PUSH1 0x2 PUSH0 SWAP1 SLOAD SWAP1 PUSH2 0x100 EXP SWAP1 DIV PUSH20 0xFFFFFFFFFFFFFFFFFFFFFFFFFFFFFFFFFFFFFFFF AND PUSH20 0xFFFFFFFFFFFFFFFFFFFFFFFFFFFFFFFFFFFFFFFF AND PUSH20 0xFFFFFFFFFFFFFFFFFFFFFFFFFFFFFFFFFFFFFFFF AND DUP2 MSTORE PUSH1 0x20 ADD SWAP1 DUP2 MSTORE PUSH1 0x20 ADD PUSH0 KECCAK256 PUSH1 0x1 DUP1 SLOAD PUSH2 0xBF5 SWAP2 SWAP1 PUSH2 0x176B JUMP JUMPDEST DUP2 SLOAD DUP2 LT PUSH2 0xC06 JUMPI PUSH2 0xC05 PUSH2 0x179E JUMP JUMPDEST JUMPDEST SWAP1 PUSH0 MSTORE PUSH1 0x20 PUSH0 KECCAK256 SWAP1 PUSH1 0x7 MUL ADD PUSH1 0x5 ADD SLOAD DUP5 LT JUMPDEST PUSH2 0xC58 JUMPI PUSH1 0x40 MLOAD PUSH32 0x8C379A000000000000000000000000000000000000000000000000000000000 DUP2 MSTORE PUSH1 0x4 ADD PUSH2 0xC4F SWAP1 PUSH2 0x1E5A JUMP JUMPDEST PUSH1 0x40 MLOAD DUP1 SWAP2 SUB SWAP1 REVERT JUMPDEST PUSH1 0x3 PUSH0 PUSH1 0x2 PUSH0 SWAP1 SLOAD SWAP1 PUSH2 0x100 EXP SWAP1 DIV PUSH20 0xFFFFFFFFFFFFFFFFFFFFFFFFFFFFFFFFFFFFFFFF AND PUSH20 0xFFFFFFFFFFFFFFFFFFFFFFFFFFFFFFFFFFFFFFFF AND PUSH20 0xFFFFFFFFFFFFFFFFFFFFFFFFFFFFFFFFFFFFFFFF AND DUP2 MSTORE PUSH1 0x20 ADD SWAP1 DUP2 MSTORE PUSH1 0x20 ADD PUSH0 KECCAK256 PUSH1 0x1 DUP1 SLOAD PUSH2 0xCC4 SWAP2 SWAP1 PUSH2 0x176B JUMP JUMPDEST DUP2 SLOAD DUP2 LT PUSH2 0xCD5 JUMPI PUSH2 0xCD4 PUSH2 0x179E JUMP JUMPDEST JUMPDEST SWAP1 PUSH0 MSTORE PUSH1 0x20 PUSH0 KECCAK256 SWAP1 PUSH1 0x7 MUL ADD PUSH1 0x6 ADD PUSH0 SWAP1 SLOAD SWAP1 PUSH2 0x100 EXP SWAP1 DIV PUSH1 0xFF AND PUSH2 0xD30 JUMPI PUSH1 0x40 MLOAD PUSH32 0x8C379A000000000000000000000000000000000000000000000000000000000 DUP2 MSTORE PUSH1 0x4 ADD PUSH2 0xD27 SWAP1 PUSH2 0x1EE8 JUMP JUMPDEST PUSH1 0x40 MLOAD DUP1 SWAP2 SUB SWAP1 REVERT JUMPDEST DUP4 PUSH1 0x3 PUSH0 PUSH1 0x2 PUSH0 SWAP1 SLOAD SWAP1 PUSH2 0x100 EXP SWAP1 DIV PUSH20 0xFFFFFFFFFFFFFFFFFFFFFFFFFFFFFFFFFFFFFFFF AND PUSH20 0xFFFFFFFFFFFFFFFFFFFFFFFFFFFFFFFFFFFFFFFF AND PUSH20 0xFFFFFFFFFFFFFFFFFFFFFFFFFFFFFFFFFFFFFFFF AND DUP2 MSTORE PUSH1 0x20 ADD SWAP1 DUP2 MSTORE PUSH1 0x20 ADD PUSH0 KECCAK256 PUSH1 0x1 DUP1 SLOAD PUSH2 0xD9D SWAP2 SWAP1 PUSH2 0x176B JUMP JUMPDEST DUP2 SLOAD DUP2 LT PUSH2 0xDAE JUMPI PUSH2 0xDAD PUSH2 0x179E JUMP JUMPDEST JUMPDEST SWAP1 PUSH0 MSTORE PUSH1 0x20 PUSH0 KECCAK256 SWAP1 PUSH1 0x7 MUL ADD PUSH1 0x5 ADD PUSH0 DUP3 DUP3 SLOAD PUSH2 0xDCB SWAP2 SWAP1 PUSH2 0x176B JUMP JUMPDEST SWAP3 POP POP DUP2 SWAP1 SSTORE POP DUP3 PUSH20 0xFFFFFFFFFFFFFFFFFFFFFFFFFFFFFFFFFFFFFFFF AND PUSH2 0x8FC DUP6 SWAP1 DUP2 ISZERO MUL SWAP1 PUSH1 0x40 MLOAD PUSH0 PUSH1 0x40 MLOAD DUP1 DUP4 SUB DUP2 DUP6 DUP9 DUP9 CALL SWAP4 POP POP POP POP ISZERO DUP1 ISZERO PUSH2 0xE15 JUMPI RETURNDATASIZE PUSH0 DUP1 RETURNDATACOPY RETURNDATASIZE PUSH0 REVERT JUMPDEST POP PUSH32 0xF425CD5639E3FA6B1A9CD7A21FD84E191EA0768C7090EB1A1AF5AE2D13CA0950 DUP5 CALLER DUP6 PUSH1 0x40 MLOAD PUSH2 0xE49 SWAP4 SWAP3 SWAP2 SWAP1 PUSH2 0x1F61 JUMP JUMPDEST PUSH1 0x40 MLOAD DUP1 SWAP2 SUB SWAP1 LOG1 POP POP POP POP JUMP JUMPDEST PUSH1 0x4 PUSH1 0x20 MSTORE DUP2 PUSH0 MSTORE PUSH1 0x40 PUSH0 KECCAK256 PUSH1 0x20 MSTORE DUP1 PUSH0 MSTORE PUSH1 0x40 PUSH0 KECCAK256 PUSH0 SWAP2 POP SWAP2 POP SWAP1 SLOAD SWAP1 PUSH2 0x100 EXP SWAP1 DIV PUSH1 0xFF AND DUP2 JUMP JUMPDEST DUP2 PUSH1 0x2 PUSH0 PUSH2 0x100 EXP DUP2 SLOAD DUP2 PUSH20 0xFFFFFFFFFFFFFFFFFFFFFFFFFFFFFFFFFFFFFFFF MUL NOT AND SWAP1 DUP4 PUSH20 0xFFFFFFFFFFFFFFFFFFFFFFFFFFFFFFFFFFFFFFFF AND MUL OR SWAP1 SSTORE POP DUP1 PUSH1 0x1 DUP2 SWAP1 SSTORE POP POP POP JUMP JUMPDEST PUSH0 JUMPDEST PUSH1 0x3 PUSH0 CALLER PUSH20 0xFFFFFFFFFFFFFFFFFFFFFFFFFFFFFFFFFFFFFFFF AND PUSH20 0xFFFFFFFFFFFFFFFFFFFFFFFFFFFFFFFFFFFFFFFF AND DUP2 MSTORE PUSH1 0x20 ADD SWAP1 DUP2 MSTORE PUSH1 0x20 ADD PUSH0 KECCAK256 DUP1 SLOAD SWAP1 POP DUP2 LT ISZERO PUSH2 0x103A JUMPI PUSH0 PUSH1 0x3 PUSH0 CALLER PUSH20 0xFFFFFFFFFFFFFFFFFFFFFFFFFFFFFFFFFFFFFFFF AND PUSH20 0xFFFFFFFFFFFFFFFFFFFFFFFFFFFFFFFFFFFFFFFF AND DUP2 MSTORE PUSH1 0x20 ADD SWAP1 DUP2 MSTORE PUSH1 0x20 ADD PUSH0 KECCAK256 DUP3 DUP2 SLOAD DUP2 LT PUSH2 0xF66 JUMPI PUSH2 0xF65 PUSH2 0x179E JUMP JUMPDEST JUMPDEST SWAP1 PUSH0 MSTORE PUSH1 0x20 PUSH0 KECCAK256 SWAP1 PUSH1 0x7 MUL ADD PUSH1 0x1 ADD SWAP1 POP PUSH0 DUP6 PUSH1 0x40 MLOAD PUSH1 0x20 ADD PUSH2 0xF89 SWAP2 SWAP1 PUSH2 0x1FC6 JUMP JUMPDEST PUSH1 0x40 MLOAD PUSH1 0x20 DUP2 DUP4 SUB SUB DUP2 MSTORE SWAP1 PUSH1 0x40 MSTORE DUP1 MLOAD SWAP1 PUSH1 0x20 ADD KECCAK256 DUP3 PUSH1 0x40 MLOAD PUSH1 0x20 ADD PUSH2 0xFB0 SWAP2 SWAP1 PUSH2 0x206E JUMP JUMPDEST PUSH1 0x40 MLOAD PUSH1 0x20 DUP2 DUP4 SUB SUB DUP2 MSTORE SWAP1 PUSH1 0x40 MSTORE DUP1 MLOAD SWAP1 PUSH1 0x20 ADD KECCAK256 EQ SWAP1 POP DUP1 ISZERO PUSH2 0x102B JUMPI DUP6 PUSH1 0x40 MLOAD PUSH1 0x20 ADD PUSH2 0xFE0 SWAP2 SWAP1 PUSH2 0x2118 JUMP JUMPDEST PUSH1 0x40 MLOAD PUSH1 0x20 DUP2 DUP4 SUB SUB DUP2 MSTORE SWAP1 PUSH1 0x40 MSTORE PUSH1 0x40 MLOAD PUSH32 0x8C379A000000000000000000000000000000000000000000000000000000000 DUP2 MSTORE PUSH1 0x4 ADD PUSH2 0x1022 SWAP2 SWAP1 PUSH2 0x19A4 JUMP JUMPDEST PUSH1 0x40 MLOAD DUP1 SWAP2 SUB SWAP1 REVERT JUMPDEST POP POP DUP1 DUP1 PUSH1 0x1 ADD SWAP2 POP POP PUSH2 0xECE JUMP JUMPDEST POP PUSH0 PUSH1 0x40 MLOAD DUP1 PUSH1 0xE0 ADD PUSH1 0x40 MSTORE DUP1 PUSH1 0x1 PUSH1 0x3 PUSH0 CALLER PUSH20 0xFFFFFFFFFFFFFFFFFFFFFFFFFFFFFFFFFFFFFFFF AND PUSH20 0xFFFFFFFFFFFFFFFFFFFFFFFFFFFFFFFFFFFFFFFF AND DUP2 MSTORE PUSH1 0x20 ADD SWAP1 DUP2 MSTORE PUSH1 0x20 ADD PUSH0 KECCAK256 DUP1 SLOAD SWAP1 POP PUSH2 0x1094 SWAP2 SWAP1 PUSH2 0x1BE6 JUMP JUMPDEST DUP2 MSTORE PUSH1 0x20 ADD DUP6 DUP2 MSTORE PUSH1 0x20 ADD DUP5 DUP2 MSTORE PUSH1 0x20 ADD CALLER PUSH20 0xFFFFFFFFFFFFFFFFFFFFFFFFFFFFFFFFFFFFFFFF AND DUP2 MSTORE PUSH1 0x20 ADD DUP4 DUP2 MSTORE PUSH1 0x20 ADD PUSH0 DUP2 MSTORE PUSH1 0x20 ADD PUSH0 ISZERO ISZERO DUP2 MSTORE POP SWAP1 POP PUSH1 0x3 PUSH0 CALLER PUSH20 0xFFFFFFFFFFFFFFFFFFFFFFFFFFFFFFFFFFFFFFFF AND PUSH20 0xFFFFFFFFFFFFFFFFFFFFFFFFFFFFFFFFFFFFFFFF AND DUP2 MSTORE PUSH1 0x20 ADD SWAP1 DUP2 MSTORE PUSH1 0x20 ADD PUSH0 KECCAK256 DUP2 SWAP1 DUP1 PUSH1 0x1 DUP2 SLOAD ADD DUP1 DUP3 SSTORE DUP1 SWAP2 POP POP PUSH1 0x1 SWAP1 SUB SWAP1 PUSH0 MSTORE PUSH1 0x20 PUSH0 KECCAK256 SWAP1 PUSH1 0x7 MUL ADD PUSH0 SWAP1 SWAP2 SWAP1 SWAP2 SWAP1 SWAP2 POP PUSH0 DUP3 ADD MLOAD DUP2 PUSH0 ADD SSTORE PUSH1 0x20 DUP3 ADD MLOAD DUP2 PUSH1 0x1 ADD SWAP1 DUP2 PUSH2 0x1156 SWAP2 SWAP1 PUSH2 0x22C6 JUMP JUMPDEST POP PUSH1 0x40 DUP3 ADD MLOAD DUP2 PUSH1 0x2 ADD SWAP1 DUP2 PUSH2 0x116C SWAP2 SWAP1 PUSH2 0x22C6 JUMP JUMPDEST POP PUSH1 0x60 DUP3 ADD MLOAD DUP2 PUSH1 0x3 ADD PUSH0 PUSH2 0x100 EXP DUP2 SLOAD DUP2 PUSH20 0xFFFFFFFFFFFFFFFFFFFFFFFFFFFFFFFFFFFFFFFF MUL NOT AND SWAP1 DUP4 PUSH20 0xFFFFFFFFFFFFFFFFFFFFFFFFFFFFFFFFFFFFFFFF AND MUL OR SWAP1 SSTORE POP PUSH1 0x80 DUP3 ADD MLOAD DUP2 PUSH1 0x4 ADD SSTORE PUSH1 0xA0 DUP3 ADD MLOAD DUP2 PUSH1 0x5 ADD SSTORE PUSH1 0xC0 DUP3 ADD MLOAD DUP2 PUSH1 0x6 ADD PUSH0 PUSH2 0x100 EXP DUP2 SLOAD DUP2 PUSH1 0xFF MUL NOT AND SWAP1 DUP4 ISZERO ISZERO MUL OR SWAP1 SSTORE POP POP POP PUSH32 0x825FB10F7650ED27414D6F86ACDF7D5946927D9B25001F045F1A2435DEEC02FE PUSH1 0x3 PUSH0 CALLER PUSH20 0xFFFFFFFFFFFFFFFFFFFFFFFFFFFFFFFFFFFFFFFF AND PUSH20 0xFFFFFFFFFFFFFFFFFFFFFFFFFFFFFFFFFFFFFFFF AND DUP2 MSTORE PUSH1 0x20 ADD SWAP1 DUP2 MSTORE PUSH1 0x20 ADD PUSH0 KECCAK256 DUP1 SLOAD SWAP1 POP CALLER DUP7 DUP6 PUSH1 0x40 MLOAD PUSH2 0x125D SWAP5 SWAP4 SWAP3 SWAP2 SWAP1 PUSH2 0x2395 JUMP JUMPDEST PUSH1 0x40 MLOAD DUP1 SWAP2 SUB SWAP1 LOG1 POP POP POP POP JUMP JUMPDEST PUSH0 PUSH1 0x40 MLOAD SWAP1 POP SWAP1 JUMP JUMPDEST PUSH0 DUP1 REVERT JUMPDEST PUSH0 DUP1 REVERT JUMPDEST PUSH0 PUSH20 0xFFFFFFFFFFFFFFFFFFFFFFFFFFFFFFFFFFFFFFFF DUP3 AND SWAP1 POP SWAP2 SWAP1 POP JUMP JUMPDEST PUSH0 PUSH2 0x12A5 DUP3 PUSH2 0x127C JUMP JUMPDEST SWAP1 POP SWAP2 SWAP1 POP JUMP JUMPDEST PUSH2 0x12B5 DUP2 PUSH2 0x129B JUMP JUMPDEST DUP2 EQ PUSH2 0x12BF JUMPI PUSH0 DUP1 REVERT JUMPDEST POP JUMP JUMPDEST PUSH0 DUP2 CALLDATALOAD SWAP1 POP PUSH2 0x12D0 DUP2 PUSH2 0x12AC JUMP JUMPDEST SWAP3 SWAP2 POP POP JUMP JUMPDEST PUSH0 DUP2 SWAP1 POP SWAP2 SWAP1 POP JUMP JUMPDEST PUSH2 0x12E8 DUP2 PUSH2 0x12D6 JUMP JUMPDEST DUP2 EQ PUSH2 0x12F2 JUMPI PUSH0 DUP1 REVERT JUMPDEST POP JUMP JUMPDEST PUSH0 DUP2 CALLDATALOAD SWAP1 POP PUSH2 0x1303 DUP2 PUSH2 0x12DF JUMP JUMPDEST SWAP3 SWAP2 POP POP JUMP JUMPDEST PUSH0 DUP1 PUSH1 0x40 DUP4 DUP6 SUB SLT ISZERO PUSH2 0x131F JUMPI PUSH2 0x131E PUSH2 0x1274 JUMP JUMPDEST JUMPDEST PUSH0 PUSH2 0x132C DUP6 DUP3 DUP7 ADD PUSH2 0x12C2 JUMP JUMPDEST SWAP3 POP POP PUSH1 0x20 PUSH2 0x133D DUP6 DUP3 DUP7 ADD PUSH2 0x12F5 JUMP JUMPDEST SWAP2 POP POP SWAP3 POP SWAP3 SWAP1 POP JUMP JUMPDEST PUSH2 0x1350 DUP2 PUSH2 0x12D6 JUMP JUMPDEST DUP3 MSTORE POP POP JUMP JUMPDEST PUSH0 DUP2 MLOAD SWAP1 POP SWAP2 SWAP1 POP JUMP JUMPDEST PUSH0 DUP3 DUP3 MSTORE PUSH1 0x20 DUP3 ADD SWAP1 POP SWAP3 SWAP2 POP POP JUMP JUMPDEST DUP3 DUP2 DUP4 MCOPY PUSH0 DUP4 DUP4 ADD MSTORE POP POP POP JUMP JUMPDEST PUSH0 PUSH1 0x1F NOT PUSH1 0x1F DUP4 ADD AND SWAP1 POP SWAP2 SWAP1 POP JUMP JUMPDEST PUSH0 PUSH2 0x1398 DUP3 PUSH2 0x1356 JUMP JUMPDEST PUSH2 0x13A2 DUP2 DUP6 PUSH2 0x1360 JUMP JUMPDEST SWAP4 POP PUSH2 0x13B2 DUP2 DUP6 PUSH1 0x20 DUP7 ADD PUSH2 0x1370 JUMP JUMPDEST PUSH2 0x13BB DUP2 PUSH2 0x137E JUMP JUMPDEST DUP5 ADD SWAP2 POP POP SWAP3 SWAP2 POP POP JUMP JUMPDEST PUSH2 0x13CF DUP2 PUSH2 0x129B JUMP JUMPDEST DUP3 MSTORE POP POP JUMP JUMPDEST PUSH0 DUP2 ISZERO ISZERO SWAP1 POP SWAP2 SWAP1 POP JUMP JUMPDEST PUSH2 0x13E9 DUP2 PUSH2 0x13D5 JUMP JUMPDEST DUP3 MSTORE POP POP JUMP JUMPDEST PUSH0 PUSH1 0xE0 DUP3 ADD SWAP1 POP PUSH2 0x1402 PUSH0 DUP4 ADD DUP11 PUSH2 0x1347 JUMP JUMPDEST DUP2 DUP2 SUB PUSH1 0x20 DUP4 ADD MSTORE PUSH2 0x1414 DUP2 DUP10 PUSH2 0x138E JUMP JUMPDEST SWAP1 POP DUP2 DUP2 SUB PUSH1 0x40 DUP4 ADD MSTORE PUSH2 0x1428 DUP2 DUP9 PUSH2 0x138E JUMP JUMPDEST SWAP1 POP PUSH2 0x1437 PUSH1 0x60 DUP4 ADD DUP8 PUSH2 0x13C6 JUMP JUMPDEST PUSH2 0x1444 PUSH1 0x80 DUP4 ADD DUP7 PUSH2 0x1347 JUMP JUMPDEST PUSH2 0x1451 PUSH1 0xA0 DUP4 ADD DUP6 PUSH2 0x1347 JUMP JUMPDEST PUSH2 0x145E PUSH1 0xC0 DUP4 ADD DUP5 PUSH2 0x13E0 JUMP JUMPDEST SWAP9 SWAP8 POP POP POP POP POP POP POP POP JUMP JUMPDEST PUSH0 PUSH2 0x1474 DUP3 PUSH2 0x127C JUMP JUMPDEST SWAP1 POP SWAP2 SWAP1 POP JUMP JUMPDEST PUSH2 0x1484 DUP2 PUSH2 0x146A JUMP JUMPDEST DUP2 EQ PUSH2 0x148E JUMPI PUSH0 DUP1 REVERT JUMPDEST POP JUMP JUMPDEST PUSH0 DUP2 CALLDATALOAD SWAP1 POP PUSH2 0x149F DUP2 PUSH2 0x147B JUMP JUMPDEST SWAP3 SWAP2 POP POP JUMP JUMPDEST PUSH0 DUP1 PUSH0 PUSH1 0x60 DUP5 DUP7 SUB SLT ISZERO PUSH2 0x14BC JUMPI PUSH2 0x14BB PUSH2 0x1274 JUMP JUMPDEST JUMPDEST PUSH0 PUSH2 0x14C9 DUP7 DUP3 DUP8 ADD PUSH2 0x1491 JUMP JUMPDEST SWAP4 POP POP PUSH1 0x20 PUSH2 0x14DA DUP7 DUP3 DUP8 ADD PUSH2 0x12F5 JUMP JUMPDEST SWAP3 POP POP PUSH1 0x40 PUSH2 0x14EB DUP7 DUP3 DUP8 ADD PUSH2 0x12F5 JUMP JUMPDEST SWAP2 POP POP SWAP3 POP SWAP3 POP SWAP3 JUMP JUMPDEST PUSH0 DUP1 PUSH1 0x40 DUP4 DUP6 SUB SLT ISZERO PUSH2 0x150B JUMPI PUSH2 0x150A PUSH2 0x1274 JUMP JUMPDEST JUMPDEST PUSH0 PUSH2 0x1518 DUP6 DUP3 DUP7 ADD PUSH2 0x12F5 JUMP JUMPDEST SWAP3 POP POP PUSH1 0x20 PUSH2 0x1529 DUP6 DUP3 DUP7 ADD PUSH2 0x1491 JUMP JUMPDEST SWAP2 POP POP SWAP3 POP SWAP3 SWAP1 POP JUMP JUMPDEST PUSH0 DUP1 PUSH1 0x40 DUP4 DUP6 SUB SLT ISZERO PUSH2 0x1549 JUMPI PUSH2 0x1548 PUSH2 0x1274 JUMP JUMPDEST JUMPDEST PUSH0 PUSH2 0x1556 DUP6 DUP3 DUP7 ADD PUSH2 0x12C2 JUMP JUMPDEST SWAP3 POP POP PUSH1 0x20 PUSH2 0x1567 DUP6 DUP3 DUP7 ADD PUSH2 0x12C2 JUMP JUMPDEST SWAP2 POP POP SWAP3 POP SWAP3 SWAP1 POP JUMP JUMPDEST PUSH0 PUSH1 0x20 DUP3 ADD SWAP1 POP PUSH2 0x1584 PUSH0 DUP4 ADD DUP5 PUSH2 0x13E0 JUMP JUMPDEST SWAP3 SWAP2 POP POP JUMP JUMPDEST PUSH0 DUP1 REVERT JUMPDEST PUSH0 DUP1 REVERT JUMPDEST PUSH32 0x4E487B7100000000000000000000000000000000000000000000000000000000 PUSH0 MSTORE PUSH1 0x41 PUSH1 0x4 MSTORE PUSH1 0x24 PUSH0 REVERT JUMPDEST PUSH2 0x15C8 DUP3 PUSH2 0x137E JUMP JUMPDEST DUP2 ADD DUP2 DUP2 LT PUSH8 0xFFFFFFFFFFFFFFFF DUP3 GT OR ISZERO PUSH2 0x15E7 JUMPI PUSH2 0x15E6 PUSH2 0x1592 JUMP JUMPDEST JUMPDEST DUP1 PUSH1 0x40 MSTORE POP POP POP JUMP JUMPDEST PUSH0 PUSH2 0x15F9 PUSH2 0x126B JUMP JUMPDEST SWAP1 POP PUSH2 0x1605 DUP3 DUP3 PUSH2 0x15BF JUMP JUMPDEST SWAP2 SWAP1 POP JUMP JUMPDEST PUSH0 PUSH8 0xFFFFFFFFFFFFFFFF DUP3 GT ISZERO PUSH2 0x1624 JUMPI PUSH2 0x1623 PUSH2 0x1592 JUMP JUMPDEST JUMPDEST PUSH2 0x162D DUP3 PUSH2 0x137E JUMP JUMPDEST SWAP1 POP PUSH1 0x20 DUP2 ADD SWAP1 POP SWAP2 SWAP1 POP JUMP JUMPDEST DUP3 DUP2 DUP4 CALLDATACOPY PUSH0 DUP4 DUP4 ADD MSTORE POP POP POP JUMP JUMPDEST PUSH0 PUSH2 0x165A PUSH2 0x1655 DUP5 PUSH2 0x160A JUMP JUMPDEST PUSH2 0x15F0 JUMP JUMPDEST SWAP1 POP DUP3 DUP2 MSTORE PUSH1 0x20 DUP2 ADD DUP5 DUP5 DUP5 ADD GT ISZERO PUSH2 0x1676 JUMPI PUSH2 0x1675 PUSH2 0x158E JUMP JUMPDEST JUMPDEST PUSH2 0x1681 DUP5 DUP3 DUP6 PUSH2 0x163A JUMP JUMPDEST POP SWAP4 SWAP3 POP POP POP JUMP JUMPDEST PUSH0 DUP3 PUSH1 0x1F DUP4 ADD SLT PUSH2 0x169D JUMPI PUSH2 0x169C PUSH2 0x158A JUMP JUMPDEST JUMPDEST DUP2 CALLDATALOAD PUSH2 0x16AD DUP5 DUP3 PUSH1 0x20 DUP7 ADD PUSH2 0x1648 JUMP JUMPDEST SWAP2 POP POP SWAP3 SWAP2 POP POP JUMP JUMPDEST PUSH0 DUP1 PUSH0 PUSH1 0x60 DUP5 DUP7 SUB SLT ISZERO PUSH2 0x16CD JUMPI PUSH2 0x16CC PUSH2 0x1274 JUMP JUMPDEST JUMPDEST PUSH0 DUP5 ADD CALLDATALOAD PUSH8 0xFFFFFFFFFFFFFFFF DUP2 GT ISZERO PUSH2 0x16EA JUMPI PUSH2 0x16E9 PUSH2 0x1278 JUMP JUMPDEST JUMPDEST PUSH2 0x16F6 DUP7 DUP3 DUP8 ADD PUSH2 0x1689 JUMP JUMPDEST SWAP4 POP POP PUSH1 0x20 DUP5 ADD CALLDATALOAD PUSH8 0xFFFFFFFFFFFFFFFF DUP2 GT ISZERO PUSH2 0x1717 JUMPI PUSH2 0x1716 PUSH2 0x1278 JUMP JUMPDEST JUMPDEST PUSH2 0x1723 DUP7 DUP3 DUP8 ADD PUSH2 0x1689 JUMP JUMPDEST SWAP3 POP POP PUSH1 0x40 PUSH2 0x1734 DUP7 DUP3 DUP8 ADD PUSH2 0x12F5 JUMP JUMPDEST SWAP2 POP POP SWAP3 POP SWAP3 POP SWAP3 JUMP JUMPDEST PUSH32 0x4E487B7100000000000000000000000000000000000000000000000000000000 PUSH0 MSTORE PUSH1 0x11 PUSH1 0x4 MSTORE PUSH1 0x24 PUSH0 REVERT JUMPDEST PUSH0 PUSH2 0x1775 DUP3 PUSH2 0x12D6 JUMP JUMPDEST SWAP2 POP PUSH2 0x1780 DUP4 PUSH2 0x12D6 JUMP JUMPDEST SWAP3 POP DUP3 DUP3 SUB SWAP1 POP DUP2 DUP2 GT ISZERO PUSH2 0x1798 JUMPI PUSH2 0x1797 PUSH2 0x173E JUMP JUMPDEST JUMPDEST SWAP3 SWAP2 POP POP JUMP JUMPDEST PUSH32 0x4E487B7100000000000000000000000000000000000000000000000000000000 PUSH0 MSTORE PUSH1 0x32 PUSH1 0x4 MSTORE PUSH1 0x24 PUSH0 REVERT JUMPDEST PUSH32 0x5468652043616D706169676E65642053706563696669656420446F6573204E6F PUSH0 DUP3 ADD MSTORE PUSH32 0x7420457869737421000000000000000000000000000000000000000000000000 PUSH1 0x20 DUP3 ADD MSTORE POP JUMP JUMPDEST PUSH0 PUSH2 0x1825 PUSH1 0x28 DUP4 PUSH2 0x1360 JUMP JUMPDEST SWAP2 POP PUSH2 0x1830 DUP3 PUSH2 0x17CB JUMP JUMPDEST PUSH1 0x40 DUP3 ADD SWAP1 POP SWAP2 SWAP1 POP JUMP JUMPDEST PUSH0 PUSH1 0x20 DUP3 ADD SWAP1 POP DUP2 DUP2 SUB PUSH0 DUP4 ADD MSTORE PUSH2 0x1852 DUP2 PUSH2 0x1819 JUMP JUMPDEST SWAP1 POP SWAP2 SWAP1 POP JUMP JUMPDEST PUSH32 0x4E487B7100000000000000000000000000000000000000000000000000000000 PUSH0 MSTORE PUSH1 0x22 PUSH1 0x4 MSTORE PUSH1 0x24 PUSH0 REVERT JUMPDEST PUSH0 PUSH1 0x2 DUP3 DIV SWAP1 POP PUSH1 0x1 DUP3 AND DUP1 PUSH2 0x189D JUMPI PUSH1 0x7F DUP3 AND SWAP2 POP JUMPDEST PUSH1 0x20 DUP3 LT DUP2 SUB PUSH2 0x18B0 JUMPI PUSH2 0x18AF PUSH2 0x1859 JUMP JUMPDEST JUMPDEST POP SWAP2 SWAP1 POP JUMP JUMPDEST PUSH0 DUP2 SWAP1 POP SWAP3 SWAP2 POP POP JUMP JUMPDEST PUSH32 0x5468652043616D706169676E2000000000000000000000000000000000000000 PUSH0 DUP3 ADD MSTORE POP JUMP JUMPDEST PUSH0 PUSH2 0x18F4 PUSH1 0xD DUP4 PUSH2 0x18B6 JUMP JUMPDEST SWAP2 POP PUSH2 0x18FF DUP3 PUSH2 0x18C0 JUMP JUMPDEST PUSH1 0xD DUP3 ADD SWAP1 POP SWAP2 SWAP1 POP JUMP JUMPDEST PUSH0 DUP2 SWAP1 POP SWAP2 SWAP1 POP JUMP JUMPDEST PUSH2 0x1924 PUSH2 0x191F DUP3 PUSH2 0x12D6 JUMP JUMPDEST PUSH2 0x190A JUMP JUMPDEST DUP3 MSTORE POP POP JUMP JUMPDEST PUSH32 0x20446F6573204E4F542045786973742100000000000000000000000000000000 PUSH0 DUP3 ADD MSTORE POP JUMP JUMPDEST PUSH0 PUSH2 0x195E PUSH1 0x10 DUP4 PUSH2 0x18B6 JUMP JUMPDEST SWAP2 POP PUSH2 0x1969 DUP3 PUSH2 0x192A JUMP JUMPDEST PUSH1 0x10 DUP3 ADD SWAP1 POP SWAP2 SWAP1 POP JUMP JUMPDEST PUSH0 PUSH2 0x197E DUP3 PUSH2 0x18E8 JUMP JUMPDEST SWAP2 POP PUSH2 0x198A DUP3 DUP5 PUSH2 0x1913 JUMP JUMPDEST PUSH1 0x20 DUP3 ADD SWAP2 POP PUSH2 0x1999 DUP3 PUSH2 0x1952 JUMP JUMPDEST SWAP2 POP DUP2 SWAP1 POP SWAP3 SWAP2 POP POP JUMP JUMPDEST PUSH0 PUSH1 0x20 DUP3 ADD SWAP1 POP DUP2 DUP2 SUB PUSH0 DUP4 ADD MSTORE PUSH2 0x19BC DUP2 DUP5 PUSH2 0x138E JUMP JUMPDEST SWAP1 POP SWAP3 SWAP2 POP POP JUMP JUMPDEST PUSH32 0x2700000000000000000000000000000000000000000000000000000000000000 PUSH0 DUP3 ADD MSTORE POP JUMP JUMPDEST PUSH0 PUSH2 0x19F8 PUSH1 0x1 DUP4 PUSH2 0x18B6 JUMP JUMPDEST SWAP2 POP PUSH2 0x1A03 DUP3 PUSH2 0x19C4 JUMP JUMPDEST PUSH1 0x1 DUP3 ADD SWAP1 POP SWAP2 SWAP1 POP JUMP JUMPDEST PUSH0 DUP2 SWAP1 POP DUP2 PUSH0 MSTORE PUSH1 0x20 PUSH0 KECCAK256 SWAP1 POP SWAP2 SWAP1 POP JUMP JUMPDEST PUSH0 DUP2 SLOAD PUSH2 0x1A2C DUP2 PUSH2 0x1886 JUMP JUMPDEST PUSH2 0x1A36 DUP2 DUP7 PUSH2 0x18B6 JUMP JUMPDEST SWAP5 POP PUSH1 0x1 DUP3 AND PUSH0 DUP2 EQ PUSH2 0x1A50 JUMPI PUSH1 0x1 DUP2 EQ PUSH2 0x1A65 JUMPI PUSH2 0x1A97 JUMP JUMPDEST PUSH1 0xFF NOT DUP4 AND DUP7 MSTORE DUP2 ISZERO ISZERO DUP3 MUL DUP7 ADD SWAP4 POP PUSH2 0x1A97 JUMP JUMPDEST PUSH2 0x1A6E DUP6 PUSH2 0x1A0E JUMP JUMPDEST PUSH0 JUMPDEST DUP4 DUP2 LT ISZERO PUSH2 0x1A8F JUMPI DUP2 SLOAD DUP2 DUP10 ADD MSTORE PUSH1 0x1 DUP3 ADD SWAP2 POP PUSH1 0x20 DUP2 ADD SWAP1 POP PUSH2 0x1A70 JUMP JUMPDEST DUP4 DUP9 ADD SWAP6 POP POP POP JUMPDEST POP POP POP SWAP3 SWAP2 POP POP JUMP JUMPDEST PUSH32 0x272043616D706169676E2057617320436F6D706C657465642100000000000000 PUSH0 DUP3 ADD MSTORE POP JUMP JUMPDEST PUSH0 PUSH2 0x1AD4 PUSH1 0x19 DUP4 PUSH2 0x18B6 JUMP JUMPDEST SWAP2 POP PUSH2 0x1ADF DUP3 PUSH2 0x1AA0 JUMP JUMPDEST PUSH1 0x19 DUP3 ADD SWAP1 POP SWAP2 SWAP1 POP JUMP JUMPDEST PUSH0 PUSH2 0x1AF4 DUP3 PUSH2 0x19EC JUMP JUMPDEST SWAP2 POP PUSH2 0x1B00 DUP3 DUP5 PUSH2 0x1A20 JUMP JUMPDEST SWAP2 POP PUSH2 0x1B0B DUP3 PUSH2 0x1AC8 JUMP JUMPDEST SWAP2 POP DUP2 SWAP1 POP SWAP3 SWAP2 POP POP JUMP JUMPDEST PUSH32 0x416D6F756E742043616E6E6F74206265205A65726F0000000000000000000000 PUSH0 DUP3 ADD MSTORE POP JUMP JUMPDEST PUSH0 PUSH2 0x1B4A PUSH1 0x15 DUP4 PUSH2 0x1360 JUMP JUMPDEST SWAP2 POP PUSH2 0x1B55 DUP3 PUSH2 0x1B16 JUMP JUMPDEST PUSH1 0x20 DUP3 ADD SWAP1 POP SWAP2 SWAP1 POP JUMP JUMPDEST PUSH0 PUSH1 0x20 DUP3 ADD SWAP1 POP DUP2 DUP2 SUB PUSH0 DUP4 ADD MSTORE PUSH2 0x1B77 DUP2 PUSH2 0x1B3E JUMP JUMPDEST SWAP1 POP SWAP2 SWAP1 POP JUMP JUMPDEST PUSH32 0x54686520416D6F756E7420646F65736E2774204D617463682100000000000000 PUSH0 DUP3 ADD MSTORE POP JUMP JUMPDEST PUSH0 PUSH2 0x1BB2 PUSH1 0x19 DUP4 PUSH2 0x1360 JUMP JUMPDEST SWAP2 POP PUSH2 0x1BBD DUP3 PUSH2 0x1B7E JUMP JUMPDEST PUSH1 0x20 DUP3 ADD SWAP1 POP SWAP2 SWAP1 POP JUMP JUMPDEST PUSH0 PUSH1 0x20 DUP3 ADD SWAP1 POP DUP2 DUP2 SUB PUSH0 DUP4 ADD MSTORE PUSH2 0x1BDF DUP2 PUSH2 0x1BA6 JUMP JUMPDEST SWAP1 POP SWAP2 SWAP1 POP JUMP JUMPDEST PUSH0 PUSH2 0x1BF0 DUP3 PUSH2 0x12D6 JUMP JUMPDEST SWAP2 POP PUSH2 0x1BFB DUP4 PUSH2 0x12D6 JUMP JUMPDEST SWAP3 POP DUP3 DUP3 ADD SWAP1 POP DUP1 DUP3 GT ISZERO PUSH2 0x1C13 JUMPI PUSH2 0x1C12 PUSH2 0x173E JUMP JUMPDEST JUMPDEST SWAP3 SWAP2 POP POP JUMP JUMPDEST PUSH0 PUSH1 0x40 DUP3 ADD SWAP1 POP PUSH2 0x1C2C PUSH0 DUP4 ADD DUP6 PUSH2 0x13C6 JUMP JUMPDEST PUSH2 0x1C39 PUSH1 0x20 DUP4 ADD DUP5 PUSH2 0x1347 JUMP JUMPDEST SWAP4 SWAP3 POP POP POP JUMP JUMPDEST PUSH32 0x5468657265204973204E6F2043616D706169676E204279205468617420616464 PUSH0 DUP3 ADD MSTORE PUSH32 0x7265737321000000000000000000000000000000000000000000000000000000 PUSH1 0x20 DUP3 ADD MSTORE POP JUMP JUMPDEST PUSH0 PUSH2 0x1C9A PUSH1 0x25 DUP4 PUSH2 0x1360 JUMP JUMPDEST SWAP2 POP PUSH2 0x1CA5 DUP3 PUSH2 0x1C40 JUMP JUMPDEST PUSH1 0x40 DUP3 ADD SWAP1 POP SWAP2 SWAP1 POP JUMP JUMPDEST PUSH0 PUSH1 0x20 DUP3 ADD SWAP1 POP DUP2 DUP2 SUB PUSH0 DUP4 ADD MSTORE PUSH2 0x1CC7 DUP2 PUSH2 0x1C8E JUMP JUMPDEST SWAP1 POP SWAP2 SWAP1 POP JUMP JUMPDEST PUSH32 0x5468652043616D706169676E2053706563696669656420446F6573204E6F7420 PUSH0 DUP3 ADD MSTORE PUSH32 0x4578697374210000000000000000000000000000000000000000000000000000 PUSH1 0x20 DUP3 ADD MSTORE POP JUMP JUMPDEST PUSH0 PUSH2 0x1D28 PUSH1 0x26 DUP4 PUSH2 0x1360 JUMP JUMPDEST SWAP2 POP PUSH2 0x1D33 DUP3 PUSH2 0x1CCE JUMP JUMPDEST PUSH1 0x40 DUP3 ADD SWAP1 POP SWAP2 SWAP1 POP JUMP JUMPDEST PUSH0 PUSH1 0x20 DUP3 ADD SWAP1 POP DUP2 DUP2 SUB PUSH0 DUP4 ADD MSTORE PUSH2 0x1D55 DUP2 PUSH2 0x1D1C JUMP JUMPDEST SWAP1 POP SWAP2 SWAP1 POP JUMP JUMPDEST PUSH32 0x4F6E6C792041646D696E732043616E20506572666F726D205468697320416374 PUSH0 DUP3 ADD MSTORE PUSH32 0x696F6E2100000000000000000000000000000000000000000000000000000000 PUSH1 0x20 DUP3 ADD MSTORE POP JUMP JUMPDEST PUSH0 PUSH2 0x1DB6 PUSH1 0x24 DUP4 PUSH2 0x1360 JUMP JUMPDEST SWAP2 POP PUSH2 0x1DC1 DUP3 PUSH2 0x1D5C JUMP JUMPDEST PUSH1 0x40 DUP3 ADD SWAP1 POP SWAP2 SWAP1 POP JUMP JUMPDEST PUSH0 PUSH1 0x20 DUP3 ADD SWAP1 POP DUP2 DUP2 SUB PUSH0 DUP4 ADD MSTORE PUSH2 0x1DE3 DUP2 PUSH2 0x1DAA JUMP JUMPDEST SWAP1 POP SWAP2 SWAP1 POP JUMP JUMPDEST PUSH32 0x416D6F756E742043616E6E6F74206265205A65726F204F722045786365646420 PUSH0 DUP3 ADD MSTORE PUSH32 0x5468652052616973656420416D6F756E74210000000000000000000000000000 PUSH1 0x20 DUP3 ADD MSTORE POP JUMP JUMPDEST PUSH0 PUSH2 0x1E44 PUSH1 0x32 DUP4 PUSH2 0x1360 JUMP JUMPDEST SWAP2 POP PUSH2 0x1E4F DUP3 PUSH2 0x1DEA JUMP JUMPDEST PUSH1 0x40 DUP3 ADD SWAP1 POP SWAP2 SWAP1 POP JUMP JUMPDEST PUSH0 PUSH1 0x20 DUP3 ADD SWAP1 POP DUP2 DUP2 SUB PUSH0 DUP4 ADD MSTORE PUSH2 0x1E71 DUP2 PUSH2 0x1E38 JUMP JUMPDEST SWAP1 POP SWAP2 SWAP1 POP JUMP JUMPDEST PUSH32 0x596F752043616E27742057697468647261772046756E64732066726F6D20616E PUSH0 DUP3 ADD MSTORE PUSH32 0x204163746976652043616D706169676E00000000000000000000000000000000 PUSH1 0x20 DUP3 ADD MSTORE POP JUMP JUMPDEST PUSH0 PUSH2 0x1ED2 PUSH1 0x30 DUP4 PUSH2 0x1360 JUMP JUMPDEST SWAP2 POP PUSH2 0x1EDD DUP3 PUSH2 0x1E78 JUMP JUMPDEST PUSH1 0x40 DUP3 ADD SWAP1 POP SWAP2 SWAP1 POP JUMP JUMPDEST PUSH0 PUSH1 0x20 DUP3 ADD SWAP1 POP DUP2 DUP2 SUB PUSH0 DUP4 ADD MSTORE PUSH2 0x1EFF DUP2 PUSH2 0x1EC6 JUMP JUMPDEST SWAP1 POP SWAP2 SWAP1 POP JUMP JUMPDEST PUSH0 DUP2 SWAP1 POP SWAP2 SWAP1 POP JUMP JUMPDEST PUSH0 PUSH2 0x1F29 PUSH2 0x1F24 PUSH2 0x1F1F DUP5 PUSH2 0x127C JUMP JUMPDEST PUSH2 0x1F06 JUMP JUMPDEST PUSH2 0x127C JUMP JUMPDEST SWAP1 POP SWAP2 SWAP1 POP JUMP JUMPDEST PUSH0 PUSH2 0x1F3A DUP3 PUSH2 0x1F0F JUMP JUMPDEST SWAP1 POP SWAP2 SWAP1 POP JUMP JUMPDEST PUSH0 PUSH2 0x1F4B DUP3 PUSH2 0x1F30 JUMP JUMPDEST SWAP1 POP SWAP2 SWAP1 POP JUMP JUMPDEST PUSH2 0x1F5B DUP2 PUSH2 0x1F41 JUMP JUMPDEST DUP3 MSTORE POP POP JUMP JUMPDEST PUSH0 PUSH1 0x60 DUP3 ADD SWAP1 POP PUSH2 0x1F74 PUSH0 DUP4 ADD DUP7 PUSH2 0x1347 JUMP JUMPDEST PUSH2 0x1F81 PUSH1 0x20 DUP4 ADD DUP6 PUSH2 0x13C6 JUMP JUMPDEST PUSH2 0x1F8E PUSH1 0x40 DUP4 ADD DUP5 PUSH2 0x1F52 JUMP JUMPDEST SWAP5 SWAP4 POP POP POP POP JUMP JUMPDEST PUSH0 PUSH2 0x1FA0 DUP3 PUSH2 0x1356 JUMP JUMPDEST PUSH2 0x1FAA DUP2 DUP6 PUSH2 0x18B6 JUMP JUMPDEST SWAP4 POP PUSH2 0x1FBA DUP2 DUP6 PUSH1 0x20 DUP7 ADD PUSH2 0x1370 JUMP JUMPDEST DUP1 DUP5 ADD SWAP2 POP POP SWAP3 SWAP2 POP POP JUMP JUMPDEST PUSH0 PUSH2 0x1FD1 DUP3 DUP5 PUSH2 0x1F96 JUMP JUMPDEST SWAP2 POP DUP2 SWAP1 POP SWAP3 SWAP2 POP POP JUMP JUMPDEST PUSH0 DUP2 SWAP1 POP DUP2 PUSH0 MSTORE PUSH1 0x20 PUSH0 KECCAK256 SWAP1 POP SWAP2 SWAP1 POP JUMP JUMPDEST PUSH0 DUP2 SLOAD PUSH2 0x1FFA DUP2 PUSH2 0x1886 JUMP JUMPDEST PUSH2 0x2004 DUP2 DUP7 PUSH2 0x18B6 JUMP JUMPDEST SWAP5 POP PUSH1 0x1 DUP3 AND PUSH0 DUP2 EQ PUSH2 0x201E JUMPI PUSH1 0x1 DUP2 EQ PUSH2 0x2033 JUMPI PUSH2 0x2065 JUMP JUMPDEST PUSH1 0xFF NOT DUP4 AND DUP7 MSTORE DUP2 ISZERO ISZERO DUP3 MUL DUP7 ADD SWAP4 POP PUSH2 0x2065 JUMP JUMPDEST PUSH2 0x203C DUP6 PUSH2 0x1FDC JUMP JUMPDEST PUSH0 JUMPDEST DUP4 DUP2 LT ISZERO PUSH2 0x205D JUMPI DUP2 SLOAD DUP2 DUP10 ADD MSTORE PUSH1 0x1 DUP3 ADD SWAP2 POP PUSH1 0x20 DUP2 ADD SWAP1 POP PUSH2 0x203E JUMP JUMPDEST DUP4 DUP9 ADD SWAP6 POP POP POP JUMPDEST POP POP POP SWAP3 SWAP2 POP POP JUMP JUMPDEST PUSH0 PUSH2 0x2079 DUP3 DUP5 PUSH2 0x1FEE JUMP JUMPDEST SWAP2 POP DUP2 SWAP1 POP SWAP3 SWAP2 POP POP JUMP JUMPDEST PUSH32 0x43616D706169676E200000000000000000000000000000000000000000000000 PUSH0 DUP3 ADD MSTORE POP JUMP JUMPDEST PUSH0 PUSH2 0x20B8 PUSH1 0x9 DUP4 PUSH2 0x18B6 JUMP JUMPDEST SWAP2 POP PUSH2 0x20C3 DUP3 PUSH2 0x2084 JUMP JUMPDEST PUSH1 0x9 DUP3 ADD SWAP1 POP SWAP2 SWAP1 POP JUMP JUMPDEST PUSH32 0x20616C7265616479206578697374732100000000000000000000000000000000 PUSH0 DUP3 ADD MSTORE POP JUMP JUMPDEST PUSH0 PUSH2 0x2102 PUSH1 0x10 DUP4 PUSH2 0x18B6 JUMP JUMPDEST SWAP2 POP PUSH2 0x210D DUP3 PUSH2 0x20CE JUMP JUMPDEST PUSH1 0x10 DUP3 ADD SWAP1 POP SWAP2 SWAP1 POP JUMP JUMPDEST PUSH0 PUSH2 0x2122 DUP3 PUSH2 0x20AC JUMP JUMPDEST SWAP2 POP PUSH2 0x212E DUP3 DUP5 PUSH2 0x1F96 JUMP JUMPDEST SWAP2 POP PUSH2 0x2139 DUP3 PUSH2 0x20F6 JUMP JUMPDEST SWAP2 POP DUP2 SWAP1 POP SWAP3 SWAP2 POP POP JUMP JUMPDEST PUSH0 PUSH1 0x20 PUSH1 0x1F DUP4 ADD DIV SWAP1 POP SWAP2 SWAP1 POP JUMP JUMPDEST PUSH0 DUP3 DUP3 SHL SWAP1 POP SWAP3 SWAP2 POP POP JUMP JUMPDEST PUSH0 PUSH1 0x8 DUP4 MUL PUSH2 0x218E PUSH32 0xFFFFFFFFFFFFFFFFFFFFFFFFFFFFFFFFFFFFFFFFFFFFFFFFFFFFFFFFFFFFFFFF DUP3 PUSH2 0x2153 JUMP JUMPDEST PUSH2 0x2198 DUP7 DUP4 PUSH2 0x2153 JUMP JUMPDEST SWAP6 POP DUP1 NOT DUP5 AND SWAP4 POP DUP1 DUP7 AND DUP5 OR SWAP3 POP POP POP SWAP4 SWAP3 POP POP POP JUMP JUMPDEST PUSH0 PUSH2 0x21CA PUSH2 0x21C5 PUSH2 0x21C0 DUP5 PUSH2 0x12D6 JUMP JUMPDEST PUSH2 0x1F06 JUMP JUMPDEST PUSH2 0x12D6 JUMP JUMPDEST SWAP1 POP SWAP2 SWAP1 POP JUMP JUMPDEST PUSH0 DUP2 SWAP1 POP SWAP2 SWAP1 POP JUMP JUMPDEST PUSH2 0x21E3 DUP4 PUSH2 0x21B0 JUMP JUMPDEST PUSH2 0x21F7 PUSH2 0x21EF DUP3 PUSH2 0x21D1 JUMP JUMPDEST DUP5 DUP5 SLOAD PUSH2 0x215F JUMP JUMPDEST DUP3 SSTORE POP POP POP POP JUMP JUMPDEST PUSH0 SWAP1 JUMP JUMPDEST PUSH2 0x220B PUSH2 0x21FF JUMP JUMPDEST PUSH2 0x2216 DUP2 DUP5 DUP5 PUSH2 0x21DA JUMP JUMPDEST POP POP POP JUMP JUMPDEST JUMPDEST DUP2 DUP2 LT ISZERO PUSH2 0x2239 JUMPI PUSH2 0x222E PUSH0 DUP3 PUSH2 0x2203 JUMP JUMPDEST PUSH1 0x1 DUP2 ADD SWAP1 POP PUSH2 0x221C JUMP JUMPDEST POP POP JUMP JUMPDEST PUSH1 0x1F DUP3 GT ISZERO PUSH2 0x227E JUMPI PUSH2 0x224F DUP2 PUSH2 0x1A0E JUMP JUMPDEST PUSH2 0x2258 DUP5 PUSH2 0x2144 JUMP JUMPDEST DUP2 ADD PUSH1 0x20 DUP6 LT ISZERO PUSH2 0x2267 JUMPI DUP2 SWAP1 POP JUMPDEST PUSH2 0x227B PUSH2 0x2273 DUP6 PUSH2 0x2144 JUMP JUMPDEST DUP4 ADD DUP3 PUSH2 0x221B JUMP JUMPDEST POP POP JUMPDEST POP POP POP JUMP JUMPDEST PUSH0 DUP3 DUP3 SHR SWAP1 POP SWAP3 SWAP2 POP POP JUMP JUMPDEST PUSH0 PUSH2 0x229E PUSH0 NOT DUP5 PUSH1 0x8 MUL PUSH2 0x2283 JUMP JUMPDEST NOT DUP1 DUP4 AND SWAP2 POP POP SWAP3 SWAP2 POP POP JUMP JUMPDEST PUSH0 PUSH2 0x22B6 DUP4 DUP4 PUSH2 0x228F JUMP JUMPDEST SWAP2 POP DUP3 PUSH1 0x2 MUL DUP3 OR SWAP1 POP SWAP3 SWAP2 POP POP JUMP JUMPDEST PUSH2 0x22CF DUP3 PUSH2 0x1356 JUMP JUMPDEST PUSH8 0xFFFFFFFFFFFFFFFF DUP2 GT ISZERO PUSH2 0x22E8 JUMPI PUSH2 0x22E7 PUSH2 0x1592 JUMP JUMPDEST JUMPDEST PUSH2 0x22F2 DUP3 SLOAD PUSH2 0x1886 JUMP JUMPDEST PUSH2 0x22FD DUP3 DUP3 DUP6 PUSH2 0x223D JUMP JUMPDEST PUSH0 PUSH1 0x20 SWAP1 POP PUSH1 0x1F DUP4 GT PUSH1 0x1 DUP2 EQ PUSH2 0x232E JUMPI PUSH0 DUP5 ISZERO PUSH2 0x231C JUMPI DUP3 DUP8 ADD MLOAD SWAP1 POP JUMPDEST PUSH2 0x2326 DUP6 DUP3 PUSH2 0x22AB JUMP JUMPDEST DUP7 SSTORE POP PUSH2 0x238D JUMP JUMPDEST PUSH1 0x1F NOT DUP5 AND PUSH2 0x233C DUP7 PUSH2 0x1A0E JUMP JUMPDEST PUSH0 JUMPDEST DUP3 DUP2 LT ISZERO PUSH2 0x2363 JUMPI DUP5 DUP10 ADD MLOAD DUP3 SSTORE PUSH1 0x1 DUP3 ADD SWAP2 POP PUSH1 0x20 DUP6 ADD SWAP5 POP PUSH1 0x20 DUP2 ADD SWAP1 POP PUSH2 0x233E JUMP JUMPDEST DUP7 DUP4 LT ISZERO PUSH2 0x2380 JUMPI DUP5 DUP10 ADD MLOAD PUSH2 0x237C PUSH1 0x1F DUP10 AND DUP3 PUSH2 0x228F JUMP JUMPDEST DUP4 SSTORE POP JUMPDEST PUSH1 0x1 PUSH1 0x2 DUP9 MUL ADD DUP9 SSTORE POP POP POP JUMPDEST POP POP POP POP POP POP JUMP JUMPDEST PUSH0 PUSH1 0x80 DUP3 ADD SWAP1 POP PUSH2 0x23A8 PUSH0 DUP4 ADD DUP8 PUSH2 0x1347 JUMP JUMPDEST PUSH2 0x23B5 PUSH1 0x20 DUP4 ADD DUP7 PUSH2 0x13C6 JUMP JUMPDEST DUP2 DUP2 SUB PUSH1 0x40 DUP4 ADD MSTORE PUSH2 0x23C7 DUP2 DUP6 PUSH2 0x138E JUMP JUMPDEST SWAP1 POP PUSH2 0x23D6 PUSH1 0x60 DUP4 ADD DUP5 PUSH2 0x1347 JUMP JUMPDEST SWAP6 SWAP5 POP POP POP POP POP JUMP INVALID LOG2 PUSH5 0x6970667358 0x22 SLT KECCAK256 ADD SWAP1 PUSH8 0xA5FE598639CC2CEF 0xC5 SSTORE 0x2F TLOAD MOD 0x26 SWAP11 0xED SAR AND 0xB4 0x4C 0xBD SWAP4 JUMPI EXTCODEHASH PUSH19 0xFD8E0D2764736F6C634300081A003300000000 "
				},
				"gasEstimates": {
					"creation": {
						"codeDepositCost": "1847400",
						"executionCost": "26211",
						"totalCost": "1873611"
					},
					"external": {
						"addCampaignAdmins(address,uint256)": "infinite",
						"admins(address,address)": "infinite",
						"campaigns(address,uint256)": "infinite",
						"createCampaign(string,string,uint256)": "infinite",
						"donateToCampaign(address,uint256,uint256)": "infinite",
						"setAdminValues(address,uint256)": "47044",
						"withdrawFunds(uint256,address)": "infinite"
					}
				},
				"methodIdentifiers": {
					"addCampaignAdmins(address,uint256)": "02091f1c",
					"admins(address,address)": "be21739e",
					"campaigns(address,uint256)": "11555dbc",
					"createCampaign(string,string,uint256)": "ffa56a57",
					"donateToCampaign(address,uint256,uint256)": "5a3915cd",
					"setAdminValues(address,uint256)": "cc1943f0",
					"withdrawFunds(uint256,address)": "744bfe61"
				}
			},
			"storageLayout": {
				"storage": [
					{
						"astId": 3,
						"contract": "contracts/CharityDonation.sol:CharityDonation",
						"label": "contractOwner",
						"offset": 0,
						"slot": "0",
						"type": "t_address"
					},
					{
						"astId": 5,
						"contract": "contracts/CharityDonation.sol:CharityDonation",
						"label": "campaign_ID",
						"offset": 0,
						"slot": "1",
						"type": "t_uint256"
					},
					{
						"astId": 7,
						"contract": "contracts/CharityDonation.sol:CharityDonation",
						"label": "campaign_Address",
						"offset": 0,
						"slot": "2",
						"type": "t_address"
					},
					{
						"astId": 28,
						"contract": "contracts/CharityDonation.sol:CharityDonation",
						"label": "campaigns",
						"offset": 0,
						"slot": "3",
						"type": "t_mapping(t_address,t_array(t_struct(Campaign)22_storage)dyn_storage)"
					},
					{
						"astId": 34,
						"contract": "contracts/CharityDonation.sol:CharityDonation",
						"label": "admins",
						"offset": 0,
						"slot": "4",
						"type": "t_mapping(t_address,t_mapping(t_address,t_bool))"
					}
				],
				"types": {
					"t_address": {
						"encoding": "inplace",
						"label": "address",
						"numberOfBytes": "20"
					},
					"t_array(t_struct(Campaign)22_storage)dyn_storage": {
						"base": "t_struct(Campaign)22_storage",
						"encoding": "dynamic_array",
						"label": "struct CharityDonation.Campaign[]",
						"numberOfBytes": "32"
					},
					"t_bool": {
						"encoding": "inplace",
						"label": "bool",
						"numberOfBytes": "1"
					},
					"t_mapping(t_address,t_array(t_struct(Campaign)22_storage)dyn_storage)": {
						"encoding": "mapping",
						"key": "t_address",
						"label": "mapping(address => struct CharityDonation.Campaign[])",
						"numberOfBytes": "32",
						"value": "t_array(t_struct(Campaign)22_storage)dyn_storage"
					},
					"t_mapping(t_address,t_bool)": {
						"encoding": "mapping",
						"key": "t_address",
						"label": "mapping(address => bool)",
						"numberOfBytes": "32",
						"value": "t_bool"
					},
					"t_mapping(t_address,t_mapping(t_address,t_bool))": {
						"encoding": "mapping",
						"key": "t_address",
						"label": "mapping(address => mapping(address => bool))",
						"numberOfBytes": "32",
						"value": "t_mapping(t_address,t_bool)"
					},
					"t_string_storage": {
						"encoding": "bytes",
						"label": "string",
						"numberOfBytes": "32"
					},
					"t_struct(Campaign)22_storage": {
						"encoding": "inplace",
						"label": "struct CharityDonation.Campaign",
						"members": [
							{
								"astId": 9,
								"contract": "contracts/CharityDonation.sol:CharityDonation",
								"label": "campaign_id",
								"offset": 0,
								"slot": "0",
								"type": "t_uint256"
							},
							{
								"astId": 11,
								"contract": "contracts/CharityDonation.sol:CharityDonation",
								"label": "title",
								"offset": 0,
								"slot": "1",
								"type": "t_string_storage"
							},
							{
								"astId": 13,
								"contract": "contracts/CharityDonation.sol:CharityDonation",
								"label": "description",
								"offset": 0,
								"slot": "2",
								"type": "t_string_storage"
							},
							{
								"astId": 15,
								"contract": "contracts/CharityDonation.sol:CharityDonation",
								"label": "campaignAddress",
								"offset": 0,
								"slot": "3",
								"type": "t_address"
							},
							{
								"astId": 17,
								"contract": "contracts/CharityDonation.sol:CharityDonation",
								"label": "targetAmount",
								"offset": 0,
								"slot": "4",
								"type": "t_uint256"
							},
							{
								"astId": 19,
								"contract": "contracts/CharityDonation.sol:CharityDonation",
								"label": "raisedAmount",
								"offset": 0,
								"slot": "5",
								"type": "t_uint256"
							},
							{
								"astId": 21,
								"contract": "contracts/CharityDonation.sol:CharityDonation",
								"label": "isCompleted",
								"offset": 0,
								"slot": "6",
								"type": "t_bool"
							}
						],
						"numberOfBytes": "224"
					},
					"t_uint256": {
						"encoding": "inplace",
						"label": "uint256",
						"numberOfBytes": "32"
					}
				}
			},
			"userdoc": {
				"kind": "user",
				"methods": {},
				"version": 1
			}
		}
	}
}