{
	"data": {
		"bytecode": {
			"linkReferences": {},
			"object": "6080604052348015600e575f80fd5b503360065f6101000a81548173ffffffffffffffffffffffffffffffffffffffff021916908373ffffffffffffffffffffffffffffffffffffffff160217905550614cd78061005c5f395ff3fe6080604052600436106100dc575f3560e01c80639b56f5f01161007e578063be21739e11610058578063be21739e146102c5578063c14b8aac14610301578063e6c9099a14610329578063f1694aa114610366576100dc565b80639b56f5f014610236578063a318f26914610275578063be18fda61461029d576100dc565b806339e9412f116100ba57806339e9412f14610188578063422b1077146101b05780635a3915cd146101f05780636f9fb98a1461020c576100dc565b806311555dbc146100e05780631f55e5bc14610124578063215c0bbb14610160575b5f80fd5b3480156100eb575f80fd5b50610106600480360381019061010191906132aa565b61038e565b60405161011b99989796959493929190613390565b60405180910390f35b34801561012f575f80fd5b5061014a600480360381019061014591906132aa565b610535565b6040516101579190613429565b60405180910390f35b34801561016b575f80fd5b5061018660048036038101906101819190613442565b61057d565b005b348015610193575f80fd5b506101ae60048036038101906101a99190613442565b610de7565b005b3480156101bb575f80fd5b506101d660048036038101906101d191906132aa565b61136b565b6040516101e7959493929190613480565b60405180910390f35b61020a60048036038101906102059190613513565b61147b565b005b348015610217575f80fd5b50610220611e3f565b60405161022d9190613563565b60405180910390f35b348015610241575f80fd5b5061025c600480360381019061025791906132aa565b611ed5565b60405161026c949392919061357c565b60405180910390f35b348015610280575f80fd5b5061029b600480360381019061029691906136f2565b611fc0565b005b3480156102a8575f80fd5b506102c360048036038101906102be919061378e565b6123c9565b005b3480156102d0575f80fd5b506102eb60048036038101906102e691906137b9565b612660565b6040516102f891906137f7565b60405180910390f35b34801561030c575f80fd5b5061032760048036038101906103229190613810565b61268a565b005b348015610334575f80fd5b5061034f600480360381019061034a9190613874565b612e66565b60405161035d9291906138c4565b60405180910390f35b348015610371575f80fd5b5061038c6004803603810190610387919061378e565b612eca565b005b5f602052815f5260405f2081815481106103a6575f80fd5b905f5260205f2090600802015f9150915050805f0154908060010180546103cc90613918565b80601f01602080910402602001604051908101604052809291908181526020018280546103f890613918565b80156104435780601f1061041a57610100808354040283529160200191610443565b820191905f5260205f20905b81548152906001019060200180831161042657829003601f168201915b50505050509080600201805461045890613918565b80601f016020809104026020016040519081016040528092919081815260200182805461048490613918565b80156104cf5780601f106104a6576101008083540402835291602001916104cf565b820191905f5260205f20905b8154815290600101906020018083116104b257829003601f168201915b505050505090806003015f9054906101000a900473ffffffffffffffffffffffffffffffffffffffff1690806004015490806005015490806006015490806007015f9054906101000a900460ff16908060070160019054906101000a900460ff16905089565b6002602052815f5260405f20818154811061054e575f80fd5b905f5260205f20015f915091509054906101000a900473ffffffffffffffffffffffffffffffffffffffff1681565b80825f805f8473ffffffffffffffffffffffffffffffffffffffff1673ffffffffffffffffffffffffffffffffffffffff1681526020019081526020015f208054905011610600576040517f08c379a00000000000000000000000000000000000000000000000000000000081526004016105f7906139b8565b60405180910390fd5b805f808473ffffffffffffffffffffffffffffffffffffffff1673ffffffffffffffffffffffffffffffffffffffff1681526020019081526020015f2060018361064a9190613a03565b8154811061065b5761065a613a36565b5b905f5260205f2090600802015f0154146106aa576040517f08c379a00000000000000000000000000000000000000000000000000000000081526004016106a190613ad3565b60405180910390fd5b60015f8373ffffffffffffffffffffffffffffffffffffffff1673ffffffffffffffffffffffffffffffffffffffff1681526020019081526020015f205f3373ffffffffffffffffffffffffffffffffffffffff1673ffffffffffffffffffffffffffffffffffffffff1681526020019081526020015f205f9054906101000a900460ff1661076e576040517f08c379a000000000000000000000000000000000000000000000000000000000815260040161076590613b61565b60405180910390fd5b5f805f8573ffffffffffffffffffffffffffffffffffffffff1673ffffffffffffffffffffffffffffffffffffffff1681526020019081526020015f206001866107b89190613a03565b815481106107c9576107c8613a36565b5b905f5260205f209060080201604051806101200160405290815f82015481526020016001820180546107fa90613918565b80601f016020809104026020016040519081016040528092919081815260200182805461082690613918565b80156108715780601f1061084857610100808354040283529160200191610871565b820191905f5260205f20905b81548152906001019060200180831161085457829003601f168201915b5050505050815260200160028201805461088a90613918565b80601f01602080910402602001604051908101604052809291908181526020018280546108b690613918565b80156109015780601f106108d857610100808354040283529160200191610901565b820191905f5260205f20905b8154815290600101906020018083116108e457829003601f168201915b50505050508152602001600382015f9054906101000a900473ffffffffffffffffffffffffffffffffffffffff1673ffffffffffffffffffffffffffffffffffffffff1673ffffffffffffffffffffffffffffffffffffffff168152602001600482015481526020016005820154815260200160068201548152602001600782015f9054906101000a900460ff161515151581526020016007820160019054906101000a900460ff161515151581525050905080608001518160a00151106109fe576040517f08c379a00000000000000000000000000000000000000000000000000000000081526004016109f590613bef565b60405180910390fd5b8060a00151471015610a45576040517f08c379a0000000000000000000000000000000000000000000000000000000008152600401610a3c90613c57565b60405180910390fd5b5f60055f8673ffffffffffffffffffffffffffffffffffffffff1673ffffffffffffffffffffffffffffffffffffffff1681526020019081526020015f205f8781526020019081526020015f2090505f80805f5b8480549050811015610d21575f858281548110610ab957610ab8613a36565b5b905f5260205f2090600202016001015490505f868381548110610adf57610ade613a36565b5b905f5260205f2090600202015f015f9054906101000a900473ffffffffffffffffffffffffffffffffffffffff1690505f808c73ffffffffffffffffffffffffffffffffffffffff1673ffffffffffffffffffffffffffffffffffffffff1681526020019081526020015f2060018d610b589190613a03565b81548110610b6957610b68613a36565b5b905f5260205f2090600802016005015494508185610b879190613a03565b9350835f808d73ffffffffffffffffffffffffffffffffffffffff1673ffffffffffffffffffffffffffffffffffffffff1681526020019081526020015f2060018e610bd39190613a03565b81548110610be457610be3613a36565b5b905f5260205f209060080201600501819055505f878481548110610c0b57610c0a613a36565b5b905f5260205f209060020201600101819055505f8173ffffffffffffffffffffffffffffffffffffffff1683604051610c4390613ca2565b5f6040518083038185875af1925050503d805f8114610c7d576040519150601f19603f3d011682016040523d82523d5f602084013e610c82565b606091505b5050905080610cc6576040517f08c379a0000000000000000000000000000000000000000000000000000000008152600401610cbd90613d00565b60405180910390fd5b8287610cd29190613d1e565b96507fc7106caa0225138e1482298fe211390f77622cb0be261616f08271e23660553d8c8e8486604051610d099493929190613d51565b60405180910390a15050508080600101915050610a99565b50828560a00151148015610d9d57505f805f8a73ffffffffffffffffffffffffffffffffffffffff1673ffffffffffffffffffffffffffffffffffffffff1681526020019081526020015f2060018b610d7a9190613a03565b81548110610d8b57610d8a613a36565b5b905f5260205f20906008020160050154145b610ddc576040517f08c379a0000000000000000000000000000000000000000000000000000000008152600401610dd390613dde565b60405180910390fd5b505050505050505050565b80825f805f8473ffffffffffffffffffffffffffffffffffffffff1673ffffffffffffffffffffffffffffffffffffffff1681526020019081526020015f208054905011610e6a576040517f08c379a0000000000000000000000000000000000000000000000000000000008152600401610e61906139b8565b60405180910390fd5b805f808473ffffffffffffffffffffffffffffffffffffffff1673ffffffffffffffffffffffffffffffffffffffff1681526020019081526020015f20600183610eb49190613a03565b81548110610ec557610ec4613a36565b5b905f5260205f2090600802015f015414610f14576040517f08c379a0000000000000000000000000000000000000000000000000000000008152600401610f0b90613ad3565b60405180910390fd5b60015f8373ffffffffffffffffffffffffffffffffffffffff1673ffffffffffffffffffffffffffffffffffffffff1681526020019081526020015f205f3373ffffffffffffffffffffffffffffffffffffffff1673ffffffffffffffffffffffffffffffffffffffff1681526020019081526020015f205f9054906101000a900460ff16610fd8576040517f08c379a0000000000000000000000000000000000000000000000000000000008152600401610fcf90613b61565b60405180910390fd5b5f805f8573ffffffffffffffffffffffffffffffffffffffff1673ffffffffffffffffffffffffffffffffffffffff1681526020019081526020015f206001866110229190613a03565b8154811061103357611032613a36565b5b905f5260205f209060080201604051806101200160405290815f820154815260200160018201805461106490613918565b80601f016020809104026020016040519081016040528092919081815260200182805461109090613918565b80156110db5780601f106110b2576101008083540402835291602001916110db565b820191905f5260205f20905b8154815290600101906020018083116110be57829003601f168201915b505050505081526020016002820180546110f490613918565b80601f016020809104026020016040519081016040528092919081815260200182805461112090613918565b801561116b5780601f106111425761010080835404028352916020019161116b565b820191905f5260205f20905b81548152906001019060200180831161114e57829003601f168201915b50505050508152602001600382015f9054906101000a900473ffffffffffffffffffffffffffffffffffffffff1673ffffffffffffffffffffffffffffffffffffffff1673ffffffffffffffffffffffffffffffffffffffff168152602001600482015481526020016005820154815260200160068201548152602001600782015f9054906101000a900460ff161515151581526020016007820160019054906101000a900460ff16151515158152505090505f8160a0015114611264576040517f08c379a000000000000000000000000000000000000000000000000000000000815260040161125b90613e92565b60405180910390fd5b8060e00151156112a9576040517f08c379a00000000000000000000000000000000000000000000000000000000081526004016112a090613f20565b60405180910390fd5b60015f808673ffffffffffffffffffffffffffffffffffffffff1673ffffffffffffffffffffffffffffffffffffffff1681526020019081526020015f206001876112f49190613a03565b8154811061130557611304613a36565b5b905f5260205f20906008020160070160016101000a81548160ff0219169083151502179055507fddf13b23f5aa44ed82e83c974bb182744638f745e4bcf56ac5343bc41a67ad55848660405161135c9291906138c4565b60405180910390a15050505050565b6004602052815f5260405f208181548110611384575f80fd5b905f5260205f2090600502015f9150915050805f0154908060010180546113aa90613918565b80601f01602080910402602001604051908101604052809291908181526020018280546113d690613918565b80156114215780601f106113f857610100808354040283529160200191611421565b820191905f5260205f20905b81548152906001019060200180831161140457829003601f168201915b505050505090806002015490806003015f9054906101000a900473ffffffffffffffffffffffffffffffffffffffff1690806004015f9054906101000a900473ffffffffffffffffffffffffffffffffffffffff16905085565b815f808573ffffffffffffffffffffffffffffffffffffffff1673ffffffffffffffffffffffffffffffffffffffff1681526020019081526020015f206001846114c59190613a03565b815481106114d6576114d5613a36565b5b905f5260205f2090600802015f015414826040516020016114f79190613ffc565b60405160208183030381529060405290611547576040517f08c379a000000000000000000000000000000000000000000000000000000000815260040161153e919061402c565b60405180910390fd5b505f808473ffffffffffffffffffffffffffffffffffffffff1673ffffffffffffffffffffffffffffffffffffffff1681526020019081526020015f206001836115919190613a03565b815481106115a2576115a1613a36565b5b905f5260205f2090600802016006015442106115f3576040517f08c379a00000000000000000000000000000000000000000000000000000000081526004016115ea906140bc565b60405180910390fd5b5f808473ffffffffffffffffffffffffffffffffffffffff1673ffffffffffffffffffffffffffffffffffffffff1681526020019081526020015f2060018361163c9190613a03565b8154811061164d5761164c613a36565b5b905f5260205f20906008020160070160019054906101000a900460ff16155f808573ffffffffffffffffffffffffffffffffffffffff1673ffffffffffffffffffffffffffffffffffffffff1681526020019081526020015f206001846116b49190613a03565b815481106116c5576116c4613a36565b5b905f5260205f2090600802016001016040516020016116e49190614200565b60405160208183030381529060405290611734576040517f08c379a000000000000000000000000000000000000000000000000000000000815260040161172b919061402c565b60405180910390fd5b505f808473ffffffffffffffffffffffffffffffffffffffff1673ffffffffffffffffffffffffffffffffffffffff1681526020019081526020015f2060018361177e9190613a03565b8154811061178f5761178e613a36565b5b905f5260205f2090600802016007015f9054906101000a900460ff16155f808573ffffffffffffffffffffffffffffffffffffffff1673ffffffffffffffffffffffffffffffffffffffff1681526020019081526020015f206001846117f59190613a03565b8154811061180657611805613a36565b5b905f5260205f2090600802016001016040516020016118259190614276565b60405160208183030381529060405290611875576040517f08c379a000000000000000000000000000000000000000000000000000000000815260040161186c919061402c565b60405180910390fd5b505f81116118b8576040517f08c379a00000000000000000000000000000000000000000000000000000000081526004016118af906142ec565b60405180910390fd5b8034146118fa576040517f08c379a00000000000000000000000000000000000000000000000000000000081526004016118f19061437a565b60405180910390fd5b805f808573ffffffffffffffffffffffffffffffffffffffff1673ffffffffffffffffffffffffffffffffffffffff1681526020019081526020015f206001846119449190613a03565b8154811061195557611954613a36565b5b905f5260205f2090600802016005015f8282546119729190613d1e565b925050819055505f808473ffffffffffffffffffffffffffffffffffffffff1673ffffffffffffffffffffffffffffffffffffffff1681526020019081526020015f206001836119c29190613a03565b815481106119d3576119d2613a36565b5b905f5260205f209060080201600401545f808573ffffffffffffffffffffffffffffffffffffffff1673ffffffffffffffffffffffffffffffffffffffff1681526020019081526020015f20600184611a2c9190613a03565b81548110611a3d57611a3c613a36565b5b905f5260205f2090600802016005015410611b0d5760015f808573ffffffffffffffffffffffffffffffffffffffff1673ffffffffffffffffffffffffffffffffffffffff1681526020019081526020015f20600184611a9d9190613a03565b81548110611aae57611aad613a36565b5b905f5260205f2090600802016007015f6101000a81548160ff0219169083151502179055507f8559b4dc0428ef20b1a5974fff4845e3163bfbec589128d75c7da62148fbd8ae8383604051611b049291906143f3565b60405180910390a15b5f60405180608001604052808573ffffffffffffffffffffffffffffffffffffffff1681526020018481526020015f808773ffffffffffffffffffffffffffffffffffffffff1673ffffffffffffffffffffffffffffffffffffffff1681526020019081526020015f20600186611b849190613a03565b81548110611b9557611b94613a36565b5b905f5260205f2090600802016001018054611baf90613918565b80601f0160208091040260200160405190810160405280929190818152602001828054611bdb90613918565b8015611c265780601f10611bfd57610100808354040283529160200191611c26565b820191905f5260205f20905b815481529060010190602001808311611c0957829003601f168201915b5050505050815260200183815250905060035f3373ffffffffffffffffffffffffffffffffffffffff1673ffffffffffffffffffffffffffffffffffffffff1681526020019081526020015f2081908060018154018082558091505060019003905f5260205f2090600402015f909190919091505f820151815f015f6101000a81548173ffffffffffffffffffffffffffffffffffffffff021916908373ffffffffffffffffffffffffffffffffffffffff160217905550602082015181600101556040820151816002019081611cfd919061459c565b506060820151816003015550505f60405180604001604052803373ffffffffffffffffffffffffffffffffffffffff16815260200184815250905060055f8673ffffffffffffffffffffffffffffffffffffffff1673ffffffffffffffffffffffffffffffffffffffff1681526020019081526020015f205f8581526020019081526020015f2081908060018154018082558091505060019003905f5260205f2090600202015f909190919091505f820151815f015f6101000a81548173ffffffffffffffffffffffffffffffffffffffff021916908373ffffffffffffffffffffffffffffffffffffffff1602179055506020820151816001015550507fbe0281dcb233d52d4d243d0d6ff4ed47e8641aecf85b98611ade1c9307186b7d33848787604051611e30949392919061466b565b60405180910390a15050505050565b5f60065f9054906101000a900473ffffffffffffffffffffffffffffffffffffffff1673ffffffffffffffffffffffffffffffffffffffff163373ffffffffffffffffffffffffffffffffffffffff1614611ecf576040517f08c379a0000000000000000000000000000000000000000000000000000000008152600401611ec69061471e565b60405180910390fd5b47905090565b6003602052815f5260405f208181548110611eee575f80fd5b905f5260205f2090600402015f9150915050805f015f9054906101000a900473ffffffffffffffffffffffffffffffffffffffff1690806001015490806002018054611f3990613918565b80601f0160208091040260200160405190810160405280929190818152602001828054611f6590613918565b8015611fb05780601f10611f8757610100808354040283529160200191611fb0565b820191905f5260205f20905b815481529060010190602001808311611f9357829003601f168201915b5050505050908060030154905084565b5f5b5f803373ffffffffffffffffffffffffffffffffffffffff1673ffffffffffffffffffffffffffffffffffffffff1681526020019081526020015f208054905081101561212c575f805f3373ffffffffffffffffffffffffffffffffffffffff1673ffffffffffffffffffffffffffffffffffffffff1681526020019081526020015f20828154811061205857612057613a36565b5b905f5260205f20906008020160010190505f8660405160200161207b919061476c565b60405160208183030381529060405280519060200120826040516020016120a29190614814565b60405160208183030381529060405280519060200120149050801561211d57866040516020016120d291906148be565b6040516020818303038152906040526040517f08c379a0000000000000000000000000000000000000000000000000000000008152600401612114919061402c565b60405180910390fd5b50508080600101915050611fc2565b505f60405180610120016040528060015f803373ffffffffffffffffffffffffffffffffffffffff1673ffffffffffffffffffffffffffffffffffffffff1681526020019081526020015f20805490506121869190613d1e565b81526020018681526020018581526020013373ffffffffffffffffffffffffffffffffffffffff1681526020018481526020015f815260200162015180846121ce91906148ea565b426121d99190613d1e565b81526020015f151581526020015f151581525090505f803373ffffffffffffffffffffffffffffffffffffffff1673ffffffffffffffffffffffffffffffffffffffff1681526020019081526020015f2081908060018154018082558091505060019003905f5260205f2090600802015f909190919091505f820151815f0155602082015181600101908161226e919061459c565b506040820151816002019081612284919061459c565b506060820151816003015f6101000a81548173ffffffffffffffffffffffffffffffffffffffff021916908373ffffffffffffffffffffffffffffffffffffffff1602179055506080820151816004015560a0820151816005015560c0820151816006015560e0820151816007015f6101000a81548160ff0219169083151502179055506101008201518160070160016101000a81548160ff02191690831515021790555050507fdc26653af5b99b2da33e2ad69ee6600d9aeccc82b034501db4338309615ca2385f803373ffffffffffffffffffffffffffffffffffffffff1673ffffffffffffffffffffffffffffffffffffffff1681526020019081526020015f2080549050338786620151808761239e91906148ea565b426123a99190613d1e565b6040516123ba95949392919061492b565b60405180910390a15050505050565b8073ffffffffffffffffffffffffffffffffffffffff163373ffffffffffffffffffffffffffffffffffffffff1603612437576040517f08c379a000000000000000000000000000000000000000000000000000000000815260040161242e906149f3565b60405180910390fd5b60015f3373ffffffffffffffffffffffffffffffffffffffff1673ffffffffffffffffffffffffffffffffffffffff1681526020019081526020015f205f8273ffffffffffffffffffffffffffffffffffffffff1673ffffffffffffffffffffffffffffffffffffffff1681526020019081526020015f205f9054906101000a900460ff16156124fc576040517f08c379a00000000000000000000000000000000000000000000000000000000081526004016124f390614a81565b60405180910390fd5b6001805f3373ffffffffffffffffffffffffffffffffffffffff1673ffffffffffffffffffffffffffffffffffffffff1681526020019081526020015f205f8373ffffffffffffffffffffffffffffffffffffffff1673ffffffffffffffffffffffffffffffffffffffff1681526020019081526020015f205f6101000a81548160ff02191690831515021790555060025f3373ffffffffffffffffffffffffffffffffffffffff1673ffffffffffffffffffffffffffffffffffffffff1681526020019081526020015f2081908060018154018082558091505060019003905f5260205f20015f9091909190916101000a81548173ffffffffffffffffffffffffffffffffffffffff021916908373ffffffffffffffffffffffffffffffffffffffff1602179055507fad6de4452a631e641cb59902236607946ce9272b9b981f2f80e8d129cb9084ba816040516126559190613429565b60405180910390a150565b6001602052815f5260405f20602052805f5260405f205f915091509054906101000a900460ff1681565b82845f805f8473ffffffffffffffffffffffffffffffffffffffff1673ffffffffffffffffffffffffffffffffffffffff1681526020019081526020015f20805490501161270d576040517f08c379a0000000000000000000000000000000000000000000000000000000008152600401612704906139b8565b60405180910390fd5b805f808473ffffffffffffffffffffffffffffffffffffffff1673ffffffffffffffffffffffffffffffffffffffff1681526020019081526020015f206001836127579190613a03565b8154811061276857612767613a36565b5b905f5260205f2090600802015f0154146127b7576040517f08c379a00000000000000000000000000000000000000000000000000000000081526004016127ae90613ad3565b60405180910390fd5b60015f8373ffffffffffffffffffffffffffffffffffffffff1673ffffffffffffffffffffffffffffffffffffffff1681526020019081526020015f205f3373ffffffffffffffffffffffffffffffffffffffff1673ffffffffffffffffffffffffffffffffffffffff1681526020019081526020015f205f9054906101000a900460ff1661287b576040517f08c379a000000000000000000000000000000000000000000000000000000000815260040161287290613b61565b60405180910390fd5b5f808673ffffffffffffffffffffffffffffffffffffffff1673ffffffffffffffffffffffffffffffffffffffff1681526020019081526020015f206001876128c49190613a03565b815481106128d5576128d4613a36565b5b905f5260205f2090600802016007015f9054906101000a900460ff16612930576040517f08c379a000000000000000000000000000000000000000000000000000000000815260040161292790614b0f565b60405180910390fd5b83471015612973576040517f08c379a000000000000000000000000000000000000000000000000000000000815260040161296a90613c57565b60405180910390fd5b5f841180156129eb57505f808673ffffffffffffffffffffffffffffffffffffffff1673ffffffffffffffffffffffffffffffffffffffff1681526020019081526020015f206001876129c69190613a03565b815481106129d7576129d6613a36565b5b905f5260205f209060080201600501548411155b612a2a576040517f08c379a0000000000000000000000000000000000000000000000000000000008152600401612a2190614b9d565b60405180910390fd5b5f805f8773ffffffffffffffffffffffffffffffffffffffff1673ffffffffffffffffffffffffffffffffffffffff1681526020019081526020015f20600188612a749190613a03565b81548110612a8557612a84613a36565b5b905f5260205f2090600802016005015490505f8582612aa49190613a03565b9050805f808973ffffffffffffffffffffffffffffffffffffffff1673ffffffffffffffffffffffffffffffffffffffff1681526020019081526020015f2060018a612af09190613a03565b81548110612b0157612b00613a36565b5b905f5260205f209060080201600501819055505f8573ffffffffffffffffffffffffffffffffffffffff1687604051612b3990613ca2565b5f6040518083038185875af1925050503d805f8114612b73576040519150601f19603f3d011682016040523d82523d5f602084013e612b78565b606091505b5050905080612bbc576040517f08c379a0000000000000000000000000000000000000000000000000000000008152600401612bb390613d00565b60405180910390fd5b5f6040518060a001604052808b81526020015f808c73ffffffffffffffffffffffffffffffffffffffff1673ffffffffffffffffffffffffffffffffffffffff1681526020019081526020015f2060018d612c179190613a03565b81548110612c2857612c27613a36565b5b905f5260205f2090600802016001018054612c4290613918565b80601f0160208091040260200160405190810160405280929190818152602001828054612c6e90613918565b8015612cb95780601f10612c9057610100808354040283529160200191612cb9565b820191905f5260205f20905b815481529060010190602001808311612c9c57829003601f168201915b505050505081526020018981526020013373ffffffffffffffffffffffffffffffffffffffff1681526020018873ffffffffffffffffffffffffffffffffffffffff16815250905060045f8a73ffffffffffffffffffffffffffffffffffffffff1673ffffffffffffffffffffffffffffffffffffffff1681526020019081526020015f2081908060018154018082558091505060019003905f5260205f2090600502015f909190919091505f820151815f01556020820151816001019081612d82919061459c565b50604082015181600201556060820151816003015f6101000a81548173ffffffffffffffffffffffffffffffffffffffff021916908373ffffffffffffffffffffffffffffffffffffffff1602179055506080820151816004015f6101000a81548173ffffffffffffffffffffffffffffffffffffffff021916908373ffffffffffffffffffffffffffffffffffffffff16021790555050507ffb301322f68b8ea04d2b6a3ab0a1a0100d7be758e7ffa771d5539a256b92d10d8833898c8e604051612e52959493929190614bbb565b60405180910390a150505050505050505050565b6005602052825f5260405f20602052815f5260405f208181548110612e89575f80fd5b905f5260205f2090600202015f925092505050805f015f9054906101000a900473ffffffffffffffffffffffffffffffffffffffff16908060010154905082565b60015f3373ffffffffffffffffffffffffffffffffffffffff1673ffffffffffffffffffffffffffffffffffffffff1681526020019081526020015f205f8273ffffffffffffffffffffffffffffffffffffffff1673ffffffffffffffffffffffffffffffffffffffff1681526020019081526020015f205f9054906101000a900460ff16612f8e576040517f08c379a0000000000000000000000000000000000000000000000000000000008152600401612f8590614c56565b60405180910390fd5b5f60015f3373ffffffffffffffffffffffffffffffffffffffff1673ffffffffffffffffffffffffffffffffffffffff1681526020019081526020015f205f8373ffffffffffffffffffffffffffffffffffffffff1673ffffffffffffffffffffffffffffffffffffffff1681526020019081526020015f205f6101000a81548160ff0219169083151502179055505f60025f3373ffffffffffffffffffffffffffffffffffffffff1673ffffffffffffffffffffffffffffffffffffffff1681526020019081526020015f2090505f5b81805490508110156131d0578273ffffffffffffffffffffffffffffffffffffffff1682828154811061309557613094613a36565b5b905f5260205f20015f9054906101000a900473ffffffffffffffffffffffffffffffffffffffff1673ffffffffffffffffffffffffffffffffffffffff16036131c35781600183805490506130ea9190613a03565b815481106130fb576130fa613a36565b5b905f5260205f20015f9054906101000a900473ffffffffffffffffffffffffffffffffffffffff1682828154811061313657613135613a36565b5b905f5260205f20015f6101000a81548173ffffffffffffffffffffffffffffffffffffffff021916908373ffffffffffffffffffffffffffffffffffffffff1602179055508180548061318c5761318b614c74565b5b600190038181905f5260205f20015f6101000a81549073ffffffffffffffffffffffffffffffffffffffff021916905590556131d0565b808060010191505061305f565b507f753f40ca3312b2408759a67875b367955e7baa221daf08aa3d643d96202ac12b826040516132009190613429565b60405180910390a15050565b5f604051905090565b5f80fd5b5f80fd5b5f73ffffffffffffffffffffffffffffffffffffffff82169050919050565b5f6132468261321d565b9050919050565b6132568161323c565b8114613260575f80fd5b50565b5f813590506132718161324d565b92915050565b5f819050919050565b61328981613277565b8114613293575f80fd5b50565b5f813590506132a481613280565b92915050565b5f80604083850312156132c0576132bf613215565b5b5f6132cd85828601613263565b92505060206132de85828601613296565b9150509250929050565b6132f181613277565b82525050565b5f81519050919050565b5f82825260208201905092915050565b8281835e5f83830152505050565b5f601f19601f8301169050919050565b5f613339826132f7565b6133438185613301565b9350613353818560208601613311565b61335c8161331f565b840191505092915050565b6133708161323c565b82525050565b5f8115159050919050565b61338a81613376565b82525050565b5f610120820190506133a45f83018c6132e8565b81810360208301526133b6818b61332f565b905081810360408301526133ca818a61332f565b90506133d96060830189613367565b6133e660808301886132e8565b6133f360a08301876132e8565b61340060c08301866132e8565b61340d60e0830185613381565b61341b610100830184613381565b9a9950505050505050505050565b5f60208201905061343c5f830184613367565b92915050565b5f806040838503121561345857613457613215565b5b5f61346585828601613296565b925050602061347685828601613263565b9150509250929050565b5f60a0820190506134935f8301886132e8565b81810360208301526134a5818761332f565b90506134b460408301866132e8565b6134c16060830185613367565b6134ce6080830184613367565b9695505050505050565b5f6134e28261321d565b9050919050565b6134f2816134d8565b81146134fc575f80fd5b50565b5f8135905061350d816134e9565b92915050565b5f805f6060848603121561352a57613529613215565b5b5f613537868287016134ff565b935050602061354886828701613296565b925050604061355986828701613296565b9150509250925092565b5f6020820190506135765f8301846132e8565b92915050565b5f60808201905061358f5f830187613367565b61359c60208301866132e8565b81810360408301526135ae818561332f565b90506135bd60608301846132e8565b95945050505050565b5f80fd5b5f80fd5b7f4e487b71000000000000000000000000000000000000000000000000000000005f52604160045260245ffd5b6136048261331f565b810181811067ffffffffffffffff82111715613623576136226135ce565b5b80604052505050565b5f61363561320c565b905061364182826135fb565b919050565b5f67ffffffffffffffff8211156136605761365f6135ce565b5b6136698261331f565b9050602081019050919050565b828183375f83830152505050565b5f61369661369184613646565b61362c565b9050828152602081018484840111156136b2576136b16135ca565b5b6136bd848285613676565b509392505050565b5f82601f8301126136d9576136d86135c6565b5b81356136e9848260208601613684565b91505092915050565b5f805f806080858703121561370a57613709613215565b5b5f85013567ffffffffffffffff81111561372757613726613219565b5b613733878288016136c5565b945050602085013567ffffffffffffffff81111561375457613753613219565b5b613760878288016136c5565b935050604061377187828801613296565b925050606061378287828801613296565b91505092959194509250565b5f602082840312156137a3576137a2613215565b5b5f6137b084828501613263565b91505092915050565b5f80604083850312156137cf576137ce613215565b5b5f6137dc85828601613263565b92505060206137ed85828601613263565b9150509250929050565b5f60208201905061380a5f830184613381565b92915050565b5f805f806080858703121561382857613827613215565b5b5f61383587828801613296565b945050602061384687828801613263565b935050604061385787828801613296565b9250506060613868878288016134ff565b91505092959194509250565b5f805f6060848603121561388b5761388a613215565b5b5f61389886828701613263565b93505060206138a986828701613296565b92505060406138ba86828701613296565b9150509250925092565b5f6040820190506138d75f830185613367565b6138e460208301846132e8565b9392505050565b7f4e487b71000000000000000000000000000000000000000000000000000000005f52602260045260245ffd5b5f600282049050600182168061392f57607f821691505b602082108103613942576139416138eb565b5b50919050565b7f5468657265204973204e6f2043616d706169676e2042792054686174206164645f8201527f7265737321000000000000000000000000000000000000000000000000000000602082015250565b5f6139a2602583613301565b91506139ad82613948565b604082019050919050565b5f6020820190508181035f8301526139cf81613996565b9050919050565b7f4e487b71000000000000000000000000000000000000000000000000000000005f52601160045260245ffd5b5f613a0d82613277565b9150613a1883613277565b9250828203905081811115613a3057613a2f6139d6565b5b92915050565b7f4e487b71000000000000000000000000000000000000000000000000000000005f52603260045260245ffd5b7f5468652043616d706169676e2053706563696669656420446f6573204e6f74205f8201527f4578697374210000000000000000000000000000000000000000000000000000602082015250565b5f613abd602683613301565b9150613ac882613a63565b604082019050919050565b5f6020820190508181035f830152613aea81613ab1565b9050919050565b7f4f6e6c792041646d696e732043616e20506572666f726d2054686973204163745f8201527f696f6e2100000000000000000000000000000000000000000000000000000000602082015250565b5f613b4b602483613301565b9150613b5682613af1565b604082019050919050565b5f6020820190508181035f830152613b7881613b3f565b9050919050565b7f546869732043616d706169676e204973205375636365737366756c2043616e6e5f8201527f6f742062652043616e63656c6c65642100000000000000000000000000000000602082015250565b5f613bd9603083613301565b9150613be482613b7f565b604082019050919050565b5f6020820190508181035f830152613c0681613bcd565b9050919050565b7f496e73756666696369656e7420636f6e74726163742062616c616e63650000005f82015250565b5f613c41601d83613301565b9150613c4c82613c0d565b602082019050919050565b5f6020820190508181035f830152613c6e81613c35565b9050919050565b5f81905092915050565b50565b5f613c8d5f83613c75565b9150613c9882613c7f565b5f82019050919050565b5f613cac82613c82565b9150819050919050565b7f5472616e73666572206661696c656400000000000000000000000000000000005f82015250565b5f613cea600f83613301565b9150613cf582613cb6565b602082019050919050565b5f6020820190508181035f830152613d1781613cde565b9050919050565b5f613d2882613277565b9150613d3383613277565b9250828201905080821115613d4b57613d4a6139d6565b5b92915050565b5f608082019050613d645f830187613367565b613d7160208301866132e8565b613d7e6040830185613367565b613d8b60608301846132e8565b95945050505050565b7f526566756e642057617320556e7375636365737366756c2100000000000000005f82015250565b5f613dc8601883613301565b9150613dd382613d94565b602082019050919050565b5f6020820190508181035f830152613df581613dbc565b9050919050565b7f546869732043616d706169676e2048617320416c7265616479205261697365645f8201527f2046756e64732120526566756e64204669727374205468656e2043616e63656c60208201527f2100000000000000000000000000000000000000000000000000000000000000604082015250565b5f613e7c604183613301565b9150613e8782613dfc565b606082019050919050565b5f6020820190508181035f830152613ea981613e70565b9050919050565b7f546869732043616d706169676e2048617320416c7265616479204265656e20435f8201527f6f6d706c65746564210000000000000000000000000000000000000000000000602082015250565b5f613f0a602983613301565b9150613f1582613eb0565b604082019050919050565b5f6020820190508181035f830152613f3781613efe565b9050919050565b5f81905092915050565b7f5468652043616d706169676e20000000000000000000000000000000000000005f82015250565b5f613f7c600d83613f3e565b9150613f8782613f48565b600d82019050919050565b5f819050919050565b613fac613fa782613277565b613f92565b82525050565b7f20446f6573204e4f5420457869737421000000000000000000000000000000005f82015250565b5f613fe6601083613f3e565b9150613ff182613fb2565b601082019050919050565b5f61400682613f70565b91506140128284613f9b565b60208201915061402182613fda565b915081905092915050565b5f6020820190508181035f830152614044818461332f565b905092915050565b7f546869732043616d706169676e277320446561646c696e6520486173205061735f8201527f7365642100000000000000000000000000000000000000000000000000000000602082015250565b5f6140a6602483613301565b91506140b18261404c565b604082019050919050565b5f6020820190508181035f8301526140d38161409a565b9050919050565b7f27000000000000000000000000000000000000000000000000000000000000005f82015250565b5f61410e600183613f3e565b9150614119826140da565b600182019050919050565b5f819050815f5260205f209050919050565b5f815461414281613918565b61414c8186613f3e565b9450600182165f8114614166576001811461417b576141ad565b60ff19831686528115158202860193506141ad565b61418485614124565b5f5b838110156141a557815481890152600182019150602081019050614186565b838801955050505b50505092915050565b7f272043616d706169676e205761732043616e63616c6c656421000000000000005f82015250565b5f6141ea601983613f3e565b91506141f5826141b6565b601982019050919050565b5f61420a82614102565b91506142168284614136565b9150614221826141de565b915081905092915050565b7f272043616d706169676e2057617320436f6d706c6574656421000000000000005f82015250565b5f614260601983613f3e565b915061426b8261422c565b601982019050919050565b5f61428082614102565b915061428c8284614136565b915061429782614254565b915081905092915050565b7f446f6e6174696f6e20416d6f756e742043616e6e6f74206265205a65726f00005f82015250565b5f6142d6601e83613301565b91506142e1826142a2565b602082019050919050565b5f6020820190508181035f830152614303816142ca565b9050919050565b7f54686520416d6f756e7420416e642056616c756520446f6e2774204d617463685f8201527f2100000000000000000000000000000000000000000000000000000000000000602082015250565b5f614364602183613301565b915061436f8261430a565b604082019050919050565b5f6020820190508181035f83015261439181614358565b9050919050565b5f819050919050565b5f6143bb6143b66143b18461321d565b614398565b61321d565b9050919050565b5f6143cc826143a1565b9050919050565b5f6143dd826143c2565b9050919050565b6143ed816143d3565b82525050565b5f6040820190506144065f8301856143e4565b61441360208301846132e8565b9392505050565b5f6020601f8301049050919050565b5f82821b905092915050565b5f600883026144647fffffffffffffffffffffffffffffffffffffffffffffffffffffffffffffffff82614429565b61446e8683614429565b95508019841693508086168417925050509392505050565b5f6144a061449b61449684613277565b614398565b613277565b9050919050565b5f819050919050565b6144b983614486565b6144cd6144c5826144a7565b848454614435565b825550505050565b5f90565b6144e16144d5565b6144ec8184846144b0565b505050565b5b8181101561450f576145045f826144d9565b6001810190506144f2565b5050565b601f8211156145545761452581614124565b61452e8461441a565b8101602085101561453d578190505b6145516145498561441a565b8301826144f1565b50505b505050565b5f82821c905092915050565b5f6145745f1984600802614559565b1980831691505092915050565b5f61458c8383614565565b9150826002028217905092915050565b6145a5826132f7565b67ffffffffffffffff8111156145be576145bd6135ce565b5b6145c88254613918565b6145d3828285614513565b5f60209050601f831160018114614604575f84156145f2578287015190505b6145fc8582614581565b865550614663565b601f19841661461286614124565b5f5b8281101561463957848901518255600182019150602085019450602081019050614614565b868310156146565784890151614652601f891682614565565b8355505b6001600288020188555050505b505050505050565b5f60808201905061467e5f830187613367565b61468b60208301866132e8565b61469860408301856143e4565b6146a560608301846132e8565b95945050505050565b7f4f6e6c7920436f6e7472616374204f776e65722043616e20506572666f726d205f8201527f5468697320416374696f6e210000000000000000000000000000000000000000602082015250565b5f614708602c83613301565b9150614713826146ae565b604082019050919050565b5f6020820190508181035f830152614735816146fc565b9050919050565b5f614746826132f7565b6147508185613f3e565b9350614760818560208601613311565b80840191505092915050565b5f614777828461473c565b915081905092915050565b5f819050815f5260205f209050919050565b5f81546147a081613918565b6147aa8186613f3e565b9450600182165f81146147c457600181146147d95761480b565b60ff198316865281151582028601935061480b565b6147e285614782565b5f5b83811015614803578154818901526001820191506020810190506147e4565b838801955050505b50505092915050565b5f61481f8284614794565b915081905092915050565b7f43616d706169676e2000000000000000000000000000000000000000000000005f82015250565b5f61485e600983613f3e565b91506148698261482a565b600982019050919050565b7f20616c72656164792065786973747321000000000000000000000000000000005f82015250565b5f6148a8601083613f3e565b91506148b382614874565b601082019050919050565b5f6148c882614852565b91506148d4828461473c565b91506148df8261489c565b915081905092915050565b5f6148f482613277565b91506148ff83613277565b925082820261490d81613277565b91508282048414831517614924576149236139d6565b5b5092915050565b5f60a08201905061493e5f8301886132e8565b61494b6020830187613367565b818103604083015261495d818661332f565b905061496c60608301856132e8565b61497960808301846132e8565b9695505050505050565b7f5468652043616d706169676e20416464726573732043616e6e6f7420426520415f8201527f6e2041646d696e21000000000000000000000000000000000000000000000000602082015250565b5f6149dd602883613301565b91506149e882614983565b604082019050919050565b5f6020820190508181035f830152614a0a816149d1565b9050919050565b7f54686973204164647265737320497320416c726561647920416e2041646d696e5f8201527f2100000000000000000000000000000000000000000000000000000000000000602082015250565b5f614a6b602183613301565b9150614a7682614a11565b604082019050919050565b5f6020820190508181035f830152614a9881614a5f565b9050919050565b7f596f752043616e27742057697468647261772046756e64732066726f6d20616e5f8201527f204163746976652043616d706169676e00000000000000000000000000000000602082015250565b5f614af9603083613301565b9150614b0482614a9f565b604082019050919050565b5f6020820190508181035f830152614b2681614aed565b9050919050565b7f416d6f756e742043616e6e6f74206265205a65726f204f7220457863656564205f8201527f5468652052616973656420416d6f756e74210000000000000000000000000000602082015250565b5f614b87603283613301565b9150614b9282614b2d565b604082019050919050565b5f6020820190508181035f830152614bb481614b7b565b9050919050565b5f60a082019050614bce5f8301886132e8565b614bdb6020830187613367565b614be860408301866143e4565b614bf56060830185613367565b614c0260808301846132e8565b9695505050505050565b7f546869732041646472657373204973204e6f7420416e2041646d696e210000005f82015250565b5f614c40601d83613301565b9150614c4b82614c0c565b602082019050919050565b5f6020820190508181035f830152614c6d81614c34565b9050919050565b7f4e487b71000000000000000000000000000000000000000000000000000000005f52603160045260245ffdfea2646970667358221220dc80b92d3d3694314c1ec620573fc7583b23133a5a2313c986c049014e3042a764736f6c634300081a0033",
			"opcodes": "PUSH1 0x80 PUSH1 0x40 MSTORE CALLVALUE DUP1 ISZERO PUSH1 0xE JUMPI PUSH0 DUP1 REVERT JUMPDEST POP CALLER PUSH1 0x6 PUSH0 PUSH2 0x100 EXP DUP2 SLOAD DUP2 PUSH20 0xFFFFFFFFFFFFFFFFFFFFFFFFFFFFFFFFFFFFFFFF MUL NOT AND SWAP1 DUP4 PUSH20 0xFFFFFFFFFFFFFFFFFFFFFFFFFFFFFFFFFFFFFFFF AND MUL OR SWAP1 SSTORE POP PUSH2 0x4CD7 DUP1 PUSH2 0x5C PUSH0 CODECOPY PUSH0 RETURN INVALID PUSH1 0x80 PUSH1 0x40 MSTORE PUSH1 0x4 CALLDATASIZE LT PUSH2 0xDC JUMPI PUSH0 CALLDATALOAD PUSH1 0xE0 SHR DUP1 PUSH4 0x9B56F5F0 GT PUSH2 0x7E JUMPI DUP1 PUSH4 0xBE21739E GT PUSH2 0x58 JUMPI DUP1 PUSH4 0xBE21739E EQ PUSH2 0x2C5 JUMPI DUP1 PUSH4 0xC14B8AAC EQ PUSH2 0x301 JUMPI DUP1 PUSH4 0xE6C9099A EQ PUSH2 0x329 JUMPI DUP1 PUSH4 0xF1694AA1 EQ PUSH2 0x366 JUMPI PUSH2 0xDC JUMP JUMPDEST DUP1 PUSH4 0x9B56F5F0 EQ PUSH2 0x236 JUMPI DUP1 PUSH4 0xA318F269 EQ PUSH2 0x275 JUMPI DUP1 PUSH4 0xBE18FDA6 EQ PUSH2 0x29D JUMPI PUSH2 0xDC JUMP JUMPDEST DUP1 PUSH4 0x39E9412F GT PUSH2 0xBA JUMPI DUP1 PUSH4 0x39E9412F EQ PUSH2 0x188 JUMPI DUP1 PUSH4 0x422B1077 EQ PUSH2 0x1B0 JUMPI DUP1 PUSH4 0x5A3915CD EQ PUSH2 0x1F0 JUMPI DUP1 PUSH4 0x6F9FB98A EQ PUSH2 0x20C JUMPI PUSH2 0xDC JUMP JUMPDEST DUP1 PUSH4 0x11555DBC EQ PUSH2 0xE0 JUMPI DUP1 PUSH4 0x1F55E5BC EQ PUSH2 0x124 JUMPI DUP1 PUSH4 0x215C0BBB EQ PUSH2 0x160 JUMPI JUMPDEST PUSH0 DUP1 REVERT JUMPDEST CALLVALUE DUP1 ISZERO PUSH2 0xEB JUMPI PUSH0 DUP1 REVERT JUMPDEST POP PUSH2 0x106 PUSH1 0x4 DUP1 CALLDATASIZE SUB DUP2 ADD SWAP1 PUSH2 0x101 SWAP2 SWAP1 PUSH2 0x32AA JUMP JUMPDEST PUSH2 0x38E JUMP JUMPDEST PUSH1 0x40 MLOAD PUSH2 0x11B SWAP10 SWAP9 SWAP8 SWAP7 SWAP6 SWAP5 SWAP4 SWAP3 SWAP2 SWAP1 PUSH2 0x3390 JUMP JUMPDEST PUSH1 0x40 MLOAD DUP1 SWAP2 SUB SWAP1 RETURN JUMPDEST CALLVALUE DUP1 ISZERO PUSH2 0x12F JUMPI PUSH0 DUP1 REVERT JUMPDEST POP PUSH2 0x14A PUSH1 0x4 DUP1 CALLDATASIZE SUB DUP2 ADD SWAP1 PUSH2 0x145 SWAP2 SWAP1 PUSH2 0x32AA JUMP JUMPDEST PUSH2 0x535 JUMP JUMPDEST PUSH1 0x40 MLOAD PUSH2 0x157 SWAP2 SWAP1 PUSH2 0x3429 JUMP JUMPDEST PUSH1 0x40 MLOAD DUP1 SWAP2 SUB SWAP1 RETURN JUMPDEST CALLVALUE DUP1 ISZERO PUSH2 0x16B JUMPI PUSH0 DUP1 REVERT JUMPDEST POP PUSH2 0x186 PUSH1 0x4 DUP1 CALLDATASIZE SUB DUP2 ADD SWAP1 PUSH2 0x181 SWAP2 SWAP1 PUSH2 0x3442 JUMP JUMPDEST PUSH2 0x57D JUMP JUMPDEST STOP JUMPDEST CALLVALUE DUP1 ISZERO PUSH2 0x193 JUMPI PUSH0 DUP1 REVERT JUMPDEST POP PUSH2 0x1AE PUSH1 0x4 DUP1 CALLDATASIZE SUB DUP2 ADD SWAP1 PUSH2 0x1A9 SWAP2 SWAP1 PUSH2 0x3442 JUMP JUMPDEST PUSH2 0xDE7 JUMP JUMPDEST STOP JUMPDEST CALLVALUE DUP1 ISZERO PUSH2 0x1BB JUMPI PUSH0 DUP1 REVERT JUMPDEST POP PUSH2 0x1D6 PUSH1 0x4 DUP1 CALLDATASIZE SUB DUP2 ADD SWAP1 PUSH2 0x1D1 SWAP2 SWAP1 PUSH2 0x32AA JUMP JUMPDEST PUSH2 0x136B JUMP JUMPDEST PUSH1 0x40 MLOAD PUSH2 0x1E7 SWAP6 SWAP5 SWAP4 SWAP3 SWAP2 SWAP1 PUSH2 0x3480 JUMP JUMPDEST PUSH1 0x40 MLOAD DUP1 SWAP2 SUB SWAP1 RETURN JUMPDEST PUSH2 0x20A PUSH1 0x4 DUP1 CALLDATASIZE SUB DUP2 ADD SWAP1 PUSH2 0x205 SWAP2 SWAP1 PUSH2 0x3513 JUMP JUMPDEST PUSH2 0x147B JUMP JUMPDEST STOP JUMPDEST CALLVALUE DUP1 ISZERO PUSH2 0x217 JUMPI PUSH0 DUP1 REVERT JUMPDEST POP PUSH2 0x220 PUSH2 0x1E3F JUMP JUMPDEST PUSH1 0x40 MLOAD PUSH2 0x22D SWAP2 SWAP1 PUSH2 0x3563 JUMP JUMPDEST PUSH1 0x40 MLOAD DUP1 SWAP2 SUB SWAP1 RETURN JUMPDEST CALLVALUE DUP1 ISZERO PUSH2 0x241 JUMPI PUSH0 DUP1 REVERT JUMPDEST POP PUSH2 0x25C PUSH1 0x4 DUP1 CALLDATASIZE SUB DUP2 ADD SWAP1 PUSH2 0x257 SWAP2 SWAP1 PUSH2 0x32AA JUMP JUMPDEST PUSH2 0x1ED5 JUMP JUMPDEST PUSH1 0x40 MLOAD PUSH2 0x26C SWAP5 SWAP4 SWAP3 SWAP2 SWAP1 PUSH2 0x357C JUMP JUMPDEST PUSH1 0x40 MLOAD DUP1 SWAP2 SUB SWAP1 RETURN JUMPDEST CALLVALUE DUP1 ISZERO PUSH2 0x280 JUMPI PUSH0 DUP1 REVERT JUMPDEST POP PUSH2 0x29B PUSH1 0x4 DUP1 CALLDATASIZE SUB DUP2 ADD SWAP1 PUSH2 0x296 SWAP2 SWAP1 PUSH2 0x36F2 JUMP JUMPDEST PUSH2 0x1FC0 JUMP JUMPDEST STOP JUMPDEST CALLVALUE DUP1 ISZERO PUSH2 0x2A8 JUMPI PUSH0 DUP1 REVERT JUMPDEST POP PUSH2 0x2C3 PUSH1 0x4 DUP1 CALLDATASIZE SUB DUP2 ADD SWAP1 PUSH2 0x2BE SWAP2 SWAP1 PUSH2 0x378E JUMP JUMPDEST PUSH2 0x23C9 JUMP JUMPDEST STOP JUMPDEST CALLVALUE DUP1 ISZERO PUSH2 0x2D0 JUMPI PUSH0 DUP1 REVERT JUMPDEST POP PUSH2 0x2EB PUSH1 0x4 DUP1 CALLDATASIZE SUB DUP2 ADD SWAP1 PUSH2 0x2E6 SWAP2 SWAP1 PUSH2 0x37B9 JUMP JUMPDEST PUSH2 0x2660 JUMP JUMPDEST PUSH1 0x40 MLOAD PUSH2 0x2F8 SWAP2 SWAP1 PUSH2 0x37F7 JUMP JUMPDEST PUSH1 0x40 MLOAD DUP1 SWAP2 SUB SWAP1 RETURN JUMPDEST CALLVALUE DUP1 ISZERO PUSH2 0x30C JUMPI PUSH0 DUP1 REVERT JUMPDEST POP PUSH2 0x327 PUSH1 0x4 DUP1 CALLDATASIZE SUB DUP2 ADD SWAP1 PUSH2 0x322 SWAP2 SWAP1 PUSH2 0x3810 JUMP JUMPDEST PUSH2 0x268A JUMP JUMPDEST STOP JUMPDEST CALLVALUE DUP1 ISZERO PUSH2 0x334 JUMPI PUSH0 DUP1 REVERT JUMPDEST POP PUSH2 0x34F PUSH1 0x4 DUP1 CALLDATASIZE SUB DUP2 ADD SWAP1 PUSH2 0x34A SWAP2 SWAP1 PUSH2 0x3874 JUMP JUMPDEST PUSH2 0x2E66 JUMP JUMPDEST PUSH1 0x40 MLOAD PUSH2 0x35D SWAP3 SWAP2 SWAP1 PUSH2 0x38C4 JUMP JUMPDEST PUSH1 0x40 MLOAD DUP1 SWAP2 SUB SWAP1 RETURN JUMPDEST CALLVALUE DUP1 ISZERO PUSH2 0x371 JUMPI PUSH0 DUP1 REVERT JUMPDEST POP PUSH2 0x38C PUSH1 0x4 DUP1 CALLDATASIZE SUB DUP2 ADD SWAP1 PUSH2 0x387 SWAP2 SWAP1 PUSH2 0x378E JUMP JUMPDEST PUSH2 0x2ECA JUMP JUMPDEST STOP JUMPDEST PUSH0 PUSH1 0x20 MSTORE DUP2 PUSH0 MSTORE PUSH1 0x40 PUSH0 KECCAK256 DUP2 DUP2 SLOAD DUP2 LT PUSH2 0x3A6 JUMPI PUSH0 DUP1 REVERT JUMPDEST SWAP1 PUSH0 MSTORE PUSH1 0x20 PUSH0 KECCAK256 SWAP1 PUSH1 0x8 MUL ADD PUSH0 SWAP2 POP SWAP2 POP POP DUP1 PUSH0 ADD SLOAD SWAP1 DUP1 PUSH1 0x1 ADD DUP1 SLOAD PUSH2 0x3CC SWAP1 PUSH2 0x3918 JUMP JUMPDEST DUP1 PUSH1 0x1F ADD PUSH1 0x20 DUP1 SWAP2 DIV MUL PUSH1 0x20 ADD PUSH1 0x40 MLOAD SWAP1 DUP2 ADD PUSH1 0x40 MSTORE DUP1 SWAP3 SWAP2 SWAP1 DUP2 DUP2 MSTORE PUSH1 0x20 ADD DUP3 DUP1 SLOAD PUSH2 0x3F8 SWAP1 PUSH2 0x3918 JUMP JUMPDEST DUP1 ISZERO PUSH2 0x443 JUMPI DUP1 PUSH1 0x1F LT PUSH2 0x41A JUMPI PUSH2 0x100 DUP1 DUP4 SLOAD DIV MUL DUP4 MSTORE SWAP2 PUSH1 0x20 ADD SWAP2 PUSH2 0x443 JUMP JUMPDEST DUP3 ADD SWAP2 SWAP1 PUSH0 MSTORE PUSH1 0x20 PUSH0 KECCAK256 SWAP1 JUMPDEST DUP2 SLOAD DUP2 MSTORE SWAP1 PUSH1 0x1 ADD SWAP1 PUSH1 0x20 ADD DUP1 DUP4 GT PUSH2 0x426 JUMPI DUP3 SWAP1 SUB PUSH1 0x1F AND DUP3 ADD SWAP2 JUMPDEST POP POP POP POP POP SWAP1 DUP1 PUSH1 0x2 ADD DUP1 SLOAD PUSH2 0x458 SWAP1 PUSH2 0x3918 JUMP JUMPDEST DUP1 PUSH1 0x1F ADD PUSH1 0x20 DUP1 SWAP2 DIV MUL PUSH1 0x20 ADD PUSH1 0x40 MLOAD SWAP1 DUP2 ADD PUSH1 0x40 MSTORE DUP1 SWAP3 SWAP2 SWAP1 DUP2 DUP2 MSTORE PUSH1 0x20 ADD DUP3 DUP1 SLOAD PUSH2 0x484 SWAP1 PUSH2 0x3918 JUMP JUMPDEST DUP1 ISZERO PUSH2 0x4CF JUMPI DUP1 PUSH1 0x1F LT PUSH2 0x4A6 JUMPI PUSH2 0x100 DUP1 DUP4 SLOAD DIV MUL DUP4 MSTORE SWAP2 PUSH1 0x20 ADD SWAP2 PUSH2 0x4CF JUMP JUMPDEST DUP3 ADD SWAP2 SWAP1 PUSH0 MSTORE PUSH1 0x20 PUSH0 KECCAK256 SWAP1 JUMPDEST DUP2 SLOAD DUP2 MSTORE SWAP1 PUSH1 0x1 ADD SWAP1 PUSH1 0x20 ADD DUP1 DUP4 GT PUSH2 0x4B2 JUMPI DUP3 SWAP1 SUB PUSH1 0x1F AND DUP3 ADD SWAP2 JUMPDEST POP POP POP POP POP SWAP1 DUP1 PUSH1 0x3 ADD PUSH0 SWAP1 SLOAD SWAP1 PUSH2 0x100 EXP SWAP1 DIV PUSH20 0xFFFFFFFFFFFFFFFFFFFFFFFFFFFFFFFFFFFFFFFF AND SWAP1 DUP1 PUSH1 0x4 ADD SLOAD SWAP1 DUP1 PUSH1 0x5 ADD SLOAD SWAP1 DUP1 PUSH1 0x6 ADD SLOAD SWAP1 DUP1 PUSH1 0x7 ADD PUSH0 SWAP1 SLOAD SWAP1 PUSH2 0x100 EXP SWAP1 DIV PUSH1 0xFF AND SWAP1 DUP1 PUSH1 0x7 ADD PUSH1 0x1 SWAP1 SLOAD SWAP1 PUSH2 0x100 EXP SWAP1 DIV PUSH1 0xFF AND SWAP1 POP DUP10 JUMP JUMPDEST PUSH1 0x2 PUSH1 0x20 MSTORE DUP2 PUSH0 MSTORE PUSH1 0x40 PUSH0 KECCAK256 DUP2 DUP2 SLOAD DUP2 LT PUSH2 0x54E JUMPI PUSH0 DUP1 REVERT JUMPDEST SWAP1 PUSH0 MSTORE PUSH1 0x20 PUSH0 KECCAK256 ADD PUSH0 SWAP2 POP SWAP2 POP SWAP1 SLOAD SWAP1 PUSH2 0x100 EXP SWAP1 DIV PUSH20 0xFFFFFFFFFFFFFFFFFFFFFFFFFFFFFFFFFFFFFFFF AND DUP2 JUMP JUMPDEST DUP1 DUP3 PUSH0 DUP1 PUSH0 DUP5 PUSH20 0xFFFFFFFFFFFFFFFFFFFFFFFFFFFFFFFFFFFFFFFF AND PUSH20 0xFFFFFFFFFFFFFFFFFFFFFFFFFFFFFFFFFFFFFFFF AND DUP2 MSTORE PUSH1 0x20 ADD SWAP1 DUP2 MSTORE PUSH1 0x20 ADD PUSH0 KECCAK256 DUP1 SLOAD SWAP1 POP GT PUSH2 0x600 JUMPI PUSH1 0x40 MLOAD PUSH32 0x8C379A000000000000000000000000000000000000000000000000000000000 DUP2 MSTORE PUSH1 0x4 ADD PUSH2 0x5F7 SWAP1 PUSH2 0x39B8 JUMP JUMPDEST PUSH1 0x40 MLOAD DUP1 SWAP2 SUB SWAP1 REVERT JUMPDEST DUP1 PUSH0 DUP1 DUP5 PUSH20 0xFFFFFFFFFFFFFFFFFFFFFFFFFFFFFFFFFFFFFFFF AND PUSH20 0xFFFFFFFFFFFFFFFFFFFFFFFFFFFFFFFFFFFFFFFF AND DUP2 MSTORE PUSH1 0x20 ADD SWAP1 DUP2 MSTORE PUSH1 0x20 ADD PUSH0 KECCAK256 PUSH1 0x1 DUP4 PUSH2 0x64A SWAP2 SWAP1 PUSH2 0x3A03 JUMP JUMPDEST DUP2 SLOAD DUP2 LT PUSH2 0x65B JUMPI PUSH2 0x65A PUSH2 0x3A36 JUMP JUMPDEST JUMPDEST SWAP1 PUSH0 MSTORE PUSH1 0x20 PUSH0 KECCAK256 SWAP1 PUSH1 0x8 MUL ADD PUSH0 ADD SLOAD EQ PUSH2 0x6AA JUMPI PUSH1 0x40 MLOAD PUSH32 0x8C379A000000000000000000000000000000000000000000000000000000000 DUP2 MSTORE PUSH1 0x4 ADD PUSH2 0x6A1 SWAP1 PUSH2 0x3AD3 JUMP JUMPDEST PUSH1 0x40 MLOAD DUP1 SWAP2 SUB SWAP1 REVERT JUMPDEST PUSH1 0x1 PUSH0 DUP4 PUSH20 0xFFFFFFFFFFFFFFFFFFFFFFFFFFFFFFFFFFFFFFFF AND PUSH20 0xFFFFFFFFFFFFFFFFFFFFFFFFFFFFFFFFFFFFFFFF AND DUP2 MSTORE PUSH1 0x20 ADD SWAP1 DUP2 MSTORE PUSH1 0x20 ADD PUSH0 KECCAK256 PUSH0 CALLER PUSH20 0xFFFFFFFFFFFFFFFFFFFFFFFFFFFFFFFFFFFFFFFF AND PUSH20 0xFFFFFFFFFFFFFFFFFFFFFFFFFFFFFFFFFFFFFFFF AND DUP2 MSTORE PUSH1 0x20 ADD SWAP1 DUP2 MSTORE PUSH1 0x20 ADD PUSH0 KECCAK256 PUSH0 SWAP1 SLOAD SWAP1 PUSH2 0x100 EXP SWAP1 DIV PUSH1 0xFF AND PUSH2 0x76E JUMPI PUSH1 0x40 MLOAD PUSH32 0x8C379A000000000000000000000000000000000000000000000000000000000 DUP2 MSTORE PUSH1 0x4 ADD PUSH2 0x765 SWAP1 PUSH2 0x3B61 JUMP JUMPDEST PUSH1 0x40 MLOAD DUP1 SWAP2 SUB SWAP1 REVERT JUMPDEST PUSH0 DUP1 PUSH0 DUP6 PUSH20 0xFFFFFFFFFFFFFFFFFFFFFFFFFFFFFFFFFFFFFFFF AND PUSH20 0xFFFFFFFFFFFFFFFFFFFFFFFFFFFFFFFFFFFFFFFF AND DUP2 MSTORE PUSH1 0x20 ADD SWAP1 DUP2 MSTORE PUSH1 0x20 ADD PUSH0 KECCAK256 PUSH1 0x1 DUP7 PUSH2 0x7B8 SWAP2 SWAP1 PUSH2 0x3A03 JUMP JUMPDEST DUP2 SLOAD DUP2 LT PUSH2 0x7C9 JUMPI PUSH2 0x7C8 PUSH2 0x3A36 JUMP JUMPDEST JUMPDEST SWAP1 PUSH0 MSTORE PUSH1 0x20 PUSH0 KECCAK256 SWAP1 PUSH1 0x8 MUL ADD PUSH1 0x40 MLOAD DUP1 PUSH2 0x120 ADD PUSH1 0x40 MSTORE SWAP1 DUP2 PUSH0 DUP3 ADD SLOAD DUP2 MSTORE PUSH1 0x20 ADD PUSH1 0x1 DUP3 ADD DUP1 SLOAD PUSH2 0x7FA SWAP1 PUSH2 0x3918 JUMP JUMPDEST DUP1 PUSH1 0x1F ADD PUSH1 0x20 DUP1 SWAP2 DIV MUL PUSH1 0x20 ADD PUSH1 0x40 MLOAD SWAP1 DUP2 ADD PUSH1 0x40 MSTORE DUP1 SWAP3 SWAP2 SWAP1 DUP2 DUP2 MSTORE PUSH1 0x20 ADD DUP3 DUP1 SLOAD PUSH2 0x826 SWAP1 PUSH2 0x3918 JUMP JUMPDEST DUP1 ISZERO PUSH2 0x871 JUMPI DUP1 PUSH1 0x1F LT PUSH2 0x848 JUMPI PUSH2 0x100 DUP1 DUP4 SLOAD DIV MUL DUP4 MSTORE SWAP2 PUSH1 0x20 ADD SWAP2 PUSH2 0x871 JUMP JUMPDEST DUP3 ADD SWAP2 SWAP1 PUSH0 MSTORE PUSH1 0x20 PUSH0 KECCAK256 SWAP1 JUMPDEST DUP2 SLOAD DUP2 MSTORE SWAP1 PUSH1 0x1 ADD SWAP1 PUSH1 0x20 ADD DUP1 DUP4 GT PUSH2 0x854 JUMPI DUP3 SWAP1 SUB PUSH1 0x1F AND DUP3 ADD SWAP2 JUMPDEST POP POP POP POP POP DUP2 MSTORE PUSH1 0x20 ADD PUSH1 0x2 DUP3 ADD DUP1 SLOAD PUSH2 0x88A SWAP1 PUSH2 0x3918 JUMP JUMPDEST DUP1 PUSH1 0x1F ADD PUSH1 0x20 DUP1 SWAP2 DIV MUL PUSH1 0x20 ADD PUSH1 0x40 MLOAD SWAP1 DUP2 ADD PUSH1 0x40 MSTORE DUP1 SWAP3 SWAP2 SWAP1 DUP2 DUP2 MSTORE PUSH1 0x20 ADD DUP3 DUP1 SLOAD PUSH2 0x8B6 SWAP1 PUSH2 0x3918 JUMP JUMPDEST DUP1 ISZERO PUSH2 0x901 JUMPI DUP1 PUSH1 0x1F LT PUSH2 0x8D8 JUMPI PUSH2 0x100 DUP1 DUP4 SLOAD DIV MUL DUP4 MSTORE SWAP2 PUSH1 0x20 ADD SWAP2 PUSH2 0x901 JUMP JUMPDEST DUP3 ADD SWAP2 SWAP1 PUSH0 MSTORE PUSH1 0x20 PUSH0 KECCAK256 SWAP1 JUMPDEST DUP2 SLOAD DUP2 MSTORE SWAP1 PUSH1 0x1 ADD SWAP1 PUSH1 0x20 ADD DUP1 DUP4 GT PUSH2 0x8E4 JUMPI DUP3 SWAP1 SUB PUSH1 0x1F AND DUP3 ADD SWAP2 JUMPDEST POP POP POP POP POP DUP2 MSTORE PUSH1 0x20 ADD PUSH1 0x3 DUP3 ADD PUSH0 SWAP1 SLOAD SWAP1 PUSH2 0x100 EXP SWAP1 DIV PUSH20 0xFFFFFFFFFFFFFFFFFFFFFFFFFFFFFFFFFFFFFFFF AND PUSH20 0xFFFFFFFFFFFFFFFFFFFFFFFFFFFFFFFFFFFFFFFF AND PUSH20 0xFFFFFFFFFFFFFFFFFFFFFFFFFFFFFFFFFFFFFFFF AND DUP2 MSTORE PUSH1 0x20 ADD PUSH1 0x4 DUP3 ADD SLOAD DUP2 MSTORE PUSH1 0x20 ADD PUSH1 0x5 DUP3 ADD SLOAD DUP2 MSTORE PUSH1 0x20 ADD PUSH1 0x6 DUP3 ADD SLOAD DUP2 MSTORE PUSH1 0x20 ADD PUSH1 0x7 DUP3 ADD PUSH0 SWAP1 SLOAD SWAP1 PUSH2 0x100 EXP SWAP1 DIV PUSH1 0xFF AND ISZERO ISZERO ISZERO ISZERO DUP2 MSTORE PUSH1 0x20 ADD PUSH1 0x7 DUP3 ADD PUSH1 0x1 SWAP1 SLOAD SWAP1 PUSH2 0x100 EXP SWAP1 DIV PUSH1 0xFF AND ISZERO ISZERO ISZERO ISZERO DUP2 MSTORE POP POP SWAP1 POP DUP1 PUSH1 0x80 ADD MLOAD DUP2 PUSH1 0xA0 ADD MLOAD LT PUSH2 0x9FE JUMPI PUSH1 0x40 MLOAD PUSH32 0x8C379A000000000000000000000000000000000000000000000000000000000 DUP2 MSTORE PUSH1 0x4 ADD PUSH2 0x9F5 SWAP1 PUSH2 0x3BEF JUMP JUMPDEST PUSH1 0x40 MLOAD DUP1 SWAP2 SUB SWAP1 REVERT JUMPDEST DUP1 PUSH1 0xA0 ADD MLOAD SELFBALANCE LT ISZERO PUSH2 0xA45 JUMPI PUSH1 0x40 MLOAD PUSH32 0x8C379A000000000000000000000000000000000000000000000000000000000 DUP2 MSTORE PUSH1 0x4 ADD PUSH2 0xA3C SWAP1 PUSH2 0x3C57 JUMP JUMPDEST PUSH1 0x40 MLOAD DUP1 SWAP2 SUB SWAP1 REVERT JUMPDEST PUSH0 PUSH1 0x5 PUSH0 DUP7 PUSH20 0xFFFFFFFFFFFFFFFFFFFFFFFFFFFFFFFFFFFFFFFF AND PUSH20 0xFFFFFFFFFFFFFFFFFFFFFFFFFFFFFFFFFFFFFFFF AND DUP2 MSTORE PUSH1 0x20 ADD SWAP1 DUP2 MSTORE PUSH1 0x20 ADD PUSH0 KECCAK256 PUSH0 DUP8 DUP2 MSTORE PUSH1 0x20 ADD SWAP1 DUP2 MSTORE PUSH1 0x20 ADD PUSH0 KECCAK256 SWAP1 POP PUSH0 DUP1 DUP1 PUSH0 JUMPDEST DUP5 DUP1 SLOAD SWAP1 POP DUP2 LT ISZERO PUSH2 0xD21 JUMPI PUSH0 DUP6 DUP3 DUP2 SLOAD DUP2 LT PUSH2 0xAB9 JUMPI PUSH2 0xAB8 PUSH2 0x3A36 JUMP JUMPDEST JUMPDEST SWAP1 PUSH0 MSTORE PUSH1 0x20 PUSH0 KECCAK256 SWAP1 PUSH1 0x2 MUL ADD PUSH1 0x1 ADD SLOAD SWAP1 POP PUSH0 DUP7 DUP4 DUP2 SLOAD DUP2 LT PUSH2 0xADF JUMPI PUSH2 0xADE PUSH2 0x3A36 JUMP JUMPDEST JUMPDEST SWAP1 PUSH0 MSTORE PUSH1 0x20 PUSH0 KECCAK256 SWAP1 PUSH1 0x2 MUL ADD PUSH0 ADD PUSH0 SWAP1 SLOAD SWAP1 PUSH2 0x100 EXP SWAP1 DIV PUSH20 0xFFFFFFFFFFFFFFFFFFFFFFFFFFFFFFFFFFFFFFFF AND SWAP1 POP PUSH0 DUP1 DUP13 PUSH20 0xFFFFFFFFFFFFFFFFFFFFFFFFFFFFFFFFFFFFFFFF AND PUSH20 0xFFFFFFFFFFFFFFFFFFFFFFFFFFFFFFFFFFFFFFFF AND DUP2 MSTORE PUSH1 0x20 ADD SWAP1 DUP2 MSTORE PUSH1 0x20 ADD PUSH0 KECCAK256 PUSH1 0x1 DUP14 PUSH2 0xB58 SWAP2 SWAP1 PUSH2 0x3A03 JUMP JUMPDEST DUP2 SLOAD DUP2 LT PUSH2 0xB69 JUMPI PUSH2 0xB68 PUSH2 0x3A36 JUMP JUMPDEST JUMPDEST SWAP1 PUSH0 MSTORE PUSH1 0x20 PUSH0 KECCAK256 SWAP1 PUSH1 0x8 MUL ADD PUSH1 0x5 ADD SLOAD SWAP5 POP DUP2 DUP6 PUSH2 0xB87 SWAP2 SWAP1 PUSH2 0x3A03 JUMP JUMPDEST SWAP4 POP DUP4 PUSH0 DUP1 DUP14 PUSH20 0xFFFFFFFFFFFFFFFFFFFFFFFFFFFFFFFFFFFFFFFF AND PUSH20 0xFFFFFFFFFFFFFFFFFFFFFFFFFFFFFFFFFFFFFFFF AND DUP2 MSTORE PUSH1 0x20 ADD SWAP1 DUP2 MSTORE PUSH1 0x20 ADD PUSH0 KECCAK256 PUSH1 0x1 DUP15 PUSH2 0xBD3 SWAP2 SWAP1 PUSH2 0x3A03 JUMP JUMPDEST DUP2 SLOAD DUP2 LT PUSH2 0xBE4 JUMPI PUSH2 0xBE3 PUSH2 0x3A36 JUMP JUMPDEST JUMPDEST SWAP1 PUSH0 MSTORE PUSH1 0x20 PUSH0 KECCAK256 SWAP1 PUSH1 0x8 MUL ADD PUSH1 0x5 ADD DUP2 SWAP1 SSTORE POP PUSH0 DUP8 DUP5 DUP2 SLOAD DUP2 LT PUSH2 0xC0B JUMPI PUSH2 0xC0A PUSH2 0x3A36 JUMP JUMPDEST JUMPDEST SWAP1 PUSH0 MSTORE PUSH1 0x20 PUSH0 KECCAK256 SWAP1 PUSH1 0x2 MUL ADD PUSH1 0x1 ADD DUP2 SWAP1 SSTORE POP PUSH0 DUP2 PUSH20 0xFFFFFFFFFFFFFFFFFFFFFFFFFFFFFFFFFFFFFFFF AND DUP4 PUSH1 0x40 MLOAD PUSH2 0xC43 SWAP1 PUSH2 0x3CA2 JUMP JUMPDEST PUSH0 PUSH1 0x40 MLOAD DUP1 DUP4 SUB DUP2 DUP6 DUP8 GAS CALL SWAP3 POP POP POP RETURNDATASIZE DUP1 PUSH0 DUP2 EQ PUSH2 0xC7D JUMPI PUSH1 0x40 MLOAD SWAP2 POP PUSH1 0x1F NOT PUSH1 0x3F RETURNDATASIZE ADD AND DUP3 ADD PUSH1 0x40 MSTORE RETURNDATASIZE DUP3 MSTORE RETURNDATASIZE PUSH0 PUSH1 0x20 DUP5 ADD RETURNDATACOPY PUSH2 0xC82 JUMP JUMPDEST PUSH1 0x60 SWAP2 POP JUMPDEST POP POP SWAP1 POP DUP1 PUSH2 0xCC6 JUMPI PUSH1 0x40 MLOAD PUSH32 0x8C379A000000000000000000000000000000000000000000000000000000000 DUP2 MSTORE PUSH1 0x4 ADD PUSH2 0xCBD SWAP1 PUSH2 0x3D00 JUMP JUMPDEST PUSH1 0x40 MLOAD DUP1 SWAP2 SUB SWAP1 REVERT JUMPDEST DUP3 DUP8 PUSH2 0xCD2 SWAP2 SWAP1 PUSH2 0x3D1E JUMP JUMPDEST SWAP7 POP PUSH32 0xC7106CAA0225138E1482298FE211390F77622CB0BE261616F08271E23660553D DUP13 DUP15 DUP5 DUP7 PUSH1 0x40 MLOAD PUSH2 0xD09 SWAP5 SWAP4 SWAP3 SWAP2 SWAP1 PUSH2 0x3D51 JUMP JUMPDEST PUSH1 0x40 MLOAD DUP1 SWAP2 SUB SWAP1 LOG1 POP POP POP DUP1 DUP1 PUSH1 0x1 ADD SWAP2 POP POP PUSH2 0xA99 JUMP JUMPDEST POP DUP3 DUP6 PUSH1 0xA0 ADD MLOAD EQ DUP1 ISZERO PUSH2 0xD9D JUMPI POP PUSH0 DUP1 PUSH0 DUP11 PUSH20 0xFFFFFFFFFFFFFFFFFFFFFFFFFFFFFFFFFFFFFFFF AND PUSH20 0xFFFFFFFFFFFFFFFFFFFFFFFFFFFFFFFFFFFFFFFF AND DUP2 MSTORE PUSH1 0x20 ADD SWAP1 DUP2 MSTORE PUSH1 0x20 ADD PUSH0 KECCAK256 PUSH1 0x1 DUP12 PUSH2 0xD7A SWAP2 SWAP1 PUSH2 0x3A03 JUMP JUMPDEST DUP2 SLOAD DUP2 LT PUSH2 0xD8B JUMPI PUSH2 0xD8A PUSH2 0x3A36 JUMP JUMPDEST JUMPDEST SWAP1 PUSH0 MSTORE PUSH1 0x20 PUSH0 KECCAK256 SWAP1 PUSH1 0x8 MUL ADD PUSH1 0x5 ADD SLOAD EQ JUMPDEST PUSH2 0xDDC JUMPI PUSH1 0x40 MLOAD PUSH32 0x8C379A000000000000000000000000000000000000000000000000000000000 DUP2 MSTORE PUSH1 0x4 ADD PUSH2 0xDD3 SWAP1 PUSH2 0x3DDE JUMP JUMPDEST PUSH1 0x40 MLOAD DUP1 SWAP2 SUB SWAP1 REVERT JUMPDEST POP POP POP POP POP POP POP POP POP JUMP JUMPDEST DUP1 DUP3 PUSH0 DUP1 PUSH0 DUP5 PUSH20 0xFFFFFFFFFFFFFFFFFFFFFFFFFFFFFFFFFFFFFFFF AND PUSH20 0xFFFFFFFFFFFFFFFFFFFFFFFFFFFFFFFFFFFFFFFF AND DUP2 MSTORE PUSH1 0x20 ADD SWAP1 DUP2 MSTORE PUSH1 0x20 ADD PUSH0 KECCAK256 DUP1 SLOAD SWAP1 POP GT PUSH2 0xE6A JUMPI PUSH1 0x40 MLOAD PUSH32 0x8C379A000000000000000000000000000000000000000000000000000000000 DUP2 MSTORE PUSH1 0x4 ADD PUSH2 0xE61 SWAP1 PUSH2 0x39B8 JUMP JUMPDEST PUSH1 0x40 MLOAD DUP1 SWAP2 SUB SWAP1 REVERT JUMPDEST DUP1 PUSH0 DUP1 DUP5 PUSH20 0xFFFFFFFFFFFFFFFFFFFFFFFFFFFFFFFFFFFFFFFF AND PUSH20 0xFFFFFFFFFFFFFFFFFFFFFFFFFFFFFFFFFFFFFFFF AND DUP2 MSTORE PUSH1 0x20 ADD SWAP1 DUP2 MSTORE PUSH1 0x20 ADD PUSH0 KECCAK256 PUSH1 0x1 DUP4 PUSH2 0xEB4 SWAP2 SWAP1 PUSH2 0x3A03 JUMP JUMPDEST DUP2 SLOAD DUP2 LT PUSH2 0xEC5 JUMPI PUSH2 0xEC4 PUSH2 0x3A36 JUMP JUMPDEST JUMPDEST SWAP1 PUSH0 MSTORE PUSH1 0x20 PUSH0 KECCAK256 SWAP1 PUSH1 0x8 MUL ADD PUSH0 ADD SLOAD EQ PUSH2 0xF14 JUMPI PUSH1 0x40 MLOAD PUSH32 0x8C379A000000000000000000000000000000000000000000000000000000000 DUP2 MSTORE PUSH1 0x4 ADD PUSH2 0xF0B SWAP1 PUSH2 0x3AD3 JUMP JUMPDEST PUSH1 0x40 MLOAD DUP1 SWAP2 SUB SWAP1 REVERT JUMPDEST PUSH1 0x1 PUSH0 DUP4 PUSH20 0xFFFFFFFFFFFFFFFFFFFFFFFFFFFFFFFFFFFFFFFF AND PUSH20 0xFFFFFFFFFFFFFFFFFFFFFFFFFFFFFFFFFFFFFFFF AND DUP2 MSTORE PUSH1 0x20 ADD SWAP1 DUP2 MSTORE PUSH1 0x20 ADD PUSH0 KECCAK256 PUSH0 CALLER PUSH20 0xFFFFFFFFFFFFFFFFFFFFFFFFFFFFFFFFFFFFFFFF AND PUSH20 0xFFFFFFFFFFFFFFFFFFFFFFFFFFFFFFFFFFFFFFFF AND DUP2 MSTORE PUSH1 0x20 ADD SWAP1 DUP2 MSTORE PUSH1 0x20 ADD PUSH0 KECCAK256 PUSH0 SWAP1 SLOAD SWAP1 PUSH2 0x100 EXP SWAP1 DIV PUSH1 0xFF AND PUSH2 0xFD8 JUMPI PUSH1 0x40 MLOAD PUSH32 0x8C379A000000000000000000000000000000000000000000000000000000000 DUP2 MSTORE PUSH1 0x4 ADD PUSH2 0xFCF SWAP1 PUSH2 0x3B61 JUMP JUMPDEST PUSH1 0x40 MLOAD DUP1 SWAP2 SUB SWAP1 REVERT JUMPDEST PUSH0 DUP1 PUSH0 DUP6 PUSH20 0xFFFFFFFFFFFFFFFFFFFFFFFFFFFFFFFFFFFFFFFF AND PUSH20 0xFFFFFFFFFFFFFFFFFFFFFFFFFFFFFFFFFFFFFFFF AND DUP2 MSTORE PUSH1 0x20 ADD SWAP1 DUP2 MSTORE PUSH1 0x20 ADD PUSH0 KECCAK256 PUSH1 0x1 DUP7 PUSH2 0x1022 SWAP2 SWAP1 PUSH2 0x3A03 JUMP JUMPDEST DUP2 SLOAD DUP2 LT PUSH2 0x1033 JUMPI PUSH2 0x1032 PUSH2 0x3A36 JUMP JUMPDEST JUMPDEST SWAP1 PUSH0 MSTORE PUSH1 0x20 PUSH0 KECCAK256 SWAP1 PUSH1 0x8 MUL ADD PUSH1 0x40 MLOAD DUP1 PUSH2 0x120 ADD PUSH1 0x40 MSTORE SWAP1 DUP2 PUSH0 DUP3 ADD SLOAD DUP2 MSTORE PUSH1 0x20 ADD PUSH1 0x1 DUP3 ADD DUP1 SLOAD PUSH2 0x1064 SWAP1 PUSH2 0x3918 JUMP JUMPDEST DUP1 PUSH1 0x1F ADD PUSH1 0x20 DUP1 SWAP2 DIV MUL PUSH1 0x20 ADD PUSH1 0x40 MLOAD SWAP1 DUP2 ADD PUSH1 0x40 MSTORE DUP1 SWAP3 SWAP2 SWAP1 DUP2 DUP2 MSTORE PUSH1 0x20 ADD DUP3 DUP1 SLOAD PUSH2 0x1090 SWAP1 PUSH2 0x3918 JUMP JUMPDEST DUP1 ISZERO PUSH2 0x10DB JUMPI DUP1 PUSH1 0x1F LT PUSH2 0x10B2 JUMPI PUSH2 0x100 DUP1 DUP4 SLOAD DIV MUL DUP4 MSTORE SWAP2 PUSH1 0x20 ADD SWAP2 PUSH2 0x10DB JUMP JUMPDEST DUP3 ADD SWAP2 SWAP1 PUSH0 MSTORE PUSH1 0x20 PUSH0 KECCAK256 SWAP1 JUMPDEST DUP2 SLOAD DUP2 MSTORE SWAP1 PUSH1 0x1 ADD SWAP1 PUSH1 0x20 ADD DUP1 DUP4 GT PUSH2 0x10BE JUMPI DUP3 SWAP1 SUB PUSH1 0x1F AND DUP3 ADD SWAP2 JUMPDEST POP POP POP POP POP DUP2 MSTORE PUSH1 0x20 ADD PUSH1 0x2 DUP3 ADD DUP1 SLOAD PUSH2 0x10F4 SWAP1 PUSH2 0x3918 JUMP JUMPDEST DUP1 PUSH1 0x1F ADD PUSH1 0x20 DUP1 SWAP2 DIV MUL PUSH1 0x20 ADD PUSH1 0x40 MLOAD SWAP1 DUP2 ADD PUSH1 0x40 MSTORE DUP1 SWAP3 SWAP2 SWAP1 DUP2 DUP2 MSTORE PUSH1 0x20 ADD DUP3 DUP1 SLOAD PUSH2 0x1120 SWAP1 PUSH2 0x3918 JUMP JUMPDEST DUP1 ISZERO PUSH2 0x116B JUMPI DUP1 PUSH1 0x1F LT PUSH2 0x1142 JUMPI PUSH2 0x100 DUP1 DUP4 SLOAD DIV MUL DUP4 MSTORE SWAP2 PUSH1 0x20 ADD SWAP2 PUSH2 0x116B JUMP JUMPDEST DUP3 ADD SWAP2 SWAP1 PUSH0 MSTORE PUSH1 0x20 PUSH0 KECCAK256 SWAP1 JUMPDEST DUP2 SLOAD DUP2 MSTORE SWAP1 PUSH1 0x1 ADD SWAP1 PUSH1 0x20 ADD DUP1 DUP4 GT PUSH2 0x114E JUMPI DUP3 SWAP1 SUB PUSH1 0x1F AND DUP3 ADD SWAP2 JUMPDEST POP POP POP POP POP DUP2 MSTORE PUSH1 0x20 ADD PUSH1 0x3 DUP3 ADD PUSH0 SWAP1 SLOAD SWAP1 PUSH2 0x100 EXP SWAP1 DIV PUSH20 0xFFFFFFFFFFFFFFFFFFFFFFFFFFFFFFFFFFFFFFFF AND PUSH20 0xFFFFFFFFFFFFFFFFFFFFFFFFFFFFFFFFFFFFFFFF AND PUSH20 0xFFFFFFFFFFFFFFFFFFFFFFFFFFFFFFFFFFFFFFFF AND DUP2 MSTORE PUSH1 0x20 ADD PUSH1 0x4 DUP3 ADD SLOAD DUP2 MSTORE PUSH1 0x20 ADD PUSH1 0x5 DUP3 ADD SLOAD DUP2 MSTORE PUSH1 0x20 ADD PUSH1 0x6 DUP3 ADD SLOAD DUP2 MSTORE PUSH1 0x20 ADD PUSH1 0x7 DUP3 ADD PUSH0 SWAP1 SLOAD SWAP1 PUSH2 0x100 EXP SWAP1 DIV PUSH1 0xFF AND ISZERO ISZERO ISZERO ISZERO DUP2 MSTORE PUSH1 0x20 ADD PUSH1 0x7 DUP3 ADD PUSH1 0x1 SWAP1 SLOAD SWAP1 PUSH2 0x100 EXP SWAP1 DIV PUSH1 0xFF AND ISZERO ISZERO ISZERO ISZERO DUP2 MSTORE POP POP SWAP1 POP PUSH0 DUP2 PUSH1 0xA0 ADD MLOAD EQ PUSH2 0x1264 JUMPI PUSH1 0x40 MLOAD PUSH32 0x8C379A000000000000000000000000000000000000000000000000000000000 DUP2 MSTORE PUSH1 0x4 ADD PUSH2 0x125B SWAP1 PUSH2 0x3E92 JUMP JUMPDEST PUSH1 0x40 MLOAD DUP1 SWAP2 SUB SWAP1 REVERT JUMPDEST DUP1 PUSH1 0xE0 ADD MLOAD ISZERO PUSH2 0x12A9 JUMPI PUSH1 0x40 MLOAD PUSH32 0x8C379A000000000000000000000000000000000000000000000000000000000 DUP2 MSTORE PUSH1 0x4 ADD PUSH2 0x12A0 SWAP1 PUSH2 0x3F20 JUMP JUMPDEST PUSH1 0x40 MLOAD DUP1 SWAP2 SUB SWAP1 REVERT JUMPDEST PUSH1 0x1 PUSH0 DUP1 DUP7 PUSH20 0xFFFFFFFFFFFFFFFFFFFFFFFFFFFFFFFFFFFFFFFF AND PUSH20 0xFFFFFFFFFFFFFFFFFFFFFFFFFFFFFFFFFFFFFFFF AND DUP2 MSTORE PUSH1 0x20 ADD SWAP1 DUP2 MSTORE PUSH1 0x20 ADD PUSH0 KECCAK256 PUSH1 0x1 DUP8 PUSH2 0x12F4 SWAP2 SWAP1 PUSH2 0x3A03 JUMP JUMPDEST DUP2 SLOAD DUP2 LT PUSH2 0x1305 JUMPI PUSH2 0x1304 PUSH2 0x3A36 JUMP JUMPDEST JUMPDEST SWAP1 PUSH0 MSTORE PUSH1 0x20 PUSH0 KECCAK256 SWAP1 PUSH1 0x8 MUL ADD PUSH1 0x7 ADD PUSH1 0x1 PUSH2 0x100 EXP DUP2 SLOAD DUP2 PUSH1 0xFF MUL NOT AND SWAP1 DUP4 ISZERO ISZERO MUL OR SWAP1 SSTORE POP PUSH32 0xDDF13B23F5AA44ED82E83C974BB182744638F745E4BCF56AC5343BC41A67AD55 DUP5 DUP7 PUSH1 0x40 MLOAD PUSH2 0x135C SWAP3 SWAP2 SWAP1 PUSH2 0x38C4 JUMP JUMPDEST PUSH1 0x40 MLOAD DUP1 SWAP2 SUB SWAP1 LOG1 POP POP POP POP POP JUMP JUMPDEST PUSH1 0x4 PUSH1 0x20 MSTORE DUP2 PUSH0 MSTORE PUSH1 0x40 PUSH0 KECCAK256 DUP2 DUP2 SLOAD DUP2 LT PUSH2 0x1384 JUMPI PUSH0 DUP1 REVERT JUMPDEST SWAP1 PUSH0 MSTORE PUSH1 0x20 PUSH0 KECCAK256 SWAP1 PUSH1 0x5 MUL ADD PUSH0 SWAP2 POP SWAP2 POP POP DUP1 PUSH0 ADD SLOAD SWAP1 DUP1 PUSH1 0x1 ADD DUP1 SLOAD PUSH2 0x13AA SWAP1 PUSH2 0x3918 JUMP JUMPDEST DUP1 PUSH1 0x1F ADD PUSH1 0x20 DUP1 SWAP2 DIV MUL PUSH1 0x20 ADD PUSH1 0x40 MLOAD SWAP1 DUP2 ADD PUSH1 0x40 MSTORE DUP1 SWAP3 SWAP2 SWAP1 DUP2 DUP2 MSTORE PUSH1 0x20 ADD DUP3 DUP1 SLOAD PUSH2 0x13D6 SWAP1 PUSH2 0x3918 JUMP JUMPDEST DUP1 ISZERO PUSH2 0x1421 JUMPI DUP1 PUSH1 0x1F LT PUSH2 0x13F8 JUMPI PUSH2 0x100 DUP1 DUP4 SLOAD DIV MUL DUP4 MSTORE SWAP2 PUSH1 0x20 ADD SWAP2 PUSH2 0x1421 JUMP JUMPDEST DUP3 ADD SWAP2 SWAP1 PUSH0 MSTORE PUSH1 0x20 PUSH0 KECCAK256 SWAP1 JUMPDEST DUP2 SLOAD DUP2 MSTORE SWAP1 PUSH1 0x1 ADD SWAP1 PUSH1 0x20 ADD DUP1 DUP4 GT PUSH2 0x1404 JUMPI DUP3 SWAP1 SUB PUSH1 0x1F AND DUP3 ADD SWAP2 JUMPDEST POP POP POP POP POP SWAP1 DUP1 PUSH1 0x2 ADD SLOAD SWAP1 DUP1 PUSH1 0x3 ADD PUSH0 SWAP1 SLOAD SWAP1 PUSH2 0x100 EXP SWAP1 DIV PUSH20 0xFFFFFFFFFFFFFFFFFFFFFFFFFFFFFFFFFFFFFFFF AND SWAP1 DUP1 PUSH1 0x4 ADD PUSH0 SWAP1 SLOAD SWAP1 PUSH2 0x100 EXP SWAP1 DIV PUSH20 0xFFFFFFFFFFFFFFFFFFFFFFFFFFFFFFFFFFFFFFFF AND SWAP1 POP DUP6 JUMP JUMPDEST DUP2 PUSH0 DUP1 DUP6 PUSH20 0xFFFFFFFFFFFFFFFFFFFFFFFFFFFFFFFFFFFFFFFF AND PUSH20 0xFFFFFFFFFFFFFFFFFFFFFFFFFFFFFFFFFFFFFFFF AND DUP2 MSTORE PUSH1 0x20 ADD SWAP1 DUP2 MSTORE PUSH1 0x20 ADD PUSH0 KECCAK256 PUSH1 0x1 DUP5 PUSH2 0x14C5 SWAP2 SWAP1 PUSH2 0x3A03 JUMP JUMPDEST DUP2 SLOAD DUP2 LT PUSH2 0x14D6 JUMPI PUSH2 0x14D5 PUSH2 0x3A36 JUMP JUMPDEST JUMPDEST SWAP1 PUSH0 MSTORE PUSH1 0x20 PUSH0 KECCAK256 SWAP1 PUSH1 0x8 MUL ADD PUSH0 ADD SLOAD EQ DUP3 PUSH1 0x40 MLOAD PUSH1 0x20 ADD PUSH2 0x14F7 SWAP2 SWAP1 PUSH2 0x3FFC JUMP JUMPDEST PUSH1 0x40 MLOAD PUSH1 0x20 DUP2 DUP4 SUB SUB DUP2 MSTORE SWAP1 PUSH1 0x40 MSTORE SWAP1 PUSH2 0x1547 JUMPI PUSH1 0x40 MLOAD PUSH32 0x8C379A000000000000000000000000000000000000000000000000000000000 DUP2 MSTORE PUSH1 0x4 ADD PUSH2 0x153E SWAP2 SWAP1 PUSH2 0x402C JUMP JUMPDEST PUSH1 0x40 MLOAD DUP1 SWAP2 SUB SWAP1 REVERT JUMPDEST POP PUSH0 DUP1 DUP5 PUSH20 0xFFFFFFFFFFFFFFFFFFFFFFFFFFFFFFFFFFFFFFFF AND PUSH20 0xFFFFFFFFFFFFFFFFFFFFFFFFFFFFFFFFFFFFFFFF AND DUP2 MSTORE PUSH1 0x20 ADD SWAP1 DUP2 MSTORE PUSH1 0x20 ADD PUSH0 KECCAK256 PUSH1 0x1 DUP4 PUSH2 0x1591 SWAP2 SWAP1 PUSH2 0x3A03 JUMP JUMPDEST DUP2 SLOAD DUP2 LT PUSH2 0x15A2 JUMPI PUSH2 0x15A1 PUSH2 0x3A36 JUMP JUMPDEST JUMPDEST SWAP1 PUSH0 MSTORE PUSH1 0x20 PUSH0 KECCAK256 SWAP1 PUSH1 0x8 MUL ADD PUSH1 0x6 ADD SLOAD TIMESTAMP LT PUSH2 0x15F3 JUMPI PUSH1 0x40 MLOAD PUSH32 0x8C379A000000000000000000000000000000000000000000000000000000000 DUP2 MSTORE PUSH1 0x4 ADD PUSH2 0x15EA SWAP1 PUSH2 0x40BC JUMP JUMPDEST PUSH1 0x40 MLOAD DUP1 SWAP2 SUB SWAP1 REVERT JUMPDEST PUSH0 DUP1 DUP5 PUSH20 0xFFFFFFFFFFFFFFFFFFFFFFFFFFFFFFFFFFFFFFFF AND PUSH20 0xFFFFFFFFFFFFFFFFFFFFFFFFFFFFFFFFFFFFFFFF AND DUP2 MSTORE PUSH1 0x20 ADD SWAP1 DUP2 MSTORE PUSH1 0x20 ADD PUSH0 KECCAK256 PUSH1 0x1 DUP4 PUSH2 0x163C SWAP2 SWAP1 PUSH2 0x3A03 JUMP JUMPDEST DUP2 SLOAD DUP2 LT PUSH2 0x164D JUMPI PUSH2 0x164C PUSH2 0x3A36 JUMP JUMPDEST JUMPDEST SWAP1 PUSH0 MSTORE PUSH1 0x20 PUSH0 KECCAK256 SWAP1 PUSH1 0x8 MUL ADD PUSH1 0x7 ADD PUSH1 0x1 SWAP1 SLOAD SWAP1 PUSH2 0x100 EXP SWAP1 DIV PUSH1 0xFF AND ISZERO PUSH0 DUP1 DUP6 PUSH20 0xFFFFFFFFFFFFFFFFFFFFFFFFFFFFFFFFFFFFFFFF AND PUSH20 0xFFFFFFFFFFFFFFFFFFFFFFFFFFFFFFFFFFFFFFFF AND DUP2 MSTORE PUSH1 0x20 ADD SWAP1 DUP2 MSTORE PUSH1 0x20 ADD PUSH0 KECCAK256 PUSH1 0x1 DUP5 PUSH2 0x16B4 SWAP2 SWAP1 PUSH2 0x3A03 JUMP JUMPDEST DUP2 SLOAD DUP2 LT PUSH2 0x16C5 JUMPI PUSH2 0x16C4 PUSH2 0x3A36 JUMP JUMPDEST JUMPDEST SWAP1 PUSH0 MSTORE PUSH1 0x20 PUSH0 KECCAK256 SWAP1 PUSH1 0x8 MUL ADD PUSH1 0x1 ADD PUSH1 0x40 MLOAD PUSH1 0x20 ADD PUSH2 0x16E4 SWAP2 SWAP1 PUSH2 0x4200 JUMP JUMPDEST PUSH1 0x40 MLOAD PUSH1 0x20 DUP2 DUP4 SUB SUB DUP2 MSTORE SWAP1 PUSH1 0x40 MSTORE SWAP1 PUSH2 0x1734 JUMPI PUSH1 0x40 MLOAD PUSH32 0x8C379A000000000000000000000000000000000000000000000000000000000 DUP2 MSTORE PUSH1 0x4 ADD PUSH2 0x172B SWAP2 SWAP1 PUSH2 0x402C JUMP JUMPDEST PUSH1 0x40 MLOAD DUP1 SWAP2 SUB SWAP1 REVERT JUMPDEST POP PUSH0 DUP1 DUP5 PUSH20 0xFFFFFFFFFFFFFFFFFFFFFFFFFFFFFFFFFFFFFFFF AND PUSH20 0xFFFFFFFFFFFFFFFFFFFFFFFFFFFFFFFFFFFFFFFF AND DUP2 MSTORE PUSH1 0x20 ADD SWAP1 DUP2 MSTORE PUSH1 0x20 ADD PUSH0 KECCAK256 PUSH1 0x1 DUP4 PUSH2 0x177E SWAP2 SWAP1 PUSH2 0x3A03 JUMP JUMPDEST DUP2 SLOAD DUP2 LT PUSH2 0x178F JUMPI PUSH2 0x178E PUSH2 0x3A36 JUMP JUMPDEST JUMPDEST SWAP1 PUSH0 MSTORE PUSH1 0x20 PUSH0 KECCAK256 SWAP1 PUSH1 0x8 MUL ADD PUSH1 0x7 ADD PUSH0 SWAP1 SLOAD SWAP1 PUSH2 0x100 EXP SWAP1 DIV PUSH1 0xFF AND ISZERO PUSH0 DUP1 DUP6 PUSH20 0xFFFFFFFFFFFFFFFFFFFFFFFFFFFFFFFFFFFFFFFF AND PUSH20 0xFFFFFFFFFFFFFFFFFFFFFFFFFFFFFFFFFFFFFFFF AND DUP2 MSTORE PUSH1 0x20 ADD SWAP1 DUP2 MSTORE PUSH1 0x20 ADD PUSH0 KECCAK256 PUSH1 0x1 DUP5 PUSH2 0x17F5 SWAP2 SWAP1 PUSH2 0x3A03 JUMP JUMPDEST DUP2 SLOAD DUP2 LT PUSH2 0x1806 JUMPI PUSH2 0x1805 PUSH2 0x3A36 JUMP JUMPDEST JUMPDEST SWAP1 PUSH0 MSTORE PUSH1 0x20 PUSH0 KECCAK256 SWAP1 PUSH1 0x8 MUL ADD PUSH1 0x1 ADD PUSH1 0x40 MLOAD PUSH1 0x20 ADD PUSH2 0x1825 SWAP2 SWAP1 PUSH2 0x4276 JUMP JUMPDEST PUSH1 0x40 MLOAD PUSH1 0x20 DUP2 DUP4 SUB SUB DUP2 MSTORE SWAP1 PUSH1 0x40 MSTORE SWAP1 PUSH2 0x1875 JUMPI PUSH1 0x40 MLOAD PUSH32 0x8C379A000000000000000000000000000000000000000000000000000000000 DUP2 MSTORE PUSH1 0x4 ADD PUSH2 0x186C SWAP2 SWAP1 PUSH2 0x402C JUMP JUMPDEST PUSH1 0x40 MLOAD DUP1 SWAP2 SUB SWAP1 REVERT JUMPDEST POP PUSH0 DUP2 GT PUSH2 0x18B8 JUMPI PUSH1 0x40 MLOAD PUSH32 0x8C379A000000000000000000000000000000000000000000000000000000000 DUP2 MSTORE PUSH1 0x4 ADD PUSH2 0x18AF SWAP1 PUSH2 0x42EC JUMP JUMPDEST PUSH1 0x40 MLOAD DUP1 SWAP2 SUB SWAP1 REVERT JUMPDEST DUP1 CALLVALUE EQ PUSH2 0x18FA JUMPI PUSH1 0x40 MLOAD PUSH32 0x8C379A000000000000000000000000000000000000000000000000000000000 DUP2 MSTORE PUSH1 0x4 ADD PUSH2 0x18F1 SWAP1 PUSH2 0x437A JUMP JUMPDEST PUSH1 0x40 MLOAD DUP1 SWAP2 SUB SWAP1 REVERT JUMPDEST DUP1 PUSH0 DUP1 DUP6 PUSH20 0xFFFFFFFFFFFFFFFFFFFFFFFFFFFFFFFFFFFFFFFF AND PUSH20 0xFFFFFFFFFFFFFFFFFFFFFFFFFFFFFFFFFFFFFFFF AND DUP2 MSTORE PUSH1 0x20 ADD SWAP1 DUP2 MSTORE PUSH1 0x20 ADD PUSH0 KECCAK256 PUSH1 0x1 DUP5 PUSH2 0x1944 SWAP2 SWAP1 PUSH2 0x3A03 JUMP JUMPDEST DUP2 SLOAD DUP2 LT PUSH2 0x1955 JUMPI PUSH2 0x1954 PUSH2 0x3A36 JUMP JUMPDEST JUMPDEST SWAP1 PUSH0 MSTORE PUSH1 0x20 PUSH0 KECCAK256 SWAP1 PUSH1 0x8 MUL ADD PUSH1 0x5 ADD PUSH0 DUP3 DUP3 SLOAD PUSH2 0x1972 SWAP2 SWAP1 PUSH2 0x3D1E JUMP JUMPDEST SWAP3 POP POP DUP2 SWAP1 SSTORE POP PUSH0 DUP1 DUP5 PUSH20 0xFFFFFFFFFFFFFFFFFFFFFFFFFFFFFFFFFFFFFFFF AND PUSH20 0xFFFFFFFFFFFFFFFFFFFFFFFFFFFFFFFFFFFFFFFF AND DUP2 MSTORE PUSH1 0x20 ADD SWAP1 DUP2 MSTORE PUSH1 0x20 ADD PUSH0 KECCAK256 PUSH1 0x1 DUP4 PUSH2 0x19C2 SWAP2 SWAP1 PUSH2 0x3A03 JUMP JUMPDEST DUP2 SLOAD DUP2 LT PUSH2 0x19D3 JUMPI PUSH2 0x19D2 PUSH2 0x3A36 JUMP JUMPDEST JUMPDEST SWAP1 PUSH0 MSTORE PUSH1 0x20 PUSH0 KECCAK256 SWAP1 PUSH1 0x8 MUL ADD PUSH1 0x4 ADD SLOAD PUSH0 DUP1 DUP6 PUSH20 0xFFFFFFFFFFFFFFFFFFFFFFFFFFFFFFFFFFFFFFFF AND PUSH20 0xFFFFFFFFFFFFFFFFFFFFFFFFFFFFFFFFFFFFFFFF AND DUP2 MSTORE PUSH1 0x20 ADD SWAP1 DUP2 MSTORE PUSH1 0x20 ADD PUSH0 KECCAK256 PUSH1 0x1 DUP5 PUSH2 0x1A2C SWAP2 SWAP1 PUSH2 0x3A03 JUMP JUMPDEST DUP2 SLOAD DUP2 LT PUSH2 0x1A3D JUMPI PUSH2 0x1A3C PUSH2 0x3A36 JUMP JUMPDEST JUMPDEST SWAP1 PUSH0 MSTORE PUSH1 0x20 PUSH0 KECCAK256 SWAP1 PUSH1 0x8 MUL ADD PUSH1 0x5 ADD SLOAD LT PUSH2 0x1B0D JUMPI PUSH1 0x1 PUSH0 DUP1 DUP6 PUSH20 0xFFFFFFFFFFFFFFFFFFFFFFFFFFFFFFFFFFFFFFFF AND PUSH20 0xFFFFFFFFFFFFFFFFFFFFFFFFFFFFFFFFFFFFFFFF AND DUP2 MSTORE PUSH1 0x20 ADD SWAP1 DUP2 MSTORE PUSH1 0x20 ADD PUSH0 KECCAK256 PUSH1 0x1 DUP5 PUSH2 0x1A9D SWAP2 SWAP1 PUSH2 0x3A03 JUMP JUMPDEST DUP2 SLOAD DUP2 LT PUSH2 0x1AAE JUMPI PUSH2 0x1AAD PUSH2 0x3A36 JUMP JUMPDEST JUMPDEST SWAP1 PUSH0 MSTORE PUSH1 0x20 PUSH0 KECCAK256 SWAP1 PUSH1 0x8 MUL ADD PUSH1 0x7 ADD PUSH0 PUSH2 0x100 EXP DUP2 SLOAD DUP2 PUSH1 0xFF MUL NOT AND SWAP1 DUP4 ISZERO ISZERO MUL OR SWAP1 SSTORE POP PUSH32 0x8559B4DC0428EF20B1A5974FFF4845E3163BFBEC589128D75C7DA62148FBD8AE DUP4 DUP4 PUSH1 0x40 MLOAD PUSH2 0x1B04 SWAP3 SWAP2 SWAP1 PUSH2 0x43F3 JUMP JUMPDEST PUSH1 0x40 MLOAD DUP1 SWAP2 SUB SWAP1 LOG1 JUMPDEST PUSH0 PUSH1 0x40 MLOAD DUP1 PUSH1 0x80 ADD PUSH1 0x40 MSTORE DUP1 DUP6 PUSH20 0xFFFFFFFFFFFFFFFFFFFFFFFFFFFFFFFFFFFFFFFF AND DUP2 MSTORE PUSH1 0x20 ADD DUP5 DUP2 MSTORE PUSH1 0x20 ADD PUSH0 DUP1 DUP8 PUSH20 0xFFFFFFFFFFFFFFFFFFFFFFFFFFFFFFFFFFFFFFFF AND PUSH20 0xFFFFFFFFFFFFFFFFFFFFFFFFFFFFFFFFFFFFFFFF AND DUP2 MSTORE PUSH1 0x20 ADD SWAP1 DUP2 MSTORE PUSH1 0x20 ADD PUSH0 KECCAK256 PUSH1 0x1 DUP7 PUSH2 0x1B84 SWAP2 SWAP1 PUSH2 0x3A03 JUMP JUMPDEST DUP2 SLOAD DUP2 LT PUSH2 0x1B95 JUMPI PUSH2 0x1B94 PUSH2 0x3A36 JUMP JUMPDEST JUMPDEST SWAP1 PUSH0 MSTORE PUSH1 0x20 PUSH0 KECCAK256 SWAP1 PUSH1 0x8 MUL ADD PUSH1 0x1 ADD DUP1 SLOAD PUSH2 0x1BAF SWAP1 PUSH2 0x3918 JUMP JUMPDEST DUP1 PUSH1 0x1F ADD PUSH1 0x20 DUP1 SWAP2 DIV MUL PUSH1 0x20 ADD PUSH1 0x40 MLOAD SWAP1 DUP2 ADD PUSH1 0x40 MSTORE DUP1 SWAP3 SWAP2 SWAP1 DUP2 DUP2 MSTORE PUSH1 0x20 ADD DUP3 DUP1 SLOAD PUSH2 0x1BDB SWAP1 PUSH2 0x3918 JUMP JUMPDEST DUP1 ISZERO PUSH2 0x1C26 JUMPI DUP1 PUSH1 0x1F LT PUSH2 0x1BFD JUMPI PUSH2 0x100 DUP1 DUP4 SLOAD DIV MUL DUP4 MSTORE SWAP2 PUSH1 0x20 ADD SWAP2 PUSH2 0x1C26 JUMP JUMPDEST DUP3 ADD SWAP2 SWAP1 PUSH0 MSTORE PUSH1 0x20 PUSH0 KECCAK256 SWAP1 JUMPDEST DUP2 SLOAD DUP2 MSTORE SWAP1 PUSH1 0x1 ADD SWAP1 PUSH1 0x20 ADD DUP1 DUP4 GT PUSH2 0x1C09 JUMPI DUP3 SWAP1 SUB PUSH1 0x1F AND DUP3 ADD SWAP2 JUMPDEST POP POP POP POP POP DUP2 MSTORE PUSH1 0x20 ADD DUP4 DUP2 MSTORE POP SWAP1 POP PUSH1 0x3 PUSH0 CALLER PUSH20 0xFFFFFFFFFFFFFFFFFFFFFFFFFFFFFFFFFFFFFFFF AND PUSH20 0xFFFFFFFFFFFFFFFFFFFFFFFFFFFFFFFFFFFFFFFF AND DUP2 MSTORE PUSH1 0x20 ADD SWAP1 DUP2 MSTORE PUSH1 0x20 ADD PUSH0 KECCAK256 DUP2 SWAP1 DUP1 PUSH1 0x1 DUP2 SLOAD ADD DUP1 DUP3 SSTORE DUP1 SWAP2 POP POP PUSH1 0x1 SWAP1 SUB SWAP1 PUSH0 MSTORE PUSH1 0x20 PUSH0 KECCAK256 SWAP1 PUSH1 0x4 MUL ADD PUSH0 SWAP1 SWAP2 SWAP1 SWAP2 SWAP1 SWAP2 POP PUSH0 DUP3 ADD MLOAD DUP2 PUSH0 ADD PUSH0 PUSH2 0x100 EXP DUP2 SLOAD DUP2 PUSH20 0xFFFFFFFFFFFFFFFFFFFFFFFFFFFFFFFFFFFFFFFF MUL NOT AND SWAP1 DUP4 PUSH20 0xFFFFFFFFFFFFFFFFFFFFFFFFFFFFFFFFFFFFFFFF AND MUL OR SWAP1 SSTORE POP PUSH1 0x20 DUP3 ADD MLOAD DUP2 PUSH1 0x1 ADD SSTORE PUSH1 0x40 DUP3 ADD MLOAD DUP2 PUSH1 0x2 ADD SWAP1 DUP2 PUSH2 0x1CFD SWAP2 SWAP1 PUSH2 0x459C JUMP JUMPDEST POP PUSH1 0x60 DUP3 ADD MLOAD DUP2 PUSH1 0x3 ADD SSTORE POP POP PUSH0 PUSH1 0x40 MLOAD DUP1 PUSH1 0x40 ADD PUSH1 0x40 MSTORE DUP1 CALLER PUSH20 0xFFFFFFFFFFFFFFFFFFFFFFFFFFFFFFFFFFFFFFFF AND DUP2 MSTORE PUSH1 0x20 ADD DUP5 DUP2 MSTORE POP SWAP1 POP PUSH1 0x5 PUSH0 DUP7 PUSH20 0xFFFFFFFFFFFFFFFFFFFFFFFFFFFFFFFFFFFFFFFF AND PUSH20 0xFFFFFFFFFFFFFFFFFFFFFFFFFFFFFFFFFFFFFFFF AND DUP2 MSTORE PUSH1 0x20 ADD SWAP1 DUP2 MSTORE PUSH1 0x20 ADD PUSH0 KECCAK256 PUSH0 DUP6 DUP2 MSTORE PUSH1 0x20 ADD SWAP1 DUP2 MSTORE PUSH1 0x20 ADD PUSH0 KECCAK256 DUP2 SWAP1 DUP1 PUSH1 0x1 DUP2 SLOAD ADD DUP1 DUP3 SSTORE DUP1 SWAP2 POP POP PUSH1 0x1 SWAP1 SUB SWAP1 PUSH0 MSTORE PUSH1 0x20 PUSH0 KECCAK256 SWAP1 PUSH1 0x2 MUL ADD PUSH0 SWAP1 SWAP2 SWAP1 SWAP2 SWAP1 SWAP2 POP PUSH0 DUP3 ADD MLOAD DUP2 PUSH0 ADD PUSH0 PUSH2 0x100 EXP DUP2 SLOAD DUP2 PUSH20 0xFFFFFFFFFFFFFFFFFFFFFFFFFFFFFFFFFFFFFFFF MUL NOT AND SWAP1 DUP4 PUSH20 0xFFFFFFFFFFFFFFFFFFFFFFFFFFFFFFFFFFFFFFFF AND MUL OR SWAP1 SSTORE POP PUSH1 0x20 DUP3 ADD MLOAD DUP2 PUSH1 0x1 ADD SSTORE POP POP PUSH32 0xBE0281DCB233D52D4D243D0D6FF4ED47E8641AECF85B98611ADE1C9307186B7D CALLER DUP5 DUP8 DUP8 PUSH1 0x40 MLOAD PUSH2 0x1E30 SWAP5 SWAP4 SWAP3 SWAP2 SWAP1 PUSH2 0x466B JUMP JUMPDEST PUSH1 0x40 MLOAD DUP1 SWAP2 SUB SWAP1 LOG1 POP POP POP POP POP JUMP JUMPDEST PUSH0 PUSH1 0x6 PUSH0 SWAP1 SLOAD SWAP1 PUSH2 0x100 EXP SWAP1 DIV PUSH20 0xFFFFFFFFFFFFFFFFFFFFFFFFFFFFFFFFFFFFFFFF AND PUSH20 0xFFFFFFFFFFFFFFFFFFFFFFFFFFFFFFFFFFFFFFFF AND CALLER PUSH20 0xFFFFFFFFFFFFFFFFFFFFFFFFFFFFFFFFFFFFFFFF AND EQ PUSH2 0x1ECF JUMPI PUSH1 0x40 MLOAD PUSH32 0x8C379A000000000000000000000000000000000000000000000000000000000 DUP2 MSTORE PUSH1 0x4 ADD PUSH2 0x1EC6 SWAP1 PUSH2 0x471E JUMP JUMPDEST PUSH1 0x40 MLOAD DUP1 SWAP2 SUB SWAP1 REVERT JUMPDEST SELFBALANCE SWAP1 POP SWAP1 JUMP JUMPDEST PUSH1 0x3 PUSH1 0x20 MSTORE DUP2 PUSH0 MSTORE PUSH1 0x40 PUSH0 KECCAK256 DUP2 DUP2 SLOAD DUP2 LT PUSH2 0x1EEE JUMPI PUSH0 DUP1 REVERT JUMPDEST SWAP1 PUSH0 MSTORE PUSH1 0x20 PUSH0 KECCAK256 SWAP1 PUSH1 0x4 MUL ADD PUSH0 SWAP2 POP SWAP2 POP POP DUP1 PUSH0 ADD PUSH0 SWAP1 SLOAD SWAP1 PUSH2 0x100 EXP SWAP1 DIV PUSH20 0xFFFFFFFFFFFFFFFFFFFFFFFFFFFFFFFFFFFFFFFF AND SWAP1 DUP1 PUSH1 0x1 ADD SLOAD SWAP1 DUP1 PUSH1 0x2 ADD DUP1 SLOAD PUSH2 0x1F39 SWAP1 PUSH2 0x3918 JUMP JUMPDEST DUP1 PUSH1 0x1F ADD PUSH1 0x20 DUP1 SWAP2 DIV MUL PUSH1 0x20 ADD PUSH1 0x40 MLOAD SWAP1 DUP2 ADD PUSH1 0x40 MSTORE DUP1 SWAP3 SWAP2 SWAP1 DUP2 DUP2 MSTORE PUSH1 0x20 ADD DUP3 DUP1 SLOAD PUSH2 0x1F65 SWAP1 PUSH2 0x3918 JUMP JUMPDEST DUP1 ISZERO PUSH2 0x1FB0 JUMPI DUP1 PUSH1 0x1F LT PUSH2 0x1F87 JUMPI PUSH2 0x100 DUP1 DUP4 SLOAD DIV MUL DUP4 MSTORE SWAP2 PUSH1 0x20 ADD SWAP2 PUSH2 0x1FB0 JUMP JUMPDEST DUP3 ADD SWAP2 SWAP1 PUSH0 MSTORE PUSH1 0x20 PUSH0 KECCAK256 SWAP1 JUMPDEST DUP2 SLOAD DUP2 MSTORE SWAP1 PUSH1 0x1 ADD SWAP1 PUSH1 0x20 ADD DUP1 DUP4 GT PUSH2 0x1F93 JUMPI DUP3 SWAP1 SUB PUSH1 0x1F AND DUP3 ADD SWAP2 JUMPDEST POP POP POP POP POP SWAP1 DUP1 PUSH1 0x3 ADD SLOAD SWAP1 POP DUP5 JUMP JUMPDEST PUSH0 JUMPDEST PUSH0 DUP1 CALLER PUSH20 0xFFFFFFFFFFFFFFFFFFFFFFFFFFFFFFFFFFFFFFFF AND PUSH20 0xFFFFFFFFFFFFFFFFFFFFFFFFFFFFFFFFFFFFFFFF AND DUP2 MSTORE PUSH1 0x20 ADD SWAP1 DUP2 MSTORE PUSH1 0x20 ADD PUSH0 KECCAK256 DUP1 SLOAD SWAP1 POP DUP2 LT ISZERO PUSH2 0x212C JUMPI PUSH0 DUP1 PUSH0 CALLER PUSH20 0xFFFFFFFFFFFFFFFFFFFFFFFFFFFFFFFFFFFFFFFF AND PUSH20 0xFFFFFFFFFFFFFFFFFFFFFFFFFFFFFFFFFFFFFFFF AND DUP2 MSTORE PUSH1 0x20 ADD SWAP1 DUP2 MSTORE PUSH1 0x20 ADD PUSH0 KECCAK256 DUP3 DUP2 SLOAD DUP2 LT PUSH2 0x2058 JUMPI PUSH2 0x2057 PUSH2 0x3A36 JUMP JUMPDEST JUMPDEST SWAP1 PUSH0 MSTORE PUSH1 0x20 PUSH0 KECCAK256 SWAP1 PUSH1 0x8 MUL ADD PUSH1 0x1 ADD SWAP1 POP PUSH0 DUP7 PUSH1 0x40 MLOAD PUSH1 0x20 ADD PUSH2 0x207B SWAP2 SWAP1 PUSH2 0x476C JUMP JUMPDEST PUSH1 0x40 MLOAD PUSH1 0x20 DUP2 DUP4 SUB SUB DUP2 MSTORE SWAP1 PUSH1 0x40 MSTORE DUP1 MLOAD SWAP1 PUSH1 0x20 ADD KECCAK256 DUP3 PUSH1 0x40 MLOAD PUSH1 0x20 ADD PUSH2 0x20A2 SWAP2 SWAP1 PUSH2 0x4814 JUMP JUMPDEST PUSH1 0x40 MLOAD PUSH1 0x20 DUP2 DUP4 SUB SUB DUP2 MSTORE SWAP1 PUSH1 0x40 MSTORE DUP1 MLOAD SWAP1 PUSH1 0x20 ADD KECCAK256 EQ SWAP1 POP DUP1 ISZERO PUSH2 0x211D JUMPI DUP7 PUSH1 0x40 MLOAD PUSH1 0x20 ADD PUSH2 0x20D2 SWAP2 SWAP1 PUSH2 0x48BE JUMP JUMPDEST PUSH1 0x40 MLOAD PUSH1 0x20 DUP2 DUP4 SUB SUB DUP2 MSTORE SWAP1 PUSH1 0x40 MSTORE PUSH1 0x40 MLOAD PUSH32 0x8C379A000000000000000000000000000000000000000000000000000000000 DUP2 MSTORE PUSH1 0x4 ADD PUSH2 0x2114 SWAP2 SWAP1 PUSH2 0x402C JUMP JUMPDEST PUSH1 0x40 MLOAD DUP1 SWAP2 SUB SWAP1 REVERT JUMPDEST POP POP DUP1 DUP1 PUSH1 0x1 ADD SWAP2 POP POP PUSH2 0x1FC2 JUMP JUMPDEST POP PUSH0 PUSH1 0x40 MLOAD DUP1 PUSH2 0x120 ADD PUSH1 0x40 MSTORE DUP1 PUSH1 0x1 PUSH0 DUP1 CALLER PUSH20 0xFFFFFFFFFFFFFFFFFFFFFFFFFFFFFFFFFFFFFFFF AND PUSH20 0xFFFFFFFFFFFFFFFFFFFFFFFFFFFFFFFFFFFFFFFF AND DUP2 MSTORE PUSH1 0x20 ADD SWAP1 DUP2 MSTORE PUSH1 0x20 ADD PUSH0 KECCAK256 DUP1 SLOAD SWAP1 POP PUSH2 0x2186 SWAP2 SWAP1 PUSH2 0x3D1E JUMP JUMPDEST DUP2 MSTORE PUSH1 0x20 ADD DUP7 DUP2 MSTORE PUSH1 0x20 ADD DUP6 DUP2 MSTORE PUSH1 0x20 ADD CALLER PUSH20 0xFFFFFFFFFFFFFFFFFFFFFFFFFFFFFFFFFFFFFFFF AND DUP2 MSTORE PUSH1 0x20 ADD DUP5 DUP2 MSTORE PUSH1 0x20 ADD PUSH0 DUP2 MSTORE PUSH1 0x20 ADD PUSH3 0x15180 DUP5 PUSH2 0x21CE SWAP2 SWAP1 PUSH2 0x48EA JUMP JUMPDEST TIMESTAMP PUSH2 0x21D9 SWAP2 SWAP1 PUSH2 0x3D1E JUMP JUMPDEST DUP2 MSTORE PUSH1 0x20 ADD PUSH0 ISZERO ISZERO DUP2 MSTORE PUSH1 0x20 ADD PUSH0 ISZERO ISZERO DUP2 MSTORE POP SWAP1 POP PUSH0 DUP1 CALLER PUSH20 0xFFFFFFFFFFFFFFFFFFFFFFFFFFFFFFFFFFFFFFFF AND PUSH20 0xFFFFFFFFFFFFFFFFFFFFFFFFFFFFFFFFFFFFFFFF AND DUP2 MSTORE PUSH1 0x20 ADD SWAP1 DUP2 MSTORE PUSH1 0x20 ADD PUSH0 KECCAK256 DUP2 SWAP1 DUP1 PUSH1 0x1 DUP2 SLOAD ADD DUP1 DUP3 SSTORE DUP1 SWAP2 POP POP PUSH1 0x1 SWAP1 SUB SWAP1 PUSH0 MSTORE PUSH1 0x20 PUSH0 KECCAK256 SWAP1 PUSH1 0x8 MUL ADD PUSH0 SWAP1 SWAP2 SWAP1 SWAP2 SWAP1 SWAP2 POP PUSH0 DUP3 ADD MLOAD DUP2 PUSH0 ADD SSTORE PUSH1 0x20 DUP3 ADD MLOAD DUP2 PUSH1 0x1 ADD SWAP1 DUP2 PUSH2 0x226E SWAP2 SWAP1 PUSH2 0x459C JUMP JUMPDEST POP PUSH1 0x40 DUP3 ADD MLOAD DUP2 PUSH1 0x2 ADD SWAP1 DUP2 PUSH2 0x2284 SWAP2 SWAP1 PUSH2 0x459C JUMP JUMPDEST POP PUSH1 0x60 DUP3 ADD MLOAD DUP2 PUSH1 0x3 ADD PUSH0 PUSH2 0x100 EXP DUP2 SLOAD DUP2 PUSH20 0xFFFFFFFFFFFFFFFFFFFFFFFFFFFFFFFFFFFFFFFF MUL NOT AND SWAP1 DUP4 PUSH20 0xFFFFFFFFFFFFFFFFFFFFFFFFFFFFFFFFFFFFFFFF AND MUL OR SWAP1 SSTORE POP PUSH1 0x80 DUP3 ADD MLOAD DUP2 PUSH1 0x4 ADD SSTORE PUSH1 0xA0 DUP3 ADD MLOAD DUP2 PUSH1 0x5 ADD SSTORE PUSH1 0xC0 DUP3 ADD MLOAD DUP2 PUSH1 0x6 ADD SSTORE PUSH1 0xE0 DUP3 ADD MLOAD DUP2 PUSH1 0x7 ADD PUSH0 PUSH2 0x100 EXP DUP2 SLOAD DUP2 PUSH1 0xFF MUL NOT AND SWAP1 DUP4 ISZERO ISZERO MUL OR SWAP1 SSTORE POP PUSH2 0x100 DUP3 ADD MLOAD DUP2 PUSH1 0x7 ADD PUSH1 0x1 PUSH2 0x100 EXP DUP2 SLOAD DUP2 PUSH1 0xFF MUL NOT AND SWAP1 DUP4 ISZERO ISZERO MUL OR SWAP1 SSTORE POP POP POP PUSH32 0xDC26653AF5B99B2DA33E2AD69EE6600D9AECCC82B034501DB4338309615CA238 PUSH0 DUP1 CALLER PUSH20 0xFFFFFFFFFFFFFFFFFFFFFFFFFFFFFFFFFFFFFFFF AND PUSH20 0xFFFFFFFFFFFFFFFFFFFFFFFFFFFFFFFFFFFFFFFF AND DUP2 MSTORE PUSH1 0x20 ADD SWAP1 DUP2 MSTORE PUSH1 0x20 ADD PUSH0 KECCAK256 DUP1 SLOAD SWAP1 POP CALLER DUP8 DUP7 PUSH3 0x15180 DUP8 PUSH2 0x239E SWAP2 SWAP1 PUSH2 0x48EA JUMP JUMPDEST TIMESTAMP PUSH2 0x23A9 SWAP2 SWAP1 PUSH2 0x3D1E JUMP JUMPDEST PUSH1 0x40 MLOAD PUSH2 0x23BA SWAP6 SWAP5 SWAP4 SWAP3 SWAP2 SWAP1 PUSH2 0x492B JUMP JUMPDEST PUSH1 0x40 MLOAD DUP1 SWAP2 SUB SWAP1 LOG1 POP POP POP POP POP JUMP JUMPDEST DUP1 PUSH20 0xFFFFFFFFFFFFFFFFFFFFFFFFFFFFFFFFFFFFFFFF AND CALLER PUSH20 0xFFFFFFFFFFFFFFFFFFFFFFFFFFFFFFFFFFFFFFFF AND SUB PUSH2 0x2437 JUMPI PUSH1 0x40 MLOAD PUSH32 0x8C379A000000000000000000000000000000000000000000000000000000000 DUP2 MSTORE PUSH1 0x4 ADD PUSH2 0x242E SWAP1 PUSH2 0x49F3 JUMP JUMPDEST PUSH1 0x40 MLOAD DUP1 SWAP2 SUB SWAP1 REVERT JUMPDEST PUSH1 0x1 PUSH0 CALLER PUSH20 0xFFFFFFFFFFFFFFFFFFFFFFFFFFFFFFFFFFFFFFFF AND PUSH20 0xFFFFFFFFFFFFFFFFFFFFFFFFFFFFFFFFFFFFFFFF AND DUP2 MSTORE PUSH1 0x20 ADD SWAP1 DUP2 MSTORE PUSH1 0x20 ADD PUSH0 KECCAK256 PUSH0 DUP3 PUSH20 0xFFFFFFFFFFFFFFFFFFFFFFFFFFFFFFFFFFFFFFFF AND PUSH20 0xFFFFFFFFFFFFFFFFFFFFFFFFFFFFFFFFFFFFFFFF AND DUP2 MSTORE PUSH1 0x20 ADD SWAP1 DUP2 MSTORE PUSH1 0x20 ADD PUSH0 KECCAK256 PUSH0 SWAP1 SLOAD SWAP1 PUSH2 0x100 EXP SWAP1 DIV PUSH1 0xFF AND ISZERO PUSH2 0x24FC JUMPI PUSH1 0x40 MLOAD PUSH32 0x8C379A000000000000000000000000000000000000000000000000000000000 DUP2 MSTORE PUSH1 0x4 ADD PUSH2 0x24F3 SWAP1 PUSH2 0x4A81 JUMP JUMPDEST PUSH1 0x40 MLOAD DUP1 SWAP2 SUB SWAP1 REVERT JUMPDEST PUSH1 0x1 DUP1 PUSH0 CALLER PUSH20 0xFFFFFFFFFFFFFFFFFFFFFFFFFFFFFFFFFFFFFFFF AND PUSH20 0xFFFFFFFFFFFFFFFFFFFFFFFFFFFFFFFFFFFFFFFF AND DUP2 MSTORE PUSH1 0x20 ADD SWAP1 DUP2 MSTORE PUSH1 0x20 ADD PUSH0 KECCAK256 PUSH0 DUP4 PUSH20 0xFFFFFFFFFFFFFFFFFFFFFFFFFFFFFFFFFFFFFFFF AND PUSH20 0xFFFFFFFFFFFFFFFFFFFFFFFFFFFFFFFFFFFFFFFF AND DUP2 MSTORE PUSH1 0x20 ADD SWAP1 DUP2 MSTORE PUSH1 0x20 ADD PUSH0 KECCAK256 PUSH0 PUSH2 0x100 EXP DUP2 SLOAD DUP2 PUSH1 0xFF MUL NOT AND SWAP1 DUP4 ISZERO ISZERO MUL OR SWAP1 SSTORE POP PUSH1 0x2 PUSH0 CALLER PUSH20 0xFFFFFFFFFFFFFFFFFFFFFFFFFFFFFFFFFFFFFFFF AND PUSH20 0xFFFFFFFFFFFFFFFFFFFFFFFFFFFFFFFFFFFFFFFF AND DUP2 MSTORE PUSH1 0x20 ADD SWAP1 DUP2 MSTORE PUSH1 0x20 ADD PUSH0 KECCAK256 DUP2 SWAP1 DUP1 PUSH1 0x1 DUP2 SLOAD ADD DUP1 DUP3 SSTORE DUP1 SWAP2 POP POP PUSH1 0x1 SWAP1 SUB SWAP1 PUSH0 MSTORE PUSH1 0x20 PUSH0 KECCAK256 ADD PUSH0 SWAP1 SWAP2 SWAP1 SWAP2 SWAP1 SWAP2 PUSH2 0x100 EXP DUP2 SLOAD DUP2 PUSH20 0xFFFFFFFFFFFFFFFFFFFFFFFFFFFFFFFFFFFFFFFF MUL NOT AND SWAP1 DUP4 PUSH20 0xFFFFFFFFFFFFFFFFFFFFFFFFFFFFFFFFFFFFFFFF AND MUL OR SWAP1 SSTORE POP PUSH32 0xAD6DE4452A631E641CB59902236607946CE9272B9B981F2F80E8D129CB9084BA DUP2 PUSH1 0x40 MLOAD PUSH2 0x2655 SWAP2 SWAP1 PUSH2 0x3429 JUMP JUMPDEST PUSH1 0x40 MLOAD DUP1 SWAP2 SUB SWAP1 LOG1 POP JUMP JUMPDEST PUSH1 0x1 PUSH1 0x20 MSTORE DUP2 PUSH0 MSTORE PUSH1 0x40 PUSH0 KECCAK256 PUSH1 0x20 MSTORE DUP1 PUSH0 MSTORE PUSH1 0x40 PUSH0 KECCAK256 PUSH0 SWAP2 POP SWAP2 POP SWAP1 SLOAD SWAP1 PUSH2 0x100 EXP SWAP1 DIV PUSH1 0xFF AND DUP2 JUMP JUMPDEST DUP3 DUP5 PUSH0 DUP1 PUSH0 DUP5 PUSH20 0xFFFFFFFFFFFFFFFFFFFFFFFFFFFFFFFFFFFFFFFF AND PUSH20 0xFFFFFFFFFFFFFFFFFFFFFFFFFFFFFFFFFFFFFFFF AND DUP2 MSTORE PUSH1 0x20 ADD SWAP1 DUP2 MSTORE PUSH1 0x20 ADD PUSH0 KECCAK256 DUP1 SLOAD SWAP1 POP GT PUSH2 0x270D JUMPI PUSH1 0x40 MLOAD PUSH32 0x8C379A000000000000000000000000000000000000000000000000000000000 DUP2 MSTORE PUSH1 0x4 ADD PUSH2 0x2704 SWAP1 PUSH2 0x39B8 JUMP JUMPDEST PUSH1 0x40 MLOAD DUP1 SWAP2 SUB SWAP1 REVERT JUMPDEST DUP1 PUSH0 DUP1 DUP5 PUSH20 0xFFFFFFFFFFFFFFFFFFFFFFFFFFFFFFFFFFFFFFFF AND PUSH20 0xFFFFFFFFFFFFFFFFFFFFFFFFFFFFFFFFFFFFFFFF AND DUP2 MSTORE PUSH1 0x20 ADD SWAP1 DUP2 MSTORE PUSH1 0x20 ADD PUSH0 KECCAK256 PUSH1 0x1 DUP4 PUSH2 0x2757 SWAP2 SWAP1 PUSH2 0x3A03 JUMP JUMPDEST DUP2 SLOAD DUP2 LT PUSH2 0x2768 JUMPI PUSH2 0x2767 PUSH2 0x3A36 JUMP JUMPDEST JUMPDEST SWAP1 PUSH0 MSTORE PUSH1 0x20 PUSH0 KECCAK256 SWAP1 PUSH1 0x8 MUL ADD PUSH0 ADD SLOAD EQ PUSH2 0x27B7 JUMPI PUSH1 0x40 MLOAD PUSH32 0x8C379A000000000000000000000000000000000000000000000000000000000 DUP2 MSTORE PUSH1 0x4 ADD PUSH2 0x27AE SWAP1 PUSH2 0x3AD3 JUMP JUMPDEST PUSH1 0x40 MLOAD DUP1 SWAP2 SUB SWAP1 REVERT JUMPDEST PUSH1 0x1 PUSH0 DUP4 PUSH20 0xFFFFFFFFFFFFFFFFFFFFFFFFFFFFFFFFFFFFFFFF AND PUSH20 0xFFFFFFFFFFFFFFFFFFFFFFFFFFFFFFFFFFFFFFFF AND DUP2 MSTORE PUSH1 0x20 ADD SWAP1 DUP2 MSTORE PUSH1 0x20 ADD PUSH0 KECCAK256 PUSH0 CALLER PUSH20 0xFFFFFFFFFFFFFFFFFFFFFFFFFFFFFFFFFFFFFFFF AND PUSH20 0xFFFFFFFFFFFFFFFFFFFFFFFFFFFFFFFFFFFFFFFF AND DUP2 MSTORE PUSH1 0x20 ADD SWAP1 DUP2 MSTORE PUSH1 0x20 ADD PUSH0 KECCAK256 PUSH0 SWAP1 SLOAD SWAP1 PUSH2 0x100 EXP SWAP1 DIV PUSH1 0xFF AND PUSH2 0x287B JUMPI PUSH1 0x40 MLOAD PUSH32 0x8C379A000000000000000000000000000000000000000000000000000000000 DUP2 MSTORE PUSH1 0x4 ADD PUSH2 0x2872 SWAP1 PUSH2 0x3B61 JUMP JUMPDEST PUSH1 0x40 MLOAD DUP1 SWAP2 SUB SWAP1 REVERT JUMPDEST PUSH0 DUP1 DUP7 PUSH20 0xFFFFFFFFFFFFFFFFFFFFFFFFFFFFFFFFFFFFFFFF AND PUSH20 0xFFFFFFFFFFFFFFFFFFFFFFFFFFFFFFFFFFFFFFFF AND DUP2 MSTORE PUSH1 0x20 ADD SWAP1 DUP2 MSTORE PUSH1 0x20 ADD PUSH0 KECCAK256 PUSH1 0x1 DUP8 PUSH2 0x28C4 SWAP2 SWAP1 PUSH2 0x3A03 JUMP JUMPDEST DUP2 SLOAD DUP2 LT PUSH2 0x28D5 JUMPI PUSH2 0x28D4 PUSH2 0x3A36 JUMP JUMPDEST JUMPDEST SWAP1 PUSH0 MSTORE PUSH1 0x20 PUSH0 KECCAK256 SWAP1 PUSH1 0x8 MUL ADD PUSH1 0x7 ADD PUSH0 SWAP1 SLOAD SWAP1 PUSH2 0x100 EXP SWAP1 DIV PUSH1 0xFF AND PUSH2 0x2930 JUMPI PUSH1 0x40 MLOAD PUSH32 0x8C379A000000000000000000000000000000000000000000000000000000000 DUP2 MSTORE PUSH1 0x4 ADD PUSH2 0x2927 SWAP1 PUSH2 0x4B0F JUMP JUMPDEST PUSH1 0x40 MLOAD DUP1 SWAP2 SUB SWAP1 REVERT JUMPDEST DUP4 SELFBALANCE LT ISZERO PUSH2 0x2973 JUMPI PUSH1 0x40 MLOAD PUSH32 0x8C379A000000000000000000000000000000000000000000000000000000000 DUP2 MSTORE PUSH1 0x4 ADD PUSH2 0x296A SWAP1 PUSH2 0x3C57 JUMP JUMPDEST PUSH1 0x40 MLOAD DUP1 SWAP2 SUB SWAP1 REVERT JUMPDEST PUSH0 DUP5 GT DUP1 ISZERO PUSH2 0x29EB JUMPI POP PUSH0 DUP1 DUP7 PUSH20 0xFFFFFFFFFFFFFFFFFFFFFFFFFFFFFFFFFFFFFFFF AND PUSH20 0xFFFFFFFFFFFFFFFFFFFFFFFFFFFFFFFFFFFFFFFF AND DUP2 MSTORE PUSH1 0x20 ADD SWAP1 DUP2 MSTORE PUSH1 0x20 ADD PUSH0 KECCAK256 PUSH1 0x1 DUP8 PUSH2 0x29C6 SWAP2 SWAP1 PUSH2 0x3A03 JUMP JUMPDEST DUP2 SLOAD DUP2 LT PUSH2 0x29D7 JUMPI PUSH2 0x29D6 PUSH2 0x3A36 JUMP JUMPDEST JUMPDEST SWAP1 PUSH0 MSTORE PUSH1 0x20 PUSH0 KECCAK256 SWAP1 PUSH1 0x8 MUL ADD PUSH1 0x5 ADD SLOAD DUP5 GT ISZERO JUMPDEST PUSH2 0x2A2A JUMPI PUSH1 0x40 MLOAD PUSH32 0x8C379A000000000000000000000000000000000000000000000000000000000 DUP2 MSTORE PUSH1 0x4 ADD PUSH2 0x2A21 SWAP1 PUSH2 0x4B9D JUMP JUMPDEST PUSH1 0x40 MLOAD DUP1 SWAP2 SUB SWAP1 REVERT JUMPDEST PUSH0 DUP1 PUSH0 DUP8 PUSH20 0xFFFFFFFFFFFFFFFFFFFFFFFFFFFFFFFFFFFFFFFF AND PUSH20 0xFFFFFFFFFFFFFFFFFFFFFFFFFFFFFFFFFFFFFFFF AND DUP2 MSTORE PUSH1 0x20 ADD SWAP1 DUP2 MSTORE PUSH1 0x20 ADD PUSH0 KECCAK256 PUSH1 0x1 DUP9 PUSH2 0x2A74 SWAP2 SWAP1 PUSH2 0x3A03 JUMP JUMPDEST DUP2 SLOAD DUP2 LT PUSH2 0x2A85 JUMPI PUSH2 0x2A84 PUSH2 0x3A36 JUMP JUMPDEST JUMPDEST SWAP1 PUSH0 MSTORE PUSH1 0x20 PUSH0 KECCAK256 SWAP1 PUSH1 0x8 MUL ADD PUSH1 0x5 ADD SLOAD SWAP1 POP PUSH0 DUP6 DUP3 PUSH2 0x2AA4 SWAP2 SWAP1 PUSH2 0x3A03 JUMP JUMPDEST SWAP1 POP DUP1 PUSH0 DUP1 DUP10 PUSH20 0xFFFFFFFFFFFFFFFFFFFFFFFFFFFFFFFFFFFFFFFF AND PUSH20 0xFFFFFFFFFFFFFFFFFFFFFFFFFFFFFFFFFFFFFFFF AND DUP2 MSTORE PUSH1 0x20 ADD SWAP1 DUP2 MSTORE PUSH1 0x20 ADD PUSH0 KECCAK256 PUSH1 0x1 DUP11 PUSH2 0x2AF0 SWAP2 SWAP1 PUSH2 0x3A03 JUMP JUMPDEST DUP2 SLOAD DUP2 LT PUSH2 0x2B01 JUMPI PUSH2 0x2B00 PUSH2 0x3A36 JUMP JUMPDEST JUMPDEST SWAP1 PUSH0 MSTORE PUSH1 0x20 PUSH0 KECCAK256 SWAP1 PUSH1 0x8 MUL ADD PUSH1 0x5 ADD DUP2 SWAP1 SSTORE POP PUSH0 DUP6 PUSH20 0xFFFFFFFFFFFFFFFFFFFFFFFFFFFFFFFFFFFFFFFF AND DUP8 PUSH1 0x40 MLOAD PUSH2 0x2B39 SWAP1 PUSH2 0x3CA2 JUMP JUMPDEST PUSH0 PUSH1 0x40 MLOAD DUP1 DUP4 SUB DUP2 DUP6 DUP8 GAS CALL SWAP3 POP POP POP RETURNDATASIZE DUP1 PUSH0 DUP2 EQ PUSH2 0x2B73 JUMPI PUSH1 0x40 MLOAD SWAP2 POP PUSH1 0x1F NOT PUSH1 0x3F RETURNDATASIZE ADD AND DUP3 ADD PUSH1 0x40 MSTORE RETURNDATASIZE DUP3 MSTORE RETURNDATASIZE PUSH0 PUSH1 0x20 DUP5 ADD RETURNDATACOPY PUSH2 0x2B78 JUMP JUMPDEST PUSH1 0x60 SWAP2 POP JUMPDEST POP POP SWAP1 POP DUP1 PUSH2 0x2BBC JUMPI PUSH1 0x40 MLOAD PUSH32 0x8C379A000000000000000000000000000000000000000000000000000000000 DUP2 MSTORE PUSH1 0x4 ADD PUSH2 0x2BB3 SWAP1 PUSH2 0x3D00 JUMP JUMPDEST PUSH1 0x40 MLOAD DUP1 SWAP2 SUB SWAP1 REVERT JUMPDEST PUSH0 PUSH1 0x40 MLOAD DUP1 PUSH1 0xA0 ADD PUSH1 0x40 MSTORE DUP1 DUP12 DUP2 MSTORE PUSH1 0x20 ADD PUSH0 DUP1 DUP13 PUSH20 0xFFFFFFFFFFFFFFFFFFFFFFFFFFFFFFFFFFFFFFFF AND PUSH20 0xFFFFFFFFFFFFFFFFFFFFFFFFFFFFFFFFFFFFFFFF AND DUP2 MSTORE PUSH1 0x20 ADD SWAP1 DUP2 MSTORE PUSH1 0x20 ADD PUSH0 KECCAK256 PUSH1 0x1 DUP14 PUSH2 0x2C17 SWAP2 SWAP1 PUSH2 0x3A03 JUMP JUMPDEST DUP2 SLOAD DUP2 LT PUSH2 0x2C28 JUMPI PUSH2 0x2C27 PUSH2 0x3A36 JUMP JUMPDEST JUMPDEST SWAP1 PUSH0 MSTORE PUSH1 0x20 PUSH0 KECCAK256 SWAP1 PUSH1 0x8 MUL ADD PUSH1 0x1 ADD DUP1 SLOAD PUSH2 0x2C42 SWAP1 PUSH2 0x3918 JUMP JUMPDEST DUP1 PUSH1 0x1F ADD PUSH1 0x20 DUP1 SWAP2 DIV MUL PUSH1 0x20 ADD PUSH1 0x40 MLOAD SWAP1 DUP2 ADD PUSH1 0x40 MSTORE DUP1 SWAP3 SWAP2 SWAP1 DUP2 DUP2 MSTORE PUSH1 0x20 ADD DUP3 DUP1 SLOAD PUSH2 0x2C6E SWAP1 PUSH2 0x3918 JUMP JUMPDEST DUP1 ISZERO PUSH2 0x2CB9 JUMPI DUP1 PUSH1 0x1F LT PUSH2 0x2C90 JUMPI PUSH2 0x100 DUP1 DUP4 SLOAD DIV MUL DUP4 MSTORE SWAP2 PUSH1 0x20 ADD SWAP2 PUSH2 0x2CB9 JUMP JUMPDEST DUP3 ADD SWAP2 SWAP1 PUSH0 MSTORE PUSH1 0x20 PUSH0 KECCAK256 SWAP1 JUMPDEST DUP2 SLOAD DUP2 MSTORE SWAP1 PUSH1 0x1 ADD SWAP1 PUSH1 0x20 ADD DUP1 DUP4 GT PUSH2 0x2C9C JUMPI DUP3 SWAP1 SUB PUSH1 0x1F AND DUP3 ADD SWAP2 JUMPDEST POP POP POP POP POP DUP2 MSTORE PUSH1 0x20 ADD DUP10 DUP2 MSTORE PUSH1 0x20 ADD CALLER PUSH20 0xFFFFFFFFFFFFFFFFFFFFFFFFFFFFFFFFFFFFFFFF AND DUP2 MSTORE PUSH1 0x20 ADD DUP9 PUSH20 0xFFFFFFFFFFFFFFFFFFFFFFFFFFFFFFFFFFFFFFFF AND DUP2 MSTORE POP SWAP1 POP PUSH1 0x4 PUSH0 DUP11 PUSH20 0xFFFFFFFFFFFFFFFFFFFFFFFFFFFFFFFFFFFFFFFF AND PUSH20 0xFFFFFFFFFFFFFFFFFFFFFFFFFFFFFFFFFFFFFFFF AND DUP2 MSTORE PUSH1 0x20 ADD SWAP1 DUP2 MSTORE PUSH1 0x20 ADD PUSH0 KECCAK256 DUP2 SWAP1 DUP1 PUSH1 0x1 DUP2 SLOAD ADD DUP1 DUP3 SSTORE DUP1 SWAP2 POP POP PUSH1 0x1 SWAP1 SUB SWAP1 PUSH0 MSTORE PUSH1 0x20 PUSH0 KECCAK256 SWAP1 PUSH1 0x5 MUL ADD PUSH0 SWAP1 SWAP2 SWAP1 SWAP2 SWAP1 SWAP2 POP PUSH0 DUP3 ADD MLOAD DUP2 PUSH0 ADD SSTORE PUSH1 0x20 DUP3 ADD MLOAD DUP2 PUSH1 0x1 ADD SWAP1 DUP2 PUSH2 0x2D82 SWAP2 SWAP1 PUSH2 0x459C JUMP JUMPDEST POP PUSH1 0x40 DUP3 ADD MLOAD DUP2 PUSH1 0x2 ADD SSTORE PUSH1 0x60 DUP3 ADD MLOAD DUP2 PUSH1 0x3 ADD PUSH0 PUSH2 0x100 EXP DUP2 SLOAD DUP2 PUSH20 0xFFFFFFFFFFFFFFFFFFFFFFFFFFFFFFFFFFFFFFFF MUL NOT AND SWAP1 DUP4 PUSH20 0xFFFFFFFFFFFFFFFFFFFFFFFFFFFFFFFFFFFFFFFF AND MUL OR SWAP1 SSTORE POP PUSH1 0x80 DUP3 ADD MLOAD DUP2 PUSH1 0x4 ADD PUSH0 PUSH2 0x100 EXP DUP2 SLOAD DUP2 PUSH20 0xFFFFFFFFFFFFFFFFFFFFFFFFFFFFFFFFFFFFFFFF MUL NOT AND SWAP1 DUP4 PUSH20 0xFFFFFFFFFFFFFFFFFFFFFFFFFFFFFFFFFFFFFFFF AND MUL OR SWAP1 SSTORE POP POP POP PUSH32 0xFB301322F68B8EA04D2B6A3AB0A1A0100D7BE758E7FFA771D5539A256B92D10D DUP9 CALLER DUP10 DUP13 DUP15 PUSH1 0x40 MLOAD PUSH2 0x2E52 SWAP6 SWAP5 SWAP4 SWAP3 SWAP2 SWAP1 PUSH2 0x4BBB JUMP JUMPDEST PUSH1 0x40 MLOAD DUP1 SWAP2 SUB SWAP1 LOG1 POP POP POP POP POP POP POP POP POP POP JUMP JUMPDEST PUSH1 0x5 PUSH1 0x20 MSTORE DUP3 PUSH0 MSTORE PUSH1 0x40 PUSH0 KECCAK256 PUSH1 0x20 MSTORE DUP2 PUSH0 MSTORE PUSH1 0x40 PUSH0 KECCAK256 DUP2 DUP2 SLOAD DUP2 LT PUSH2 0x2E89 JUMPI PUSH0 DUP1 REVERT JUMPDEST SWAP1 PUSH0 MSTORE PUSH1 0x20 PUSH0 KECCAK256 SWAP1 PUSH1 0x2 MUL ADD PUSH0 SWAP3 POP SWAP3 POP POP POP DUP1 PUSH0 ADD PUSH0 SWAP1 SLOAD SWAP1 PUSH2 0x100 EXP SWAP1 DIV PUSH20 0xFFFFFFFFFFFFFFFFFFFFFFFFFFFFFFFFFFFFFFFF AND SWAP1 DUP1 PUSH1 0x1 ADD SLOAD SWAP1 POP DUP3 JUMP JUMPDEST PUSH1 0x1 PUSH0 CALLER PUSH20 0xFFFFFFFFFFFFFFFFFFFFFFFFFFFFFFFFFFFFFFFF AND PUSH20 0xFFFFFFFFFFFFFFFFFFFFFFFFFFFFFFFFFFFFFFFF AND DUP2 MSTORE PUSH1 0x20 ADD SWAP1 DUP2 MSTORE PUSH1 0x20 ADD PUSH0 KECCAK256 PUSH0 DUP3 PUSH20 0xFFFFFFFFFFFFFFFFFFFFFFFFFFFFFFFFFFFFFFFF AND PUSH20 0xFFFFFFFFFFFFFFFFFFFFFFFFFFFFFFFFFFFFFFFF AND DUP2 MSTORE PUSH1 0x20 ADD SWAP1 DUP2 MSTORE PUSH1 0x20 ADD PUSH0 KECCAK256 PUSH0 SWAP1 SLOAD SWAP1 PUSH2 0x100 EXP SWAP1 DIV PUSH1 0xFF AND PUSH2 0x2F8E JUMPI PUSH1 0x40 MLOAD PUSH32 0x8C379A000000000000000000000000000000000000000000000000000000000 DUP2 MSTORE PUSH1 0x4 ADD PUSH2 0x2F85 SWAP1 PUSH2 0x4C56 JUMP JUMPDEST PUSH1 0x40 MLOAD DUP1 SWAP2 SUB SWAP1 REVERT JUMPDEST PUSH0 PUSH1 0x1 PUSH0 CALLER PUSH20 0xFFFFFFFFFFFFFFFFFFFFFFFFFFFFFFFFFFFFFFFF AND PUSH20 0xFFFFFFFFFFFFFFFFFFFFFFFFFFFFFFFFFFFFFFFF AND DUP2 MSTORE PUSH1 0x20 ADD SWAP1 DUP2 MSTORE PUSH1 0x20 ADD PUSH0 KECCAK256 PUSH0 DUP4 PUSH20 0xFFFFFFFFFFFFFFFFFFFFFFFFFFFFFFFFFFFFFFFF AND PUSH20 0xFFFFFFFFFFFFFFFFFFFFFFFFFFFFFFFFFFFFFFFF AND DUP2 MSTORE PUSH1 0x20 ADD SWAP1 DUP2 MSTORE PUSH1 0x20 ADD PUSH0 KECCAK256 PUSH0 PUSH2 0x100 EXP DUP2 SLOAD DUP2 PUSH1 0xFF MUL NOT AND SWAP1 DUP4 ISZERO ISZERO MUL OR SWAP1 SSTORE POP PUSH0 PUSH1 0x2 PUSH0 CALLER PUSH20 0xFFFFFFFFFFFFFFFFFFFFFFFFFFFFFFFFFFFFFFFF AND PUSH20 0xFFFFFFFFFFFFFFFFFFFFFFFFFFFFFFFFFFFFFFFF AND DUP2 MSTORE PUSH1 0x20 ADD SWAP1 DUP2 MSTORE PUSH1 0x20 ADD PUSH0 KECCAK256 SWAP1 POP PUSH0 JUMPDEST DUP2 DUP1 SLOAD SWAP1 POP DUP2 LT ISZERO PUSH2 0x31D0 JUMPI DUP3 PUSH20 0xFFFFFFFFFFFFFFFFFFFFFFFFFFFFFFFFFFFFFFFF AND DUP3 DUP3 DUP2 SLOAD DUP2 LT PUSH2 0x3095 JUMPI PUSH2 0x3094 PUSH2 0x3A36 JUMP JUMPDEST JUMPDEST SWAP1 PUSH0 MSTORE PUSH1 0x20 PUSH0 KECCAK256 ADD PUSH0 SWAP1 SLOAD SWAP1 PUSH2 0x100 EXP SWAP1 DIV PUSH20 0xFFFFFFFFFFFFFFFFFFFFFFFFFFFFFFFFFFFFFFFF AND PUSH20 0xFFFFFFFFFFFFFFFFFFFFFFFFFFFFFFFFFFFFFFFF AND SUB PUSH2 0x31C3 JUMPI DUP2 PUSH1 0x1 DUP4 DUP1 SLOAD SWAP1 POP PUSH2 0x30EA SWAP2 SWAP1 PUSH2 0x3A03 JUMP JUMPDEST DUP2 SLOAD DUP2 LT PUSH2 0x30FB JUMPI PUSH2 0x30FA PUSH2 0x3A36 JUMP JUMPDEST JUMPDEST SWAP1 PUSH0 MSTORE PUSH1 0x20 PUSH0 KECCAK256 ADD PUSH0 SWAP1 SLOAD SWAP1 PUSH2 0x100 EXP SWAP1 DIV PUSH20 0xFFFFFFFFFFFFFFFFFFFFFFFFFFFFFFFFFFFFFFFF AND DUP3 DUP3 DUP2 SLOAD DUP2 LT PUSH2 0x3136 JUMPI PUSH2 0x3135 PUSH2 0x3A36 JUMP JUMPDEST JUMPDEST SWAP1 PUSH0 MSTORE PUSH1 0x20 PUSH0 KECCAK256 ADD PUSH0 PUSH2 0x100 EXP DUP2 SLOAD DUP2 PUSH20 0xFFFFFFFFFFFFFFFFFFFFFFFFFFFFFFFFFFFFFFFF MUL NOT AND SWAP1 DUP4 PUSH20 0xFFFFFFFFFFFFFFFFFFFFFFFFFFFFFFFFFFFFFFFF AND MUL OR SWAP1 SSTORE POP DUP2 DUP1 SLOAD DUP1 PUSH2 0x318C JUMPI PUSH2 0x318B PUSH2 0x4C74 JUMP JUMPDEST JUMPDEST PUSH1 0x1 SWAP1 SUB DUP2 DUP2 SWAP1 PUSH0 MSTORE PUSH1 0x20 PUSH0 KECCAK256 ADD PUSH0 PUSH2 0x100 EXP DUP2 SLOAD SWAP1 PUSH20 0xFFFFFFFFFFFFFFFFFFFFFFFFFFFFFFFFFFFFFFFF MUL NOT AND SWAP1 SSTORE SWAP1 SSTORE PUSH2 0x31D0 JUMP JUMPDEST DUP1 DUP1 PUSH1 0x1 ADD SWAP2 POP POP PUSH2 0x305F JUMP JUMPDEST POP PUSH32 0x753F40CA3312B2408759A67875B367955E7BAA221DAF08AA3D643D96202AC12B DUP3 PUSH1 0x40 MLOAD PUSH2 0x3200 SWAP2 SWAP1 PUSH2 0x3429 JUMP JUMPDEST PUSH1 0x40 MLOAD DUP1 SWAP2 SUB SWAP1 LOG1 POP POP JUMP JUMPDEST PUSH0 PUSH1 0x40 MLOAD SWAP1 POP SWAP1 JUMP JUMPDEST PUSH0 DUP1 REVERT JUMPDEST PUSH0 DUP1 REVERT JUMPDEST PUSH0 PUSH20 0xFFFFFFFFFFFFFFFFFFFFFFFFFFFFFFFFFFFFFFFF DUP3 AND SWAP1 POP SWAP2 SWAP1 POP JUMP JUMPDEST PUSH0 PUSH2 0x3246 DUP3 PUSH2 0x321D JUMP JUMPDEST SWAP1 POP SWAP2 SWAP1 POP JUMP JUMPDEST PUSH2 0x3256 DUP2 PUSH2 0x323C JUMP JUMPDEST DUP2 EQ PUSH2 0x3260 JUMPI PUSH0 DUP1 REVERT JUMPDEST POP JUMP JUMPDEST PUSH0 DUP2 CALLDATALOAD SWAP1 POP PUSH2 0x3271 DUP2 PUSH2 0x324D JUMP JUMPDEST SWAP3 SWAP2 POP POP JUMP JUMPDEST PUSH0 DUP2 SWAP1 POP SWAP2 SWAP1 POP JUMP JUMPDEST PUSH2 0x3289 DUP2 PUSH2 0x3277 JUMP JUMPDEST DUP2 EQ PUSH2 0x3293 JUMPI PUSH0 DUP1 REVERT JUMPDEST POP JUMP JUMPDEST PUSH0 DUP2 CALLDATALOAD SWAP1 POP PUSH2 0x32A4 DUP2 PUSH2 0x3280 JUMP JUMPDEST SWAP3 SWAP2 POP POP JUMP JUMPDEST PUSH0 DUP1 PUSH1 0x40 DUP4 DUP6 SUB SLT ISZERO PUSH2 0x32C0 JUMPI PUSH2 0x32BF PUSH2 0x3215 JUMP JUMPDEST JUMPDEST PUSH0 PUSH2 0x32CD DUP6 DUP3 DUP7 ADD PUSH2 0x3263 JUMP JUMPDEST SWAP3 POP POP PUSH1 0x20 PUSH2 0x32DE DUP6 DUP3 DUP7 ADD PUSH2 0x3296 JUMP JUMPDEST SWAP2 POP POP SWAP3 POP SWAP3 SWAP1 POP JUMP JUMPDEST PUSH2 0x32F1 DUP2 PUSH2 0x3277 JUMP JUMPDEST DUP3 MSTORE POP POP JUMP JUMPDEST PUSH0 DUP2 MLOAD SWAP1 POP SWAP2 SWAP1 POP JUMP JUMPDEST PUSH0 DUP3 DUP3 MSTORE PUSH1 0x20 DUP3 ADD SWAP1 POP SWAP3 SWAP2 POP POP JUMP JUMPDEST DUP3 DUP2 DUP4 MCOPY PUSH0 DUP4 DUP4 ADD MSTORE POP POP POP JUMP JUMPDEST PUSH0 PUSH1 0x1F NOT PUSH1 0x1F DUP4 ADD AND SWAP1 POP SWAP2 SWAP1 POP JUMP JUMPDEST PUSH0 PUSH2 0x3339 DUP3 PUSH2 0x32F7 JUMP JUMPDEST PUSH2 0x3343 DUP2 DUP6 PUSH2 0x3301 JUMP JUMPDEST SWAP4 POP PUSH2 0x3353 DUP2 DUP6 PUSH1 0x20 DUP7 ADD PUSH2 0x3311 JUMP JUMPDEST PUSH2 0x335C DUP2 PUSH2 0x331F JUMP JUMPDEST DUP5 ADD SWAP2 POP POP SWAP3 SWAP2 POP POP JUMP JUMPDEST PUSH2 0x3370 DUP2 PUSH2 0x323C JUMP JUMPDEST DUP3 MSTORE POP POP JUMP JUMPDEST PUSH0 DUP2 ISZERO ISZERO SWAP1 POP SWAP2 SWAP1 POP JUMP JUMPDEST PUSH2 0x338A DUP2 PUSH2 0x3376 JUMP JUMPDEST DUP3 MSTORE POP POP JUMP JUMPDEST PUSH0 PUSH2 0x120 DUP3 ADD SWAP1 POP PUSH2 0x33A4 PUSH0 DUP4 ADD DUP13 PUSH2 0x32E8 JUMP JUMPDEST DUP2 DUP2 SUB PUSH1 0x20 DUP4 ADD MSTORE PUSH2 0x33B6 DUP2 DUP12 PUSH2 0x332F JUMP JUMPDEST SWAP1 POP DUP2 DUP2 SUB PUSH1 0x40 DUP4 ADD MSTORE PUSH2 0x33CA DUP2 DUP11 PUSH2 0x332F JUMP JUMPDEST SWAP1 POP PUSH2 0x33D9 PUSH1 0x60 DUP4 ADD DUP10 PUSH2 0x3367 JUMP JUMPDEST PUSH2 0x33E6 PUSH1 0x80 DUP4 ADD DUP9 PUSH2 0x32E8 JUMP JUMPDEST PUSH2 0x33F3 PUSH1 0xA0 DUP4 ADD DUP8 PUSH2 0x32E8 JUMP JUMPDEST PUSH2 0x3400 PUSH1 0xC0 DUP4 ADD DUP7 PUSH2 0x32E8 JUMP JUMPDEST PUSH2 0x340D PUSH1 0xE0 DUP4 ADD DUP6 PUSH2 0x3381 JUMP JUMPDEST PUSH2 0x341B PUSH2 0x100 DUP4 ADD DUP5 PUSH2 0x3381 JUMP JUMPDEST SWAP11 SWAP10 POP POP POP POP POP POP POP POP POP POP JUMP JUMPDEST PUSH0 PUSH1 0x20 DUP3 ADD SWAP1 POP PUSH2 0x343C PUSH0 DUP4 ADD DUP5 PUSH2 0x3367 JUMP JUMPDEST SWAP3 SWAP2 POP POP JUMP JUMPDEST PUSH0 DUP1 PUSH1 0x40 DUP4 DUP6 SUB SLT ISZERO PUSH2 0x3458 JUMPI PUSH2 0x3457 PUSH2 0x3215 JUMP JUMPDEST JUMPDEST PUSH0 PUSH2 0x3465 DUP6 DUP3 DUP7 ADD PUSH2 0x3296 JUMP JUMPDEST SWAP3 POP POP PUSH1 0x20 PUSH2 0x3476 DUP6 DUP3 DUP7 ADD PUSH2 0x3263 JUMP JUMPDEST SWAP2 POP POP SWAP3 POP SWAP3 SWAP1 POP JUMP JUMPDEST PUSH0 PUSH1 0xA0 DUP3 ADD SWAP1 POP PUSH2 0x3493 PUSH0 DUP4 ADD DUP9 PUSH2 0x32E8 JUMP JUMPDEST DUP2 DUP2 SUB PUSH1 0x20 DUP4 ADD MSTORE PUSH2 0x34A5 DUP2 DUP8 PUSH2 0x332F JUMP JUMPDEST SWAP1 POP PUSH2 0x34B4 PUSH1 0x40 DUP4 ADD DUP7 PUSH2 0x32E8 JUMP JUMPDEST PUSH2 0x34C1 PUSH1 0x60 DUP4 ADD DUP6 PUSH2 0x3367 JUMP JUMPDEST PUSH2 0x34CE PUSH1 0x80 DUP4 ADD DUP5 PUSH2 0x3367 JUMP JUMPDEST SWAP7 SWAP6 POP POP POP POP POP POP JUMP JUMPDEST PUSH0 PUSH2 0x34E2 DUP3 PUSH2 0x321D JUMP JUMPDEST SWAP1 POP SWAP2 SWAP1 POP JUMP JUMPDEST PUSH2 0x34F2 DUP2 PUSH2 0x34D8 JUMP JUMPDEST DUP2 EQ PUSH2 0x34FC JUMPI PUSH0 DUP1 REVERT JUMPDEST POP JUMP JUMPDEST PUSH0 DUP2 CALLDATALOAD SWAP1 POP PUSH2 0x350D DUP2 PUSH2 0x34E9 JUMP JUMPDEST SWAP3 SWAP2 POP POP JUMP JUMPDEST PUSH0 DUP1 PUSH0 PUSH1 0x60 DUP5 DUP7 SUB SLT ISZERO PUSH2 0x352A JUMPI PUSH2 0x3529 PUSH2 0x3215 JUMP JUMPDEST JUMPDEST PUSH0 PUSH2 0x3537 DUP7 DUP3 DUP8 ADD PUSH2 0x34FF JUMP JUMPDEST SWAP4 POP POP PUSH1 0x20 PUSH2 0x3548 DUP7 DUP3 DUP8 ADD PUSH2 0x3296 JUMP JUMPDEST SWAP3 POP POP PUSH1 0x40 PUSH2 0x3559 DUP7 DUP3 DUP8 ADD PUSH2 0x3296 JUMP JUMPDEST SWAP2 POP POP SWAP3 POP SWAP3 POP SWAP3 JUMP JUMPDEST PUSH0 PUSH1 0x20 DUP3 ADD SWAP1 POP PUSH2 0x3576 PUSH0 DUP4 ADD DUP5 PUSH2 0x32E8 JUMP JUMPDEST SWAP3 SWAP2 POP POP JUMP JUMPDEST PUSH0 PUSH1 0x80 DUP3 ADD SWAP1 POP PUSH2 0x358F PUSH0 DUP4 ADD DUP8 PUSH2 0x3367 JUMP JUMPDEST PUSH2 0x359C PUSH1 0x20 DUP4 ADD DUP7 PUSH2 0x32E8 JUMP JUMPDEST DUP2 DUP2 SUB PUSH1 0x40 DUP4 ADD MSTORE PUSH2 0x35AE DUP2 DUP6 PUSH2 0x332F JUMP JUMPDEST SWAP1 POP PUSH2 0x35BD PUSH1 0x60 DUP4 ADD DUP5 PUSH2 0x32E8 JUMP JUMPDEST SWAP6 SWAP5 POP POP POP POP POP JUMP JUMPDEST PUSH0 DUP1 REVERT JUMPDEST PUSH0 DUP1 REVERT JUMPDEST PUSH32 0x4E487B7100000000000000000000000000000000000000000000000000000000 PUSH0 MSTORE PUSH1 0x41 PUSH1 0x4 MSTORE PUSH1 0x24 PUSH0 REVERT JUMPDEST PUSH2 0x3604 DUP3 PUSH2 0x331F JUMP JUMPDEST DUP2 ADD DUP2 DUP2 LT PUSH8 0xFFFFFFFFFFFFFFFF DUP3 GT OR ISZERO PUSH2 0x3623 JUMPI PUSH2 0x3622 PUSH2 0x35CE JUMP JUMPDEST JUMPDEST DUP1 PUSH1 0x40 MSTORE POP POP POP JUMP JUMPDEST PUSH0 PUSH2 0x3635 PUSH2 0x320C JUMP JUMPDEST SWAP1 POP PUSH2 0x3641 DUP3 DUP3 PUSH2 0x35FB JUMP JUMPDEST SWAP2 SWAP1 POP JUMP JUMPDEST PUSH0 PUSH8 0xFFFFFFFFFFFFFFFF DUP3 GT ISZERO PUSH2 0x3660 JUMPI PUSH2 0x365F PUSH2 0x35CE JUMP JUMPDEST JUMPDEST PUSH2 0x3669 DUP3 PUSH2 0x331F JUMP JUMPDEST SWAP1 POP PUSH1 0x20 DUP2 ADD SWAP1 POP SWAP2 SWAP1 POP JUMP JUMPDEST DUP3 DUP2 DUP4 CALLDATACOPY PUSH0 DUP4 DUP4 ADD MSTORE POP POP POP JUMP JUMPDEST PUSH0 PUSH2 0x3696 PUSH2 0x3691 DUP5 PUSH2 0x3646 JUMP JUMPDEST PUSH2 0x362C JUMP JUMPDEST SWAP1 POP DUP3 DUP2 MSTORE PUSH1 0x20 DUP2 ADD DUP5 DUP5 DUP5 ADD GT ISZERO PUSH2 0x36B2 JUMPI PUSH2 0x36B1 PUSH2 0x35CA JUMP JUMPDEST JUMPDEST PUSH2 0x36BD DUP5 DUP3 DUP6 PUSH2 0x3676 JUMP JUMPDEST POP SWAP4 SWAP3 POP POP POP JUMP JUMPDEST PUSH0 DUP3 PUSH1 0x1F DUP4 ADD SLT PUSH2 0x36D9 JUMPI PUSH2 0x36D8 PUSH2 0x35C6 JUMP JUMPDEST JUMPDEST DUP2 CALLDATALOAD PUSH2 0x36E9 DUP5 DUP3 PUSH1 0x20 DUP7 ADD PUSH2 0x3684 JUMP JUMPDEST SWAP2 POP POP SWAP3 SWAP2 POP POP JUMP JUMPDEST PUSH0 DUP1 PUSH0 DUP1 PUSH1 0x80 DUP6 DUP8 SUB SLT ISZERO PUSH2 0x370A JUMPI PUSH2 0x3709 PUSH2 0x3215 JUMP JUMPDEST JUMPDEST PUSH0 DUP6 ADD CALLDATALOAD PUSH8 0xFFFFFFFFFFFFFFFF DUP2 GT ISZERO PUSH2 0x3727 JUMPI PUSH2 0x3726 PUSH2 0x3219 JUMP JUMPDEST JUMPDEST PUSH2 0x3733 DUP8 DUP3 DUP9 ADD PUSH2 0x36C5 JUMP JUMPDEST SWAP5 POP POP PUSH1 0x20 DUP6 ADD CALLDATALOAD PUSH8 0xFFFFFFFFFFFFFFFF DUP2 GT ISZERO PUSH2 0x3754 JUMPI PUSH2 0x3753 PUSH2 0x3219 JUMP JUMPDEST JUMPDEST PUSH2 0x3760 DUP8 DUP3 DUP9 ADD PUSH2 0x36C5 JUMP JUMPDEST SWAP4 POP POP PUSH1 0x40 PUSH2 0x3771 DUP8 DUP3 DUP9 ADD PUSH2 0x3296 JUMP JUMPDEST SWAP3 POP POP PUSH1 0x60 PUSH2 0x3782 DUP8 DUP3 DUP9 ADD PUSH2 0x3296 JUMP JUMPDEST SWAP2 POP POP SWAP3 SWAP6 SWAP2 SWAP5 POP SWAP3 POP JUMP JUMPDEST PUSH0 PUSH1 0x20 DUP3 DUP5 SUB SLT ISZERO PUSH2 0x37A3 JUMPI PUSH2 0x37A2 PUSH2 0x3215 JUMP JUMPDEST JUMPDEST PUSH0 PUSH2 0x37B0 DUP5 DUP3 DUP6 ADD PUSH2 0x3263 JUMP JUMPDEST SWAP2 POP POP SWAP3 SWAP2 POP POP JUMP JUMPDEST PUSH0 DUP1 PUSH1 0x40 DUP4 DUP6 SUB SLT ISZERO PUSH2 0x37CF JUMPI PUSH2 0x37CE PUSH2 0x3215 JUMP JUMPDEST JUMPDEST PUSH0 PUSH2 0x37DC DUP6 DUP3 DUP7 ADD PUSH2 0x3263 JUMP JUMPDEST SWAP3 POP POP PUSH1 0x20 PUSH2 0x37ED DUP6 DUP3 DUP7 ADD PUSH2 0x3263 JUMP JUMPDEST SWAP2 POP POP SWAP3 POP SWAP3 SWAP1 POP JUMP JUMPDEST PUSH0 PUSH1 0x20 DUP3 ADD SWAP1 POP PUSH2 0x380A PUSH0 DUP4 ADD DUP5 PUSH2 0x3381 JUMP JUMPDEST SWAP3 SWAP2 POP POP JUMP JUMPDEST PUSH0 DUP1 PUSH0 DUP1 PUSH1 0x80 DUP6 DUP8 SUB SLT ISZERO PUSH2 0x3828 JUMPI PUSH2 0x3827 PUSH2 0x3215 JUMP JUMPDEST JUMPDEST PUSH0 PUSH2 0x3835 DUP8 DUP3 DUP9 ADD PUSH2 0x3296 JUMP JUMPDEST SWAP5 POP POP PUSH1 0x20 PUSH2 0x3846 DUP8 DUP3 DUP9 ADD PUSH2 0x3263 JUMP JUMPDEST SWAP4 POP POP PUSH1 0x40 PUSH2 0x3857 DUP8 DUP3 DUP9 ADD PUSH2 0x3296 JUMP JUMPDEST SWAP3 POP POP PUSH1 0x60 PUSH2 0x3868 DUP8 DUP3 DUP9 ADD PUSH2 0x34FF JUMP JUMPDEST SWAP2 POP POP SWAP3 SWAP6 SWAP2 SWAP5 POP SWAP3 POP JUMP JUMPDEST PUSH0 DUP1 PUSH0 PUSH1 0x60 DUP5 DUP7 SUB SLT ISZERO PUSH2 0x388B JUMPI PUSH2 0x388A PUSH2 0x3215 JUMP JUMPDEST JUMPDEST PUSH0 PUSH2 0x3898 DUP7 DUP3 DUP8 ADD PUSH2 0x3263 JUMP JUMPDEST SWAP4 POP POP PUSH1 0x20 PUSH2 0x38A9 DUP7 DUP3 DUP8 ADD PUSH2 0x3296 JUMP JUMPDEST SWAP3 POP POP PUSH1 0x40 PUSH2 0x38BA DUP7 DUP3 DUP8 ADD PUSH2 0x3296 JUMP JUMPDEST SWAP2 POP POP SWAP3 POP SWAP3 POP SWAP3 JUMP JUMPDEST PUSH0 PUSH1 0x40 DUP3 ADD SWAP1 POP PUSH2 0x38D7 PUSH0 DUP4 ADD DUP6 PUSH2 0x3367 JUMP JUMPDEST PUSH2 0x38E4 PUSH1 0x20 DUP4 ADD DUP5 PUSH2 0x32E8 JUMP JUMPDEST SWAP4 SWAP3 POP POP POP JUMP JUMPDEST PUSH32 0x4E487B7100000000000000000000000000000000000000000000000000000000 PUSH0 MSTORE PUSH1 0x22 PUSH1 0x4 MSTORE PUSH1 0x24 PUSH0 REVERT JUMPDEST PUSH0 PUSH1 0x2 DUP3 DIV SWAP1 POP PUSH1 0x1 DUP3 AND DUP1 PUSH2 0x392F JUMPI PUSH1 0x7F DUP3 AND SWAP2 POP JUMPDEST PUSH1 0x20 DUP3 LT DUP2 SUB PUSH2 0x3942 JUMPI PUSH2 0x3941 PUSH2 0x38EB JUMP JUMPDEST JUMPDEST POP SWAP2 SWAP1 POP JUMP JUMPDEST PUSH32 0x5468657265204973204E6F2043616D706169676E204279205468617420616464 PUSH0 DUP3 ADD MSTORE PUSH32 0x7265737321000000000000000000000000000000000000000000000000000000 PUSH1 0x20 DUP3 ADD MSTORE POP JUMP JUMPDEST PUSH0 PUSH2 0x39A2 PUSH1 0x25 DUP4 PUSH2 0x3301 JUMP JUMPDEST SWAP2 POP PUSH2 0x39AD DUP3 PUSH2 0x3948 JUMP JUMPDEST PUSH1 0x40 DUP3 ADD SWAP1 POP SWAP2 SWAP1 POP JUMP JUMPDEST PUSH0 PUSH1 0x20 DUP3 ADD SWAP1 POP DUP2 DUP2 SUB PUSH0 DUP4 ADD MSTORE PUSH2 0x39CF DUP2 PUSH2 0x3996 JUMP JUMPDEST SWAP1 POP SWAP2 SWAP1 POP JUMP JUMPDEST PUSH32 0x4E487B7100000000000000000000000000000000000000000000000000000000 PUSH0 MSTORE PUSH1 0x11 PUSH1 0x4 MSTORE PUSH1 0x24 PUSH0 REVERT JUMPDEST PUSH0 PUSH2 0x3A0D DUP3 PUSH2 0x3277 JUMP JUMPDEST SWAP2 POP PUSH2 0x3A18 DUP4 PUSH2 0x3277 JUMP JUMPDEST SWAP3 POP DUP3 DUP3 SUB SWAP1 POP DUP2 DUP2 GT ISZERO PUSH2 0x3A30 JUMPI PUSH2 0x3A2F PUSH2 0x39D6 JUMP JUMPDEST JUMPDEST SWAP3 SWAP2 POP POP JUMP JUMPDEST PUSH32 0x4E487B7100000000000000000000000000000000000000000000000000000000 PUSH0 MSTORE PUSH1 0x32 PUSH1 0x4 MSTORE PUSH1 0x24 PUSH0 REVERT JUMPDEST PUSH32 0x5468652043616D706169676E2053706563696669656420446F6573204E6F7420 PUSH0 DUP3 ADD MSTORE PUSH32 0x4578697374210000000000000000000000000000000000000000000000000000 PUSH1 0x20 DUP3 ADD MSTORE POP JUMP JUMPDEST PUSH0 PUSH2 0x3ABD PUSH1 0x26 DUP4 PUSH2 0x3301 JUMP JUMPDEST SWAP2 POP PUSH2 0x3AC8 DUP3 PUSH2 0x3A63 JUMP JUMPDEST PUSH1 0x40 DUP3 ADD SWAP1 POP SWAP2 SWAP1 POP JUMP JUMPDEST PUSH0 PUSH1 0x20 DUP3 ADD SWAP1 POP DUP2 DUP2 SUB PUSH0 DUP4 ADD MSTORE PUSH2 0x3AEA DUP2 PUSH2 0x3AB1 JUMP JUMPDEST SWAP1 POP SWAP2 SWAP1 POP JUMP JUMPDEST PUSH32 0x4F6E6C792041646D696E732043616E20506572666F726D205468697320416374 PUSH0 DUP3 ADD MSTORE PUSH32 0x696F6E2100000000000000000000000000000000000000000000000000000000 PUSH1 0x20 DUP3 ADD MSTORE POP JUMP JUMPDEST PUSH0 PUSH2 0x3B4B PUSH1 0x24 DUP4 PUSH2 0x3301 JUMP JUMPDEST SWAP2 POP PUSH2 0x3B56 DUP3 PUSH2 0x3AF1 JUMP JUMPDEST PUSH1 0x40 DUP3 ADD SWAP1 POP SWAP2 SWAP1 POP JUMP JUMPDEST PUSH0 PUSH1 0x20 DUP3 ADD SWAP1 POP DUP2 DUP2 SUB PUSH0 DUP4 ADD MSTORE PUSH2 0x3B78 DUP2 PUSH2 0x3B3F JUMP JUMPDEST SWAP1 POP SWAP2 SWAP1 POP JUMP JUMPDEST PUSH32 0x546869732043616D706169676E204973205375636365737366756C2043616E6E PUSH0 DUP3 ADD MSTORE PUSH32 0x6F742062652043616E63656C6C65642100000000000000000000000000000000 PUSH1 0x20 DUP3 ADD MSTORE POP JUMP JUMPDEST PUSH0 PUSH2 0x3BD9 PUSH1 0x30 DUP4 PUSH2 0x3301 JUMP JUMPDEST SWAP2 POP PUSH2 0x3BE4 DUP3 PUSH2 0x3B7F JUMP JUMPDEST PUSH1 0x40 DUP3 ADD SWAP1 POP SWAP2 SWAP1 POP JUMP JUMPDEST PUSH0 PUSH1 0x20 DUP3 ADD SWAP1 POP DUP2 DUP2 SUB PUSH0 DUP4 ADD MSTORE PUSH2 0x3C06 DUP2 PUSH2 0x3BCD JUMP JUMPDEST SWAP1 POP SWAP2 SWAP1 POP JUMP JUMPDEST PUSH32 0x496E73756666696369656E7420636F6E74726163742062616C616E6365000000 PUSH0 DUP3 ADD MSTORE POP JUMP JUMPDEST PUSH0 PUSH2 0x3C41 PUSH1 0x1D DUP4 PUSH2 0x3301 JUMP JUMPDEST SWAP2 POP PUSH2 0x3C4C DUP3 PUSH2 0x3C0D JUMP JUMPDEST PUSH1 0x20 DUP3 ADD SWAP1 POP SWAP2 SWAP1 POP JUMP JUMPDEST PUSH0 PUSH1 0x20 DUP3 ADD SWAP1 POP DUP2 DUP2 SUB PUSH0 DUP4 ADD MSTORE PUSH2 0x3C6E DUP2 PUSH2 0x3C35 JUMP JUMPDEST SWAP1 POP SWAP2 SWAP1 POP JUMP JUMPDEST PUSH0 DUP2 SWAP1 POP SWAP3 SWAP2 POP POP JUMP JUMPDEST POP JUMP JUMPDEST PUSH0 PUSH2 0x3C8D PUSH0 DUP4 PUSH2 0x3C75 JUMP JUMPDEST SWAP2 POP PUSH2 0x3C98 DUP3 PUSH2 0x3C7F JUMP JUMPDEST PUSH0 DUP3 ADD SWAP1 POP SWAP2 SWAP1 POP JUMP JUMPDEST PUSH0 PUSH2 0x3CAC DUP3 PUSH2 0x3C82 JUMP JUMPDEST SWAP2 POP DUP2 SWAP1 POP SWAP2 SWAP1 POP JUMP JUMPDEST PUSH32 0x5472616E73666572206661696C65640000000000000000000000000000000000 PUSH0 DUP3 ADD MSTORE POP JUMP JUMPDEST PUSH0 PUSH2 0x3CEA PUSH1 0xF DUP4 PUSH2 0x3301 JUMP JUMPDEST SWAP2 POP PUSH2 0x3CF5 DUP3 PUSH2 0x3CB6 JUMP JUMPDEST PUSH1 0x20 DUP3 ADD SWAP1 POP SWAP2 SWAP1 POP JUMP JUMPDEST PUSH0 PUSH1 0x20 DUP3 ADD SWAP1 POP DUP2 DUP2 SUB PUSH0 DUP4 ADD MSTORE PUSH2 0x3D17 DUP2 PUSH2 0x3CDE JUMP JUMPDEST SWAP1 POP SWAP2 SWAP1 POP JUMP JUMPDEST PUSH0 PUSH2 0x3D28 DUP3 PUSH2 0x3277 JUMP JUMPDEST SWAP2 POP PUSH2 0x3D33 DUP4 PUSH2 0x3277 JUMP JUMPDEST SWAP3 POP DUP3 DUP3 ADD SWAP1 POP DUP1 DUP3 GT ISZERO PUSH2 0x3D4B JUMPI PUSH2 0x3D4A PUSH2 0x39D6 JUMP JUMPDEST JUMPDEST SWAP3 SWAP2 POP POP JUMP JUMPDEST PUSH0 PUSH1 0x80 DUP3 ADD SWAP1 POP PUSH2 0x3D64 PUSH0 DUP4 ADD DUP8 PUSH2 0x3367 JUMP JUMPDEST PUSH2 0x3D71 PUSH1 0x20 DUP4 ADD DUP7 PUSH2 0x32E8 JUMP JUMPDEST PUSH2 0x3D7E PUSH1 0x40 DUP4 ADD DUP6 PUSH2 0x3367 JUMP JUMPDEST PUSH2 0x3D8B PUSH1 0x60 DUP4 ADD DUP5 PUSH2 0x32E8 JUMP JUMPDEST SWAP6 SWAP5 POP POP POP POP POP JUMP JUMPDEST PUSH32 0x526566756E642057617320556E7375636365737366756C210000000000000000 PUSH0 DUP3 ADD MSTORE POP JUMP JUMPDEST PUSH0 PUSH2 0x3DC8 PUSH1 0x18 DUP4 PUSH2 0x3301 JUMP JUMPDEST SWAP2 POP PUSH2 0x3DD3 DUP3 PUSH2 0x3D94 JUMP JUMPDEST PUSH1 0x20 DUP3 ADD SWAP1 POP SWAP2 SWAP1 POP JUMP JUMPDEST PUSH0 PUSH1 0x20 DUP3 ADD SWAP1 POP DUP2 DUP2 SUB PUSH0 DUP4 ADD MSTORE PUSH2 0x3DF5 DUP2 PUSH2 0x3DBC JUMP JUMPDEST SWAP1 POP SWAP2 SWAP1 POP JUMP JUMPDEST PUSH32 0x546869732043616D706169676E2048617320416C726561647920526169736564 PUSH0 DUP3 ADD MSTORE PUSH32 0x2046756E64732120526566756E64204669727374205468656E2043616E63656C PUSH1 0x20 DUP3 ADD MSTORE PUSH32 0x2100000000000000000000000000000000000000000000000000000000000000 PUSH1 0x40 DUP3 ADD MSTORE POP JUMP JUMPDEST PUSH0 PUSH2 0x3E7C PUSH1 0x41 DUP4 PUSH2 0x3301 JUMP JUMPDEST SWAP2 POP PUSH2 0x3E87 DUP3 PUSH2 0x3DFC JUMP JUMPDEST PUSH1 0x60 DUP3 ADD SWAP1 POP SWAP2 SWAP1 POP JUMP JUMPDEST PUSH0 PUSH1 0x20 DUP3 ADD SWAP1 POP DUP2 DUP2 SUB PUSH0 DUP4 ADD MSTORE PUSH2 0x3EA9 DUP2 PUSH2 0x3E70 JUMP JUMPDEST SWAP1 POP SWAP2 SWAP1 POP JUMP JUMPDEST PUSH32 0x546869732043616D706169676E2048617320416C7265616479204265656E2043 PUSH0 DUP3 ADD MSTORE PUSH32 0x6F6D706C65746564210000000000000000000000000000000000000000000000 PUSH1 0x20 DUP3 ADD MSTORE POP JUMP JUMPDEST PUSH0 PUSH2 0x3F0A PUSH1 0x29 DUP4 PUSH2 0x3301 JUMP JUMPDEST SWAP2 POP PUSH2 0x3F15 DUP3 PUSH2 0x3EB0 JUMP JUMPDEST PUSH1 0x40 DUP3 ADD SWAP1 POP SWAP2 SWAP1 POP JUMP JUMPDEST PUSH0 PUSH1 0x20 DUP3 ADD SWAP1 POP DUP2 DUP2 SUB PUSH0 DUP4 ADD MSTORE PUSH2 0x3F37 DUP2 PUSH2 0x3EFE JUMP JUMPDEST SWAP1 POP SWAP2 SWAP1 POP JUMP JUMPDEST PUSH0 DUP2 SWAP1 POP SWAP3 SWAP2 POP POP JUMP JUMPDEST PUSH32 0x5468652043616D706169676E2000000000000000000000000000000000000000 PUSH0 DUP3 ADD MSTORE POP JUMP JUMPDEST PUSH0 PUSH2 0x3F7C PUSH1 0xD DUP4 PUSH2 0x3F3E JUMP JUMPDEST SWAP2 POP PUSH2 0x3F87 DUP3 PUSH2 0x3F48 JUMP JUMPDEST PUSH1 0xD DUP3 ADD SWAP1 POP SWAP2 SWAP1 POP JUMP JUMPDEST PUSH0 DUP2 SWAP1 POP SWAP2 SWAP1 POP JUMP JUMPDEST PUSH2 0x3FAC PUSH2 0x3FA7 DUP3 PUSH2 0x3277 JUMP JUMPDEST PUSH2 0x3F92 JUMP JUMPDEST DUP3 MSTORE POP POP JUMP JUMPDEST PUSH32 0x20446F6573204E4F542045786973742100000000000000000000000000000000 PUSH0 DUP3 ADD MSTORE POP JUMP JUMPDEST PUSH0 PUSH2 0x3FE6 PUSH1 0x10 DUP4 PUSH2 0x3F3E JUMP JUMPDEST SWAP2 POP PUSH2 0x3FF1 DUP3 PUSH2 0x3FB2 JUMP JUMPDEST PUSH1 0x10 DUP3 ADD SWAP1 POP SWAP2 SWAP1 POP JUMP JUMPDEST PUSH0 PUSH2 0x4006 DUP3 PUSH2 0x3F70 JUMP JUMPDEST SWAP2 POP PUSH2 0x4012 DUP3 DUP5 PUSH2 0x3F9B JUMP JUMPDEST PUSH1 0x20 DUP3 ADD SWAP2 POP PUSH2 0x4021 DUP3 PUSH2 0x3FDA JUMP JUMPDEST SWAP2 POP DUP2 SWAP1 POP SWAP3 SWAP2 POP POP JUMP JUMPDEST PUSH0 PUSH1 0x20 DUP3 ADD SWAP1 POP DUP2 DUP2 SUB PUSH0 DUP4 ADD MSTORE PUSH2 0x4044 DUP2 DUP5 PUSH2 0x332F JUMP JUMPDEST SWAP1 POP SWAP3 SWAP2 POP POP JUMP JUMPDEST PUSH32 0x546869732043616D706169676E277320446561646C696E652048617320506173 PUSH0 DUP3 ADD MSTORE PUSH32 0x7365642100000000000000000000000000000000000000000000000000000000 PUSH1 0x20 DUP3 ADD MSTORE POP JUMP JUMPDEST PUSH0 PUSH2 0x40A6 PUSH1 0x24 DUP4 PUSH2 0x3301 JUMP JUMPDEST SWAP2 POP PUSH2 0x40B1 DUP3 PUSH2 0x404C JUMP JUMPDEST PUSH1 0x40 DUP3 ADD SWAP1 POP SWAP2 SWAP1 POP JUMP JUMPDEST PUSH0 PUSH1 0x20 DUP3 ADD SWAP1 POP DUP2 DUP2 SUB PUSH0 DUP4 ADD MSTORE PUSH2 0x40D3 DUP2 PUSH2 0x409A JUMP JUMPDEST SWAP1 POP SWAP2 SWAP1 POP JUMP JUMPDEST PUSH32 0x2700000000000000000000000000000000000000000000000000000000000000 PUSH0 DUP3 ADD MSTORE POP JUMP JUMPDEST PUSH0 PUSH2 0x410E PUSH1 0x1 DUP4 PUSH2 0x3F3E JUMP JUMPDEST SWAP2 POP PUSH2 0x4119 DUP3 PUSH2 0x40DA JUMP JUMPDEST PUSH1 0x1 DUP3 ADD SWAP1 POP SWAP2 SWAP1 POP JUMP JUMPDEST PUSH0 DUP2 SWAP1 POP DUP2 PUSH0 MSTORE PUSH1 0x20 PUSH0 KECCAK256 SWAP1 POP SWAP2 SWAP1 POP JUMP JUMPDEST PUSH0 DUP2 SLOAD PUSH2 0x4142 DUP2 PUSH2 0x3918 JUMP JUMPDEST PUSH2 0x414C DUP2 DUP7 PUSH2 0x3F3E JUMP JUMPDEST SWAP5 POP PUSH1 0x1 DUP3 AND PUSH0 DUP2 EQ PUSH2 0x4166 JUMPI PUSH1 0x1 DUP2 EQ PUSH2 0x417B JUMPI PUSH2 0x41AD JUMP JUMPDEST PUSH1 0xFF NOT DUP4 AND DUP7 MSTORE DUP2 ISZERO ISZERO DUP3 MUL DUP7 ADD SWAP4 POP PUSH2 0x41AD JUMP JUMPDEST PUSH2 0x4184 DUP6 PUSH2 0x4124 JUMP JUMPDEST PUSH0 JUMPDEST DUP4 DUP2 LT ISZERO PUSH2 0x41A5 JUMPI DUP2 SLOAD DUP2 DUP10 ADD MSTORE PUSH1 0x1 DUP3 ADD SWAP2 POP PUSH1 0x20 DUP2 ADD SWAP1 POP PUSH2 0x4186 JUMP JUMPDEST DUP4 DUP9 ADD SWAP6 POP POP POP JUMPDEST POP POP POP SWAP3 SWAP2 POP POP JUMP JUMPDEST PUSH32 0x272043616D706169676E205761732043616E63616C6C65642100000000000000 PUSH0 DUP3 ADD MSTORE POP JUMP JUMPDEST PUSH0 PUSH2 0x41EA PUSH1 0x19 DUP4 PUSH2 0x3F3E JUMP JUMPDEST SWAP2 POP PUSH2 0x41F5 DUP3 PUSH2 0x41B6 JUMP JUMPDEST PUSH1 0x19 DUP3 ADD SWAP1 POP SWAP2 SWAP1 POP JUMP JUMPDEST PUSH0 PUSH2 0x420A DUP3 PUSH2 0x4102 JUMP JUMPDEST SWAP2 POP PUSH2 0x4216 DUP3 DUP5 PUSH2 0x4136 JUMP JUMPDEST SWAP2 POP PUSH2 0x4221 DUP3 PUSH2 0x41DE JUMP JUMPDEST SWAP2 POP DUP2 SWAP1 POP SWAP3 SWAP2 POP POP JUMP JUMPDEST PUSH32 0x272043616D706169676E2057617320436F6D706C657465642100000000000000 PUSH0 DUP3 ADD MSTORE POP JUMP JUMPDEST PUSH0 PUSH2 0x4260 PUSH1 0x19 DUP4 PUSH2 0x3F3E JUMP JUMPDEST SWAP2 POP PUSH2 0x426B DUP3 PUSH2 0x422C JUMP JUMPDEST PUSH1 0x19 DUP3 ADD SWAP1 POP SWAP2 SWAP1 POP JUMP JUMPDEST PUSH0 PUSH2 0x4280 DUP3 PUSH2 0x4102 JUMP JUMPDEST SWAP2 POP PUSH2 0x428C DUP3 DUP5 PUSH2 0x4136 JUMP JUMPDEST SWAP2 POP PUSH2 0x4297 DUP3 PUSH2 0x4254 JUMP JUMPDEST SWAP2 POP DUP2 SWAP1 POP SWAP3 SWAP2 POP POP JUMP JUMPDEST PUSH32 0x446F6E6174696F6E20416D6F756E742043616E6E6F74206265205A65726F0000 PUSH0 DUP3 ADD MSTORE POP JUMP JUMPDEST PUSH0 PUSH2 0x42D6 PUSH1 0x1E DUP4 PUSH2 0x3301 JUMP JUMPDEST SWAP2 POP PUSH2 0x42E1 DUP3 PUSH2 0x42A2 JUMP JUMPDEST PUSH1 0x20 DUP3 ADD SWAP1 POP SWAP2 SWAP1 POP JUMP JUMPDEST PUSH0 PUSH1 0x20 DUP3 ADD SWAP1 POP DUP2 DUP2 SUB PUSH0 DUP4 ADD MSTORE PUSH2 0x4303 DUP2 PUSH2 0x42CA JUMP JUMPDEST SWAP1 POP SWAP2 SWAP1 POP JUMP JUMPDEST PUSH32 0x54686520416D6F756E7420416E642056616C756520446F6E2774204D61746368 PUSH0 DUP3 ADD MSTORE PUSH32 0x2100000000000000000000000000000000000000000000000000000000000000 PUSH1 0x20 DUP3 ADD MSTORE POP JUMP JUMPDEST PUSH0 PUSH2 0x4364 PUSH1 0x21 DUP4 PUSH2 0x3301 JUMP JUMPDEST SWAP2 POP PUSH2 0x436F DUP3 PUSH2 0x430A JUMP JUMPDEST PUSH1 0x40 DUP3 ADD SWAP1 POP SWAP2 SWAP1 POP JUMP JUMPDEST PUSH0 PUSH1 0x20 DUP3 ADD SWAP1 POP DUP2 DUP2 SUB PUSH0 DUP4 ADD MSTORE PUSH2 0x4391 DUP2 PUSH2 0x4358 JUMP JUMPDEST SWAP1 POP SWAP2 SWAP1 POP JUMP JUMPDEST PUSH0 DUP2 SWAP1 POP SWAP2 SWAP1 POP JUMP JUMPDEST PUSH0 PUSH2 0x43BB PUSH2 0x43B6 PUSH2 0x43B1 DUP5 PUSH2 0x321D JUMP JUMPDEST PUSH2 0x4398 JUMP JUMPDEST PUSH2 0x321D JUMP JUMPDEST SWAP1 POP SWAP2 SWAP1 POP JUMP JUMPDEST PUSH0 PUSH2 0x43CC DUP3 PUSH2 0x43A1 JUMP JUMPDEST SWAP1 POP SWAP2 SWAP1 POP JUMP JUMPDEST PUSH0 PUSH2 0x43DD DUP3 PUSH2 0x43C2 JUMP JUMPDEST SWAP1 POP SWAP2 SWAP1 POP JUMP JUMPDEST PUSH2 0x43ED DUP2 PUSH2 0x43D3 JUMP JUMPDEST DUP3 MSTORE POP POP JUMP JUMPDEST PUSH0 PUSH1 0x40 DUP3 ADD SWAP1 POP PUSH2 0x4406 PUSH0 DUP4 ADD DUP6 PUSH2 0x43E4 JUMP JUMPDEST PUSH2 0x4413 PUSH1 0x20 DUP4 ADD DUP5 PUSH2 0x32E8 JUMP JUMPDEST SWAP4 SWAP3 POP POP POP JUMP JUMPDEST PUSH0 PUSH1 0x20 PUSH1 0x1F DUP4 ADD DIV SWAP1 POP SWAP2 SWAP1 POP JUMP JUMPDEST PUSH0 DUP3 DUP3 SHL SWAP1 POP SWAP3 SWAP2 POP POP JUMP JUMPDEST PUSH0 PUSH1 0x8 DUP4 MUL PUSH2 0x4464 PUSH32 0xFFFFFFFFFFFFFFFFFFFFFFFFFFFFFFFFFFFFFFFFFFFFFFFFFFFFFFFFFFFFFFFF DUP3 PUSH2 0x4429 JUMP JUMPDEST PUSH2 0x446E DUP7 DUP4 PUSH2 0x4429 JUMP JUMPDEST SWAP6 POP DUP1 NOT DUP5 AND SWAP4 POP DUP1 DUP7 AND DUP5 OR SWAP3 POP POP POP SWAP4 SWAP3 POP POP POP JUMP JUMPDEST PUSH0 PUSH2 0x44A0 PUSH2 0x449B PUSH2 0x4496 DUP5 PUSH2 0x3277 JUMP JUMPDEST PUSH2 0x4398 JUMP JUMPDEST PUSH2 0x3277 JUMP JUMPDEST SWAP1 POP SWAP2 SWAP1 POP JUMP JUMPDEST PUSH0 DUP2 SWAP1 POP SWAP2 SWAP1 POP JUMP JUMPDEST PUSH2 0x44B9 DUP4 PUSH2 0x4486 JUMP JUMPDEST PUSH2 0x44CD PUSH2 0x44C5 DUP3 PUSH2 0x44A7 JUMP JUMPDEST DUP5 DUP5 SLOAD PUSH2 0x4435 JUMP JUMPDEST DUP3 SSTORE POP POP POP POP JUMP JUMPDEST PUSH0 SWAP1 JUMP JUMPDEST PUSH2 0x44E1 PUSH2 0x44D5 JUMP JUMPDEST PUSH2 0x44EC DUP2 DUP5 DUP5 PUSH2 0x44B0 JUMP JUMPDEST POP POP POP JUMP JUMPDEST JUMPDEST DUP2 DUP2 LT ISZERO PUSH2 0x450F JUMPI PUSH2 0x4504 PUSH0 DUP3 PUSH2 0x44D9 JUMP JUMPDEST PUSH1 0x1 DUP2 ADD SWAP1 POP PUSH2 0x44F2 JUMP JUMPDEST POP POP JUMP JUMPDEST PUSH1 0x1F DUP3 GT ISZERO PUSH2 0x4554 JUMPI PUSH2 0x4525 DUP2 PUSH2 0x4124 JUMP JUMPDEST PUSH2 0x452E DUP5 PUSH2 0x441A JUMP JUMPDEST DUP2 ADD PUSH1 0x20 DUP6 LT ISZERO PUSH2 0x453D JUMPI DUP2 SWAP1 POP JUMPDEST PUSH2 0x4551 PUSH2 0x4549 DUP6 PUSH2 0x441A JUMP JUMPDEST DUP4 ADD DUP3 PUSH2 0x44F1 JUMP JUMPDEST POP POP JUMPDEST POP POP POP JUMP JUMPDEST PUSH0 DUP3 DUP3 SHR SWAP1 POP SWAP3 SWAP2 POP POP JUMP JUMPDEST PUSH0 PUSH2 0x4574 PUSH0 NOT DUP5 PUSH1 0x8 MUL PUSH2 0x4559 JUMP JUMPDEST NOT DUP1 DUP4 AND SWAP2 POP POP SWAP3 SWAP2 POP POP JUMP JUMPDEST PUSH0 PUSH2 0x458C DUP4 DUP4 PUSH2 0x4565 JUMP JUMPDEST SWAP2 POP DUP3 PUSH1 0x2 MUL DUP3 OR SWAP1 POP SWAP3 SWAP2 POP POP JUMP JUMPDEST PUSH2 0x45A5 DUP3 PUSH2 0x32F7 JUMP JUMPDEST PUSH8 0xFFFFFFFFFFFFFFFF DUP2 GT ISZERO PUSH2 0x45BE JUMPI PUSH2 0x45BD PUSH2 0x35CE JUMP JUMPDEST JUMPDEST PUSH2 0x45C8 DUP3 SLOAD PUSH2 0x3918 JUMP JUMPDEST PUSH2 0x45D3 DUP3 DUP3 DUP6 PUSH2 0x4513 JUMP JUMPDEST PUSH0 PUSH1 0x20 SWAP1 POP PUSH1 0x1F DUP4 GT PUSH1 0x1 DUP2 EQ PUSH2 0x4604 JUMPI PUSH0 DUP5 ISZERO PUSH2 0x45F2 JUMPI DUP3 DUP8 ADD MLOAD SWAP1 POP JUMPDEST PUSH2 0x45FC DUP6 DUP3 PUSH2 0x4581 JUMP JUMPDEST DUP7 SSTORE POP PUSH2 0x4663 JUMP JUMPDEST PUSH1 0x1F NOT DUP5 AND PUSH2 0x4612 DUP7 PUSH2 0x4124 JUMP JUMPDEST PUSH0 JUMPDEST DUP3 DUP2 LT ISZERO PUSH2 0x4639 JUMPI DUP5 DUP10 ADD MLOAD DUP3 SSTORE PUSH1 0x1 DUP3 ADD SWAP2 POP PUSH1 0x20 DUP6 ADD SWAP5 POP PUSH1 0x20 DUP2 ADD SWAP1 POP PUSH2 0x4614 JUMP JUMPDEST DUP7 DUP4 LT ISZERO PUSH2 0x4656 JUMPI DUP5 DUP10 ADD MLOAD PUSH2 0x4652 PUSH1 0x1F DUP10 AND DUP3 PUSH2 0x4565 JUMP JUMPDEST DUP4 SSTORE POP JUMPDEST PUSH1 0x1 PUSH1 0x2 DUP9 MUL ADD DUP9 SSTORE POP POP POP JUMPDEST POP POP POP POP POP POP JUMP JUMPDEST PUSH0 PUSH1 0x80 DUP3 ADD SWAP1 POP PUSH2 0x467E PUSH0 DUP4 ADD DUP8 PUSH2 0x3367 JUMP JUMPDEST PUSH2 0x468B PUSH1 0x20 DUP4 ADD DUP7 PUSH2 0x32E8 JUMP JUMPDEST PUSH2 0x4698 PUSH1 0x40 DUP4 ADD DUP6 PUSH2 0x43E4 JUMP JUMPDEST PUSH2 0x46A5 PUSH1 0x60 DUP4 ADD DUP5 PUSH2 0x32E8 JUMP JUMPDEST SWAP6 SWAP5 POP POP POP POP POP JUMP JUMPDEST PUSH32 0x4F6E6C7920436F6E7472616374204F776E65722043616E20506572666F726D20 PUSH0 DUP3 ADD MSTORE PUSH32 0x5468697320416374696F6E210000000000000000000000000000000000000000 PUSH1 0x20 DUP3 ADD MSTORE POP JUMP JUMPDEST PUSH0 PUSH2 0x4708 PUSH1 0x2C DUP4 PUSH2 0x3301 JUMP JUMPDEST SWAP2 POP PUSH2 0x4713 DUP3 PUSH2 0x46AE JUMP JUMPDEST PUSH1 0x40 DUP3 ADD SWAP1 POP SWAP2 SWAP1 POP JUMP JUMPDEST PUSH0 PUSH1 0x20 DUP3 ADD SWAP1 POP DUP2 DUP2 SUB PUSH0 DUP4 ADD MSTORE PUSH2 0x4735 DUP2 PUSH2 0x46FC JUMP JUMPDEST SWAP1 POP SWAP2 SWAP1 POP JUMP JUMPDEST PUSH0 PUSH2 0x4746 DUP3 PUSH2 0x32F7 JUMP JUMPDEST PUSH2 0x4750 DUP2 DUP6 PUSH2 0x3F3E JUMP JUMPDEST SWAP4 POP PUSH2 0x4760 DUP2 DUP6 PUSH1 0x20 DUP7 ADD PUSH2 0x3311 JUMP JUMPDEST DUP1 DUP5 ADD SWAP2 POP POP SWAP3 SWAP2 POP POP JUMP JUMPDEST PUSH0 PUSH2 0x4777 DUP3 DUP5 PUSH2 0x473C JUMP JUMPDEST SWAP2 POP DUP2 SWAP1 POP SWAP3 SWAP2 POP POP JUMP JUMPDEST PUSH0 DUP2 SWAP1 POP DUP2 PUSH0 MSTORE PUSH1 0x20 PUSH0 KECCAK256 SWAP1 POP SWAP2 SWAP1 POP JUMP JUMPDEST PUSH0 DUP2 SLOAD PUSH2 0x47A0 DUP2 PUSH2 0x3918 JUMP JUMPDEST PUSH2 0x47AA DUP2 DUP7 PUSH2 0x3F3E JUMP JUMPDEST SWAP5 POP PUSH1 0x1 DUP3 AND PUSH0 DUP2 EQ PUSH2 0x47C4 JUMPI PUSH1 0x1 DUP2 EQ PUSH2 0x47D9 JUMPI PUSH2 0x480B JUMP JUMPDEST PUSH1 0xFF NOT DUP4 AND DUP7 MSTORE DUP2 ISZERO ISZERO DUP3 MUL DUP7 ADD SWAP4 POP PUSH2 0x480B JUMP JUMPDEST PUSH2 0x47E2 DUP6 PUSH2 0x4782 JUMP JUMPDEST PUSH0 JUMPDEST DUP4 DUP2 LT ISZERO PUSH2 0x4803 JUMPI DUP2 SLOAD DUP2 DUP10 ADD MSTORE PUSH1 0x1 DUP3 ADD SWAP2 POP PUSH1 0x20 DUP2 ADD SWAP1 POP PUSH2 0x47E4 JUMP JUMPDEST DUP4 DUP9 ADD SWAP6 POP POP POP JUMPDEST POP POP POP SWAP3 SWAP2 POP POP JUMP JUMPDEST PUSH0 PUSH2 0x481F DUP3 DUP5 PUSH2 0x4794 JUMP JUMPDEST SWAP2 POP DUP2 SWAP1 POP SWAP3 SWAP2 POP POP JUMP JUMPDEST PUSH32 0x43616D706169676E200000000000000000000000000000000000000000000000 PUSH0 DUP3 ADD MSTORE POP JUMP JUMPDEST PUSH0 PUSH2 0x485E PUSH1 0x9 DUP4 PUSH2 0x3F3E JUMP JUMPDEST SWAP2 POP PUSH2 0x4869 DUP3 PUSH2 0x482A JUMP JUMPDEST PUSH1 0x9 DUP3 ADD SWAP1 POP SWAP2 SWAP1 POP JUMP JUMPDEST PUSH32 0x20616C7265616479206578697374732100000000000000000000000000000000 PUSH0 DUP3 ADD MSTORE POP JUMP JUMPDEST PUSH0 PUSH2 0x48A8 PUSH1 0x10 DUP4 PUSH2 0x3F3E JUMP JUMPDEST SWAP2 POP PUSH2 0x48B3 DUP3 PUSH2 0x4874 JUMP JUMPDEST PUSH1 0x10 DUP3 ADD SWAP1 POP SWAP2 SWAP1 POP JUMP JUMPDEST PUSH0 PUSH2 0x48C8 DUP3 PUSH2 0x4852 JUMP JUMPDEST SWAP2 POP PUSH2 0x48D4 DUP3 DUP5 PUSH2 0x473C JUMP JUMPDEST SWAP2 POP PUSH2 0x48DF DUP3 PUSH2 0x489C JUMP JUMPDEST SWAP2 POP DUP2 SWAP1 POP SWAP3 SWAP2 POP POP JUMP JUMPDEST PUSH0 PUSH2 0x48F4 DUP3 PUSH2 0x3277 JUMP JUMPDEST SWAP2 POP PUSH2 0x48FF DUP4 PUSH2 0x3277 JUMP JUMPDEST SWAP3 POP DUP3 DUP3 MUL PUSH2 0x490D DUP2 PUSH2 0x3277 JUMP JUMPDEST SWAP2 POP DUP3 DUP3 DIV DUP5 EQ DUP4 ISZERO OR PUSH2 0x4924 JUMPI PUSH2 0x4923 PUSH2 0x39D6 JUMP JUMPDEST JUMPDEST POP SWAP3 SWAP2 POP POP JUMP JUMPDEST PUSH0 PUSH1 0xA0 DUP3 ADD SWAP1 POP PUSH2 0x493E PUSH0 DUP4 ADD DUP9 PUSH2 0x32E8 JUMP JUMPDEST PUSH2 0x494B PUSH1 0x20 DUP4 ADD DUP8 PUSH2 0x3367 JUMP JUMPDEST DUP2 DUP2 SUB PUSH1 0x40 DUP4 ADD MSTORE PUSH2 0x495D DUP2 DUP7 PUSH2 0x332F JUMP JUMPDEST SWAP1 POP PUSH2 0x496C PUSH1 0x60 DUP4 ADD DUP6 PUSH2 0x32E8 JUMP JUMPDEST PUSH2 0x4979 PUSH1 0x80 DUP4 ADD DUP5 PUSH2 0x32E8 JUMP JUMPDEST SWAP7 SWAP6 POP POP POP POP POP POP JUMP JUMPDEST PUSH32 0x5468652043616D706169676E20416464726573732043616E6E6F742042652041 PUSH0 DUP3 ADD MSTORE PUSH32 0x6E2041646D696E21000000000000000000000000000000000000000000000000 PUSH1 0x20 DUP3 ADD MSTORE POP JUMP JUMPDEST PUSH0 PUSH2 0x49DD PUSH1 0x28 DUP4 PUSH2 0x3301 JUMP JUMPDEST SWAP2 POP PUSH2 0x49E8 DUP3 PUSH2 0x4983 JUMP JUMPDEST PUSH1 0x40 DUP3 ADD SWAP1 POP SWAP2 SWAP1 POP JUMP JUMPDEST PUSH0 PUSH1 0x20 DUP3 ADD SWAP1 POP DUP2 DUP2 SUB PUSH0 DUP4 ADD MSTORE PUSH2 0x4A0A DUP2 PUSH2 0x49D1 JUMP JUMPDEST SWAP1 POP SWAP2 SWAP1 POP JUMP JUMPDEST PUSH32 0x54686973204164647265737320497320416C726561647920416E2041646D696E PUSH0 DUP3 ADD MSTORE PUSH32 0x2100000000000000000000000000000000000000000000000000000000000000 PUSH1 0x20 DUP3 ADD MSTORE POP JUMP JUMPDEST PUSH0 PUSH2 0x4A6B PUSH1 0x21 DUP4 PUSH2 0x3301 JUMP JUMPDEST SWAP2 POP PUSH2 0x4A76 DUP3 PUSH2 0x4A11 JUMP JUMPDEST PUSH1 0x40 DUP3 ADD SWAP1 POP SWAP2 SWAP1 POP JUMP JUMPDEST PUSH0 PUSH1 0x20 DUP3 ADD SWAP1 POP DUP2 DUP2 SUB PUSH0 DUP4 ADD MSTORE PUSH2 0x4A98 DUP2 PUSH2 0x4A5F JUMP JUMPDEST SWAP1 POP SWAP2 SWAP1 POP JUMP JUMPDEST PUSH32 0x596F752043616E27742057697468647261772046756E64732066726F6D20616E PUSH0 DUP3 ADD MSTORE PUSH32 0x204163746976652043616D706169676E00000000000000000000000000000000 PUSH1 0x20 DUP3 ADD MSTORE POP JUMP JUMPDEST PUSH0 PUSH2 0x4AF9 PUSH1 0x30 DUP4 PUSH2 0x3301 JUMP JUMPDEST SWAP2 POP PUSH2 0x4B04 DUP3 PUSH2 0x4A9F JUMP JUMPDEST PUSH1 0x40 DUP3 ADD SWAP1 POP SWAP2 SWAP1 POP JUMP JUMPDEST PUSH0 PUSH1 0x20 DUP3 ADD SWAP1 POP DUP2 DUP2 SUB PUSH0 DUP4 ADD MSTORE PUSH2 0x4B26 DUP2 PUSH2 0x4AED JUMP JUMPDEST SWAP1 POP SWAP2 SWAP1 POP JUMP JUMPDEST PUSH32 0x416D6F756E742043616E6E6F74206265205A65726F204F722045786365656420 PUSH0 DUP3 ADD MSTORE PUSH32 0x5468652052616973656420416D6F756E74210000000000000000000000000000 PUSH1 0x20 DUP3 ADD MSTORE POP JUMP JUMPDEST PUSH0 PUSH2 0x4B87 PUSH1 0x32 DUP4 PUSH2 0x3301 JUMP JUMPDEST SWAP2 POP PUSH2 0x4B92 DUP3 PUSH2 0x4B2D JUMP JUMPDEST PUSH1 0x40 DUP3 ADD SWAP1 POP SWAP2 SWAP1 POP JUMP JUMPDEST PUSH0 PUSH1 0x20 DUP3 ADD SWAP1 POP DUP2 DUP2 SUB PUSH0 DUP4 ADD MSTORE PUSH2 0x4BB4 DUP2 PUSH2 0x4B7B JUMP JUMPDEST SWAP1 POP SWAP2 SWAP1 POP JUMP JUMPDEST PUSH0 PUSH1 0xA0 DUP3 ADD SWAP1 POP PUSH2 0x4BCE PUSH0 DUP4 ADD DUP9 PUSH2 0x32E8 JUMP JUMPDEST PUSH2 0x4BDB PUSH1 0x20 DUP4 ADD DUP8 PUSH2 0x3367 JUMP JUMPDEST PUSH2 0x4BE8 PUSH1 0x40 DUP4 ADD DUP7 PUSH2 0x43E4 JUMP JUMPDEST PUSH2 0x4BF5 PUSH1 0x60 DUP4 ADD DUP6 PUSH2 0x3367 JUMP JUMPDEST PUSH2 0x4C02 PUSH1 0x80 DUP4 ADD DUP5 PUSH2 0x32E8 JUMP JUMPDEST SWAP7 SWAP6 POP POP POP POP POP POP JUMP JUMPDEST PUSH32 0x546869732041646472657373204973204E6F7420416E2041646D696E21000000 PUSH0 DUP3 ADD MSTORE POP JUMP JUMPDEST PUSH0 PUSH2 0x4C40 PUSH1 0x1D DUP4 PUSH2 0x3301 JUMP JUMPDEST SWAP2 POP PUSH2 0x4C4B DUP3 PUSH2 0x4C0C JUMP JUMPDEST PUSH1 0x20 DUP3 ADD SWAP1 POP SWAP2 SWAP1 POP JUMP JUMPDEST PUSH0 PUSH1 0x20 DUP3 ADD SWAP1 POP DUP2 DUP2 SUB PUSH0 DUP4 ADD MSTORE PUSH2 0x4C6D DUP2 PUSH2 0x4C34 JUMP JUMPDEST SWAP1 POP SWAP2 SWAP1 POP JUMP JUMPDEST PUSH32 0x4E487B7100000000000000000000000000000000000000000000000000000000 PUSH0 MSTORE PUSH1 0x31 PUSH1 0x4 MSTORE PUSH1 0x24 PUSH0 REVERT INVALID LOG2 PUSH5 0x6970667358 0x22 SLT KECCAK256 0xDC DUP1 0xB9 0x2D RETURNDATASIZE CALLDATASIZE SWAP5 BALANCE 0x4C 0x1E 0xC6 KECCAK256 JUMPI EXTCODEHASH 0xC7 PC EXTCODESIZE 0x23 SGT GASPRICE GAS 0x23 SGT 0xC9 DUP7 0xC0 BLOBHASH ADD 0x4E ADDRESS TIMESTAMP 0xA7 PUSH5 0x736F6C6343 STOP ADDMOD BYTE STOP CALLER "
		},
		"gasEstimates": {
			"creation": {
				"codeDepositCost": "3934200",
				"executionCost": "28742",
				"totalCost": "3962942"
			},
			"external": {
				"RefundDonors(uint256,address)": "infinite",
				"addCampaignAdmin(address)": "infinite",
				"admins(address,address)": "infinite",
				"campaignAdmins(address,uint256)": "infinite",
				"campaigns(address,uint256)": "infinite",
				"cancelCampaign(uint256,address)": "infinite",
				"createCampaign(string,string,uint256,uint256)": "infinite",
				"donateToCampaign(address,uint256,uint256)": "infinite",
				"donors(address,uint256)": "infinite",
				"donorsForCampaign(address,uint256,uint256)": "infinite",
				"getContractBalance()": "2705",
				"removeCampaignAdmin(address)": "infinite",
				"withdrawFunds(uint256,address,uint256,address)": "infinite",
				"withdrawals(address,uint256)": "infinite"
			}
		},
		"methodIdentifiers": {
			"RefundDonors(uint256,address)": "215c0bbb",
			"addCampaignAdmin(address)": "be18fda6",
			"admins(address,address)": "be21739e",
			"campaignAdmins(address,uint256)": "1f55e5bc",
			"campaigns(address,uint256)": "11555dbc",
			"cancelCampaign(uint256,address)": "39e9412f",
			"createCampaign(string,string,uint256,uint256)": "a318f269",
			"donateToCampaign(address,uint256,uint256)": "5a3915cd",
			"donors(address,uint256)": "9b56f5f0",
			"donorsForCampaign(address,uint256,uint256)": "e6c9099a",
			"getContractBalance()": "6f9fb98a",
			"removeCampaignAdmin(address)": "f1694aa1",
			"withdrawFunds(uint256,address,uint256,address)": "c14b8aac",
			"withdrawals(address,uint256)": "422b1077"
		}
	},
	"abi": [
		{
			"anonymous": false,
			"inputs": [
				{
					"indexed": false,
					"internalType": "address",
					"name": "admin",
					"type": "address"
				}
			],
			"name": "AddAdmin",
			"type": "event"
		},
		{
			"anonymous": false,
			"inputs": [
				{
					"indexed": false,
					"internalType": "address",
					"name": "campaignAddress",
					"type": "address"
				},
				{
					"indexed": false,
					"internalType": "uint256",
					"name": "campaign_id",
					"type": "uint256"
				}
			],
			"name": "CampaignCancelled",
			"type": "event"
		},
		{
			"anonymous": false,
			"inputs": [
				{
					"indexed": false,
					"internalType": "address",
					"name": "campaignAddress",
					"type": "address"
				},
				{
					"indexed": false,
					"internalType": "uint256",
					"name": "campaign_id",
					"type": "uint256"
				}
			],
			"name": "CampaignCompleted",
			"type": "event"
		},
		{
			"anonymous": false,
			"inputs": [
				{
					"indexed": false,
					"internalType": "uint256",
					"name": "campaign_id",
					"type": "uint256"
				},
				{
					"indexed": false,
					"internalType": "address",
					"name": "campaignAddress",
					"type": "address"
				},
				{
					"indexed": false,
					"internalType": "string",
					"name": "title",
					"type": "string"
				},
				{
					"indexed": false,
					"internalType": "uint256",
					"name": "targetAmount",
					"type": "uint256"
				},
				{
					"indexed": false,
					"internalType": "uint256",
					"name": "deadline",
					"type": "uint256"
				}
			],
			"name": "CampaignCreated",
			"type": "event"
		},
		{
			"anonymous": false,
			"inputs": [
				{
					"indexed": false,
					"internalType": "address",
					"name": "donor",
					"type": "address"
				},
				{
					"indexed": false,
					"internalType": "uint256",
					"name": "amount",
					"type": "uint256"
				},
				{
					"indexed": false,
					"internalType": "address",
					"name": "campaignAddress",
					"type": "address"
				},
				{
					"indexed": false,
					"internalType": "uint256",
					"name": "campaign_id",
					"type": "uint256"
				}
			],
			"name": "DonationReceived",
			"type": "event"
		},
		{
			"anonymous": false,
			"inputs": [
				{
					"indexed": false,
					"internalType": "uint256",
					"name": "amount",
					"type": "uint256"
				},
				{
					"indexed": false,
					"internalType": "address",
					"name": "by",
					"type": "address"
				},
				{
					"indexed": false,
					"internalType": "address",
					"name": "to",
					"type": "address"
				},
				{
					"indexed": false,
					"internalType": "address",
					"name": "from",
					"type": "address"
				},
				{
					"indexed": false,
					"internalType": "uint256",
					"name": "campaignId",
					"type": "uint256"
				}
			],
			"name": "FundsWithdrawn",
			"type": "event"
		},
		{
			"anonymous": false,
			"inputs": [
				{
					"indexed": false,
					"internalType": "address",
					"name": "campaignAddress",
					"type": "address"
				},
				{
					"indexed": false,
					"internalType": "uint256",
					"name": "campaignId",
					"type": "uint256"
				},
				{
					"indexed": false,
					"internalType": "address",
					"name": "to",
					"type": "address"
				},
				{
					"indexed": false,
					"internalType": "uint256",
					"name": "amount",
					"type": "uint256"
				}
			],
			"name": "RefundCampaignDonors",
			"type": "event"
		},
		{
			"anonymous": false,
			"inputs": [
				{
					"indexed": false,
					"internalType": "address",
					"name": "admin",
					"type": "address"
				}
			],
			"name": "RemoveAdmin",
			"type": "event"
		},
		{
			"inputs": [
				{
					"internalType": "uint256",
					"name": "_campaignId",
					"type": "uint256"
				},
				{
					"internalType": "address",
					"name": "_campaignAddress",
					"type": "address"
				}
			],
			"name": "RefundDonors",
			"outputs": [],
			"stateMutability": "nonpayable",
			"type": "function"
		},
		{
			"inputs": [
				{
					"internalType": "address",
					"name": "_admin",
					"type": "address"
				}
			],
			"name": "addCampaignAdmin",
			"outputs": [],
			"stateMutability": "nonpayable",
			"type": "function"
		},
		{
			"inputs": [
				{
					"internalType": "address",
					"name": "",
					"type": "address"
				},
				{
					"internalType": "address",
					"name": "",
					"type": "address"
				}
			],
			"name": "admins",
			"outputs": [
				{
					"internalType": "bool",
					"name": "",
					"type": "bool"
				}
			],
			"stateMutability": "view",
			"type": "function"
		},
		{
			"inputs": [
				{
					"internalType": "address",
					"name": "",
					"type": "address"
				},
				{
					"internalType": "uint256",
					"name": "",
					"type": "uint256"
				}
			],
			"name": "campaignAdmins",
			"outputs": [
				{
					"internalType": "address",
					"name": "",
					"type": "address"
				}
			],
			"stateMutability": "view",
			"type": "function"
		},
		{
			"inputs": [
				{
					"internalType": "address",
					"name": "",
					"type": "address"
				},
				{
					"internalType": "uint256",
					"name": "",
					"type": "uint256"
				}
			],
			"name": "campaigns",
			"outputs": [
				{
					"internalType": "uint256",
					"name": "campaign_id",
					"type": "uint256"
				},
				{
					"internalType": "string",
					"name": "title",
					"type": "string"
				},
				{
					"internalType": "string",
					"name": "description",
					"type": "string"
				},
				{
					"internalType": "address",
					"name": "campaignAddress",
					"type": "address"
				},
				{
					"internalType": "uint256",
					"name": "targetAmount",
					"type": "uint256"
				},
				{
					"internalType": "uint256",
					"name": "raisedAmount",
					"type": "uint256"
				},
				{
					"internalType": "uint256",
					"name": "deadline",
					"type": "uint256"
				},
				{
					"internalType": "bool",
					"name": "isCompleted",
					"type": "bool"
				},
				{
					"internalType": "bool",
					"name": "isCancelled",
					"type": "bool"
				}
			],
			"stateMutability": "view",
			"type": "function"
		},
		{
			"inputs": [
				{
					"internalType": "uint256",
					"name": "_campaignId",
					"type": "uint256"
				},
				{
					"internalType": "address",
					"name": "_campaignAddress",
					"type": "address"
				}
			],
			"name": "cancelCampaign",
			"outputs": [],
			"stateMutability": "nonpayable",
			"type": "function"
		},
		{
			"inputs": [
				{
					"internalType": "string",
					"name": "_title",
					"type": "string"
				},
				{
					"internalType": "string",
					"name": "_description",
					"type": "string"
				},
				{
					"internalType": "uint256",
					"name": "_target",
					"type": "uint256"
				},
				{
					"internalType": "uint256",
					"name": "_durationdays",
					"type": "uint256"
				}
			],
			"name": "createCampaign",
			"outputs": [],
			"stateMutability": "nonpayable",
			"type": "function"
		},
		{
			"inputs": [
				{
					"internalType": "address payable",
					"name": "_campaignAddress",
					"type": "address"
				},
				{
					"internalType": "uint256",
					"name": "_campaignId",
					"type": "uint256"
				},
				{
					"internalType": "uint256",
					"name": "_amount",
					"type": "uint256"
				}
			],
			"name": "donateToCampaign",
			"outputs": [],
			"stateMutability": "payable",
			"type": "function"
		},
		{
			"inputs": [
				{
					"internalType": "address",
					"name": "",
					"type": "address"
				},
				{
					"internalType": "uint256",
					"name": "",
					"type": "uint256"
				}
			],
			"name": "donors",
			"outputs": [
				{
					"internalType": "address",
					"name": "campaignAddress",
					"type": "address"
				},
				{
					"internalType": "uint256",
					"name": "campaignId",
					"type": "uint256"
				},
				{
					"internalType": "string",
					"name": "title",
					"type": "string"
				},
				{
					"internalType": "uint256",
					"name": "amount",
					"type": "uint256"
				}
			],
			"stateMutability": "view",
			"type": "function"
		},
		{
			"inputs": [
				{
					"internalType": "address",
					"name": "",
					"type": "address"
				},
				{
					"internalType": "uint256",
					"name": "",
					"type": "uint256"
				},
				{
					"internalType": "uint256",
					"name": "",
					"type": "uint256"
				}
			],
			"name": "donorsForCampaign",
			"outputs": [
				{
					"internalType": "address",
					"name": "by",
					"type": "address"
				},
				{
					"internalType": "uint256",
					"name": "amount",
					"type": "uint256"
				}
			],
			"stateMutability": "view",
			"type": "function"
		},
		{
			"inputs": [],
			"name": "getContractBalance",
			"outputs": [
				{
					"internalType": "uint256",
					"name": "",
					"type": "uint256"
				}
			],
			"stateMutability": "view",
			"type": "function"
		},
		{
			"inputs": [
				{
					"internalType": "address",
					"name": "_admin",
					"type": "address"
				}
			],
			"name": "removeCampaignAdmin",
			"outputs": [],
			"stateMutability": "nonpayable",
			"type": "function"
		},
		{
			"inputs": [
				{
					"internalType": "uint256",
					"name": "_campaignId",
					"type": "uint256"
				},
				{
					"internalType": "address",
					"name": "_campaignAddress",
					"type": "address"
				},
				{
					"internalType": "uint256",
					"name": "_amount",
					"type": "uint256"
				},
				{
					"internalType": "address payable",
					"name": "_to",
					"type": "address"
				}
			],
			"name": "withdrawFunds",
			"outputs": [],
			"stateMutability": "nonpayable",
			"type": "function"
		},
		{
			"inputs": [
				{
					"internalType": "address",
					"name": "",
					"type": "address"
				},
				{
					"internalType": "uint256",
					"name": "",
					"type": "uint256"
				}
			],
			"name": "withdrawals",
			"outputs": [
				{
					"internalType": "uint256",
					"name": "campaignId",
					"type": "uint256"
				},
				{
					"internalType": "string",
					"name": "title",
					"type": "string"
				},
				{
					"internalType": "uint256",
					"name": "amount",
					"type": "uint256"
				},
				{
					"internalType": "address",
					"name": "by",
					"type": "address"
				},
				{
					"internalType": "address",
					"name": "to",
					"type": "address"
				}
			],
			"stateMutability": "view",
			"type": "function"
		}
	]
}