{
	"data": {
		"bytecode": {
			"linkReferences": {},
			"object": "6080604052348015600e575f80fd5b50335f806101000a81548173ffffffffffffffffffffffffffffffffffffffff021916908373ffffffffffffffffffffffffffffffffffffffff160217905550613b918061005b5f395ff3fe6080604052600436106100dc575f3560e01c80636f9fb98a1161007e578063c14b8aac11610058578063c14b8aac146102ed578063df171c0d14610315578063e81c411d14610351578063ffa56a571461037b576100dc565b80636f9fb98a146102485780639b56f5f014610272578063be21739e146102b1576100dc565b806328f5bd9b116100ba57806328f5bd9b14610186578063366919e9146101c2578063422b1077146101ec5780635a3915cd1461022c576100dc565b8063060a4524146100e057806311555dbc146101085780631f55e5bc1461014a575b5f80fd5b3480156100eb575f80fd5b506101066004803603810190610101919061227c565b6103a3565b005b348015610113575f80fd5b5061012e600480360381019061012991906122da565b61058a565b60405161014197969594939291906123c0565b60405180910390f35b348015610155575f80fd5b50610170600480360381019061016b91906122da565b610719565b60405161017d919061243b565b60405180910390f35b348015610191575f80fd5b506101ac60048036038101906101a7919061227c565b610761565b6040516101b9919061250b565b60405180910390f35b3480156101cd575f80fd5b506101d6610829565b6040516101e391906126ec565b60405180910390f35b3480156101f7575f80fd5b50610212600480360381019061020d91906122da565b610a6c565b60405161022395949392919061270c565b60405180910390f35b6102466004803603810190610241919061279f565b610b7c565b005b348015610253575f80fd5b5061025c61126d565b60405161026991906127ef565b60405180910390f35b34801561027d575f80fd5b50610298600480360381019061029391906122da565b611274565b6040516102a89493929190612808565b60405180910390f35b3480156102bc575f80fd5b506102d760048036038101906102d29190612852565b61135f565b6040516102e49190612890565b60405180910390f35b3480156102f8575f80fd5b50610313600480360381019061030e91906128a9565b611389565b005b348015610320575f80fd5b5061033b6004803603810190610336919061227c565b611afe565b6040516103489190612a3b565b60405180910390f35b34801561035c575f80fd5b50610365611ce4565b6040516103729190612b76565b60405180910390f35b348015610386575f80fd5b506103a1600480360381019061039c9190612cc2565b611e73565b005b5f60015f3373ffffffffffffffffffffffffffffffffffffffff1673ffffffffffffffffffffffffffffffffffffffff1681526020019081526020015f208054905011610425576040517f08c379a000000000000000000000000000000000000000000000000000000000815260040161041c90612dba565b60405180910390fd5b600160025f3373ffffffffffffffffffffffffffffffffffffffff1673ffffffffffffffffffffffffffffffffffffffff1681526020019081526020015f205f8373ffffffffffffffffffffffffffffffffffffffff1673ffffffffffffffffffffffffffffffffffffffff1681526020019081526020015f205f6101000a81548160ff02191690831515021790555060035f3373ffffffffffffffffffffffffffffffffffffffff1673ffffffffffffffffffffffffffffffffffffffff1681526020019081526020015f2081908060018154018082558091505060019003905f5260205f20015f9091909190916101000a81548173ffffffffffffffffffffffffffffffffffffffff021916908373ffffffffffffffffffffffffffffffffffffffff1602179055507fad6de4452a631e641cb59902236607946ce9272b9b981f2f80e8d129cb9084ba8160405161057f919061243b565b60405180910390a150565b6001602052815f5260405f2081815481106105a3575f80fd5b905f5260205f2090600702015f9150915050805f0154908060010180546105c990612e05565b80601f01602080910402602001604051908101604052809291908181526020018280546105f590612e05565b80156106405780601f1061061757610100808354040283529160200191610640565b820191905f5260205f20905b81548152906001019060200180831161062357829003601f168201915b50505050509080600201805461065590612e05565b80601f016020809104026020016040519081016040528092919081815260200182805461068190612e05565b80156106cc5780601f106106a3576101008083540402835291602001916106cc565b820191905f5260205f20905b8154815290600101906020018083116106af57829003601f168201915b505050505090806003015f9054906101000a900473ffffffffffffffffffffffffffffffffffffffff1690806004015490806005015490806006015f9054906101000a900460ff16905087565b6003602052815f5260405f208181548110610732575f80fd5b905f5260205f20015f915091509054906101000a900473ffffffffffffffffffffffffffffffffffffffff1681565b606060035f8373ffffffffffffffffffffffffffffffffffffffff1673ffffffffffffffffffffffffffffffffffffffff1681526020019081526020015f2080548060200260200160405190810160405280929190818152602001828054801561081d57602002820191905f5260205f20905b815f9054906101000a900473ffffffffffffffffffffffffffffffffffffffff1673ffffffffffffffffffffffffffffffffffffffff16815260200190600101908083116107d4575b50505050509050919050565b606060015f3373ffffffffffffffffffffffffffffffffffffffff1673ffffffffffffffffffffffffffffffffffffffff1681526020019081526020015f20805480602002602001604051908101604052809291908181526020015f905b82821015610a63578382905f5260205f2090600702016040518060e00160405290815f82015481526020016001820180546108c190612e05565b80601f01602080910402602001604051908101604052809291908181526020018280546108ed90612e05565b80156109385780601f1061090f57610100808354040283529160200191610938565b820191905f5260205f20905b81548152906001019060200180831161091b57829003601f168201915b5050505050815260200160028201805461095190612e05565b80601f016020809104026020016040519081016040528092919081815260200182805461097d90612e05565b80156109c85780601f1061099f576101008083540402835291602001916109c8565b820191905f5260205f20905b8154815290600101906020018083116109ab57829003601f168201915b50505050508152602001600382015f9054906101000a900473ffffffffffffffffffffffffffffffffffffffff1673ffffffffffffffffffffffffffffffffffffffff1673ffffffffffffffffffffffffffffffffffffffff1681526020016004820154815260200160058201548152602001600682015f9054906101000a900460ff16151515158152505081526020019060010190610887565b50505050905090565b6005602052815f5260405f208181548110610a85575f80fd5b905f5260205f2090600502015f9150915050805f015490806001018054610aab90612e05565b80601f0160208091040260200160405190810160405280929190818152602001828054610ad790612e05565b8015610b225780601f10610af957610100808354040283529160200191610b22565b820191905f5260205f20905b815481529060010190602001808311610b0557829003601f168201915b505050505090806002015490806003015f9054906101000a900473ffffffffffffffffffffffffffffffffffffffff1690806004015f9054906101000a900473ffffffffffffffffffffffffffffffffffffffff16905085565b8160015f8573ffffffffffffffffffffffffffffffffffffffff1673ffffffffffffffffffffffffffffffffffffffff1681526020019081526020015f20600184610bc79190612e62565b81548110610bd857610bd7612e95565b5b905f5260205f2090600702015f01541482604051602001610bf99190612f80565b60405160208183030381529060405290610c49576040517f08c379a0000000000000000000000000000000000000000000000000000000008152600401610c409190612fb0565b60405180910390fd5b505f151560015f8573ffffffffffffffffffffffffffffffffffffffff1673ffffffffffffffffffffffffffffffffffffffff1681526020019081526020015f20600184610c979190612e62565b81548110610ca857610ca7612e95565b5b905f5260205f2090600702016006015f9054906101000a900460ff1615151460015f8573ffffffffffffffffffffffffffffffffffffffff1673ffffffffffffffffffffffffffffffffffffffff1681526020019081526020015f20600184610d119190612e62565b81548110610d2257610d21612e95565b5b905f5260205f209060070201600101604051602001610d4191906130f6565b60405160208183030381529060405290610d91576040517f08c379a0000000000000000000000000000000000000000000000000000000008152600401610d889190612fb0565b60405180910390fd5b505f8111610dd4576040517f08c379a0000000000000000000000000000000000000000000000000000000008152600401610dcb9061316c565b60405180910390fd5b803414610e16576040517f08c379a0000000000000000000000000000000000000000000000000000000008152600401610e0d906131d4565b60405180910390fd5b8060015f8573ffffffffffffffffffffffffffffffffffffffff1673ffffffffffffffffffffffffffffffffffffffff1681526020019081526020015f20600184610e619190612e62565b81548110610e7257610e71612e95565b5b905f5260205f2090600702016005015f828254610e8f91906131f2565b9250508190555060015f8473ffffffffffffffffffffffffffffffffffffffff1673ffffffffffffffffffffffffffffffffffffffff1681526020019081526020015f20600183610ee09190612e62565b81548110610ef157610ef0612e95565b5b905f5260205f2090600702016004015460015f8573ffffffffffffffffffffffffffffffffffffffff1673ffffffffffffffffffffffffffffffffffffffff1681526020019081526020015f20600184610f4b9190612e62565b81548110610f5c57610f5b612e95565b5b905f5260205f209060070201600501541061102c576001805f8573ffffffffffffffffffffffffffffffffffffffff1673ffffffffffffffffffffffffffffffffffffffff1681526020019081526020015f20600184610fbc9190612e62565b81548110610fcd57610fcc612e95565b5b905f5260205f2090600702016006015f6101000a81548160ff0219169083151502179055507f8559b4dc0428ef20b1a5974fff4845e3163bfbec589128d75c7da62148fbd8ae8383604051611023929190613280565b60405180910390a15b5f60405180608001604052808573ffffffffffffffffffffffffffffffffffffffff16815260200184815260200160015f8773ffffffffffffffffffffffffffffffffffffffff1673ffffffffffffffffffffffffffffffffffffffff1681526020019081526020015f206001866110a49190612e62565b815481106110b5576110b4612e95565b5b905f5260205f20906007020160010180546110cf90612e05565b80601f01602080910402602001604051908101604052809291908181526020018280546110fb90612e05565b80156111465780601f1061111d57610100808354040283529160200191611146565b820191905f5260205f20905b81548152906001019060200180831161112957829003601f168201915b5050505050815260200183815250905060045f3373ffffffffffffffffffffffffffffffffffffffff1673ffffffffffffffffffffffffffffffffffffffff1681526020019081526020015f2081908060018154018082558091505060019003905f5260205f2090600402015f909190919091505f820151815f015f6101000a81548173ffffffffffffffffffffffffffffffffffffffff021916908373ffffffffffffffffffffffffffffffffffffffff16021790555060208201518160010155604082015181600201908161121d9190613429565b506060820151816003015550507fbe0281dcb233d52d4d243d0d6ff4ed47e8641aecf85b98611ade1c9307186b7d3383868660405161125f94939291906134f8565b60405180910390a150505050565b5f47905090565b6004602052815f5260405f20818154811061128d575f80fd5b905f5260205f2090600402015f9150915050805f015f9054906101000a900473ffffffffffffffffffffffffffffffffffffffff16908060010154908060020180546112d890612e05565b80601f016020809104026020016040519081016040528092919081815260200182805461130490612e05565b801561134f5780601f106113265761010080835404028352916020019161134f565b820191905f5260205f20905b81548152906001019060200180831161133257829003601f168201915b5050505050908060030154905084565b6002602052815f5260405f20602052805f5260405f205f915091509054906101000a900460ff1681565b82845f60015f8473ffffffffffffffffffffffffffffffffffffffff1673ffffffffffffffffffffffffffffffffffffffff1681526020019081526020015f20805490501161140d576040517f08c379a0000000000000000000000000000000000000000000000000000000008152600401611404906135ab565b60405180910390fd5b8060015f8473ffffffffffffffffffffffffffffffffffffffff1673ffffffffffffffffffffffffffffffffffffffff1681526020019081526020015f206001836114589190612e62565b8154811061146957611468612e95565b5b905f5260205f2090600702015f0154146114b8576040517f08c379a00000000000000000000000000000000000000000000000000000000081526004016114af90613639565b60405180910390fd5b60025f8373ffffffffffffffffffffffffffffffffffffffff1673ffffffffffffffffffffffffffffffffffffffff1681526020019081526020015f205f3373ffffffffffffffffffffffffffffffffffffffff1673ffffffffffffffffffffffffffffffffffffffff1681526020019081526020015f205f9054906101000a900460ff1661157c576040517f08c379a0000000000000000000000000000000000000000000000000000000008152600401611573906136c7565b60405180910390fd5b5f841180156115f5575060015f8673ffffffffffffffffffffffffffffffffffffffff1673ffffffffffffffffffffffffffffffffffffffff1681526020019081526020015f206001876115d09190612e62565b815481106115e1576115e0612e95565b5b905f5260205f209060070201600501548411155b611634576040517f08c379a000000000000000000000000000000000000000000000000000000000815260040161162b90613755565b60405180910390fd5b60015f8673ffffffffffffffffffffffffffffffffffffffff1673ffffffffffffffffffffffffffffffffffffffff1681526020019081526020015f2060018761167e9190612e62565b8154811061168f5761168e612e95565b5b905f5260205f2090600702016006015f9054906101000a900460ff166116ea576040517f08c379a00000000000000000000000000000000000000000000000000000000081526004016116e1906137e3565b60405180910390fd5b8347101561172d576040517f08c379a00000000000000000000000000000000000000000000000000000000081526004016117249061384b565b60405180910390fd5b8360015f8773ffffffffffffffffffffffffffffffffffffffff1673ffffffffffffffffffffffffffffffffffffffff1681526020019081526020015f206001886117789190612e62565b8154811061178957611788612e95565b5b905f5260205f2090600702016005015f8282546117a69190612e62565b925050819055505f8373ffffffffffffffffffffffffffffffffffffffff16856040516117d290613896565b5f6040518083038185875af1925050503d805f811461180c576040519150601f19603f3d011682016040523d82523d5f602084013e611811565b606091505b5050905080611855576040517f08c379a000000000000000000000000000000000000000000000000000000000815260040161184c906138f4565b60405180910390fd5b5f6040518060a0016040528089815260200160015f8a73ffffffffffffffffffffffffffffffffffffffff1673ffffffffffffffffffffffffffffffffffffffff1681526020019081526020015f2060018b6118b19190612e62565b815481106118c2576118c1612e95565b5b905f5260205f20906007020160010180546118dc90612e05565b80601f016020809104026020016040519081016040528092919081815260200182805461190890612e05565b80156119535780601f1061192a57610100808354040283529160200191611953565b820191905f5260205f20905b81548152906001019060200180831161193657829003601f168201915b505050505081526020018781526020013373ffffffffffffffffffffffffffffffffffffffff1681526020018673ffffffffffffffffffffffffffffffffffffffff16815250905060055f8873ffffffffffffffffffffffffffffffffffffffff1673ffffffffffffffffffffffffffffffffffffffff1681526020019081526020015f2081908060018154018082558091505060019003905f5260205f2090600502015f909190919091505f820151815f01556020820151816001019081611a1c9190613429565b50604082015181600201556060820151816003015f6101000a81548173ffffffffffffffffffffffffffffffffffffffff021916908373ffffffffffffffffffffffffffffffffffffffff1602179055506080820151816004015f6101000a81548173ffffffffffffffffffffffffffffffffffffffff021916908373ffffffffffffffffffffffffffffffffffffffff16021790555050507ffb301322f68b8ea04d2b6a3ab0a1a0100d7be758e7ffa771d5539a256b92d10d8633878a8c604051611aec959493929190613912565b60405180910390a15050505050505050565b606060055f8373ffffffffffffffffffffffffffffffffffffffff1673ffffffffffffffffffffffffffffffffffffffff1681526020019081526020015f20805480602002602001604051908101604052809291908181526020015f905b82821015611cd9578382905f5260205f2090600502016040518060a00160405290815f8201548152602001600182018054611b9690612e05565b80601f0160208091040260200160405190810160405280929190818152602001828054611bc290612e05565b8015611c0d5780601f10611be457610100808354040283529160200191611c0d565b820191905f5260205f20905b815481529060010190602001808311611bf057829003601f168201915b5050505050815260200160028201548152602001600382015f9054906101000a900473ffffffffffffffffffffffffffffffffffffffff1673ffffffffffffffffffffffffffffffffffffffff1673ffffffffffffffffffffffffffffffffffffffff168152602001600482015f9054906101000a900473ffffffffffffffffffffffffffffffffffffffff1673ffffffffffffffffffffffffffffffffffffffff1673ffffffffffffffffffffffffffffffffffffffff168152505081526020019060010190611b5c565b505050509050919050565b606060045f3373ffffffffffffffffffffffffffffffffffffffff1673ffffffffffffffffffffffffffffffffffffffff1681526020019081526020015f20805480602002602001604051908101604052809291908181526020015f905b82821015611e6a578382905f5260205f2090600402016040518060800160405290815f82015f9054906101000a900473ffffffffffffffffffffffffffffffffffffffff1673ffffffffffffffffffffffffffffffffffffffff1673ffffffffffffffffffffffffffffffffffffffff16815260200160018201548152602001600282018054611dd190612e05565b80601f0160208091040260200160405190810160405280929190818152602001828054611dfd90612e05565b8015611e485780601f10611e1f57610100808354040283529160200191611e48565b820191905f5260205f20905b815481529060010190602001808311611e2b57829003601f168201915b5050505050815260200160038201548152505081526020019060010190611d42565b50505050905090565b5f5b60015f3373ffffffffffffffffffffffffffffffffffffffff1673ffffffffffffffffffffffffffffffffffffffff1681526020019081526020015f2080549050811015611fe1575f60015f3373ffffffffffffffffffffffffffffffffffffffff1673ffffffffffffffffffffffffffffffffffffffff1681526020019081526020015f208281548110611f0d57611f0c612e95565b5b905f5260205f20906007020160010190505f85604051602001611f309190613993565b6040516020818303038152906040528051906020012082604051602001611f579190613a3b565b604051602081830303815290604052805190602001201490508015611fd25785604051602001611f879190613ae5565b6040516020818303038152906040526040517f08c379a0000000000000000000000000000000000000000000000000000000008152600401611fc99190612fb0565b60405180910390fd5b50508080600101915050611e75565b505f6040518060e001604052806001805f3373ffffffffffffffffffffffffffffffffffffffff1673ffffffffffffffffffffffffffffffffffffffff1681526020019081526020015f208054905061203a91906131f2565b81526020018581526020018481526020013373ffffffffffffffffffffffffffffffffffffffff1681526020018381526020015f81526020015f1515815250905060015f3373ffffffffffffffffffffffffffffffffffffffff1673ffffffffffffffffffffffffffffffffffffffff1681526020019081526020015f2081908060018154018082558091505060019003905f5260205f2090600702015f909190919091505f820151815f015560208201518160010190816120fc9190613429565b5060408201518160020190816121129190613429565b506060820151816003015f6101000a81548173ffffffffffffffffffffffffffffffffffffffff021916908373ffffffffffffffffffffffffffffffffffffffff1602179055506080820151816004015560a0820151816005015560c0820151816006015f6101000a81548160ff02191690831515021790555050507f825fb10f7650ed27414d6f86acdf7d5946927d9b25001f045f1a2435deec02fe60015f3373ffffffffffffffffffffffffffffffffffffffff1673ffffffffffffffffffffffffffffffffffffffff1681526020019081526020015f20805490503386856040516122039493929190613b11565b60405180910390a150505050565b5f604051905090565b5f80fd5b5f80fd5b5f73ffffffffffffffffffffffffffffffffffffffff82169050919050565b5f61224b82612222565b9050919050565b61225b81612241565b8114612265575f80fd5b50565b5f8135905061227681612252565b92915050565b5f602082840312156122915761229061221a565b5b5f61229e84828501612268565b91505092915050565b5f819050919050565b6122b9816122a7565b81146122c3575f80fd5b50565b5f813590506122d4816122b0565b92915050565b5f80604083850312156122f0576122ef61221a565b5b5f6122fd85828601612268565b925050602061230e858286016122c6565b9150509250929050565b612321816122a7565b82525050565b5f81519050919050565b5f82825260208201905092915050565b8281835e5f83830152505050565b5f601f19601f8301169050919050565b5f61236982612327565b6123738185612331565b9350612383818560208601612341565b61238c8161234f565b840191505092915050565b6123a081612241565b82525050565b5f8115159050919050565b6123ba816123a6565b82525050565b5f60e0820190506123d35f83018a612318565b81810360208301526123e5818961235f565b905081810360408301526123f9818861235f565b90506124086060830187612397565b6124156080830186612318565b61242260a0830185612318565b61242f60c08301846123b1565b98975050505050505050565b5f60208201905061244e5f830184612397565b92915050565b5f81519050919050565b5f82825260208201905092915050565b5f819050602082019050919050565b61248681612241565b82525050565b5f612497838361247d565b60208301905092915050565b5f602082019050919050565b5f6124b982612454565b6124c3818561245e565b93506124ce8361246e565b805f5b838110156124fe5781516124e5888261248c565b97506124f0836124a3565b9250506001810190506124d1565b5085935050505092915050565b5f6020820190508181035f83015261252381846124af565b905092915050565b5f81519050919050565b5f82825260208201905092915050565b5f819050602082019050919050565b61255d816122a7565b82525050565b5f82825260208201905092915050565b5f61257d82612327565b6125878185612563565b9350612597818560208601612341565b6125a08161234f565b840191505092915050565b6125b4816123a6565b82525050565b5f60e083015f8301516125cf5f860182612554565b50602083015184820360208601526125e78282612573565b915050604083015184820360408601526126018282612573565b9150506060830151612616606086018261247d565b5060808301516126296080860182612554565b5060a083015161263c60a0860182612554565b5060c083015161264f60c08601826125ab565b508091505092915050565b5f61266583836125ba565b905092915050565b5f602082019050919050565b5f6126838261252b565b61268d8185612535565b93508360208202850161269f85612545565b805f5b858110156126da57848403895281516126bb858261265a565b94506126c68361266d565b925060208a019950506001810190506126a2565b50829750879550505050505092915050565b5f6020820190508181035f8301526127048184612679565b905092915050565b5f60a08201905061271f5f830188612318565b8181036020830152612731818761235f565b90506127406040830186612318565b61274d6060830185612397565b61275a6080830184612397565b9695505050505050565b5f61276e82612222565b9050919050565b61277e81612764565b8114612788575f80fd5b50565b5f8135905061279981612775565b92915050565b5f805f606084860312156127b6576127b561221a565b5b5f6127c38682870161278b565b93505060206127d4868287016122c6565b92505060406127e5868287016122c6565b9150509250925092565b5f6020820190506128025f830184612318565b92915050565b5f60808201905061281b5f830187612397565b6128286020830186612318565b818103604083015261283a818561235f565b90506128496060830184612318565b95945050505050565b5f80604083850312156128685761286761221a565b5b5f61287585828601612268565b925050602061288685828601612268565b9150509250929050565b5f6020820190506128a35f8301846123b1565b92915050565b5f805f80608085870312156128c1576128c061221a565b5b5f6128ce878288016122c6565b94505060206128df87828801612268565b93505060406128f0878288016122c6565b92505060606129018782880161278b565b91505092959194509250565b5f81519050919050565b5f82825260208201905092915050565b5f819050602082019050919050565b5f60a083015f83015161294b5f860182612554565b50602083015184820360208601526129638282612573565b91505060408301516129786040860182612554565b50606083015161298b606086018261247d565b50608083015161299e608086018261247d565b508091505092915050565b5f6129b48383612936565b905092915050565b5f602082019050919050565b5f6129d28261290d565b6129dc8185612917565b9350836020820285016129ee85612927565b805f5b85811015612a295784840389528151612a0a85826129a9565b9450612a15836129bc565b925060208a019950506001810190506129f1565b50829750879550505050505092915050565b5f6020820190508181035f830152612a5381846129c8565b905092915050565b5f81519050919050565b5f82825260208201905092915050565b5f819050602082019050919050565b5f608083015f830151612a995f86018261247d565b506020830151612aac6020860182612554565b5060408301518482036040860152612ac48282612573565b9150506060830151612ad96060860182612554565b508091505092915050565b5f612aef8383612a84565b905092915050565b5f602082019050919050565b5f612b0d82612a5b565b612b178185612a65565b935083602082028501612b2985612a75565b805f5b85811015612b645784840389528151612b458582612ae4565b9450612b5083612af7565b925060208a01995050600181019050612b2c565b50829750879550505050505092915050565b5f6020820190508181035f830152612b8e8184612b03565b905092915050565b5f80fd5b5f80fd5b7f4e487b71000000000000000000000000000000000000000000000000000000005f52604160045260245ffd5b612bd48261234f565b810181811067ffffffffffffffff82111715612bf357612bf2612b9e565b5b80604052505050565b5f612c05612211565b9050612c118282612bcb565b919050565b5f67ffffffffffffffff821115612c3057612c2f612b9e565b5b612c398261234f565b9050602081019050919050565b828183375f83830152505050565b5f612c66612c6184612c16565b612bfc565b905082815260208101848484011115612c8257612c81612b9a565b5b612c8d848285612c46565b509392505050565b5f82601f830112612ca957612ca8612b96565b5b8135612cb9848260208601612c54565b91505092915050565b5f805f60608486031215612cd957612cd861221a565b5b5f84013567ffffffffffffffff811115612cf657612cf561221e565b5b612d0286828701612c95565b935050602084013567ffffffffffffffff811115612d2357612d2261221e565b5b612d2f86828701612c95565b9250506040612d40868287016122c6565b9150509250925092565b7f5468652043616d706169676e65642053706563696669656420446f6573204e6f5f8201527f7420457869737421000000000000000000000000000000000000000000000000602082015250565b5f612da4602883612331565b9150612daf82612d4a565b604082019050919050565b5f6020820190508181035f830152612dd181612d98565b9050919050565b7f4e487b71000000000000000000000000000000000000000000000000000000005f52602260045260245ffd5b5f6002820490506001821680612e1c57607f821691505b602082108103612e2f57612e2e612dd8565b5b50919050565b7f4e487b71000000000000000000000000000000000000000000000000000000005f52601160045260245ffd5b5f612e6c826122a7565b9150612e77836122a7565b9250828203905081811115612e8f57612e8e612e35565b5b92915050565b7f4e487b71000000000000000000000000000000000000000000000000000000005f52603260045260245ffd5b5f81905092915050565b7f5468652043616d706169676e20000000000000000000000000000000000000005f82015250565b5f612f00600d83612ec2565b9150612f0b82612ecc565b600d82019050919050565b5f819050919050565b612f30612f2b826122a7565b612f16565b82525050565b7f20446f6573204e4f5420457869737421000000000000000000000000000000005f82015250565b5f612f6a601083612ec2565b9150612f7582612f36565b601082019050919050565b5f612f8a82612ef4565b9150612f968284612f1f565b602082019150612fa582612f5e565b915081905092915050565b5f6020820190508181035f830152612fc8818461235f565b905092915050565b7f27000000000000000000000000000000000000000000000000000000000000005f82015250565b5f613004600183612ec2565b915061300f82612fd0565b600182019050919050565b5f819050815f5260205f209050919050565b5f815461303881612e05565b6130428186612ec2565b9450600182165f811461305c5760018114613071576130a3565b60ff19831686528115158202860193506130a3565b61307a8561301a565b5f5b8381101561309b5781548189015260018201915060208101905061307c565b838801955050505b50505092915050565b7f272043616d706169676e2057617320436f6d706c6574656421000000000000005f82015250565b5f6130e0601983612ec2565b91506130eb826130ac565b601982019050919050565b5f61310082612ff8565b915061310c828461302c565b9150613117826130d4565b915081905092915050565b7f416d6f756e742043616e6e6f74206265205a65726f00000000000000000000005f82015250565b5f613156601583612331565b915061316182613122565b602082019050919050565b5f6020820190508181035f8301526131838161314a565b9050919050565b7f54686520416d6f756e7420646f65736e2774204d6174636821000000000000005f82015250565b5f6131be601983612331565b91506131c98261318a565b602082019050919050565b5f6020820190508181035f8301526131eb816131b2565b9050919050565b5f6131fc826122a7565b9150613207836122a7565b925082820190508082111561321f5761321e612e35565b5b92915050565b5f819050919050565b5f61324861324361323e84612222565b613225565b612222565b9050919050565b5f6132598261322e565b9050919050565b5f61326a8261324f565b9050919050565b61327a81613260565b82525050565b5f6040820190506132935f830185613271565b6132a06020830184612318565b9392505050565b5f6020601f8301049050919050565b5f82821b905092915050565b5f600883026132f17fffffffffffffffffffffffffffffffffffffffffffffffffffffffffffffffff826132b6565b6132fb86836132b6565b95508019841693508086168417925050509392505050565b5f61332d613328613323846122a7565b613225565b6122a7565b9050919050565b5f819050919050565b61334683613313565b61335a61335282613334565b8484546132c2565b825550505050565b5f90565b61336e613362565b61337981848461333d565b505050565b5b8181101561339c576133915f82613366565b60018101905061337f565b5050565b601f8211156133e1576133b28161301a565b6133bb846132a7565b810160208510156133ca578190505b6133de6133d6856132a7565b83018261337e565b50505b505050565b5f82821c905092915050565b5f6134015f19846008026133e6565b1980831691505092915050565b5f61341983836133f2565b9150826002028217905092915050565b61343282612327565b67ffffffffffffffff81111561344b5761344a612b9e565b5b6134558254612e05565b6134608282856133a0565b5f60209050601f831160018114613491575f841561347f578287015190505b613489858261340e565b8655506134f0565b601f19841661349f8661301a565b5f5b828110156134c6578489015182556001820191506020850194506020810190506134a1565b868310156134e357848901516134df601f8916826133f2565b8355505b6001600288020188555050505b505050505050565b5f60808201905061350b5f830187612397565b6135186020830186612318565b6135256040830185613271565b6135326060830184612318565b95945050505050565b7f5468657265204973204e6f2043616d706169676e2042792054686174206164645f8201527f7265737321000000000000000000000000000000000000000000000000000000602082015250565b5f613595602583612331565b91506135a08261353b565b604082019050919050565b5f6020820190508181035f8301526135c281613589565b9050919050565b7f5468652043616d706169676e2053706563696669656420446f6573204e6f74205f8201527f4578697374210000000000000000000000000000000000000000000000000000602082015250565b5f613623602683612331565b915061362e826135c9565b604082019050919050565b5f6020820190508181035f83015261365081613617565b9050919050565b7f4f6e6c792041646d696e732043616e20506572666f726d2054686973204163745f8201527f696f6e2100000000000000000000000000000000000000000000000000000000602082015250565b5f6136b1602483612331565b91506136bc82613657565b604082019050919050565b5f6020820190508181035f8301526136de816136a5565b9050919050565b7f416d6f756e742043616e6e6f74206265205a65726f204f7220457863656564205f8201527f5468652052616973656420416d6f756e74210000000000000000000000000000602082015250565b5f61373f603283612331565b915061374a826136e5565b604082019050919050565b5f6020820190508181035f83015261376c81613733565b9050919050565b7f596f752043616e27742057697468647261772046756e64732066726f6d20616e5f8201527f204163746976652043616d706169676e00000000000000000000000000000000602082015250565b5f6137cd603083612331565b91506137d882613773565b604082019050919050565b5f6020820190508181035f8301526137fa816137c1565b9050919050565b7f496e73756666696369656e7420636f6e74726163742062616c616e63650000005f82015250565b5f613835601d83612331565b915061384082613801565b602082019050919050565b5f6020820190508181035f83015261386281613829565b9050919050565b5f81905092915050565b50565b5f6138815f83613869565b915061388c82613873565b5f82019050919050565b5f6138a082613876565b9150819050919050565b7f5472616e73666572206661696c656400000000000000000000000000000000005f82015250565b5f6138de600f83612331565b91506138e9826138aa565b602082019050919050565b5f6020820190508181035f83015261390b816138d2565b9050919050565b5f60a0820190506139255f830188612318565b6139326020830187612397565b61393f6040830186613271565b61394c6060830185612397565b6139596080830184612318565b9695505050505050565b5f61396d82612327565b6139778185612ec2565b9350613987818560208601612341565b80840191505092915050565b5f61399e8284613963565b915081905092915050565b5f819050815f5260205f209050919050565b5f81546139c781612e05565b6139d18186612ec2565b9450600182165f81146139eb5760018114613a0057613a32565b60ff1983168652811515820286019350613a32565b613a09856139a9565b5f5b83811015613a2a57815481890152600182019150602081019050613a0b565b838801955050505b50505092915050565b5f613a4682846139bb565b915081905092915050565b7f43616d706169676e2000000000000000000000000000000000000000000000005f82015250565b5f613a85600983612ec2565b9150613a9082613a51565b600982019050919050565b7f20616c72656164792065786973747321000000000000000000000000000000005f82015250565b5f613acf601083612ec2565b9150613ada82613a9b565b601082019050919050565b5f613aef82613a79565b9150613afb8284613963565b9150613b0682613ac3565b915081905092915050565b5f608082019050613b245f830187612318565b613b316020830186612397565b8181036040830152613b43818561235f565b9050613b526060830184612318565b9594505050505056fea2646970667358221220b1c9bce903ced7d8a18848ade04ecce7f4402896d2a35bf12f3c61da0e01ae6164736f6c634300081a0033",
			"opcodes": "PUSH1 0x80 PUSH1 0x40 MSTORE CALLVALUE DUP1 ISZERO PUSH1 0xE JUMPI PUSH0 DUP1 REVERT JUMPDEST POP CALLER PUSH0 DUP1 PUSH2 0x100 EXP DUP2 SLOAD DUP2 PUSH20 0xFFFFFFFFFFFFFFFFFFFFFFFFFFFFFFFFFFFFFFFF MUL NOT AND SWAP1 DUP4 PUSH20 0xFFFFFFFFFFFFFFFFFFFFFFFFFFFFFFFFFFFFFFFF AND MUL OR SWAP1 SSTORE POP PUSH2 0x3B91 DUP1 PUSH2 0x5B PUSH0 CODECOPY PUSH0 RETURN INVALID PUSH1 0x80 PUSH1 0x40 MSTORE PUSH1 0x4 CALLDATASIZE LT PUSH2 0xDC JUMPI PUSH0 CALLDATALOAD PUSH1 0xE0 SHR DUP1 PUSH4 0x6F9FB98A GT PUSH2 0x7E JUMPI DUP1 PUSH4 0xC14B8AAC GT PUSH2 0x58 JUMPI DUP1 PUSH4 0xC14B8AAC EQ PUSH2 0x2ED JUMPI DUP1 PUSH4 0xDF171C0D EQ PUSH2 0x315 JUMPI DUP1 PUSH4 0xE81C411D EQ PUSH2 0x351 JUMPI DUP1 PUSH4 0xFFA56A57 EQ PUSH2 0x37B JUMPI PUSH2 0xDC JUMP JUMPDEST DUP1 PUSH4 0x6F9FB98A EQ PUSH2 0x248 JUMPI DUP1 PUSH4 0x9B56F5F0 EQ PUSH2 0x272 JUMPI DUP1 PUSH4 0xBE21739E EQ PUSH2 0x2B1 JUMPI PUSH2 0xDC JUMP JUMPDEST DUP1 PUSH4 0x28F5BD9B GT PUSH2 0xBA JUMPI DUP1 PUSH4 0x28F5BD9B EQ PUSH2 0x186 JUMPI DUP1 PUSH4 0x366919E9 EQ PUSH2 0x1C2 JUMPI DUP1 PUSH4 0x422B1077 EQ PUSH2 0x1EC JUMPI DUP1 PUSH4 0x5A3915CD EQ PUSH2 0x22C JUMPI PUSH2 0xDC JUMP JUMPDEST DUP1 PUSH4 0x60A4524 EQ PUSH2 0xE0 JUMPI DUP1 PUSH4 0x11555DBC EQ PUSH2 0x108 JUMPI DUP1 PUSH4 0x1F55E5BC EQ PUSH2 0x14A JUMPI JUMPDEST PUSH0 DUP1 REVERT JUMPDEST CALLVALUE DUP1 ISZERO PUSH2 0xEB JUMPI PUSH0 DUP1 REVERT JUMPDEST POP PUSH2 0x106 PUSH1 0x4 DUP1 CALLDATASIZE SUB DUP2 ADD SWAP1 PUSH2 0x101 SWAP2 SWAP1 PUSH2 0x227C JUMP JUMPDEST PUSH2 0x3A3 JUMP JUMPDEST STOP JUMPDEST CALLVALUE DUP1 ISZERO PUSH2 0x113 JUMPI PUSH0 DUP1 REVERT JUMPDEST POP PUSH2 0x12E PUSH1 0x4 DUP1 CALLDATASIZE SUB DUP2 ADD SWAP1 PUSH2 0x129 SWAP2 SWAP1 PUSH2 0x22DA JUMP JUMPDEST PUSH2 0x58A JUMP JUMPDEST PUSH1 0x40 MLOAD PUSH2 0x141 SWAP8 SWAP7 SWAP6 SWAP5 SWAP4 SWAP3 SWAP2 SWAP1 PUSH2 0x23C0 JUMP JUMPDEST PUSH1 0x40 MLOAD DUP1 SWAP2 SUB SWAP1 RETURN JUMPDEST CALLVALUE DUP1 ISZERO PUSH2 0x155 JUMPI PUSH0 DUP1 REVERT JUMPDEST POP PUSH2 0x170 PUSH1 0x4 DUP1 CALLDATASIZE SUB DUP2 ADD SWAP1 PUSH2 0x16B SWAP2 SWAP1 PUSH2 0x22DA JUMP JUMPDEST PUSH2 0x719 JUMP JUMPDEST PUSH1 0x40 MLOAD PUSH2 0x17D SWAP2 SWAP1 PUSH2 0x243B JUMP JUMPDEST PUSH1 0x40 MLOAD DUP1 SWAP2 SUB SWAP1 RETURN JUMPDEST CALLVALUE DUP1 ISZERO PUSH2 0x191 JUMPI PUSH0 DUP1 REVERT JUMPDEST POP PUSH2 0x1AC PUSH1 0x4 DUP1 CALLDATASIZE SUB DUP2 ADD SWAP1 PUSH2 0x1A7 SWAP2 SWAP1 PUSH2 0x227C JUMP JUMPDEST PUSH2 0x761 JUMP JUMPDEST PUSH1 0x40 MLOAD PUSH2 0x1B9 SWAP2 SWAP1 PUSH2 0x250B JUMP JUMPDEST PUSH1 0x40 MLOAD DUP1 SWAP2 SUB SWAP1 RETURN JUMPDEST CALLVALUE DUP1 ISZERO PUSH2 0x1CD JUMPI PUSH0 DUP1 REVERT JUMPDEST POP PUSH2 0x1D6 PUSH2 0x829 JUMP JUMPDEST PUSH1 0x40 MLOAD PUSH2 0x1E3 SWAP2 SWAP1 PUSH2 0x26EC JUMP JUMPDEST PUSH1 0x40 MLOAD DUP1 SWAP2 SUB SWAP1 RETURN JUMPDEST CALLVALUE DUP1 ISZERO PUSH2 0x1F7 JUMPI PUSH0 DUP1 REVERT JUMPDEST POP PUSH2 0x212 PUSH1 0x4 DUP1 CALLDATASIZE SUB DUP2 ADD SWAP1 PUSH2 0x20D SWAP2 SWAP1 PUSH2 0x22DA JUMP JUMPDEST PUSH2 0xA6C JUMP JUMPDEST PUSH1 0x40 MLOAD PUSH2 0x223 SWAP6 SWAP5 SWAP4 SWAP3 SWAP2 SWAP1 PUSH2 0x270C JUMP JUMPDEST PUSH1 0x40 MLOAD DUP1 SWAP2 SUB SWAP1 RETURN JUMPDEST PUSH2 0x246 PUSH1 0x4 DUP1 CALLDATASIZE SUB DUP2 ADD SWAP1 PUSH2 0x241 SWAP2 SWAP1 PUSH2 0x279F JUMP JUMPDEST PUSH2 0xB7C JUMP JUMPDEST STOP JUMPDEST CALLVALUE DUP1 ISZERO PUSH2 0x253 JUMPI PUSH0 DUP1 REVERT JUMPDEST POP PUSH2 0x25C PUSH2 0x126D JUMP JUMPDEST PUSH1 0x40 MLOAD PUSH2 0x269 SWAP2 SWAP1 PUSH2 0x27EF JUMP JUMPDEST PUSH1 0x40 MLOAD DUP1 SWAP2 SUB SWAP1 RETURN JUMPDEST CALLVALUE DUP1 ISZERO PUSH2 0x27D JUMPI PUSH0 DUP1 REVERT JUMPDEST POP PUSH2 0x298 PUSH1 0x4 DUP1 CALLDATASIZE SUB DUP2 ADD SWAP1 PUSH2 0x293 SWAP2 SWAP1 PUSH2 0x22DA JUMP JUMPDEST PUSH2 0x1274 JUMP JUMPDEST PUSH1 0x40 MLOAD PUSH2 0x2A8 SWAP5 SWAP4 SWAP3 SWAP2 SWAP1 PUSH2 0x2808 JUMP JUMPDEST PUSH1 0x40 MLOAD DUP1 SWAP2 SUB SWAP1 RETURN JUMPDEST CALLVALUE DUP1 ISZERO PUSH2 0x2BC JUMPI PUSH0 DUP1 REVERT JUMPDEST POP PUSH2 0x2D7 PUSH1 0x4 DUP1 CALLDATASIZE SUB DUP2 ADD SWAP1 PUSH2 0x2D2 SWAP2 SWAP1 PUSH2 0x2852 JUMP JUMPDEST PUSH2 0x135F JUMP JUMPDEST PUSH1 0x40 MLOAD PUSH2 0x2E4 SWAP2 SWAP1 PUSH2 0x2890 JUMP JUMPDEST PUSH1 0x40 MLOAD DUP1 SWAP2 SUB SWAP1 RETURN JUMPDEST CALLVALUE DUP1 ISZERO PUSH2 0x2F8 JUMPI PUSH0 DUP1 REVERT JUMPDEST POP PUSH2 0x313 PUSH1 0x4 DUP1 CALLDATASIZE SUB DUP2 ADD SWAP1 PUSH2 0x30E SWAP2 SWAP1 PUSH2 0x28A9 JUMP JUMPDEST PUSH2 0x1389 JUMP JUMPDEST STOP JUMPDEST CALLVALUE DUP1 ISZERO PUSH2 0x320 JUMPI PUSH0 DUP1 REVERT JUMPDEST POP PUSH2 0x33B PUSH1 0x4 DUP1 CALLDATASIZE SUB DUP2 ADD SWAP1 PUSH2 0x336 SWAP2 SWAP1 PUSH2 0x227C JUMP JUMPDEST PUSH2 0x1AFE JUMP JUMPDEST PUSH1 0x40 MLOAD PUSH2 0x348 SWAP2 SWAP1 PUSH2 0x2A3B JUMP JUMPDEST PUSH1 0x40 MLOAD DUP1 SWAP2 SUB SWAP1 RETURN JUMPDEST CALLVALUE DUP1 ISZERO PUSH2 0x35C JUMPI PUSH0 DUP1 REVERT JUMPDEST POP PUSH2 0x365 PUSH2 0x1CE4 JUMP JUMPDEST PUSH1 0x40 MLOAD PUSH2 0x372 SWAP2 SWAP1 PUSH2 0x2B76 JUMP JUMPDEST PUSH1 0x40 MLOAD DUP1 SWAP2 SUB SWAP1 RETURN JUMPDEST CALLVALUE DUP1 ISZERO PUSH2 0x386 JUMPI PUSH0 DUP1 REVERT JUMPDEST POP PUSH2 0x3A1 PUSH1 0x4 DUP1 CALLDATASIZE SUB DUP2 ADD SWAP1 PUSH2 0x39C SWAP2 SWAP1 PUSH2 0x2CC2 JUMP JUMPDEST PUSH2 0x1E73 JUMP JUMPDEST STOP JUMPDEST PUSH0 PUSH1 0x1 PUSH0 CALLER PUSH20 0xFFFFFFFFFFFFFFFFFFFFFFFFFFFFFFFFFFFFFFFF AND PUSH20 0xFFFFFFFFFFFFFFFFFFFFFFFFFFFFFFFFFFFFFFFF AND DUP2 MSTORE PUSH1 0x20 ADD SWAP1 DUP2 MSTORE PUSH1 0x20 ADD PUSH0 KECCAK256 DUP1 SLOAD SWAP1 POP GT PUSH2 0x425 JUMPI PUSH1 0x40 MLOAD PUSH32 0x8C379A000000000000000000000000000000000000000000000000000000000 DUP2 MSTORE PUSH1 0x4 ADD PUSH2 0x41C SWAP1 PUSH2 0x2DBA JUMP JUMPDEST PUSH1 0x40 MLOAD DUP1 SWAP2 SUB SWAP1 REVERT JUMPDEST PUSH1 0x1 PUSH1 0x2 PUSH0 CALLER PUSH20 0xFFFFFFFFFFFFFFFFFFFFFFFFFFFFFFFFFFFFFFFF AND PUSH20 0xFFFFFFFFFFFFFFFFFFFFFFFFFFFFFFFFFFFFFFFF AND DUP2 MSTORE PUSH1 0x20 ADD SWAP1 DUP2 MSTORE PUSH1 0x20 ADD PUSH0 KECCAK256 PUSH0 DUP4 PUSH20 0xFFFFFFFFFFFFFFFFFFFFFFFFFFFFFFFFFFFFFFFF AND PUSH20 0xFFFFFFFFFFFFFFFFFFFFFFFFFFFFFFFFFFFFFFFF AND DUP2 MSTORE PUSH1 0x20 ADD SWAP1 DUP2 MSTORE PUSH1 0x20 ADD PUSH0 KECCAK256 PUSH0 PUSH2 0x100 EXP DUP2 SLOAD DUP2 PUSH1 0xFF MUL NOT AND SWAP1 DUP4 ISZERO ISZERO MUL OR SWAP1 SSTORE POP PUSH1 0x3 PUSH0 CALLER PUSH20 0xFFFFFFFFFFFFFFFFFFFFFFFFFFFFFFFFFFFFFFFF AND PUSH20 0xFFFFFFFFFFFFFFFFFFFFFFFFFFFFFFFFFFFFFFFF AND DUP2 MSTORE PUSH1 0x20 ADD SWAP1 DUP2 MSTORE PUSH1 0x20 ADD PUSH0 KECCAK256 DUP2 SWAP1 DUP1 PUSH1 0x1 DUP2 SLOAD ADD DUP1 DUP3 SSTORE DUP1 SWAP2 POP POP PUSH1 0x1 SWAP1 SUB SWAP1 PUSH0 MSTORE PUSH1 0x20 PUSH0 KECCAK256 ADD PUSH0 SWAP1 SWAP2 SWAP1 SWAP2 SWAP1 SWAP2 PUSH2 0x100 EXP DUP2 SLOAD DUP2 PUSH20 0xFFFFFFFFFFFFFFFFFFFFFFFFFFFFFFFFFFFFFFFF MUL NOT AND SWAP1 DUP4 PUSH20 0xFFFFFFFFFFFFFFFFFFFFFFFFFFFFFFFFFFFFFFFF AND MUL OR SWAP1 SSTORE POP PUSH32 0xAD6DE4452A631E641CB59902236607946CE9272B9B981F2F80E8D129CB9084BA DUP2 PUSH1 0x40 MLOAD PUSH2 0x57F SWAP2 SWAP1 PUSH2 0x243B JUMP JUMPDEST PUSH1 0x40 MLOAD DUP1 SWAP2 SUB SWAP1 LOG1 POP JUMP JUMPDEST PUSH1 0x1 PUSH1 0x20 MSTORE DUP2 PUSH0 MSTORE PUSH1 0x40 PUSH0 KECCAK256 DUP2 DUP2 SLOAD DUP2 LT PUSH2 0x5A3 JUMPI PUSH0 DUP1 REVERT JUMPDEST SWAP1 PUSH0 MSTORE PUSH1 0x20 PUSH0 KECCAK256 SWAP1 PUSH1 0x7 MUL ADD PUSH0 SWAP2 POP SWAP2 POP POP DUP1 PUSH0 ADD SLOAD SWAP1 DUP1 PUSH1 0x1 ADD DUP1 SLOAD PUSH2 0x5C9 SWAP1 PUSH2 0x2E05 JUMP JUMPDEST DUP1 PUSH1 0x1F ADD PUSH1 0x20 DUP1 SWAP2 DIV MUL PUSH1 0x20 ADD PUSH1 0x40 MLOAD SWAP1 DUP2 ADD PUSH1 0x40 MSTORE DUP1 SWAP3 SWAP2 SWAP1 DUP2 DUP2 MSTORE PUSH1 0x20 ADD DUP3 DUP1 SLOAD PUSH2 0x5F5 SWAP1 PUSH2 0x2E05 JUMP JUMPDEST DUP1 ISZERO PUSH2 0x640 JUMPI DUP1 PUSH1 0x1F LT PUSH2 0x617 JUMPI PUSH2 0x100 DUP1 DUP4 SLOAD DIV MUL DUP4 MSTORE SWAP2 PUSH1 0x20 ADD SWAP2 PUSH2 0x640 JUMP JUMPDEST DUP3 ADD SWAP2 SWAP1 PUSH0 MSTORE PUSH1 0x20 PUSH0 KECCAK256 SWAP1 JUMPDEST DUP2 SLOAD DUP2 MSTORE SWAP1 PUSH1 0x1 ADD SWAP1 PUSH1 0x20 ADD DUP1 DUP4 GT PUSH2 0x623 JUMPI DUP3 SWAP1 SUB PUSH1 0x1F AND DUP3 ADD SWAP2 JUMPDEST POP POP POP POP POP SWAP1 DUP1 PUSH1 0x2 ADD DUP1 SLOAD PUSH2 0x655 SWAP1 PUSH2 0x2E05 JUMP JUMPDEST DUP1 PUSH1 0x1F ADD PUSH1 0x20 DUP1 SWAP2 DIV MUL PUSH1 0x20 ADD PUSH1 0x40 MLOAD SWAP1 DUP2 ADD PUSH1 0x40 MSTORE DUP1 SWAP3 SWAP2 SWAP1 DUP2 DUP2 MSTORE PUSH1 0x20 ADD DUP3 DUP1 SLOAD PUSH2 0x681 SWAP1 PUSH2 0x2E05 JUMP JUMPDEST DUP1 ISZERO PUSH2 0x6CC JUMPI DUP1 PUSH1 0x1F LT PUSH2 0x6A3 JUMPI PUSH2 0x100 DUP1 DUP4 SLOAD DIV MUL DUP4 MSTORE SWAP2 PUSH1 0x20 ADD SWAP2 PUSH2 0x6CC JUMP JUMPDEST DUP3 ADD SWAP2 SWAP1 PUSH0 MSTORE PUSH1 0x20 PUSH0 KECCAK256 SWAP1 JUMPDEST DUP2 SLOAD DUP2 MSTORE SWAP1 PUSH1 0x1 ADD SWAP1 PUSH1 0x20 ADD DUP1 DUP4 GT PUSH2 0x6AF JUMPI DUP3 SWAP1 SUB PUSH1 0x1F AND DUP3 ADD SWAP2 JUMPDEST POP POP POP POP POP SWAP1 DUP1 PUSH1 0x3 ADD PUSH0 SWAP1 SLOAD SWAP1 PUSH2 0x100 EXP SWAP1 DIV PUSH20 0xFFFFFFFFFFFFFFFFFFFFFFFFFFFFFFFFFFFFFFFF AND SWAP1 DUP1 PUSH1 0x4 ADD SLOAD SWAP1 DUP1 PUSH1 0x5 ADD SLOAD SWAP1 DUP1 PUSH1 0x6 ADD PUSH0 SWAP1 SLOAD SWAP1 PUSH2 0x100 EXP SWAP1 DIV PUSH1 0xFF AND SWAP1 POP DUP8 JUMP JUMPDEST PUSH1 0x3 PUSH1 0x20 MSTORE DUP2 PUSH0 MSTORE PUSH1 0x40 PUSH0 KECCAK256 DUP2 DUP2 SLOAD DUP2 LT PUSH2 0x732 JUMPI PUSH0 DUP1 REVERT JUMPDEST SWAP1 PUSH0 MSTORE PUSH1 0x20 PUSH0 KECCAK256 ADD PUSH0 SWAP2 POP SWAP2 POP SWAP1 SLOAD SWAP1 PUSH2 0x100 EXP SWAP1 DIV PUSH20 0xFFFFFFFFFFFFFFFFFFFFFFFFFFFFFFFFFFFFFFFF AND DUP2 JUMP JUMPDEST PUSH1 0x60 PUSH1 0x3 PUSH0 DUP4 PUSH20 0xFFFFFFFFFFFFFFFFFFFFFFFFFFFFFFFFFFFFFFFF AND PUSH20 0xFFFFFFFFFFFFFFFFFFFFFFFFFFFFFFFFFFFFFFFF AND DUP2 MSTORE PUSH1 0x20 ADD SWAP1 DUP2 MSTORE PUSH1 0x20 ADD PUSH0 KECCAK256 DUP1 SLOAD DUP1 PUSH1 0x20 MUL PUSH1 0x20 ADD PUSH1 0x40 MLOAD SWAP1 DUP2 ADD PUSH1 0x40 MSTORE DUP1 SWAP3 SWAP2 SWAP1 DUP2 DUP2 MSTORE PUSH1 0x20 ADD DUP3 DUP1 SLOAD DUP1 ISZERO PUSH2 0x81D JUMPI PUSH1 0x20 MUL DUP3 ADD SWAP2 SWAP1 PUSH0 MSTORE PUSH1 0x20 PUSH0 KECCAK256 SWAP1 JUMPDEST DUP2 PUSH0 SWAP1 SLOAD SWAP1 PUSH2 0x100 EXP SWAP1 DIV PUSH20 0xFFFFFFFFFFFFFFFFFFFFFFFFFFFFFFFFFFFFFFFF AND PUSH20 0xFFFFFFFFFFFFFFFFFFFFFFFFFFFFFFFFFFFFFFFF AND DUP2 MSTORE PUSH1 0x20 ADD SWAP1 PUSH1 0x1 ADD SWAP1 DUP1 DUP4 GT PUSH2 0x7D4 JUMPI JUMPDEST POP POP POP POP POP SWAP1 POP SWAP2 SWAP1 POP JUMP JUMPDEST PUSH1 0x60 PUSH1 0x1 PUSH0 CALLER PUSH20 0xFFFFFFFFFFFFFFFFFFFFFFFFFFFFFFFFFFFFFFFF AND PUSH20 0xFFFFFFFFFFFFFFFFFFFFFFFFFFFFFFFFFFFFFFFF AND DUP2 MSTORE PUSH1 0x20 ADD SWAP1 DUP2 MSTORE PUSH1 0x20 ADD PUSH0 KECCAK256 DUP1 SLOAD DUP1 PUSH1 0x20 MUL PUSH1 0x20 ADD PUSH1 0x40 MLOAD SWAP1 DUP2 ADD PUSH1 0x40 MSTORE DUP1 SWAP3 SWAP2 SWAP1 DUP2 DUP2 MSTORE PUSH1 0x20 ADD PUSH0 SWAP1 JUMPDEST DUP3 DUP3 LT ISZERO PUSH2 0xA63 JUMPI DUP4 DUP3 SWAP1 PUSH0 MSTORE PUSH1 0x20 PUSH0 KECCAK256 SWAP1 PUSH1 0x7 MUL ADD PUSH1 0x40 MLOAD DUP1 PUSH1 0xE0 ADD PUSH1 0x40 MSTORE SWAP1 DUP2 PUSH0 DUP3 ADD SLOAD DUP2 MSTORE PUSH1 0x20 ADD PUSH1 0x1 DUP3 ADD DUP1 SLOAD PUSH2 0x8C1 SWAP1 PUSH2 0x2E05 JUMP JUMPDEST DUP1 PUSH1 0x1F ADD PUSH1 0x20 DUP1 SWAP2 DIV MUL PUSH1 0x20 ADD PUSH1 0x40 MLOAD SWAP1 DUP2 ADD PUSH1 0x40 MSTORE DUP1 SWAP3 SWAP2 SWAP1 DUP2 DUP2 MSTORE PUSH1 0x20 ADD DUP3 DUP1 SLOAD PUSH2 0x8ED SWAP1 PUSH2 0x2E05 JUMP JUMPDEST DUP1 ISZERO PUSH2 0x938 JUMPI DUP1 PUSH1 0x1F LT PUSH2 0x90F JUMPI PUSH2 0x100 DUP1 DUP4 SLOAD DIV MUL DUP4 MSTORE SWAP2 PUSH1 0x20 ADD SWAP2 PUSH2 0x938 JUMP JUMPDEST DUP3 ADD SWAP2 SWAP1 PUSH0 MSTORE PUSH1 0x20 PUSH0 KECCAK256 SWAP1 JUMPDEST DUP2 SLOAD DUP2 MSTORE SWAP1 PUSH1 0x1 ADD SWAP1 PUSH1 0x20 ADD DUP1 DUP4 GT PUSH2 0x91B JUMPI DUP3 SWAP1 SUB PUSH1 0x1F AND DUP3 ADD SWAP2 JUMPDEST POP POP POP POP POP DUP2 MSTORE PUSH1 0x20 ADD PUSH1 0x2 DUP3 ADD DUP1 SLOAD PUSH2 0x951 SWAP1 PUSH2 0x2E05 JUMP JUMPDEST DUP1 PUSH1 0x1F ADD PUSH1 0x20 DUP1 SWAP2 DIV MUL PUSH1 0x20 ADD PUSH1 0x40 MLOAD SWAP1 DUP2 ADD PUSH1 0x40 MSTORE DUP1 SWAP3 SWAP2 SWAP1 DUP2 DUP2 MSTORE PUSH1 0x20 ADD DUP3 DUP1 SLOAD PUSH2 0x97D SWAP1 PUSH2 0x2E05 JUMP JUMPDEST DUP1 ISZERO PUSH2 0x9C8 JUMPI DUP1 PUSH1 0x1F LT PUSH2 0x99F JUMPI PUSH2 0x100 DUP1 DUP4 SLOAD DIV MUL DUP4 MSTORE SWAP2 PUSH1 0x20 ADD SWAP2 PUSH2 0x9C8 JUMP JUMPDEST DUP3 ADD SWAP2 SWAP1 PUSH0 MSTORE PUSH1 0x20 PUSH0 KECCAK256 SWAP1 JUMPDEST DUP2 SLOAD DUP2 MSTORE SWAP1 PUSH1 0x1 ADD SWAP1 PUSH1 0x20 ADD DUP1 DUP4 GT PUSH2 0x9AB JUMPI DUP3 SWAP1 SUB PUSH1 0x1F AND DUP3 ADD SWAP2 JUMPDEST POP POP POP POP POP DUP2 MSTORE PUSH1 0x20 ADD PUSH1 0x3 DUP3 ADD PUSH0 SWAP1 SLOAD SWAP1 PUSH2 0x100 EXP SWAP1 DIV PUSH20 0xFFFFFFFFFFFFFFFFFFFFFFFFFFFFFFFFFFFFFFFF AND PUSH20 0xFFFFFFFFFFFFFFFFFFFFFFFFFFFFFFFFFFFFFFFF AND PUSH20 0xFFFFFFFFFFFFFFFFFFFFFFFFFFFFFFFFFFFFFFFF AND DUP2 MSTORE PUSH1 0x20 ADD PUSH1 0x4 DUP3 ADD SLOAD DUP2 MSTORE PUSH1 0x20 ADD PUSH1 0x5 DUP3 ADD SLOAD DUP2 MSTORE PUSH1 0x20 ADD PUSH1 0x6 DUP3 ADD PUSH0 SWAP1 SLOAD SWAP1 PUSH2 0x100 EXP SWAP1 DIV PUSH1 0xFF AND ISZERO ISZERO ISZERO ISZERO DUP2 MSTORE POP POP DUP2 MSTORE PUSH1 0x20 ADD SWAP1 PUSH1 0x1 ADD SWAP1 PUSH2 0x887 JUMP JUMPDEST POP POP POP POP SWAP1 POP SWAP1 JUMP JUMPDEST PUSH1 0x5 PUSH1 0x20 MSTORE DUP2 PUSH0 MSTORE PUSH1 0x40 PUSH0 KECCAK256 DUP2 DUP2 SLOAD DUP2 LT PUSH2 0xA85 JUMPI PUSH0 DUP1 REVERT JUMPDEST SWAP1 PUSH0 MSTORE PUSH1 0x20 PUSH0 KECCAK256 SWAP1 PUSH1 0x5 MUL ADD PUSH0 SWAP2 POP SWAP2 POP POP DUP1 PUSH0 ADD SLOAD SWAP1 DUP1 PUSH1 0x1 ADD DUP1 SLOAD PUSH2 0xAAB SWAP1 PUSH2 0x2E05 JUMP JUMPDEST DUP1 PUSH1 0x1F ADD PUSH1 0x20 DUP1 SWAP2 DIV MUL PUSH1 0x20 ADD PUSH1 0x40 MLOAD SWAP1 DUP2 ADD PUSH1 0x40 MSTORE DUP1 SWAP3 SWAP2 SWAP1 DUP2 DUP2 MSTORE PUSH1 0x20 ADD DUP3 DUP1 SLOAD PUSH2 0xAD7 SWAP1 PUSH2 0x2E05 JUMP JUMPDEST DUP1 ISZERO PUSH2 0xB22 JUMPI DUP1 PUSH1 0x1F LT PUSH2 0xAF9 JUMPI PUSH2 0x100 DUP1 DUP4 SLOAD DIV MUL DUP4 MSTORE SWAP2 PUSH1 0x20 ADD SWAP2 PUSH2 0xB22 JUMP JUMPDEST DUP3 ADD SWAP2 SWAP1 PUSH0 MSTORE PUSH1 0x20 PUSH0 KECCAK256 SWAP1 JUMPDEST DUP2 SLOAD DUP2 MSTORE SWAP1 PUSH1 0x1 ADD SWAP1 PUSH1 0x20 ADD DUP1 DUP4 GT PUSH2 0xB05 JUMPI DUP3 SWAP1 SUB PUSH1 0x1F AND DUP3 ADD SWAP2 JUMPDEST POP POP POP POP POP SWAP1 DUP1 PUSH1 0x2 ADD SLOAD SWAP1 DUP1 PUSH1 0x3 ADD PUSH0 SWAP1 SLOAD SWAP1 PUSH2 0x100 EXP SWAP1 DIV PUSH20 0xFFFFFFFFFFFFFFFFFFFFFFFFFFFFFFFFFFFFFFFF AND SWAP1 DUP1 PUSH1 0x4 ADD PUSH0 SWAP1 SLOAD SWAP1 PUSH2 0x100 EXP SWAP1 DIV PUSH20 0xFFFFFFFFFFFFFFFFFFFFFFFFFFFFFFFFFFFFFFFF AND SWAP1 POP DUP6 JUMP JUMPDEST DUP2 PUSH1 0x1 PUSH0 DUP6 PUSH20 0xFFFFFFFFFFFFFFFFFFFFFFFFFFFFFFFFFFFFFFFF AND PUSH20 0xFFFFFFFFFFFFFFFFFFFFFFFFFFFFFFFFFFFFFFFF AND DUP2 MSTORE PUSH1 0x20 ADD SWAP1 DUP2 MSTORE PUSH1 0x20 ADD PUSH0 KECCAK256 PUSH1 0x1 DUP5 PUSH2 0xBC7 SWAP2 SWAP1 PUSH2 0x2E62 JUMP JUMPDEST DUP2 SLOAD DUP2 LT PUSH2 0xBD8 JUMPI PUSH2 0xBD7 PUSH2 0x2E95 JUMP JUMPDEST JUMPDEST SWAP1 PUSH0 MSTORE PUSH1 0x20 PUSH0 KECCAK256 SWAP1 PUSH1 0x7 MUL ADD PUSH0 ADD SLOAD EQ DUP3 PUSH1 0x40 MLOAD PUSH1 0x20 ADD PUSH2 0xBF9 SWAP2 SWAP1 PUSH2 0x2F80 JUMP JUMPDEST PUSH1 0x40 MLOAD PUSH1 0x20 DUP2 DUP4 SUB SUB DUP2 MSTORE SWAP1 PUSH1 0x40 MSTORE SWAP1 PUSH2 0xC49 JUMPI PUSH1 0x40 MLOAD PUSH32 0x8C379A000000000000000000000000000000000000000000000000000000000 DUP2 MSTORE PUSH1 0x4 ADD PUSH2 0xC40 SWAP2 SWAP1 PUSH2 0x2FB0 JUMP JUMPDEST PUSH1 0x40 MLOAD DUP1 SWAP2 SUB SWAP1 REVERT JUMPDEST POP PUSH0 ISZERO ISZERO PUSH1 0x1 PUSH0 DUP6 PUSH20 0xFFFFFFFFFFFFFFFFFFFFFFFFFFFFFFFFFFFFFFFF AND PUSH20 0xFFFFFFFFFFFFFFFFFFFFFFFFFFFFFFFFFFFFFFFF AND DUP2 MSTORE PUSH1 0x20 ADD SWAP1 DUP2 MSTORE PUSH1 0x20 ADD PUSH0 KECCAK256 PUSH1 0x1 DUP5 PUSH2 0xC97 SWAP2 SWAP1 PUSH2 0x2E62 JUMP JUMPDEST DUP2 SLOAD DUP2 LT PUSH2 0xCA8 JUMPI PUSH2 0xCA7 PUSH2 0x2E95 JUMP JUMPDEST JUMPDEST SWAP1 PUSH0 MSTORE PUSH1 0x20 PUSH0 KECCAK256 SWAP1 PUSH1 0x7 MUL ADD PUSH1 0x6 ADD PUSH0 SWAP1 SLOAD SWAP1 PUSH2 0x100 EXP SWAP1 DIV PUSH1 0xFF AND ISZERO ISZERO EQ PUSH1 0x1 PUSH0 DUP6 PUSH20 0xFFFFFFFFFFFFFFFFFFFFFFFFFFFFFFFFFFFFFFFF AND PUSH20 0xFFFFFFFFFFFFFFFFFFFFFFFFFFFFFFFFFFFFFFFF AND DUP2 MSTORE PUSH1 0x20 ADD SWAP1 DUP2 MSTORE PUSH1 0x20 ADD PUSH0 KECCAK256 PUSH1 0x1 DUP5 PUSH2 0xD11 SWAP2 SWAP1 PUSH2 0x2E62 JUMP JUMPDEST DUP2 SLOAD DUP2 LT PUSH2 0xD22 JUMPI PUSH2 0xD21 PUSH2 0x2E95 JUMP JUMPDEST JUMPDEST SWAP1 PUSH0 MSTORE PUSH1 0x20 PUSH0 KECCAK256 SWAP1 PUSH1 0x7 MUL ADD PUSH1 0x1 ADD PUSH1 0x40 MLOAD PUSH1 0x20 ADD PUSH2 0xD41 SWAP2 SWAP1 PUSH2 0x30F6 JUMP JUMPDEST PUSH1 0x40 MLOAD PUSH1 0x20 DUP2 DUP4 SUB SUB DUP2 MSTORE SWAP1 PUSH1 0x40 MSTORE SWAP1 PUSH2 0xD91 JUMPI PUSH1 0x40 MLOAD PUSH32 0x8C379A000000000000000000000000000000000000000000000000000000000 DUP2 MSTORE PUSH1 0x4 ADD PUSH2 0xD88 SWAP2 SWAP1 PUSH2 0x2FB0 JUMP JUMPDEST PUSH1 0x40 MLOAD DUP1 SWAP2 SUB SWAP1 REVERT JUMPDEST POP PUSH0 DUP2 GT PUSH2 0xDD4 JUMPI PUSH1 0x40 MLOAD PUSH32 0x8C379A000000000000000000000000000000000000000000000000000000000 DUP2 MSTORE PUSH1 0x4 ADD PUSH2 0xDCB SWAP1 PUSH2 0x316C JUMP JUMPDEST PUSH1 0x40 MLOAD DUP1 SWAP2 SUB SWAP1 REVERT JUMPDEST DUP1 CALLVALUE EQ PUSH2 0xE16 JUMPI PUSH1 0x40 MLOAD PUSH32 0x8C379A000000000000000000000000000000000000000000000000000000000 DUP2 MSTORE PUSH1 0x4 ADD PUSH2 0xE0D SWAP1 PUSH2 0x31D4 JUMP JUMPDEST PUSH1 0x40 MLOAD DUP1 SWAP2 SUB SWAP1 REVERT JUMPDEST DUP1 PUSH1 0x1 PUSH0 DUP6 PUSH20 0xFFFFFFFFFFFFFFFFFFFFFFFFFFFFFFFFFFFFFFFF AND PUSH20 0xFFFFFFFFFFFFFFFFFFFFFFFFFFFFFFFFFFFFFFFF AND DUP2 MSTORE PUSH1 0x20 ADD SWAP1 DUP2 MSTORE PUSH1 0x20 ADD PUSH0 KECCAK256 PUSH1 0x1 DUP5 PUSH2 0xE61 SWAP2 SWAP1 PUSH2 0x2E62 JUMP JUMPDEST DUP2 SLOAD DUP2 LT PUSH2 0xE72 JUMPI PUSH2 0xE71 PUSH2 0x2E95 JUMP JUMPDEST JUMPDEST SWAP1 PUSH0 MSTORE PUSH1 0x20 PUSH0 KECCAK256 SWAP1 PUSH1 0x7 MUL ADD PUSH1 0x5 ADD PUSH0 DUP3 DUP3 SLOAD PUSH2 0xE8F SWAP2 SWAP1 PUSH2 0x31F2 JUMP JUMPDEST SWAP3 POP POP DUP2 SWAP1 SSTORE POP PUSH1 0x1 PUSH0 DUP5 PUSH20 0xFFFFFFFFFFFFFFFFFFFFFFFFFFFFFFFFFFFFFFFF AND PUSH20 0xFFFFFFFFFFFFFFFFFFFFFFFFFFFFFFFFFFFFFFFF AND DUP2 MSTORE PUSH1 0x20 ADD SWAP1 DUP2 MSTORE PUSH1 0x20 ADD PUSH0 KECCAK256 PUSH1 0x1 DUP4 PUSH2 0xEE0 SWAP2 SWAP1 PUSH2 0x2E62 JUMP JUMPDEST DUP2 SLOAD DUP2 LT PUSH2 0xEF1 JUMPI PUSH2 0xEF0 PUSH2 0x2E95 JUMP JUMPDEST JUMPDEST SWAP1 PUSH0 MSTORE PUSH1 0x20 PUSH0 KECCAK256 SWAP1 PUSH1 0x7 MUL ADD PUSH1 0x4 ADD SLOAD PUSH1 0x1 PUSH0 DUP6 PUSH20 0xFFFFFFFFFFFFFFFFFFFFFFFFFFFFFFFFFFFFFFFF AND PUSH20 0xFFFFFFFFFFFFFFFFFFFFFFFFFFFFFFFFFFFFFFFF AND DUP2 MSTORE PUSH1 0x20 ADD SWAP1 DUP2 MSTORE PUSH1 0x20 ADD PUSH0 KECCAK256 PUSH1 0x1 DUP5 PUSH2 0xF4B SWAP2 SWAP1 PUSH2 0x2E62 JUMP JUMPDEST DUP2 SLOAD DUP2 LT PUSH2 0xF5C JUMPI PUSH2 0xF5B PUSH2 0x2E95 JUMP JUMPDEST JUMPDEST SWAP1 PUSH0 MSTORE PUSH1 0x20 PUSH0 KECCAK256 SWAP1 PUSH1 0x7 MUL ADD PUSH1 0x5 ADD SLOAD LT PUSH2 0x102C JUMPI PUSH1 0x1 DUP1 PUSH0 DUP6 PUSH20 0xFFFFFFFFFFFFFFFFFFFFFFFFFFFFFFFFFFFFFFFF AND PUSH20 0xFFFFFFFFFFFFFFFFFFFFFFFFFFFFFFFFFFFFFFFF AND DUP2 MSTORE PUSH1 0x20 ADD SWAP1 DUP2 MSTORE PUSH1 0x20 ADD PUSH0 KECCAK256 PUSH1 0x1 DUP5 PUSH2 0xFBC SWAP2 SWAP1 PUSH2 0x2E62 JUMP JUMPDEST DUP2 SLOAD DUP2 LT PUSH2 0xFCD JUMPI PUSH2 0xFCC PUSH2 0x2E95 JUMP JUMPDEST JUMPDEST SWAP1 PUSH0 MSTORE PUSH1 0x20 PUSH0 KECCAK256 SWAP1 PUSH1 0x7 MUL ADD PUSH1 0x6 ADD PUSH0 PUSH2 0x100 EXP DUP2 SLOAD DUP2 PUSH1 0xFF MUL NOT AND SWAP1 DUP4 ISZERO ISZERO MUL OR SWAP1 SSTORE POP PUSH32 0x8559B4DC0428EF20B1A5974FFF4845E3163BFBEC589128D75C7DA62148FBD8AE DUP4 DUP4 PUSH1 0x40 MLOAD PUSH2 0x1023 SWAP3 SWAP2 SWAP1 PUSH2 0x3280 JUMP JUMPDEST PUSH1 0x40 MLOAD DUP1 SWAP2 SUB SWAP1 LOG1 JUMPDEST PUSH0 PUSH1 0x40 MLOAD DUP1 PUSH1 0x80 ADD PUSH1 0x40 MSTORE DUP1 DUP6 PUSH20 0xFFFFFFFFFFFFFFFFFFFFFFFFFFFFFFFFFFFFFFFF AND DUP2 MSTORE PUSH1 0x20 ADD DUP5 DUP2 MSTORE PUSH1 0x20 ADD PUSH1 0x1 PUSH0 DUP8 PUSH20 0xFFFFFFFFFFFFFFFFFFFFFFFFFFFFFFFFFFFFFFFF AND PUSH20 0xFFFFFFFFFFFFFFFFFFFFFFFFFFFFFFFFFFFFFFFF AND DUP2 MSTORE PUSH1 0x20 ADD SWAP1 DUP2 MSTORE PUSH1 0x20 ADD PUSH0 KECCAK256 PUSH1 0x1 DUP7 PUSH2 0x10A4 SWAP2 SWAP1 PUSH2 0x2E62 JUMP JUMPDEST DUP2 SLOAD DUP2 LT PUSH2 0x10B5 JUMPI PUSH2 0x10B4 PUSH2 0x2E95 JUMP JUMPDEST JUMPDEST SWAP1 PUSH0 MSTORE PUSH1 0x20 PUSH0 KECCAK256 SWAP1 PUSH1 0x7 MUL ADD PUSH1 0x1 ADD DUP1 SLOAD PUSH2 0x10CF SWAP1 PUSH2 0x2E05 JUMP JUMPDEST DUP1 PUSH1 0x1F ADD PUSH1 0x20 DUP1 SWAP2 DIV MUL PUSH1 0x20 ADD PUSH1 0x40 MLOAD SWAP1 DUP2 ADD PUSH1 0x40 MSTORE DUP1 SWAP3 SWAP2 SWAP1 DUP2 DUP2 MSTORE PUSH1 0x20 ADD DUP3 DUP1 SLOAD PUSH2 0x10FB SWAP1 PUSH2 0x2E05 JUMP JUMPDEST DUP1 ISZERO PUSH2 0x1146 JUMPI DUP1 PUSH1 0x1F LT PUSH2 0x111D JUMPI PUSH2 0x100 DUP1 DUP4 SLOAD DIV MUL DUP4 MSTORE SWAP2 PUSH1 0x20 ADD SWAP2 PUSH2 0x1146 JUMP JUMPDEST DUP3 ADD SWAP2 SWAP1 PUSH0 MSTORE PUSH1 0x20 PUSH0 KECCAK256 SWAP1 JUMPDEST DUP2 SLOAD DUP2 MSTORE SWAP1 PUSH1 0x1 ADD SWAP1 PUSH1 0x20 ADD DUP1 DUP4 GT PUSH2 0x1129 JUMPI DUP3 SWAP1 SUB PUSH1 0x1F AND DUP3 ADD SWAP2 JUMPDEST POP POP POP POP POP DUP2 MSTORE PUSH1 0x20 ADD DUP4 DUP2 MSTORE POP SWAP1 POP PUSH1 0x4 PUSH0 CALLER PUSH20 0xFFFFFFFFFFFFFFFFFFFFFFFFFFFFFFFFFFFFFFFF AND PUSH20 0xFFFFFFFFFFFFFFFFFFFFFFFFFFFFFFFFFFFFFFFF AND DUP2 MSTORE PUSH1 0x20 ADD SWAP1 DUP2 MSTORE PUSH1 0x20 ADD PUSH0 KECCAK256 DUP2 SWAP1 DUP1 PUSH1 0x1 DUP2 SLOAD ADD DUP1 DUP3 SSTORE DUP1 SWAP2 POP POP PUSH1 0x1 SWAP1 SUB SWAP1 PUSH0 MSTORE PUSH1 0x20 PUSH0 KECCAK256 SWAP1 PUSH1 0x4 MUL ADD PUSH0 SWAP1 SWAP2 SWAP1 SWAP2 SWAP1 SWAP2 POP PUSH0 DUP3 ADD MLOAD DUP2 PUSH0 ADD PUSH0 PUSH2 0x100 EXP DUP2 SLOAD DUP2 PUSH20 0xFFFFFFFFFFFFFFFFFFFFFFFFFFFFFFFFFFFFFFFF MUL NOT AND SWAP1 DUP4 PUSH20 0xFFFFFFFFFFFFFFFFFFFFFFFFFFFFFFFFFFFFFFFF AND MUL OR SWAP1 SSTORE POP PUSH1 0x20 DUP3 ADD MLOAD DUP2 PUSH1 0x1 ADD SSTORE PUSH1 0x40 DUP3 ADD MLOAD DUP2 PUSH1 0x2 ADD SWAP1 DUP2 PUSH2 0x121D SWAP2 SWAP1 PUSH2 0x3429 JUMP JUMPDEST POP PUSH1 0x60 DUP3 ADD MLOAD DUP2 PUSH1 0x3 ADD SSTORE POP POP PUSH32 0xBE0281DCB233D52D4D243D0D6FF4ED47E8641AECF85B98611ADE1C9307186B7D CALLER DUP4 DUP7 DUP7 PUSH1 0x40 MLOAD PUSH2 0x125F SWAP5 SWAP4 SWAP3 SWAP2 SWAP1 PUSH2 0x34F8 JUMP JUMPDEST PUSH1 0x40 MLOAD DUP1 SWAP2 SUB SWAP1 LOG1 POP POP POP POP JUMP JUMPDEST PUSH0 SELFBALANCE SWAP1 POP SWAP1 JUMP JUMPDEST PUSH1 0x4 PUSH1 0x20 MSTORE DUP2 PUSH0 MSTORE PUSH1 0x40 PUSH0 KECCAK256 DUP2 DUP2 SLOAD DUP2 LT PUSH2 0x128D JUMPI PUSH0 DUP1 REVERT JUMPDEST SWAP1 PUSH0 MSTORE PUSH1 0x20 PUSH0 KECCAK256 SWAP1 PUSH1 0x4 MUL ADD PUSH0 SWAP2 POP SWAP2 POP POP DUP1 PUSH0 ADD PUSH0 SWAP1 SLOAD SWAP1 PUSH2 0x100 EXP SWAP1 DIV PUSH20 0xFFFFFFFFFFFFFFFFFFFFFFFFFFFFFFFFFFFFFFFF AND SWAP1 DUP1 PUSH1 0x1 ADD SLOAD SWAP1 DUP1 PUSH1 0x2 ADD DUP1 SLOAD PUSH2 0x12D8 SWAP1 PUSH2 0x2E05 JUMP JUMPDEST DUP1 PUSH1 0x1F ADD PUSH1 0x20 DUP1 SWAP2 DIV MUL PUSH1 0x20 ADD PUSH1 0x40 MLOAD SWAP1 DUP2 ADD PUSH1 0x40 MSTORE DUP1 SWAP3 SWAP2 SWAP1 DUP2 DUP2 MSTORE PUSH1 0x20 ADD DUP3 DUP1 SLOAD PUSH2 0x1304 SWAP1 PUSH2 0x2E05 JUMP JUMPDEST DUP1 ISZERO PUSH2 0x134F JUMPI DUP1 PUSH1 0x1F LT PUSH2 0x1326 JUMPI PUSH2 0x100 DUP1 DUP4 SLOAD DIV MUL DUP4 MSTORE SWAP2 PUSH1 0x20 ADD SWAP2 PUSH2 0x134F JUMP JUMPDEST DUP3 ADD SWAP2 SWAP1 PUSH0 MSTORE PUSH1 0x20 PUSH0 KECCAK256 SWAP1 JUMPDEST DUP2 SLOAD DUP2 MSTORE SWAP1 PUSH1 0x1 ADD SWAP1 PUSH1 0x20 ADD DUP1 DUP4 GT PUSH2 0x1332 JUMPI DUP3 SWAP1 SUB PUSH1 0x1F AND DUP3 ADD SWAP2 JUMPDEST POP POP POP POP POP SWAP1 DUP1 PUSH1 0x3 ADD SLOAD SWAP1 POP DUP5 JUMP JUMPDEST PUSH1 0x2 PUSH1 0x20 MSTORE DUP2 PUSH0 MSTORE PUSH1 0x40 PUSH0 KECCAK256 PUSH1 0x20 MSTORE DUP1 PUSH0 MSTORE PUSH1 0x40 PUSH0 KECCAK256 PUSH0 SWAP2 POP SWAP2 POP SWAP1 SLOAD SWAP1 PUSH2 0x100 EXP SWAP1 DIV PUSH1 0xFF AND DUP2 JUMP JUMPDEST DUP3 DUP5 PUSH0 PUSH1 0x1 PUSH0 DUP5 PUSH20 0xFFFFFFFFFFFFFFFFFFFFFFFFFFFFFFFFFFFFFFFF AND PUSH20 0xFFFFFFFFFFFFFFFFFFFFFFFFFFFFFFFFFFFFFFFF AND DUP2 MSTORE PUSH1 0x20 ADD SWAP1 DUP2 MSTORE PUSH1 0x20 ADD PUSH0 KECCAK256 DUP1 SLOAD SWAP1 POP GT PUSH2 0x140D JUMPI PUSH1 0x40 MLOAD PUSH32 0x8C379A000000000000000000000000000000000000000000000000000000000 DUP2 MSTORE PUSH1 0x4 ADD PUSH2 0x1404 SWAP1 PUSH2 0x35AB JUMP JUMPDEST PUSH1 0x40 MLOAD DUP1 SWAP2 SUB SWAP1 REVERT JUMPDEST DUP1 PUSH1 0x1 PUSH0 DUP5 PUSH20 0xFFFFFFFFFFFFFFFFFFFFFFFFFFFFFFFFFFFFFFFF AND PUSH20 0xFFFFFFFFFFFFFFFFFFFFFFFFFFFFFFFFFFFFFFFF AND DUP2 MSTORE PUSH1 0x20 ADD SWAP1 DUP2 MSTORE PUSH1 0x20 ADD PUSH0 KECCAK256 PUSH1 0x1 DUP4 PUSH2 0x1458 SWAP2 SWAP1 PUSH2 0x2E62 JUMP JUMPDEST DUP2 SLOAD DUP2 LT PUSH2 0x1469 JUMPI PUSH2 0x1468 PUSH2 0x2E95 JUMP JUMPDEST JUMPDEST SWAP1 PUSH0 MSTORE PUSH1 0x20 PUSH0 KECCAK256 SWAP1 PUSH1 0x7 MUL ADD PUSH0 ADD SLOAD EQ PUSH2 0x14B8 JUMPI PUSH1 0x40 MLOAD PUSH32 0x8C379A000000000000000000000000000000000000000000000000000000000 DUP2 MSTORE PUSH1 0x4 ADD PUSH2 0x14AF SWAP1 PUSH2 0x3639 JUMP JUMPDEST PUSH1 0x40 MLOAD DUP1 SWAP2 SUB SWAP1 REVERT JUMPDEST PUSH1 0x2 PUSH0 DUP4 PUSH20 0xFFFFFFFFFFFFFFFFFFFFFFFFFFFFFFFFFFFFFFFF AND PUSH20 0xFFFFFFFFFFFFFFFFFFFFFFFFFFFFFFFFFFFFFFFF AND DUP2 MSTORE PUSH1 0x20 ADD SWAP1 DUP2 MSTORE PUSH1 0x20 ADD PUSH0 KECCAK256 PUSH0 CALLER PUSH20 0xFFFFFFFFFFFFFFFFFFFFFFFFFFFFFFFFFFFFFFFF AND PUSH20 0xFFFFFFFFFFFFFFFFFFFFFFFFFFFFFFFFFFFFFFFF AND DUP2 MSTORE PUSH1 0x20 ADD SWAP1 DUP2 MSTORE PUSH1 0x20 ADD PUSH0 KECCAK256 PUSH0 SWAP1 SLOAD SWAP1 PUSH2 0x100 EXP SWAP1 DIV PUSH1 0xFF AND PUSH2 0x157C JUMPI PUSH1 0x40 MLOAD PUSH32 0x8C379A000000000000000000000000000000000000000000000000000000000 DUP2 MSTORE PUSH1 0x4 ADD PUSH2 0x1573 SWAP1 PUSH2 0x36C7 JUMP JUMPDEST PUSH1 0x40 MLOAD DUP1 SWAP2 SUB SWAP1 REVERT JUMPDEST PUSH0 DUP5 GT DUP1 ISZERO PUSH2 0x15F5 JUMPI POP PUSH1 0x1 PUSH0 DUP7 PUSH20 0xFFFFFFFFFFFFFFFFFFFFFFFFFFFFFFFFFFFFFFFF AND PUSH20 0xFFFFFFFFFFFFFFFFFFFFFFFFFFFFFFFFFFFFFFFF AND DUP2 MSTORE PUSH1 0x20 ADD SWAP1 DUP2 MSTORE PUSH1 0x20 ADD PUSH0 KECCAK256 PUSH1 0x1 DUP8 PUSH2 0x15D0 SWAP2 SWAP1 PUSH2 0x2E62 JUMP JUMPDEST DUP2 SLOAD DUP2 LT PUSH2 0x15E1 JUMPI PUSH2 0x15E0 PUSH2 0x2E95 JUMP JUMPDEST JUMPDEST SWAP1 PUSH0 MSTORE PUSH1 0x20 PUSH0 KECCAK256 SWAP1 PUSH1 0x7 MUL ADD PUSH1 0x5 ADD SLOAD DUP5 GT ISZERO JUMPDEST PUSH2 0x1634 JUMPI PUSH1 0x40 MLOAD PUSH32 0x8C379A000000000000000000000000000000000000000000000000000000000 DUP2 MSTORE PUSH1 0x4 ADD PUSH2 0x162B SWAP1 PUSH2 0x3755 JUMP JUMPDEST PUSH1 0x40 MLOAD DUP1 SWAP2 SUB SWAP1 REVERT JUMPDEST PUSH1 0x1 PUSH0 DUP7 PUSH20 0xFFFFFFFFFFFFFFFFFFFFFFFFFFFFFFFFFFFFFFFF AND PUSH20 0xFFFFFFFFFFFFFFFFFFFFFFFFFFFFFFFFFFFFFFFF AND DUP2 MSTORE PUSH1 0x20 ADD SWAP1 DUP2 MSTORE PUSH1 0x20 ADD PUSH0 KECCAK256 PUSH1 0x1 DUP8 PUSH2 0x167E SWAP2 SWAP1 PUSH2 0x2E62 JUMP JUMPDEST DUP2 SLOAD DUP2 LT PUSH2 0x168F JUMPI PUSH2 0x168E PUSH2 0x2E95 JUMP JUMPDEST JUMPDEST SWAP1 PUSH0 MSTORE PUSH1 0x20 PUSH0 KECCAK256 SWAP1 PUSH1 0x7 MUL ADD PUSH1 0x6 ADD PUSH0 SWAP1 SLOAD SWAP1 PUSH2 0x100 EXP SWAP1 DIV PUSH1 0xFF AND PUSH2 0x16EA JUMPI PUSH1 0x40 MLOAD PUSH32 0x8C379A000000000000000000000000000000000000000000000000000000000 DUP2 MSTORE PUSH1 0x4 ADD PUSH2 0x16E1 SWAP1 PUSH2 0x37E3 JUMP JUMPDEST PUSH1 0x40 MLOAD DUP1 SWAP2 SUB SWAP1 REVERT JUMPDEST DUP4 SELFBALANCE LT ISZERO PUSH2 0x172D JUMPI PUSH1 0x40 MLOAD PUSH32 0x8C379A000000000000000000000000000000000000000000000000000000000 DUP2 MSTORE PUSH1 0x4 ADD PUSH2 0x1724 SWAP1 PUSH2 0x384B JUMP JUMPDEST PUSH1 0x40 MLOAD DUP1 SWAP2 SUB SWAP1 REVERT JUMPDEST DUP4 PUSH1 0x1 PUSH0 DUP8 PUSH20 0xFFFFFFFFFFFFFFFFFFFFFFFFFFFFFFFFFFFFFFFF AND PUSH20 0xFFFFFFFFFFFFFFFFFFFFFFFFFFFFFFFFFFFFFFFF AND DUP2 MSTORE PUSH1 0x20 ADD SWAP1 DUP2 MSTORE PUSH1 0x20 ADD PUSH0 KECCAK256 PUSH1 0x1 DUP9 PUSH2 0x1778 SWAP2 SWAP1 PUSH2 0x2E62 JUMP JUMPDEST DUP2 SLOAD DUP2 LT PUSH2 0x1789 JUMPI PUSH2 0x1788 PUSH2 0x2E95 JUMP JUMPDEST JUMPDEST SWAP1 PUSH0 MSTORE PUSH1 0x20 PUSH0 KECCAK256 SWAP1 PUSH1 0x7 MUL ADD PUSH1 0x5 ADD PUSH0 DUP3 DUP3 SLOAD PUSH2 0x17A6 SWAP2 SWAP1 PUSH2 0x2E62 JUMP JUMPDEST SWAP3 POP POP DUP2 SWAP1 SSTORE POP PUSH0 DUP4 PUSH20 0xFFFFFFFFFFFFFFFFFFFFFFFFFFFFFFFFFFFFFFFF AND DUP6 PUSH1 0x40 MLOAD PUSH2 0x17D2 SWAP1 PUSH2 0x3896 JUMP JUMPDEST PUSH0 PUSH1 0x40 MLOAD DUP1 DUP4 SUB DUP2 DUP6 DUP8 GAS CALL SWAP3 POP POP POP RETURNDATASIZE DUP1 PUSH0 DUP2 EQ PUSH2 0x180C JUMPI PUSH1 0x40 MLOAD SWAP2 POP PUSH1 0x1F NOT PUSH1 0x3F RETURNDATASIZE ADD AND DUP3 ADD PUSH1 0x40 MSTORE RETURNDATASIZE DUP3 MSTORE RETURNDATASIZE PUSH0 PUSH1 0x20 DUP5 ADD RETURNDATACOPY PUSH2 0x1811 JUMP JUMPDEST PUSH1 0x60 SWAP2 POP JUMPDEST POP POP SWAP1 POP DUP1 PUSH2 0x1855 JUMPI PUSH1 0x40 MLOAD PUSH32 0x8C379A000000000000000000000000000000000000000000000000000000000 DUP2 MSTORE PUSH1 0x4 ADD PUSH2 0x184C SWAP1 PUSH2 0x38F4 JUMP JUMPDEST PUSH1 0x40 MLOAD DUP1 SWAP2 SUB SWAP1 REVERT JUMPDEST PUSH0 PUSH1 0x40 MLOAD DUP1 PUSH1 0xA0 ADD PUSH1 0x40 MSTORE DUP1 DUP10 DUP2 MSTORE PUSH1 0x20 ADD PUSH1 0x1 PUSH0 DUP11 PUSH20 0xFFFFFFFFFFFFFFFFFFFFFFFFFFFFFFFFFFFFFFFF AND PUSH20 0xFFFFFFFFFFFFFFFFFFFFFFFFFFFFFFFFFFFFFFFF AND DUP2 MSTORE PUSH1 0x20 ADD SWAP1 DUP2 MSTORE PUSH1 0x20 ADD PUSH0 KECCAK256 PUSH1 0x1 DUP12 PUSH2 0x18B1 SWAP2 SWAP1 PUSH2 0x2E62 JUMP JUMPDEST DUP2 SLOAD DUP2 LT PUSH2 0x18C2 JUMPI PUSH2 0x18C1 PUSH2 0x2E95 JUMP JUMPDEST JUMPDEST SWAP1 PUSH0 MSTORE PUSH1 0x20 PUSH0 KECCAK256 SWAP1 PUSH1 0x7 MUL ADD PUSH1 0x1 ADD DUP1 SLOAD PUSH2 0x18DC SWAP1 PUSH2 0x2E05 JUMP JUMPDEST DUP1 PUSH1 0x1F ADD PUSH1 0x20 DUP1 SWAP2 DIV MUL PUSH1 0x20 ADD PUSH1 0x40 MLOAD SWAP1 DUP2 ADD PUSH1 0x40 MSTORE DUP1 SWAP3 SWAP2 SWAP1 DUP2 DUP2 MSTORE PUSH1 0x20 ADD DUP3 DUP1 SLOAD PUSH2 0x1908 SWAP1 PUSH2 0x2E05 JUMP JUMPDEST DUP1 ISZERO PUSH2 0x1953 JUMPI DUP1 PUSH1 0x1F LT PUSH2 0x192A JUMPI PUSH2 0x100 DUP1 DUP4 SLOAD DIV MUL DUP4 MSTORE SWAP2 PUSH1 0x20 ADD SWAP2 PUSH2 0x1953 JUMP JUMPDEST DUP3 ADD SWAP2 SWAP1 PUSH0 MSTORE PUSH1 0x20 PUSH0 KECCAK256 SWAP1 JUMPDEST DUP2 SLOAD DUP2 MSTORE SWAP1 PUSH1 0x1 ADD SWAP1 PUSH1 0x20 ADD DUP1 DUP4 GT PUSH2 0x1936 JUMPI DUP3 SWAP1 SUB PUSH1 0x1F AND DUP3 ADD SWAP2 JUMPDEST POP POP POP POP POP DUP2 MSTORE PUSH1 0x20 ADD DUP8 DUP2 MSTORE PUSH1 0x20 ADD CALLER PUSH20 0xFFFFFFFFFFFFFFFFFFFFFFFFFFFFFFFFFFFFFFFF AND DUP2 MSTORE PUSH1 0x20 ADD DUP7 PUSH20 0xFFFFFFFFFFFFFFFFFFFFFFFFFFFFFFFFFFFFFFFF AND DUP2 MSTORE POP SWAP1 POP PUSH1 0x5 PUSH0 DUP9 PUSH20 0xFFFFFFFFFFFFFFFFFFFFFFFFFFFFFFFFFFFFFFFF AND PUSH20 0xFFFFFFFFFFFFFFFFFFFFFFFFFFFFFFFFFFFFFFFF AND DUP2 MSTORE PUSH1 0x20 ADD SWAP1 DUP2 MSTORE PUSH1 0x20 ADD PUSH0 KECCAK256 DUP2 SWAP1 DUP1 PUSH1 0x1 DUP2 SLOAD ADD DUP1 DUP3 SSTORE DUP1 SWAP2 POP POP PUSH1 0x1 SWAP1 SUB SWAP1 PUSH0 MSTORE PUSH1 0x20 PUSH0 KECCAK256 SWAP1 PUSH1 0x5 MUL ADD PUSH0 SWAP1 SWAP2 SWAP1 SWAP2 SWAP1 SWAP2 POP PUSH0 DUP3 ADD MLOAD DUP2 PUSH0 ADD SSTORE PUSH1 0x20 DUP3 ADD MLOAD DUP2 PUSH1 0x1 ADD SWAP1 DUP2 PUSH2 0x1A1C SWAP2 SWAP1 PUSH2 0x3429 JUMP JUMPDEST POP PUSH1 0x40 DUP3 ADD MLOAD DUP2 PUSH1 0x2 ADD SSTORE PUSH1 0x60 DUP3 ADD MLOAD DUP2 PUSH1 0x3 ADD PUSH0 PUSH2 0x100 EXP DUP2 SLOAD DUP2 PUSH20 0xFFFFFFFFFFFFFFFFFFFFFFFFFFFFFFFFFFFFFFFF MUL NOT AND SWAP1 DUP4 PUSH20 0xFFFFFFFFFFFFFFFFFFFFFFFFFFFFFFFFFFFFFFFF AND MUL OR SWAP1 SSTORE POP PUSH1 0x80 DUP3 ADD MLOAD DUP2 PUSH1 0x4 ADD PUSH0 PUSH2 0x100 EXP DUP2 SLOAD DUP2 PUSH20 0xFFFFFFFFFFFFFFFFFFFFFFFFFFFFFFFFFFFFFFFF MUL NOT AND SWAP1 DUP4 PUSH20 0xFFFFFFFFFFFFFFFFFFFFFFFFFFFFFFFFFFFFFFFF AND MUL OR SWAP1 SSTORE POP POP POP PUSH32 0xFB301322F68B8EA04D2B6A3AB0A1A0100D7BE758E7FFA771D5539A256B92D10D DUP7 CALLER DUP8 DUP11 DUP13 PUSH1 0x40 MLOAD PUSH2 0x1AEC SWAP6 SWAP5 SWAP4 SWAP3 SWAP2 SWAP1 PUSH2 0x3912 JUMP JUMPDEST PUSH1 0x40 MLOAD DUP1 SWAP2 SUB SWAP1 LOG1 POP POP POP POP POP POP POP POP JUMP JUMPDEST PUSH1 0x60 PUSH1 0x5 PUSH0 DUP4 PUSH20 0xFFFFFFFFFFFFFFFFFFFFFFFFFFFFFFFFFFFFFFFF AND PUSH20 0xFFFFFFFFFFFFFFFFFFFFFFFFFFFFFFFFFFFFFFFF AND DUP2 MSTORE PUSH1 0x20 ADD SWAP1 DUP2 MSTORE PUSH1 0x20 ADD PUSH0 KECCAK256 DUP1 SLOAD DUP1 PUSH1 0x20 MUL PUSH1 0x20 ADD PUSH1 0x40 MLOAD SWAP1 DUP2 ADD PUSH1 0x40 MSTORE DUP1 SWAP3 SWAP2 SWAP1 DUP2 DUP2 MSTORE PUSH1 0x20 ADD PUSH0 SWAP1 JUMPDEST DUP3 DUP3 LT ISZERO PUSH2 0x1CD9 JUMPI DUP4 DUP3 SWAP1 PUSH0 MSTORE PUSH1 0x20 PUSH0 KECCAK256 SWAP1 PUSH1 0x5 MUL ADD PUSH1 0x40 MLOAD DUP1 PUSH1 0xA0 ADD PUSH1 0x40 MSTORE SWAP1 DUP2 PUSH0 DUP3 ADD SLOAD DUP2 MSTORE PUSH1 0x20 ADD PUSH1 0x1 DUP3 ADD DUP1 SLOAD PUSH2 0x1B96 SWAP1 PUSH2 0x2E05 JUMP JUMPDEST DUP1 PUSH1 0x1F ADD PUSH1 0x20 DUP1 SWAP2 DIV MUL PUSH1 0x20 ADD PUSH1 0x40 MLOAD SWAP1 DUP2 ADD PUSH1 0x40 MSTORE DUP1 SWAP3 SWAP2 SWAP1 DUP2 DUP2 MSTORE PUSH1 0x20 ADD DUP3 DUP1 SLOAD PUSH2 0x1BC2 SWAP1 PUSH2 0x2E05 JUMP JUMPDEST DUP1 ISZERO PUSH2 0x1C0D JUMPI DUP1 PUSH1 0x1F LT PUSH2 0x1BE4 JUMPI PUSH2 0x100 DUP1 DUP4 SLOAD DIV MUL DUP4 MSTORE SWAP2 PUSH1 0x20 ADD SWAP2 PUSH2 0x1C0D JUMP JUMPDEST DUP3 ADD SWAP2 SWAP1 PUSH0 MSTORE PUSH1 0x20 PUSH0 KECCAK256 SWAP1 JUMPDEST DUP2 SLOAD DUP2 MSTORE SWAP1 PUSH1 0x1 ADD SWAP1 PUSH1 0x20 ADD DUP1 DUP4 GT PUSH2 0x1BF0 JUMPI DUP3 SWAP1 SUB PUSH1 0x1F AND DUP3 ADD SWAP2 JUMPDEST POP POP POP POP POP DUP2 MSTORE PUSH1 0x20 ADD PUSH1 0x2 DUP3 ADD SLOAD DUP2 MSTORE PUSH1 0x20 ADD PUSH1 0x3 DUP3 ADD PUSH0 SWAP1 SLOAD SWAP1 PUSH2 0x100 EXP SWAP1 DIV PUSH20 0xFFFFFFFFFFFFFFFFFFFFFFFFFFFFFFFFFFFFFFFF AND PUSH20 0xFFFFFFFFFFFFFFFFFFFFFFFFFFFFFFFFFFFFFFFF AND PUSH20 0xFFFFFFFFFFFFFFFFFFFFFFFFFFFFFFFFFFFFFFFF AND DUP2 MSTORE PUSH1 0x20 ADD PUSH1 0x4 DUP3 ADD PUSH0 SWAP1 SLOAD SWAP1 PUSH2 0x100 EXP SWAP1 DIV PUSH20 0xFFFFFFFFFFFFFFFFFFFFFFFFFFFFFFFFFFFFFFFF AND PUSH20 0xFFFFFFFFFFFFFFFFFFFFFFFFFFFFFFFFFFFFFFFF AND PUSH20 0xFFFFFFFFFFFFFFFFFFFFFFFFFFFFFFFFFFFFFFFF AND DUP2 MSTORE POP POP DUP2 MSTORE PUSH1 0x20 ADD SWAP1 PUSH1 0x1 ADD SWAP1 PUSH2 0x1B5C JUMP JUMPDEST POP POP POP POP SWAP1 POP SWAP2 SWAP1 POP JUMP JUMPDEST PUSH1 0x60 PUSH1 0x4 PUSH0 CALLER PUSH20 0xFFFFFFFFFFFFFFFFFFFFFFFFFFFFFFFFFFFFFFFF AND PUSH20 0xFFFFFFFFFFFFFFFFFFFFFFFFFFFFFFFFFFFFFFFF AND DUP2 MSTORE PUSH1 0x20 ADD SWAP1 DUP2 MSTORE PUSH1 0x20 ADD PUSH0 KECCAK256 DUP1 SLOAD DUP1 PUSH1 0x20 MUL PUSH1 0x20 ADD PUSH1 0x40 MLOAD SWAP1 DUP2 ADD PUSH1 0x40 MSTORE DUP1 SWAP3 SWAP2 SWAP1 DUP2 DUP2 MSTORE PUSH1 0x20 ADD PUSH0 SWAP1 JUMPDEST DUP3 DUP3 LT ISZERO PUSH2 0x1E6A JUMPI DUP4 DUP3 SWAP1 PUSH0 MSTORE PUSH1 0x20 PUSH0 KECCAK256 SWAP1 PUSH1 0x4 MUL ADD PUSH1 0x40 MLOAD DUP1 PUSH1 0x80 ADD PUSH1 0x40 MSTORE SWAP1 DUP2 PUSH0 DUP3 ADD PUSH0 SWAP1 SLOAD SWAP1 PUSH2 0x100 EXP SWAP1 DIV PUSH20 0xFFFFFFFFFFFFFFFFFFFFFFFFFFFFFFFFFFFFFFFF AND PUSH20 0xFFFFFFFFFFFFFFFFFFFFFFFFFFFFFFFFFFFFFFFF AND PUSH20 0xFFFFFFFFFFFFFFFFFFFFFFFFFFFFFFFFFFFFFFFF AND DUP2 MSTORE PUSH1 0x20 ADD PUSH1 0x1 DUP3 ADD SLOAD DUP2 MSTORE PUSH1 0x20 ADD PUSH1 0x2 DUP3 ADD DUP1 SLOAD PUSH2 0x1DD1 SWAP1 PUSH2 0x2E05 JUMP JUMPDEST DUP1 PUSH1 0x1F ADD PUSH1 0x20 DUP1 SWAP2 DIV MUL PUSH1 0x20 ADD PUSH1 0x40 MLOAD SWAP1 DUP2 ADD PUSH1 0x40 MSTORE DUP1 SWAP3 SWAP2 SWAP1 DUP2 DUP2 MSTORE PUSH1 0x20 ADD DUP3 DUP1 SLOAD PUSH2 0x1DFD SWAP1 PUSH2 0x2E05 JUMP JUMPDEST DUP1 ISZERO PUSH2 0x1E48 JUMPI DUP1 PUSH1 0x1F LT PUSH2 0x1E1F JUMPI PUSH2 0x100 DUP1 DUP4 SLOAD DIV MUL DUP4 MSTORE SWAP2 PUSH1 0x20 ADD SWAP2 PUSH2 0x1E48 JUMP JUMPDEST DUP3 ADD SWAP2 SWAP1 PUSH0 MSTORE PUSH1 0x20 PUSH0 KECCAK256 SWAP1 JUMPDEST DUP2 SLOAD DUP2 MSTORE SWAP1 PUSH1 0x1 ADD SWAP1 PUSH1 0x20 ADD DUP1 DUP4 GT PUSH2 0x1E2B JUMPI DUP3 SWAP1 SUB PUSH1 0x1F AND DUP3 ADD SWAP2 JUMPDEST POP POP POP POP POP DUP2 MSTORE PUSH1 0x20 ADD PUSH1 0x3 DUP3 ADD SLOAD DUP2 MSTORE POP POP DUP2 MSTORE PUSH1 0x20 ADD SWAP1 PUSH1 0x1 ADD SWAP1 PUSH2 0x1D42 JUMP JUMPDEST POP POP POP POP SWAP1 POP SWAP1 JUMP JUMPDEST PUSH0 JUMPDEST PUSH1 0x1 PUSH0 CALLER PUSH20 0xFFFFFFFFFFFFFFFFFFFFFFFFFFFFFFFFFFFFFFFF AND PUSH20 0xFFFFFFFFFFFFFFFFFFFFFFFFFFFFFFFFFFFFFFFF AND DUP2 MSTORE PUSH1 0x20 ADD SWAP1 DUP2 MSTORE PUSH1 0x20 ADD PUSH0 KECCAK256 DUP1 SLOAD SWAP1 POP DUP2 LT ISZERO PUSH2 0x1FE1 JUMPI PUSH0 PUSH1 0x1 PUSH0 CALLER PUSH20 0xFFFFFFFFFFFFFFFFFFFFFFFFFFFFFFFFFFFFFFFF AND PUSH20 0xFFFFFFFFFFFFFFFFFFFFFFFFFFFFFFFFFFFFFFFF AND DUP2 MSTORE PUSH1 0x20 ADD SWAP1 DUP2 MSTORE PUSH1 0x20 ADD PUSH0 KECCAK256 DUP3 DUP2 SLOAD DUP2 LT PUSH2 0x1F0D JUMPI PUSH2 0x1F0C PUSH2 0x2E95 JUMP JUMPDEST JUMPDEST SWAP1 PUSH0 MSTORE PUSH1 0x20 PUSH0 KECCAK256 SWAP1 PUSH1 0x7 MUL ADD PUSH1 0x1 ADD SWAP1 POP PUSH0 DUP6 PUSH1 0x40 MLOAD PUSH1 0x20 ADD PUSH2 0x1F30 SWAP2 SWAP1 PUSH2 0x3993 JUMP JUMPDEST PUSH1 0x40 MLOAD PUSH1 0x20 DUP2 DUP4 SUB SUB DUP2 MSTORE SWAP1 PUSH1 0x40 MSTORE DUP1 MLOAD SWAP1 PUSH1 0x20 ADD KECCAK256 DUP3 PUSH1 0x40 MLOAD PUSH1 0x20 ADD PUSH2 0x1F57 SWAP2 SWAP1 PUSH2 0x3A3B JUMP JUMPDEST PUSH1 0x40 MLOAD PUSH1 0x20 DUP2 DUP4 SUB SUB DUP2 MSTORE SWAP1 PUSH1 0x40 MSTORE DUP1 MLOAD SWAP1 PUSH1 0x20 ADD KECCAK256 EQ SWAP1 POP DUP1 ISZERO PUSH2 0x1FD2 JUMPI DUP6 PUSH1 0x40 MLOAD PUSH1 0x20 ADD PUSH2 0x1F87 SWAP2 SWAP1 PUSH2 0x3AE5 JUMP JUMPDEST PUSH1 0x40 MLOAD PUSH1 0x20 DUP2 DUP4 SUB SUB DUP2 MSTORE SWAP1 PUSH1 0x40 MSTORE PUSH1 0x40 MLOAD PUSH32 0x8C379A000000000000000000000000000000000000000000000000000000000 DUP2 MSTORE PUSH1 0x4 ADD PUSH2 0x1FC9 SWAP2 SWAP1 PUSH2 0x2FB0 JUMP JUMPDEST PUSH1 0x40 MLOAD DUP1 SWAP2 SUB SWAP1 REVERT JUMPDEST POP POP DUP1 DUP1 PUSH1 0x1 ADD SWAP2 POP POP PUSH2 0x1E75 JUMP JUMPDEST POP PUSH0 PUSH1 0x40 MLOAD DUP1 PUSH1 0xE0 ADD PUSH1 0x40 MSTORE DUP1 PUSH1 0x1 DUP1 PUSH0 CALLER PUSH20 0xFFFFFFFFFFFFFFFFFFFFFFFFFFFFFFFFFFFFFFFF AND PUSH20 0xFFFFFFFFFFFFFFFFFFFFFFFFFFFFFFFFFFFFFFFF AND DUP2 MSTORE PUSH1 0x20 ADD SWAP1 DUP2 MSTORE PUSH1 0x20 ADD PUSH0 KECCAK256 DUP1 SLOAD SWAP1 POP PUSH2 0x203A SWAP2 SWAP1 PUSH2 0x31F2 JUMP JUMPDEST DUP2 MSTORE PUSH1 0x20 ADD DUP6 DUP2 MSTORE PUSH1 0x20 ADD DUP5 DUP2 MSTORE PUSH1 0x20 ADD CALLER PUSH20 0xFFFFFFFFFFFFFFFFFFFFFFFFFFFFFFFFFFFFFFFF AND DUP2 MSTORE PUSH1 0x20 ADD DUP4 DUP2 MSTORE PUSH1 0x20 ADD PUSH0 DUP2 MSTORE PUSH1 0x20 ADD PUSH0 ISZERO ISZERO DUP2 MSTORE POP SWAP1 POP PUSH1 0x1 PUSH0 CALLER PUSH20 0xFFFFFFFFFFFFFFFFFFFFFFFFFFFFFFFFFFFFFFFF AND PUSH20 0xFFFFFFFFFFFFFFFFFFFFFFFFFFFFFFFFFFFFFFFF AND DUP2 MSTORE PUSH1 0x20 ADD SWAP1 DUP2 MSTORE PUSH1 0x20 ADD PUSH0 KECCAK256 DUP2 SWAP1 DUP1 PUSH1 0x1 DUP2 SLOAD ADD DUP1 DUP3 SSTORE DUP1 SWAP2 POP POP PUSH1 0x1 SWAP1 SUB SWAP1 PUSH0 MSTORE PUSH1 0x20 PUSH0 KECCAK256 SWAP1 PUSH1 0x7 MUL ADD PUSH0 SWAP1 SWAP2 SWAP1 SWAP2 SWAP1 SWAP2 POP PUSH0 DUP3 ADD MLOAD DUP2 PUSH0 ADD SSTORE PUSH1 0x20 DUP3 ADD MLOAD DUP2 PUSH1 0x1 ADD SWAP1 DUP2 PUSH2 0x20FC SWAP2 SWAP1 PUSH2 0x3429 JUMP JUMPDEST POP PUSH1 0x40 DUP3 ADD MLOAD DUP2 PUSH1 0x2 ADD SWAP1 DUP2 PUSH2 0x2112 SWAP2 SWAP1 PUSH2 0x3429 JUMP JUMPDEST POP PUSH1 0x60 DUP3 ADD MLOAD DUP2 PUSH1 0x3 ADD PUSH0 PUSH2 0x100 EXP DUP2 SLOAD DUP2 PUSH20 0xFFFFFFFFFFFFFFFFFFFFFFFFFFFFFFFFFFFFFFFF MUL NOT AND SWAP1 DUP4 PUSH20 0xFFFFFFFFFFFFFFFFFFFFFFFFFFFFFFFFFFFFFFFF AND MUL OR SWAP1 SSTORE POP PUSH1 0x80 DUP3 ADD MLOAD DUP2 PUSH1 0x4 ADD SSTORE PUSH1 0xA0 DUP3 ADD MLOAD DUP2 PUSH1 0x5 ADD SSTORE PUSH1 0xC0 DUP3 ADD MLOAD DUP2 PUSH1 0x6 ADD PUSH0 PUSH2 0x100 EXP DUP2 SLOAD DUP2 PUSH1 0xFF MUL NOT AND SWAP1 DUP4 ISZERO ISZERO MUL OR SWAP1 SSTORE POP POP POP PUSH32 0x825FB10F7650ED27414D6F86ACDF7D5946927D9B25001F045F1A2435DEEC02FE PUSH1 0x1 PUSH0 CALLER PUSH20 0xFFFFFFFFFFFFFFFFFFFFFFFFFFFFFFFFFFFFFFFF AND PUSH20 0xFFFFFFFFFFFFFFFFFFFFFFFFFFFFFFFFFFFFFFFF AND DUP2 MSTORE PUSH1 0x20 ADD SWAP1 DUP2 MSTORE PUSH1 0x20 ADD PUSH0 KECCAK256 DUP1 SLOAD SWAP1 POP CALLER DUP7 DUP6 PUSH1 0x40 MLOAD PUSH2 0x2203 SWAP5 SWAP4 SWAP3 SWAP2 SWAP1 PUSH2 0x3B11 JUMP JUMPDEST PUSH1 0x40 MLOAD DUP1 SWAP2 SUB SWAP1 LOG1 POP POP POP POP JUMP JUMPDEST PUSH0 PUSH1 0x40 MLOAD SWAP1 POP SWAP1 JUMP JUMPDEST PUSH0 DUP1 REVERT JUMPDEST PUSH0 DUP1 REVERT JUMPDEST PUSH0 PUSH20 0xFFFFFFFFFFFFFFFFFFFFFFFFFFFFFFFFFFFFFFFF DUP3 AND SWAP1 POP SWAP2 SWAP1 POP JUMP JUMPDEST PUSH0 PUSH2 0x224B DUP3 PUSH2 0x2222 JUMP JUMPDEST SWAP1 POP SWAP2 SWAP1 POP JUMP JUMPDEST PUSH2 0x225B DUP2 PUSH2 0x2241 JUMP JUMPDEST DUP2 EQ PUSH2 0x2265 JUMPI PUSH0 DUP1 REVERT JUMPDEST POP JUMP JUMPDEST PUSH0 DUP2 CALLDATALOAD SWAP1 POP PUSH2 0x2276 DUP2 PUSH2 0x2252 JUMP JUMPDEST SWAP3 SWAP2 POP POP JUMP JUMPDEST PUSH0 PUSH1 0x20 DUP3 DUP5 SUB SLT ISZERO PUSH2 0x2291 JUMPI PUSH2 0x2290 PUSH2 0x221A JUMP JUMPDEST JUMPDEST PUSH0 PUSH2 0x229E DUP5 DUP3 DUP6 ADD PUSH2 0x2268 JUMP JUMPDEST SWAP2 POP POP SWAP3 SWAP2 POP POP JUMP JUMPDEST PUSH0 DUP2 SWAP1 POP SWAP2 SWAP1 POP JUMP JUMPDEST PUSH2 0x22B9 DUP2 PUSH2 0x22A7 JUMP JUMPDEST DUP2 EQ PUSH2 0x22C3 JUMPI PUSH0 DUP1 REVERT JUMPDEST POP JUMP JUMPDEST PUSH0 DUP2 CALLDATALOAD SWAP1 POP PUSH2 0x22D4 DUP2 PUSH2 0x22B0 JUMP JUMPDEST SWAP3 SWAP2 POP POP JUMP JUMPDEST PUSH0 DUP1 PUSH1 0x40 DUP4 DUP6 SUB SLT ISZERO PUSH2 0x22F0 JUMPI PUSH2 0x22EF PUSH2 0x221A JUMP JUMPDEST JUMPDEST PUSH0 PUSH2 0x22FD DUP6 DUP3 DUP7 ADD PUSH2 0x2268 JUMP JUMPDEST SWAP3 POP POP PUSH1 0x20 PUSH2 0x230E DUP6 DUP3 DUP7 ADD PUSH2 0x22C6 JUMP JUMPDEST SWAP2 POP POP SWAP3 POP SWAP3 SWAP1 POP JUMP JUMPDEST PUSH2 0x2321 DUP2 PUSH2 0x22A7 JUMP JUMPDEST DUP3 MSTORE POP POP JUMP JUMPDEST PUSH0 DUP2 MLOAD SWAP1 POP SWAP2 SWAP1 POP JUMP JUMPDEST PUSH0 DUP3 DUP3 MSTORE PUSH1 0x20 DUP3 ADD SWAP1 POP SWAP3 SWAP2 POP POP JUMP JUMPDEST DUP3 DUP2 DUP4 MCOPY PUSH0 DUP4 DUP4 ADD MSTORE POP POP POP JUMP JUMPDEST PUSH0 PUSH1 0x1F NOT PUSH1 0x1F DUP4 ADD AND SWAP1 POP SWAP2 SWAP1 POP JUMP JUMPDEST PUSH0 PUSH2 0x2369 DUP3 PUSH2 0x2327 JUMP JUMPDEST PUSH2 0x2373 DUP2 DUP6 PUSH2 0x2331 JUMP JUMPDEST SWAP4 POP PUSH2 0x2383 DUP2 DUP6 PUSH1 0x20 DUP7 ADD PUSH2 0x2341 JUMP JUMPDEST PUSH2 0x238C DUP2 PUSH2 0x234F JUMP JUMPDEST DUP5 ADD SWAP2 POP POP SWAP3 SWAP2 POP POP JUMP JUMPDEST PUSH2 0x23A0 DUP2 PUSH2 0x2241 JUMP JUMPDEST DUP3 MSTORE POP POP JUMP JUMPDEST PUSH0 DUP2 ISZERO ISZERO SWAP1 POP SWAP2 SWAP1 POP JUMP JUMPDEST PUSH2 0x23BA DUP2 PUSH2 0x23A6 JUMP JUMPDEST DUP3 MSTORE POP POP JUMP JUMPDEST PUSH0 PUSH1 0xE0 DUP3 ADD SWAP1 POP PUSH2 0x23D3 PUSH0 DUP4 ADD DUP11 PUSH2 0x2318 JUMP JUMPDEST DUP2 DUP2 SUB PUSH1 0x20 DUP4 ADD MSTORE PUSH2 0x23E5 DUP2 DUP10 PUSH2 0x235F JUMP JUMPDEST SWAP1 POP DUP2 DUP2 SUB PUSH1 0x40 DUP4 ADD MSTORE PUSH2 0x23F9 DUP2 DUP9 PUSH2 0x235F JUMP JUMPDEST SWAP1 POP PUSH2 0x2408 PUSH1 0x60 DUP4 ADD DUP8 PUSH2 0x2397 JUMP JUMPDEST PUSH2 0x2415 PUSH1 0x80 DUP4 ADD DUP7 PUSH2 0x2318 JUMP JUMPDEST PUSH2 0x2422 PUSH1 0xA0 DUP4 ADD DUP6 PUSH2 0x2318 JUMP JUMPDEST PUSH2 0x242F PUSH1 0xC0 DUP4 ADD DUP5 PUSH2 0x23B1 JUMP JUMPDEST SWAP9 SWAP8 POP POP POP POP POP POP POP POP JUMP JUMPDEST PUSH0 PUSH1 0x20 DUP3 ADD SWAP1 POP PUSH2 0x244E PUSH0 DUP4 ADD DUP5 PUSH2 0x2397 JUMP JUMPDEST SWAP3 SWAP2 POP POP JUMP JUMPDEST PUSH0 DUP2 MLOAD SWAP1 POP SWAP2 SWAP1 POP JUMP JUMPDEST PUSH0 DUP3 DUP3 MSTORE PUSH1 0x20 DUP3 ADD SWAP1 POP SWAP3 SWAP2 POP POP JUMP JUMPDEST PUSH0 DUP2 SWAP1 POP PUSH1 0x20 DUP3 ADD SWAP1 POP SWAP2 SWAP1 POP JUMP JUMPDEST PUSH2 0x2486 DUP2 PUSH2 0x2241 JUMP JUMPDEST DUP3 MSTORE POP POP JUMP JUMPDEST PUSH0 PUSH2 0x2497 DUP4 DUP4 PUSH2 0x247D JUMP JUMPDEST PUSH1 0x20 DUP4 ADD SWAP1 POP SWAP3 SWAP2 POP POP JUMP JUMPDEST PUSH0 PUSH1 0x20 DUP3 ADD SWAP1 POP SWAP2 SWAP1 POP JUMP JUMPDEST PUSH0 PUSH2 0x24B9 DUP3 PUSH2 0x2454 JUMP JUMPDEST PUSH2 0x24C3 DUP2 DUP6 PUSH2 0x245E JUMP JUMPDEST SWAP4 POP PUSH2 0x24CE DUP4 PUSH2 0x246E JUMP JUMPDEST DUP1 PUSH0 JUMPDEST DUP4 DUP2 LT ISZERO PUSH2 0x24FE JUMPI DUP2 MLOAD PUSH2 0x24E5 DUP9 DUP3 PUSH2 0x248C JUMP JUMPDEST SWAP8 POP PUSH2 0x24F0 DUP4 PUSH2 0x24A3 JUMP JUMPDEST SWAP3 POP POP PUSH1 0x1 DUP2 ADD SWAP1 POP PUSH2 0x24D1 JUMP JUMPDEST POP DUP6 SWAP4 POP POP POP POP SWAP3 SWAP2 POP POP JUMP JUMPDEST PUSH0 PUSH1 0x20 DUP3 ADD SWAP1 POP DUP2 DUP2 SUB PUSH0 DUP4 ADD MSTORE PUSH2 0x2523 DUP2 DUP5 PUSH2 0x24AF JUMP JUMPDEST SWAP1 POP SWAP3 SWAP2 POP POP JUMP JUMPDEST PUSH0 DUP2 MLOAD SWAP1 POP SWAP2 SWAP1 POP JUMP JUMPDEST PUSH0 DUP3 DUP3 MSTORE PUSH1 0x20 DUP3 ADD SWAP1 POP SWAP3 SWAP2 POP POP JUMP JUMPDEST PUSH0 DUP2 SWAP1 POP PUSH1 0x20 DUP3 ADD SWAP1 POP SWAP2 SWAP1 POP JUMP JUMPDEST PUSH2 0x255D DUP2 PUSH2 0x22A7 JUMP JUMPDEST DUP3 MSTORE POP POP JUMP JUMPDEST PUSH0 DUP3 DUP3 MSTORE PUSH1 0x20 DUP3 ADD SWAP1 POP SWAP3 SWAP2 POP POP JUMP JUMPDEST PUSH0 PUSH2 0x257D DUP3 PUSH2 0x2327 JUMP JUMPDEST PUSH2 0x2587 DUP2 DUP6 PUSH2 0x2563 JUMP JUMPDEST SWAP4 POP PUSH2 0x2597 DUP2 DUP6 PUSH1 0x20 DUP7 ADD PUSH2 0x2341 JUMP JUMPDEST PUSH2 0x25A0 DUP2 PUSH2 0x234F JUMP JUMPDEST DUP5 ADD SWAP2 POP POP SWAP3 SWAP2 POP POP JUMP JUMPDEST PUSH2 0x25B4 DUP2 PUSH2 0x23A6 JUMP JUMPDEST DUP3 MSTORE POP POP JUMP JUMPDEST PUSH0 PUSH1 0xE0 DUP4 ADD PUSH0 DUP4 ADD MLOAD PUSH2 0x25CF PUSH0 DUP7 ADD DUP3 PUSH2 0x2554 JUMP JUMPDEST POP PUSH1 0x20 DUP4 ADD MLOAD DUP5 DUP3 SUB PUSH1 0x20 DUP7 ADD MSTORE PUSH2 0x25E7 DUP3 DUP3 PUSH2 0x2573 JUMP JUMPDEST SWAP2 POP POP PUSH1 0x40 DUP4 ADD MLOAD DUP5 DUP3 SUB PUSH1 0x40 DUP7 ADD MSTORE PUSH2 0x2601 DUP3 DUP3 PUSH2 0x2573 JUMP JUMPDEST SWAP2 POP POP PUSH1 0x60 DUP4 ADD MLOAD PUSH2 0x2616 PUSH1 0x60 DUP7 ADD DUP3 PUSH2 0x247D JUMP JUMPDEST POP PUSH1 0x80 DUP4 ADD MLOAD PUSH2 0x2629 PUSH1 0x80 DUP7 ADD DUP3 PUSH2 0x2554 JUMP JUMPDEST POP PUSH1 0xA0 DUP4 ADD MLOAD PUSH2 0x263C PUSH1 0xA0 DUP7 ADD DUP3 PUSH2 0x2554 JUMP JUMPDEST POP PUSH1 0xC0 DUP4 ADD MLOAD PUSH2 0x264F PUSH1 0xC0 DUP7 ADD DUP3 PUSH2 0x25AB JUMP JUMPDEST POP DUP1 SWAP2 POP POP SWAP3 SWAP2 POP POP JUMP JUMPDEST PUSH0 PUSH2 0x2665 DUP4 DUP4 PUSH2 0x25BA JUMP JUMPDEST SWAP1 POP SWAP3 SWAP2 POP POP JUMP JUMPDEST PUSH0 PUSH1 0x20 DUP3 ADD SWAP1 POP SWAP2 SWAP1 POP JUMP JUMPDEST PUSH0 PUSH2 0x2683 DUP3 PUSH2 0x252B JUMP JUMPDEST PUSH2 0x268D DUP2 DUP6 PUSH2 0x2535 JUMP JUMPDEST SWAP4 POP DUP4 PUSH1 0x20 DUP3 MUL DUP6 ADD PUSH2 0x269F DUP6 PUSH2 0x2545 JUMP JUMPDEST DUP1 PUSH0 JUMPDEST DUP6 DUP2 LT ISZERO PUSH2 0x26DA JUMPI DUP5 DUP5 SUB DUP10 MSTORE DUP2 MLOAD PUSH2 0x26BB DUP6 DUP3 PUSH2 0x265A JUMP JUMPDEST SWAP5 POP PUSH2 0x26C6 DUP4 PUSH2 0x266D JUMP JUMPDEST SWAP3 POP PUSH1 0x20 DUP11 ADD SWAP10 POP POP PUSH1 0x1 DUP2 ADD SWAP1 POP PUSH2 0x26A2 JUMP JUMPDEST POP DUP3 SWAP8 POP DUP8 SWAP6 POP POP POP POP POP POP SWAP3 SWAP2 POP POP JUMP JUMPDEST PUSH0 PUSH1 0x20 DUP3 ADD SWAP1 POP DUP2 DUP2 SUB PUSH0 DUP4 ADD MSTORE PUSH2 0x2704 DUP2 DUP5 PUSH2 0x2679 JUMP JUMPDEST SWAP1 POP SWAP3 SWAP2 POP POP JUMP JUMPDEST PUSH0 PUSH1 0xA0 DUP3 ADD SWAP1 POP PUSH2 0x271F PUSH0 DUP4 ADD DUP9 PUSH2 0x2318 JUMP JUMPDEST DUP2 DUP2 SUB PUSH1 0x20 DUP4 ADD MSTORE PUSH2 0x2731 DUP2 DUP8 PUSH2 0x235F JUMP JUMPDEST SWAP1 POP PUSH2 0x2740 PUSH1 0x40 DUP4 ADD DUP7 PUSH2 0x2318 JUMP JUMPDEST PUSH2 0x274D PUSH1 0x60 DUP4 ADD DUP6 PUSH2 0x2397 JUMP JUMPDEST PUSH2 0x275A PUSH1 0x80 DUP4 ADD DUP5 PUSH2 0x2397 JUMP JUMPDEST SWAP7 SWAP6 POP POP POP POP POP POP JUMP JUMPDEST PUSH0 PUSH2 0x276E DUP3 PUSH2 0x2222 JUMP JUMPDEST SWAP1 POP SWAP2 SWAP1 POP JUMP JUMPDEST PUSH2 0x277E DUP2 PUSH2 0x2764 JUMP JUMPDEST DUP2 EQ PUSH2 0x2788 JUMPI PUSH0 DUP1 REVERT JUMPDEST POP JUMP JUMPDEST PUSH0 DUP2 CALLDATALOAD SWAP1 POP PUSH2 0x2799 DUP2 PUSH2 0x2775 JUMP JUMPDEST SWAP3 SWAP2 POP POP JUMP JUMPDEST PUSH0 DUP1 PUSH0 PUSH1 0x60 DUP5 DUP7 SUB SLT ISZERO PUSH2 0x27B6 JUMPI PUSH2 0x27B5 PUSH2 0x221A JUMP JUMPDEST JUMPDEST PUSH0 PUSH2 0x27C3 DUP7 DUP3 DUP8 ADD PUSH2 0x278B JUMP JUMPDEST SWAP4 POP POP PUSH1 0x20 PUSH2 0x27D4 DUP7 DUP3 DUP8 ADD PUSH2 0x22C6 JUMP JUMPDEST SWAP3 POP POP PUSH1 0x40 PUSH2 0x27E5 DUP7 DUP3 DUP8 ADD PUSH2 0x22C6 JUMP JUMPDEST SWAP2 POP POP SWAP3 POP SWAP3 POP SWAP3 JUMP JUMPDEST PUSH0 PUSH1 0x20 DUP3 ADD SWAP1 POP PUSH2 0x2802 PUSH0 DUP4 ADD DUP5 PUSH2 0x2318 JUMP JUMPDEST SWAP3 SWAP2 POP POP JUMP JUMPDEST PUSH0 PUSH1 0x80 DUP3 ADD SWAP1 POP PUSH2 0x281B PUSH0 DUP4 ADD DUP8 PUSH2 0x2397 JUMP JUMPDEST PUSH2 0x2828 PUSH1 0x20 DUP4 ADD DUP7 PUSH2 0x2318 JUMP JUMPDEST DUP2 DUP2 SUB PUSH1 0x40 DUP4 ADD MSTORE PUSH2 0x283A DUP2 DUP6 PUSH2 0x235F JUMP JUMPDEST SWAP1 POP PUSH2 0x2849 PUSH1 0x60 DUP4 ADD DUP5 PUSH2 0x2318 JUMP JUMPDEST SWAP6 SWAP5 POP POP POP POP POP JUMP JUMPDEST PUSH0 DUP1 PUSH1 0x40 DUP4 DUP6 SUB SLT ISZERO PUSH2 0x2868 JUMPI PUSH2 0x2867 PUSH2 0x221A JUMP JUMPDEST JUMPDEST PUSH0 PUSH2 0x2875 DUP6 DUP3 DUP7 ADD PUSH2 0x2268 JUMP JUMPDEST SWAP3 POP POP PUSH1 0x20 PUSH2 0x2886 DUP6 DUP3 DUP7 ADD PUSH2 0x2268 JUMP JUMPDEST SWAP2 POP POP SWAP3 POP SWAP3 SWAP1 POP JUMP JUMPDEST PUSH0 PUSH1 0x20 DUP3 ADD SWAP1 POP PUSH2 0x28A3 PUSH0 DUP4 ADD DUP5 PUSH2 0x23B1 JUMP JUMPDEST SWAP3 SWAP2 POP POP JUMP JUMPDEST PUSH0 DUP1 PUSH0 DUP1 PUSH1 0x80 DUP6 DUP8 SUB SLT ISZERO PUSH2 0x28C1 JUMPI PUSH2 0x28C0 PUSH2 0x221A JUMP JUMPDEST JUMPDEST PUSH0 PUSH2 0x28CE DUP8 DUP3 DUP9 ADD PUSH2 0x22C6 JUMP JUMPDEST SWAP5 POP POP PUSH1 0x20 PUSH2 0x28DF DUP8 DUP3 DUP9 ADD PUSH2 0x2268 JUMP JUMPDEST SWAP4 POP POP PUSH1 0x40 PUSH2 0x28F0 DUP8 DUP3 DUP9 ADD PUSH2 0x22C6 JUMP JUMPDEST SWAP3 POP POP PUSH1 0x60 PUSH2 0x2901 DUP8 DUP3 DUP9 ADD PUSH2 0x278B JUMP JUMPDEST SWAP2 POP POP SWAP3 SWAP6 SWAP2 SWAP5 POP SWAP3 POP JUMP JUMPDEST PUSH0 DUP2 MLOAD SWAP1 POP SWAP2 SWAP1 POP JUMP JUMPDEST PUSH0 DUP3 DUP3 MSTORE PUSH1 0x20 DUP3 ADD SWAP1 POP SWAP3 SWAP2 POP POP JUMP JUMPDEST PUSH0 DUP2 SWAP1 POP PUSH1 0x20 DUP3 ADD SWAP1 POP SWAP2 SWAP1 POP JUMP JUMPDEST PUSH0 PUSH1 0xA0 DUP4 ADD PUSH0 DUP4 ADD MLOAD PUSH2 0x294B PUSH0 DUP7 ADD DUP3 PUSH2 0x2554 JUMP JUMPDEST POP PUSH1 0x20 DUP4 ADD MLOAD DUP5 DUP3 SUB PUSH1 0x20 DUP7 ADD MSTORE PUSH2 0x2963 DUP3 DUP3 PUSH2 0x2573 JUMP JUMPDEST SWAP2 POP POP PUSH1 0x40 DUP4 ADD MLOAD PUSH2 0x2978 PUSH1 0x40 DUP7 ADD DUP3 PUSH2 0x2554 JUMP JUMPDEST POP PUSH1 0x60 DUP4 ADD MLOAD PUSH2 0x298B PUSH1 0x60 DUP7 ADD DUP3 PUSH2 0x247D JUMP JUMPDEST POP PUSH1 0x80 DUP4 ADD MLOAD PUSH2 0x299E PUSH1 0x80 DUP7 ADD DUP3 PUSH2 0x247D JUMP JUMPDEST POP DUP1 SWAP2 POP POP SWAP3 SWAP2 POP POP JUMP JUMPDEST PUSH0 PUSH2 0x29B4 DUP4 DUP4 PUSH2 0x2936 JUMP JUMPDEST SWAP1 POP SWAP3 SWAP2 POP POP JUMP JUMPDEST PUSH0 PUSH1 0x20 DUP3 ADD SWAP1 POP SWAP2 SWAP1 POP JUMP JUMPDEST PUSH0 PUSH2 0x29D2 DUP3 PUSH2 0x290D JUMP JUMPDEST PUSH2 0x29DC DUP2 DUP6 PUSH2 0x2917 JUMP JUMPDEST SWAP4 POP DUP4 PUSH1 0x20 DUP3 MUL DUP6 ADD PUSH2 0x29EE DUP6 PUSH2 0x2927 JUMP JUMPDEST DUP1 PUSH0 JUMPDEST DUP6 DUP2 LT ISZERO PUSH2 0x2A29 JUMPI DUP5 DUP5 SUB DUP10 MSTORE DUP2 MLOAD PUSH2 0x2A0A DUP6 DUP3 PUSH2 0x29A9 JUMP JUMPDEST SWAP5 POP PUSH2 0x2A15 DUP4 PUSH2 0x29BC JUMP JUMPDEST SWAP3 POP PUSH1 0x20 DUP11 ADD SWAP10 POP POP PUSH1 0x1 DUP2 ADD SWAP1 POP PUSH2 0x29F1 JUMP JUMPDEST POP DUP3 SWAP8 POP DUP8 SWAP6 POP POP POP POP POP POP SWAP3 SWAP2 POP POP JUMP JUMPDEST PUSH0 PUSH1 0x20 DUP3 ADD SWAP1 POP DUP2 DUP2 SUB PUSH0 DUP4 ADD MSTORE PUSH2 0x2A53 DUP2 DUP5 PUSH2 0x29C8 JUMP JUMPDEST SWAP1 POP SWAP3 SWAP2 POP POP JUMP JUMPDEST PUSH0 DUP2 MLOAD SWAP1 POP SWAP2 SWAP1 POP JUMP JUMPDEST PUSH0 DUP3 DUP3 MSTORE PUSH1 0x20 DUP3 ADD SWAP1 POP SWAP3 SWAP2 POP POP JUMP JUMPDEST PUSH0 DUP2 SWAP1 POP PUSH1 0x20 DUP3 ADD SWAP1 POP SWAP2 SWAP1 POP JUMP JUMPDEST PUSH0 PUSH1 0x80 DUP4 ADD PUSH0 DUP4 ADD MLOAD PUSH2 0x2A99 PUSH0 DUP7 ADD DUP3 PUSH2 0x247D JUMP JUMPDEST POP PUSH1 0x20 DUP4 ADD MLOAD PUSH2 0x2AAC PUSH1 0x20 DUP7 ADD DUP3 PUSH2 0x2554 JUMP JUMPDEST POP PUSH1 0x40 DUP4 ADD MLOAD DUP5 DUP3 SUB PUSH1 0x40 DUP7 ADD MSTORE PUSH2 0x2AC4 DUP3 DUP3 PUSH2 0x2573 JUMP JUMPDEST SWAP2 POP POP PUSH1 0x60 DUP4 ADD MLOAD PUSH2 0x2AD9 PUSH1 0x60 DUP7 ADD DUP3 PUSH2 0x2554 JUMP JUMPDEST POP DUP1 SWAP2 POP POP SWAP3 SWAP2 POP POP JUMP JUMPDEST PUSH0 PUSH2 0x2AEF DUP4 DUP4 PUSH2 0x2A84 JUMP JUMPDEST SWAP1 POP SWAP3 SWAP2 POP POP JUMP JUMPDEST PUSH0 PUSH1 0x20 DUP3 ADD SWAP1 POP SWAP2 SWAP1 POP JUMP JUMPDEST PUSH0 PUSH2 0x2B0D DUP3 PUSH2 0x2A5B JUMP JUMPDEST PUSH2 0x2B17 DUP2 DUP6 PUSH2 0x2A65 JUMP JUMPDEST SWAP4 POP DUP4 PUSH1 0x20 DUP3 MUL DUP6 ADD PUSH2 0x2B29 DUP6 PUSH2 0x2A75 JUMP JUMPDEST DUP1 PUSH0 JUMPDEST DUP6 DUP2 LT ISZERO PUSH2 0x2B64 JUMPI DUP5 DUP5 SUB DUP10 MSTORE DUP2 MLOAD PUSH2 0x2B45 DUP6 DUP3 PUSH2 0x2AE4 JUMP JUMPDEST SWAP5 POP PUSH2 0x2B50 DUP4 PUSH2 0x2AF7 JUMP JUMPDEST SWAP3 POP PUSH1 0x20 DUP11 ADD SWAP10 POP POP PUSH1 0x1 DUP2 ADD SWAP1 POP PUSH2 0x2B2C JUMP JUMPDEST POP DUP3 SWAP8 POP DUP8 SWAP6 POP POP POP POP POP POP SWAP3 SWAP2 POP POP JUMP JUMPDEST PUSH0 PUSH1 0x20 DUP3 ADD SWAP1 POP DUP2 DUP2 SUB PUSH0 DUP4 ADD MSTORE PUSH2 0x2B8E DUP2 DUP5 PUSH2 0x2B03 JUMP JUMPDEST SWAP1 POP SWAP3 SWAP2 POP POP JUMP JUMPDEST PUSH0 DUP1 REVERT JUMPDEST PUSH0 DUP1 REVERT JUMPDEST PUSH32 0x4E487B7100000000000000000000000000000000000000000000000000000000 PUSH0 MSTORE PUSH1 0x41 PUSH1 0x4 MSTORE PUSH1 0x24 PUSH0 REVERT JUMPDEST PUSH2 0x2BD4 DUP3 PUSH2 0x234F JUMP JUMPDEST DUP2 ADD DUP2 DUP2 LT PUSH8 0xFFFFFFFFFFFFFFFF DUP3 GT OR ISZERO PUSH2 0x2BF3 JUMPI PUSH2 0x2BF2 PUSH2 0x2B9E JUMP JUMPDEST JUMPDEST DUP1 PUSH1 0x40 MSTORE POP POP POP JUMP JUMPDEST PUSH0 PUSH2 0x2C05 PUSH2 0x2211 JUMP JUMPDEST SWAP1 POP PUSH2 0x2C11 DUP3 DUP3 PUSH2 0x2BCB JUMP JUMPDEST SWAP2 SWAP1 POP JUMP JUMPDEST PUSH0 PUSH8 0xFFFFFFFFFFFFFFFF DUP3 GT ISZERO PUSH2 0x2C30 JUMPI PUSH2 0x2C2F PUSH2 0x2B9E JUMP JUMPDEST JUMPDEST PUSH2 0x2C39 DUP3 PUSH2 0x234F JUMP JUMPDEST SWAP1 POP PUSH1 0x20 DUP2 ADD SWAP1 POP SWAP2 SWAP1 POP JUMP JUMPDEST DUP3 DUP2 DUP4 CALLDATACOPY PUSH0 DUP4 DUP4 ADD MSTORE POP POP POP JUMP JUMPDEST PUSH0 PUSH2 0x2C66 PUSH2 0x2C61 DUP5 PUSH2 0x2C16 JUMP JUMPDEST PUSH2 0x2BFC JUMP JUMPDEST SWAP1 POP DUP3 DUP2 MSTORE PUSH1 0x20 DUP2 ADD DUP5 DUP5 DUP5 ADD GT ISZERO PUSH2 0x2C82 JUMPI PUSH2 0x2C81 PUSH2 0x2B9A JUMP JUMPDEST JUMPDEST PUSH2 0x2C8D DUP5 DUP3 DUP6 PUSH2 0x2C46 JUMP JUMPDEST POP SWAP4 SWAP3 POP POP POP JUMP JUMPDEST PUSH0 DUP3 PUSH1 0x1F DUP4 ADD SLT PUSH2 0x2CA9 JUMPI PUSH2 0x2CA8 PUSH2 0x2B96 JUMP JUMPDEST JUMPDEST DUP2 CALLDATALOAD PUSH2 0x2CB9 DUP5 DUP3 PUSH1 0x20 DUP7 ADD PUSH2 0x2C54 JUMP JUMPDEST SWAP2 POP POP SWAP3 SWAP2 POP POP JUMP JUMPDEST PUSH0 DUP1 PUSH0 PUSH1 0x60 DUP5 DUP7 SUB SLT ISZERO PUSH2 0x2CD9 JUMPI PUSH2 0x2CD8 PUSH2 0x221A JUMP JUMPDEST JUMPDEST PUSH0 DUP5 ADD CALLDATALOAD PUSH8 0xFFFFFFFFFFFFFFFF DUP2 GT ISZERO PUSH2 0x2CF6 JUMPI PUSH2 0x2CF5 PUSH2 0x221E JUMP JUMPDEST JUMPDEST PUSH2 0x2D02 DUP7 DUP3 DUP8 ADD PUSH2 0x2C95 JUMP JUMPDEST SWAP4 POP POP PUSH1 0x20 DUP5 ADD CALLDATALOAD PUSH8 0xFFFFFFFFFFFFFFFF DUP2 GT ISZERO PUSH2 0x2D23 JUMPI PUSH2 0x2D22 PUSH2 0x221E JUMP JUMPDEST JUMPDEST PUSH2 0x2D2F DUP7 DUP3 DUP8 ADD PUSH2 0x2C95 JUMP JUMPDEST SWAP3 POP POP PUSH1 0x40 PUSH2 0x2D40 DUP7 DUP3 DUP8 ADD PUSH2 0x22C6 JUMP JUMPDEST SWAP2 POP POP SWAP3 POP SWAP3 POP SWAP3 JUMP JUMPDEST PUSH32 0x5468652043616D706169676E65642053706563696669656420446F6573204E6F PUSH0 DUP3 ADD MSTORE PUSH32 0x7420457869737421000000000000000000000000000000000000000000000000 PUSH1 0x20 DUP3 ADD MSTORE POP JUMP JUMPDEST PUSH0 PUSH2 0x2DA4 PUSH1 0x28 DUP4 PUSH2 0x2331 JUMP JUMPDEST SWAP2 POP PUSH2 0x2DAF DUP3 PUSH2 0x2D4A JUMP JUMPDEST PUSH1 0x40 DUP3 ADD SWAP1 POP SWAP2 SWAP1 POP JUMP JUMPDEST PUSH0 PUSH1 0x20 DUP3 ADD SWAP1 POP DUP2 DUP2 SUB PUSH0 DUP4 ADD MSTORE PUSH2 0x2DD1 DUP2 PUSH2 0x2D98 JUMP JUMPDEST SWAP1 POP SWAP2 SWAP1 POP JUMP JUMPDEST PUSH32 0x4E487B7100000000000000000000000000000000000000000000000000000000 PUSH0 MSTORE PUSH1 0x22 PUSH1 0x4 MSTORE PUSH1 0x24 PUSH0 REVERT JUMPDEST PUSH0 PUSH1 0x2 DUP3 DIV SWAP1 POP PUSH1 0x1 DUP3 AND DUP1 PUSH2 0x2E1C JUMPI PUSH1 0x7F DUP3 AND SWAP2 POP JUMPDEST PUSH1 0x20 DUP3 LT DUP2 SUB PUSH2 0x2E2F JUMPI PUSH2 0x2E2E PUSH2 0x2DD8 JUMP JUMPDEST JUMPDEST POP SWAP2 SWAP1 POP JUMP JUMPDEST PUSH32 0x4E487B7100000000000000000000000000000000000000000000000000000000 PUSH0 MSTORE PUSH1 0x11 PUSH1 0x4 MSTORE PUSH1 0x24 PUSH0 REVERT JUMPDEST PUSH0 PUSH2 0x2E6C DUP3 PUSH2 0x22A7 JUMP JUMPDEST SWAP2 POP PUSH2 0x2E77 DUP4 PUSH2 0x22A7 JUMP JUMPDEST SWAP3 POP DUP3 DUP3 SUB SWAP1 POP DUP2 DUP2 GT ISZERO PUSH2 0x2E8F JUMPI PUSH2 0x2E8E PUSH2 0x2E35 JUMP JUMPDEST JUMPDEST SWAP3 SWAP2 POP POP JUMP JUMPDEST PUSH32 0x4E487B7100000000000000000000000000000000000000000000000000000000 PUSH0 MSTORE PUSH1 0x32 PUSH1 0x4 MSTORE PUSH1 0x24 PUSH0 REVERT JUMPDEST PUSH0 DUP2 SWAP1 POP SWAP3 SWAP2 POP POP JUMP JUMPDEST PUSH32 0x5468652043616D706169676E2000000000000000000000000000000000000000 PUSH0 DUP3 ADD MSTORE POP JUMP JUMPDEST PUSH0 PUSH2 0x2F00 PUSH1 0xD DUP4 PUSH2 0x2EC2 JUMP JUMPDEST SWAP2 POP PUSH2 0x2F0B DUP3 PUSH2 0x2ECC JUMP JUMPDEST PUSH1 0xD DUP3 ADD SWAP1 POP SWAP2 SWAP1 POP JUMP JUMPDEST PUSH0 DUP2 SWAP1 POP SWAP2 SWAP1 POP JUMP JUMPDEST PUSH2 0x2F30 PUSH2 0x2F2B DUP3 PUSH2 0x22A7 JUMP JUMPDEST PUSH2 0x2F16 JUMP JUMPDEST DUP3 MSTORE POP POP JUMP JUMPDEST PUSH32 0x20446F6573204E4F542045786973742100000000000000000000000000000000 PUSH0 DUP3 ADD MSTORE POP JUMP JUMPDEST PUSH0 PUSH2 0x2F6A PUSH1 0x10 DUP4 PUSH2 0x2EC2 JUMP JUMPDEST SWAP2 POP PUSH2 0x2F75 DUP3 PUSH2 0x2F36 JUMP JUMPDEST PUSH1 0x10 DUP3 ADD SWAP1 POP SWAP2 SWAP1 POP JUMP JUMPDEST PUSH0 PUSH2 0x2F8A DUP3 PUSH2 0x2EF4 JUMP JUMPDEST SWAP2 POP PUSH2 0x2F96 DUP3 DUP5 PUSH2 0x2F1F JUMP JUMPDEST PUSH1 0x20 DUP3 ADD SWAP2 POP PUSH2 0x2FA5 DUP3 PUSH2 0x2F5E JUMP JUMPDEST SWAP2 POP DUP2 SWAP1 POP SWAP3 SWAP2 POP POP JUMP JUMPDEST PUSH0 PUSH1 0x20 DUP3 ADD SWAP1 POP DUP2 DUP2 SUB PUSH0 DUP4 ADD MSTORE PUSH2 0x2FC8 DUP2 DUP5 PUSH2 0x235F JUMP JUMPDEST SWAP1 POP SWAP3 SWAP2 POP POP JUMP JUMPDEST PUSH32 0x2700000000000000000000000000000000000000000000000000000000000000 PUSH0 DUP3 ADD MSTORE POP JUMP JUMPDEST PUSH0 PUSH2 0x3004 PUSH1 0x1 DUP4 PUSH2 0x2EC2 JUMP JUMPDEST SWAP2 POP PUSH2 0x300F DUP3 PUSH2 0x2FD0 JUMP JUMPDEST PUSH1 0x1 DUP3 ADD SWAP1 POP SWAP2 SWAP1 POP JUMP JUMPDEST PUSH0 DUP2 SWAP1 POP DUP2 PUSH0 MSTORE PUSH1 0x20 PUSH0 KECCAK256 SWAP1 POP SWAP2 SWAP1 POP JUMP JUMPDEST PUSH0 DUP2 SLOAD PUSH2 0x3038 DUP2 PUSH2 0x2E05 JUMP JUMPDEST PUSH2 0x3042 DUP2 DUP7 PUSH2 0x2EC2 JUMP JUMPDEST SWAP5 POP PUSH1 0x1 DUP3 AND PUSH0 DUP2 EQ PUSH2 0x305C JUMPI PUSH1 0x1 DUP2 EQ PUSH2 0x3071 JUMPI PUSH2 0x30A3 JUMP JUMPDEST PUSH1 0xFF NOT DUP4 AND DUP7 MSTORE DUP2 ISZERO ISZERO DUP3 MUL DUP7 ADD SWAP4 POP PUSH2 0x30A3 JUMP JUMPDEST PUSH2 0x307A DUP6 PUSH2 0x301A JUMP JUMPDEST PUSH0 JUMPDEST DUP4 DUP2 LT ISZERO PUSH2 0x309B JUMPI DUP2 SLOAD DUP2 DUP10 ADD MSTORE PUSH1 0x1 DUP3 ADD SWAP2 POP PUSH1 0x20 DUP2 ADD SWAP1 POP PUSH2 0x307C JUMP JUMPDEST DUP4 DUP9 ADD SWAP6 POP POP POP JUMPDEST POP POP POP SWAP3 SWAP2 POP POP JUMP JUMPDEST PUSH32 0x272043616D706169676E2057617320436F6D706C657465642100000000000000 PUSH0 DUP3 ADD MSTORE POP JUMP JUMPDEST PUSH0 PUSH2 0x30E0 PUSH1 0x19 DUP4 PUSH2 0x2EC2 JUMP JUMPDEST SWAP2 POP PUSH2 0x30EB DUP3 PUSH2 0x30AC JUMP JUMPDEST PUSH1 0x19 DUP3 ADD SWAP1 POP SWAP2 SWAP1 POP JUMP JUMPDEST PUSH0 PUSH2 0x3100 DUP3 PUSH2 0x2FF8 JUMP JUMPDEST SWAP2 POP PUSH2 0x310C DUP3 DUP5 PUSH2 0x302C JUMP JUMPDEST SWAP2 POP PUSH2 0x3117 DUP3 PUSH2 0x30D4 JUMP JUMPDEST SWAP2 POP DUP2 SWAP1 POP SWAP3 SWAP2 POP POP JUMP JUMPDEST PUSH32 0x416D6F756E742043616E6E6F74206265205A65726F0000000000000000000000 PUSH0 DUP3 ADD MSTORE POP JUMP JUMPDEST PUSH0 PUSH2 0x3156 PUSH1 0x15 DUP4 PUSH2 0x2331 JUMP JUMPDEST SWAP2 POP PUSH2 0x3161 DUP3 PUSH2 0x3122 JUMP JUMPDEST PUSH1 0x20 DUP3 ADD SWAP1 POP SWAP2 SWAP1 POP JUMP JUMPDEST PUSH0 PUSH1 0x20 DUP3 ADD SWAP1 POP DUP2 DUP2 SUB PUSH0 DUP4 ADD MSTORE PUSH2 0x3183 DUP2 PUSH2 0x314A JUMP JUMPDEST SWAP1 POP SWAP2 SWAP1 POP JUMP JUMPDEST PUSH32 0x54686520416D6F756E7420646F65736E2774204D617463682100000000000000 PUSH0 DUP3 ADD MSTORE POP JUMP JUMPDEST PUSH0 PUSH2 0x31BE PUSH1 0x19 DUP4 PUSH2 0x2331 JUMP JUMPDEST SWAP2 POP PUSH2 0x31C9 DUP3 PUSH2 0x318A JUMP JUMPDEST PUSH1 0x20 DUP3 ADD SWAP1 POP SWAP2 SWAP1 POP JUMP JUMPDEST PUSH0 PUSH1 0x20 DUP3 ADD SWAP1 POP DUP2 DUP2 SUB PUSH0 DUP4 ADD MSTORE PUSH2 0x31EB DUP2 PUSH2 0x31B2 JUMP JUMPDEST SWAP1 POP SWAP2 SWAP1 POP JUMP JUMPDEST PUSH0 PUSH2 0x31FC DUP3 PUSH2 0x22A7 JUMP JUMPDEST SWAP2 POP PUSH2 0x3207 DUP4 PUSH2 0x22A7 JUMP JUMPDEST SWAP3 POP DUP3 DUP3 ADD SWAP1 POP DUP1 DUP3 GT ISZERO PUSH2 0x321F JUMPI PUSH2 0x321E PUSH2 0x2E35 JUMP JUMPDEST JUMPDEST SWAP3 SWAP2 POP POP JUMP JUMPDEST PUSH0 DUP2 SWAP1 POP SWAP2 SWAP1 POP JUMP JUMPDEST PUSH0 PUSH2 0x3248 PUSH2 0x3243 PUSH2 0x323E DUP5 PUSH2 0x2222 JUMP JUMPDEST PUSH2 0x3225 JUMP JUMPDEST PUSH2 0x2222 JUMP JUMPDEST SWAP1 POP SWAP2 SWAP1 POP JUMP JUMPDEST PUSH0 PUSH2 0x3259 DUP3 PUSH2 0x322E JUMP JUMPDEST SWAP1 POP SWAP2 SWAP1 POP JUMP JUMPDEST PUSH0 PUSH2 0x326A DUP3 PUSH2 0x324F JUMP JUMPDEST SWAP1 POP SWAP2 SWAP1 POP JUMP JUMPDEST PUSH2 0x327A DUP2 PUSH2 0x3260 JUMP JUMPDEST DUP3 MSTORE POP POP JUMP JUMPDEST PUSH0 PUSH1 0x40 DUP3 ADD SWAP1 POP PUSH2 0x3293 PUSH0 DUP4 ADD DUP6 PUSH2 0x3271 JUMP JUMPDEST PUSH2 0x32A0 PUSH1 0x20 DUP4 ADD DUP5 PUSH2 0x2318 JUMP JUMPDEST SWAP4 SWAP3 POP POP POP JUMP JUMPDEST PUSH0 PUSH1 0x20 PUSH1 0x1F DUP4 ADD DIV SWAP1 POP SWAP2 SWAP1 POP JUMP JUMPDEST PUSH0 DUP3 DUP3 SHL SWAP1 POP SWAP3 SWAP2 POP POP JUMP JUMPDEST PUSH0 PUSH1 0x8 DUP4 MUL PUSH2 0x32F1 PUSH32 0xFFFFFFFFFFFFFFFFFFFFFFFFFFFFFFFFFFFFFFFFFFFFFFFFFFFFFFFFFFFFFFFF DUP3 PUSH2 0x32B6 JUMP JUMPDEST PUSH2 0x32FB DUP7 DUP4 PUSH2 0x32B6 JUMP JUMPDEST SWAP6 POP DUP1 NOT DUP5 AND SWAP4 POP DUP1 DUP7 AND DUP5 OR SWAP3 POP POP POP SWAP4 SWAP3 POP POP POP JUMP JUMPDEST PUSH0 PUSH2 0x332D PUSH2 0x3328 PUSH2 0x3323 DUP5 PUSH2 0x22A7 JUMP JUMPDEST PUSH2 0x3225 JUMP JUMPDEST PUSH2 0x22A7 JUMP JUMPDEST SWAP1 POP SWAP2 SWAP1 POP JUMP JUMPDEST PUSH0 DUP2 SWAP1 POP SWAP2 SWAP1 POP JUMP JUMPDEST PUSH2 0x3346 DUP4 PUSH2 0x3313 JUMP JUMPDEST PUSH2 0x335A PUSH2 0x3352 DUP3 PUSH2 0x3334 JUMP JUMPDEST DUP5 DUP5 SLOAD PUSH2 0x32C2 JUMP JUMPDEST DUP3 SSTORE POP POP POP POP JUMP JUMPDEST PUSH0 SWAP1 JUMP JUMPDEST PUSH2 0x336E PUSH2 0x3362 JUMP JUMPDEST PUSH2 0x3379 DUP2 DUP5 DUP5 PUSH2 0x333D JUMP JUMPDEST POP POP POP JUMP JUMPDEST JUMPDEST DUP2 DUP2 LT ISZERO PUSH2 0x339C JUMPI PUSH2 0x3391 PUSH0 DUP3 PUSH2 0x3366 JUMP JUMPDEST PUSH1 0x1 DUP2 ADD SWAP1 POP PUSH2 0x337F JUMP JUMPDEST POP POP JUMP JUMPDEST PUSH1 0x1F DUP3 GT ISZERO PUSH2 0x33E1 JUMPI PUSH2 0x33B2 DUP2 PUSH2 0x301A JUMP JUMPDEST PUSH2 0x33BB DUP5 PUSH2 0x32A7 JUMP JUMPDEST DUP2 ADD PUSH1 0x20 DUP6 LT ISZERO PUSH2 0x33CA JUMPI DUP2 SWAP1 POP JUMPDEST PUSH2 0x33DE PUSH2 0x33D6 DUP6 PUSH2 0x32A7 JUMP JUMPDEST DUP4 ADD DUP3 PUSH2 0x337E JUMP JUMPDEST POP POP JUMPDEST POP POP POP JUMP JUMPDEST PUSH0 DUP3 DUP3 SHR SWAP1 POP SWAP3 SWAP2 POP POP JUMP JUMPDEST PUSH0 PUSH2 0x3401 PUSH0 NOT DUP5 PUSH1 0x8 MUL PUSH2 0x33E6 JUMP JUMPDEST NOT DUP1 DUP4 AND SWAP2 POP POP SWAP3 SWAP2 POP POP JUMP JUMPDEST PUSH0 PUSH2 0x3419 DUP4 DUP4 PUSH2 0x33F2 JUMP JUMPDEST SWAP2 POP DUP3 PUSH1 0x2 MUL DUP3 OR SWAP1 POP SWAP3 SWAP2 POP POP JUMP JUMPDEST PUSH2 0x3432 DUP3 PUSH2 0x2327 JUMP JUMPDEST PUSH8 0xFFFFFFFFFFFFFFFF DUP2 GT ISZERO PUSH2 0x344B JUMPI PUSH2 0x344A PUSH2 0x2B9E JUMP JUMPDEST JUMPDEST PUSH2 0x3455 DUP3 SLOAD PUSH2 0x2E05 JUMP JUMPDEST PUSH2 0x3460 DUP3 DUP3 DUP6 PUSH2 0x33A0 JUMP JUMPDEST PUSH0 PUSH1 0x20 SWAP1 POP PUSH1 0x1F DUP4 GT PUSH1 0x1 DUP2 EQ PUSH2 0x3491 JUMPI PUSH0 DUP5 ISZERO PUSH2 0x347F JUMPI DUP3 DUP8 ADD MLOAD SWAP1 POP JUMPDEST PUSH2 0x3489 DUP6 DUP3 PUSH2 0x340E JUMP JUMPDEST DUP7 SSTORE POP PUSH2 0x34F0 JUMP JUMPDEST PUSH1 0x1F NOT DUP5 AND PUSH2 0x349F DUP7 PUSH2 0x301A JUMP JUMPDEST PUSH0 JUMPDEST DUP3 DUP2 LT ISZERO PUSH2 0x34C6 JUMPI DUP5 DUP10 ADD MLOAD DUP3 SSTORE PUSH1 0x1 DUP3 ADD SWAP2 POP PUSH1 0x20 DUP6 ADD SWAP5 POP PUSH1 0x20 DUP2 ADD SWAP1 POP PUSH2 0x34A1 JUMP JUMPDEST DUP7 DUP4 LT ISZERO PUSH2 0x34E3 JUMPI DUP5 DUP10 ADD MLOAD PUSH2 0x34DF PUSH1 0x1F DUP10 AND DUP3 PUSH2 0x33F2 JUMP JUMPDEST DUP4 SSTORE POP JUMPDEST PUSH1 0x1 PUSH1 0x2 DUP9 MUL ADD DUP9 SSTORE POP POP POP JUMPDEST POP POP POP POP POP POP JUMP JUMPDEST PUSH0 PUSH1 0x80 DUP3 ADD SWAP1 POP PUSH2 0x350B PUSH0 DUP4 ADD DUP8 PUSH2 0x2397 JUMP JUMPDEST PUSH2 0x3518 PUSH1 0x20 DUP4 ADD DUP7 PUSH2 0x2318 JUMP JUMPDEST PUSH2 0x3525 PUSH1 0x40 DUP4 ADD DUP6 PUSH2 0x3271 JUMP JUMPDEST PUSH2 0x3532 PUSH1 0x60 DUP4 ADD DUP5 PUSH2 0x2318 JUMP JUMPDEST SWAP6 SWAP5 POP POP POP POP POP JUMP JUMPDEST PUSH32 0x5468657265204973204E6F2043616D706169676E204279205468617420616464 PUSH0 DUP3 ADD MSTORE PUSH32 0x7265737321000000000000000000000000000000000000000000000000000000 PUSH1 0x20 DUP3 ADD MSTORE POP JUMP JUMPDEST PUSH0 PUSH2 0x3595 PUSH1 0x25 DUP4 PUSH2 0x2331 JUMP JUMPDEST SWAP2 POP PUSH2 0x35A0 DUP3 PUSH2 0x353B JUMP JUMPDEST PUSH1 0x40 DUP3 ADD SWAP1 POP SWAP2 SWAP1 POP JUMP JUMPDEST PUSH0 PUSH1 0x20 DUP3 ADD SWAP1 POP DUP2 DUP2 SUB PUSH0 DUP4 ADD MSTORE PUSH2 0x35C2 DUP2 PUSH2 0x3589 JUMP JUMPDEST SWAP1 POP SWAP2 SWAP1 POP JUMP JUMPDEST PUSH32 0x5468652043616D706169676E2053706563696669656420446F6573204E6F7420 PUSH0 DUP3 ADD MSTORE PUSH32 0x4578697374210000000000000000000000000000000000000000000000000000 PUSH1 0x20 DUP3 ADD MSTORE POP JUMP JUMPDEST PUSH0 PUSH2 0x3623 PUSH1 0x26 DUP4 PUSH2 0x2331 JUMP JUMPDEST SWAP2 POP PUSH2 0x362E DUP3 PUSH2 0x35C9 JUMP JUMPDEST PUSH1 0x40 DUP3 ADD SWAP1 POP SWAP2 SWAP1 POP JUMP JUMPDEST PUSH0 PUSH1 0x20 DUP3 ADD SWAP1 POP DUP2 DUP2 SUB PUSH0 DUP4 ADD MSTORE PUSH2 0x3650 DUP2 PUSH2 0x3617 JUMP JUMPDEST SWAP1 POP SWAP2 SWAP1 POP JUMP JUMPDEST PUSH32 0x4F6E6C792041646D696E732043616E20506572666F726D205468697320416374 PUSH0 DUP3 ADD MSTORE PUSH32 0x696F6E2100000000000000000000000000000000000000000000000000000000 PUSH1 0x20 DUP3 ADD MSTORE POP JUMP JUMPDEST PUSH0 PUSH2 0x36B1 PUSH1 0x24 DUP4 PUSH2 0x2331 JUMP JUMPDEST SWAP2 POP PUSH2 0x36BC DUP3 PUSH2 0x3657 JUMP JUMPDEST PUSH1 0x40 DUP3 ADD SWAP1 POP SWAP2 SWAP1 POP JUMP JUMPDEST PUSH0 PUSH1 0x20 DUP3 ADD SWAP1 POP DUP2 DUP2 SUB PUSH0 DUP4 ADD MSTORE PUSH2 0x36DE DUP2 PUSH2 0x36A5 JUMP JUMPDEST SWAP1 POP SWAP2 SWAP1 POP JUMP JUMPDEST PUSH32 0x416D6F756E742043616E6E6F74206265205A65726F204F722045786365656420 PUSH0 DUP3 ADD MSTORE PUSH32 0x5468652052616973656420416D6F756E74210000000000000000000000000000 PUSH1 0x20 DUP3 ADD MSTORE POP JUMP JUMPDEST PUSH0 PUSH2 0x373F PUSH1 0x32 DUP4 PUSH2 0x2331 JUMP JUMPDEST SWAP2 POP PUSH2 0x374A DUP3 PUSH2 0x36E5 JUMP JUMPDEST PUSH1 0x40 DUP3 ADD SWAP1 POP SWAP2 SWAP1 POP JUMP JUMPDEST PUSH0 PUSH1 0x20 DUP3 ADD SWAP1 POP DUP2 DUP2 SUB PUSH0 DUP4 ADD MSTORE PUSH2 0x376C DUP2 PUSH2 0x3733 JUMP JUMPDEST SWAP1 POP SWAP2 SWAP1 POP JUMP JUMPDEST PUSH32 0x596F752043616E27742057697468647261772046756E64732066726F6D20616E PUSH0 DUP3 ADD MSTORE PUSH32 0x204163746976652043616D706169676E00000000000000000000000000000000 PUSH1 0x20 DUP3 ADD MSTORE POP JUMP JUMPDEST PUSH0 PUSH2 0x37CD PUSH1 0x30 DUP4 PUSH2 0x2331 JUMP JUMPDEST SWAP2 POP PUSH2 0x37D8 DUP3 PUSH2 0x3773 JUMP JUMPDEST PUSH1 0x40 DUP3 ADD SWAP1 POP SWAP2 SWAP1 POP JUMP JUMPDEST PUSH0 PUSH1 0x20 DUP3 ADD SWAP1 POP DUP2 DUP2 SUB PUSH0 DUP4 ADD MSTORE PUSH2 0x37FA DUP2 PUSH2 0x37C1 JUMP JUMPDEST SWAP1 POP SWAP2 SWAP1 POP JUMP JUMPDEST PUSH32 0x496E73756666696369656E7420636F6E74726163742062616C616E6365000000 PUSH0 DUP3 ADD MSTORE POP JUMP JUMPDEST PUSH0 PUSH2 0x3835 PUSH1 0x1D DUP4 PUSH2 0x2331 JUMP JUMPDEST SWAP2 POP PUSH2 0x3840 DUP3 PUSH2 0x3801 JUMP JUMPDEST PUSH1 0x20 DUP3 ADD SWAP1 POP SWAP2 SWAP1 POP JUMP JUMPDEST PUSH0 PUSH1 0x20 DUP3 ADD SWAP1 POP DUP2 DUP2 SUB PUSH0 DUP4 ADD MSTORE PUSH2 0x3862 DUP2 PUSH2 0x3829 JUMP JUMPDEST SWAP1 POP SWAP2 SWAP1 POP JUMP JUMPDEST PUSH0 DUP2 SWAP1 POP SWAP3 SWAP2 POP POP JUMP JUMPDEST POP JUMP JUMPDEST PUSH0 PUSH2 0x3881 PUSH0 DUP4 PUSH2 0x3869 JUMP JUMPDEST SWAP2 POP PUSH2 0x388C DUP3 PUSH2 0x3873 JUMP JUMPDEST PUSH0 DUP3 ADD SWAP1 POP SWAP2 SWAP1 POP JUMP JUMPDEST PUSH0 PUSH2 0x38A0 DUP3 PUSH2 0x3876 JUMP JUMPDEST SWAP2 POP DUP2 SWAP1 POP SWAP2 SWAP1 POP JUMP JUMPDEST PUSH32 0x5472616E73666572206661696C65640000000000000000000000000000000000 PUSH0 DUP3 ADD MSTORE POP JUMP JUMPDEST PUSH0 PUSH2 0x38DE PUSH1 0xF DUP4 PUSH2 0x2331 JUMP JUMPDEST SWAP2 POP PUSH2 0x38E9 DUP3 PUSH2 0x38AA JUMP JUMPDEST PUSH1 0x20 DUP3 ADD SWAP1 POP SWAP2 SWAP1 POP JUMP JUMPDEST PUSH0 PUSH1 0x20 DUP3 ADD SWAP1 POP DUP2 DUP2 SUB PUSH0 DUP4 ADD MSTORE PUSH2 0x390B DUP2 PUSH2 0x38D2 JUMP JUMPDEST SWAP1 POP SWAP2 SWAP1 POP JUMP JUMPDEST PUSH0 PUSH1 0xA0 DUP3 ADD SWAP1 POP PUSH2 0x3925 PUSH0 DUP4 ADD DUP9 PUSH2 0x2318 JUMP JUMPDEST PUSH2 0x3932 PUSH1 0x20 DUP4 ADD DUP8 PUSH2 0x2397 JUMP JUMPDEST PUSH2 0x393F PUSH1 0x40 DUP4 ADD DUP7 PUSH2 0x3271 JUMP JUMPDEST PUSH2 0x394C PUSH1 0x60 DUP4 ADD DUP6 PUSH2 0x2397 JUMP JUMPDEST PUSH2 0x3959 PUSH1 0x80 DUP4 ADD DUP5 PUSH2 0x2318 JUMP JUMPDEST SWAP7 SWAP6 POP POP POP POP POP POP JUMP JUMPDEST PUSH0 PUSH2 0x396D DUP3 PUSH2 0x2327 JUMP JUMPDEST PUSH2 0x3977 DUP2 DUP6 PUSH2 0x2EC2 JUMP JUMPDEST SWAP4 POP PUSH2 0x3987 DUP2 DUP6 PUSH1 0x20 DUP7 ADD PUSH2 0x2341 JUMP JUMPDEST DUP1 DUP5 ADD SWAP2 POP POP SWAP3 SWAP2 POP POP JUMP JUMPDEST PUSH0 PUSH2 0x399E DUP3 DUP5 PUSH2 0x3963 JUMP JUMPDEST SWAP2 POP DUP2 SWAP1 POP SWAP3 SWAP2 POP POP JUMP JUMPDEST PUSH0 DUP2 SWAP1 POP DUP2 PUSH0 MSTORE PUSH1 0x20 PUSH0 KECCAK256 SWAP1 POP SWAP2 SWAP1 POP JUMP JUMPDEST PUSH0 DUP2 SLOAD PUSH2 0x39C7 DUP2 PUSH2 0x2E05 JUMP JUMPDEST PUSH2 0x39D1 DUP2 DUP7 PUSH2 0x2EC2 JUMP JUMPDEST SWAP5 POP PUSH1 0x1 DUP3 AND PUSH0 DUP2 EQ PUSH2 0x39EB JUMPI PUSH1 0x1 DUP2 EQ PUSH2 0x3A00 JUMPI PUSH2 0x3A32 JUMP JUMPDEST PUSH1 0xFF NOT DUP4 AND DUP7 MSTORE DUP2 ISZERO ISZERO DUP3 MUL DUP7 ADD SWAP4 POP PUSH2 0x3A32 JUMP JUMPDEST PUSH2 0x3A09 DUP6 PUSH2 0x39A9 JUMP JUMPDEST PUSH0 JUMPDEST DUP4 DUP2 LT ISZERO PUSH2 0x3A2A JUMPI DUP2 SLOAD DUP2 DUP10 ADD MSTORE PUSH1 0x1 DUP3 ADD SWAP2 POP PUSH1 0x20 DUP2 ADD SWAP1 POP PUSH2 0x3A0B JUMP JUMPDEST DUP4 DUP9 ADD SWAP6 POP POP POP JUMPDEST POP POP POP SWAP3 SWAP2 POP POP JUMP JUMPDEST PUSH0 PUSH2 0x3A46 DUP3 DUP5 PUSH2 0x39BB JUMP JUMPDEST SWAP2 POP DUP2 SWAP1 POP SWAP3 SWAP2 POP POP JUMP JUMPDEST PUSH32 0x43616D706169676E200000000000000000000000000000000000000000000000 PUSH0 DUP3 ADD MSTORE POP JUMP JUMPDEST PUSH0 PUSH2 0x3A85 PUSH1 0x9 DUP4 PUSH2 0x2EC2 JUMP JUMPDEST SWAP2 POP PUSH2 0x3A90 DUP3 PUSH2 0x3A51 JUMP JUMPDEST PUSH1 0x9 DUP3 ADD SWAP1 POP SWAP2 SWAP1 POP JUMP JUMPDEST PUSH32 0x20616C7265616479206578697374732100000000000000000000000000000000 PUSH0 DUP3 ADD MSTORE POP JUMP JUMPDEST PUSH0 PUSH2 0x3ACF PUSH1 0x10 DUP4 PUSH2 0x2EC2 JUMP JUMPDEST SWAP2 POP PUSH2 0x3ADA DUP3 PUSH2 0x3A9B JUMP JUMPDEST PUSH1 0x10 DUP3 ADD SWAP1 POP SWAP2 SWAP1 POP JUMP JUMPDEST PUSH0 PUSH2 0x3AEF DUP3 PUSH2 0x3A79 JUMP JUMPDEST SWAP2 POP PUSH2 0x3AFB DUP3 DUP5 PUSH2 0x3963 JUMP JUMPDEST SWAP2 POP PUSH2 0x3B06 DUP3 PUSH2 0x3AC3 JUMP JUMPDEST SWAP2 POP DUP2 SWAP1 POP SWAP3 SWAP2 POP POP JUMP JUMPDEST PUSH0 PUSH1 0x80 DUP3 ADD SWAP1 POP PUSH2 0x3B24 PUSH0 DUP4 ADD DUP8 PUSH2 0x2318 JUMP JUMPDEST PUSH2 0x3B31 PUSH1 0x20 DUP4 ADD DUP7 PUSH2 0x2397 JUMP JUMPDEST DUP2 DUP2 SUB PUSH1 0x40 DUP4 ADD MSTORE PUSH2 0x3B43 DUP2 DUP6 PUSH2 0x235F JUMP JUMPDEST SWAP1 POP PUSH2 0x3B52 PUSH1 0x60 DUP4 ADD DUP5 PUSH2 0x2318 JUMP JUMPDEST SWAP6 SWAP5 POP POP POP POP POP JUMP INVALID LOG2 PUSH5 0x6970667358 0x22 SLT KECCAK256 0xB1 0xC9 0xBC 0xE9 SUB 0xCE 0xD7 0xD8 LOG1 DUP9 BASEFEE 0xAD 0xE0 0x4E 0xCC 0xE7 DELEGATECALL BLOCKHASH 0x28 SWAP7 0xD2 LOG3 JUMPDEST CALL 0x2F EXTCODECOPY PUSH2 0xDA0E ADD 0xAE PUSH2 0x6473 PUSH16 0x6C634300081A00330000000000000000 "
		},
		"gasEstimates": {
			"creation": {
				"codeDepositCost": "3049800",
				"executionCost": "27620",
				"totalCost": "3077420"
			},
			"external": {
				"addCampaignAdmins(address)": "infinite",
				"admins(address,address)": "infinite",
				"campaignAdmins(address,uint256)": "infinite",
				"campaigns(address,uint256)": "infinite",
				"createCampaign(string,string,uint256)": "infinite",
				"donateToCampaign(address,uint256,uint256)": "infinite",
				"donors(address,uint256)": "infinite",
				"getContractBalance()": "357",
				"viewCampaignAdmins(address)": "infinite",
				"viewCampaigns()": "infinite",
				"viewDonations()": "infinite",
				"viewWithdrawals(address)": "infinite",
				"withdrawFunds(uint256,address,uint256,address)": "infinite",
				"withdrawals(address,uint256)": "infinite"
			}
		},
		"methodIdentifiers": {
			"addCampaignAdmins(address)": "060a4524",
			"admins(address,address)": "be21739e",
			"campaignAdmins(address,uint256)": "1f55e5bc",
			"campaigns(address,uint256)": "11555dbc",
			"createCampaign(string,string,uint256)": "ffa56a57",
			"donateToCampaign(address,uint256,uint256)": "5a3915cd",
			"donors(address,uint256)": "9b56f5f0",
			"getContractBalance()": "6f9fb98a",
			"viewCampaignAdmins(address)": "28f5bd9b",
			"viewCampaigns()": "366919e9",
			"viewDonations()": "e81c411d",
			"viewWithdrawals(address)": "df171c0d",
			"withdrawFunds(uint256,address,uint256,address)": "c14b8aac",
			"withdrawals(address,uint256)": "422b1077"
		}
	},
	"abi": [
		{
			"inputs": [],
			"stateMutability": "nonpayable",
			"type": "constructor"
		},
		{
			"anonymous": false,
			"inputs": [
				{
					"indexed": false,
					"internalType": "address",
					"name": "admin",
					"type": "address"
				}
			],
			"name": "AddAdmin",
			"type": "event"
		},
		{
			"anonymous": false,
			"inputs": [
				{
					"indexed": false,
					"internalType": "address",
					"name": "campaignAddress",
					"type": "address"
				},
				{
					"indexed": false,
					"internalType": "uint256",
					"name": "campaign_id",
					"type": "uint256"
				}
			],
			"name": "CampaignCompleted",
			"type": "event"
		},
		{
			"anonymous": false,
			"inputs": [
				{
					"indexed": false,
					"internalType": "uint256",
					"name": "campaign_id",
					"type": "uint256"
				},
				{
					"indexed": false,
					"internalType": "address",
					"name": "campaignAddress",
					"type": "address"
				},
				{
					"indexed": false,
					"internalType": "string",
					"name": "title",
					"type": "string"
				},
				{
					"indexed": false,
					"internalType": "uint256",
					"name": "targetAmount",
					"type": "uint256"
				}
			],
			"name": "CampaignCreated",
			"type": "event"
		},
		{
			"anonymous": false,
			"inputs": [
				{
					"indexed": false,
					"internalType": "address",
					"name": "donor",
					"type": "address"
				},
				{
					"indexed": false,
					"internalType": "uint256",
					"name": "amount",
					"type": "uint256"
				},
				{
					"indexed": false,
					"internalType": "address",
					"name": "campaignAddress",
					"type": "address"
				},
				{
					"indexed": false,
					"internalType": "uint256",
					"name": "campaign_id",
					"type": "uint256"
				}
			],
			"name": "DonationReceived",
			"type": "event"
		},
		{
			"anonymous": false,
			"inputs": [
				{
					"indexed": false,
					"internalType": "uint256",
					"name": "amount",
					"type": "uint256"
				},
				{
					"indexed": false,
					"internalType": "address",
					"name": "by",
					"type": "address"
				},
				{
					"indexed": false,
					"internalType": "address",
					"name": "to",
					"type": "address"
				},
				{
					"indexed": false,
					"internalType": "address",
					"name": "from",
					"type": "address"
				},
				{
					"indexed": false,
					"internalType": "uint256",
					"name": "campaignId",
					"type": "uint256"
				}
			],
			"name": "FundsWithdrawn",
			"type": "event"
		},
		{
			"inputs": [
				{
					"internalType": "address",
					"name": "_admin",
					"type": "address"
				}
			],
			"name": "addCampaignAdmins",
			"outputs": [],
			"stateMutability": "nonpayable",
			"type": "function"
		},
		{
			"inputs": [
				{
					"internalType": "address",
					"name": "",
					"type": "address"
				},
				{
					"internalType": "address",
					"name": "",
					"type": "address"
				}
			],
			"name": "admins",
			"outputs": [
				{
					"internalType": "bool",
					"name": "",
					"type": "bool"
				}
			],
			"stateMutability": "view",
			"type": "function"
		},
		{
			"inputs": [
				{
					"internalType": "address",
					"name": "",
					"type": "address"
				},
				{
					"internalType": "uint256",
					"name": "",
					"type": "uint256"
				}
			],
			"name": "campaignAdmins",
			"outputs": [
				{
					"internalType": "address",
					"name": "",
					"type": "address"
				}
			],
			"stateMutability": "view",
			"type": "function"
		},
		{
			"inputs": [
				{
					"internalType": "address",
					"name": "",
					"type": "address"
				},
				{
					"internalType": "uint256",
					"name": "",
					"type": "uint256"
				}
			],
			"name": "campaigns",
			"outputs": [
				{
					"internalType": "uint256",
					"name": "campaign_id",
					"type": "uint256"
				},
				{
					"internalType": "string",
					"name": "title",
					"type": "string"
				},
				{
					"internalType": "string",
					"name": "description",
					"type": "string"
				},
				{
					"internalType": "address",
					"name": "campaignAddress",
					"type": "address"
				},
				{
					"internalType": "uint256",
					"name": "targetAmount",
					"type": "uint256"
				},
				{
					"internalType": "uint256",
					"name": "raisedAmount",
					"type": "uint256"
				},
				{
					"internalType": "bool",
					"name": "isCompleted",
					"type": "bool"
				}
			],
			"stateMutability": "view",
			"type": "function"
		},
		{
			"inputs": [
				{
					"internalType": "string",
					"name": "_title",
					"type": "string"
				},
				{
					"internalType": "string",
					"name": "_description",
					"type": "string"
				},
				{
					"internalType": "uint256",
					"name": "_target",
					"type": "uint256"
				}
			],
			"name": "createCampaign",
			"outputs": [],
			"stateMutability": "nonpayable",
			"type": "function"
		},
		{
			"inputs": [
				{
					"internalType": "address payable",
					"name": "_campaignAddress",
					"type": "address"
				},
				{
					"internalType": "uint256",
					"name": "_campaignId",
					"type": "uint256"
				},
				{
					"internalType": "uint256",
					"name": "_amount",
					"type": "uint256"
				}
			],
			"name": "donateToCampaign",
			"outputs": [],
			"stateMutability": "payable",
			"type": "function"
		},
		{
			"inputs": [
				{
					"internalType": "address",
					"name": "",
					"type": "address"
				},
				{
					"internalType": "uint256",
					"name": "",
					"type": "uint256"
				}
			],
			"name": "donors",
			"outputs": [
				{
					"internalType": "address",
					"name": "campaignAddress",
					"type": "address"
				},
				{
					"internalType": "uint256",
					"name": "campaignId",
					"type": "uint256"
				},
				{
					"internalType": "string",
					"name": "title",
					"type": "string"
				},
				{
					"internalType": "uint256",
					"name": "amount",
					"type": "uint256"
				}
			],
			"stateMutability": "view",
			"type": "function"
		},
		{
			"inputs": [],
			"name": "getContractBalance",
			"outputs": [
				{
					"internalType": "uint256",
					"name": "",
					"type": "uint256"
				}
			],
			"stateMutability": "view",
			"type": "function"
		},
		{
			"inputs": [
				{
					"internalType": "address",
					"name": "_campaignAddress",
					"type": "address"
				}
			],
			"name": "viewCampaignAdmins",
			"outputs": [
				{
					"internalType": "address[]",
					"name": "",
					"type": "address[]"
				}
			],
			"stateMutability": "view",
			"type": "function"
		},
		{
			"inputs": [],
			"name": "viewCampaigns",
			"outputs": [
				{
					"components": [
						{
							"internalType": "uint256",
							"name": "campaign_id",
							"type": "uint256"
						},
						{
							"internalType": "string",
							"name": "title",
							"type": "string"
						},
						{
							"internalType": "string",
							"name": "description",
							"type": "string"
						},
						{
							"internalType": "address",
							"name": "campaignAddress",
							"type": "address"
						},
						{
							"internalType": "uint256",
							"name": "targetAmount",
							"type": "uint256"
						},
						{
							"internalType": "uint256",
							"name": "raisedAmount",
							"type": "uint256"
						},
						{
							"internalType": "bool",
							"name": "isCompleted",
							"type": "bool"
						}
					],
					"internalType": "struct CharityDonation.Campaign[]",
					"name": "",
					"type": "tuple[]"
				}
			],
			"stateMutability": "view",
			"type": "function"
		},
		{
			"inputs": [],
			"name": "viewDonations",
			"outputs": [
				{
					"components": [
						{
							"internalType": "address",
							"name": "campaignAddress",
							"type": "address"
						},
						{
							"internalType": "uint256",
							"name": "campaignId",
							"type": "uint256"
						},
						{
							"internalType": "string",
							"name": "title",
							"type": "string"
						},
						{
							"internalType": "uint256",
							"name": "amount",
							"type": "uint256"
						}
					],
					"internalType": "struct CharityDonation.Donation[]",
					"name": "",
					"type": "tuple[]"
				}
			],
			"stateMutability": "view",
			"type": "function"
		},
		{
			"inputs": [
				{
					"internalType": "address",
					"name": "_campaignAddress",
					"type": "address"
				}
			],
			"name": "viewWithdrawals",
			"outputs": [
				{
					"components": [
						{
							"internalType": "uint256",
							"name": "campaignId",
							"type": "uint256"
						},
						{
							"internalType": "string",
							"name": "title",
							"type": "string"
						},
						{
							"internalType": "uint256",
							"name": "amount",
							"type": "uint256"
						},
						{
							"internalType": "address",
							"name": "by",
							"type": "address"
						},
						{
							"internalType": "address",
							"name": "to",
							"type": "address"
						}
					],
					"internalType": "struct CharityDonation.Withdrawals[]",
					"name": "",
					"type": "tuple[]"
				}
			],
			"stateMutability": "view",
			"type": "function"
		},
		{
			"inputs": [
				{
					"internalType": "uint256",
					"name": "_campaignId",
					"type": "uint256"
				},
				{
					"internalType": "address",
					"name": "_campaignAddress",
					"type": "address"
				},
				{
					"internalType": "uint256",
					"name": "_amount",
					"type": "uint256"
				},
				{
					"internalType": "address payable",
					"name": "_to",
					"type": "address"
				}
			],
			"name": "withdrawFunds",
			"outputs": [],
			"stateMutability": "nonpayable",
			"type": "function"
		},
		{
			"inputs": [
				{
					"internalType": "address",
					"name": "",
					"type": "address"
				},
				{
					"internalType": "uint256",
					"name": "",
					"type": "uint256"
				}
			],
			"name": "withdrawals",
			"outputs": [
				{
					"internalType": "uint256",
					"name": "campaignId",
					"type": "uint256"
				},
				{
					"internalType": "string",
					"name": "title",
					"type": "string"
				},
				{
					"internalType": "uint256",
					"name": "amount",
					"type": "uint256"
				},
				{
					"internalType": "address",
					"name": "by",
					"type": "address"
				},
				{
					"internalType": "address",
					"name": "to",
					"type": "address"
				}
			],
			"stateMutability": "view",
			"type": "function"
		}
	]
}