{
	"data": {
		"bytecode": {
			"linkReferences": {},
			"object": "6080604052348015600e575f80fd5b503360065f6101000a81548173ffffffffffffffffffffffffffffffffffffffff021916908373ffffffffffffffffffffffffffffffffffffffff1602179055506128218061005c5f395ff3fe608060405234801561000f575f80fd5b50600436106100a7575f3560e01c80636f9fb98a1161006f5780636f9fb98a1461017f5780639b56f5f01461019d578063be18fda6146101d0578063be21739e146101ec578063e6c9099a1461021c578063f1694aa11461024d576100a7565b806311555dbc146100ab5780631f55e5bc146100e3578063215c0bbb1461011357806339e9412f1461012f578063422b10771461014b575b5f80fd5b6100c560048036038101906100c09190611bcf565b610269565b6040516100da99989796959493929190611cb5565b60405180910390f35b6100fd60048036038101906100f89190611bcf565b610410565b60405161010a9190611d4e565b60405180910390f35b61012d60048036038101906101289190611d67565b610458565b005b61014960048036038101906101449190611d67565b610cc2565b005b61016560048036038101906101609190611bcf565b611246565b604051610176959493929190611da5565b60405180910390f35b610187611356565b6040516101949190611dfd565b60405180910390f35b6101b760048036038101906101b29190611bcf565b6113ec565b6040516101c79493929190611e16565b60405180910390f35b6101ea60048036038101906101e59190611e60565b6114d7565b005b61020660048036038101906102019190611e8b565b61176e565b6040516102139190611ec9565b60405180910390f35b61023660048036038101906102319190611ee2565b611798565b604051610244929190611f32565b60405180910390f35b61026760048036038101906102629190611e60565b6117fc565b005b5f602052815f5260405f208181548110610281575f80fd5b905f5260205f2090600802015f9150915050805f0154908060010180546102a790611f86565b80601f01602080910402602001604051908101604052809291908181526020018280546102d390611f86565b801561031e5780601f106102f55761010080835404028352916020019161031e565b820191905f5260205f20905b81548152906001019060200180831161030157829003601f168201915b50505050509080600201805461033390611f86565b80601f016020809104026020016040519081016040528092919081815260200182805461035f90611f86565b80156103aa5780601f10610381576101008083540402835291602001916103aa565b820191905f5260205f20905b81548152906001019060200180831161038d57829003601f168201915b505050505090806003015f9054906101000a900473ffffffffffffffffffffffffffffffffffffffff1690806004015490806005015490806006015490806007015f9054906101000a900460ff16908060070160019054906101000a900460ff16905089565b6002602052815f5260405f208181548110610429575f80fd5b905f5260205f20015f915091509054906101000a900473ffffffffffffffffffffffffffffffffffffffff1681565b80825f805f8473ffffffffffffffffffffffffffffffffffffffff1673ffffffffffffffffffffffffffffffffffffffff1681526020019081526020015f2080549050116104db576040517f08c379a00000000000000000000000000000000000000000000000000000000081526004016104d290612026565b60405180910390fd5b805f808473ffffffffffffffffffffffffffffffffffffffff1673ffffffffffffffffffffffffffffffffffffffff1681526020019081526020015f206001836105259190612071565b81548110610536576105356120a4565b5b905f5260205f2090600802015f015414610585576040517f08c379a000000000000000000000000000000000000000000000000000000000815260040161057c90612141565b60405180910390fd5b60015f8373ffffffffffffffffffffffffffffffffffffffff1673ffffffffffffffffffffffffffffffffffffffff1681526020019081526020015f205f3373ffffffffffffffffffffffffffffffffffffffff1673ffffffffffffffffffffffffffffffffffffffff1681526020019081526020015f205f9054906101000a900460ff16610649576040517f08c379a0000000000000000000000000000000000000000000000000000000008152600401610640906121cf565b60405180910390fd5b5f805f8573ffffffffffffffffffffffffffffffffffffffff1673ffffffffffffffffffffffffffffffffffffffff1681526020019081526020015f206001866106939190612071565b815481106106a4576106a36120a4565b5b905f5260205f209060080201604051806101200160405290815f82015481526020016001820180546106d590611f86565b80601f016020809104026020016040519081016040528092919081815260200182805461070190611f86565b801561074c5780601f106107235761010080835404028352916020019161074c565b820191905f5260205f20905b81548152906001019060200180831161072f57829003601f168201915b5050505050815260200160028201805461076590611f86565b80601f016020809104026020016040519081016040528092919081815260200182805461079190611f86565b80156107dc5780601f106107b3576101008083540402835291602001916107dc565b820191905f5260205f20905b8154815290600101906020018083116107bf57829003601f168201915b50505050508152602001600382015f9054906101000a900473ffffffffffffffffffffffffffffffffffffffff1673ffffffffffffffffffffffffffffffffffffffff1673ffffffffffffffffffffffffffffffffffffffff168152602001600482015481526020016005820154815260200160068201548152602001600782015f9054906101000a900460ff161515151581526020016007820160019054906101000a900460ff161515151581525050905080608001518160a00151106108d9576040517f08c379a00000000000000000000000000000000000000000000000000000000081526004016108d09061225d565b60405180910390fd5b8060a00151471015610920576040517f08c379a0000000000000000000000000000000000000000000000000000000008152600401610917906122c5565b60405180910390fd5b5f60055f8673ffffffffffffffffffffffffffffffffffffffff1673ffffffffffffffffffffffffffffffffffffffff1681526020019081526020015f205f8781526020019081526020015f2090505f80805f5b8480549050811015610bfc575f858281548110610994576109936120a4565b5b905f5260205f2090600202016001015490505f8683815481106109ba576109b96120a4565b5b905f5260205f2090600202015f015f9054906101000a900473ffffffffffffffffffffffffffffffffffffffff1690505f808c73ffffffffffffffffffffffffffffffffffffffff1673ffffffffffffffffffffffffffffffffffffffff1681526020019081526020015f2060018d610a339190612071565b81548110610a4457610a436120a4565b5b905f5260205f2090600802016005015494508185610a629190612071565b9350835f808d73ffffffffffffffffffffffffffffffffffffffff1673ffffffffffffffffffffffffffffffffffffffff1681526020019081526020015f2060018e610aae9190612071565b81548110610abf57610abe6120a4565b5b905f5260205f209060080201600501819055505f878481548110610ae657610ae56120a4565b5b905f5260205f209060020201600101819055505f8173ffffffffffffffffffffffffffffffffffffffff1683604051610b1e90612310565b5f6040518083038185875af1925050503d805f8114610b58576040519150601f19603f3d011682016040523d82523d5f602084013e610b5d565b606091505b5050905080610ba1576040517f08c379a0000000000000000000000000000000000000000000000000000000008152600401610b989061236e565b60405180910390fd5b8287610bad919061238c565b96507fc7106caa0225138e1482298fe211390f77622cb0be261616f08271e23660553d8c8e8486604051610be494939291906123bf565b60405180910390a15050508080600101915050610974565b50828560a00151148015610c7857505f805f8a73ffffffffffffffffffffffffffffffffffffffff1673ffffffffffffffffffffffffffffffffffffffff1681526020019081526020015f2060018b610c559190612071565b81548110610c6657610c656120a4565b5b905f5260205f20906008020160050154145b610cb7576040517f08c379a0000000000000000000000000000000000000000000000000000000008152600401610cae9061244c565b60405180910390fd5b505050505050505050565b80825f805f8473ffffffffffffffffffffffffffffffffffffffff1673ffffffffffffffffffffffffffffffffffffffff1681526020019081526020015f208054905011610d45576040517f08c379a0000000000000000000000000000000000000000000000000000000008152600401610d3c90612026565b60405180910390fd5b805f808473ffffffffffffffffffffffffffffffffffffffff1673ffffffffffffffffffffffffffffffffffffffff1681526020019081526020015f20600183610d8f9190612071565b81548110610da057610d9f6120a4565b5b905f5260205f2090600802015f015414610def576040517f08c379a0000000000000000000000000000000000000000000000000000000008152600401610de690612141565b60405180910390fd5b60015f8373ffffffffffffffffffffffffffffffffffffffff1673ffffffffffffffffffffffffffffffffffffffff1681526020019081526020015f205f3373ffffffffffffffffffffffffffffffffffffffff1673ffffffffffffffffffffffffffffffffffffffff1681526020019081526020015f205f9054906101000a900460ff16610eb3576040517f08c379a0000000000000000000000000000000000000000000000000000000008152600401610eaa906121cf565b60405180910390fd5b5f805f8573ffffffffffffffffffffffffffffffffffffffff1673ffffffffffffffffffffffffffffffffffffffff1681526020019081526020015f20600186610efd9190612071565b81548110610f0e57610f0d6120a4565b5b905f5260205f209060080201604051806101200160405290815f8201548152602001600182018054610f3f90611f86565b80601f0160208091040260200160405190810160405280929190818152602001828054610f6b90611f86565b8015610fb65780601f10610f8d57610100808354040283529160200191610fb6565b820191905f5260205f20905b815481529060010190602001808311610f9957829003601f168201915b50505050508152602001600282018054610fcf90611f86565b80601f0160208091040260200160405190810160405280929190818152602001828054610ffb90611f86565b80156110465780601f1061101d57610100808354040283529160200191611046565b820191905f5260205f20905b81548152906001019060200180831161102957829003601f168201915b50505050508152602001600382015f9054906101000a900473ffffffffffffffffffffffffffffffffffffffff1673ffffffffffffffffffffffffffffffffffffffff1673ffffffffffffffffffffffffffffffffffffffff168152602001600482015481526020016005820154815260200160068201548152602001600782015f9054906101000a900460ff161515151581526020016007820160019054906101000a900460ff16151515158152505090505f8160a001511461113f576040517f08c379a000000000000000000000000000000000000000000000000000000000815260040161113690612500565b60405180910390fd5b8060e0015115611184576040517f08c379a000000000000000000000000000000000000000000000000000000000815260040161117b9061258e565b60405180910390fd5b60015f808673ffffffffffffffffffffffffffffffffffffffff1673ffffffffffffffffffffffffffffffffffffffff1681526020019081526020015f206001876111cf9190612071565b815481106111e0576111df6120a4565b5b905f5260205f20906008020160070160016101000a81548160ff0219169083151502179055507fddf13b23f5aa44ed82e83c974bb182744638f745e4bcf56ac5343bc41a67ad558486604051611237929190611f32565b60405180910390a15050505050565b6004602052815f5260405f20818154811061125f575f80fd5b905f5260205f2090600502015f9150915050805f01549080600101805461128590611f86565b80601f01602080910402602001604051908101604052809291908181526020018280546112b190611f86565b80156112fc5780601f106112d3576101008083540402835291602001916112fc565b820191905f5260205f20905b8154815290600101906020018083116112df57829003601f168201915b505050505090806002015490806003015f9054906101000a900473ffffffffffffffffffffffffffffffffffffffff1690806004015f9054906101000a900473ffffffffffffffffffffffffffffffffffffffff16905085565b5f60065f9054906101000a900473ffffffffffffffffffffffffffffffffffffffff1673ffffffffffffffffffffffffffffffffffffffff163373ffffffffffffffffffffffffffffffffffffffff16146113e6576040517f08c379a00000000000000000000000000000000000000000000000000000000081526004016113dd9061261c565b60405180910390fd5b47905090565b6003602052815f5260405f208181548110611405575f80fd5b905f5260205f2090600402015f9150915050805f015f9054906101000a900473ffffffffffffffffffffffffffffffffffffffff169080600101549080600201805461145090611f86565b80601f016020809104026020016040519081016040528092919081815260200182805461147c90611f86565b80156114c75780601f1061149e576101008083540402835291602001916114c7565b820191905f5260205f20905b8154815290600101906020018083116114aa57829003601f168201915b5050505050908060030154905084565b8073ffffffffffffffffffffffffffffffffffffffff163373ffffffffffffffffffffffffffffffffffffffff1603611545576040517f08c379a000000000000000000000000000000000000000000000000000000000815260040161153c906126aa565b60405180910390fd5b60015f3373ffffffffffffffffffffffffffffffffffffffff1673ffffffffffffffffffffffffffffffffffffffff1681526020019081526020015f205f8273ffffffffffffffffffffffffffffffffffffffff1673ffffffffffffffffffffffffffffffffffffffff1681526020019081526020015f205f9054906101000a900460ff161561160a576040517f08c379a000000000000000000000000000000000000000000000000000000000815260040161160190612738565b60405180910390fd5b6001805f3373ffffffffffffffffffffffffffffffffffffffff1673ffffffffffffffffffffffffffffffffffffffff1681526020019081526020015f205f8373ffffffffffffffffffffffffffffffffffffffff1673ffffffffffffffffffffffffffffffffffffffff1681526020019081526020015f205f6101000a81548160ff02191690831515021790555060025f3373ffffffffffffffffffffffffffffffffffffffff1673ffffffffffffffffffffffffffffffffffffffff1681526020019081526020015f2081908060018154018082558091505060019003905f5260205f20015f9091909190916101000a81548173ffffffffffffffffffffffffffffffffffffffff021916908373ffffffffffffffffffffffffffffffffffffffff1602179055507fad6de4452a631e641cb59902236607946ce9272b9b981f2f80e8d129cb9084ba816040516117639190611d4e565b60405180910390a150565b6001602052815f5260405f20602052805f5260405f205f915091509054906101000a900460ff1681565b6005602052825f5260405f20602052815f5260405f2081815481106117bb575f80fd5b905f5260205f2090600202015f925092505050805f015f9054906101000a900473ffffffffffffffffffffffffffffffffffffffff16908060010154905082565b60015f3373ffffffffffffffffffffffffffffffffffffffff1673ffffffffffffffffffffffffffffffffffffffff1681526020019081526020015f205f8273ffffffffffffffffffffffffffffffffffffffff1673ffffffffffffffffffffffffffffffffffffffff1681526020019081526020015f205f9054906101000a900460ff166118c0576040517f08c379a00000000000000000000000000000000000000000000000000000000081526004016118b7906127a0565b60405180910390fd5b5f60015f3373ffffffffffffffffffffffffffffffffffffffff1673ffffffffffffffffffffffffffffffffffffffff1681526020019081526020015f205f8373ffffffffffffffffffffffffffffffffffffffff1673ffffffffffffffffffffffffffffffffffffffff1681526020019081526020015f205f6101000a81548160ff0219169083151502179055505f60025f3373ffffffffffffffffffffffffffffffffffffffff1673ffffffffffffffffffffffffffffffffffffffff1681526020019081526020015f2090505f5b8180549050811015611b02578273ffffffffffffffffffffffffffffffffffffffff168282815481106119c7576119c66120a4565b5b905f5260205f20015f9054906101000a900473ffffffffffffffffffffffffffffffffffffffff1673ffffffffffffffffffffffffffffffffffffffff1603611af5578160018380549050611a1c9190612071565b81548110611a2d57611a2c6120a4565b5b905f5260205f20015f9054906101000a900473ffffffffffffffffffffffffffffffffffffffff16828281548110611a6857611a676120a4565b5b905f5260205f20015f6101000a81548173ffffffffffffffffffffffffffffffffffffffff021916908373ffffffffffffffffffffffffffffffffffffffff16021790555081805480611abe57611abd6127be565b5b600190038181905f5260205f20015f6101000a81549073ffffffffffffffffffffffffffffffffffffffff02191690559055611b02565b8080600101915050611991565b507f753f40ca3312b2408759a67875b367955e7baa221daf08aa3d643d96202ac12b82604051611b329190611d4e565b60405180910390a15050565b5f80fd5b5f73ffffffffffffffffffffffffffffffffffffffff82169050919050565b5f611b6b82611b42565b9050919050565b611b7b81611b61565b8114611b85575f80fd5b50565b5f81359050611b9681611b72565b92915050565b5f819050919050565b611bae81611b9c565b8114611bb8575f80fd5b50565b5f81359050611bc981611ba5565b92915050565b5f8060408385031215611be557611be4611b3e565b5b5f611bf285828601611b88565b9250506020611c0385828601611bbb565b9150509250929050565b611c1681611b9c565b82525050565b5f81519050919050565b5f82825260208201905092915050565b8281835e5f83830152505050565b5f601f19601f8301169050919050565b5f611c5e82611c1c565b611c688185611c26565b9350611c78818560208601611c36565b611c8181611c44565b840191505092915050565b611c9581611b61565b82525050565b5f8115159050919050565b611caf81611c9b565b82525050565b5f61012082019050611cc95f83018c611c0d565b8181036020830152611cdb818b611c54565b90508181036040830152611cef818a611c54565b9050611cfe6060830189611c8c565b611d0b6080830188611c0d565b611d1860a0830187611c0d565b611d2560c0830186611c0d565b611d3260e0830185611ca6565b611d40610100830184611ca6565b9a9950505050505050505050565b5f602082019050611d615f830184611c8c565b92915050565b5f8060408385031215611d7d57611d7c611b3e565b5b5f611d8a85828601611bbb565b9250506020611d9b85828601611b88565b9150509250929050565b5f60a082019050611db85f830188611c0d565b8181036020830152611dca8187611c54565b9050611dd96040830186611c0d565b611de66060830185611c8c565b611df36080830184611c8c565b9695505050505050565b5f602082019050611e105f830184611c0d565b92915050565b5f608082019050611e295f830187611c8c565b611e366020830186611c0d565b8181036040830152611e488185611c54565b9050611e576060830184611c0d565b95945050505050565b5f60208284031215611e7557611e74611b3e565b5b5f611e8284828501611b88565b91505092915050565b5f8060408385031215611ea157611ea0611b3e565b5b5f611eae85828601611b88565b9250506020611ebf85828601611b88565b9150509250929050565b5f602082019050611edc5f830184611ca6565b92915050565b5f805f60608486031215611ef957611ef8611b3e565b5b5f611f0686828701611b88565b9350506020611f1786828701611bbb565b9250506040611f2886828701611bbb565b9150509250925092565b5f604082019050611f455f830185611c8c565b611f526020830184611c0d565b9392505050565b7f4e487b71000000000000000000000000000000000000000000000000000000005f52602260045260245ffd5b5f6002820490506001821680611f9d57607f821691505b602082108103611fb057611faf611f59565b5b50919050565b7f5468657265204973204e6f2043616d706169676e2042792054686174206164645f8201527f7265737321000000000000000000000000000000000000000000000000000000602082015250565b5f612010602583611c26565b915061201b82611fb6565b604082019050919050565b5f6020820190508181035f83015261203d81612004565b9050919050565b7f4e487b71000000000000000000000000000000000000000000000000000000005f52601160045260245ffd5b5f61207b82611b9c565b915061208683611b9c565b925082820390508181111561209e5761209d612044565b5b92915050565b7f4e487b71000000000000000000000000000000000000000000000000000000005f52603260045260245ffd5b7f5468652043616d706169676e2053706563696669656420446f6573204e6f74205f8201527f4578697374210000000000000000000000000000000000000000000000000000602082015250565b5f61212b602683611c26565b9150612136826120d1565b604082019050919050565b5f6020820190508181035f8301526121588161211f565b9050919050565b7f4f6e6c792041646d696e732043616e20506572666f726d2054686973204163745f8201527f696f6e2100000000000000000000000000000000000000000000000000000000602082015250565b5f6121b9602483611c26565b91506121c48261215f565b604082019050919050565b5f6020820190508181035f8301526121e6816121ad565b9050919050565b7f546869732043616d706169676e204973205375636365737366756c2043616e6e5f8201527f6f742062652043616e63656c6c65642100000000000000000000000000000000602082015250565b5f612247603083611c26565b9150612252826121ed565b604082019050919050565b5f6020820190508181035f8301526122748161223b565b9050919050565b7f496e73756666696369656e7420636f6e74726163742062616c616e63650000005f82015250565b5f6122af601d83611c26565b91506122ba8261227b565b602082019050919050565b5f6020820190508181035f8301526122dc816122a3565b9050919050565b5f81905092915050565b50565b5f6122fb5f836122e3565b9150612306826122ed565b5f82019050919050565b5f61231a826122f0565b9150819050919050565b7f5472616e73666572206661696c656400000000000000000000000000000000005f82015250565b5f612358600f83611c26565b915061236382612324565b602082019050919050565b5f6020820190508181035f8301526123858161234c565b9050919050565b5f61239682611b9c565b91506123a183611b9c565b92508282019050808211156123b9576123b8612044565b5b92915050565b5f6080820190506123d25f830187611c8c565b6123df6020830186611c0d565b6123ec6040830185611c8c565b6123f96060830184611c0d565b95945050505050565b7f526566756e642057617320556e7375636365737366756c2100000000000000005f82015250565b5f612436601883611c26565b915061244182612402565b602082019050919050565b5f6020820190508181035f8301526124638161242a565b9050919050565b7f546869732043616d706169676e2048617320416c7265616479205261697365645f8201527f2046756e64732120526566756e64204669727374205468656e2043616e63656c60208201527f2100000000000000000000000000000000000000000000000000000000000000604082015250565b5f6124ea604183611c26565b91506124f58261246a565b606082019050919050565b5f6020820190508181035f830152612517816124de565b9050919050565b7f546869732043616d706169676e2048617320416c7265616479204265656e20435f8201527f6f6d706c65746564210000000000000000000000000000000000000000000000602082015250565b5f612578602983611c26565b91506125838261251e565b604082019050919050565b5f6020820190508181035f8301526125a58161256c565b9050919050565b7f4f6e6c7920436f6e7472616374204f776e65722043616e20506572666f726d205f8201527f5468697320416374696f6e210000000000000000000000000000000000000000602082015250565b5f612606602c83611c26565b9150612611826125ac565b604082019050919050565b5f6020820190508181035f830152612633816125fa565b9050919050565b7f5468652043616d706169676e20416464726573732043616e6e6f7420426520415f8201527f6e2041646d696e21000000000000000000000000000000000000000000000000602082015250565b5f612694602883611c26565b915061269f8261263a565b604082019050919050565b5f6020820190508181035f8301526126c181612688565b9050919050565b7f54686973204164647265737320497320416c726561647920416e2041646d696e5f8201527f2100000000000000000000000000000000000000000000000000000000000000602082015250565b5f612722602183611c26565b915061272d826126c8565b604082019050919050565b5f6020820190508181035f83015261274f81612716565b9050919050565b7f546869732041646472657373204973204e6f7420416e2041646d696e210000005f82015250565b5f61278a601d83611c26565b915061279582612756565b602082019050919050565b5f6020820190508181035f8301526127b78161277e565b9050919050565b7f4e487b71000000000000000000000000000000000000000000000000000000005f52603160045260245ffdfea264697066735822122059df5a2661d3ae2a982586c68f920dca66df8d8475723f308eddb8c4d85eb6ae64736f6c634300081a0033",
			"opcodes": "PUSH1 0x80 PUSH1 0x40 MSTORE CALLVALUE DUP1 ISZERO PUSH1 0xE JUMPI PUSH0 DUP1 REVERT JUMPDEST POP CALLER PUSH1 0x6 PUSH0 PUSH2 0x100 EXP DUP2 SLOAD DUP2 PUSH20 0xFFFFFFFFFFFFFFFFFFFFFFFFFFFFFFFFFFFFFFFF MUL NOT AND SWAP1 DUP4 PUSH20 0xFFFFFFFFFFFFFFFFFFFFFFFFFFFFFFFFFFFFFFFF AND MUL OR SWAP1 SSTORE POP PUSH2 0x2821 DUP1 PUSH2 0x5C PUSH0 CODECOPY PUSH0 RETURN INVALID PUSH1 0x80 PUSH1 0x40 MSTORE CALLVALUE DUP1 ISZERO PUSH2 0xF JUMPI PUSH0 DUP1 REVERT JUMPDEST POP PUSH1 0x4 CALLDATASIZE LT PUSH2 0xA7 JUMPI PUSH0 CALLDATALOAD PUSH1 0xE0 SHR DUP1 PUSH4 0x6F9FB98A GT PUSH2 0x6F JUMPI DUP1 PUSH4 0x6F9FB98A EQ PUSH2 0x17F JUMPI DUP1 PUSH4 0x9B56F5F0 EQ PUSH2 0x19D JUMPI DUP1 PUSH4 0xBE18FDA6 EQ PUSH2 0x1D0 JUMPI DUP1 PUSH4 0xBE21739E EQ PUSH2 0x1EC JUMPI DUP1 PUSH4 0xE6C9099A EQ PUSH2 0x21C JUMPI DUP1 PUSH4 0xF1694AA1 EQ PUSH2 0x24D JUMPI PUSH2 0xA7 JUMP JUMPDEST DUP1 PUSH4 0x11555DBC EQ PUSH2 0xAB JUMPI DUP1 PUSH4 0x1F55E5BC EQ PUSH2 0xE3 JUMPI DUP1 PUSH4 0x215C0BBB EQ PUSH2 0x113 JUMPI DUP1 PUSH4 0x39E9412F EQ PUSH2 0x12F JUMPI DUP1 PUSH4 0x422B1077 EQ PUSH2 0x14B JUMPI JUMPDEST PUSH0 DUP1 REVERT JUMPDEST PUSH2 0xC5 PUSH1 0x4 DUP1 CALLDATASIZE SUB DUP2 ADD SWAP1 PUSH2 0xC0 SWAP2 SWAP1 PUSH2 0x1BCF JUMP JUMPDEST PUSH2 0x269 JUMP JUMPDEST PUSH1 0x40 MLOAD PUSH2 0xDA SWAP10 SWAP9 SWAP8 SWAP7 SWAP6 SWAP5 SWAP4 SWAP3 SWAP2 SWAP1 PUSH2 0x1CB5 JUMP JUMPDEST PUSH1 0x40 MLOAD DUP1 SWAP2 SUB SWAP1 RETURN JUMPDEST PUSH2 0xFD PUSH1 0x4 DUP1 CALLDATASIZE SUB DUP2 ADD SWAP1 PUSH2 0xF8 SWAP2 SWAP1 PUSH2 0x1BCF JUMP JUMPDEST PUSH2 0x410 JUMP JUMPDEST PUSH1 0x40 MLOAD PUSH2 0x10A SWAP2 SWAP1 PUSH2 0x1D4E JUMP JUMPDEST PUSH1 0x40 MLOAD DUP1 SWAP2 SUB SWAP1 RETURN JUMPDEST PUSH2 0x12D PUSH1 0x4 DUP1 CALLDATASIZE SUB DUP2 ADD SWAP1 PUSH2 0x128 SWAP2 SWAP1 PUSH2 0x1D67 JUMP JUMPDEST PUSH2 0x458 JUMP JUMPDEST STOP JUMPDEST PUSH2 0x149 PUSH1 0x4 DUP1 CALLDATASIZE SUB DUP2 ADD SWAP1 PUSH2 0x144 SWAP2 SWAP1 PUSH2 0x1D67 JUMP JUMPDEST PUSH2 0xCC2 JUMP JUMPDEST STOP JUMPDEST PUSH2 0x165 PUSH1 0x4 DUP1 CALLDATASIZE SUB DUP2 ADD SWAP1 PUSH2 0x160 SWAP2 SWAP1 PUSH2 0x1BCF JUMP JUMPDEST PUSH2 0x1246 JUMP JUMPDEST PUSH1 0x40 MLOAD PUSH2 0x176 SWAP6 SWAP5 SWAP4 SWAP3 SWAP2 SWAP1 PUSH2 0x1DA5 JUMP JUMPDEST PUSH1 0x40 MLOAD DUP1 SWAP2 SUB SWAP1 RETURN JUMPDEST PUSH2 0x187 PUSH2 0x1356 JUMP JUMPDEST PUSH1 0x40 MLOAD PUSH2 0x194 SWAP2 SWAP1 PUSH2 0x1DFD JUMP JUMPDEST PUSH1 0x40 MLOAD DUP1 SWAP2 SUB SWAP1 RETURN JUMPDEST PUSH2 0x1B7 PUSH1 0x4 DUP1 CALLDATASIZE SUB DUP2 ADD SWAP1 PUSH2 0x1B2 SWAP2 SWAP1 PUSH2 0x1BCF JUMP JUMPDEST PUSH2 0x13EC JUMP JUMPDEST PUSH1 0x40 MLOAD PUSH2 0x1C7 SWAP5 SWAP4 SWAP3 SWAP2 SWAP1 PUSH2 0x1E16 JUMP JUMPDEST PUSH1 0x40 MLOAD DUP1 SWAP2 SUB SWAP1 RETURN JUMPDEST PUSH2 0x1EA PUSH1 0x4 DUP1 CALLDATASIZE SUB DUP2 ADD SWAP1 PUSH2 0x1E5 SWAP2 SWAP1 PUSH2 0x1E60 JUMP JUMPDEST PUSH2 0x14D7 JUMP JUMPDEST STOP JUMPDEST PUSH2 0x206 PUSH1 0x4 DUP1 CALLDATASIZE SUB DUP2 ADD SWAP1 PUSH2 0x201 SWAP2 SWAP1 PUSH2 0x1E8B JUMP JUMPDEST PUSH2 0x176E JUMP JUMPDEST PUSH1 0x40 MLOAD PUSH2 0x213 SWAP2 SWAP1 PUSH2 0x1EC9 JUMP JUMPDEST PUSH1 0x40 MLOAD DUP1 SWAP2 SUB SWAP1 RETURN JUMPDEST PUSH2 0x236 PUSH1 0x4 DUP1 CALLDATASIZE SUB DUP2 ADD SWAP1 PUSH2 0x231 SWAP2 SWAP1 PUSH2 0x1EE2 JUMP JUMPDEST PUSH2 0x1798 JUMP JUMPDEST PUSH1 0x40 MLOAD PUSH2 0x244 SWAP3 SWAP2 SWAP1 PUSH2 0x1F32 JUMP JUMPDEST PUSH1 0x40 MLOAD DUP1 SWAP2 SUB SWAP1 RETURN JUMPDEST PUSH2 0x267 PUSH1 0x4 DUP1 CALLDATASIZE SUB DUP2 ADD SWAP1 PUSH2 0x262 SWAP2 SWAP1 PUSH2 0x1E60 JUMP JUMPDEST PUSH2 0x17FC JUMP JUMPDEST STOP JUMPDEST PUSH0 PUSH1 0x20 MSTORE DUP2 PUSH0 MSTORE PUSH1 0x40 PUSH0 KECCAK256 DUP2 DUP2 SLOAD DUP2 LT PUSH2 0x281 JUMPI PUSH0 DUP1 REVERT JUMPDEST SWAP1 PUSH0 MSTORE PUSH1 0x20 PUSH0 KECCAK256 SWAP1 PUSH1 0x8 MUL ADD PUSH0 SWAP2 POP SWAP2 POP POP DUP1 PUSH0 ADD SLOAD SWAP1 DUP1 PUSH1 0x1 ADD DUP1 SLOAD PUSH2 0x2A7 SWAP1 PUSH2 0x1F86 JUMP JUMPDEST DUP1 PUSH1 0x1F ADD PUSH1 0x20 DUP1 SWAP2 DIV MUL PUSH1 0x20 ADD PUSH1 0x40 MLOAD SWAP1 DUP2 ADD PUSH1 0x40 MSTORE DUP1 SWAP3 SWAP2 SWAP1 DUP2 DUP2 MSTORE PUSH1 0x20 ADD DUP3 DUP1 SLOAD PUSH2 0x2D3 SWAP1 PUSH2 0x1F86 JUMP JUMPDEST DUP1 ISZERO PUSH2 0x31E JUMPI DUP1 PUSH1 0x1F LT PUSH2 0x2F5 JUMPI PUSH2 0x100 DUP1 DUP4 SLOAD DIV MUL DUP4 MSTORE SWAP2 PUSH1 0x20 ADD SWAP2 PUSH2 0x31E JUMP JUMPDEST DUP3 ADD SWAP2 SWAP1 PUSH0 MSTORE PUSH1 0x20 PUSH0 KECCAK256 SWAP1 JUMPDEST DUP2 SLOAD DUP2 MSTORE SWAP1 PUSH1 0x1 ADD SWAP1 PUSH1 0x20 ADD DUP1 DUP4 GT PUSH2 0x301 JUMPI DUP3 SWAP1 SUB PUSH1 0x1F AND DUP3 ADD SWAP2 JUMPDEST POP POP POP POP POP SWAP1 DUP1 PUSH1 0x2 ADD DUP1 SLOAD PUSH2 0x333 SWAP1 PUSH2 0x1F86 JUMP JUMPDEST DUP1 PUSH1 0x1F ADD PUSH1 0x20 DUP1 SWAP2 DIV MUL PUSH1 0x20 ADD PUSH1 0x40 MLOAD SWAP1 DUP2 ADD PUSH1 0x40 MSTORE DUP1 SWAP3 SWAP2 SWAP1 DUP2 DUP2 MSTORE PUSH1 0x20 ADD DUP3 DUP1 SLOAD PUSH2 0x35F SWAP1 PUSH2 0x1F86 JUMP JUMPDEST DUP1 ISZERO PUSH2 0x3AA JUMPI DUP1 PUSH1 0x1F LT PUSH2 0x381 JUMPI PUSH2 0x100 DUP1 DUP4 SLOAD DIV MUL DUP4 MSTORE SWAP2 PUSH1 0x20 ADD SWAP2 PUSH2 0x3AA JUMP JUMPDEST DUP3 ADD SWAP2 SWAP1 PUSH0 MSTORE PUSH1 0x20 PUSH0 KECCAK256 SWAP1 JUMPDEST DUP2 SLOAD DUP2 MSTORE SWAP1 PUSH1 0x1 ADD SWAP1 PUSH1 0x20 ADD DUP1 DUP4 GT PUSH2 0x38D JUMPI DUP3 SWAP1 SUB PUSH1 0x1F AND DUP3 ADD SWAP2 JUMPDEST POP POP POP POP POP SWAP1 DUP1 PUSH1 0x3 ADD PUSH0 SWAP1 SLOAD SWAP1 PUSH2 0x100 EXP SWAP1 DIV PUSH20 0xFFFFFFFFFFFFFFFFFFFFFFFFFFFFFFFFFFFFFFFF AND SWAP1 DUP1 PUSH1 0x4 ADD SLOAD SWAP1 DUP1 PUSH1 0x5 ADD SLOAD SWAP1 DUP1 PUSH1 0x6 ADD SLOAD SWAP1 DUP1 PUSH1 0x7 ADD PUSH0 SWAP1 SLOAD SWAP1 PUSH2 0x100 EXP SWAP1 DIV PUSH1 0xFF AND SWAP1 DUP1 PUSH1 0x7 ADD PUSH1 0x1 SWAP1 SLOAD SWAP1 PUSH2 0x100 EXP SWAP1 DIV PUSH1 0xFF AND SWAP1 POP DUP10 JUMP JUMPDEST PUSH1 0x2 PUSH1 0x20 MSTORE DUP2 PUSH0 MSTORE PUSH1 0x40 PUSH0 KECCAK256 DUP2 DUP2 SLOAD DUP2 LT PUSH2 0x429 JUMPI PUSH0 DUP1 REVERT JUMPDEST SWAP1 PUSH0 MSTORE PUSH1 0x20 PUSH0 KECCAK256 ADD PUSH0 SWAP2 POP SWAP2 POP SWAP1 SLOAD SWAP1 PUSH2 0x100 EXP SWAP1 DIV PUSH20 0xFFFFFFFFFFFFFFFFFFFFFFFFFFFFFFFFFFFFFFFF AND DUP2 JUMP JUMPDEST DUP1 DUP3 PUSH0 DUP1 PUSH0 DUP5 PUSH20 0xFFFFFFFFFFFFFFFFFFFFFFFFFFFFFFFFFFFFFFFF AND PUSH20 0xFFFFFFFFFFFFFFFFFFFFFFFFFFFFFFFFFFFFFFFF AND DUP2 MSTORE PUSH1 0x20 ADD SWAP1 DUP2 MSTORE PUSH1 0x20 ADD PUSH0 KECCAK256 DUP1 SLOAD SWAP1 POP GT PUSH2 0x4DB JUMPI PUSH1 0x40 MLOAD PUSH32 0x8C379A000000000000000000000000000000000000000000000000000000000 DUP2 MSTORE PUSH1 0x4 ADD PUSH2 0x4D2 SWAP1 PUSH2 0x2026 JUMP JUMPDEST PUSH1 0x40 MLOAD DUP1 SWAP2 SUB SWAP1 REVERT JUMPDEST DUP1 PUSH0 DUP1 DUP5 PUSH20 0xFFFFFFFFFFFFFFFFFFFFFFFFFFFFFFFFFFFFFFFF AND PUSH20 0xFFFFFFFFFFFFFFFFFFFFFFFFFFFFFFFFFFFFFFFF AND DUP2 MSTORE PUSH1 0x20 ADD SWAP1 DUP2 MSTORE PUSH1 0x20 ADD PUSH0 KECCAK256 PUSH1 0x1 DUP4 PUSH2 0x525 SWAP2 SWAP1 PUSH2 0x2071 JUMP JUMPDEST DUP2 SLOAD DUP2 LT PUSH2 0x536 JUMPI PUSH2 0x535 PUSH2 0x20A4 JUMP JUMPDEST JUMPDEST SWAP1 PUSH0 MSTORE PUSH1 0x20 PUSH0 KECCAK256 SWAP1 PUSH1 0x8 MUL ADD PUSH0 ADD SLOAD EQ PUSH2 0x585 JUMPI PUSH1 0x40 MLOAD PUSH32 0x8C379A000000000000000000000000000000000000000000000000000000000 DUP2 MSTORE PUSH1 0x4 ADD PUSH2 0x57C SWAP1 PUSH2 0x2141 JUMP JUMPDEST PUSH1 0x40 MLOAD DUP1 SWAP2 SUB SWAP1 REVERT JUMPDEST PUSH1 0x1 PUSH0 DUP4 PUSH20 0xFFFFFFFFFFFFFFFFFFFFFFFFFFFFFFFFFFFFFFFF AND PUSH20 0xFFFFFFFFFFFFFFFFFFFFFFFFFFFFFFFFFFFFFFFF AND DUP2 MSTORE PUSH1 0x20 ADD SWAP1 DUP2 MSTORE PUSH1 0x20 ADD PUSH0 KECCAK256 PUSH0 CALLER PUSH20 0xFFFFFFFFFFFFFFFFFFFFFFFFFFFFFFFFFFFFFFFF AND PUSH20 0xFFFFFFFFFFFFFFFFFFFFFFFFFFFFFFFFFFFFFFFF AND DUP2 MSTORE PUSH1 0x20 ADD SWAP1 DUP2 MSTORE PUSH1 0x20 ADD PUSH0 KECCAK256 PUSH0 SWAP1 SLOAD SWAP1 PUSH2 0x100 EXP SWAP1 DIV PUSH1 0xFF AND PUSH2 0x649 JUMPI PUSH1 0x40 MLOAD PUSH32 0x8C379A000000000000000000000000000000000000000000000000000000000 DUP2 MSTORE PUSH1 0x4 ADD PUSH2 0x640 SWAP1 PUSH2 0x21CF JUMP JUMPDEST PUSH1 0x40 MLOAD DUP1 SWAP2 SUB SWAP1 REVERT JUMPDEST PUSH0 DUP1 PUSH0 DUP6 PUSH20 0xFFFFFFFFFFFFFFFFFFFFFFFFFFFFFFFFFFFFFFFF AND PUSH20 0xFFFFFFFFFFFFFFFFFFFFFFFFFFFFFFFFFFFFFFFF AND DUP2 MSTORE PUSH1 0x20 ADD SWAP1 DUP2 MSTORE PUSH1 0x20 ADD PUSH0 KECCAK256 PUSH1 0x1 DUP7 PUSH2 0x693 SWAP2 SWAP1 PUSH2 0x2071 JUMP JUMPDEST DUP2 SLOAD DUP2 LT PUSH2 0x6A4 JUMPI PUSH2 0x6A3 PUSH2 0x20A4 JUMP JUMPDEST JUMPDEST SWAP1 PUSH0 MSTORE PUSH1 0x20 PUSH0 KECCAK256 SWAP1 PUSH1 0x8 MUL ADD PUSH1 0x40 MLOAD DUP1 PUSH2 0x120 ADD PUSH1 0x40 MSTORE SWAP1 DUP2 PUSH0 DUP3 ADD SLOAD DUP2 MSTORE PUSH1 0x20 ADD PUSH1 0x1 DUP3 ADD DUP1 SLOAD PUSH2 0x6D5 SWAP1 PUSH2 0x1F86 JUMP JUMPDEST DUP1 PUSH1 0x1F ADD PUSH1 0x20 DUP1 SWAP2 DIV MUL PUSH1 0x20 ADD PUSH1 0x40 MLOAD SWAP1 DUP2 ADD PUSH1 0x40 MSTORE DUP1 SWAP3 SWAP2 SWAP1 DUP2 DUP2 MSTORE PUSH1 0x20 ADD DUP3 DUP1 SLOAD PUSH2 0x701 SWAP1 PUSH2 0x1F86 JUMP JUMPDEST DUP1 ISZERO PUSH2 0x74C JUMPI DUP1 PUSH1 0x1F LT PUSH2 0x723 JUMPI PUSH2 0x100 DUP1 DUP4 SLOAD DIV MUL DUP4 MSTORE SWAP2 PUSH1 0x20 ADD SWAP2 PUSH2 0x74C JUMP JUMPDEST DUP3 ADD SWAP2 SWAP1 PUSH0 MSTORE PUSH1 0x20 PUSH0 KECCAK256 SWAP1 JUMPDEST DUP2 SLOAD DUP2 MSTORE SWAP1 PUSH1 0x1 ADD SWAP1 PUSH1 0x20 ADD DUP1 DUP4 GT PUSH2 0x72F JUMPI DUP3 SWAP1 SUB PUSH1 0x1F AND DUP3 ADD SWAP2 JUMPDEST POP POP POP POP POP DUP2 MSTORE PUSH1 0x20 ADD PUSH1 0x2 DUP3 ADD DUP1 SLOAD PUSH2 0x765 SWAP1 PUSH2 0x1F86 JUMP JUMPDEST DUP1 PUSH1 0x1F ADD PUSH1 0x20 DUP1 SWAP2 DIV MUL PUSH1 0x20 ADD PUSH1 0x40 MLOAD SWAP1 DUP2 ADD PUSH1 0x40 MSTORE DUP1 SWAP3 SWAP2 SWAP1 DUP2 DUP2 MSTORE PUSH1 0x20 ADD DUP3 DUP1 SLOAD PUSH2 0x791 SWAP1 PUSH2 0x1F86 JUMP JUMPDEST DUP1 ISZERO PUSH2 0x7DC JUMPI DUP1 PUSH1 0x1F LT PUSH2 0x7B3 JUMPI PUSH2 0x100 DUP1 DUP4 SLOAD DIV MUL DUP4 MSTORE SWAP2 PUSH1 0x20 ADD SWAP2 PUSH2 0x7DC JUMP JUMPDEST DUP3 ADD SWAP2 SWAP1 PUSH0 MSTORE PUSH1 0x20 PUSH0 KECCAK256 SWAP1 JUMPDEST DUP2 SLOAD DUP2 MSTORE SWAP1 PUSH1 0x1 ADD SWAP1 PUSH1 0x20 ADD DUP1 DUP4 GT PUSH2 0x7BF JUMPI DUP3 SWAP1 SUB PUSH1 0x1F AND DUP3 ADD SWAP2 JUMPDEST POP POP POP POP POP DUP2 MSTORE PUSH1 0x20 ADD PUSH1 0x3 DUP3 ADD PUSH0 SWAP1 SLOAD SWAP1 PUSH2 0x100 EXP SWAP1 DIV PUSH20 0xFFFFFFFFFFFFFFFFFFFFFFFFFFFFFFFFFFFFFFFF AND PUSH20 0xFFFFFFFFFFFFFFFFFFFFFFFFFFFFFFFFFFFFFFFF AND PUSH20 0xFFFFFFFFFFFFFFFFFFFFFFFFFFFFFFFFFFFFFFFF AND DUP2 MSTORE PUSH1 0x20 ADD PUSH1 0x4 DUP3 ADD SLOAD DUP2 MSTORE PUSH1 0x20 ADD PUSH1 0x5 DUP3 ADD SLOAD DUP2 MSTORE PUSH1 0x20 ADD PUSH1 0x6 DUP3 ADD SLOAD DUP2 MSTORE PUSH1 0x20 ADD PUSH1 0x7 DUP3 ADD PUSH0 SWAP1 SLOAD SWAP1 PUSH2 0x100 EXP SWAP1 DIV PUSH1 0xFF AND ISZERO ISZERO ISZERO ISZERO DUP2 MSTORE PUSH1 0x20 ADD PUSH1 0x7 DUP3 ADD PUSH1 0x1 SWAP1 SLOAD SWAP1 PUSH2 0x100 EXP SWAP1 DIV PUSH1 0xFF AND ISZERO ISZERO ISZERO ISZERO DUP2 MSTORE POP POP SWAP1 POP DUP1 PUSH1 0x80 ADD MLOAD DUP2 PUSH1 0xA0 ADD MLOAD LT PUSH2 0x8D9 JUMPI PUSH1 0x40 MLOAD PUSH32 0x8C379A000000000000000000000000000000000000000000000000000000000 DUP2 MSTORE PUSH1 0x4 ADD PUSH2 0x8D0 SWAP1 PUSH2 0x225D JUMP JUMPDEST PUSH1 0x40 MLOAD DUP1 SWAP2 SUB SWAP1 REVERT JUMPDEST DUP1 PUSH1 0xA0 ADD MLOAD SELFBALANCE LT ISZERO PUSH2 0x920 JUMPI PUSH1 0x40 MLOAD PUSH32 0x8C379A000000000000000000000000000000000000000000000000000000000 DUP2 MSTORE PUSH1 0x4 ADD PUSH2 0x917 SWAP1 PUSH2 0x22C5 JUMP JUMPDEST PUSH1 0x40 MLOAD DUP1 SWAP2 SUB SWAP1 REVERT JUMPDEST PUSH0 PUSH1 0x5 PUSH0 DUP7 PUSH20 0xFFFFFFFFFFFFFFFFFFFFFFFFFFFFFFFFFFFFFFFF AND PUSH20 0xFFFFFFFFFFFFFFFFFFFFFFFFFFFFFFFFFFFFFFFF AND DUP2 MSTORE PUSH1 0x20 ADD SWAP1 DUP2 MSTORE PUSH1 0x20 ADD PUSH0 KECCAK256 PUSH0 DUP8 DUP2 MSTORE PUSH1 0x20 ADD SWAP1 DUP2 MSTORE PUSH1 0x20 ADD PUSH0 KECCAK256 SWAP1 POP PUSH0 DUP1 DUP1 PUSH0 JUMPDEST DUP5 DUP1 SLOAD SWAP1 POP DUP2 LT ISZERO PUSH2 0xBFC JUMPI PUSH0 DUP6 DUP3 DUP2 SLOAD DUP2 LT PUSH2 0x994 JUMPI PUSH2 0x993 PUSH2 0x20A4 JUMP JUMPDEST JUMPDEST SWAP1 PUSH0 MSTORE PUSH1 0x20 PUSH0 KECCAK256 SWAP1 PUSH1 0x2 MUL ADD PUSH1 0x1 ADD SLOAD SWAP1 POP PUSH0 DUP7 DUP4 DUP2 SLOAD DUP2 LT PUSH2 0x9BA JUMPI PUSH2 0x9B9 PUSH2 0x20A4 JUMP JUMPDEST JUMPDEST SWAP1 PUSH0 MSTORE PUSH1 0x20 PUSH0 KECCAK256 SWAP1 PUSH1 0x2 MUL ADD PUSH0 ADD PUSH0 SWAP1 SLOAD SWAP1 PUSH2 0x100 EXP SWAP1 DIV PUSH20 0xFFFFFFFFFFFFFFFFFFFFFFFFFFFFFFFFFFFFFFFF AND SWAP1 POP PUSH0 DUP1 DUP13 PUSH20 0xFFFFFFFFFFFFFFFFFFFFFFFFFFFFFFFFFFFFFFFF AND PUSH20 0xFFFFFFFFFFFFFFFFFFFFFFFFFFFFFFFFFFFFFFFF AND DUP2 MSTORE PUSH1 0x20 ADD SWAP1 DUP2 MSTORE PUSH1 0x20 ADD PUSH0 KECCAK256 PUSH1 0x1 DUP14 PUSH2 0xA33 SWAP2 SWAP1 PUSH2 0x2071 JUMP JUMPDEST DUP2 SLOAD DUP2 LT PUSH2 0xA44 JUMPI PUSH2 0xA43 PUSH2 0x20A4 JUMP JUMPDEST JUMPDEST SWAP1 PUSH0 MSTORE PUSH1 0x20 PUSH0 KECCAK256 SWAP1 PUSH1 0x8 MUL ADD PUSH1 0x5 ADD SLOAD SWAP5 POP DUP2 DUP6 PUSH2 0xA62 SWAP2 SWAP1 PUSH2 0x2071 JUMP JUMPDEST SWAP4 POP DUP4 PUSH0 DUP1 DUP14 PUSH20 0xFFFFFFFFFFFFFFFFFFFFFFFFFFFFFFFFFFFFFFFF AND PUSH20 0xFFFFFFFFFFFFFFFFFFFFFFFFFFFFFFFFFFFFFFFF AND DUP2 MSTORE PUSH1 0x20 ADD SWAP1 DUP2 MSTORE PUSH1 0x20 ADD PUSH0 KECCAK256 PUSH1 0x1 DUP15 PUSH2 0xAAE SWAP2 SWAP1 PUSH2 0x2071 JUMP JUMPDEST DUP2 SLOAD DUP2 LT PUSH2 0xABF JUMPI PUSH2 0xABE PUSH2 0x20A4 JUMP JUMPDEST JUMPDEST SWAP1 PUSH0 MSTORE PUSH1 0x20 PUSH0 KECCAK256 SWAP1 PUSH1 0x8 MUL ADD PUSH1 0x5 ADD DUP2 SWAP1 SSTORE POP PUSH0 DUP8 DUP5 DUP2 SLOAD DUP2 LT PUSH2 0xAE6 JUMPI PUSH2 0xAE5 PUSH2 0x20A4 JUMP JUMPDEST JUMPDEST SWAP1 PUSH0 MSTORE PUSH1 0x20 PUSH0 KECCAK256 SWAP1 PUSH1 0x2 MUL ADD PUSH1 0x1 ADD DUP2 SWAP1 SSTORE POP PUSH0 DUP2 PUSH20 0xFFFFFFFFFFFFFFFFFFFFFFFFFFFFFFFFFFFFFFFF AND DUP4 PUSH1 0x40 MLOAD PUSH2 0xB1E SWAP1 PUSH2 0x2310 JUMP JUMPDEST PUSH0 PUSH1 0x40 MLOAD DUP1 DUP4 SUB DUP2 DUP6 DUP8 GAS CALL SWAP3 POP POP POP RETURNDATASIZE DUP1 PUSH0 DUP2 EQ PUSH2 0xB58 JUMPI PUSH1 0x40 MLOAD SWAP2 POP PUSH1 0x1F NOT PUSH1 0x3F RETURNDATASIZE ADD AND DUP3 ADD PUSH1 0x40 MSTORE RETURNDATASIZE DUP3 MSTORE RETURNDATASIZE PUSH0 PUSH1 0x20 DUP5 ADD RETURNDATACOPY PUSH2 0xB5D JUMP JUMPDEST PUSH1 0x60 SWAP2 POP JUMPDEST POP POP SWAP1 POP DUP1 PUSH2 0xBA1 JUMPI PUSH1 0x40 MLOAD PUSH32 0x8C379A000000000000000000000000000000000000000000000000000000000 DUP2 MSTORE PUSH1 0x4 ADD PUSH2 0xB98 SWAP1 PUSH2 0x236E JUMP JUMPDEST PUSH1 0x40 MLOAD DUP1 SWAP2 SUB SWAP1 REVERT JUMPDEST DUP3 DUP8 PUSH2 0xBAD SWAP2 SWAP1 PUSH2 0x238C JUMP JUMPDEST SWAP7 POP PUSH32 0xC7106CAA0225138E1482298FE211390F77622CB0BE261616F08271E23660553D DUP13 DUP15 DUP5 DUP7 PUSH1 0x40 MLOAD PUSH2 0xBE4 SWAP5 SWAP4 SWAP3 SWAP2 SWAP1 PUSH2 0x23BF JUMP JUMPDEST PUSH1 0x40 MLOAD DUP1 SWAP2 SUB SWAP1 LOG1 POP POP POP DUP1 DUP1 PUSH1 0x1 ADD SWAP2 POP POP PUSH2 0x974 JUMP JUMPDEST POP DUP3 DUP6 PUSH1 0xA0 ADD MLOAD EQ DUP1 ISZERO PUSH2 0xC78 JUMPI POP PUSH0 DUP1 PUSH0 DUP11 PUSH20 0xFFFFFFFFFFFFFFFFFFFFFFFFFFFFFFFFFFFFFFFF AND PUSH20 0xFFFFFFFFFFFFFFFFFFFFFFFFFFFFFFFFFFFFFFFF AND DUP2 MSTORE PUSH1 0x20 ADD SWAP1 DUP2 MSTORE PUSH1 0x20 ADD PUSH0 KECCAK256 PUSH1 0x1 DUP12 PUSH2 0xC55 SWAP2 SWAP1 PUSH2 0x2071 JUMP JUMPDEST DUP2 SLOAD DUP2 LT PUSH2 0xC66 JUMPI PUSH2 0xC65 PUSH2 0x20A4 JUMP JUMPDEST JUMPDEST SWAP1 PUSH0 MSTORE PUSH1 0x20 PUSH0 KECCAK256 SWAP1 PUSH1 0x8 MUL ADD PUSH1 0x5 ADD SLOAD EQ JUMPDEST PUSH2 0xCB7 JUMPI PUSH1 0x40 MLOAD PUSH32 0x8C379A000000000000000000000000000000000000000000000000000000000 DUP2 MSTORE PUSH1 0x4 ADD PUSH2 0xCAE SWAP1 PUSH2 0x244C JUMP JUMPDEST PUSH1 0x40 MLOAD DUP1 SWAP2 SUB SWAP1 REVERT JUMPDEST POP POP POP POP POP POP POP POP POP JUMP JUMPDEST DUP1 DUP3 PUSH0 DUP1 PUSH0 DUP5 PUSH20 0xFFFFFFFFFFFFFFFFFFFFFFFFFFFFFFFFFFFFFFFF AND PUSH20 0xFFFFFFFFFFFFFFFFFFFFFFFFFFFFFFFFFFFFFFFF AND DUP2 MSTORE PUSH1 0x20 ADD SWAP1 DUP2 MSTORE PUSH1 0x20 ADD PUSH0 KECCAK256 DUP1 SLOAD SWAP1 POP GT PUSH2 0xD45 JUMPI PUSH1 0x40 MLOAD PUSH32 0x8C379A000000000000000000000000000000000000000000000000000000000 DUP2 MSTORE PUSH1 0x4 ADD PUSH2 0xD3C SWAP1 PUSH2 0x2026 JUMP JUMPDEST PUSH1 0x40 MLOAD DUP1 SWAP2 SUB SWAP1 REVERT JUMPDEST DUP1 PUSH0 DUP1 DUP5 PUSH20 0xFFFFFFFFFFFFFFFFFFFFFFFFFFFFFFFFFFFFFFFF AND PUSH20 0xFFFFFFFFFFFFFFFFFFFFFFFFFFFFFFFFFFFFFFFF AND DUP2 MSTORE PUSH1 0x20 ADD SWAP1 DUP2 MSTORE PUSH1 0x20 ADD PUSH0 KECCAK256 PUSH1 0x1 DUP4 PUSH2 0xD8F SWAP2 SWAP1 PUSH2 0x2071 JUMP JUMPDEST DUP2 SLOAD DUP2 LT PUSH2 0xDA0 JUMPI PUSH2 0xD9F PUSH2 0x20A4 JUMP JUMPDEST JUMPDEST SWAP1 PUSH0 MSTORE PUSH1 0x20 PUSH0 KECCAK256 SWAP1 PUSH1 0x8 MUL ADD PUSH0 ADD SLOAD EQ PUSH2 0xDEF JUMPI PUSH1 0x40 MLOAD PUSH32 0x8C379A000000000000000000000000000000000000000000000000000000000 DUP2 MSTORE PUSH1 0x4 ADD PUSH2 0xDE6 SWAP1 PUSH2 0x2141 JUMP JUMPDEST PUSH1 0x40 MLOAD DUP1 SWAP2 SUB SWAP1 REVERT JUMPDEST PUSH1 0x1 PUSH0 DUP4 PUSH20 0xFFFFFFFFFFFFFFFFFFFFFFFFFFFFFFFFFFFFFFFF AND PUSH20 0xFFFFFFFFFFFFFFFFFFFFFFFFFFFFFFFFFFFFFFFF AND DUP2 MSTORE PUSH1 0x20 ADD SWAP1 DUP2 MSTORE PUSH1 0x20 ADD PUSH0 KECCAK256 PUSH0 CALLER PUSH20 0xFFFFFFFFFFFFFFFFFFFFFFFFFFFFFFFFFFFFFFFF AND PUSH20 0xFFFFFFFFFFFFFFFFFFFFFFFFFFFFFFFFFFFFFFFF AND DUP2 MSTORE PUSH1 0x20 ADD SWAP1 DUP2 MSTORE PUSH1 0x20 ADD PUSH0 KECCAK256 PUSH0 SWAP1 SLOAD SWAP1 PUSH2 0x100 EXP SWAP1 DIV PUSH1 0xFF AND PUSH2 0xEB3 JUMPI PUSH1 0x40 MLOAD PUSH32 0x8C379A000000000000000000000000000000000000000000000000000000000 DUP2 MSTORE PUSH1 0x4 ADD PUSH2 0xEAA SWAP1 PUSH2 0x21CF JUMP JUMPDEST PUSH1 0x40 MLOAD DUP1 SWAP2 SUB SWAP1 REVERT JUMPDEST PUSH0 DUP1 PUSH0 DUP6 PUSH20 0xFFFFFFFFFFFFFFFFFFFFFFFFFFFFFFFFFFFFFFFF AND PUSH20 0xFFFFFFFFFFFFFFFFFFFFFFFFFFFFFFFFFFFFFFFF AND DUP2 MSTORE PUSH1 0x20 ADD SWAP1 DUP2 MSTORE PUSH1 0x20 ADD PUSH0 KECCAK256 PUSH1 0x1 DUP7 PUSH2 0xEFD SWAP2 SWAP1 PUSH2 0x2071 JUMP JUMPDEST DUP2 SLOAD DUP2 LT PUSH2 0xF0E JUMPI PUSH2 0xF0D PUSH2 0x20A4 JUMP JUMPDEST JUMPDEST SWAP1 PUSH0 MSTORE PUSH1 0x20 PUSH0 KECCAK256 SWAP1 PUSH1 0x8 MUL ADD PUSH1 0x40 MLOAD DUP1 PUSH2 0x120 ADD PUSH1 0x40 MSTORE SWAP1 DUP2 PUSH0 DUP3 ADD SLOAD DUP2 MSTORE PUSH1 0x20 ADD PUSH1 0x1 DUP3 ADD DUP1 SLOAD PUSH2 0xF3F SWAP1 PUSH2 0x1F86 JUMP JUMPDEST DUP1 PUSH1 0x1F ADD PUSH1 0x20 DUP1 SWAP2 DIV MUL PUSH1 0x20 ADD PUSH1 0x40 MLOAD SWAP1 DUP2 ADD PUSH1 0x40 MSTORE DUP1 SWAP3 SWAP2 SWAP1 DUP2 DUP2 MSTORE PUSH1 0x20 ADD DUP3 DUP1 SLOAD PUSH2 0xF6B SWAP1 PUSH2 0x1F86 JUMP JUMPDEST DUP1 ISZERO PUSH2 0xFB6 JUMPI DUP1 PUSH1 0x1F LT PUSH2 0xF8D JUMPI PUSH2 0x100 DUP1 DUP4 SLOAD DIV MUL DUP4 MSTORE SWAP2 PUSH1 0x20 ADD SWAP2 PUSH2 0xFB6 JUMP JUMPDEST DUP3 ADD SWAP2 SWAP1 PUSH0 MSTORE PUSH1 0x20 PUSH0 KECCAK256 SWAP1 JUMPDEST DUP2 SLOAD DUP2 MSTORE SWAP1 PUSH1 0x1 ADD SWAP1 PUSH1 0x20 ADD DUP1 DUP4 GT PUSH2 0xF99 JUMPI DUP3 SWAP1 SUB PUSH1 0x1F AND DUP3 ADD SWAP2 JUMPDEST POP POP POP POP POP DUP2 MSTORE PUSH1 0x20 ADD PUSH1 0x2 DUP3 ADD DUP1 SLOAD PUSH2 0xFCF SWAP1 PUSH2 0x1F86 JUMP JUMPDEST DUP1 PUSH1 0x1F ADD PUSH1 0x20 DUP1 SWAP2 DIV MUL PUSH1 0x20 ADD PUSH1 0x40 MLOAD SWAP1 DUP2 ADD PUSH1 0x40 MSTORE DUP1 SWAP3 SWAP2 SWAP1 DUP2 DUP2 MSTORE PUSH1 0x20 ADD DUP3 DUP1 SLOAD PUSH2 0xFFB SWAP1 PUSH2 0x1F86 JUMP JUMPDEST DUP1 ISZERO PUSH2 0x1046 JUMPI DUP1 PUSH1 0x1F LT PUSH2 0x101D JUMPI PUSH2 0x100 DUP1 DUP4 SLOAD DIV MUL DUP4 MSTORE SWAP2 PUSH1 0x20 ADD SWAP2 PUSH2 0x1046 JUMP JUMPDEST DUP3 ADD SWAP2 SWAP1 PUSH0 MSTORE PUSH1 0x20 PUSH0 KECCAK256 SWAP1 JUMPDEST DUP2 SLOAD DUP2 MSTORE SWAP1 PUSH1 0x1 ADD SWAP1 PUSH1 0x20 ADD DUP1 DUP4 GT PUSH2 0x1029 JUMPI DUP3 SWAP1 SUB PUSH1 0x1F AND DUP3 ADD SWAP2 JUMPDEST POP POP POP POP POP DUP2 MSTORE PUSH1 0x20 ADD PUSH1 0x3 DUP3 ADD PUSH0 SWAP1 SLOAD SWAP1 PUSH2 0x100 EXP SWAP1 DIV PUSH20 0xFFFFFFFFFFFFFFFFFFFFFFFFFFFFFFFFFFFFFFFF AND PUSH20 0xFFFFFFFFFFFFFFFFFFFFFFFFFFFFFFFFFFFFFFFF AND PUSH20 0xFFFFFFFFFFFFFFFFFFFFFFFFFFFFFFFFFFFFFFFF AND DUP2 MSTORE PUSH1 0x20 ADD PUSH1 0x4 DUP3 ADD SLOAD DUP2 MSTORE PUSH1 0x20 ADD PUSH1 0x5 DUP3 ADD SLOAD DUP2 MSTORE PUSH1 0x20 ADD PUSH1 0x6 DUP3 ADD SLOAD DUP2 MSTORE PUSH1 0x20 ADD PUSH1 0x7 DUP3 ADD PUSH0 SWAP1 SLOAD SWAP1 PUSH2 0x100 EXP SWAP1 DIV PUSH1 0xFF AND ISZERO ISZERO ISZERO ISZERO DUP2 MSTORE PUSH1 0x20 ADD PUSH1 0x7 DUP3 ADD PUSH1 0x1 SWAP1 SLOAD SWAP1 PUSH2 0x100 EXP SWAP1 DIV PUSH1 0xFF AND ISZERO ISZERO ISZERO ISZERO DUP2 MSTORE POP POP SWAP1 POP PUSH0 DUP2 PUSH1 0xA0 ADD MLOAD EQ PUSH2 0x113F JUMPI PUSH1 0x40 MLOAD PUSH32 0x8C379A000000000000000000000000000000000000000000000000000000000 DUP2 MSTORE PUSH1 0x4 ADD PUSH2 0x1136 SWAP1 PUSH2 0x2500 JUMP JUMPDEST PUSH1 0x40 MLOAD DUP1 SWAP2 SUB SWAP1 REVERT JUMPDEST DUP1 PUSH1 0xE0 ADD MLOAD ISZERO PUSH2 0x1184 JUMPI PUSH1 0x40 MLOAD PUSH32 0x8C379A000000000000000000000000000000000000000000000000000000000 DUP2 MSTORE PUSH1 0x4 ADD PUSH2 0x117B SWAP1 PUSH2 0x258E JUMP JUMPDEST PUSH1 0x40 MLOAD DUP1 SWAP2 SUB SWAP1 REVERT JUMPDEST PUSH1 0x1 PUSH0 DUP1 DUP7 PUSH20 0xFFFFFFFFFFFFFFFFFFFFFFFFFFFFFFFFFFFFFFFF AND PUSH20 0xFFFFFFFFFFFFFFFFFFFFFFFFFFFFFFFFFFFFFFFF AND DUP2 MSTORE PUSH1 0x20 ADD SWAP1 DUP2 MSTORE PUSH1 0x20 ADD PUSH0 KECCAK256 PUSH1 0x1 DUP8 PUSH2 0x11CF SWAP2 SWAP1 PUSH2 0x2071 JUMP JUMPDEST DUP2 SLOAD DUP2 LT PUSH2 0x11E0 JUMPI PUSH2 0x11DF PUSH2 0x20A4 JUMP JUMPDEST JUMPDEST SWAP1 PUSH0 MSTORE PUSH1 0x20 PUSH0 KECCAK256 SWAP1 PUSH1 0x8 MUL ADD PUSH1 0x7 ADD PUSH1 0x1 PUSH2 0x100 EXP DUP2 SLOAD DUP2 PUSH1 0xFF MUL NOT AND SWAP1 DUP4 ISZERO ISZERO MUL OR SWAP1 SSTORE POP PUSH32 0xDDF13B23F5AA44ED82E83C974BB182744638F745E4BCF56AC5343BC41A67AD55 DUP5 DUP7 PUSH1 0x40 MLOAD PUSH2 0x1237 SWAP3 SWAP2 SWAP1 PUSH2 0x1F32 JUMP JUMPDEST PUSH1 0x40 MLOAD DUP1 SWAP2 SUB SWAP1 LOG1 POP POP POP POP POP JUMP JUMPDEST PUSH1 0x4 PUSH1 0x20 MSTORE DUP2 PUSH0 MSTORE PUSH1 0x40 PUSH0 KECCAK256 DUP2 DUP2 SLOAD DUP2 LT PUSH2 0x125F JUMPI PUSH0 DUP1 REVERT JUMPDEST SWAP1 PUSH0 MSTORE PUSH1 0x20 PUSH0 KECCAK256 SWAP1 PUSH1 0x5 MUL ADD PUSH0 SWAP2 POP SWAP2 POP POP DUP1 PUSH0 ADD SLOAD SWAP1 DUP1 PUSH1 0x1 ADD DUP1 SLOAD PUSH2 0x1285 SWAP1 PUSH2 0x1F86 JUMP JUMPDEST DUP1 PUSH1 0x1F ADD PUSH1 0x20 DUP1 SWAP2 DIV MUL PUSH1 0x20 ADD PUSH1 0x40 MLOAD SWAP1 DUP2 ADD PUSH1 0x40 MSTORE DUP1 SWAP3 SWAP2 SWAP1 DUP2 DUP2 MSTORE PUSH1 0x20 ADD DUP3 DUP1 SLOAD PUSH2 0x12B1 SWAP1 PUSH2 0x1F86 JUMP JUMPDEST DUP1 ISZERO PUSH2 0x12FC JUMPI DUP1 PUSH1 0x1F LT PUSH2 0x12D3 JUMPI PUSH2 0x100 DUP1 DUP4 SLOAD DIV MUL DUP4 MSTORE SWAP2 PUSH1 0x20 ADD SWAP2 PUSH2 0x12FC JUMP JUMPDEST DUP3 ADD SWAP2 SWAP1 PUSH0 MSTORE PUSH1 0x20 PUSH0 KECCAK256 SWAP1 JUMPDEST DUP2 SLOAD DUP2 MSTORE SWAP1 PUSH1 0x1 ADD SWAP1 PUSH1 0x20 ADD DUP1 DUP4 GT PUSH2 0x12DF JUMPI DUP3 SWAP1 SUB PUSH1 0x1F AND DUP3 ADD SWAP2 JUMPDEST POP POP POP POP POP SWAP1 DUP1 PUSH1 0x2 ADD SLOAD SWAP1 DUP1 PUSH1 0x3 ADD PUSH0 SWAP1 SLOAD SWAP1 PUSH2 0x100 EXP SWAP1 DIV PUSH20 0xFFFFFFFFFFFFFFFFFFFFFFFFFFFFFFFFFFFFFFFF AND SWAP1 DUP1 PUSH1 0x4 ADD PUSH0 SWAP1 SLOAD SWAP1 PUSH2 0x100 EXP SWAP1 DIV PUSH20 0xFFFFFFFFFFFFFFFFFFFFFFFFFFFFFFFFFFFFFFFF AND SWAP1 POP DUP6 JUMP JUMPDEST PUSH0 PUSH1 0x6 PUSH0 SWAP1 SLOAD SWAP1 PUSH2 0x100 EXP SWAP1 DIV PUSH20 0xFFFFFFFFFFFFFFFFFFFFFFFFFFFFFFFFFFFFFFFF AND PUSH20 0xFFFFFFFFFFFFFFFFFFFFFFFFFFFFFFFFFFFFFFFF AND CALLER PUSH20 0xFFFFFFFFFFFFFFFFFFFFFFFFFFFFFFFFFFFFFFFF AND EQ PUSH2 0x13E6 JUMPI PUSH1 0x40 MLOAD PUSH32 0x8C379A000000000000000000000000000000000000000000000000000000000 DUP2 MSTORE PUSH1 0x4 ADD PUSH2 0x13DD SWAP1 PUSH2 0x261C JUMP JUMPDEST PUSH1 0x40 MLOAD DUP1 SWAP2 SUB SWAP1 REVERT JUMPDEST SELFBALANCE SWAP1 POP SWAP1 JUMP JUMPDEST PUSH1 0x3 PUSH1 0x20 MSTORE DUP2 PUSH0 MSTORE PUSH1 0x40 PUSH0 KECCAK256 DUP2 DUP2 SLOAD DUP2 LT PUSH2 0x1405 JUMPI PUSH0 DUP1 REVERT JUMPDEST SWAP1 PUSH0 MSTORE PUSH1 0x20 PUSH0 KECCAK256 SWAP1 PUSH1 0x4 MUL ADD PUSH0 SWAP2 POP SWAP2 POP POP DUP1 PUSH0 ADD PUSH0 SWAP1 SLOAD SWAP1 PUSH2 0x100 EXP SWAP1 DIV PUSH20 0xFFFFFFFFFFFFFFFFFFFFFFFFFFFFFFFFFFFFFFFF AND SWAP1 DUP1 PUSH1 0x1 ADD SLOAD SWAP1 DUP1 PUSH1 0x2 ADD DUP1 SLOAD PUSH2 0x1450 SWAP1 PUSH2 0x1F86 JUMP JUMPDEST DUP1 PUSH1 0x1F ADD PUSH1 0x20 DUP1 SWAP2 DIV MUL PUSH1 0x20 ADD PUSH1 0x40 MLOAD SWAP1 DUP2 ADD PUSH1 0x40 MSTORE DUP1 SWAP3 SWAP2 SWAP1 DUP2 DUP2 MSTORE PUSH1 0x20 ADD DUP3 DUP1 SLOAD PUSH2 0x147C SWAP1 PUSH2 0x1F86 JUMP JUMPDEST DUP1 ISZERO PUSH2 0x14C7 JUMPI DUP1 PUSH1 0x1F LT PUSH2 0x149E JUMPI PUSH2 0x100 DUP1 DUP4 SLOAD DIV MUL DUP4 MSTORE SWAP2 PUSH1 0x20 ADD SWAP2 PUSH2 0x14C7 JUMP JUMPDEST DUP3 ADD SWAP2 SWAP1 PUSH0 MSTORE PUSH1 0x20 PUSH0 KECCAK256 SWAP1 JUMPDEST DUP2 SLOAD DUP2 MSTORE SWAP1 PUSH1 0x1 ADD SWAP1 PUSH1 0x20 ADD DUP1 DUP4 GT PUSH2 0x14AA JUMPI DUP3 SWAP1 SUB PUSH1 0x1F AND DUP3 ADD SWAP2 JUMPDEST POP POP POP POP POP SWAP1 DUP1 PUSH1 0x3 ADD SLOAD SWAP1 POP DUP5 JUMP JUMPDEST DUP1 PUSH20 0xFFFFFFFFFFFFFFFFFFFFFFFFFFFFFFFFFFFFFFFF AND CALLER PUSH20 0xFFFFFFFFFFFFFFFFFFFFFFFFFFFFFFFFFFFFFFFF AND SUB PUSH2 0x1545 JUMPI PUSH1 0x40 MLOAD PUSH32 0x8C379A000000000000000000000000000000000000000000000000000000000 DUP2 MSTORE PUSH1 0x4 ADD PUSH2 0x153C SWAP1 PUSH2 0x26AA JUMP JUMPDEST PUSH1 0x40 MLOAD DUP1 SWAP2 SUB SWAP1 REVERT JUMPDEST PUSH1 0x1 PUSH0 CALLER PUSH20 0xFFFFFFFFFFFFFFFFFFFFFFFFFFFFFFFFFFFFFFFF AND PUSH20 0xFFFFFFFFFFFFFFFFFFFFFFFFFFFFFFFFFFFFFFFF AND DUP2 MSTORE PUSH1 0x20 ADD SWAP1 DUP2 MSTORE PUSH1 0x20 ADD PUSH0 KECCAK256 PUSH0 DUP3 PUSH20 0xFFFFFFFFFFFFFFFFFFFFFFFFFFFFFFFFFFFFFFFF AND PUSH20 0xFFFFFFFFFFFFFFFFFFFFFFFFFFFFFFFFFFFFFFFF AND DUP2 MSTORE PUSH1 0x20 ADD SWAP1 DUP2 MSTORE PUSH1 0x20 ADD PUSH0 KECCAK256 PUSH0 SWAP1 SLOAD SWAP1 PUSH2 0x100 EXP SWAP1 DIV PUSH1 0xFF AND ISZERO PUSH2 0x160A JUMPI PUSH1 0x40 MLOAD PUSH32 0x8C379A000000000000000000000000000000000000000000000000000000000 DUP2 MSTORE PUSH1 0x4 ADD PUSH2 0x1601 SWAP1 PUSH2 0x2738 JUMP JUMPDEST PUSH1 0x40 MLOAD DUP1 SWAP2 SUB SWAP1 REVERT JUMPDEST PUSH1 0x1 DUP1 PUSH0 CALLER PUSH20 0xFFFFFFFFFFFFFFFFFFFFFFFFFFFFFFFFFFFFFFFF AND PUSH20 0xFFFFFFFFFFFFFFFFFFFFFFFFFFFFFFFFFFFFFFFF AND DUP2 MSTORE PUSH1 0x20 ADD SWAP1 DUP2 MSTORE PUSH1 0x20 ADD PUSH0 KECCAK256 PUSH0 DUP4 PUSH20 0xFFFFFFFFFFFFFFFFFFFFFFFFFFFFFFFFFFFFFFFF AND PUSH20 0xFFFFFFFFFFFFFFFFFFFFFFFFFFFFFFFFFFFFFFFF AND DUP2 MSTORE PUSH1 0x20 ADD SWAP1 DUP2 MSTORE PUSH1 0x20 ADD PUSH0 KECCAK256 PUSH0 PUSH2 0x100 EXP DUP2 SLOAD DUP2 PUSH1 0xFF MUL NOT AND SWAP1 DUP4 ISZERO ISZERO MUL OR SWAP1 SSTORE POP PUSH1 0x2 PUSH0 CALLER PUSH20 0xFFFFFFFFFFFFFFFFFFFFFFFFFFFFFFFFFFFFFFFF AND PUSH20 0xFFFFFFFFFFFFFFFFFFFFFFFFFFFFFFFFFFFFFFFF AND DUP2 MSTORE PUSH1 0x20 ADD SWAP1 DUP2 MSTORE PUSH1 0x20 ADD PUSH0 KECCAK256 DUP2 SWAP1 DUP1 PUSH1 0x1 DUP2 SLOAD ADD DUP1 DUP3 SSTORE DUP1 SWAP2 POP POP PUSH1 0x1 SWAP1 SUB SWAP1 PUSH0 MSTORE PUSH1 0x20 PUSH0 KECCAK256 ADD PUSH0 SWAP1 SWAP2 SWAP1 SWAP2 SWAP1 SWAP2 PUSH2 0x100 EXP DUP2 SLOAD DUP2 PUSH20 0xFFFFFFFFFFFFFFFFFFFFFFFFFFFFFFFFFFFFFFFF MUL NOT AND SWAP1 DUP4 PUSH20 0xFFFFFFFFFFFFFFFFFFFFFFFFFFFFFFFFFFFFFFFF AND MUL OR SWAP1 SSTORE POP PUSH32 0xAD6DE4452A631E641CB59902236607946CE9272B9B981F2F80E8D129CB9084BA DUP2 PUSH1 0x40 MLOAD PUSH2 0x1763 SWAP2 SWAP1 PUSH2 0x1D4E JUMP JUMPDEST PUSH1 0x40 MLOAD DUP1 SWAP2 SUB SWAP1 LOG1 POP JUMP JUMPDEST PUSH1 0x1 PUSH1 0x20 MSTORE DUP2 PUSH0 MSTORE PUSH1 0x40 PUSH0 KECCAK256 PUSH1 0x20 MSTORE DUP1 PUSH0 MSTORE PUSH1 0x40 PUSH0 KECCAK256 PUSH0 SWAP2 POP SWAP2 POP SWAP1 SLOAD SWAP1 PUSH2 0x100 EXP SWAP1 DIV PUSH1 0xFF AND DUP2 JUMP JUMPDEST PUSH1 0x5 PUSH1 0x20 MSTORE DUP3 PUSH0 MSTORE PUSH1 0x40 PUSH0 KECCAK256 PUSH1 0x20 MSTORE DUP2 PUSH0 MSTORE PUSH1 0x40 PUSH0 KECCAK256 DUP2 DUP2 SLOAD DUP2 LT PUSH2 0x17BB JUMPI PUSH0 DUP1 REVERT JUMPDEST SWAP1 PUSH0 MSTORE PUSH1 0x20 PUSH0 KECCAK256 SWAP1 PUSH1 0x2 MUL ADD PUSH0 SWAP3 POP SWAP3 POP POP POP DUP1 PUSH0 ADD PUSH0 SWAP1 SLOAD SWAP1 PUSH2 0x100 EXP SWAP1 DIV PUSH20 0xFFFFFFFFFFFFFFFFFFFFFFFFFFFFFFFFFFFFFFFF AND SWAP1 DUP1 PUSH1 0x1 ADD SLOAD SWAP1 POP DUP3 JUMP JUMPDEST PUSH1 0x1 PUSH0 CALLER PUSH20 0xFFFFFFFFFFFFFFFFFFFFFFFFFFFFFFFFFFFFFFFF AND PUSH20 0xFFFFFFFFFFFFFFFFFFFFFFFFFFFFFFFFFFFFFFFF AND DUP2 MSTORE PUSH1 0x20 ADD SWAP1 DUP2 MSTORE PUSH1 0x20 ADD PUSH0 KECCAK256 PUSH0 DUP3 PUSH20 0xFFFFFFFFFFFFFFFFFFFFFFFFFFFFFFFFFFFFFFFF AND PUSH20 0xFFFFFFFFFFFFFFFFFFFFFFFFFFFFFFFFFFFFFFFF AND DUP2 MSTORE PUSH1 0x20 ADD SWAP1 DUP2 MSTORE PUSH1 0x20 ADD PUSH0 KECCAK256 PUSH0 SWAP1 SLOAD SWAP1 PUSH2 0x100 EXP SWAP1 DIV PUSH1 0xFF AND PUSH2 0x18C0 JUMPI PUSH1 0x40 MLOAD PUSH32 0x8C379A000000000000000000000000000000000000000000000000000000000 DUP2 MSTORE PUSH1 0x4 ADD PUSH2 0x18B7 SWAP1 PUSH2 0x27A0 JUMP JUMPDEST PUSH1 0x40 MLOAD DUP1 SWAP2 SUB SWAP1 REVERT JUMPDEST PUSH0 PUSH1 0x1 PUSH0 CALLER PUSH20 0xFFFFFFFFFFFFFFFFFFFFFFFFFFFFFFFFFFFFFFFF AND PUSH20 0xFFFFFFFFFFFFFFFFFFFFFFFFFFFFFFFFFFFFFFFF AND DUP2 MSTORE PUSH1 0x20 ADD SWAP1 DUP2 MSTORE PUSH1 0x20 ADD PUSH0 KECCAK256 PUSH0 DUP4 PUSH20 0xFFFFFFFFFFFFFFFFFFFFFFFFFFFFFFFFFFFFFFFF AND PUSH20 0xFFFFFFFFFFFFFFFFFFFFFFFFFFFFFFFFFFFFFFFF AND DUP2 MSTORE PUSH1 0x20 ADD SWAP1 DUP2 MSTORE PUSH1 0x20 ADD PUSH0 KECCAK256 PUSH0 PUSH2 0x100 EXP DUP2 SLOAD DUP2 PUSH1 0xFF MUL NOT AND SWAP1 DUP4 ISZERO ISZERO MUL OR SWAP1 SSTORE POP PUSH0 PUSH1 0x2 PUSH0 CALLER PUSH20 0xFFFFFFFFFFFFFFFFFFFFFFFFFFFFFFFFFFFFFFFF AND PUSH20 0xFFFFFFFFFFFFFFFFFFFFFFFFFFFFFFFFFFFFFFFF AND DUP2 MSTORE PUSH1 0x20 ADD SWAP1 DUP2 MSTORE PUSH1 0x20 ADD PUSH0 KECCAK256 SWAP1 POP PUSH0 JUMPDEST DUP2 DUP1 SLOAD SWAP1 POP DUP2 LT ISZERO PUSH2 0x1B02 JUMPI DUP3 PUSH20 0xFFFFFFFFFFFFFFFFFFFFFFFFFFFFFFFFFFFFFFFF AND DUP3 DUP3 DUP2 SLOAD DUP2 LT PUSH2 0x19C7 JUMPI PUSH2 0x19C6 PUSH2 0x20A4 JUMP JUMPDEST JUMPDEST SWAP1 PUSH0 MSTORE PUSH1 0x20 PUSH0 KECCAK256 ADD PUSH0 SWAP1 SLOAD SWAP1 PUSH2 0x100 EXP SWAP1 DIV PUSH20 0xFFFFFFFFFFFFFFFFFFFFFFFFFFFFFFFFFFFFFFFF AND PUSH20 0xFFFFFFFFFFFFFFFFFFFFFFFFFFFFFFFFFFFFFFFF AND SUB PUSH2 0x1AF5 JUMPI DUP2 PUSH1 0x1 DUP4 DUP1 SLOAD SWAP1 POP PUSH2 0x1A1C SWAP2 SWAP1 PUSH2 0x2071 JUMP JUMPDEST DUP2 SLOAD DUP2 LT PUSH2 0x1A2D JUMPI PUSH2 0x1A2C PUSH2 0x20A4 JUMP JUMPDEST JUMPDEST SWAP1 PUSH0 MSTORE PUSH1 0x20 PUSH0 KECCAK256 ADD PUSH0 SWAP1 SLOAD SWAP1 PUSH2 0x100 EXP SWAP1 DIV PUSH20 0xFFFFFFFFFFFFFFFFFFFFFFFFFFFFFFFFFFFFFFFF AND DUP3 DUP3 DUP2 SLOAD DUP2 LT PUSH2 0x1A68 JUMPI PUSH2 0x1A67 PUSH2 0x20A4 JUMP JUMPDEST JUMPDEST SWAP1 PUSH0 MSTORE PUSH1 0x20 PUSH0 KECCAK256 ADD PUSH0 PUSH2 0x100 EXP DUP2 SLOAD DUP2 PUSH20 0xFFFFFFFFFFFFFFFFFFFFFFFFFFFFFFFFFFFFFFFF MUL NOT AND SWAP1 DUP4 PUSH20 0xFFFFFFFFFFFFFFFFFFFFFFFFFFFFFFFFFFFFFFFF AND MUL OR SWAP1 SSTORE POP DUP2 DUP1 SLOAD DUP1 PUSH2 0x1ABE JUMPI PUSH2 0x1ABD PUSH2 0x27BE JUMP JUMPDEST JUMPDEST PUSH1 0x1 SWAP1 SUB DUP2 DUP2 SWAP1 PUSH0 MSTORE PUSH1 0x20 PUSH0 KECCAK256 ADD PUSH0 PUSH2 0x100 EXP DUP2 SLOAD SWAP1 PUSH20 0xFFFFFFFFFFFFFFFFFFFFFFFFFFFFFFFFFFFFFFFF MUL NOT AND SWAP1 SSTORE SWAP1 SSTORE PUSH2 0x1B02 JUMP JUMPDEST DUP1 DUP1 PUSH1 0x1 ADD SWAP2 POP POP PUSH2 0x1991 JUMP JUMPDEST POP PUSH32 0x753F40CA3312B2408759A67875B367955E7BAA221DAF08AA3D643D96202AC12B DUP3 PUSH1 0x40 MLOAD PUSH2 0x1B32 SWAP2 SWAP1 PUSH2 0x1D4E JUMP JUMPDEST PUSH1 0x40 MLOAD DUP1 SWAP2 SUB SWAP1 LOG1 POP POP JUMP JUMPDEST PUSH0 DUP1 REVERT JUMPDEST PUSH0 PUSH20 0xFFFFFFFFFFFFFFFFFFFFFFFFFFFFFFFFFFFFFFFF DUP3 AND SWAP1 POP SWAP2 SWAP1 POP JUMP JUMPDEST PUSH0 PUSH2 0x1B6B DUP3 PUSH2 0x1B42 JUMP JUMPDEST SWAP1 POP SWAP2 SWAP1 POP JUMP JUMPDEST PUSH2 0x1B7B DUP2 PUSH2 0x1B61 JUMP JUMPDEST DUP2 EQ PUSH2 0x1B85 JUMPI PUSH0 DUP1 REVERT JUMPDEST POP JUMP JUMPDEST PUSH0 DUP2 CALLDATALOAD SWAP1 POP PUSH2 0x1B96 DUP2 PUSH2 0x1B72 JUMP JUMPDEST SWAP3 SWAP2 POP POP JUMP JUMPDEST PUSH0 DUP2 SWAP1 POP SWAP2 SWAP1 POP JUMP JUMPDEST PUSH2 0x1BAE DUP2 PUSH2 0x1B9C JUMP JUMPDEST DUP2 EQ PUSH2 0x1BB8 JUMPI PUSH0 DUP1 REVERT JUMPDEST POP JUMP JUMPDEST PUSH0 DUP2 CALLDATALOAD SWAP1 POP PUSH2 0x1BC9 DUP2 PUSH2 0x1BA5 JUMP JUMPDEST SWAP3 SWAP2 POP POP JUMP JUMPDEST PUSH0 DUP1 PUSH1 0x40 DUP4 DUP6 SUB SLT ISZERO PUSH2 0x1BE5 JUMPI PUSH2 0x1BE4 PUSH2 0x1B3E JUMP JUMPDEST JUMPDEST PUSH0 PUSH2 0x1BF2 DUP6 DUP3 DUP7 ADD PUSH2 0x1B88 JUMP JUMPDEST SWAP3 POP POP PUSH1 0x20 PUSH2 0x1C03 DUP6 DUP3 DUP7 ADD PUSH2 0x1BBB JUMP JUMPDEST SWAP2 POP POP SWAP3 POP SWAP3 SWAP1 POP JUMP JUMPDEST PUSH2 0x1C16 DUP2 PUSH2 0x1B9C JUMP JUMPDEST DUP3 MSTORE POP POP JUMP JUMPDEST PUSH0 DUP2 MLOAD SWAP1 POP SWAP2 SWAP1 POP JUMP JUMPDEST PUSH0 DUP3 DUP3 MSTORE PUSH1 0x20 DUP3 ADD SWAP1 POP SWAP3 SWAP2 POP POP JUMP JUMPDEST DUP3 DUP2 DUP4 MCOPY PUSH0 DUP4 DUP4 ADD MSTORE POP POP POP JUMP JUMPDEST PUSH0 PUSH1 0x1F NOT PUSH1 0x1F DUP4 ADD AND SWAP1 POP SWAP2 SWAP1 POP JUMP JUMPDEST PUSH0 PUSH2 0x1C5E DUP3 PUSH2 0x1C1C JUMP JUMPDEST PUSH2 0x1C68 DUP2 DUP6 PUSH2 0x1C26 JUMP JUMPDEST SWAP4 POP PUSH2 0x1C78 DUP2 DUP6 PUSH1 0x20 DUP7 ADD PUSH2 0x1C36 JUMP JUMPDEST PUSH2 0x1C81 DUP2 PUSH2 0x1C44 JUMP JUMPDEST DUP5 ADD SWAP2 POP POP SWAP3 SWAP2 POP POP JUMP JUMPDEST PUSH2 0x1C95 DUP2 PUSH2 0x1B61 JUMP JUMPDEST DUP3 MSTORE POP POP JUMP JUMPDEST PUSH0 DUP2 ISZERO ISZERO SWAP1 POP SWAP2 SWAP1 POP JUMP JUMPDEST PUSH2 0x1CAF DUP2 PUSH2 0x1C9B JUMP JUMPDEST DUP3 MSTORE POP POP JUMP JUMPDEST PUSH0 PUSH2 0x120 DUP3 ADD SWAP1 POP PUSH2 0x1CC9 PUSH0 DUP4 ADD DUP13 PUSH2 0x1C0D JUMP JUMPDEST DUP2 DUP2 SUB PUSH1 0x20 DUP4 ADD MSTORE PUSH2 0x1CDB DUP2 DUP12 PUSH2 0x1C54 JUMP JUMPDEST SWAP1 POP DUP2 DUP2 SUB PUSH1 0x40 DUP4 ADD MSTORE PUSH2 0x1CEF DUP2 DUP11 PUSH2 0x1C54 JUMP JUMPDEST SWAP1 POP PUSH2 0x1CFE PUSH1 0x60 DUP4 ADD DUP10 PUSH2 0x1C8C JUMP JUMPDEST PUSH2 0x1D0B PUSH1 0x80 DUP4 ADD DUP9 PUSH2 0x1C0D JUMP JUMPDEST PUSH2 0x1D18 PUSH1 0xA0 DUP4 ADD DUP8 PUSH2 0x1C0D JUMP JUMPDEST PUSH2 0x1D25 PUSH1 0xC0 DUP4 ADD DUP7 PUSH2 0x1C0D JUMP JUMPDEST PUSH2 0x1D32 PUSH1 0xE0 DUP4 ADD DUP6 PUSH2 0x1CA6 JUMP JUMPDEST PUSH2 0x1D40 PUSH2 0x100 DUP4 ADD DUP5 PUSH2 0x1CA6 JUMP JUMPDEST SWAP11 SWAP10 POP POP POP POP POP POP POP POP POP POP JUMP JUMPDEST PUSH0 PUSH1 0x20 DUP3 ADD SWAP1 POP PUSH2 0x1D61 PUSH0 DUP4 ADD DUP5 PUSH2 0x1C8C JUMP JUMPDEST SWAP3 SWAP2 POP POP JUMP JUMPDEST PUSH0 DUP1 PUSH1 0x40 DUP4 DUP6 SUB SLT ISZERO PUSH2 0x1D7D JUMPI PUSH2 0x1D7C PUSH2 0x1B3E JUMP JUMPDEST JUMPDEST PUSH0 PUSH2 0x1D8A DUP6 DUP3 DUP7 ADD PUSH2 0x1BBB JUMP JUMPDEST SWAP3 POP POP PUSH1 0x20 PUSH2 0x1D9B DUP6 DUP3 DUP7 ADD PUSH2 0x1B88 JUMP JUMPDEST SWAP2 POP POP SWAP3 POP SWAP3 SWAP1 POP JUMP JUMPDEST PUSH0 PUSH1 0xA0 DUP3 ADD SWAP1 POP PUSH2 0x1DB8 PUSH0 DUP4 ADD DUP9 PUSH2 0x1C0D JUMP JUMPDEST DUP2 DUP2 SUB PUSH1 0x20 DUP4 ADD MSTORE PUSH2 0x1DCA DUP2 DUP8 PUSH2 0x1C54 JUMP JUMPDEST SWAP1 POP PUSH2 0x1DD9 PUSH1 0x40 DUP4 ADD DUP7 PUSH2 0x1C0D JUMP JUMPDEST PUSH2 0x1DE6 PUSH1 0x60 DUP4 ADD DUP6 PUSH2 0x1C8C JUMP JUMPDEST PUSH2 0x1DF3 PUSH1 0x80 DUP4 ADD DUP5 PUSH2 0x1C8C JUMP JUMPDEST SWAP7 SWAP6 POP POP POP POP POP POP JUMP JUMPDEST PUSH0 PUSH1 0x20 DUP3 ADD SWAP1 POP PUSH2 0x1E10 PUSH0 DUP4 ADD DUP5 PUSH2 0x1C0D JUMP JUMPDEST SWAP3 SWAP2 POP POP JUMP JUMPDEST PUSH0 PUSH1 0x80 DUP3 ADD SWAP1 POP PUSH2 0x1E29 PUSH0 DUP4 ADD DUP8 PUSH2 0x1C8C JUMP JUMPDEST PUSH2 0x1E36 PUSH1 0x20 DUP4 ADD DUP7 PUSH2 0x1C0D JUMP JUMPDEST DUP2 DUP2 SUB PUSH1 0x40 DUP4 ADD MSTORE PUSH2 0x1E48 DUP2 DUP6 PUSH2 0x1C54 JUMP JUMPDEST SWAP1 POP PUSH2 0x1E57 PUSH1 0x60 DUP4 ADD DUP5 PUSH2 0x1C0D JUMP JUMPDEST SWAP6 SWAP5 POP POP POP POP POP JUMP JUMPDEST PUSH0 PUSH1 0x20 DUP3 DUP5 SUB SLT ISZERO PUSH2 0x1E75 JUMPI PUSH2 0x1E74 PUSH2 0x1B3E JUMP JUMPDEST JUMPDEST PUSH0 PUSH2 0x1E82 DUP5 DUP3 DUP6 ADD PUSH2 0x1B88 JUMP JUMPDEST SWAP2 POP POP SWAP3 SWAP2 POP POP JUMP JUMPDEST PUSH0 DUP1 PUSH1 0x40 DUP4 DUP6 SUB SLT ISZERO PUSH2 0x1EA1 JUMPI PUSH2 0x1EA0 PUSH2 0x1B3E JUMP JUMPDEST JUMPDEST PUSH0 PUSH2 0x1EAE DUP6 DUP3 DUP7 ADD PUSH2 0x1B88 JUMP JUMPDEST SWAP3 POP POP PUSH1 0x20 PUSH2 0x1EBF DUP6 DUP3 DUP7 ADD PUSH2 0x1B88 JUMP JUMPDEST SWAP2 POP POP SWAP3 POP SWAP3 SWAP1 POP JUMP JUMPDEST PUSH0 PUSH1 0x20 DUP3 ADD SWAP1 POP PUSH2 0x1EDC PUSH0 DUP4 ADD DUP5 PUSH2 0x1CA6 JUMP JUMPDEST SWAP3 SWAP2 POP POP JUMP JUMPDEST PUSH0 DUP1 PUSH0 PUSH1 0x60 DUP5 DUP7 SUB SLT ISZERO PUSH2 0x1EF9 JUMPI PUSH2 0x1EF8 PUSH2 0x1B3E JUMP JUMPDEST JUMPDEST PUSH0 PUSH2 0x1F06 DUP7 DUP3 DUP8 ADD PUSH2 0x1B88 JUMP JUMPDEST SWAP4 POP POP PUSH1 0x20 PUSH2 0x1F17 DUP7 DUP3 DUP8 ADD PUSH2 0x1BBB JUMP JUMPDEST SWAP3 POP POP PUSH1 0x40 PUSH2 0x1F28 DUP7 DUP3 DUP8 ADD PUSH2 0x1BBB JUMP JUMPDEST SWAP2 POP POP SWAP3 POP SWAP3 POP SWAP3 JUMP JUMPDEST PUSH0 PUSH1 0x40 DUP3 ADD SWAP1 POP PUSH2 0x1F45 PUSH0 DUP4 ADD DUP6 PUSH2 0x1C8C JUMP JUMPDEST PUSH2 0x1F52 PUSH1 0x20 DUP4 ADD DUP5 PUSH2 0x1C0D JUMP JUMPDEST SWAP4 SWAP3 POP POP POP JUMP JUMPDEST PUSH32 0x4E487B7100000000000000000000000000000000000000000000000000000000 PUSH0 MSTORE PUSH1 0x22 PUSH1 0x4 MSTORE PUSH1 0x24 PUSH0 REVERT JUMPDEST PUSH0 PUSH1 0x2 DUP3 DIV SWAP1 POP PUSH1 0x1 DUP3 AND DUP1 PUSH2 0x1F9D JUMPI PUSH1 0x7F DUP3 AND SWAP2 POP JUMPDEST PUSH1 0x20 DUP3 LT DUP2 SUB PUSH2 0x1FB0 JUMPI PUSH2 0x1FAF PUSH2 0x1F59 JUMP JUMPDEST JUMPDEST POP SWAP2 SWAP1 POP JUMP JUMPDEST PUSH32 0x5468657265204973204E6F2043616D706169676E204279205468617420616464 PUSH0 DUP3 ADD MSTORE PUSH32 0x7265737321000000000000000000000000000000000000000000000000000000 PUSH1 0x20 DUP3 ADD MSTORE POP JUMP JUMPDEST PUSH0 PUSH2 0x2010 PUSH1 0x25 DUP4 PUSH2 0x1C26 JUMP JUMPDEST SWAP2 POP PUSH2 0x201B DUP3 PUSH2 0x1FB6 JUMP JUMPDEST PUSH1 0x40 DUP3 ADD SWAP1 POP SWAP2 SWAP1 POP JUMP JUMPDEST PUSH0 PUSH1 0x20 DUP3 ADD SWAP1 POP DUP2 DUP2 SUB PUSH0 DUP4 ADD MSTORE PUSH2 0x203D DUP2 PUSH2 0x2004 JUMP JUMPDEST SWAP1 POP SWAP2 SWAP1 POP JUMP JUMPDEST PUSH32 0x4E487B7100000000000000000000000000000000000000000000000000000000 PUSH0 MSTORE PUSH1 0x11 PUSH1 0x4 MSTORE PUSH1 0x24 PUSH0 REVERT JUMPDEST PUSH0 PUSH2 0x207B DUP3 PUSH2 0x1B9C JUMP JUMPDEST SWAP2 POP PUSH2 0x2086 DUP4 PUSH2 0x1B9C JUMP JUMPDEST SWAP3 POP DUP3 DUP3 SUB SWAP1 POP DUP2 DUP2 GT ISZERO PUSH2 0x209E JUMPI PUSH2 0x209D PUSH2 0x2044 JUMP JUMPDEST JUMPDEST SWAP3 SWAP2 POP POP JUMP JUMPDEST PUSH32 0x4E487B7100000000000000000000000000000000000000000000000000000000 PUSH0 MSTORE PUSH1 0x32 PUSH1 0x4 MSTORE PUSH1 0x24 PUSH0 REVERT JUMPDEST PUSH32 0x5468652043616D706169676E2053706563696669656420446F6573204E6F7420 PUSH0 DUP3 ADD MSTORE PUSH32 0x4578697374210000000000000000000000000000000000000000000000000000 PUSH1 0x20 DUP3 ADD MSTORE POP JUMP JUMPDEST PUSH0 PUSH2 0x212B PUSH1 0x26 DUP4 PUSH2 0x1C26 JUMP JUMPDEST SWAP2 POP PUSH2 0x2136 DUP3 PUSH2 0x20D1 JUMP JUMPDEST PUSH1 0x40 DUP3 ADD SWAP1 POP SWAP2 SWAP1 POP JUMP JUMPDEST PUSH0 PUSH1 0x20 DUP3 ADD SWAP1 POP DUP2 DUP2 SUB PUSH0 DUP4 ADD MSTORE PUSH2 0x2158 DUP2 PUSH2 0x211F JUMP JUMPDEST SWAP1 POP SWAP2 SWAP1 POP JUMP JUMPDEST PUSH32 0x4F6E6C792041646D696E732043616E20506572666F726D205468697320416374 PUSH0 DUP3 ADD MSTORE PUSH32 0x696F6E2100000000000000000000000000000000000000000000000000000000 PUSH1 0x20 DUP3 ADD MSTORE POP JUMP JUMPDEST PUSH0 PUSH2 0x21B9 PUSH1 0x24 DUP4 PUSH2 0x1C26 JUMP JUMPDEST SWAP2 POP PUSH2 0x21C4 DUP3 PUSH2 0x215F JUMP JUMPDEST PUSH1 0x40 DUP3 ADD SWAP1 POP SWAP2 SWAP1 POP JUMP JUMPDEST PUSH0 PUSH1 0x20 DUP3 ADD SWAP1 POP DUP2 DUP2 SUB PUSH0 DUP4 ADD MSTORE PUSH2 0x21E6 DUP2 PUSH2 0x21AD JUMP JUMPDEST SWAP1 POP SWAP2 SWAP1 POP JUMP JUMPDEST PUSH32 0x546869732043616D706169676E204973205375636365737366756C2043616E6E PUSH0 DUP3 ADD MSTORE PUSH32 0x6F742062652043616E63656C6C65642100000000000000000000000000000000 PUSH1 0x20 DUP3 ADD MSTORE POP JUMP JUMPDEST PUSH0 PUSH2 0x2247 PUSH1 0x30 DUP4 PUSH2 0x1C26 JUMP JUMPDEST SWAP2 POP PUSH2 0x2252 DUP3 PUSH2 0x21ED JUMP JUMPDEST PUSH1 0x40 DUP3 ADD SWAP1 POP SWAP2 SWAP1 POP JUMP JUMPDEST PUSH0 PUSH1 0x20 DUP3 ADD SWAP1 POP DUP2 DUP2 SUB PUSH0 DUP4 ADD MSTORE PUSH2 0x2274 DUP2 PUSH2 0x223B JUMP JUMPDEST SWAP1 POP SWAP2 SWAP1 POP JUMP JUMPDEST PUSH32 0x496E73756666696369656E7420636F6E74726163742062616C616E6365000000 PUSH0 DUP3 ADD MSTORE POP JUMP JUMPDEST PUSH0 PUSH2 0x22AF PUSH1 0x1D DUP4 PUSH2 0x1C26 JUMP JUMPDEST SWAP2 POP PUSH2 0x22BA DUP3 PUSH2 0x227B JUMP JUMPDEST PUSH1 0x20 DUP3 ADD SWAP1 POP SWAP2 SWAP1 POP JUMP JUMPDEST PUSH0 PUSH1 0x20 DUP3 ADD SWAP1 POP DUP2 DUP2 SUB PUSH0 DUP4 ADD MSTORE PUSH2 0x22DC DUP2 PUSH2 0x22A3 JUMP JUMPDEST SWAP1 POP SWAP2 SWAP1 POP JUMP JUMPDEST PUSH0 DUP2 SWAP1 POP SWAP3 SWAP2 POP POP JUMP JUMPDEST POP JUMP JUMPDEST PUSH0 PUSH2 0x22FB PUSH0 DUP4 PUSH2 0x22E3 JUMP JUMPDEST SWAP2 POP PUSH2 0x2306 DUP3 PUSH2 0x22ED JUMP JUMPDEST PUSH0 DUP3 ADD SWAP1 POP SWAP2 SWAP1 POP JUMP JUMPDEST PUSH0 PUSH2 0x231A DUP3 PUSH2 0x22F0 JUMP JUMPDEST SWAP2 POP DUP2 SWAP1 POP SWAP2 SWAP1 POP JUMP JUMPDEST PUSH32 0x5472616E73666572206661696C65640000000000000000000000000000000000 PUSH0 DUP3 ADD MSTORE POP JUMP JUMPDEST PUSH0 PUSH2 0x2358 PUSH1 0xF DUP4 PUSH2 0x1C26 JUMP JUMPDEST SWAP2 POP PUSH2 0x2363 DUP3 PUSH2 0x2324 JUMP JUMPDEST PUSH1 0x20 DUP3 ADD SWAP1 POP SWAP2 SWAP1 POP JUMP JUMPDEST PUSH0 PUSH1 0x20 DUP3 ADD SWAP1 POP DUP2 DUP2 SUB PUSH0 DUP4 ADD MSTORE PUSH2 0x2385 DUP2 PUSH2 0x234C JUMP JUMPDEST SWAP1 POP SWAP2 SWAP1 POP JUMP JUMPDEST PUSH0 PUSH2 0x2396 DUP3 PUSH2 0x1B9C JUMP JUMPDEST SWAP2 POP PUSH2 0x23A1 DUP4 PUSH2 0x1B9C JUMP JUMPDEST SWAP3 POP DUP3 DUP3 ADD SWAP1 POP DUP1 DUP3 GT ISZERO PUSH2 0x23B9 JUMPI PUSH2 0x23B8 PUSH2 0x2044 JUMP JUMPDEST JUMPDEST SWAP3 SWAP2 POP POP JUMP JUMPDEST PUSH0 PUSH1 0x80 DUP3 ADD SWAP1 POP PUSH2 0x23D2 PUSH0 DUP4 ADD DUP8 PUSH2 0x1C8C JUMP JUMPDEST PUSH2 0x23DF PUSH1 0x20 DUP4 ADD DUP7 PUSH2 0x1C0D JUMP JUMPDEST PUSH2 0x23EC PUSH1 0x40 DUP4 ADD DUP6 PUSH2 0x1C8C JUMP JUMPDEST PUSH2 0x23F9 PUSH1 0x60 DUP4 ADD DUP5 PUSH2 0x1C0D JUMP JUMPDEST SWAP6 SWAP5 POP POP POP POP POP JUMP JUMPDEST PUSH32 0x526566756E642057617320556E7375636365737366756C210000000000000000 PUSH0 DUP3 ADD MSTORE POP JUMP JUMPDEST PUSH0 PUSH2 0x2436 PUSH1 0x18 DUP4 PUSH2 0x1C26 JUMP JUMPDEST SWAP2 POP PUSH2 0x2441 DUP3 PUSH2 0x2402 JUMP JUMPDEST PUSH1 0x20 DUP3 ADD SWAP1 POP SWAP2 SWAP1 POP JUMP JUMPDEST PUSH0 PUSH1 0x20 DUP3 ADD SWAP1 POP DUP2 DUP2 SUB PUSH0 DUP4 ADD MSTORE PUSH2 0x2463 DUP2 PUSH2 0x242A JUMP JUMPDEST SWAP1 POP SWAP2 SWAP1 POP JUMP JUMPDEST PUSH32 0x546869732043616D706169676E2048617320416C726561647920526169736564 PUSH0 DUP3 ADD MSTORE PUSH32 0x2046756E64732120526566756E64204669727374205468656E2043616E63656C PUSH1 0x20 DUP3 ADD MSTORE PUSH32 0x2100000000000000000000000000000000000000000000000000000000000000 PUSH1 0x40 DUP3 ADD MSTORE POP JUMP JUMPDEST PUSH0 PUSH2 0x24EA PUSH1 0x41 DUP4 PUSH2 0x1C26 JUMP JUMPDEST SWAP2 POP PUSH2 0x24F5 DUP3 PUSH2 0x246A JUMP JUMPDEST PUSH1 0x60 DUP3 ADD SWAP1 POP SWAP2 SWAP1 POP JUMP JUMPDEST PUSH0 PUSH1 0x20 DUP3 ADD SWAP1 POP DUP2 DUP2 SUB PUSH0 DUP4 ADD MSTORE PUSH2 0x2517 DUP2 PUSH2 0x24DE JUMP JUMPDEST SWAP1 POP SWAP2 SWAP1 POP JUMP JUMPDEST PUSH32 0x546869732043616D706169676E2048617320416C7265616479204265656E2043 PUSH0 DUP3 ADD MSTORE PUSH32 0x6F6D706C65746564210000000000000000000000000000000000000000000000 PUSH1 0x20 DUP3 ADD MSTORE POP JUMP JUMPDEST PUSH0 PUSH2 0x2578 PUSH1 0x29 DUP4 PUSH2 0x1C26 JUMP JUMPDEST SWAP2 POP PUSH2 0x2583 DUP3 PUSH2 0x251E JUMP JUMPDEST PUSH1 0x40 DUP3 ADD SWAP1 POP SWAP2 SWAP1 POP JUMP JUMPDEST PUSH0 PUSH1 0x20 DUP3 ADD SWAP1 POP DUP2 DUP2 SUB PUSH0 DUP4 ADD MSTORE PUSH2 0x25A5 DUP2 PUSH2 0x256C JUMP JUMPDEST SWAP1 POP SWAP2 SWAP1 POP JUMP JUMPDEST PUSH32 0x4F6E6C7920436F6E7472616374204F776E65722043616E20506572666F726D20 PUSH0 DUP3 ADD MSTORE PUSH32 0x5468697320416374696F6E210000000000000000000000000000000000000000 PUSH1 0x20 DUP3 ADD MSTORE POP JUMP JUMPDEST PUSH0 PUSH2 0x2606 PUSH1 0x2C DUP4 PUSH2 0x1C26 JUMP JUMPDEST SWAP2 POP PUSH2 0x2611 DUP3 PUSH2 0x25AC JUMP JUMPDEST PUSH1 0x40 DUP3 ADD SWAP1 POP SWAP2 SWAP1 POP JUMP JUMPDEST PUSH0 PUSH1 0x20 DUP3 ADD SWAP1 POP DUP2 DUP2 SUB PUSH0 DUP4 ADD MSTORE PUSH2 0x2633 DUP2 PUSH2 0x25FA JUMP JUMPDEST SWAP1 POP SWAP2 SWAP1 POP JUMP JUMPDEST PUSH32 0x5468652043616D706169676E20416464726573732043616E6E6F742042652041 PUSH0 DUP3 ADD MSTORE PUSH32 0x6E2041646D696E21000000000000000000000000000000000000000000000000 PUSH1 0x20 DUP3 ADD MSTORE POP JUMP JUMPDEST PUSH0 PUSH2 0x2694 PUSH1 0x28 DUP4 PUSH2 0x1C26 JUMP JUMPDEST SWAP2 POP PUSH2 0x269F DUP3 PUSH2 0x263A JUMP JUMPDEST PUSH1 0x40 DUP3 ADD SWAP1 POP SWAP2 SWAP1 POP JUMP JUMPDEST PUSH0 PUSH1 0x20 DUP3 ADD SWAP1 POP DUP2 DUP2 SUB PUSH0 DUP4 ADD MSTORE PUSH2 0x26C1 DUP2 PUSH2 0x2688 JUMP JUMPDEST SWAP1 POP SWAP2 SWAP1 POP JUMP JUMPDEST PUSH32 0x54686973204164647265737320497320416C726561647920416E2041646D696E PUSH0 DUP3 ADD MSTORE PUSH32 0x2100000000000000000000000000000000000000000000000000000000000000 PUSH1 0x20 DUP3 ADD MSTORE POP JUMP JUMPDEST PUSH0 PUSH2 0x2722 PUSH1 0x21 DUP4 PUSH2 0x1C26 JUMP JUMPDEST SWAP2 POP PUSH2 0x272D DUP3 PUSH2 0x26C8 JUMP JUMPDEST PUSH1 0x40 DUP3 ADD SWAP1 POP SWAP2 SWAP1 POP JUMP JUMPDEST PUSH0 PUSH1 0x20 DUP3 ADD SWAP1 POP DUP2 DUP2 SUB PUSH0 DUP4 ADD MSTORE PUSH2 0x274F DUP2 PUSH2 0x2716 JUMP JUMPDEST SWAP1 POP SWAP2 SWAP1 POP JUMP JUMPDEST PUSH32 0x546869732041646472657373204973204E6F7420416E2041646D696E21000000 PUSH0 DUP3 ADD MSTORE POP JUMP JUMPDEST PUSH0 PUSH2 0x278A PUSH1 0x1D DUP4 PUSH2 0x1C26 JUMP JUMPDEST SWAP2 POP PUSH2 0x2795 DUP3 PUSH2 0x2756 JUMP JUMPDEST PUSH1 0x20 DUP3 ADD SWAP1 POP SWAP2 SWAP1 POP JUMP JUMPDEST PUSH0 PUSH1 0x20 DUP3 ADD SWAP1 POP DUP2 DUP2 SUB PUSH0 DUP4 ADD MSTORE PUSH2 0x27B7 DUP2 PUSH2 0x277E JUMP JUMPDEST SWAP1 POP SWAP2 SWAP1 POP JUMP JUMPDEST PUSH32 0x4E487B7100000000000000000000000000000000000000000000000000000000 PUSH0 MSTORE PUSH1 0x31 PUSH1 0x4 MSTORE PUSH1 0x24 PUSH0 REVERT INVALID LOG2 PUSH5 0x6970667358 0x22 SLT KECCAK256 MSIZE 0xDF GAS 0x26 PUSH2 0xD3AE 0x2A SWAP9 0x25 DUP7 0xC6 DUP16 SWAP3 0xD 0xCA PUSH7 0xDF8D8475723F30 DUP15 0xDD 0xB8 0xC4 0xD8 MCOPY 0xB6 0xAE PUSH5 0x736F6C6343 STOP ADDMOD BYTE STOP CALLER "
		},
		"gasEstimates": {
			"creation": {
				"codeDepositCost": "2054600",
				"executionCost": "26448",
				"totalCost": "2081048"
			},
			"external": {
				"RefundDonors(uint256,address)": "infinite",
				"addCampaignAdmin(address)": "infinite",
				"admins(address,address)": "infinite",
				"campaignAdmins(address,uint256)": "infinite",
				"campaigns(address,uint256)": "infinite",
				"cancelCampaign(uint256,address)": "infinite",
				"donors(address,uint256)": "infinite",
				"donorsForCampaign(address,uint256,uint256)": "infinite",
				"getContractBalance()": "2616",
				"removeCampaignAdmin(address)": "infinite",
				"withdrawals(address,uint256)": "infinite"
			}
		},
		"methodIdentifiers": {
			"RefundDonors(uint256,address)": "215c0bbb",
			"addCampaignAdmin(address)": "be18fda6",
			"admins(address,address)": "be21739e",
			"campaignAdmins(address,uint256)": "1f55e5bc",
			"campaigns(address,uint256)": "11555dbc",
			"cancelCampaign(uint256,address)": "39e9412f",
			"donors(address,uint256)": "9b56f5f0",
			"donorsForCampaign(address,uint256,uint256)": "e6c9099a",
			"getContractBalance()": "6f9fb98a",
			"removeCampaignAdmin(address)": "f1694aa1",
			"withdrawals(address,uint256)": "422b1077"
		}
	},
	"abi": [
		{
			"inputs": [],
			"stateMutability": "nonpayable",
			"type": "constructor"
		},
		{
			"anonymous": false,
			"inputs": [
				{
					"indexed": false,
					"internalType": "address",
					"name": "admin",
					"type": "address"
				}
			],
			"name": "AddAdmin",
			"type": "event"
		},
		{
			"anonymous": false,
			"inputs": [
				{
					"indexed": false,
					"internalType": "address",
					"name": "campaignAddress",
					"type": "address"
				},
				{
					"indexed": false,
					"internalType": "uint256",
					"name": "campaign_id",
					"type": "uint256"
				}
			],
			"name": "CampaignCancelled",
			"type": "event"
		},
		{
			"anonymous": false,
			"inputs": [
				{
					"indexed": false,
					"internalType": "address",
					"name": "campaignAddress",
					"type": "address"
				},
				{
					"indexed": false,
					"internalType": "uint256",
					"name": "campaign_id",
					"type": "uint256"
				}
			],
			"name": "CampaignCompleted",
			"type": "event"
		},
		{
			"anonymous": false,
			"inputs": [
				{
					"indexed": false,
					"internalType": "uint256",
					"name": "campaign_id",
					"type": "uint256"
				},
				{
					"indexed": false,
					"internalType": "address",
					"name": "campaignAddress",
					"type": "address"
				},
				{
					"indexed": false,
					"internalType": "string",
					"name": "title",
					"type": "string"
				},
				{
					"indexed": false,
					"internalType": "uint256",
					"name": "targetAmount",
					"type": "uint256"
				},
				{
					"indexed": false,
					"internalType": "uint256",
					"name": "deadline",
					"type": "uint256"
				}
			],
			"name": "CampaignCreated",
			"type": "event"
		},
		{
			"anonymous": false,
			"inputs": [
				{
					"indexed": false,
					"internalType": "address",
					"name": "donor",
					"type": "address"
				},
				{
					"indexed": false,
					"internalType": "uint256",
					"name": "amount",
					"type": "uint256"
				},
				{
					"indexed": false,
					"internalType": "address",
					"name": "campaignAddress",
					"type": "address"
				},
				{
					"indexed": false,
					"internalType": "uint256",
					"name": "campaign_id",
					"type": "uint256"
				}
			],
			"name": "DonationReceived",
			"type": "event"
		},
		{
			"anonymous": false,
			"inputs": [
				{
					"indexed": false,
					"internalType": "uint256",
					"name": "amount",
					"type": "uint256"
				},
				{
					"indexed": false,
					"internalType": "address",
					"name": "by",
					"type": "address"
				},
				{
					"indexed": false,
					"internalType": "address",
					"name": "to",
					"type": "address"
				},
				{
					"indexed": false,
					"internalType": "address",
					"name": "from",
					"type": "address"
				},
				{
					"indexed": false,
					"internalType": "uint256",
					"name": "campaignId",
					"type": "uint256"
				}
			],
			"name": "FundsWithdrawn",
			"type": "event"
		},
		{
			"anonymous": false,
			"inputs": [
				{
					"indexed": false,
					"internalType": "address",
					"name": "campaignAddress",
					"type": "address"
				},
				{
					"indexed": false,
					"internalType": "uint256",
					"name": "campaignId",
					"type": "uint256"
				},
				{
					"indexed": false,
					"internalType": "address",
					"name": "to",
					"type": "address"
				},
				{
					"indexed": false,
					"internalType": "uint256",
					"name": "amount",
					"type": "uint256"
				}
			],
			"name": "RefundCampaignDonors",
			"type": "event"
		},
		{
			"anonymous": false,
			"inputs": [
				{
					"indexed": false,
					"internalType": "address",
					"name": "admin",
					"type": "address"
				}
			],
			"name": "RemoveAdmin",
			"type": "event"
		},
		{
			"inputs": [
				{
					"internalType": "uint256",
					"name": "_campaignId",
					"type": "uint256"
				},
				{
					"internalType": "address",
					"name": "_campaignAddress",
					"type": "address"
				}
			],
			"name": "RefundDonors",
			"outputs": [],
			"stateMutability": "nonpayable",
			"type": "function"
		},
		{
			"inputs": [
				{
					"internalType": "address",
					"name": "_admin",
					"type": "address"
				}
			],
			"name": "addCampaignAdmin",
			"outputs": [],
			"stateMutability": "nonpayable",
			"type": "function"
		},
		{
			"inputs": [
				{
					"internalType": "address",
					"name": "",
					"type": "address"
				},
				{
					"internalType": "address",
					"name": "",
					"type": "address"
				}
			],
			"name": "admins",
			"outputs": [
				{
					"internalType": "bool",
					"name": "",
					"type": "bool"
				}
			],
			"stateMutability": "view",
			"type": "function"
		},
		{
			"inputs": [
				{
					"internalType": "address",
					"name": "",
					"type": "address"
				},
				{
					"internalType": "uint256",
					"name": "",
					"type": "uint256"
				}
			],
			"name": "campaignAdmins",
			"outputs": [
				{
					"internalType": "address",
					"name": "",
					"type": "address"
				}
			],
			"stateMutability": "view",
			"type": "function"
		},
		{
			"inputs": [
				{
					"internalType": "address",
					"name": "",
					"type": "address"
				},
				{
					"internalType": "uint256",
					"name": "",
					"type": "uint256"
				}
			],
			"name": "campaigns",
			"outputs": [
				{
					"internalType": "uint256",
					"name": "campaign_id",
					"type": "uint256"
				},
				{
					"internalType": "string",
					"name": "title",
					"type": "string"
				},
				{
					"internalType": "string",
					"name": "description",
					"type": "string"
				},
				{
					"internalType": "address",
					"name": "campaignAddress",
					"type": "address"
				},
				{
					"internalType": "uint256",
					"name": "targetAmount",
					"type": "uint256"
				},
				{
					"internalType": "uint256",
					"name": "raisedAmount",
					"type": "uint256"
				},
				{
					"internalType": "uint256",
					"name": "deadline",
					"type": "uint256"
				},
				{
					"internalType": "bool",
					"name": "isCompleted",
					"type": "bool"
				},
				{
					"internalType": "bool",
					"name": "isCancelled",
					"type": "bool"
				}
			],
			"stateMutability": "view",
			"type": "function"
		},
		{
			"inputs": [
				{
					"internalType": "uint256",
					"name": "_campaignId",
					"type": "uint256"
				},
				{
					"internalType": "address",
					"name": "_campaignAddress",
					"type": "address"
				}
			],
			"name": "cancelCampaign",
			"outputs": [],
			"stateMutability": "nonpayable",
			"type": "function"
		},
		{
			"inputs": [
				{
					"internalType": "address",
					"name": "",
					"type": "address"
				},
				{
					"internalType": "uint256",
					"name": "",
					"type": "uint256"
				}
			],
			"name": "donors",
			"outputs": [
				{
					"internalType": "address",
					"name": "campaignAddress",
					"type": "address"
				},
				{
					"internalType": "uint256",
					"name": "campaignId",
					"type": "uint256"
				},
				{
					"internalType": "string",
					"name": "title",
					"type": "string"
				},
				{
					"internalType": "uint256",
					"name": "amount",
					"type": "uint256"
				}
			],
			"stateMutability": "view",
			"type": "function"
		},
		{
			"inputs": [
				{
					"internalType": "address",
					"name": "",
					"type": "address"
				},
				{
					"internalType": "uint256",
					"name": "",
					"type": "uint256"
				},
				{
					"internalType": "uint256",
					"name": "",
					"type": "uint256"
				}
			],
			"name": "donorsForCampaign",
			"outputs": [
				{
					"internalType": "address",
					"name": "by",
					"type": "address"
				},
				{
					"internalType": "uint256",
					"name": "amount",
					"type": "uint256"
				}
			],
			"stateMutability": "view",
			"type": "function"
		},
		{
			"inputs": [],
			"name": "getContractBalance",
			"outputs": [
				{
					"internalType": "uint256",
					"name": "",
					"type": "uint256"
				}
			],
			"stateMutability": "view",
			"type": "function"
		},
		{
			"inputs": [
				{
					"internalType": "address",
					"name": "_admin",
					"type": "address"
				}
			],
			"name": "removeCampaignAdmin",
			"outputs": [],
			"stateMutability": "nonpayable",
			"type": "function"
		},
		{
			"inputs": [
				{
					"internalType": "address",
					"name": "",
					"type": "address"
				},
				{
					"internalType": "uint256",
					"name": "",
					"type": "uint256"
				}
			],
			"name": "withdrawals",
			"outputs": [
				{
					"internalType": "uint256",
					"name": "campaignId",
					"type": "uint256"
				},
				{
					"internalType": "string",
					"name": "title",
					"type": "string"
				},
				{
					"internalType": "uint256",
					"name": "amount",
					"type": "uint256"
				},
				{
					"internalType": "address",
					"name": "by",
					"type": "address"
				},
				{
					"internalType": "address",
					"name": "to",
					"type": "address"
				}
			],
			"stateMutability": "view",
			"type": "function"
		}
	]
}