{
	"data": {
		"bytecode": {
			"linkReferences": {},
			"object": "6080604052348015600e575f80fd5b50335f806101000a81548173ffffffffffffffffffffffffffffffffffffffff021916908373ffffffffffffffffffffffffffffffffffffffff16021790555061259c8061005b5f395ff3fe60806040526004361061006f575f3560e01c80636f9fb98a1161004d5780636f9fb98a146100f9578063be21739e14610123578063c14b8aac1461015f578063ffa56a57146101875761006f565b8063060a45241461007357806311555dbc1461009b5780635a3915cd146100dd575b5f80fd5b34801561007e575f80fd5b5061009960048036038101906100949190611291565b6101af565b005b3480156100a6575f80fd5b506100c160048036038101906100bc91906112ef565b6102fb565b6040516100d497969594939291906113d5565b60405180910390f35b6100f760048036038101906100f2919061148b565b61048a565b005b348015610104575f80fd5b5061010d610943565b60405161011a91906114db565b60405180910390f35b34801561012e575f80fd5b50610149600480360381019061014491906114f4565b61094a565b6040516101569190611532565b60405180910390f35b34801561016a575f80fd5b506101856004803603810190610180919061154b565b610974565b005b348015610192575f80fd5b506101ad60048036038101906101a891906116db565b610e88565b005b5f60015f3373ffffffffffffffffffffffffffffffffffffffff1673ffffffffffffffffffffffffffffffffffffffff1681526020019081526020015f208054905011610231576040517f08c379a0000000000000000000000000000000000000000000000000000000008152600401610228906117d3565b60405180910390fd5b600160025f3373ffffffffffffffffffffffffffffffffffffffff1673ffffffffffffffffffffffffffffffffffffffff1681526020019081526020015f205f8373ffffffffffffffffffffffffffffffffffffffff1673ffffffffffffffffffffffffffffffffffffffff1681526020019081526020015f205f6101000a81548160ff0219169083151502179055507fad6de4452a631e641cb59902236607946ce9272b9b981f2f80e8d129cb9084ba816040516102f091906117f1565b60405180910390a150565b6001602052815f5260405f208181548110610314575f80fd5b905f5260205f2090600702015f9150915050805f01549080600101805461033a90611837565b80601f016020809104026020016040519081016040528092919081815260200182805461036690611837565b80156103b15780601f10610388576101008083540402835291602001916103b1565b820191905f5260205f20905b81548152906001019060200180831161039457829003601f168201915b5050505050908060020180546103c690611837565b80601f01602080910402602001604051908101604052809291908181526020018280546103f290611837565b801561043d5780601f106104145761010080835404028352916020019161043d565b820191905f5260205f20905b81548152906001019060200180831161042057829003601f168201915b505050505090806003015f9054906101000a900473ffffffffffffffffffffffffffffffffffffffff1690806004015490806005015490806006015f9054906101000a900460ff16905087565b8160015f8573ffffffffffffffffffffffffffffffffffffffff1673ffffffffffffffffffffffffffffffffffffffff1681526020019081526020015f206001846104d59190611894565b815481106104e6576104e56118c7565b5b905f5260205f2090600702015f0154148260405160200161050791906119b2565b60405160208183030381529060405290610557576040517f08c379a000000000000000000000000000000000000000000000000000000000815260040161054e91906119e2565b60405180910390fd5b505f151560015f8573ffffffffffffffffffffffffffffffffffffffff1673ffffffffffffffffffffffffffffffffffffffff1681526020019081526020015f206001846105a59190611894565b815481106105b6576105b56118c7565b5b905f5260205f2090600702016006015f9054906101000a900460ff1615151460015f8573ffffffffffffffffffffffffffffffffffffffff1673ffffffffffffffffffffffffffffffffffffffff1681526020019081526020015f2060018461061f9190611894565b815481106106305761062f6118c7565b5b905f5260205f20906007020160010160405160200161064f9190611b28565b6040516020818303038152906040529061069f576040517f08c379a000000000000000000000000000000000000000000000000000000000815260040161069691906119e2565b60405180910390fd5b505f81116106e2576040517f08c379a00000000000000000000000000000000000000000000000000000000081526004016106d990611b9e565b60405180910390fd5b803414610724576040517f08c379a000000000000000000000000000000000000000000000000000000000815260040161071b90611c06565b60405180910390fd5b8060015f8573ffffffffffffffffffffffffffffffffffffffff1673ffffffffffffffffffffffffffffffffffffffff1681526020019081526020015f2060018461076f9190611894565b815481106107805761077f6118c7565b5b905f5260205f2090600702016005015f82825461079d9190611c24565b9250508190555060015f8473ffffffffffffffffffffffffffffffffffffffff1673ffffffffffffffffffffffffffffffffffffffff1681526020019081526020015f206001836107ee9190611894565b815481106107ff576107fe6118c7565b5b905f5260205f2090600702016004015460015f8573ffffffffffffffffffffffffffffffffffffffff1673ffffffffffffffffffffffffffffffffffffffff1681526020019081526020015f206001846108599190611894565b8154811061086a576108696118c7565b5b905f5260205f2090600702016005015410610901576001805f8573ffffffffffffffffffffffffffffffffffffffff1673ffffffffffffffffffffffffffffffffffffffff1681526020019081526020015f206001846108ca9190611894565b815481106108db576108da6118c7565b5b905f5260205f2090600702016006015f6101000a81548160ff0219169083151502179055505b7fbe0281dcb233d52d4d243d0d6ff4ed47e8641aecf85b98611ade1c9307186b7d338285856040516109369493929190611cb2565b60405180910390a1505050565b5f47905090565b6002602052815f5260405f20602052805f5260405f205f915091509054906101000a900460ff1681565b82845f60015f8473ffffffffffffffffffffffffffffffffffffffff1673ffffffffffffffffffffffffffffffffffffffff1681526020019081526020015f2080549050116109f8576040517f08c379a00000000000000000000000000000000000000000000000000000000081526004016109ef90611d65565b60405180910390fd5b8060015f8473ffffffffffffffffffffffffffffffffffffffff1673ffffffffffffffffffffffffffffffffffffffff1681526020019081526020015f20600183610a439190611894565b81548110610a5457610a536118c7565b5b905f5260205f2090600702015f015414610aa3576040517f08c379a0000000000000000000000000000000000000000000000000000000008152600401610a9a90611df3565b60405180910390fd5b60025f8373ffffffffffffffffffffffffffffffffffffffff1673ffffffffffffffffffffffffffffffffffffffff1681526020019081526020015f205f3373ffffffffffffffffffffffffffffffffffffffff1673ffffffffffffffffffffffffffffffffffffffff1681526020019081526020015f205f9054906101000a900460ff16610b67576040517f08c379a0000000000000000000000000000000000000000000000000000000008152600401610b5e90611e81565b60405180910390fd5b5f84118015610be0575060015f8673ffffffffffffffffffffffffffffffffffffffff1673ffffffffffffffffffffffffffffffffffffffff1681526020019081526020015f20600187610bbb9190611894565b81548110610bcc57610bcb6118c7565b5b905f5260205f209060070201600501548411155b610c1f576040517f08c379a0000000000000000000000000000000000000000000000000000000008152600401610c1690611f0f565b60405180910390fd5b60015f8673ffffffffffffffffffffffffffffffffffffffff1673ffffffffffffffffffffffffffffffffffffffff1681526020019081526020015f20600187610c699190611894565b81548110610c7a57610c796118c7565b5b905f5260205f2090600702016006015f9054906101000a900460ff16610cd5576040517f08c379a0000000000000000000000000000000000000000000000000000000008152600401610ccc90611f9d565b60405180910390fd5b83471015610d18576040517f08c379a0000000000000000000000000000000000000000000000000000000008152600401610d0f90612005565b60405180910390fd5b8360015f8773ffffffffffffffffffffffffffffffffffffffff1673ffffffffffffffffffffffffffffffffffffffff1681526020019081526020015f20600188610d639190611894565b81548110610d7457610d736118c7565b5b905f5260205f2090600702016005015f828254610d919190611894565b925050819055505f8373ffffffffffffffffffffffffffffffffffffffff1685604051610dbd90612050565b5f6040518083038185875af1925050503d805f8114610df7576040519150601f19603f3d011682016040523d82523d5f602084013e610dfc565b606091505b5050905080610e40576040517f08c379a0000000000000000000000000000000000000000000000000000000008152600401610e37906120ae565b60405180910390fd5b7ffb301322f68b8ea04d2b6a3ab0a1a0100d7be758e7ffa771d5539a256b92d10d853386898b604051610e779594939291906120cc565b60405180910390a150505050505050565b5f5b60015f3373ffffffffffffffffffffffffffffffffffffffff1673ffffffffffffffffffffffffffffffffffffffff1681526020019081526020015f2080549050811015610ff6575f60015f3373ffffffffffffffffffffffffffffffffffffffff1673ffffffffffffffffffffffffffffffffffffffff1681526020019081526020015f208281548110610f2257610f216118c7565b5b905f5260205f20906007020160010190505f85604051602001610f45919061214d565b6040516020818303038152906040528051906020012082604051602001610f6c91906121f5565b604051602081830303815290604052805190602001201490508015610fe75785604051602001610f9c919061229f565b6040516020818303038152906040526040517f08c379a0000000000000000000000000000000000000000000000000000000008152600401610fde91906119e2565b60405180910390fd5b50508080600101915050610e8a565b505f6040518060e001604052806001805f3373ffffffffffffffffffffffffffffffffffffffff1673ffffffffffffffffffffffffffffffffffffffff1681526020019081526020015f208054905061104f9190611c24565b81526020018581526020018481526020013373ffffffffffffffffffffffffffffffffffffffff1681526020018381526020015f81526020015f1515815250905060015f3373ffffffffffffffffffffffffffffffffffffffff1673ffffffffffffffffffffffffffffffffffffffff1681526020019081526020015f2081908060018154018082558091505060019003905f5260205f2090600702015f909190919091505f820151815f01556020820151816001019081611111919061244d565b506040820151816002019081611127919061244d565b506060820151816003015f6101000a81548173ffffffffffffffffffffffffffffffffffffffff021916908373ffffffffffffffffffffffffffffffffffffffff1602179055506080820151816004015560a0820151816005015560c0820151816006015f6101000a81548160ff02191690831515021790555050507f825fb10f7650ed27414d6f86acdf7d5946927d9b25001f045f1a2435deec02fe60015f3373ffffffffffffffffffffffffffffffffffffffff1673ffffffffffffffffffffffffffffffffffffffff1681526020019081526020015f2080549050338685604051611218949392919061251c565b60405180910390a150505050565b5f604051905090565b5f80fd5b5f80fd5b5f73ffffffffffffffffffffffffffffffffffffffff82169050919050565b5f61126082611237565b9050919050565b61127081611256565b811461127a575f80fd5b50565b5f8135905061128b81611267565b92915050565b5f602082840312156112a6576112a561122f565b5b5f6112b38482850161127d565b91505092915050565b5f819050919050565b6112ce816112bc565b81146112d8575f80fd5b50565b5f813590506112e9816112c5565b92915050565b5f80604083850312156113055761130461122f565b5b5f6113128582860161127d565b9250506020611323858286016112db565b9150509250929050565b611336816112bc565b82525050565b5f81519050919050565b5f82825260208201905092915050565b8281835e5f83830152505050565b5f601f19601f8301169050919050565b5f61137e8261133c565b6113888185611346565b9350611398818560208601611356565b6113a181611364565b840191505092915050565b6113b581611256565b82525050565b5f8115159050919050565b6113cf816113bb565b82525050565b5f60e0820190506113e85f83018a61132d565b81810360208301526113fa8189611374565b9050818103604083015261140e8188611374565b905061141d60608301876113ac565b61142a608083018661132d565b61143760a083018561132d565b61144460c08301846113c6565b98975050505050505050565b5f61145a82611237565b9050919050565b61146a81611450565b8114611474575f80fd5b50565b5f8135905061148581611461565b92915050565b5f805f606084860312156114a2576114a161122f565b5b5f6114af86828701611477565b93505060206114c0868287016112db565b92505060406114d1868287016112db565b9150509250925092565b5f6020820190506114ee5f83018461132d565b92915050565b5f806040838503121561150a5761150961122f565b5b5f6115178582860161127d565b92505060206115288582860161127d565b9150509250929050565b5f6020820190506115455f8301846113c6565b92915050565b5f805f80608085870312156115635761156261122f565b5b5f611570878288016112db565b94505060206115818782880161127d565b9350506040611592878288016112db565b92505060606115a387828801611477565b91505092959194509250565b5f80fd5b5f80fd5b7f4e487b71000000000000000000000000000000000000000000000000000000005f52604160045260245ffd5b6115ed82611364565b810181811067ffffffffffffffff8211171561160c5761160b6115b7565b5b80604052505050565b5f61161e611226565b905061162a82826115e4565b919050565b5f67ffffffffffffffff821115611649576116486115b7565b5b61165282611364565b9050602081019050919050565b828183375f83830152505050565b5f61167f61167a8461162f565b611615565b90508281526020810184848401111561169b5761169a6115b3565b5b6116a684828561165f565b509392505050565b5f82601f8301126116c2576116c16115af565b5b81356116d284826020860161166d565b91505092915050565b5f805f606084860312156116f2576116f161122f565b5b5f84013567ffffffffffffffff81111561170f5761170e611233565b5b61171b868287016116ae565b935050602084013567ffffffffffffffff81111561173c5761173b611233565b5b611748868287016116ae565b9250506040611759868287016112db565b9150509250925092565b7f5468652043616d706169676e65642053706563696669656420446f6573204e6f5f8201527f7420457869737421000000000000000000000000000000000000000000000000602082015250565b5f6117bd602883611346565b91506117c882611763565b604082019050919050565b5f6020820190508181035f8301526117ea816117b1565b9050919050565b5f6020820190506118045f8301846113ac565b92915050565b7f4e487b71000000000000000000000000000000000000000000000000000000005f52602260045260245ffd5b5f600282049050600182168061184e57607f821691505b6020821081036118615761186061180a565b5b50919050565b7f4e487b71000000000000000000000000000000000000000000000000000000005f52601160045260245ffd5b5f61189e826112bc565b91506118a9836112bc565b92508282039050818111156118c1576118c0611867565b5b92915050565b7f4e487b71000000000000000000000000000000000000000000000000000000005f52603260045260245ffd5b5f81905092915050565b7f5468652043616d706169676e20000000000000000000000000000000000000005f82015250565b5f611932600d836118f4565b915061193d826118fe565b600d82019050919050565b5f819050919050565b61196261195d826112bc565b611948565b82525050565b7f20446f6573204e4f5420457869737421000000000000000000000000000000005f82015250565b5f61199c6010836118f4565b91506119a782611968565b601082019050919050565b5f6119bc82611926565b91506119c88284611951565b6020820191506119d782611990565b915081905092915050565b5f6020820190508181035f8301526119fa8184611374565b905092915050565b7f27000000000000000000000000000000000000000000000000000000000000005f82015250565b5f611a366001836118f4565b9150611a4182611a02565b600182019050919050565b5f819050815f5260205f209050919050565b5f8154611a6a81611837565b611a7481866118f4565b9450600182165f8114611a8e5760018114611aa357611ad5565b60ff1983168652811515820286019350611ad5565b611aac85611a4c565b5f5b83811015611acd57815481890152600182019150602081019050611aae565b838801955050505b50505092915050565b7f272043616d706169676e2057617320436f6d706c6574656421000000000000005f82015250565b5f611b126019836118f4565b9150611b1d82611ade565b601982019050919050565b5f611b3282611a2a565b9150611b3e8284611a5e565b9150611b4982611b06565b915081905092915050565b7f416d6f756e742043616e6e6f74206265205a65726f00000000000000000000005f82015250565b5f611b88601583611346565b9150611b9382611b54565b602082019050919050565b5f6020820190508181035f830152611bb581611b7c565b9050919050565b7f54686520416d6f756e7420646f65736e2774204d6174636821000000000000005f82015250565b5f611bf0601983611346565b9150611bfb82611bbc565b602082019050919050565b5f6020820190508181035f830152611c1d81611be4565b9050919050565b5f611c2e826112bc565b9150611c39836112bc565b9250828201905080821115611c5157611c50611867565b5b92915050565b5f819050919050565b5f611c7a611c75611c7084611237565b611c57565b611237565b9050919050565b5f611c8b82611c60565b9050919050565b5f611c9c82611c81565b9050919050565b611cac81611c92565b82525050565b5f608082019050611cc55f8301876113ac565b611cd2602083018661132d565b611cdf6040830185611ca3565b611cec606083018461132d565b95945050505050565b7f5468657265204973204e6f2043616d706169676e2042792054686174206164645f8201527f7265737321000000000000000000000000000000000000000000000000000000602082015250565b5f611d4f602583611346565b9150611d5a82611cf5565b604082019050919050565b5f6020820190508181035f830152611d7c81611d43565b9050919050565b7f5468652043616d706169676e2053706563696669656420446f6573204e6f74205f8201527f4578697374210000000000000000000000000000000000000000000000000000602082015250565b5f611ddd602683611346565b9150611de882611d83565b604082019050919050565b5f6020820190508181035f830152611e0a81611dd1565b9050919050565b7f4f6e6c792041646d696e732043616e20506572666f726d2054686973204163745f8201527f696f6e2100000000000000000000000000000000000000000000000000000000602082015250565b5f611e6b602483611346565b9150611e7682611e11565b604082019050919050565b5f6020820190508181035f830152611e9881611e5f565b9050919050565b7f416d6f756e742043616e6e6f74206265205a65726f204f7220457863656564205f8201527f5468652052616973656420416d6f756e74210000000000000000000000000000602082015250565b5f611ef9603283611346565b9150611f0482611e9f565b604082019050919050565b5f6020820190508181035f830152611f2681611eed565b9050919050565b7f596f752043616e27742057697468647261772046756e64732066726f6d20616e5f8201527f204163746976652043616d706169676e00000000000000000000000000000000602082015250565b5f611f87603083611346565b9150611f9282611f2d565b604082019050919050565b5f6020820190508181035f830152611fb481611f7b565b9050919050565b7f496e73756666696369656e7420636f6e74726163742062616c616e63650000005f82015250565b5f611fef601d83611346565b9150611ffa82611fbb565b602082019050919050565b5f6020820190508181035f83015261201c81611fe3565b9050919050565b5f81905092915050565b50565b5f61203b5f83612023565b91506120468261202d565b5f82019050919050565b5f61205a82612030565b9150819050919050565b7f5472616e73666572206661696c656400000000000000000000000000000000005f82015250565b5f612098600f83611346565b91506120a382612064565b602082019050919050565b5f6020820190508181035f8301526120c58161208c565b9050919050565b5f60a0820190506120df5f83018861132d565b6120ec60208301876113ac565b6120f96040830186611ca3565b61210660608301856113ac565b612113608083018461132d565b9695505050505050565b5f6121278261133c565b61213181856118f4565b9350612141818560208601611356565b80840191505092915050565b5f612158828461211d565b915081905092915050565b5f819050815f5260205f209050919050565b5f815461218181611837565b61218b81866118f4565b9450600182165f81146121a557600181146121ba576121ec565b60ff19831686528115158202860193506121ec565b6121c385612163565b5f5b838110156121e4578154818901526001820191506020810190506121c5565b838801955050505b50505092915050565b5f6122008284612175565b915081905092915050565b7f43616d706169676e2000000000000000000000000000000000000000000000005f82015250565b5f61223f6009836118f4565b915061224a8261220b565b600982019050919050565b7f20616c72656164792065786973747321000000000000000000000000000000005f82015250565b5f6122896010836118f4565b915061229482612255565b601082019050919050565b5f6122a982612233565b91506122b5828461211d565b91506122c08261227d565b915081905092915050565b5f6020601f8301049050919050565b5f82821b905092915050565b5f600883026123157fffffffffffffffffffffffffffffffffffffffffffffffffffffffffffffffff826122da565b61231f86836122da565b95508019841693508086168417925050509392505050565b5f61235161234c612347846112bc565b611c57565b6112bc565b9050919050565b5f819050919050565b61236a83612337565b61237e61237682612358565b8484546122e6565b825550505050565b5f90565b612392612386565b61239d818484612361565b505050565b5b818110156123c0576123b55f8261238a565b6001810190506123a3565b5050565b601f821115612405576123d681611a4c565b6123df846122cb565b810160208510156123ee578190505b6124026123fa856122cb565b8301826123a2565b50505b505050565b5f82821c905092915050565b5f6124255f198460080261240a565b1980831691505092915050565b5f61243d8383612416565b9150826002028217905092915050565b6124568261133c565b67ffffffffffffffff81111561246f5761246e6115b7565b5b6124798254611837565b6124848282856123c4565b5f60209050601f8311600181146124b5575f84156124a3578287015190505b6124ad8582612432565b865550612514565b601f1984166124c386611a4c565b5f5b828110156124ea578489015182556001820191506020850194506020810190506124c5565b868310156125075784890151612503601f891682612416565b8355505b6001600288020188555050505b505050505050565b5f60808201905061252f5f83018761132d565b61253c60208301866113ac565b818103604083015261254e8185611374565b905061255d606083018461132d565b9594505050505056fea2646970667358221220cc3a0bb7429b26ba39f1ebd3dd2b2dbd77da417cbc4069c9dd095d91d51e71d964736f6c634300081a0033",
			"opcodes": "PUSH1 0x80 PUSH1 0x40 MSTORE CALLVALUE DUP1 ISZERO PUSH1 0xE JUMPI PUSH0 DUP1 REVERT JUMPDEST POP CALLER PUSH0 DUP1 PUSH2 0x100 EXP DUP2 SLOAD DUP2 PUSH20 0xFFFFFFFFFFFFFFFFFFFFFFFFFFFFFFFFFFFFFFFF MUL NOT AND SWAP1 DUP4 PUSH20 0xFFFFFFFFFFFFFFFFFFFFFFFFFFFFFFFFFFFFFFFF AND MUL OR SWAP1 SSTORE POP PUSH2 0x259C DUP1 PUSH2 0x5B PUSH0 CODECOPY PUSH0 RETURN INVALID PUSH1 0x80 PUSH1 0x40 MSTORE PUSH1 0x4 CALLDATASIZE LT PUSH2 0x6F JUMPI PUSH0 CALLDATALOAD PUSH1 0xE0 SHR DUP1 PUSH4 0x6F9FB98A GT PUSH2 0x4D JUMPI DUP1 PUSH4 0x6F9FB98A EQ PUSH2 0xF9 JUMPI DUP1 PUSH4 0xBE21739E EQ PUSH2 0x123 JUMPI DUP1 PUSH4 0xC14B8AAC EQ PUSH2 0x15F JUMPI DUP1 PUSH4 0xFFA56A57 EQ PUSH2 0x187 JUMPI PUSH2 0x6F JUMP JUMPDEST DUP1 PUSH4 0x60A4524 EQ PUSH2 0x73 JUMPI DUP1 PUSH4 0x11555DBC EQ PUSH2 0x9B JUMPI DUP1 PUSH4 0x5A3915CD EQ PUSH2 0xDD JUMPI JUMPDEST PUSH0 DUP1 REVERT JUMPDEST CALLVALUE DUP1 ISZERO PUSH2 0x7E JUMPI PUSH0 DUP1 REVERT JUMPDEST POP PUSH2 0x99 PUSH1 0x4 DUP1 CALLDATASIZE SUB DUP2 ADD SWAP1 PUSH2 0x94 SWAP2 SWAP1 PUSH2 0x1291 JUMP JUMPDEST PUSH2 0x1AF JUMP JUMPDEST STOP JUMPDEST CALLVALUE DUP1 ISZERO PUSH2 0xA6 JUMPI PUSH0 DUP1 REVERT JUMPDEST POP PUSH2 0xC1 PUSH1 0x4 DUP1 CALLDATASIZE SUB DUP2 ADD SWAP1 PUSH2 0xBC SWAP2 SWAP1 PUSH2 0x12EF JUMP JUMPDEST PUSH2 0x2FB JUMP JUMPDEST PUSH1 0x40 MLOAD PUSH2 0xD4 SWAP8 SWAP7 SWAP6 SWAP5 SWAP4 SWAP3 SWAP2 SWAP1 PUSH2 0x13D5 JUMP JUMPDEST PUSH1 0x40 MLOAD DUP1 SWAP2 SUB SWAP1 RETURN JUMPDEST PUSH2 0xF7 PUSH1 0x4 DUP1 CALLDATASIZE SUB DUP2 ADD SWAP1 PUSH2 0xF2 SWAP2 SWAP1 PUSH2 0x148B JUMP JUMPDEST PUSH2 0x48A JUMP JUMPDEST STOP JUMPDEST CALLVALUE DUP1 ISZERO PUSH2 0x104 JUMPI PUSH0 DUP1 REVERT JUMPDEST POP PUSH2 0x10D PUSH2 0x943 JUMP JUMPDEST PUSH1 0x40 MLOAD PUSH2 0x11A SWAP2 SWAP1 PUSH2 0x14DB JUMP JUMPDEST PUSH1 0x40 MLOAD DUP1 SWAP2 SUB SWAP1 RETURN JUMPDEST CALLVALUE DUP1 ISZERO PUSH2 0x12E JUMPI PUSH0 DUP1 REVERT JUMPDEST POP PUSH2 0x149 PUSH1 0x4 DUP1 CALLDATASIZE SUB DUP2 ADD SWAP1 PUSH2 0x144 SWAP2 SWAP1 PUSH2 0x14F4 JUMP JUMPDEST PUSH2 0x94A JUMP JUMPDEST PUSH1 0x40 MLOAD PUSH2 0x156 SWAP2 SWAP1 PUSH2 0x1532 JUMP JUMPDEST PUSH1 0x40 MLOAD DUP1 SWAP2 SUB SWAP1 RETURN JUMPDEST CALLVALUE DUP1 ISZERO PUSH2 0x16A JUMPI PUSH0 DUP1 REVERT JUMPDEST POP PUSH2 0x185 PUSH1 0x4 DUP1 CALLDATASIZE SUB DUP2 ADD SWAP1 PUSH2 0x180 SWAP2 SWAP1 PUSH2 0x154B JUMP JUMPDEST PUSH2 0x974 JUMP JUMPDEST STOP JUMPDEST CALLVALUE DUP1 ISZERO PUSH2 0x192 JUMPI PUSH0 DUP1 REVERT JUMPDEST POP PUSH2 0x1AD PUSH1 0x4 DUP1 CALLDATASIZE SUB DUP2 ADD SWAP1 PUSH2 0x1A8 SWAP2 SWAP1 PUSH2 0x16DB JUMP JUMPDEST PUSH2 0xE88 JUMP JUMPDEST STOP JUMPDEST PUSH0 PUSH1 0x1 PUSH0 CALLER PUSH20 0xFFFFFFFFFFFFFFFFFFFFFFFFFFFFFFFFFFFFFFFF AND PUSH20 0xFFFFFFFFFFFFFFFFFFFFFFFFFFFFFFFFFFFFFFFF AND DUP2 MSTORE PUSH1 0x20 ADD SWAP1 DUP2 MSTORE PUSH1 0x20 ADD PUSH0 KECCAK256 DUP1 SLOAD SWAP1 POP GT PUSH2 0x231 JUMPI PUSH1 0x40 MLOAD PUSH32 0x8C379A000000000000000000000000000000000000000000000000000000000 DUP2 MSTORE PUSH1 0x4 ADD PUSH2 0x228 SWAP1 PUSH2 0x17D3 JUMP JUMPDEST PUSH1 0x40 MLOAD DUP1 SWAP2 SUB SWAP1 REVERT JUMPDEST PUSH1 0x1 PUSH1 0x2 PUSH0 CALLER PUSH20 0xFFFFFFFFFFFFFFFFFFFFFFFFFFFFFFFFFFFFFFFF AND PUSH20 0xFFFFFFFFFFFFFFFFFFFFFFFFFFFFFFFFFFFFFFFF AND DUP2 MSTORE PUSH1 0x20 ADD SWAP1 DUP2 MSTORE PUSH1 0x20 ADD PUSH0 KECCAK256 PUSH0 DUP4 PUSH20 0xFFFFFFFFFFFFFFFFFFFFFFFFFFFFFFFFFFFFFFFF AND PUSH20 0xFFFFFFFFFFFFFFFFFFFFFFFFFFFFFFFFFFFFFFFF AND DUP2 MSTORE PUSH1 0x20 ADD SWAP1 DUP2 MSTORE PUSH1 0x20 ADD PUSH0 KECCAK256 PUSH0 PUSH2 0x100 EXP DUP2 SLOAD DUP2 PUSH1 0xFF MUL NOT AND SWAP1 DUP4 ISZERO ISZERO MUL OR SWAP1 SSTORE POP PUSH32 0xAD6DE4452A631E641CB59902236607946CE9272B9B981F2F80E8D129CB9084BA DUP2 PUSH1 0x40 MLOAD PUSH2 0x2F0 SWAP2 SWAP1 PUSH2 0x17F1 JUMP JUMPDEST PUSH1 0x40 MLOAD DUP1 SWAP2 SUB SWAP1 LOG1 POP JUMP JUMPDEST PUSH1 0x1 PUSH1 0x20 MSTORE DUP2 PUSH0 MSTORE PUSH1 0x40 PUSH0 KECCAK256 DUP2 DUP2 SLOAD DUP2 LT PUSH2 0x314 JUMPI PUSH0 DUP1 REVERT JUMPDEST SWAP1 PUSH0 MSTORE PUSH1 0x20 PUSH0 KECCAK256 SWAP1 PUSH1 0x7 MUL ADD PUSH0 SWAP2 POP SWAP2 POP POP DUP1 PUSH0 ADD SLOAD SWAP1 DUP1 PUSH1 0x1 ADD DUP1 SLOAD PUSH2 0x33A SWAP1 PUSH2 0x1837 JUMP JUMPDEST DUP1 PUSH1 0x1F ADD PUSH1 0x20 DUP1 SWAP2 DIV MUL PUSH1 0x20 ADD PUSH1 0x40 MLOAD SWAP1 DUP2 ADD PUSH1 0x40 MSTORE DUP1 SWAP3 SWAP2 SWAP1 DUP2 DUP2 MSTORE PUSH1 0x20 ADD DUP3 DUP1 SLOAD PUSH2 0x366 SWAP1 PUSH2 0x1837 JUMP JUMPDEST DUP1 ISZERO PUSH2 0x3B1 JUMPI DUP1 PUSH1 0x1F LT PUSH2 0x388 JUMPI PUSH2 0x100 DUP1 DUP4 SLOAD DIV MUL DUP4 MSTORE SWAP2 PUSH1 0x20 ADD SWAP2 PUSH2 0x3B1 JUMP JUMPDEST DUP3 ADD SWAP2 SWAP1 PUSH0 MSTORE PUSH1 0x20 PUSH0 KECCAK256 SWAP1 JUMPDEST DUP2 SLOAD DUP2 MSTORE SWAP1 PUSH1 0x1 ADD SWAP1 PUSH1 0x20 ADD DUP1 DUP4 GT PUSH2 0x394 JUMPI DUP3 SWAP1 SUB PUSH1 0x1F AND DUP3 ADD SWAP2 JUMPDEST POP POP POP POP POP SWAP1 DUP1 PUSH1 0x2 ADD DUP1 SLOAD PUSH2 0x3C6 SWAP1 PUSH2 0x1837 JUMP JUMPDEST DUP1 PUSH1 0x1F ADD PUSH1 0x20 DUP1 SWAP2 DIV MUL PUSH1 0x20 ADD PUSH1 0x40 MLOAD SWAP1 DUP2 ADD PUSH1 0x40 MSTORE DUP1 SWAP3 SWAP2 SWAP1 DUP2 DUP2 MSTORE PUSH1 0x20 ADD DUP3 DUP1 SLOAD PUSH2 0x3F2 SWAP1 PUSH2 0x1837 JUMP JUMPDEST DUP1 ISZERO PUSH2 0x43D JUMPI DUP1 PUSH1 0x1F LT PUSH2 0x414 JUMPI PUSH2 0x100 DUP1 DUP4 SLOAD DIV MUL DUP4 MSTORE SWAP2 PUSH1 0x20 ADD SWAP2 PUSH2 0x43D JUMP JUMPDEST DUP3 ADD SWAP2 SWAP1 PUSH0 MSTORE PUSH1 0x20 PUSH0 KECCAK256 SWAP1 JUMPDEST DUP2 SLOAD DUP2 MSTORE SWAP1 PUSH1 0x1 ADD SWAP1 PUSH1 0x20 ADD DUP1 DUP4 GT PUSH2 0x420 JUMPI DUP3 SWAP1 SUB PUSH1 0x1F AND DUP3 ADD SWAP2 JUMPDEST POP POP POP POP POP SWAP1 DUP1 PUSH1 0x3 ADD PUSH0 SWAP1 SLOAD SWAP1 PUSH2 0x100 EXP SWAP1 DIV PUSH20 0xFFFFFFFFFFFFFFFFFFFFFFFFFFFFFFFFFFFFFFFF AND SWAP1 DUP1 PUSH1 0x4 ADD SLOAD SWAP1 DUP1 PUSH1 0x5 ADD SLOAD SWAP1 DUP1 PUSH1 0x6 ADD PUSH0 SWAP1 SLOAD SWAP1 PUSH2 0x100 EXP SWAP1 DIV PUSH1 0xFF AND SWAP1 POP DUP8 JUMP JUMPDEST DUP2 PUSH1 0x1 PUSH0 DUP6 PUSH20 0xFFFFFFFFFFFFFFFFFFFFFFFFFFFFFFFFFFFFFFFF AND PUSH20 0xFFFFFFFFFFFFFFFFFFFFFFFFFFFFFFFFFFFFFFFF AND DUP2 MSTORE PUSH1 0x20 ADD SWAP1 DUP2 MSTORE PUSH1 0x20 ADD PUSH0 KECCAK256 PUSH1 0x1 DUP5 PUSH2 0x4D5 SWAP2 SWAP1 PUSH2 0x1894 JUMP JUMPDEST DUP2 SLOAD DUP2 LT PUSH2 0x4E6 JUMPI PUSH2 0x4E5 PUSH2 0x18C7 JUMP JUMPDEST JUMPDEST SWAP1 PUSH0 MSTORE PUSH1 0x20 PUSH0 KECCAK256 SWAP1 PUSH1 0x7 MUL ADD PUSH0 ADD SLOAD EQ DUP3 PUSH1 0x40 MLOAD PUSH1 0x20 ADD PUSH2 0x507 SWAP2 SWAP1 PUSH2 0x19B2 JUMP JUMPDEST PUSH1 0x40 MLOAD PUSH1 0x20 DUP2 DUP4 SUB SUB DUP2 MSTORE SWAP1 PUSH1 0x40 MSTORE SWAP1 PUSH2 0x557 JUMPI PUSH1 0x40 MLOAD PUSH32 0x8C379A000000000000000000000000000000000000000000000000000000000 DUP2 MSTORE PUSH1 0x4 ADD PUSH2 0x54E SWAP2 SWAP1 PUSH2 0x19E2 JUMP JUMPDEST PUSH1 0x40 MLOAD DUP1 SWAP2 SUB SWAP1 REVERT JUMPDEST POP PUSH0 ISZERO ISZERO PUSH1 0x1 PUSH0 DUP6 PUSH20 0xFFFFFFFFFFFFFFFFFFFFFFFFFFFFFFFFFFFFFFFF AND PUSH20 0xFFFFFFFFFFFFFFFFFFFFFFFFFFFFFFFFFFFFFFFF AND DUP2 MSTORE PUSH1 0x20 ADD SWAP1 DUP2 MSTORE PUSH1 0x20 ADD PUSH0 KECCAK256 PUSH1 0x1 DUP5 PUSH2 0x5A5 SWAP2 SWAP1 PUSH2 0x1894 JUMP JUMPDEST DUP2 SLOAD DUP2 LT PUSH2 0x5B6 JUMPI PUSH2 0x5B5 PUSH2 0x18C7 JUMP JUMPDEST JUMPDEST SWAP1 PUSH0 MSTORE PUSH1 0x20 PUSH0 KECCAK256 SWAP1 PUSH1 0x7 MUL ADD PUSH1 0x6 ADD PUSH0 SWAP1 SLOAD SWAP1 PUSH2 0x100 EXP SWAP1 DIV PUSH1 0xFF AND ISZERO ISZERO EQ PUSH1 0x1 PUSH0 DUP6 PUSH20 0xFFFFFFFFFFFFFFFFFFFFFFFFFFFFFFFFFFFFFFFF AND PUSH20 0xFFFFFFFFFFFFFFFFFFFFFFFFFFFFFFFFFFFFFFFF AND DUP2 MSTORE PUSH1 0x20 ADD SWAP1 DUP2 MSTORE PUSH1 0x20 ADD PUSH0 KECCAK256 PUSH1 0x1 DUP5 PUSH2 0x61F SWAP2 SWAP1 PUSH2 0x1894 JUMP JUMPDEST DUP2 SLOAD DUP2 LT PUSH2 0x630 JUMPI PUSH2 0x62F PUSH2 0x18C7 JUMP JUMPDEST JUMPDEST SWAP1 PUSH0 MSTORE PUSH1 0x20 PUSH0 KECCAK256 SWAP1 PUSH1 0x7 MUL ADD PUSH1 0x1 ADD PUSH1 0x40 MLOAD PUSH1 0x20 ADD PUSH2 0x64F SWAP2 SWAP1 PUSH2 0x1B28 JUMP JUMPDEST PUSH1 0x40 MLOAD PUSH1 0x20 DUP2 DUP4 SUB SUB DUP2 MSTORE SWAP1 PUSH1 0x40 MSTORE SWAP1 PUSH2 0x69F JUMPI PUSH1 0x40 MLOAD PUSH32 0x8C379A000000000000000000000000000000000000000000000000000000000 DUP2 MSTORE PUSH1 0x4 ADD PUSH2 0x696 SWAP2 SWAP1 PUSH2 0x19E2 JUMP JUMPDEST PUSH1 0x40 MLOAD DUP1 SWAP2 SUB SWAP1 REVERT JUMPDEST POP PUSH0 DUP2 GT PUSH2 0x6E2 JUMPI PUSH1 0x40 MLOAD PUSH32 0x8C379A000000000000000000000000000000000000000000000000000000000 DUP2 MSTORE PUSH1 0x4 ADD PUSH2 0x6D9 SWAP1 PUSH2 0x1B9E JUMP JUMPDEST PUSH1 0x40 MLOAD DUP1 SWAP2 SUB SWAP1 REVERT JUMPDEST DUP1 CALLVALUE EQ PUSH2 0x724 JUMPI PUSH1 0x40 MLOAD PUSH32 0x8C379A000000000000000000000000000000000000000000000000000000000 DUP2 MSTORE PUSH1 0x4 ADD PUSH2 0x71B SWAP1 PUSH2 0x1C06 JUMP JUMPDEST PUSH1 0x40 MLOAD DUP1 SWAP2 SUB SWAP1 REVERT JUMPDEST DUP1 PUSH1 0x1 PUSH0 DUP6 PUSH20 0xFFFFFFFFFFFFFFFFFFFFFFFFFFFFFFFFFFFFFFFF AND PUSH20 0xFFFFFFFFFFFFFFFFFFFFFFFFFFFFFFFFFFFFFFFF AND DUP2 MSTORE PUSH1 0x20 ADD SWAP1 DUP2 MSTORE PUSH1 0x20 ADD PUSH0 KECCAK256 PUSH1 0x1 DUP5 PUSH2 0x76F SWAP2 SWAP1 PUSH2 0x1894 JUMP JUMPDEST DUP2 SLOAD DUP2 LT PUSH2 0x780 JUMPI PUSH2 0x77F PUSH2 0x18C7 JUMP JUMPDEST JUMPDEST SWAP1 PUSH0 MSTORE PUSH1 0x20 PUSH0 KECCAK256 SWAP1 PUSH1 0x7 MUL ADD PUSH1 0x5 ADD PUSH0 DUP3 DUP3 SLOAD PUSH2 0x79D SWAP2 SWAP1 PUSH2 0x1C24 JUMP JUMPDEST SWAP3 POP POP DUP2 SWAP1 SSTORE POP PUSH1 0x1 PUSH0 DUP5 PUSH20 0xFFFFFFFFFFFFFFFFFFFFFFFFFFFFFFFFFFFFFFFF AND PUSH20 0xFFFFFFFFFFFFFFFFFFFFFFFFFFFFFFFFFFFFFFFF AND DUP2 MSTORE PUSH1 0x20 ADD SWAP1 DUP2 MSTORE PUSH1 0x20 ADD PUSH0 KECCAK256 PUSH1 0x1 DUP4 PUSH2 0x7EE SWAP2 SWAP1 PUSH2 0x1894 JUMP JUMPDEST DUP2 SLOAD DUP2 LT PUSH2 0x7FF JUMPI PUSH2 0x7FE PUSH2 0x18C7 JUMP JUMPDEST JUMPDEST SWAP1 PUSH0 MSTORE PUSH1 0x20 PUSH0 KECCAK256 SWAP1 PUSH1 0x7 MUL ADD PUSH1 0x4 ADD SLOAD PUSH1 0x1 PUSH0 DUP6 PUSH20 0xFFFFFFFFFFFFFFFFFFFFFFFFFFFFFFFFFFFFFFFF AND PUSH20 0xFFFFFFFFFFFFFFFFFFFFFFFFFFFFFFFFFFFFFFFF AND DUP2 MSTORE PUSH1 0x20 ADD SWAP1 DUP2 MSTORE PUSH1 0x20 ADD PUSH0 KECCAK256 PUSH1 0x1 DUP5 PUSH2 0x859 SWAP2 SWAP1 PUSH2 0x1894 JUMP JUMPDEST DUP2 SLOAD DUP2 LT PUSH2 0x86A JUMPI PUSH2 0x869 PUSH2 0x18C7 JUMP JUMPDEST JUMPDEST SWAP1 PUSH0 MSTORE PUSH1 0x20 PUSH0 KECCAK256 SWAP1 PUSH1 0x7 MUL ADD PUSH1 0x5 ADD SLOAD LT PUSH2 0x901 JUMPI PUSH1 0x1 DUP1 PUSH0 DUP6 PUSH20 0xFFFFFFFFFFFFFFFFFFFFFFFFFFFFFFFFFFFFFFFF AND PUSH20 0xFFFFFFFFFFFFFFFFFFFFFFFFFFFFFFFFFFFFFFFF AND DUP2 MSTORE PUSH1 0x20 ADD SWAP1 DUP2 MSTORE PUSH1 0x20 ADD PUSH0 KECCAK256 PUSH1 0x1 DUP5 PUSH2 0x8CA SWAP2 SWAP1 PUSH2 0x1894 JUMP JUMPDEST DUP2 SLOAD DUP2 LT PUSH2 0x8DB JUMPI PUSH2 0x8DA PUSH2 0x18C7 JUMP JUMPDEST JUMPDEST SWAP1 PUSH0 MSTORE PUSH1 0x20 PUSH0 KECCAK256 SWAP1 PUSH1 0x7 MUL ADD PUSH1 0x6 ADD PUSH0 PUSH2 0x100 EXP DUP2 SLOAD DUP2 PUSH1 0xFF MUL NOT AND SWAP1 DUP4 ISZERO ISZERO MUL OR SWAP1 SSTORE POP JUMPDEST PUSH32 0xBE0281DCB233D52D4D243D0D6FF4ED47E8641AECF85B98611ADE1C9307186B7D CALLER DUP3 DUP6 DUP6 PUSH1 0x40 MLOAD PUSH2 0x936 SWAP5 SWAP4 SWAP3 SWAP2 SWAP1 PUSH2 0x1CB2 JUMP JUMPDEST PUSH1 0x40 MLOAD DUP1 SWAP2 SUB SWAP1 LOG1 POP POP POP JUMP JUMPDEST PUSH0 SELFBALANCE SWAP1 POP SWAP1 JUMP JUMPDEST PUSH1 0x2 PUSH1 0x20 MSTORE DUP2 PUSH0 MSTORE PUSH1 0x40 PUSH0 KECCAK256 PUSH1 0x20 MSTORE DUP1 PUSH0 MSTORE PUSH1 0x40 PUSH0 KECCAK256 PUSH0 SWAP2 POP SWAP2 POP SWAP1 SLOAD SWAP1 PUSH2 0x100 EXP SWAP1 DIV PUSH1 0xFF AND DUP2 JUMP JUMPDEST DUP3 DUP5 PUSH0 PUSH1 0x1 PUSH0 DUP5 PUSH20 0xFFFFFFFFFFFFFFFFFFFFFFFFFFFFFFFFFFFFFFFF AND PUSH20 0xFFFFFFFFFFFFFFFFFFFFFFFFFFFFFFFFFFFFFFFF AND DUP2 MSTORE PUSH1 0x20 ADD SWAP1 DUP2 MSTORE PUSH1 0x20 ADD PUSH0 KECCAK256 DUP1 SLOAD SWAP1 POP GT PUSH2 0x9F8 JUMPI PUSH1 0x40 MLOAD PUSH32 0x8C379A000000000000000000000000000000000000000000000000000000000 DUP2 MSTORE PUSH1 0x4 ADD PUSH2 0x9EF SWAP1 PUSH2 0x1D65 JUMP JUMPDEST PUSH1 0x40 MLOAD DUP1 SWAP2 SUB SWAP1 REVERT JUMPDEST DUP1 PUSH1 0x1 PUSH0 DUP5 PUSH20 0xFFFFFFFFFFFFFFFFFFFFFFFFFFFFFFFFFFFFFFFF AND PUSH20 0xFFFFFFFFFFFFFFFFFFFFFFFFFFFFFFFFFFFFFFFF AND DUP2 MSTORE PUSH1 0x20 ADD SWAP1 DUP2 MSTORE PUSH1 0x20 ADD PUSH0 KECCAK256 PUSH1 0x1 DUP4 PUSH2 0xA43 SWAP2 SWAP1 PUSH2 0x1894 JUMP JUMPDEST DUP2 SLOAD DUP2 LT PUSH2 0xA54 JUMPI PUSH2 0xA53 PUSH2 0x18C7 JUMP JUMPDEST JUMPDEST SWAP1 PUSH0 MSTORE PUSH1 0x20 PUSH0 KECCAK256 SWAP1 PUSH1 0x7 MUL ADD PUSH0 ADD SLOAD EQ PUSH2 0xAA3 JUMPI PUSH1 0x40 MLOAD PUSH32 0x8C379A000000000000000000000000000000000000000000000000000000000 DUP2 MSTORE PUSH1 0x4 ADD PUSH2 0xA9A SWAP1 PUSH2 0x1DF3 JUMP JUMPDEST PUSH1 0x40 MLOAD DUP1 SWAP2 SUB SWAP1 REVERT JUMPDEST PUSH1 0x2 PUSH0 DUP4 PUSH20 0xFFFFFFFFFFFFFFFFFFFFFFFFFFFFFFFFFFFFFFFF AND PUSH20 0xFFFFFFFFFFFFFFFFFFFFFFFFFFFFFFFFFFFFFFFF AND DUP2 MSTORE PUSH1 0x20 ADD SWAP1 DUP2 MSTORE PUSH1 0x20 ADD PUSH0 KECCAK256 PUSH0 CALLER PUSH20 0xFFFFFFFFFFFFFFFFFFFFFFFFFFFFFFFFFFFFFFFF AND PUSH20 0xFFFFFFFFFFFFFFFFFFFFFFFFFFFFFFFFFFFFFFFF AND DUP2 MSTORE PUSH1 0x20 ADD SWAP1 DUP2 MSTORE PUSH1 0x20 ADD PUSH0 KECCAK256 PUSH0 SWAP1 SLOAD SWAP1 PUSH2 0x100 EXP SWAP1 DIV PUSH1 0xFF AND PUSH2 0xB67 JUMPI PUSH1 0x40 MLOAD PUSH32 0x8C379A000000000000000000000000000000000000000000000000000000000 DUP2 MSTORE PUSH1 0x4 ADD PUSH2 0xB5E SWAP1 PUSH2 0x1E81 JUMP JUMPDEST PUSH1 0x40 MLOAD DUP1 SWAP2 SUB SWAP1 REVERT JUMPDEST PUSH0 DUP5 GT DUP1 ISZERO PUSH2 0xBE0 JUMPI POP PUSH1 0x1 PUSH0 DUP7 PUSH20 0xFFFFFFFFFFFFFFFFFFFFFFFFFFFFFFFFFFFFFFFF AND PUSH20 0xFFFFFFFFFFFFFFFFFFFFFFFFFFFFFFFFFFFFFFFF AND DUP2 MSTORE PUSH1 0x20 ADD SWAP1 DUP2 MSTORE PUSH1 0x20 ADD PUSH0 KECCAK256 PUSH1 0x1 DUP8 PUSH2 0xBBB SWAP2 SWAP1 PUSH2 0x1894 JUMP JUMPDEST DUP2 SLOAD DUP2 LT PUSH2 0xBCC JUMPI PUSH2 0xBCB PUSH2 0x18C7 JUMP JUMPDEST JUMPDEST SWAP1 PUSH0 MSTORE PUSH1 0x20 PUSH0 KECCAK256 SWAP1 PUSH1 0x7 MUL ADD PUSH1 0x5 ADD SLOAD DUP5 GT ISZERO JUMPDEST PUSH2 0xC1F JUMPI PUSH1 0x40 MLOAD PUSH32 0x8C379A000000000000000000000000000000000000000000000000000000000 DUP2 MSTORE PUSH1 0x4 ADD PUSH2 0xC16 SWAP1 PUSH2 0x1F0F JUMP JUMPDEST PUSH1 0x40 MLOAD DUP1 SWAP2 SUB SWAP1 REVERT JUMPDEST PUSH1 0x1 PUSH0 DUP7 PUSH20 0xFFFFFFFFFFFFFFFFFFFFFFFFFFFFFFFFFFFFFFFF AND PUSH20 0xFFFFFFFFFFFFFFFFFFFFFFFFFFFFFFFFFFFFFFFF AND DUP2 MSTORE PUSH1 0x20 ADD SWAP1 DUP2 MSTORE PUSH1 0x20 ADD PUSH0 KECCAK256 PUSH1 0x1 DUP8 PUSH2 0xC69 SWAP2 SWAP1 PUSH2 0x1894 JUMP JUMPDEST DUP2 SLOAD DUP2 LT PUSH2 0xC7A JUMPI PUSH2 0xC79 PUSH2 0x18C7 JUMP JUMPDEST JUMPDEST SWAP1 PUSH0 MSTORE PUSH1 0x20 PUSH0 KECCAK256 SWAP1 PUSH1 0x7 MUL ADD PUSH1 0x6 ADD PUSH0 SWAP1 SLOAD SWAP1 PUSH2 0x100 EXP SWAP1 DIV PUSH1 0xFF AND PUSH2 0xCD5 JUMPI PUSH1 0x40 MLOAD PUSH32 0x8C379A000000000000000000000000000000000000000000000000000000000 DUP2 MSTORE PUSH1 0x4 ADD PUSH2 0xCCC SWAP1 PUSH2 0x1F9D JUMP JUMPDEST PUSH1 0x40 MLOAD DUP1 SWAP2 SUB SWAP1 REVERT JUMPDEST DUP4 SELFBALANCE LT ISZERO PUSH2 0xD18 JUMPI PUSH1 0x40 MLOAD PUSH32 0x8C379A000000000000000000000000000000000000000000000000000000000 DUP2 MSTORE PUSH1 0x4 ADD PUSH2 0xD0F SWAP1 PUSH2 0x2005 JUMP JUMPDEST PUSH1 0x40 MLOAD DUP1 SWAP2 SUB SWAP1 REVERT JUMPDEST DUP4 PUSH1 0x1 PUSH0 DUP8 PUSH20 0xFFFFFFFFFFFFFFFFFFFFFFFFFFFFFFFFFFFFFFFF AND PUSH20 0xFFFFFFFFFFFFFFFFFFFFFFFFFFFFFFFFFFFFFFFF AND DUP2 MSTORE PUSH1 0x20 ADD SWAP1 DUP2 MSTORE PUSH1 0x20 ADD PUSH0 KECCAK256 PUSH1 0x1 DUP9 PUSH2 0xD63 SWAP2 SWAP1 PUSH2 0x1894 JUMP JUMPDEST DUP2 SLOAD DUP2 LT PUSH2 0xD74 JUMPI PUSH2 0xD73 PUSH2 0x18C7 JUMP JUMPDEST JUMPDEST SWAP1 PUSH0 MSTORE PUSH1 0x20 PUSH0 KECCAK256 SWAP1 PUSH1 0x7 MUL ADD PUSH1 0x5 ADD PUSH0 DUP3 DUP3 SLOAD PUSH2 0xD91 SWAP2 SWAP1 PUSH2 0x1894 JUMP JUMPDEST SWAP3 POP POP DUP2 SWAP1 SSTORE POP PUSH0 DUP4 PUSH20 0xFFFFFFFFFFFFFFFFFFFFFFFFFFFFFFFFFFFFFFFF AND DUP6 PUSH1 0x40 MLOAD PUSH2 0xDBD SWAP1 PUSH2 0x2050 JUMP JUMPDEST PUSH0 PUSH1 0x40 MLOAD DUP1 DUP4 SUB DUP2 DUP6 DUP8 GAS CALL SWAP3 POP POP POP RETURNDATASIZE DUP1 PUSH0 DUP2 EQ PUSH2 0xDF7 JUMPI PUSH1 0x40 MLOAD SWAP2 POP PUSH1 0x1F NOT PUSH1 0x3F RETURNDATASIZE ADD AND DUP3 ADD PUSH1 0x40 MSTORE RETURNDATASIZE DUP3 MSTORE RETURNDATASIZE PUSH0 PUSH1 0x20 DUP5 ADD RETURNDATACOPY PUSH2 0xDFC JUMP JUMPDEST PUSH1 0x60 SWAP2 POP JUMPDEST POP POP SWAP1 POP DUP1 PUSH2 0xE40 JUMPI PUSH1 0x40 MLOAD PUSH32 0x8C379A000000000000000000000000000000000000000000000000000000000 DUP2 MSTORE PUSH1 0x4 ADD PUSH2 0xE37 SWAP1 PUSH2 0x20AE JUMP JUMPDEST PUSH1 0x40 MLOAD DUP1 SWAP2 SUB SWAP1 REVERT JUMPDEST PUSH32 0xFB301322F68B8EA04D2B6A3AB0A1A0100D7BE758E7FFA771D5539A256B92D10D DUP6 CALLER DUP7 DUP10 DUP12 PUSH1 0x40 MLOAD PUSH2 0xE77 SWAP6 SWAP5 SWAP4 SWAP3 SWAP2 SWAP1 PUSH2 0x20CC JUMP JUMPDEST PUSH1 0x40 MLOAD DUP1 SWAP2 SUB SWAP1 LOG1 POP POP POP POP POP POP POP JUMP JUMPDEST PUSH0 JUMPDEST PUSH1 0x1 PUSH0 CALLER PUSH20 0xFFFFFFFFFFFFFFFFFFFFFFFFFFFFFFFFFFFFFFFF AND PUSH20 0xFFFFFFFFFFFFFFFFFFFFFFFFFFFFFFFFFFFFFFFF AND DUP2 MSTORE PUSH1 0x20 ADD SWAP1 DUP2 MSTORE PUSH1 0x20 ADD PUSH0 KECCAK256 DUP1 SLOAD SWAP1 POP DUP2 LT ISZERO PUSH2 0xFF6 JUMPI PUSH0 PUSH1 0x1 PUSH0 CALLER PUSH20 0xFFFFFFFFFFFFFFFFFFFFFFFFFFFFFFFFFFFFFFFF AND PUSH20 0xFFFFFFFFFFFFFFFFFFFFFFFFFFFFFFFFFFFFFFFF AND DUP2 MSTORE PUSH1 0x20 ADD SWAP1 DUP2 MSTORE PUSH1 0x20 ADD PUSH0 KECCAK256 DUP3 DUP2 SLOAD DUP2 LT PUSH2 0xF22 JUMPI PUSH2 0xF21 PUSH2 0x18C7 JUMP JUMPDEST JUMPDEST SWAP1 PUSH0 MSTORE PUSH1 0x20 PUSH0 KECCAK256 SWAP1 PUSH1 0x7 MUL ADD PUSH1 0x1 ADD SWAP1 POP PUSH0 DUP6 PUSH1 0x40 MLOAD PUSH1 0x20 ADD PUSH2 0xF45 SWAP2 SWAP1 PUSH2 0x214D JUMP JUMPDEST PUSH1 0x40 MLOAD PUSH1 0x20 DUP2 DUP4 SUB SUB DUP2 MSTORE SWAP1 PUSH1 0x40 MSTORE DUP1 MLOAD SWAP1 PUSH1 0x20 ADD KECCAK256 DUP3 PUSH1 0x40 MLOAD PUSH1 0x20 ADD PUSH2 0xF6C SWAP2 SWAP1 PUSH2 0x21F5 JUMP JUMPDEST PUSH1 0x40 MLOAD PUSH1 0x20 DUP2 DUP4 SUB SUB DUP2 MSTORE SWAP1 PUSH1 0x40 MSTORE DUP1 MLOAD SWAP1 PUSH1 0x20 ADD KECCAK256 EQ SWAP1 POP DUP1 ISZERO PUSH2 0xFE7 JUMPI DUP6 PUSH1 0x40 MLOAD PUSH1 0x20 ADD PUSH2 0xF9C SWAP2 SWAP1 PUSH2 0x229F JUMP JUMPDEST PUSH1 0x40 MLOAD PUSH1 0x20 DUP2 DUP4 SUB SUB DUP2 MSTORE SWAP1 PUSH1 0x40 MSTORE PUSH1 0x40 MLOAD PUSH32 0x8C379A000000000000000000000000000000000000000000000000000000000 DUP2 MSTORE PUSH1 0x4 ADD PUSH2 0xFDE SWAP2 SWAP1 PUSH2 0x19E2 JUMP JUMPDEST PUSH1 0x40 MLOAD DUP1 SWAP2 SUB SWAP1 REVERT JUMPDEST POP POP DUP1 DUP1 PUSH1 0x1 ADD SWAP2 POP POP PUSH2 0xE8A JUMP JUMPDEST POP PUSH0 PUSH1 0x40 MLOAD DUP1 PUSH1 0xE0 ADD PUSH1 0x40 MSTORE DUP1 PUSH1 0x1 DUP1 PUSH0 CALLER PUSH20 0xFFFFFFFFFFFFFFFFFFFFFFFFFFFFFFFFFFFFFFFF AND PUSH20 0xFFFFFFFFFFFFFFFFFFFFFFFFFFFFFFFFFFFFFFFF AND DUP2 MSTORE PUSH1 0x20 ADD SWAP1 DUP2 MSTORE PUSH1 0x20 ADD PUSH0 KECCAK256 DUP1 SLOAD SWAP1 POP PUSH2 0x104F SWAP2 SWAP1 PUSH2 0x1C24 JUMP JUMPDEST DUP2 MSTORE PUSH1 0x20 ADD DUP6 DUP2 MSTORE PUSH1 0x20 ADD DUP5 DUP2 MSTORE PUSH1 0x20 ADD CALLER PUSH20 0xFFFFFFFFFFFFFFFFFFFFFFFFFFFFFFFFFFFFFFFF AND DUP2 MSTORE PUSH1 0x20 ADD DUP4 DUP2 MSTORE PUSH1 0x20 ADD PUSH0 DUP2 MSTORE PUSH1 0x20 ADD PUSH0 ISZERO ISZERO DUP2 MSTORE POP SWAP1 POP PUSH1 0x1 PUSH0 CALLER PUSH20 0xFFFFFFFFFFFFFFFFFFFFFFFFFFFFFFFFFFFFFFFF AND PUSH20 0xFFFFFFFFFFFFFFFFFFFFFFFFFFFFFFFFFFFFFFFF AND DUP2 MSTORE PUSH1 0x20 ADD SWAP1 DUP2 MSTORE PUSH1 0x20 ADD PUSH0 KECCAK256 DUP2 SWAP1 DUP1 PUSH1 0x1 DUP2 SLOAD ADD DUP1 DUP3 SSTORE DUP1 SWAP2 POP POP PUSH1 0x1 SWAP1 SUB SWAP1 PUSH0 MSTORE PUSH1 0x20 PUSH0 KECCAK256 SWAP1 PUSH1 0x7 MUL ADD PUSH0 SWAP1 SWAP2 SWAP1 SWAP2 SWAP1 SWAP2 POP PUSH0 DUP3 ADD MLOAD DUP2 PUSH0 ADD SSTORE PUSH1 0x20 DUP3 ADD MLOAD DUP2 PUSH1 0x1 ADD SWAP1 DUP2 PUSH2 0x1111 SWAP2 SWAP1 PUSH2 0x244D JUMP JUMPDEST POP PUSH1 0x40 DUP3 ADD MLOAD DUP2 PUSH1 0x2 ADD SWAP1 DUP2 PUSH2 0x1127 SWAP2 SWAP1 PUSH2 0x244D JUMP JUMPDEST POP PUSH1 0x60 DUP3 ADD MLOAD DUP2 PUSH1 0x3 ADD PUSH0 PUSH2 0x100 EXP DUP2 SLOAD DUP2 PUSH20 0xFFFFFFFFFFFFFFFFFFFFFFFFFFFFFFFFFFFFFFFF MUL NOT AND SWAP1 DUP4 PUSH20 0xFFFFFFFFFFFFFFFFFFFFFFFFFFFFFFFFFFFFFFFF AND MUL OR SWAP1 SSTORE POP PUSH1 0x80 DUP3 ADD MLOAD DUP2 PUSH1 0x4 ADD SSTORE PUSH1 0xA0 DUP3 ADD MLOAD DUP2 PUSH1 0x5 ADD SSTORE PUSH1 0xC0 DUP3 ADD MLOAD DUP2 PUSH1 0x6 ADD PUSH0 PUSH2 0x100 EXP DUP2 SLOAD DUP2 PUSH1 0xFF MUL NOT AND SWAP1 DUP4 ISZERO ISZERO MUL OR SWAP1 SSTORE POP POP POP PUSH32 0x825FB10F7650ED27414D6F86ACDF7D5946927D9B25001F045F1A2435DEEC02FE PUSH1 0x1 PUSH0 CALLER PUSH20 0xFFFFFFFFFFFFFFFFFFFFFFFFFFFFFFFFFFFFFFFF AND PUSH20 0xFFFFFFFFFFFFFFFFFFFFFFFFFFFFFFFFFFFFFFFF AND DUP2 MSTORE PUSH1 0x20 ADD SWAP1 DUP2 MSTORE PUSH1 0x20 ADD PUSH0 KECCAK256 DUP1 SLOAD SWAP1 POP CALLER DUP7 DUP6 PUSH1 0x40 MLOAD PUSH2 0x1218 SWAP5 SWAP4 SWAP3 SWAP2 SWAP1 PUSH2 0x251C JUMP JUMPDEST PUSH1 0x40 MLOAD DUP1 SWAP2 SUB SWAP1 LOG1 POP POP POP POP JUMP JUMPDEST PUSH0 PUSH1 0x40 MLOAD SWAP1 POP SWAP1 JUMP JUMPDEST PUSH0 DUP1 REVERT JUMPDEST PUSH0 DUP1 REVERT JUMPDEST PUSH0 PUSH20 0xFFFFFFFFFFFFFFFFFFFFFFFFFFFFFFFFFFFFFFFF DUP3 AND SWAP1 POP SWAP2 SWAP1 POP JUMP JUMPDEST PUSH0 PUSH2 0x1260 DUP3 PUSH2 0x1237 JUMP JUMPDEST SWAP1 POP SWAP2 SWAP1 POP JUMP JUMPDEST PUSH2 0x1270 DUP2 PUSH2 0x1256 JUMP JUMPDEST DUP2 EQ PUSH2 0x127A JUMPI PUSH0 DUP1 REVERT JUMPDEST POP JUMP JUMPDEST PUSH0 DUP2 CALLDATALOAD SWAP1 POP PUSH2 0x128B DUP2 PUSH2 0x1267 JUMP JUMPDEST SWAP3 SWAP2 POP POP JUMP JUMPDEST PUSH0 PUSH1 0x20 DUP3 DUP5 SUB SLT ISZERO PUSH2 0x12A6 JUMPI PUSH2 0x12A5 PUSH2 0x122F JUMP JUMPDEST JUMPDEST PUSH0 PUSH2 0x12B3 DUP5 DUP3 DUP6 ADD PUSH2 0x127D JUMP JUMPDEST SWAP2 POP POP SWAP3 SWAP2 POP POP JUMP JUMPDEST PUSH0 DUP2 SWAP1 POP SWAP2 SWAP1 POP JUMP JUMPDEST PUSH2 0x12CE DUP2 PUSH2 0x12BC JUMP JUMPDEST DUP2 EQ PUSH2 0x12D8 JUMPI PUSH0 DUP1 REVERT JUMPDEST POP JUMP JUMPDEST PUSH0 DUP2 CALLDATALOAD SWAP1 POP PUSH2 0x12E9 DUP2 PUSH2 0x12C5 JUMP JUMPDEST SWAP3 SWAP2 POP POP JUMP JUMPDEST PUSH0 DUP1 PUSH1 0x40 DUP4 DUP6 SUB SLT ISZERO PUSH2 0x1305 JUMPI PUSH2 0x1304 PUSH2 0x122F JUMP JUMPDEST JUMPDEST PUSH0 PUSH2 0x1312 DUP6 DUP3 DUP7 ADD PUSH2 0x127D JUMP JUMPDEST SWAP3 POP POP PUSH1 0x20 PUSH2 0x1323 DUP6 DUP3 DUP7 ADD PUSH2 0x12DB JUMP JUMPDEST SWAP2 POP POP SWAP3 POP SWAP3 SWAP1 POP JUMP JUMPDEST PUSH2 0x1336 DUP2 PUSH2 0x12BC JUMP JUMPDEST DUP3 MSTORE POP POP JUMP JUMPDEST PUSH0 DUP2 MLOAD SWAP1 POP SWAP2 SWAP1 POP JUMP JUMPDEST PUSH0 DUP3 DUP3 MSTORE PUSH1 0x20 DUP3 ADD SWAP1 POP SWAP3 SWAP2 POP POP JUMP JUMPDEST DUP3 DUP2 DUP4 MCOPY PUSH0 DUP4 DUP4 ADD MSTORE POP POP POP JUMP JUMPDEST PUSH0 PUSH1 0x1F NOT PUSH1 0x1F DUP4 ADD AND SWAP1 POP SWAP2 SWAP1 POP JUMP JUMPDEST PUSH0 PUSH2 0x137E DUP3 PUSH2 0x133C JUMP JUMPDEST PUSH2 0x1388 DUP2 DUP6 PUSH2 0x1346 JUMP JUMPDEST SWAP4 POP PUSH2 0x1398 DUP2 DUP6 PUSH1 0x20 DUP7 ADD PUSH2 0x1356 JUMP JUMPDEST PUSH2 0x13A1 DUP2 PUSH2 0x1364 JUMP JUMPDEST DUP5 ADD SWAP2 POP POP SWAP3 SWAP2 POP POP JUMP JUMPDEST PUSH2 0x13B5 DUP2 PUSH2 0x1256 JUMP JUMPDEST DUP3 MSTORE POP POP JUMP JUMPDEST PUSH0 DUP2 ISZERO ISZERO SWAP1 POP SWAP2 SWAP1 POP JUMP JUMPDEST PUSH2 0x13CF DUP2 PUSH2 0x13BB JUMP JUMPDEST DUP3 MSTORE POP POP JUMP JUMPDEST PUSH0 PUSH1 0xE0 DUP3 ADD SWAP1 POP PUSH2 0x13E8 PUSH0 DUP4 ADD DUP11 PUSH2 0x132D JUMP JUMPDEST DUP2 DUP2 SUB PUSH1 0x20 DUP4 ADD MSTORE PUSH2 0x13FA DUP2 DUP10 PUSH2 0x1374 JUMP JUMPDEST SWAP1 POP DUP2 DUP2 SUB PUSH1 0x40 DUP4 ADD MSTORE PUSH2 0x140E DUP2 DUP9 PUSH2 0x1374 JUMP JUMPDEST SWAP1 POP PUSH2 0x141D PUSH1 0x60 DUP4 ADD DUP8 PUSH2 0x13AC JUMP JUMPDEST PUSH2 0x142A PUSH1 0x80 DUP4 ADD DUP7 PUSH2 0x132D JUMP JUMPDEST PUSH2 0x1437 PUSH1 0xA0 DUP4 ADD DUP6 PUSH2 0x132D JUMP JUMPDEST PUSH2 0x1444 PUSH1 0xC0 DUP4 ADD DUP5 PUSH2 0x13C6 JUMP JUMPDEST SWAP9 SWAP8 POP POP POP POP POP POP POP POP JUMP JUMPDEST PUSH0 PUSH2 0x145A DUP3 PUSH2 0x1237 JUMP JUMPDEST SWAP1 POP SWAP2 SWAP1 POP JUMP JUMPDEST PUSH2 0x146A DUP2 PUSH2 0x1450 JUMP JUMPDEST DUP2 EQ PUSH2 0x1474 JUMPI PUSH0 DUP1 REVERT JUMPDEST POP JUMP JUMPDEST PUSH0 DUP2 CALLDATALOAD SWAP1 POP PUSH2 0x1485 DUP2 PUSH2 0x1461 JUMP JUMPDEST SWAP3 SWAP2 POP POP JUMP JUMPDEST PUSH0 DUP1 PUSH0 PUSH1 0x60 DUP5 DUP7 SUB SLT ISZERO PUSH2 0x14A2 JUMPI PUSH2 0x14A1 PUSH2 0x122F JUMP JUMPDEST JUMPDEST PUSH0 PUSH2 0x14AF DUP7 DUP3 DUP8 ADD PUSH2 0x1477 JUMP JUMPDEST SWAP4 POP POP PUSH1 0x20 PUSH2 0x14C0 DUP7 DUP3 DUP8 ADD PUSH2 0x12DB JUMP JUMPDEST SWAP3 POP POP PUSH1 0x40 PUSH2 0x14D1 DUP7 DUP3 DUP8 ADD PUSH2 0x12DB JUMP JUMPDEST SWAP2 POP POP SWAP3 POP SWAP3 POP SWAP3 JUMP JUMPDEST PUSH0 PUSH1 0x20 DUP3 ADD SWAP1 POP PUSH2 0x14EE PUSH0 DUP4 ADD DUP5 PUSH2 0x132D JUMP JUMPDEST SWAP3 SWAP2 POP POP JUMP JUMPDEST PUSH0 DUP1 PUSH1 0x40 DUP4 DUP6 SUB SLT ISZERO PUSH2 0x150A JUMPI PUSH2 0x1509 PUSH2 0x122F JUMP JUMPDEST JUMPDEST PUSH0 PUSH2 0x1517 DUP6 DUP3 DUP7 ADD PUSH2 0x127D JUMP JUMPDEST SWAP3 POP POP PUSH1 0x20 PUSH2 0x1528 DUP6 DUP3 DUP7 ADD PUSH2 0x127D JUMP JUMPDEST SWAP2 POP POP SWAP3 POP SWAP3 SWAP1 POP JUMP JUMPDEST PUSH0 PUSH1 0x20 DUP3 ADD SWAP1 POP PUSH2 0x1545 PUSH0 DUP4 ADD DUP5 PUSH2 0x13C6 JUMP JUMPDEST SWAP3 SWAP2 POP POP JUMP JUMPDEST PUSH0 DUP1 PUSH0 DUP1 PUSH1 0x80 DUP6 DUP8 SUB SLT ISZERO PUSH2 0x1563 JUMPI PUSH2 0x1562 PUSH2 0x122F JUMP JUMPDEST JUMPDEST PUSH0 PUSH2 0x1570 DUP8 DUP3 DUP9 ADD PUSH2 0x12DB JUMP JUMPDEST SWAP5 POP POP PUSH1 0x20 PUSH2 0x1581 DUP8 DUP3 DUP9 ADD PUSH2 0x127D JUMP JUMPDEST SWAP4 POP POP PUSH1 0x40 PUSH2 0x1592 DUP8 DUP3 DUP9 ADD PUSH2 0x12DB JUMP JUMPDEST SWAP3 POP POP PUSH1 0x60 PUSH2 0x15A3 DUP8 DUP3 DUP9 ADD PUSH2 0x1477 JUMP JUMPDEST SWAP2 POP POP SWAP3 SWAP6 SWAP2 SWAP5 POP SWAP3 POP JUMP JUMPDEST PUSH0 DUP1 REVERT JUMPDEST PUSH0 DUP1 REVERT JUMPDEST PUSH32 0x4E487B7100000000000000000000000000000000000000000000000000000000 PUSH0 MSTORE PUSH1 0x41 PUSH1 0x4 MSTORE PUSH1 0x24 PUSH0 REVERT JUMPDEST PUSH2 0x15ED DUP3 PUSH2 0x1364 JUMP JUMPDEST DUP2 ADD DUP2 DUP2 LT PUSH8 0xFFFFFFFFFFFFFFFF DUP3 GT OR ISZERO PUSH2 0x160C JUMPI PUSH2 0x160B PUSH2 0x15B7 JUMP JUMPDEST JUMPDEST DUP1 PUSH1 0x40 MSTORE POP POP POP JUMP JUMPDEST PUSH0 PUSH2 0x161E PUSH2 0x1226 JUMP JUMPDEST SWAP1 POP PUSH2 0x162A DUP3 DUP3 PUSH2 0x15E4 JUMP JUMPDEST SWAP2 SWAP1 POP JUMP JUMPDEST PUSH0 PUSH8 0xFFFFFFFFFFFFFFFF DUP3 GT ISZERO PUSH2 0x1649 JUMPI PUSH2 0x1648 PUSH2 0x15B7 JUMP JUMPDEST JUMPDEST PUSH2 0x1652 DUP3 PUSH2 0x1364 JUMP JUMPDEST SWAP1 POP PUSH1 0x20 DUP2 ADD SWAP1 POP SWAP2 SWAP1 POP JUMP JUMPDEST DUP3 DUP2 DUP4 CALLDATACOPY PUSH0 DUP4 DUP4 ADD MSTORE POP POP POP JUMP JUMPDEST PUSH0 PUSH2 0x167F PUSH2 0x167A DUP5 PUSH2 0x162F JUMP JUMPDEST PUSH2 0x1615 JUMP JUMPDEST SWAP1 POP DUP3 DUP2 MSTORE PUSH1 0x20 DUP2 ADD DUP5 DUP5 DUP5 ADD GT ISZERO PUSH2 0x169B JUMPI PUSH2 0x169A PUSH2 0x15B3 JUMP JUMPDEST JUMPDEST PUSH2 0x16A6 DUP5 DUP3 DUP6 PUSH2 0x165F JUMP JUMPDEST POP SWAP4 SWAP3 POP POP POP JUMP JUMPDEST PUSH0 DUP3 PUSH1 0x1F DUP4 ADD SLT PUSH2 0x16C2 JUMPI PUSH2 0x16C1 PUSH2 0x15AF JUMP JUMPDEST JUMPDEST DUP2 CALLDATALOAD PUSH2 0x16D2 DUP5 DUP3 PUSH1 0x20 DUP7 ADD PUSH2 0x166D JUMP JUMPDEST SWAP2 POP POP SWAP3 SWAP2 POP POP JUMP JUMPDEST PUSH0 DUP1 PUSH0 PUSH1 0x60 DUP5 DUP7 SUB SLT ISZERO PUSH2 0x16F2 JUMPI PUSH2 0x16F1 PUSH2 0x122F JUMP JUMPDEST JUMPDEST PUSH0 DUP5 ADD CALLDATALOAD PUSH8 0xFFFFFFFFFFFFFFFF DUP2 GT ISZERO PUSH2 0x170F JUMPI PUSH2 0x170E PUSH2 0x1233 JUMP JUMPDEST JUMPDEST PUSH2 0x171B DUP7 DUP3 DUP8 ADD PUSH2 0x16AE JUMP JUMPDEST SWAP4 POP POP PUSH1 0x20 DUP5 ADD CALLDATALOAD PUSH8 0xFFFFFFFFFFFFFFFF DUP2 GT ISZERO PUSH2 0x173C JUMPI PUSH2 0x173B PUSH2 0x1233 JUMP JUMPDEST JUMPDEST PUSH2 0x1748 DUP7 DUP3 DUP8 ADD PUSH2 0x16AE JUMP JUMPDEST SWAP3 POP POP PUSH1 0x40 PUSH2 0x1759 DUP7 DUP3 DUP8 ADD PUSH2 0x12DB JUMP JUMPDEST SWAP2 POP POP SWAP3 POP SWAP3 POP SWAP3 JUMP JUMPDEST PUSH32 0x5468652043616D706169676E65642053706563696669656420446F6573204E6F PUSH0 DUP3 ADD MSTORE PUSH32 0x7420457869737421000000000000000000000000000000000000000000000000 PUSH1 0x20 DUP3 ADD MSTORE POP JUMP JUMPDEST PUSH0 PUSH2 0x17BD PUSH1 0x28 DUP4 PUSH2 0x1346 JUMP JUMPDEST SWAP2 POP PUSH2 0x17C8 DUP3 PUSH2 0x1763 JUMP JUMPDEST PUSH1 0x40 DUP3 ADD SWAP1 POP SWAP2 SWAP1 POP JUMP JUMPDEST PUSH0 PUSH1 0x20 DUP3 ADD SWAP1 POP DUP2 DUP2 SUB PUSH0 DUP4 ADD MSTORE PUSH2 0x17EA DUP2 PUSH2 0x17B1 JUMP JUMPDEST SWAP1 POP SWAP2 SWAP1 POP JUMP JUMPDEST PUSH0 PUSH1 0x20 DUP3 ADD SWAP1 POP PUSH2 0x1804 PUSH0 DUP4 ADD DUP5 PUSH2 0x13AC JUMP JUMPDEST SWAP3 SWAP2 POP POP JUMP JUMPDEST PUSH32 0x4E487B7100000000000000000000000000000000000000000000000000000000 PUSH0 MSTORE PUSH1 0x22 PUSH1 0x4 MSTORE PUSH1 0x24 PUSH0 REVERT JUMPDEST PUSH0 PUSH1 0x2 DUP3 DIV SWAP1 POP PUSH1 0x1 DUP3 AND DUP1 PUSH2 0x184E JUMPI PUSH1 0x7F DUP3 AND SWAP2 POP JUMPDEST PUSH1 0x20 DUP3 LT DUP2 SUB PUSH2 0x1861 JUMPI PUSH2 0x1860 PUSH2 0x180A JUMP JUMPDEST JUMPDEST POP SWAP2 SWAP1 POP JUMP JUMPDEST PUSH32 0x4E487B7100000000000000000000000000000000000000000000000000000000 PUSH0 MSTORE PUSH1 0x11 PUSH1 0x4 MSTORE PUSH1 0x24 PUSH0 REVERT JUMPDEST PUSH0 PUSH2 0x189E DUP3 PUSH2 0x12BC JUMP JUMPDEST SWAP2 POP PUSH2 0x18A9 DUP4 PUSH2 0x12BC JUMP JUMPDEST SWAP3 POP DUP3 DUP3 SUB SWAP1 POP DUP2 DUP2 GT ISZERO PUSH2 0x18C1 JUMPI PUSH2 0x18C0 PUSH2 0x1867 JUMP JUMPDEST JUMPDEST SWAP3 SWAP2 POP POP JUMP JUMPDEST PUSH32 0x4E487B7100000000000000000000000000000000000000000000000000000000 PUSH0 MSTORE PUSH1 0x32 PUSH1 0x4 MSTORE PUSH1 0x24 PUSH0 REVERT JUMPDEST PUSH0 DUP2 SWAP1 POP SWAP3 SWAP2 POP POP JUMP JUMPDEST PUSH32 0x5468652043616D706169676E2000000000000000000000000000000000000000 PUSH0 DUP3 ADD MSTORE POP JUMP JUMPDEST PUSH0 PUSH2 0x1932 PUSH1 0xD DUP4 PUSH2 0x18F4 JUMP JUMPDEST SWAP2 POP PUSH2 0x193D DUP3 PUSH2 0x18FE JUMP JUMPDEST PUSH1 0xD DUP3 ADD SWAP1 POP SWAP2 SWAP1 POP JUMP JUMPDEST PUSH0 DUP2 SWAP1 POP SWAP2 SWAP1 POP JUMP JUMPDEST PUSH2 0x1962 PUSH2 0x195D DUP3 PUSH2 0x12BC JUMP JUMPDEST PUSH2 0x1948 JUMP JUMPDEST DUP3 MSTORE POP POP JUMP JUMPDEST PUSH32 0x20446F6573204E4F542045786973742100000000000000000000000000000000 PUSH0 DUP3 ADD MSTORE POP JUMP JUMPDEST PUSH0 PUSH2 0x199C PUSH1 0x10 DUP4 PUSH2 0x18F4 JUMP JUMPDEST SWAP2 POP PUSH2 0x19A7 DUP3 PUSH2 0x1968 JUMP JUMPDEST PUSH1 0x10 DUP3 ADD SWAP1 POP SWAP2 SWAP1 POP JUMP JUMPDEST PUSH0 PUSH2 0x19BC DUP3 PUSH2 0x1926 JUMP JUMPDEST SWAP2 POP PUSH2 0x19C8 DUP3 DUP5 PUSH2 0x1951 JUMP JUMPDEST PUSH1 0x20 DUP3 ADD SWAP2 POP PUSH2 0x19D7 DUP3 PUSH2 0x1990 JUMP JUMPDEST SWAP2 POP DUP2 SWAP1 POP SWAP3 SWAP2 POP POP JUMP JUMPDEST PUSH0 PUSH1 0x20 DUP3 ADD SWAP1 POP DUP2 DUP2 SUB PUSH0 DUP4 ADD MSTORE PUSH2 0x19FA DUP2 DUP5 PUSH2 0x1374 JUMP JUMPDEST SWAP1 POP SWAP3 SWAP2 POP POP JUMP JUMPDEST PUSH32 0x2700000000000000000000000000000000000000000000000000000000000000 PUSH0 DUP3 ADD MSTORE POP JUMP JUMPDEST PUSH0 PUSH2 0x1A36 PUSH1 0x1 DUP4 PUSH2 0x18F4 JUMP JUMPDEST SWAP2 POP PUSH2 0x1A41 DUP3 PUSH2 0x1A02 JUMP JUMPDEST PUSH1 0x1 DUP3 ADD SWAP1 POP SWAP2 SWAP1 POP JUMP JUMPDEST PUSH0 DUP2 SWAP1 POP DUP2 PUSH0 MSTORE PUSH1 0x20 PUSH0 KECCAK256 SWAP1 POP SWAP2 SWAP1 POP JUMP JUMPDEST PUSH0 DUP2 SLOAD PUSH2 0x1A6A DUP2 PUSH2 0x1837 JUMP JUMPDEST PUSH2 0x1A74 DUP2 DUP7 PUSH2 0x18F4 JUMP JUMPDEST SWAP5 POP PUSH1 0x1 DUP3 AND PUSH0 DUP2 EQ PUSH2 0x1A8E JUMPI PUSH1 0x1 DUP2 EQ PUSH2 0x1AA3 JUMPI PUSH2 0x1AD5 JUMP JUMPDEST PUSH1 0xFF NOT DUP4 AND DUP7 MSTORE DUP2 ISZERO ISZERO DUP3 MUL DUP7 ADD SWAP4 POP PUSH2 0x1AD5 JUMP JUMPDEST PUSH2 0x1AAC DUP6 PUSH2 0x1A4C JUMP JUMPDEST PUSH0 JUMPDEST DUP4 DUP2 LT ISZERO PUSH2 0x1ACD JUMPI DUP2 SLOAD DUP2 DUP10 ADD MSTORE PUSH1 0x1 DUP3 ADD SWAP2 POP PUSH1 0x20 DUP2 ADD SWAP1 POP PUSH2 0x1AAE JUMP JUMPDEST DUP4 DUP9 ADD SWAP6 POP POP POP JUMPDEST POP POP POP SWAP3 SWAP2 POP POP JUMP JUMPDEST PUSH32 0x272043616D706169676E2057617320436F6D706C657465642100000000000000 PUSH0 DUP3 ADD MSTORE POP JUMP JUMPDEST PUSH0 PUSH2 0x1B12 PUSH1 0x19 DUP4 PUSH2 0x18F4 JUMP JUMPDEST SWAP2 POP PUSH2 0x1B1D DUP3 PUSH2 0x1ADE JUMP JUMPDEST PUSH1 0x19 DUP3 ADD SWAP1 POP SWAP2 SWAP1 POP JUMP JUMPDEST PUSH0 PUSH2 0x1B32 DUP3 PUSH2 0x1A2A JUMP JUMPDEST SWAP2 POP PUSH2 0x1B3E DUP3 DUP5 PUSH2 0x1A5E JUMP JUMPDEST SWAP2 POP PUSH2 0x1B49 DUP3 PUSH2 0x1B06 JUMP JUMPDEST SWAP2 POP DUP2 SWAP1 POP SWAP3 SWAP2 POP POP JUMP JUMPDEST PUSH32 0x416D6F756E742043616E6E6F74206265205A65726F0000000000000000000000 PUSH0 DUP3 ADD MSTORE POP JUMP JUMPDEST PUSH0 PUSH2 0x1B88 PUSH1 0x15 DUP4 PUSH2 0x1346 JUMP JUMPDEST SWAP2 POP PUSH2 0x1B93 DUP3 PUSH2 0x1B54 JUMP JUMPDEST PUSH1 0x20 DUP3 ADD SWAP1 POP SWAP2 SWAP1 POP JUMP JUMPDEST PUSH0 PUSH1 0x20 DUP3 ADD SWAP1 POP DUP2 DUP2 SUB PUSH0 DUP4 ADD MSTORE PUSH2 0x1BB5 DUP2 PUSH2 0x1B7C JUMP JUMPDEST SWAP1 POP SWAP2 SWAP1 POP JUMP JUMPDEST PUSH32 0x54686520416D6F756E7420646F65736E2774204D617463682100000000000000 PUSH0 DUP3 ADD MSTORE POP JUMP JUMPDEST PUSH0 PUSH2 0x1BF0 PUSH1 0x19 DUP4 PUSH2 0x1346 JUMP JUMPDEST SWAP2 POP PUSH2 0x1BFB DUP3 PUSH2 0x1BBC JUMP JUMPDEST PUSH1 0x20 DUP3 ADD SWAP1 POP SWAP2 SWAP1 POP JUMP JUMPDEST PUSH0 PUSH1 0x20 DUP3 ADD SWAP1 POP DUP2 DUP2 SUB PUSH0 DUP4 ADD MSTORE PUSH2 0x1C1D DUP2 PUSH2 0x1BE4 JUMP JUMPDEST SWAP1 POP SWAP2 SWAP1 POP JUMP JUMPDEST PUSH0 PUSH2 0x1C2E DUP3 PUSH2 0x12BC JUMP JUMPDEST SWAP2 POP PUSH2 0x1C39 DUP4 PUSH2 0x12BC JUMP JUMPDEST SWAP3 POP DUP3 DUP3 ADD SWAP1 POP DUP1 DUP3 GT ISZERO PUSH2 0x1C51 JUMPI PUSH2 0x1C50 PUSH2 0x1867 JUMP JUMPDEST JUMPDEST SWAP3 SWAP2 POP POP JUMP JUMPDEST PUSH0 DUP2 SWAP1 POP SWAP2 SWAP1 POP JUMP JUMPDEST PUSH0 PUSH2 0x1C7A PUSH2 0x1C75 PUSH2 0x1C70 DUP5 PUSH2 0x1237 JUMP JUMPDEST PUSH2 0x1C57 JUMP JUMPDEST PUSH2 0x1237 JUMP JUMPDEST SWAP1 POP SWAP2 SWAP1 POP JUMP JUMPDEST PUSH0 PUSH2 0x1C8B DUP3 PUSH2 0x1C60 JUMP JUMPDEST SWAP1 POP SWAP2 SWAP1 POP JUMP JUMPDEST PUSH0 PUSH2 0x1C9C DUP3 PUSH2 0x1C81 JUMP JUMPDEST SWAP1 POP SWAP2 SWAP1 POP JUMP JUMPDEST PUSH2 0x1CAC DUP2 PUSH2 0x1C92 JUMP JUMPDEST DUP3 MSTORE POP POP JUMP JUMPDEST PUSH0 PUSH1 0x80 DUP3 ADD SWAP1 POP PUSH2 0x1CC5 PUSH0 DUP4 ADD DUP8 PUSH2 0x13AC JUMP JUMPDEST PUSH2 0x1CD2 PUSH1 0x20 DUP4 ADD DUP7 PUSH2 0x132D JUMP JUMPDEST PUSH2 0x1CDF PUSH1 0x40 DUP4 ADD DUP6 PUSH2 0x1CA3 JUMP JUMPDEST PUSH2 0x1CEC PUSH1 0x60 DUP4 ADD DUP5 PUSH2 0x132D JUMP JUMPDEST SWAP6 SWAP5 POP POP POP POP POP JUMP JUMPDEST PUSH32 0x5468657265204973204E6F2043616D706169676E204279205468617420616464 PUSH0 DUP3 ADD MSTORE PUSH32 0x7265737321000000000000000000000000000000000000000000000000000000 PUSH1 0x20 DUP3 ADD MSTORE POP JUMP JUMPDEST PUSH0 PUSH2 0x1D4F PUSH1 0x25 DUP4 PUSH2 0x1346 JUMP JUMPDEST SWAP2 POP PUSH2 0x1D5A DUP3 PUSH2 0x1CF5 JUMP JUMPDEST PUSH1 0x40 DUP3 ADD SWAP1 POP SWAP2 SWAP1 POP JUMP JUMPDEST PUSH0 PUSH1 0x20 DUP3 ADD SWAP1 POP DUP2 DUP2 SUB PUSH0 DUP4 ADD MSTORE PUSH2 0x1D7C DUP2 PUSH2 0x1D43 JUMP JUMPDEST SWAP1 POP SWAP2 SWAP1 POP JUMP JUMPDEST PUSH32 0x5468652043616D706169676E2053706563696669656420446F6573204E6F7420 PUSH0 DUP3 ADD MSTORE PUSH32 0x4578697374210000000000000000000000000000000000000000000000000000 PUSH1 0x20 DUP3 ADD MSTORE POP JUMP JUMPDEST PUSH0 PUSH2 0x1DDD PUSH1 0x26 DUP4 PUSH2 0x1346 JUMP JUMPDEST SWAP2 POP PUSH2 0x1DE8 DUP3 PUSH2 0x1D83 JUMP JUMPDEST PUSH1 0x40 DUP3 ADD SWAP1 POP SWAP2 SWAP1 POP JUMP JUMPDEST PUSH0 PUSH1 0x20 DUP3 ADD SWAP1 POP DUP2 DUP2 SUB PUSH0 DUP4 ADD MSTORE PUSH2 0x1E0A DUP2 PUSH2 0x1DD1 JUMP JUMPDEST SWAP1 POP SWAP2 SWAP1 POP JUMP JUMPDEST PUSH32 0x4F6E6C792041646D696E732043616E20506572666F726D205468697320416374 PUSH0 DUP3 ADD MSTORE PUSH32 0x696F6E2100000000000000000000000000000000000000000000000000000000 PUSH1 0x20 DUP3 ADD MSTORE POP JUMP JUMPDEST PUSH0 PUSH2 0x1E6B PUSH1 0x24 DUP4 PUSH2 0x1346 JUMP JUMPDEST SWAP2 POP PUSH2 0x1E76 DUP3 PUSH2 0x1E11 JUMP JUMPDEST PUSH1 0x40 DUP3 ADD SWAP1 POP SWAP2 SWAP1 POP JUMP JUMPDEST PUSH0 PUSH1 0x20 DUP3 ADD SWAP1 POP DUP2 DUP2 SUB PUSH0 DUP4 ADD MSTORE PUSH2 0x1E98 DUP2 PUSH2 0x1E5F JUMP JUMPDEST SWAP1 POP SWAP2 SWAP1 POP JUMP JUMPDEST PUSH32 0x416D6F756E742043616E6E6F74206265205A65726F204F722045786365656420 PUSH0 DUP3 ADD MSTORE PUSH32 0x5468652052616973656420416D6F756E74210000000000000000000000000000 PUSH1 0x20 DUP3 ADD MSTORE POP JUMP JUMPDEST PUSH0 PUSH2 0x1EF9 PUSH1 0x32 DUP4 PUSH2 0x1346 JUMP JUMPDEST SWAP2 POP PUSH2 0x1F04 DUP3 PUSH2 0x1E9F JUMP JUMPDEST PUSH1 0x40 DUP3 ADD SWAP1 POP SWAP2 SWAP1 POP JUMP JUMPDEST PUSH0 PUSH1 0x20 DUP3 ADD SWAP1 POP DUP2 DUP2 SUB PUSH0 DUP4 ADD MSTORE PUSH2 0x1F26 DUP2 PUSH2 0x1EED JUMP JUMPDEST SWAP1 POP SWAP2 SWAP1 POP JUMP JUMPDEST PUSH32 0x596F752043616E27742057697468647261772046756E64732066726F6D20616E PUSH0 DUP3 ADD MSTORE PUSH32 0x204163746976652043616D706169676E00000000000000000000000000000000 PUSH1 0x20 DUP3 ADD MSTORE POP JUMP JUMPDEST PUSH0 PUSH2 0x1F87 PUSH1 0x30 DUP4 PUSH2 0x1346 JUMP JUMPDEST SWAP2 POP PUSH2 0x1F92 DUP3 PUSH2 0x1F2D JUMP JUMPDEST PUSH1 0x40 DUP3 ADD SWAP1 POP SWAP2 SWAP1 POP JUMP JUMPDEST PUSH0 PUSH1 0x20 DUP3 ADD SWAP1 POP DUP2 DUP2 SUB PUSH0 DUP4 ADD MSTORE PUSH2 0x1FB4 DUP2 PUSH2 0x1F7B JUMP JUMPDEST SWAP1 POP SWAP2 SWAP1 POP JUMP JUMPDEST PUSH32 0x496E73756666696369656E7420636F6E74726163742062616C616E6365000000 PUSH0 DUP3 ADD MSTORE POP JUMP JUMPDEST PUSH0 PUSH2 0x1FEF PUSH1 0x1D DUP4 PUSH2 0x1346 JUMP JUMPDEST SWAP2 POP PUSH2 0x1FFA DUP3 PUSH2 0x1FBB JUMP JUMPDEST PUSH1 0x20 DUP3 ADD SWAP1 POP SWAP2 SWAP1 POP JUMP JUMPDEST PUSH0 PUSH1 0x20 DUP3 ADD SWAP1 POP DUP2 DUP2 SUB PUSH0 DUP4 ADD MSTORE PUSH2 0x201C DUP2 PUSH2 0x1FE3 JUMP JUMPDEST SWAP1 POP SWAP2 SWAP1 POP JUMP JUMPDEST PUSH0 DUP2 SWAP1 POP SWAP3 SWAP2 POP POP JUMP JUMPDEST POP JUMP JUMPDEST PUSH0 PUSH2 0x203B PUSH0 DUP4 PUSH2 0x2023 JUMP JUMPDEST SWAP2 POP PUSH2 0x2046 DUP3 PUSH2 0x202D JUMP JUMPDEST PUSH0 DUP3 ADD SWAP1 POP SWAP2 SWAP1 POP JUMP JUMPDEST PUSH0 PUSH2 0x205A DUP3 PUSH2 0x2030 JUMP JUMPDEST SWAP2 POP DUP2 SWAP1 POP SWAP2 SWAP1 POP JUMP JUMPDEST PUSH32 0x5472616E73666572206661696C65640000000000000000000000000000000000 PUSH0 DUP3 ADD MSTORE POP JUMP JUMPDEST PUSH0 PUSH2 0x2098 PUSH1 0xF DUP4 PUSH2 0x1346 JUMP JUMPDEST SWAP2 POP PUSH2 0x20A3 DUP3 PUSH2 0x2064 JUMP JUMPDEST PUSH1 0x20 DUP3 ADD SWAP1 POP SWAP2 SWAP1 POP JUMP JUMPDEST PUSH0 PUSH1 0x20 DUP3 ADD SWAP1 POP DUP2 DUP2 SUB PUSH0 DUP4 ADD MSTORE PUSH2 0x20C5 DUP2 PUSH2 0x208C JUMP JUMPDEST SWAP1 POP SWAP2 SWAP1 POP JUMP JUMPDEST PUSH0 PUSH1 0xA0 DUP3 ADD SWAP1 POP PUSH2 0x20DF PUSH0 DUP4 ADD DUP9 PUSH2 0x132D JUMP JUMPDEST PUSH2 0x20EC PUSH1 0x20 DUP4 ADD DUP8 PUSH2 0x13AC JUMP JUMPDEST PUSH2 0x20F9 PUSH1 0x40 DUP4 ADD DUP7 PUSH2 0x1CA3 JUMP JUMPDEST PUSH2 0x2106 PUSH1 0x60 DUP4 ADD DUP6 PUSH2 0x13AC JUMP JUMPDEST PUSH2 0x2113 PUSH1 0x80 DUP4 ADD DUP5 PUSH2 0x132D JUMP JUMPDEST SWAP7 SWAP6 POP POP POP POP POP POP JUMP JUMPDEST PUSH0 PUSH2 0x2127 DUP3 PUSH2 0x133C JUMP JUMPDEST PUSH2 0x2131 DUP2 DUP6 PUSH2 0x18F4 JUMP JUMPDEST SWAP4 POP PUSH2 0x2141 DUP2 DUP6 PUSH1 0x20 DUP7 ADD PUSH2 0x1356 JUMP JUMPDEST DUP1 DUP5 ADD SWAP2 POP POP SWAP3 SWAP2 POP POP JUMP JUMPDEST PUSH0 PUSH2 0x2158 DUP3 DUP5 PUSH2 0x211D JUMP JUMPDEST SWAP2 POP DUP2 SWAP1 POP SWAP3 SWAP2 POP POP JUMP JUMPDEST PUSH0 DUP2 SWAP1 POP DUP2 PUSH0 MSTORE PUSH1 0x20 PUSH0 KECCAK256 SWAP1 POP SWAP2 SWAP1 POP JUMP JUMPDEST PUSH0 DUP2 SLOAD PUSH2 0x2181 DUP2 PUSH2 0x1837 JUMP JUMPDEST PUSH2 0x218B DUP2 DUP7 PUSH2 0x18F4 JUMP JUMPDEST SWAP5 POP PUSH1 0x1 DUP3 AND PUSH0 DUP2 EQ PUSH2 0x21A5 JUMPI PUSH1 0x1 DUP2 EQ PUSH2 0x21BA JUMPI PUSH2 0x21EC JUMP JUMPDEST PUSH1 0xFF NOT DUP4 AND DUP7 MSTORE DUP2 ISZERO ISZERO DUP3 MUL DUP7 ADD SWAP4 POP PUSH2 0x21EC JUMP JUMPDEST PUSH2 0x21C3 DUP6 PUSH2 0x2163 JUMP JUMPDEST PUSH0 JUMPDEST DUP4 DUP2 LT ISZERO PUSH2 0x21E4 JUMPI DUP2 SLOAD DUP2 DUP10 ADD MSTORE PUSH1 0x1 DUP3 ADD SWAP2 POP PUSH1 0x20 DUP2 ADD SWAP1 POP PUSH2 0x21C5 JUMP JUMPDEST DUP4 DUP9 ADD SWAP6 POP POP POP JUMPDEST POP POP POP SWAP3 SWAP2 POP POP JUMP JUMPDEST PUSH0 PUSH2 0x2200 DUP3 DUP5 PUSH2 0x2175 JUMP JUMPDEST SWAP2 POP DUP2 SWAP1 POP SWAP3 SWAP2 POP POP JUMP JUMPDEST PUSH32 0x43616D706169676E200000000000000000000000000000000000000000000000 PUSH0 DUP3 ADD MSTORE POP JUMP JUMPDEST PUSH0 PUSH2 0x223F PUSH1 0x9 DUP4 PUSH2 0x18F4 JUMP JUMPDEST SWAP2 POP PUSH2 0x224A DUP3 PUSH2 0x220B JUMP JUMPDEST PUSH1 0x9 DUP3 ADD SWAP1 POP SWAP2 SWAP1 POP JUMP JUMPDEST PUSH32 0x20616C7265616479206578697374732100000000000000000000000000000000 PUSH0 DUP3 ADD MSTORE POP JUMP JUMPDEST PUSH0 PUSH2 0x2289 PUSH1 0x10 DUP4 PUSH2 0x18F4 JUMP JUMPDEST SWAP2 POP PUSH2 0x2294 DUP3 PUSH2 0x2255 JUMP JUMPDEST PUSH1 0x10 DUP3 ADD SWAP1 POP SWAP2 SWAP1 POP JUMP JUMPDEST PUSH0 PUSH2 0x22A9 DUP3 PUSH2 0x2233 JUMP JUMPDEST SWAP2 POP PUSH2 0x22B5 DUP3 DUP5 PUSH2 0x211D JUMP JUMPDEST SWAP2 POP PUSH2 0x22C0 DUP3 PUSH2 0x227D JUMP JUMPDEST SWAP2 POP DUP2 SWAP1 POP SWAP3 SWAP2 POP POP JUMP JUMPDEST PUSH0 PUSH1 0x20 PUSH1 0x1F DUP4 ADD DIV SWAP1 POP SWAP2 SWAP1 POP JUMP JUMPDEST PUSH0 DUP3 DUP3 SHL SWAP1 POP SWAP3 SWAP2 POP POP JUMP JUMPDEST PUSH0 PUSH1 0x8 DUP4 MUL PUSH2 0x2315 PUSH32 0xFFFFFFFFFFFFFFFFFFFFFFFFFFFFFFFFFFFFFFFFFFFFFFFFFFFFFFFFFFFFFFFF DUP3 PUSH2 0x22DA JUMP JUMPDEST PUSH2 0x231F DUP7 DUP4 PUSH2 0x22DA JUMP JUMPDEST SWAP6 POP DUP1 NOT DUP5 AND SWAP4 POP DUP1 DUP7 AND DUP5 OR SWAP3 POP POP POP SWAP4 SWAP3 POP POP POP JUMP JUMPDEST PUSH0 PUSH2 0x2351 PUSH2 0x234C PUSH2 0x2347 DUP5 PUSH2 0x12BC JUMP JUMPDEST PUSH2 0x1C57 JUMP JUMPDEST PUSH2 0x12BC JUMP JUMPDEST SWAP1 POP SWAP2 SWAP1 POP JUMP JUMPDEST PUSH0 DUP2 SWAP1 POP SWAP2 SWAP1 POP JUMP JUMPDEST PUSH2 0x236A DUP4 PUSH2 0x2337 JUMP JUMPDEST PUSH2 0x237E PUSH2 0x2376 DUP3 PUSH2 0x2358 JUMP JUMPDEST DUP5 DUP5 SLOAD PUSH2 0x22E6 JUMP JUMPDEST DUP3 SSTORE POP POP POP POP JUMP JUMPDEST PUSH0 SWAP1 JUMP JUMPDEST PUSH2 0x2392 PUSH2 0x2386 JUMP JUMPDEST PUSH2 0x239D DUP2 DUP5 DUP5 PUSH2 0x2361 JUMP JUMPDEST POP POP POP JUMP JUMPDEST JUMPDEST DUP2 DUP2 LT ISZERO PUSH2 0x23C0 JUMPI PUSH2 0x23B5 PUSH0 DUP3 PUSH2 0x238A JUMP JUMPDEST PUSH1 0x1 DUP2 ADD SWAP1 POP PUSH2 0x23A3 JUMP JUMPDEST POP POP JUMP JUMPDEST PUSH1 0x1F DUP3 GT ISZERO PUSH2 0x2405 JUMPI PUSH2 0x23D6 DUP2 PUSH2 0x1A4C JUMP JUMPDEST PUSH2 0x23DF DUP5 PUSH2 0x22CB JUMP JUMPDEST DUP2 ADD PUSH1 0x20 DUP6 LT ISZERO PUSH2 0x23EE JUMPI DUP2 SWAP1 POP JUMPDEST PUSH2 0x2402 PUSH2 0x23FA DUP6 PUSH2 0x22CB JUMP JUMPDEST DUP4 ADD DUP3 PUSH2 0x23A2 JUMP JUMPDEST POP POP JUMPDEST POP POP POP JUMP JUMPDEST PUSH0 DUP3 DUP3 SHR SWAP1 POP SWAP3 SWAP2 POP POP JUMP JUMPDEST PUSH0 PUSH2 0x2425 PUSH0 NOT DUP5 PUSH1 0x8 MUL PUSH2 0x240A JUMP JUMPDEST NOT DUP1 DUP4 AND SWAP2 POP POP SWAP3 SWAP2 POP POP JUMP JUMPDEST PUSH0 PUSH2 0x243D DUP4 DUP4 PUSH2 0x2416 JUMP JUMPDEST SWAP2 POP DUP3 PUSH1 0x2 MUL DUP3 OR SWAP1 POP SWAP3 SWAP2 POP POP JUMP JUMPDEST PUSH2 0x2456 DUP3 PUSH2 0x133C JUMP JUMPDEST PUSH8 0xFFFFFFFFFFFFFFFF DUP2 GT ISZERO PUSH2 0x246F JUMPI PUSH2 0x246E PUSH2 0x15B7 JUMP JUMPDEST JUMPDEST PUSH2 0x2479 DUP3 SLOAD PUSH2 0x1837 JUMP JUMPDEST PUSH2 0x2484 DUP3 DUP3 DUP6 PUSH2 0x23C4 JUMP JUMPDEST PUSH0 PUSH1 0x20 SWAP1 POP PUSH1 0x1F DUP4 GT PUSH1 0x1 DUP2 EQ PUSH2 0x24B5 JUMPI PUSH0 DUP5 ISZERO PUSH2 0x24A3 JUMPI DUP3 DUP8 ADD MLOAD SWAP1 POP JUMPDEST PUSH2 0x24AD DUP6 DUP3 PUSH2 0x2432 JUMP JUMPDEST DUP7 SSTORE POP PUSH2 0x2514 JUMP JUMPDEST PUSH1 0x1F NOT DUP5 AND PUSH2 0x24C3 DUP7 PUSH2 0x1A4C JUMP JUMPDEST PUSH0 JUMPDEST DUP3 DUP2 LT ISZERO PUSH2 0x24EA JUMPI DUP5 DUP10 ADD MLOAD DUP3 SSTORE PUSH1 0x1 DUP3 ADD SWAP2 POP PUSH1 0x20 DUP6 ADD SWAP5 POP PUSH1 0x20 DUP2 ADD SWAP1 POP PUSH2 0x24C5 JUMP JUMPDEST DUP7 DUP4 LT ISZERO PUSH2 0x2507 JUMPI DUP5 DUP10 ADD MLOAD PUSH2 0x2503 PUSH1 0x1F DUP10 AND DUP3 PUSH2 0x2416 JUMP JUMPDEST DUP4 SSTORE POP JUMPDEST PUSH1 0x1 PUSH1 0x2 DUP9 MUL ADD DUP9 SSTORE POP POP POP JUMPDEST POP POP POP POP POP POP JUMP JUMPDEST PUSH0 PUSH1 0x80 DUP3 ADD SWAP1 POP PUSH2 0x252F PUSH0 DUP4 ADD DUP8 PUSH2 0x132D JUMP JUMPDEST PUSH2 0x253C PUSH1 0x20 DUP4 ADD DUP7 PUSH2 0x13AC JUMP JUMPDEST DUP2 DUP2 SUB PUSH1 0x40 DUP4 ADD MSTORE PUSH2 0x254E DUP2 DUP6 PUSH2 0x1374 JUMP JUMPDEST SWAP1 POP PUSH2 0x255D PUSH1 0x60 DUP4 ADD DUP5 PUSH2 0x132D JUMP JUMPDEST SWAP6 SWAP5 POP POP POP POP POP JUMP INVALID LOG2 PUSH5 0x6970667358 0x22 SLT KECCAK256 0xCC GASPRICE SIGNEXTEND 0xB7 TIMESTAMP SWAP12 0x26 0xBA CODECOPY CALL 0xEB 0xD3 0xDD 0x2B 0x2D 0xBD PUSH24 0xDA417CBC4069C9DD095D91D51E71D964736F6C634300081A STOP CALLER "
		},
		"gasEstimates": {
			"creation": {
				"codeDepositCost": "1925600",
				"executionCost": "26296",
				"totalCost": "1951896"
			},
			"external": {
				"addCampaignAdmins(address)": "infinite",
				"admins(address,address)": "infinite",
				"campaigns(address,uint256)": "infinite",
				"createCampaign(string,string,uint256)": "infinite",
				"donateToCampaign(address,uint256,uint256)": "infinite",
				"getContractBalance()": "334",
				"withdrawFunds(uint256,address,uint256,address)": "infinite"
			}
		},
		"methodIdentifiers": {
			"addCampaignAdmins(address)": "060a4524",
			"admins(address,address)": "be21739e",
			"campaigns(address,uint256)": "11555dbc",
			"createCampaign(string,string,uint256)": "ffa56a57",
			"donateToCampaign(address,uint256,uint256)": "5a3915cd",
			"getContractBalance()": "6f9fb98a",
			"withdrawFunds(uint256,address,uint256,address)": "c14b8aac"
		}
	},
	"abi": [
		{
			"inputs": [],
			"stateMutability": "nonpayable",
			"type": "constructor"
		},
		{
			"anonymous": false,
			"inputs": [
				{
					"indexed": false,
					"internalType": "address",
					"name": "admin",
					"type": "address"
				}
			],
			"name": "AddAdmin",
			"type": "event"
		},
		{
			"anonymous": false,
			"inputs": [
				{
					"indexed": false,
					"internalType": "address",
					"name": "campaignAddress",
					"type": "address"
				},
				{
					"indexed": false,
					"internalType": "uint256",
					"name": "campaign_id",
					"type": "uint256"
				}
			],
			"name": "CampaignCompleted",
			"type": "event"
		},
		{
			"anonymous": false,
			"inputs": [
				{
					"indexed": false,
					"internalType": "uint256",
					"name": "campaign_id",
					"type": "uint256"
				},
				{
					"indexed": false,
					"internalType": "address",
					"name": "campaignAddress",
					"type": "address"
				},
				{
					"indexed": false,
					"internalType": "string",
					"name": "title",
					"type": "string"
				},
				{
					"indexed": false,
					"internalType": "uint256",
					"name": "targetAmount",
					"type": "uint256"
				}
			],
			"name": "CampaignCreated",
			"type": "event"
		},
		{
			"anonymous": false,
			"inputs": [
				{
					"indexed": false,
					"internalType": "address",
					"name": "donor",
					"type": "address"
				},
				{
					"indexed": false,
					"internalType": "uint256",
					"name": "amount",
					"type": "uint256"
				},
				{
					"indexed": false,
					"internalType": "address",
					"name": "campaignAddress",
					"type": "address"
				},
				{
					"indexed": false,
					"internalType": "uint256",
					"name": "campaign_id",
					"type": "uint256"
				}
			],
			"name": "DonationReceived",
			"type": "event"
		},
		{
			"anonymous": false,
			"inputs": [
				{
					"indexed": false,
					"internalType": "uint256",
					"name": "amount",
					"type": "uint256"
				},
				{
					"indexed": false,
					"internalType": "address",
					"name": "by",
					"type": "address"
				},
				{
					"indexed": false,
					"internalType": "address",
					"name": "to",
					"type": "address"
				},
				{
					"indexed": false,
					"internalType": "address",
					"name": "from",
					"type": "address"
				},
				{
					"indexed": false,
					"internalType": "uint256",
					"name": "campaignId",
					"type": "uint256"
				}
			],
			"name": "FundsWithdrawn",
			"type": "event"
		},
		{
			"inputs": [
				{
					"internalType": "address",
					"name": "_admin",
					"type": "address"
				}
			],
			"name": "addCampaignAdmins",
			"outputs": [],
			"stateMutability": "nonpayable",
			"type": "function"
		},
		{
			"inputs": [
				{
					"internalType": "address",
					"name": "",
					"type": "address"
				},
				{
					"internalType": "address",
					"name": "",
					"type": "address"
				}
			],
			"name": "admins",
			"outputs": [
				{
					"internalType": "bool",
					"name": "",
					"type": "bool"
				}
			],
			"stateMutability": "view",
			"type": "function"
		},
		{
			"inputs": [
				{
					"internalType": "address",
					"name": "",
					"type": "address"
				},
				{
					"internalType": "uint256",
					"name": "",
					"type": "uint256"
				}
			],
			"name": "campaigns",
			"outputs": [
				{
					"internalType": "uint256",
					"name": "campaign_id",
					"type": "uint256"
				},
				{
					"internalType": "string",
					"name": "title",
					"type": "string"
				},
				{
					"internalType": "string",
					"name": "description",
					"type": "string"
				},
				{
					"internalType": "address",
					"name": "campaignAddress",
					"type": "address"
				},
				{
					"internalType": "uint256",
					"name": "targetAmount",
					"type": "uint256"
				},
				{
					"internalType": "uint256",
					"name": "raisedAmount",
					"type": "uint256"
				},
				{
					"internalType": "bool",
					"name": "isCompleted",
					"type": "bool"
				}
			],
			"stateMutability": "view",
			"type": "function"
		},
		{
			"inputs": [
				{
					"internalType": "string",
					"name": "_title",
					"type": "string"
				},
				{
					"internalType": "string",
					"name": "_description",
					"type": "string"
				},
				{
					"internalType": "uint256",
					"name": "_target",
					"type": "uint256"
				}
			],
			"name": "createCampaign",
			"outputs": [],
			"stateMutability": "nonpayable",
			"type": "function"
		},
		{
			"inputs": [
				{
					"internalType": "address payable",
					"name": "_campaignAddress",
					"type": "address"
				},
				{
					"internalType": "uint256",
					"name": "_campaignId",
					"type": "uint256"
				},
				{
					"internalType": "uint256",
					"name": "_amount",
					"type": "uint256"
				}
			],
			"name": "donateToCampaign",
			"outputs": [],
			"stateMutability": "payable",
			"type": "function"
		},
		{
			"inputs": [],
			"name": "getContractBalance",
			"outputs": [
				{
					"internalType": "uint256",
					"name": "",
					"type": "uint256"
				}
			],
			"stateMutability": "view",
			"type": "function"
		},
		{
			"inputs": [
				{
					"internalType": "uint256",
					"name": "_campaignId",
					"type": "uint256"
				},
				{
					"internalType": "address",
					"name": "_campaignAddress",
					"type": "address"
				},
				{
					"internalType": "uint256",
					"name": "_amount",
					"type": "uint256"
				},
				{
					"internalType": "address payable",
					"name": "_to",
					"type": "address"
				}
			],
			"name": "withdrawFunds",
			"outputs": [],
			"stateMutability": "nonpayable",
			"type": "function"
		}
	]
}