{
	"data": {
		"bytecode": {
			"linkReferences": {},
			"object": "6080604052348015600e575f80fd5b50614b148061001c5f395ff3fe6080604052600436106100c1575f3560e01c80639b56f5f01161007e578063be21739e11610058578063be21739e14610281578063c14b8aac146102bd578063e6c9099a146102e5578063f1694aa114610322576100c1565b80639b56f5f0146101f2578063a318f26914610231578063be18fda614610259576100c1565b806311555dbc146100c55780631f55e5bc1461010a57806325be946e1461014657806339e9412f1461016e578063422b1077146101965780635a3915cd146101d6575b5f80fd5b3480156100d0575f80fd5b506100eb60048036038101906100e6919061320d565b61034a565b6040516101019a999897969594939291906132f3565b60405180910390f35b348015610115575f80fd5b50610130600480360381019061012b919061320d565b6104f7565b60405161013d919061339b565b60405180910390f35b348015610151575f80fd5b5061016c600480360381019061016791906133b4565b61053f565b005b348015610179575f80fd5b50610194600480360381019061018f91906133b4565b610db3565b005b3480156101a1575f80fd5b506101bc60048036038101906101b7919061320d565b611342565b6040516101cd9594939291906133f2565b60405180910390f35b6101f060048036038101906101eb9190613485565b611452565b005b3480156101fd575f80fd5b506102186004803603810190610213919061320d565b611e95565b60405161022894939291906134d5565b60405180910390f35b34801561023c575f80fd5b506102576004803603810190610252919061364b565b611f80565b005b348015610264575f80fd5b5061027f600480360381019061027a91906136e7565b61239a565b005b34801561028c575f80fd5b506102a760048036038101906102a29190613712565b6125c3565b6040516102b49190613750565b60405180910390f35b3480156102c8575f80fd5b506102e360048036038101906102de9190613769565b6125ed565b005b3480156102f0575f80fd5b5061030b600480360381019061030691906137cd565b612dc9565b60405161031992919061381d565b60405180910390f35b34801561032d575f80fd5b50610348600480360381019061034391906136e7565b612e2d565b005b5f602052815f5260405f208181548110610362575f80fd5b905f5260205f2090600902015f9150915050805f01549080600101805461038890613871565b80601f01602080910402602001604051908101604052809291908181526020018280546103b490613871565b80156103ff5780601f106103d6576101008083540402835291602001916103ff565b820191905f5260205f20905b8154815290600101906020018083116103e257829003601f168201915b50505050509080600201805461041490613871565b80601f016020809104026020016040519081016040528092919081815260200182805461044090613871565b801561048b5780601f106104625761010080835404028352916020019161048b565b820191905f5260205f20905b81548152906001019060200180831161046e57829003601f168201915b505050505090806003015f9054906101000a900473ffffffffffffffffffffffffffffffffffffffff1690806004015490806005015490806006015490806007015490806008015f9054906101000a900460ff16908060080160019054906101000a900460ff1690508a565b6002602052815f5260405f208181548110610510575f80fd5b905f5260205f20015f915091509054906101000a900473ffffffffffffffffffffffffffffffffffffffff1681565b80825f805f8473ffffffffffffffffffffffffffffffffffffffff1673ffffffffffffffffffffffffffffffffffffffff1681526020019081526020015f2080549050116105c2576040517f08c379a00000000000000000000000000000000000000000000000000000000081526004016105b990613911565b60405180910390fd5b805f808473ffffffffffffffffffffffffffffffffffffffff1673ffffffffffffffffffffffffffffffffffffffff1681526020019081526020015f2060018361060c919061395c565b8154811061061d5761061c61398f565b5b905f5260205f2090600902015f01541461066c576040517f08c379a000000000000000000000000000000000000000000000000000000000815260040161066390613a2c565b60405180910390fd5b60015f8373ffffffffffffffffffffffffffffffffffffffff1673ffffffffffffffffffffffffffffffffffffffff1681526020019081526020015f205f3373ffffffffffffffffffffffffffffffffffffffff1673ffffffffffffffffffffffffffffffffffffffff1681526020019081526020015f205f9054906101000a900460ff16610730576040517f08c379a000000000000000000000000000000000000000000000000000000000815260040161072790613aba565b60405180910390fd5b5f805f8573ffffffffffffffffffffffffffffffffffffffff1673ffffffffffffffffffffffffffffffffffffffff1681526020019081526020015f2060018661077a919061395c565b8154811061078b5761078a61398f565b5b905f5260205f209060090201604051806101400160405290815f82015481526020016001820180546107bc90613871565b80601f01602080910402602001604051908101604052809291908181526020018280546107e890613871565b80156108335780601f1061080a57610100808354040283529160200191610833565b820191905f5260205f20905b81548152906001019060200180831161081657829003601f168201915b5050505050815260200160028201805461084c90613871565b80601f016020809104026020016040519081016040528092919081815260200182805461087890613871565b80156108c35780601f1061089a576101008083540402835291602001916108c3565b820191905f5260205f20905b8154815290600101906020018083116108a657829003601f168201915b50505050508152602001600382015f9054906101000a900473ffffffffffffffffffffffffffffffffffffffff1673ffffffffffffffffffffffffffffffffffffffff1673ffffffffffffffffffffffffffffffffffffffff16815260200160048201548152602001600582015481526020016006820154815260200160078201548152602001600882015f9054906101000a900460ff161515151581526020016008820160019054906101000a900460ff161515151581525050905080608001518160c00151106109ca576040517f08c379a00000000000000000000000000000000000000000000000000000000081526004016109c190613b48565b60405180910390fd5b8060c00151471015610a11576040517f08c379a0000000000000000000000000000000000000000000000000000000008152600401610a0890613bb0565b60405180910390fd5b5f60055f8673ffffffffffffffffffffffffffffffffffffffff1673ffffffffffffffffffffffffffffffffffffffff1681526020019081526020015f205f8781526020019081526020015f2090505f80805f5b8480549050811015610ced575f858281548110610a8557610a8461398f565b5b905f5260205f2090600202016001015490505f868381548110610aab57610aaa61398f565b5b905f5260205f2090600202015f015f9054906101000a900473ffffffffffffffffffffffffffffffffffffffff1690505f808c73ffffffffffffffffffffffffffffffffffffffff1673ffffffffffffffffffffffffffffffffffffffff1681526020019081526020015f2060018d610b24919061395c565b81548110610b3557610b3461398f565b5b905f5260205f2090600902016006015494508185610b53919061395c565b9350835f808d73ffffffffffffffffffffffffffffffffffffffff1673ffffffffffffffffffffffffffffffffffffffff1681526020019081526020015f2060018e610b9f919061395c565b81548110610bb057610baf61398f565b5b905f5260205f209060090201600601819055505f878481548110610bd757610bd661398f565b5b905f5260205f209060020201600101819055505f8173ffffffffffffffffffffffffffffffffffffffff1683604051610c0f90613bfb565b5f6040518083038185875af1925050503d805f8114610c49576040519150601f19603f3d011682016040523d82523d5f602084013e610c4e565b606091505b5050905080610c92576040517f08c379a0000000000000000000000000000000000000000000000000000000008152600401610c8990613c59565b60405180910390fd5b8287610c9e9190613c77565b96507fc7106caa0225138e1482298fe211390f77622cb0be261616f08271e23660553d8c8e8486604051610cd59493929190613caa565b60405180910390a15050508080600101915050610a65565b50828560a00151148015610d6957505f805f8a73ffffffffffffffffffffffffffffffffffffffff1673ffffffffffffffffffffffffffffffffffffffff1681526020019081526020015f2060018b610d46919061395c565b81548110610d5757610d5661398f565b5b905f5260205f20906009020160060154145b610da8576040517f08c379a0000000000000000000000000000000000000000000000000000000008152600401610d9f90613d37565b60405180910390fd5b505050505050505050565b80825f805f8473ffffffffffffffffffffffffffffffffffffffff1673ffffffffffffffffffffffffffffffffffffffff1681526020019081526020015f208054905011610e36576040517f08c379a0000000000000000000000000000000000000000000000000000000008152600401610e2d90613911565b60405180910390fd5b805f808473ffffffffffffffffffffffffffffffffffffffff1673ffffffffffffffffffffffffffffffffffffffff1681526020019081526020015f20600183610e80919061395c565b81548110610e9157610e9061398f565b5b905f5260205f2090600902015f015414610ee0576040517f08c379a0000000000000000000000000000000000000000000000000000000008152600401610ed790613a2c565b60405180910390fd5b60015f8373ffffffffffffffffffffffffffffffffffffffff1673ffffffffffffffffffffffffffffffffffffffff1681526020019081526020015f205f3373ffffffffffffffffffffffffffffffffffffffff1673ffffffffffffffffffffffffffffffffffffffff1681526020019081526020015f205f9054906101000a900460ff16610fa4576040517f08c379a0000000000000000000000000000000000000000000000000000000008152600401610f9b90613aba565b60405180910390fd5b5f805f8573ffffffffffffffffffffffffffffffffffffffff1673ffffffffffffffffffffffffffffffffffffffff1681526020019081526020015f20600186610fee919061395c565b81548110610fff57610ffe61398f565b5b905f5260205f209060090201604051806101400160405290815f820154815260200160018201805461103090613871565b80601f016020809104026020016040519081016040528092919081815260200182805461105c90613871565b80156110a75780601f1061107e576101008083540402835291602001916110a7565b820191905f5260205f20905b81548152906001019060200180831161108a57829003601f168201915b505050505081526020016002820180546110c090613871565b80601f01602080910402602001604051908101604052809291908181526020018280546110ec90613871565b80156111375780601f1061110e57610100808354040283529160200191611137565b820191905f5260205f20905b81548152906001019060200180831161111a57829003601f168201915b50505050508152602001600382015f9054906101000a900473ffffffffffffffffffffffffffffffffffffffff1673ffffffffffffffffffffffffffffffffffffffff1673ffffffffffffffffffffffffffffffffffffffff16815260200160048201548152602001600582015481526020016006820154815260200160078201548152602001600882015f9054906101000a900460ff161515151581526020016008820160019054906101000a900460ff16151515158152505090505f8160c001511461123a576040517f08c379a000000000000000000000000000000000000000000000000000000000815260040161123190613deb565b60405180910390fd5b80610100015115611280576040517f08c379a000000000000000000000000000000000000000000000000000000000815260040161127790613e79565b60405180910390fd5b60015f808673ffffffffffffffffffffffffffffffffffffffff1673ffffffffffffffffffffffffffffffffffffffff1681526020019081526020015f206001876112cb919061395c565b815481106112dc576112db61398f565b5b905f5260205f20906009020160080160016101000a81548160ff0219169083151502179055507fddf13b23f5aa44ed82e83c974bb182744638f745e4bcf56ac5343bc41a67ad55848660405161133392919061381d565b60405180910390a15050505050565b6004602052815f5260405f20818154811061135b575f80fd5b905f5260205f2090600502015f9150915050805f01549080600101805461138190613871565b80601f01602080910402602001604051908101604052809291908181526020018280546113ad90613871565b80156113f85780601f106113cf576101008083540402835291602001916113f8565b820191905f5260205f20905b8154815290600101906020018083116113db57829003601f168201915b505050505090806002015490806003015f9054906101000a900473ffffffffffffffffffffffffffffffffffffffff1690806004015f9054906101000a900473ffffffffffffffffffffffffffffffffffffffff16905085565b815f808573ffffffffffffffffffffffffffffffffffffffff1673ffffffffffffffffffffffffffffffffffffffff1681526020019081526020015f2060018461149c919061395c565b815481106114ad576114ac61398f565b5b905f5260205f2090600902015f015414826040516020016114ce9190613f55565b6040516020818303038152906040529061151e576040517f08c379a00000000000000000000000000000000000000000000000000000000081526004016115159190613f85565b60405180910390fd5b505f808473ffffffffffffffffffffffffffffffffffffffff1673ffffffffffffffffffffffffffffffffffffffff1681526020019081526020015f20600183611568919061395c565b815481106115795761157861398f565b5b905f5260205f2090600902016007015442106115ca576040517f08c379a00000000000000000000000000000000000000000000000000000000081526004016115c190614015565b60405180910390fd5b5f808473ffffffffffffffffffffffffffffffffffffffff1673ffffffffffffffffffffffffffffffffffffffff1681526020019081526020015f20600183611613919061395c565b815481106116245761162361398f565b5b905f5260205f20906009020160080160019054906101000a900460ff16155f808573ffffffffffffffffffffffffffffffffffffffff1673ffffffffffffffffffffffffffffffffffffffff1681526020019081526020015f2060018461168b919061395c565b8154811061169c5761169b61398f565b5b905f5260205f2090600902016001016040516020016116bb9190614159565b6040516020818303038152906040529061170b576040517f08c379a00000000000000000000000000000000000000000000000000000000081526004016117029190613f85565b60405180910390fd5b505f808473ffffffffffffffffffffffffffffffffffffffff1673ffffffffffffffffffffffffffffffffffffffff1681526020019081526020015f20600183611755919061395c565b815481106117665761176561398f565b5b905f5260205f2090600902016008015f9054906101000a900460ff16155f808573ffffffffffffffffffffffffffffffffffffffff1673ffffffffffffffffffffffffffffffffffffffff1681526020019081526020015f206001846117cc919061395c565b815481106117dd576117dc61398f565b5b905f5260205f2090600902016001016040516020016117fc91906141cf565b6040516020818303038152906040529061184c576040517f08c379a00000000000000000000000000000000000000000000000000000000081526004016118439190613f85565b60405180910390fd5b505f811161188f576040517f08c379a000000000000000000000000000000000000000000000000000000000815260040161188690614245565b60405180910390fd5b8034146118d1576040517f08c379a00000000000000000000000000000000000000000000000000000000081526004016118c8906142d3565b60405180910390fd5b805f808573ffffffffffffffffffffffffffffffffffffffff1673ffffffffffffffffffffffffffffffffffffffff1681526020019081526020015f2060018461191b919061395c565b8154811061192c5761192b61398f565b5b905f5260205f2090600902016005015f8282546119499190613c77565b92505081905550805f808573ffffffffffffffffffffffffffffffffffffffff1673ffffffffffffffffffffffffffffffffffffffff1681526020019081526020015f2060018461199a919061395c565b815481106119ab576119aa61398f565b5b905f5260205f2090600902016006015f8282546119c89190613c77565b925050819055505f808473ffffffffffffffffffffffffffffffffffffffff1673ffffffffffffffffffffffffffffffffffffffff1681526020019081526020015f20600183611a18919061395c565b81548110611a2957611a2861398f565b5b905f5260205f209060090201600401545f808573ffffffffffffffffffffffffffffffffffffffff1673ffffffffffffffffffffffffffffffffffffffff1681526020019081526020015f20600184611a82919061395c565b81548110611a9357611a9261398f565b5b905f5260205f2090600902016005015410611b635760015f808573ffffffffffffffffffffffffffffffffffffffff1673ffffffffffffffffffffffffffffffffffffffff1681526020019081526020015f20600184611af3919061395c565b81548110611b0457611b0361398f565b5b905f5260205f2090600902016008015f6101000a81548160ff0219169083151502179055507f8559b4dc0428ef20b1a5974fff4845e3163bfbec589128d75c7da62148fbd8ae8383604051611b5a92919061434c565b60405180910390a15b5f60405180608001604052808573ffffffffffffffffffffffffffffffffffffffff1681526020018481526020015f808773ffffffffffffffffffffffffffffffffffffffff1673ffffffffffffffffffffffffffffffffffffffff1681526020019081526020015f20600186611bda919061395c565b81548110611beb57611bea61398f565b5b905f5260205f2090600902016001018054611c0590613871565b80601f0160208091040260200160405190810160405280929190818152602001828054611c3190613871565b8015611c7c5780601f10611c5357610100808354040283529160200191611c7c565b820191905f5260205f20905b815481529060010190602001808311611c5f57829003601f168201915b5050505050815260200183815250905060035f3373ffffffffffffffffffffffffffffffffffffffff1673ffffffffffffffffffffffffffffffffffffffff1681526020019081526020015f2081908060018154018082558091505060019003905f5260205f2090600402015f909190919091505f820151815f015f6101000a81548173ffffffffffffffffffffffffffffffffffffffff021916908373ffffffffffffffffffffffffffffffffffffffff160217905550602082015181600101556040820151816002019081611d5391906144f5565b506060820151816003015550505f60405180604001604052803373ffffffffffffffffffffffffffffffffffffffff16815260200184815250905060055f8673ffffffffffffffffffffffffffffffffffffffff1673ffffffffffffffffffffffffffffffffffffffff1681526020019081526020015f205f8581526020019081526020015f2081908060018154018082558091505060019003905f5260205f2090600202015f909190919091505f820151815f015f6101000a81548173ffffffffffffffffffffffffffffffffffffffff021916908373ffffffffffffffffffffffffffffffffffffffff1602179055506020820151816001015550507fbe0281dcb233d52d4d243d0d6ff4ed47e8641aecf85b98611ade1c9307186b7d33848787604051611e8694939291906145c4565b60405180910390a15050505050565b6003602052815f5260405f208181548110611eae575f80fd5b905f5260205f2090600402015f9150915050805f015f9054906101000a900473ffffffffffffffffffffffffffffffffffffffff1690806001015490806002018054611ef990613871565b80601f0160208091040260200160405190810160405280929190818152602001828054611f2590613871565b8015611f705780601f10611f4757610100808354040283529160200191611f70565b820191905f5260205f20905b815481529060010190602001808311611f5357829003601f168201915b5050505050908060030154905084565b5f5b5f803373ffffffffffffffffffffffffffffffffffffffff1673ffffffffffffffffffffffffffffffffffffffff1681526020019081526020015f20805490508110156120ec575f805f3373ffffffffffffffffffffffffffffffffffffffff1673ffffffffffffffffffffffffffffffffffffffff1681526020019081526020015f2082815481106120185761201761398f565b5b905f5260205f20906009020160010190505f8660405160200161203b9190614637565b604051602081830303815290604052805190602001208260405160200161206291906146df565b6040516020818303038152906040528051906020012014905080156120dd57866040516020016120929190614789565b6040516020818303038152906040526040517f08c379a00000000000000000000000000000000000000000000000000000000081526004016120d49190613f85565b60405180910390fd5b50508080600101915050611f82565b505f60405180610140016040528060015f803373ffffffffffffffffffffffffffffffffffffffff1673ffffffffffffffffffffffffffffffffffffffff1681526020019081526020015f20805490506121469190613c77565b81526020018681526020018581526020013373ffffffffffffffffffffffffffffffffffffffff1681526020018481526020015f81526020015f8152602001620151808461219491906147b5565b4261219f9190613c77565b81526020015f151581526020015f151581525090505f803373ffffffffffffffffffffffffffffffffffffffff1673ffffffffffffffffffffffffffffffffffffffff1681526020019081526020015f2081908060018154018082558091505060019003905f5260205f2090600902015f909190919091505f820151815f0155602082015181600101908161223491906144f5565b50604082015181600201908161224a91906144f5565b506060820151816003015f6101000a81548173ffffffffffffffffffffffffffffffffffffffff021916908373ffffffffffffffffffffffffffffffffffffffff1602179055506080820151816004015560a0820151816005015560c0820151816006015560e08201518160070155610100820151816008015f6101000a81548160ff0219169083151502179055506101208201518160080160016101000a81548160ff02191690831515021790555050507fdc26653af5b99b2da33e2ad69ee6600d9aeccc82b034501db4338309615ca2385f803373ffffffffffffffffffffffffffffffffffffffff1673ffffffffffffffffffffffffffffffffffffffff1681526020019081526020015f2080549050338786620151808761236f91906147b5565b4261237a9190613c77565b60405161238b9594939291906147f6565b60405180910390a15050505050565b60015f3373ffffffffffffffffffffffffffffffffffffffff1673ffffffffffffffffffffffffffffffffffffffff1681526020019081526020015f205f8273ffffffffffffffffffffffffffffffffffffffff1673ffffffffffffffffffffffffffffffffffffffff1681526020019081526020015f205f9054906101000a900460ff161561245f576040517f08c379a0000000000000000000000000000000000000000000000000000000008152600401612456906148be565b60405180910390fd5b6001805f3373ffffffffffffffffffffffffffffffffffffffff1673ffffffffffffffffffffffffffffffffffffffff1681526020019081526020015f205f8373ffffffffffffffffffffffffffffffffffffffff1673ffffffffffffffffffffffffffffffffffffffff1681526020019081526020015f205f6101000a81548160ff02191690831515021790555060025f3373ffffffffffffffffffffffffffffffffffffffff1673ffffffffffffffffffffffffffffffffffffffff1681526020019081526020015f2081908060018154018082558091505060019003905f5260205f20015f9091909190916101000a81548173ffffffffffffffffffffffffffffffffffffffff021916908373ffffffffffffffffffffffffffffffffffffffff1602179055507fad6de4452a631e641cb59902236607946ce9272b9b981f2f80e8d129cb9084ba816040516125b8919061339b565b60405180910390a150565b6001602052815f5260405f20602052805f5260405f205f915091509054906101000a900460ff1681565b82845f805f8473ffffffffffffffffffffffffffffffffffffffff1673ffffffffffffffffffffffffffffffffffffffff1681526020019081526020015f208054905011612670576040517f08c379a000000000000000000000000000000000000000000000000000000000815260040161266790613911565b60405180910390fd5b805f808473ffffffffffffffffffffffffffffffffffffffff1673ffffffffffffffffffffffffffffffffffffffff1681526020019081526020015f206001836126ba919061395c565b815481106126cb576126ca61398f565b5b905f5260205f2090600902015f01541461271a576040517f08c379a000000000000000000000000000000000000000000000000000000000815260040161271190613a2c565b60405180910390fd5b60015f8373ffffffffffffffffffffffffffffffffffffffff1673ffffffffffffffffffffffffffffffffffffffff1681526020019081526020015f205f3373ffffffffffffffffffffffffffffffffffffffff1673ffffffffffffffffffffffffffffffffffffffff1681526020019081526020015f205f9054906101000a900460ff166127de576040517f08c379a00000000000000000000000000000000000000000000000000000000081526004016127d590613aba565b60405180910390fd5b5f808673ffffffffffffffffffffffffffffffffffffffff1673ffffffffffffffffffffffffffffffffffffffff1681526020019081526020015f20600187612827919061395c565b815481106128385761283761398f565b5b905f5260205f2090600902016008015f9054906101000a900460ff16612893576040517f08c379a000000000000000000000000000000000000000000000000000000000815260040161288a9061494c565b60405180910390fd5b834710156128d6576040517f08c379a00000000000000000000000000000000000000000000000000000000081526004016128cd90613bb0565b60405180910390fd5b5f8411801561294e57505f808673ffffffffffffffffffffffffffffffffffffffff1673ffffffffffffffffffffffffffffffffffffffff1681526020019081526020015f20600187612929919061395c565b8154811061293a5761293961398f565b5b905f5260205f209060090201600501548411155b61298d576040517f08c379a0000000000000000000000000000000000000000000000000000000008152600401612984906149da565b60405180910390fd5b5f805f8773ffffffffffffffffffffffffffffffffffffffff1673ffffffffffffffffffffffffffffffffffffffff1681526020019081526020015f206001886129d7919061395c565b815481106129e8576129e761398f565b5b905f5260205f2090600902016006015490505f8582612a07919061395c565b9050805f808973ffffffffffffffffffffffffffffffffffffffff1673ffffffffffffffffffffffffffffffffffffffff1681526020019081526020015f2060018a612a53919061395c565b81548110612a6457612a6361398f565b5b905f5260205f209060090201600601819055505f8573ffffffffffffffffffffffffffffffffffffffff1687604051612a9c90613bfb565b5f6040518083038185875af1925050503d805f8114612ad6576040519150601f19603f3d011682016040523d82523d5f602084013e612adb565b606091505b5050905080612b1f576040517f08c379a0000000000000000000000000000000000000000000000000000000008152600401612b1690613c59565b60405180910390fd5b5f6040518060a001604052808b81526020015f808c73ffffffffffffffffffffffffffffffffffffffff1673ffffffffffffffffffffffffffffffffffffffff1681526020019081526020015f2060018d612b7a919061395c565b81548110612b8b57612b8a61398f565b5b905f5260205f2090600902016001018054612ba590613871565b80601f0160208091040260200160405190810160405280929190818152602001828054612bd190613871565b8015612c1c5780601f10612bf357610100808354040283529160200191612c1c565b820191905f5260205f20905b815481529060010190602001808311612bff57829003601f168201915b505050505081526020018981526020013373ffffffffffffffffffffffffffffffffffffffff1681526020018873ffffffffffffffffffffffffffffffffffffffff16815250905060045f8a73ffffffffffffffffffffffffffffffffffffffff1673ffffffffffffffffffffffffffffffffffffffff1681526020019081526020015f2081908060018154018082558091505060019003905f5260205f2090600502015f909190919091505f820151815f01556020820151816001019081612ce591906144f5565b50604082015181600201556060820151816003015f6101000a81548173ffffffffffffffffffffffffffffffffffffffff021916908373ffffffffffffffffffffffffffffffffffffffff1602179055506080820151816004015f6101000a81548173ffffffffffffffffffffffffffffffffffffffff021916908373ffffffffffffffffffffffffffffffffffffffff16021790555050507ffb301322f68b8ea04d2b6a3ab0a1a0100d7be758e7ffa771d5539a256b92d10d8833898c8e604051612db59594939291906149f8565b60405180910390a150505050505050505050565b6005602052825f5260405f20602052815f5260405f208181548110612dec575f80fd5b905f5260205f2090600202015f925092505050805f015f9054906101000a900473ffffffffffffffffffffffffffffffffffffffff16908060010154905082565b60015f3373ffffffffffffffffffffffffffffffffffffffff1673ffffffffffffffffffffffffffffffffffffffff1681526020019081526020015f205f8273ffffffffffffffffffffffffffffffffffffffff1673ffffffffffffffffffffffffffffffffffffffff1681526020019081526020015f205f9054906101000a900460ff16612ef1576040517f08c379a0000000000000000000000000000000000000000000000000000000008152600401612ee890614a93565b60405180910390fd5b5f60015f3373ffffffffffffffffffffffffffffffffffffffff1673ffffffffffffffffffffffffffffffffffffffff1681526020019081526020015f205f8373ffffffffffffffffffffffffffffffffffffffff1673ffffffffffffffffffffffffffffffffffffffff1681526020019081526020015f205f6101000a81548160ff0219169083151502179055505f60025f3373ffffffffffffffffffffffffffffffffffffffff1673ffffffffffffffffffffffffffffffffffffffff1681526020019081526020015f2090505f5b8180549050811015613133578273ffffffffffffffffffffffffffffffffffffffff16828281548110612ff857612ff761398f565b5b905f5260205f20015f9054906101000a900473ffffffffffffffffffffffffffffffffffffffff1673ffffffffffffffffffffffffffffffffffffffff160361312657816001838054905061304d919061395c565b8154811061305e5761305d61398f565b5b905f5260205f20015f9054906101000a900473ffffffffffffffffffffffffffffffffffffffff168282815481106130995761309861398f565b5b905f5260205f20015f6101000a81548173ffffffffffffffffffffffffffffffffffffffff021916908373ffffffffffffffffffffffffffffffffffffffff160217905550818054806130ef576130ee614ab1565b5b600190038181905f5260205f20015f6101000a81549073ffffffffffffffffffffffffffffffffffffffff02191690559055613133565b8080600101915050612fc2565b507f753f40ca3312b2408759a67875b367955e7baa221daf08aa3d643d96202ac12b82604051613163919061339b565b60405180910390a15050565b5f604051905090565b5f80fd5b5f80fd5b5f73ffffffffffffffffffffffffffffffffffffffff82169050919050565b5f6131a982613180565b9050919050565b6131b98161319f565b81146131c3575f80fd5b50565b5f813590506131d4816131b0565b92915050565b5f819050919050565b6131ec816131da565b81146131f6575f80fd5b50565b5f81359050613207816131e3565b92915050565b5f806040838503121561322357613222613178565b5b5f613230858286016131c6565b9250506020613241858286016131f9565b9150509250929050565b613254816131da565b82525050565b5f81519050919050565b5f82825260208201905092915050565b8281835e5f83830152505050565b5f601f19601f8301169050919050565b5f61329c8261325a565b6132a68185613264565b93506132b6818560208601613274565b6132bf81613282565b840191505092915050565b6132d38161319f565b82525050565b5f8115159050919050565b6132ed816132d9565b82525050565b5f610140820190506133075f83018d61324b565b8181036020830152613319818c613292565b9050818103604083015261332d818b613292565b905061333c606083018a6132ca565b613349608083018961324b565b61335660a083018861324b565b61336360c083018761324b565b61337060e083018661324b565b61337e6101008301856132e4565b61338c6101208301846132e4565b9b9a5050505050505050505050565b5f6020820190506133ae5f8301846132ca565b92915050565b5f80604083850312156133ca576133c9613178565b5b5f6133d7858286016131f9565b92505060206133e8858286016131c6565b9150509250929050565b5f60a0820190506134055f83018861324b565b81810360208301526134178187613292565b9050613426604083018661324b565b61343360608301856132ca565b61344060808301846132ca565b9695505050505050565b5f61345482613180565b9050919050565b6134648161344a565b811461346e575f80fd5b50565b5f8135905061347f8161345b565b92915050565b5f805f6060848603121561349c5761349b613178565b5b5f6134a986828701613471565b93505060206134ba868287016131f9565b92505060406134cb868287016131f9565b9150509250925092565b5f6080820190506134e85f8301876132ca565b6134f5602083018661324b565b81810360408301526135078185613292565b9050613516606083018461324b565b95945050505050565b5f80fd5b5f80fd5b7f4e487b71000000000000000000000000000000000000000000000000000000005f52604160045260245ffd5b61355d82613282565b810181811067ffffffffffffffff8211171561357c5761357b613527565b5b80604052505050565b5f61358e61316f565b905061359a8282613554565b919050565b5f67ffffffffffffffff8211156135b9576135b8613527565b5b6135c282613282565b9050602081019050919050565b828183375f83830152505050565b5f6135ef6135ea8461359f565b613585565b90508281526020810184848401111561360b5761360a613523565b5b6136168482856135cf565b509392505050565b5f82601f8301126136325761363161351f565b5b81356136428482602086016135dd565b91505092915050565b5f805f806080858703121561366357613662613178565b5b5f85013567ffffffffffffffff8111156136805761367f61317c565b5b61368c8782880161361e565b945050602085013567ffffffffffffffff8111156136ad576136ac61317c565b5b6136b98782880161361e565b93505060406136ca878288016131f9565b92505060606136db878288016131f9565b91505092959194509250565b5f602082840312156136fc576136fb613178565b5b5f613709848285016131c6565b91505092915050565b5f806040838503121561372857613727613178565b5b5f613735858286016131c6565b9250506020613746858286016131c6565b9150509250929050565b5f6020820190506137635f8301846132e4565b92915050565b5f805f806080858703121561378157613780613178565b5b5f61378e878288016131f9565b945050602061379f878288016131c6565b93505060406137b0878288016131f9565b92505060606137c187828801613471565b91505092959194509250565b5f805f606084860312156137e4576137e3613178565b5b5f6137f1868287016131c6565b9350506020613802868287016131f9565b9250506040613813868287016131f9565b9150509250925092565b5f6040820190506138305f8301856132ca565b61383d602083018461324b565b9392505050565b7f4e487b71000000000000000000000000000000000000000000000000000000005f52602260045260245ffd5b5f600282049050600182168061388857607f821691505b60208210810361389b5761389a613844565b5b50919050565b7f5468657265204973204e6f2043616d706169676e2042792054686174206164645f8201527f7265737321000000000000000000000000000000000000000000000000000000602082015250565b5f6138fb602583613264565b9150613906826138a1565b604082019050919050565b5f6020820190508181035f830152613928816138ef565b9050919050565b7f4e487b71000000000000000000000000000000000000000000000000000000005f52601160045260245ffd5b5f613966826131da565b9150613971836131da565b92508282039050818111156139895761398861392f565b5b92915050565b7f4e487b71000000000000000000000000000000000000000000000000000000005f52603260045260245ffd5b7f5468652043616d706169676e2053706563696669656420446f6573204e6f74205f8201527f4578697374210000000000000000000000000000000000000000000000000000602082015250565b5f613a16602683613264565b9150613a21826139bc565b604082019050919050565b5f6020820190508181035f830152613a4381613a0a565b9050919050565b7f4f6e6c792041646d696e732043616e20506572666f726d2054686973204163745f8201527f696f6e2100000000000000000000000000000000000000000000000000000000602082015250565b5f613aa4602483613264565b9150613aaf82613a4a565b604082019050919050565b5f6020820190508181035f830152613ad181613a98565b9050919050565b7f546869732043616d706169676e204973205375636365737366756c2043616e6e5f8201527f6f742062652043616e63656c6c65642100000000000000000000000000000000602082015250565b5f613b32603083613264565b9150613b3d82613ad8565b604082019050919050565b5f6020820190508181035f830152613b5f81613b26565b9050919050565b7f496e73756666696369656e7420636f6e74726163742062616c616e63650000005f82015250565b5f613b9a601d83613264565b9150613ba582613b66565b602082019050919050565b5f6020820190508181035f830152613bc781613b8e565b9050919050565b5f81905092915050565b50565b5f613be65f83613bce565b9150613bf182613bd8565b5f82019050919050565b5f613c0582613bdb565b9150819050919050565b7f5472616e73666572206661696c656400000000000000000000000000000000005f82015250565b5f613c43600f83613264565b9150613c4e82613c0f565b602082019050919050565b5f6020820190508181035f830152613c7081613c37565b9050919050565b5f613c81826131da565b9150613c8c836131da565b9250828201905080821115613ca457613ca361392f565b5b92915050565b5f608082019050613cbd5f8301876132ca565b613cca602083018661324b565b613cd760408301856132ca565b613ce4606083018461324b565b95945050505050565b7f526566756e642057617320556e7375636365737366756c2100000000000000005f82015250565b5f613d21601883613264565b9150613d2c82613ced565b602082019050919050565b5f6020820190508181035f830152613d4e81613d15565b9050919050565b7f546869732043616d706169676e2048617320416c7265616479205261697365645f8201527f2046756e64732120526566756e64204669727374205468656e2043616e63656c60208201527f2100000000000000000000000000000000000000000000000000000000000000604082015250565b5f613dd5604183613264565b9150613de082613d55565b606082019050919050565b5f6020820190508181035f830152613e0281613dc9565b9050919050565b7f546869732043616d706169676e2048617320416c7265616479204265656e20435f8201527f6f6d706c65746564210000000000000000000000000000000000000000000000602082015250565b5f613e63602983613264565b9150613e6e82613e09565b604082019050919050565b5f6020820190508181035f830152613e9081613e57565b9050919050565b5f81905092915050565b7f5468652043616d706169676e20000000000000000000000000000000000000005f82015250565b5f613ed5600d83613e97565b9150613ee082613ea1565b600d82019050919050565b5f819050919050565b613f05613f00826131da565b613eeb565b82525050565b7f20446f6573204e4f5420457869737421000000000000000000000000000000005f82015250565b5f613f3f601083613e97565b9150613f4a82613f0b565b601082019050919050565b5f613f5f82613ec9565b9150613f6b8284613ef4565b602082019150613f7a82613f33565b915081905092915050565b5f6020820190508181035f830152613f9d8184613292565b905092915050565b7f546869732043616d706169676e277320446561646c696e6520486173205061735f8201527f7365642100000000000000000000000000000000000000000000000000000000602082015250565b5f613fff602483613264565b915061400a82613fa5565b604082019050919050565b5f6020820190508181035f83015261402c81613ff3565b9050919050565b7f27000000000000000000000000000000000000000000000000000000000000005f82015250565b5f614067600183613e97565b915061407282614033565b600182019050919050565b5f819050815f5260205f209050919050565b5f815461409b81613871565b6140a58186613e97565b9450600182165f81146140bf57600181146140d457614106565b60ff1983168652811515820286019350614106565b6140dd8561407d565b5f5b838110156140fe578154818901526001820191506020810190506140df565b838801955050505b50505092915050565b7f272043616d706169676e205761732043616e63616c6c656421000000000000005f82015250565b5f614143601983613e97565b915061414e8261410f565b601982019050919050565b5f6141638261405b565b915061416f828461408f565b915061417a82614137565b915081905092915050565b7f272043616d706169676e2057617320436f6d706c6574656421000000000000005f82015250565b5f6141b9601983613e97565b91506141c482614185565b601982019050919050565b5f6141d98261405b565b91506141e5828461408f565b91506141f0826141ad565b915081905092915050565b7f446f6e6174696f6e20416d6f756e742043616e6e6f74206265205a65726f00005f82015250565b5f61422f601e83613264565b915061423a826141fb565b602082019050919050565b5f6020820190508181035f83015261425c81614223565b9050919050565b7f54686520416d6f756e7420416e642056616c756520446f6e2774204d617463685f8201527f2100000000000000000000000000000000000000000000000000000000000000602082015250565b5f6142bd602183613264565b91506142c882614263565b604082019050919050565b5f6020820190508181035f8301526142ea816142b1565b9050919050565b5f819050919050565b5f61431461430f61430a84613180565b6142f1565b613180565b9050919050565b5f614325826142fa565b9050919050565b5f6143368261431b565b9050919050565b6143468161432c565b82525050565b5f60408201905061435f5f83018561433d565b61436c602083018461324b565b9392505050565b5f6020601f8301049050919050565b5f82821b905092915050565b5f600883026143bd7fffffffffffffffffffffffffffffffffffffffffffffffffffffffffffffffff82614382565b6143c78683614382565b95508019841693508086168417925050509392505050565b5f6143f96143f46143ef846131da565b6142f1565b6131da565b9050919050565b5f819050919050565b614412836143df565b61442661441e82614400565b84845461438e565b825550505050565b5f90565b61443a61442e565b614445818484614409565b505050565b5b818110156144685761445d5f82614432565b60018101905061444b565b5050565b601f8211156144ad5761447e8161407d565b61448784614373565b81016020851015614496578190505b6144aa6144a285614373565b83018261444a565b50505b505050565b5f82821c905092915050565b5f6144cd5f19846008026144b2565b1980831691505092915050565b5f6144e583836144be565b9150826002028217905092915050565b6144fe8261325a565b67ffffffffffffffff81111561451757614516613527565b5b6145218254613871565b61452c82828561446c565b5f60209050601f83116001811461455d575f841561454b578287015190505b61455585826144da565b8655506145bc565b601f19841661456b8661407d565b5f5b828110156145925784890151825560018201915060208501945060208101905061456d565b868310156145af57848901516145ab601f8916826144be565b8355505b6001600288020188555050505b505050505050565b5f6080820190506145d75f8301876132ca565b6145e4602083018661324b565b6145f1604083018561433d565b6145fe606083018461324b565b95945050505050565b5f6146118261325a565b61461b8185613e97565b935061462b818560208601613274565b80840191505092915050565b5f6146428284614607565b915081905092915050565b5f819050815f5260205f209050919050565b5f815461466b81613871565b6146758186613e97565b9450600182165f811461468f57600181146146a4576146d6565b60ff19831686528115158202860193506146d6565b6146ad8561464d565b5f5b838110156146ce578154818901526001820191506020810190506146af565b838801955050505b50505092915050565b5f6146ea828461465f565b915081905092915050565b7f43616d706169676e2000000000000000000000000000000000000000000000005f82015250565b5f614729600983613e97565b9150614734826146f5565b600982019050919050565b7f20616c72656164792065786973747321000000000000000000000000000000005f82015250565b5f614773601083613e97565b915061477e8261473f565b601082019050919050565b5f6147938261471d565b915061479f8284614607565b91506147aa82614767565b915081905092915050565b5f6147bf826131da565b91506147ca836131da565b92508282026147d8816131da565b915082820484148315176147ef576147ee61392f565b5b5092915050565b5f60a0820190506148095f83018861324b565b61481660208301876132ca565b81810360408301526148288186613292565b9050614837606083018561324b565b614844608083018461324b565b9695505050505050565b7f54686973204164647265737320497320416c726561647920416e2041646d696e5f8201527f2100000000000000000000000000000000000000000000000000000000000000602082015250565b5f6148a8602183613264565b91506148b38261484e565b604082019050919050565b5f6020820190508181035f8301526148d58161489c565b9050919050565b7f596f752043616e27742057697468647261772046756e64732066726f6d20616e5f8201527f204163746976652043616d706169676e00000000000000000000000000000000602082015250565b5f614936603083613264565b9150614941826148dc565b604082019050919050565b5f6020820190508181035f8301526149638161492a565b9050919050565b7f416d6f756e742043616e6e6f74206265205a65726f204f7220457863656564205f8201527f5468652052616973656420416d6f756e74210000000000000000000000000000602082015250565b5f6149c4603283613264565b91506149cf8261496a565b604082019050919050565b5f6020820190508181035f8301526149f1816149b8565b9050919050565b5f60a082019050614a0b5f83018861324b565b614a1860208301876132ca565b614a25604083018661433d565b614a3260608301856132ca565b614a3f608083018461324b565b9695505050505050565b7f546869732041646472657373204973204e6f7420416e2041646d696e210000005f82015250565b5f614a7d601d83613264565b9150614a8882614a49565b602082019050919050565b5f6020820190508181035f830152614aaa81614a71565b9050919050565b7f4e487b71000000000000000000000000000000000000000000000000000000005f52603160045260245ffdfea2646970667358221220925c4a4b70920a0c0c8a5acedbd77d84a512262cb0930190355e6e87ee71163864736f6c634300081a0033",
			"opcodes": "PUSH1 0x80 PUSH1 0x40 MSTORE CALLVALUE DUP1 ISZERO PUSH1 0xE JUMPI PUSH0 DUP1 REVERT JUMPDEST POP PUSH2 0x4B14 DUP1 PUSH2 0x1C PUSH0 CODECOPY PUSH0 RETURN INVALID PUSH1 0x80 PUSH1 0x40 MSTORE PUSH1 0x4 CALLDATASIZE LT PUSH2 0xC1 JUMPI PUSH0 CALLDATALOAD PUSH1 0xE0 SHR DUP1 PUSH4 0x9B56F5F0 GT PUSH2 0x7E JUMPI DUP1 PUSH4 0xBE21739E GT PUSH2 0x58 JUMPI DUP1 PUSH4 0xBE21739E EQ PUSH2 0x281 JUMPI DUP1 PUSH4 0xC14B8AAC EQ PUSH2 0x2BD JUMPI DUP1 PUSH4 0xE6C9099A EQ PUSH2 0x2E5 JUMPI DUP1 PUSH4 0xF1694AA1 EQ PUSH2 0x322 JUMPI PUSH2 0xC1 JUMP JUMPDEST DUP1 PUSH4 0x9B56F5F0 EQ PUSH2 0x1F2 JUMPI DUP1 PUSH4 0xA318F269 EQ PUSH2 0x231 JUMPI DUP1 PUSH4 0xBE18FDA6 EQ PUSH2 0x259 JUMPI PUSH2 0xC1 JUMP JUMPDEST DUP1 PUSH4 0x11555DBC EQ PUSH2 0xC5 JUMPI DUP1 PUSH4 0x1F55E5BC EQ PUSH2 0x10A JUMPI DUP1 PUSH4 0x25BE946E EQ PUSH2 0x146 JUMPI DUP1 PUSH4 0x39E9412F EQ PUSH2 0x16E JUMPI DUP1 PUSH4 0x422B1077 EQ PUSH2 0x196 JUMPI DUP1 PUSH4 0x5A3915CD EQ PUSH2 0x1D6 JUMPI JUMPDEST PUSH0 DUP1 REVERT JUMPDEST CALLVALUE DUP1 ISZERO PUSH2 0xD0 JUMPI PUSH0 DUP1 REVERT JUMPDEST POP PUSH2 0xEB PUSH1 0x4 DUP1 CALLDATASIZE SUB DUP2 ADD SWAP1 PUSH2 0xE6 SWAP2 SWAP1 PUSH2 0x320D JUMP JUMPDEST PUSH2 0x34A JUMP JUMPDEST PUSH1 0x40 MLOAD PUSH2 0x101 SWAP11 SWAP10 SWAP9 SWAP8 SWAP7 SWAP6 SWAP5 SWAP4 SWAP3 SWAP2 SWAP1 PUSH2 0x32F3 JUMP JUMPDEST PUSH1 0x40 MLOAD DUP1 SWAP2 SUB SWAP1 RETURN JUMPDEST CALLVALUE DUP1 ISZERO PUSH2 0x115 JUMPI PUSH0 DUP1 REVERT JUMPDEST POP PUSH2 0x130 PUSH1 0x4 DUP1 CALLDATASIZE SUB DUP2 ADD SWAP1 PUSH2 0x12B SWAP2 SWAP1 PUSH2 0x320D JUMP JUMPDEST PUSH2 0x4F7 JUMP JUMPDEST PUSH1 0x40 MLOAD PUSH2 0x13D SWAP2 SWAP1 PUSH2 0x339B JUMP JUMPDEST PUSH1 0x40 MLOAD DUP1 SWAP2 SUB SWAP1 RETURN JUMPDEST CALLVALUE DUP1 ISZERO PUSH2 0x151 JUMPI PUSH0 DUP1 REVERT JUMPDEST POP PUSH2 0x16C PUSH1 0x4 DUP1 CALLDATASIZE SUB DUP2 ADD SWAP1 PUSH2 0x167 SWAP2 SWAP1 PUSH2 0x33B4 JUMP JUMPDEST PUSH2 0x53F JUMP JUMPDEST STOP JUMPDEST CALLVALUE DUP1 ISZERO PUSH2 0x179 JUMPI PUSH0 DUP1 REVERT JUMPDEST POP PUSH2 0x194 PUSH1 0x4 DUP1 CALLDATASIZE SUB DUP2 ADD SWAP1 PUSH2 0x18F SWAP2 SWAP1 PUSH2 0x33B4 JUMP JUMPDEST PUSH2 0xDB3 JUMP JUMPDEST STOP JUMPDEST CALLVALUE DUP1 ISZERO PUSH2 0x1A1 JUMPI PUSH0 DUP1 REVERT JUMPDEST POP PUSH2 0x1BC PUSH1 0x4 DUP1 CALLDATASIZE SUB DUP2 ADD SWAP1 PUSH2 0x1B7 SWAP2 SWAP1 PUSH2 0x320D JUMP JUMPDEST PUSH2 0x1342 JUMP JUMPDEST PUSH1 0x40 MLOAD PUSH2 0x1CD SWAP6 SWAP5 SWAP4 SWAP3 SWAP2 SWAP1 PUSH2 0x33F2 JUMP JUMPDEST PUSH1 0x40 MLOAD DUP1 SWAP2 SUB SWAP1 RETURN JUMPDEST PUSH2 0x1F0 PUSH1 0x4 DUP1 CALLDATASIZE SUB DUP2 ADD SWAP1 PUSH2 0x1EB SWAP2 SWAP1 PUSH2 0x3485 JUMP JUMPDEST PUSH2 0x1452 JUMP JUMPDEST STOP JUMPDEST CALLVALUE DUP1 ISZERO PUSH2 0x1FD JUMPI PUSH0 DUP1 REVERT JUMPDEST POP PUSH2 0x218 PUSH1 0x4 DUP1 CALLDATASIZE SUB DUP2 ADD SWAP1 PUSH2 0x213 SWAP2 SWAP1 PUSH2 0x320D JUMP JUMPDEST PUSH2 0x1E95 JUMP JUMPDEST PUSH1 0x40 MLOAD PUSH2 0x228 SWAP5 SWAP4 SWAP3 SWAP2 SWAP1 PUSH2 0x34D5 JUMP JUMPDEST PUSH1 0x40 MLOAD DUP1 SWAP2 SUB SWAP1 RETURN JUMPDEST CALLVALUE DUP1 ISZERO PUSH2 0x23C JUMPI PUSH0 DUP1 REVERT JUMPDEST POP PUSH2 0x257 PUSH1 0x4 DUP1 CALLDATASIZE SUB DUP2 ADD SWAP1 PUSH2 0x252 SWAP2 SWAP1 PUSH2 0x364B JUMP JUMPDEST PUSH2 0x1F80 JUMP JUMPDEST STOP JUMPDEST CALLVALUE DUP1 ISZERO PUSH2 0x264 JUMPI PUSH0 DUP1 REVERT JUMPDEST POP PUSH2 0x27F PUSH1 0x4 DUP1 CALLDATASIZE SUB DUP2 ADD SWAP1 PUSH2 0x27A SWAP2 SWAP1 PUSH2 0x36E7 JUMP JUMPDEST PUSH2 0x239A JUMP JUMPDEST STOP JUMPDEST CALLVALUE DUP1 ISZERO PUSH2 0x28C JUMPI PUSH0 DUP1 REVERT JUMPDEST POP PUSH2 0x2A7 PUSH1 0x4 DUP1 CALLDATASIZE SUB DUP2 ADD SWAP1 PUSH2 0x2A2 SWAP2 SWAP1 PUSH2 0x3712 JUMP JUMPDEST PUSH2 0x25C3 JUMP JUMPDEST PUSH1 0x40 MLOAD PUSH2 0x2B4 SWAP2 SWAP1 PUSH2 0x3750 JUMP JUMPDEST PUSH1 0x40 MLOAD DUP1 SWAP2 SUB SWAP1 RETURN JUMPDEST CALLVALUE DUP1 ISZERO PUSH2 0x2C8 JUMPI PUSH0 DUP1 REVERT JUMPDEST POP PUSH2 0x2E3 PUSH1 0x4 DUP1 CALLDATASIZE SUB DUP2 ADD SWAP1 PUSH2 0x2DE SWAP2 SWAP1 PUSH2 0x3769 JUMP JUMPDEST PUSH2 0x25ED JUMP JUMPDEST STOP JUMPDEST CALLVALUE DUP1 ISZERO PUSH2 0x2F0 JUMPI PUSH0 DUP1 REVERT JUMPDEST POP PUSH2 0x30B PUSH1 0x4 DUP1 CALLDATASIZE SUB DUP2 ADD SWAP1 PUSH2 0x306 SWAP2 SWAP1 PUSH2 0x37CD JUMP JUMPDEST PUSH2 0x2DC9 JUMP JUMPDEST PUSH1 0x40 MLOAD PUSH2 0x319 SWAP3 SWAP2 SWAP1 PUSH2 0x381D JUMP JUMPDEST PUSH1 0x40 MLOAD DUP1 SWAP2 SUB SWAP1 RETURN JUMPDEST CALLVALUE DUP1 ISZERO PUSH2 0x32D JUMPI PUSH0 DUP1 REVERT JUMPDEST POP PUSH2 0x348 PUSH1 0x4 DUP1 CALLDATASIZE SUB DUP2 ADD SWAP1 PUSH2 0x343 SWAP2 SWAP1 PUSH2 0x36E7 JUMP JUMPDEST PUSH2 0x2E2D JUMP JUMPDEST STOP JUMPDEST PUSH0 PUSH1 0x20 MSTORE DUP2 PUSH0 MSTORE PUSH1 0x40 PUSH0 KECCAK256 DUP2 DUP2 SLOAD DUP2 LT PUSH2 0x362 JUMPI PUSH0 DUP1 REVERT JUMPDEST SWAP1 PUSH0 MSTORE PUSH1 0x20 PUSH0 KECCAK256 SWAP1 PUSH1 0x9 MUL ADD PUSH0 SWAP2 POP SWAP2 POP POP DUP1 PUSH0 ADD SLOAD SWAP1 DUP1 PUSH1 0x1 ADD DUP1 SLOAD PUSH2 0x388 SWAP1 PUSH2 0x3871 JUMP JUMPDEST DUP1 PUSH1 0x1F ADD PUSH1 0x20 DUP1 SWAP2 DIV MUL PUSH1 0x20 ADD PUSH1 0x40 MLOAD SWAP1 DUP2 ADD PUSH1 0x40 MSTORE DUP1 SWAP3 SWAP2 SWAP1 DUP2 DUP2 MSTORE PUSH1 0x20 ADD DUP3 DUP1 SLOAD PUSH2 0x3B4 SWAP1 PUSH2 0x3871 JUMP JUMPDEST DUP1 ISZERO PUSH2 0x3FF JUMPI DUP1 PUSH1 0x1F LT PUSH2 0x3D6 JUMPI PUSH2 0x100 DUP1 DUP4 SLOAD DIV MUL DUP4 MSTORE SWAP2 PUSH1 0x20 ADD SWAP2 PUSH2 0x3FF JUMP JUMPDEST DUP3 ADD SWAP2 SWAP1 PUSH0 MSTORE PUSH1 0x20 PUSH0 KECCAK256 SWAP1 JUMPDEST DUP2 SLOAD DUP2 MSTORE SWAP1 PUSH1 0x1 ADD SWAP1 PUSH1 0x20 ADD DUP1 DUP4 GT PUSH2 0x3E2 JUMPI DUP3 SWAP1 SUB PUSH1 0x1F AND DUP3 ADD SWAP2 JUMPDEST POP POP POP POP POP SWAP1 DUP1 PUSH1 0x2 ADD DUP1 SLOAD PUSH2 0x414 SWAP1 PUSH2 0x3871 JUMP JUMPDEST DUP1 PUSH1 0x1F ADD PUSH1 0x20 DUP1 SWAP2 DIV MUL PUSH1 0x20 ADD PUSH1 0x40 MLOAD SWAP1 DUP2 ADD PUSH1 0x40 MSTORE DUP1 SWAP3 SWAP2 SWAP1 DUP2 DUP2 MSTORE PUSH1 0x20 ADD DUP3 DUP1 SLOAD PUSH2 0x440 SWAP1 PUSH2 0x3871 JUMP JUMPDEST DUP1 ISZERO PUSH2 0x48B JUMPI DUP1 PUSH1 0x1F LT PUSH2 0x462 JUMPI PUSH2 0x100 DUP1 DUP4 SLOAD DIV MUL DUP4 MSTORE SWAP2 PUSH1 0x20 ADD SWAP2 PUSH2 0x48B JUMP JUMPDEST DUP3 ADD SWAP2 SWAP1 PUSH0 MSTORE PUSH1 0x20 PUSH0 KECCAK256 SWAP1 JUMPDEST DUP2 SLOAD DUP2 MSTORE SWAP1 PUSH1 0x1 ADD SWAP1 PUSH1 0x20 ADD DUP1 DUP4 GT PUSH2 0x46E JUMPI DUP3 SWAP1 SUB PUSH1 0x1F AND DUP3 ADD SWAP2 JUMPDEST POP POP POP POP POP SWAP1 DUP1 PUSH1 0x3 ADD PUSH0 SWAP1 SLOAD SWAP1 PUSH2 0x100 EXP SWAP1 DIV PUSH20 0xFFFFFFFFFFFFFFFFFFFFFFFFFFFFFFFFFFFFFFFF AND SWAP1 DUP1 PUSH1 0x4 ADD SLOAD SWAP1 DUP1 PUSH1 0x5 ADD SLOAD SWAP1 DUP1 PUSH1 0x6 ADD SLOAD SWAP1 DUP1 PUSH1 0x7 ADD SLOAD SWAP1 DUP1 PUSH1 0x8 ADD PUSH0 SWAP1 SLOAD SWAP1 PUSH2 0x100 EXP SWAP1 DIV PUSH1 0xFF AND SWAP1 DUP1 PUSH1 0x8 ADD PUSH1 0x1 SWAP1 SLOAD SWAP1 PUSH2 0x100 EXP SWAP1 DIV PUSH1 0xFF AND SWAP1 POP DUP11 JUMP JUMPDEST PUSH1 0x2 PUSH1 0x20 MSTORE DUP2 PUSH0 MSTORE PUSH1 0x40 PUSH0 KECCAK256 DUP2 DUP2 SLOAD DUP2 LT PUSH2 0x510 JUMPI PUSH0 DUP1 REVERT JUMPDEST SWAP1 PUSH0 MSTORE PUSH1 0x20 PUSH0 KECCAK256 ADD PUSH0 SWAP2 POP SWAP2 POP SWAP1 SLOAD SWAP1 PUSH2 0x100 EXP SWAP1 DIV PUSH20 0xFFFFFFFFFFFFFFFFFFFFFFFFFFFFFFFFFFFFFFFF AND DUP2 JUMP JUMPDEST DUP1 DUP3 PUSH0 DUP1 PUSH0 DUP5 PUSH20 0xFFFFFFFFFFFFFFFFFFFFFFFFFFFFFFFFFFFFFFFF AND PUSH20 0xFFFFFFFFFFFFFFFFFFFFFFFFFFFFFFFFFFFFFFFF AND DUP2 MSTORE PUSH1 0x20 ADD SWAP1 DUP2 MSTORE PUSH1 0x20 ADD PUSH0 KECCAK256 DUP1 SLOAD SWAP1 POP GT PUSH2 0x5C2 JUMPI PUSH1 0x40 MLOAD PUSH32 0x8C379A000000000000000000000000000000000000000000000000000000000 DUP2 MSTORE PUSH1 0x4 ADD PUSH2 0x5B9 SWAP1 PUSH2 0x3911 JUMP JUMPDEST PUSH1 0x40 MLOAD DUP1 SWAP2 SUB SWAP1 REVERT JUMPDEST DUP1 PUSH0 DUP1 DUP5 PUSH20 0xFFFFFFFFFFFFFFFFFFFFFFFFFFFFFFFFFFFFFFFF AND PUSH20 0xFFFFFFFFFFFFFFFFFFFFFFFFFFFFFFFFFFFFFFFF AND DUP2 MSTORE PUSH1 0x20 ADD SWAP1 DUP2 MSTORE PUSH1 0x20 ADD PUSH0 KECCAK256 PUSH1 0x1 DUP4 PUSH2 0x60C SWAP2 SWAP1 PUSH2 0x395C JUMP JUMPDEST DUP2 SLOAD DUP2 LT PUSH2 0x61D JUMPI PUSH2 0x61C PUSH2 0x398F JUMP JUMPDEST JUMPDEST SWAP1 PUSH0 MSTORE PUSH1 0x20 PUSH0 KECCAK256 SWAP1 PUSH1 0x9 MUL ADD PUSH0 ADD SLOAD EQ PUSH2 0x66C JUMPI PUSH1 0x40 MLOAD PUSH32 0x8C379A000000000000000000000000000000000000000000000000000000000 DUP2 MSTORE PUSH1 0x4 ADD PUSH2 0x663 SWAP1 PUSH2 0x3A2C JUMP JUMPDEST PUSH1 0x40 MLOAD DUP1 SWAP2 SUB SWAP1 REVERT JUMPDEST PUSH1 0x1 PUSH0 DUP4 PUSH20 0xFFFFFFFFFFFFFFFFFFFFFFFFFFFFFFFFFFFFFFFF AND PUSH20 0xFFFFFFFFFFFFFFFFFFFFFFFFFFFFFFFFFFFFFFFF AND DUP2 MSTORE PUSH1 0x20 ADD SWAP1 DUP2 MSTORE PUSH1 0x20 ADD PUSH0 KECCAK256 PUSH0 CALLER PUSH20 0xFFFFFFFFFFFFFFFFFFFFFFFFFFFFFFFFFFFFFFFF AND PUSH20 0xFFFFFFFFFFFFFFFFFFFFFFFFFFFFFFFFFFFFFFFF AND DUP2 MSTORE PUSH1 0x20 ADD SWAP1 DUP2 MSTORE PUSH1 0x20 ADD PUSH0 KECCAK256 PUSH0 SWAP1 SLOAD SWAP1 PUSH2 0x100 EXP SWAP1 DIV PUSH1 0xFF AND PUSH2 0x730 JUMPI PUSH1 0x40 MLOAD PUSH32 0x8C379A000000000000000000000000000000000000000000000000000000000 DUP2 MSTORE PUSH1 0x4 ADD PUSH2 0x727 SWAP1 PUSH2 0x3ABA JUMP JUMPDEST PUSH1 0x40 MLOAD DUP1 SWAP2 SUB SWAP1 REVERT JUMPDEST PUSH0 DUP1 PUSH0 DUP6 PUSH20 0xFFFFFFFFFFFFFFFFFFFFFFFFFFFFFFFFFFFFFFFF AND PUSH20 0xFFFFFFFFFFFFFFFFFFFFFFFFFFFFFFFFFFFFFFFF AND DUP2 MSTORE PUSH1 0x20 ADD SWAP1 DUP2 MSTORE PUSH1 0x20 ADD PUSH0 KECCAK256 PUSH1 0x1 DUP7 PUSH2 0x77A SWAP2 SWAP1 PUSH2 0x395C JUMP JUMPDEST DUP2 SLOAD DUP2 LT PUSH2 0x78B JUMPI PUSH2 0x78A PUSH2 0x398F JUMP JUMPDEST JUMPDEST SWAP1 PUSH0 MSTORE PUSH1 0x20 PUSH0 KECCAK256 SWAP1 PUSH1 0x9 MUL ADD PUSH1 0x40 MLOAD DUP1 PUSH2 0x140 ADD PUSH1 0x40 MSTORE SWAP1 DUP2 PUSH0 DUP3 ADD SLOAD DUP2 MSTORE PUSH1 0x20 ADD PUSH1 0x1 DUP3 ADD DUP1 SLOAD PUSH2 0x7BC SWAP1 PUSH2 0x3871 JUMP JUMPDEST DUP1 PUSH1 0x1F ADD PUSH1 0x20 DUP1 SWAP2 DIV MUL PUSH1 0x20 ADD PUSH1 0x40 MLOAD SWAP1 DUP2 ADD PUSH1 0x40 MSTORE DUP1 SWAP3 SWAP2 SWAP1 DUP2 DUP2 MSTORE PUSH1 0x20 ADD DUP3 DUP1 SLOAD PUSH2 0x7E8 SWAP1 PUSH2 0x3871 JUMP JUMPDEST DUP1 ISZERO PUSH2 0x833 JUMPI DUP1 PUSH1 0x1F LT PUSH2 0x80A JUMPI PUSH2 0x100 DUP1 DUP4 SLOAD DIV MUL DUP4 MSTORE SWAP2 PUSH1 0x20 ADD SWAP2 PUSH2 0x833 JUMP JUMPDEST DUP3 ADD SWAP2 SWAP1 PUSH0 MSTORE PUSH1 0x20 PUSH0 KECCAK256 SWAP1 JUMPDEST DUP2 SLOAD DUP2 MSTORE SWAP1 PUSH1 0x1 ADD SWAP1 PUSH1 0x20 ADD DUP1 DUP4 GT PUSH2 0x816 JUMPI DUP3 SWAP1 SUB PUSH1 0x1F AND DUP3 ADD SWAP2 JUMPDEST POP POP POP POP POP DUP2 MSTORE PUSH1 0x20 ADD PUSH1 0x2 DUP3 ADD DUP1 SLOAD PUSH2 0x84C SWAP1 PUSH2 0x3871 JUMP JUMPDEST DUP1 PUSH1 0x1F ADD PUSH1 0x20 DUP1 SWAP2 DIV MUL PUSH1 0x20 ADD PUSH1 0x40 MLOAD SWAP1 DUP2 ADD PUSH1 0x40 MSTORE DUP1 SWAP3 SWAP2 SWAP1 DUP2 DUP2 MSTORE PUSH1 0x20 ADD DUP3 DUP1 SLOAD PUSH2 0x878 SWAP1 PUSH2 0x3871 JUMP JUMPDEST DUP1 ISZERO PUSH2 0x8C3 JUMPI DUP1 PUSH1 0x1F LT PUSH2 0x89A JUMPI PUSH2 0x100 DUP1 DUP4 SLOAD DIV MUL DUP4 MSTORE SWAP2 PUSH1 0x20 ADD SWAP2 PUSH2 0x8C3 JUMP JUMPDEST DUP3 ADD SWAP2 SWAP1 PUSH0 MSTORE PUSH1 0x20 PUSH0 KECCAK256 SWAP1 JUMPDEST DUP2 SLOAD DUP2 MSTORE SWAP1 PUSH1 0x1 ADD SWAP1 PUSH1 0x20 ADD DUP1 DUP4 GT PUSH2 0x8A6 JUMPI DUP3 SWAP1 SUB PUSH1 0x1F AND DUP3 ADD SWAP2 JUMPDEST POP POP POP POP POP DUP2 MSTORE PUSH1 0x20 ADD PUSH1 0x3 DUP3 ADD PUSH0 SWAP1 SLOAD SWAP1 PUSH2 0x100 EXP SWAP1 DIV PUSH20 0xFFFFFFFFFFFFFFFFFFFFFFFFFFFFFFFFFFFFFFFF AND PUSH20 0xFFFFFFFFFFFFFFFFFFFFFFFFFFFFFFFFFFFFFFFF AND PUSH20 0xFFFFFFFFFFFFFFFFFFFFFFFFFFFFFFFFFFFFFFFF AND DUP2 MSTORE PUSH1 0x20 ADD PUSH1 0x4 DUP3 ADD SLOAD DUP2 MSTORE PUSH1 0x20 ADD PUSH1 0x5 DUP3 ADD SLOAD DUP2 MSTORE PUSH1 0x20 ADD PUSH1 0x6 DUP3 ADD SLOAD DUP2 MSTORE PUSH1 0x20 ADD PUSH1 0x7 DUP3 ADD SLOAD DUP2 MSTORE PUSH1 0x20 ADD PUSH1 0x8 DUP3 ADD PUSH0 SWAP1 SLOAD SWAP1 PUSH2 0x100 EXP SWAP1 DIV PUSH1 0xFF AND ISZERO ISZERO ISZERO ISZERO DUP2 MSTORE PUSH1 0x20 ADD PUSH1 0x8 DUP3 ADD PUSH1 0x1 SWAP1 SLOAD SWAP1 PUSH2 0x100 EXP SWAP1 DIV PUSH1 0xFF AND ISZERO ISZERO ISZERO ISZERO DUP2 MSTORE POP POP SWAP1 POP DUP1 PUSH1 0x80 ADD MLOAD DUP2 PUSH1 0xC0 ADD MLOAD LT PUSH2 0x9CA JUMPI PUSH1 0x40 MLOAD PUSH32 0x8C379A000000000000000000000000000000000000000000000000000000000 DUP2 MSTORE PUSH1 0x4 ADD PUSH2 0x9C1 SWAP1 PUSH2 0x3B48 JUMP JUMPDEST PUSH1 0x40 MLOAD DUP1 SWAP2 SUB SWAP1 REVERT JUMPDEST DUP1 PUSH1 0xC0 ADD MLOAD SELFBALANCE LT ISZERO PUSH2 0xA11 JUMPI PUSH1 0x40 MLOAD PUSH32 0x8C379A000000000000000000000000000000000000000000000000000000000 DUP2 MSTORE PUSH1 0x4 ADD PUSH2 0xA08 SWAP1 PUSH2 0x3BB0 JUMP JUMPDEST PUSH1 0x40 MLOAD DUP1 SWAP2 SUB SWAP1 REVERT JUMPDEST PUSH0 PUSH1 0x5 PUSH0 DUP7 PUSH20 0xFFFFFFFFFFFFFFFFFFFFFFFFFFFFFFFFFFFFFFFF AND PUSH20 0xFFFFFFFFFFFFFFFFFFFFFFFFFFFFFFFFFFFFFFFF AND DUP2 MSTORE PUSH1 0x20 ADD SWAP1 DUP2 MSTORE PUSH1 0x20 ADD PUSH0 KECCAK256 PUSH0 DUP8 DUP2 MSTORE PUSH1 0x20 ADD SWAP1 DUP2 MSTORE PUSH1 0x20 ADD PUSH0 KECCAK256 SWAP1 POP PUSH0 DUP1 DUP1 PUSH0 JUMPDEST DUP5 DUP1 SLOAD SWAP1 POP DUP2 LT ISZERO PUSH2 0xCED JUMPI PUSH0 DUP6 DUP3 DUP2 SLOAD DUP2 LT PUSH2 0xA85 JUMPI PUSH2 0xA84 PUSH2 0x398F JUMP JUMPDEST JUMPDEST SWAP1 PUSH0 MSTORE PUSH1 0x20 PUSH0 KECCAK256 SWAP1 PUSH1 0x2 MUL ADD PUSH1 0x1 ADD SLOAD SWAP1 POP PUSH0 DUP7 DUP4 DUP2 SLOAD DUP2 LT PUSH2 0xAAB JUMPI PUSH2 0xAAA PUSH2 0x398F JUMP JUMPDEST JUMPDEST SWAP1 PUSH0 MSTORE PUSH1 0x20 PUSH0 KECCAK256 SWAP1 PUSH1 0x2 MUL ADD PUSH0 ADD PUSH0 SWAP1 SLOAD SWAP1 PUSH2 0x100 EXP SWAP1 DIV PUSH20 0xFFFFFFFFFFFFFFFFFFFFFFFFFFFFFFFFFFFFFFFF AND SWAP1 POP PUSH0 DUP1 DUP13 PUSH20 0xFFFFFFFFFFFFFFFFFFFFFFFFFFFFFFFFFFFFFFFF AND PUSH20 0xFFFFFFFFFFFFFFFFFFFFFFFFFFFFFFFFFFFFFFFF AND DUP2 MSTORE PUSH1 0x20 ADD SWAP1 DUP2 MSTORE PUSH1 0x20 ADD PUSH0 KECCAK256 PUSH1 0x1 DUP14 PUSH2 0xB24 SWAP2 SWAP1 PUSH2 0x395C JUMP JUMPDEST DUP2 SLOAD DUP2 LT PUSH2 0xB35 JUMPI PUSH2 0xB34 PUSH2 0x398F JUMP JUMPDEST JUMPDEST SWAP1 PUSH0 MSTORE PUSH1 0x20 PUSH0 KECCAK256 SWAP1 PUSH1 0x9 MUL ADD PUSH1 0x6 ADD SLOAD SWAP5 POP DUP2 DUP6 PUSH2 0xB53 SWAP2 SWAP1 PUSH2 0x395C JUMP JUMPDEST SWAP4 POP DUP4 PUSH0 DUP1 DUP14 PUSH20 0xFFFFFFFFFFFFFFFFFFFFFFFFFFFFFFFFFFFFFFFF AND PUSH20 0xFFFFFFFFFFFFFFFFFFFFFFFFFFFFFFFFFFFFFFFF AND DUP2 MSTORE PUSH1 0x20 ADD SWAP1 DUP2 MSTORE PUSH1 0x20 ADD PUSH0 KECCAK256 PUSH1 0x1 DUP15 PUSH2 0xB9F SWAP2 SWAP1 PUSH2 0x395C JUMP JUMPDEST DUP2 SLOAD DUP2 LT PUSH2 0xBB0 JUMPI PUSH2 0xBAF PUSH2 0x398F JUMP JUMPDEST JUMPDEST SWAP1 PUSH0 MSTORE PUSH1 0x20 PUSH0 KECCAK256 SWAP1 PUSH1 0x9 MUL ADD PUSH1 0x6 ADD DUP2 SWAP1 SSTORE POP PUSH0 DUP8 DUP5 DUP2 SLOAD DUP2 LT PUSH2 0xBD7 JUMPI PUSH2 0xBD6 PUSH2 0x398F JUMP JUMPDEST JUMPDEST SWAP1 PUSH0 MSTORE PUSH1 0x20 PUSH0 KECCAK256 SWAP1 PUSH1 0x2 MUL ADD PUSH1 0x1 ADD DUP2 SWAP1 SSTORE POP PUSH0 DUP2 PUSH20 0xFFFFFFFFFFFFFFFFFFFFFFFFFFFFFFFFFFFFFFFF AND DUP4 PUSH1 0x40 MLOAD PUSH2 0xC0F SWAP1 PUSH2 0x3BFB JUMP JUMPDEST PUSH0 PUSH1 0x40 MLOAD DUP1 DUP4 SUB DUP2 DUP6 DUP8 GAS CALL SWAP3 POP POP POP RETURNDATASIZE DUP1 PUSH0 DUP2 EQ PUSH2 0xC49 JUMPI PUSH1 0x40 MLOAD SWAP2 POP PUSH1 0x1F NOT PUSH1 0x3F RETURNDATASIZE ADD AND DUP3 ADD PUSH1 0x40 MSTORE RETURNDATASIZE DUP3 MSTORE RETURNDATASIZE PUSH0 PUSH1 0x20 DUP5 ADD RETURNDATACOPY PUSH2 0xC4E JUMP JUMPDEST PUSH1 0x60 SWAP2 POP JUMPDEST POP POP SWAP1 POP DUP1 PUSH2 0xC92 JUMPI PUSH1 0x40 MLOAD PUSH32 0x8C379A000000000000000000000000000000000000000000000000000000000 DUP2 MSTORE PUSH1 0x4 ADD PUSH2 0xC89 SWAP1 PUSH2 0x3C59 JUMP JUMPDEST PUSH1 0x40 MLOAD DUP1 SWAP2 SUB SWAP1 REVERT JUMPDEST DUP3 DUP8 PUSH2 0xC9E SWAP2 SWAP1 PUSH2 0x3C77 JUMP JUMPDEST SWAP7 POP PUSH32 0xC7106CAA0225138E1482298FE211390F77622CB0BE261616F08271E23660553D DUP13 DUP15 DUP5 DUP7 PUSH1 0x40 MLOAD PUSH2 0xCD5 SWAP5 SWAP4 SWAP3 SWAP2 SWAP1 PUSH2 0x3CAA JUMP JUMPDEST PUSH1 0x40 MLOAD DUP1 SWAP2 SUB SWAP1 LOG1 POP POP POP DUP1 DUP1 PUSH1 0x1 ADD SWAP2 POP POP PUSH2 0xA65 JUMP JUMPDEST POP DUP3 DUP6 PUSH1 0xA0 ADD MLOAD EQ DUP1 ISZERO PUSH2 0xD69 JUMPI POP PUSH0 DUP1 PUSH0 DUP11 PUSH20 0xFFFFFFFFFFFFFFFFFFFFFFFFFFFFFFFFFFFFFFFF AND PUSH20 0xFFFFFFFFFFFFFFFFFFFFFFFFFFFFFFFFFFFFFFFF AND DUP2 MSTORE PUSH1 0x20 ADD SWAP1 DUP2 MSTORE PUSH1 0x20 ADD PUSH0 KECCAK256 PUSH1 0x1 DUP12 PUSH2 0xD46 SWAP2 SWAP1 PUSH2 0x395C JUMP JUMPDEST DUP2 SLOAD DUP2 LT PUSH2 0xD57 JUMPI PUSH2 0xD56 PUSH2 0x398F JUMP JUMPDEST JUMPDEST SWAP1 PUSH0 MSTORE PUSH1 0x20 PUSH0 KECCAK256 SWAP1 PUSH1 0x9 MUL ADD PUSH1 0x6 ADD SLOAD EQ JUMPDEST PUSH2 0xDA8 JUMPI PUSH1 0x40 MLOAD PUSH32 0x8C379A000000000000000000000000000000000000000000000000000000000 DUP2 MSTORE PUSH1 0x4 ADD PUSH2 0xD9F SWAP1 PUSH2 0x3D37 JUMP JUMPDEST PUSH1 0x40 MLOAD DUP1 SWAP2 SUB SWAP1 REVERT JUMPDEST POP POP POP POP POP POP POP POP POP JUMP JUMPDEST DUP1 DUP3 PUSH0 DUP1 PUSH0 DUP5 PUSH20 0xFFFFFFFFFFFFFFFFFFFFFFFFFFFFFFFFFFFFFFFF AND PUSH20 0xFFFFFFFFFFFFFFFFFFFFFFFFFFFFFFFFFFFFFFFF AND DUP2 MSTORE PUSH1 0x20 ADD SWAP1 DUP2 MSTORE PUSH1 0x20 ADD PUSH0 KECCAK256 DUP1 SLOAD SWAP1 POP GT PUSH2 0xE36 JUMPI PUSH1 0x40 MLOAD PUSH32 0x8C379A000000000000000000000000000000000000000000000000000000000 DUP2 MSTORE PUSH1 0x4 ADD PUSH2 0xE2D SWAP1 PUSH2 0x3911 JUMP JUMPDEST PUSH1 0x40 MLOAD DUP1 SWAP2 SUB SWAP1 REVERT JUMPDEST DUP1 PUSH0 DUP1 DUP5 PUSH20 0xFFFFFFFFFFFFFFFFFFFFFFFFFFFFFFFFFFFFFFFF AND PUSH20 0xFFFFFFFFFFFFFFFFFFFFFFFFFFFFFFFFFFFFFFFF AND DUP2 MSTORE PUSH1 0x20 ADD SWAP1 DUP2 MSTORE PUSH1 0x20 ADD PUSH0 KECCAK256 PUSH1 0x1 DUP4 PUSH2 0xE80 SWAP2 SWAP1 PUSH2 0x395C JUMP JUMPDEST DUP2 SLOAD DUP2 LT PUSH2 0xE91 JUMPI PUSH2 0xE90 PUSH2 0x398F JUMP JUMPDEST JUMPDEST SWAP1 PUSH0 MSTORE PUSH1 0x20 PUSH0 KECCAK256 SWAP1 PUSH1 0x9 MUL ADD PUSH0 ADD SLOAD EQ PUSH2 0xEE0 JUMPI PUSH1 0x40 MLOAD PUSH32 0x8C379A000000000000000000000000000000000000000000000000000000000 DUP2 MSTORE PUSH1 0x4 ADD PUSH2 0xED7 SWAP1 PUSH2 0x3A2C JUMP JUMPDEST PUSH1 0x40 MLOAD DUP1 SWAP2 SUB SWAP1 REVERT JUMPDEST PUSH1 0x1 PUSH0 DUP4 PUSH20 0xFFFFFFFFFFFFFFFFFFFFFFFFFFFFFFFFFFFFFFFF AND PUSH20 0xFFFFFFFFFFFFFFFFFFFFFFFFFFFFFFFFFFFFFFFF AND DUP2 MSTORE PUSH1 0x20 ADD SWAP1 DUP2 MSTORE PUSH1 0x20 ADD PUSH0 KECCAK256 PUSH0 CALLER PUSH20 0xFFFFFFFFFFFFFFFFFFFFFFFFFFFFFFFFFFFFFFFF AND PUSH20 0xFFFFFFFFFFFFFFFFFFFFFFFFFFFFFFFFFFFFFFFF AND DUP2 MSTORE PUSH1 0x20 ADD SWAP1 DUP2 MSTORE PUSH1 0x20 ADD PUSH0 KECCAK256 PUSH0 SWAP1 SLOAD SWAP1 PUSH2 0x100 EXP SWAP1 DIV PUSH1 0xFF AND PUSH2 0xFA4 JUMPI PUSH1 0x40 MLOAD PUSH32 0x8C379A000000000000000000000000000000000000000000000000000000000 DUP2 MSTORE PUSH1 0x4 ADD PUSH2 0xF9B SWAP1 PUSH2 0x3ABA JUMP JUMPDEST PUSH1 0x40 MLOAD DUP1 SWAP2 SUB SWAP1 REVERT JUMPDEST PUSH0 DUP1 PUSH0 DUP6 PUSH20 0xFFFFFFFFFFFFFFFFFFFFFFFFFFFFFFFFFFFFFFFF AND PUSH20 0xFFFFFFFFFFFFFFFFFFFFFFFFFFFFFFFFFFFFFFFF AND DUP2 MSTORE PUSH1 0x20 ADD SWAP1 DUP2 MSTORE PUSH1 0x20 ADD PUSH0 KECCAK256 PUSH1 0x1 DUP7 PUSH2 0xFEE SWAP2 SWAP1 PUSH2 0x395C JUMP JUMPDEST DUP2 SLOAD DUP2 LT PUSH2 0xFFF JUMPI PUSH2 0xFFE PUSH2 0x398F JUMP JUMPDEST JUMPDEST SWAP1 PUSH0 MSTORE PUSH1 0x20 PUSH0 KECCAK256 SWAP1 PUSH1 0x9 MUL ADD PUSH1 0x40 MLOAD DUP1 PUSH2 0x140 ADD PUSH1 0x40 MSTORE SWAP1 DUP2 PUSH0 DUP3 ADD SLOAD DUP2 MSTORE PUSH1 0x20 ADD PUSH1 0x1 DUP3 ADD DUP1 SLOAD PUSH2 0x1030 SWAP1 PUSH2 0x3871 JUMP JUMPDEST DUP1 PUSH1 0x1F ADD PUSH1 0x20 DUP1 SWAP2 DIV MUL PUSH1 0x20 ADD PUSH1 0x40 MLOAD SWAP1 DUP2 ADD PUSH1 0x40 MSTORE DUP1 SWAP3 SWAP2 SWAP1 DUP2 DUP2 MSTORE PUSH1 0x20 ADD DUP3 DUP1 SLOAD PUSH2 0x105C SWAP1 PUSH2 0x3871 JUMP JUMPDEST DUP1 ISZERO PUSH2 0x10A7 JUMPI DUP1 PUSH1 0x1F LT PUSH2 0x107E JUMPI PUSH2 0x100 DUP1 DUP4 SLOAD DIV MUL DUP4 MSTORE SWAP2 PUSH1 0x20 ADD SWAP2 PUSH2 0x10A7 JUMP JUMPDEST DUP3 ADD SWAP2 SWAP1 PUSH0 MSTORE PUSH1 0x20 PUSH0 KECCAK256 SWAP1 JUMPDEST DUP2 SLOAD DUP2 MSTORE SWAP1 PUSH1 0x1 ADD SWAP1 PUSH1 0x20 ADD DUP1 DUP4 GT PUSH2 0x108A JUMPI DUP3 SWAP1 SUB PUSH1 0x1F AND DUP3 ADD SWAP2 JUMPDEST POP POP POP POP POP DUP2 MSTORE PUSH1 0x20 ADD PUSH1 0x2 DUP3 ADD DUP1 SLOAD PUSH2 0x10C0 SWAP1 PUSH2 0x3871 JUMP JUMPDEST DUP1 PUSH1 0x1F ADD PUSH1 0x20 DUP1 SWAP2 DIV MUL PUSH1 0x20 ADD PUSH1 0x40 MLOAD SWAP1 DUP2 ADD PUSH1 0x40 MSTORE DUP1 SWAP3 SWAP2 SWAP1 DUP2 DUP2 MSTORE PUSH1 0x20 ADD DUP3 DUP1 SLOAD PUSH2 0x10EC SWAP1 PUSH2 0x3871 JUMP JUMPDEST DUP1 ISZERO PUSH2 0x1137 JUMPI DUP1 PUSH1 0x1F LT PUSH2 0x110E JUMPI PUSH2 0x100 DUP1 DUP4 SLOAD DIV MUL DUP4 MSTORE SWAP2 PUSH1 0x20 ADD SWAP2 PUSH2 0x1137 JUMP JUMPDEST DUP3 ADD SWAP2 SWAP1 PUSH0 MSTORE PUSH1 0x20 PUSH0 KECCAK256 SWAP1 JUMPDEST DUP2 SLOAD DUP2 MSTORE SWAP1 PUSH1 0x1 ADD SWAP1 PUSH1 0x20 ADD DUP1 DUP4 GT PUSH2 0x111A JUMPI DUP3 SWAP1 SUB PUSH1 0x1F AND DUP3 ADD SWAP2 JUMPDEST POP POP POP POP POP DUP2 MSTORE PUSH1 0x20 ADD PUSH1 0x3 DUP3 ADD PUSH0 SWAP1 SLOAD SWAP1 PUSH2 0x100 EXP SWAP1 DIV PUSH20 0xFFFFFFFFFFFFFFFFFFFFFFFFFFFFFFFFFFFFFFFF AND PUSH20 0xFFFFFFFFFFFFFFFFFFFFFFFFFFFFFFFFFFFFFFFF AND PUSH20 0xFFFFFFFFFFFFFFFFFFFFFFFFFFFFFFFFFFFFFFFF AND DUP2 MSTORE PUSH1 0x20 ADD PUSH1 0x4 DUP3 ADD SLOAD DUP2 MSTORE PUSH1 0x20 ADD PUSH1 0x5 DUP3 ADD SLOAD DUP2 MSTORE PUSH1 0x20 ADD PUSH1 0x6 DUP3 ADD SLOAD DUP2 MSTORE PUSH1 0x20 ADD PUSH1 0x7 DUP3 ADD SLOAD DUP2 MSTORE PUSH1 0x20 ADD PUSH1 0x8 DUP3 ADD PUSH0 SWAP1 SLOAD SWAP1 PUSH2 0x100 EXP SWAP1 DIV PUSH1 0xFF AND ISZERO ISZERO ISZERO ISZERO DUP2 MSTORE PUSH1 0x20 ADD PUSH1 0x8 DUP3 ADD PUSH1 0x1 SWAP1 SLOAD SWAP1 PUSH2 0x100 EXP SWAP1 DIV PUSH1 0xFF AND ISZERO ISZERO ISZERO ISZERO DUP2 MSTORE POP POP SWAP1 POP PUSH0 DUP2 PUSH1 0xC0 ADD MLOAD EQ PUSH2 0x123A JUMPI PUSH1 0x40 MLOAD PUSH32 0x8C379A000000000000000000000000000000000000000000000000000000000 DUP2 MSTORE PUSH1 0x4 ADD PUSH2 0x1231 SWAP1 PUSH2 0x3DEB JUMP JUMPDEST PUSH1 0x40 MLOAD DUP1 SWAP2 SUB SWAP1 REVERT JUMPDEST DUP1 PUSH2 0x100 ADD MLOAD ISZERO PUSH2 0x1280 JUMPI PUSH1 0x40 MLOAD PUSH32 0x8C379A000000000000000000000000000000000000000000000000000000000 DUP2 MSTORE PUSH1 0x4 ADD PUSH2 0x1277 SWAP1 PUSH2 0x3E79 JUMP JUMPDEST PUSH1 0x40 MLOAD DUP1 SWAP2 SUB SWAP1 REVERT JUMPDEST PUSH1 0x1 PUSH0 DUP1 DUP7 PUSH20 0xFFFFFFFFFFFFFFFFFFFFFFFFFFFFFFFFFFFFFFFF AND PUSH20 0xFFFFFFFFFFFFFFFFFFFFFFFFFFFFFFFFFFFFFFFF AND DUP2 MSTORE PUSH1 0x20 ADD SWAP1 DUP2 MSTORE PUSH1 0x20 ADD PUSH0 KECCAK256 PUSH1 0x1 DUP8 PUSH2 0x12CB SWAP2 SWAP1 PUSH2 0x395C JUMP JUMPDEST DUP2 SLOAD DUP2 LT PUSH2 0x12DC JUMPI PUSH2 0x12DB PUSH2 0x398F JUMP JUMPDEST JUMPDEST SWAP1 PUSH0 MSTORE PUSH1 0x20 PUSH0 KECCAK256 SWAP1 PUSH1 0x9 MUL ADD PUSH1 0x8 ADD PUSH1 0x1 PUSH2 0x100 EXP DUP2 SLOAD DUP2 PUSH1 0xFF MUL NOT AND SWAP1 DUP4 ISZERO ISZERO MUL OR SWAP1 SSTORE POP PUSH32 0xDDF13B23F5AA44ED82E83C974BB182744638F745E4BCF56AC5343BC41A67AD55 DUP5 DUP7 PUSH1 0x40 MLOAD PUSH2 0x1333 SWAP3 SWAP2 SWAP1 PUSH2 0x381D JUMP JUMPDEST PUSH1 0x40 MLOAD DUP1 SWAP2 SUB SWAP1 LOG1 POP POP POP POP POP JUMP JUMPDEST PUSH1 0x4 PUSH1 0x20 MSTORE DUP2 PUSH0 MSTORE PUSH1 0x40 PUSH0 KECCAK256 DUP2 DUP2 SLOAD DUP2 LT PUSH2 0x135B JUMPI PUSH0 DUP1 REVERT JUMPDEST SWAP1 PUSH0 MSTORE PUSH1 0x20 PUSH0 KECCAK256 SWAP1 PUSH1 0x5 MUL ADD PUSH0 SWAP2 POP SWAP2 POP POP DUP1 PUSH0 ADD SLOAD SWAP1 DUP1 PUSH1 0x1 ADD DUP1 SLOAD PUSH2 0x1381 SWAP1 PUSH2 0x3871 JUMP JUMPDEST DUP1 PUSH1 0x1F ADD PUSH1 0x20 DUP1 SWAP2 DIV MUL PUSH1 0x20 ADD PUSH1 0x40 MLOAD SWAP1 DUP2 ADD PUSH1 0x40 MSTORE DUP1 SWAP3 SWAP2 SWAP1 DUP2 DUP2 MSTORE PUSH1 0x20 ADD DUP3 DUP1 SLOAD PUSH2 0x13AD SWAP1 PUSH2 0x3871 JUMP JUMPDEST DUP1 ISZERO PUSH2 0x13F8 JUMPI DUP1 PUSH1 0x1F LT PUSH2 0x13CF JUMPI PUSH2 0x100 DUP1 DUP4 SLOAD DIV MUL DUP4 MSTORE SWAP2 PUSH1 0x20 ADD SWAP2 PUSH2 0x13F8 JUMP JUMPDEST DUP3 ADD SWAP2 SWAP1 PUSH0 MSTORE PUSH1 0x20 PUSH0 KECCAK256 SWAP1 JUMPDEST DUP2 SLOAD DUP2 MSTORE SWAP1 PUSH1 0x1 ADD SWAP1 PUSH1 0x20 ADD DUP1 DUP4 GT PUSH2 0x13DB JUMPI DUP3 SWAP1 SUB PUSH1 0x1F AND DUP3 ADD SWAP2 JUMPDEST POP POP POP POP POP SWAP1 DUP1 PUSH1 0x2 ADD SLOAD SWAP1 DUP1 PUSH1 0x3 ADD PUSH0 SWAP1 SLOAD SWAP1 PUSH2 0x100 EXP SWAP1 DIV PUSH20 0xFFFFFFFFFFFFFFFFFFFFFFFFFFFFFFFFFFFFFFFF AND SWAP1 DUP1 PUSH1 0x4 ADD PUSH0 SWAP1 SLOAD SWAP1 PUSH2 0x100 EXP SWAP1 DIV PUSH20 0xFFFFFFFFFFFFFFFFFFFFFFFFFFFFFFFFFFFFFFFF AND SWAP1 POP DUP6 JUMP JUMPDEST DUP2 PUSH0 DUP1 DUP6 PUSH20 0xFFFFFFFFFFFFFFFFFFFFFFFFFFFFFFFFFFFFFFFF AND PUSH20 0xFFFFFFFFFFFFFFFFFFFFFFFFFFFFFFFFFFFFFFFF AND DUP2 MSTORE PUSH1 0x20 ADD SWAP1 DUP2 MSTORE PUSH1 0x20 ADD PUSH0 KECCAK256 PUSH1 0x1 DUP5 PUSH2 0x149C SWAP2 SWAP1 PUSH2 0x395C JUMP JUMPDEST DUP2 SLOAD DUP2 LT PUSH2 0x14AD JUMPI PUSH2 0x14AC PUSH2 0x398F JUMP JUMPDEST JUMPDEST SWAP1 PUSH0 MSTORE PUSH1 0x20 PUSH0 KECCAK256 SWAP1 PUSH1 0x9 MUL ADD PUSH0 ADD SLOAD EQ DUP3 PUSH1 0x40 MLOAD PUSH1 0x20 ADD PUSH2 0x14CE SWAP2 SWAP1 PUSH2 0x3F55 JUMP JUMPDEST PUSH1 0x40 MLOAD PUSH1 0x20 DUP2 DUP4 SUB SUB DUP2 MSTORE SWAP1 PUSH1 0x40 MSTORE SWAP1 PUSH2 0x151E JUMPI PUSH1 0x40 MLOAD PUSH32 0x8C379A000000000000000000000000000000000000000000000000000000000 DUP2 MSTORE PUSH1 0x4 ADD PUSH2 0x1515 SWAP2 SWAP1 PUSH2 0x3F85 JUMP JUMPDEST PUSH1 0x40 MLOAD DUP1 SWAP2 SUB SWAP1 REVERT JUMPDEST POP PUSH0 DUP1 DUP5 PUSH20 0xFFFFFFFFFFFFFFFFFFFFFFFFFFFFFFFFFFFFFFFF AND PUSH20 0xFFFFFFFFFFFFFFFFFFFFFFFFFFFFFFFFFFFFFFFF AND DUP2 MSTORE PUSH1 0x20 ADD SWAP1 DUP2 MSTORE PUSH1 0x20 ADD PUSH0 KECCAK256 PUSH1 0x1 DUP4 PUSH2 0x1568 SWAP2 SWAP1 PUSH2 0x395C JUMP JUMPDEST DUP2 SLOAD DUP2 LT PUSH2 0x1579 JUMPI PUSH2 0x1578 PUSH2 0x398F JUMP JUMPDEST JUMPDEST SWAP1 PUSH0 MSTORE PUSH1 0x20 PUSH0 KECCAK256 SWAP1 PUSH1 0x9 MUL ADD PUSH1 0x7 ADD SLOAD TIMESTAMP LT PUSH2 0x15CA JUMPI PUSH1 0x40 MLOAD PUSH32 0x8C379A000000000000000000000000000000000000000000000000000000000 DUP2 MSTORE PUSH1 0x4 ADD PUSH2 0x15C1 SWAP1 PUSH2 0x4015 JUMP JUMPDEST PUSH1 0x40 MLOAD DUP1 SWAP2 SUB SWAP1 REVERT JUMPDEST PUSH0 DUP1 DUP5 PUSH20 0xFFFFFFFFFFFFFFFFFFFFFFFFFFFFFFFFFFFFFFFF AND PUSH20 0xFFFFFFFFFFFFFFFFFFFFFFFFFFFFFFFFFFFFFFFF AND DUP2 MSTORE PUSH1 0x20 ADD SWAP1 DUP2 MSTORE PUSH1 0x20 ADD PUSH0 KECCAK256 PUSH1 0x1 DUP4 PUSH2 0x1613 SWAP2 SWAP1 PUSH2 0x395C JUMP JUMPDEST DUP2 SLOAD DUP2 LT PUSH2 0x1624 JUMPI PUSH2 0x1623 PUSH2 0x398F JUMP JUMPDEST JUMPDEST SWAP1 PUSH0 MSTORE PUSH1 0x20 PUSH0 KECCAK256 SWAP1 PUSH1 0x9 MUL ADD PUSH1 0x8 ADD PUSH1 0x1 SWAP1 SLOAD SWAP1 PUSH2 0x100 EXP SWAP1 DIV PUSH1 0xFF AND ISZERO PUSH0 DUP1 DUP6 PUSH20 0xFFFFFFFFFFFFFFFFFFFFFFFFFFFFFFFFFFFFFFFF AND PUSH20 0xFFFFFFFFFFFFFFFFFFFFFFFFFFFFFFFFFFFFFFFF AND DUP2 MSTORE PUSH1 0x20 ADD SWAP1 DUP2 MSTORE PUSH1 0x20 ADD PUSH0 KECCAK256 PUSH1 0x1 DUP5 PUSH2 0x168B SWAP2 SWAP1 PUSH2 0x395C JUMP JUMPDEST DUP2 SLOAD DUP2 LT PUSH2 0x169C JUMPI PUSH2 0x169B PUSH2 0x398F JUMP JUMPDEST JUMPDEST SWAP1 PUSH0 MSTORE PUSH1 0x20 PUSH0 KECCAK256 SWAP1 PUSH1 0x9 MUL ADD PUSH1 0x1 ADD PUSH1 0x40 MLOAD PUSH1 0x20 ADD PUSH2 0x16BB SWAP2 SWAP1 PUSH2 0x4159 JUMP JUMPDEST PUSH1 0x40 MLOAD PUSH1 0x20 DUP2 DUP4 SUB SUB DUP2 MSTORE SWAP1 PUSH1 0x40 MSTORE SWAP1 PUSH2 0x170B JUMPI PUSH1 0x40 MLOAD PUSH32 0x8C379A000000000000000000000000000000000000000000000000000000000 DUP2 MSTORE PUSH1 0x4 ADD PUSH2 0x1702 SWAP2 SWAP1 PUSH2 0x3F85 JUMP JUMPDEST PUSH1 0x40 MLOAD DUP1 SWAP2 SUB SWAP1 REVERT JUMPDEST POP PUSH0 DUP1 DUP5 PUSH20 0xFFFFFFFFFFFFFFFFFFFFFFFFFFFFFFFFFFFFFFFF AND PUSH20 0xFFFFFFFFFFFFFFFFFFFFFFFFFFFFFFFFFFFFFFFF AND DUP2 MSTORE PUSH1 0x20 ADD SWAP1 DUP2 MSTORE PUSH1 0x20 ADD PUSH0 KECCAK256 PUSH1 0x1 DUP4 PUSH2 0x1755 SWAP2 SWAP1 PUSH2 0x395C JUMP JUMPDEST DUP2 SLOAD DUP2 LT PUSH2 0x1766 JUMPI PUSH2 0x1765 PUSH2 0x398F JUMP JUMPDEST JUMPDEST SWAP1 PUSH0 MSTORE PUSH1 0x20 PUSH0 KECCAK256 SWAP1 PUSH1 0x9 MUL ADD PUSH1 0x8 ADD PUSH0 SWAP1 SLOAD SWAP1 PUSH2 0x100 EXP SWAP1 DIV PUSH1 0xFF AND ISZERO PUSH0 DUP1 DUP6 PUSH20 0xFFFFFFFFFFFFFFFFFFFFFFFFFFFFFFFFFFFFFFFF AND PUSH20 0xFFFFFFFFFFFFFFFFFFFFFFFFFFFFFFFFFFFFFFFF AND DUP2 MSTORE PUSH1 0x20 ADD SWAP1 DUP2 MSTORE PUSH1 0x20 ADD PUSH0 KECCAK256 PUSH1 0x1 DUP5 PUSH2 0x17CC SWAP2 SWAP1 PUSH2 0x395C JUMP JUMPDEST DUP2 SLOAD DUP2 LT PUSH2 0x17DD JUMPI PUSH2 0x17DC PUSH2 0x398F JUMP JUMPDEST JUMPDEST SWAP1 PUSH0 MSTORE PUSH1 0x20 PUSH0 KECCAK256 SWAP1 PUSH1 0x9 MUL ADD PUSH1 0x1 ADD PUSH1 0x40 MLOAD PUSH1 0x20 ADD PUSH2 0x17FC SWAP2 SWAP1 PUSH2 0x41CF JUMP JUMPDEST PUSH1 0x40 MLOAD PUSH1 0x20 DUP2 DUP4 SUB SUB DUP2 MSTORE SWAP1 PUSH1 0x40 MSTORE SWAP1 PUSH2 0x184C JUMPI PUSH1 0x40 MLOAD PUSH32 0x8C379A000000000000000000000000000000000000000000000000000000000 DUP2 MSTORE PUSH1 0x4 ADD PUSH2 0x1843 SWAP2 SWAP1 PUSH2 0x3F85 JUMP JUMPDEST PUSH1 0x40 MLOAD DUP1 SWAP2 SUB SWAP1 REVERT JUMPDEST POP PUSH0 DUP2 GT PUSH2 0x188F JUMPI PUSH1 0x40 MLOAD PUSH32 0x8C379A000000000000000000000000000000000000000000000000000000000 DUP2 MSTORE PUSH1 0x4 ADD PUSH2 0x1886 SWAP1 PUSH2 0x4245 JUMP JUMPDEST PUSH1 0x40 MLOAD DUP1 SWAP2 SUB SWAP1 REVERT JUMPDEST DUP1 CALLVALUE EQ PUSH2 0x18D1 JUMPI PUSH1 0x40 MLOAD PUSH32 0x8C379A000000000000000000000000000000000000000000000000000000000 DUP2 MSTORE PUSH1 0x4 ADD PUSH2 0x18C8 SWAP1 PUSH2 0x42D3 JUMP JUMPDEST PUSH1 0x40 MLOAD DUP1 SWAP2 SUB SWAP1 REVERT JUMPDEST DUP1 PUSH0 DUP1 DUP6 PUSH20 0xFFFFFFFFFFFFFFFFFFFFFFFFFFFFFFFFFFFFFFFF AND PUSH20 0xFFFFFFFFFFFFFFFFFFFFFFFFFFFFFFFFFFFFFFFF AND DUP2 MSTORE PUSH1 0x20 ADD SWAP1 DUP2 MSTORE PUSH1 0x20 ADD PUSH0 KECCAK256 PUSH1 0x1 DUP5 PUSH2 0x191B SWAP2 SWAP1 PUSH2 0x395C JUMP JUMPDEST DUP2 SLOAD DUP2 LT PUSH2 0x192C JUMPI PUSH2 0x192B PUSH2 0x398F JUMP JUMPDEST JUMPDEST SWAP1 PUSH0 MSTORE PUSH1 0x20 PUSH0 KECCAK256 SWAP1 PUSH1 0x9 MUL ADD PUSH1 0x5 ADD PUSH0 DUP3 DUP3 SLOAD PUSH2 0x1949 SWAP2 SWAP1 PUSH2 0x3C77 JUMP JUMPDEST SWAP3 POP POP DUP2 SWAP1 SSTORE POP DUP1 PUSH0 DUP1 DUP6 PUSH20 0xFFFFFFFFFFFFFFFFFFFFFFFFFFFFFFFFFFFFFFFF AND PUSH20 0xFFFFFFFFFFFFFFFFFFFFFFFFFFFFFFFFFFFFFFFF AND DUP2 MSTORE PUSH1 0x20 ADD SWAP1 DUP2 MSTORE PUSH1 0x20 ADD PUSH0 KECCAK256 PUSH1 0x1 DUP5 PUSH2 0x199A SWAP2 SWAP1 PUSH2 0x395C JUMP JUMPDEST DUP2 SLOAD DUP2 LT PUSH2 0x19AB JUMPI PUSH2 0x19AA PUSH2 0x398F JUMP JUMPDEST JUMPDEST SWAP1 PUSH0 MSTORE PUSH1 0x20 PUSH0 KECCAK256 SWAP1 PUSH1 0x9 MUL ADD PUSH1 0x6 ADD PUSH0 DUP3 DUP3 SLOAD PUSH2 0x19C8 SWAP2 SWAP1 PUSH2 0x3C77 JUMP JUMPDEST SWAP3 POP POP DUP2 SWAP1 SSTORE POP PUSH0 DUP1 DUP5 PUSH20 0xFFFFFFFFFFFFFFFFFFFFFFFFFFFFFFFFFFFFFFFF AND PUSH20 0xFFFFFFFFFFFFFFFFFFFFFFFFFFFFFFFFFFFFFFFF AND DUP2 MSTORE PUSH1 0x20 ADD SWAP1 DUP2 MSTORE PUSH1 0x20 ADD PUSH0 KECCAK256 PUSH1 0x1 DUP4 PUSH2 0x1A18 SWAP2 SWAP1 PUSH2 0x395C JUMP JUMPDEST DUP2 SLOAD DUP2 LT PUSH2 0x1A29 JUMPI PUSH2 0x1A28 PUSH2 0x398F JUMP JUMPDEST JUMPDEST SWAP1 PUSH0 MSTORE PUSH1 0x20 PUSH0 KECCAK256 SWAP1 PUSH1 0x9 MUL ADD PUSH1 0x4 ADD SLOAD PUSH0 DUP1 DUP6 PUSH20 0xFFFFFFFFFFFFFFFFFFFFFFFFFFFFFFFFFFFFFFFF AND PUSH20 0xFFFFFFFFFFFFFFFFFFFFFFFFFFFFFFFFFFFFFFFF AND DUP2 MSTORE PUSH1 0x20 ADD SWAP1 DUP2 MSTORE PUSH1 0x20 ADD PUSH0 KECCAK256 PUSH1 0x1 DUP5 PUSH2 0x1A82 SWAP2 SWAP1 PUSH2 0x395C JUMP JUMPDEST DUP2 SLOAD DUP2 LT PUSH2 0x1A93 JUMPI PUSH2 0x1A92 PUSH2 0x398F JUMP JUMPDEST JUMPDEST SWAP1 PUSH0 MSTORE PUSH1 0x20 PUSH0 KECCAK256 SWAP1 PUSH1 0x9 MUL ADD PUSH1 0x5 ADD SLOAD LT PUSH2 0x1B63 JUMPI PUSH1 0x1 PUSH0 DUP1 DUP6 PUSH20 0xFFFFFFFFFFFFFFFFFFFFFFFFFFFFFFFFFFFFFFFF AND PUSH20 0xFFFFFFFFFFFFFFFFFFFFFFFFFFFFFFFFFFFFFFFF AND DUP2 MSTORE PUSH1 0x20 ADD SWAP1 DUP2 MSTORE PUSH1 0x20 ADD PUSH0 KECCAK256 PUSH1 0x1 DUP5 PUSH2 0x1AF3 SWAP2 SWAP1 PUSH2 0x395C JUMP JUMPDEST DUP2 SLOAD DUP2 LT PUSH2 0x1B04 JUMPI PUSH2 0x1B03 PUSH2 0x398F JUMP JUMPDEST JUMPDEST SWAP1 PUSH0 MSTORE PUSH1 0x20 PUSH0 KECCAK256 SWAP1 PUSH1 0x9 MUL ADD PUSH1 0x8 ADD PUSH0 PUSH2 0x100 EXP DUP2 SLOAD DUP2 PUSH1 0xFF MUL NOT AND SWAP1 DUP4 ISZERO ISZERO MUL OR SWAP1 SSTORE POP PUSH32 0x8559B4DC0428EF20B1A5974FFF4845E3163BFBEC589128D75C7DA62148FBD8AE DUP4 DUP4 PUSH1 0x40 MLOAD PUSH2 0x1B5A SWAP3 SWAP2 SWAP1 PUSH2 0x434C JUMP JUMPDEST PUSH1 0x40 MLOAD DUP1 SWAP2 SUB SWAP1 LOG1 JUMPDEST PUSH0 PUSH1 0x40 MLOAD DUP1 PUSH1 0x80 ADD PUSH1 0x40 MSTORE DUP1 DUP6 PUSH20 0xFFFFFFFFFFFFFFFFFFFFFFFFFFFFFFFFFFFFFFFF AND DUP2 MSTORE PUSH1 0x20 ADD DUP5 DUP2 MSTORE PUSH1 0x20 ADD PUSH0 DUP1 DUP8 PUSH20 0xFFFFFFFFFFFFFFFFFFFFFFFFFFFFFFFFFFFFFFFF AND PUSH20 0xFFFFFFFFFFFFFFFFFFFFFFFFFFFFFFFFFFFFFFFF AND DUP2 MSTORE PUSH1 0x20 ADD SWAP1 DUP2 MSTORE PUSH1 0x20 ADD PUSH0 KECCAK256 PUSH1 0x1 DUP7 PUSH2 0x1BDA SWAP2 SWAP1 PUSH2 0x395C JUMP JUMPDEST DUP2 SLOAD DUP2 LT PUSH2 0x1BEB JUMPI PUSH2 0x1BEA PUSH2 0x398F JUMP JUMPDEST JUMPDEST SWAP1 PUSH0 MSTORE PUSH1 0x20 PUSH0 KECCAK256 SWAP1 PUSH1 0x9 MUL ADD PUSH1 0x1 ADD DUP1 SLOAD PUSH2 0x1C05 SWAP1 PUSH2 0x3871 JUMP JUMPDEST DUP1 PUSH1 0x1F ADD PUSH1 0x20 DUP1 SWAP2 DIV MUL PUSH1 0x20 ADD PUSH1 0x40 MLOAD SWAP1 DUP2 ADD PUSH1 0x40 MSTORE DUP1 SWAP3 SWAP2 SWAP1 DUP2 DUP2 MSTORE PUSH1 0x20 ADD DUP3 DUP1 SLOAD PUSH2 0x1C31 SWAP1 PUSH2 0x3871 JUMP JUMPDEST DUP1 ISZERO PUSH2 0x1C7C JUMPI DUP1 PUSH1 0x1F LT PUSH2 0x1C53 JUMPI PUSH2 0x100 DUP1 DUP4 SLOAD DIV MUL DUP4 MSTORE SWAP2 PUSH1 0x20 ADD SWAP2 PUSH2 0x1C7C JUMP JUMPDEST DUP3 ADD SWAP2 SWAP1 PUSH0 MSTORE PUSH1 0x20 PUSH0 KECCAK256 SWAP1 JUMPDEST DUP2 SLOAD DUP2 MSTORE SWAP1 PUSH1 0x1 ADD SWAP1 PUSH1 0x20 ADD DUP1 DUP4 GT PUSH2 0x1C5F JUMPI DUP3 SWAP1 SUB PUSH1 0x1F AND DUP3 ADD SWAP2 JUMPDEST POP POP POP POP POP DUP2 MSTORE PUSH1 0x20 ADD DUP4 DUP2 MSTORE POP SWAP1 POP PUSH1 0x3 PUSH0 CALLER PUSH20 0xFFFFFFFFFFFFFFFFFFFFFFFFFFFFFFFFFFFFFFFF AND PUSH20 0xFFFFFFFFFFFFFFFFFFFFFFFFFFFFFFFFFFFFFFFF AND DUP2 MSTORE PUSH1 0x20 ADD SWAP1 DUP2 MSTORE PUSH1 0x20 ADD PUSH0 KECCAK256 DUP2 SWAP1 DUP1 PUSH1 0x1 DUP2 SLOAD ADD DUP1 DUP3 SSTORE DUP1 SWAP2 POP POP PUSH1 0x1 SWAP1 SUB SWAP1 PUSH0 MSTORE PUSH1 0x20 PUSH0 KECCAK256 SWAP1 PUSH1 0x4 MUL ADD PUSH0 SWAP1 SWAP2 SWAP1 SWAP2 SWAP1 SWAP2 POP PUSH0 DUP3 ADD MLOAD DUP2 PUSH0 ADD PUSH0 PUSH2 0x100 EXP DUP2 SLOAD DUP2 PUSH20 0xFFFFFFFFFFFFFFFFFFFFFFFFFFFFFFFFFFFFFFFF MUL NOT AND SWAP1 DUP4 PUSH20 0xFFFFFFFFFFFFFFFFFFFFFFFFFFFFFFFFFFFFFFFF AND MUL OR SWAP1 SSTORE POP PUSH1 0x20 DUP3 ADD MLOAD DUP2 PUSH1 0x1 ADD SSTORE PUSH1 0x40 DUP3 ADD MLOAD DUP2 PUSH1 0x2 ADD SWAP1 DUP2 PUSH2 0x1D53 SWAP2 SWAP1 PUSH2 0x44F5 JUMP JUMPDEST POP PUSH1 0x60 DUP3 ADD MLOAD DUP2 PUSH1 0x3 ADD SSTORE POP POP PUSH0 PUSH1 0x40 MLOAD DUP1 PUSH1 0x40 ADD PUSH1 0x40 MSTORE DUP1 CALLER PUSH20 0xFFFFFFFFFFFFFFFFFFFFFFFFFFFFFFFFFFFFFFFF AND DUP2 MSTORE PUSH1 0x20 ADD DUP5 DUP2 MSTORE POP SWAP1 POP PUSH1 0x5 PUSH0 DUP7 PUSH20 0xFFFFFFFFFFFFFFFFFFFFFFFFFFFFFFFFFFFFFFFF AND PUSH20 0xFFFFFFFFFFFFFFFFFFFFFFFFFFFFFFFFFFFFFFFF AND DUP2 MSTORE PUSH1 0x20 ADD SWAP1 DUP2 MSTORE PUSH1 0x20 ADD PUSH0 KECCAK256 PUSH0 DUP6 DUP2 MSTORE PUSH1 0x20 ADD SWAP1 DUP2 MSTORE PUSH1 0x20 ADD PUSH0 KECCAK256 DUP2 SWAP1 DUP1 PUSH1 0x1 DUP2 SLOAD ADD DUP1 DUP3 SSTORE DUP1 SWAP2 POP POP PUSH1 0x1 SWAP1 SUB SWAP1 PUSH0 MSTORE PUSH1 0x20 PUSH0 KECCAK256 SWAP1 PUSH1 0x2 MUL ADD PUSH0 SWAP1 SWAP2 SWAP1 SWAP2 SWAP1 SWAP2 POP PUSH0 DUP3 ADD MLOAD DUP2 PUSH0 ADD PUSH0 PUSH2 0x100 EXP DUP2 SLOAD DUP2 PUSH20 0xFFFFFFFFFFFFFFFFFFFFFFFFFFFFFFFFFFFFFFFF MUL NOT AND SWAP1 DUP4 PUSH20 0xFFFFFFFFFFFFFFFFFFFFFFFFFFFFFFFFFFFFFFFF AND MUL OR SWAP1 SSTORE POP PUSH1 0x20 DUP3 ADD MLOAD DUP2 PUSH1 0x1 ADD SSTORE POP POP PUSH32 0xBE0281DCB233D52D4D243D0D6FF4ED47E8641AECF85B98611ADE1C9307186B7D CALLER DUP5 DUP8 DUP8 PUSH1 0x40 MLOAD PUSH2 0x1E86 SWAP5 SWAP4 SWAP3 SWAP2 SWAP1 PUSH2 0x45C4 JUMP JUMPDEST PUSH1 0x40 MLOAD DUP1 SWAP2 SUB SWAP1 LOG1 POP POP POP POP POP JUMP JUMPDEST PUSH1 0x3 PUSH1 0x20 MSTORE DUP2 PUSH0 MSTORE PUSH1 0x40 PUSH0 KECCAK256 DUP2 DUP2 SLOAD DUP2 LT PUSH2 0x1EAE JUMPI PUSH0 DUP1 REVERT JUMPDEST SWAP1 PUSH0 MSTORE PUSH1 0x20 PUSH0 KECCAK256 SWAP1 PUSH1 0x4 MUL ADD PUSH0 SWAP2 POP SWAP2 POP POP DUP1 PUSH0 ADD PUSH0 SWAP1 SLOAD SWAP1 PUSH2 0x100 EXP SWAP1 DIV PUSH20 0xFFFFFFFFFFFFFFFFFFFFFFFFFFFFFFFFFFFFFFFF AND SWAP1 DUP1 PUSH1 0x1 ADD SLOAD SWAP1 DUP1 PUSH1 0x2 ADD DUP1 SLOAD PUSH2 0x1EF9 SWAP1 PUSH2 0x3871 JUMP JUMPDEST DUP1 PUSH1 0x1F ADD PUSH1 0x20 DUP1 SWAP2 DIV MUL PUSH1 0x20 ADD PUSH1 0x40 MLOAD SWAP1 DUP2 ADD PUSH1 0x40 MSTORE DUP1 SWAP3 SWAP2 SWAP1 DUP2 DUP2 MSTORE PUSH1 0x20 ADD DUP3 DUP1 SLOAD PUSH2 0x1F25 SWAP1 PUSH2 0x3871 JUMP JUMPDEST DUP1 ISZERO PUSH2 0x1F70 JUMPI DUP1 PUSH1 0x1F LT PUSH2 0x1F47 JUMPI PUSH2 0x100 DUP1 DUP4 SLOAD DIV MUL DUP4 MSTORE SWAP2 PUSH1 0x20 ADD SWAP2 PUSH2 0x1F70 JUMP JUMPDEST DUP3 ADD SWAP2 SWAP1 PUSH0 MSTORE PUSH1 0x20 PUSH0 KECCAK256 SWAP1 JUMPDEST DUP2 SLOAD DUP2 MSTORE SWAP1 PUSH1 0x1 ADD SWAP1 PUSH1 0x20 ADD DUP1 DUP4 GT PUSH2 0x1F53 JUMPI DUP3 SWAP1 SUB PUSH1 0x1F AND DUP3 ADD SWAP2 JUMPDEST POP POP POP POP POP SWAP1 DUP1 PUSH1 0x3 ADD SLOAD SWAP1 POP DUP5 JUMP JUMPDEST PUSH0 JUMPDEST PUSH0 DUP1 CALLER PUSH20 0xFFFFFFFFFFFFFFFFFFFFFFFFFFFFFFFFFFFFFFFF AND PUSH20 0xFFFFFFFFFFFFFFFFFFFFFFFFFFFFFFFFFFFFFFFF AND DUP2 MSTORE PUSH1 0x20 ADD SWAP1 DUP2 MSTORE PUSH1 0x20 ADD PUSH0 KECCAK256 DUP1 SLOAD SWAP1 POP DUP2 LT ISZERO PUSH2 0x20EC JUMPI PUSH0 DUP1 PUSH0 CALLER PUSH20 0xFFFFFFFFFFFFFFFFFFFFFFFFFFFFFFFFFFFFFFFF AND PUSH20 0xFFFFFFFFFFFFFFFFFFFFFFFFFFFFFFFFFFFFFFFF AND DUP2 MSTORE PUSH1 0x20 ADD SWAP1 DUP2 MSTORE PUSH1 0x20 ADD PUSH0 KECCAK256 DUP3 DUP2 SLOAD DUP2 LT PUSH2 0x2018 JUMPI PUSH2 0x2017 PUSH2 0x398F JUMP JUMPDEST JUMPDEST SWAP1 PUSH0 MSTORE PUSH1 0x20 PUSH0 KECCAK256 SWAP1 PUSH1 0x9 MUL ADD PUSH1 0x1 ADD SWAP1 POP PUSH0 DUP7 PUSH1 0x40 MLOAD PUSH1 0x20 ADD PUSH2 0x203B SWAP2 SWAP1 PUSH2 0x4637 JUMP JUMPDEST PUSH1 0x40 MLOAD PUSH1 0x20 DUP2 DUP4 SUB SUB DUP2 MSTORE SWAP1 PUSH1 0x40 MSTORE DUP1 MLOAD SWAP1 PUSH1 0x20 ADD KECCAK256 DUP3 PUSH1 0x40 MLOAD PUSH1 0x20 ADD PUSH2 0x2062 SWAP2 SWAP1 PUSH2 0x46DF JUMP JUMPDEST PUSH1 0x40 MLOAD PUSH1 0x20 DUP2 DUP4 SUB SUB DUP2 MSTORE SWAP1 PUSH1 0x40 MSTORE DUP1 MLOAD SWAP1 PUSH1 0x20 ADD KECCAK256 EQ SWAP1 POP DUP1 ISZERO PUSH2 0x20DD JUMPI DUP7 PUSH1 0x40 MLOAD PUSH1 0x20 ADD PUSH2 0x2092 SWAP2 SWAP1 PUSH2 0x4789 JUMP JUMPDEST PUSH1 0x40 MLOAD PUSH1 0x20 DUP2 DUP4 SUB SUB DUP2 MSTORE SWAP1 PUSH1 0x40 MSTORE PUSH1 0x40 MLOAD PUSH32 0x8C379A000000000000000000000000000000000000000000000000000000000 DUP2 MSTORE PUSH1 0x4 ADD PUSH2 0x20D4 SWAP2 SWAP1 PUSH2 0x3F85 JUMP JUMPDEST PUSH1 0x40 MLOAD DUP1 SWAP2 SUB SWAP1 REVERT JUMPDEST POP POP DUP1 DUP1 PUSH1 0x1 ADD SWAP2 POP POP PUSH2 0x1F82 JUMP JUMPDEST POP PUSH0 PUSH1 0x40 MLOAD DUP1 PUSH2 0x140 ADD PUSH1 0x40 MSTORE DUP1 PUSH1 0x1 PUSH0 DUP1 CALLER PUSH20 0xFFFFFFFFFFFFFFFFFFFFFFFFFFFFFFFFFFFFFFFF AND PUSH20 0xFFFFFFFFFFFFFFFFFFFFFFFFFFFFFFFFFFFFFFFF AND DUP2 MSTORE PUSH1 0x20 ADD SWAP1 DUP2 MSTORE PUSH1 0x20 ADD PUSH0 KECCAK256 DUP1 SLOAD SWAP1 POP PUSH2 0x2146 SWAP2 SWAP1 PUSH2 0x3C77 JUMP JUMPDEST DUP2 MSTORE PUSH1 0x20 ADD DUP7 DUP2 MSTORE PUSH1 0x20 ADD DUP6 DUP2 MSTORE PUSH1 0x20 ADD CALLER PUSH20 0xFFFFFFFFFFFFFFFFFFFFFFFFFFFFFFFFFFFFFFFF AND DUP2 MSTORE PUSH1 0x20 ADD DUP5 DUP2 MSTORE PUSH1 0x20 ADD PUSH0 DUP2 MSTORE PUSH1 0x20 ADD PUSH0 DUP2 MSTORE PUSH1 0x20 ADD PUSH3 0x15180 DUP5 PUSH2 0x2194 SWAP2 SWAP1 PUSH2 0x47B5 JUMP JUMPDEST TIMESTAMP PUSH2 0x219F SWAP2 SWAP1 PUSH2 0x3C77 JUMP JUMPDEST DUP2 MSTORE PUSH1 0x20 ADD PUSH0 ISZERO ISZERO DUP2 MSTORE PUSH1 0x20 ADD PUSH0 ISZERO ISZERO DUP2 MSTORE POP SWAP1 POP PUSH0 DUP1 CALLER PUSH20 0xFFFFFFFFFFFFFFFFFFFFFFFFFFFFFFFFFFFFFFFF AND PUSH20 0xFFFFFFFFFFFFFFFFFFFFFFFFFFFFFFFFFFFFFFFF AND DUP2 MSTORE PUSH1 0x20 ADD SWAP1 DUP2 MSTORE PUSH1 0x20 ADD PUSH0 KECCAK256 DUP2 SWAP1 DUP1 PUSH1 0x1 DUP2 SLOAD ADD DUP1 DUP3 SSTORE DUP1 SWAP2 POP POP PUSH1 0x1 SWAP1 SUB SWAP1 PUSH0 MSTORE PUSH1 0x20 PUSH0 KECCAK256 SWAP1 PUSH1 0x9 MUL ADD PUSH0 SWAP1 SWAP2 SWAP1 SWAP2 SWAP1 SWAP2 POP PUSH0 DUP3 ADD MLOAD DUP2 PUSH0 ADD SSTORE PUSH1 0x20 DUP3 ADD MLOAD DUP2 PUSH1 0x1 ADD SWAP1 DUP2 PUSH2 0x2234 SWAP2 SWAP1 PUSH2 0x44F5 JUMP JUMPDEST POP PUSH1 0x40 DUP3 ADD MLOAD DUP2 PUSH1 0x2 ADD SWAP1 DUP2 PUSH2 0x224A SWAP2 SWAP1 PUSH2 0x44F5 JUMP JUMPDEST POP PUSH1 0x60 DUP3 ADD MLOAD DUP2 PUSH1 0x3 ADD PUSH0 PUSH2 0x100 EXP DUP2 SLOAD DUP2 PUSH20 0xFFFFFFFFFFFFFFFFFFFFFFFFFFFFFFFFFFFFFFFF MUL NOT AND SWAP1 DUP4 PUSH20 0xFFFFFFFFFFFFFFFFFFFFFFFFFFFFFFFFFFFFFFFF AND MUL OR SWAP1 SSTORE POP PUSH1 0x80 DUP3 ADD MLOAD DUP2 PUSH1 0x4 ADD SSTORE PUSH1 0xA0 DUP3 ADD MLOAD DUP2 PUSH1 0x5 ADD SSTORE PUSH1 0xC0 DUP3 ADD MLOAD DUP2 PUSH1 0x6 ADD SSTORE PUSH1 0xE0 DUP3 ADD MLOAD DUP2 PUSH1 0x7 ADD SSTORE PUSH2 0x100 DUP3 ADD MLOAD DUP2 PUSH1 0x8 ADD PUSH0 PUSH2 0x100 EXP DUP2 SLOAD DUP2 PUSH1 0xFF MUL NOT AND SWAP1 DUP4 ISZERO ISZERO MUL OR SWAP1 SSTORE POP PUSH2 0x120 DUP3 ADD MLOAD DUP2 PUSH1 0x8 ADD PUSH1 0x1 PUSH2 0x100 EXP DUP2 SLOAD DUP2 PUSH1 0xFF MUL NOT AND SWAP1 DUP4 ISZERO ISZERO MUL OR SWAP1 SSTORE POP POP POP PUSH32 0xDC26653AF5B99B2DA33E2AD69EE6600D9AECCC82B034501DB4338309615CA238 PUSH0 DUP1 CALLER PUSH20 0xFFFFFFFFFFFFFFFFFFFFFFFFFFFFFFFFFFFFFFFF AND PUSH20 0xFFFFFFFFFFFFFFFFFFFFFFFFFFFFFFFFFFFFFFFF AND DUP2 MSTORE PUSH1 0x20 ADD SWAP1 DUP2 MSTORE PUSH1 0x20 ADD PUSH0 KECCAK256 DUP1 SLOAD SWAP1 POP CALLER DUP8 DUP7 PUSH3 0x15180 DUP8 PUSH2 0x236F SWAP2 SWAP1 PUSH2 0x47B5 JUMP JUMPDEST TIMESTAMP PUSH2 0x237A SWAP2 SWAP1 PUSH2 0x3C77 JUMP JUMPDEST PUSH1 0x40 MLOAD PUSH2 0x238B SWAP6 SWAP5 SWAP4 SWAP3 SWAP2 SWAP1 PUSH2 0x47F6 JUMP JUMPDEST PUSH1 0x40 MLOAD DUP1 SWAP2 SUB SWAP1 LOG1 POP POP POP POP POP JUMP JUMPDEST PUSH1 0x1 PUSH0 CALLER PUSH20 0xFFFFFFFFFFFFFFFFFFFFFFFFFFFFFFFFFFFFFFFF AND PUSH20 0xFFFFFFFFFFFFFFFFFFFFFFFFFFFFFFFFFFFFFFFF AND DUP2 MSTORE PUSH1 0x20 ADD SWAP1 DUP2 MSTORE PUSH1 0x20 ADD PUSH0 KECCAK256 PUSH0 DUP3 PUSH20 0xFFFFFFFFFFFFFFFFFFFFFFFFFFFFFFFFFFFFFFFF AND PUSH20 0xFFFFFFFFFFFFFFFFFFFFFFFFFFFFFFFFFFFFFFFF AND DUP2 MSTORE PUSH1 0x20 ADD SWAP1 DUP2 MSTORE PUSH1 0x20 ADD PUSH0 KECCAK256 PUSH0 SWAP1 SLOAD SWAP1 PUSH2 0x100 EXP SWAP1 DIV PUSH1 0xFF AND ISZERO PUSH2 0x245F JUMPI PUSH1 0x40 MLOAD PUSH32 0x8C379A000000000000000000000000000000000000000000000000000000000 DUP2 MSTORE PUSH1 0x4 ADD PUSH2 0x2456 SWAP1 PUSH2 0x48BE JUMP JUMPDEST PUSH1 0x40 MLOAD DUP1 SWAP2 SUB SWAP1 REVERT JUMPDEST PUSH1 0x1 DUP1 PUSH0 CALLER PUSH20 0xFFFFFFFFFFFFFFFFFFFFFFFFFFFFFFFFFFFFFFFF AND PUSH20 0xFFFFFFFFFFFFFFFFFFFFFFFFFFFFFFFFFFFFFFFF AND DUP2 MSTORE PUSH1 0x20 ADD SWAP1 DUP2 MSTORE PUSH1 0x20 ADD PUSH0 KECCAK256 PUSH0 DUP4 PUSH20 0xFFFFFFFFFFFFFFFFFFFFFFFFFFFFFFFFFFFFFFFF AND PUSH20 0xFFFFFFFFFFFFFFFFFFFFFFFFFFFFFFFFFFFFFFFF AND DUP2 MSTORE PUSH1 0x20 ADD SWAP1 DUP2 MSTORE PUSH1 0x20 ADD PUSH0 KECCAK256 PUSH0 PUSH2 0x100 EXP DUP2 SLOAD DUP2 PUSH1 0xFF MUL NOT AND SWAP1 DUP4 ISZERO ISZERO MUL OR SWAP1 SSTORE POP PUSH1 0x2 PUSH0 CALLER PUSH20 0xFFFFFFFFFFFFFFFFFFFFFFFFFFFFFFFFFFFFFFFF AND PUSH20 0xFFFFFFFFFFFFFFFFFFFFFFFFFFFFFFFFFFFFFFFF AND DUP2 MSTORE PUSH1 0x20 ADD SWAP1 DUP2 MSTORE PUSH1 0x20 ADD PUSH0 KECCAK256 DUP2 SWAP1 DUP1 PUSH1 0x1 DUP2 SLOAD ADD DUP1 DUP3 SSTORE DUP1 SWAP2 POP POP PUSH1 0x1 SWAP1 SUB SWAP1 PUSH0 MSTORE PUSH1 0x20 PUSH0 KECCAK256 ADD PUSH0 SWAP1 SWAP2 SWAP1 SWAP2 SWAP1 SWAP2 PUSH2 0x100 EXP DUP2 SLOAD DUP2 PUSH20 0xFFFFFFFFFFFFFFFFFFFFFFFFFFFFFFFFFFFFFFFF MUL NOT AND SWAP1 DUP4 PUSH20 0xFFFFFFFFFFFFFFFFFFFFFFFFFFFFFFFFFFFFFFFF AND MUL OR SWAP1 SSTORE POP PUSH32 0xAD6DE4452A631E641CB59902236607946CE9272B9B981F2F80E8D129CB9084BA DUP2 PUSH1 0x40 MLOAD PUSH2 0x25B8 SWAP2 SWAP1 PUSH2 0x339B JUMP JUMPDEST PUSH1 0x40 MLOAD DUP1 SWAP2 SUB SWAP1 LOG1 POP JUMP JUMPDEST PUSH1 0x1 PUSH1 0x20 MSTORE DUP2 PUSH0 MSTORE PUSH1 0x40 PUSH0 KECCAK256 PUSH1 0x20 MSTORE DUP1 PUSH0 MSTORE PUSH1 0x40 PUSH0 KECCAK256 PUSH0 SWAP2 POP SWAP2 POP SWAP1 SLOAD SWAP1 PUSH2 0x100 EXP SWAP1 DIV PUSH1 0xFF AND DUP2 JUMP JUMPDEST DUP3 DUP5 PUSH0 DUP1 PUSH0 DUP5 PUSH20 0xFFFFFFFFFFFFFFFFFFFFFFFFFFFFFFFFFFFFFFFF AND PUSH20 0xFFFFFFFFFFFFFFFFFFFFFFFFFFFFFFFFFFFFFFFF AND DUP2 MSTORE PUSH1 0x20 ADD SWAP1 DUP2 MSTORE PUSH1 0x20 ADD PUSH0 KECCAK256 DUP1 SLOAD SWAP1 POP GT PUSH2 0x2670 JUMPI PUSH1 0x40 MLOAD PUSH32 0x8C379A000000000000000000000000000000000000000000000000000000000 DUP2 MSTORE PUSH1 0x4 ADD PUSH2 0x2667 SWAP1 PUSH2 0x3911 JUMP JUMPDEST PUSH1 0x40 MLOAD DUP1 SWAP2 SUB SWAP1 REVERT JUMPDEST DUP1 PUSH0 DUP1 DUP5 PUSH20 0xFFFFFFFFFFFFFFFFFFFFFFFFFFFFFFFFFFFFFFFF AND PUSH20 0xFFFFFFFFFFFFFFFFFFFFFFFFFFFFFFFFFFFFFFFF AND DUP2 MSTORE PUSH1 0x20 ADD SWAP1 DUP2 MSTORE PUSH1 0x20 ADD PUSH0 KECCAK256 PUSH1 0x1 DUP4 PUSH2 0x26BA SWAP2 SWAP1 PUSH2 0x395C JUMP JUMPDEST DUP2 SLOAD DUP2 LT PUSH2 0x26CB JUMPI PUSH2 0x26CA PUSH2 0x398F JUMP JUMPDEST JUMPDEST SWAP1 PUSH0 MSTORE PUSH1 0x20 PUSH0 KECCAK256 SWAP1 PUSH1 0x9 MUL ADD PUSH0 ADD SLOAD EQ PUSH2 0x271A JUMPI PUSH1 0x40 MLOAD PUSH32 0x8C379A000000000000000000000000000000000000000000000000000000000 DUP2 MSTORE PUSH1 0x4 ADD PUSH2 0x2711 SWAP1 PUSH2 0x3A2C JUMP JUMPDEST PUSH1 0x40 MLOAD DUP1 SWAP2 SUB SWAP1 REVERT JUMPDEST PUSH1 0x1 PUSH0 DUP4 PUSH20 0xFFFFFFFFFFFFFFFFFFFFFFFFFFFFFFFFFFFFFFFF AND PUSH20 0xFFFFFFFFFFFFFFFFFFFFFFFFFFFFFFFFFFFFFFFF AND DUP2 MSTORE PUSH1 0x20 ADD SWAP1 DUP2 MSTORE PUSH1 0x20 ADD PUSH0 KECCAK256 PUSH0 CALLER PUSH20 0xFFFFFFFFFFFFFFFFFFFFFFFFFFFFFFFFFFFFFFFF AND PUSH20 0xFFFFFFFFFFFFFFFFFFFFFFFFFFFFFFFFFFFFFFFF AND DUP2 MSTORE PUSH1 0x20 ADD SWAP1 DUP2 MSTORE PUSH1 0x20 ADD PUSH0 KECCAK256 PUSH0 SWAP1 SLOAD SWAP1 PUSH2 0x100 EXP SWAP1 DIV PUSH1 0xFF AND PUSH2 0x27DE JUMPI PUSH1 0x40 MLOAD PUSH32 0x8C379A000000000000000000000000000000000000000000000000000000000 DUP2 MSTORE PUSH1 0x4 ADD PUSH2 0x27D5 SWAP1 PUSH2 0x3ABA JUMP JUMPDEST PUSH1 0x40 MLOAD DUP1 SWAP2 SUB SWAP1 REVERT JUMPDEST PUSH0 DUP1 DUP7 PUSH20 0xFFFFFFFFFFFFFFFFFFFFFFFFFFFFFFFFFFFFFFFF AND PUSH20 0xFFFFFFFFFFFFFFFFFFFFFFFFFFFFFFFFFFFFFFFF AND DUP2 MSTORE PUSH1 0x20 ADD SWAP1 DUP2 MSTORE PUSH1 0x20 ADD PUSH0 KECCAK256 PUSH1 0x1 DUP8 PUSH2 0x2827 SWAP2 SWAP1 PUSH2 0x395C JUMP JUMPDEST DUP2 SLOAD DUP2 LT PUSH2 0x2838 JUMPI PUSH2 0x2837 PUSH2 0x398F JUMP JUMPDEST JUMPDEST SWAP1 PUSH0 MSTORE PUSH1 0x20 PUSH0 KECCAK256 SWAP1 PUSH1 0x9 MUL ADD PUSH1 0x8 ADD PUSH0 SWAP1 SLOAD SWAP1 PUSH2 0x100 EXP SWAP1 DIV PUSH1 0xFF AND PUSH2 0x2893 JUMPI PUSH1 0x40 MLOAD PUSH32 0x8C379A000000000000000000000000000000000000000000000000000000000 DUP2 MSTORE PUSH1 0x4 ADD PUSH2 0x288A SWAP1 PUSH2 0x494C JUMP JUMPDEST PUSH1 0x40 MLOAD DUP1 SWAP2 SUB SWAP1 REVERT JUMPDEST DUP4 SELFBALANCE LT ISZERO PUSH2 0x28D6 JUMPI PUSH1 0x40 MLOAD PUSH32 0x8C379A000000000000000000000000000000000000000000000000000000000 DUP2 MSTORE PUSH1 0x4 ADD PUSH2 0x28CD SWAP1 PUSH2 0x3BB0 JUMP JUMPDEST PUSH1 0x40 MLOAD DUP1 SWAP2 SUB SWAP1 REVERT JUMPDEST PUSH0 DUP5 GT DUP1 ISZERO PUSH2 0x294E JUMPI POP PUSH0 DUP1 DUP7 PUSH20 0xFFFFFFFFFFFFFFFFFFFFFFFFFFFFFFFFFFFFFFFF AND PUSH20 0xFFFFFFFFFFFFFFFFFFFFFFFFFFFFFFFFFFFFFFFF AND DUP2 MSTORE PUSH1 0x20 ADD SWAP1 DUP2 MSTORE PUSH1 0x20 ADD PUSH0 KECCAK256 PUSH1 0x1 DUP8 PUSH2 0x2929 SWAP2 SWAP1 PUSH2 0x395C JUMP JUMPDEST DUP2 SLOAD DUP2 LT PUSH2 0x293A JUMPI PUSH2 0x2939 PUSH2 0x398F JUMP JUMPDEST JUMPDEST SWAP1 PUSH0 MSTORE PUSH1 0x20 PUSH0 KECCAK256 SWAP1 PUSH1 0x9 MUL ADD PUSH1 0x5 ADD SLOAD DUP5 GT ISZERO JUMPDEST PUSH2 0x298D JUMPI PUSH1 0x40 MLOAD PUSH32 0x8C379A000000000000000000000000000000000000000000000000000000000 DUP2 MSTORE PUSH1 0x4 ADD PUSH2 0x2984 SWAP1 PUSH2 0x49DA JUMP JUMPDEST PUSH1 0x40 MLOAD DUP1 SWAP2 SUB SWAP1 REVERT JUMPDEST PUSH0 DUP1 PUSH0 DUP8 PUSH20 0xFFFFFFFFFFFFFFFFFFFFFFFFFFFFFFFFFFFFFFFF AND PUSH20 0xFFFFFFFFFFFFFFFFFFFFFFFFFFFFFFFFFFFFFFFF AND DUP2 MSTORE PUSH1 0x20 ADD SWAP1 DUP2 MSTORE PUSH1 0x20 ADD PUSH0 KECCAK256 PUSH1 0x1 DUP9 PUSH2 0x29D7 SWAP2 SWAP1 PUSH2 0x395C JUMP JUMPDEST DUP2 SLOAD DUP2 LT PUSH2 0x29E8 JUMPI PUSH2 0x29E7 PUSH2 0x398F JUMP JUMPDEST JUMPDEST SWAP1 PUSH0 MSTORE PUSH1 0x20 PUSH0 KECCAK256 SWAP1 PUSH1 0x9 MUL ADD PUSH1 0x6 ADD SLOAD SWAP1 POP PUSH0 DUP6 DUP3 PUSH2 0x2A07 SWAP2 SWAP1 PUSH2 0x395C JUMP JUMPDEST SWAP1 POP DUP1 PUSH0 DUP1 DUP10 PUSH20 0xFFFFFFFFFFFFFFFFFFFFFFFFFFFFFFFFFFFFFFFF AND PUSH20 0xFFFFFFFFFFFFFFFFFFFFFFFFFFFFFFFFFFFFFFFF AND DUP2 MSTORE PUSH1 0x20 ADD SWAP1 DUP2 MSTORE PUSH1 0x20 ADD PUSH0 KECCAK256 PUSH1 0x1 DUP11 PUSH2 0x2A53 SWAP2 SWAP1 PUSH2 0x395C JUMP JUMPDEST DUP2 SLOAD DUP2 LT PUSH2 0x2A64 JUMPI PUSH2 0x2A63 PUSH2 0x398F JUMP JUMPDEST JUMPDEST SWAP1 PUSH0 MSTORE PUSH1 0x20 PUSH0 KECCAK256 SWAP1 PUSH1 0x9 MUL ADD PUSH1 0x6 ADD DUP2 SWAP1 SSTORE POP PUSH0 DUP6 PUSH20 0xFFFFFFFFFFFFFFFFFFFFFFFFFFFFFFFFFFFFFFFF AND DUP8 PUSH1 0x40 MLOAD PUSH2 0x2A9C SWAP1 PUSH2 0x3BFB JUMP JUMPDEST PUSH0 PUSH1 0x40 MLOAD DUP1 DUP4 SUB DUP2 DUP6 DUP8 GAS CALL SWAP3 POP POP POP RETURNDATASIZE DUP1 PUSH0 DUP2 EQ PUSH2 0x2AD6 JUMPI PUSH1 0x40 MLOAD SWAP2 POP PUSH1 0x1F NOT PUSH1 0x3F RETURNDATASIZE ADD AND DUP3 ADD PUSH1 0x40 MSTORE RETURNDATASIZE DUP3 MSTORE RETURNDATASIZE PUSH0 PUSH1 0x20 DUP5 ADD RETURNDATACOPY PUSH2 0x2ADB JUMP JUMPDEST PUSH1 0x60 SWAP2 POP JUMPDEST POP POP SWAP1 POP DUP1 PUSH2 0x2B1F JUMPI PUSH1 0x40 MLOAD PUSH32 0x8C379A000000000000000000000000000000000000000000000000000000000 DUP2 MSTORE PUSH1 0x4 ADD PUSH2 0x2B16 SWAP1 PUSH2 0x3C59 JUMP JUMPDEST PUSH1 0x40 MLOAD DUP1 SWAP2 SUB SWAP1 REVERT JUMPDEST PUSH0 PUSH1 0x40 MLOAD DUP1 PUSH1 0xA0 ADD PUSH1 0x40 MSTORE DUP1 DUP12 DUP2 MSTORE PUSH1 0x20 ADD PUSH0 DUP1 DUP13 PUSH20 0xFFFFFFFFFFFFFFFFFFFFFFFFFFFFFFFFFFFFFFFF AND PUSH20 0xFFFFFFFFFFFFFFFFFFFFFFFFFFFFFFFFFFFFFFFF AND DUP2 MSTORE PUSH1 0x20 ADD SWAP1 DUP2 MSTORE PUSH1 0x20 ADD PUSH0 KECCAK256 PUSH1 0x1 DUP14 PUSH2 0x2B7A SWAP2 SWAP1 PUSH2 0x395C JUMP JUMPDEST DUP2 SLOAD DUP2 LT PUSH2 0x2B8B JUMPI PUSH2 0x2B8A PUSH2 0x398F JUMP JUMPDEST JUMPDEST SWAP1 PUSH0 MSTORE PUSH1 0x20 PUSH0 KECCAK256 SWAP1 PUSH1 0x9 MUL ADD PUSH1 0x1 ADD DUP1 SLOAD PUSH2 0x2BA5 SWAP1 PUSH2 0x3871 JUMP JUMPDEST DUP1 PUSH1 0x1F ADD PUSH1 0x20 DUP1 SWAP2 DIV MUL PUSH1 0x20 ADD PUSH1 0x40 MLOAD SWAP1 DUP2 ADD PUSH1 0x40 MSTORE DUP1 SWAP3 SWAP2 SWAP1 DUP2 DUP2 MSTORE PUSH1 0x20 ADD DUP3 DUP1 SLOAD PUSH2 0x2BD1 SWAP1 PUSH2 0x3871 JUMP JUMPDEST DUP1 ISZERO PUSH2 0x2C1C JUMPI DUP1 PUSH1 0x1F LT PUSH2 0x2BF3 JUMPI PUSH2 0x100 DUP1 DUP4 SLOAD DIV MUL DUP4 MSTORE SWAP2 PUSH1 0x20 ADD SWAP2 PUSH2 0x2C1C JUMP JUMPDEST DUP3 ADD SWAP2 SWAP1 PUSH0 MSTORE PUSH1 0x20 PUSH0 KECCAK256 SWAP1 JUMPDEST DUP2 SLOAD DUP2 MSTORE SWAP1 PUSH1 0x1 ADD SWAP1 PUSH1 0x20 ADD DUP1 DUP4 GT PUSH2 0x2BFF JUMPI DUP3 SWAP1 SUB PUSH1 0x1F AND DUP3 ADD SWAP2 JUMPDEST POP POP POP POP POP DUP2 MSTORE PUSH1 0x20 ADD DUP10 DUP2 MSTORE PUSH1 0x20 ADD CALLER PUSH20 0xFFFFFFFFFFFFFFFFFFFFFFFFFFFFFFFFFFFFFFFF AND DUP2 MSTORE PUSH1 0x20 ADD DUP9 PUSH20 0xFFFFFFFFFFFFFFFFFFFFFFFFFFFFFFFFFFFFFFFF AND DUP2 MSTORE POP SWAP1 POP PUSH1 0x4 PUSH0 DUP11 PUSH20 0xFFFFFFFFFFFFFFFFFFFFFFFFFFFFFFFFFFFFFFFF AND PUSH20 0xFFFFFFFFFFFFFFFFFFFFFFFFFFFFFFFFFFFFFFFF AND DUP2 MSTORE PUSH1 0x20 ADD SWAP1 DUP2 MSTORE PUSH1 0x20 ADD PUSH0 KECCAK256 DUP2 SWAP1 DUP1 PUSH1 0x1 DUP2 SLOAD ADD DUP1 DUP3 SSTORE DUP1 SWAP2 POP POP PUSH1 0x1 SWAP1 SUB SWAP1 PUSH0 MSTORE PUSH1 0x20 PUSH0 KECCAK256 SWAP1 PUSH1 0x5 MUL ADD PUSH0 SWAP1 SWAP2 SWAP1 SWAP2 SWAP1 SWAP2 POP PUSH0 DUP3 ADD MLOAD DUP2 PUSH0 ADD SSTORE PUSH1 0x20 DUP3 ADD MLOAD DUP2 PUSH1 0x1 ADD SWAP1 DUP2 PUSH2 0x2CE5 SWAP2 SWAP1 PUSH2 0x44F5 JUMP JUMPDEST POP PUSH1 0x40 DUP3 ADD MLOAD DUP2 PUSH1 0x2 ADD SSTORE PUSH1 0x60 DUP3 ADD MLOAD DUP2 PUSH1 0x3 ADD PUSH0 PUSH2 0x100 EXP DUP2 SLOAD DUP2 PUSH20 0xFFFFFFFFFFFFFFFFFFFFFFFFFFFFFFFFFFFFFFFF MUL NOT AND SWAP1 DUP4 PUSH20 0xFFFFFFFFFFFFFFFFFFFFFFFFFFFFFFFFFFFFFFFF AND MUL OR SWAP1 SSTORE POP PUSH1 0x80 DUP3 ADD MLOAD DUP2 PUSH1 0x4 ADD PUSH0 PUSH2 0x100 EXP DUP2 SLOAD DUP2 PUSH20 0xFFFFFFFFFFFFFFFFFFFFFFFFFFFFFFFFFFFFFFFF MUL NOT AND SWAP1 DUP4 PUSH20 0xFFFFFFFFFFFFFFFFFFFFFFFFFFFFFFFFFFFFFFFF AND MUL OR SWAP1 SSTORE POP POP POP PUSH32 0xFB301322F68B8EA04D2B6A3AB0A1A0100D7BE758E7FFA771D5539A256B92D10D DUP9 CALLER DUP10 DUP13 DUP15 PUSH1 0x40 MLOAD PUSH2 0x2DB5 SWAP6 SWAP5 SWAP4 SWAP3 SWAP2 SWAP1 PUSH2 0x49F8 JUMP JUMPDEST PUSH1 0x40 MLOAD DUP1 SWAP2 SUB SWAP1 LOG1 POP POP POP POP POP POP POP POP POP POP JUMP JUMPDEST PUSH1 0x5 PUSH1 0x20 MSTORE DUP3 PUSH0 MSTORE PUSH1 0x40 PUSH0 KECCAK256 PUSH1 0x20 MSTORE DUP2 PUSH0 MSTORE PUSH1 0x40 PUSH0 KECCAK256 DUP2 DUP2 SLOAD DUP2 LT PUSH2 0x2DEC JUMPI PUSH0 DUP1 REVERT JUMPDEST SWAP1 PUSH0 MSTORE PUSH1 0x20 PUSH0 KECCAK256 SWAP1 PUSH1 0x2 MUL ADD PUSH0 SWAP3 POP SWAP3 POP POP POP DUP1 PUSH0 ADD PUSH0 SWAP1 SLOAD SWAP1 PUSH2 0x100 EXP SWAP1 DIV PUSH20 0xFFFFFFFFFFFFFFFFFFFFFFFFFFFFFFFFFFFFFFFF AND SWAP1 DUP1 PUSH1 0x1 ADD SLOAD SWAP1 POP DUP3 JUMP JUMPDEST PUSH1 0x1 PUSH0 CALLER PUSH20 0xFFFFFFFFFFFFFFFFFFFFFFFFFFFFFFFFFFFFFFFF AND PUSH20 0xFFFFFFFFFFFFFFFFFFFFFFFFFFFFFFFFFFFFFFFF AND DUP2 MSTORE PUSH1 0x20 ADD SWAP1 DUP2 MSTORE PUSH1 0x20 ADD PUSH0 KECCAK256 PUSH0 DUP3 PUSH20 0xFFFFFFFFFFFFFFFFFFFFFFFFFFFFFFFFFFFFFFFF AND PUSH20 0xFFFFFFFFFFFFFFFFFFFFFFFFFFFFFFFFFFFFFFFF AND DUP2 MSTORE PUSH1 0x20 ADD SWAP1 DUP2 MSTORE PUSH1 0x20 ADD PUSH0 KECCAK256 PUSH0 SWAP1 SLOAD SWAP1 PUSH2 0x100 EXP SWAP1 DIV PUSH1 0xFF AND PUSH2 0x2EF1 JUMPI PUSH1 0x40 MLOAD PUSH32 0x8C379A000000000000000000000000000000000000000000000000000000000 DUP2 MSTORE PUSH1 0x4 ADD PUSH2 0x2EE8 SWAP1 PUSH2 0x4A93 JUMP JUMPDEST PUSH1 0x40 MLOAD DUP1 SWAP2 SUB SWAP1 REVERT JUMPDEST PUSH0 PUSH1 0x1 PUSH0 CALLER PUSH20 0xFFFFFFFFFFFFFFFFFFFFFFFFFFFFFFFFFFFFFFFF AND PUSH20 0xFFFFFFFFFFFFFFFFFFFFFFFFFFFFFFFFFFFFFFFF AND DUP2 MSTORE PUSH1 0x20 ADD SWAP1 DUP2 MSTORE PUSH1 0x20 ADD PUSH0 KECCAK256 PUSH0 DUP4 PUSH20 0xFFFFFFFFFFFFFFFFFFFFFFFFFFFFFFFFFFFFFFFF AND PUSH20 0xFFFFFFFFFFFFFFFFFFFFFFFFFFFFFFFFFFFFFFFF AND DUP2 MSTORE PUSH1 0x20 ADD SWAP1 DUP2 MSTORE PUSH1 0x20 ADD PUSH0 KECCAK256 PUSH0 PUSH2 0x100 EXP DUP2 SLOAD DUP2 PUSH1 0xFF MUL NOT AND SWAP1 DUP4 ISZERO ISZERO MUL OR SWAP1 SSTORE POP PUSH0 PUSH1 0x2 PUSH0 CALLER PUSH20 0xFFFFFFFFFFFFFFFFFFFFFFFFFFFFFFFFFFFFFFFF AND PUSH20 0xFFFFFFFFFFFFFFFFFFFFFFFFFFFFFFFFFFFFFFFF AND DUP2 MSTORE PUSH1 0x20 ADD SWAP1 DUP2 MSTORE PUSH1 0x20 ADD PUSH0 KECCAK256 SWAP1 POP PUSH0 JUMPDEST DUP2 DUP1 SLOAD SWAP1 POP DUP2 LT ISZERO PUSH2 0x3133 JUMPI DUP3 PUSH20 0xFFFFFFFFFFFFFFFFFFFFFFFFFFFFFFFFFFFFFFFF AND DUP3 DUP3 DUP2 SLOAD DUP2 LT PUSH2 0x2FF8 JUMPI PUSH2 0x2FF7 PUSH2 0x398F JUMP JUMPDEST JUMPDEST SWAP1 PUSH0 MSTORE PUSH1 0x20 PUSH0 KECCAK256 ADD PUSH0 SWAP1 SLOAD SWAP1 PUSH2 0x100 EXP SWAP1 DIV PUSH20 0xFFFFFFFFFFFFFFFFFFFFFFFFFFFFFFFFFFFFFFFF AND PUSH20 0xFFFFFFFFFFFFFFFFFFFFFFFFFFFFFFFFFFFFFFFF AND SUB PUSH2 0x3126 JUMPI DUP2 PUSH1 0x1 DUP4 DUP1 SLOAD SWAP1 POP PUSH2 0x304D SWAP2 SWAP1 PUSH2 0x395C JUMP JUMPDEST DUP2 SLOAD DUP2 LT PUSH2 0x305E JUMPI PUSH2 0x305D PUSH2 0x398F JUMP JUMPDEST JUMPDEST SWAP1 PUSH0 MSTORE PUSH1 0x20 PUSH0 KECCAK256 ADD PUSH0 SWAP1 SLOAD SWAP1 PUSH2 0x100 EXP SWAP1 DIV PUSH20 0xFFFFFFFFFFFFFFFFFFFFFFFFFFFFFFFFFFFFFFFF AND DUP3 DUP3 DUP2 SLOAD DUP2 LT PUSH2 0x3099 JUMPI PUSH2 0x3098 PUSH2 0x398F JUMP JUMPDEST JUMPDEST SWAP1 PUSH0 MSTORE PUSH1 0x20 PUSH0 KECCAK256 ADD PUSH0 PUSH2 0x100 EXP DUP2 SLOAD DUP2 PUSH20 0xFFFFFFFFFFFFFFFFFFFFFFFFFFFFFFFFFFFFFFFF MUL NOT AND SWAP1 DUP4 PUSH20 0xFFFFFFFFFFFFFFFFFFFFFFFFFFFFFFFFFFFFFFFF AND MUL OR SWAP1 SSTORE POP DUP2 DUP1 SLOAD DUP1 PUSH2 0x30EF JUMPI PUSH2 0x30EE PUSH2 0x4AB1 JUMP JUMPDEST JUMPDEST PUSH1 0x1 SWAP1 SUB DUP2 DUP2 SWAP1 PUSH0 MSTORE PUSH1 0x20 PUSH0 KECCAK256 ADD PUSH0 PUSH2 0x100 EXP DUP2 SLOAD SWAP1 PUSH20 0xFFFFFFFFFFFFFFFFFFFFFFFFFFFFFFFFFFFFFFFF MUL NOT AND SWAP1 SSTORE SWAP1 SSTORE PUSH2 0x3133 JUMP JUMPDEST DUP1 DUP1 PUSH1 0x1 ADD SWAP2 POP POP PUSH2 0x2FC2 JUMP JUMPDEST POP PUSH32 0x753F40CA3312B2408759A67875B367955E7BAA221DAF08AA3D643D96202AC12B DUP3 PUSH1 0x40 MLOAD PUSH2 0x3163 SWAP2 SWAP1 PUSH2 0x339B JUMP JUMPDEST PUSH1 0x40 MLOAD DUP1 SWAP2 SUB SWAP1 LOG1 POP POP JUMP JUMPDEST PUSH0 PUSH1 0x40 MLOAD SWAP1 POP SWAP1 JUMP JUMPDEST PUSH0 DUP1 REVERT JUMPDEST PUSH0 DUP1 REVERT JUMPDEST PUSH0 PUSH20 0xFFFFFFFFFFFFFFFFFFFFFFFFFFFFFFFFFFFFFFFF DUP3 AND SWAP1 POP SWAP2 SWAP1 POP JUMP JUMPDEST PUSH0 PUSH2 0x31A9 DUP3 PUSH2 0x3180 JUMP JUMPDEST SWAP1 POP SWAP2 SWAP1 POP JUMP JUMPDEST PUSH2 0x31B9 DUP2 PUSH2 0x319F JUMP JUMPDEST DUP2 EQ PUSH2 0x31C3 JUMPI PUSH0 DUP1 REVERT JUMPDEST POP JUMP JUMPDEST PUSH0 DUP2 CALLDATALOAD SWAP1 POP PUSH2 0x31D4 DUP2 PUSH2 0x31B0 JUMP JUMPDEST SWAP3 SWAP2 POP POP JUMP JUMPDEST PUSH0 DUP2 SWAP1 POP SWAP2 SWAP1 POP JUMP JUMPDEST PUSH2 0x31EC DUP2 PUSH2 0x31DA JUMP JUMPDEST DUP2 EQ PUSH2 0x31F6 JUMPI PUSH0 DUP1 REVERT JUMPDEST POP JUMP JUMPDEST PUSH0 DUP2 CALLDATALOAD SWAP1 POP PUSH2 0x3207 DUP2 PUSH2 0x31E3 JUMP JUMPDEST SWAP3 SWAP2 POP POP JUMP JUMPDEST PUSH0 DUP1 PUSH1 0x40 DUP4 DUP6 SUB SLT ISZERO PUSH2 0x3223 JUMPI PUSH2 0x3222 PUSH2 0x3178 JUMP JUMPDEST JUMPDEST PUSH0 PUSH2 0x3230 DUP6 DUP3 DUP7 ADD PUSH2 0x31C6 JUMP JUMPDEST SWAP3 POP POP PUSH1 0x20 PUSH2 0x3241 DUP6 DUP3 DUP7 ADD PUSH2 0x31F9 JUMP JUMPDEST SWAP2 POP POP SWAP3 POP SWAP3 SWAP1 POP JUMP JUMPDEST PUSH2 0x3254 DUP2 PUSH2 0x31DA JUMP JUMPDEST DUP3 MSTORE POP POP JUMP JUMPDEST PUSH0 DUP2 MLOAD SWAP1 POP SWAP2 SWAP1 POP JUMP JUMPDEST PUSH0 DUP3 DUP3 MSTORE PUSH1 0x20 DUP3 ADD SWAP1 POP SWAP3 SWAP2 POP POP JUMP JUMPDEST DUP3 DUP2 DUP4 MCOPY PUSH0 DUP4 DUP4 ADD MSTORE POP POP POP JUMP JUMPDEST PUSH0 PUSH1 0x1F NOT PUSH1 0x1F DUP4 ADD AND SWAP1 POP SWAP2 SWAP1 POP JUMP JUMPDEST PUSH0 PUSH2 0x329C DUP3 PUSH2 0x325A JUMP JUMPDEST PUSH2 0x32A6 DUP2 DUP6 PUSH2 0x3264 JUMP JUMPDEST SWAP4 POP PUSH2 0x32B6 DUP2 DUP6 PUSH1 0x20 DUP7 ADD PUSH2 0x3274 JUMP JUMPDEST PUSH2 0x32BF DUP2 PUSH2 0x3282 JUMP JUMPDEST DUP5 ADD SWAP2 POP POP SWAP3 SWAP2 POP POP JUMP JUMPDEST PUSH2 0x32D3 DUP2 PUSH2 0x319F JUMP JUMPDEST DUP3 MSTORE POP POP JUMP JUMPDEST PUSH0 DUP2 ISZERO ISZERO SWAP1 POP SWAP2 SWAP1 POP JUMP JUMPDEST PUSH2 0x32ED DUP2 PUSH2 0x32D9 JUMP JUMPDEST DUP3 MSTORE POP POP JUMP JUMPDEST PUSH0 PUSH2 0x140 DUP3 ADD SWAP1 POP PUSH2 0x3307 PUSH0 DUP4 ADD DUP14 PUSH2 0x324B JUMP JUMPDEST DUP2 DUP2 SUB PUSH1 0x20 DUP4 ADD MSTORE PUSH2 0x3319 DUP2 DUP13 PUSH2 0x3292 JUMP JUMPDEST SWAP1 POP DUP2 DUP2 SUB PUSH1 0x40 DUP4 ADD MSTORE PUSH2 0x332D DUP2 DUP12 PUSH2 0x3292 JUMP JUMPDEST SWAP1 POP PUSH2 0x333C PUSH1 0x60 DUP4 ADD DUP11 PUSH2 0x32CA JUMP JUMPDEST PUSH2 0x3349 PUSH1 0x80 DUP4 ADD DUP10 PUSH2 0x324B JUMP JUMPDEST PUSH2 0x3356 PUSH1 0xA0 DUP4 ADD DUP9 PUSH2 0x324B JUMP JUMPDEST PUSH2 0x3363 PUSH1 0xC0 DUP4 ADD DUP8 PUSH2 0x324B JUMP JUMPDEST PUSH2 0x3370 PUSH1 0xE0 DUP4 ADD DUP7 PUSH2 0x324B JUMP JUMPDEST PUSH2 0x337E PUSH2 0x100 DUP4 ADD DUP6 PUSH2 0x32E4 JUMP JUMPDEST PUSH2 0x338C PUSH2 0x120 DUP4 ADD DUP5 PUSH2 0x32E4 JUMP JUMPDEST SWAP12 SWAP11 POP POP POP POP POP POP POP POP POP POP POP JUMP JUMPDEST PUSH0 PUSH1 0x20 DUP3 ADD SWAP1 POP PUSH2 0x33AE PUSH0 DUP4 ADD DUP5 PUSH2 0x32CA JUMP JUMPDEST SWAP3 SWAP2 POP POP JUMP JUMPDEST PUSH0 DUP1 PUSH1 0x40 DUP4 DUP6 SUB SLT ISZERO PUSH2 0x33CA JUMPI PUSH2 0x33C9 PUSH2 0x3178 JUMP JUMPDEST JUMPDEST PUSH0 PUSH2 0x33D7 DUP6 DUP3 DUP7 ADD PUSH2 0x31F9 JUMP JUMPDEST SWAP3 POP POP PUSH1 0x20 PUSH2 0x33E8 DUP6 DUP3 DUP7 ADD PUSH2 0x31C6 JUMP JUMPDEST SWAP2 POP POP SWAP3 POP SWAP3 SWAP1 POP JUMP JUMPDEST PUSH0 PUSH1 0xA0 DUP3 ADD SWAP1 POP PUSH2 0x3405 PUSH0 DUP4 ADD DUP9 PUSH2 0x324B JUMP JUMPDEST DUP2 DUP2 SUB PUSH1 0x20 DUP4 ADD MSTORE PUSH2 0x3417 DUP2 DUP8 PUSH2 0x3292 JUMP JUMPDEST SWAP1 POP PUSH2 0x3426 PUSH1 0x40 DUP4 ADD DUP7 PUSH2 0x324B JUMP JUMPDEST PUSH2 0x3433 PUSH1 0x60 DUP4 ADD DUP6 PUSH2 0x32CA JUMP JUMPDEST PUSH2 0x3440 PUSH1 0x80 DUP4 ADD DUP5 PUSH2 0x32CA JUMP JUMPDEST SWAP7 SWAP6 POP POP POP POP POP POP JUMP JUMPDEST PUSH0 PUSH2 0x3454 DUP3 PUSH2 0x3180 JUMP JUMPDEST SWAP1 POP SWAP2 SWAP1 POP JUMP JUMPDEST PUSH2 0x3464 DUP2 PUSH2 0x344A JUMP JUMPDEST DUP2 EQ PUSH2 0x346E JUMPI PUSH0 DUP1 REVERT JUMPDEST POP JUMP JUMPDEST PUSH0 DUP2 CALLDATALOAD SWAP1 POP PUSH2 0x347F DUP2 PUSH2 0x345B JUMP JUMPDEST SWAP3 SWAP2 POP POP JUMP JUMPDEST PUSH0 DUP1 PUSH0 PUSH1 0x60 DUP5 DUP7 SUB SLT ISZERO PUSH2 0x349C JUMPI PUSH2 0x349B PUSH2 0x3178 JUMP JUMPDEST JUMPDEST PUSH0 PUSH2 0x34A9 DUP7 DUP3 DUP8 ADD PUSH2 0x3471 JUMP JUMPDEST SWAP4 POP POP PUSH1 0x20 PUSH2 0x34BA DUP7 DUP3 DUP8 ADD PUSH2 0x31F9 JUMP JUMPDEST SWAP3 POP POP PUSH1 0x40 PUSH2 0x34CB DUP7 DUP3 DUP8 ADD PUSH2 0x31F9 JUMP JUMPDEST SWAP2 POP POP SWAP3 POP SWAP3 POP SWAP3 JUMP JUMPDEST PUSH0 PUSH1 0x80 DUP3 ADD SWAP1 POP PUSH2 0x34E8 PUSH0 DUP4 ADD DUP8 PUSH2 0x32CA JUMP JUMPDEST PUSH2 0x34F5 PUSH1 0x20 DUP4 ADD DUP7 PUSH2 0x324B JUMP JUMPDEST DUP2 DUP2 SUB PUSH1 0x40 DUP4 ADD MSTORE PUSH2 0x3507 DUP2 DUP6 PUSH2 0x3292 JUMP JUMPDEST SWAP1 POP PUSH2 0x3516 PUSH1 0x60 DUP4 ADD DUP5 PUSH2 0x324B JUMP JUMPDEST SWAP6 SWAP5 POP POP POP POP POP JUMP JUMPDEST PUSH0 DUP1 REVERT JUMPDEST PUSH0 DUP1 REVERT JUMPDEST PUSH32 0x4E487B7100000000000000000000000000000000000000000000000000000000 PUSH0 MSTORE PUSH1 0x41 PUSH1 0x4 MSTORE PUSH1 0x24 PUSH0 REVERT JUMPDEST PUSH2 0x355D DUP3 PUSH2 0x3282 JUMP JUMPDEST DUP2 ADD DUP2 DUP2 LT PUSH8 0xFFFFFFFFFFFFFFFF DUP3 GT OR ISZERO PUSH2 0x357C JUMPI PUSH2 0x357B PUSH2 0x3527 JUMP JUMPDEST JUMPDEST DUP1 PUSH1 0x40 MSTORE POP POP POP JUMP JUMPDEST PUSH0 PUSH2 0x358E PUSH2 0x316F JUMP JUMPDEST SWAP1 POP PUSH2 0x359A DUP3 DUP3 PUSH2 0x3554 JUMP JUMPDEST SWAP2 SWAP1 POP JUMP JUMPDEST PUSH0 PUSH8 0xFFFFFFFFFFFFFFFF DUP3 GT ISZERO PUSH2 0x35B9 JUMPI PUSH2 0x35B8 PUSH2 0x3527 JUMP JUMPDEST JUMPDEST PUSH2 0x35C2 DUP3 PUSH2 0x3282 JUMP JUMPDEST SWAP1 POP PUSH1 0x20 DUP2 ADD SWAP1 POP SWAP2 SWAP1 POP JUMP JUMPDEST DUP3 DUP2 DUP4 CALLDATACOPY PUSH0 DUP4 DUP4 ADD MSTORE POP POP POP JUMP JUMPDEST PUSH0 PUSH2 0x35EF PUSH2 0x35EA DUP5 PUSH2 0x359F JUMP JUMPDEST PUSH2 0x3585 JUMP JUMPDEST SWAP1 POP DUP3 DUP2 MSTORE PUSH1 0x20 DUP2 ADD DUP5 DUP5 DUP5 ADD GT ISZERO PUSH2 0x360B JUMPI PUSH2 0x360A PUSH2 0x3523 JUMP JUMPDEST JUMPDEST PUSH2 0x3616 DUP5 DUP3 DUP6 PUSH2 0x35CF JUMP JUMPDEST POP SWAP4 SWAP3 POP POP POP JUMP JUMPDEST PUSH0 DUP3 PUSH1 0x1F DUP4 ADD SLT PUSH2 0x3632 JUMPI PUSH2 0x3631 PUSH2 0x351F JUMP JUMPDEST JUMPDEST DUP2 CALLDATALOAD PUSH2 0x3642 DUP5 DUP3 PUSH1 0x20 DUP7 ADD PUSH2 0x35DD JUMP JUMPDEST SWAP2 POP POP SWAP3 SWAP2 POP POP JUMP JUMPDEST PUSH0 DUP1 PUSH0 DUP1 PUSH1 0x80 DUP6 DUP8 SUB SLT ISZERO PUSH2 0x3663 JUMPI PUSH2 0x3662 PUSH2 0x3178 JUMP JUMPDEST JUMPDEST PUSH0 DUP6 ADD CALLDATALOAD PUSH8 0xFFFFFFFFFFFFFFFF DUP2 GT ISZERO PUSH2 0x3680 JUMPI PUSH2 0x367F PUSH2 0x317C JUMP JUMPDEST JUMPDEST PUSH2 0x368C DUP8 DUP3 DUP9 ADD PUSH2 0x361E JUMP JUMPDEST SWAP5 POP POP PUSH1 0x20 DUP6 ADD CALLDATALOAD PUSH8 0xFFFFFFFFFFFFFFFF DUP2 GT ISZERO PUSH2 0x36AD JUMPI PUSH2 0x36AC PUSH2 0x317C JUMP JUMPDEST JUMPDEST PUSH2 0x36B9 DUP8 DUP3 DUP9 ADD PUSH2 0x361E JUMP JUMPDEST SWAP4 POP POP PUSH1 0x40 PUSH2 0x36CA DUP8 DUP3 DUP9 ADD PUSH2 0x31F9 JUMP JUMPDEST SWAP3 POP POP PUSH1 0x60 PUSH2 0x36DB DUP8 DUP3 DUP9 ADD PUSH2 0x31F9 JUMP JUMPDEST SWAP2 POP POP SWAP3 SWAP6 SWAP2 SWAP5 POP SWAP3 POP JUMP JUMPDEST PUSH0 PUSH1 0x20 DUP3 DUP5 SUB SLT ISZERO PUSH2 0x36FC JUMPI PUSH2 0x36FB PUSH2 0x3178 JUMP JUMPDEST JUMPDEST PUSH0 PUSH2 0x3709 DUP5 DUP3 DUP6 ADD PUSH2 0x31C6 JUMP JUMPDEST SWAP2 POP POP SWAP3 SWAP2 POP POP JUMP JUMPDEST PUSH0 DUP1 PUSH1 0x40 DUP4 DUP6 SUB SLT ISZERO PUSH2 0x3728 JUMPI PUSH2 0x3727 PUSH2 0x3178 JUMP JUMPDEST JUMPDEST PUSH0 PUSH2 0x3735 DUP6 DUP3 DUP7 ADD PUSH2 0x31C6 JUMP JUMPDEST SWAP3 POP POP PUSH1 0x20 PUSH2 0x3746 DUP6 DUP3 DUP7 ADD PUSH2 0x31C6 JUMP JUMPDEST SWAP2 POP POP SWAP3 POP SWAP3 SWAP1 POP JUMP JUMPDEST PUSH0 PUSH1 0x20 DUP3 ADD SWAP1 POP PUSH2 0x3763 PUSH0 DUP4 ADD DUP5 PUSH2 0x32E4 JUMP JUMPDEST SWAP3 SWAP2 POP POP JUMP JUMPDEST PUSH0 DUP1 PUSH0 DUP1 PUSH1 0x80 DUP6 DUP8 SUB SLT ISZERO PUSH2 0x3781 JUMPI PUSH2 0x3780 PUSH2 0x3178 JUMP JUMPDEST JUMPDEST PUSH0 PUSH2 0x378E DUP8 DUP3 DUP9 ADD PUSH2 0x31F9 JUMP JUMPDEST SWAP5 POP POP PUSH1 0x20 PUSH2 0x379F DUP8 DUP3 DUP9 ADD PUSH2 0x31C6 JUMP JUMPDEST SWAP4 POP POP PUSH1 0x40 PUSH2 0x37B0 DUP8 DUP3 DUP9 ADD PUSH2 0x31F9 JUMP JUMPDEST SWAP3 POP POP PUSH1 0x60 PUSH2 0x37C1 DUP8 DUP3 DUP9 ADD PUSH2 0x3471 JUMP JUMPDEST SWAP2 POP POP SWAP3 SWAP6 SWAP2 SWAP5 POP SWAP3 POP JUMP JUMPDEST PUSH0 DUP1 PUSH0 PUSH1 0x60 DUP5 DUP7 SUB SLT ISZERO PUSH2 0x37E4 JUMPI PUSH2 0x37E3 PUSH2 0x3178 JUMP JUMPDEST JUMPDEST PUSH0 PUSH2 0x37F1 DUP7 DUP3 DUP8 ADD PUSH2 0x31C6 JUMP JUMPDEST SWAP4 POP POP PUSH1 0x20 PUSH2 0x3802 DUP7 DUP3 DUP8 ADD PUSH2 0x31F9 JUMP JUMPDEST SWAP3 POP POP PUSH1 0x40 PUSH2 0x3813 DUP7 DUP3 DUP8 ADD PUSH2 0x31F9 JUMP JUMPDEST SWAP2 POP POP SWAP3 POP SWAP3 POP SWAP3 JUMP JUMPDEST PUSH0 PUSH1 0x40 DUP3 ADD SWAP1 POP PUSH2 0x3830 PUSH0 DUP4 ADD DUP6 PUSH2 0x32CA JUMP JUMPDEST PUSH2 0x383D PUSH1 0x20 DUP4 ADD DUP5 PUSH2 0x324B JUMP JUMPDEST SWAP4 SWAP3 POP POP POP JUMP JUMPDEST PUSH32 0x4E487B7100000000000000000000000000000000000000000000000000000000 PUSH0 MSTORE PUSH1 0x22 PUSH1 0x4 MSTORE PUSH1 0x24 PUSH0 REVERT JUMPDEST PUSH0 PUSH1 0x2 DUP3 DIV SWAP1 POP PUSH1 0x1 DUP3 AND DUP1 PUSH2 0x3888 JUMPI PUSH1 0x7F DUP3 AND SWAP2 POP JUMPDEST PUSH1 0x20 DUP3 LT DUP2 SUB PUSH2 0x389B JUMPI PUSH2 0x389A PUSH2 0x3844 JUMP JUMPDEST JUMPDEST POP SWAP2 SWAP1 POP JUMP JUMPDEST PUSH32 0x5468657265204973204E6F2043616D706169676E204279205468617420616464 PUSH0 DUP3 ADD MSTORE PUSH32 0x7265737321000000000000000000000000000000000000000000000000000000 PUSH1 0x20 DUP3 ADD MSTORE POP JUMP JUMPDEST PUSH0 PUSH2 0x38FB PUSH1 0x25 DUP4 PUSH2 0x3264 JUMP JUMPDEST SWAP2 POP PUSH2 0x3906 DUP3 PUSH2 0x38A1 JUMP JUMPDEST PUSH1 0x40 DUP3 ADD SWAP1 POP SWAP2 SWAP1 POP JUMP JUMPDEST PUSH0 PUSH1 0x20 DUP3 ADD SWAP1 POP DUP2 DUP2 SUB PUSH0 DUP4 ADD MSTORE PUSH2 0x3928 DUP2 PUSH2 0x38EF JUMP JUMPDEST SWAP1 POP SWAP2 SWAP1 POP JUMP JUMPDEST PUSH32 0x4E487B7100000000000000000000000000000000000000000000000000000000 PUSH0 MSTORE PUSH1 0x11 PUSH1 0x4 MSTORE PUSH1 0x24 PUSH0 REVERT JUMPDEST PUSH0 PUSH2 0x3966 DUP3 PUSH2 0x31DA JUMP JUMPDEST SWAP2 POP PUSH2 0x3971 DUP4 PUSH2 0x31DA JUMP JUMPDEST SWAP3 POP DUP3 DUP3 SUB SWAP1 POP DUP2 DUP2 GT ISZERO PUSH2 0x3989 JUMPI PUSH2 0x3988 PUSH2 0x392F JUMP JUMPDEST JUMPDEST SWAP3 SWAP2 POP POP JUMP JUMPDEST PUSH32 0x4E487B7100000000000000000000000000000000000000000000000000000000 PUSH0 MSTORE PUSH1 0x32 PUSH1 0x4 MSTORE PUSH1 0x24 PUSH0 REVERT JUMPDEST PUSH32 0x5468652043616D706169676E2053706563696669656420446F6573204E6F7420 PUSH0 DUP3 ADD MSTORE PUSH32 0x4578697374210000000000000000000000000000000000000000000000000000 PUSH1 0x20 DUP3 ADD MSTORE POP JUMP JUMPDEST PUSH0 PUSH2 0x3A16 PUSH1 0x26 DUP4 PUSH2 0x3264 JUMP JUMPDEST SWAP2 POP PUSH2 0x3A21 DUP3 PUSH2 0x39BC JUMP JUMPDEST PUSH1 0x40 DUP3 ADD SWAP1 POP SWAP2 SWAP1 POP JUMP JUMPDEST PUSH0 PUSH1 0x20 DUP3 ADD SWAP1 POP DUP2 DUP2 SUB PUSH0 DUP4 ADD MSTORE PUSH2 0x3A43 DUP2 PUSH2 0x3A0A JUMP JUMPDEST SWAP1 POP SWAP2 SWAP1 POP JUMP JUMPDEST PUSH32 0x4F6E6C792041646D696E732043616E20506572666F726D205468697320416374 PUSH0 DUP3 ADD MSTORE PUSH32 0x696F6E2100000000000000000000000000000000000000000000000000000000 PUSH1 0x20 DUP3 ADD MSTORE POP JUMP JUMPDEST PUSH0 PUSH2 0x3AA4 PUSH1 0x24 DUP4 PUSH2 0x3264 JUMP JUMPDEST SWAP2 POP PUSH2 0x3AAF DUP3 PUSH2 0x3A4A JUMP JUMPDEST PUSH1 0x40 DUP3 ADD SWAP1 POP SWAP2 SWAP1 POP JUMP JUMPDEST PUSH0 PUSH1 0x20 DUP3 ADD SWAP1 POP DUP2 DUP2 SUB PUSH0 DUP4 ADD MSTORE PUSH2 0x3AD1 DUP2 PUSH2 0x3A98 JUMP JUMPDEST SWAP1 POP SWAP2 SWAP1 POP JUMP JUMPDEST PUSH32 0x546869732043616D706169676E204973205375636365737366756C2043616E6E PUSH0 DUP3 ADD MSTORE PUSH32 0x6F742062652043616E63656C6C65642100000000000000000000000000000000 PUSH1 0x20 DUP3 ADD MSTORE POP JUMP JUMPDEST PUSH0 PUSH2 0x3B32 PUSH1 0x30 DUP4 PUSH2 0x3264 JUMP JUMPDEST SWAP2 POP PUSH2 0x3B3D DUP3 PUSH2 0x3AD8 JUMP JUMPDEST PUSH1 0x40 DUP3 ADD SWAP1 POP SWAP2 SWAP1 POP JUMP JUMPDEST PUSH0 PUSH1 0x20 DUP3 ADD SWAP1 POP DUP2 DUP2 SUB PUSH0 DUP4 ADD MSTORE PUSH2 0x3B5F DUP2 PUSH2 0x3B26 JUMP JUMPDEST SWAP1 POP SWAP2 SWAP1 POP JUMP JUMPDEST PUSH32 0x496E73756666696369656E7420636F6E74726163742062616C616E6365000000 PUSH0 DUP3 ADD MSTORE POP JUMP JUMPDEST PUSH0 PUSH2 0x3B9A PUSH1 0x1D DUP4 PUSH2 0x3264 JUMP JUMPDEST SWAP2 POP PUSH2 0x3BA5 DUP3 PUSH2 0x3B66 JUMP JUMPDEST PUSH1 0x20 DUP3 ADD SWAP1 POP SWAP2 SWAP1 POP JUMP JUMPDEST PUSH0 PUSH1 0x20 DUP3 ADD SWAP1 POP DUP2 DUP2 SUB PUSH0 DUP4 ADD MSTORE PUSH2 0x3BC7 DUP2 PUSH2 0x3B8E JUMP JUMPDEST SWAP1 POP SWAP2 SWAP1 POP JUMP JUMPDEST PUSH0 DUP2 SWAP1 POP SWAP3 SWAP2 POP POP JUMP JUMPDEST POP JUMP JUMPDEST PUSH0 PUSH2 0x3BE6 PUSH0 DUP4 PUSH2 0x3BCE JUMP JUMPDEST SWAP2 POP PUSH2 0x3BF1 DUP3 PUSH2 0x3BD8 JUMP JUMPDEST PUSH0 DUP3 ADD SWAP1 POP SWAP2 SWAP1 POP JUMP JUMPDEST PUSH0 PUSH2 0x3C05 DUP3 PUSH2 0x3BDB JUMP JUMPDEST SWAP2 POP DUP2 SWAP1 POP SWAP2 SWAP1 POP JUMP JUMPDEST PUSH32 0x5472616E73666572206661696C65640000000000000000000000000000000000 PUSH0 DUP3 ADD MSTORE POP JUMP JUMPDEST PUSH0 PUSH2 0x3C43 PUSH1 0xF DUP4 PUSH2 0x3264 JUMP JUMPDEST SWAP2 POP PUSH2 0x3C4E DUP3 PUSH2 0x3C0F JUMP JUMPDEST PUSH1 0x20 DUP3 ADD SWAP1 POP SWAP2 SWAP1 POP JUMP JUMPDEST PUSH0 PUSH1 0x20 DUP3 ADD SWAP1 POP DUP2 DUP2 SUB PUSH0 DUP4 ADD MSTORE PUSH2 0x3C70 DUP2 PUSH2 0x3C37 JUMP JUMPDEST SWAP1 POP SWAP2 SWAP1 POP JUMP JUMPDEST PUSH0 PUSH2 0x3C81 DUP3 PUSH2 0x31DA JUMP JUMPDEST SWAP2 POP PUSH2 0x3C8C DUP4 PUSH2 0x31DA JUMP JUMPDEST SWAP3 POP DUP3 DUP3 ADD SWAP1 POP DUP1 DUP3 GT ISZERO PUSH2 0x3CA4 JUMPI PUSH2 0x3CA3 PUSH2 0x392F JUMP JUMPDEST JUMPDEST SWAP3 SWAP2 POP POP JUMP JUMPDEST PUSH0 PUSH1 0x80 DUP3 ADD SWAP1 POP PUSH2 0x3CBD PUSH0 DUP4 ADD DUP8 PUSH2 0x32CA JUMP JUMPDEST PUSH2 0x3CCA PUSH1 0x20 DUP4 ADD DUP7 PUSH2 0x324B JUMP JUMPDEST PUSH2 0x3CD7 PUSH1 0x40 DUP4 ADD DUP6 PUSH2 0x32CA JUMP JUMPDEST PUSH2 0x3CE4 PUSH1 0x60 DUP4 ADD DUP5 PUSH2 0x324B JUMP JUMPDEST SWAP6 SWAP5 POP POP POP POP POP JUMP JUMPDEST PUSH32 0x526566756E642057617320556E7375636365737366756C210000000000000000 PUSH0 DUP3 ADD MSTORE POP JUMP JUMPDEST PUSH0 PUSH2 0x3D21 PUSH1 0x18 DUP4 PUSH2 0x3264 JUMP JUMPDEST SWAP2 POP PUSH2 0x3D2C DUP3 PUSH2 0x3CED JUMP JUMPDEST PUSH1 0x20 DUP3 ADD SWAP1 POP SWAP2 SWAP1 POP JUMP JUMPDEST PUSH0 PUSH1 0x20 DUP3 ADD SWAP1 POP DUP2 DUP2 SUB PUSH0 DUP4 ADD MSTORE PUSH2 0x3D4E DUP2 PUSH2 0x3D15 JUMP JUMPDEST SWAP1 POP SWAP2 SWAP1 POP JUMP JUMPDEST PUSH32 0x546869732043616D706169676E2048617320416C726561647920526169736564 PUSH0 DUP3 ADD MSTORE PUSH32 0x2046756E64732120526566756E64204669727374205468656E2043616E63656C PUSH1 0x20 DUP3 ADD MSTORE PUSH32 0x2100000000000000000000000000000000000000000000000000000000000000 PUSH1 0x40 DUP3 ADD MSTORE POP JUMP JUMPDEST PUSH0 PUSH2 0x3DD5 PUSH1 0x41 DUP4 PUSH2 0x3264 JUMP JUMPDEST SWAP2 POP PUSH2 0x3DE0 DUP3 PUSH2 0x3D55 JUMP JUMPDEST PUSH1 0x60 DUP3 ADD SWAP1 POP SWAP2 SWAP1 POP JUMP JUMPDEST PUSH0 PUSH1 0x20 DUP3 ADD SWAP1 POP DUP2 DUP2 SUB PUSH0 DUP4 ADD MSTORE PUSH2 0x3E02 DUP2 PUSH2 0x3DC9 JUMP JUMPDEST SWAP1 POP SWAP2 SWAP1 POP JUMP JUMPDEST PUSH32 0x546869732043616D706169676E2048617320416C7265616479204265656E2043 PUSH0 DUP3 ADD MSTORE PUSH32 0x6F6D706C65746564210000000000000000000000000000000000000000000000 PUSH1 0x20 DUP3 ADD MSTORE POP JUMP JUMPDEST PUSH0 PUSH2 0x3E63 PUSH1 0x29 DUP4 PUSH2 0x3264 JUMP JUMPDEST SWAP2 POP PUSH2 0x3E6E DUP3 PUSH2 0x3E09 JUMP JUMPDEST PUSH1 0x40 DUP3 ADD SWAP1 POP SWAP2 SWAP1 POP JUMP JUMPDEST PUSH0 PUSH1 0x20 DUP3 ADD SWAP1 POP DUP2 DUP2 SUB PUSH0 DUP4 ADD MSTORE PUSH2 0x3E90 DUP2 PUSH2 0x3E57 JUMP JUMPDEST SWAP1 POP SWAP2 SWAP1 POP JUMP JUMPDEST PUSH0 DUP2 SWAP1 POP SWAP3 SWAP2 POP POP JUMP JUMPDEST PUSH32 0x5468652043616D706169676E2000000000000000000000000000000000000000 PUSH0 DUP3 ADD MSTORE POP JUMP JUMPDEST PUSH0 PUSH2 0x3ED5 PUSH1 0xD DUP4 PUSH2 0x3E97 JUMP JUMPDEST SWAP2 POP PUSH2 0x3EE0 DUP3 PUSH2 0x3EA1 JUMP JUMPDEST PUSH1 0xD DUP3 ADD SWAP1 POP SWAP2 SWAP1 POP JUMP JUMPDEST PUSH0 DUP2 SWAP1 POP SWAP2 SWAP1 POP JUMP JUMPDEST PUSH2 0x3F05 PUSH2 0x3F00 DUP3 PUSH2 0x31DA JUMP JUMPDEST PUSH2 0x3EEB JUMP JUMPDEST DUP3 MSTORE POP POP JUMP JUMPDEST PUSH32 0x20446F6573204E4F542045786973742100000000000000000000000000000000 PUSH0 DUP3 ADD MSTORE POP JUMP JUMPDEST PUSH0 PUSH2 0x3F3F PUSH1 0x10 DUP4 PUSH2 0x3E97 JUMP JUMPDEST SWAP2 POP PUSH2 0x3F4A DUP3 PUSH2 0x3F0B JUMP JUMPDEST PUSH1 0x10 DUP3 ADD SWAP1 POP SWAP2 SWAP1 POP JUMP JUMPDEST PUSH0 PUSH2 0x3F5F DUP3 PUSH2 0x3EC9 JUMP JUMPDEST SWAP2 POP PUSH2 0x3F6B DUP3 DUP5 PUSH2 0x3EF4 JUMP JUMPDEST PUSH1 0x20 DUP3 ADD SWAP2 POP PUSH2 0x3F7A DUP3 PUSH2 0x3F33 JUMP JUMPDEST SWAP2 POP DUP2 SWAP1 POP SWAP3 SWAP2 POP POP JUMP JUMPDEST PUSH0 PUSH1 0x20 DUP3 ADD SWAP1 POP DUP2 DUP2 SUB PUSH0 DUP4 ADD MSTORE PUSH2 0x3F9D DUP2 DUP5 PUSH2 0x3292 JUMP JUMPDEST SWAP1 POP SWAP3 SWAP2 POP POP JUMP JUMPDEST PUSH32 0x546869732043616D706169676E277320446561646C696E652048617320506173 PUSH0 DUP3 ADD MSTORE PUSH32 0x7365642100000000000000000000000000000000000000000000000000000000 PUSH1 0x20 DUP3 ADD MSTORE POP JUMP JUMPDEST PUSH0 PUSH2 0x3FFF PUSH1 0x24 DUP4 PUSH2 0x3264 JUMP JUMPDEST SWAP2 POP PUSH2 0x400A DUP3 PUSH2 0x3FA5 JUMP JUMPDEST PUSH1 0x40 DUP3 ADD SWAP1 POP SWAP2 SWAP1 POP JUMP JUMPDEST PUSH0 PUSH1 0x20 DUP3 ADD SWAP1 POP DUP2 DUP2 SUB PUSH0 DUP4 ADD MSTORE PUSH2 0x402C DUP2 PUSH2 0x3FF3 JUMP JUMPDEST SWAP1 POP SWAP2 SWAP1 POP JUMP JUMPDEST PUSH32 0x2700000000000000000000000000000000000000000000000000000000000000 PUSH0 DUP3 ADD MSTORE POP JUMP JUMPDEST PUSH0 PUSH2 0x4067 PUSH1 0x1 DUP4 PUSH2 0x3E97 JUMP JUMPDEST SWAP2 POP PUSH2 0x4072 DUP3 PUSH2 0x4033 JUMP JUMPDEST PUSH1 0x1 DUP3 ADD SWAP1 POP SWAP2 SWAP1 POP JUMP JUMPDEST PUSH0 DUP2 SWAP1 POP DUP2 PUSH0 MSTORE PUSH1 0x20 PUSH0 KECCAK256 SWAP1 POP SWAP2 SWAP1 POP JUMP JUMPDEST PUSH0 DUP2 SLOAD PUSH2 0x409B DUP2 PUSH2 0x3871 JUMP JUMPDEST PUSH2 0x40A5 DUP2 DUP7 PUSH2 0x3E97 JUMP JUMPDEST SWAP5 POP PUSH1 0x1 DUP3 AND PUSH0 DUP2 EQ PUSH2 0x40BF JUMPI PUSH1 0x1 DUP2 EQ PUSH2 0x40D4 JUMPI PUSH2 0x4106 JUMP JUMPDEST PUSH1 0xFF NOT DUP4 AND DUP7 MSTORE DUP2 ISZERO ISZERO DUP3 MUL DUP7 ADD SWAP4 POP PUSH2 0x4106 JUMP JUMPDEST PUSH2 0x40DD DUP6 PUSH2 0x407D JUMP JUMPDEST PUSH0 JUMPDEST DUP4 DUP2 LT ISZERO PUSH2 0x40FE JUMPI DUP2 SLOAD DUP2 DUP10 ADD MSTORE PUSH1 0x1 DUP3 ADD SWAP2 POP PUSH1 0x20 DUP2 ADD SWAP1 POP PUSH2 0x40DF JUMP JUMPDEST DUP4 DUP9 ADD SWAP6 POP POP POP JUMPDEST POP POP POP SWAP3 SWAP2 POP POP JUMP JUMPDEST PUSH32 0x272043616D706169676E205761732043616E63616C6C65642100000000000000 PUSH0 DUP3 ADD MSTORE POP JUMP JUMPDEST PUSH0 PUSH2 0x4143 PUSH1 0x19 DUP4 PUSH2 0x3E97 JUMP JUMPDEST SWAP2 POP PUSH2 0x414E DUP3 PUSH2 0x410F JUMP JUMPDEST PUSH1 0x19 DUP3 ADD SWAP1 POP SWAP2 SWAP1 POP JUMP JUMPDEST PUSH0 PUSH2 0x4163 DUP3 PUSH2 0x405B JUMP JUMPDEST SWAP2 POP PUSH2 0x416F DUP3 DUP5 PUSH2 0x408F JUMP JUMPDEST SWAP2 POP PUSH2 0x417A DUP3 PUSH2 0x4137 JUMP JUMPDEST SWAP2 POP DUP2 SWAP1 POP SWAP3 SWAP2 POP POP JUMP JUMPDEST PUSH32 0x272043616D706169676E2057617320436F6D706C657465642100000000000000 PUSH0 DUP3 ADD MSTORE POP JUMP JUMPDEST PUSH0 PUSH2 0x41B9 PUSH1 0x19 DUP4 PUSH2 0x3E97 JUMP JUMPDEST SWAP2 POP PUSH2 0x41C4 DUP3 PUSH2 0x4185 JUMP JUMPDEST PUSH1 0x19 DUP3 ADD SWAP1 POP SWAP2 SWAP1 POP JUMP JUMPDEST PUSH0 PUSH2 0x41D9 DUP3 PUSH2 0x405B JUMP JUMPDEST SWAP2 POP PUSH2 0x41E5 DUP3 DUP5 PUSH2 0x408F JUMP JUMPDEST SWAP2 POP PUSH2 0x41F0 DUP3 PUSH2 0x41AD JUMP JUMPDEST SWAP2 POP DUP2 SWAP1 POP SWAP3 SWAP2 POP POP JUMP JUMPDEST PUSH32 0x446F6E6174696F6E20416D6F756E742043616E6E6F74206265205A65726F0000 PUSH0 DUP3 ADD MSTORE POP JUMP JUMPDEST PUSH0 PUSH2 0x422F PUSH1 0x1E DUP4 PUSH2 0x3264 JUMP JUMPDEST SWAP2 POP PUSH2 0x423A DUP3 PUSH2 0x41FB JUMP JUMPDEST PUSH1 0x20 DUP3 ADD SWAP1 POP SWAP2 SWAP1 POP JUMP JUMPDEST PUSH0 PUSH1 0x20 DUP3 ADD SWAP1 POP DUP2 DUP2 SUB PUSH0 DUP4 ADD MSTORE PUSH2 0x425C DUP2 PUSH2 0x4223 JUMP JUMPDEST SWAP1 POP SWAP2 SWAP1 POP JUMP JUMPDEST PUSH32 0x54686520416D6F756E7420416E642056616C756520446F6E2774204D61746368 PUSH0 DUP3 ADD MSTORE PUSH32 0x2100000000000000000000000000000000000000000000000000000000000000 PUSH1 0x20 DUP3 ADD MSTORE POP JUMP JUMPDEST PUSH0 PUSH2 0x42BD PUSH1 0x21 DUP4 PUSH2 0x3264 JUMP JUMPDEST SWAP2 POP PUSH2 0x42C8 DUP3 PUSH2 0x4263 JUMP JUMPDEST PUSH1 0x40 DUP3 ADD SWAP1 POP SWAP2 SWAP1 POP JUMP JUMPDEST PUSH0 PUSH1 0x20 DUP3 ADD SWAP1 POP DUP2 DUP2 SUB PUSH0 DUP4 ADD MSTORE PUSH2 0x42EA DUP2 PUSH2 0x42B1 JUMP JUMPDEST SWAP1 POP SWAP2 SWAP1 POP JUMP JUMPDEST PUSH0 DUP2 SWAP1 POP SWAP2 SWAP1 POP JUMP JUMPDEST PUSH0 PUSH2 0x4314 PUSH2 0x430F PUSH2 0x430A DUP5 PUSH2 0x3180 JUMP JUMPDEST PUSH2 0x42F1 JUMP JUMPDEST PUSH2 0x3180 JUMP JUMPDEST SWAP1 POP SWAP2 SWAP1 POP JUMP JUMPDEST PUSH0 PUSH2 0x4325 DUP3 PUSH2 0x42FA JUMP JUMPDEST SWAP1 POP SWAP2 SWAP1 POP JUMP JUMPDEST PUSH0 PUSH2 0x4336 DUP3 PUSH2 0x431B JUMP JUMPDEST SWAP1 POP SWAP2 SWAP1 POP JUMP JUMPDEST PUSH2 0x4346 DUP2 PUSH2 0x432C JUMP JUMPDEST DUP3 MSTORE POP POP JUMP JUMPDEST PUSH0 PUSH1 0x40 DUP3 ADD SWAP1 POP PUSH2 0x435F PUSH0 DUP4 ADD DUP6 PUSH2 0x433D JUMP JUMPDEST PUSH2 0x436C PUSH1 0x20 DUP4 ADD DUP5 PUSH2 0x324B JUMP JUMPDEST SWAP4 SWAP3 POP POP POP JUMP JUMPDEST PUSH0 PUSH1 0x20 PUSH1 0x1F DUP4 ADD DIV SWAP1 POP SWAP2 SWAP1 POP JUMP JUMPDEST PUSH0 DUP3 DUP3 SHL SWAP1 POP SWAP3 SWAP2 POP POP JUMP JUMPDEST PUSH0 PUSH1 0x8 DUP4 MUL PUSH2 0x43BD PUSH32 0xFFFFFFFFFFFFFFFFFFFFFFFFFFFFFFFFFFFFFFFFFFFFFFFFFFFFFFFFFFFFFFFF DUP3 PUSH2 0x4382 JUMP JUMPDEST PUSH2 0x43C7 DUP7 DUP4 PUSH2 0x4382 JUMP JUMPDEST SWAP6 POP DUP1 NOT DUP5 AND SWAP4 POP DUP1 DUP7 AND DUP5 OR SWAP3 POP POP POP SWAP4 SWAP3 POP POP POP JUMP JUMPDEST PUSH0 PUSH2 0x43F9 PUSH2 0x43F4 PUSH2 0x43EF DUP5 PUSH2 0x31DA JUMP JUMPDEST PUSH2 0x42F1 JUMP JUMPDEST PUSH2 0x31DA JUMP JUMPDEST SWAP1 POP SWAP2 SWAP1 POP JUMP JUMPDEST PUSH0 DUP2 SWAP1 POP SWAP2 SWAP1 POP JUMP JUMPDEST PUSH2 0x4412 DUP4 PUSH2 0x43DF JUMP JUMPDEST PUSH2 0x4426 PUSH2 0x441E DUP3 PUSH2 0x4400 JUMP JUMPDEST DUP5 DUP5 SLOAD PUSH2 0x438E JUMP JUMPDEST DUP3 SSTORE POP POP POP POP JUMP JUMPDEST PUSH0 SWAP1 JUMP JUMPDEST PUSH2 0x443A PUSH2 0x442E JUMP JUMPDEST PUSH2 0x4445 DUP2 DUP5 DUP5 PUSH2 0x4409 JUMP JUMPDEST POP POP POP JUMP JUMPDEST JUMPDEST DUP2 DUP2 LT ISZERO PUSH2 0x4468 JUMPI PUSH2 0x445D PUSH0 DUP3 PUSH2 0x4432 JUMP JUMPDEST PUSH1 0x1 DUP2 ADD SWAP1 POP PUSH2 0x444B JUMP JUMPDEST POP POP JUMP JUMPDEST PUSH1 0x1F DUP3 GT ISZERO PUSH2 0x44AD JUMPI PUSH2 0x447E DUP2 PUSH2 0x407D JUMP JUMPDEST PUSH2 0x4487 DUP5 PUSH2 0x4373 JUMP JUMPDEST DUP2 ADD PUSH1 0x20 DUP6 LT ISZERO PUSH2 0x4496 JUMPI DUP2 SWAP1 POP JUMPDEST PUSH2 0x44AA PUSH2 0x44A2 DUP6 PUSH2 0x4373 JUMP JUMPDEST DUP4 ADD DUP3 PUSH2 0x444A JUMP JUMPDEST POP POP JUMPDEST POP POP POP JUMP JUMPDEST PUSH0 DUP3 DUP3 SHR SWAP1 POP SWAP3 SWAP2 POP POP JUMP JUMPDEST PUSH0 PUSH2 0x44CD PUSH0 NOT DUP5 PUSH1 0x8 MUL PUSH2 0x44B2 JUMP JUMPDEST NOT DUP1 DUP4 AND SWAP2 POP POP SWAP3 SWAP2 POP POP JUMP JUMPDEST PUSH0 PUSH2 0x44E5 DUP4 DUP4 PUSH2 0x44BE JUMP JUMPDEST SWAP2 POP DUP3 PUSH1 0x2 MUL DUP3 OR SWAP1 POP SWAP3 SWAP2 POP POP JUMP JUMPDEST PUSH2 0x44FE DUP3 PUSH2 0x325A JUMP JUMPDEST PUSH8 0xFFFFFFFFFFFFFFFF DUP2 GT ISZERO PUSH2 0x4517 JUMPI PUSH2 0x4516 PUSH2 0x3527 JUMP JUMPDEST JUMPDEST PUSH2 0x4521 DUP3 SLOAD PUSH2 0x3871 JUMP JUMPDEST PUSH2 0x452C DUP3 DUP3 DUP6 PUSH2 0x446C JUMP JUMPDEST PUSH0 PUSH1 0x20 SWAP1 POP PUSH1 0x1F DUP4 GT PUSH1 0x1 DUP2 EQ PUSH2 0x455D JUMPI PUSH0 DUP5 ISZERO PUSH2 0x454B JUMPI DUP3 DUP8 ADD MLOAD SWAP1 POP JUMPDEST PUSH2 0x4555 DUP6 DUP3 PUSH2 0x44DA JUMP JUMPDEST DUP7 SSTORE POP PUSH2 0x45BC JUMP JUMPDEST PUSH1 0x1F NOT DUP5 AND PUSH2 0x456B DUP7 PUSH2 0x407D JUMP JUMPDEST PUSH0 JUMPDEST DUP3 DUP2 LT ISZERO PUSH2 0x4592 JUMPI DUP5 DUP10 ADD MLOAD DUP3 SSTORE PUSH1 0x1 DUP3 ADD SWAP2 POP PUSH1 0x20 DUP6 ADD SWAP5 POP PUSH1 0x20 DUP2 ADD SWAP1 POP PUSH2 0x456D JUMP JUMPDEST DUP7 DUP4 LT ISZERO PUSH2 0x45AF JUMPI DUP5 DUP10 ADD MLOAD PUSH2 0x45AB PUSH1 0x1F DUP10 AND DUP3 PUSH2 0x44BE JUMP JUMPDEST DUP4 SSTORE POP JUMPDEST PUSH1 0x1 PUSH1 0x2 DUP9 MUL ADD DUP9 SSTORE POP POP POP JUMPDEST POP POP POP POP POP POP JUMP JUMPDEST PUSH0 PUSH1 0x80 DUP3 ADD SWAP1 POP PUSH2 0x45D7 PUSH0 DUP4 ADD DUP8 PUSH2 0x32CA JUMP JUMPDEST PUSH2 0x45E4 PUSH1 0x20 DUP4 ADD DUP7 PUSH2 0x324B JUMP JUMPDEST PUSH2 0x45F1 PUSH1 0x40 DUP4 ADD DUP6 PUSH2 0x433D JUMP JUMPDEST PUSH2 0x45FE PUSH1 0x60 DUP4 ADD DUP5 PUSH2 0x324B JUMP JUMPDEST SWAP6 SWAP5 POP POP POP POP POP JUMP JUMPDEST PUSH0 PUSH2 0x4611 DUP3 PUSH2 0x325A JUMP JUMPDEST PUSH2 0x461B DUP2 DUP6 PUSH2 0x3E97 JUMP JUMPDEST SWAP4 POP PUSH2 0x462B DUP2 DUP6 PUSH1 0x20 DUP7 ADD PUSH2 0x3274 JUMP JUMPDEST DUP1 DUP5 ADD SWAP2 POP POP SWAP3 SWAP2 POP POP JUMP JUMPDEST PUSH0 PUSH2 0x4642 DUP3 DUP5 PUSH2 0x4607 JUMP JUMPDEST SWAP2 POP DUP2 SWAP1 POP SWAP3 SWAP2 POP POP JUMP JUMPDEST PUSH0 DUP2 SWAP1 POP DUP2 PUSH0 MSTORE PUSH1 0x20 PUSH0 KECCAK256 SWAP1 POP SWAP2 SWAP1 POP JUMP JUMPDEST PUSH0 DUP2 SLOAD PUSH2 0x466B DUP2 PUSH2 0x3871 JUMP JUMPDEST PUSH2 0x4675 DUP2 DUP7 PUSH2 0x3E97 JUMP JUMPDEST SWAP5 POP PUSH1 0x1 DUP3 AND PUSH0 DUP2 EQ PUSH2 0x468F JUMPI PUSH1 0x1 DUP2 EQ PUSH2 0x46A4 JUMPI PUSH2 0x46D6 JUMP JUMPDEST PUSH1 0xFF NOT DUP4 AND DUP7 MSTORE DUP2 ISZERO ISZERO DUP3 MUL DUP7 ADD SWAP4 POP PUSH2 0x46D6 JUMP JUMPDEST PUSH2 0x46AD DUP6 PUSH2 0x464D JUMP JUMPDEST PUSH0 JUMPDEST DUP4 DUP2 LT ISZERO PUSH2 0x46CE JUMPI DUP2 SLOAD DUP2 DUP10 ADD MSTORE PUSH1 0x1 DUP3 ADD SWAP2 POP PUSH1 0x20 DUP2 ADD SWAP1 POP PUSH2 0x46AF JUMP JUMPDEST DUP4 DUP9 ADD SWAP6 POP POP POP JUMPDEST POP POP POP SWAP3 SWAP2 POP POP JUMP JUMPDEST PUSH0 PUSH2 0x46EA DUP3 DUP5 PUSH2 0x465F JUMP JUMPDEST SWAP2 POP DUP2 SWAP1 POP SWAP3 SWAP2 POP POP JUMP JUMPDEST PUSH32 0x43616D706169676E200000000000000000000000000000000000000000000000 PUSH0 DUP3 ADD MSTORE POP JUMP JUMPDEST PUSH0 PUSH2 0x4729 PUSH1 0x9 DUP4 PUSH2 0x3E97 JUMP JUMPDEST SWAP2 POP PUSH2 0x4734 DUP3 PUSH2 0x46F5 JUMP JUMPDEST PUSH1 0x9 DUP3 ADD SWAP1 POP SWAP2 SWAP1 POP JUMP JUMPDEST PUSH32 0x20616C7265616479206578697374732100000000000000000000000000000000 PUSH0 DUP3 ADD MSTORE POP JUMP JUMPDEST PUSH0 PUSH2 0x4773 PUSH1 0x10 DUP4 PUSH2 0x3E97 JUMP JUMPDEST SWAP2 POP PUSH2 0x477E DUP3 PUSH2 0x473F JUMP JUMPDEST PUSH1 0x10 DUP3 ADD SWAP1 POP SWAP2 SWAP1 POP JUMP JUMPDEST PUSH0 PUSH2 0x4793 DUP3 PUSH2 0x471D JUMP JUMPDEST SWAP2 POP PUSH2 0x479F DUP3 DUP5 PUSH2 0x4607 JUMP JUMPDEST SWAP2 POP PUSH2 0x47AA DUP3 PUSH2 0x4767 JUMP JUMPDEST SWAP2 POP DUP2 SWAP1 POP SWAP3 SWAP2 POP POP JUMP JUMPDEST PUSH0 PUSH2 0x47BF DUP3 PUSH2 0x31DA JUMP JUMPDEST SWAP2 POP PUSH2 0x47CA DUP4 PUSH2 0x31DA JUMP JUMPDEST SWAP3 POP DUP3 DUP3 MUL PUSH2 0x47D8 DUP2 PUSH2 0x31DA JUMP JUMPDEST SWAP2 POP DUP3 DUP3 DIV DUP5 EQ DUP4 ISZERO OR PUSH2 0x47EF JUMPI PUSH2 0x47EE PUSH2 0x392F JUMP JUMPDEST JUMPDEST POP SWAP3 SWAP2 POP POP JUMP JUMPDEST PUSH0 PUSH1 0xA0 DUP3 ADD SWAP1 POP PUSH2 0x4809 PUSH0 DUP4 ADD DUP9 PUSH2 0x324B JUMP JUMPDEST PUSH2 0x4816 PUSH1 0x20 DUP4 ADD DUP8 PUSH2 0x32CA JUMP JUMPDEST DUP2 DUP2 SUB PUSH1 0x40 DUP4 ADD MSTORE PUSH2 0x4828 DUP2 DUP7 PUSH2 0x3292 JUMP JUMPDEST SWAP1 POP PUSH2 0x4837 PUSH1 0x60 DUP4 ADD DUP6 PUSH2 0x324B JUMP JUMPDEST PUSH2 0x4844 PUSH1 0x80 DUP4 ADD DUP5 PUSH2 0x324B JUMP JUMPDEST SWAP7 SWAP6 POP POP POP POP POP POP JUMP JUMPDEST PUSH32 0x54686973204164647265737320497320416C726561647920416E2041646D696E PUSH0 DUP3 ADD MSTORE PUSH32 0x2100000000000000000000000000000000000000000000000000000000000000 PUSH1 0x20 DUP3 ADD MSTORE POP JUMP JUMPDEST PUSH0 PUSH2 0x48A8 PUSH1 0x21 DUP4 PUSH2 0x3264 JUMP JUMPDEST SWAP2 POP PUSH2 0x48B3 DUP3 PUSH2 0x484E JUMP JUMPDEST PUSH1 0x40 DUP3 ADD SWAP1 POP SWAP2 SWAP1 POP JUMP JUMPDEST PUSH0 PUSH1 0x20 DUP3 ADD SWAP1 POP DUP2 DUP2 SUB PUSH0 DUP4 ADD MSTORE PUSH2 0x48D5 DUP2 PUSH2 0x489C JUMP JUMPDEST SWAP1 POP SWAP2 SWAP1 POP JUMP JUMPDEST PUSH32 0x596F752043616E27742057697468647261772046756E64732066726F6D20616E PUSH0 DUP3 ADD MSTORE PUSH32 0x204163746976652043616D706169676E00000000000000000000000000000000 PUSH1 0x20 DUP3 ADD MSTORE POP JUMP JUMPDEST PUSH0 PUSH2 0x4936 PUSH1 0x30 DUP4 PUSH2 0x3264 JUMP JUMPDEST SWAP2 POP PUSH2 0x4941 DUP3 PUSH2 0x48DC JUMP JUMPDEST PUSH1 0x40 DUP3 ADD SWAP1 POP SWAP2 SWAP1 POP JUMP JUMPDEST PUSH0 PUSH1 0x20 DUP3 ADD SWAP1 POP DUP2 DUP2 SUB PUSH0 DUP4 ADD MSTORE PUSH2 0x4963 DUP2 PUSH2 0x492A JUMP JUMPDEST SWAP1 POP SWAP2 SWAP1 POP JUMP JUMPDEST PUSH32 0x416D6F756E742043616E6E6F74206265205A65726F204F722045786365656420 PUSH0 DUP3 ADD MSTORE PUSH32 0x5468652052616973656420416D6F756E74210000000000000000000000000000 PUSH1 0x20 DUP3 ADD MSTORE POP JUMP JUMPDEST PUSH0 PUSH2 0x49C4 PUSH1 0x32 DUP4 PUSH2 0x3264 JUMP JUMPDEST SWAP2 POP PUSH2 0x49CF DUP3 PUSH2 0x496A JUMP JUMPDEST PUSH1 0x40 DUP3 ADD SWAP1 POP SWAP2 SWAP1 POP JUMP JUMPDEST PUSH0 PUSH1 0x20 DUP3 ADD SWAP1 POP DUP2 DUP2 SUB PUSH0 DUP4 ADD MSTORE PUSH2 0x49F1 DUP2 PUSH2 0x49B8 JUMP JUMPDEST SWAP1 POP SWAP2 SWAP1 POP JUMP JUMPDEST PUSH0 PUSH1 0xA0 DUP3 ADD SWAP1 POP PUSH2 0x4A0B PUSH0 DUP4 ADD DUP9 PUSH2 0x324B JUMP JUMPDEST PUSH2 0x4A18 PUSH1 0x20 DUP4 ADD DUP8 PUSH2 0x32CA JUMP JUMPDEST PUSH2 0x4A25 PUSH1 0x40 DUP4 ADD DUP7 PUSH2 0x433D JUMP JUMPDEST PUSH2 0x4A32 PUSH1 0x60 DUP4 ADD DUP6 PUSH2 0x32CA JUMP JUMPDEST PUSH2 0x4A3F PUSH1 0x80 DUP4 ADD DUP5 PUSH2 0x324B JUMP JUMPDEST SWAP7 SWAP6 POP POP POP POP POP POP JUMP JUMPDEST PUSH32 0x546869732041646472657373204973204E6F7420416E2041646D696E21000000 PUSH0 DUP3 ADD MSTORE POP JUMP JUMPDEST PUSH0 PUSH2 0x4A7D PUSH1 0x1D DUP4 PUSH2 0x3264 JUMP JUMPDEST SWAP2 POP PUSH2 0x4A88 DUP3 PUSH2 0x4A49 JUMP JUMPDEST PUSH1 0x20 DUP3 ADD SWAP1 POP SWAP2 SWAP1 POP JUMP JUMPDEST PUSH0 PUSH1 0x20 DUP3 ADD SWAP1 POP DUP2 DUP2 SUB PUSH0 DUP4 ADD MSTORE PUSH2 0x4AAA DUP2 PUSH2 0x4A71 JUMP JUMPDEST SWAP1 POP SWAP2 SWAP1 POP JUMP JUMPDEST PUSH32 0x4E487B7100000000000000000000000000000000000000000000000000000000 PUSH0 MSTORE PUSH1 0x31 PUSH1 0x4 MSTORE PUSH1 0x24 PUSH0 REVERT INVALID LOG2 PUSH5 0x6970667358 0x22 SLT KECCAK256 SWAP3 TLOAD BLOBBASEFEE 0x4B PUSH17 0x920A0C0C8A5ACEDBD77D84A512262CB093 ADD SWAP1 CALLDATALOAD MCOPY PUSH15 0x87EE71163864736F6C634300081A00 CALLER "
		},
		"gasEstimates": {
			"creation": {
				"codeDepositCost": "3844000",
				"executionCost": "4360",
				"totalCost": "3848360"
			},
			"external": {
				"addCampaignAdmin(address)": "infinite",
				"admins(address,address)": "infinite",
				"campaignAdmins(address,uint256)": "infinite",
				"campaigns(address,uint256)": "infinite",
				"cancelCampaign(uint256,address)": "infinite",
				"createCampaign(string,string,uint256,uint256)": "infinite",
				"donateToCampaign(address,uint256,uint256)": "infinite",
				"donors(address,uint256)": "infinite",
				"donorsForCampaign(address,uint256,uint256)": "infinite",
				"refundDonors(uint256,address)": "infinite",
				"removeCampaignAdmin(address)": "infinite",
				"withdrawFunds(uint256,address,uint256,address)": "infinite",
				"withdrawals(address,uint256)": "infinite"
			}
		},
		"methodIdentifiers": {
			"addCampaignAdmin(address)": "be18fda6",
			"admins(address,address)": "be21739e",
			"campaignAdmins(address,uint256)": "1f55e5bc",
			"campaigns(address,uint256)": "11555dbc",
			"cancelCampaign(uint256,address)": "39e9412f",
			"createCampaign(string,string,uint256,uint256)": "a318f269",
			"donateToCampaign(address,uint256,uint256)": "5a3915cd",
			"donors(address,uint256)": "9b56f5f0",
			"donorsForCampaign(address,uint256,uint256)": "e6c9099a",
			"refundDonors(uint256,address)": "25be946e",
			"removeCampaignAdmin(address)": "f1694aa1",
			"withdrawFunds(uint256,address,uint256,address)": "c14b8aac",
			"withdrawals(address,uint256)": "422b1077"
		}
	},
	"abi": [
		{
			"anonymous": false,
			"inputs": [
				{
					"indexed": false,
					"internalType": "address",
					"name": "admin",
					"type": "address"
				}
			],
			"name": "AddAdmin",
			"type": "event"
		},
		{
			"anonymous": false,
			"inputs": [
				{
					"indexed": false,
					"internalType": "address",
					"name": "campaignAddress",
					"type": "address"
				},
				{
					"indexed": false,
					"internalType": "uint256",
					"name": "campaign_id",
					"type": "uint256"
				}
			],
			"name": "CampaignCancelled",
			"type": "event"
		},
		{
			"anonymous": false,
			"inputs": [
				{
					"indexed": false,
					"internalType": "address",
					"name": "campaignAddress",
					"type": "address"
				},
				{
					"indexed": false,
					"internalType": "uint256",
					"name": "campaign_id",
					"type": "uint256"
				}
			],
			"name": "CampaignCompleted",
			"type": "event"
		},
		{
			"anonymous": false,
			"inputs": [
				{
					"indexed": false,
					"internalType": "uint256",
					"name": "campaign_id",
					"type": "uint256"
				},
				{
					"indexed": false,
					"internalType": "address",
					"name": "campaignAddress",
					"type": "address"
				},
				{
					"indexed": false,
					"internalType": "string",
					"name": "title",
					"type": "string"
				},
				{
					"indexed": false,
					"internalType": "uint256",
					"name": "targetAmount",
					"type": "uint256"
				},
				{
					"indexed": false,
					"internalType": "uint256",
					"name": "deadline",
					"type": "uint256"
				}
			],
			"name": "CampaignCreated",
			"type": "event"
		},
		{
			"anonymous": false,
			"inputs": [
				{
					"indexed": false,
					"internalType": "address",
					"name": "donor",
					"type": "address"
				},
				{
					"indexed": false,
					"internalType": "uint256",
					"name": "amount",
					"type": "uint256"
				},
				{
					"indexed": false,
					"internalType": "address",
					"name": "campaignAddress",
					"type": "address"
				},
				{
					"indexed": false,
					"internalType": "uint256",
					"name": "campaign_id",
					"type": "uint256"
				}
			],
			"name": "DonationReceived",
			"type": "event"
		},
		{
			"anonymous": false,
			"inputs": [
				{
					"indexed": false,
					"internalType": "uint256",
					"name": "amount",
					"type": "uint256"
				},
				{
					"indexed": false,
					"internalType": "address",
					"name": "by",
					"type": "address"
				},
				{
					"indexed": false,
					"internalType": "address",
					"name": "to",
					"type": "address"
				},
				{
					"indexed": false,
					"internalType": "address",
					"name": "from",
					"type": "address"
				},
				{
					"indexed": false,
					"internalType": "uint256",
					"name": "campaignId",
					"type": "uint256"
				}
			],
			"name": "FundsWithdrawn",
			"type": "event"
		},
		{
			"anonymous": false,
			"inputs": [
				{
					"indexed": false,
					"internalType": "address",
					"name": "campaignAddress",
					"type": "address"
				},
				{
					"indexed": false,
					"internalType": "uint256",
					"name": "campaignId",
					"type": "uint256"
				},
				{
					"indexed": false,
					"internalType": "address",
					"name": "to",
					"type": "address"
				},
				{
					"indexed": false,
					"internalType": "uint256",
					"name": "amount",
					"type": "uint256"
				}
			],
			"name": "RefundCampaignDonors",
			"type": "event"
		},
		{
			"anonymous": false,
			"inputs": [
				{
					"indexed": false,
					"internalType": "address",
					"name": "admin",
					"type": "address"
				}
			],
			"name": "RemoveAdmin",
			"type": "event"
		},
		{
			"inputs": [
				{
					"internalType": "address",
					"name": "_admin",
					"type": "address"
				}
			],
			"name": "addCampaignAdmin",
			"outputs": [],
			"stateMutability": "nonpayable",
			"type": "function"
		},
		{
			"inputs": [
				{
					"internalType": "address",
					"name": "",
					"type": "address"
				},
				{
					"internalType": "address",
					"name": "",
					"type": "address"
				}
			],
			"name": "admins",
			"outputs": [
				{
					"internalType": "bool",
					"name": "",
					"type": "bool"
				}
			],
			"stateMutability": "view",
			"type": "function"
		},
		{
			"inputs": [
				{
					"internalType": "address",
					"name": "",
					"type": "address"
				},
				{
					"internalType": "uint256",
					"name": "",
					"type": "uint256"
				}
			],
			"name": "campaignAdmins",
			"outputs": [
				{
					"internalType": "address",
					"name": "",
					"type": "address"
				}
			],
			"stateMutability": "view",
			"type": "function"
		},
		{
			"inputs": [
				{
					"internalType": "address",
					"name": "",
					"type": "address"
				},
				{
					"internalType": "uint256",
					"name": "",
					"type": "uint256"
				}
			],
			"name": "campaigns",
			"outputs": [
				{
					"internalType": "uint256",
					"name": "campaign_id",
					"type": "uint256"
				},
				{
					"internalType": "string",
					"name": "title",
					"type": "string"
				},
				{
					"internalType": "string",
					"name": "description",
					"type": "string"
				},
				{
					"internalType": "address",
					"name": "campaignAddress",
					"type": "address"
				},
				{
					"internalType": "uint256",
					"name": "targetAmount",
					"type": "uint256"
				},
				{
					"internalType": "uint256",
					"name": "raisedAmount",
					"type": "uint256"
				},
				{
					"internalType": "uint256",
					"name": "balance",
					"type": "uint256"
				},
				{
					"internalType": "uint256",
					"name": "deadline",
					"type": "uint256"
				},
				{
					"internalType": "bool",
					"name": "isCompleted",
					"type": "bool"
				},
				{
					"internalType": "bool",
					"name": "isCancelled",
					"type": "bool"
				}
			],
			"stateMutability": "view",
			"type": "function"
		},
		{
			"inputs": [
				{
					"internalType": "uint256",
					"name": "_campaignId",
					"type": "uint256"
				},
				{
					"internalType": "address",
					"name": "_campaignAddress",
					"type": "address"
				}
			],
			"name": "cancelCampaign",
			"outputs": [],
			"stateMutability": "nonpayable",
			"type": "function"
		},
		{
			"inputs": [
				{
					"internalType": "string",
					"name": "_title",
					"type": "string"
				},
				{
					"internalType": "string",
					"name": "_description",
					"type": "string"
				},
				{
					"internalType": "uint256",
					"name": "_target",
					"type": "uint256"
				},
				{
					"internalType": "uint256",
					"name": "_durationdays",
					"type": "uint256"
				}
			],
			"name": "createCampaign",
			"outputs": [],
			"stateMutability": "nonpayable",
			"type": "function"
		},
		{
			"inputs": [
				{
					"internalType": "address payable",
					"name": "_campaignAddress",
					"type": "address"
				},
				{
					"internalType": "uint256",
					"name": "_campaignId",
					"type": "uint256"
				},
				{
					"internalType": "uint256",
					"name": "_amount",
					"type": "uint256"
				}
			],
			"name": "donateToCampaign",
			"outputs": [],
			"stateMutability": "payable",
			"type": "function"
		},
		{
			"inputs": [
				{
					"internalType": "address",
					"name": "",
					"type": "address"
				},
				{
					"internalType": "uint256",
					"name": "",
					"type": "uint256"
				}
			],
			"name": "donors",
			"outputs": [
				{
					"internalType": "address",
					"name": "campaignAddress",
					"type": "address"
				},
				{
					"internalType": "uint256",
					"name": "campaignId",
					"type": "uint256"
				},
				{
					"internalType": "string",
					"name": "title",
					"type": "string"
				},
				{
					"internalType": "uint256",
					"name": "amount",
					"type": "uint256"
				}
			],
			"stateMutability": "view",
			"type": "function"
		},
		{
			"inputs": [
				{
					"internalType": "address",
					"name": "",
					"type": "address"
				},
				{
					"internalType": "uint256",
					"name": "",
					"type": "uint256"
				},
				{
					"internalType": "uint256",
					"name": "",
					"type": "uint256"
				}
			],
			"name": "donorsForCampaign",
			"outputs": [
				{
					"internalType": "address",
					"name": "by",
					"type": "address"
				},
				{
					"internalType": "uint256",
					"name": "amount",
					"type": "uint256"
				}
			],
			"stateMutability": "view",
			"type": "function"
		},
		{
			"inputs": [
				{
					"internalType": "uint256",
					"name": "_campaignId",
					"type": "uint256"
				},
				{
					"internalType": "address",
					"name": "_campaignAddress",
					"type": "address"
				}
			],
			"name": "refundDonors",
			"outputs": [],
			"stateMutability": "nonpayable",
			"type": "function"
		},
		{
			"inputs": [
				{
					"internalType": "address",
					"name": "_admin",
					"type": "address"
				}
			],
			"name": "removeCampaignAdmin",
			"outputs": [],
			"stateMutability": "nonpayable",
			"type": "function"
		},
		{
			"inputs": [
				{
					"internalType": "uint256",
					"name": "_campaignId",
					"type": "uint256"
				},
				{
					"internalType": "address",
					"name": "_campaignAddress",
					"type": "address"
				},
				{
					"internalType": "uint256",
					"name": "_amount",
					"type": "uint256"
				},
				{
					"internalType": "address payable",
					"name": "_to",
					"type": "address"
				}
			],
			"name": "withdrawFunds",
			"outputs": [],
			"stateMutability": "nonpayable",
			"type": "function"
		},
		{
			"inputs": [
				{
					"internalType": "address",
					"name": "",
					"type": "address"
				},
				{
					"internalType": "uint256",
					"name": "",
					"type": "uint256"
				}
			],
			"name": "withdrawals",
			"outputs": [
				{
					"internalType": "uint256",
					"name": "campaignId",
					"type": "uint256"
				},
				{
					"internalType": "string",
					"name": "title",
					"type": "string"
				},
				{
					"internalType": "uint256",
					"name": "amount",
					"type": "uint256"
				},
				{
					"internalType": "address",
					"name": "by",
					"type": "address"
				},
				{
					"internalType": "address",
					"name": "to",
					"type": "address"
				}
			],
			"stateMutability": "view",
			"type": "function"
		}
	]
}