{
	"data": {
		"bytecode": {
			"linkReferences": {},
			"object": "6080604052348015600e575f80fd5b503360065f6101000a81548173ffffffffffffffffffffffffffffffffffffffff021916908373ffffffffffffffffffffffffffffffffffffffff160217905550614a0f8061005c5f395ff3fe6080604052600436106100c1575f3560e01c80639b56f5f01161007e578063be21739e11610058578063be21739e14610280578063c14b8aac146102bc578063e6c9099a146102e4578063f1694aa114610321576100c1565b80639b56f5f0146101f1578063a318f26914610230578063be18fda614610258576100c1565b80630b39be65146100c557806311555dbc146100ed5780631f55e5bc1461013157806339e9412f1461016d578063422b1077146101955780635a3915cd146101d5575b5f80fd5b3480156100d0575f80fd5b506100eb60048036038101906100e691906130af565b610349565b005b3480156100f8575f80fd5b50610113600480360381019061010e9190613134565b610aed565b6040516101289998979695949392919061321a565b60405180910390f35b34801561013c575f80fd5b5061015760048036038101906101529190613134565b610c94565b60405161016491906132b3565b60405180910390f35b348015610178575f80fd5b50610193600480360381019061018e91906132cc565b610cdc565b005b3480156101a0575f80fd5b506101bb60048036038101906101b69190613134565b611260565b6040516101cc95949392919061330a565b60405180910390f35b6101ef60048036038101906101ea919061339d565b611370565b005b3480156101fc575f80fd5b5061021760048036038101906102129190613134565b611d34565b60405161022794939291906133ed565b60405180910390f35b34801561023b575f80fd5b5061025660048036038101906102519190613563565b611e1f565b005b348015610263575f80fd5b5061027e600480360381019061027991906135ff565b612228565b005b34801561028b575f80fd5b506102a660048036038101906102a1919061362a565b6124bf565b6040516102b39190613668565b60405180910390f35b3480156102c7575f80fd5b506102e260048036038101906102dd9190613681565b6124e9565b005b3480156102ef575f80fd5b5061030a600480360381019061030591906136e5565b612cc5565b604051610318929190613735565b60405180910390f35b34801561032c575f80fd5b50610347600480360381019061034291906135ff565b612d29565b005b33815f805f8473ffffffffffffffffffffffffffffffffffffffff1673ffffffffffffffffffffffffffffffffffffffff1681526020019081526020015f2080549050116103cc576040517f08c379a00000000000000000000000000000000000000000000000000000000081526004016103c3906137cc565b60405180910390fd5b805f808473ffffffffffffffffffffffffffffffffffffffff1673ffffffffffffffffffffffffffffffffffffffff1681526020019081526020015f206001836104169190613817565b815481106104275761042661384a565b5b905f5260205f2090600802015f015414610476576040517f08c379a000000000000000000000000000000000000000000000000000000000815260040161046d906138e7565b60405180910390fd5b60015f8373ffffffffffffffffffffffffffffffffffffffff1673ffffffffffffffffffffffffffffffffffffffff1681526020019081526020015f205f3373ffffffffffffffffffffffffffffffffffffffff1673ffffffffffffffffffffffffffffffffffffffff1681526020019081526020015f205f9054906101000a900460ff1661053a576040517f08c379a000000000000000000000000000000000000000000000000000000000815260040161053190613975565b60405180910390fd5b5f805f3373ffffffffffffffffffffffffffffffffffffffff1673ffffffffffffffffffffffffffffffffffffffff1681526020019081526020015f206001856105849190613817565b815481106105955761059461384a565b5b905f5260205f209060080201604051806101200160405290815f82015481526020016001820180546105c6906139c0565b80601f01602080910402602001604051908101604052809291908181526020018280546105f2906139c0565b801561063d5780601f106106145761010080835404028352916020019161063d565b820191905f5260205f20905b81548152906001019060200180831161062057829003601f168201915b50505050508152602001600282018054610656906139c0565b80601f0160208091040260200160405190810160405280929190818152602001828054610682906139c0565b80156106cd5780601f106106a4576101008083540402835291602001916106cd565b820191905f5260205f20905b8154815290600101906020018083116106b057829003601f168201915b50505050508152602001600382015f9054906101000a900473ffffffffffffffffffffffffffffffffffffffff1673ffffffffffffffffffffffffffffffffffffffff1673ffffffffffffffffffffffffffffffffffffffff168152602001600482015481526020016005820154815260200160068201548152602001600782015f9054906101000a900460ff161515151581526020016007820160019054906101000a900460ff161515151581525050905080608001518160a0015110801561079b5750478160a0015111155b6107da576040517f08c379a00000000000000000000000000000000000000000000000000000000081526004016107d190613a60565b60405180910390fd5b5f60055f3373ffffffffffffffffffffffffffffffffffffffff1673ffffffffffffffffffffffffffffffffffffffff1681526020019081526020015f205f8681526020019081526020015f20805480602002602001604051908101604052809291908181526020015f905b828210156108d4578382905f5260205f2090600202016040518060400160405290815f82015f9054906101000a900473ffffffffffffffffffffffffffffffffffffffff1673ffffffffffffffffffffffffffffffffffffffff1673ffffffffffffffffffffffffffffffffffffffff16815260200160018201548152505081526020019060010190610846565b5050505090505f805f5b8351811015610ae3575f803373ffffffffffffffffffffffffffffffffffffffff1673ffffffffffffffffffffffffffffffffffffffff1681526020019081526020015f206001896109309190613817565b815481106109415761094061384a565b5b905f5260205f2090600802016005015492508381815181106109665761096561384a565b5b6020026020010151602001518361097d9190613817565b9150815f803373ffffffffffffffffffffffffffffffffffffffff1673ffffffffffffffffffffffffffffffffffffffff1681526020019081526020015f2060018a6109c99190613817565b815481106109da576109d961384a565b5b905f5260205f209060080201600501819055505f848281518110610a0157610a0061384a565b5b60200260200101515f015190505f8173ffffffffffffffffffffffffffffffffffffffff16868481518110610a3957610a3861384a565b5b602002602001015160200151604051610a5190613aab565b5f6040518083038185875af1925050503d805f8114610a8b576040519150601f19603f3d011682016040523d82523d5f602084013e610a90565b606091505b5050905080610ad4576040517f08c379a0000000000000000000000000000000000000000000000000000000008152600401610acb90613b09565b60405180910390fd5b505080806001019150506108de565b5050505050505050565b5f602052815f5260405f208181548110610b05575f80fd5b905f5260205f2090600802015f9150915050805f015490806001018054610b2b906139c0565b80601f0160208091040260200160405190810160405280929190818152602001828054610b57906139c0565b8015610ba25780601f10610b7957610100808354040283529160200191610ba2565b820191905f5260205f20905b815481529060010190602001808311610b8557829003601f168201915b505050505090806002018054610bb7906139c0565b80601f0160208091040260200160405190810160405280929190818152602001828054610be3906139c0565b8015610c2e5780601f10610c0557610100808354040283529160200191610c2e565b820191905f5260205f20905b815481529060010190602001808311610c1157829003601f168201915b505050505090806003015f9054906101000a900473ffffffffffffffffffffffffffffffffffffffff1690806004015490806005015490806006015490806007015f9054906101000a900460ff16908060070160019054906101000a900460ff16905089565b6002602052815f5260405f208181548110610cad575f80fd5b905f5260205f20015f915091509054906101000a900473ffffffffffffffffffffffffffffffffffffffff1681565b80825f805f8473ffffffffffffffffffffffffffffffffffffffff1673ffffffffffffffffffffffffffffffffffffffff1681526020019081526020015f208054905011610d5f576040517f08c379a0000000000000000000000000000000000000000000000000000000008152600401610d56906137cc565b60405180910390fd5b805f808473ffffffffffffffffffffffffffffffffffffffff1673ffffffffffffffffffffffffffffffffffffffff1681526020019081526020015f20600183610da99190613817565b81548110610dba57610db961384a565b5b905f5260205f2090600802015f015414610e09576040517f08c379a0000000000000000000000000000000000000000000000000000000008152600401610e00906138e7565b60405180910390fd5b60015f8373ffffffffffffffffffffffffffffffffffffffff1673ffffffffffffffffffffffffffffffffffffffff1681526020019081526020015f205f3373ffffffffffffffffffffffffffffffffffffffff1673ffffffffffffffffffffffffffffffffffffffff1681526020019081526020015f205f9054906101000a900460ff16610ecd576040517f08c379a0000000000000000000000000000000000000000000000000000000008152600401610ec490613975565b60405180910390fd5b5f805f8573ffffffffffffffffffffffffffffffffffffffff1673ffffffffffffffffffffffffffffffffffffffff1681526020019081526020015f20600186610f179190613817565b81548110610f2857610f2761384a565b5b905f5260205f209060080201604051806101200160405290815f8201548152602001600182018054610f59906139c0565b80601f0160208091040260200160405190810160405280929190818152602001828054610f85906139c0565b8015610fd05780601f10610fa757610100808354040283529160200191610fd0565b820191905f5260205f20905b815481529060010190602001808311610fb357829003601f168201915b50505050508152602001600282018054610fe9906139c0565b80601f0160208091040260200160405190810160405280929190818152602001828054611015906139c0565b80156110605780601f1061103757610100808354040283529160200191611060565b820191905f5260205f20905b81548152906001019060200180831161104357829003601f168201915b50505050508152602001600382015f9054906101000a900473ffffffffffffffffffffffffffffffffffffffff1673ffffffffffffffffffffffffffffffffffffffff1673ffffffffffffffffffffffffffffffffffffffff168152602001600482015481526020016005820154815260200160068201548152602001600782015f9054906101000a900460ff161515151581526020016007820160019054906101000a900460ff16151515158152505090505f8160a0015114611159576040517f08c379a000000000000000000000000000000000000000000000000000000000815260040161115090613bbd565b60405180910390fd5b8060e001511561119e576040517f08c379a000000000000000000000000000000000000000000000000000000000815260040161119590613c4b565b60405180910390fd5b60015f808673ffffffffffffffffffffffffffffffffffffffff1673ffffffffffffffffffffffffffffffffffffffff1681526020019081526020015f206001876111e99190613817565b815481106111fa576111f961384a565b5b905f5260205f20906008020160070160016101000a81548160ff0219169083151502179055507fddf13b23f5aa44ed82e83c974bb182744638f745e4bcf56ac5343bc41a67ad558486604051611251929190613735565b60405180910390a15050505050565b6004602052815f5260405f208181548110611279575f80fd5b905f5260205f2090600502015f9150915050805f01549080600101805461129f906139c0565b80601f01602080910402602001604051908101604052809291908181526020018280546112cb906139c0565b80156113165780601f106112ed57610100808354040283529160200191611316565b820191905f5260205f20905b8154815290600101906020018083116112f957829003601f168201915b505050505090806002015490806003015f9054906101000a900473ffffffffffffffffffffffffffffffffffffffff1690806004015f9054906101000a900473ffffffffffffffffffffffffffffffffffffffff16905085565b815f808573ffffffffffffffffffffffffffffffffffffffff1673ffffffffffffffffffffffffffffffffffffffff1681526020019081526020015f206001846113ba9190613817565b815481106113cb576113ca61384a565b5b905f5260205f2090600802015f015414826040516020016113ec9190613d27565b6040516020818303038152906040529061143c576040517f08c379a00000000000000000000000000000000000000000000000000000000081526004016114339190613d57565b60405180910390fd5b505f808473ffffffffffffffffffffffffffffffffffffffff1673ffffffffffffffffffffffffffffffffffffffff1681526020019081526020015f206001836114869190613817565b815481106114975761149661384a565b5b905f5260205f2090600802016006015442106114e8576040517f08c379a00000000000000000000000000000000000000000000000000000000081526004016114df90613de7565b60405180910390fd5b5f808473ffffffffffffffffffffffffffffffffffffffff1673ffffffffffffffffffffffffffffffffffffffff1681526020019081526020015f206001836115319190613817565b815481106115425761154161384a565b5b905f5260205f20906008020160070160019054906101000a900460ff16155f808573ffffffffffffffffffffffffffffffffffffffff1673ffffffffffffffffffffffffffffffffffffffff1681526020019081526020015f206001846115a99190613817565b815481106115ba576115b961384a565b5b905f5260205f2090600802016001016040516020016115d99190613f2b565b60405160208183030381529060405290611629576040517f08c379a00000000000000000000000000000000000000000000000000000000081526004016116209190613d57565b60405180910390fd5b505f808473ffffffffffffffffffffffffffffffffffffffff1673ffffffffffffffffffffffffffffffffffffffff1681526020019081526020015f206001836116739190613817565b815481106116845761168361384a565b5b905f5260205f2090600802016007015f9054906101000a900460ff16155f808573ffffffffffffffffffffffffffffffffffffffff1673ffffffffffffffffffffffffffffffffffffffff1681526020019081526020015f206001846116ea9190613817565b815481106116fb576116fa61384a565b5b905f5260205f20906008020160010160405160200161171a9190613fa1565b6040516020818303038152906040529061176a576040517f08c379a00000000000000000000000000000000000000000000000000000000081526004016117619190613d57565b60405180910390fd5b505f81116117ad576040517f08c379a00000000000000000000000000000000000000000000000000000000081526004016117a490614017565b60405180910390fd5b8034146117ef576040517f08c379a00000000000000000000000000000000000000000000000000000000081526004016117e6906140a5565b60405180910390fd5b805f808573ffffffffffffffffffffffffffffffffffffffff1673ffffffffffffffffffffffffffffffffffffffff1681526020019081526020015f206001846118399190613817565b8154811061184a5761184961384a565b5b905f5260205f2090600802016005015f82825461186791906140c3565b925050819055505f808473ffffffffffffffffffffffffffffffffffffffff1673ffffffffffffffffffffffffffffffffffffffff1681526020019081526020015f206001836118b79190613817565b815481106118c8576118c761384a565b5b905f5260205f209060080201600401545f808573ffffffffffffffffffffffffffffffffffffffff1673ffffffffffffffffffffffffffffffffffffffff1681526020019081526020015f206001846119219190613817565b815481106119325761193161384a565b5b905f5260205f2090600802016005015410611a025760015f808573ffffffffffffffffffffffffffffffffffffffff1673ffffffffffffffffffffffffffffffffffffffff1681526020019081526020015f206001846119929190613817565b815481106119a3576119a261384a565b5b905f5260205f2090600802016007015f6101000a81548160ff0219169083151502179055507f8559b4dc0428ef20b1a5974fff4845e3163bfbec589128d75c7da62148fbd8ae83836040516119f9929190614151565b60405180910390a15b5f60405180608001604052808573ffffffffffffffffffffffffffffffffffffffff1681526020018481526020015f808773ffffffffffffffffffffffffffffffffffffffff1673ffffffffffffffffffffffffffffffffffffffff1681526020019081526020015f20600186611a799190613817565b81548110611a8a57611a8961384a565b5b905f5260205f2090600802016001018054611aa4906139c0565b80601f0160208091040260200160405190810160405280929190818152602001828054611ad0906139c0565b8015611b1b5780601f10611af257610100808354040283529160200191611b1b565b820191905f5260205f20905b815481529060010190602001808311611afe57829003601f168201915b5050505050815260200183815250905060035f3373ffffffffffffffffffffffffffffffffffffffff1673ffffffffffffffffffffffffffffffffffffffff1681526020019081526020015f2081908060018154018082558091505060019003905f5260205f2090600402015f909190919091505f820151815f015f6101000a81548173ffffffffffffffffffffffffffffffffffffffff021916908373ffffffffffffffffffffffffffffffffffffffff160217905550602082015181600101556040820151816002019081611bf291906142fa565b506060820151816003015550505f60405180604001604052803373ffffffffffffffffffffffffffffffffffffffff16815260200184815250905060055f8673ffffffffffffffffffffffffffffffffffffffff1673ffffffffffffffffffffffffffffffffffffffff1681526020019081526020015f205f8581526020019081526020015f2081908060018154018082558091505060019003905f5260205f2090600202015f909190919091505f820151815f015f6101000a81548173ffffffffffffffffffffffffffffffffffffffff021916908373ffffffffffffffffffffffffffffffffffffffff1602179055506020820151816001015550507fbe0281dcb233d52d4d243d0d6ff4ed47e8641aecf85b98611ade1c9307186b7d33848787604051611d2594939291906143c9565b60405180910390a15050505050565b6003602052815f5260405f208181548110611d4d575f80fd5b905f5260205f2090600402015f9150915050805f015f9054906101000a900473ffffffffffffffffffffffffffffffffffffffff1690806001015490806002018054611d98906139c0565b80601f0160208091040260200160405190810160405280929190818152602001828054611dc4906139c0565b8015611e0f5780601f10611de657610100808354040283529160200191611e0f565b820191905f5260205f20905b815481529060010190602001808311611df257829003601f168201915b5050505050908060030154905084565b5f5b5f803373ffffffffffffffffffffffffffffffffffffffff1673ffffffffffffffffffffffffffffffffffffffff1681526020019081526020015f2080549050811015611f8b575f805f3373ffffffffffffffffffffffffffffffffffffffff1673ffffffffffffffffffffffffffffffffffffffff1681526020019081526020015f208281548110611eb757611eb661384a565b5b905f5260205f20906008020160010190505f86604051602001611eda919061443c565b6040516020818303038152906040528051906020012082604051602001611f0191906144e4565b604051602081830303815290604052805190602001201490508015611f7c5786604051602001611f31919061458e565b6040516020818303038152906040526040517f08c379a0000000000000000000000000000000000000000000000000000000008152600401611f739190613d57565b60405180910390fd5b50508080600101915050611e21565b505f60405180610120016040528060015f803373ffffffffffffffffffffffffffffffffffffffff1673ffffffffffffffffffffffffffffffffffffffff1681526020019081526020015f2080549050611fe591906140c3565b81526020018681526020018581526020013373ffffffffffffffffffffffffffffffffffffffff1681526020018481526020015f8152602001620151808461202d91906145ba565b4261203891906140c3565b81526020015f151581526020015f151581525090505f803373ffffffffffffffffffffffffffffffffffffffff1673ffffffffffffffffffffffffffffffffffffffff1681526020019081526020015f2081908060018154018082558091505060019003905f5260205f2090600802015f909190919091505f820151815f015560208201518160010190816120cd91906142fa565b5060408201518160020190816120e391906142fa565b506060820151816003015f6101000a81548173ffffffffffffffffffffffffffffffffffffffff021916908373ffffffffffffffffffffffffffffffffffffffff1602179055506080820151816004015560a0820151816005015560c0820151816006015560e0820151816007015f6101000a81548160ff0219169083151502179055506101008201518160070160016101000a81548160ff02191690831515021790555050507fdc26653af5b99b2da33e2ad69ee6600d9aeccc82b034501db4338309615ca2385f803373ffffffffffffffffffffffffffffffffffffffff1673ffffffffffffffffffffffffffffffffffffffff1681526020019081526020015f208054905033878662015180876121fd91906145ba565b4261220891906140c3565b6040516122199594939291906145fb565b60405180910390a15050505050565b8073ffffffffffffffffffffffffffffffffffffffff163373ffffffffffffffffffffffffffffffffffffffff1603612296576040517f08c379a000000000000000000000000000000000000000000000000000000000815260040161228d906146c3565b60405180910390fd5b60015f3373ffffffffffffffffffffffffffffffffffffffff1673ffffffffffffffffffffffffffffffffffffffff1681526020019081526020015f205f8273ffffffffffffffffffffffffffffffffffffffff1673ffffffffffffffffffffffffffffffffffffffff1681526020019081526020015f205f9054906101000a900460ff161561235b576040517f08c379a000000000000000000000000000000000000000000000000000000000815260040161235290614751565b60405180910390fd5b6001805f3373ffffffffffffffffffffffffffffffffffffffff1673ffffffffffffffffffffffffffffffffffffffff1681526020019081526020015f205f8373ffffffffffffffffffffffffffffffffffffffff1673ffffffffffffffffffffffffffffffffffffffff1681526020019081526020015f205f6101000a81548160ff02191690831515021790555060025f3373ffffffffffffffffffffffffffffffffffffffff1673ffffffffffffffffffffffffffffffffffffffff1681526020019081526020015f2081908060018154018082558091505060019003905f5260205f20015f9091909190916101000a81548173ffffffffffffffffffffffffffffffffffffffff021916908373ffffffffffffffffffffffffffffffffffffffff1602179055507fad6de4452a631e641cb59902236607946ce9272b9b981f2f80e8d129cb9084ba816040516124b491906132b3565b60405180910390a150565b6001602052815f5260405f20602052805f5260405f205f915091509054906101000a900460ff1681565b82845f805f8473ffffffffffffffffffffffffffffffffffffffff1673ffffffffffffffffffffffffffffffffffffffff1681526020019081526020015f20805490501161256c576040517f08c379a0000000000000000000000000000000000000000000000000000000008152600401612563906137cc565b60405180910390fd5b805f808473ffffffffffffffffffffffffffffffffffffffff1673ffffffffffffffffffffffffffffffffffffffff1681526020019081526020015f206001836125b69190613817565b815481106125c7576125c661384a565b5b905f5260205f2090600802015f015414612616576040517f08c379a000000000000000000000000000000000000000000000000000000000815260040161260d906138e7565b60405180910390fd5b60015f8373ffffffffffffffffffffffffffffffffffffffff1673ffffffffffffffffffffffffffffffffffffffff1681526020019081526020015f205f3373ffffffffffffffffffffffffffffffffffffffff1673ffffffffffffffffffffffffffffffffffffffff1681526020019081526020015f205f9054906101000a900460ff166126da576040517f08c379a00000000000000000000000000000000000000000000000000000000081526004016126d190613975565b60405180910390fd5b5f808673ffffffffffffffffffffffffffffffffffffffff1673ffffffffffffffffffffffffffffffffffffffff1681526020019081526020015f206001876127239190613817565b815481106127345761273361384a565b5b905f5260205f2090600802016007015f9054906101000a900460ff1661278f576040517f08c379a0000000000000000000000000000000000000000000000000000000008152600401612786906147df565b60405180910390fd5b834710156127d2576040517f08c379a00000000000000000000000000000000000000000000000000000000081526004016127c990614847565b60405180910390fd5b5f8411801561284a57505f808673ffffffffffffffffffffffffffffffffffffffff1673ffffffffffffffffffffffffffffffffffffffff1681526020019081526020015f206001876128259190613817565b815481106128365761283561384a565b5b905f5260205f209060080201600501548411155b612889576040517f08c379a0000000000000000000000000000000000000000000000000000000008152600401612880906148d5565b60405180910390fd5b5f805f8773ffffffffffffffffffffffffffffffffffffffff1673ffffffffffffffffffffffffffffffffffffffff1681526020019081526020015f206001886128d39190613817565b815481106128e4576128e361384a565b5b905f5260205f2090600802016005015490505f85826129039190613817565b9050805f808973ffffffffffffffffffffffffffffffffffffffff1673ffffffffffffffffffffffffffffffffffffffff1681526020019081526020015f2060018a61294f9190613817565b815481106129605761295f61384a565b5b905f5260205f209060080201600501819055505f8573ffffffffffffffffffffffffffffffffffffffff168760405161299890613aab565b5f6040518083038185875af1925050503d805f81146129d2576040519150601f19603f3d011682016040523d82523d5f602084013e6129d7565b606091505b5050905080612a1b576040517f08c379a0000000000000000000000000000000000000000000000000000000008152600401612a1290613b09565b60405180910390fd5b5f6040518060a001604052808b81526020015f808c73ffffffffffffffffffffffffffffffffffffffff1673ffffffffffffffffffffffffffffffffffffffff1681526020019081526020015f2060018d612a769190613817565b81548110612a8757612a8661384a565b5b905f5260205f2090600802016001018054612aa1906139c0565b80601f0160208091040260200160405190810160405280929190818152602001828054612acd906139c0565b8015612b185780601f10612aef57610100808354040283529160200191612b18565b820191905f5260205f20905b815481529060010190602001808311612afb57829003601f168201915b505050505081526020018981526020013373ffffffffffffffffffffffffffffffffffffffff1681526020018873ffffffffffffffffffffffffffffffffffffffff16815250905060045f8a73ffffffffffffffffffffffffffffffffffffffff1673ffffffffffffffffffffffffffffffffffffffff1681526020019081526020015f2081908060018154018082558091505060019003905f5260205f2090600502015f909190919091505f820151815f01556020820151816001019081612be191906142fa565b50604082015181600201556060820151816003015f6101000a81548173ffffffffffffffffffffffffffffffffffffffff021916908373ffffffffffffffffffffffffffffffffffffffff1602179055506080820151816004015f6101000a81548173ffffffffffffffffffffffffffffffffffffffff021916908373ffffffffffffffffffffffffffffffffffffffff16021790555050507ffb301322f68b8ea04d2b6a3ab0a1a0100d7be758e7ffa771d5539a256b92d10d8833898c8e604051612cb19594939291906148f3565b60405180910390a150505050505050505050565b6005602052825f5260405f20602052815f5260405f208181548110612ce8575f80fd5b905f5260205f2090600202015f925092505050805f015f9054906101000a900473ffffffffffffffffffffffffffffffffffffffff16908060010154905082565b60015f3373ffffffffffffffffffffffffffffffffffffffff1673ffffffffffffffffffffffffffffffffffffffff1681526020019081526020015f205f8273ffffffffffffffffffffffffffffffffffffffff1673ffffffffffffffffffffffffffffffffffffffff1681526020019081526020015f205f9054906101000a900460ff16612ded576040517f08c379a0000000000000000000000000000000000000000000000000000000008152600401612de49061498e565b60405180910390fd5b5f60015f3373ffffffffffffffffffffffffffffffffffffffff1673ffffffffffffffffffffffffffffffffffffffff1681526020019081526020015f205f8373ffffffffffffffffffffffffffffffffffffffff1673ffffffffffffffffffffffffffffffffffffffff1681526020019081526020015f205f6101000a81548160ff0219169083151502179055505f60025f3373ffffffffffffffffffffffffffffffffffffffff1673ffffffffffffffffffffffffffffffffffffffff1681526020019081526020015f2090505f5b818054905081101561302f578273ffffffffffffffffffffffffffffffffffffffff16828281548110612ef457612ef361384a565b5b905f5260205f20015f9054906101000a900473ffffffffffffffffffffffffffffffffffffffff1673ffffffffffffffffffffffffffffffffffffffff1603613022578160018380549050612f499190613817565b81548110612f5a57612f5961384a565b5b905f5260205f20015f9054906101000a900473ffffffffffffffffffffffffffffffffffffffff16828281548110612f9557612f9461384a565b5b905f5260205f20015f6101000a81548173ffffffffffffffffffffffffffffffffffffffff021916908373ffffffffffffffffffffffffffffffffffffffff16021790555081805480612feb57612fea6149ac565b5b600190038181905f5260205f20015f6101000a81549073ffffffffffffffffffffffffffffffffffffffff0219169055905561302f565b8080600101915050612ebe565b507f753f40ca3312b2408759a67875b367955e7baa221daf08aa3d643d96202ac12b8260405161305f91906132b3565b60405180910390a15050565b5f604051905090565b5f80fd5b5f80fd5b5f819050919050565b61308e8161307c565b8114613098575f80fd5b50565b5f813590506130a981613085565b92915050565b5f602082840312156130c4576130c3613074565b5b5f6130d18482850161309b565b91505092915050565b5f73ffffffffffffffffffffffffffffffffffffffff82169050919050565b5f613103826130da565b9050919050565b613113816130f9565b811461311d575f80fd5b50565b5f8135905061312e8161310a565b92915050565b5f806040838503121561314a57613149613074565b5b5f61315785828601613120565b92505060206131688582860161309b565b9150509250929050565b61317b8161307c565b82525050565b5f81519050919050565b5f82825260208201905092915050565b8281835e5f83830152505050565b5f601f19601f8301169050919050565b5f6131c382613181565b6131cd818561318b565b93506131dd81856020860161319b565b6131e6816131a9565b840191505092915050565b6131fa816130f9565b82525050565b5f8115159050919050565b61321481613200565b82525050565b5f6101208201905061322e5f83018c613172565b8181036020830152613240818b6131b9565b90508181036040830152613254818a6131b9565b905061326360608301896131f1565b6132706080830188613172565b61327d60a0830187613172565b61328a60c0830186613172565b61329760e083018561320b565b6132a561010083018461320b565b9a9950505050505050505050565b5f6020820190506132c65f8301846131f1565b92915050565b5f80604083850312156132e2576132e1613074565b5b5f6132ef8582860161309b565b925050602061330085828601613120565b9150509250929050565b5f60a08201905061331d5f830188613172565b818103602083015261332f81876131b9565b905061333e6040830186613172565b61334b60608301856131f1565b61335860808301846131f1565b9695505050505050565b5f61336c826130da565b9050919050565b61337c81613362565b8114613386575f80fd5b50565b5f8135905061339781613373565b92915050565b5f805f606084860312156133b4576133b3613074565b5b5f6133c186828701613389565b93505060206133d28682870161309b565b92505060406133e38682870161309b565b9150509250925092565b5f6080820190506134005f8301876131f1565b61340d6020830186613172565b818103604083015261341f81856131b9565b905061342e6060830184613172565b95945050505050565b5f80fd5b5f80fd5b7f4e487b71000000000000000000000000000000000000000000000000000000005f52604160045260245ffd5b613475826131a9565b810181811067ffffffffffffffff821117156134945761349361343f565b5b80604052505050565b5f6134a661306b565b90506134b2828261346c565b919050565b5f67ffffffffffffffff8211156134d1576134d061343f565b5b6134da826131a9565b9050602081019050919050565b828183375f83830152505050565b5f613507613502846134b7565b61349d565b9050828152602081018484840111156135235761352261343b565b5b61352e8482856134e7565b509392505050565b5f82601f83011261354a57613549613437565b5b813561355a8482602086016134f5565b91505092915050565b5f805f806080858703121561357b5761357a613074565b5b5f85013567ffffffffffffffff81111561359857613597613078565b5b6135a487828801613536565b945050602085013567ffffffffffffffff8111156135c5576135c4613078565b5b6135d187828801613536565b93505060406135e28782880161309b565b92505060606135f38782880161309b565b91505092959194509250565b5f6020828403121561361457613613613074565b5b5f61362184828501613120565b91505092915050565b5f80604083850312156136405761363f613074565b5b5f61364d85828601613120565b925050602061365e85828601613120565b9150509250929050565b5f60208201905061367b5f83018461320b565b92915050565b5f805f806080858703121561369957613698613074565b5b5f6136a68782880161309b565b94505060206136b787828801613120565b93505060406136c88782880161309b565b92505060606136d987828801613389565b91505092959194509250565b5f805f606084860312156136fc576136fb613074565b5b5f61370986828701613120565b935050602061371a8682870161309b565b925050604061372b8682870161309b565b9150509250925092565b5f6040820190506137485f8301856131f1565b6137556020830184613172565b9392505050565b7f5468657265204973204e6f2043616d706169676e2042792054686174206164645f8201527f7265737321000000000000000000000000000000000000000000000000000000602082015250565b5f6137b660258361318b565b91506137c18261375c565b604082019050919050565b5f6020820190508181035f8301526137e3816137aa565b9050919050565b7f4e487b71000000000000000000000000000000000000000000000000000000005f52601160045260245ffd5b5f6138218261307c565b915061382c8361307c565b9250828203905081811115613844576138436137ea565b5b92915050565b7f4e487b71000000000000000000000000000000000000000000000000000000005f52603260045260245ffd5b7f5468652043616d706169676e2053706563696669656420446f6573204e6f74205f8201527f4578697374210000000000000000000000000000000000000000000000000000602082015250565b5f6138d160268361318b565b91506138dc82613877565b604082019050919050565b5f6020820190508181035f8301526138fe816138c5565b9050919050565b7f4f6e6c792041646d696e732043616e20506572666f726d2054686973204163745f8201527f696f6e2100000000000000000000000000000000000000000000000000000000602082015250565b5f61395f60248361318b565b915061396a82613905565b604082019050919050565b5f6020820190508181035f83015261398c81613953565b9050919050565b7f4e487b71000000000000000000000000000000000000000000000000000000005f52602260045260245ffd5b5f60028204905060018216806139d757607f821691505b6020821081036139ea576139e9613993565b5b50919050565b7f546869732043616d706169676e204973205375636365737366756c2043616e6e5f8201527f6f742062652043616e63656c6c65642100000000000000000000000000000000602082015250565b5f613a4a60308361318b565b9150613a55826139f0565b604082019050919050565b5f6020820190508181035f830152613a7781613a3e565b9050919050565b5f81905092915050565b50565b5f613a965f83613a7e565b9150613aa182613a88565b5f82019050919050565b5f613ab582613a8b565b9150819050919050565b7f5472616e73666572206661696c656400000000000000000000000000000000005f82015250565b5f613af3600f8361318b565b9150613afe82613abf565b602082019050919050565b5f6020820190508181035f830152613b2081613ae7565b9050919050565b7f546869732043616d706169676e2048617320416c7265616479205261697365645f8201527f2046756e64732120526566756e64204669727374205468656e2043616e63656c60208201527f2100000000000000000000000000000000000000000000000000000000000000604082015250565b5f613ba760418361318b565b9150613bb282613b27565b606082019050919050565b5f6020820190508181035f830152613bd481613b9b565b9050919050565b7f546869732043616d706169676e2048617320416c7265616479204265656e20435f8201527f6f6d706c65746564210000000000000000000000000000000000000000000000602082015250565b5f613c3560298361318b565b9150613c4082613bdb565b604082019050919050565b5f6020820190508181035f830152613c6281613c29565b9050919050565b5f81905092915050565b7f5468652043616d706169676e20000000000000000000000000000000000000005f82015250565b5f613ca7600d83613c69565b9150613cb282613c73565b600d82019050919050565b5f819050919050565b613cd7613cd28261307c565b613cbd565b82525050565b7f20446f6573204e4f5420457869737421000000000000000000000000000000005f82015250565b5f613d11601083613c69565b9150613d1c82613cdd565b601082019050919050565b5f613d3182613c9b565b9150613d3d8284613cc6565b602082019150613d4c82613d05565b915081905092915050565b5f6020820190508181035f830152613d6f81846131b9565b905092915050565b7f546869732043616d706169676e277320446561646c696e6520486173205061735f8201527f7365642100000000000000000000000000000000000000000000000000000000602082015250565b5f613dd160248361318b565b9150613ddc82613d77565b604082019050919050565b5f6020820190508181035f830152613dfe81613dc5565b9050919050565b7f27000000000000000000000000000000000000000000000000000000000000005f82015250565b5f613e39600183613c69565b9150613e4482613e05565b600182019050919050565b5f819050815f5260205f209050919050565b5f8154613e6d816139c0565b613e778186613c69565b9450600182165f8114613e915760018114613ea657613ed8565b60ff1983168652811515820286019350613ed8565b613eaf85613e4f565b5f5b83811015613ed057815481890152600182019150602081019050613eb1565b838801955050505b50505092915050565b7f272043616d706169676e205761732043616e63616c6c656421000000000000005f82015250565b5f613f15601983613c69565b9150613f2082613ee1565b601982019050919050565b5f613f3582613e2d565b9150613f418284613e61565b9150613f4c82613f09565b915081905092915050565b7f272043616d706169676e2057617320436f6d706c6574656421000000000000005f82015250565b5f613f8b601983613c69565b9150613f9682613f57565b601982019050919050565b5f613fab82613e2d565b9150613fb78284613e61565b9150613fc282613f7f565b915081905092915050565b7f446f6e6174696f6e20416d6f756e742043616e6e6f74206265205a65726f00005f82015250565b5f614001601e8361318b565b915061400c82613fcd565b602082019050919050565b5f6020820190508181035f83015261402e81613ff5565b9050919050565b7f54686520416d6f756e7420416e642056616c756520446f6e2774204d617463685f8201527f2100000000000000000000000000000000000000000000000000000000000000602082015250565b5f61408f60218361318b565b915061409a82614035565b604082019050919050565b5f6020820190508181035f8301526140bc81614083565b9050919050565b5f6140cd8261307c565b91506140d88361307c565b92508282019050808211156140f0576140ef6137ea565b5b92915050565b5f819050919050565b5f61411961411461410f846130da565b6140f6565b6130da565b9050919050565b5f61412a826140ff565b9050919050565b5f61413b82614120565b9050919050565b61414b81614131565b82525050565b5f6040820190506141645f830185614142565b6141716020830184613172565b9392505050565b5f6020601f8301049050919050565b5f82821b905092915050565b5f600883026141c27fffffffffffffffffffffffffffffffffffffffffffffffffffffffffffffffff82614187565b6141cc8683614187565b95508019841693508086168417925050509392505050565b5f6141fe6141f96141f48461307c565b6140f6565b61307c565b9050919050565b5f819050919050565b614217836141e4565b61422b61422382614205565b848454614193565b825550505050565b5f90565b61423f614233565b61424a81848461420e565b505050565b5b8181101561426d576142625f82614237565b600181019050614250565b5050565b601f8211156142b25761428381613e4f565b61428c84614178565b8101602085101561429b578190505b6142af6142a785614178565b83018261424f565b50505b505050565b5f82821c905092915050565b5f6142d25f19846008026142b7565b1980831691505092915050565b5f6142ea83836142c3565b9150826002028217905092915050565b61430382613181565b67ffffffffffffffff81111561431c5761431b61343f565b5b61432682546139c0565b614331828285614271565b5f60209050601f831160018114614362575f8415614350578287015190505b61435a85826142df565b8655506143c1565b601f19841661437086613e4f565b5f5b8281101561439757848901518255600182019150602085019450602081019050614372565b868310156143b457848901516143b0601f8916826142c3565b8355505b6001600288020188555050505b505050505050565b5f6080820190506143dc5f8301876131f1565b6143e96020830186613172565b6143f66040830185614142565b6144036060830184613172565b95945050505050565b5f61441682613181565b6144208185613c69565b935061443081856020860161319b565b80840191505092915050565b5f614447828461440c565b915081905092915050565b5f819050815f5260205f209050919050565b5f8154614470816139c0565b61447a8186613c69565b9450600182165f811461449457600181146144a9576144db565b60ff19831686528115158202860193506144db565b6144b285614452565b5f5b838110156144d3578154818901526001820191506020810190506144b4565b838801955050505b50505092915050565b5f6144ef8284614464565b915081905092915050565b7f43616d706169676e2000000000000000000000000000000000000000000000005f82015250565b5f61452e600983613c69565b9150614539826144fa565b600982019050919050565b7f20616c72656164792065786973747321000000000000000000000000000000005f82015250565b5f614578601083613c69565b915061458382614544565b601082019050919050565b5f61459882614522565b91506145a4828461440c565b91506145af8261456c565b915081905092915050565b5f6145c48261307c565b91506145cf8361307c565b92508282026145dd8161307c565b915082820484148315176145f4576145f36137ea565b5b5092915050565b5f60a08201905061460e5f830188613172565b61461b60208301876131f1565b818103604083015261462d81866131b9565b905061463c6060830185613172565b6146496080830184613172565b9695505050505050565b7f5468652043616d706169676e20416464726573732043616e6e6f7420426520415f8201527f6e2041646d696e21000000000000000000000000000000000000000000000000602082015250565b5f6146ad60288361318b565b91506146b882614653565b604082019050919050565b5f6020820190508181035f8301526146da816146a1565b9050919050565b7f54686973204164647265737320497320416c726561647920416e2041646d696e5f8201527f2100000000000000000000000000000000000000000000000000000000000000602082015250565b5f61473b60218361318b565b9150614746826146e1565b604082019050919050565b5f6020820190508181035f8301526147688161472f565b9050919050565b7f596f752043616e27742057697468647261772046756e64732066726f6d20616e5f8201527f204163746976652043616d706169676e00000000000000000000000000000000602082015250565b5f6147c960308361318b565b91506147d48261476f565b604082019050919050565b5f6020820190508181035f8301526147f6816147bd565b9050919050565b7f496e73756666696369656e7420636f6e74726163742062616c616e63650000005f82015250565b5f614831601d8361318b565b915061483c826147fd565b602082019050919050565b5f6020820190508181035f83015261485e81614825565b9050919050565b7f416d6f756e742043616e6e6f74206265205a65726f204f7220457863656564205f8201527f5468652052616973656420416d6f756e74210000000000000000000000000000602082015250565b5f6148bf60328361318b565b91506148ca82614865565b604082019050919050565b5f6020820190508181035f8301526148ec816148b3565b9050919050565b5f60a0820190506149065f830188613172565b61491360208301876131f1565b6149206040830186614142565b61492d60608301856131f1565b61493a6080830184613172565b9695505050505050565b7f546869732041646472657373204973204e6f7420416e2041646d696e210000005f82015250565b5f614978601d8361318b565b915061498382614944565b602082019050919050565b5f6020820190508181035f8301526149a58161496c565b9050919050565b7f4e487b71000000000000000000000000000000000000000000000000000000005f52603160045260245ffdfea2646970667358221220570f0772ac1a78302af3c1eaae09f96057f665c4566cf142b4af21ab039fedeb64736f6c634300081a0033",
			"opcodes": "PUSH1 0x80 PUSH1 0x40 MSTORE CALLVALUE DUP1 ISZERO PUSH1 0xE JUMPI PUSH0 DUP1 REVERT JUMPDEST POP CALLER PUSH1 0x6 PUSH0 PUSH2 0x100 EXP DUP2 SLOAD DUP2 PUSH20 0xFFFFFFFFFFFFFFFFFFFFFFFFFFFFFFFFFFFFFFFF MUL NOT AND SWAP1 DUP4 PUSH20 0xFFFFFFFFFFFFFFFFFFFFFFFFFFFFFFFFFFFFFFFF AND MUL OR SWAP1 SSTORE POP PUSH2 0x4A0F DUP1 PUSH2 0x5C PUSH0 CODECOPY PUSH0 RETURN INVALID PUSH1 0x80 PUSH1 0x40 MSTORE PUSH1 0x4 CALLDATASIZE LT PUSH2 0xC1 JUMPI PUSH0 CALLDATALOAD PUSH1 0xE0 SHR DUP1 PUSH4 0x9B56F5F0 GT PUSH2 0x7E JUMPI DUP1 PUSH4 0xBE21739E GT PUSH2 0x58 JUMPI DUP1 PUSH4 0xBE21739E EQ PUSH2 0x280 JUMPI DUP1 PUSH4 0xC14B8AAC EQ PUSH2 0x2BC JUMPI DUP1 PUSH4 0xE6C9099A EQ PUSH2 0x2E4 JUMPI DUP1 PUSH4 0xF1694AA1 EQ PUSH2 0x321 JUMPI PUSH2 0xC1 JUMP JUMPDEST DUP1 PUSH4 0x9B56F5F0 EQ PUSH2 0x1F1 JUMPI DUP1 PUSH4 0xA318F269 EQ PUSH2 0x230 JUMPI DUP1 PUSH4 0xBE18FDA6 EQ PUSH2 0x258 JUMPI PUSH2 0xC1 JUMP JUMPDEST DUP1 PUSH4 0xB39BE65 EQ PUSH2 0xC5 JUMPI DUP1 PUSH4 0x11555DBC EQ PUSH2 0xED JUMPI DUP1 PUSH4 0x1F55E5BC EQ PUSH2 0x131 JUMPI DUP1 PUSH4 0x39E9412F EQ PUSH2 0x16D JUMPI DUP1 PUSH4 0x422B1077 EQ PUSH2 0x195 JUMPI DUP1 PUSH4 0x5A3915CD EQ PUSH2 0x1D5 JUMPI JUMPDEST PUSH0 DUP1 REVERT JUMPDEST CALLVALUE DUP1 ISZERO PUSH2 0xD0 JUMPI PUSH0 DUP1 REVERT JUMPDEST POP PUSH2 0xEB PUSH1 0x4 DUP1 CALLDATASIZE SUB DUP2 ADD SWAP1 PUSH2 0xE6 SWAP2 SWAP1 PUSH2 0x30AF JUMP JUMPDEST PUSH2 0x349 JUMP JUMPDEST STOP JUMPDEST CALLVALUE DUP1 ISZERO PUSH2 0xF8 JUMPI PUSH0 DUP1 REVERT JUMPDEST POP PUSH2 0x113 PUSH1 0x4 DUP1 CALLDATASIZE SUB DUP2 ADD SWAP1 PUSH2 0x10E SWAP2 SWAP1 PUSH2 0x3134 JUMP JUMPDEST PUSH2 0xAED JUMP JUMPDEST PUSH1 0x40 MLOAD PUSH2 0x128 SWAP10 SWAP9 SWAP8 SWAP7 SWAP6 SWAP5 SWAP4 SWAP3 SWAP2 SWAP1 PUSH2 0x321A JUMP JUMPDEST PUSH1 0x40 MLOAD DUP1 SWAP2 SUB SWAP1 RETURN JUMPDEST CALLVALUE DUP1 ISZERO PUSH2 0x13C JUMPI PUSH0 DUP1 REVERT JUMPDEST POP PUSH2 0x157 PUSH1 0x4 DUP1 CALLDATASIZE SUB DUP2 ADD SWAP1 PUSH2 0x152 SWAP2 SWAP1 PUSH2 0x3134 JUMP JUMPDEST PUSH2 0xC94 JUMP JUMPDEST PUSH1 0x40 MLOAD PUSH2 0x164 SWAP2 SWAP1 PUSH2 0x32B3 JUMP JUMPDEST PUSH1 0x40 MLOAD DUP1 SWAP2 SUB SWAP1 RETURN JUMPDEST CALLVALUE DUP1 ISZERO PUSH2 0x178 JUMPI PUSH0 DUP1 REVERT JUMPDEST POP PUSH2 0x193 PUSH1 0x4 DUP1 CALLDATASIZE SUB DUP2 ADD SWAP1 PUSH2 0x18E SWAP2 SWAP1 PUSH2 0x32CC JUMP JUMPDEST PUSH2 0xCDC JUMP JUMPDEST STOP JUMPDEST CALLVALUE DUP1 ISZERO PUSH2 0x1A0 JUMPI PUSH0 DUP1 REVERT JUMPDEST POP PUSH2 0x1BB PUSH1 0x4 DUP1 CALLDATASIZE SUB DUP2 ADD SWAP1 PUSH2 0x1B6 SWAP2 SWAP1 PUSH2 0x3134 JUMP JUMPDEST PUSH2 0x1260 JUMP JUMPDEST PUSH1 0x40 MLOAD PUSH2 0x1CC SWAP6 SWAP5 SWAP4 SWAP3 SWAP2 SWAP1 PUSH2 0x330A JUMP JUMPDEST PUSH1 0x40 MLOAD DUP1 SWAP2 SUB SWAP1 RETURN JUMPDEST PUSH2 0x1EF PUSH1 0x4 DUP1 CALLDATASIZE SUB DUP2 ADD SWAP1 PUSH2 0x1EA SWAP2 SWAP1 PUSH2 0x339D JUMP JUMPDEST PUSH2 0x1370 JUMP JUMPDEST STOP JUMPDEST CALLVALUE DUP1 ISZERO PUSH2 0x1FC JUMPI PUSH0 DUP1 REVERT JUMPDEST POP PUSH2 0x217 PUSH1 0x4 DUP1 CALLDATASIZE SUB DUP2 ADD SWAP1 PUSH2 0x212 SWAP2 SWAP1 PUSH2 0x3134 JUMP JUMPDEST PUSH2 0x1D34 JUMP JUMPDEST PUSH1 0x40 MLOAD PUSH2 0x227 SWAP5 SWAP4 SWAP3 SWAP2 SWAP1 PUSH2 0x33ED JUMP JUMPDEST PUSH1 0x40 MLOAD DUP1 SWAP2 SUB SWAP1 RETURN JUMPDEST CALLVALUE DUP1 ISZERO PUSH2 0x23B JUMPI PUSH0 DUP1 REVERT JUMPDEST POP PUSH2 0x256 PUSH1 0x4 DUP1 CALLDATASIZE SUB DUP2 ADD SWAP1 PUSH2 0x251 SWAP2 SWAP1 PUSH2 0x3563 JUMP JUMPDEST PUSH2 0x1E1F JUMP JUMPDEST STOP JUMPDEST CALLVALUE DUP1 ISZERO PUSH2 0x263 JUMPI PUSH0 DUP1 REVERT JUMPDEST POP PUSH2 0x27E PUSH1 0x4 DUP1 CALLDATASIZE SUB DUP2 ADD SWAP1 PUSH2 0x279 SWAP2 SWAP1 PUSH2 0x35FF JUMP JUMPDEST PUSH2 0x2228 JUMP JUMPDEST STOP JUMPDEST CALLVALUE DUP1 ISZERO PUSH2 0x28B JUMPI PUSH0 DUP1 REVERT JUMPDEST POP PUSH2 0x2A6 PUSH1 0x4 DUP1 CALLDATASIZE SUB DUP2 ADD SWAP1 PUSH2 0x2A1 SWAP2 SWAP1 PUSH2 0x362A JUMP JUMPDEST PUSH2 0x24BF JUMP JUMPDEST PUSH1 0x40 MLOAD PUSH2 0x2B3 SWAP2 SWAP1 PUSH2 0x3668 JUMP JUMPDEST PUSH1 0x40 MLOAD DUP1 SWAP2 SUB SWAP1 RETURN JUMPDEST CALLVALUE DUP1 ISZERO PUSH2 0x2C7 JUMPI PUSH0 DUP1 REVERT JUMPDEST POP PUSH2 0x2E2 PUSH1 0x4 DUP1 CALLDATASIZE SUB DUP2 ADD SWAP1 PUSH2 0x2DD SWAP2 SWAP1 PUSH2 0x3681 JUMP JUMPDEST PUSH2 0x24E9 JUMP JUMPDEST STOP JUMPDEST CALLVALUE DUP1 ISZERO PUSH2 0x2EF JUMPI PUSH0 DUP1 REVERT JUMPDEST POP PUSH2 0x30A PUSH1 0x4 DUP1 CALLDATASIZE SUB DUP2 ADD SWAP1 PUSH2 0x305 SWAP2 SWAP1 PUSH2 0x36E5 JUMP JUMPDEST PUSH2 0x2CC5 JUMP JUMPDEST PUSH1 0x40 MLOAD PUSH2 0x318 SWAP3 SWAP2 SWAP1 PUSH2 0x3735 JUMP JUMPDEST PUSH1 0x40 MLOAD DUP1 SWAP2 SUB SWAP1 RETURN JUMPDEST CALLVALUE DUP1 ISZERO PUSH2 0x32C JUMPI PUSH0 DUP1 REVERT JUMPDEST POP PUSH2 0x347 PUSH1 0x4 DUP1 CALLDATASIZE SUB DUP2 ADD SWAP1 PUSH2 0x342 SWAP2 SWAP1 PUSH2 0x35FF JUMP JUMPDEST PUSH2 0x2D29 JUMP JUMPDEST STOP JUMPDEST CALLER DUP2 PUSH0 DUP1 PUSH0 DUP5 PUSH20 0xFFFFFFFFFFFFFFFFFFFFFFFFFFFFFFFFFFFFFFFF AND PUSH20 0xFFFFFFFFFFFFFFFFFFFFFFFFFFFFFFFFFFFFFFFF AND DUP2 MSTORE PUSH1 0x20 ADD SWAP1 DUP2 MSTORE PUSH1 0x20 ADD PUSH0 KECCAK256 DUP1 SLOAD SWAP1 POP GT PUSH2 0x3CC JUMPI PUSH1 0x40 MLOAD PUSH32 0x8C379A000000000000000000000000000000000000000000000000000000000 DUP2 MSTORE PUSH1 0x4 ADD PUSH2 0x3C3 SWAP1 PUSH2 0x37CC JUMP JUMPDEST PUSH1 0x40 MLOAD DUP1 SWAP2 SUB SWAP1 REVERT JUMPDEST DUP1 PUSH0 DUP1 DUP5 PUSH20 0xFFFFFFFFFFFFFFFFFFFFFFFFFFFFFFFFFFFFFFFF AND PUSH20 0xFFFFFFFFFFFFFFFFFFFFFFFFFFFFFFFFFFFFFFFF AND DUP2 MSTORE PUSH1 0x20 ADD SWAP1 DUP2 MSTORE PUSH1 0x20 ADD PUSH0 KECCAK256 PUSH1 0x1 DUP4 PUSH2 0x416 SWAP2 SWAP1 PUSH2 0x3817 JUMP JUMPDEST DUP2 SLOAD DUP2 LT PUSH2 0x427 JUMPI PUSH2 0x426 PUSH2 0x384A JUMP JUMPDEST JUMPDEST SWAP1 PUSH0 MSTORE PUSH1 0x20 PUSH0 KECCAK256 SWAP1 PUSH1 0x8 MUL ADD PUSH0 ADD SLOAD EQ PUSH2 0x476 JUMPI PUSH1 0x40 MLOAD PUSH32 0x8C379A000000000000000000000000000000000000000000000000000000000 DUP2 MSTORE PUSH1 0x4 ADD PUSH2 0x46D SWAP1 PUSH2 0x38E7 JUMP JUMPDEST PUSH1 0x40 MLOAD DUP1 SWAP2 SUB SWAP1 REVERT JUMPDEST PUSH1 0x1 PUSH0 DUP4 PUSH20 0xFFFFFFFFFFFFFFFFFFFFFFFFFFFFFFFFFFFFFFFF AND PUSH20 0xFFFFFFFFFFFFFFFFFFFFFFFFFFFFFFFFFFFFFFFF AND DUP2 MSTORE PUSH1 0x20 ADD SWAP1 DUP2 MSTORE PUSH1 0x20 ADD PUSH0 KECCAK256 PUSH0 CALLER PUSH20 0xFFFFFFFFFFFFFFFFFFFFFFFFFFFFFFFFFFFFFFFF AND PUSH20 0xFFFFFFFFFFFFFFFFFFFFFFFFFFFFFFFFFFFFFFFF AND DUP2 MSTORE PUSH1 0x20 ADD SWAP1 DUP2 MSTORE PUSH1 0x20 ADD PUSH0 KECCAK256 PUSH0 SWAP1 SLOAD SWAP1 PUSH2 0x100 EXP SWAP1 DIV PUSH1 0xFF AND PUSH2 0x53A JUMPI PUSH1 0x40 MLOAD PUSH32 0x8C379A000000000000000000000000000000000000000000000000000000000 DUP2 MSTORE PUSH1 0x4 ADD PUSH2 0x531 SWAP1 PUSH2 0x3975 JUMP JUMPDEST PUSH1 0x40 MLOAD DUP1 SWAP2 SUB SWAP1 REVERT JUMPDEST PUSH0 DUP1 PUSH0 CALLER PUSH20 0xFFFFFFFFFFFFFFFFFFFFFFFFFFFFFFFFFFFFFFFF AND PUSH20 0xFFFFFFFFFFFFFFFFFFFFFFFFFFFFFFFFFFFFFFFF AND DUP2 MSTORE PUSH1 0x20 ADD SWAP1 DUP2 MSTORE PUSH1 0x20 ADD PUSH0 KECCAK256 PUSH1 0x1 DUP6 PUSH2 0x584 SWAP2 SWAP1 PUSH2 0x3817 JUMP JUMPDEST DUP2 SLOAD DUP2 LT PUSH2 0x595 JUMPI PUSH2 0x594 PUSH2 0x384A JUMP JUMPDEST JUMPDEST SWAP1 PUSH0 MSTORE PUSH1 0x20 PUSH0 KECCAK256 SWAP1 PUSH1 0x8 MUL ADD PUSH1 0x40 MLOAD DUP1 PUSH2 0x120 ADD PUSH1 0x40 MSTORE SWAP1 DUP2 PUSH0 DUP3 ADD SLOAD DUP2 MSTORE PUSH1 0x20 ADD PUSH1 0x1 DUP3 ADD DUP1 SLOAD PUSH2 0x5C6 SWAP1 PUSH2 0x39C0 JUMP JUMPDEST DUP1 PUSH1 0x1F ADD PUSH1 0x20 DUP1 SWAP2 DIV MUL PUSH1 0x20 ADD PUSH1 0x40 MLOAD SWAP1 DUP2 ADD PUSH1 0x40 MSTORE DUP1 SWAP3 SWAP2 SWAP1 DUP2 DUP2 MSTORE PUSH1 0x20 ADD DUP3 DUP1 SLOAD PUSH2 0x5F2 SWAP1 PUSH2 0x39C0 JUMP JUMPDEST DUP1 ISZERO PUSH2 0x63D JUMPI DUP1 PUSH1 0x1F LT PUSH2 0x614 JUMPI PUSH2 0x100 DUP1 DUP4 SLOAD DIV MUL DUP4 MSTORE SWAP2 PUSH1 0x20 ADD SWAP2 PUSH2 0x63D JUMP JUMPDEST DUP3 ADD SWAP2 SWAP1 PUSH0 MSTORE PUSH1 0x20 PUSH0 KECCAK256 SWAP1 JUMPDEST DUP2 SLOAD DUP2 MSTORE SWAP1 PUSH1 0x1 ADD SWAP1 PUSH1 0x20 ADD DUP1 DUP4 GT PUSH2 0x620 JUMPI DUP3 SWAP1 SUB PUSH1 0x1F AND DUP3 ADD SWAP2 JUMPDEST POP POP POP POP POP DUP2 MSTORE PUSH1 0x20 ADD PUSH1 0x2 DUP3 ADD DUP1 SLOAD PUSH2 0x656 SWAP1 PUSH2 0x39C0 JUMP JUMPDEST DUP1 PUSH1 0x1F ADD PUSH1 0x20 DUP1 SWAP2 DIV MUL PUSH1 0x20 ADD PUSH1 0x40 MLOAD SWAP1 DUP2 ADD PUSH1 0x40 MSTORE DUP1 SWAP3 SWAP2 SWAP1 DUP2 DUP2 MSTORE PUSH1 0x20 ADD DUP3 DUP1 SLOAD PUSH2 0x682 SWAP1 PUSH2 0x39C0 JUMP JUMPDEST DUP1 ISZERO PUSH2 0x6CD JUMPI DUP1 PUSH1 0x1F LT PUSH2 0x6A4 JUMPI PUSH2 0x100 DUP1 DUP4 SLOAD DIV MUL DUP4 MSTORE SWAP2 PUSH1 0x20 ADD SWAP2 PUSH2 0x6CD JUMP JUMPDEST DUP3 ADD SWAP2 SWAP1 PUSH0 MSTORE PUSH1 0x20 PUSH0 KECCAK256 SWAP1 JUMPDEST DUP2 SLOAD DUP2 MSTORE SWAP1 PUSH1 0x1 ADD SWAP1 PUSH1 0x20 ADD DUP1 DUP4 GT PUSH2 0x6B0 JUMPI DUP3 SWAP1 SUB PUSH1 0x1F AND DUP3 ADD SWAP2 JUMPDEST POP POP POP POP POP DUP2 MSTORE PUSH1 0x20 ADD PUSH1 0x3 DUP3 ADD PUSH0 SWAP1 SLOAD SWAP1 PUSH2 0x100 EXP SWAP1 DIV PUSH20 0xFFFFFFFFFFFFFFFFFFFFFFFFFFFFFFFFFFFFFFFF AND PUSH20 0xFFFFFFFFFFFFFFFFFFFFFFFFFFFFFFFFFFFFFFFF AND PUSH20 0xFFFFFFFFFFFFFFFFFFFFFFFFFFFFFFFFFFFFFFFF AND DUP2 MSTORE PUSH1 0x20 ADD PUSH1 0x4 DUP3 ADD SLOAD DUP2 MSTORE PUSH1 0x20 ADD PUSH1 0x5 DUP3 ADD SLOAD DUP2 MSTORE PUSH1 0x20 ADD PUSH1 0x6 DUP3 ADD SLOAD DUP2 MSTORE PUSH1 0x20 ADD PUSH1 0x7 DUP3 ADD PUSH0 SWAP1 SLOAD SWAP1 PUSH2 0x100 EXP SWAP1 DIV PUSH1 0xFF AND ISZERO ISZERO ISZERO ISZERO DUP2 MSTORE PUSH1 0x20 ADD PUSH1 0x7 DUP3 ADD PUSH1 0x1 SWAP1 SLOAD SWAP1 PUSH2 0x100 EXP SWAP1 DIV PUSH1 0xFF AND ISZERO ISZERO ISZERO ISZERO DUP2 MSTORE POP POP SWAP1 POP DUP1 PUSH1 0x80 ADD MLOAD DUP2 PUSH1 0xA0 ADD MLOAD LT DUP1 ISZERO PUSH2 0x79B JUMPI POP SELFBALANCE DUP2 PUSH1 0xA0 ADD MLOAD GT ISZERO JUMPDEST PUSH2 0x7DA JUMPI PUSH1 0x40 MLOAD PUSH32 0x8C379A000000000000000000000000000000000000000000000000000000000 DUP2 MSTORE PUSH1 0x4 ADD PUSH2 0x7D1 SWAP1 PUSH2 0x3A60 JUMP JUMPDEST PUSH1 0x40 MLOAD DUP1 SWAP2 SUB SWAP1 REVERT JUMPDEST PUSH0 PUSH1 0x5 PUSH0 CALLER PUSH20 0xFFFFFFFFFFFFFFFFFFFFFFFFFFFFFFFFFFFFFFFF AND PUSH20 0xFFFFFFFFFFFFFFFFFFFFFFFFFFFFFFFFFFFFFFFF AND DUP2 MSTORE PUSH1 0x20 ADD SWAP1 DUP2 MSTORE PUSH1 0x20 ADD PUSH0 KECCAK256 PUSH0 DUP7 DUP2 MSTORE PUSH1 0x20 ADD SWAP1 DUP2 MSTORE PUSH1 0x20 ADD PUSH0 KECCAK256 DUP1 SLOAD DUP1 PUSH1 0x20 MUL PUSH1 0x20 ADD PUSH1 0x40 MLOAD SWAP1 DUP2 ADD PUSH1 0x40 MSTORE DUP1 SWAP3 SWAP2 SWAP1 DUP2 DUP2 MSTORE PUSH1 0x20 ADD PUSH0 SWAP1 JUMPDEST DUP3 DUP3 LT ISZERO PUSH2 0x8D4 JUMPI DUP4 DUP3 SWAP1 PUSH0 MSTORE PUSH1 0x20 PUSH0 KECCAK256 SWAP1 PUSH1 0x2 MUL ADD PUSH1 0x40 MLOAD DUP1 PUSH1 0x40 ADD PUSH1 0x40 MSTORE SWAP1 DUP2 PUSH0 DUP3 ADD PUSH0 SWAP1 SLOAD SWAP1 PUSH2 0x100 EXP SWAP1 DIV PUSH20 0xFFFFFFFFFFFFFFFFFFFFFFFFFFFFFFFFFFFFFFFF AND PUSH20 0xFFFFFFFFFFFFFFFFFFFFFFFFFFFFFFFFFFFFFFFF AND PUSH20 0xFFFFFFFFFFFFFFFFFFFFFFFFFFFFFFFFFFFFFFFF AND DUP2 MSTORE PUSH1 0x20 ADD PUSH1 0x1 DUP3 ADD SLOAD DUP2 MSTORE POP POP DUP2 MSTORE PUSH1 0x20 ADD SWAP1 PUSH1 0x1 ADD SWAP1 PUSH2 0x846 JUMP JUMPDEST POP POP POP POP SWAP1 POP PUSH0 DUP1 PUSH0 JUMPDEST DUP4 MLOAD DUP2 LT ISZERO PUSH2 0xAE3 JUMPI PUSH0 DUP1 CALLER PUSH20 0xFFFFFFFFFFFFFFFFFFFFFFFFFFFFFFFFFFFFFFFF AND PUSH20 0xFFFFFFFFFFFFFFFFFFFFFFFFFFFFFFFFFFFFFFFF AND DUP2 MSTORE PUSH1 0x20 ADD SWAP1 DUP2 MSTORE PUSH1 0x20 ADD PUSH0 KECCAK256 PUSH1 0x1 DUP10 PUSH2 0x930 SWAP2 SWAP1 PUSH2 0x3817 JUMP JUMPDEST DUP2 SLOAD DUP2 LT PUSH2 0x941 JUMPI PUSH2 0x940 PUSH2 0x384A JUMP JUMPDEST JUMPDEST SWAP1 PUSH0 MSTORE PUSH1 0x20 PUSH0 KECCAK256 SWAP1 PUSH1 0x8 MUL ADD PUSH1 0x5 ADD SLOAD SWAP3 POP DUP4 DUP2 DUP2 MLOAD DUP2 LT PUSH2 0x966 JUMPI PUSH2 0x965 PUSH2 0x384A JUMP JUMPDEST JUMPDEST PUSH1 0x20 MUL PUSH1 0x20 ADD ADD MLOAD PUSH1 0x20 ADD MLOAD DUP4 PUSH2 0x97D SWAP2 SWAP1 PUSH2 0x3817 JUMP JUMPDEST SWAP2 POP DUP2 PUSH0 DUP1 CALLER PUSH20 0xFFFFFFFFFFFFFFFFFFFFFFFFFFFFFFFFFFFFFFFF AND PUSH20 0xFFFFFFFFFFFFFFFFFFFFFFFFFFFFFFFFFFFFFFFF AND DUP2 MSTORE PUSH1 0x20 ADD SWAP1 DUP2 MSTORE PUSH1 0x20 ADD PUSH0 KECCAK256 PUSH1 0x1 DUP11 PUSH2 0x9C9 SWAP2 SWAP1 PUSH2 0x3817 JUMP JUMPDEST DUP2 SLOAD DUP2 LT PUSH2 0x9DA JUMPI PUSH2 0x9D9 PUSH2 0x384A JUMP JUMPDEST JUMPDEST SWAP1 PUSH0 MSTORE PUSH1 0x20 PUSH0 KECCAK256 SWAP1 PUSH1 0x8 MUL ADD PUSH1 0x5 ADD DUP2 SWAP1 SSTORE POP PUSH0 DUP5 DUP3 DUP2 MLOAD DUP2 LT PUSH2 0xA01 JUMPI PUSH2 0xA00 PUSH2 0x384A JUMP JUMPDEST JUMPDEST PUSH1 0x20 MUL PUSH1 0x20 ADD ADD MLOAD PUSH0 ADD MLOAD SWAP1 POP PUSH0 DUP2 PUSH20 0xFFFFFFFFFFFFFFFFFFFFFFFFFFFFFFFFFFFFFFFF AND DUP7 DUP5 DUP2 MLOAD DUP2 LT PUSH2 0xA39 JUMPI PUSH2 0xA38 PUSH2 0x384A JUMP JUMPDEST JUMPDEST PUSH1 0x20 MUL PUSH1 0x20 ADD ADD MLOAD PUSH1 0x20 ADD MLOAD PUSH1 0x40 MLOAD PUSH2 0xA51 SWAP1 PUSH2 0x3AAB JUMP JUMPDEST PUSH0 PUSH1 0x40 MLOAD DUP1 DUP4 SUB DUP2 DUP6 DUP8 GAS CALL SWAP3 POP POP POP RETURNDATASIZE DUP1 PUSH0 DUP2 EQ PUSH2 0xA8B JUMPI PUSH1 0x40 MLOAD SWAP2 POP PUSH1 0x1F NOT PUSH1 0x3F RETURNDATASIZE ADD AND DUP3 ADD PUSH1 0x40 MSTORE RETURNDATASIZE DUP3 MSTORE RETURNDATASIZE PUSH0 PUSH1 0x20 DUP5 ADD RETURNDATACOPY PUSH2 0xA90 JUMP JUMPDEST PUSH1 0x60 SWAP2 POP JUMPDEST POP POP SWAP1 POP DUP1 PUSH2 0xAD4 JUMPI PUSH1 0x40 MLOAD PUSH32 0x8C379A000000000000000000000000000000000000000000000000000000000 DUP2 MSTORE PUSH1 0x4 ADD PUSH2 0xACB SWAP1 PUSH2 0x3B09 JUMP JUMPDEST PUSH1 0x40 MLOAD DUP1 SWAP2 SUB SWAP1 REVERT JUMPDEST POP POP DUP1 DUP1 PUSH1 0x1 ADD SWAP2 POP POP PUSH2 0x8DE JUMP JUMPDEST POP POP POP POP POP POP POP POP JUMP JUMPDEST PUSH0 PUSH1 0x20 MSTORE DUP2 PUSH0 MSTORE PUSH1 0x40 PUSH0 KECCAK256 DUP2 DUP2 SLOAD DUP2 LT PUSH2 0xB05 JUMPI PUSH0 DUP1 REVERT JUMPDEST SWAP1 PUSH0 MSTORE PUSH1 0x20 PUSH0 KECCAK256 SWAP1 PUSH1 0x8 MUL ADD PUSH0 SWAP2 POP SWAP2 POP POP DUP1 PUSH0 ADD SLOAD SWAP1 DUP1 PUSH1 0x1 ADD DUP1 SLOAD PUSH2 0xB2B SWAP1 PUSH2 0x39C0 JUMP JUMPDEST DUP1 PUSH1 0x1F ADD PUSH1 0x20 DUP1 SWAP2 DIV MUL PUSH1 0x20 ADD PUSH1 0x40 MLOAD SWAP1 DUP2 ADD PUSH1 0x40 MSTORE DUP1 SWAP3 SWAP2 SWAP1 DUP2 DUP2 MSTORE PUSH1 0x20 ADD DUP3 DUP1 SLOAD PUSH2 0xB57 SWAP1 PUSH2 0x39C0 JUMP JUMPDEST DUP1 ISZERO PUSH2 0xBA2 JUMPI DUP1 PUSH1 0x1F LT PUSH2 0xB79 JUMPI PUSH2 0x100 DUP1 DUP4 SLOAD DIV MUL DUP4 MSTORE SWAP2 PUSH1 0x20 ADD SWAP2 PUSH2 0xBA2 JUMP JUMPDEST DUP3 ADD SWAP2 SWAP1 PUSH0 MSTORE PUSH1 0x20 PUSH0 KECCAK256 SWAP1 JUMPDEST DUP2 SLOAD DUP2 MSTORE SWAP1 PUSH1 0x1 ADD SWAP1 PUSH1 0x20 ADD DUP1 DUP4 GT PUSH2 0xB85 JUMPI DUP3 SWAP1 SUB PUSH1 0x1F AND DUP3 ADD SWAP2 JUMPDEST POP POP POP POP POP SWAP1 DUP1 PUSH1 0x2 ADD DUP1 SLOAD PUSH2 0xBB7 SWAP1 PUSH2 0x39C0 JUMP JUMPDEST DUP1 PUSH1 0x1F ADD PUSH1 0x20 DUP1 SWAP2 DIV MUL PUSH1 0x20 ADD PUSH1 0x40 MLOAD SWAP1 DUP2 ADD PUSH1 0x40 MSTORE DUP1 SWAP3 SWAP2 SWAP1 DUP2 DUP2 MSTORE PUSH1 0x20 ADD DUP3 DUP1 SLOAD PUSH2 0xBE3 SWAP1 PUSH2 0x39C0 JUMP JUMPDEST DUP1 ISZERO PUSH2 0xC2E JUMPI DUP1 PUSH1 0x1F LT PUSH2 0xC05 JUMPI PUSH2 0x100 DUP1 DUP4 SLOAD DIV MUL DUP4 MSTORE SWAP2 PUSH1 0x20 ADD SWAP2 PUSH2 0xC2E JUMP JUMPDEST DUP3 ADD SWAP2 SWAP1 PUSH0 MSTORE PUSH1 0x20 PUSH0 KECCAK256 SWAP1 JUMPDEST DUP2 SLOAD DUP2 MSTORE SWAP1 PUSH1 0x1 ADD SWAP1 PUSH1 0x20 ADD DUP1 DUP4 GT PUSH2 0xC11 JUMPI DUP3 SWAP1 SUB PUSH1 0x1F AND DUP3 ADD SWAP2 JUMPDEST POP POP POP POP POP SWAP1 DUP1 PUSH1 0x3 ADD PUSH0 SWAP1 SLOAD SWAP1 PUSH2 0x100 EXP SWAP1 DIV PUSH20 0xFFFFFFFFFFFFFFFFFFFFFFFFFFFFFFFFFFFFFFFF AND SWAP1 DUP1 PUSH1 0x4 ADD SLOAD SWAP1 DUP1 PUSH1 0x5 ADD SLOAD SWAP1 DUP1 PUSH1 0x6 ADD SLOAD SWAP1 DUP1 PUSH1 0x7 ADD PUSH0 SWAP1 SLOAD SWAP1 PUSH2 0x100 EXP SWAP1 DIV PUSH1 0xFF AND SWAP1 DUP1 PUSH1 0x7 ADD PUSH1 0x1 SWAP1 SLOAD SWAP1 PUSH2 0x100 EXP SWAP1 DIV PUSH1 0xFF AND SWAP1 POP DUP10 JUMP JUMPDEST PUSH1 0x2 PUSH1 0x20 MSTORE DUP2 PUSH0 MSTORE PUSH1 0x40 PUSH0 KECCAK256 DUP2 DUP2 SLOAD DUP2 LT PUSH2 0xCAD JUMPI PUSH0 DUP1 REVERT JUMPDEST SWAP1 PUSH0 MSTORE PUSH1 0x20 PUSH0 KECCAK256 ADD PUSH0 SWAP2 POP SWAP2 POP SWAP1 SLOAD SWAP1 PUSH2 0x100 EXP SWAP1 DIV PUSH20 0xFFFFFFFFFFFFFFFFFFFFFFFFFFFFFFFFFFFFFFFF AND DUP2 JUMP JUMPDEST DUP1 DUP3 PUSH0 DUP1 PUSH0 DUP5 PUSH20 0xFFFFFFFFFFFFFFFFFFFFFFFFFFFFFFFFFFFFFFFF AND PUSH20 0xFFFFFFFFFFFFFFFFFFFFFFFFFFFFFFFFFFFFFFFF AND DUP2 MSTORE PUSH1 0x20 ADD SWAP1 DUP2 MSTORE PUSH1 0x20 ADD PUSH0 KECCAK256 DUP1 SLOAD SWAP1 POP GT PUSH2 0xD5F JUMPI PUSH1 0x40 MLOAD PUSH32 0x8C379A000000000000000000000000000000000000000000000000000000000 DUP2 MSTORE PUSH1 0x4 ADD PUSH2 0xD56 SWAP1 PUSH2 0x37CC JUMP JUMPDEST PUSH1 0x40 MLOAD DUP1 SWAP2 SUB SWAP1 REVERT JUMPDEST DUP1 PUSH0 DUP1 DUP5 PUSH20 0xFFFFFFFFFFFFFFFFFFFFFFFFFFFFFFFFFFFFFFFF AND PUSH20 0xFFFFFFFFFFFFFFFFFFFFFFFFFFFFFFFFFFFFFFFF AND DUP2 MSTORE PUSH1 0x20 ADD SWAP1 DUP2 MSTORE PUSH1 0x20 ADD PUSH0 KECCAK256 PUSH1 0x1 DUP4 PUSH2 0xDA9 SWAP2 SWAP1 PUSH2 0x3817 JUMP JUMPDEST DUP2 SLOAD DUP2 LT PUSH2 0xDBA JUMPI PUSH2 0xDB9 PUSH2 0x384A JUMP JUMPDEST JUMPDEST SWAP1 PUSH0 MSTORE PUSH1 0x20 PUSH0 KECCAK256 SWAP1 PUSH1 0x8 MUL ADD PUSH0 ADD SLOAD EQ PUSH2 0xE09 JUMPI PUSH1 0x40 MLOAD PUSH32 0x8C379A000000000000000000000000000000000000000000000000000000000 DUP2 MSTORE PUSH1 0x4 ADD PUSH2 0xE00 SWAP1 PUSH2 0x38E7 JUMP JUMPDEST PUSH1 0x40 MLOAD DUP1 SWAP2 SUB SWAP1 REVERT JUMPDEST PUSH1 0x1 PUSH0 DUP4 PUSH20 0xFFFFFFFFFFFFFFFFFFFFFFFFFFFFFFFFFFFFFFFF AND PUSH20 0xFFFFFFFFFFFFFFFFFFFFFFFFFFFFFFFFFFFFFFFF AND DUP2 MSTORE PUSH1 0x20 ADD SWAP1 DUP2 MSTORE PUSH1 0x20 ADD PUSH0 KECCAK256 PUSH0 CALLER PUSH20 0xFFFFFFFFFFFFFFFFFFFFFFFFFFFFFFFFFFFFFFFF AND PUSH20 0xFFFFFFFFFFFFFFFFFFFFFFFFFFFFFFFFFFFFFFFF AND DUP2 MSTORE PUSH1 0x20 ADD SWAP1 DUP2 MSTORE PUSH1 0x20 ADD PUSH0 KECCAK256 PUSH0 SWAP1 SLOAD SWAP1 PUSH2 0x100 EXP SWAP1 DIV PUSH1 0xFF AND PUSH2 0xECD JUMPI PUSH1 0x40 MLOAD PUSH32 0x8C379A000000000000000000000000000000000000000000000000000000000 DUP2 MSTORE PUSH1 0x4 ADD PUSH2 0xEC4 SWAP1 PUSH2 0x3975 JUMP JUMPDEST PUSH1 0x40 MLOAD DUP1 SWAP2 SUB SWAP1 REVERT JUMPDEST PUSH0 DUP1 PUSH0 DUP6 PUSH20 0xFFFFFFFFFFFFFFFFFFFFFFFFFFFFFFFFFFFFFFFF AND PUSH20 0xFFFFFFFFFFFFFFFFFFFFFFFFFFFFFFFFFFFFFFFF AND DUP2 MSTORE PUSH1 0x20 ADD SWAP1 DUP2 MSTORE PUSH1 0x20 ADD PUSH0 KECCAK256 PUSH1 0x1 DUP7 PUSH2 0xF17 SWAP2 SWAP1 PUSH2 0x3817 JUMP JUMPDEST DUP2 SLOAD DUP2 LT PUSH2 0xF28 JUMPI PUSH2 0xF27 PUSH2 0x384A JUMP JUMPDEST JUMPDEST SWAP1 PUSH0 MSTORE PUSH1 0x20 PUSH0 KECCAK256 SWAP1 PUSH1 0x8 MUL ADD PUSH1 0x40 MLOAD DUP1 PUSH2 0x120 ADD PUSH1 0x40 MSTORE SWAP1 DUP2 PUSH0 DUP3 ADD SLOAD DUP2 MSTORE PUSH1 0x20 ADD PUSH1 0x1 DUP3 ADD DUP1 SLOAD PUSH2 0xF59 SWAP1 PUSH2 0x39C0 JUMP JUMPDEST DUP1 PUSH1 0x1F ADD PUSH1 0x20 DUP1 SWAP2 DIV MUL PUSH1 0x20 ADD PUSH1 0x40 MLOAD SWAP1 DUP2 ADD PUSH1 0x40 MSTORE DUP1 SWAP3 SWAP2 SWAP1 DUP2 DUP2 MSTORE PUSH1 0x20 ADD DUP3 DUP1 SLOAD PUSH2 0xF85 SWAP1 PUSH2 0x39C0 JUMP JUMPDEST DUP1 ISZERO PUSH2 0xFD0 JUMPI DUP1 PUSH1 0x1F LT PUSH2 0xFA7 JUMPI PUSH2 0x100 DUP1 DUP4 SLOAD DIV MUL DUP4 MSTORE SWAP2 PUSH1 0x20 ADD SWAP2 PUSH2 0xFD0 JUMP JUMPDEST DUP3 ADD SWAP2 SWAP1 PUSH0 MSTORE PUSH1 0x20 PUSH0 KECCAK256 SWAP1 JUMPDEST DUP2 SLOAD DUP2 MSTORE SWAP1 PUSH1 0x1 ADD SWAP1 PUSH1 0x20 ADD DUP1 DUP4 GT PUSH2 0xFB3 JUMPI DUP3 SWAP1 SUB PUSH1 0x1F AND DUP3 ADD SWAP2 JUMPDEST POP POP POP POP POP DUP2 MSTORE PUSH1 0x20 ADD PUSH1 0x2 DUP3 ADD DUP1 SLOAD PUSH2 0xFE9 SWAP1 PUSH2 0x39C0 JUMP JUMPDEST DUP1 PUSH1 0x1F ADD PUSH1 0x20 DUP1 SWAP2 DIV MUL PUSH1 0x20 ADD PUSH1 0x40 MLOAD SWAP1 DUP2 ADD PUSH1 0x40 MSTORE DUP1 SWAP3 SWAP2 SWAP1 DUP2 DUP2 MSTORE PUSH1 0x20 ADD DUP3 DUP1 SLOAD PUSH2 0x1015 SWAP1 PUSH2 0x39C0 JUMP JUMPDEST DUP1 ISZERO PUSH2 0x1060 JUMPI DUP1 PUSH1 0x1F LT PUSH2 0x1037 JUMPI PUSH2 0x100 DUP1 DUP4 SLOAD DIV MUL DUP4 MSTORE SWAP2 PUSH1 0x20 ADD SWAP2 PUSH2 0x1060 JUMP JUMPDEST DUP3 ADD SWAP2 SWAP1 PUSH0 MSTORE PUSH1 0x20 PUSH0 KECCAK256 SWAP1 JUMPDEST DUP2 SLOAD DUP2 MSTORE SWAP1 PUSH1 0x1 ADD SWAP1 PUSH1 0x20 ADD DUP1 DUP4 GT PUSH2 0x1043 JUMPI DUP3 SWAP1 SUB PUSH1 0x1F AND DUP3 ADD SWAP2 JUMPDEST POP POP POP POP POP DUP2 MSTORE PUSH1 0x20 ADD PUSH1 0x3 DUP3 ADD PUSH0 SWAP1 SLOAD SWAP1 PUSH2 0x100 EXP SWAP1 DIV PUSH20 0xFFFFFFFFFFFFFFFFFFFFFFFFFFFFFFFFFFFFFFFF AND PUSH20 0xFFFFFFFFFFFFFFFFFFFFFFFFFFFFFFFFFFFFFFFF AND PUSH20 0xFFFFFFFFFFFFFFFFFFFFFFFFFFFFFFFFFFFFFFFF AND DUP2 MSTORE PUSH1 0x20 ADD PUSH1 0x4 DUP3 ADD SLOAD DUP2 MSTORE PUSH1 0x20 ADD PUSH1 0x5 DUP3 ADD SLOAD DUP2 MSTORE PUSH1 0x20 ADD PUSH1 0x6 DUP3 ADD SLOAD DUP2 MSTORE PUSH1 0x20 ADD PUSH1 0x7 DUP3 ADD PUSH0 SWAP1 SLOAD SWAP1 PUSH2 0x100 EXP SWAP1 DIV PUSH1 0xFF AND ISZERO ISZERO ISZERO ISZERO DUP2 MSTORE PUSH1 0x20 ADD PUSH1 0x7 DUP3 ADD PUSH1 0x1 SWAP1 SLOAD SWAP1 PUSH2 0x100 EXP SWAP1 DIV PUSH1 0xFF AND ISZERO ISZERO ISZERO ISZERO DUP2 MSTORE POP POP SWAP1 POP PUSH0 DUP2 PUSH1 0xA0 ADD MLOAD EQ PUSH2 0x1159 JUMPI PUSH1 0x40 MLOAD PUSH32 0x8C379A000000000000000000000000000000000000000000000000000000000 DUP2 MSTORE PUSH1 0x4 ADD PUSH2 0x1150 SWAP1 PUSH2 0x3BBD JUMP JUMPDEST PUSH1 0x40 MLOAD DUP1 SWAP2 SUB SWAP1 REVERT JUMPDEST DUP1 PUSH1 0xE0 ADD MLOAD ISZERO PUSH2 0x119E JUMPI PUSH1 0x40 MLOAD PUSH32 0x8C379A000000000000000000000000000000000000000000000000000000000 DUP2 MSTORE PUSH1 0x4 ADD PUSH2 0x1195 SWAP1 PUSH2 0x3C4B JUMP JUMPDEST PUSH1 0x40 MLOAD DUP1 SWAP2 SUB SWAP1 REVERT JUMPDEST PUSH1 0x1 PUSH0 DUP1 DUP7 PUSH20 0xFFFFFFFFFFFFFFFFFFFFFFFFFFFFFFFFFFFFFFFF AND PUSH20 0xFFFFFFFFFFFFFFFFFFFFFFFFFFFFFFFFFFFFFFFF AND DUP2 MSTORE PUSH1 0x20 ADD SWAP1 DUP2 MSTORE PUSH1 0x20 ADD PUSH0 KECCAK256 PUSH1 0x1 DUP8 PUSH2 0x11E9 SWAP2 SWAP1 PUSH2 0x3817 JUMP JUMPDEST DUP2 SLOAD DUP2 LT PUSH2 0x11FA JUMPI PUSH2 0x11F9 PUSH2 0x384A JUMP JUMPDEST JUMPDEST SWAP1 PUSH0 MSTORE PUSH1 0x20 PUSH0 KECCAK256 SWAP1 PUSH1 0x8 MUL ADD PUSH1 0x7 ADD PUSH1 0x1 PUSH2 0x100 EXP DUP2 SLOAD DUP2 PUSH1 0xFF MUL NOT AND SWAP1 DUP4 ISZERO ISZERO MUL OR SWAP1 SSTORE POP PUSH32 0xDDF13B23F5AA44ED82E83C974BB182744638F745E4BCF56AC5343BC41A67AD55 DUP5 DUP7 PUSH1 0x40 MLOAD PUSH2 0x1251 SWAP3 SWAP2 SWAP1 PUSH2 0x3735 JUMP JUMPDEST PUSH1 0x40 MLOAD DUP1 SWAP2 SUB SWAP1 LOG1 POP POP POP POP POP JUMP JUMPDEST PUSH1 0x4 PUSH1 0x20 MSTORE DUP2 PUSH0 MSTORE PUSH1 0x40 PUSH0 KECCAK256 DUP2 DUP2 SLOAD DUP2 LT PUSH2 0x1279 JUMPI PUSH0 DUP1 REVERT JUMPDEST SWAP1 PUSH0 MSTORE PUSH1 0x20 PUSH0 KECCAK256 SWAP1 PUSH1 0x5 MUL ADD PUSH0 SWAP2 POP SWAP2 POP POP DUP1 PUSH0 ADD SLOAD SWAP1 DUP1 PUSH1 0x1 ADD DUP1 SLOAD PUSH2 0x129F SWAP1 PUSH2 0x39C0 JUMP JUMPDEST DUP1 PUSH1 0x1F ADD PUSH1 0x20 DUP1 SWAP2 DIV MUL PUSH1 0x20 ADD PUSH1 0x40 MLOAD SWAP1 DUP2 ADD PUSH1 0x40 MSTORE DUP1 SWAP3 SWAP2 SWAP1 DUP2 DUP2 MSTORE PUSH1 0x20 ADD DUP3 DUP1 SLOAD PUSH2 0x12CB SWAP1 PUSH2 0x39C0 JUMP JUMPDEST DUP1 ISZERO PUSH2 0x1316 JUMPI DUP1 PUSH1 0x1F LT PUSH2 0x12ED JUMPI PUSH2 0x100 DUP1 DUP4 SLOAD DIV MUL DUP4 MSTORE SWAP2 PUSH1 0x20 ADD SWAP2 PUSH2 0x1316 JUMP JUMPDEST DUP3 ADD SWAP2 SWAP1 PUSH0 MSTORE PUSH1 0x20 PUSH0 KECCAK256 SWAP1 JUMPDEST DUP2 SLOAD DUP2 MSTORE SWAP1 PUSH1 0x1 ADD SWAP1 PUSH1 0x20 ADD DUP1 DUP4 GT PUSH2 0x12F9 JUMPI DUP3 SWAP1 SUB PUSH1 0x1F AND DUP3 ADD SWAP2 JUMPDEST POP POP POP POP POP SWAP1 DUP1 PUSH1 0x2 ADD SLOAD SWAP1 DUP1 PUSH1 0x3 ADD PUSH0 SWAP1 SLOAD SWAP1 PUSH2 0x100 EXP SWAP1 DIV PUSH20 0xFFFFFFFFFFFFFFFFFFFFFFFFFFFFFFFFFFFFFFFF AND SWAP1 DUP1 PUSH1 0x4 ADD PUSH0 SWAP1 SLOAD SWAP1 PUSH2 0x100 EXP SWAP1 DIV PUSH20 0xFFFFFFFFFFFFFFFFFFFFFFFFFFFFFFFFFFFFFFFF AND SWAP1 POP DUP6 JUMP JUMPDEST DUP2 PUSH0 DUP1 DUP6 PUSH20 0xFFFFFFFFFFFFFFFFFFFFFFFFFFFFFFFFFFFFFFFF AND PUSH20 0xFFFFFFFFFFFFFFFFFFFFFFFFFFFFFFFFFFFFFFFF AND DUP2 MSTORE PUSH1 0x20 ADD SWAP1 DUP2 MSTORE PUSH1 0x20 ADD PUSH0 KECCAK256 PUSH1 0x1 DUP5 PUSH2 0x13BA SWAP2 SWAP1 PUSH2 0x3817 JUMP JUMPDEST DUP2 SLOAD DUP2 LT PUSH2 0x13CB JUMPI PUSH2 0x13CA PUSH2 0x384A JUMP JUMPDEST JUMPDEST SWAP1 PUSH0 MSTORE PUSH1 0x20 PUSH0 KECCAK256 SWAP1 PUSH1 0x8 MUL ADD PUSH0 ADD SLOAD EQ DUP3 PUSH1 0x40 MLOAD PUSH1 0x20 ADD PUSH2 0x13EC SWAP2 SWAP1 PUSH2 0x3D27 JUMP JUMPDEST PUSH1 0x40 MLOAD PUSH1 0x20 DUP2 DUP4 SUB SUB DUP2 MSTORE SWAP1 PUSH1 0x40 MSTORE SWAP1 PUSH2 0x143C JUMPI PUSH1 0x40 MLOAD PUSH32 0x8C379A000000000000000000000000000000000000000000000000000000000 DUP2 MSTORE PUSH1 0x4 ADD PUSH2 0x1433 SWAP2 SWAP1 PUSH2 0x3D57 JUMP JUMPDEST PUSH1 0x40 MLOAD DUP1 SWAP2 SUB SWAP1 REVERT JUMPDEST POP PUSH0 DUP1 DUP5 PUSH20 0xFFFFFFFFFFFFFFFFFFFFFFFFFFFFFFFFFFFFFFFF AND PUSH20 0xFFFFFFFFFFFFFFFFFFFFFFFFFFFFFFFFFFFFFFFF AND DUP2 MSTORE PUSH1 0x20 ADD SWAP1 DUP2 MSTORE PUSH1 0x20 ADD PUSH0 KECCAK256 PUSH1 0x1 DUP4 PUSH2 0x1486 SWAP2 SWAP1 PUSH2 0x3817 JUMP JUMPDEST DUP2 SLOAD DUP2 LT PUSH2 0x1497 JUMPI PUSH2 0x1496 PUSH2 0x384A JUMP JUMPDEST JUMPDEST SWAP1 PUSH0 MSTORE PUSH1 0x20 PUSH0 KECCAK256 SWAP1 PUSH1 0x8 MUL ADD PUSH1 0x6 ADD SLOAD TIMESTAMP LT PUSH2 0x14E8 JUMPI PUSH1 0x40 MLOAD PUSH32 0x8C379A000000000000000000000000000000000000000000000000000000000 DUP2 MSTORE PUSH1 0x4 ADD PUSH2 0x14DF SWAP1 PUSH2 0x3DE7 JUMP JUMPDEST PUSH1 0x40 MLOAD DUP1 SWAP2 SUB SWAP1 REVERT JUMPDEST PUSH0 DUP1 DUP5 PUSH20 0xFFFFFFFFFFFFFFFFFFFFFFFFFFFFFFFFFFFFFFFF AND PUSH20 0xFFFFFFFFFFFFFFFFFFFFFFFFFFFFFFFFFFFFFFFF AND DUP2 MSTORE PUSH1 0x20 ADD SWAP1 DUP2 MSTORE PUSH1 0x20 ADD PUSH0 KECCAK256 PUSH1 0x1 DUP4 PUSH2 0x1531 SWAP2 SWAP1 PUSH2 0x3817 JUMP JUMPDEST DUP2 SLOAD DUP2 LT PUSH2 0x1542 JUMPI PUSH2 0x1541 PUSH2 0x384A JUMP JUMPDEST JUMPDEST SWAP1 PUSH0 MSTORE PUSH1 0x20 PUSH0 KECCAK256 SWAP1 PUSH1 0x8 MUL ADD PUSH1 0x7 ADD PUSH1 0x1 SWAP1 SLOAD SWAP1 PUSH2 0x100 EXP SWAP1 DIV PUSH1 0xFF AND ISZERO PUSH0 DUP1 DUP6 PUSH20 0xFFFFFFFFFFFFFFFFFFFFFFFFFFFFFFFFFFFFFFFF AND PUSH20 0xFFFFFFFFFFFFFFFFFFFFFFFFFFFFFFFFFFFFFFFF AND DUP2 MSTORE PUSH1 0x20 ADD SWAP1 DUP2 MSTORE PUSH1 0x20 ADD PUSH0 KECCAK256 PUSH1 0x1 DUP5 PUSH2 0x15A9 SWAP2 SWAP1 PUSH2 0x3817 JUMP JUMPDEST DUP2 SLOAD DUP2 LT PUSH2 0x15BA JUMPI PUSH2 0x15B9 PUSH2 0x384A JUMP JUMPDEST JUMPDEST SWAP1 PUSH0 MSTORE PUSH1 0x20 PUSH0 KECCAK256 SWAP1 PUSH1 0x8 MUL ADD PUSH1 0x1 ADD PUSH1 0x40 MLOAD PUSH1 0x20 ADD PUSH2 0x15D9 SWAP2 SWAP1 PUSH2 0x3F2B JUMP JUMPDEST PUSH1 0x40 MLOAD PUSH1 0x20 DUP2 DUP4 SUB SUB DUP2 MSTORE SWAP1 PUSH1 0x40 MSTORE SWAP1 PUSH2 0x1629 JUMPI PUSH1 0x40 MLOAD PUSH32 0x8C379A000000000000000000000000000000000000000000000000000000000 DUP2 MSTORE PUSH1 0x4 ADD PUSH2 0x1620 SWAP2 SWAP1 PUSH2 0x3D57 JUMP JUMPDEST PUSH1 0x40 MLOAD DUP1 SWAP2 SUB SWAP1 REVERT JUMPDEST POP PUSH0 DUP1 DUP5 PUSH20 0xFFFFFFFFFFFFFFFFFFFFFFFFFFFFFFFFFFFFFFFF AND PUSH20 0xFFFFFFFFFFFFFFFFFFFFFFFFFFFFFFFFFFFFFFFF AND DUP2 MSTORE PUSH1 0x20 ADD SWAP1 DUP2 MSTORE PUSH1 0x20 ADD PUSH0 KECCAK256 PUSH1 0x1 DUP4 PUSH2 0x1673 SWAP2 SWAP1 PUSH2 0x3817 JUMP JUMPDEST DUP2 SLOAD DUP2 LT PUSH2 0x1684 JUMPI PUSH2 0x1683 PUSH2 0x384A JUMP JUMPDEST JUMPDEST SWAP1 PUSH0 MSTORE PUSH1 0x20 PUSH0 KECCAK256 SWAP1 PUSH1 0x8 MUL ADD PUSH1 0x7 ADD PUSH0 SWAP1 SLOAD SWAP1 PUSH2 0x100 EXP SWAP1 DIV PUSH1 0xFF AND ISZERO PUSH0 DUP1 DUP6 PUSH20 0xFFFFFFFFFFFFFFFFFFFFFFFFFFFFFFFFFFFFFFFF AND PUSH20 0xFFFFFFFFFFFFFFFFFFFFFFFFFFFFFFFFFFFFFFFF AND DUP2 MSTORE PUSH1 0x20 ADD SWAP1 DUP2 MSTORE PUSH1 0x20 ADD PUSH0 KECCAK256 PUSH1 0x1 DUP5 PUSH2 0x16EA SWAP2 SWAP1 PUSH2 0x3817 JUMP JUMPDEST DUP2 SLOAD DUP2 LT PUSH2 0x16FB JUMPI PUSH2 0x16FA PUSH2 0x384A JUMP JUMPDEST JUMPDEST SWAP1 PUSH0 MSTORE PUSH1 0x20 PUSH0 KECCAK256 SWAP1 PUSH1 0x8 MUL ADD PUSH1 0x1 ADD PUSH1 0x40 MLOAD PUSH1 0x20 ADD PUSH2 0x171A SWAP2 SWAP1 PUSH2 0x3FA1 JUMP JUMPDEST PUSH1 0x40 MLOAD PUSH1 0x20 DUP2 DUP4 SUB SUB DUP2 MSTORE SWAP1 PUSH1 0x40 MSTORE SWAP1 PUSH2 0x176A JUMPI PUSH1 0x40 MLOAD PUSH32 0x8C379A000000000000000000000000000000000000000000000000000000000 DUP2 MSTORE PUSH1 0x4 ADD PUSH2 0x1761 SWAP2 SWAP1 PUSH2 0x3D57 JUMP JUMPDEST PUSH1 0x40 MLOAD DUP1 SWAP2 SUB SWAP1 REVERT JUMPDEST POP PUSH0 DUP2 GT PUSH2 0x17AD JUMPI PUSH1 0x40 MLOAD PUSH32 0x8C379A000000000000000000000000000000000000000000000000000000000 DUP2 MSTORE PUSH1 0x4 ADD PUSH2 0x17A4 SWAP1 PUSH2 0x4017 JUMP JUMPDEST PUSH1 0x40 MLOAD DUP1 SWAP2 SUB SWAP1 REVERT JUMPDEST DUP1 CALLVALUE EQ PUSH2 0x17EF JUMPI PUSH1 0x40 MLOAD PUSH32 0x8C379A000000000000000000000000000000000000000000000000000000000 DUP2 MSTORE PUSH1 0x4 ADD PUSH2 0x17E6 SWAP1 PUSH2 0x40A5 JUMP JUMPDEST PUSH1 0x40 MLOAD DUP1 SWAP2 SUB SWAP1 REVERT JUMPDEST DUP1 PUSH0 DUP1 DUP6 PUSH20 0xFFFFFFFFFFFFFFFFFFFFFFFFFFFFFFFFFFFFFFFF AND PUSH20 0xFFFFFFFFFFFFFFFFFFFFFFFFFFFFFFFFFFFFFFFF AND DUP2 MSTORE PUSH1 0x20 ADD SWAP1 DUP2 MSTORE PUSH1 0x20 ADD PUSH0 KECCAK256 PUSH1 0x1 DUP5 PUSH2 0x1839 SWAP2 SWAP1 PUSH2 0x3817 JUMP JUMPDEST DUP2 SLOAD DUP2 LT PUSH2 0x184A JUMPI PUSH2 0x1849 PUSH2 0x384A JUMP JUMPDEST JUMPDEST SWAP1 PUSH0 MSTORE PUSH1 0x20 PUSH0 KECCAK256 SWAP1 PUSH1 0x8 MUL ADD PUSH1 0x5 ADD PUSH0 DUP3 DUP3 SLOAD PUSH2 0x1867 SWAP2 SWAP1 PUSH2 0x40C3 JUMP JUMPDEST SWAP3 POP POP DUP2 SWAP1 SSTORE POP PUSH0 DUP1 DUP5 PUSH20 0xFFFFFFFFFFFFFFFFFFFFFFFFFFFFFFFFFFFFFFFF AND PUSH20 0xFFFFFFFFFFFFFFFFFFFFFFFFFFFFFFFFFFFFFFFF AND DUP2 MSTORE PUSH1 0x20 ADD SWAP1 DUP2 MSTORE PUSH1 0x20 ADD PUSH0 KECCAK256 PUSH1 0x1 DUP4 PUSH2 0x18B7 SWAP2 SWAP1 PUSH2 0x3817 JUMP JUMPDEST DUP2 SLOAD DUP2 LT PUSH2 0x18C8 JUMPI PUSH2 0x18C7 PUSH2 0x384A JUMP JUMPDEST JUMPDEST SWAP1 PUSH0 MSTORE PUSH1 0x20 PUSH0 KECCAK256 SWAP1 PUSH1 0x8 MUL ADD PUSH1 0x4 ADD SLOAD PUSH0 DUP1 DUP6 PUSH20 0xFFFFFFFFFFFFFFFFFFFFFFFFFFFFFFFFFFFFFFFF AND PUSH20 0xFFFFFFFFFFFFFFFFFFFFFFFFFFFFFFFFFFFFFFFF AND DUP2 MSTORE PUSH1 0x20 ADD SWAP1 DUP2 MSTORE PUSH1 0x20 ADD PUSH0 KECCAK256 PUSH1 0x1 DUP5 PUSH2 0x1921 SWAP2 SWAP1 PUSH2 0x3817 JUMP JUMPDEST DUP2 SLOAD DUP2 LT PUSH2 0x1932 JUMPI PUSH2 0x1931 PUSH2 0x384A JUMP JUMPDEST JUMPDEST SWAP1 PUSH0 MSTORE PUSH1 0x20 PUSH0 KECCAK256 SWAP1 PUSH1 0x8 MUL ADD PUSH1 0x5 ADD SLOAD LT PUSH2 0x1A02 JUMPI PUSH1 0x1 PUSH0 DUP1 DUP6 PUSH20 0xFFFFFFFFFFFFFFFFFFFFFFFFFFFFFFFFFFFFFFFF AND PUSH20 0xFFFFFFFFFFFFFFFFFFFFFFFFFFFFFFFFFFFFFFFF AND DUP2 MSTORE PUSH1 0x20 ADD SWAP1 DUP2 MSTORE PUSH1 0x20 ADD PUSH0 KECCAK256 PUSH1 0x1 DUP5 PUSH2 0x1992 SWAP2 SWAP1 PUSH2 0x3817 JUMP JUMPDEST DUP2 SLOAD DUP2 LT PUSH2 0x19A3 JUMPI PUSH2 0x19A2 PUSH2 0x384A JUMP JUMPDEST JUMPDEST SWAP1 PUSH0 MSTORE PUSH1 0x20 PUSH0 KECCAK256 SWAP1 PUSH1 0x8 MUL ADD PUSH1 0x7 ADD PUSH0 PUSH2 0x100 EXP DUP2 SLOAD DUP2 PUSH1 0xFF MUL NOT AND SWAP1 DUP4 ISZERO ISZERO MUL OR SWAP1 SSTORE POP PUSH32 0x8559B4DC0428EF20B1A5974FFF4845E3163BFBEC589128D75C7DA62148FBD8AE DUP4 DUP4 PUSH1 0x40 MLOAD PUSH2 0x19F9 SWAP3 SWAP2 SWAP1 PUSH2 0x4151 JUMP JUMPDEST PUSH1 0x40 MLOAD DUP1 SWAP2 SUB SWAP1 LOG1 JUMPDEST PUSH0 PUSH1 0x40 MLOAD DUP1 PUSH1 0x80 ADD PUSH1 0x40 MSTORE DUP1 DUP6 PUSH20 0xFFFFFFFFFFFFFFFFFFFFFFFFFFFFFFFFFFFFFFFF AND DUP2 MSTORE PUSH1 0x20 ADD DUP5 DUP2 MSTORE PUSH1 0x20 ADD PUSH0 DUP1 DUP8 PUSH20 0xFFFFFFFFFFFFFFFFFFFFFFFFFFFFFFFFFFFFFFFF AND PUSH20 0xFFFFFFFFFFFFFFFFFFFFFFFFFFFFFFFFFFFFFFFF AND DUP2 MSTORE PUSH1 0x20 ADD SWAP1 DUP2 MSTORE PUSH1 0x20 ADD PUSH0 KECCAK256 PUSH1 0x1 DUP7 PUSH2 0x1A79 SWAP2 SWAP1 PUSH2 0x3817 JUMP JUMPDEST DUP2 SLOAD DUP2 LT PUSH2 0x1A8A JUMPI PUSH2 0x1A89 PUSH2 0x384A JUMP JUMPDEST JUMPDEST SWAP1 PUSH0 MSTORE PUSH1 0x20 PUSH0 KECCAK256 SWAP1 PUSH1 0x8 MUL ADD PUSH1 0x1 ADD DUP1 SLOAD PUSH2 0x1AA4 SWAP1 PUSH2 0x39C0 JUMP JUMPDEST DUP1 PUSH1 0x1F ADD PUSH1 0x20 DUP1 SWAP2 DIV MUL PUSH1 0x20 ADD PUSH1 0x40 MLOAD SWAP1 DUP2 ADD PUSH1 0x40 MSTORE DUP1 SWAP3 SWAP2 SWAP1 DUP2 DUP2 MSTORE PUSH1 0x20 ADD DUP3 DUP1 SLOAD PUSH2 0x1AD0 SWAP1 PUSH2 0x39C0 JUMP JUMPDEST DUP1 ISZERO PUSH2 0x1B1B JUMPI DUP1 PUSH1 0x1F LT PUSH2 0x1AF2 JUMPI PUSH2 0x100 DUP1 DUP4 SLOAD DIV MUL DUP4 MSTORE SWAP2 PUSH1 0x20 ADD SWAP2 PUSH2 0x1B1B JUMP JUMPDEST DUP3 ADD SWAP2 SWAP1 PUSH0 MSTORE PUSH1 0x20 PUSH0 KECCAK256 SWAP1 JUMPDEST DUP2 SLOAD DUP2 MSTORE SWAP1 PUSH1 0x1 ADD SWAP1 PUSH1 0x20 ADD DUP1 DUP4 GT PUSH2 0x1AFE JUMPI DUP3 SWAP1 SUB PUSH1 0x1F AND DUP3 ADD SWAP2 JUMPDEST POP POP POP POP POP DUP2 MSTORE PUSH1 0x20 ADD DUP4 DUP2 MSTORE POP SWAP1 POP PUSH1 0x3 PUSH0 CALLER PUSH20 0xFFFFFFFFFFFFFFFFFFFFFFFFFFFFFFFFFFFFFFFF AND PUSH20 0xFFFFFFFFFFFFFFFFFFFFFFFFFFFFFFFFFFFFFFFF AND DUP2 MSTORE PUSH1 0x20 ADD SWAP1 DUP2 MSTORE PUSH1 0x20 ADD PUSH0 KECCAK256 DUP2 SWAP1 DUP1 PUSH1 0x1 DUP2 SLOAD ADD DUP1 DUP3 SSTORE DUP1 SWAP2 POP POP PUSH1 0x1 SWAP1 SUB SWAP1 PUSH0 MSTORE PUSH1 0x20 PUSH0 KECCAK256 SWAP1 PUSH1 0x4 MUL ADD PUSH0 SWAP1 SWAP2 SWAP1 SWAP2 SWAP1 SWAP2 POP PUSH0 DUP3 ADD MLOAD DUP2 PUSH0 ADD PUSH0 PUSH2 0x100 EXP DUP2 SLOAD DUP2 PUSH20 0xFFFFFFFFFFFFFFFFFFFFFFFFFFFFFFFFFFFFFFFF MUL NOT AND SWAP1 DUP4 PUSH20 0xFFFFFFFFFFFFFFFFFFFFFFFFFFFFFFFFFFFFFFFF AND MUL OR SWAP1 SSTORE POP PUSH1 0x20 DUP3 ADD MLOAD DUP2 PUSH1 0x1 ADD SSTORE PUSH1 0x40 DUP3 ADD MLOAD DUP2 PUSH1 0x2 ADD SWAP1 DUP2 PUSH2 0x1BF2 SWAP2 SWAP1 PUSH2 0x42FA JUMP JUMPDEST POP PUSH1 0x60 DUP3 ADD MLOAD DUP2 PUSH1 0x3 ADD SSTORE POP POP PUSH0 PUSH1 0x40 MLOAD DUP1 PUSH1 0x40 ADD PUSH1 0x40 MSTORE DUP1 CALLER PUSH20 0xFFFFFFFFFFFFFFFFFFFFFFFFFFFFFFFFFFFFFFFF AND DUP2 MSTORE PUSH1 0x20 ADD DUP5 DUP2 MSTORE POP SWAP1 POP PUSH1 0x5 PUSH0 DUP7 PUSH20 0xFFFFFFFFFFFFFFFFFFFFFFFFFFFFFFFFFFFFFFFF AND PUSH20 0xFFFFFFFFFFFFFFFFFFFFFFFFFFFFFFFFFFFFFFFF AND DUP2 MSTORE PUSH1 0x20 ADD SWAP1 DUP2 MSTORE PUSH1 0x20 ADD PUSH0 KECCAK256 PUSH0 DUP6 DUP2 MSTORE PUSH1 0x20 ADD SWAP1 DUP2 MSTORE PUSH1 0x20 ADD PUSH0 KECCAK256 DUP2 SWAP1 DUP1 PUSH1 0x1 DUP2 SLOAD ADD DUP1 DUP3 SSTORE DUP1 SWAP2 POP POP PUSH1 0x1 SWAP1 SUB SWAP1 PUSH0 MSTORE PUSH1 0x20 PUSH0 KECCAK256 SWAP1 PUSH1 0x2 MUL ADD PUSH0 SWAP1 SWAP2 SWAP1 SWAP2 SWAP1 SWAP2 POP PUSH0 DUP3 ADD MLOAD DUP2 PUSH0 ADD PUSH0 PUSH2 0x100 EXP DUP2 SLOAD DUP2 PUSH20 0xFFFFFFFFFFFFFFFFFFFFFFFFFFFFFFFFFFFFFFFF MUL NOT AND SWAP1 DUP4 PUSH20 0xFFFFFFFFFFFFFFFFFFFFFFFFFFFFFFFFFFFFFFFF AND MUL OR SWAP1 SSTORE POP PUSH1 0x20 DUP3 ADD MLOAD DUP2 PUSH1 0x1 ADD SSTORE POP POP PUSH32 0xBE0281DCB233D52D4D243D0D6FF4ED47E8641AECF85B98611ADE1C9307186B7D CALLER DUP5 DUP8 DUP8 PUSH1 0x40 MLOAD PUSH2 0x1D25 SWAP5 SWAP4 SWAP3 SWAP2 SWAP1 PUSH2 0x43C9 JUMP JUMPDEST PUSH1 0x40 MLOAD DUP1 SWAP2 SUB SWAP1 LOG1 POP POP POP POP POP JUMP JUMPDEST PUSH1 0x3 PUSH1 0x20 MSTORE DUP2 PUSH0 MSTORE PUSH1 0x40 PUSH0 KECCAK256 DUP2 DUP2 SLOAD DUP2 LT PUSH2 0x1D4D JUMPI PUSH0 DUP1 REVERT JUMPDEST SWAP1 PUSH0 MSTORE PUSH1 0x20 PUSH0 KECCAK256 SWAP1 PUSH1 0x4 MUL ADD PUSH0 SWAP2 POP SWAP2 POP POP DUP1 PUSH0 ADD PUSH0 SWAP1 SLOAD SWAP1 PUSH2 0x100 EXP SWAP1 DIV PUSH20 0xFFFFFFFFFFFFFFFFFFFFFFFFFFFFFFFFFFFFFFFF AND SWAP1 DUP1 PUSH1 0x1 ADD SLOAD SWAP1 DUP1 PUSH1 0x2 ADD DUP1 SLOAD PUSH2 0x1D98 SWAP1 PUSH2 0x39C0 JUMP JUMPDEST DUP1 PUSH1 0x1F ADD PUSH1 0x20 DUP1 SWAP2 DIV MUL PUSH1 0x20 ADD PUSH1 0x40 MLOAD SWAP1 DUP2 ADD PUSH1 0x40 MSTORE DUP1 SWAP3 SWAP2 SWAP1 DUP2 DUP2 MSTORE PUSH1 0x20 ADD DUP3 DUP1 SLOAD PUSH2 0x1DC4 SWAP1 PUSH2 0x39C0 JUMP JUMPDEST DUP1 ISZERO PUSH2 0x1E0F JUMPI DUP1 PUSH1 0x1F LT PUSH2 0x1DE6 JUMPI PUSH2 0x100 DUP1 DUP4 SLOAD DIV MUL DUP4 MSTORE SWAP2 PUSH1 0x20 ADD SWAP2 PUSH2 0x1E0F JUMP JUMPDEST DUP3 ADD SWAP2 SWAP1 PUSH0 MSTORE PUSH1 0x20 PUSH0 KECCAK256 SWAP1 JUMPDEST DUP2 SLOAD DUP2 MSTORE SWAP1 PUSH1 0x1 ADD SWAP1 PUSH1 0x20 ADD DUP1 DUP4 GT PUSH2 0x1DF2 JUMPI DUP3 SWAP1 SUB PUSH1 0x1F AND DUP3 ADD SWAP2 JUMPDEST POP POP POP POP POP SWAP1 DUP1 PUSH1 0x3 ADD SLOAD SWAP1 POP DUP5 JUMP JUMPDEST PUSH0 JUMPDEST PUSH0 DUP1 CALLER PUSH20 0xFFFFFFFFFFFFFFFFFFFFFFFFFFFFFFFFFFFFFFFF AND PUSH20 0xFFFFFFFFFFFFFFFFFFFFFFFFFFFFFFFFFFFFFFFF AND DUP2 MSTORE PUSH1 0x20 ADD SWAP1 DUP2 MSTORE PUSH1 0x20 ADD PUSH0 KECCAK256 DUP1 SLOAD SWAP1 POP DUP2 LT ISZERO PUSH2 0x1F8B JUMPI PUSH0 DUP1 PUSH0 CALLER PUSH20 0xFFFFFFFFFFFFFFFFFFFFFFFFFFFFFFFFFFFFFFFF AND PUSH20 0xFFFFFFFFFFFFFFFFFFFFFFFFFFFFFFFFFFFFFFFF AND DUP2 MSTORE PUSH1 0x20 ADD SWAP1 DUP2 MSTORE PUSH1 0x20 ADD PUSH0 KECCAK256 DUP3 DUP2 SLOAD DUP2 LT PUSH2 0x1EB7 JUMPI PUSH2 0x1EB6 PUSH2 0x384A JUMP JUMPDEST JUMPDEST SWAP1 PUSH0 MSTORE PUSH1 0x20 PUSH0 KECCAK256 SWAP1 PUSH1 0x8 MUL ADD PUSH1 0x1 ADD SWAP1 POP PUSH0 DUP7 PUSH1 0x40 MLOAD PUSH1 0x20 ADD PUSH2 0x1EDA SWAP2 SWAP1 PUSH2 0x443C JUMP JUMPDEST PUSH1 0x40 MLOAD PUSH1 0x20 DUP2 DUP4 SUB SUB DUP2 MSTORE SWAP1 PUSH1 0x40 MSTORE DUP1 MLOAD SWAP1 PUSH1 0x20 ADD KECCAK256 DUP3 PUSH1 0x40 MLOAD PUSH1 0x20 ADD PUSH2 0x1F01 SWAP2 SWAP1 PUSH2 0x44E4 JUMP JUMPDEST PUSH1 0x40 MLOAD PUSH1 0x20 DUP2 DUP4 SUB SUB DUP2 MSTORE SWAP1 PUSH1 0x40 MSTORE DUP1 MLOAD SWAP1 PUSH1 0x20 ADD KECCAK256 EQ SWAP1 POP DUP1 ISZERO PUSH2 0x1F7C JUMPI DUP7 PUSH1 0x40 MLOAD PUSH1 0x20 ADD PUSH2 0x1F31 SWAP2 SWAP1 PUSH2 0x458E JUMP JUMPDEST PUSH1 0x40 MLOAD PUSH1 0x20 DUP2 DUP4 SUB SUB DUP2 MSTORE SWAP1 PUSH1 0x40 MSTORE PUSH1 0x40 MLOAD PUSH32 0x8C379A000000000000000000000000000000000000000000000000000000000 DUP2 MSTORE PUSH1 0x4 ADD PUSH2 0x1F73 SWAP2 SWAP1 PUSH2 0x3D57 JUMP JUMPDEST PUSH1 0x40 MLOAD DUP1 SWAP2 SUB SWAP1 REVERT JUMPDEST POP POP DUP1 DUP1 PUSH1 0x1 ADD SWAP2 POP POP PUSH2 0x1E21 JUMP JUMPDEST POP PUSH0 PUSH1 0x40 MLOAD DUP1 PUSH2 0x120 ADD PUSH1 0x40 MSTORE DUP1 PUSH1 0x1 PUSH0 DUP1 CALLER PUSH20 0xFFFFFFFFFFFFFFFFFFFFFFFFFFFFFFFFFFFFFFFF AND PUSH20 0xFFFFFFFFFFFFFFFFFFFFFFFFFFFFFFFFFFFFFFFF AND DUP2 MSTORE PUSH1 0x20 ADD SWAP1 DUP2 MSTORE PUSH1 0x20 ADD PUSH0 KECCAK256 DUP1 SLOAD SWAP1 POP PUSH2 0x1FE5 SWAP2 SWAP1 PUSH2 0x40C3 JUMP JUMPDEST DUP2 MSTORE PUSH1 0x20 ADD DUP7 DUP2 MSTORE PUSH1 0x20 ADD DUP6 DUP2 MSTORE PUSH1 0x20 ADD CALLER PUSH20 0xFFFFFFFFFFFFFFFFFFFFFFFFFFFFFFFFFFFFFFFF AND DUP2 MSTORE PUSH1 0x20 ADD DUP5 DUP2 MSTORE PUSH1 0x20 ADD PUSH0 DUP2 MSTORE PUSH1 0x20 ADD PUSH3 0x15180 DUP5 PUSH2 0x202D SWAP2 SWAP1 PUSH2 0x45BA JUMP JUMPDEST TIMESTAMP PUSH2 0x2038 SWAP2 SWAP1 PUSH2 0x40C3 JUMP JUMPDEST DUP2 MSTORE PUSH1 0x20 ADD PUSH0 ISZERO ISZERO DUP2 MSTORE PUSH1 0x20 ADD PUSH0 ISZERO ISZERO DUP2 MSTORE POP SWAP1 POP PUSH0 DUP1 CALLER PUSH20 0xFFFFFFFFFFFFFFFFFFFFFFFFFFFFFFFFFFFFFFFF AND PUSH20 0xFFFFFFFFFFFFFFFFFFFFFFFFFFFFFFFFFFFFFFFF AND DUP2 MSTORE PUSH1 0x20 ADD SWAP1 DUP2 MSTORE PUSH1 0x20 ADD PUSH0 KECCAK256 DUP2 SWAP1 DUP1 PUSH1 0x1 DUP2 SLOAD ADD DUP1 DUP3 SSTORE DUP1 SWAP2 POP POP PUSH1 0x1 SWAP1 SUB SWAP1 PUSH0 MSTORE PUSH1 0x20 PUSH0 KECCAK256 SWAP1 PUSH1 0x8 MUL ADD PUSH0 SWAP1 SWAP2 SWAP1 SWAP2 SWAP1 SWAP2 POP PUSH0 DUP3 ADD MLOAD DUP2 PUSH0 ADD SSTORE PUSH1 0x20 DUP3 ADD MLOAD DUP2 PUSH1 0x1 ADD SWAP1 DUP2 PUSH2 0x20CD SWAP2 SWAP1 PUSH2 0x42FA JUMP JUMPDEST POP PUSH1 0x40 DUP3 ADD MLOAD DUP2 PUSH1 0x2 ADD SWAP1 DUP2 PUSH2 0x20E3 SWAP2 SWAP1 PUSH2 0x42FA JUMP JUMPDEST POP PUSH1 0x60 DUP3 ADD MLOAD DUP2 PUSH1 0x3 ADD PUSH0 PUSH2 0x100 EXP DUP2 SLOAD DUP2 PUSH20 0xFFFFFFFFFFFFFFFFFFFFFFFFFFFFFFFFFFFFFFFF MUL NOT AND SWAP1 DUP4 PUSH20 0xFFFFFFFFFFFFFFFFFFFFFFFFFFFFFFFFFFFFFFFF AND MUL OR SWAP1 SSTORE POP PUSH1 0x80 DUP3 ADD MLOAD DUP2 PUSH1 0x4 ADD SSTORE PUSH1 0xA0 DUP3 ADD MLOAD DUP2 PUSH1 0x5 ADD SSTORE PUSH1 0xC0 DUP3 ADD MLOAD DUP2 PUSH1 0x6 ADD SSTORE PUSH1 0xE0 DUP3 ADD MLOAD DUP2 PUSH1 0x7 ADD PUSH0 PUSH2 0x100 EXP DUP2 SLOAD DUP2 PUSH1 0xFF MUL NOT AND SWAP1 DUP4 ISZERO ISZERO MUL OR SWAP1 SSTORE POP PUSH2 0x100 DUP3 ADD MLOAD DUP2 PUSH1 0x7 ADD PUSH1 0x1 PUSH2 0x100 EXP DUP2 SLOAD DUP2 PUSH1 0xFF MUL NOT AND SWAP1 DUP4 ISZERO ISZERO MUL OR SWAP1 SSTORE POP POP POP PUSH32 0xDC26653AF5B99B2DA33E2AD69EE6600D9AECCC82B034501DB4338309615CA238 PUSH0 DUP1 CALLER PUSH20 0xFFFFFFFFFFFFFFFFFFFFFFFFFFFFFFFFFFFFFFFF AND PUSH20 0xFFFFFFFFFFFFFFFFFFFFFFFFFFFFFFFFFFFFFFFF AND DUP2 MSTORE PUSH1 0x20 ADD SWAP1 DUP2 MSTORE PUSH1 0x20 ADD PUSH0 KECCAK256 DUP1 SLOAD SWAP1 POP CALLER DUP8 DUP7 PUSH3 0x15180 DUP8 PUSH2 0x21FD SWAP2 SWAP1 PUSH2 0x45BA JUMP JUMPDEST TIMESTAMP PUSH2 0x2208 SWAP2 SWAP1 PUSH2 0x40C3 JUMP JUMPDEST PUSH1 0x40 MLOAD PUSH2 0x2219 SWAP6 SWAP5 SWAP4 SWAP3 SWAP2 SWAP1 PUSH2 0x45FB JUMP JUMPDEST PUSH1 0x40 MLOAD DUP1 SWAP2 SUB SWAP1 LOG1 POP POP POP POP POP JUMP JUMPDEST DUP1 PUSH20 0xFFFFFFFFFFFFFFFFFFFFFFFFFFFFFFFFFFFFFFFF AND CALLER PUSH20 0xFFFFFFFFFFFFFFFFFFFFFFFFFFFFFFFFFFFFFFFF AND SUB PUSH2 0x2296 JUMPI PUSH1 0x40 MLOAD PUSH32 0x8C379A000000000000000000000000000000000000000000000000000000000 DUP2 MSTORE PUSH1 0x4 ADD PUSH2 0x228D SWAP1 PUSH2 0x46C3 JUMP JUMPDEST PUSH1 0x40 MLOAD DUP1 SWAP2 SUB SWAP1 REVERT JUMPDEST PUSH1 0x1 PUSH0 CALLER PUSH20 0xFFFFFFFFFFFFFFFFFFFFFFFFFFFFFFFFFFFFFFFF AND PUSH20 0xFFFFFFFFFFFFFFFFFFFFFFFFFFFFFFFFFFFFFFFF AND DUP2 MSTORE PUSH1 0x20 ADD SWAP1 DUP2 MSTORE PUSH1 0x20 ADD PUSH0 KECCAK256 PUSH0 DUP3 PUSH20 0xFFFFFFFFFFFFFFFFFFFFFFFFFFFFFFFFFFFFFFFF AND PUSH20 0xFFFFFFFFFFFFFFFFFFFFFFFFFFFFFFFFFFFFFFFF AND DUP2 MSTORE PUSH1 0x20 ADD SWAP1 DUP2 MSTORE PUSH1 0x20 ADD PUSH0 KECCAK256 PUSH0 SWAP1 SLOAD SWAP1 PUSH2 0x100 EXP SWAP1 DIV PUSH1 0xFF AND ISZERO PUSH2 0x235B JUMPI PUSH1 0x40 MLOAD PUSH32 0x8C379A000000000000000000000000000000000000000000000000000000000 DUP2 MSTORE PUSH1 0x4 ADD PUSH2 0x2352 SWAP1 PUSH2 0x4751 JUMP JUMPDEST PUSH1 0x40 MLOAD DUP1 SWAP2 SUB SWAP1 REVERT JUMPDEST PUSH1 0x1 DUP1 PUSH0 CALLER PUSH20 0xFFFFFFFFFFFFFFFFFFFFFFFFFFFFFFFFFFFFFFFF AND PUSH20 0xFFFFFFFFFFFFFFFFFFFFFFFFFFFFFFFFFFFFFFFF AND DUP2 MSTORE PUSH1 0x20 ADD SWAP1 DUP2 MSTORE PUSH1 0x20 ADD PUSH0 KECCAK256 PUSH0 DUP4 PUSH20 0xFFFFFFFFFFFFFFFFFFFFFFFFFFFFFFFFFFFFFFFF AND PUSH20 0xFFFFFFFFFFFFFFFFFFFFFFFFFFFFFFFFFFFFFFFF AND DUP2 MSTORE PUSH1 0x20 ADD SWAP1 DUP2 MSTORE PUSH1 0x20 ADD PUSH0 KECCAK256 PUSH0 PUSH2 0x100 EXP DUP2 SLOAD DUP2 PUSH1 0xFF MUL NOT AND SWAP1 DUP4 ISZERO ISZERO MUL OR SWAP1 SSTORE POP PUSH1 0x2 PUSH0 CALLER PUSH20 0xFFFFFFFFFFFFFFFFFFFFFFFFFFFFFFFFFFFFFFFF AND PUSH20 0xFFFFFFFFFFFFFFFFFFFFFFFFFFFFFFFFFFFFFFFF AND DUP2 MSTORE PUSH1 0x20 ADD SWAP1 DUP2 MSTORE PUSH1 0x20 ADD PUSH0 KECCAK256 DUP2 SWAP1 DUP1 PUSH1 0x1 DUP2 SLOAD ADD DUP1 DUP3 SSTORE DUP1 SWAP2 POP POP PUSH1 0x1 SWAP1 SUB SWAP1 PUSH0 MSTORE PUSH1 0x20 PUSH0 KECCAK256 ADD PUSH0 SWAP1 SWAP2 SWAP1 SWAP2 SWAP1 SWAP2 PUSH2 0x100 EXP DUP2 SLOAD DUP2 PUSH20 0xFFFFFFFFFFFFFFFFFFFFFFFFFFFFFFFFFFFFFFFF MUL NOT AND SWAP1 DUP4 PUSH20 0xFFFFFFFFFFFFFFFFFFFFFFFFFFFFFFFFFFFFFFFF AND MUL OR SWAP1 SSTORE POP PUSH32 0xAD6DE4452A631E641CB59902236607946CE9272B9B981F2F80E8D129CB9084BA DUP2 PUSH1 0x40 MLOAD PUSH2 0x24B4 SWAP2 SWAP1 PUSH2 0x32B3 JUMP JUMPDEST PUSH1 0x40 MLOAD DUP1 SWAP2 SUB SWAP1 LOG1 POP JUMP JUMPDEST PUSH1 0x1 PUSH1 0x20 MSTORE DUP2 PUSH0 MSTORE PUSH1 0x40 PUSH0 KECCAK256 PUSH1 0x20 MSTORE DUP1 PUSH0 MSTORE PUSH1 0x40 PUSH0 KECCAK256 PUSH0 SWAP2 POP SWAP2 POP SWAP1 SLOAD SWAP1 PUSH2 0x100 EXP SWAP1 DIV PUSH1 0xFF AND DUP2 JUMP JUMPDEST DUP3 DUP5 PUSH0 DUP1 PUSH0 DUP5 PUSH20 0xFFFFFFFFFFFFFFFFFFFFFFFFFFFFFFFFFFFFFFFF AND PUSH20 0xFFFFFFFFFFFFFFFFFFFFFFFFFFFFFFFFFFFFFFFF AND DUP2 MSTORE PUSH1 0x20 ADD SWAP1 DUP2 MSTORE PUSH1 0x20 ADD PUSH0 KECCAK256 DUP1 SLOAD SWAP1 POP GT PUSH2 0x256C JUMPI PUSH1 0x40 MLOAD PUSH32 0x8C379A000000000000000000000000000000000000000000000000000000000 DUP2 MSTORE PUSH1 0x4 ADD PUSH2 0x2563 SWAP1 PUSH2 0x37CC JUMP JUMPDEST PUSH1 0x40 MLOAD DUP1 SWAP2 SUB SWAP1 REVERT JUMPDEST DUP1 PUSH0 DUP1 DUP5 PUSH20 0xFFFFFFFFFFFFFFFFFFFFFFFFFFFFFFFFFFFFFFFF AND PUSH20 0xFFFFFFFFFFFFFFFFFFFFFFFFFFFFFFFFFFFFFFFF AND DUP2 MSTORE PUSH1 0x20 ADD SWAP1 DUP2 MSTORE PUSH1 0x20 ADD PUSH0 KECCAK256 PUSH1 0x1 DUP4 PUSH2 0x25B6 SWAP2 SWAP1 PUSH2 0x3817 JUMP JUMPDEST DUP2 SLOAD DUP2 LT PUSH2 0x25C7 JUMPI PUSH2 0x25C6 PUSH2 0x384A JUMP JUMPDEST JUMPDEST SWAP1 PUSH0 MSTORE PUSH1 0x20 PUSH0 KECCAK256 SWAP1 PUSH1 0x8 MUL ADD PUSH0 ADD SLOAD EQ PUSH2 0x2616 JUMPI PUSH1 0x40 MLOAD PUSH32 0x8C379A000000000000000000000000000000000000000000000000000000000 DUP2 MSTORE PUSH1 0x4 ADD PUSH2 0x260D SWAP1 PUSH2 0x38E7 JUMP JUMPDEST PUSH1 0x40 MLOAD DUP1 SWAP2 SUB SWAP1 REVERT JUMPDEST PUSH1 0x1 PUSH0 DUP4 PUSH20 0xFFFFFFFFFFFFFFFFFFFFFFFFFFFFFFFFFFFFFFFF AND PUSH20 0xFFFFFFFFFFFFFFFFFFFFFFFFFFFFFFFFFFFFFFFF AND DUP2 MSTORE PUSH1 0x20 ADD SWAP1 DUP2 MSTORE PUSH1 0x20 ADD PUSH0 KECCAK256 PUSH0 CALLER PUSH20 0xFFFFFFFFFFFFFFFFFFFFFFFFFFFFFFFFFFFFFFFF AND PUSH20 0xFFFFFFFFFFFFFFFFFFFFFFFFFFFFFFFFFFFFFFFF AND DUP2 MSTORE PUSH1 0x20 ADD SWAP1 DUP2 MSTORE PUSH1 0x20 ADD PUSH0 KECCAK256 PUSH0 SWAP1 SLOAD SWAP1 PUSH2 0x100 EXP SWAP1 DIV PUSH1 0xFF AND PUSH2 0x26DA JUMPI PUSH1 0x40 MLOAD PUSH32 0x8C379A000000000000000000000000000000000000000000000000000000000 DUP2 MSTORE PUSH1 0x4 ADD PUSH2 0x26D1 SWAP1 PUSH2 0x3975 JUMP JUMPDEST PUSH1 0x40 MLOAD DUP1 SWAP2 SUB SWAP1 REVERT JUMPDEST PUSH0 DUP1 DUP7 PUSH20 0xFFFFFFFFFFFFFFFFFFFFFFFFFFFFFFFFFFFFFFFF AND PUSH20 0xFFFFFFFFFFFFFFFFFFFFFFFFFFFFFFFFFFFFFFFF AND DUP2 MSTORE PUSH1 0x20 ADD SWAP1 DUP2 MSTORE PUSH1 0x20 ADD PUSH0 KECCAK256 PUSH1 0x1 DUP8 PUSH2 0x2723 SWAP2 SWAP1 PUSH2 0x3817 JUMP JUMPDEST DUP2 SLOAD DUP2 LT PUSH2 0x2734 JUMPI PUSH2 0x2733 PUSH2 0x384A JUMP JUMPDEST JUMPDEST SWAP1 PUSH0 MSTORE PUSH1 0x20 PUSH0 KECCAK256 SWAP1 PUSH1 0x8 MUL ADD PUSH1 0x7 ADD PUSH0 SWAP1 SLOAD SWAP1 PUSH2 0x100 EXP SWAP1 DIV PUSH1 0xFF AND PUSH2 0x278F JUMPI PUSH1 0x40 MLOAD PUSH32 0x8C379A000000000000000000000000000000000000000000000000000000000 DUP2 MSTORE PUSH1 0x4 ADD PUSH2 0x2786 SWAP1 PUSH2 0x47DF JUMP JUMPDEST PUSH1 0x40 MLOAD DUP1 SWAP2 SUB SWAP1 REVERT JUMPDEST DUP4 SELFBALANCE LT ISZERO PUSH2 0x27D2 JUMPI PUSH1 0x40 MLOAD PUSH32 0x8C379A000000000000000000000000000000000000000000000000000000000 DUP2 MSTORE PUSH1 0x4 ADD PUSH2 0x27C9 SWAP1 PUSH2 0x4847 JUMP JUMPDEST PUSH1 0x40 MLOAD DUP1 SWAP2 SUB SWAP1 REVERT JUMPDEST PUSH0 DUP5 GT DUP1 ISZERO PUSH2 0x284A JUMPI POP PUSH0 DUP1 DUP7 PUSH20 0xFFFFFFFFFFFFFFFFFFFFFFFFFFFFFFFFFFFFFFFF AND PUSH20 0xFFFFFFFFFFFFFFFFFFFFFFFFFFFFFFFFFFFFFFFF AND DUP2 MSTORE PUSH1 0x20 ADD SWAP1 DUP2 MSTORE PUSH1 0x20 ADD PUSH0 KECCAK256 PUSH1 0x1 DUP8 PUSH2 0x2825 SWAP2 SWAP1 PUSH2 0x3817 JUMP JUMPDEST DUP2 SLOAD DUP2 LT PUSH2 0x2836 JUMPI PUSH2 0x2835 PUSH2 0x384A JUMP JUMPDEST JUMPDEST SWAP1 PUSH0 MSTORE PUSH1 0x20 PUSH0 KECCAK256 SWAP1 PUSH1 0x8 MUL ADD PUSH1 0x5 ADD SLOAD DUP5 GT ISZERO JUMPDEST PUSH2 0x2889 JUMPI PUSH1 0x40 MLOAD PUSH32 0x8C379A000000000000000000000000000000000000000000000000000000000 DUP2 MSTORE PUSH1 0x4 ADD PUSH2 0x2880 SWAP1 PUSH2 0x48D5 JUMP JUMPDEST PUSH1 0x40 MLOAD DUP1 SWAP2 SUB SWAP1 REVERT JUMPDEST PUSH0 DUP1 PUSH0 DUP8 PUSH20 0xFFFFFFFFFFFFFFFFFFFFFFFFFFFFFFFFFFFFFFFF AND PUSH20 0xFFFFFFFFFFFFFFFFFFFFFFFFFFFFFFFFFFFFFFFF AND DUP2 MSTORE PUSH1 0x20 ADD SWAP1 DUP2 MSTORE PUSH1 0x20 ADD PUSH0 KECCAK256 PUSH1 0x1 DUP9 PUSH2 0x28D3 SWAP2 SWAP1 PUSH2 0x3817 JUMP JUMPDEST DUP2 SLOAD DUP2 LT PUSH2 0x28E4 JUMPI PUSH2 0x28E3 PUSH2 0x384A JUMP JUMPDEST JUMPDEST SWAP1 PUSH0 MSTORE PUSH1 0x20 PUSH0 KECCAK256 SWAP1 PUSH1 0x8 MUL ADD PUSH1 0x5 ADD SLOAD SWAP1 POP PUSH0 DUP6 DUP3 PUSH2 0x2903 SWAP2 SWAP1 PUSH2 0x3817 JUMP JUMPDEST SWAP1 POP DUP1 PUSH0 DUP1 DUP10 PUSH20 0xFFFFFFFFFFFFFFFFFFFFFFFFFFFFFFFFFFFFFFFF AND PUSH20 0xFFFFFFFFFFFFFFFFFFFFFFFFFFFFFFFFFFFFFFFF AND DUP2 MSTORE PUSH1 0x20 ADD SWAP1 DUP2 MSTORE PUSH1 0x20 ADD PUSH0 KECCAK256 PUSH1 0x1 DUP11 PUSH2 0x294F SWAP2 SWAP1 PUSH2 0x3817 JUMP JUMPDEST DUP2 SLOAD DUP2 LT PUSH2 0x2960 JUMPI PUSH2 0x295F PUSH2 0x384A JUMP JUMPDEST JUMPDEST SWAP1 PUSH0 MSTORE PUSH1 0x20 PUSH0 KECCAK256 SWAP1 PUSH1 0x8 MUL ADD PUSH1 0x5 ADD DUP2 SWAP1 SSTORE POP PUSH0 DUP6 PUSH20 0xFFFFFFFFFFFFFFFFFFFFFFFFFFFFFFFFFFFFFFFF AND DUP8 PUSH1 0x40 MLOAD PUSH2 0x2998 SWAP1 PUSH2 0x3AAB JUMP JUMPDEST PUSH0 PUSH1 0x40 MLOAD DUP1 DUP4 SUB DUP2 DUP6 DUP8 GAS CALL SWAP3 POP POP POP RETURNDATASIZE DUP1 PUSH0 DUP2 EQ PUSH2 0x29D2 JUMPI PUSH1 0x40 MLOAD SWAP2 POP PUSH1 0x1F NOT PUSH1 0x3F RETURNDATASIZE ADD AND DUP3 ADD PUSH1 0x40 MSTORE RETURNDATASIZE DUP3 MSTORE RETURNDATASIZE PUSH0 PUSH1 0x20 DUP5 ADD RETURNDATACOPY PUSH2 0x29D7 JUMP JUMPDEST PUSH1 0x60 SWAP2 POP JUMPDEST POP POP SWAP1 POP DUP1 PUSH2 0x2A1B JUMPI PUSH1 0x40 MLOAD PUSH32 0x8C379A000000000000000000000000000000000000000000000000000000000 DUP2 MSTORE PUSH1 0x4 ADD PUSH2 0x2A12 SWAP1 PUSH2 0x3B09 JUMP JUMPDEST PUSH1 0x40 MLOAD DUP1 SWAP2 SUB SWAP1 REVERT JUMPDEST PUSH0 PUSH1 0x40 MLOAD DUP1 PUSH1 0xA0 ADD PUSH1 0x40 MSTORE DUP1 DUP12 DUP2 MSTORE PUSH1 0x20 ADD PUSH0 DUP1 DUP13 PUSH20 0xFFFFFFFFFFFFFFFFFFFFFFFFFFFFFFFFFFFFFFFF AND PUSH20 0xFFFFFFFFFFFFFFFFFFFFFFFFFFFFFFFFFFFFFFFF AND DUP2 MSTORE PUSH1 0x20 ADD SWAP1 DUP2 MSTORE PUSH1 0x20 ADD PUSH0 KECCAK256 PUSH1 0x1 DUP14 PUSH2 0x2A76 SWAP2 SWAP1 PUSH2 0x3817 JUMP JUMPDEST DUP2 SLOAD DUP2 LT PUSH2 0x2A87 JUMPI PUSH2 0x2A86 PUSH2 0x384A JUMP JUMPDEST JUMPDEST SWAP1 PUSH0 MSTORE PUSH1 0x20 PUSH0 KECCAK256 SWAP1 PUSH1 0x8 MUL ADD PUSH1 0x1 ADD DUP1 SLOAD PUSH2 0x2AA1 SWAP1 PUSH2 0x39C0 JUMP JUMPDEST DUP1 PUSH1 0x1F ADD PUSH1 0x20 DUP1 SWAP2 DIV MUL PUSH1 0x20 ADD PUSH1 0x40 MLOAD SWAP1 DUP2 ADD PUSH1 0x40 MSTORE DUP1 SWAP3 SWAP2 SWAP1 DUP2 DUP2 MSTORE PUSH1 0x20 ADD DUP3 DUP1 SLOAD PUSH2 0x2ACD SWAP1 PUSH2 0x39C0 JUMP JUMPDEST DUP1 ISZERO PUSH2 0x2B18 JUMPI DUP1 PUSH1 0x1F LT PUSH2 0x2AEF JUMPI PUSH2 0x100 DUP1 DUP4 SLOAD DIV MUL DUP4 MSTORE SWAP2 PUSH1 0x20 ADD SWAP2 PUSH2 0x2B18 JUMP JUMPDEST DUP3 ADD SWAP2 SWAP1 PUSH0 MSTORE PUSH1 0x20 PUSH0 KECCAK256 SWAP1 JUMPDEST DUP2 SLOAD DUP2 MSTORE SWAP1 PUSH1 0x1 ADD SWAP1 PUSH1 0x20 ADD DUP1 DUP4 GT PUSH2 0x2AFB JUMPI DUP3 SWAP1 SUB PUSH1 0x1F AND DUP3 ADD SWAP2 JUMPDEST POP POP POP POP POP DUP2 MSTORE PUSH1 0x20 ADD DUP10 DUP2 MSTORE PUSH1 0x20 ADD CALLER PUSH20 0xFFFFFFFFFFFFFFFFFFFFFFFFFFFFFFFFFFFFFFFF AND DUP2 MSTORE PUSH1 0x20 ADD DUP9 PUSH20 0xFFFFFFFFFFFFFFFFFFFFFFFFFFFFFFFFFFFFFFFF AND DUP2 MSTORE POP SWAP1 POP PUSH1 0x4 PUSH0 DUP11 PUSH20 0xFFFFFFFFFFFFFFFFFFFFFFFFFFFFFFFFFFFFFFFF AND PUSH20 0xFFFFFFFFFFFFFFFFFFFFFFFFFFFFFFFFFFFFFFFF AND DUP2 MSTORE PUSH1 0x20 ADD SWAP1 DUP2 MSTORE PUSH1 0x20 ADD PUSH0 KECCAK256 DUP2 SWAP1 DUP1 PUSH1 0x1 DUP2 SLOAD ADD DUP1 DUP3 SSTORE DUP1 SWAP2 POP POP PUSH1 0x1 SWAP1 SUB SWAP1 PUSH0 MSTORE PUSH1 0x20 PUSH0 KECCAK256 SWAP1 PUSH1 0x5 MUL ADD PUSH0 SWAP1 SWAP2 SWAP1 SWAP2 SWAP1 SWAP2 POP PUSH0 DUP3 ADD MLOAD DUP2 PUSH0 ADD SSTORE PUSH1 0x20 DUP3 ADD MLOAD DUP2 PUSH1 0x1 ADD SWAP1 DUP2 PUSH2 0x2BE1 SWAP2 SWAP1 PUSH2 0x42FA JUMP JUMPDEST POP PUSH1 0x40 DUP3 ADD MLOAD DUP2 PUSH1 0x2 ADD SSTORE PUSH1 0x60 DUP3 ADD MLOAD DUP2 PUSH1 0x3 ADD PUSH0 PUSH2 0x100 EXP DUP2 SLOAD DUP2 PUSH20 0xFFFFFFFFFFFFFFFFFFFFFFFFFFFFFFFFFFFFFFFF MUL NOT AND SWAP1 DUP4 PUSH20 0xFFFFFFFFFFFFFFFFFFFFFFFFFFFFFFFFFFFFFFFF AND MUL OR SWAP1 SSTORE POP PUSH1 0x80 DUP3 ADD MLOAD DUP2 PUSH1 0x4 ADD PUSH0 PUSH2 0x100 EXP DUP2 SLOAD DUP2 PUSH20 0xFFFFFFFFFFFFFFFFFFFFFFFFFFFFFFFFFFFFFFFF MUL NOT AND SWAP1 DUP4 PUSH20 0xFFFFFFFFFFFFFFFFFFFFFFFFFFFFFFFFFFFFFFFF AND MUL OR SWAP1 SSTORE POP POP POP PUSH32 0xFB301322F68B8EA04D2B6A3AB0A1A0100D7BE758E7FFA771D5539A256B92D10D DUP9 CALLER DUP10 DUP13 DUP15 PUSH1 0x40 MLOAD PUSH2 0x2CB1 SWAP6 SWAP5 SWAP4 SWAP3 SWAP2 SWAP1 PUSH2 0x48F3 JUMP JUMPDEST PUSH1 0x40 MLOAD DUP1 SWAP2 SUB SWAP1 LOG1 POP POP POP POP POP POP POP POP POP POP JUMP JUMPDEST PUSH1 0x5 PUSH1 0x20 MSTORE DUP3 PUSH0 MSTORE PUSH1 0x40 PUSH0 KECCAK256 PUSH1 0x20 MSTORE DUP2 PUSH0 MSTORE PUSH1 0x40 PUSH0 KECCAK256 DUP2 DUP2 SLOAD DUP2 LT PUSH2 0x2CE8 JUMPI PUSH0 DUP1 REVERT JUMPDEST SWAP1 PUSH0 MSTORE PUSH1 0x20 PUSH0 KECCAK256 SWAP1 PUSH1 0x2 MUL ADD PUSH0 SWAP3 POP SWAP3 POP POP POP DUP1 PUSH0 ADD PUSH0 SWAP1 SLOAD SWAP1 PUSH2 0x100 EXP SWAP1 DIV PUSH20 0xFFFFFFFFFFFFFFFFFFFFFFFFFFFFFFFFFFFFFFFF AND SWAP1 DUP1 PUSH1 0x1 ADD SLOAD SWAP1 POP DUP3 JUMP JUMPDEST PUSH1 0x1 PUSH0 CALLER PUSH20 0xFFFFFFFFFFFFFFFFFFFFFFFFFFFFFFFFFFFFFFFF AND PUSH20 0xFFFFFFFFFFFFFFFFFFFFFFFFFFFFFFFFFFFFFFFF AND DUP2 MSTORE PUSH1 0x20 ADD SWAP1 DUP2 MSTORE PUSH1 0x20 ADD PUSH0 KECCAK256 PUSH0 DUP3 PUSH20 0xFFFFFFFFFFFFFFFFFFFFFFFFFFFFFFFFFFFFFFFF AND PUSH20 0xFFFFFFFFFFFFFFFFFFFFFFFFFFFFFFFFFFFFFFFF AND DUP2 MSTORE PUSH1 0x20 ADD SWAP1 DUP2 MSTORE PUSH1 0x20 ADD PUSH0 KECCAK256 PUSH0 SWAP1 SLOAD SWAP1 PUSH2 0x100 EXP SWAP1 DIV PUSH1 0xFF AND PUSH2 0x2DED JUMPI PUSH1 0x40 MLOAD PUSH32 0x8C379A000000000000000000000000000000000000000000000000000000000 DUP2 MSTORE PUSH1 0x4 ADD PUSH2 0x2DE4 SWAP1 PUSH2 0x498E JUMP JUMPDEST PUSH1 0x40 MLOAD DUP1 SWAP2 SUB SWAP1 REVERT JUMPDEST PUSH0 PUSH1 0x1 PUSH0 CALLER PUSH20 0xFFFFFFFFFFFFFFFFFFFFFFFFFFFFFFFFFFFFFFFF AND PUSH20 0xFFFFFFFFFFFFFFFFFFFFFFFFFFFFFFFFFFFFFFFF AND DUP2 MSTORE PUSH1 0x20 ADD SWAP1 DUP2 MSTORE PUSH1 0x20 ADD PUSH0 KECCAK256 PUSH0 DUP4 PUSH20 0xFFFFFFFFFFFFFFFFFFFFFFFFFFFFFFFFFFFFFFFF AND PUSH20 0xFFFFFFFFFFFFFFFFFFFFFFFFFFFFFFFFFFFFFFFF AND DUP2 MSTORE PUSH1 0x20 ADD SWAP1 DUP2 MSTORE PUSH1 0x20 ADD PUSH0 KECCAK256 PUSH0 PUSH2 0x100 EXP DUP2 SLOAD DUP2 PUSH1 0xFF MUL NOT AND SWAP1 DUP4 ISZERO ISZERO MUL OR SWAP1 SSTORE POP PUSH0 PUSH1 0x2 PUSH0 CALLER PUSH20 0xFFFFFFFFFFFFFFFFFFFFFFFFFFFFFFFFFFFFFFFF AND PUSH20 0xFFFFFFFFFFFFFFFFFFFFFFFFFFFFFFFFFFFFFFFF AND DUP2 MSTORE PUSH1 0x20 ADD SWAP1 DUP2 MSTORE PUSH1 0x20 ADD PUSH0 KECCAK256 SWAP1 POP PUSH0 JUMPDEST DUP2 DUP1 SLOAD SWAP1 POP DUP2 LT ISZERO PUSH2 0x302F JUMPI DUP3 PUSH20 0xFFFFFFFFFFFFFFFFFFFFFFFFFFFFFFFFFFFFFFFF AND DUP3 DUP3 DUP2 SLOAD DUP2 LT PUSH2 0x2EF4 JUMPI PUSH2 0x2EF3 PUSH2 0x384A JUMP JUMPDEST JUMPDEST SWAP1 PUSH0 MSTORE PUSH1 0x20 PUSH0 KECCAK256 ADD PUSH0 SWAP1 SLOAD SWAP1 PUSH2 0x100 EXP SWAP1 DIV PUSH20 0xFFFFFFFFFFFFFFFFFFFFFFFFFFFFFFFFFFFFFFFF AND PUSH20 0xFFFFFFFFFFFFFFFFFFFFFFFFFFFFFFFFFFFFFFFF AND SUB PUSH2 0x3022 JUMPI DUP2 PUSH1 0x1 DUP4 DUP1 SLOAD SWAP1 POP PUSH2 0x2F49 SWAP2 SWAP1 PUSH2 0x3817 JUMP JUMPDEST DUP2 SLOAD DUP2 LT PUSH2 0x2F5A JUMPI PUSH2 0x2F59 PUSH2 0x384A JUMP JUMPDEST JUMPDEST SWAP1 PUSH0 MSTORE PUSH1 0x20 PUSH0 KECCAK256 ADD PUSH0 SWAP1 SLOAD SWAP1 PUSH2 0x100 EXP SWAP1 DIV PUSH20 0xFFFFFFFFFFFFFFFFFFFFFFFFFFFFFFFFFFFFFFFF AND DUP3 DUP3 DUP2 SLOAD DUP2 LT PUSH2 0x2F95 JUMPI PUSH2 0x2F94 PUSH2 0x384A JUMP JUMPDEST JUMPDEST SWAP1 PUSH0 MSTORE PUSH1 0x20 PUSH0 KECCAK256 ADD PUSH0 PUSH2 0x100 EXP DUP2 SLOAD DUP2 PUSH20 0xFFFFFFFFFFFFFFFFFFFFFFFFFFFFFFFFFFFFFFFF MUL NOT AND SWAP1 DUP4 PUSH20 0xFFFFFFFFFFFFFFFFFFFFFFFFFFFFFFFFFFFFFFFF AND MUL OR SWAP1 SSTORE POP DUP2 DUP1 SLOAD DUP1 PUSH2 0x2FEB JUMPI PUSH2 0x2FEA PUSH2 0x49AC JUMP JUMPDEST JUMPDEST PUSH1 0x1 SWAP1 SUB DUP2 DUP2 SWAP1 PUSH0 MSTORE PUSH1 0x20 PUSH0 KECCAK256 ADD PUSH0 PUSH2 0x100 EXP DUP2 SLOAD SWAP1 PUSH20 0xFFFFFFFFFFFFFFFFFFFFFFFFFFFFFFFFFFFFFFFF MUL NOT AND SWAP1 SSTORE SWAP1 SSTORE PUSH2 0x302F JUMP JUMPDEST DUP1 DUP1 PUSH1 0x1 ADD SWAP2 POP POP PUSH2 0x2EBE JUMP JUMPDEST POP PUSH32 0x753F40CA3312B2408759A67875B367955E7BAA221DAF08AA3D643D96202AC12B DUP3 PUSH1 0x40 MLOAD PUSH2 0x305F SWAP2 SWAP1 PUSH2 0x32B3 JUMP JUMPDEST PUSH1 0x40 MLOAD DUP1 SWAP2 SUB SWAP1 LOG1 POP POP JUMP JUMPDEST PUSH0 PUSH1 0x40 MLOAD SWAP1 POP SWAP1 JUMP JUMPDEST PUSH0 DUP1 REVERT JUMPDEST PUSH0 DUP1 REVERT JUMPDEST PUSH0 DUP2 SWAP1 POP SWAP2 SWAP1 POP JUMP JUMPDEST PUSH2 0x308E DUP2 PUSH2 0x307C JUMP JUMPDEST DUP2 EQ PUSH2 0x3098 JUMPI PUSH0 DUP1 REVERT JUMPDEST POP JUMP JUMPDEST PUSH0 DUP2 CALLDATALOAD SWAP1 POP PUSH2 0x30A9 DUP2 PUSH2 0x3085 JUMP JUMPDEST SWAP3 SWAP2 POP POP JUMP JUMPDEST PUSH0 PUSH1 0x20 DUP3 DUP5 SUB SLT ISZERO PUSH2 0x30C4 JUMPI PUSH2 0x30C3 PUSH2 0x3074 JUMP JUMPDEST JUMPDEST PUSH0 PUSH2 0x30D1 DUP5 DUP3 DUP6 ADD PUSH2 0x309B JUMP JUMPDEST SWAP2 POP POP SWAP3 SWAP2 POP POP JUMP JUMPDEST PUSH0 PUSH20 0xFFFFFFFFFFFFFFFFFFFFFFFFFFFFFFFFFFFFFFFF DUP3 AND SWAP1 POP SWAP2 SWAP1 POP JUMP JUMPDEST PUSH0 PUSH2 0x3103 DUP3 PUSH2 0x30DA JUMP JUMPDEST SWAP1 POP SWAP2 SWAP1 POP JUMP JUMPDEST PUSH2 0x3113 DUP2 PUSH2 0x30F9 JUMP JUMPDEST DUP2 EQ PUSH2 0x311D JUMPI PUSH0 DUP1 REVERT JUMPDEST POP JUMP JUMPDEST PUSH0 DUP2 CALLDATALOAD SWAP1 POP PUSH2 0x312E DUP2 PUSH2 0x310A JUMP JUMPDEST SWAP3 SWAP2 POP POP JUMP JUMPDEST PUSH0 DUP1 PUSH1 0x40 DUP4 DUP6 SUB SLT ISZERO PUSH2 0x314A JUMPI PUSH2 0x3149 PUSH2 0x3074 JUMP JUMPDEST JUMPDEST PUSH0 PUSH2 0x3157 DUP6 DUP3 DUP7 ADD PUSH2 0x3120 JUMP JUMPDEST SWAP3 POP POP PUSH1 0x20 PUSH2 0x3168 DUP6 DUP3 DUP7 ADD PUSH2 0x309B JUMP JUMPDEST SWAP2 POP POP SWAP3 POP SWAP3 SWAP1 POP JUMP JUMPDEST PUSH2 0x317B DUP2 PUSH2 0x307C JUMP JUMPDEST DUP3 MSTORE POP POP JUMP JUMPDEST PUSH0 DUP2 MLOAD SWAP1 POP SWAP2 SWAP1 POP JUMP JUMPDEST PUSH0 DUP3 DUP3 MSTORE PUSH1 0x20 DUP3 ADD SWAP1 POP SWAP3 SWAP2 POP POP JUMP JUMPDEST DUP3 DUP2 DUP4 MCOPY PUSH0 DUP4 DUP4 ADD MSTORE POP POP POP JUMP JUMPDEST PUSH0 PUSH1 0x1F NOT PUSH1 0x1F DUP4 ADD AND SWAP1 POP SWAP2 SWAP1 POP JUMP JUMPDEST PUSH0 PUSH2 0x31C3 DUP3 PUSH2 0x3181 JUMP JUMPDEST PUSH2 0x31CD DUP2 DUP6 PUSH2 0x318B JUMP JUMPDEST SWAP4 POP PUSH2 0x31DD DUP2 DUP6 PUSH1 0x20 DUP7 ADD PUSH2 0x319B JUMP JUMPDEST PUSH2 0x31E6 DUP2 PUSH2 0x31A9 JUMP JUMPDEST DUP5 ADD SWAP2 POP POP SWAP3 SWAP2 POP POP JUMP JUMPDEST PUSH2 0x31FA DUP2 PUSH2 0x30F9 JUMP JUMPDEST DUP3 MSTORE POP POP JUMP JUMPDEST PUSH0 DUP2 ISZERO ISZERO SWAP1 POP SWAP2 SWAP1 POP JUMP JUMPDEST PUSH2 0x3214 DUP2 PUSH2 0x3200 JUMP JUMPDEST DUP3 MSTORE POP POP JUMP JUMPDEST PUSH0 PUSH2 0x120 DUP3 ADD SWAP1 POP PUSH2 0x322E PUSH0 DUP4 ADD DUP13 PUSH2 0x3172 JUMP JUMPDEST DUP2 DUP2 SUB PUSH1 0x20 DUP4 ADD MSTORE PUSH2 0x3240 DUP2 DUP12 PUSH2 0x31B9 JUMP JUMPDEST SWAP1 POP DUP2 DUP2 SUB PUSH1 0x40 DUP4 ADD MSTORE PUSH2 0x3254 DUP2 DUP11 PUSH2 0x31B9 JUMP JUMPDEST SWAP1 POP PUSH2 0x3263 PUSH1 0x60 DUP4 ADD DUP10 PUSH2 0x31F1 JUMP JUMPDEST PUSH2 0x3270 PUSH1 0x80 DUP4 ADD DUP9 PUSH2 0x3172 JUMP JUMPDEST PUSH2 0x327D PUSH1 0xA0 DUP4 ADD DUP8 PUSH2 0x3172 JUMP JUMPDEST PUSH2 0x328A PUSH1 0xC0 DUP4 ADD DUP7 PUSH2 0x3172 JUMP JUMPDEST PUSH2 0x3297 PUSH1 0xE0 DUP4 ADD DUP6 PUSH2 0x320B JUMP JUMPDEST PUSH2 0x32A5 PUSH2 0x100 DUP4 ADD DUP5 PUSH2 0x320B JUMP JUMPDEST SWAP11 SWAP10 POP POP POP POP POP POP POP POP POP POP JUMP JUMPDEST PUSH0 PUSH1 0x20 DUP3 ADD SWAP1 POP PUSH2 0x32C6 PUSH0 DUP4 ADD DUP5 PUSH2 0x31F1 JUMP JUMPDEST SWAP3 SWAP2 POP POP JUMP JUMPDEST PUSH0 DUP1 PUSH1 0x40 DUP4 DUP6 SUB SLT ISZERO PUSH2 0x32E2 JUMPI PUSH2 0x32E1 PUSH2 0x3074 JUMP JUMPDEST JUMPDEST PUSH0 PUSH2 0x32EF DUP6 DUP3 DUP7 ADD PUSH2 0x309B JUMP JUMPDEST SWAP3 POP POP PUSH1 0x20 PUSH2 0x3300 DUP6 DUP3 DUP7 ADD PUSH2 0x3120 JUMP JUMPDEST SWAP2 POP POP SWAP3 POP SWAP3 SWAP1 POP JUMP JUMPDEST PUSH0 PUSH1 0xA0 DUP3 ADD SWAP1 POP PUSH2 0x331D PUSH0 DUP4 ADD DUP9 PUSH2 0x3172 JUMP JUMPDEST DUP2 DUP2 SUB PUSH1 0x20 DUP4 ADD MSTORE PUSH2 0x332F DUP2 DUP8 PUSH2 0x31B9 JUMP JUMPDEST SWAP1 POP PUSH2 0x333E PUSH1 0x40 DUP4 ADD DUP7 PUSH2 0x3172 JUMP JUMPDEST PUSH2 0x334B PUSH1 0x60 DUP4 ADD DUP6 PUSH2 0x31F1 JUMP JUMPDEST PUSH2 0x3358 PUSH1 0x80 DUP4 ADD DUP5 PUSH2 0x31F1 JUMP JUMPDEST SWAP7 SWAP6 POP POP POP POP POP POP JUMP JUMPDEST PUSH0 PUSH2 0x336C DUP3 PUSH2 0x30DA JUMP JUMPDEST SWAP1 POP SWAP2 SWAP1 POP JUMP JUMPDEST PUSH2 0x337C DUP2 PUSH2 0x3362 JUMP JUMPDEST DUP2 EQ PUSH2 0x3386 JUMPI PUSH0 DUP1 REVERT JUMPDEST POP JUMP JUMPDEST PUSH0 DUP2 CALLDATALOAD SWAP1 POP PUSH2 0x3397 DUP2 PUSH2 0x3373 JUMP JUMPDEST SWAP3 SWAP2 POP POP JUMP JUMPDEST PUSH0 DUP1 PUSH0 PUSH1 0x60 DUP5 DUP7 SUB SLT ISZERO PUSH2 0x33B4 JUMPI PUSH2 0x33B3 PUSH2 0x3074 JUMP JUMPDEST JUMPDEST PUSH0 PUSH2 0x33C1 DUP7 DUP3 DUP8 ADD PUSH2 0x3389 JUMP JUMPDEST SWAP4 POP POP PUSH1 0x20 PUSH2 0x33D2 DUP7 DUP3 DUP8 ADD PUSH2 0x309B JUMP JUMPDEST SWAP3 POP POP PUSH1 0x40 PUSH2 0x33E3 DUP7 DUP3 DUP8 ADD PUSH2 0x309B JUMP JUMPDEST SWAP2 POP POP SWAP3 POP SWAP3 POP SWAP3 JUMP JUMPDEST PUSH0 PUSH1 0x80 DUP3 ADD SWAP1 POP PUSH2 0x3400 PUSH0 DUP4 ADD DUP8 PUSH2 0x31F1 JUMP JUMPDEST PUSH2 0x340D PUSH1 0x20 DUP4 ADD DUP7 PUSH2 0x3172 JUMP JUMPDEST DUP2 DUP2 SUB PUSH1 0x40 DUP4 ADD MSTORE PUSH2 0x341F DUP2 DUP6 PUSH2 0x31B9 JUMP JUMPDEST SWAP1 POP PUSH2 0x342E PUSH1 0x60 DUP4 ADD DUP5 PUSH2 0x3172 JUMP JUMPDEST SWAP6 SWAP5 POP POP POP POP POP JUMP JUMPDEST PUSH0 DUP1 REVERT JUMPDEST PUSH0 DUP1 REVERT JUMPDEST PUSH32 0x4E487B7100000000000000000000000000000000000000000000000000000000 PUSH0 MSTORE PUSH1 0x41 PUSH1 0x4 MSTORE PUSH1 0x24 PUSH0 REVERT JUMPDEST PUSH2 0x3475 DUP3 PUSH2 0x31A9 JUMP JUMPDEST DUP2 ADD DUP2 DUP2 LT PUSH8 0xFFFFFFFFFFFFFFFF DUP3 GT OR ISZERO PUSH2 0x3494 JUMPI PUSH2 0x3493 PUSH2 0x343F JUMP JUMPDEST JUMPDEST DUP1 PUSH1 0x40 MSTORE POP POP POP JUMP JUMPDEST PUSH0 PUSH2 0x34A6 PUSH2 0x306B JUMP JUMPDEST SWAP1 POP PUSH2 0x34B2 DUP3 DUP3 PUSH2 0x346C JUMP JUMPDEST SWAP2 SWAP1 POP JUMP JUMPDEST PUSH0 PUSH8 0xFFFFFFFFFFFFFFFF DUP3 GT ISZERO PUSH2 0x34D1 JUMPI PUSH2 0x34D0 PUSH2 0x343F JUMP JUMPDEST JUMPDEST PUSH2 0x34DA DUP3 PUSH2 0x31A9 JUMP JUMPDEST SWAP1 POP PUSH1 0x20 DUP2 ADD SWAP1 POP SWAP2 SWAP1 POP JUMP JUMPDEST DUP3 DUP2 DUP4 CALLDATACOPY PUSH0 DUP4 DUP4 ADD MSTORE POP POP POP JUMP JUMPDEST PUSH0 PUSH2 0x3507 PUSH2 0x3502 DUP5 PUSH2 0x34B7 JUMP JUMPDEST PUSH2 0x349D JUMP JUMPDEST SWAP1 POP DUP3 DUP2 MSTORE PUSH1 0x20 DUP2 ADD DUP5 DUP5 DUP5 ADD GT ISZERO PUSH2 0x3523 JUMPI PUSH2 0x3522 PUSH2 0x343B JUMP JUMPDEST JUMPDEST PUSH2 0x352E DUP5 DUP3 DUP6 PUSH2 0x34E7 JUMP JUMPDEST POP SWAP4 SWAP3 POP POP POP JUMP JUMPDEST PUSH0 DUP3 PUSH1 0x1F DUP4 ADD SLT PUSH2 0x354A JUMPI PUSH2 0x3549 PUSH2 0x3437 JUMP JUMPDEST JUMPDEST DUP2 CALLDATALOAD PUSH2 0x355A DUP5 DUP3 PUSH1 0x20 DUP7 ADD PUSH2 0x34F5 JUMP JUMPDEST SWAP2 POP POP SWAP3 SWAP2 POP POP JUMP JUMPDEST PUSH0 DUP1 PUSH0 DUP1 PUSH1 0x80 DUP6 DUP8 SUB SLT ISZERO PUSH2 0x357B JUMPI PUSH2 0x357A PUSH2 0x3074 JUMP JUMPDEST JUMPDEST PUSH0 DUP6 ADD CALLDATALOAD PUSH8 0xFFFFFFFFFFFFFFFF DUP2 GT ISZERO PUSH2 0x3598 JUMPI PUSH2 0x3597 PUSH2 0x3078 JUMP JUMPDEST JUMPDEST PUSH2 0x35A4 DUP8 DUP3 DUP9 ADD PUSH2 0x3536 JUMP JUMPDEST SWAP5 POP POP PUSH1 0x20 DUP6 ADD CALLDATALOAD PUSH8 0xFFFFFFFFFFFFFFFF DUP2 GT ISZERO PUSH2 0x35C5 JUMPI PUSH2 0x35C4 PUSH2 0x3078 JUMP JUMPDEST JUMPDEST PUSH2 0x35D1 DUP8 DUP3 DUP9 ADD PUSH2 0x3536 JUMP JUMPDEST SWAP4 POP POP PUSH1 0x40 PUSH2 0x35E2 DUP8 DUP3 DUP9 ADD PUSH2 0x309B JUMP JUMPDEST SWAP3 POP POP PUSH1 0x60 PUSH2 0x35F3 DUP8 DUP3 DUP9 ADD PUSH2 0x309B JUMP JUMPDEST SWAP2 POP POP SWAP3 SWAP6 SWAP2 SWAP5 POP SWAP3 POP JUMP JUMPDEST PUSH0 PUSH1 0x20 DUP3 DUP5 SUB SLT ISZERO PUSH2 0x3614 JUMPI PUSH2 0x3613 PUSH2 0x3074 JUMP JUMPDEST JUMPDEST PUSH0 PUSH2 0x3621 DUP5 DUP3 DUP6 ADD PUSH2 0x3120 JUMP JUMPDEST SWAP2 POP POP SWAP3 SWAP2 POP POP JUMP JUMPDEST PUSH0 DUP1 PUSH1 0x40 DUP4 DUP6 SUB SLT ISZERO PUSH2 0x3640 JUMPI PUSH2 0x363F PUSH2 0x3074 JUMP JUMPDEST JUMPDEST PUSH0 PUSH2 0x364D DUP6 DUP3 DUP7 ADD PUSH2 0x3120 JUMP JUMPDEST SWAP3 POP POP PUSH1 0x20 PUSH2 0x365E DUP6 DUP3 DUP7 ADD PUSH2 0x3120 JUMP JUMPDEST SWAP2 POP POP SWAP3 POP SWAP3 SWAP1 POP JUMP JUMPDEST PUSH0 PUSH1 0x20 DUP3 ADD SWAP1 POP PUSH2 0x367B PUSH0 DUP4 ADD DUP5 PUSH2 0x320B JUMP JUMPDEST SWAP3 SWAP2 POP POP JUMP JUMPDEST PUSH0 DUP1 PUSH0 DUP1 PUSH1 0x80 DUP6 DUP8 SUB SLT ISZERO PUSH2 0x3699 JUMPI PUSH2 0x3698 PUSH2 0x3074 JUMP JUMPDEST JUMPDEST PUSH0 PUSH2 0x36A6 DUP8 DUP3 DUP9 ADD PUSH2 0x309B JUMP JUMPDEST SWAP5 POP POP PUSH1 0x20 PUSH2 0x36B7 DUP8 DUP3 DUP9 ADD PUSH2 0x3120 JUMP JUMPDEST SWAP4 POP POP PUSH1 0x40 PUSH2 0x36C8 DUP8 DUP3 DUP9 ADD PUSH2 0x309B JUMP JUMPDEST SWAP3 POP POP PUSH1 0x60 PUSH2 0x36D9 DUP8 DUP3 DUP9 ADD PUSH2 0x3389 JUMP JUMPDEST SWAP2 POP POP SWAP3 SWAP6 SWAP2 SWAP5 POP SWAP3 POP JUMP JUMPDEST PUSH0 DUP1 PUSH0 PUSH1 0x60 DUP5 DUP7 SUB SLT ISZERO PUSH2 0x36FC JUMPI PUSH2 0x36FB PUSH2 0x3074 JUMP JUMPDEST JUMPDEST PUSH0 PUSH2 0x3709 DUP7 DUP3 DUP8 ADD PUSH2 0x3120 JUMP JUMPDEST SWAP4 POP POP PUSH1 0x20 PUSH2 0x371A DUP7 DUP3 DUP8 ADD PUSH2 0x309B JUMP JUMPDEST SWAP3 POP POP PUSH1 0x40 PUSH2 0x372B DUP7 DUP3 DUP8 ADD PUSH2 0x309B JUMP JUMPDEST SWAP2 POP POP SWAP3 POP SWAP3 POP SWAP3 JUMP JUMPDEST PUSH0 PUSH1 0x40 DUP3 ADD SWAP1 POP PUSH2 0x3748 PUSH0 DUP4 ADD DUP6 PUSH2 0x31F1 JUMP JUMPDEST PUSH2 0x3755 PUSH1 0x20 DUP4 ADD DUP5 PUSH2 0x3172 JUMP JUMPDEST SWAP4 SWAP3 POP POP POP JUMP JUMPDEST PUSH32 0x5468657265204973204E6F2043616D706169676E204279205468617420616464 PUSH0 DUP3 ADD MSTORE PUSH32 0x7265737321000000000000000000000000000000000000000000000000000000 PUSH1 0x20 DUP3 ADD MSTORE POP JUMP JUMPDEST PUSH0 PUSH2 0x37B6 PUSH1 0x25 DUP4 PUSH2 0x318B JUMP JUMPDEST SWAP2 POP PUSH2 0x37C1 DUP3 PUSH2 0x375C JUMP JUMPDEST PUSH1 0x40 DUP3 ADD SWAP1 POP SWAP2 SWAP1 POP JUMP JUMPDEST PUSH0 PUSH1 0x20 DUP3 ADD SWAP1 POP DUP2 DUP2 SUB PUSH0 DUP4 ADD MSTORE PUSH2 0x37E3 DUP2 PUSH2 0x37AA JUMP JUMPDEST SWAP1 POP SWAP2 SWAP1 POP JUMP JUMPDEST PUSH32 0x4E487B7100000000000000000000000000000000000000000000000000000000 PUSH0 MSTORE PUSH1 0x11 PUSH1 0x4 MSTORE PUSH1 0x24 PUSH0 REVERT JUMPDEST PUSH0 PUSH2 0x3821 DUP3 PUSH2 0x307C JUMP JUMPDEST SWAP2 POP PUSH2 0x382C DUP4 PUSH2 0x307C JUMP JUMPDEST SWAP3 POP DUP3 DUP3 SUB SWAP1 POP DUP2 DUP2 GT ISZERO PUSH2 0x3844 JUMPI PUSH2 0x3843 PUSH2 0x37EA JUMP JUMPDEST JUMPDEST SWAP3 SWAP2 POP POP JUMP JUMPDEST PUSH32 0x4E487B7100000000000000000000000000000000000000000000000000000000 PUSH0 MSTORE PUSH1 0x32 PUSH1 0x4 MSTORE PUSH1 0x24 PUSH0 REVERT JUMPDEST PUSH32 0x5468652043616D706169676E2053706563696669656420446F6573204E6F7420 PUSH0 DUP3 ADD MSTORE PUSH32 0x4578697374210000000000000000000000000000000000000000000000000000 PUSH1 0x20 DUP3 ADD MSTORE POP JUMP JUMPDEST PUSH0 PUSH2 0x38D1 PUSH1 0x26 DUP4 PUSH2 0x318B JUMP JUMPDEST SWAP2 POP PUSH2 0x38DC DUP3 PUSH2 0x3877 JUMP JUMPDEST PUSH1 0x40 DUP3 ADD SWAP1 POP SWAP2 SWAP1 POP JUMP JUMPDEST PUSH0 PUSH1 0x20 DUP3 ADD SWAP1 POP DUP2 DUP2 SUB PUSH0 DUP4 ADD MSTORE PUSH2 0x38FE DUP2 PUSH2 0x38C5 JUMP JUMPDEST SWAP1 POP SWAP2 SWAP1 POP JUMP JUMPDEST PUSH32 0x4F6E6C792041646D696E732043616E20506572666F726D205468697320416374 PUSH0 DUP3 ADD MSTORE PUSH32 0x696F6E2100000000000000000000000000000000000000000000000000000000 PUSH1 0x20 DUP3 ADD MSTORE POP JUMP JUMPDEST PUSH0 PUSH2 0x395F PUSH1 0x24 DUP4 PUSH2 0x318B JUMP JUMPDEST SWAP2 POP PUSH2 0x396A DUP3 PUSH2 0x3905 JUMP JUMPDEST PUSH1 0x40 DUP3 ADD SWAP1 POP SWAP2 SWAP1 POP JUMP JUMPDEST PUSH0 PUSH1 0x20 DUP3 ADD SWAP1 POP DUP2 DUP2 SUB PUSH0 DUP4 ADD MSTORE PUSH2 0x398C DUP2 PUSH2 0x3953 JUMP JUMPDEST SWAP1 POP SWAP2 SWAP1 POP JUMP JUMPDEST PUSH32 0x4E487B7100000000000000000000000000000000000000000000000000000000 PUSH0 MSTORE PUSH1 0x22 PUSH1 0x4 MSTORE PUSH1 0x24 PUSH0 REVERT JUMPDEST PUSH0 PUSH1 0x2 DUP3 DIV SWAP1 POP PUSH1 0x1 DUP3 AND DUP1 PUSH2 0x39D7 JUMPI PUSH1 0x7F DUP3 AND SWAP2 POP JUMPDEST PUSH1 0x20 DUP3 LT DUP2 SUB PUSH2 0x39EA JUMPI PUSH2 0x39E9 PUSH2 0x3993 JUMP JUMPDEST JUMPDEST POP SWAP2 SWAP1 POP JUMP JUMPDEST PUSH32 0x546869732043616D706169676E204973205375636365737366756C2043616E6E PUSH0 DUP3 ADD MSTORE PUSH32 0x6F742062652043616E63656C6C65642100000000000000000000000000000000 PUSH1 0x20 DUP3 ADD MSTORE POP JUMP JUMPDEST PUSH0 PUSH2 0x3A4A PUSH1 0x30 DUP4 PUSH2 0x318B JUMP JUMPDEST SWAP2 POP PUSH2 0x3A55 DUP3 PUSH2 0x39F0 JUMP JUMPDEST PUSH1 0x40 DUP3 ADD SWAP1 POP SWAP2 SWAP1 POP JUMP JUMPDEST PUSH0 PUSH1 0x20 DUP3 ADD SWAP1 POP DUP2 DUP2 SUB PUSH0 DUP4 ADD MSTORE PUSH2 0x3A77 DUP2 PUSH2 0x3A3E JUMP JUMPDEST SWAP1 POP SWAP2 SWAP1 POP JUMP JUMPDEST PUSH0 DUP2 SWAP1 POP SWAP3 SWAP2 POP POP JUMP JUMPDEST POP JUMP JUMPDEST PUSH0 PUSH2 0x3A96 PUSH0 DUP4 PUSH2 0x3A7E JUMP JUMPDEST SWAP2 POP PUSH2 0x3AA1 DUP3 PUSH2 0x3A88 JUMP JUMPDEST PUSH0 DUP3 ADD SWAP1 POP SWAP2 SWAP1 POP JUMP JUMPDEST PUSH0 PUSH2 0x3AB5 DUP3 PUSH2 0x3A8B JUMP JUMPDEST SWAP2 POP DUP2 SWAP1 POP SWAP2 SWAP1 POP JUMP JUMPDEST PUSH32 0x5472616E73666572206661696C65640000000000000000000000000000000000 PUSH0 DUP3 ADD MSTORE POP JUMP JUMPDEST PUSH0 PUSH2 0x3AF3 PUSH1 0xF DUP4 PUSH2 0x318B JUMP JUMPDEST SWAP2 POP PUSH2 0x3AFE DUP3 PUSH2 0x3ABF JUMP JUMPDEST PUSH1 0x20 DUP3 ADD SWAP1 POP SWAP2 SWAP1 POP JUMP JUMPDEST PUSH0 PUSH1 0x20 DUP3 ADD SWAP1 POP DUP2 DUP2 SUB PUSH0 DUP4 ADD MSTORE PUSH2 0x3B20 DUP2 PUSH2 0x3AE7 JUMP JUMPDEST SWAP1 POP SWAP2 SWAP1 POP JUMP JUMPDEST PUSH32 0x546869732043616D706169676E2048617320416C726561647920526169736564 PUSH0 DUP3 ADD MSTORE PUSH32 0x2046756E64732120526566756E64204669727374205468656E2043616E63656C PUSH1 0x20 DUP3 ADD MSTORE PUSH32 0x2100000000000000000000000000000000000000000000000000000000000000 PUSH1 0x40 DUP3 ADD MSTORE POP JUMP JUMPDEST PUSH0 PUSH2 0x3BA7 PUSH1 0x41 DUP4 PUSH2 0x318B JUMP JUMPDEST SWAP2 POP PUSH2 0x3BB2 DUP3 PUSH2 0x3B27 JUMP JUMPDEST PUSH1 0x60 DUP3 ADD SWAP1 POP SWAP2 SWAP1 POP JUMP JUMPDEST PUSH0 PUSH1 0x20 DUP3 ADD SWAP1 POP DUP2 DUP2 SUB PUSH0 DUP4 ADD MSTORE PUSH2 0x3BD4 DUP2 PUSH2 0x3B9B JUMP JUMPDEST SWAP1 POP SWAP2 SWAP1 POP JUMP JUMPDEST PUSH32 0x546869732043616D706169676E2048617320416C7265616479204265656E2043 PUSH0 DUP3 ADD MSTORE PUSH32 0x6F6D706C65746564210000000000000000000000000000000000000000000000 PUSH1 0x20 DUP3 ADD MSTORE POP JUMP JUMPDEST PUSH0 PUSH2 0x3C35 PUSH1 0x29 DUP4 PUSH2 0x318B JUMP JUMPDEST SWAP2 POP PUSH2 0x3C40 DUP3 PUSH2 0x3BDB JUMP JUMPDEST PUSH1 0x40 DUP3 ADD SWAP1 POP SWAP2 SWAP1 POP JUMP JUMPDEST PUSH0 PUSH1 0x20 DUP3 ADD SWAP1 POP DUP2 DUP2 SUB PUSH0 DUP4 ADD MSTORE PUSH2 0x3C62 DUP2 PUSH2 0x3C29 JUMP JUMPDEST SWAP1 POP SWAP2 SWAP1 POP JUMP JUMPDEST PUSH0 DUP2 SWAP1 POP SWAP3 SWAP2 POP POP JUMP JUMPDEST PUSH32 0x5468652043616D706169676E2000000000000000000000000000000000000000 PUSH0 DUP3 ADD MSTORE POP JUMP JUMPDEST PUSH0 PUSH2 0x3CA7 PUSH1 0xD DUP4 PUSH2 0x3C69 JUMP JUMPDEST SWAP2 POP PUSH2 0x3CB2 DUP3 PUSH2 0x3C73 JUMP JUMPDEST PUSH1 0xD DUP3 ADD SWAP1 POP SWAP2 SWAP1 POP JUMP JUMPDEST PUSH0 DUP2 SWAP1 POP SWAP2 SWAP1 POP JUMP JUMPDEST PUSH2 0x3CD7 PUSH2 0x3CD2 DUP3 PUSH2 0x307C JUMP JUMPDEST PUSH2 0x3CBD JUMP JUMPDEST DUP3 MSTORE POP POP JUMP JUMPDEST PUSH32 0x20446F6573204E4F542045786973742100000000000000000000000000000000 PUSH0 DUP3 ADD MSTORE POP JUMP JUMPDEST PUSH0 PUSH2 0x3D11 PUSH1 0x10 DUP4 PUSH2 0x3C69 JUMP JUMPDEST SWAP2 POP PUSH2 0x3D1C DUP3 PUSH2 0x3CDD JUMP JUMPDEST PUSH1 0x10 DUP3 ADD SWAP1 POP SWAP2 SWAP1 POP JUMP JUMPDEST PUSH0 PUSH2 0x3D31 DUP3 PUSH2 0x3C9B JUMP JUMPDEST SWAP2 POP PUSH2 0x3D3D DUP3 DUP5 PUSH2 0x3CC6 JUMP JUMPDEST PUSH1 0x20 DUP3 ADD SWAP2 POP PUSH2 0x3D4C DUP3 PUSH2 0x3D05 JUMP JUMPDEST SWAP2 POP DUP2 SWAP1 POP SWAP3 SWAP2 POP POP JUMP JUMPDEST PUSH0 PUSH1 0x20 DUP3 ADD SWAP1 POP DUP2 DUP2 SUB PUSH0 DUP4 ADD MSTORE PUSH2 0x3D6F DUP2 DUP5 PUSH2 0x31B9 JUMP JUMPDEST SWAP1 POP SWAP3 SWAP2 POP POP JUMP JUMPDEST PUSH32 0x546869732043616D706169676E277320446561646C696E652048617320506173 PUSH0 DUP3 ADD MSTORE PUSH32 0x7365642100000000000000000000000000000000000000000000000000000000 PUSH1 0x20 DUP3 ADD MSTORE POP JUMP JUMPDEST PUSH0 PUSH2 0x3DD1 PUSH1 0x24 DUP4 PUSH2 0x318B JUMP JUMPDEST SWAP2 POP PUSH2 0x3DDC DUP3 PUSH2 0x3D77 JUMP JUMPDEST PUSH1 0x40 DUP3 ADD SWAP1 POP SWAP2 SWAP1 POP JUMP JUMPDEST PUSH0 PUSH1 0x20 DUP3 ADD SWAP1 POP DUP2 DUP2 SUB PUSH0 DUP4 ADD MSTORE PUSH2 0x3DFE DUP2 PUSH2 0x3DC5 JUMP JUMPDEST SWAP1 POP SWAP2 SWAP1 POP JUMP JUMPDEST PUSH32 0x2700000000000000000000000000000000000000000000000000000000000000 PUSH0 DUP3 ADD MSTORE POP JUMP JUMPDEST PUSH0 PUSH2 0x3E39 PUSH1 0x1 DUP4 PUSH2 0x3C69 JUMP JUMPDEST SWAP2 POP PUSH2 0x3E44 DUP3 PUSH2 0x3E05 JUMP JUMPDEST PUSH1 0x1 DUP3 ADD SWAP1 POP SWAP2 SWAP1 POP JUMP JUMPDEST PUSH0 DUP2 SWAP1 POP DUP2 PUSH0 MSTORE PUSH1 0x20 PUSH0 KECCAK256 SWAP1 POP SWAP2 SWAP1 POP JUMP JUMPDEST PUSH0 DUP2 SLOAD PUSH2 0x3E6D DUP2 PUSH2 0x39C0 JUMP JUMPDEST PUSH2 0x3E77 DUP2 DUP7 PUSH2 0x3C69 JUMP JUMPDEST SWAP5 POP PUSH1 0x1 DUP3 AND PUSH0 DUP2 EQ PUSH2 0x3E91 JUMPI PUSH1 0x1 DUP2 EQ PUSH2 0x3EA6 JUMPI PUSH2 0x3ED8 JUMP JUMPDEST PUSH1 0xFF NOT DUP4 AND DUP7 MSTORE DUP2 ISZERO ISZERO DUP3 MUL DUP7 ADD SWAP4 POP PUSH2 0x3ED8 JUMP JUMPDEST PUSH2 0x3EAF DUP6 PUSH2 0x3E4F JUMP JUMPDEST PUSH0 JUMPDEST DUP4 DUP2 LT ISZERO PUSH2 0x3ED0 JUMPI DUP2 SLOAD DUP2 DUP10 ADD MSTORE PUSH1 0x1 DUP3 ADD SWAP2 POP PUSH1 0x20 DUP2 ADD SWAP1 POP PUSH2 0x3EB1 JUMP JUMPDEST DUP4 DUP9 ADD SWAP6 POP POP POP JUMPDEST POP POP POP SWAP3 SWAP2 POP POP JUMP JUMPDEST PUSH32 0x272043616D706169676E205761732043616E63616C6C65642100000000000000 PUSH0 DUP3 ADD MSTORE POP JUMP JUMPDEST PUSH0 PUSH2 0x3F15 PUSH1 0x19 DUP4 PUSH2 0x3C69 JUMP JUMPDEST SWAP2 POP PUSH2 0x3F20 DUP3 PUSH2 0x3EE1 JUMP JUMPDEST PUSH1 0x19 DUP3 ADD SWAP1 POP SWAP2 SWAP1 POP JUMP JUMPDEST PUSH0 PUSH2 0x3F35 DUP3 PUSH2 0x3E2D JUMP JUMPDEST SWAP2 POP PUSH2 0x3F41 DUP3 DUP5 PUSH2 0x3E61 JUMP JUMPDEST SWAP2 POP PUSH2 0x3F4C DUP3 PUSH2 0x3F09 JUMP JUMPDEST SWAP2 POP DUP2 SWAP1 POP SWAP3 SWAP2 POP POP JUMP JUMPDEST PUSH32 0x272043616D706169676E2057617320436F6D706C657465642100000000000000 PUSH0 DUP3 ADD MSTORE POP JUMP JUMPDEST PUSH0 PUSH2 0x3F8B PUSH1 0x19 DUP4 PUSH2 0x3C69 JUMP JUMPDEST SWAP2 POP PUSH2 0x3F96 DUP3 PUSH2 0x3F57 JUMP JUMPDEST PUSH1 0x19 DUP3 ADD SWAP1 POP SWAP2 SWAP1 POP JUMP JUMPDEST PUSH0 PUSH2 0x3FAB DUP3 PUSH2 0x3E2D JUMP JUMPDEST SWAP2 POP PUSH2 0x3FB7 DUP3 DUP5 PUSH2 0x3E61 JUMP JUMPDEST SWAP2 POP PUSH2 0x3FC2 DUP3 PUSH2 0x3F7F JUMP JUMPDEST SWAP2 POP DUP2 SWAP1 POP SWAP3 SWAP2 POP POP JUMP JUMPDEST PUSH32 0x446F6E6174696F6E20416D6F756E742043616E6E6F74206265205A65726F0000 PUSH0 DUP3 ADD MSTORE POP JUMP JUMPDEST PUSH0 PUSH2 0x4001 PUSH1 0x1E DUP4 PUSH2 0x318B JUMP JUMPDEST SWAP2 POP PUSH2 0x400C DUP3 PUSH2 0x3FCD JUMP JUMPDEST PUSH1 0x20 DUP3 ADD SWAP1 POP SWAP2 SWAP1 POP JUMP JUMPDEST PUSH0 PUSH1 0x20 DUP3 ADD SWAP1 POP DUP2 DUP2 SUB PUSH0 DUP4 ADD MSTORE PUSH2 0x402E DUP2 PUSH2 0x3FF5 JUMP JUMPDEST SWAP1 POP SWAP2 SWAP1 POP JUMP JUMPDEST PUSH32 0x54686520416D6F756E7420416E642056616C756520446F6E2774204D61746368 PUSH0 DUP3 ADD MSTORE PUSH32 0x2100000000000000000000000000000000000000000000000000000000000000 PUSH1 0x20 DUP3 ADD MSTORE POP JUMP JUMPDEST PUSH0 PUSH2 0x408F PUSH1 0x21 DUP4 PUSH2 0x318B JUMP JUMPDEST SWAP2 POP PUSH2 0x409A DUP3 PUSH2 0x4035 JUMP JUMPDEST PUSH1 0x40 DUP3 ADD SWAP1 POP SWAP2 SWAP1 POP JUMP JUMPDEST PUSH0 PUSH1 0x20 DUP3 ADD SWAP1 POP DUP2 DUP2 SUB PUSH0 DUP4 ADD MSTORE PUSH2 0x40BC DUP2 PUSH2 0x4083 JUMP JUMPDEST SWAP1 POP SWAP2 SWAP1 POP JUMP JUMPDEST PUSH0 PUSH2 0x40CD DUP3 PUSH2 0x307C JUMP JUMPDEST SWAP2 POP PUSH2 0x40D8 DUP4 PUSH2 0x307C JUMP JUMPDEST SWAP3 POP DUP3 DUP3 ADD SWAP1 POP DUP1 DUP3 GT ISZERO PUSH2 0x40F0 JUMPI PUSH2 0x40EF PUSH2 0x37EA JUMP JUMPDEST JUMPDEST SWAP3 SWAP2 POP POP JUMP JUMPDEST PUSH0 DUP2 SWAP1 POP SWAP2 SWAP1 POP JUMP JUMPDEST PUSH0 PUSH2 0x4119 PUSH2 0x4114 PUSH2 0x410F DUP5 PUSH2 0x30DA JUMP JUMPDEST PUSH2 0x40F6 JUMP JUMPDEST PUSH2 0x30DA JUMP JUMPDEST SWAP1 POP SWAP2 SWAP1 POP JUMP JUMPDEST PUSH0 PUSH2 0x412A DUP3 PUSH2 0x40FF JUMP JUMPDEST SWAP1 POP SWAP2 SWAP1 POP JUMP JUMPDEST PUSH0 PUSH2 0x413B DUP3 PUSH2 0x4120 JUMP JUMPDEST SWAP1 POP SWAP2 SWAP1 POP JUMP JUMPDEST PUSH2 0x414B DUP2 PUSH2 0x4131 JUMP JUMPDEST DUP3 MSTORE POP POP JUMP JUMPDEST PUSH0 PUSH1 0x40 DUP3 ADD SWAP1 POP PUSH2 0x4164 PUSH0 DUP4 ADD DUP6 PUSH2 0x4142 JUMP JUMPDEST PUSH2 0x4171 PUSH1 0x20 DUP4 ADD DUP5 PUSH2 0x3172 JUMP JUMPDEST SWAP4 SWAP3 POP POP POP JUMP JUMPDEST PUSH0 PUSH1 0x20 PUSH1 0x1F DUP4 ADD DIV SWAP1 POP SWAP2 SWAP1 POP JUMP JUMPDEST PUSH0 DUP3 DUP3 SHL SWAP1 POP SWAP3 SWAP2 POP POP JUMP JUMPDEST PUSH0 PUSH1 0x8 DUP4 MUL PUSH2 0x41C2 PUSH32 0xFFFFFFFFFFFFFFFFFFFFFFFFFFFFFFFFFFFFFFFFFFFFFFFFFFFFFFFFFFFFFFFF DUP3 PUSH2 0x4187 JUMP JUMPDEST PUSH2 0x41CC DUP7 DUP4 PUSH2 0x4187 JUMP JUMPDEST SWAP6 POP DUP1 NOT DUP5 AND SWAP4 POP DUP1 DUP7 AND DUP5 OR SWAP3 POP POP POP SWAP4 SWAP3 POP POP POP JUMP JUMPDEST PUSH0 PUSH2 0x41FE PUSH2 0x41F9 PUSH2 0x41F4 DUP5 PUSH2 0x307C JUMP JUMPDEST PUSH2 0x40F6 JUMP JUMPDEST PUSH2 0x307C JUMP JUMPDEST SWAP1 POP SWAP2 SWAP1 POP JUMP JUMPDEST PUSH0 DUP2 SWAP1 POP SWAP2 SWAP1 POP JUMP JUMPDEST PUSH2 0x4217 DUP4 PUSH2 0x41E4 JUMP JUMPDEST PUSH2 0x422B PUSH2 0x4223 DUP3 PUSH2 0x4205 JUMP JUMPDEST DUP5 DUP5 SLOAD PUSH2 0x4193 JUMP JUMPDEST DUP3 SSTORE POP POP POP POP JUMP JUMPDEST PUSH0 SWAP1 JUMP JUMPDEST PUSH2 0x423F PUSH2 0x4233 JUMP JUMPDEST PUSH2 0x424A DUP2 DUP5 DUP5 PUSH2 0x420E JUMP JUMPDEST POP POP POP JUMP JUMPDEST JUMPDEST DUP2 DUP2 LT ISZERO PUSH2 0x426D JUMPI PUSH2 0x4262 PUSH0 DUP3 PUSH2 0x4237 JUMP JUMPDEST PUSH1 0x1 DUP2 ADD SWAP1 POP PUSH2 0x4250 JUMP JUMPDEST POP POP JUMP JUMPDEST PUSH1 0x1F DUP3 GT ISZERO PUSH2 0x42B2 JUMPI PUSH2 0x4283 DUP2 PUSH2 0x3E4F JUMP JUMPDEST PUSH2 0x428C DUP5 PUSH2 0x4178 JUMP JUMPDEST DUP2 ADD PUSH1 0x20 DUP6 LT ISZERO PUSH2 0x429B JUMPI DUP2 SWAP1 POP JUMPDEST PUSH2 0x42AF PUSH2 0x42A7 DUP6 PUSH2 0x4178 JUMP JUMPDEST DUP4 ADD DUP3 PUSH2 0x424F JUMP JUMPDEST POP POP JUMPDEST POP POP POP JUMP JUMPDEST PUSH0 DUP3 DUP3 SHR SWAP1 POP SWAP3 SWAP2 POP POP JUMP JUMPDEST PUSH0 PUSH2 0x42D2 PUSH0 NOT DUP5 PUSH1 0x8 MUL PUSH2 0x42B7 JUMP JUMPDEST NOT DUP1 DUP4 AND SWAP2 POP POP SWAP3 SWAP2 POP POP JUMP JUMPDEST PUSH0 PUSH2 0x42EA DUP4 DUP4 PUSH2 0x42C3 JUMP JUMPDEST SWAP2 POP DUP3 PUSH1 0x2 MUL DUP3 OR SWAP1 POP SWAP3 SWAP2 POP POP JUMP JUMPDEST PUSH2 0x4303 DUP3 PUSH2 0x3181 JUMP JUMPDEST PUSH8 0xFFFFFFFFFFFFFFFF DUP2 GT ISZERO PUSH2 0x431C JUMPI PUSH2 0x431B PUSH2 0x343F JUMP JUMPDEST JUMPDEST PUSH2 0x4326 DUP3 SLOAD PUSH2 0x39C0 JUMP JUMPDEST PUSH2 0x4331 DUP3 DUP3 DUP6 PUSH2 0x4271 JUMP JUMPDEST PUSH0 PUSH1 0x20 SWAP1 POP PUSH1 0x1F DUP4 GT PUSH1 0x1 DUP2 EQ PUSH2 0x4362 JUMPI PUSH0 DUP5 ISZERO PUSH2 0x4350 JUMPI DUP3 DUP8 ADD MLOAD SWAP1 POP JUMPDEST PUSH2 0x435A DUP6 DUP3 PUSH2 0x42DF JUMP JUMPDEST DUP7 SSTORE POP PUSH2 0x43C1 JUMP JUMPDEST PUSH1 0x1F NOT DUP5 AND PUSH2 0x4370 DUP7 PUSH2 0x3E4F JUMP JUMPDEST PUSH0 JUMPDEST DUP3 DUP2 LT ISZERO PUSH2 0x4397 JUMPI DUP5 DUP10 ADD MLOAD DUP3 SSTORE PUSH1 0x1 DUP3 ADD SWAP2 POP PUSH1 0x20 DUP6 ADD SWAP5 POP PUSH1 0x20 DUP2 ADD SWAP1 POP PUSH2 0x4372 JUMP JUMPDEST DUP7 DUP4 LT ISZERO PUSH2 0x43B4 JUMPI DUP5 DUP10 ADD MLOAD PUSH2 0x43B0 PUSH1 0x1F DUP10 AND DUP3 PUSH2 0x42C3 JUMP JUMPDEST DUP4 SSTORE POP JUMPDEST PUSH1 0x1 PUSH1 0x2 DUP9 MUL ADD DUP9 SSTORE POP POP POP JUMPDEST POP POP POP POP POP POP JUMP JUMPDEST PUSH0 PUSH1 0x80 DUP3 ADD SWAP1 POP PUSH2 0x43DC PUSH0 DUP4 ADD DUP8 PUSH2 0x31F1 JUMP JUMPDEST PUSH2 0x43E9 PUSH1 0x20 DUP4 ADD DUP7 PUSH2 0x3172 JUMP JUMPDEST PUSH2 0x43F6 PUSH1 0x40 DUP4 ADD DUP6 PUSH2 0x4142 JUMP JUMPDEST PUSH2 0x4403 PUSH1 0x60 DUP4 ADD DUP5 PUSH2 0x3172 JUMP JUMPDEST SWAP6 SWAP5 POP POP POP POP POP JUMP JUMPDEST PUSH0 PUSH2 0x4416 DUP3 PUSH2 0x3181 JUMP JUMPDEST PUSH2 0x4420 DUP2 DUP6 PUSH2 0x3C69 JUMP JUMPDEST SWAP4 POP PUSH2 0x4430 DUP2 DUP6 PUSH1 0x20 DUP7 ADD PUSH2 0x319B JUMP JUMPDEST DUP1 DUP5 ADD SWAP2 POP POP SWAP3 SWAP2 POP POP JUMP JUMPDEST PUSH0 PUSH2 0x4447 DUP3 DUP5 PUSH2 0x440C JUMP JUMPDEST SWAP2 POP DUP2 SWAP1 POP SWAP3 SWAP2 POP POP JUMP JUMPDEST PUSH0 DUP2 SWAP1 POP DUP2 PUSH0 MSTORE PUSH1 0x20 PUSH0 KECCAK256 SWAP1 POP SWAP2 SWAP1 POP JUMP JUMPDEST PUSH0 DUP2 SLOAD PUSH2 0x4470 DUP2 PUSH2 0x39C0 JUMP JUMPDEST PUSH2 0x447A DUP2 DUP7 PUSH2 0x3C69 JUMP JUMPDEST SWAP5 POP PUSH1 0x1 DUP3 AND PUSH0 DUP2 EQ PUSH2 0x4494 JUMPI PUSH1 0x1 DUP2 EQ PUSH2 0x44A9 JUMPI PUSH2 0x44DB JUMP JUMPDEST PUSH1 0xFF NOT DUP4 AND DUP7 MSTORE DUP2 ISZERO ISZERO DUP3 MUL DUP7 ADD SWAP4 POP PUSH2 0x44DB JUMP JUMPDEST PUSH2 0x44B2 DUP6 PUSH2 0x4452 JUMP JUMPDEST PUSH0 JUMPDEST DUP4 DUP2 LT ISZERO PUSH2 0x44D3 JUMPI DUP2 SLOAD DUP2 DUP10 ADD MSTORE PUSH1 0x1 DUP3 ADD SWAP2 POP PUSH1 0x20 DUP2 ADD SWAP1 POP PUSH2 0x44B4 JUMP JUMPDEST DUP4 DUP9 ADD SWAP6 POP POP POP JUMPDEST POP POP POP SWAP3 SWAP2 POP POP JUMP JUMPDEST PUSH0 PUSH2 0x44EF DUP3 DUP5 PUSH2 0x4464 JUMP JUMPDEST SWAP2 POP DUP2 SWAP1 POP SWAP3 SWAP2 POP POP JUMP JUMPDEST PUSH32 0x43616D706169676E200000000000000000000000000000000000000000000000 PUSH0 DUP3 ADD MSTORE POP JUMP JUMPDEST PUSH0 PUSH2 0x452E PUSH1 0x9 DUP4 PUSH2 0x3C69 JUMP JUMPDEST SWAP2 POP PUSH2 0x4539 DUP3 PUSH2 0x44FA JUMP JUMPDEST PUSH1 0x9 DUP3 ADD SWAP1 POP SWAP2 SWAP1 POP JUMP JUMPDEST PUSH32 0x20616C7265616479206578697374732100000000000000000000000000000000 PUSH0 DUP3 ADD MSTORE POP JUMP JUMPDEST PUSH0 PUSH2 0x4578 PUSH1 0x10 DUP4 PUSH2 0x3C69 JUMP JUMPDEST SWAP2 POP PUSH2 0x4583 DUP3 PUSH2 0x4544 JUMP JUMPDEST PUSH1 0x10 DUP3 ADD SWAP1 POP SWAP2 SWAP1 POP JUMP JUMPDEST PUSH0 PUSH2 0x4598 DUP3 PUSH2 0x4522 JUMP JUMPDEST SWAP2 POP PUSH2 0x45A4 DUP3 DUP5 PUSH2 0x440C JUMP JUMPDEST SWAP2 POP PUSH2 0x45AF DUP3 PUSH2 0x456C JUMP JUMPDEST SWAP2 POP DUP2 SWAP1 POP SWAP3 SWAP2 POP POP JUMP JUMPDEST PUSH0 PUSH2 0x45C4 DUP3 PUSH2 0x307C JUMP JUMPDEST SWAP2 POP PUSH2 0x45CF DUP4 PUSH2 0x307C JUMP JUMPDEST SWAP3 POP DUP3 DUP3 MUL PUSH2 0x45DD DUP2 PUSH2 0x307C JUMP JUMPDEST SWAP2 POP DUP3 DUP3 DIV DUP5 EQ DUP4 ISZERO OR PUSH2 0x45F4 JUMPI PUSH2 0x45F3 PUSH2 0x37EA JUMP JUMPDEST JUMPDEST POP SWAP3 SWAP2 POP POP JUMP JUMPDEST PUSH0 PUSH1 0xA0 DUP3 ADD SWAP1 POP PUSH2 0x460E PUSH0 DUP4 ADD DUP9 PUSH2 0x3172 JUMP JUMPDEST PUSH2 0x461B PUSH1 0x20 DUP4 ADD DUP8 PUSH2 0x31F1 JUMP JUMPDEST DUP2 DUP2 SUB PUSH1 0x40 DUP4 ADD MSTORE PUSH2 0x462D DUP2 DUP7 PUSH2 0x31B9 JUMP JUMPDEST SWAP1 POP PUSH2 0x463C PUSH1 0x60 DUP4 ADD DUP6 PUSH2 0x3172 JUMP JUMPDEST PUSH2 0x4649 PUSH1 0x80 DUP4 ADD DUP5 PUSH2 0x3172 JUMP JUMPDEST SWAP7 SWAP6 POP POP POP POP POP POP JUMP JUMPDEST PUSH32 0x5468652043616D706169676E20416464726573732043616E6E6F742042652041 PUSH0 DUP3 ADD MSTORE PUSH32 0x6E2041646D696E21000000000000000000000000000000000000000000000000 PUSH1 0x20 DUP3 ADD MSTORE POP JUMP JUMPDEST PUSH0 PUSH2 0x46AD PUSH1 0x28 DUP4 PUSH2 0x318B JUMP JUMPDEST SWAP2 POP PUSH2 0x46B8 DUP3 PUSH2 0x4653 JUMP JUMPDEST PUSH1 0x40 DUP3 ADD SWAP1 POP SWAP2 SWAP1 POP JUMP JUMPDEST PUSH0 PUSH1 0x20 DUP3 ADD SWAP1 POP DUP2 DUP2 SUB PUSH0 DUP4 ADD MSTORE PUSH2 0x46DA DUP2 PUSH2 0x46A1 JUMP JUMPDEST SWAP1 POP SWAP2 SWAP1 POP JUMP JUMPDEST PUSH32 0x54686973204164647265737320497320416C726561647920416E2041646D696E PUSH0 DUP3 ADD MSTORE PUSH32 0x2100000000000000000000000000000000000000000000000000000000000000 PUSH1 0x20 DUP3 ADD MSTORE POP JUMP JUMPDEST PUSH0 PUSH2 0x473B PUSH1 0x21 DUP4 PUSH2 0x318B JUMP JUMPDEST SWAP2 POP PUSH2 0x4746 DUP3 PUSH2 0x46E1 JUMP JUMPDEST PUSH1 0x40 DUP3 ADD SWAP1 POP SWAP2 SWAP1 POP JUMP JUMPDEST PUSH0 PUSH1 0x20 DUP3 ADD SWAP1 POP DUP2 DUP2 SUB PUSH0 DUP4 ADD MSTORE PUSH2 0x4768 DUP2 PUSH2 0x472F JUMP JUMPDEST SWAP1 POP SWAP2 SWAP1 POP JUMP JUMPDEST PUSH32 0x596F752043616E27742057697468647261772046756E64732066726F6D20616E PUSH0 DUP3 ADD MSTORE PUSH32 0x204163746976652043616D706169676E00000000000000000000000000000000 PUSH1 0x20 DUP3 ADD MSTORE POP JUMP JUMPDEST PUSH0 PUSH2 0x47C9 PUSH1 0x30 DUP4 PUSH2 0x318B JUMP JUMPDEST SWAP2 POP PUSH2 0x47D4 DUP3 PUSH2 0x476F JUMP JUMPDEST PUSH1 0x40 DUP3 ADD SWAP1 POP SWAP2 SWAP1 POP JUMP JUMPDEST PUSH0 PUSH1 0x20 DUP3 ADD SWAP1 POP DUP2 DUP2 SUB PUSH0 DUP4 ADD MSTORE PUSH2 0x47F6 DUP2 PUSH2 0x47BD JUMP JUMPDEST SWAP1 POP SWAP2 SWAP1 POP JUMP JUMPDEST PUSH32 0x496E73756666696369656E7420636F6E74726163742062616C616E6365000000 PUSH0 DUP3 ADD MSTORE POP JUMP JUMPDEST PUSH0 PUSH2 0x4831 PUSH1 0x1D DUP4 PUSH2 0x318B JUMP JUMPDEST SWAP2 POP PUSH2 0x483C DUP3 PUSH2 0x47FD JUMP JUMPDEST PUSH1 0x20 DUP3 ADD SWAP1 POP SWAP2 SWAP1 POP JUMP JUMPDEST PUSH0 PUSH1 0x20 DUP3 ADD SWAP1 POP DUP2 DUP2 SUB PUSH0 DUP4 ADD MSTORE PUSH2 0x485E DUP2 PUSH2 0x4825 JUMP JUMPDEST SWAP1 POP SWAP2 SWAP1 POP JUMP JUMPDEST PUSH32 0x416D6F756E742043616E6E6F74206265205A65726F204F722045786365656420 PUSH0 DUP3 ADD MSTORE PUSH32 0x5468652052616973656420416D6F756E74210000000000000000000000000000 PUSH1 0x20 DUP3 ADD MSTORE POP JUMP JUMPDEST PUSH0 PUSH2 0x48BF PUSH1 0x32 DUP4 PUSH2 0x318B JUMP JUMPDEST SWAP2 POP PUSH2 0x48CA DUP3 PUSH2 0x4865 JUMP JUMPDEST PUSH1 0x40 DUP3 ADD SWAP1 POP SWAP2 SWAP1 POP JUMP JUMPDEST PUSH0 PUSH1 0x20 DUP3 ADD SWAP1 POP DUP2 DUP2 SUB PUSH0 DUP4 ADD MSTORE PUSH2 0x48EC DUP2 PUSH2 0x48B3 JUMP JUMPDEST SWAP1 POP SWAP2 SWAP1 POP JUMP JUMPDEST PUSH0 PUSH1 0xA0 DUP3 ADD SWAP1 POP PUSH2 0x4906 PUSH0 DUP4 ADD DUP9 PUSH2 0x3172 JUMP JUMPDEST PUSH2 0x4913 PUSH1 0x20 DUP4 ADD DUP8 PUSH2 0x31F1 JUMP JUMPDEST PUSH2 0x4920 PUSH1 0x40 DUP4 ADD DUP7 PUSH2 0x4142 JUMP JUMPDEST PUSH2 0x492D PUSH1 0x60 DUP4 ADD DUP6 PUSH2 0x31F1 JUMP JUMPDEST PUSH2 0x493A PUSH1 0x80 DUP4 ADD DUP5 PUSH2 0x3172 JUMP JUMPDEST SWAP7 SWAP6 POP POP POP POP POP POP JUMP JUMPDEST PUSH32 0x546869732041646472657373204973204E6F7420416E2041646D696E21000000 PUSH0 DUP3 ADD MSTORE POP JUMP JUMPDEST PUSH0 PUSH2 0x4978 PUSH1 0x1D DUP4 PUSH2 0x318B JUMP JUMPDEST SWAP2 POP PUSH2 0x4983 DUP3 PUSH2 0x4944 JUMP JUMPDEST PUSH1 0x20 DUP3 ADD SWAP1 POP SWAP2 SWAP1 POP JUMP JUMPDEST PUSH0 PUSH1 0x20 DUP3 ADD SWAP1 POP DUP2 DUP2 SUB PUSH0 DUP4 ADD MSTORE PUSH2 0x49A5 DUP2 PUSH2 0x496C JUMP JUMPDEST SWAP1 POP SWAP2 SWAP1 POP JUMP JUMPDEST PUSH32 0x4E487B7100000000000000000000000000000000000000000000000000000000 PUSH0 MSTORE PUSH1 0x31 PUSH1 0x4 MSTORE PUSH1 0x24 PUSH0 REVERT INVALID LOG2 PUSH5 0x6970667358 0x22 SLT KECCAK256 JUMPI 0xF SMOD PUSH19 0xAC1A78302AF3C1EAAE09F96057F665C4566CF1 TIMESTAMP 0xB4 0xAF 0x21 0xAB SUB SWAP16 0xED 0xEB PUSH5 0x736F6C6343 STOP ADDMOD BYTE STOP CALLER "
		},
		"gasEstimates": {
			"creation": {
				"codeDepositCost": "3791800",
				"executionCost": "28558",
				"totalCost": "3820358"
			},
			"external": {
				"RefundDonors(uint256)": "infinite",
				"addCampaignAdmin(address)": "infinite",
				"admins(address,address)": "infinite",
				"campaignAdmins(address,uint256)": "infinite",
				"campaigns(address,uint256)": "infinite",
				"cancelCampaign(uint256,address)": "infinite",
				"createCampaign(string,string,uint256,uint256)": "infinite",
				"donateToCampaign(address,uint256,uint256)": "infinite",
				"donors(address,uint256)": "infinite",
				"donorsForCampaign(address,uint256,uint256)": "infinite",
				"removeCampaignAdmin(address)": "infinite",
				"withdrawFunds(uint256,address,uint256,address)": "infinite",
				"withdrawals(address,uint256)": "infinite"
			}
		},
		"methodIdentifiers": {
			"RefundDonors(uint256)": "0b39be65",
			"addCampaignAdmin(address)": "be18fda6",
			"admins(address,address)": "be21739e",
			"campaignAdmins(address,uint256)": "1f55e5bc",
			"campaigns(address,uint256)": "11555dbc",
			"cancelCampaign(uint256,address)": "39e9412f",
			"createCampaign(string,string,uint256,uint256)": "a318f269",
			"donateToCampaign(address,uint256,uint256)": "5a3915cd",
			"donors(address,uint256)": "9b56f5f0",
			"donorsForCampaign(address,uint256,uint256)": "e6c9099a",
			"removeCampaignAdmin(address)": "f1694aa1",
			"withdrawFunds(uint256,address,uint256,address)": "c14b8aac",
			"withdrawals(address,uint256)": "422b1077"
		}
	},
	"abi": [
		{
			"anonymous": false,
			"inputs": [
				{
					"indexed": false,
					"internalType": "address",
					"name": "admin",
					"type": "address"
				}
			],
			"name": "AddAdmin",
			"type": "event"
		},
		{
			"anonymous": false,
			"inputs": [
				{
					"indexed": false,
					"internalType": "address",
					"name": "campaignAddress",
					"type": "address"
				},
				{
					"indexed": false,
					"internalType": "uint256",
					"name": "campaign_id",
					"type": "uint256"
				}
			],
			"name": "CampaignCancelled",
			"type": "event"
		},
		{
			"anonymous": false,
			"inputs": [
				{
					"indexed": false,
					"internalType": "address",
					"name": "campaignAddress",
					"type": "address"
				},
				{
					"indexed": false,
					"internalType": "uint256",
					"name": "campaign_id",
					"type": "uint256"
				}
			],
			"name": "CampaignCompleted",
			"type": "event"
		},
		{
			"anonymous": false,
			"inputs": [
				{
					"indexed": false,
					"internalType": "uint256",
					"name": "campaign_id",
					"type": "uint256"
				},
				{
					"indexed": false,
					"internalType": "address",
					"name": "campaignAddress",
					"type": "address"
				},
				{
					"indexed": false,
					"internalType": "string",
					"name": "title",
					"type": "string"
				},
				{
					"indexed": false,
					"internalType": "uint256",
					"name": "targetAmount",
					"type": "uint256"
				},
				{
					"indexed": false,
					"internalType": "uint256",
					"name": "deadline",
					"type": "uint256"
				}
			],
			"name": "CampaignCreated",
			"type": "event"
		},
		{
			"anonymous": false,
			"inputs": [
				{
					"indexed": false,
					"internalType": "address",
					"name": "donor",
					"type": "address"
				},
				{
					"indexed": false,
					"internalType": "uint256",
					"name": "amount",
					"type": "uint256"
				},
				{
					"indexed": false,
					"internalType": "address",
					"name": "campaignAddress",
					"type": "address"
				},
				{
					"indexed": false,
					"internalType": "uint256",
					"name": "campaign_id",
					"type": "uint256"
				}
			],
			"name": "DonationReceived",
			"type": "event"
		},
		{
			"anonymous": false,
			"inputs": [
				{
					"indexed": false,
					"internalType": "uint256",
					"name": "amount",
					"type": "uint256"
				},
				{
					"indexed": false,
					"internalType": "address",
					"name": "by",
					"type": "address"
				},
				{
					"indexed": false,
					"internalType": "address",
					"name": "to",
					"type": "address"
				},
				{
					"indexed": false,
					"internalType": "address",
					"name": "from",
					"type": "address"
				},
				{
					"indexed": false,
					"internalType": "uint256",
					"name": "campaignId",
					"type": "uint256"
				}
			],
			"name": "FundsWithdrawn",
			"type": "event"
		},
		{
			"anonymous": false,
			"inputs": [
				{
					"indexed": false,
					"internalType": "address",
					"name": "admin",
					"type": "address"
				}
			],
			"name": "RemoveAdmin",
			"type": "event"
		},
		{
			"inputs": [
				{
					"internalType": "uint256",
					"name": "_campaignId",
					"type": "uint256"
				}
			],
			"name": "RefundDonors",
			"outputs": [],
			"stateMutability": "nonpayable",
			"type": "function"
		},
		{
			"inputs": [
				{
					"internalType": "address",
					"name": "_admin",
					"type": "address"
				}
			],
			"name": "addCampaignAdmin",
			"outputs": [],
			"stateMutability": "nonpayable",
			"type": "function"
		},
		{
			"inputs": [
				{
					"internalType": "address",
					"name": "",
					"type": "address"
				},
				{
					"internalType": "address",
					"name": "",
					"type": "address"
				}
			],
			"name": "admins",
			"outputs": [
				{
					"internalType": "bool",
					"name": "",
					"type": "bool"
				}
			],
			"stateMutability": "view",
			"type": "function"
		},
		{
			"inputs": [
				{
					"internalType": "address",
					"name": "",
					"type": "address"
				},
				{
					"internalType": "uint256",
					"name": "",
					"type": "uint256"
				}
			],
			"name": "campaignAdmins",
			"outputs": [
				{
					"internalType": "address",
					"name": "",
					"type": "address"
				}
			],
			"stateMutability": "view",
			"type": "function"
		},
		{
			"inputs": [
				{
					"internalType": "address",
					"name": "",
					"type": "address"
				},
				{
					"internalType": "uint256",
					"name": "",
					"type": "uint256"
				}
			],
			"name": "campaigns",
			"outputs": [
				{
					"internalType": "uint256",
					"name": "campaign_id",
					"type": "uint256"
				},
				{
					"internalType": "string",
					"name": "title",
					"type": "string"
				},
				{
					"internalType": "string",
					"name": "description",
					"type": "string"
				},
				{
					"internalType": "address",
					"name": "campaignAddress",
					"type": "address"
				},
				{
					"internalType": "uint256",
					"name": "targetAmount",
					"type": "uint256"
				},
				{
					"internalType": "uint256",
					"name": "raisedAmount",
					"type": "uint256"
				},
				{
					"internalType": "uint256",
					"name": "deadline",
					"type": "uint256"
				},
				{
					"internalType": "bool",
					"name": "isCompleted",
					"type": "bool"
				},
				{
					"internalType": "bool",
					"name": "isCancelled",
					"type": "bool"
				}
			],
			"stateMutability": "view",
			"type": "function"
		},
		{
			"inputs": [
				{
					"internalType": "uint256",
					"name": "_campaignId",
					"type": "uint256"
				},
				{
					"internalType": "address",
					"name": "_campaignAddress",
					"type": "address"
				}
			],
			"name": "cancelCampaign",
			"outputs": [],
			"stateMutability": "nonpayable",
			"type": "function"
		},
		{
			"inputs": [
				{
					"internalType": "string",
					"name": "_title",
					"type": "string"
				},
				{
					"internalType": "string",
					"name": "_description",
					"type": "string"
				},
				{
					"internalType": "uint256",
					"name": "_target",
					"type": "uint256"
				},
				{
					"internalType": "uint256",
					"name": "_durationdays",
					"type": "uint256"
				}
			],
			"name": "createCampaign",
			"outputs": [],
			"stateMutability": "nonpayable",
			"type": "function"
		},
		{
			"inputs": [
				{
					"internalType": "address payable",
					"name": "_campaignAddress",
					"type": "address"
				},
				{
					"internalType": "uint256",
					"name": "_campaignId",
					"type": "uint256"
				},
				{
					"internalType": "uint256",
					"name": "_amount",
					"type": "uint256"
				}
			],
			"name": "donateToCampaign",
			"outputs": [],
			"stateMutability": "payable",
			"type": "function"
		},
		{
			"inputs": [
				{
					"internalType": "address",
					"name": "",
					"type": "address"
				},
				{
					"internalType": "uint256",
					"name": "",
					"type": "uint256"
				}
			],
			"name": "donors",
			"outputs": [
				{
					"internalType": "address",
					"name": "campaignAddress",
					"type": "address"
				},
				{
					"internalType": "uint256",
					"name": "campaignId",
					"type": "uint256"
				},
				{
					"internalType": "string",
					"name": "title",
					"type": "string"
				},
				{
					"internalType": "uint256",
					"name": "amount",
					"type": "uint256"
				}
			],
			"stateMutability": "view",
			"type": "function"
		},
		{
			"inputs": [
				{
					"internalType": "address",
					"name": "",
					"type": "address"
				},
				{
					"internalType": "uint256",
					"name": "",
					"type": "uint256"
				},
				{
					"internalType": "uint256",
					"name": "",
					"type": "uint256"
				}
			],
			"name": "donorsForCampaign",
			"outputs": [
				{
					"internalType": "address",
					"name": "by",
					"type": "address"
				},
				{
					"internalType": "uint256",
					"name": "amount",
					"type": "uint256"
				}
			],
			"stateMutability": "view",
			"type": "function"
		},
		{
			"inputs": [
				{
					"internalType": "address",
					"name": "_admin",
					"type": "address"
				}
			],
			"name": "removeCampaignAdmin",
			"outputs": [],
			"stateMutability": "nonpayable",
			"type": "function"
		},
		{
			"inputs": [
				{
					"internalType": "uint256",
					"name": "_campaignId",
					"type": "uint256"
				},
				{
					"internalType": "address",
					"name": "_campaignAddress",
					"type": "address"
				},
				{
					"internalType": "uint256",
					"name": "_amount",
					"type": "uint256"
				},
				{
					"internalType": "address payable",
					"name": "_to",
					"type": "address"
				}
			],
			"name": "withdrawFunds",
			"outputs": [],
			"stateMutability": "nonpayable",
			"type": "function"
		},
		{
			"inputs": [
				{
					"internalType": "address",
					"name": "",
					"type": "address"
				},
				{
					"internalType": "uint256",
					"name": "",
					"type": "uint256"
				}
			],
			"name": "withdrawals",
			"outputs": [
				{
					"internalType": "uint256",
					"name": "campaignId",
					"type": "uint256"
				},
				{
					"internalType": "string",
					"name": "title",
					"type": "string"
				},
				{
					"internalType": "uint256",
					"name": "amount",
					"type": "uint256"
				},
				{
					"internalType": "address",
					"name": "by",
					"type": "address"
				},
				{
					"internalType": "address",
					"name": "to",
					"type": "address"
				}
			],
			"stateMutability": "view",
			"type": "function"
		}
	]
}